{
  "address": "0x1a6ef09115f09327D16b1D3f5d48Bed566360922",
  "abi": [
    {
      "inputs": [
        {
          "internalType": "contract IUniswapV3Factory",
          "name": "factory_",
          "type": "address"
        },
        {
          "internalType": "address",
          "name": "arrakisTreasury_",
          "type": "address"
        }
      ],
      "stateMutability": "nonpayable",
      "type": "constructor"
    },
    {
      "inputs": [
        {
          "internalType": "int24",
          "name": "lowerTick",
          "type": "int24"
        },
        {
          "internalType": "int24",
          "name": "upperTick",
          "type": "int24"
        },
        {
          "internalType": "uint24",
          "name": "feeTier",
          "type": "uint24"
        }
      ],
      "name": "LiquidityZeroError",
      "type": "error"
    },
    {
      "inputs": [
        {
          "internalType": "uint24",
          "name": "feeTier",
          "type": "uint24"
        }
      ],
      "name": "PoolError",
      "type": "error"
    },
    {
      "anonymous": false,
      "inputs": [
        {
          "indexed": true,
          "internalType": "address",
          "name": "owner",
          "type": "address"
        },
        {
          "indexed": true,
          "internalType": "address",
          "name": "spender",
          "type": "address"
        },
        {
          "indexed": false,
          "internalType": "uint256",
          "name": "value",
          "type": "uint256"
        }
      ],
      "name": "Approval",
      "type": "event"
    },
    {
      "anonymous": false,
      "inputs": [
        {
          "indexed": false,
          "internalType": "uint8",
          "name": "version",
          "type": "uint8"
        }
      ],
      "name": "Initialized",
      "type": "event"
    },
    {
      "anonymous": false,
      "inputs": [
        {
          "indexed": true,
          "internalType": "address",
          "name": "vault",
          "type": "address"
        },
        {
          "indexed": false,
          "internalType": "address",
          "name": "user",
          "type": "address"
        },
        {
          "indexed": false,
          "internalType": "uint256",
          "name": "burnAmount0",
          "type": "uint256"
        },
        {
          "indexed": false,
          "internalType": "uint256",
          "name": "burnAmount1",
          "type": "uint256"
        }
      ],
      "name": "LPBurned",
      "type": "event"
    },
    {
      "anonymous": false,
      "inputs": [
        {
          "indexed": true,
          "internalType": "address",
          "name": "vault",
          "type": "address"
        },
        {
          "indexed": false,
          "internalType": "uint24[]",
          "name": "feeTiers",
          "type": "uint24[]"
        }
      ],
      "name": "LogAddPools",
      "type": "event"
    },
    {
      "anonymous": false,
      "inputs": [
        {
          "indexed": true,
          "internalType": "address",
          "name": "vault",
          "type": "address"
        },
        {
          "indexed": false,
          "internalType": "address",
          "name": "receiver",
          "type": "address"
        },
        {
          "indexed": false,
          "internalType": "uint256",
          "name": "burnAmount",
          "type": "uint256"
        },
        {
          "indexed": false,
          "internalType": "uint256",
          "name": "amount0Out",
          "type": "uint256"
        },
        {
          "indexed": false,
          "internalType": "uint256",
          "name": "amount1Out",
          "type": "uint256"
        }
      ],
      "name": "LogBurn",
      "type": "event"
    },
    {
      "anonymous": false,
      "inputs": [
        {
          "indexed": true,
          "internalType": "address",
          "name": "vault",
          "type": "address"
        },
        {
          "indexed": false,
          "internalType": "uint256",
          "name": "fee0",
          "type": "uint256"
        },
        {
          "indexed": false,
          "internalType": "uint256",
          "name": "fee1",
          "type": "uint256"
        }
      ],
      "name": "LogFeesEarn",
      "type": "event"
    },
    {
      "anonymous": false,
      "inputs": [
        {
          "indexed": true,
          "internalType": "address",
          "name": "vault",
          "type": "address"
        },
        {
          "indexed": false,
          "internalType": "uint256",
          "name": "fee0",
          "type": "uint256"
        },
        {
          "indexed": false,
          "internalType": "uint256",
          "name": "fee1",
          "type": "uint256"
        }
      ],
      "name": "LogFeesEarnRebalance",
      "type": "event"
    },
    {
      "anonymous": false,
      "inputs": [
        {
          "indexed": true,
          "internalType": "address",
          "name": "vault",
          "type": "address"
        },
        {
          "indexed": false,
          "internalType": "address",
          "name": "receiver",
          "type": "address"
        },
        {
          "indexed": false,
          "internalType": "uint256",
          "name": "mintAmount",
          "type": "uint256"
        },
        {
          "indexed": false,
          "internalType": "uint256",
          "name": "amount0In",
          "type": "uint256"
        },
        {
          "indexed": false,
          "internalType": "uint256",
          "name": "amount1In",
          "type": "uint256"
        }
      ],
      "name": "LogMint",
      "type": "event"
    },
    {
      "anonymous": false,
      "inputs": [
        {
          "indexed": true,
          "internalType": "address",
          "name": "vault",
          "type": "address"
        },
        {
          "components": [
            {
              "components": [
                {
                  "internalType": "uint128",
                  "name": "liquidity",
                  "type": "uint128"
                },
                {
                  "components": [
                    {
                      "internalType": "int24",
                      "name": "lowerTick",
                      "type": "int24"
                    },
                    {
                      "internalType": "int24",
                      "name": "upperTick",
                      "type": "int24"
                    },
                    {
                      "internalType": "uint24",
                      "name": "feeTier",
                      "type": "uint24"
                    }
                  ],
                  "internalType": "struct Range",
                  "name": "range",
                  "type": "tuple"
                }
              ],
              "internalType": "struct PositionLiquidity[]",
              "name": "removes",
              "type": "tuple[]"
            },
            {
              "components": [
                {
                  "internalType": "uint128",
                  "name": "liquidity",
                  "type": "uint128"
                },
                {
                  "components": [
                    {
                      "internalType": "int24",
                      "name": "lowerTick",
                      "type": "int24"
                    },
                    {
                      "internalType": "int24",
                      "name": "upperTick",
                      "type": "int24"
                    },
                    {
                      "internalType": "uint24",
                      "name": "feeTier",
                      "type": "uint24"
                    }
                  ],
                  "internalType": "struct Range",
                  "name": "range",
                  "type": "tuple"
                }
              ],
              "internalType": "struct PositionLiquidity[]",
              "name": "deposits",
              "type": "tuple[]"
            },
            {
              "components": [
                {
                  "internalType": "bytes",
                  "name": "payload",
                  "type": "bytes"
                },
                {
                  "internalType": "address",
                  "name": "pool",
                  "type": "address"
                },
                {
                  "internalType": "address",
                  "name": "router",
                  "type": "address"
                },
                {
                  "internalType": "uint256",
                  "name": "amountIn",
                  "type": "uint256"
                },
                {
                  "internalType": "uint256",
                  "name": "expectedMinReturn",
                  "type": "uint256"
                },
                {
                  "internalType": "bool",
                  "name": "zeroForOne",
                  "type": "bool"
                }
              ],
              "internalType": "struct SwapPayload",
              "name": "swap",
              "type": "tuple"
            }
          ],
          "indexed": false,
          "internalType": "struct Rebalance",
          "name": "rebalanceParams",
          "type": "tuple"
        }
      ],
      "name": "LogRebalance",
      "type": "event"
    },
    {
      "anonymous": false,
      "inputs": [
        {
          "indexed": true,
          "internalType": "address",
          "name": "vault",
          "type": "address"
        },
        {
          "indexed": false,
          "internalType": "address[]",
          "name": "pools",
          "type": "address[]"
        }
      ],
      "name": "LogRemovePools",
      "type": "event"
    },
    {
      "anonymous": false,
      "inputs": [
        {
          "indexed": true,
          "internalType": "address",
          "name": "vault",
          "type": "address"
        },
        {
          "indexed": false,
          "internalType": "uint16",
          "name": "restrictedMintToggle",
          "type": "uint16"
        }
      ],
      "name": "LogRestrictedMintToggle",
      "type": "event"
    },
    {
      "anonymous": false,
      "inputs": [
        {
          "indexed": true,
          "internalType": "address",
          "name": "vault",
          "type": "address"
        },
        {
          "indexed": false,
          "internalType": "uint256",
          "name": "init0",
          "type": "uint256"
        },
        {
          "indexed": false,
          "internalType": "uint256",
          "name": "init1",
          "type": "uint256"
        }
      ],
      "name": "LogSetInits",
      "type": "event"
    },
    {
      "anonymous": false,
      "inputs": [
        {
          "indexed": true,
          "internalType": "address",
          "name": "vault",
          "type": "address"
        },
        {
          "indexed": false,
          "internalType": "address",
          "name": "oldManager",
          "type": "address"
        },
        {
          "indexed": false,
          "internalType": "address",
          "name": "newManager",
          "type": "address"
        }
      ],
      "name": "LogSetManager",
      "type": "event"
    },
    {
      "anonymous": false,
      "inputs": [
        {
          "indexed": true,
          "internalType": "address",
          "name": "vault",
          "type": "address"
        },
        {
          "indexed": false,
          "internalType": "uint24",
          "name": "oldMaxSlippage",
          "type": "uint24"
        },
        {
          "indexed": false,
          "internalType": "uint24",
          "name": "newMaxSlippage",
          "type": "uint24"
        }
      ],
      "name": "LogSetMaxSlippage",
      "type": "event"
    },
    {
      "anonymous": false,
      "inputs": [
        {
          "indexed": true,
          "internalType": "address",
          "name": "vault",
          "type": "address"
        },
        {
          "indexed": false,
          "internalType": "int24",
          "name": "oldTwapDeviation",
          "type": "int24"
        },
        {
          "indexed": false,
          "internalType": "int24",
          "name": "maxTwapDeviation",
          "type": "int24"
        }
      ],
      "name": "LogSetMaxTwapDeviation",
      "type": "event"
    },
    {
      "anonymous": false,
      "inputs": [
        {
          "indexed": true,
          "internalType": "address",
          "name": "vault",
          "type": "address"
        },
        {
          "indexed": false,
          "internalType": "uint24",
          "name": "oldTwapDuration",
          "type": "uint24"
        },
        {
          "indexed": false,
          "internalType": "uint24",
          "name": "newTwapDuration",
          "type": "uint24"
        }
      ],
      "name": "LogSetTwapDuration",
      "type": "event"
    },
    {
      "anonymous": false,
      "inputs": [
        {
          "indexed": true,
          "internalType": "address",
          "name": "vault",
          "type": "address"
        },
        {
          "indexed": false,
          "internalType": "uint256",
          "name": "amount0",
          "type": "uint256"
        },
        {
          "indexed": false,
          "internalType": "uint256",
          "name": "amount1",
          "type": "uint256"
        }
      ],
      "name": "LogWithdrawArrakisBalance",
      "type": "event"
    },
    {
      "anonymous": false,
      "inputs": [
        {
          "indexed": true,
          "internalType": "address",
          "name": "vault",
          "type": "address"
        },
        {
          "indexed": false,
          "internalType": "uint256",
          "name": "amount0",
          "type": "uint256"
        },
        {
          "indexed": false,
          "internalType": "uint256",
          "name": "amount1",
          "type": "uint256"
        }
      ],
      "name": "LogWithdrawManagerBalance",
      "type": "event"
    },
    {
      "anonymous": false,
      "inputs": [
        {
          "indexed": true,
          "internalType": "address",
          "name": "previousOwner",
          "type": "address"
        },
        {
          "indexed": true,
          "internalType": "address",
          "name": "newOwner",
          "type": "address"
        }
      ],
      "name": "OwnershipTransferred",
      "type": "event"
    },
    {
      "anonymous": false,
      "inputs": [
        {
          "indexed": true,
          "internalType": "address",
          "name": "from",
          "type": "address"
        },
        {
          "indexed": true,
          "internalType": "address",
          "name": "to",
          "type": "address"
        },
        {
          "indexed": false,
          "internalType": "uint256",
          "name": "value",
          "type": "uint256"
        }
      ],
      "name": "Transfer",
      "type": "event"
    },
    {
      "inputs": [
        {
          "internalType": "uint24[]",
          "name": "feeTiers_",
          "type": "uint24[]"
        }
      ],
      "name": "addPools",
      "outputs": [],
      "stateMutability": "nonpayable",
      "type": "function"
    },
    {
      "inputs": [
        {
          "internalType": "address",
          "name": "owner",
          "type": "address"
        },
        {
          "internalType": "address",
          "name": "spender",
          "type": "address"
        }
      ],
      "name": "allowance",
      "outputs": [
        {
          "internalType": "uint256",
          "name": "",
          "type": "uint256"
        }
      ],
      "stateMutability": "view",
      "type": "function"
    },
    {
      "inputs": [
        {
          "internalType": "address",
          "name": "spender",
          "type": "address"
        },
        {
          "internalType": "uint256",
          "name": "amount",
          "type": "uint256"
        }
      ],
      "name": "approve",
      "outputs": [
        {
          "internalType": "bool",
          "name": "",
          "type": "bool"
        }
      ],
      "stateMutability": "nonpayable",
      "type": "function"
    },
    {
      "inputs": [],
      "name": "arrakisBalance0",
      "outputs": [
        {
          "internalType": "uint256",
          "name": "",
          "type": "uint256"
        }
      ],
      "stateMutability": "view",
      "type": "function"
    },
    {
      "inputs": [],
      "name": "arrakisBalance1",
      "outputs": [
        {
          "internalType": "uint256",
          "name": "",
          "type": "uint256"
        }
      ],
      "stateMutability": "view",
      "type": "function"
    },
    {
      "inputs": [],
      "name": "arrakisFeeBPS",
      "outputs": [
        {
          "internalType": "uint16",
          "name": "",
          "type": "uint16"
        }
      ],
      "stateMutability": "view",
      "type": "function"
    },
    {
      "inputs": [],
      "name": "arrakisTreasury",
      "outputs": [
        {
          "internalType": "address",
          "name": "",
          "type": "address"
        }
      ],
      "stateMutability": "view",
      "type": "function"
    },
    {
      "inputs": [
        {
          "internalType": "address",
          "name": "account",
          "type": "address"
        }
      ],
      "name": "balanceOf",
      "outputs": [
        {
          "internalType": "uint256",
          "name": "",
          "type": "uint256"
        }
      ],
      "stateMutability": "view",
      "type": "function"
    },
    {
      "inputs": [
        {
          "components": [
            {
              "internalType": "uint128",
              "name": "liquidity",
              "type": "uint128"
            },
            {
              "components": [
                {
                  "internalType": "int24",
                  "name": "lowerTick",
                  "type": "int24"
                },
                {
                  "internalType": "int24",
                  "name": "upperTick",
                  "type": "int24"
                },
                {
                  "internalType": "uint24",
                  "name": "feeTier",
                  "type": "uint24"
                }
              ],
              "internalType": "struct Range",
              "name": "range",
              "type": "tuple"
            }
          ],
          "internalType": "struct BurnLiquidity[]",
          "name": "burns_",
          "type": "tuple[]"
        },
        {
          "internalType": "uint256",
          "name": "burnAmount_",
          "type": "uint256"
        },
        {
          "internalType": "address",
          "name": "receiver_",
          "type": "address"
        }
      ],
      "name": "burn",
      "outputs": [
        {
          "internalType": "uint256",
          "name": "amount0",
          "type": "uint256"
        },
        {
          "internalType": "uint256",
          "name": "amount1",
          "type": "uint256"
        }
      ],
      "stateMutability": "nonpayable",
      "type": "function"
    },
    {
      "inputs": [],
      "name": "decimals",
      "outputs": [
        {
          "internalType": "uint8",
          "name": "",
          "type": "uint8"
        }
      ],
      "stateMutability": "view",
      "type": "function"
    },
    {
      "inputs": [
        {
          "internalType": "address",
          "name": "spender",
          "type": "address"
        },
        {
          "internalType": "uint256",
          "name": "subtractedValue",
          "type": "uint256"
        }
      ],
      "name": "decreaseAllowance",
      "outputs": [
        {
          "internalType": "bool",
          "name": "",
          "type": "bool"
        }
      ],
      "stateMutability": "nonpayable",
      "type": "function"
    },
    {
      "inputs": [],
      "name": "factory",
      "outputs": [
        {
          "internalType": "contract IUniswapV3Factory",
          "name": "",
          "type": "address"
        }
      ],
      "stateMutability": "view",
      "type": "function"
    },
    {
      "inputs": [
        {
          "internalType": "address",
          "name": "spender",
          "type": "address"
        },
        {
          "internalType": "uint256",
          "name": "addedValue",
          "type": "uint256"
        }
      ],
      "name": "increaseAllowance",
      "outputs": [
        {
          "internalType": "bool",
          "name": "",
          "type": "bool"
        }
      ],
      "stateMutability": "nonpayable",
      "type": "function"
    },
    {
      "inputs": [],
      "name": "init0",
      "outputs": [
        {
          "internalType": "uint256",
          "name": "",
          "type": "uint256"
        }
      ],
      "stateMutability": "view",
      "type": "function"
    },
    {
      "inputs": [],
      "name": "init1",
      "outputs": [
        {
          "internalType": "uint256",
          "name": "",
          "type": "uint256"
        }
      ],
      "stateMutability": "view",
      "type": "function"
    },
    {
      "inputs": [
        {
          "internalType": "string",
          "name": "name_",
          "type": "string"
        },
        {
          "internalType": "string",
          "name": "symbol_",
          "type": "string"
        },
        {
          "components": [
            {
              "internalType": "uint24[]",
              "name": "feeTiers",
              "type": "uint24[]"
            },
            {
              "internalType": "address",
              "name": "token0",
              "type": "address"
            },
            {
              "internalType": "address",
              "name": "token1",
              "type": "address"
            },
            {
              "internalType": "address",
              "name": "owner",
              "type": "address"
            },
            {
              "internalType": "uint256",
              "name": "init0",
              "type": "uint256"
            },
            {
              "internalType": "uint256",
              "name": "init1",
              "type": "uint256"
            },
            {
              "internalType": "address",
              "name": "manager",
              "type": "address"
            },
            {
              "internalType": "int24",
              "name": "maxTwapDeviation",
              "type": "int24"
            },
            {
              "internalType": "uint24",
              "name": "twapDuration",
              "type": "uint24"
            },
            {
              "internalType": "uint24",
              "name": "maxSlippage",
              "type": "uint24"
            }
          ],
          "internalType": "struct InitializePayload",
          "name": "params_",
          "type": "tuple"
        }
      ],
      "name": "initialize",
      "outputs": [],
      "stateMutability": "nonpayable",
      "type": "function"
    },
    {
      "inputs": [],
      "name": "manager",
      "outputs": [
        {
          "internalType": "contract IManagerProxyV2",
          "name": "",
          "type": "address"
        }
      ],
      "stateMutability": "view",
      "type": "function"
    },
    {
      "inputs": [],
      "name": "managerBalance0",
      "outputs": [
        {
          "internalType": "uint256",
          "name": "",
          "type": "uint256"
        }
      ],
      "stateMutability": "view",
      "type": "function"
    },
    {
      "inputs": [],
      "name": "managerBalance1",
      "outputs": [
        {
          "internalType": "uint256",
          "name": "",
          "type": "uint256"
        }
      ],
      "stateMutability": "view",
      "type": "function"
    },
    {
      "inputs": [],
      "name": "maxSlippage",
      "outputs": [
        {
          "internalType": "uint24",
          "name": "",
          "type": "uint24"
        }
      ],
      "stateMutability": "view",
      "type": "function"
    },
    {
      "inputs": [],
      "name": "maxTwapDeviation",
      "outputs": [
        {
          "internalType": "int24",
          "name": "",
          "type": "int24"
        }
      ],
      "stateMutability": "view",
      "type": "function"
    },
    {
      "inputs": [
        {
          "internalType": "uint256",
          "name": "mintAmount_",
          "type": "uint256"
        },
        {
          "internalType": "address",
          "name": "receiver_",
          "type": "address"
        }
      ],
      "name": "mint",
      "outputs": [
        {
          "internalType": "uint256",
          "name": "amount0",
          "type": "uint256"
        },
        {
          "internalType": "uint256",
          "name": "amount1",
          "type": "uint256"
        }
      ],
      "stateMutability": "nonpayable",
      "type": "function"
    },
    {
      "inputs": [],
      "name": "name",
      "outputs": [
        {
          "internalType": "string",
          "name": "",
          "type": "string"
        }
      ],
      "stateMutability": "view",
      "type": "function"
    },
    {
      "inputs": [],
      "name": "owner",
      "outputs": [
        {
          "internalType": "address",
          "name": "",
          "type": "address"
        }
      ],
      "stateMutability": "view",
      "type": "function"
    },
    {
      "inputs": [
        {
          "components": [
            {
              "internalType": "int24",
              "name": "lowerTick",
              "type": "int24"
            },
            {
              "internalType": "int24",
              "name": "upperTick",
              "type": "int24"
            },
            {
              "internalType": "uint24",
              "name": "feeTier",
              "type": "uint24"
            }
          ],
          "internalType": "struct Range",
          "name": "range_",
          "type": "tuple"
        }
      ],
      "name": "rangeExist",
      "outputs": [
        {
          "internalType": "bool",
          "name": "ok",
          "type": "bool"
        },
        {
          "internalType": "uint256",
          "name": "index",
          "type": "uint256"
        }
      ],
      "stateMutability": "view",
      "type": "function"
    },
    {
      "inputs": [
        {
          "internalType": "uint256",
          "name": "",
          "type": "uint256"
        }
      ],
      "name": "ranges",
      "outputs": [
        {
          "internalType": "int24",
          "name": "lowerTick",
          "type": "int24"
        },
        {
          "internalType": "int24",
          "name": "upperTick",
          "type": "int24"
        },
        {
          "internalType": "uint24",
          "name": "feeTier",
          "type": "uint24"
        }
      ],
      "stateMutability": "view",
      "type": "function"
    },
    {
      "inputs": [
        {
          "components": [
            {
              "internalType": "int24",
              "name": "lowerTick",
              "type": "int24"
            },
            {
              "internalType": "int24",
              "name": "upperTick",
              "type": "int24"
            },
            {
              "internalType": "uint24",
              "name": "feeTier",
              "type": "uint24"
            }
          ],
          "internalType": "struct Range[]",
          "name": "ranges_",
          "type": "tuple[]"
        },
        {
          "components": [
            {
              "components": [
                {
                  "internalType": "uint128",
                  "name": "liquidity",
                  "type": "uint128"
                },
                {
                  "components": [
                    {
                      "internalType": "int24",
                      "name": "lowerTick",
                      "type": "int24"
                    },
                    {
                      "internalType": "int24",
                      "name": "upperTick",
                      "type": "int24"
                    },
                    {
                      "internalType": "uint24",
                      "name": "feeTier",
                      "type": "uint24"
                    }
                  ],
                  "internalType": "struct Range",
                  "name": "range",
                  "type": "tuple"
                }
              ],
              "internalType": "struct PositionLiquidity[]",
              "name": "removes",
              "type": "tuple[]"
            },
            {
              "components": [
                {
                  "internalType": "uint128",
                  "name": "liquidity",
                  "type": "uint128"
                },
                {
                  "components": [
                    {
                      "internalType": "int24",
                      "name": "lowerTick",
                      "type": "int24"
                    },
                    {
                      "internalType": "int24",
                      "name": "upperTick",
                      "type": "int24"
                    },
                    {
                      "internalType": "uint24",
                      "name": "feeTier",
                      "type": "uint24"
                    }
                  ],
                  "internalType": "struct Range",
                  "name": "range",
                  "type": "tuple"
                }
              ],
              "internalType": "struct PositionLiquidity[]",
              "name": "deposits",
              "type": "tuple[]"
            },
            {
              "components": [
                {
                  "internalType": "bytes",
                  "name": "payload",
                  "type": "bytes"
                },
                {
                  "internalType": "address",
                  "name": "pool",
                  "type": "address"
                },
                {
                  "internalType": "address",
                  "name": "router",
                  "type": "address"
                },
                {
                  "internalType": "uint256",
                  "name": "amountIn",
                  "type": "uint256"
                },
                {
                  "internalType": "uint256",
                  "name": "expectedMinReturn",
                  "type": "uint256"
                },
                {
                  "internalType": "bool",
                  "name": "zeroForOne",
                  "type": "bool"
                }
              ],
              "internalType": "struct SwapPayload",
              "name": "swap",
              "type": "tuple"
            }
          ],
          "internalType": "struct Rebalance",
          "name": "rebalanceParams_",
          "type": "tuple"
        },
        {
          "components": [
            {
              "internalType": "int24",
              "name": "lowerTick",
              "type": "int24"
            },
            {
              "internalType": "int24",
              "name": "upperTick",
              "type": "int24"
            },
            {
              "internalType": "uint24",
              "name": "feeTier",
              "type": "uint24"
            }
          ],
          "internalType": "struct Range[]",
          "name": "rangesToRemove_",
          "type": "tuple[]"
        }
      ],
      "name": "rebalance",
      "outputs": [],
      "stateMutability": "nonpayable",
      "type": "function"
    },
    {
      "inputs": [
        {
          "internalType": "address[]",
          "name": "pools_",
          "type": "address[]"
        }
      ],
      "name": "removePools",
      "outputs": [],
      "stateMutability": "nonpayable",
      "type": "function"
    },
    {
      "inputs": [],
      "name": "renounceOwnership",
      "outputs": [],
      "stateMutability": "nonpayable",
      "type": "function"
    },
    {
      "inputs": [],
      "name": "restrictedMintToggle",
      "outputs": [
        {
          "internalType": "uint16",
          "name": "",
          "type": "uint16"
        }
      ],
      "stateMutability": "view",
      "type": "function"
    },
    {
      "inputs": [
        {
          "internalType": "uint256",
          "name": "init0_",
          "type": "uint256"
        },
        {
          "internalType": "uint256",
          "name": "init1_",
          "type": "uint256"
        }
      ],
      "name": "setInits",
      "outputs": [],
      "stateMutability": "nonpayable",
      "type": "function"
    },
    {
      "inputs": [
        {
          "internalType": "contract IManagerProxyV2",
          "name": "manager_",
          "type": "address"
        }
      ],
      "name": "setManager",
      "outputs": [],
      "stateMutability": "nonpayable",
      "type": "function"
    },
    {
      "inputs": [
        {
          "internalType": "uint24",
          "name": "maxSlippage_",
          "type": "uint24"
        }
      ],
      "name": "setMaxSlippage",
      "outputs": [],
      "stateMutability": "nonpayable",
      "type": "function"
    },
    {
      "inputs": [
        {
          "internalType": "int24",
          "name": "maxTwapDeviation_",
          "type": "int24"
        }
      ],
      "name": "setMaxTwapDeviation",
      "outputs": [],
      "stateMutability": "nonpayable",
      "type": "function"
    },
    {
      "inputs": [
        {
          "internalType": "uint24",
          "name": "twapDuration_",
          "type": "uint24"
        }
      ],
      "name": "setTwapDuration",
      "outputs": [],
      "stateMutability": "nonpayable",
      "type": "function"
    },
    {
      "inputs": [],
      "name": "symbol",
      "outputs": [
        {
          "internalType": "string",
          "name": "",
          "type": "string"
        }
      ],
      "stateMutability": "view",
      "type": "function"
    },
    {
      "inputs": [],
      "name": "toggleRestrictMint",
      "outputs": [],
      "stateMutability": "nonpayable",
      "type": "function"
    },
    {
      "inputs": [],
      "name": "token0",
      "outputs": [
        {
          "internalType": "contract IERC20",
          "name": "",
          "type": "address"
        }
      ],
      "stateMutability": "view",
      "type": "function"
    },
    {
      "inputs": [],
      "name": "token1",
      "outputs": [
        {
          "internalType": "contract IERC20",
          "name": "",
          "type": "address"
        }
      ],
      "stateMutability": "view",
      "type": "function"
    },
    {
      "inputs": [],
      "name": "totalSupply",
      "outputs": [
        {
          "internalType": "uint256",
          "name": "",
          "type": "uint256"
        }
      ],
      "stateMutability": "view",
      "type": "function"
    },
    {
      "inputs": [
        {
          "internalType": "address",
          "name": "to",
          "type": "address"
        },
        {
          "internalType": "uint256",
          "name": "amount",
          "type": "uint256"
        }
      ],
      "name": "transfer",
      "outputs": [
        {
          "internalType": "bool",
          "name": "",
          "type": "bool"
        }
      ],
      "stateMutability": "nonpayable",
      "type": "function"
    },
    {
      "inputs": [
        {
          "internalType": "address",
          "name": "from",
          "type": "address"
        },
        {
          "internalType": "address",
          "name": "to",
          "type": "address"
        },
        {
          "internalType": "uint256",
          "name": "amount",
          "type": "uint256"
        }
      ],
      "name": "transferFrom",
      "outputs": [
        {
          "internalType": "bool",
          "name": "",
          "type": "bool"
        }
      ],
      "stateMutability": "nonpayable",
      "type": "function"
    },
    {
      "inputs": [
        {
          "internalType": "address",
          "name": "newOwner",
          "type": "address"
        }
      ],
      "name": "transferOwnership",
      "outputs": [],
      "stateMutability": "nonpayable",
      "type": "function"
    },
    {
      "inputs": [],
      "name": "twapDuration",
      "outputs": [
        {
          "internalType": "uint24",
          "name": "",
          "type": "uint24"
        }
      ],
      "stateMutability": "view",
      "type": "function"
    },
    {
      "inputs": [
        {
          "internalType": "uint256",
          "name": "amount0Owed_",
          "type": "uint256"
        },
        {
          "internalType": "uint256",
          "name": "amount1Owed_",
          "type": "uint256"
        },
        {
          "internalType": "bytes",
          "name": "",
          "type": "bytes"
        }
      ],
      "name": "uniswapV3MintCallback",
      "outputs": [],
      "stateMutability": "nonpayable",
      "type": "function"
    },
    {
      "inputs": [
        {
          "internalType": "int256",
          "name": "amount0Delta_",
          "type": "int256"
        },
        {
          "internalType": "int256",
          "name": "amount1Delta_",
          "type": "int256"
        },
        {
          "internalType": "bytes",
          "name": "",
          "type": "bytes"
        }
      ],
      "name": "uniswapV3SwapCallback",
      "outputs": [],
      "stateMutability": "nonpayable",
      "type": "function"
    },
    {
      "inputs": [],
      "name": "version",
      "outputs": [
        {
          "internalType": "string",
          "name": "",
          "type": "string"
        }
      ],
      "stateMutability": "view",
      "type": "function"
    },
    {
      "inputs": [],
      "name": "withdrawArrakisBalance",
      "outputs": [],
      "stateMutability": "nonpayable",
      "type": "function"
    },
    {
      "inputs": [],
      "name": "withdrawManagerBalance",
      "outputs": [],
      "stateMutability": "nonpayable",
      "type": "function"
    }
  ],
  "transactionHash": "0x67d8df1fc0e859e8e4065b052f7c98b86f9ee55682829e784942f9aeebc46089",
  "args": [
    "0x1F98431c8aD98523631AE4a59f267346ea31F984",
    "0xDEb4C33D5C3E7e32F55a9D6336FE06010E40E3AB"
  ],
  "numDeployments": 4,
  "solcInputHash": "de2d8e0ade5b0dbff285f42bddc17aab",
  "bytecode": "0x60c06040523480156200001157600080fd5b5060405162006146380380620061468339810160408190526200003491620000fb565b81816001600160a01b0382166200007c5760405162461bcd60e51b8152602060048201526007602482015266666163746f727960c81b60448201526064015b60405180910390fd5b6001600160a01b038116620000c75760405162461bcd60e51b815260206004820152601060248201526f617272616b697320747265617375727960801b604482015260640162000073565b6001600160a01b039182166080521660a052506200013a9050565b6001600160a01b0381168114620000f857600080fd5b50565b600080604083850312156200010f57600080fd5b82516200011c81620000e2565b60208401519092506200012f81620000e2565b809150509250929050565b60805160a051615fa0620001a6600039600081816104fd015281816118c201526118ff01526000818161052d015281816115ba01528181611b650152818161201801528181612a0f01528181612db201528181612f03015281816130610152613b480152615fa06000f3fe608060405234801561001057600080fd5b506004361061023b5760003560e01c8063065756db1461024057806306fdde031461025c578063095ea7b3146102715780630dfe16811461029457806314b80630146102b457806318160ddd146102bd57806323b872dd146102c557806326d89545146102d8578063313ce567146103025780633926ab5f1461031157806339509351146103265780633cbff3fe146103395780633f7b61351461034c57806342fb9d441461035f578063481c6a75146103685780634b1641401461037b5780634e380ab41461038e57806354fd4d50146103a157806356d9b051146103c55780635f59dce5146103d85780635fdecdfa146103e0578063670f13a11461040257806370a082311461042c578063715018a6146104555780637ecd67171461045d57806386ac1cb9146104655780638c04166f146104785780638da5cb5b1461048e5780638daf0ce41461049657806394bf804d146104a957806395d89b41146104ca578063a457c2d7146104d2578063a9059cbb146104e5578063b9f24cb2146104f8578063bbfe704e1461051f578063c45a015514610528578063c70750411461054f578063d0ebdbe71461056a578063d21220a71461057d578063d348799714610590578063d8953ca7146105a3578063dc9ad4c1146105ac578063dd40e322146105b4578063dd62ed3e146105c2578063e7c7cb91146105d5578063f2eb3e34146105fb578063f2fde38b14610604578063f4effe4114610617578063fa461e331461062a575b600080fd5b61024960d15481565b6040519081526020015b60405180910390f35b61026461063d565b6040516102539190614d3f565b61028461027f366004614d87565b6106cf565b6040519015158152602001610253565b60c9546102a7906001600160a01b031681565b6040516102539190614dc0565b61024960cb5481565b606754610249565b6102846102d3366004614dd4565b6106e9565b60d3546102ee90600160281b900462ffffff1681565b60405162ffffff9091168152602001610253565b60405160128152602001610253565b61032461031f366004614e26565b61070f565b005b610284610334366004614d87565b610798565b610324610347366004614e52565b6107ba565b61032461035a366004614e6f565b610836565b61024960d25481565b60d0546102a7906001600160a01b031681565b610324610389366004614edc565b6108c4565b61032461039c366004614e26565b610a37565b610264604051806040016040528060058152602001640312e302e360dc1b81525081565b6103246103d3366004614f5e565b610aac565b61032461111c565b6103f36103ee366004614ff9565b6111ac565b60405161025393929190615012565b61041561041036600461504c565b6111e8565b604080519215158352602083019190915201610253565b61024961043a366004615068565b6001600160a01b031660009081526065602052604090205490565b61032461126e565b6103246112a9565b610324610473366004614edc565b61133b565b60d3546102ee90600160401b900462ffffff1681565b6102a76113b3565b6103246104a43660046150c9565b6113c2565b6104bc6104b736600461515d565b611426565b60405161025392919061518d565b610264611775565b6102846104e0366004614d87565b611784565b6102846104f3366004614d87565b61180a565b6102a77f000000000000000000000000000000000000000000000000000000000000000081565b61024960cf5481565b6102a77f000000000000000000000000000000000000000000000000000000000000000081565b61055760fa81565b60405161ffff9091168152602001610253565b610324610578366004615068565b611818565b60ca546102a7906001600160a01b031681565b61032461059e36600461519b565b611888565b61024960ce5481565b610324611898565b60d3546105579061ffff1681565b6102496105d03660046151ed565b61195f565b60d3546105e89062010000900460020b81565b60405160029190910b8152602001610253565b61024960cc5481565b610324610612366004615068565b61198a565b6104bc61062536600461521b565b611a2a565b61032461063836600461519b565b612575565b60606068805461064c906152a8565b80601f0160208091040260200160405190810160405280929190818152602001828054610678906152a8565b80156106c55780601f1061069a576101008083540402835291602001916106c5565b820191906000526020600020905b8154815290600101906020018083116106a857829003601f168201915b5050505050905090565b6000336106dd81858561258f565b60019150505b92915050565b6000336106f78582856126b3565b610702858585612727565b60019150505b9392505050565b336107186113b3565b6001600160a01b0316146107475760405162461bcd60e51b815260040161073e906152dc565b60405180910390fd5b60d3805462ffffff838116600160281b90810262ffffff60281b198416179093556040513093600080516020615f4b8339815191529361078d9391900416908590615311565b60405180910390a250565b6000336106dd8185856107ab838361195f565b6107b5919061533d565b61258f565b336107c36113b3565b6001600160a01b0316146107e95760405162461bcd60e51b815260040161073e906152dc565b60d3805462ffffff83166201000090810264ffffff0000198316179092556040805192909104600290810b835283900b60208301523091600080516020615f2b833981519152910161078d565b3361083f6113b3565b6001600160a01b0316146108655760405162461bcd60e51b815260040161073e906152dc565b606754156108855760405162461bcd60e51b815260040161073e90615355565b306001600160a01b0316600080516020615f0b8339815191528360cb8190558360cc8190556040516108b892919061518d565b60405180910390a25050565b336108cd6113b3565b6001600160a01b0316146108f35760405162461bcd60e51b815260040161073e906152dc565b60005b818110156109fb5760008383838181106109125761091261537b565b90506020020160208101906109279190615068565b6001600160a01b03160361094d5760405162461bcd60e51b815260040161073e90615391565b61097f8383838181106109625761096261537b565b90506020020160208101906109779190615068565b60d4906128e3565b6109b65760405162461bcd60e51b81526020600482015260086024820152671b9bdd081c1bdbdb60c21b604482015260640161073e565b6109e88383838181106109cb576109cb61537b565b90506020020160208101906109e09190615068565b60d4906128f8565b50806109f3816153b7565b9150506108f6565b50306001600160a01b03167f834653da59f4b6941a549cf8587f1cebaaec073ee6922117339ba04f2abe6e6583836040516108b89291906153d0565b33610a406113b3565b6001600160a01b031614610a665760405162461bcd60e51b815260040161073e906152dc565b60d3805462ffffff838116600160401b90810262ffffff60401b198416179093556040513093600080516020615e6b8339815191529361078d9391900416908590615311565b6000610ab8600161290d565b90508015610ad0576000805461ff0019166101001790555b6000610adc838061541e565b905011610b195760405162461bcd60e51b815260206004820152600b60248201526a3737903332b2903a34b2b960a91b604482015260640161073e565b6000610b2b6040840160208501615068565b6001600160a01b031603610b6a5760405162461bcd60e51b81526020600482015260066024820152650746f6b656e360d41b604482015260640161073e565b610b7a6060830160408401615068565b6001600160a01b0316610b936040840160208501615068565b6001600160a01b031610610bdd5760405162461bcd60e51b81526020600482015260116024820152703bb937b733903a37b5b2b71037b93232b960791b604482015260640161073e565b6000826080013511610c195760405162461bcd60e51b81526020600482015260056024820152640696e6974360dc1b604482015260640161073e565b60008260a0013511610c555760405162461bcd60e51b8152602060048201526005602482015264696e69743160d81b604482015260640161073e565b6000610c6961014084016101208501614e26565b62ffffff1611610cac5760405162461bcd60e51b815260206004820152600e60248201526d06d617820736c69707061676520360941b604482015260640161073e565b6000610cbe60e0840160c08501615068565b6001600160a01b031603610d0e5760405162461bcd60e51b815260206004820152601760248201527637379020b2323932b9b9902d32b9379026b0b730b3b2b960491b604482015260640161073e565b6000610d21610100840160e08501614e52565b60020b13610d415760405162461bcd60e51b815260040161073e90615467565b6000610d5561012084016101008501614e26565b62ffffff1611610d775760405162461bcd60e51b815260040161073e90615467565b6000309050610def87878080601f01602080910402602001604051908101604052809392919081815260200183838082843760009201919091525050604080516020601f8b01819004810282018101909252898152925089915088908190840183828082843760009201919091525061299c92505050565b610df76129d1565b610e29610e04848061541e565b610e146040870160208801615068565b610e246060880160408901615068565b612a00565b610e396040840160208501615068565b60c980546001600160a01b0319166001600160a01b0392909216919091179055610e696060840160408501615068565b60ca80546001600160a01b0319166001600160a01b0392909216919091179055610ea1610e9c6080850160608601615068565b612b34565b610eb160e0840160c08501615068565b60d080546001600160a01b0319166001600160a01b039283161790558116600080516020615e4b833981519152610ee8858061541e565b604051610ef6929190615491565b60405180910390a2806001600160a01b0316600080516020615f0b833981519152846080013560cb8190558560a0013560cc819055604051610f3992919061518d565b60405180910390a26001600160a01b038116600080516020615eeb8339815191526000610f6c60e0870160c08801615068565b604051610f7a9291906154d0565b60405180910390a260d3546001600160a01b03821690600080516020615f2b8339815191529062010000900460020b610fba610100870160e08801614e52565b60d3805464ffffff000019166201000062ffffff84160217905560408051600293840b81529190920b60208201520160405180910390a260d3546001600160a01b03821690600080516020615f4b83398151915290600160281b900462ffffff1661102d61012087016101008801614e26565b60d3805462ffffff60281b1916600160281b62ffffff841602179055604051611057929190615311565b60405180910390a260d3546001600160a01b03821690600080516020615e6b83398151915290600160401b900462ffffff1661109b61014087016101208801614e26565b60d3805462ffffff60401b1916600160401b62ffffff8416021790556040516110c5929190615311565b60405180910390a2508015611114576000805461ff0019169055604051600181527f7f26b83ff96e1f2b6a682f133852f6798a09c465da95921460cefb38474024989060200160405180910390a15b505050505050565b60d0546001600160a01b031633146111465760405162461bcd60e51b815260040161073e906154ea565b60d35430907f997aead5e1b44b8a7bff5b31972e84adbfc3311a188f75619b2edb6fea7abc7f9061ffff16612b671461118157612b67611184565b60005b60d3805461ffff191661ffff92909216918217905560405190815260200160405180910390a2565b60cd81815481106111bc57600080fd5b600091825260209091200154600281810b925063010000008204900b90600160301b900462ffffff1683565b600080734269122bb5Bd06aC93517c682CdEcbF190Ee248a6335f8054760cd856040518363ffffffff1660e01b8152600401611225929190615552565b6040805180830381865af4158015611241573d6000803e3d6000fd5b505050506040513d601f19601f8201168201806040525081019061126591906155db565b91509150915091565b336112776113b3565b6001600160a01b03161461129d5760405162461bcd60e51b815260040161073e906152dc565b6112a76000612b34565b565b60d1805460d280546000938490559290559081156112de5760d05460c9546112de916001600160a01b03918216911684612b86565b80156113015760d05460ca54611301916001600160a01b03918216911683612b86565b306001600160a01b03167ece17cafd473b3e1e2e536ddc92e042d8e5422bafcb79580aedfe243ac6872983836040516108b892919061518d565b336113446113b3565b6001600160a01b03161461136a5760405162461bcd60e51b815260040161073e906152dc565b60c95460ca5461138a91849184916001600160a01b039081169116612a00565b306001600160a01b0316600080516020615e4b83398151915283836040516108b8929190615491565b6033546001600160a01b031690565b60d0546001600160a01b031633146113ec5760405162461bcd60e51b815260040161073e906154ea565b6113f68282612be1565b60c95460ca5461141691879187916001600160a01b039081169116612d6b565b61141f8361300f565b5050505050565b60008060026097540361144b5760405162461bcd60e51b815260040161073e90615609565b60026097558361148b5760405162461bcd60e51b815260206004820152600b60248201526a1b5a5b9d08185b5bdd5b9d60aa1b604482015260640161073e565b60d35461ffff16612b671415806114ac575060d0546001600160a01b031633145b6114e55760405162461bcd60e51b815260206004820152600a6024820152691c995cdd1c9a58dd195960b21b604482015260640161073e565b3060006114f160675490565b90506000806000806000851161150f5760cb5460cc54600080611664565b732dE54557C0528C2aCC4Bd23e9c8eEaa3D1e0b84e63e56f4d916040518060a0016040528060cd805480602002602001604051908101604052809291908181526020016000905b828210156115a95760008481526020908190206040805160608101825291850154600281810b845263010000008204900b83850152600160301b900462ffffff1690820152825260019092019101611556565b505050908252506001600160a01b037f00000000000000000000000000000000000000000000000000000000000000008116602083015260c954811660408084019190915260ca5482166060840152908b16608090920191909152516001600160e01b031960e084901b1681526116239190600401615640565b608060405180830381865af4158015611640573d6000803e3d6000fd5b505050506040513d601f19601f820116820180604052508101906116649190615700565b9350935093509350600080861161168357670de0b6b3a7640000611685565b855b90506116928b8683613e42565b985061169f8b8583613e42565b97506116ab8a8c613e8b565b88156116c95760c9546116c9906001600160a01b031633898c613f58565b87156116e75760ca546116e7906001600160a01b031633898b613f58565b866001600160a01b0316600080516020615e8b833981519152848460405161171092919061518d565b60405180910390a2866001600160a01b03167f3a726725a45f02ba253c4b8a98c646c5a795d697efcd821da95c673e9dd7de8e8b8d8c8c6040516117579493929190615736565b60405180910390a25050505050505060016097819055509250929050565b60606069805461064c906152a8565b60003381611792828661195f565b9050838110156117f25760405162461bcd60e51b815260206004820152602560248201527f45524332303a2064656372656173656420616c6c6f77616e63652062656c6f77604482015264207a65726f60d81b606482015260840161073e565b6117ff828686840361258f565b506001949350505050565b6000336106dd818585612727565b336118216113b3565b6001600160a01b0316146118475760405162461bcd60e51b815260040161073e906152dc565b60d080546001600160a01b038381166001600160a01b03198316179092556040513092600080516020615eeb8339815191529261078d9291169085906154d0565b6118928484613f90565b50505050565b60ce805460cf80546000938490559290559081156118e75760c9546118e7906001600160a01b03167f000000000000000000000000000000000000000000000000000000000000000084612b86565b80156119245760ca54611924906001600160a01b03167f000000000000000000000000000000000000000000000000000000000000000083612b86565b306001600160a01b03167f30d3075d5b66b5f76224a4d20775f835cef3a025227dca6c54335cee15b5ed7983836040516108b892919061518d565b6001600160a01b03918216600090815260666020908152604080832093909416825291909152205490565b336119936113b3565b6001600160a01b0316146119b95760405162461bcd60e51b815260040161073e906152dc565b6001600160a01b038116611a1e5760405162461bcd60e51b815260206004820152602660248201527f4f776e61626c653a206e6577206f776e657220697320746865207a65726f206160448201526564647265737360d01b606482015260840161073e565b611a2781612b34565b50565b600080600260975403611a4f5760405162461bcd60e51b815260040161073e90615609565b60026097556000611a5f60675490565b905060008111611a815760405162461bcd60e51b815260040161073e90615355565b611aba6040518060c001604052806000815260200160008152602001600081526020016000815260200160008152602001600081525090565b732dE54557C0528C2aCC4Bd23e9c8eEaa3D1e0b84e63e56f4d916040518060a0016040528060cd805480602002602001604051908101604052809291908181526020016000905b82821015611b545760008481526020908190206040805160608101825291850154600281810b845263010000008204900b83850152600160301b900462ffffff1690820152825260019092019101611b01565b505050908252506001600160a01b037f00000000000000000000000000000000000000000000000000000000000000008116602083015260c954811660408084019190915260ca54909116606083015230608090920191909152516001600160e01b031960e084901b168152611bcd9190600401615640565b608060405180830381865af4158015611bea573d6000803e3d6000fd5b505050506040513d601f19601f82011682018060405250810190611c0e9190615700565b606085015260408401526020830152815260ce5460d154611c2f919061533d565b60c9546040516370a0823160e01b81526001600160a01b03909116906370a0823190611c5f903090600401614dc0565b602060405180830381865afa158015611c7c573d6000803e3d6000fd5b505050506040513d601f19601f82011682018060405250810190611ca0919061575c565b611caa9190615775565b608082015260cf5460d254611cbf919061533d565b60ca546040516370a0823160e01b81526001600160a01b03909116906370a0823190611cef903090600401614dc0565b602060405180830381865afa158015611d0c573d6000803e3d6000fd5b505050506040513d601f19601f82011682018060405250810190611d30919061575c565b611d3a9190615775565b8160a001818152505060008073a8dEd13FdBc000D9cF3bAAE27d71568E5cc7862F636d50cdaf8460400151856060015160d060009054906101000a90046001600160a01b03166001600160a01b031663ccdf7a026040518163ffffffff1660e01b8152600401602060405180830381865afa158015611dbd573d6000803e3d6000fd5b505050506040513d601f19601f82011682018060405250810190611de1919061578c565b60fa6040518563ffffffff1660e01b8152600401611e0294939291906157b0565b6040805180830381865af4158015611e1e573d6000803e3d6000fd5b505050506040513d601f19601f82011682018060405250810190611e4291906157d2565b91509150818360400151611e569190615775565b83518490611e65908390615775565b9052506060830151611e78908290615775565b83602001818151611e899190615775565b905250508151611e9b91508784614013565b9350611eac81602001518784614013565b925083816080015110158015611ec65750828160a0015110155b15611f4b57611ed533876140c1565b8315611ef25760c954611ef2906001600160a01b03168686612b86565b8215611f0f5760ca54611f0f906001600160a01b03168685612b86565b306001600160a01b0316600080516020615eab83398151915286888787604051611f3c9493929190615736565b60405180910390a25050612565565b86611f805760405162461bcd60e51b81526020600482015260056024820152646275726e7360d81b604482015260640161073e565b611f8a33876140c1565b611f92614c5b565b60005b8881101561220e57898982818110611faf57611faf61537b565b611fc5926020608090920201908101915061580b565b6001600160801b0316600003612005576120058a8a83818110611fea57611fea61537b565b905060800201803603810190612000919061585e565b6141fd565b60c95460ca546000916001600160a01b037f0000000000000000000000000000000000000000000000000000000000000000811692631698ee8292821691168e8e878181106120565761205661537b565b61206d926080918202019081019150606001614e26565b6040518463ffffffff1660e01b815260040161208b93929190615912565b602060405180830381865afa1580156120a8573d6000803e3d6000fd5b505050506040513d601f19601f820116820180604052508101906120cc919061593a565b90506120d960d4826128e3565b61210e5761210e8b8b848181106120f2576120f261537b565b612109926080918202019081019150606001614e26565b614229565b6000612197828d8d868181106121265761212661537b565b61213f9260406080909202019081019150602001614e52565b8e8e878181106121515761215161537b565b61216a9260606080909202019081019150604001614e52565b8f8f8881811061217c5761217c61537b565b612192926020608090920201908101915061580b565b614249565b90508060400151846040018181516121af919061533d565b90525060608082015190850180516121c890839061533d565b9052508051845185906121dc90839061533d565b90525060208082015190850180516121f590839061533d565b9052508291506122069050816153b7565b915050611f95565b5061222181604001518260600151614586565b73a8dEd13FdBc000D9cF3bAAE27d71568E5cc7862F636d50cdaf8260400151836060015160d060009054906101000a90046001600160a01b03166001600160a01b031663ccdf7a026040518163ffffffff1660e01b8152600401602060405180830381865afa158015612298573d6000803e3d6000fd5b505050506040513d601f19601f820116820180604052508101906122bc919061578c565b60fa6040518563ffffffff1660e01b81526004016122dd94939291906157b0565b6040805180830381865af41580156122f9573d6000803e3d6000fd5b505050506040513d601f19601f8201168201806040525081019061231d91906157d2565b6060830152604082015284158015906123cc575060008560ce5460d154612344919061533d565b60c9546040516370a0823160e01b81526001600160a01b03909116906370a0823190612374903090600401614dc0565b602060405180830381865afa158015612391573d6000803e3d6000fd5b505050506040513d601f19601f820116820180604052508101906123b5919061575c565b6123bf9190615775565b6123c99190615775565b10155b156123e85760c9546123e8906001600160a01b03168787612b86565b60008411801561248e575060008460cf5460d254612406919061533d565b60ca546040516370a0823160e01b81526001600160a01b03909116906370a0823190612436903090600401614dc0565b602060405180830381865afa158015612453573d6000803e3d6000fd5b505050506040513d601f19601f82011682018060405250810190612477919061575c565b6124819190615775565b61248b9190615775565b10155b156124aa5760ca546124aa906001600160a01b03168786612b86565b8051602080830151604080513381529283019390935281830152905130917f37d0344f9c2e3a1b262004ad8a4d25955dc9223dd2f39eb7c70d57fa8481df54919081900360600190a2306001600160a01b0316600080516020615e8b8339815191528260400151836060015160405161252492919061518d565b60405180910390a2306001600160a01b0316600080516020615eab833981519152878988886040516125599493929190615736565b60405180910390a25050505b6001609755909590945092505050565b611892612581856146bc565b61258a856146bc565b613f90565b6001600160a01b0383166125f15760405162461bcd60e51b8152602060048201526024808201527f45524332303a20617070726f76652066726f6d20746865207a65726f206164646044820152637265737360e01b606482015260840161073e565b6001600160a01b0382166126525760405162461bcd60e51b815260206004820152602260248201527f45524332303a20617070726f766520746f20746865207a65726f206164647265604482015261737360f01b606482015260840161073e565b6001600160a01b0383811660008181526066602090815260408083209487168084529482529182902085905590518481527f8c5be1e5ebec7d5bd14f71427d1e84f3dd0314c0f7b2291e5b200ac8c7c3b925910160405180910390a3505050565b60006126bf848461195f565b90506000198114611892578181101561271a5760405162461bcd60e51b815260206004820152601d60248201527f45524332303a20696e73756666696369656e7420616c6c6f77616e6365000000604482015260640161073e565b611892848484840361258f565b6001600160a01b03831661278b5760405162461bcd60e51b815260206004820152602560248201527f45524332303a207472616e736665722066726f6d20746865207a65726f206164604482015264647265737360d81b606482015260840161073e565b6001600160a01b0382166127ed5760405162461bcd60e51b815260206004820152602360248201527f45524332303a207472616e7366657220746f20746865207a65726f206164647260448201526265737360e81b606482015260840161073e565b6001600160a01b038316600090815260656020526040902054818110156128655760405162461bcd60e51b815260206004820152602660248201527f45524332303a207472616e7366657220616d6f756e7420657863656564732062604482015265616c616e636560d01b606482015260840161073e565b6001600160a01b0380851660009081526065602052604080822085850390559185168152908120805484929061289c90849061533d565b92505081905550826001600160a01b0316846001600160a01b0316600080516020615ecb833981519152846040516128d691815260200190565b60405180910390a3611892565b6000610708836001600160a01b038416614712565b6000610708836001600160a01b03841661472a565b60008054610100900460ff161561295b578160ff16600114801561293757506129353061481d565b155b6129535760405162461bcd60e51b815260040161073e90615957565b506000919050565b60005460ff8084169116106129825760405162461bcd60e51b815260040161073e90615957565b506000805460ff191660ff92909216919091179055600190565b600054610100900460ff166129c35760405162461bcd60e51b815260040161073e906159a5565b6129cd828261482c565b5050565b600054610100900460ff166129f85760405162461bcd60e51b815260040161073e906159a5565b6112a761487a565b60005b8381101561141f5760007f00000000000000000000000000000000000000000000000000000000000000006001600160a01b0316631698ee828585898987818110612a5057612a5061537b565b9050602002016020810190612a659190614e26565b6040518463ffffffff1660e01b8152600401612a8393929190615912565b602060405180830381865afa158015612aa0573d6000803e3d6000fd5b505050506040513d601f19601f82011682018060405250810190612ac4919061593a565b90506001600160a01b038116612aec5760405162461bcd60e51b815260040161073e90615391565b612af760d4826128e3565b15612b145760405162461bcd60e51b815260040161073e906159f0565b612b1f60d4826148a8565b50508080612b2c906153b7565b915050612a03565b603380546001600160a01b038381166001600160a01b0319831681179093556040519116919082907f8be0079c531659141344cd1fd0a4f28419497f9722a3daafe3b4186f6b6457e090600090a35050565b612bdc8363a9059cbb60e01b8484604051602401612ba5929190615a0e565b60408051601f198184030181529190526020810180516001600160e01b03166001600160e01b0319909316929092179091526148bd565b505050565b60005b81811015612bdc57600080612c0f858585818110612c0457612c0461537b565b9050606002016111e8565b9150915081612c305760405162461bcd60e51b815260040161073e90615a27565b60cd8181548110612c4357612c4361537b565b600091825260209091200180546001600160481b0319169055805b60cd54612c6d90600190615775565b811015612d225760cd612c8182600161533d565b81548110612c9157612c9161537b565b9060005260206000200160cd8281548110612cae57612cae61537b565b6000918252602090912082549101805462ffffff92831662ffffff19821681178355845463010000009081900485160265ffffffffffff1990921617178082559254600160301b9081900490921690910262ffffff60301b1990921691909117905580612d1a816153b7565b915050612c5e565b5060cd805480612d3457612d34615a4a565b600082815260209020810160001990810180546001600160481b031916905501905550819050612d63816153b7565b915050612be4565b60005b8381101561141f576000612d8d868684818110612c0457612c0461537b565b5090508015612dae5760405162461bcd60e51b815260040161073e90615a60565b60007f00000000000000000000000000000000000000000000000000000000000000006001600160a01b0316631698ee8286868a8a88818110612df357612df361537b565b9050606002016040016020810190612e0b9190614e26565b6040518463ffffffff1660e01b8152600401612e2993929190615912565b602060405180830381865afa158015612e46573d6000803e3d6000fd5b505050506040513d601f19601f82011682018060405250810190612e6a919061593a565b90506001600160a01b038116612ec05760405162461bcd60e51b815260206004820152601b60248201527a1d5b9a5cddd85c081c1bdbdb08191bd95cc81b9bdd08195e1a5cdd602a1b604482015260640161073e565b612ecb60d4826128e3565b612ee75760405162461bcd60e51b815260040161073e906159f0565b73CB877F44f58087345B3c6Ef479f4142E6798Fbba63143e56407f000000000000000000000000000000000000000000000000000000000000000087878b8b89818110612f3657612f3661537b565b9050606002016040518563ffffffff1660e01b8152600401612f5b9493929190615a7f565b602060405180830381865af4158015612f78573d6000803e3d6000fd5b505050506040513d601f19601f82011682018060405250810190612f9c9190615aac565b612fb85760405162461bcd60e51b815260040161073e90615a60565b60cd878785818110612fcc57612fcc61537b565b83546001810185556000948552602090942060609091029290920192919091019050612ff88282615ac9565b505050508080613007906153b7565b915050612d6e565b6002609754036130315760405162461bcd60e51b815260040161073e90615609565b6002609755600080805b6130458480615b50565b90508110156132925760c95460ca546000916001600160a01b037f0000000000000000000000000000000000000000000000000000000000000000811692631698ee8292821691166130978980615b50565b878181106130a7576130a761537b565b6130be926080918202019081019150606001614e26565b6040518463ffffffff1660e01b81526004016130dc93929190615912565b602060405180830381865afa1580156130f9573d6000803e3d6000fd5b505050506040513d601f19601f8201168201806040525081019061311d919061593a565b90508061312b60d4826128e3565b61314c5761314c61313c8780615b50565b858181106120f2576120f261537b565b60d35460405163db46de5360e01b8152739Cd427ED4383B33Dc102048d6AB1686D00ab5A789163db46de539161319d91859162ffffff600160281b8304169162010000900460020b90600401615b99565b60006040518083038186803b1580156131b557600080fd5b505af41580156131c9573d6000803e3d6000fd5b506000925061325691508390506131e08980615b50565b878181106131f0576131f061537b565b6132099260406080909202019081019150602001614e52565b6132138a80615b50565b888181106132235761322361537b565b61323c9260606080909202019081019150604001614e52565b6132468b80615b50565b8981811061217c5761217c61537b565b9050806040015186613268919061533d565b955080606001518561327a919061533d565b9450505050808061328a906153b7565b91505061303b565b5060008211806132a25750600081115b156133e7576132b18282614586565b73a8dEd13FdBc000D9cF3bAAE27d71568E5cc7862F636d50cdaf838360d060009054906101000a90046001600160a01b03166001600160a01b031663ccdf7a026040518163ffffffff1660e01b8152600401602060405180830381865afa158015613320573d6000803e3d6000fd5b505050506040513d601f19601f82011682018060405250810190613344919061578c565b60fa6040518563ffffffff1660e01b815260040161336594939291906157b0565b6040805180830381865af4158015613381573d6000803e3d6000fd5b505050506040513d601f19601f820116820180604052508101906133a591906157d2565b604051919350915030907f980ed0c388019eb16a88cc6b84fd29d73f8425e4ba59b30c763f338d5697e366906133de908590859061518d565b60405180910390a25b60006133f66040850185615bc2565b606001351115613b1c576134216134106040850185615bc2565b610977906040810190602001615068565b156134585760405162461bcd60e51b81526020600482015260076024820152661b9bc81c1bdbdb60ca1b604482015260640161073e565b60c9546040516370a0823160e01b81526000916001600160a01b0316906370a0823190613489903090600401614dc0565b602060405180830381865afa1580156134a6573d6000803e3d6000fd5b505050506040513d601f19601f820116820180604052508101906134ca919061575c565b60ca546040516370a0823160e01b81529192506000916001600160a01b03909116906370a0823190613500903090600401614dc0565b602060405180830381865afa15801561351d573d6000803e3d6000fd5b505050506040513d601f19601f82011682018060405250810190613541919061575c565b90506135786135536040870187615bc2565b613564906060810190604001615068565b60c9546001600160a01b031690600061498f565b6135ad6135886040870187615bc2565b613599906060810190604001615068565b60ca546001600160a01b031690600061498f565b6135e16135bd6040870187615bc2565b6135ce906060810190604001615068565b60c9546001600160a01b0316908461498f565b6136156135f16040870187615bc2565b613602906060810190604001615068565b60ca546001600160a01b0316908361498f565b60006136246040870187615bc2565b613635906060810190604001615068565b6001600160a01b031661364b6040880188615bc2565b6136559080615be2565b604051613663929190615c28565b6000604051808303816000865af19150503d80600081146136a0576040519150601f19603f3d011682016040523d82523d6000602084013e6136a5565b606091505b50509050806136df5760405162461bcd60e51b815260040161073e906020808252600490820152630737761760e41b604082015260600190565b6136ef6135536040880188615bc2565b6136ff6135886040880188615bc2565b60c9546040516370a0823160e01b81526000916001600160a01b0316906370a0823190613730903090600401614dc0565b602060405180830381865afa15801561374d573d6000803e3d6000fd5b505050506040513d601f19601f82011682018060405250810190613771919061575c565b60ca546040516370a0823160e01b81529192506000916001600160a01b03909116906370a08231906137a7903090600401614dc0565b602060405180830381865afa1580156137c4573d6000803e3d6000fd5b505050506040513d601f19601f820116820180604052508101906137e8919061575c565b90506137f76040890189615bc2565b6138089060c081019060a001615c38565b15613a09576138dc739Cd427ED4383B33Dc102048d6AB1686D00ab5A78639ff4c50d61383760408c018c615bc2565b613848906040810190602001615068565b60d3546040516001600160e01b031960e085901b1681526001600160a01b03909216600483015262ffffff600160281b909104166024820152604401602060405180830381865af41580156138a1573d6000803e3d6000fd5b505050506040513d601f19601f820116820180604052508101906138c5919061575c565b60d354600160401b900462ffffff16612710614013565b6139886138ec60408b018b615bc2565b6080013560c960009054906101000a90046001600160a01b03166001600160a01b031663313ce5676040518163ffffffff1660e01b8152600401602060405180830381865afa158015613943573d6000803e3d6000fd5b505050506040513d601f19601f820116820180604052508101906139679190615c55565b61397290600a615d5c565b61397f60408d018d615bc2565b60600135614013565b116139a55760405162461bcd60e51b815260040161073e90615d6b565b6139b26040890189615bc2565b6139c090608001358561533d565b81101580156139e857506139d76040890189615bc2565b6139e5906060013586615775565b82145b613a045760405162461bcd60e51b815260040161073e90615d8d565b613b16565b613a33739Cd427ED4383B33Dc102048d6AB1686D00ab5A78630578711c61383760408c018c615bc2565b613a9a613a4360408b018b615bc2565b6080013560ca60009054906101000a90046001600160a01b03166001600160a01b031663313ce5676040518163ffffffff1660e01b8152600401602060405180830381865afa158015613943573d6000803e3d6000fd5b11613ab75760405162461bcd60e51b815260040161073e90615d6b565b613ac46040890189615bc2565b613ad290608001358661533d565b8210158015613afa5750613ae96040890189615bc2565b613af7906060013585615775565b81145b613b165760405162461bcd60e51b815260040161073e90615d8d565b50505050505b60005b613b2c6020850185615b50565b9050811015613e375760c95460ca546000916001600160a01b037f0000000000000000000000000000000000000000000000000000000000000000811692631698ee829282169116613b8160208a018a615b50565b87818110613b9157613b9161537b565b613ba8926080918202019081019150606001614e26565b6040518463ffffffff1660e01b8152600401613bc693929190615912565b602060405180830381865afa158015613be3573d6000803e3d6000fd5b505050506040513d601f19601f82011682018060405250810190613c07919061593a565b90506000613c39613c1b6020880188615b50565b85818110613c2b57613c2b61537b565b9050608002016020016111e8565b50905080613c595760405162461bcd60e51b815260040161073e90615a27565b60d35460405163db46de5360e01b8152739Cd427ED4383B33Dc102048d6AB1686D00ab5A789163db46de5391613caa91869162ffffff600160281b8304169162010000900460020b90600401615b99565b60006040518083038186803b158015613cc257600080fd5b505af4158015613cd6573d6000803e3d6000fd5b5050506001600160a01b0383169050633c8a7d8d30613cf860208a018a615b50565b87818110613d0857613d0861537b565b613d219260406080909202019081019150602001614e52565b613d2e60208b018b615b50565b88818110613d3e57613d3e61537b565b613d579260606080909202019081019150604001614e52565b613d6460208c018c615b50565b89818110613d7457613d7461537b565b613d8a926020608090920201908101915061580b565b6040516001600160e01b031960e087901b1681526001600160a01b039094166004850152600292830b6024850152910b60448301526001600160801b0316606482015260a06084820152600060a482015260c40160408051808303816000875af1158015613dfc573d6000803e3d6000fd5b505050506040513d601f19601f82011682018060405250810190613e2091906157d2565b505050508080613e2f906153b7565b915050613b1f565b505060016097555050565b6000613e4f848484614013565b905060008280613e6157613e61615db2565b8486091115610708576000198110613e7857600080fd5b80613e82816153b7565b95945050505050565b6001600160a01b038216613ee15760405162461bcd60e51b815260206004820152601f60248201527f45524332303a206d696e7420746f20746865207a65726f206164647265737300604482015260640161073e565b8060676000828254613ef3919061533d565b90915550506001600160a01b03821660009081526065602052604081208054839290613f2090849061533d565b90915550506040518181526001600160a01b03831690600090600080516020615ecb8339815191529060200160405180910390a35050565b6040516001600160a01b03808516602483015283166044820152606481018290526118929085906323b872dd60e01b90608401612ba5565b613f9b60d4336128e3565b613fd95760405162461bcd60e51b815260206004820152600f60248201526e31b0b6363130b1b59031b0b63632b960891b604482015260640161073e565b8115613ff65760c954613ff6906001600160a01b03163384612b86565b80156129cd5760ca546129cd906001600160a01b03163383612b86565b600080806000198587098587029250828110838203039150508060000361404c576000841161404157600080fd5b508290049050610708565b80841161405857600080fd5b60008486880960026001871981018816978890046003810283188082028403028082028403028082028403028082028403028082028403029081029092039091026000889003889004909101858311909403939093029303949094049190911702949350505050565b6001600160a01b0382166141215760405162461bcd60e51b815260206004820152602160248201527f45524332303a206275726e2066726f6d20746865207a65726f206164647265736044820152607360f81b606482015260840161073e565b6001600160a01b038216600090815260656020526040902054818110156141955760405162461bcd60e51b815260206004820152602260248201527f45524332303a206275726e20616d6f756e7420657863656564732062616c616e604482015261636560f01b606482015260840161073e565b6001600160a01b03831660009081526065602052604081208383039055606780548492906141c4908490615775565b90915550506040518281526000906001600160a01b03851690600080516020615ecb8339815191529060200160405180910390a3505050565b602080820151805191810151604091820151915163c79201a360e01b815261073e939290600401615012565b604051634cb235d760e11b815262ffffff8216600482015260240161073e565b614251614c5b565b60c9546040516370a0823160e01b81526000916001600160a01b0316906370a0823190614282903090600401614dc0565b602060405180830381865afa15801561429f573d6000803e3d6000fd5b505050506040513d601f19601f820116820180604052508101906142c3919061575c565b60ca546040516370a0823160e01b81529192506000916001600160a01b03909116906370a08231906142f9903090600401614dc0565b602060405180830381865afa158015614316573d6000803e3d6000fd5b505050506040513d601f19601f8201168201806040525081019061433a919061575c565b60405163a34123a760e01b8152600288810b600483015287900b60248201526001600160801b03861660448201529091506001600160a01b0388169063a34123a79060640160408051808303816000875af115801561439d573d6000803e3d6000fd5b505050506040513d601f19601f820116820180604052508101906143c191906157d2565b602085015283526040516309e3d67b60e31b8152306004820152600287810b602483015286900b60448201526001600160801b036064820181905260848201526001600160a01b03881690634f1eb3d89060a40160408051808303816000875af1158015614433573d6000803e3d6000fd5b505050506040513d601f19601f820116820180604052508101906144579190615dc8565b5050825160c9546040516370a0823160e01b815284916001600160a01b0316906370a082319061448b903090600401614dc0565b602060405180830381865afa1580156144a8573d6000803e3d6000fd5b505050506040513d601f19601f820116820180604052508101906144cc919061575c565b6144d69190615775565b6144e09190615775565b604080850191909152602084015160ca5491516370a0823160e01b8152909183916001600160a01b03909116906370a0823190614521903090600401614dc0565b602060405180830381865afa15801561453e573d6000803e3d6000fd5b505050506040513d601f19601f82011682018060405250810190614562919061575c565b61456c9190615775565b6145769190615775565b6060840152509095945050505050565b60d0546040805163666fbd0160e11b815290516000926001600160a01b03169163ccdf7a029160048083019260209291908290030181865afa1580156145d0573d6000803e3d6000fd5b505050506040513d601f19601f820116820180604052508101906145f4919061578c565b905061271061460761ffff831685615df7565b6146119190615e16565b60d16000828254614622919061533d565b90915550612710905061463961ffff831684615df7565b6146439190615e16565b60d26000828254614654919061533d565b90915550612710905061466860fa85615df7565b6146729190615e16565b60ce6000828254614683919061533d565b90915550612710905061469760fa84615df7565b6146a19190615e16565b60cf60008282546146b2919061533d565b9091555050505050565b60008082121561470e5760405162461bcd60e51b815260206004820181905260248201527f53616665436173743a2076616c7565206d75737420626520706f736974697665604482015260640161073e565b5090565b60009081526001919091016020526040902054151590565b6000818152600183016020526040812054801561481357600061474e600183615775565b855490915060009061476290600190615775565b90508181146147c75760008660000182815481106147825761478261537b565b90600052602060002001549050808760000184815481106147a5576147a561537b565b6000918252602080832090910192909255918252600188019052604090208390555b85548690806147d8576147d8615a4a565b6001900381819060005260206000200160009055905585600101600086815260200190815260200160002060009055600193505050506106e3565b60009150506106e3565b6001600160a01b03163b151590565b600054610100900460ff166148535760405162461bcd60e51b815260040161073e906159a5565b8151614866906068906020850190614c83565b508051612bdc906069906020840190614c83565b600054610100900460ff166148a15760405162461bcd60e51b815260040161073e906159a5565b6001609755565b6000610708836001600160a01b038416614a92565b6000614912826040518060400160405280602081526020017f5361666545524332303a206c6f772d6c6576656c2063616c6c206661696c6564815250856001600160a01b0316614adc9092919063ffffffff16565b805190915015612bdc57808060200190518101906149309190615aac565b612bdc5760405162461bcd60e51b815260206004820152602a60248201527f5361666545524332303a204552433230206f7065726174696f6e20646964206e6044820152691bdd081cdd58d8d9595960b21b606482015260840161073e565b801580614a085750604051636eb1769f60e11b81526001600160a01b0384169063dd62ed3e906149c590309086906004016154d0565b602060405180830381865afa1580156149e2573d6000803e3d6000fd5b505050506040513d601f19601f82011682018060405250810190614a06919061575c565b155b614a735760405162461bcd60e51b815260206004820152603660248201527f5361666545524332303a20617070726f76652066726f6d206e6f6e2d7a65726f60448201527520746f206e6f6e2d7a65726f20616c6c6f77616e636560501b606482015260840161073e565b612bdc8363095ea7b360e01b8484604051602401612ba5929190615a0e565b6000614a9e8383614712565b614ad4575081546001818101845560008481526020808220909301849055845484825282860190935260409020919091556106e3565b5060006106e3565b6060614aeb8484600085614af3565b949350505050565b606082471015614b545760405162461bcd60e51b815260206004820152602660248201527f416464726573733a20696e73756666696369656e742062616c616e636520666f6044820152651c8818d85b1b60d21b606482015260840161073e565b614b5d8561481d565b614ba95760405162461bcd60e51b815260206004820152601d60248201527f416464726573733a2063616c6c20746f206e6f6e2d636f6e7472616374000000604482015260640161073e565b600080866001600160a01b03168587604051614bc59190615e38565b60006040518083038185875af1925050503d8060008114614c02576040519150601f19603f3d011682016040523d82523d6000602084013e614c07565b606091505b5091509150614c17828286614c22565b979650505050505050565b60608315614c31575081610708565b825115614c415782518084602001fd5b8160405162461bcd60e51b815260040161073e9190614d3f565b6040518060800160405280600081526020016000815260200160008152602001600081525090565b828054614c8f906152a8565b90600052602060002090601f016020900481019282614cb15760008555614cf7565b82601f10614cca57805160ff1916838001178555614cf7565b82800160010185558215614cf7579182015b82811115614cf7578251825591602001919060010190614cdc565b5061470e9291505b8082111561470e5760008155600101614cff565b60005b83811015614d2e578181015183820152602001614d16565b838111156118925750506000910152565b6020815260008251806020840152614d5e816040850160208701614d13565b601f01601f19169190910160400192915050565b6001600160a01b0381168114611a2757600080fd5b60008060408385031215614d9a57600080fd5b8235614da581614d72565b946020939093013593505050565b6001600160a01b03169052565b6001600160a01b0391909116815260200190565b600080600060608486031215614de957600080fd5b8335614df481614d72565b92506020840135614e0481614d72565b929592945050506040919091013590565b62ffffff81168114611a2757600080fd5b600060208284031215614e3857600080fd5b813561070881614e15565b8060020b8114611a2757600080fd5b600060208284031215614e6457600080fd5b813561070881614e43565b60008060408385031215614e8257600080fd5b50508035926020909101359150565b60008083601f840112614ea357600080fd5b5081356001600160401b03811115614eba57600080fd5b6020830191508360208260051b8501011115614ed557600080fd5b9250929050565b60008060208385031215614eef57600080fd5b82356001600160401b03811115614f0557600080fd5b614f1185828601614e91565b90969095509350505050565b60008083601f840112614f2f57600080fd5b5081356001600160401b03811115614f4657600080fd5b602083019150836020828501011115614ed557600080fd5b600080600080600060608688031215614f7657600080fd5b85356001600160401b0380821115614f8d57600080fd5b614f9989838a01614f1d565b90975095506020880135915080821115614fb257600080fd5b614fbe89838a01614f1d565b90955093506040880135915080821115614fd757600080fd5b5086016101408189031215614feb57600080fd5b809150509295509295909350565b60006020828403121561500b57600080fd5b5035919050565b600293840b81529190920b602082015262ffffff909116604082015260600190565b60006060828403121561504657600080fd5b50919050565b60006060828403121561505e57600080fd5b6107088383615034565b60006020828403121561507a57600080fd5b813561070881614d72565b60008083601f84011261509757600080fd5b5081356001600160401b038111156150ae57600080fd5b602083019150836020606083028501011115614ed557600080fd5b6000806000806000606086880312156150e157600080fd5b85356001600160401b03808211156150f857600080fd5b61510489838a01615085565b9097509550602088013591508082111561511d57600080fd5b61512989838a01615034565b9450604088013591508082111561513f57600080fd5b5061514c88828901615085565b969995985093965092949392505050565b6000806040838503121561517057600080fd5b82359150602083013561518281614d72565b809150509250929050565b918252602082015260400190565b600080600080606085870312156151b157600080fd5b843593506020850135925060408501356001600160401b038111156151d557600080fd5b6151e187828801614f1d565b95989497509550505050565b6000806040838503121561520057600080fd5b823561520b81614d72565b9150602083013561518281614d72565b6000806000806060858703121561523157600080fd5b84356001600160401b038082111561524857600080fd5b818701915087601f83011261525c57600080fd5b81358181111561526b57600080fd5b8860208260071b850101111561528057600080fd5b602092830196509450508501359150604085013561529d81614d72565b939692955090935050565b600181811c908216806152bc57607f821691505b60208210810361504657634e487b7160e01b600052602260045260246000fd5b6020808252818101527f4f776e61626c653a2063616c6c6572206973206e6f7420746865206f776e6572604082015260600190565b62ffffff92831681529116602082015260400190565b634e487b7160e01b600052601160045260246000fd5b6000821982111561535057615350615327565b500190565b6020808252600c908201526b746f74616c20737570706c7960a01b604082015260600190565b634e487b7160e01b600052603260045260246000fd5b6020808252600c908201526b61646472657373205a65726f60a01b604082015260600190565b6000600182016153c9576153c9615327565b5060010190565b60208082528181018390526000908460408401835b868110156154135782356153f881614d72565b6001600160a01b0316825291830191908301906001016153e5565b509695505050505050565b6000808335601e1984360301811261543557600080fd5b8301803591506001600160401b0382111561544f57600080fd5b6020019150600581901b3603821315614ed557600080fd5b60208082526010908201526f36b0bc2a3bb0b82232bb34b0ba34b7b760811b604082015260600190565b60208082528181018390526000908460408401835b868110156154135782356154b981614e15565b62ffffff16825291830191908301906001016154a6565b6001600160a01b0392831681529116602082015260400190565b6020808252600a908201526937379036b0b730b3b2b960b11b604082015260600190565b803561551981614e43565b60020b8252602081013561552c81614e43565b60020b6020830152604081013561554281614e15565b62ffffff81166040840152505050565b6000608082016080835280855480835260a08501915086600052602092508260002060005b828110156155b2578154600281810b8652601882901c900b8686015260301c62ffffff16604085015260609093019260019182019101615577565b505050809250506155c58184018561550e565b509392505050565b8015158114611a2757600080fd5b600080604083850312156155ee57600080fd5b82516155f9816155cd565b6020939093015192949293505050565b6020808252601f908201527f5265656e7472616e637947756172643a207265656e7472616e742063616c6c00604082015260600190565b6020808252825160a083830152805160c0840181905260009291820190839060e08601905b808310156156a75783518051600290810b845286820151900b8684015260409081015162ffffff16908301529284019260019290920191606090910190615665565b5092860151926156ba6040870185614db3565b604087015193506156ce6060870185614db3565b606087015193506156e26080870185614db3565b608087015193506156f660a0870185614db3565b9695505050505050565b6000806000806080858703121561571657600080fd5b505082516020840151604085015160609095015191969095509092509050565b6001600160a01b0394909416845260208401929092526040830152606082015260800190565b60006020828403121561576e57600080fd5b5051919050565b60008282101561578757615787615327565b500390565b60006020828403121561579e57600080fd5b815161ffff8116811461070857600080fd5b938452602084019290925261ffff908116604084015216606082015260800190565b600080604083850312156157e557600080fd5b505080516020909101519092909150565b6001600160801b0381168114611a2757600080fd5b60006020828403121561581d57600080fd5b8135610708816157f6565b604051606081016001600160401b038111828210171561585857634e487b7160e01b600052604160045260246000fd5b60405290565b6000818303608081121561587157600080fd5b604080519081016001600160401b03811182821017156158a157634e487b7160e01b600052604160045260246000fd5b60405283356158af816157f6565b81526060601f19830112156158c357600080fd5b6158cb615828565b915060208401356158db81614e43565b825260408401356158eb81614e43565b602083015260608401356158fe81614e15565b604083015260208101919091529392505050565b6001600160a01b03938416815291909216602082015262ffffff909116604082015260600190565b60006020828403121561594c57600080fd5b815161070881614d72565b6020808252602e908201527f496e697469616c697a61626c653a20636f6e747261637420697320616c72656160408201526d191e481a5b9a5d1a585b1a5e995960921b606082015260800190565b6020808252602b908201527f496e697469616c697a61626c653a20636f6e7472616374206973206e6f74206960408201526a6e697469616c697a696e6760a81b606082015260800190565b6020808252600490820152631c1bdbdb60e21b604082015260600190565b6001600160a01b03929092168252602082015260400190565b6020808252600990820152686e6f742072616e676560b81b604082015260600190565b634e487b7160e01b600052603160045260246000fd5b60208082526005908201526472616e676560d81b604082015260600190565b6001600160a01b03858116825284811660208301528316604082015260c08101613e82606083018461550e565b600060208284031215615abe57600080fd5b8151610708816155cd565b8135615ad481614e43565b815462ffffff82811662ffffff1983161784556020850135615af581614e43565b8060181b9050818416935065ffffff00000091508082168465ffffffffffff198516171785556040860135615b2981614e15565b91166001600160481b0319929092169092171760309190911b62ffffff60301b1617905550565b6000808335601e19843603018112615b6757600080fd5b8301803591506001600160401b03821115615b8157600080fd5b6020019150600781901b3603821315614ed557600080fd5b6001600160a01b0393909316835262ffffff91909116602083015260020b604082015260600190565b6000823560be19833603018112615bd857600080fd5b9190910192915050565b6000808335601e19843603018112615bf957600080fd5b8301803591506001600160401b03821115615c1357600080fd5b602001915036819003821315614ed557600080fd5b8183823760009101908152919050565b600060208284031215615c4a57600080fd5b8135610708816155cd565b600060208284031215615c6757600080fd5b815160ff8116811461070857600080fd5b600181815b80851115615cb3578160001904821115615c9957615c99615327565b80851615615ca657918102915b93841c9390800290615c7d565b509250929050565b600082615cca575060016106e3565b81615cd7575060006106e3565b8160018114615ced5760028114615cf757615d13565b60019150506106e3565b60ff841115615d0857615d08615327565b50506001821b6106e3565b5060208310610133831016604e8410600b8410161715615d36575081810a6106e3565b615d408383615c78565b8060001904821115615d5457615d54615327565b029392505050565b600061070860ff841683615cbb565b602080825260089082015267736c69707061676560c01b604082015260600190565b6020808252600b908201526a1cddd85c0819985a5b195960aa1b604082015260600190565b634e487b7160e01b600052601260045260246000fd5b60008060408385031215615ddb57600080fd5b8251615de6816157f6565b6020840151909250615182816157f6565b6000816000190483118215151615615e1157615e11615327565b500290565b600082615e3357634e487b7160e01b600052601260045260246000fd5b500490565b60008251615bd8818460208701614d1356fe17ec55bdd2fea2768d22be98ea82ce39f382d4a52ecae15d38c780f5589fa595c4e0a66e8ba7f38390072f2fdf05535dfb198760a5f3c4f29a65524e32de5c5332da8acdd01c0a59b03b09701136ec60caaffa0e94c766890f064762bd8fb1325c5a2fc161b9783402c6936b84c4ff152302bedf739d6d9167cd4789869dbe92ddf252ad1be2c89b69c2b068fc378daa952ba7f163c4a11628f55a4df523b3efef8f805aa84457ce7607552537087c0f65f982bba416c42f7def196ac533d07e9db03e8799fad01acfcb097edbb56f2317078cbd4837d484116a7aeb6421d4ef3a012e06aea9a2588f812b4ead330d91697c79ed2edd8bb527465e66176f90257a1b755d6e05fd10f250732bf3c40b4d8cdcb1bf767d93696f320959ae7b5335a2646970667358221220fcdd4445cf3334b1965d8dc9642dc39d79da2242b20ce6682c2ce7427973af0c64736f6c634300080d0033",
  "deployedBytecode": "0x608060405234801561001057600080fd5b506004361061023b5760003560e01c8063065756db1461024057806306fdde031461025c578063095ea7b3146102715780630dfe16811461029457806314b80630146102b457806318160ddd146102bd57806323b872dd146102c557806326d89545146102d8578063313ce567146103025780633926ab5f1461031157806339509351146103265780633cbff3fe146103395780633f7b61351461034c57806342fb9d441461035f578063481c6a75146103685780634b1641401461037b5780634e380ab41461038e57806354fd4d50146103a157806356d9b051146103c55780635f59dce5146103d85780635fdecdfa146103e0578063670f13a11461040257806370a082311461042c578063715018a6146104555780637ecd67171461045d57806386ac1cb9146104655780638c04166f146104785780638da5cb5b1461048e5780638daf0ce41461049657806394bf804d146104a957806395d89b41146104ca578063a457c2d7146104d2578063a9059cbb146104e5578063b9f24cb2146104f8578063bbfe704e1461051f578063c45a015514610528578063c70750411461054f578063d0ebdbe71461056a578063d21220a71461057d578063d348799714610590578063d8953ca7146105a3578063dc9ad4c1146105ac578063dd40e322146105b4578063dd62ed3e146105c2578063e7c7cb91146105d5578063f2eb3e34146105fb578063f2fde38b14610604578063f4effe4114610617578063fa461e331461062a575b600080fd5b61024960d15481565b6040519081526020015b60405180910390f35b61026461063d565b6040516102539190614d3f565b61028461027f366004614d87565b6106cf565b6040519015158152602001610253565b60c9546102a7906001600160a01b031681565b6040516102539190614dc0565b61024960cb5481565b606754610249565b6102846102d3366004614dd4565b6106e9565b60d3546102ee90600160281b900462ffffff1681565b60405162ffffff9091168152602001610253565b60405160128152602001610253565b61032461031f366004614e26565b61070f565b005b610284610334366004614d87565b610798565b610324610347366004614e52565b6107ba565b61032461035a366004614e6f565b610836565b61024960d25481565b60d0546102a7906001600160a01b031681565b610324610389366004614edc565b6108c4565b61032461039c366004614e26565b610a37565b610264604051806040016040528060058152602001640312e302e360dc1b81525081565b6103246103d3366004614f5e565b610aac565b61032461111c565b6103f36103ee366004614ff9565b6111ac565b60405161025393929190615012565b61041561041036600461504c565b6111e8565b604080519215158352602083019190915201610253565b61024961043a366004615068565b6001600160a01b031660009081526065602052604090205490565b61032461126e565b6103246112a9565b610324610473366004614edc565b61133b565b60d3546102ee90600160401b900462ffffff1681565b6102a76113b3565b6103246104a43660046150c9565b6113c2565b6104bc6104b736600461515d565b611426565b60405161025392919061518d565b610264611775565b6102846104e0366004614d87565b611784565b6102846104f3366004614d87565b61180a565b6102a77f000000000000000000000000000000000000000000000000000000000000000081565b61024960cf5481565b6102a77f000000000000000000000000000000000000000000000000000000000000000081565b61055760fa81565b60405161ffff9091168152602001610253565b610324610578366004615068565b611818565b60ca546102a7906001600160a01b031681565b61032461059e36600461519b565b611888565b61024960ce5481565b610324611898565b60d3546105579061ffff1681565b6102496105d03660046151ed565b61195f565b60d3546105e89062010000900460020b81565b60405160029190910b8152602001610253565b61024960cc5481565b610324610612366004615068565b61198a565b6104bc61062536600461521b565b611a2a565b61032461063836600461519b565b612575565b60606068805461064c906152a8565b80601f0160208091040260200160405190810160405280929190818152602001828054610678906152a8565b80156106c55780601f1061069a576101008083540402835291602001916106c5565b820191906000526020600020905b8154815290600101906020018083116106a857829003601f168201915b5050505050905090565b6000336106dd81858561258f565b60019150505b92915050565b6000336106f78582856126b3565b610702858585612727565b60019150505b9392505050565b336107186113b3565b6001600160a01b0316146107475760405162461bcd60e51b815260040161073e906152dc565b60405180910390fd5b60d3805462ffffff838116600160281b90810262ffffff60281b198416179093556040513093600080516020615f4b8339815191529361078d9391900416908590615311565b60405180910390a250565b6000336106dd8185856107ab838361195f565b6107b5919061533d565b61258f565b336107c36113b3565b6001600160a01b0316146107e95760405162461bcd60e51b815260040161073e906152dc565b60d3805462ffffff83166201000090810264ffffff0000198316179092556040805192909104600290810b835283900b60208301523091600080516020615f2b833981519152910161078d565b3361083f6113b3565b6001600160a01b0316146108655760405162461bcd60e51b815260040161073e906152dc565b606754156108855760405162461bcd60e51b815260040161073e90615355565b306001600160a01b0316600080516020615f0b8339815191528360cb8190558360cc8190556040516108b892919061518d565b60405180910390a25050565b336108cd6113b3565b6001600160a01b0316146108f35760405162461bcd60e51b815260040161073e906152dc565b60005b818110156109fb5760008383838181106109125761091261537b565b90506020020160208101906109279190615068565b6001600160a01b03160361094d5760405162461bcd60e51b815260040161073e90615391565b61097f8383838181106109625761096261537b565b90506020020160208101906109779190615068565b60d4906128e3565b6109b65760405162461bcd60e51b81526020600482015260086024820152671b9bdd081c1bdbdb60c21b604482015260640161073e565b6109e88383838181106109cb576109cb61537b565b90506020020160208101906109e09190615068565b60d4906128f8565b50806109f3816153b7565b9150506108f6565b50306001600160a01b03167f834653da59f4b6941a549cf8587f1cebaaec073ee6922117339ba04f2abe6e6583836040516108b89291906153d0565b33610a406113b3565b6001600160a01b031614610a665760405162461bcd60e51b815260040161073e906152dc565b60d3805462ffffff838116600160401b90810262ffffff60401b198416179093556040513093600080516020615e6b8339815191529361078d9391900416908590615311565b6000610ab8600161290d565b90508015610ad0576000805461ff0019166101001790555b6000610adc838061541e565b905011610b195760405162461bcd60e51b815260206004820152600b60248201526a3737903332b2903a34b2b960a91b604482015260640161073e565b6000610b2b6040840160208501615068565b6001600160a01b031603610b6a5760405162461bcd60e51b81526020600482015260066024820152650746f6b656e360d41b604482015260640161073e565b610b7a6060830160408401615068565b6001600160a01b0316610b936040840160208501615068565b6001600160a01b031610610bdd5760405162461bcd60e51b81526020600482015260116024820152703bb937b733903a37b5b2b71037b93232b960791b604482015260640161073e565b6000826080013511610c195760405162461bcd60e51b81526020600482015260056024820152640696e6974360dc1b604482015260640161073e565b60008260a0013511610c555760405162461bcd60e51b8152602060048201526005602482015264696e69743160d81b604482015260640161073e565b6000610c6961014084016101208501614e26565b62ffffff1611610cac5760405162461bcd60e51b815260206004820152600e60248201526d06d617820736c69707061676520360941b604482015260640161073e565b6000610cbe60e0840160c08501615068565b6001600160a01b031603610d0e5760405162461bcd60e51b815260206004820152601760248201527637379020b2323932b9b9902d32b9379026b0b730b3b2b960491b604482015260640161073e565b6000610d21610100840160e08501614e52565b60020b13610d415760405162461bcd60e51b815260040161073e90615467565b6000610d5561012084016101008501614e26565b62ffffff1611610d775760405162461bcd60e51b815260040161073e90615467565b6000309050610def87878080601f01602080910402602001604051908101604052809392919081815260200183838082843760009201919091525050604080516020601f8b01819004810282018101909252898152925089915088908190840183828082843760009201919091525061299c92505050565b610df76129d1565b610e29610e04848061541e565b610e146040870160208801615068565b610e246060880160408901615068565b612a00565b610e396040840160208501615068565b60c980546001600160a01b0319166001600160a01b0392909216919091179055610e696060840160408501615068565b60ca80546001600160a01b0319166001600160a01b0392909216919091179055610ea1610e9c6080850160608601615068565b612b34565b610eb160e0840160c08501615068565b60d080546001600160a01b0319166001600160a01b039283161790558116600080516020615e4b833981519152610ee8858061541e565b604051610ef6929190615491565b60405180910390a2806001600160a01b0316600080516020615f0b833981519152846080013560cb8190558560a0013560cc819055604051610f3992919061518d565b60405180910390a26001600160a01b038116600080516020615eeb8339815191526000610f6c60e0870160c08801615068565b604051610f7a9291906154d0565b60405180910390a260d3546001600160a01b03821690600080516020615f2b8339815191529062010000900460020b610fba610100870160e08801614e52565b60d3805464ffffff000019166201000062ffffff84160217905560408051600293840b81529190920b60208201520160405180910390a260d3546001600160a01b03821690600080516020615f4b83398151915290600160281b900462ffffff1661102d61012087016101008801614e26565b60d3805462ffffff60281b1916600160281b62ffffff841602179055604051611057929190615311565b60405180910390a260d3546001600160a01b03821690600080516020615e6b83398151915290600160401b900462ffffff1661109b61014087016101208801614e26565b60d3805462ffffff60401b1916600160401b62ffffff8416021790556040516110c5929190615311565b60405180910390a2508015611114576000805461ff0019169055604051600181527f7f26b83ff96e1f2b6a682f133852f6798a09c465da95921460cefb38474024989060200160405180910390a15b505050505050565b60d0546001600160a01b031633146111465760405162461bcd60e51b815260040161073e906154ea565b60d35430907f997aead5e1b44b8a7bff5b31972e84adbfc3311a188f75619b2edb6fea7abc7f9061ffff16612b671461118157612b67611184565b60005b60d3805461ffff191661ffff92909216918217905560405190815260200160405180910390a2565b60cd81815481106111bc57600080fd5b600091825260209091200154600281810b925063010000008204900b90600160301b900462ffffff1683565b60008073__$b131e44167300e1b6d47510635310686a7$__6335f8054760cd856040518363ffffffff1660e01b8152600401611225929190615552565b6040805180830381865af4158015611241573d6000803e3d6000fd5b505050506040513d601f19601f8201168201806040525081019061126591906155db565b91509150915091565b336112776113b3565b6001600160a01b03161461129d5760405162461bcd60e51b815260040161073e906152dc565b6112a76000612b34565b565b60d1805460d280546000938490559290559081156112de5760d05460c9546112de916001600160a01b03918216911684612b86565b80156113015760d05460ca54611301916001600160a01b03918216911683612b86565b306001600160a01b03167ece17cafd473b3e1e2e536ddc92e042d8e5422bafcb79580aedfe243ac6872983836040516108b892919061518d565b336113446113b3565b6001600160a01b03161461136a5760405162461bcd60e51b815260040161073e906152dc565b60c95460ca5461138a91849184916001600160a01b039081169116612a00565b306001600160a01b0316600080516020615e4b83398151915283836040516108b8929190615491565b6033546001600160a01b031690565b60d0546001600160a01b031633146113ec5760405162461bcd60e51b815260040161073e906154ea565b6113f68282612be1565b60c95460ca5461141691879187916001600160a01b039081169116612d6b565b61141f8361300f565b5050505050565b60008060026097540361144b5760405162461bcd60e51b815260040161073e90615609565b60026097558361148b5760405162461bcd60e51b815260206004820152600b60248201526a1b5a5b9d08185b5bdd5b9d60aa1b604482015260640161073e565b60d35461ffff16612b671415806114ac575060d0546001600160a01b031633145b6114e55760405162461bcd60e51b815260206004820152600a6024820152691c995cdd1c9a58dd195960b21b604482015260640161073e565b3060006114f160675490565b90506000806000806000851161150f5760cb5460cc54600080611664565b73__$3d23d8578387a47facd93bb77f6fe6e81b$__63e56f4d916040518060a0016040528060cd805480602002602001604051908101604052809291908181526020016000905b828210156115a95760008481526020908190206040805160608101825291850154600281810b845263010000008204900b83850152600160301b900462ffffff1690820152825260019092019101611556565b505050908252506001600160a01b037f00000000000000000000000000000000000000000000000000000000000000008116602083015260c954811660408084019190915260ca5482166060840152908b16608090920191909152516001600160e01b031960e084901b1681526116239190600401615640565b608060405180830381865af4158015611640573d6000803e3d6000fd5b505050506040513d601f19601f820116820180604052508101906116649190615700565b9350935093509350600080861161168357670de0b6b3a7640000611685565b855b90506116928b8683613e42565b985061169f8b8583613e42565b97506116ab8a8c613e8b565b88156116c95760c9546116c9906001600160a01b031633898c613f58565b87156116e75760ca546116e7906001600160a01b031633898b613f58565b866001600160a01b0316600080516020615e8b833981519152848460405161171092919061518d565b60405180910390a2866001600160a01b03167f3a726725a45f02ba253c4b8a98c646c5a795d697efcd821da95c673e9dd7de8e8b8d8c8c6040516117579493929190615736565b60405180910390a25050505050505060016097819055509250929050565b60606069805461064c906152a8565b60003381611792828661195f565b9050838110156117f25760405162461bcd60e51b815260206004820152602560248201527f45524332303a2064656372656173656420616c6c6f77616e63652062656c6f77604482015264207a65726f60d81b606482015260840161073e565b6117ff828686840361258f565b506001949350505050565b6000336106dd818585612727565b336118216113b3565b6001600160a01b0316146118475760405162461bcd60e51b815260040161073e906152dc565b60d080546001600160a01b038381166001600160a01b03198316179092556040513092600080516020615eeb8339815191529261078d9291169085906154d0565b6118928484613f90565b50505050565b60ce805460cf80546000938490559290559081156118e75760c9546118e7906001600160a01b03167f000000000000000000000000000000000000000000000000000000000000000084612b86565b80156119245760ca54611924906001600160a01b03167f000000000000000000000000000000000000000000000000000000000000000083612b86565b306001600160a01b03167f30d3075d5b66b5f76224a4d20775f835cef3a025227dca6c54335cee15b5ed7983836040516108b892919061518d565b6001600160a01b03918216600090815260666020908152604080832093909416825291909152205490565b336119936113b3565b6001600160a01b0316146119b95760405162461bcd60e51b815260040161073e906152dc565b6001600160a01b038116611a1e5760405162461bcd60e51b815260206004820152602660248201527f4f776e61626c653a206e6577206f776e657220697320746865207a65726f206160448201526564647265737360d01b606482015260840161073e565b611a2781612b34565b50565b600080600260975403611a4f5760405162461bcd60e51b815260040161073e90615609565b60026097556000611a5f60675490565b905060008111611a815760405162461bcd60e51b815260040161073e90615355565b611aba6040518060c001604052806000815260200160008152602001600081526020016000815260200160008152602001600081525090565b73__$3d23d8578387a47facd93bb77f6fe6e81b$__63e56f4d916040518060a0016040528060cd805480602002602001604051908101604052809291908181526020016000905b82821015611b545760008481526020908190206040805160608101825291850154600281810b845263010000008204900b83850152600160301b900462ffffff1690820152825260019092019101611b01565b505050908252506001600160a01b037f00000000000000000000000000000000000000000000000000000000000000008116602083015260c954811660408084019190915260ca54909116606083015230608090920191909152516001600160e01b031960e084901b168152611bcd9190600401615640565b608060405180830381865af4158015611bea573d6000803e3d6000fd5b505050506040513d601f19601f82011682018060405250810190611c0e9190615700565b606085015260408401526020830152815260ce5460d154611c2f919061533d565b60c9546040516370a0823160e01b81526001600160a01b03909116906370a0823190611c5f903090600401614dc0565b602060405180830381865afa158015611c7c573d6000803e3d6000fd5b505050506040513d601f19601f82011682018060405250810190611ca0919061575c565b611caa9190615775565b608082015260cf5460d254611cbf919061533d565b60ca546040516370a0823160e01b81526001600160a01b03909116906370a0823190611cef903090600401614dc0565b602060405180830381865afa158015611d0c573d6000803e3d6000fd5b505050506040513d601f19601f82011682018060405250810190611d30919061575c565b611d3a9190615775565b8160a001818152505060008073__$30ef26875820c516a3c36c5c0a5fd73943$__636d50cdaf8460400151856060015160d060009054906101000a90046001600160a01b03166001600160a01b031663ccdf7a026040518163ffffffff1660e01b8152600401602060405180830381865afa158015611dbd573d6000803e3d6000fd5b505050506040513d601f19601f82011682018060405250810190611de1919061578c565b60fa6040518563ffffffff1660e01b8152600401611e0294939291906157b0565b6040805180830381865af4158015611e1e573d6000803e3d6000fd5b505050506040513d601f19601f82011682018060405250810190611e4291906157d2565b91509150818360400151611e569190615775565b83518490611e65908390615775565b9052506060830151611e78908290615775565b83602001818151611e899190615775565b905250508151611e9b91508784614013565b9350611eac81602001518784614013565b925083816080015110158015611ec65750828160a0015110155b15611f4b57611ed533876140c1565b8315611ef25760c954611ef2906001600160a01b03168686612b86565b8215611f0f5760ca54611f0f906001600160a01b03168685612b86565b306001600160a01b0316600080516020615eab83398151915286888787604051611f3c9493929190615736565b60405180910390a25050612565565b86611f805760405162461bcd60e51b81526020600482015260056024820152646275726e7360d81b604482015260640161073e565b611f8a33876140c1565b611f92614c5b565b60005b8881101561220e57898982818110611faf57611faf61537b565b611fc5926020608090920201908101915061580b565b6001600160801b0316600003612005576120058a8a83818110611fea57611fea61537b565b905060800201803603810190612000919061585e565b6141fd565b60c95460ca546000916001600160a01b037f0000000000000000000000000000000000000000000000000000000000000000811692631698ee8292821691168e8e878181106120565761205661537b565b61206d926080918202019081019150606001614e26565b6040518463ffffffff1660e01b815260040161208b93929190615912565b602060405180830381865afa1580156120a8573d6000803e3d6000fd5b505050506040513d601f19601f820116820180604052508101906120cc919061593a565b90506120d960d4826128e3565b61210e5761210e8b8b848181106120f2576120f261537b565b612109926080918202019081019150606001614e26565b614229565b6000612197828d8d868181106121265761212661537b565b61213f9260406080909202019081019150602001614e52565b8e8e878181106121515761215161537b565b61216a9260606080909202019081019150604001614e52565b8f8f8881811061217c5761217c61537b565b612192926020608090920201908101915061580b565b614249565b90508060400151846040018181516121af919061533d565b90525060608082015190850180516121c890839061533d565b9052508051845185906121dc90839061533d565b90525060208082015190850180516121f590839061533d565b9052508291506122069050816153b7565b915050611f95565b5061222181604001518260600151614586565b73__$30ef26875820c516a3c36c5c0a5fd73943$__636d50cdaf8260400151836060015160d060009054906101000a90046001600160a01b03166001600160a01b031663ccdf7a026040518163ffffffff1660e01b8152600401602060405180830381865afa158015612298573d6000803e3d6000fd5b505050506040513d601f19601f820116820180604052508101906122bc919061578c565b60fa6040518563ffffffff1660e01b81526004016122dd94939291906157b0565b6040805180830381865af41580156122f9573d6000803e3d6000fd5b505050506040513d601f19601f8201168201806040525081019061231d91906157d2565b6060830152604082015284158015906123cc575060008560ce5460d154612344919061533d565b60c9546040516370a0823160e01b81526001600160a01b03909116906370a0823190612374903090600401614dc0565b602060405180830381865afa158015612391573d6000803e3d6000fd5b505050506040513d601f19601f820116820180604052508101906123b5919061575c565b6123bf9190615775565b6123c99190615775565b10155b156123e85760c9546123e8906001600160a01b03168787612b86565b60008411801561248e575060008460cf5460d254612406919061533d565b60ca546040516370a0823160e01b81526001600160a01b03909116906370a0823190612436903090600401614dc0565b602060405180830381865afa158015612453573d6000803e3d6000fd5b505050506040513d601f19601f82011682018060405250810190612477919061575c565b6124819190615775565b61248b9190615775565b10155b156124aa5760ca546124aa906001600160a01b03168786612b86565b8051602080830151604080513381529283019390935281830152905130917f37d0344f9c2e3a1b262004ad8a4d25955dc9223dd2f39eb7c70d57fa8481df54919081900360600190a2306001600160a01b0316600080516020615e8b8339815191528260400151836060015160405161252492919061518d565b60405180910390a2306001600160a01b0316600080516020615eab833981519152878988886040516125599493929190615736565b60405180910390a25050505b6001609755909590945092505050565b611892612581856146bc565b61258a856146bc565b613f90565b6001600160a01b0383166125f15760405162461bcd60e51b8152602060048201526024808201527f45524332303a20617070726f76652066726f6d20746865207a65726f206164646044820152637265737360e01b606482015260840161073e565b6001600160a01b0382166126525760405162461bcd60e51b815260206004820152602260248201527f45524332303a20617070726f766520746f20746865207a65726f206164647265604482015261737360f01b606482015260840161073e565b6001600160a01b0383811660008181526066602090815260408083209487168084529482529182902085905590518481527f8c5be1e5ebec7d5bd14f71427d1e84f3dd0314c0f7b2291e5b200ac8c7c3b925910160405180910390a3505050565b60006126bf848461195f565b90506000198114611892578181101561271a5760405162461bcd60e51b815260206004820152601d60248201527f45524332303a20696e73756666696369656e7420616c6c6f77616e6365000000604482015260640161073e565b611892848484840361258f565b6001600160a01b03831661278b5760405162461bcd60e51b815260206004820152602560248201527f45524332303a207472616e736665722066726f6d20746865207a65726f206164604482015264647265737360d81b606482015260840161073e565b6001600160a01b0382166127ed5760405162461bcd60e51b815260206004820152602360248201527f45524332303a207472616e7366657220746f20746865207a65726f206164647260448201526265737360e81b606482015260840161073e565b6001600160a01b038316600090815260656020526040902054818110156128655760405162461bcd60e51b815260206004820152602660248201527f45524332303a207472616e7366657220616d6f756e7420657863656564732062604482015265616c616e636560d01b606482015260840161073e565b6001600160a01b0380851660009081526065602052604080822085850390559185168152908120805484929061289c90849061533d565b92505081905550826001600160a01b0316846001600160a01b0316600080516020615ecb833981519152846040516128d691815260200190565b60405180910390a3611892565b6000610708836001600160a01b038416614712565b6000610708836001600160a01b03841661472a565b60008054610100900460ff161561295b578160ff16600114801561293757506129353061481d565b155b6129535760405162461bcd60e51b815260040161073e90615957565b506000919050565b60005460ff8084169116106129825760405162461bcd60e51b815260040161073e90615957565b506000805460ff191660ff92909216919091179055600190565b600054610100900460ff166129c35760405162461bcd60e51b815260040161073e906159a5565b6129cd828261482c565b5050565b600054610100900460ff166129f85760405162461bcd60e51b815260040161073e906159a5565b6112a761487a565b60005b8381101561141f5760007f00000000000000000000000000000000000000000000000000000000000000006001600160a01b0316631698ee828585898987818110612a5057612a5061537b565b9050602002016020810190612a659190614e26565b6040518463ffffffff1660e01b8152600401612a8393929190615912565b602060405180830381865afa158015612aa0573d6000803e3d6000fd5b505050506040513d601f19601f82011682018060405250810190612ac4919061593a565b90506001600160a01b038116612aec5760405162461bcd60e51b815260040161073e90615391565b612af760d4826128e3565b15612b145760405162461bcd60e51b815260040161073e906159f0565b612b1f60d4826148a8565b50508080612b2c906153b7565b915050612a03565b603380546001600160a01b038381166001600160a01b0319831681179093556040519116919082907f8be0079c531659141344cd1fd0a4f28419497f9722a3daafe3b4186f6b6457e090600090a35050565b612bdc8363a9059cbb60e01b8484604051602401612ba5929190615a0e565b60408051601f198184030181529190526020810180516001600160e01b03166001600160e01b0319909316929092179091526148bd565b505050565b60005b81811015612bdc57600080612c0f858585818110612c0457612c0461537b565b9050606002016111e8565b9150915081612c305760405162461bcd60e51b815260040161073e90615a27565b60cd8181548110612c4357612c4361537b565b600091825260209091200180546001600160481b0319169055805b60cd54612c6d90600190615775565b811015612d225760cd612c8182600161533d565b81548110612c9157612c9161537b565b9060005260206000200160cd8281548110612cae57612cae61537b565b6000918252602090912082549101805462ffffff92831662ffffff19821681178355845463010000009081900485160265ffffffffffff1990921617178082559254600160301b9081900490921690910262ffffff60301b1990921691909117905580612d1a816153b7565b915050612c5e565b5060cd805480612d3457612d34615a4a565b600082815260209020810160001990810180546001600160481b031916905501905550819050612d63816153b7565b915050612be4565b60005b8381101561141f576000612d8d868684818110612c0457612c0461537b565b5090508015612dae5760405162461bcd60e51b815260040161073e90615a60565b60007f00000000000000000000000000000000000000000000000000000000000000006001600160a01b0316631698ee8286868a8a88818110612df357612df361537b565b9050606002016040016020810190612e0b9190614e26565b6040518463ffffffff1660e01b8152600401612e2993929190615912565b602060405180830381865afa158015612e46573d6000803e3d6000fd5b505050506040513d601f19601f82011682018060405250810190612e6a919061593a565b90506001600160a01b038116612ec05760405162461bcd60e51b815260206004820152601b60248201527a1d5b9a5cddd85c081c1bdbdb08191bd95cc81b9bdd08195e1a5cdd602a1b604482015260640161073e565b612ecb60d4826128e3565b612ee75760405162461bcd60e51b815260040161073e906159f0565b73__$57c880716d25c772e0b1e547659075b66d$__63143e56407f000000000000000000000000000000000000000000000000000000000000000087878b8b89818110612f3657612f3661537b565b9050606002016040518563ffffffff1660e01b8152600401612f5b9493929190615a7f565b602060405180830381865af4158015612f78573d6000803e3d6000fd5b505050506040513d601f19601f82011682018060405250810190612f9c9190615aac565b612fb85760405162461bcd60e51b815260040161073e90615a60565b60cd878785818110612fcc57612fcc61537b565b83546001810185556000948552602090942060609091029290920192919091019050612ff88282615ac9565b505050508080613007906153b7565b915050612d6e565b6002609754036130315760405162461bcd60e51b815260040161073e90615609565b6002609755600080805b6130458480615b50565b90508110156132925760c95460ca546000916001600160a01b037f0000000000000000000000000000000000000000000000000000000000000000811692631698ee8292821691166130978980615b50565b878181106130a7576130a761537b565b6130be926080918202019081019150606001614e26565b6040518463ffffffff1660e01b81526004016130dc93929190615912565b602060405180830381865afa1580156130f9573d6000803e3d6000fd5b505050506040513d601f19601f8201168201806040525081019061311d919061593a565b90508061312b60d4826128e3565b61314c5761314c61313c8780615b50565b858181106120f2576120f261537b565b60d35460405163db46de5360e01b815273__$fa5a18c13b4d815a743b91389b9a36db0f$__9163db46de539161319d91859162ffffff600160281b8304169162010000900460020b90600401615b99565b60006040518083038186803b1580156131b557600080fd5b505af41580156131c9573d6000803e3d6000fd5b506000925061325691508390506131e08980615b50565b878181106131f0576131f061537b565b6132099260406080909202019081019150602001614e52565b6132138a80615b50565b888181106132235761322361537b565b61323c9260606080909202019081019150604001614e52565b6132468b80615b50565b8981811061217c5761217c61537b565b9050806040015186613268919061533d565b955080606001518561327a919061533d565b9450505050808061328a906153b7565b91505061303b565b5060008211806132a25750600081115b156133e7576132b18282614586565b73__$30ef26875820c516a3c36c5c0a5fd73943$__636d50cdaf838360d060009054906101000a90046001600160a01b03166001600160a01b031663ccdf7a026040518163ffffffff1660e01b8152600401602060405180830381865afa158015613320573d6000803e3d6000fd5b505050506040513d601f19601f82011682018060405250810190613344919061578c565b60fa6040518563ffffffff1660e01b815260040161336594939291906157b0565b6040805180830381865af4158015613381573d6000803e3d6000fd5b505050506040513d601f19601f820116820180604052508101906133a591906157d2565b604051919350915030907f980ed0c388019eb16a88cc6b84fd29d73f8425e4ba59b30c763f338d5697e366906133de908590859061518d565b60405180910390a25b60006133f66040850185615bc2565b606001351115613b1c576134216134106040850185615bc2565b610977906040810190602001615068565b156134585760405162461bcd60e51b81526020600482015260076024820152661b9bc81c1bdbdb60ca1b604482015260640161073e565b60c9546040516370a0823160e01b81526000916001600160a01b0316906370a0823190613489903090600401614dc0565b602060405180830381865afa1580156134a6573d6000803e3d6000fd5b505050506040513d601f19601f820116820180604052508101906134ca919061575c565b60ca546040516370a0823160e01b81529192506000916001600160a01b03909116906370a0823190613500903090600401614dc0565b602060405180830381865afa15801561351d573d6000803e3d6000fd5b505050506040513d601f19601f82011682018060405250810190613541919061575c565b90506135786135536040870187615bc2565b613564906060810190604001615068565b60c9546001600160a01b031690600061498f565b6135ad6135886040870187615bc2565b613599906060810190604001615068565b60ca546001600160a01b031690600061498f565b6135e16135bd6040870187615bc2565b6135ce906060810190604001615068565b60c9546001600160a01b0316908461498f565b6136156135f16040870187615bc2565b613602906060810190604001615068565b60ca546001600160a01b0316908361498f565b60006136246040870187615bc2565b613635906060810190604001615068565b6001600160a01b031661364b6040880188615bc2565b6136559080615be2565b604051613663929190615c28565b6000604051808303816000865af19150503d80600081146136a0576040519150601f19603f3d011682016040523d82523d6000602084013e6136a5565b606091505b50509050806136df5760405162461bcd60e51b815260040161073e906020808252600490820152630737761760e41b604082015260600190565b6136ef6135536040880188615bc2565b6136ff6135886040880188615bc2565b60c9546040516370a0823160e01b81526000916001600160a01b0316906370a0823190613730903090600401614dc0565b602060405180830381865afa15801561374d573d6000803e3d6000fd5b505050506040513d601f19601f82011682018060405250810190613771919061575c565b60ca546040516370a0823160e01b81529192506000916001600160a01b03909116906370a08231906137a7903090600401614dc0565b602060405180830381865afa1580156137c4573d6000803e3d6000fd5b505050506040513d601f19601f820116820180604052508101906137e8919061575c565b90506137f76040890189615bc2565b6138089060c081019060a001615c38565b15613a09576138dc73__$fa5a18c13b4d815a743b91389b9a36db0f$__639ff4c50d61383760408c018c615bc2565b613848906040810190602001615068565b60d3546040516001600160e01b031960e085901b1681526001600160a01b03909216600483015262ffffff600160281b909104166024820152604401602060405180830381865af41580156138a1573d6000803e3d6000fd5b505050506040513d601f19601f820116820180604052508101906138c5919061575c565b60d354600160401b900462ffffff16612710614013565b6139886138ec60408b018b615bc2565b6080013560c960009054906101000a90046001600160a01b03166001600160a01b031663313ce5676040518163ffffffff1660e01b8152600401602060405180830381865afa158015613943573d6000803e3d6000fd5b505050506040513d601f19601f820116820180604052508101906139679190615c55565b61397290600a615d5c565b61397f60408d018d615bc2565b60600135614013565b116139a55760405162461bcd60e51b815260040161073e90615d6b565b6139b26040890189615bc2565b6139c090608001358561533d565b81101580156139e857506139d76040890189615bc2565b6139e5906060013586615775565b82145b613a045760405162461bcd60e51b815260040161073e90615d8d565b613b16565b613a3373__$fa5a18c13b4d815a743b91389b9a36db0f$__630578711c61383760408c018c615bc2565b613a9a613a4360408b018b615bc2565b6080013560ca60009054906101000a90046001600160a01b03166001600160a01b031663313ce5676040518163ffffffff1660e01b8152600401602060405180830381865afa158015613943573d6000803e3d6000fd5b11613ab75760405162461bcd60e51b815260040161073e90615d6b565b613ac46040890189615bc2565b613ad290608001358661533d565b8210158015613afa5750613ae96040890189615bc2565b613af7906060013585615775565b81145b613b165760405162461bcd60e51b815260040161073e90615d8d565b50505050505b60005b613b2c6020850185615b50565b9050811015613e375760c95460ca546000916001600160a01b037f0000000000000000000000000000000000000000000000000000000000000000811692631698ee829282169116613b8160208a018a615b50565b87818110613b9157613b9161537b565b613ba8926080918202019081019150606001614e26565b6040518463ffffffff1660e01b8152600401613bc693929190615912565b602060405180830381865afa158015613be3573d6000803e3d6000fd5b505050506040513d601f19601f82011682018060405250810190613c07919061593a565b90506000613c39613c1b6020880188615b50565b85818110613c2b57613c2b61537b565b9050608002016020016111e8565b50905080613c595760405162461bcd60e51b815260040161073e90615a27565b60d35460405163db46de5360e01b815273__$fa5a18c13b4d815a743b91389b9a36db0f$__9163db46de5391613caa91869162ffffff600160281b8304169162010000900460020b90600401615b99565b60006040518083038186803b158015613cc257600080fd5b505af4158015613cd6573d6000803e3d6000fd5b5050506001600160a01b0383169050633c8a7d8d30613cf860208a018a615b50565b87818110613d0857613d0861537b565b613d219260406080909202019081019150602001614e52565b613d2e60208b018b615b50565b88818110613d3e57613d3e61537b565b613d579260606080909202019081019150604001614e52565b613d6460208c018c615b50565b89818110613d7457613d7461537b565b613d8a926020608090920201908101915061580b565b6040516001600160e01b031960e087901b1681526001600160a01b039094166004850152600292830b6024850152910b60448301526001600160801b0316606482015260a06084820152600060a482015260c40160408051808303816000875af1158015613dfc573d6000803e3d6000fd5b505050506040513d601f19601f82011682018060405250810190613e2091906157d2565b505050508080613e2f906153b7565b915050613b1f565b505060016097555050565b6000613e4f848484614013565b905060008280613e6157613e61615db2565b8486091115610708576000198110613e7857600080fd5b80613e82816153b7565b95945050505050565b6001600160a01b038216613ee15760405162461bcd60e51b815260206004820152601f60248201527f45524332303a206d696e7420746f20746865207a65726f206164647265737300604482015260640161073e565b8060676000828254613ef3919061533d565b90915550506001600160a01b03821660009081526065602052604081208054839290613f2090849061533d565b90915550506040518181526001600160a01b03831690600090600080516020615ecb8339815191529060200160405180910390a35050565b6040516001600160a01b03808516602483015283166044820152606481018290526118929085906323b872dd60e01b90608401612ba5565b613f9b60d4336128e3565b613fd95760405162461bcd60e51b815260206004820152600f60248201526e31b0b6363130b1b59031b0b63632b960891b604482015260640161073e565b8115613ff65760c954613ff6906001600160a01b03163384612b86565b80156129cd5760ca546129cd906001600160a01b03163383612b86565b600080806000198587098587029250828110838203039150508060000361404c576000841161404157600080fd5b508290049050610708565b80841161405857600080fd5b60008486880960026001871981018816978890046003810283188082028403028082028403028082028403028082028403028082028403029081029092039091026000889003889004909101858311909403939093029303949094049190911702949350505050565b6001600160a01b0382166141215760405162461bcd60e51b815260206004820152602160248201527f45524332303a206275726e2066726f6d20746865207a65726f206164647265736044820152607360f81b606482015260840161073e565b6001600160a01b038216600090815260656020526040902054818110156141955760405162461bcd60e51b815260206004820152602260248201527f45524332303a206275726e20616d6f756e7420657863656564732062616c616e604482015261636560f01b606482015260840161073e565b6001600160a01b03831660009081526065602052604081208383039055606780548492906141c4908490615775565b90915550506040518281526000906001600160a01b03851690600080516020615ecb8339815191529060200160405180910390a3505050565b602080820151805191810151604091820151915163c79201a360e01b815261073e939290600401615012565b604051634cb235d760e11b815262ffffff8216600482015260240161073e565b614251614c5b565b60c9546040516370a0823160e01b81526000916001600160a01b0316906370a0823190614282903090600401614dc0565b602060405180830381865afa15801561429f573d6000803e3d6000fd5b505050506040513d601f19601f820116820180604052508101906142c3919061575c565b60ca546040516370a0823160e01b81529192506000916001600160a01b03909116906370a08231906142f9903090600401614dc0565b602060405180830381865afa158015614316573d6000803e3d6000fd5b505050506040513d601f19601f8201168201806040525081019061433a919061575c565b60405163a34123a760e01b8152600288810b600483015287900b60248201526001600160801b03861660448201529091506001600160a01b0388169063a34123a79060640160408051808303816000875af115801561439d573d6000803e3d6000fd5b505050506040513d601f19601f820116820180604052508101906143c191906157d2565b602085015283526040516309e3d67b60e31b8152306004820152600287810b602483015286900b60448201526001600160801b036064820181905260848201526001600160a01b03881690634f1eb3d89060a40160408051808303816000875af1158015614433573d6000803e3d6000fd5b505050506040513d601f19601f820116820180604052508101906144579190615dc8565b5050825160c9546040516370a0823160e01b815284916001600160a01b0316906370a082319061448b903090600401614dc0565b602060405180830381865afa1580156144a8573d6000803e3d6000fd5b505050506040513d601f19601f820116820180604052508101906144cc919061575c565b6144d69190615775565b6144e09190615775565b604080850191909152602084015160ca5491516370a0823160e01b8152909183916001600160a01b03909116906370a0823190614521903090600401614dc0565b602060405180830381865afa15801561453e573d6000803e3d6000fd5b505050506040513d601f19601f82011682018060405250810190614562919061575c565b61456c9190615775565b6145769190615775565b6060840152509095945050505050565b60d0546040805163666fbd0160e11b815290516000926001600160a01b03169163ccdf7a029160048083019260209291908290030181865afa1580156145d0573d6000803e3d6000fd5b505050506040513d601f19601f820116820180604052508101906145f4919061578c565b905061271061460761ffff831685615df7565b6146119190615e16565b60d16000828254614622919061533d565b90915550612710905061463961ffff831684615df7565b6146439190615e16565b60d26000828254614654919061533d565b90915550612710905061466860fa85615df7565b6146729190615e16565b60ce6000828254614683919061533d565b90915550612710905061469760fa84615df7565b6146a19190615e16565b60cf60008282546146b2919061533d565b9091555050505050565b60008082121561470e5760405162461bcd60e51b815260206004820181905260248201527f53616665436173743a2076616c7565206d75737420626520706f736974697665604482015260640161073e565b5090565b60009081526001919091016020526040902054151590565b6000818152600183016020526040812054801561481357600061474e600183615775565b855490915060009061476290600190615775565b90508181146147c75760008660000182815481106147825761478261537b565b90600052602060002001549050808760000184815481106147a5576147a561537b565b6000918252602080832090910192909255918252600188019052604090208390555b85548690806147d8576147d8615a4a565b6001900381819060005260206000200160009055905585600101600086815260200190815260200160002060009055600193505050506106e3565b60009150506106e3565b6001600160a01b03163b151590565b600054610100900460ff166148535760405162461bcd60e51b815260040161073e906159a5565b8151614866906068906020850190614c83565b508051612bdc906069906020840190614c83565b600054610100900460ff166148a15760405162461bcd60e51b815260040161073e906159a5565b6001609755565b6000610708836001600160a01b038416614a92565b6000614912826040518060400160405280602081526020017f5361666545524332303a206c6f772d6c6576656c2063616c6c206661696c6564815250856001600160a01b0316614adc9092919063ffffffff16565b805190915015612bdc57808060200190518101906149309190615aac565b612bdc5760405162461bcd60e51b815260206004820152602a60248201527f5361666545524332303a204552433230206f7065726174696f6e20646964206e6044820152691bdd081cdd58d8d9595960b21b606482015260840161073e565b801580614a085750604051636eb1769f60e11b81526001600160a01b0384169063dd62ed3e906149c590309086906004016154d0565b602060405180830381865afa1580156149e2573d6000803e3d6000fd5b505050506040513d601f19601f82011682018060405250810190614a06919061575c565b155b614a735760405162461bcd60e51b815260206004820152603660248201527f5361666545524332303a20617070726f76652066726f6d206e6f6e2d7a65726f60448201527520746f206e6f6e2d7a65726f20616c6c6f77616e636560501b606482015260840161073e565b612bdc8363095ea7b360e01b8484604051602401612ba5929190615a0e565b6000614a9e8383614712565b614ad4575081546001818101845560008481526020808220909301849055845484825282860190935260409020919091556106e3565b5060006106e3565b6060614aeb8484600085614af3565b949350505050565b606082471015614b545760405162461bcd60e51b815260206004820152602660248201527f416464726573733a20696e73756666696369656e742062616c616e636520666f6044820152651c8818d85b1b60d21b606482015260840161073e565b614b5d8561481d565b614ba95760405162461bcd60e51b815260206004820152601d60248201527f416464726573733a2063616c6c20746f206e6f6e2d636f6e7472616374000000604482015260640161073e565b600080866001600160a01b03168587604051614bc59190615e38565b60006040518083038185875af1925050503d8060008114614c02576040519150601f19603f3d011682016040523d82523d6000602084013e614c07565b606091505b5091509150614c17828286614c22565b979650505050505050565b60608315614c31575081610708565b825115614c415782518084602001fd5b8160405162461bcd60e51b815260040161073e9190614d3f565b6040518060800160405280600081526020016000815260200160008152602001600081525090565b828054614c8f906152a8565b90600052602060002090601f016020900481019282614cb15760008555614cf7565b82601f10614cca57805160ff1916838001178555614cf7565b82800160010185558215614cf7579182015b82811115614cf7578251825591602001919060010190614cdc565b5061470e9291505b8082111561470e5760008155600101614cff565b60005b83811015614d2e578181015183820152602001614d16565b838111156118925750506000910152565b6020815260008251806020840152614d5e816040850160208701614d13565b601f01601f19169190910160400192915050565b6001600160a01b0381168114611a2757600080fd5b60008060408385031215614d9a57600080fd5b8235614da581614d72565b946020939093013593505050565b6001600160a01b03169052565b6001600160a01b0391909116815260200190565b600080600060608486031215614de957600080fd5b8335614df481614d72565b92506020840135614e0481614d72565b929592945050506040919091013590565b62ffffff81168114611a2757600080fd5b600060208284031215614e3857600080fd5b813561070881614e15565b8060020b8114611a2757600080fd5b600060208284031215614e6457600080fd5b813561070881614e43565b60008060408385031215614e8257600080fd5b50508035926020909101359150565b60008083601f840112614ea357600080fd5b5081356001600160401b03811115614eba57600080fd5b6020830191508360208260051b8501011115614ed557600080fd5b9250929050565b60008060208385031215614eef57600080fd5b82356001600160401b03811115614f0557600080fd5b614f1185828601614e91565b90969095509350505050565b60008083601f840112614f2f57600080fd5b5081356001600160401b03811115614f4657600080fd5b602083019150836020828501011115614ed557600080fd5b600080600080600060608688031215614f7657600080fd5b85356001600160401b0380821115614f8d57600080fd5b614f9989838a01614f1d565b90975095506020880135915080821115614fb257600080fd5b614fbe89838a01614f1d565b90955093506040880135915080821115614fd757600080fd5b5086016101408189031215614feb57600080fd5b809150509295509295909350565b60006020828403121561500b57600080fd5b5035919050565b600293840b81529190920b602082015262ffffff909116604082015260600190565b60006060828403121561504657600080fd5b50919050565b60006060828403121561505e57600080fd5b6107088383615034565b60006020828403121561507a57600080fd5b813561070881614d72565b60008083601f84011261509757600080fd5b5081356001600160401b038111156150ae57600080fd5b602083019150836020606083028501011115614ed557600080fd5b6000806000806000606086880312156150e157600080fd5b85356001600160401b03808211156150f857600080fd5b61510489838a01615085565b9097509550602088013591508082111561511d57600080fd5b61512989838a01615034565b9450604088013591508082111561513f57600080fd5b5061514c88828901615085565b969995985093965092949392505050565b6000806040838503121561517057600080fd5b82359150602083013561518281614d72565b809150509250929050565b918252602082015260400190565b600080600080606085870312156151b157600080fd5b843593506020850135925060408501356001600160401b038111156151d557600080fd5b6151e187828801614f1d565b95989497509550505050565b6000806040838503121561520057600080fd5b823561520b81614d72565b9150602083013561518281614d72565b6000806000806060858703121561523157600080fd5b84356001600160401b038082111561524857600080fd5b818701915087601f83011261525c57600080fd5b81358181111561526b57600080fd5b8860208260071b850101111561528057600080fd5b602092830196509450508501359150604085013561529d81614d72565b939692955090935050565b600181811c908216806152bc57607f821691505b60208210810361504657634e487b7160e01b600052602260045260246000fd5b6020808252818101527f4f776e61626c653a2063616c6c6572206973206e6f7420746865206f776e6572604082015260600190565b62ffffff92831681529116602082015260400190565b634e487b7160e01b600052601160045260246000fd5b6000821982111561535057615350615327565b500190565b6020808252600c908201526b746f74616c20737570706c7960a01b604082015260600190565b634e487b7160e01b600052603260045260246000fd5b6020808252600c908201526b61646472657373205a65726f60a01b604082015260600190565b6000600182016153c9576153c9615327565b5060010190565b60208082528181018390526000908460408401835b868110156154135782356153f881614d72565b6001600160a01b0316825291830191908301906001016153e5565b509695505050505050565b6000808335601e1984360301811261543557600080fd5b8301803591506001600160401b0382111561544f57600080fd5b6020019150600581901b3603821315614ed557600080fd5b60208082526010908201526f36b0bc2a3bb0b82232bb34b0ba34b7b760811b604082015260600190565b60208082528181018390526000908460408401835b868110156154135782356154b981614e15565b62ffffff16825291830191908301906001016154a6565b6001600160a01b0392831681529116602082015260400190565b6020808252600a908201526937379036b0b730b3b2b960b11b604082015260600190565b803561551981614e43565b60020b8252602081013561552c81614e43565b60020b6020830152604081013561554281614e15565b62ffffff81166040840152505050565b6000608082016080835280855480835260a08501915086600052602092508260002060005b828110156155b2578154600281810b8652601882901c900b8686015260301c62ffffff16604085015260609093019260019182019101615577565b505050809250506155c58184018561550e565b509392505050565b8015158114611a2757600080fd5b600080604083850312156155ee57600080fd5b82516155f9816155cd565b6020939093015192949293505050565b6020808252601f908201527f5265656e7472616e637947756172643a207265656e7472616e742063616c6c00604082015260600190565b6020808252825160a083830152805160c0840181905260009291820190839060e08601905b808310156156a75783518051600290810b845286820151900b8684015260409081015162ffffff16908301529284019260019290920191606090910190615665565b5092860151926156ba6040870185614db3565b604087015193506156ce6060870185614db3565b606087015193506156e26080870185614db3565b608087015193506156f660a0870185614db3565b9695505050505050565b6000806000806080858703121561571657600080fd5b505082516020840151604085015160609095015191969095509092509050565b6001600160a01b0394909416845260208401929092526040830152606082015260800190565b60006020828403121561576e57600080fd5b5051919050565b60008282101561578757615787615327565b500390565b60006020828403121561579e57600080fd5b815161ffff8116811461070857600080fd5b938452602084019290925261ffff908116604084015216606082015260800190565b600080604083850312156157e557600080fd5b505080516020909101519092909150565b6001600160801b0381168114611a2757600080fd5b60006020828403121561581d57600080fd5b8135610708816157f6565b604051606081016001600160401b038111828210171561585857634e487b7160e01b600052604160045260246000fd5b60405290565b6000818303608081121561587157600080fd5b604080519081016001600160401b03811182821017156158a157634e487b7160e01b600052604160045260246000fd5b60405283356158af816157f6565b81526060601f19830112156158c357600080fd5b6158cb615828565b915060208401356158db81614e43565b825260408401356158eb81614e43565b602083015260608401356158fe81614e15565b604083015260208101919091529392505050565b6001600160a01b03938416815291909216602082015262ffffff909116604082015260600190565b60006020828403121561594c57600080fd5b815161070881614d72565b6020808252602e908201527f496e697469616c697a61626c653a20636f6e747261637420697320616c72656160408201526d191e481a5b9a5d1a585b1a5e995960921b606082015260800190565b6020808252602b908201527f496e697469616c697a61626c653a20636f6e7472616374206973206e6f74206960408201526a6e697469616c697a696e6760a81b606082015260800190565b6020808252600490820152631c1bdbdb60e21b604082015260600190565b6001600160a01b03929092168252602082015260400190565b6020808252600990820152686e6f742072616e676560b81b604082015260600190565b634e487b7160e01b600052603160045260246000fd5b60208082526005908201526472616e676560d81b604082015260600190565b6001600160a01b03858116825284811660208301528316604082015260c08101613e82606083018461550e565b600060208284031215615abe57600080fd5b8151610708816155cd565b8135615ad481614e43565b815462ffffff82811662ffffff1983161784556020850135615af581614e43565b8060181b9050818416935065ffffff00000091508082168465ffffffffffff198516171785556040860135615b2981614e15565b91166001600160481b0319929092169092171760309190911b62ffffff60301b1617905550565b6000808335601e19843603018112615b6757600080fd5b8301803591506001600160401b03821115615b8157600080fd5b6020019150600781901b3603821315614ed557600080fd5b6001600160a01b0393909316835262ffffff91909116602083015260020b604082015260600190565b6000823560be19833603018112615bd857600080fd5b9190910192915050565b6000808335601e19843603018112615bf957600080fd5b8301803591506001600160401b03821115615c1357600080fd5b602001915036819003821315614ed557600080fd5b8183823760009101908152919050565b600060208284031215615c4a57600080fd5b8135610708816155cd565b600060208284031215615c6757600080fd5b815160ff8116811461070857600080fd5b600181815b80851115615cb3578160001904821115615c9957615c99615327565b80851615615ca657918102915b93841c9390800290615c7d565b509250929050565b600082615cca575060016106e3565b81615cd7575060006106e3565b8160018114615ced5760028114615cf757615d13565b60019150506106e3565b60ff841115615d0857615d08615327565b50506001821b6106e3565b5060208310610133831016604e8410600b8410161715615d36575081810a6106e3565b615d408383615c78565b8060001904821115615d5457615d54615327565b029392505050565b600061070860ff841683615cbb565b602080825260089082015267736c69707061676560c01b604082015260600190565b6020808252600b908201526a1cddd85c0819985a5b195960aa1b604082015260600190565b634e487b7160e01b600052601260045260246000fd5b60008060408385031215615ddb57600080fd5b8251615de6816157f6565b6020840151909250615182816157f6565b6000816000190483118215151615615e1157615e11615327565b500290565b600082615e3357634e487b7160e01b600052601260045260246000fd5b500490565b60008251615bd8818460208701614d1356fe17ec55bdd2fea2768d22be98ea82ce39f382d4a52ecae15d38c780f5589fa595c4e0a66e8ba7f38390072f2fdf05535dfb198760a5f3c4f29a65524e32de5c5332da8acdd01c0a59b03b09701136ec60caaffa0e94c766890f064762bd8fb1325c5a2fc161b9783402c6936b84c4ff152302bedf739d6d9167cd4789869dbe92ddf252ad1be2c89b69c2b068fc378daa952ba7f163c4a11628f55a4df523b3efef8f805aa84457ce7607552537087c0f65f982bba416c42f7def196ac533d07e9db03e8799fad01acfcb097edbb56f2317078cbd4837d484116a7aeb6421d4ef3a012e06aea9a2588f812b4ead330d91697c79ed2edd8bb527465e66176f90257a1b755d6e05fd10f250732bf3c40b4d8cdcb1bf767d93696f320959ae7b5335a2646970667358221220fcdd4445cf3334b1965d8dc9642dc39d79da2242b20ce6682c2ce7427973af0c64736f6c634300080d0033",
  "libraries": {
    "Pool": "0xCB877F44f58087345B3c6Ef479f4142E6798Fbba",
    "Position": "0x4269122bb5Bd06aC93517c682CdEcbF190Ee248a",
    "Twap": "0x9Cd427ED4383B33Dc102048d6AB1686D00ab5A78",
    "Underlying": "0x2dE54557C0528C2aCC4Bd23e9c8eEaa3D1e0b84e",
    "UniswapV3Amounts": "0xa8dEd13FdBc000D9cF3bAAE27d71568E5cc7862F"
  },
  "devdoc": {
    "details": "DO NOT ADD STATE VARIABLES - APPEND THEM TO ArrakisV2Storage",
    "kind": "dev",
    "methods": {
      "allowance(address,address)": {
        "details": "See {IERC20-allowance}."
      },
      "approve(address,uint256)": {
        "details": "See {IERC20-approve}. NOTE: If `amount` is the maximum `uint256`, the allowance is not updated on `transferFrom`. This is semantically equivalent to an infinite approval. Requirements: - `spender` cannot be the zero address."
      },
      "balanceOf(address)": {
        "details": "See {IERC20-balanceOf}."
      },
      "decimals()": {
        "details": "Returns the number of decimals used to get its user representation. For example, if `decimals` equals `2`, a balance of `505` tokens should be displayed to a user as `5.05` (`505 / 10 ** 2`). Tokens usually opt for a value of 18, imitating the relationship between Ether and Wei. This is the value {ERC20} uses, unless this function is overridden; NOTE: This information is only used for _display_ purposes: it in no way affects any of the arithmetic of the contract, including {IERC20-balanceOf} and {IERC20-transfer}."
      },
      "decreaseAllowance(address,uint256)": {
        "details": "Atomically decreases the allowance granted to `spender` by the caller. This is an alternative to {approve} that can be used as a mitigation for problems described in {IERC20-approve}. Emits an {Approval} event indicating the updated allowance. Requirements: - `spender` cannot be the zero address. - `spender` must have allowance for the caller of at least `subtractedValue`."
      },
      "increaseAllowance(address,uint256)": {
        "details": "Atomically increases the allowance granted to `spender` by the caller. This is an alternative to {approve} that can be used as a mitigation for problems described in {IERC20-approve}. Emits an {Approval} event indicating the updated allowance. Requirements: - `spender` cannot be the zero address."
      },
      "name()": {
        "details": "Returns the name of the token."
      },
      "owner()": {
        "details": "Returns the address of the current owner."
      },
      "renounceOwnership()": {
        "details": "Leaves the contract without owner. It will not be possible to call `onlyOwner` functions anymore. Can only be called by the current owner. NOTE: Renouncing ownership will leave the contract without an owner, thereby removing any functionality that is only available to the owner."
      },
      "symbol()": {
        "details": "Returns the symbol of the token, usually a shorter version of the name."
      },
      "totalSupply()": {
        "details": "See {IERC20-totalSupply}."
      },
      "transfer(address,uint256)": {
        "details": "See {IERC20-transfer}. Requirements: - `to` cannot be the zero address. - the caller must have a balance of at least `amount`."
      },
      "transferFrom(address,address,uint256)": {
        "details": "See {IERC20-transferFrom}. Emits an {Approval} event indicating the updated allowance. This is not required by the EIP. See the note at the beginning of {ERC20}. NOTE: Does not update the allowance if the current allowance is the maximum `uint256`. Requirements: - `from` and `to` cannot be the zero address. - `from` must have a balance of at least `amount`. - the caller must have allowance for ``from``'s tokens of at least `amount`."
      },
      "transferOwnership(address)": {
        "details": "Transfers ownership of the contract to a new account (`newOwner`). Can only be called by the current owner."
      }
    },
    "version": 1
  },
  "userdoc": {
    "kind": "user",
    "methods": {
      "uniswapV3MintCallback(uint256,uint256,bytes)": {
        "notice": "Uniswap V3 callback fn, called back on pool.mint"
      },
      "uniswapV3SwapCallback(int256,int256,bytes)": {
        "notice": "Uniswap v3 callback fn, called back on pool.swap"
      }
    },
    "version": 1
  },
  "storageLayout": {
    "storage": [
      {
        "astId": 1285,
        "contract": "contracts/ArrakisV2.sol:ArrakisV2",
        "label": "_initialized",
        "offset": 0,
        "slot": "0",
        "type": "t_uint8"
      },
      {
        "astId": 1288,
        "contract": "contracts/ArrakisV2.sol:ArrakisV2",
        "label": "_initializing",
        "offset": 1,
        "slot": "0",
        "type": "t_bool"
      },
      {
        "astId": 2477,
        "contract": "contracts/ArrakisV2.sol:ArrakisV2",
        "label": "__gap",
        "offset": 0,
        "slot": "1",
        "type": "t_array(t_uint256)50_storage"
      },
      {
        "astId": 1165,
        "contract": "contracts/ArrakisV2.sol:ArrakisV2",
        "label": "_owner",
        "offset": 0,
        "slot": "51",
        "type": "t_address"
      },
      {
        "astId": 1277,
        "contract": "contracts/ArrakisV2.sol:ArrakisV2",
        "label": "__gap",
        "offset": 0,
        "slot": "52",
        "type": "t_array(t_uint256)49_storage"
      },
      {
        "astId": 1498,
        "contract": "contracts/ArrakisV2.sol:ArrakisV2",
        "label": "_balances",
        "offset": 0,
        "slot": "101",
        "type": "t_mapping(t_address,t_uint256)"
      },
      {
        "astId": 1504,
        "contract": "contracts/ArrakisV2.sol:ArrakisV2",
        "label": "_allowances",
        "offset": 0,
        "slot": "102",
        "type": "t_mapping(t_address,t_mapping(t_address,t_uint256))"
      },
      {
        "astId": 1506,
        "contract": "contracts/ArrakisV2.sol:ArrakisV2",
        "label": "_totalSupply",
        "offset": 0,
        "slot": "103",
        "type": "t_uint256"
      },
      {
        "astId": 1508,
        "contract": "contracts/ArrakisV2.sol:ArrakisV2",
        "label": "_name",
        "offset": 0,
        "slot": "104",
        "type": "t_string_storage"
      },
      {
        "astId": 1510,
        "contract": "contracts/ArrakisV2.sol:ArrakisV2",
        "label": "_symbol",
        "offset": 0,
        "slot": "105",
        "type": "t_string_storage"
      },
      {
        "astId": 2089,
        "contract": "contracts/ArrakisV2.sol:ArrakisV2",
        "label": "__gap",
        "offset": 0,
        "slot": "106",
        "type": "t_array(t_uint256)45_storage"
      },
      {
        "astId": 1434,
        "contract": "contracts/ArrakisV2.sol:ArrakisV2",
        "label": "_status",
        "offset": 0,
        "slot": "151",
        "type": "t_uint256"
      },
      {
        "astId": 1478,
        "contract": "contracts/ArrakisV2.sol:ArrakisV2",
        "label": "__gap",
        "offset": 0,
        "slot": "152",
        "type": "t_array(t_uint256)49_storage"
      },
      {
        "astId": 11522,
        "contract": "contracts/ArrakisV2.sol:ArrakisV2",
        "label": "token0",
        "offset": 0,
        "slot": "201",
        "type": "t_contract(IERC20)4147"
      },
      {
        "astId": 11525,
        "contract": "contracts/ArrakisV2.sol:ArrakisV2",
        "label": "token1",
        "offset": 0,
        "slot": "202",
        "type": "t_contract(IERC20)4147"
      },
      {
        "astId": 11527,
        "contract": "contracts/ArrakisV2.sol:ArrakisV2",
        "label": "init0",
        "offset": 0,
        "slot": "203",
        "type": "t_uint256"
      },
      {
        "astId": 11529,
        "contract": "contracts/ArrakisV2.sol:ArrakisV2",
        "label": "init1",
        "offset": 0,
        "slot": "204",
        "type": "t_uint256"
      },
      {
        "astId": 11533,
        "contract": "contracts/ArrakisV2.sol:ArrakisV2",
        "label": "ranges",
        "offset": 0,
        "slot": "205",
        "type": "t_array(t_struct(Range)14062_storage)dyn_storage"
      },
      {
        "astId": 11535,
        "contract": "contracts/ArrakisV2.sol:ArrakisV2",
        "label": "arrakisBalance0",
        "offset": 0,
        "slot": "206",
        "type": "t_uint256"
      },
      {
        "astId": 11537,
        "contract": "contracts/ArrakisV2.sol:ArrakisV2",
        "label": "arrakisBalance1",
        "offset": 0,
        "slot": "207",
        "type": "t_uint256"
      },
      {
        "astId": 11540,
        "contract": "contracts/ArrakisV2.sol:ArrakisV2",
        "label": "manager",
        "offset": 0,
        "slot": "208",
        "type": "t_contract(IManagerProxyV2)12921"
      },
      {
        "astId": 11542,
        "contract": "contracts/ArrakisV2.sol:ArrakisV2",
        "label": "managerBalance0",
        "offset": 0,
        "slot": "209",
        "type": "t_uint256"
      },
      {
        "astId": 11544,
        "contract": "contracts/ArrakisV2.sol:ArrakisV2",
        "label": "managerBalance1",
        "offset": 0,
        "slot": "210",
        "type": "t_uint256"
      },
      {
        "astId": 11546,
        "contract": "contracts/ArrakisV2.sol:ArrakisV2",
        "label": "restrictedMintToggle",
        "offset": 0,
        "slot": "211",
        "type": "t_uint16"
      },
      {
        "astId": 11548,
        "contract": "contracts/ArrakisV2.sol:ArrakisV2",
        "label": "maxTwapDeviation",
        "offset": 2,
        "slot": "211",
        "type": "t_int24"
      },
      {
        "astId": 11550,
        "contract": "contracts/ArrakisV2.sol:ArrakisV2",
        "label": "twapDuration",
        "offset": 5,
        "slot": "211",
        "type": "t_uint24"
      },
      {
        "astId": 11552,
        "contract": "contracts/ArrakisV2.sol:ArrakisV2",
        "label": "maxSlippage",
        "offset": 8,
        "slot": "211",
        "type": "t_uint24"
      },
      {
        "astId": 11555,
        "contract": "contracts/ArrakisV2.sol:ArrakisV2",
        "label": "_pools",
        "offset": 0,
        "slot": "212",
        "type": "t_struct(AddressSet)5478_storage"
      }
    ],
    "types": {
      "t_address": {
        "encoding": "inplace",
        "label": "address",
        "numberOfBytes": "20"
      },
      "t_array(t_bytes32)dyn_storage": {
        "base": "t_bytes32",
        "encoding": "dynamic_array",
        "label": "bytes32[]",
        "numberOfBytes": "32"
      },
      "t_array(t_struct(Range)14062_storage)dyn_storage": {
        "base": "t_struct(Range)14062_storage",
        "encoding": "dynamic_array",
        "label": "struct Range[]",
        "numberOfBytes": "32"
      },
      "t_array(t_uint256)45_storage": {
        "base": "t_uint256",
        "encoding": "inplace",
        "label": "uint256[45]",
        "numberOfBytes": "1440"
      },
      "t_array(t_uint256)49_storage": {
        "base": "t_uint256",
        "encoding": "inplace",
        "label": "uint256[49]",
        "numberOfBytes": "1568"
      },
      "t_array(t_uint256)50_storage": {
        "base": "t_uint256",
        "encoding": "inplace",
        "label": "uint256[50]",
        "numberOfBytes": "1600"
      },
      "t_bool": {
        "encoding": "inplace",
        "label": "bool",
        "numberOfBytes": "1"
      },
      "t_bytes32": {
        "encoding": "inplace",
        "label": "bytes32",
        "numberOfBytes": "32"
      },
      "t_contract(IERC20)4147": {
        "encoding": "inplace",
        "label": "contract IERC20",
        "numberOfBytes": "20"
      },
      "t_contract(IManagerProxyV2)12921": {
        "encoding": "inplace",
        "label": "contract IManagerProxyV2",
        "numberOfBytes": "20"
      },
      "t_int24": {
        "encoding": "inplace",
        "label": "int24",
        "numberOfBytes": "3"
      },
      "t_mapping(t_address,t_mapping(t_address,t_uint256))": {
        "encoding": "mapping",
        "key": "t_address",
        "label": "mapping(address => mapping(address => uint256))",
        "numberOfBytes": "32",
        "value": "t_mapping(t_address,t_uint256)"
      },
      "t_mapping(t_address,t_uint256)": {
        "encoding": "mapping",
        "key": "t_address",
        "label": "mapping(address => uint256)",
        "numberOfBytes": "32",
        "value": "t_uint256"
      },
      "t_mapping(t_bytes32,t_uint256)": {
        "encoding": "mapping",
        "key": "t_bytes32",
        "label": "mapping(bytes32 => uint256)",
        "numberOfBytes": "32",
        "value": "t_uint256"
      },
      "t_string_storage": {
        "encoding": "bytes",
        "label": "string",
        "numberOfBytes": "32"
      },
      "t_struct(AddressSet)5478_storage": {
        "encoding": "inplace",
        "label": "struct EnumerableSet.AddressSet",
        "members": [
          {
            "astId": 5477,
            "contract": "contracts/ArrakisV2.sol:ArrakisV2",
            "label": "_inner",
            "offset": 0,
            "slot": "0",
            "type": "t_struct(Set)5177_storage"
          }
        ],
        "numberOfBytes": "64"
      },
      "t_struct(Range)14062_storage": {
        "encoding": "inplace",
        "label": "struct Range",
        "members": [
          {
            "astId": 14057,
            "contract": "contracts/ArrakisV2.sol:ArrakisV2",
            "label": "lowerTick",
            "offset": 0,
            "slot": "0",
            "type": "t_int24"
          },
          {
            "astId": 14059,
            "contract": "contracts/ArrakisV2.sol:ArrakisV2",
            "label": "upperTick",
            "offset": 3,
            "slot": "0",
            "type": "t_int24"
          },
          {
            "astId": 14061,
            "contract": "contracts/ArrakisV2.sol:ArrakisV2",
            "label": "feeTier",
            "offset": 6,
            "slot": "0",
            "type": "t_uint24"
          }
        ],
        "numberOfBytes": "32"
      },
      "t_struct(Set)5177_storage": {
        "encoding": "inplace",
        "label": "struct EnumerableSet.Set",
        "members": [
          {
            "astId": 5172,
            "contract": "contracts/ArrakisV2.sol:ArrakisV2",
            "label": "_values",
            "offset": 0,
            "slot": "0",
            "type": "t_array(t_bytes32)dyn_storage"
          },
          {
            "astId": 5176,
            "contract": "contracts/ArrakisV2.sol:ArrakisV2",
            "label": "_indexes",
            "offset": 0,
            "slot": "1",
            "type": "t_mapping(t_bytes32,t_uint256)"
          }
        ],
        "numberOfBytes": "64"
      },
      "t_uint16": {
        "encoding": "inplace",
        "label": "uint16",
        "numberOfBytes": "2"
      },
      "t_uint24": {
        "encoding": "inplace",
        "label": "uint24",
        "numberOfBytes": "3"
      },
      "t_uint256": {
        "encoding": "inplace",
        "label": "uint256",
        "numberOfBytes": "32"
      },
      "t_uint8": {
        "encoding": "inplace",
        "label": "uint8",
        "numberOfBytes": "1"
      }
    }
  }
}