{
  "address": "0x31244496dd319038c7ECAbb8aBC74d425516cDB9",
  "abi": [
    {
      "inputs": [
        {
          "internalType": "contract IUniswapV3Factory",
          "name": "factory_",
          "type": "address"
        }
      ],
      "stateMutability": "nonpayable",
      "type": "constructor"
    },
    {
      "inputs": [],
      "name": "factory",
      "outputs": [
        {
          "internalType": "contract IUniswapV3Factory",
          "name": "",
          "type": "address"
        }
      ],
      "stateMutability": "view",
      "type": "function"
    },
    {
      "inputs": [
        {
          "internalType": "contract IArrakisV2",
          "name": "vault_",
          "type": "address"
        }
      ],
      "name": "ranges",
      "outputs": [
        {
          "components": [
            {
              "internalType": "int24",
              "name": "lowerTick",
              "type": "int24"
            },
            {
              "internalType": "int24",
              "name": "upperTick",
              "type": "int24"
            },
            {
              "internalType": "uint24",
              "name": "feeTier",
              "type": "uint24"
            }
          ],
          "internalType": "struct Range[]",
          "name": "rgs",
          "type": "tuple[]"
        }
      ],
      "stateMutability": "view",
      "type": "function"
    },
    {
      "inputs": [
        {
          "components": [
            {
              "internalType": "int24",
              "name": "lowerTick",
              "type": "int24"
            },
            {
              "internalType": "int24",
              "name": "upperTick",
              "type": "int24"
            },
            {
              "internalType": "uint24",
              "name": "feeTier",
              "type": "uint24"
            }
          ],
          "internalType": "struct Range[]",
          "name": "ranges_",
          "type": "tuple[]"
        },
        {
          "internalType": "address",
          "name": "token0_",
          "type": "address"
        },
        {
          "internalType": "address",
          "name": "token1_",
          "type": "address"
        },
        {
          "internalType": "address",
          "name": "vaultV2_",
          "type": "address"
        }
      ],
      "name": "token0AndToken1ByRange",
      "outputs": [
        {
          "components": [
            {
              "components": [
                {
                  "internalType": "int24",
                  "name": "lowerTick",
                  "type": "int24"
                },
                {
                  "internalType": "int24",
                  "name": "upperTick",
                  "type": "int24"
                },
                {
                  "internalType": "uint24",
                  "name": "feeTier",
                  "type": "uint24"
                }
              ],
              "internalType": "struct Range",
              "name": "range",
              "type": "tuple"
            },
            {
              "internalType": "uint256",
              "name": "amount",
              "type": "uint256"
            }
          ],
          "internalType": "struct Amount[]",
          "name": "amount0s",
          "type": "tuple[]"
        },
        {
          "components": [
            {
              "components": [
                {
                  "internalType": "int24",
                  "name": "lowerTick",
                  "type": "int24"
                },
                {
                  "internalType": "int24",
                  "name": "upperTick",
                  "type": "int24"
                },
                {
                  "internalType": "uint24",
                  "name": "feeTier",
                  "type": "uint24"
                }
              ],
              "internalType": "struct Range",
              "name": "range",
              "type": "tuple"
            },
            {
              "internalType": "uint256",
              "name": "amount",
              "type": "uint256"
            }
          ],
          "internalType": "struct Amount[]",
          "name": "amount1s",
          "type": "tuple[]"
        }
      ],
      "stateMutability": "view",
      "type": "function"
    },
    {
      "inputs": [
        {
          "components": [
            {
              "internalType": "int24",
              "name": "lowerTick",
              "type": "int24"
            },
            {
              "internalType": "int24",
              "name": "upperTick",
              "type": "int24"
            },
            {
              "internalType": "uint24",
              "name": "feeTier",
              "type": "uint24"
            }
          ],
          "internalType": "struct Range[]",
          "name": "ranges_",
          "type": "tuple[]"
        },
        {
          "internalType": "address",
          "name": "token0_",
          "type": "address"
        },
        {
          "internalType": "address",
          "name": "token1_",
          "type": "address"
        },
        {
          "internalType": "address",
          "name": "vaultV2_",
          "type": "address"
        }
      ],
      "name": "token0AndToken1PlusFeesByRange",
      "outputs": [
        {
          "components": [
            {
              "components": [
                {
                  "internalType": "int24",
                  "name": "lowerTick",
                  "type": "int24"
                },
                {
                  "internalType": "int24",
                  "name": "upperTick",
                  "type": "int24"
                },
                {
                  "internalType": "uint24",
                  "name": "feeTier",
                  "type": "uint24"
                }
              ],
              "internalType": "struct Range",
              "name": "range",
              "type": "tuple"
            },
            {
              "internalType": "uint256",
              "name": "amount",
              "type": "uint256"
            }
          ],
          "internalType": "struct Amount[]",
          "name": "amount0s",
          "type": "tuple[]"
        },
        {
          "components": [
            {
              "components": [
                {
                  "internalType": "int24",
                  "name": "lowerTick",
                  "type": "int24"
                },
                {
                  "internalType": "int24",
                  "name": "upperTick",
                  "type": "int24"
                },
                {
                  "internalType": "uint24",
                  "name": "feeTier",
                  "type": "uint24"
                }
              ],
              "internalType": "struct Range",
              "name": "range",
              "type": "tuple"
            },
            {
              "internalType": "uint256",
              "name": "amount",
              "type": "uint256"
            }
          ],
          "internalType": "struct Amount[]",
          "name": "amount1s",
          "type": "tuple[]"
        },
        {
          "components": [
            {
              "components": [
                {
                  "internalType": "int24",
                  "name": "lowerTick",
                  "type": "int24"
                },
                {
                  "internalType": "int24",
                  "name": "upperTick",
                  "type": "int24"
                },
                {
                  "internalType": "uint24",
                  "name": "feeTier",
                  "type": "uint24"
                }
              ],
              "internalType": "struct Range",
              "name": "range",
              "type": "tuple"
            },
            {
              "internalType": "uint256",
              "name": "amount",
              "type": "uint256"
            }
          ],
          "internalType": "struct Amount[]",
          "name": "fee0s",
          "type": "tuple[]"
        },
        {
          "components": [
            {
              "components": [
                {
                  "internalType": "int24",
                  "name": "lowerTick",
                  "type": "int24"
                },
                {
                  "internalType": "int24",
                  "name": "upperTick",
                  "type": "int24"
                },
                {
                  "internalType": "uint24",
                  "name": "feeTier",
                  "type": "uint24"
                }
              ],
              "internalType": "struct Range",
              "name": "range",
              "type": "tuple"
            },
            {
              "internalType": "uint256",
              "name": "amount",
              "type": "uint256"
            }
          ],
          "internalType": "struct Amount[]",
          "name": "fee1s",
          "type": "tuple[]"
        }
      ],
      "stateMutability": "view",
      "type": "function"
    },
    {
      "inputs": [
        {
          "internalType": "contract IArrakisV2",
          "name": "vault_",
          "type": "address"
        }
      ],
      "name": "totalUnderlying",
      "outputs": [
        {
          "internalType": "uint256",
          "name": "amount0",
          "type": "uint256"
        },
        {
          "internalType": "uint256",
          "name": "amount1",
          "type": "uint256"
        }
      ],
      "stateMutability": "view",
      "type": "function"
    },
    {
      "inputs": [
        {
          "internalType": "contract IArrakisV2",
          "name": "vault_",
          "type": "address"
        }
      ],
      "name": "totalUnderlyingWithFees",
      "outputs": [
        {
          "internalType": "uint256",
          "name": "amount0",
          "type": "uint256"
        },
        {
          "internalType": "uint256",
          "name": "amount1",
          "type": "uint256"
        },
        {
          "internalType": "uint256",
          "name": "fee0",
          "type": "uint256"
        },
        {
          "internalType": "uint256",
          "name": "fee1",
          "type": "uint256"
        }
      ],
      "stateMutability": "view",
      "type": "function"
    },
    {
      "inputs": [
        {
          "internalType": "contract IArrakisV2",
          "name": "vault_",
          "type": "address"
        }
      ],
      "name": "totalUnderlyingWithFeesAndLeftOver",
      "outputs": [
        {
          "components": [
            {
              "internalType": "uint256",
              "name": "amount0",
              "type": "uint256"
            },
            {
              "internalType": "uint256",
              "name": "amount1",
              "type": "uint256"
            },
            {
              "internalType": "uint256",
              "name": "fee0",
              "type": "uint256"
            },
            {
              "internalType": "uint256",
              "name": "fee1",
              "type": "uint256"
            },
            {
              "internalType": "uint256",
              "name": "leftOver0",
              "type": "uint256"
            },
            {
              "internalType": "uint256",
              "name": "leftOver1",
              "type": "uint256"
            }
          ],
          "internalType": "struct UnderlyingOutput",
          "name": "underlying",
          "type": "tuple"
        }
      ],
      "stateMutability": "view",
      "type": "function"
    }
  ],
  "transactionHash": "0x1735c48be722cfcadb50006504eebbcb9de1a2397fabda9334f60ba0d7c633e4",
  "args": [
    "0x1F98431c8aD98523631AE4a59f267346ea31F984"
  ],
  "numDeployments": 6,
  "solcInputHash": "93228341db3d86f31224385b5a1e9596",
  "bytecode": "0x60a060405234801561001057600080fd5b506040516119b43803806119b483398101604081905261002f91610040565b6001600160a01b0316608052610070565b60006020828403121561005257600080fd5b81516001600160a01b038116811461006957600080fd5b9392505050565b6080516119226100926000396000818161014b01526111a701526119226000f3fe608060405234801561001057600080fd5b506004361061007d5760003560e01c80638fe5a01e1161005b5780638fe5a01e146101025780639438655514610123578063c45a015514610146578063e9b7218a1461018557600080fd5b80630f8f2d1d14610082578063284ae96f146100ba5780636ea08e2a146100da575b600080fd5b610095610090366004611382565b6101e4565b6040805194855260208501939093529183015260608201526080015b60405180910390f35b6100cd6100c8366004611382565b6103ec565b6040516100b191906113a6565b6100ed6100e8366004611382565b61057c565b604080519283526020830191909152016100b1565b610115610110366004611416565b61077e565b6040516100b1929190611532565b610136610131366004611416565b610934565b6040516100b19493929190611560565b61016d7f000000000000000000000000000000000000000000000000000000000000000081565b6040516001600160a01b0390911681526020016100b1565b610198610193366004611382565b610c68565b6040516100b19190600060c082019050825182526020830151602083015260408301516040830152606083015160608301526080830151608083015260a083015160a083015292915050565b60008060008060006040518060a00160405280610200886103ec565b8152602001876001600160a01b031663c45a01556040518163ffffffff1660e01b8152600401602060405180830381865afa158015610243573d6000803e3d6000fd5b505050506040513d601f19601f8201168201806040525081019061026791906115b8565b6001600160a01b03168152602001876001600160a01b0316630dfe16816040518163ffffffff1660e01b8152600401602060405180830381865afa1580156102b3573d6000803e3d6000fd5b505050506040513d601f19601f820116820180604052508101906102d791906115b8565b6001600160a01b03168152602001876001600160a01b031663d21220a76040518163ffffffff1660e01b8152600401602060405180830381865afa158015610323573d6000803e3d6000fd5b505050506040513d601f19601f8201168201806040525081019061034791906115b8565b6001600160a01b03168152602001876001600160a01b0316815250905073A286c23AC68E9E41dC210eF885e2B2d5fC94e98963e56f4d91826040518263ffffffff1660e01b815260040161039b91906115d5565b608060405180830381865af41580156103b8573d6000803e3d6000fd5b505050506040513d601f19601f820116820180604052508101906103dc91906116a6565b9299919850965090945092505050565b606060005b604051632fef66fd60e11b8152600481018290526001600160a01b03841690635fdecdfa90602401606060405180830381865afa925050508015610452575060408051601f3d908101601f1916820190925261044f91810190611749565b60015b1561046a5781610461816117b3565b925050506103f1565b8067ffffffffffffffff811115610483576104836116dc565b6040519080825280602002602001820160405280156104ce57816020015b60408051606081018252600080825260208083018290529282015282526000199092019101816104a15790505b50915060005b8181101561057557604051632fef66fd60e11b8152600481018290526001600160a01b03851690635fdecdfa90602401606060405180830381865afa158015610521573d6000803e3d6000fd5b505050506040513d601f19601f820116820180604052508101906105459190611749565b838281518110610557576105576117cc565b6020026020010181905250808061056d906117b3565b9150506104d4565b5050919050565b60008060006040518060a00160405280610595866103ec565b8152602001856001600160a01b031663c45a01556040518163ffffffff1660e01b8152600401602060405180830381865afa1580156105d8573d6000803e3d6000fd5b505050506040513d601f19601f820116820180604052508101906105fc91906115b8565b6001600160a01b03168152602001856001600160a01b0316630dfe16816040518163ffffffff1660e01b8152600401602060405180830381865afa158015610648573d6000803e3d6000fd5b505050506040513d601f19601f8201168201806040525081019061066c91906115b8565b6001600160a01b03168152602001856001600160a01b031663d21220a76040518163ffffffff1660e01b8152600401602060405180830381865afa1580156106b8573d6000803e3d6000fd5b505050506040513d601f19601f820116820180604052508101906106dc91906115b8565b6001600160a01b03168152602001856001600160a01b0316815250905073A286c23AC68E9E41dC210eF885e2B2d5fC94e98963e56f4d91826040518263ffffffff1660e01b815260040161073091906115d5565b608060405180830381865af415801561074d573d6000803e3d6000fd5b505050506040513d601f19601f8201168201806040525081019061077191906116a6565b5091969095509350505050565b6060808567ffffffffffffffff81111561079a5761079a6116dc565b6040519080825280602002602001820160405280156107d357816020015b6107c061133d565b8152602001906001900390816107b85790505b5091508567ffffffffffffffff8111156107ef576107ef6116dc565b60405190808252806020026020018201604052801561082857816020015b61081561133d565b81526020019060019003908161080d5790505b50905060005b868110156109295760008061085c88888c8c87818110610850576108506117cc565b9050606002018961116d565b50509150915060405180604001604052808b8b8681811061087f5761087f6117cc565b90506060020180360381019061089591906117e2565b8152602001838152508584815181106108b0576108b06117cc565b602002602001018190525060405180604001604052808b8b868181106108d8576108d86117cc565b9050606002018036038101906108ee91906117e2565b815260200182815250848481518110610909576109096117cc565b602002602001018190525050508080610921906117b3565b91505061082e565b509550959350505050565b60608080808767ffffffffffffffff811115610952576109526116dc565b60405190808252806020026020018201604052801561098b57816020015b61097861133d565b8152602001906001900390816109705790505b5093508767ffffffffffffffff8111156109a7576109a76116dc565b6040519080825280602002602001820160405280156109e057816020015b6109cd61133d565b8152602001906001900390816109c55790505b5092508767ffffffffffffffff8111156109fc576109fc6116dc565b604051908082528060200260200182016040528015610a3557816020015b610a2261133d565b815260200190600190039081610a1a5790505b5091508767ffffffffffffffff811115610a5157610a516116dc565b604051908082528060200260200182016040528015610a8a57816020015b610a7761133d565b815260200190600190039081610a6f5790505b50905060005b88811015610c5b57898982818110610aaa57610aaa6117cc565b905060600201803603810190610ac091906117e2565b858281518110610ad257610ad26117cc565b602090810291909101015152898982818110610af057610af06117cc565b905060600201803603810190610b0691906117e2565b848281518110610b1857610b186117cc565b602090810291909101015152898982818110610b3657610b366117cc565b905060600201803603810190610b4c91906117e2565b838281518110610b5e57610b5e6117cc565b602090810291909101015152898982818110610b7c57610b7c6117cc565b905060600201803603810190610b9291906117e2565b828281518110610ba457610ba46117cc565b602090810291909101015152610bc788888c8c85818110610850576108506117cc565b888581518110610bd957610bd96117cc565b6020026020010151602001888681518110610bf657610bf66117cc565b6020026020010151602001888781518110610c1357610c136117cc565b6020026020010151602001888881518110610c3057610c306117cc565b6020908102919091018101510193909352929091529190525280610c53816117b3565b915050610a90565b5095509550955095915050565b610ca16040518060c001604052806000815260200160008152602001600081526020016000815260200160008152602001600081525090565b60006040518060a00160405280610cb7856103ec565b8152602001846001600160a01b031663c45a01556040518163ffffffff1660e01b8152600401602060405180830381865afa158015610cfa573d6000803e3d6000fd5b505050506040513d601f19601f82011682018060405250810190610d1e91906115b8565b6001600160a01b03168152602001846001600160a01b0316630dfe16816040518163ffffffff1660e01b8152600401602060405180830381865afa158015610d6a573d6000803e3d6000fd5b505050506040513d601f19601f82011682018060405250810190610d8e91906115b8565b6001600160a01b03168152602001846001600160a01b031663d21220a76040518163ffffffff1660e01b8152600401602060405180830381865afa158015610dda573d6000803e3d6000fd5b505050506040513d601f19601f82011682018060405250810190610dfe91906115b8565b6001600160a01b03168152602001846001600160a01b0316815250905073A286c23AC68E9E41dC210eF885e2B2d5fC94e98963e56f4d91826040518263ffffffff1660e01b8152600401610e5291906115d5565b608060405180830381865af4158015610e6f573d6000803e3d6000fd5b505050506040513d601f19601f82011682018060405250810190610e9391906116a6565b60608601526040808601919091526020808601929092529184526080830151825163d8953ca760e01b815292516001600160a01b039091169263d8953ca79260048083019391928290030181865afa158015610ef3573d6000803e3d6000fd5b505050506040513d601f19601f82011682018060405250810190610f17919061182a565b81608001516001600160a01b031663065756db6040518163ffffffff1660e01b8152600401602060405180830381865afa158015610f59573d6000803e3d6000fd5b505050506040513d601f19601f82011682018060405250810190610f7d919061182a565b604080840151608085015191516370a0823160e01b81526001600160a01b0392831660048201529116906370a0823190602401602060405180830381865afa158015610fcd573d6000803e3d6000fd5b505050506040513d601f19601f82011682018060405250810190610ff1919061182a565b610ffb9190611843565b6110059190611843565b82608001818152505080608001516001600160a01b031663bbfe704e6040518163ffffffff1660e01b8152600401602060405180830381865afa158015611050573d6000803e3d6000fd5b505050506040513d601f19601f82011682018060405250810190611074919061182a565b81608001516001600160a01b03166342fb9d446040518163ffffffff1660e01b8152600401602060405180830381865afa1580156110b6573d6000803e3d6000fd5b505050506040513d601f19601f820116820180604052508101906110da919061182a565b606083015160808401516040516370a0823160e01b81526001600160a01b0391821660048201529116906370a0823190602401602060405180830381865afa15801561112a573d6000803e3d6000fd5b505050506040513d601f19601f8201168201806040525081019061114e919061182a565b6111589190611843565b6111629190611843565b60a083015250919050565b600080600080866001600160a01b0316886001600160a01b031610611193578688611196565b87875b909850965060006001600160a01b037f000000000000000000000000000000000000000000000000000000000000000016631698ee828a8a6111de60608c0160408d0161185a565b6040516001600160e01b031960e086901b1681526001600160a01b03938416600482015292909116602483015262ffffff166044820152606401602060405180830381865afa158015611235573d6000803e3d6000fd5b505050506040513d601f19601f8201168201806040525081019061125991906115b8565b905073A286c23AC68E9E41dC210eF885e2B2d5fC94e98963ccd5c4626040518060600160405280896001600160a01b031681526020018a8036038101906112a091906117e2565b8152602001846001600160a01b03168152506040518263ffffffff1660e01b81526004016112ce9190611877565b608060405180830381865af41580156112eb573d6000803e3d6000fd5b505050506040513d601f19601f8201168201806040525081019061130f91906116a6565b9297509095509350915061132383866118d4565b945061132f82856118d4565b935050945094509450949050565b6040805160a081018252600091810182815260608201839052608082018390528152602081019190915290565b6001600160a01b038116811461137f57600080fd5b50565b60006020828403121561139457600080fd5b813561139f8161136a565b9392505050565b6020808252825182820181905260009190848201906040850190845b8181101561140a576113f7838551805160020b8252602081015160020b602083015262ffffff60408201511660408301525050565b92840192606092909201916001016113c2565b50909695505050505050565b60008060008060006080868803121561142e57600080fd5b853567ffffffffffffffff8082111561144657600080fd5b818801915088601f83011261145a57600080fd5b81358181111561146957600080fd5b89602060608302850101111561147e57600080fd5b602092830197509550508601356114948161136a565b925060408601356114a48161136a565b915060608601356114b48161136a565b809150509295509295909350565b600081518084526020808501945080840160005b8381101561152757815161150d888251805160020b8252602081015160020b602083015262ffffff60408201511660408301525050565b8301516060880152608090960195908201906001016114d6565b509495945050505050565b60408152600061154560408301856114c2565b828103602084015261155781856114c2565b95945050505050565b60808152600061157360808301876114c2565b828103602084015261158581876114c2565b9050828103604084015261159981866114c2565b905082810360608401526115ad81856114c2565b979650505050505050565b6000602082840312156115ca57600080fd5b815161139f8161136a565b6020808252825160a083830152805160c0840181905260009291820190839060e08601905b808310156116455761162f828551805160020b8252602081015160020b602083015262ffffff60408201511660408301525050565b60608201915084840193506001830192506115fa565b50928601516001600160a01b03811660408701529260408701516001600160a01b0381166060880152935060608701516001600160a01b0381166080880152935060808701516001600160a01b03811660a088015293509695505050505050565b600080600080608085870312156116bc57600080fd5b505082516020840151604085015160609095015191969095509092509050565b634e487b7160e01b600052604160045260246000fd5b6040516060810167ffffffffffffffff8111828210171561172357634e487b7160e01b600052604160045260246000fd5b60405290565b8060020b811461137f57600080fd5b62ffffff8116811461137f57600080fd5b60006060828403121561175b57600080fd5b6117636116f2565b825161176e81611729565b8152602083015161177e81611729565b6020820152604083015161179181611738565b60408201529392505050565b634e487b7160e01b600052601160045260246000fd5b6000600182016117c5576117c561179d565b5060010190565b634e487b7160e01b600052603260045260246000fd5b6000606082840312156117f457600080fd5b6117fc6116f2565b823561180781611729565b8152602083013561181781611729565b6020820152604083013561179181611738565b60006020828403121561183c57600080fd5b5051919050565b6000828210156118555761185561179d565b500390565b60006020828403121561186c57600080fd5b813561139f81611738565b81516001600160a01b03908116825260208084015160a0840192916118c090850182805160020b8252602081015160020b602083015262ffffff60408201511660408301525050565b508060408501511660808401525092915050565b600082198211156118e7576118e761179d565b50019056fea2646970667358221220ecef75dc3affe291c31fc7d210703a67d6fe1d2da9ebd0f1d93f5f3ffe902f7364736f6c634300080d0033",
  "deployedBytecode": "0x608060405234801561001057600080fd5b506004361061007d5760003560e01c80638fe5a01e1161005b5780638fe5a01e146101025780639438655514610123578063c45a015514610146578063e9b7218a1461018557600080fd5b80630f8f2d1d14610082578063284ae96f146100ba5780636ea08e2a146100da575b600080fd5b610095610090366004611382565b6101e4565b6040805194855260208501939093529183015260608201526080015b60405180910390f35b6100cd6100c8366004611382565b6103ec565b6040516100b191906113a6565b6100ed6100e8366004611382565b61057c565b604080519283526020830191909152016100b1565b610115610110366004611416565b61077e565b6040516100b1929190611532565b610136610131366004611416565b610934565b6040516100b19493929190611560565b61016d7f000000000000000000000000000000000000000000000000000000000000000081565b6040516001600160a01b0390911681526020016100b1565b610198610193366004611382565b610c68565b6040516100b19190600060c082019050825182526020830151602083015260408301516040830152606083015160608301526080830151608083015260a083015160a083015292915050565b60008060008060006040518060a00160405280610200886103ec565b8152602001876001600160a01b031663c45a01556040518163ffffffff1660e01b8152600401602060405180830381865afa158015610243573d6000803e3d6000fd5b505050506040513d601f19601f8201168201806040525081019061026791906115b8565b6001600160a01b03168152602001876001600160a01b0316630dfe16816040518163ffffffff1660e01b8152600401602060405180830381865afa1580156102b3573d6000803e3d6000fd5b505050506040513d601f19601f820116820180604052508101906102d791906115b8565b6001600160a01b03168152602001876001600160a01b031663d21220a76040518163ffffffff1660e01b8152600401602060405180830381865afa158015610323573d6000803e3d6000fd5b505050506040513d601f19601f8201168201806040525081019061034791906115b8565b6001600160a01b03168152602001876001600160a01b0316815250905073__$3d23d8578387a47facd93bb77f6fe6e81b$__63e56f4d91826040518263ffffffff1660e01b815260040161039b91906115d5565b608060405180830381865af41580156103b8573d6000803e3d6000fd5b505050506040513d601f19601f820116820180604052508101906103dc91906116a6565b9299919850965090945092505050565b606060005b604051632fef66fd60e11b8152600481018290526001600160a01b03841690635fdecdfa90602401606060405180830381865afa925050508015610452575060408051601f3d908101601f1916820190925261044f91810190611749565b60015b1561046a5781610461816117b3565b925050506103f1565b8067ffffffffffffffff811115610483576104836116dc565b6040519080825280602002602001820160405280156104ce57816020015b60408051606081018252600080825260208083018290529282015282526000199092019101816104a15790505b50915060005b8181101561057557604051632fef66fd60e11b8152600481018290526001600160a01b03851690635fdecdfa90602401606060405180830381865afa158015610521573d6000803e3d6000fd5b505050506040513d601f19601f820116820180604052508101906105459190611749565b838281518110610557576105576117cc565b6020026020010181905250808061056d906117b3565b9150506104d4565b5050919050565b60008060006040518060a00160405280610595866103ec565b8152602001856001600160a01b031663c45a01556040518163ffffffff1660e01b8152600401602060405180830381865afa1580156105d8573d6000803e3d6000fd5b505050506040513d601f19601f820116820180604052508101906105fc91906115b8565b6001600160a01b03168152602001856001600160a01b0316630dfe16816040518163ffffffff1660e01b8152600401602060405180830381865afa158015610648573d6000803e3d6000fd5b505050506040513d601f19601f8201168201806040525081019061066c91906115b8565b6001600160a01b03168152602001856001600160a01b031663d21220a76040518163ffffffff1660e01b8152600401602060405180830381865afa1580156106b8573d6000803e3d6000fd5b505050506040513d601f19601f820116820180604052508101906106dc91906115b8565b6001600160a01b03168152602001856001600160a01b0316815250905073__$3d23d8578387a47facd93bb77f6fe6e81b$__63e56f4d91826040518263ffffffff1660e01b815260040161073091906115d5565b608060405180830381865af415801561074d573d6000803e3d6000fd5b505050506040513d601f19601f8201168201806040525081019061077191906116a6565b5091969095509350505050565b6060808567ffffffffffffffff81111561079a5761079a6116dc565b6040519080825280602002602001820160405280156107d357816020015b6107c061133d565b8152602001906001900390816107b85790505b5091508567ffffffffffffffff8111156107ef576107ef6116dc565b60405190808252806020026020018201604052801561082857816020015b61081561133d565b81526020019060019003908161080d5790505b50905060005b868110156109295760008061085c88888c8c87818110610850576108506117cc565b9050606002018961116d565b50509150915060405180604001604052808b8b8681811061087f5761087f6117cc565b90506060020180360381019061089591906117e2565b8152602001838152508584815181106108b0576108b06117cc565b602002602001018190525060405180604001604052808b8b868181106108d8576108d86117cc565b9050606002018036038101906108ee91906117e2565b815260200182815250848481518110610909576109096117cc565b602002602001018190525050508080610921906117b3565b91505061082e565b509550959350505050565b60608080808767ffffffffffffffff811115610952576109526116dc565b60405190808252806020026020018201604052801561098b57816020015b61097861133d565b8152602001906001900390816109705790505b5093508767ffffffffffffffff8111156109a7576109a76116dc565b6040519080825280602002602001820160405280156109e057816020015b6109cd61133d565b8152602001906001900390816109c55790505b5092508767ffffffffffffffff8111156109fc576109fc6116dc565b604051908082528060200260200182016040528015610a3557816020015b610a2261133d565b815260200190600190039081610a1a5790505b5091508767ffffffffffffffff811115610a5157610a516116dc565b604051908082528060200260200182016040528015610a8a57816020015b610a7761133d565b815260200190600190039081610a6f5790505b50905060005b88811015610c5b57898982818110610aaa57610aaa6117cc565b905060600201803603810190610ac091906117e2565b858281518110610ad257610ad26117cc565b602090810291909101015152898982818110610af057610af06117cc565b905060600201803603810190610b0691906117e2565b848281518110610b1857610b186117cc565b602090810291909101015152898982818110610b3657610b366117cc565b905060600201803603810190610b4c91906117e2565b838281518110610b5e57610b5e6117cc565b602090810291909101015152898982818110610b7c57610b7c6117cc565b905060600201803603810190610b9291906117e2565b828281518110610ba457610ba46117cc565b602090810291909101015152610bc788888c8c85818110610850576108506117cc565b888581518110610bd957610bd96117cc565b6020026020010151602001888681518110610bf657610bf66117cc565b6020026020010151602001888781518110610c1357610c136117cc565b6020026020010151602001888881518110610c3057610c306117cc565b6020908102919091018101510193909352929091529190525280610c53816117b3565b915050610a90565b5095509550955095915050565b610ca16040518060c001604052806000815260200160008152602001600081526020016000815260200160008152602001600081525090565b60006040518060a00160405280610cb7856103ec565b8152602001846001600160a01b031663c45a01556040518163ffffffff1660e01b8152600401602060405180830381865afa158015610cfa573d6000803e3d6000fd5b505050506040513d601f19601f82011682018060405250810190610d1e91906115b8565b6001600160a01b03168152602001846001600160a01b0316630dfe16816040518163ffffffff1660e01b8152600401602060405180830381865afa158015610d6a573d6000803e3d6000fd5b505050506040513d601f19601f82011682018060405250810190610d8e91906115b8565b6001600160a01b03168152602001846001600160a01b031663d21220a76040518163ffffffff1660e01b8152600401602060405180830381865afa158015610dda573d6000803e3d6000fd5b505050506040513d601f19601f82011682018060405250810190610dfe91906115b8565b6001600160a01b03168152602001846001600160a01b0316815250905073__$3d23d8578387a47facd93bb77f6fe6e81b$__63e56f4d91826040518263ffffffff1660e01b8152600401610e5291906115d5565b608060405180830381865af4158015610e6f573d6000803e3d6000fd5b505050506040513d601f19601f82011682018060405250810190610e9391906116a6565b60608601526040808601919091526020808601929092529184526080830151825163d8953ca760e01b815292516001600160a01b039091169263d8953ca79260048083019391928290030181865afa158015610ef3573d6000803e3d6000fd5b505050506040513d601f19601f82011682018060405250810190610f17919061182a565b81608001516001600160a01b031663065756db6040518163ffffffff1660e01b8152600401602060405180830381865afa158015610f59573d6000803e3d6000fd5b505050506040513d601f19601f82011682018060405250810190610f7d919061182a565b604080840151608085015191516370a0823160e01b81526001600160a01b0392831660048201529116906370a0823190602401602060405180830381865afa158015610fcd573d6000803e3d6000fd5b505050506040513d601f19601f82011682018060405250810190610ff1919061182a565b610ffb9190611843565b6110059190611843565b82608001818152505080608001516001600160a01b031663bbfe704e6040518163ffffffff1660e01b8152600401602060405180830381865afa158015611050573d6000803e3d6000fd5b505050506040513d601f19601f82011682018060405250810190611074919061182a565b81608001516001600160a01b03166342fb9d446040518163ffffffff1660e01b8152600401602060405180830381865afa1580156110b6573d6000803e3d6000fd5b505050506040513d601f19601f820116820180604052508101906110da919061182a565b606083015160808401516040516370a0823160e01b81526001600160a01b0391821660048201529116906370a0823190602401602060405180830381865afa15801561112a573d6000803e3d6000fd5b505050506040513d601f19601f8201168201806040525081019061114e919061182a565b6111589190611843565b6111629190611843565b60a083015250919050565b600080600080866001600160a01b0316886001600160a01b031610611193578688611196565b87875b909850965060006001600160a01b037f000000000000000000000000000000000000000000000000000000000000000016631698ee828a8a6111de60608c0160408d0161185a565b6040516001600160e01b031960e086901b1681526001600160a01b03938416600482015292909116602483015262ffffff166044820152606401602060405180830381865afa158015611235573d6000803e3d6000fd5b505050506040513d601f19601f8201168201806040525081019061125991906115b8565b905073__$3d23d8578387a47facd93bb77f6fe6e81b$__63ccd5c4626040518060600160405280896001600160a01b031681526020018a8036038101906112a091906117e2565b8152602001846001600160a01b03168152506040518263ffffffff1660e01b81526004016112ce9190611877565b608060405180830381865af41580156112eb573d6000803e3d6000fd5b505050506040513d601f19601f8201168201806040525081019061130f91906116a6565b9297509095509350915061132383866118d4565b945061132f82856118d4565b935050945094509450949050565b6040805160a081018252600091810182815260608201839052608082018390528152602081019190915290565b6001600160a01b038116811461137f57600080fd5b50565b60006020828403121561139457600080fd5b813561139f8161136a565b9392505050565b6020808252825182820181905260009190848201906040850190845b8181101561140a576113f7838551805160020b8252602081015160020b602083015262ffffff60408201511660408301525050565b92840192606092909201916001016113c2565b50909695505050505050565b60008060008060006080868803121561142e57600080fd5b853567ffffffffffffffff8082111561144657600080fd5b818801915088601f83011261145a57600080fd5b81358181111561146957600080fd5b89602060608302850101111561147e57600080fd5b602092830197509550508601356114948161136a565b925060408601356114a48161136a565b915060608601356114b48161136a565b809150509295509295909350565b600081518084526020808501945080840160005b8381101561152757815161150d888251805160020b8252602081015160020b602083015262ffffff60408201511660408301525050565b8301516060880152608090960195908201906001016114d6565b509495945050505050565b60408152600061154560408301856114c2565b828103602084015261155781856114c2565b95945050505050565b60808152600061157360808301876114c2565b828103602084015261158581876114c2565b9050828103604084015261159981866114c2565b905082810360608401526115ad81856114c2565b979650505050505050565b6000602082840312156115ca57600080fd5b815161139f8161136a565b6020808252825160a083830152805160c0840181905260009291820190839060e08601905b808310156116455761162f828551805160020b8252602081015160020b602083015262ffffff60408201511660408301525050565b60608201915084840193506001830192506115fa565b50928601516001600160a01b03811660408701529260408701516001600160a01b0381166060880152935060608701516001600160a01b0381166080880152935060808701516001600160a01b03811660a088015293509695505050505050565b600080600080608085870312156116bc57600080fd5b505082516020840151604085015160609095015191969095509092509050565b634e487b7160e01b600052604160045260246000fd5b6040516060810167ffffffffffffffff8111828210171561172357634e487b7160e01b600052604160045260246000fd5b60405290565b8060020b811461137f57600080fd5b62ffffff8116811461137f57600080fd5b60006060828403121561175b57600080fd5b6117636116f2565b825161176e81611729565b8152602083015161177e81611729565b6020820152604083015161179181611738565b60408201529392505050565b634e487b7160e01b600052601160045260246000fd5b6000600182016117c5576117c561179d565b5060010190565b634e487b7160e01b600052603260045260246000fd5b6000606082840312156117f457600080fd5b6117fc6116f2565b823561180781611729565b8152602083013561181781611729565b6020820152604083013561179181611738565b60006020828403121561183c57600080fd5b5051919050565b6000828210156118555761185561179d565b500390565b60006020828403121561186c57600080fd5b813561139f81611738565b81516001600160a01b03908116825260208084015160a0840192916118c090850182805160020b8252602081015160020b602083015262ffffff60408201511660408301525050565b508060408501511660808401525092915050565b600082198211156118e7576118e761179d565b50019056fea2646970667358221220ecef75dc3affe291c31fc7d210703a67d6fe1d2da9ebd0f1d93f5f3ffe902f7364736f6c634300080d0033",
  "libraries": {
    "Underlying": "0xA286c23AC68E9E41dC210eF885e2B2d5fC94e989",
    "Position": "0x1278B36cc6dD53aba16b756BA451a0808B0F662b"
  },
  "devdoc": {
    "kind": "dev",
    "methods": {},
    "version": 1
  },
  "userdoc": {
    "kind": "user",
    "methods": {},
    "version": 1
  },
  "storageLayout": {
    "storage": [],
    "types": null
  }
}