{
  "address": "0x60A098a3e7Ae449C7D076238aD0c181fd15c4D59",
  "abi": [
    {
      "inputs": [
        {
          "internalType": "contract IUniswapV3Factory",
          "name": "factory_",
          "type": "address"
        },
        {
          "internalType": "address",
          "name": "arrakisTreasury_",
          "type": "address"
        }
      ],
      "stateMutability": "nonpayable",
      "type": "constructor"
    },
    {
      "anonymous": false,
      "inputs": [
        {
          "indexed": true,
          "internalType": "address",
          "name": "owner",
          "type": "address"
        },
        {
          "indexed": true,
          "internalType": "address",
          "name": "spender",
          "type": "address"
        },
        {
          "indexed": false,
          "internalType": "uint256",
          "name": "value",
          "type": "uint256"
        }
      ],
      "name": "Approval",
      "type": "event"
    },
    {
      "anonymous": false,
      "inputs": [
        {
          "indexed": false,
          "internalType": "uint8",
          "name": "version",
          "type": "uint8"
        }
      ],
      "name": "Initialized",
      "type": "event"
    },
    {
      "anonymous": false,
      "inputs": [
        {
          "indexed": false,
          "internalType": "address",
          "name": "user",
          "type": "address"
        },
        {
          "indexed": false,
          "internalType": "uint256",
          "name": "burnAmount0",
          "type": "uint256"
        },
        {
          "indexed": false,
          "internalType": "uint256",
          "name": "burnAmount1",
          "type": "uint256"
        }
      ],
      "name": "LPBurned",
      "type": "event"
    },
    {
      "anonymous": false,
      "inputs": [
        {
          "indexed": false,
          "internalType": "uint24[]",
          "name": "feeTiers",
          "type": "uint24[]"
        }
      ],
      "name": "LogAddPools",
      "type": "event"
    },
    {
      "anonymous": false,
      "inputs": [
        {
          "indexed": false,
          "internalType": "address",
          "name": "receiver",
          "type": "address"
        },
        {
          "indexed": false,
          "internalType": "uint256",
          "name": "burnAmount",
          "type": "uint256"
        },
        {
          "indexed": false,
          "internalType": "uint256",
          "name": "amount0Out",
          "type": "uint256"
        },
        {
          "indexed": false,
          "internalType": "uint256",
          "name": "amount1Out",
          "type": "uint256"
        }
      ],
      "name": "LogBurn",
      "type": "event"
    },
    {
      "anonymous": false,
      "inputs": [
        {
          "indexed": false,
          "internalType": "uint256",
          "name": "fee0",
          "type": "uint256"
        },
        {
          "indexed": false,
          "internalType": "uint256",
          "name": "fee1",
          "type": "uint256"
        }
      ],
      "name": "LogFeesEarn",
      "type": "event"
    },
    {
      "anonymous": false,
      "inputs": [
        {
          "indexed": false,
          "internalType": "uint256",
          "name": "fee0",
          "type": "uint256"
        },
        {
          "indexed": false,
          "internalType": "uint256",
          "name": "fee1",
          "type": "uint256"
        }
      ],
      "name": "LogFeesEarnRebalance",
      "type": "event"
    },
    {
      "anonymous": false,
      "inputs": [
        {
          "indexed": false,
          "internalType": "address",
          "name": "receiver",
          "type": "address"
        },
        {
          "indexed": false,
          "internalType": "uint256",
          "name": "mintAmount",
          "type": "uint256"
        },
        {
          "indexed": false,
          "internalType": "uint256",
          "name": "amount0In",
          "type": "uint256"
        },
        {
          "indexed": false,
          "internalType": "uint256",
          "name": "amount1In",
          "type": "uint256"
        }
      ],
      "name": "LogMint",
      "type": "event"
    },
    {
      "anonymous": false,
      "inputs": [
        {
          "components": [
            {
              "components": [
                {
                  "internalType": "uint128",
                  "name": "liquidity",
                  "type": "uint128"
                },
                {
                  "components": [
                    {
                      "internalType": "int24",
                      "name": "lowerTick",
                      "type": "int24"
                    },
                    {
                      "internalType": "int24",
                      "name": "upperTick",
                      "type": "int24"
                    },
                    {
                      "internalType": "uint24",
                      "name": "feeTier",
                      "type": "uint24"
                    }
                  ],
                  "internalType": "struct Range",
                  "name": "range",
                  "type": "tuple"
                }
              ],
              "internalType": "struct PositionLiquidity[]",
              "name": "removes",
              "type": "tuple[]"
            },
            {
              "components": [
                {
                  "internalType": "uint128",
                  "name": "liquidity",
                  "type": "uint128"
                },
                {
                  "components": [
                    {
                      "internalType": "int24",
                      "name": "lowerTick",
                      "type": "int24"
                    },
                    {
                      "internalType": "int24",
                      "name": "upperTick",
                      "type": "int24"
                    },
                    {
                      "internalType": "uint24",
                      "name": "feeTier",
                      "type": "uint24"
                    }
                  ],
                  "internalType": "struct Range",
                  "name": "range",
                  "type": "tuple"
                }
              ],
              "internalType": "struct PositionLiquidity[]",
              "name": "deposits",
              "type": "tuple[]"
            },
            {
              "components": [
                {
                  "internalType": "bytes",
                  "name": "payload",
                  "type": "bytes"
                },
                {
                  "internalType": "address",
                  "name": "pool",
                  "type": "address"
                },
                {
                  "internalType": "address",
                  "name": "router",
                  "type": "address"
                },
                {
                  "internalType": "uint256",
                  "name": "amountIn",
                  "type": "uint256"
                },
                {
                  "internalType": "uint256",
                  "name": "expectedMinReturn",
                  "type": "uint256"
                },
                {
                  "internalType": "bool",
                  "name": "zeroForOne",
                  "type": "bool"
                }
              ],
              "internalType": "struct SwapPayload",
              "name": "swap",
              "type": "tuple"
            }
          ],
          "indexed": false,
          "internalType": "struct Rebalance",
          "name": "rebalanceParams",
          "type": "tuple"
        }
      ],
      "name": "LogRebalance",
      "type": "event"
    },
    {
      "anonymous": false,
      "inputs": [
        {
          "indexed": false,
          "internalType": "address[]",
          "name": "pools",
          "type": "address[]"
        }
      ],
      "name": "LogRemovePools",
      "type": "event"
    },
    {
      "anonymous": false,
      "inputs": [
        {
          "indexed": false,
          "internalType": "address",
          "name": "minter",
          "type": "address"
        }
      ],
      "name": "LogRestrictedMint",
      "type": "event"
    },
    {
      "anonymous": false,
      "inputs": [
        {
          "indexed": false,
          "internalType": "uint256",
          "name": "init0",
          "type": "uint256"
        },
        {
          "indexed": false,
          "internalType": "uint256",
          "name": "init1",
          "type": "uint256"
        }
      ],
      "name": "LogSetInits",
      "type": "event"
    },
    {
      "anonymous": false,
      "inputs": [
        {
          "indexed": false,
          "internalType": "address",
          "name": "newManager",
          "type": "address"
        }
      ],
      "name": "LogSetManager",
      "type": "event"
    },
    {
      "anonymous": false,
      "inputs": [
        {
          "indexed": false,
          "internalType": "uint24",
          "name": "newMaxSlippage",
          "type": "uint24"
        }
      ],
      "name": "LogSetMaxSlippage",
      "type": "event"
    },
    {
      "anonymous": false,
      "inputs": [
        {
          "indexed": false,
          "internalType": "int24",
          "name": "maxTwapDeviation",
          "type": "int24"
        }
      ],
      "name": "LogSetMaxTwapDeviation",
      "type": "event"
    },
    {
      "anonymous": false,
      "inputs": [
        {
          "indexed": false,
          "internalType": "uint24",
          "name": "newTwapDuration",
          "type": "uint24"
        }
      ],
      "name": "LogSetTwapDuration",
      "type": "event"
    },
    {
      "anonymous": false,
      "inputs": [
        {
          "indexed": false,
          "internalType": "uint256",
          "name": "amount0",
          "type": "uint256"
        },
        {
          "indexed": false,
          "internalType": "uint256",
          "name": "amount1",
          "type": "uint256"
        }
      ],
      "name": "LogWithdrawArrakisBalance",
      "type": "event"
    },
    {
      "anonymous": false,
      "inputs": [
        {
          "indexed": false,
          "internalType": "uint256",
          "name": "amount0",
          "type": "uint256"
        },
        {
          "indexed": false,
          "internalType": "uint256",
          "name": "amount1",
          "type": "uint256"
        }
      ],
      "name": "LogWithdrawManagerBalance",
      "type": "event"
    },
    {
      "anonymous": false,
      "inputs": [
        {
          "indexed": true,
          "internalType": "address",
          "name": "previousOwner",
          "type": "address"
        },
        {
          "indexed": true,
          "internalType": "address",
          "name": "newOwner",
          "type": "address"
        }
      ],
      "name": "OwnershipTransferred",
      "type": "event"
    },
    {
      "anonymous": false,
      "inputs": [
        {
          "indexed": true,
          "internalType": "address",
          "name": "from",
          "type": "address"
        },
        {
          "indexed": true,
          "internalType": "address",
          "name": "to",
          "type": "address"
        },
        {
          "indexed": false,
          "internalType": "uint256",
          "name": "value",
          "type": "uint256"
        }
      ],
      "name": "Transfer",
      "type": "event"
    },
    {
      "inputs": [
        {
          "internalType": "uint24[]",
          "name": "feeTiers_",
          "type": "uint24[]"
        }
      ],
      "name": "addPools",
      "outputs": [],
      "stateMutability": "nonpayable",
      "type": "function"
    },
    {
      "inputs": [
        {
          "internalType": "address",
          "name": "owner",
          "type": "address"
        },
        {
          "internalType": "address",
          "name": "spender",
          "type": "address"
        }
      ],
      "name": "allowance",
      "outputs": [
        {
          "internalType": "uint256",
          "name": "",
          "type": "uint256"
        }
      ],
      "stateMutability": "view",
      "type": "function"
    },
    {
      "inputs": [
        {
          "internalType": "address",
          "name": "spender",
          "type": "address"
        },
        {
          "internalType": "uint256",
          "name": "amount",
          "type": "uint256"
        }
      ],
      "name": "approve",
      "outputs": [
        {
          "internalType": "bool",
          "name": "",
          "type": "bool"
        }
      ],
      "stateMutability": "nonpayable",
      "type": "function"
    },
    {
      "inputs": [],
      "name": "arrakisBalance0",
      "outputs": [
        {
          "internalType": "uint256",
          "name": "",
          "type": "uint256"
        }
      ],
      "stateMutability": "view",
      "type": "function"
    },
    {
      "inputs": [],
      "name": "arrakisBalance1",
      "outputs": [
        {
          "internalType": "uint256",
          "name": "",
          "type": "uint256"
        }
      ],
      "stateMutability": "view",
      "type": "function"
    },
    {
      "inputs": [],
      "name": "arrakisFeeBPS",
      "outputs": [
        {
          "internalType": "uint16",
          "name": "",
          "type": "uint16"
        }
      ],
      "stateMutability": "view",
      "type": "function"
    },
    {
      "inputs": [],
      "name": "arrakisTreasury",
      "outputs": [
        {
          "internalType": "address",
          "name": "",
          "type": "address"
        }
      ],
      "stateMutability": "view",
      "type": "function"
    },
    {
      "inputs": [
        {
          "internalType": "address",
          "name": "account",
          "type": "address"
        }
      ],
      "name": "balanceOf",
      "outputs": [
        {
          "internalType": "uint256",
          "name": "",
          "type": "uint256"
        }
      ],
      "stateMutability": "view",
      "type": "function"
    },
    {
      "inputs": [
        {
          "components": [
            {
              "internalType": "uint128",
              "name": "liquidity",
              "type": "uint128"
            },
            {
              "components": [
                {
                  "internalType": "int24",
                  "name": "lowerTick",
                  "type": "int24"
                },
                {
                  "internalType": "int24",
                  "name": "upperTick",
                  "type": "int24"
                },
                {
                  "internalType": "uint24",
                  "name": "feeTier",
                  "type": "uint24"
                }
              ],
              "internalType": "struct Range",
              "name": "range",
              "type": "tuple"
            }
          ],
          "internalType": "struct BurnLiquidity[]",
          "name": "burns_",
          "type": "tuple[]"
        },
        {
          "internalType": "uint256",
          "name": "burnAmount_",
          "type": "uint256"
        },
        {
          "internalType": "address",
          "name": "receiver_",
          "type": "address"
        }
      ],
      "name": "burn",
      "outputs": [
        {
          "internalType": "uint256",
          "name": "amount0",
          "type": "uint256"
        },
        {
          "internalType": "uint256",
          "name": "amount1",
          "type": "uint256"
        }
      ],
      "stateMutability": "nonpayable",
      "type": "function"
    },
    {
      "inputs": [],
      "name": "decimals",
      "outputs": [
        {
          "internalType": "uint8",
          "name": "",
          "type": "uint8"
        }
      ],
      "stateMutability": "view",
      "type": "function"
    },
    {
      "inputs": [
        {
          "internalType": "address",
          "name": "spender",
          "type": "address"
        },
        {
          "internalType": "uint256",
          "name": "subtractedValue",
          "type": "uint256"
        }
      ],
      "name": "decreaseAllowance",
      "outputs": [
        {
          "internalType": "bool",
          "name": "",
          "type": "bool"
        }
      ],
      "stateMutability": "nonpayable",
      "type": "function"
    },
    {
      "inputs": [],
      "name": "factory",
      "outputs": [
        {
          "internalType": "contract IUniswapV3Factory",
          "name": "",
          "type": "address"
        }
      ],
      "stateMutability": "view",
      "type": "function"
    },
    {
      "inputs": [
        {
          "internalType": "address",
          "name": "spender",
          "type": "address"
        },
        {
          "internalType": "uint256",
          "name": "addedValue",
          "type": "uint256"
        }
      ],
      "name": "increaseAllowance",
      "outputs": [
        {
          "internalType": "bool",
          "name": "",
          "type": "bool"
        }
      ],
      "stateMutability": "nonpayable",
      "type": "function"
    },
    {
      "inputs": [],
      "name": "init0",
      "outputs": [
        {
          "internalType": "uint256",
          "name": "",
          "type": "uint256"
        }
      ],
      "stateMutability": "view",
      "type": "function"
    },
    {
      "inputs": [],
      "name": "init1",
      "outputs": [
        {
          "internalType": "uint256",
          "name": "",
          "type": "uint256"
        }
      ],
      "stateMutability": "view",
      "type": "function"
    },
    {
      "inputs": [
        {
          "internalType": "string",
          "name": "name_",
          "type": "string"
        },
        {
          "internalType": "string",
          "name": "symbol_",
          "type": "string"
        },
        {
          "components": [
            {
              "internalType": "uint24[]",
              "name": "feeTiers",
              "type": "uint24[]"
            },
            {
              "internalType": "address",
              "name": "token0",
              "type": "address"
            },
            {
              "internalType": "address",
              "name": "token1",
              "type": "address"
            },
            {
              "internalType": "address",
              "name": "owner",
              "type": "address"
            },
            {
              "internalType": "uint256",
              "name": "init0",
              "type": "uint256"
            },
            {
              "internalType": "uint256",
              "name": "init1",
              "type": "uint256"
            },
            {
              "internalType": "address",
              "name": "manager",
              "type": "address"
            },
            {
              "internalType": "int24",
              "name": "maxTwapDeviation",
              "type": "int24"
            },
            {
              "internalType": "uint24",
              "name": "twapDuration",
              "type": "uint24"
            },
            {
              "internalType": "uint24",
              "name": "maxSlippage",
              "type": "uint24"
            }
          ],
          "internalType": "struct InitializePayload",
          "name": "params_",
          "type": "tuple"
        }
      ],
      "name": "initialize",
      "outputs": [],
      "stateMutability": "nonpayable",
      "type": "function"
    },
    {
      "inputs": [],
      "name": "manager",
      "outputs": [
        {
          "internalType": "contract IManagerProxyV2",
          "name": "",
          "type": "address"
        }
      ],
      "stateMutability": "view",
      "type": "function"
    },
    {
      "inputs": [],
      "name": "managerBalance0",
      "outputs": [
        {
          "internalType": "uint256",
          "name": "",
          "type": "uint256"
        }
      ],
      "stateMutability": "view",
      "type": "function"
    },
    {
      "inputs": [],
      "name": "managerBalance1",
      "outputs": [
        {
          "internalType": "uint256",
          "name": "",
          "type": "uint256"
        }
      ],
      "stateMutability": "view",
      "type": "function"
    },
    {
      "inputs": [],
      "name": "maxSlippage",
      "outputs": [
        {
          "internalType": "uint24",
          "name": "",
          "type": "uint24"
        }
      ],
      "stateMutability": "view",
      "type": "function"
    },
    {
      "inputs": [],
      "name": "maxTwapDeviation",
      "outputs": [
        {
          "internalType": "int24",
          "name": "",
          "type": "int24"
        }
      ],
      "stateMutability": "view",
      "type": "function"
    },
    {
      "inputs": [
        {
          "internalType": "uint256",
          "name": "mintAmount_",
          "type": "uint256"
        },
        {
          "internalType": "address",
          "name": "receiver_",
          "type": "address"
        }
      ],
      "name": "mint",
      "outputs": [
        {
          "internalType": "uint256",
          "name": "amount0",
          "type": "uint256"
        },
        {
          "internalType": "uint256",
          "name": "amount1",
          "type": "uint256"
        }
      ],
      "stateMutability": "nonpayable",
      "type": "function"
    },
    {
      "inputs": [],
      "name": "name",
      "outputs": [
        {
          "internalType": "string",
          "name": "",
          "type": "string"
        }
      ],
      "stateMutability": "view",
      "type": "function"
    },
    {
      "inputs": [],
      "name": "owner",
      "outputs": [
        {
          "internalType": "address",
          "name": "",
          "type": "address"
        }
      ],
      "stateMutability": "view",
      "type": "function"
    },
    {
      "inputs": [
        {
          "internalType": "uint256",
          "name": "",
          "type": "uint256"
        }
      ],
      "name": "ranges",
      "outputs": [
        {
          "internalType": "int24",
          "name": "lowerTick",
          "type": "int24"
        },
        {
          "internalType": "int24",
          "name": "upperTick",
          "type": "int24"
        },
        {
          "internalType": "uint24",
          "name": "feeTier",
          "type": "uint24"
        }
      ],
      "stateMutability": "view",
      "type": "function"
    },
    {
      "inputs": [
        {
          "components": [
            {
              "internalType": "int24",
              "name": "lowerTick",
              "type": "int24"
            },
            {
              "internalType": "int24",
              "name": "upperTick",
              "type": "int24"
            },
            {
              "internalType": "uint24",
              "name": "feeTier",
              "type": "uint24"
            }
          ],
          "internalType": "struct Range[]",
          "name": "ranges_",
          "type": "tuple[]"
        },
        {
          "components": [
            {
              "components": [
                {
                  "internalType": "uint128",
                  "name": "liquidity",
                  "type": "uint128"
                },
                {
                  "components": [
                    {
                      "internalType": "int24",
                      "name": "lowerTick",
                      "type": "int24"
                    },
                    {
                      "internalType": "int24",
                      "name": "upperTick",
                      "type": "int24"
                    },
                    {
                      "internalType": "uint24",
                      "name": "feeTier",
                      "type": "uint24"
                    }
                  ],
                  "internalType": "struct Range",
                  "name": "range",
                  "type": "tuple"
                }
              ],
              "internalType": "struct PositionLiquidity[]",
              "name": "removes",
              "type": "tuple[]"
            },
            {
              "components": [
                {
                  "internalType": "uint128",
                  "name": "liquidity",
                  "type": "uint128"
                },
                {
                  "components": [
                    {
                      "internalType": "int24",
                      "name": "lowerTick",
                      "type": "int24"
                    },
                    {
                      "internalType": "int24",
                      "name": "upperTick",
                      "type": "int24"
                    },
                    {
                      "internalType": "uint24",
                      "name": "feeTier",
                      "type": "uint24"
                    }
                  ],
                  "internalType": "struct Range",
                  "name": "range",
                  "type": "tuple"
                }
              ],
              "internalType": "struct PositionLiquidity[]",
              "name": "deposits",
              "type": "tuple[]"
            },
            {
              "components": [
                {
                  "internalType": "bytes",
                  "name": "payload",
                  "type": "bytes"
                },
                {
                  "internalType": "address",
                  "name": "pool",
                  "type": "address"
                },
                {
                  "internalType": "address",
                  "name": "router",
                  "type": "address"
                },
                {
                  "internalType": "uint256",
                  "name": "amountIn",
                  "type": "uint256"
                },
                {
                  "internalType": "uint256",
                  "name": "expectedMinReturn",
                  "type": "uint256"
                },
                {
                  "internalType": "bool",
                  "name": "zeroForOne",
                  "type": "bool"
                }
              ],
              "internalType": "struct SwapPayload",
              "name": "swap",
              "type": "tuple"
            }
          ],
          "internalType": "struct Rebalance",
          "name": "rebalanceParams_",
          "type": "tuple"
        },
        {
          "components": [
            {
              "internalType": "int24",
              "name": "lowerTick",
              "type": "int24"
            },
            {
              "internalType": "int24",
              "name": "upperTick",
              "type": "int24"
            },
            {
              "internalType": "uint24",
              "name": "feeTier",
              "type": "uint24"
            }
          ],
          "internalType": "struct Range[]",
          "name": "rangesToRemove_",
          "type": "tuple[]"
        }
      ],
      "name": "rebalance",
      "outputs": [],
      "stateMutability": "nonpayable",
      "type": "function"
    },
    {
      "inputs": [
        {
          "internalType": "address[]",
          "name": "pools_",
          "type": "address[]"
        }
      ],
      "name": "removePools",
      "outputs": [],
      "stateMutability": "nonpayable",
      "type": "function"
    },
    {
      "inputs": [],
      "name": "renounceOwnership",
      "outputs": [],
      "stateMutability": "nonpayable",
      "type": "function"
    },
    {
      "inputs": [],
      "name": "restrictedMint",
      "outputs": [
        {
          "internalType": "address",
          "name": "",
          "type": "address"
        }
      ],
      "stateMutability": "view",
      "type": "function"
    },
    {
      "inputs": [
        {
          "internalType": "uint256",
          "name": "init0_",
          "type": "uint256"
        },
        {
          "internalType": "uint256",
          "name": "init1_",
          "type": "uint256"
        }
      ],
      "name": "setInits",
      "outputs": [],
      "stateMutability": "nonpayable",
      "type": "function"
    },
    {
      "inputs": [
        {
          "internalType": "contract IManagerProxyV2",
          "name": "manager_",
          "type": "address"
        }
      ],
      "name": "setManager",
      "outputs": [],
      "stateMutability": "nonpayable",
      "type": "function"
    },
    {
      "inputs": [
        {
          "internalType": "uint24",
          "name": "maxSlippage_",
          "type": "uint24"
        }
      ],
      "name": "setMaxSlippage",
      "outputs": [],
      "stateMutability": "nonpayable",
      "type": "function"
    },
    {
      "inputs": [
        {
          "internalType": "int24",
          "name": "maxTwapDeviation_",
          "type": "int24"
        }
      ],
      "name": "setMaxTwapDeviation",
      "outputs": [],
      "stateMutability": "nonpayable",
      "type": "function"
    },
    {
      "inputs": [
        {
          "internalType": "address",
          "name": "minter_",
          "type": "address"
        }
      ],
      "name": "setRestrictedMint",
      "outputs": [],
      "stateMutability": "nonpayable",
      "type": "function"
    },
    {
      "inputs": [
        {
          "internalType": "uint24",
          "name": "twapDuration_",
          "type": "uint24"
        }
      ],
      "name": "setTwapDuration",
      "outputs": [],
      "stateMutability": "nonpayable",
      "type": "function"
    },
    {
      "inputs": [],
      "name": "symbol",
      "outputs": [
        {
          "internalType": "string",
          "name": "",
          "type": "string"
        }
      ],
      "stateMutability": "view",
      "type": "function"
    },
    {
      "inputs": [],
      "name": "token0",
      "outputs": [
        {
          "internalType": "contract IERC20",
          "name": "",
          "type": "address"
        }
      ],
      "stateMutability": "view",
      "type": "function"
    },
    {
      "inputs": [],
      "name": "token1",
      "outputs": [
        {
          "internalType": "contract IERC20",
          "name": "",
          "type": "address"
        }
      ],
      "stateMutability": "view",
      "type": "function"
    },
    {
      "inputs": [],
      "name": "totalSupply",
      "outputs": [
        {
          "internalType": "uint256",
          "name": "",
          "type": "uint256"
        }
      ],
      "stateMutability": "view",
      "type": "function"
    },
    {
      "inputs": [
        {
          "internalType": "address",
          "name": "to",
          "type": "address"
        },
        {
          "internalType": "uint256",
          "name": "amount",
          "type": "uint256"
        }
      ],
      "name": "transfer",
      "outputs": [
        {
          "internalType": "bool",
          "name": "",
          "type": "bool"
        }
      ],
      "stateMutability": "nonpayable",
      "type": "function"
    },
    {
      "inputs": [
        {
          "internalType": "address",
          "name": "from",
          "type": "address"
        },
        {
          "internalType": "address",
          "name": "to",
          "type": "address"
        },
        {
          "internalType": "uint256",
          "name": "amount",
          "type": "uint256"
        }
      ],
      "name": "transferFrom",
      "outputs": [
        {
          "internalType": "bool",
          "name": "",
          "type": "bool"
        }
      ],
      "stateMutability": "nonpayable",
      "type": "function"
    },
    {
      "inputs": [
        {
          "internalType": "address",
          "name": "newOwner",
          "type": "address"
        }
      ],
      "name": "transferOwnership",
      "outputs": [],
      "stateMutability": "nonpayable",
      "type": "function"
    },
    {
      "inputs": [],
      "name": "twapDuration",
      "outputs": [
        {
          "internalType": "uint24",
          "name": "",
          "type": "uint24"
        }
      ],
      "stateMutability": "view",
      "type": "function"
    },
    {
      "inputs": [
        {
          "internalType": "uint256",
          "name": "amount0Owed_",
          "type": "uint256"
        },
        {
          "internalType": "uint256",
          "name": "amount1Owed_",
          "type": "uint256"
        },
        {
          "internalType": "bytes",
          "name": "",
          "type": "bytes"
        }
      ],
      "name": "uniswapV3MintCallback",
      "outputs": [],
      "stateMutability": "nonpayable",
      "type": "function"
    },
    {
      "inputs": [],
      "name": "withdrawArrakisBalance",
      "outputs": [],
      "stateMutability": "nonpayable",
      "type": "function"
    },
    {
      "inputs": [],
      "name": "withdrawManagerBalance",
      "outputs": [],
      "stateMutability": "nonpayable",
      "type": "function"
    }
  ],
  "transactionHash": "0xb17d3592d874fefec6c1ae9509a2136b140bd366a9892f9f182581b705d1d336",
  "args": [
    "0x1F98431c8aD98523631AE4a59f267346ea31F984",
    "0xDEb4C33D5C3E7e32F55a9D6336FE06010E40E3AB"
  ],
  "numDeployments": 7,
  "solcInputHash": "93228341db3d86f31224385b5a1e9596",
  "bytecode": "0x60c06040523480156200001157600080fd5b5060405162006136380380620061368339810160408190526200003491620000e9565b81816001600160a01b038216620000775760405162461bcd60e51b81526020600482015260026024820152612d2360f11b60448201526064015b60405180910390fd5b6001600160a01b038116620000b55760405162461bcd60e51b815260206004820152600360248201526216905560ea1b60448201526064016200006e565b6001600160a01b039182166080521660a05250620001289050565b6001600160a01b0381168114620000e657600080fd5b50565b60008060408385031215620000fd57600080fd5b82516200010a81620000d0565b60208401519092506200011d81620000d0565b809150509250929050565b60805160a051615fa2620001946000396000818161053d01528181611d3e0152611d7b01526000818161056d01528181611387015281816116d401528181611a3001528181611fec015281816124d301528181612e9c015281816130fd0152613c140152615fa26000f3fe608060405234801561001057600080fd5b506004361061028a5760003560e01c806386ac1cb91161015c578063c7075041116100ce578063dc9ad4c111610087578063dc9ad4c1146105ff578063dd62ed3e14610607578063e7c7cb911461061a578063f2eb3e3414610641578063f2fde38b1461064a578063f4effe411461065d57600080fd5b8063c70750411461058f578063c7a4ae17146105aa578063d0ebdbe7146105bd578063d21220a7146105d0578063d3487997146105e3578063d8953ca7146105f657600080fd5b806395d89b411161012057806395d89b411461050a578063a457c2d714610512578063a9059cbb14610525578063b9f24cb214610538578063bbfe704e1461055f578063c45a01551461056857600080fd5b806386ac1cb9146104955780638c04166f146104a85780638da5cb5b146104be5780638daf0ce4146104cf57806394bf804d146104e257600080fd5b806339509351116102005780634e380ab4116101b95780634e380ab4146103fb57806356d9b0511461040e5780635fdecdfa1461042157806370a082311461045c578063715018a6146104855780637ecd67171461048d57600080fd5b806339509351146103935780633cbff3fe146103a65780633f7b6135146103b957806342fb9d44146103cc578063481c6a75146103d55780634b164140146103e857600080fd5b806314b806301161025257806314b806301461032357806318160ddd1461032c57806323b872dd1461033457806326d8954514610347578063313ce567146103715780633926ab5f1461038057600080fd5b8063065756db1461028f57806306fdde03146102ab578063095ea7b3146102c05780630d6e6631146102e35780630dfe1681146102f8575b600080fd5b61029860d05481565b6040519081526020015b60405180910390f35b6102b3610670565b6040516102a29190614f55565b6102d36102ce366004614fa8565b610702565b60405190151581526020016102a2565b6102f66102f1366004614fd4565b61071c565b005b60c95461030b906001600160a01b031681565b6040516001600160a01b0390911681526020016102a2565b61029860cb5481565b606754610298565b6102d3610342366004614ff1565b6107b5565b60d35461035d90600160b81b900462ffffff1681565b60405162ffffff90911681526020016102a2565b604051601281526020016102a2565b6102f661038e366004615043565b6107db565b6102d36103a1366004614fa8565b610857565b6102f66103b436600461506f565b610879565b6102f66103c736600461508c565b6108f3565b61029860d15481565b60d25461030b906001600160a01b031681565b6102f66103f63660046150f9565b61099a565b6102f6610409366004615043565b610b0c565b6102f661041c36600461517b565b610b88565b61043461042f366004615216565b6110e7565b60408051600294850b81529290930b602083015262ffffff16918101919091526060016102a2565b61029861046a366004614fd4565b6001600160a01b031660009081526065602052604090205490565b6102f6611123565b6102f6611159565b6102f66104a33660046150f9565b6111e7565b60d35461035d90600160d01b900462ffffff1681565b6033546001600160a01b031661030b565b6102f66104dd366004615273565b611262565b6104f56104f036600461530f565b6118ad565b604080519283526020830191909152016102a2565b6102b3611be9565b6102d3610520366004614fa8565b611bf8565b6102d3610533366004614fa8565b611c7e565b61030b7f000000000000000000000000000000000000000000000000000000000000000081565b61029860cf5481565b61030b7f000000000000000000000000000000000000000000000000000000000000000081565b61059760fa81565b60405161ffff90911681526020016102a2565b60d35461030b906001600160a01b031681565b6102f66105cb366004614fd4565b611c8c565b60ca5461030b906001600160a01b031681565b6102f66105f136600461533f565b611d04565b61029860ce5481565b6102f6611d14565b610298610615366004615391565b611dd6565b60d35461062e90600160a01b900460020b81565b60405160029190910b81526020016102a2565b61029860cc5481565b6102f6610658366004614fd4565b611e01565b6104f561066b3660046153bf565b611e9c565b60606068805461067f9061544c565b80601f01602080910402602001604051908101604052809291908181526020018280546106ab9061544c565b80156106f85780601f106106cd576101008083540402835291602001916106f8565b820191906000526020600020905b8154815290600101906020018083116106db57829003601f168201915b5050505050905090565b6000336107108185856129ff565b60019150505b92915050565b60d2546001600160a01b031633146107605760405162461bcd60e51b81526020600482015260026024820152614e4d60f01b60448201526064015b60405180910390fd5b60d380546001600160a01b0319166001600160a01b0383169081179091556040519081527f6b7f177e85ebe3aabaf1339b9a445ac908b2bef730372180fa280958e2414ee3906020015b60405180910390a150565b6000336107c3858285612b23565b6107ce858585612b97565b60019150505b9392505050565b6033546001600160a01b031633146108055760405162461bcd60e51b815260040161075790615486565b60d3805462ffffff60b81b1916600160b81b62ffffff8416908102919091179091556040519081527f66676a452ead560b155328baa45bcdea69b3dd4c0a071793daa16721ffde80b6906020016107aa565b60003361071081858561086a8383611dd6565b61087491906154d1565b6129ff565b6033546001600160a01b031633146108a35760405162461bcd60e51b815260040161075790615486565b60d3805462ffffff60a01b1916600160a01b62ffffff841602179055604051600282900b81527f1877ca7362b6ff9f22ec5bf924615fb25be0035a56f42d996798073cceb1edd4906020016107aa565b6033546001600160a01b0316331461091d5760405162461bcd60e51b815260040161075790615486565b606754156109525760405162461bcd60e51b8152602060048201526002602482015261545360f01b6044820152606401610757565b60cb82905560cc81905560408051838152602081018390527ff8966e026442bb0adb17149a6d44e394d2b6eb3c5cc1dc71b3c0698000548ae691015b60405180910390a15050565b6033546001600160a01b031633146109c45760405162461bcd60e51b815260040161075790615486565b60005b81811015610ada5760008383838181106109e3576109e36154e9565b90506020020160208101906109f89190614fd4565b6001600160a01b031603610a325760405162461bcd60e51b81526020600482015260016024820152602d60f91b6044820152606401610757565b610a64838383818110610a4757610a476154e9565b9050602002016020810190610a5c9190614fd4565b60d490612d65565b610a955760405162461bcd60e51b815260206004820152600260248201526104e560f41b6044820152606401610757565b610ac7838383818110610aaa57610aaa6154e9565b9050602002016020810190610abf9190614fd4565b60d490612d87565b5080610ad2816154ff565b9150506109c7565b507f024551cce253d1a442bfe99dae530a00a492fb8c67c4456cce3c9d23eecd3961828260405161098e929190615518565b6033546001600160a01b03163314610b365760405162461bcd60e51b815260040161075790615486565b60d3805462ffffff60d01b1916600160d01b62ffffff8416908102919091179091556040519081527fefbf89cdee00452a08dfede9038a71e03d558dfbb8a2025b6f0af969ee0fa1f7906020016107aa565b6000610b946001612d9c565b90508015610bac576000805461ff0019166101001790555b6000610bb88380615566565b905011610bed5760405162461bcd60e51b815260206004820152600360248201526213919560ea1b6044820152606401610757565b6000610bff6040840160208501614fd4565b6001600160a01b031603610c3a5760405162461bcd60e51b8152602060048201526002602482015261054360f41b6044820152606401610757565b610c4a6060830160408401614fd4565b6001600160a01b0316610c636040840160208501614fd4565b6001600160a01b031610610c9f5760405162461bcd60e51b815260206004820152600360248201526257544f60e81b6044820152606401610757565b600082608001351180610cb6575060008260a00135115b610ce65760405162461bcd60e51b81526020600482015260016024820152604960f81b6044820152606401610757565b6000610cf860e0840160c08501614fd4565b6001600160a01b031603610d375760405162461bcd60e51b8152600401610757906020808252600490820152634e415a4d60e01b604082015260600190565b610daa86868080601f01602080910402602001604051908101604052809392919081815260200183838082843760009201919091525050604080516020601f8a018190048102820181019092528881529250889150879081908401838280828437600092019190915250612e2992505050565b610db2612e5e565b610de4610dbf8380615566565b610dcf6040860160208701614fd4565b610ddf6060870160408801614fd4565b612e8d565b610df46040830160208401614fd4565b60c980546001600160a01b0319166001600160a01b0392909216919091179055610e246060830160408401614fd4565b60ca80546001600160a01b0319166001600160a01b0392909216919091179055610e5c610e576080840160608501614fd4565b612ff1565b610e6c60e0830160c08401614fd4565b60d280546001600160a01b0319166001600160a01b03929092169190911790557f1b402611d70c7735d942445aaa3ebbf878149bece6b797870b44a581c5f7f4c9610eb78380615566565b604051610ec59291906155af565b60405180910390a17ff8966e026442bb0adb17149a6d44e394d2b6eb3c5cc1dc71b3c0698000548ae6826080013560cb8190558360a0013560cc819055604051610f19929190918252602082015260400190565b60405180910390a17f9b6ffaf4cbfd923495440b7f17ced9394289f001b3ead53ab67e2c3f3e39b0f5610f5260e0840160c08501614fd4565b6040516001600160a01b03909116815260200160405180910390a17f1877ca7362b6ff9f22ec5bf924615fb25be0035a56f42d996798073cceb1edd4610f9f610100840160e0850161506f565b60d3805462ffffff60a01b1916600160a01b62ffffff84160217905560405160029190910b815260200160405180910390a17f66676a452ead560b155328baa45bcdea69b3dd4c0a071793daa16721ffde80b661100461012084016101008501615043565b60d3805462ffffff60b81b1916600160b81b62ffffff9390931692830217905560405190815260200160405180910390a17fefbf89cdee00452a08dfede9038a71e03d558dfbb8a2025b6f0af969ee0fa1f761106861014084016101208501615043565b60d3805462ffffff60d01b1916600160d01b62ffffff9390931692830217905560405190815260200160405180910390a180156110df576000805461ff0019169055604051600181527f7f26b83ff96e1f2b6a682f133852f6798a09c465da95921460cefb38474024989060200160405180910390a15b505050505050565b60cd81815481106110f757600080fd5b600091825260209091200154600281810b925063010000008204900b90600160301b900462ffffff1683565b6033546001600160a01b0316331461114d5760405162461bcd60e51b815260040161075790615486565b6111576000612ff1565b565b60d0805460d1805460009384905592905590811561118e5760d25460c95461118e916001600160a01b03918216911684613043565b80156111b15760d25460ca546111b1916001600160a01b03918216911683613043565b60408051838152602081018390527fa292e28c648da34e20b372054caab5f0359198b3b4d5f0ef9945d4616e15dc97910161098e565b6033546001600160a01b031633146112115760405162461bcd60e51b815260040161075790615486565b60c95460ca5461123191849184916001600160a01b039081169116612e8d565b7f1b402611d70c7735d942445aaa3ebbf878149bece6b797870b44a581c5f7f4c9828260405161098e9291906155af565b60d2546001600160a01b031633146112a15760405162461bcd60e51b81526020600482015260026024820152614e4d60f01b6044820152606401610757565b60005b848110156115d1576000731278B36cc6dD53aba16b756BA451a0808B0F662b6335f8054760cd8989868181106112dc576112dc6154e9565b9050606002016040518363ffffffff1660e01b81526004016112ff929190615632565b6040805180830381865af415801561131b573d6000803e3d6000fd5b505050506040513d601f19601f8201168201806040525081019061133f91906156bb565b50905080156113745760405162461bcd60e51b81526020600482015260016024820152602960f91b6044820152606401610757565b60c95460ca546000916001600160a01b037f0000000000000000000000000000000000000000000000000000000000000000811692631698ee8292821691168b8b888181106113c5576113c56154e9565b90506060020160400160208101906113dd9190615043565b6040518463ffffffff1660e01b81526004016113fb939291906156e9565b602060405180830381865afa158015611418573d6000803e3d6000fd5b505050506040513d601f19601f8201168201806040525081019061143c9190615711565b90506001600160a01b03811661147a5760405162461bcd60e51b815260206004820152600360248201526204e55560ec1b6044820152606401610757565b61148560d482612d65565b6114b55760405162461bcd60e51b81526020600482015260016024820152600560fc1b6044820152606401610757565b73cf7b1a7516ffe2d9cdd1fEC6BE112f1533564C77636b018820828a8a878181106114e2576114e26154e9565b9050606002016040518363ffffffff1660e01b815260040161150592919061572e565b602060405180830381865af4158015611522573d6000803e3d6000fd5b505050506040513d601f19601f82011682018060405250810190611546919061574b565b61157a5760405162461bcd60e51b815260206004820152600560248201526472616e676560d81b6044820152606401610757565b60cd88888581811061158e5761158e6154e9565b835460018101855560009485526020909420606090910292909201929190910190506115ba8282615768565b5050505080806115c9906154ff565b9150506112a4565b506115db836130ab565b60005b818110156110df57600080731278B36cc6dD53aba16b756BA451a0808B0F662b6335f8054760cd878787818110611617576116176154e9565b9050606002016040518363ffffffff1660e01b815260040161163a929190615632565b6040805180830381865af4158015611656573d6000803e3d6000fd5b505050506040513d601f19601f8201168201806040525081019061167a91906156bb565b91509150816116b05760405162461bcd60e51b8152602060048201526002602482015261272960f11b6044820152606401610757565b60c95460ca54731278B36cc6dD53aba16b756BA451a0808B0F662b91637806db78917f00000000000000000000000000000000000000000000000000000000000000009130916001600160a01b0391821691168a8a8a818110611715576117156154e9565b9050606002016040518663ffffffff1660e01b815260040161173b9594939291906157f4565b60006040518083038186803b15801561175357600080fd5b505af4158015611767573d6000803e3d6000fd5b5050505060cd818154811061177e5761177e6154e9565b6000918252602090912001805468ffffffffffffffffff19169055805b60cd546117aa90600190615833565b8110156118625760cd6117be8260016154d1565b815481106117ce576117ce6154e9565b9060005260206000200160cd82815481106117eb576117eb6154e9565b6000918252602090912082549101805462ffffff92831662ffffff19821681178355845463010000009081900485160265ffffffffffff1990921617178082559254600160301b9081900490921690910268ffffff000000000000199092169190911790558061185a816154ff565b91505061179b565b5060cd8054806118745761187461584a565b6000828152602090208101600019908101805468ffffffffffffffffff19169055019055508190506118a5816154ff565b9150506115de565b6000806002609754036118d25760405162461bcd60e51b815260040161075790615860565b6002609755836119095760405162461bcd60e51b81526020600482015260026024820152614d4160f01b6044820152606401610757565b60d3546001600160a01b0316158061192b575060d3546001600160a01b031633145b61195b5760405162461bcd60e51b81526020600482015260016024820152602960f91b6044820152606401610757565b30600061196760675490565b9050600080600080600085116119855760cb5460cc54600080611ada565b73A286c23AC68E9E41dC210eF885e2B2d5fC94e98963e56f4d916040518060a0016040528060cd805480602002602001604051908101604052809291908181526020016000905b82821015611a1f5760008481526020908190206040805160608101825291850154600281810b845263010000008204900b83850152600160301b900462ffffff16908201528252600190920191016119cc565b505050908252506001600160a01b037f00000000000000000000000000000000000000000000000000000000000000008116602083015260c954811660408084019190915260ca5482166060840152908b16608090920191909152516001600160e01b031960e084901b168152611a999190600401615897565b608060405180830381865af4158015611ab6573d6000803e3d6000fd5b505050506040513d601f19601f82011682018060405250810190611ada919061595a565b93509350935093506000808611611af957670de0b6b3a7640000611afb565b855b9050611b088b8683613fd9565b9850611b158b8583613fd9565b9750611b218a8c614022565b8815611b3f5760c954611b3f906001600160a01b031633898c614101565b8715611b5d5760ca54611b5d906001600160a01b031633898b614101565b60408051848152602081018490527fa8a7bd84de20ad33f47cc88030f6f22b34f38f25b331ccbc8665eb32e36c11ee910160405180910390a17f5f11830295067c4bcc7d02d4e3b048cd7427be50a3aeb6afc9d3d559ee64bcfa8a8c8b8b604051611bcb9493929190615990565b60405180910390a15050505050505060016097819055509250929050565b60606069805461067f9061544c565b60003381611c068286611dd6565b905083811015611c665760405162461bcd60e51b815260206004820152602560248201527f45524332303a2064656372656173656420616c6c6f77616e63652062656c6f77604482015264207a65726f60d81b6064820152608401610757565b611c7382868684036129ff565b506001949350505050565b600033610710818585612b97565b6033546001600160a01b03163314611cb65760405162461bcd60e51b815260040161075790615486565b60d280546001600160a01b0319166001600160a01b0383169081179091556040519081527f9b6ffaf4cbfd923495440b7f17ced9394289f001b3ead53ab67e2c3f3e39b0f5906020016107aa565b611d0e8484614139565b50505050565b60ce805460cf8054600093849055929055908115611d635760c954611d63906001600160a01b03167f000000000000000000000000000000000000000000000000000000000000000084613043565b8015611da05760ca54611da0906001600160a01b03167f000000000000000000000000000000000000000000000000000000000000000083613043565b60408051838152602081018390527ff640f308bdf7deba15c1aba8a4cf108b0f79d1ca98748696470dc0007f7cf8d3910161098e565b6001600160a01b03918216600090815260666020908152604080832093909416825291909152205490565b6033546001600160a01b03163314611e2b5760405162461bcd60e51b815260040161075790615486565b6001600160a01b038116611e905760405162461bcd60e51b815260206004820152602660248201527f4f776e61626c653a206e6577206f776e657220697320746865207a65726f206160448201526564647265737360d01b6064820152608401610757565b611e9981612ff1565b50565b600080600260975403611ec15760405162461bcd60e51b815260040161075790615860565b60026097556000611ed160675490565b905060008111611f085760405162461bcd60e51b8152602060048201526002602482015261545360f01b6044820152606401610757565b611f416040518060c001604052806000815260200160008152602001600081526020016000815260200160008152602001600081525090565b73A286c23AC68E9E41dC210eF885e2B2d5fC94e98963e56f4d916040518060a0016040528060cd805480602002602001604051908101604052809291908181526020016000905b82821015611fdb5760008481526020908190206040805160608101825291850154600281810b845263010000008204900b83850152600160301b900462ffffff1690820152825260019092019101611f88565b505050908252506001600160a01b037f00000000000000000000000000000000000000000000000000000000000000008116602083015260c954811660408084019190915260ca54909116606083015230608090920191909152516001600160e01b031960e084901b1681526120549190600401615897565b608060405180830381865af4158015612071573d6000803e3d6000fd5b505050506040513d601f19601f82011682018060405250810190612095919061595a565b606085015260408401526020830152815260ce5460d0546120b691906154d1565b60c9546040516370a0823160e01b81523060048201526001600160a01b03909116906370a0823190602401602060405180830381865afa1580156120fe573d6000803e3d6000fd5b505050506040513d601f19601f8201168201806040525081019061212291906159b6565b61212c9190615833565b608082015260cf5460d15461214191906154d1565b60ca546040516370a0823160e01b81523060048201526001600160a01b03909116906370a0823190602401602060405180830381865afa158015612189573d6000803e3d6000fd5b505050506040513d601f19601f820116820180604052508101906121ad91906159b6565b6121b79190615833565b8160a001818152505060008073213dD4F29504EA227be5aDa8379bb8012ea3CBCE636d50cdaf8460400151856060015160d260009054906101000a90046001600160a01b03166001600160a01b031663ccdf7a026040518163ffffffff1660e01b8152600401602060405180830381865afa15801561223a573d6000803e3d6000fd5b505050506040513d601f19601f8201168201806040525081019061225e91906159cf565b6040516001600160e01b031960e086901b1681526004810193909352602483019190915261ffff16604482015260fa60648201526084016040805180830381865af41580156122b1573d6000803e3d6000fd5b505050506040513d601f19601f820116820180604052508101906122d591906159f3565b915091508183604001516122e99190615833565b835184906122f8908390615833565b905250606083015161230b908290615833565b8360200181815161231c9190615833565b90525050815161232e915087846142d7565b935061233f816020015187846142d7565b9250838160800151101580156123595750828160a0015110155b156123e6576123683387614385565b83156123855760c954612385906001600160a01b03168686613043565b82156123a25760ca546123a2906001600160a01b03168685613043565b7f86dacd5ce62967ebd3d915a82b22ad7e159538e50c7ba451e073fec048d9f127858786866040516123d79493929190615990565b60405180910390a150506129ef565b866124175760405162461bcd60e51b81526020600482015260016024820152602160f91b6044820152606401610757565b6124213387614385565b61244c6040518060800160405280600081526020016000815260200160008152602001600081525090565b60005b8881101561268057898982818110612469576124696154e9565b61247f9260206080909202019081019150615a2c565b6001600160801b03166000036124bc5760405162461bcd60e51b8152602060048201526002602482015261262d60f11b6044820152606401610757565b60c95460ca5460009161260b916001600160a01b037f0000000000000000000000000000000000000000000000000000000000000000811692631698ee829290821691168f8f88818110612512576125126154e9565b612529926080918202019081019150606001615043565b6040518463ffffffff1660e01b8152600401612547939291906156e9565b602060405180830381865afa158015612564573d6000803e3d6000fd5b505050506040513d601f19601f820116820180604052508101906125889190615711565b8c8c8581811061259a5761259a6154e9565b6125b3926040608090920201908101915060200161506f565b8d8d868181106125c5576125c56154e9565b6125de926060608090920201908101915060400161506f565b8e8e878181106125f0576125f06154e9565b6126069260206080909202019081019150615a2c565b6144d3565b905080604001518360400181815161262391906154d1565b905250606080820151908401805161263c9083906154d1565b9052508051835184906126509083906154d1565b90525060208082015190840180516126699083906154d1565b905250819050612678816154ff565b91505061244f565b506126938160400151826060015161481f565b73213dD4F29504EA227be5aDa8379bb8012ea3CBCE636d50cdaf8260400151836060015160d260009054906101000a90046001600160a01b03166001600160a01b031663ccdf7a026040518163ffffffff1660e01b8152600401602060405180830381865afa15801561270a573d6000803e3d6000fd5b505050506040513d601f19601f8201168201806040525081019061272e91906159cf565b6040516001600160e01b031960e086901b1681526004810193909352602483019190915261ffff16604482015260fa60648201526084016040805180830381865af4158015612781573d6000803e3d6000fd5b505050506040513d601f19601f820116820180604052508101906127a591906159f3565b60608301526040820152841580159061284f575060008560ce5460d0546127cc91906154d1565b60c9546040516370a0823160e01b81523060048201526001600160a01b03909116906370a0823190602401602060405180830381865afa158015612814573d6000803e3d6000fd5b505050506040513d601f19601f8201168201806040525081019061283891906159b6565b6128429190615833565b61284c9190615833565b10155b1561286b5760c95461286b906001600160a01b03168787613043565b60008411801561290c575060008460cf5460d15461288991906154d1565b60ca546040516370a0823160e01b81523060048201526001600160a01b03909116906370a0823190602401602060405180830381865afa1580156128d1573d6000803e3d6000fd5b505050506040513d601f19601f820116820180604052508101906128f591906159b6565b6128ff9190615833565b6129099190615833565b10155b156129285760ca54612928906001600160a01b03168786613043565b805160208083015160408051338152928301939093528183015290517fbcc5876d59ecdf66ef7ccae24657b11650939218782f8d741e78fd3c35d285a39181900360600190a16040808201516060830151825191825260208201527fa8a7bd84de20ad33f47cc88030f6f22b34f38f25b331ccbc8665eb32e36c11ee910160405180910390a17f86dacd5ce62967ebd3d915a82b22ad7e159538e50c7ba451e073fec048d9f127868887876040516129e39493929190615990565b60405180910390a15050505b6001609755909590945092505050565b6001600160a01b038316612a615760405162461bcd60e51b8152602060048201526024808201527f45524332303a20617070726f76652066726f6d20746865207a65726f206164646044820152637265737360e01b6064820152608401610757565b6001600160a01b038216612ac25760405162461bcd60e51b815260206004820152602260248201527f45524332303a20617070726f766520746f20746865207a65726f206164647265604482015261737360f01b6064820152608401610757565b6001600160a01b0383811660008181526066602090815260408083209487168084529482529182902085905590518481527f8c5be1e5ebec7d5bd14f71427d1e84f3dd0314c0f7b2291e5b200ac8c7c3b925910160405180910390a3505050565b6000612b2f8484611dd6565b90506000198114611d0e5781811015612b8a5760405162461bcd60e51b815260206004820152601d60248201527f45524332303a20696e73756666696369656e7420616c6c6f77616e63650000006044820152606401610757565b611d0e84848484036129ff565b6001600160a01b038316612bfb5760405162461bcd60e51b815260206004820152602560248201527f45524332303a207472616e736665722066726f6d20746865207a65726f206164604482015264647265737360d81b6064820152608401610757565b6001600160a01b038216612c5d5760405162461bcd60e51b815260206004820152602360248201527f45524332303a207472616e7366657220746f20746865207a65726f206164647260448201526265737360e81b6064820152608401610757565b6001600160a01b03831660009081526065602052604090205481811015612cd55760405162461bcd60e51b815260206004820152602660248201527f45524332303a207472616e7366657220616d6f756e7420657863656564732062604482015265616c616e636560d01b6064820152608401610757565b6001600160a01b03808516600090815260656020526040808220858503905591851681529081208054849290612d0c9084906154d1565b92505081905550826001600160a01b0316846001600160a01b03167fddf252ad1be2c89b69c2b068fc378daa952ba7f163c4a11628f55a4df523b3ef84604051612d5891815260200190565b60405180910390a3611d0e565b6001600160a01b038116600090815260018301602052604081205415156107d4565b60006107d4836001600160a01b038416614955565b60008054610100900460ff1615612de3578160ff166001148015612dbf5750303b155b612ddb5760405162461bcd60e51b815260040161075790615a49565b506000919050565b60005460ff808416911610612e0a5760405162461bcd60e51b815260040161075790615a49565b506000805460ff191660ff92909216919091179055600190565b919050565b600054610100900460ff16612e505760405162461bcd60e51b815260040161075790615a97565b612e5a8282614a48565b5050565b600054610100900460ff16612e855760405162461bcd60e51b815260040161075790615a97565b611157614a96565b60005b83811015612fea5760007f00000000000000000000000000000000000000000000000000000000000000006001600160a01b0316631698ee828585898987818110612edd57612edd6154e9565b9050602002016020810190612ef29190615043565b6040518463ffffffff1660e01b8152600401612f10939291906156e9565b602060405180830381865afa158015612f2d573d6000803e3d6000fd5b505050506040513d601f19601f82011682018060405250810190612f519190615711565b90506001600160a01b038116612f8e5760405162461bcd60e51b81526020600482015260026024820152615a4160f01b6044820152606401610757565b612f9960d482612d65565b15612fca5760405162461bcd60e51b81526020600482015260016024820152600560fc1b6044820152606401610757565b612fd560d482614ac4565b50508080612fe2906154ff565b915050612e90565b5050505050565b603380546001600160a01b038381166001600160a01b0319831681179093556040519116919082907f8be0079c531659141344cd1fd0a4f28419497f9722a3daafe3b4186f6b6457e090600090a35050565b6040516001600160a01b0383166024820152604481018290526130a690849063a9059cbb60e01b906064015b60408051601f198184030181529190526020810180516001600160e01b03166001600160e01b031990931692909217909152614ad9565b505050565b6002609754036130cd5760405162461bcd60e51b815260040161075790615860565b6002609755600080805b6130e18480615ae2565b90508110156133125760c95460ca546000916001600160a01b037f0000000000000000000000000000000000000000000000000000000000000000811692631698ee8292821691166131338980615ae2565b87818110613143576131436154e9565b61315a926080918202019081019150606001615043565b6040518463ffffffff1660e01b8152600401613178939291906156e9565b602060405180830381865afa158015613195573d6000803e3d6000fd5b505050506040513d601f19601f820116820180604052508101906131b99190615711565b60d35460405163db46de5360e01b81526001600160a01b0383166004820152600160b81b820462ffffff166024820152600160a01b90910460020b604482015290915081907385F3827a01818FEf655E51C53d0B2c89474acbBC9063db46de539060640160006040518083038186803b15801561323557600080fd5b505af4158015613249573d6000803e3d6000fd5b50600092506132d691508390506132608980615ae2565b87818110613270576132706154e9565b613289926040608090920201908101915060200161506f565b6132938a80615ae2565b888181106132a3576132a36154e9565b6132bc926060608090920201908101915060400161506f565b6132c68b80615ae2565b898181106125f0576125f06154e9565b90508060400151866132e891906154d1565b95508060600151856132fa91906154d1565b9450505050808061330a906154ff565b9150506130d7565b5060008211806133225750600081115b1561347b57613331828261481f565b73213dD4F29504EA227be5aDa8379bb8012ea3CBCE636d50cdaf838360d260009054906101000a90046001600160a01b03166001600160a01b031663ccdf7a026040518163ffffffff1660e01b8152600401602060405180830381865afa1580156133a0573d6000803e3d6000fd5b505050506040513d601f19601f820116820180604052508101906133c491906159cf565b6040516001600160e01b031960e086901b1681526004810193909352602483019190915261ffff16604482015260fa60648201526084016040805180830381865af4158015613417573d6000803e3d6000fd5b505050506040513d601f19601f8201168201806040525081019061343b91906159f3565b60408051838152602081018390529294509092507f44f99f60fee0997e83c06676bc4d0755e32c13f1df0f28ae3086c4f0622ba743910160405180910390a15b600061348a6040850185615b2b565b606001351115613be8576134b56134a46040850185615b2b565b610a5c906040810190602001614fd4565b156134e75760405162461bcd60e51b815260206004820152600260248201526104e560f41b6044820152606401610757565b60c9546040516370a0823160e01b81523060048201526000916001600160a01b0316906370a0823190602401602060405180830381865afa158015613530573d6000803e3d6000fd5b505050506040513d601f19601f8201168201806040525081019061355491906159b6565b60ca546040516370a0823160e01b81523060048201529192506000916001600160a01b03909116906370a0823190602401602060405180830381865afa1580156135a2573d6000803e3d6000fd5b505050506040513d601f19601f820116820180604052508101906135c691906159b6565b90506135fd6135d86040870187615b2b565b6135e9906060810190604001614fd4565b60c9546001600160a01b0316906000614bab565b61363261360d6040870187615b2b565b61361e906060810190604001614fd4565b60ca546001600160a01b0316906000614bab565b6136666136426040870187615b2b565b613653906060810190604001614fd4565b60c9546001600160a01b03169084614bab565b61369a6136766040870187615b2b565b613687906060810190604001614fd4565b60ca546001600160a01b03169083614bab565b60006136a96040870187615b2b565b6136ba906060810190604001614fd4565b6001600160a01b03166136d06040880188615b2b565b6136da9080615b4b565b6040516136e8929190615b91565b6000604051808303816000865af19150503d8060008114613725576040519150601f19603f3d011682016040523d82523d6000602084013e61372a565b606091505b50509050806137645760405162461bcd60e51b8152600401610757906020808252600490820152630737761760e41b604082015260600190565b6137746135d86040880188615b2b565b61378461360d6040880188615b2b565b60c9546040516370a0823160e01b81523060048201526000916001600160a01b0316906370a0823190602401602060405180830381865afa1580156137cd573d6000803e3d6000fd5b505050506040513d601f19601f820116820180604052508101906137f191906159b6565b60ca546040516370a0823160e01b81523060048201529192506000916001600160a01b03909116906370a0823190602401602060405180830381865afa15801561383f573d6000803e3d6000fd5b505050506040513d601f19601f8201168201806040525081019061386391906159b6565b90506138726040890189615b2b565b6138839060c081019060a001615bac565b15613aac576139567385F3827a01818FEf655E51C53d0B2c89474acbBC639ff4c50d6138b260408c018c615b2b565b6138c3906040810190602001614fd4565b60d35460405160e084901b6001600160e01b03191681526001600160a01b039092166004830152600160b81b900462ffffff166024820152604401602060405180830381865af415801561391b573d6000803e3d6000fd5b505050506040513d601f19601f8201168201806040525081019061393f91906159b6565b60d354600160d01b900462ffffff166127106142d7565b613a0261396660408b018b615b2b565b6080013560c960009054906101000a90046001600160a01b03166001600160a01b031663313ce5676040518163ffffffff1660e01b8152600401602060405180830381865afa1580156139bd573d6000803e3d6000fd5b505050506040513d601f19601f820116820180604052508101906139e19190615bc9565b6139ec90600a615cd0565b6139f960408d018d615b2b565b606001356142d7565b11613a335760405162461bcd60e51b81526020600482015260016024820152605360f81b6044820152606401610757565b613a406040890189615b2b565b613a4e9060800135856154d1565b8110158015613a765750613a656040890189615b2b565b613a73906060013586615833565b82145b613aa75760405162461bcd60e51b815260206004820152600260248201526129a360f11b6044820152606401610757565b613be2565b613ad67385F3827a01818FEf655E51C53d0B2c89474acbBC630578711c6138b260408c018c615b2b565b613b3d613ae660408b018b615b2b565b6080013560ca60009054906101000a90046001600160a01b03166001600160a01b031663313ce5676040518163ffffffff1660e01b8152600401602060405180830381865afa1580156139bd573d6000803e3d6000fd5b11613b6e5760405162461bcd60e51b81526020600482015260016024820152605360f81b6044820152606401610757565b613b7b6040890189615b2b565b613b899060800135866154d1565b8210158015613bb15750613ba06040890189615b2b565b613bae906060013585615833565b81145b613be25760405162461bcd60e51b815260206004820152600260248201526129a360f11b6044820152606401610757565b50505050505b60005b613bf86020850185615ae2565b9050811015613f975760c95460ca546000916001600160a01b037f0000000000000000000000000000000000000000000000000000000000000000811692631698ee829282169116613c4d60208a018a615ae2565b87818110613c5d57613c5d6154e9565b613c74926080918202019081019150606001615043565b6040518463ffffffff1660e01b8152600401613c92939291906156e9565b602060405180830381865afa158015613caf573d6000803e3d6000fd5b505050506040513d601f19601f82011682018060405250810190613cd39190615711565b90506000731278B36cc6dD53aba16b756BA451a0808B0F662b6335f8054760cd613d0060208a018a615ae2565b87818110613d1057613d106154e9565b9050608002016020016040518363ffffffff1660e01b8152600401613d36929190615632565b6040805180830381865af4158015613d52573d6000803e3d6000fd5b505050506040513d601f19601f82011682018060405250810190613d7691906156bb565b50905080613dab5760405162461bcd60e51b8152602060048201526002602482015261272960f11b6044820152606401610757565b60d35460405163db46de5360e01b81526001600160a01b0384166004820152600160b81b820462ffffff166024820152600160a01b90910460020b60448201527385F3827a01818FEf655E51C53d0B2c89474acbBC9063db46de539060640160006040518083038186803b158015613e2257600080fd5b505af4158015613e36573d6000803e3d6000fd5b5050506001600160a01b0383169050633c8a7d8d30613e5860208a018a615ae2565b87818110613e6857613e686154e9565b613e81926040608090920201908101915060200161506f565b613e8e60208b018b615ae2565b88818110613e9e57613e9e6154e9565b613eb7926060608090920201908101915060400161506f565b613ec460208c018c615ae2565b89818110613ed457613ed46154e9565b613eea9260206080909202019081019150615a2c565b6040516001600160e01b031960e087901b1681526001600160a01b039094166004850152600292830b6024850152910b60448301526001600160801b0316606482015260a06084820152600060a482015260c40160408051808303816000875af1158015613f5c573d6000803e3d6000fd5b505050506040513d601f19601f82011682018060405250810190613f8091906159f3565b505050508080613f8f906154ff565b915050613beb565b507f3c3b028223d7bced584c76cb50b83757dd71f50f766a1f35aa6abdd979ac63fa83604051613fc79190615daa565b60405180910390a15050600160975550565b6000613fe68484846142d7565b905060008280613ff857613ff8615ed4565b84860911156107d457600019811061400f57600080fd5b80614019816154ff565b95945050505050565b6001600160a01b0382166140785760405162461bcd60e51b815260206004820152601f60248201527f45524332303a206d696e7420746f20746865207a65726f2061646472657373006044820152606401610757565b806067600082825461408a91906154d1565b90915550506001600160a01b038216600090815260656020526040812080548392906140b79084906154d1565b90915550506040518181526001600160a01b038316906000907fddf252ad1be2c89b69c2b068fc378daa952ba7f163c4a11628f55a4df523b3ef9060200160405180910390a35050565b6040516001600160a01b0380851660248301528316604482015260648101829052611d0e9085906323b872dd60e01b9060840161306f565b61414460d433612d65565b6141755760405162461bcd60e51b8152602060048201526002602482015261434360f01b6044820152606401610757565b60008211801561420a575060ce5460d05461419091906154d1565b60c9546040516370a0823160e01b81523060048201526001600160a01b03909116906370a0823190602401602060405180830381865afa1580156141d8573d6000803e3d6000fd5b505050506040513d601f19601f820116820180604052508101906141fc91906159b6565b6142069190615833565b8211155b156142265760c954614226906001600160a01b03163384613043565b6000811180156142bb575060cf5460d15461424191906154d1565b60ca546040516370a0823160e01b81523060048201526001600160a01b03909116906370a0823190602401602060405180830381865afa158015614289573d6000803e3d6000fd5b505050506040513d601f19601f820116820180604052508101906142ad91906159b6565b6142b79190615833565b8111155b15612e5a5760ca54612e5a906001600160a01b03163383613043565b6000808060001985870985870292508281108382030391505080600003614310576000841161430557600080fd5b5082900490506107d4565b80841161431c57600080fd5b60008486880960026001871981018816978890046003810283188082028403028082028403028082028403028082028403028082028403029081029092039091026000889003889004909101858311909403939093029303949094049190911702949350505050565b6001600160a01b0382166143e55760405162461bcd60e51b815260206004820152602160248201527f45524332303a206275726e2066726f6d20746865207a65726f206164647265736044820152607360f81b6064820152608401610757565b6001600160a01b038216600090815260656020526040902054818110156144595760405162461bcd60e51b815260206004820152602260248201527f45524332303a206275726e20616d6f756e7420657863656564732062616c616e604482015261636560f01b6064820152608401610757565b6001600160a01b0383166000908152606560205260408120838303905560678054849290614488908490615833565b90915550506040518281526000906001600160a01b038516907fddf252ad1be2c89b69c2b068fc378daa952ba7f163c4a11628f55a4df523b3ef9060200160405180910390a3505050565b6144fe6040518060800160405280600081526020016000815260200160008152602001600081525090565b60c9546040516370a0823160e01b81523060048201526000916001600160a01b0316906370a0823190602401602060405180830381865afa158015614547573d6000803e3d6000fd5b505050506040513d601f19601f8201168201806040525081019061456b91906159b6565b60ca546040516370a0823160e01b81523060048201529192506000916001600160a01b03909116906370a0823190602401602060405180830381865afa1580156145b9573d6000803e3d6000fd5b505050506040513d601f19601f820116820180604052508101906145dd91906159b6565b60405163a34123a760e01b8152600288810b600483015287900b60248201526001600160801b03861660448201529091506001600160a01b0388169063a34123a79060640160408051808303816000875af1158015614640573d6000803e3d6000fd5b505050506040513d601f19601f8201168201806040525081019061466491906159f3565b602085015283526040516309e3d67b60e31b8152306004820152600287810b602483015286900b60448201526001600160801b036064820181905260848201526001600160a01b03881690634f1eb3d89060a40160408051808303816000875af11580156146d6573d6000803e3d6000fd5b505050506040513d601f19601f820116820180604052508101906146fa9190615eea565b5050825160c9546040516370a0823160e01b815230600482015284916001600160a01b0316906370a0823190602401602060405180830381865afa158015614746573d6000803e3d6000fd5b505050506040513d601f19601f8201168201806040525081019061476a91906159b6565b6147749190615833565b61477e9190615833565b604084810191909152602084015160ca5491516370a0823160e01b8152306004820152909183916001600160a01b03909116906370a0823190602401602060405180830381865afa1580156147d7573d6000803e3d6000fd5b505050506040513d601f19601f820116820180604052508101906147fb91906159b6565b6148059190615833565b61480f9190615833565b6060840152509095945050505050565b60d2546040805163666fbd0160e11b815290516000926001600160a01b03169163ccdf7a029160048083019260209291908290030181865afa158015614869573d6000803e3d6000fd5b505050506040513d601f19601f8201168201806040525081019061488d91906159cf565b90506127106148a061ffff831685615f19565b6148aa9190615f38565b60d060008282546148bb91906154d1565b9091555061271090506148d261ffff831684615f19565b6148dc9190615f38565b60d160008282546148ed91906154d1565b90915550612710905061490160fa85615f19565b61490b9190615f38565b60ce600082825461491c91906154d1565b90915550612710905061493060fa84615f19565b61493a9190615f38565b60cf600082825461494b91906154d1565b9091555050505050565b60008181526001830160205260408120548015614a3e576000614979600183615833565b855490915060009061498d90600190615833565b90508181146149f25760008660000182815481106149ad576149ad6154e9565b90600052602060002001549050808760000184815481106149d0576149d06154e9565b6000918252602080832090910192909255918252600188019052604090208390555b8554869080614a0357614a0361584a565b600190038181906000526020600020016000905590558560010160008681526020019081526020016000206000905560019350505050610716565b6000915050610716565b600054610100900460ff16614a6f5760405162461bcd60e51b815260040161075790615a97565b8151614a82906068906020850190614e90565b5080516130a6906069906020840190614e90565b600054610100900460ff16614abd5760405162461bcd60e51b815260040161075790615a97565b6001609755565b60006107d4836001600160a01b038416614cc0565b6000614b2e826040518060400160405280602081526020017f5361666545524332303a206c6f772d6c6576656c2063616c6c206661696c6564815250856001600160a01b0316614d0f9092919063ffffffff16565b8051909150156130a65780806020019051810190614b4c919061574b565b6130a65760405162461bcd60e51b815260206004820152602a60248201527f5361666545524332303a204552433230206f7065726174696f6e20646964206e6044820152691bdd081cdd58d8d9595960b21b6064820152608401610757565b801580614c255750604051636eb1769f60e11b81523060048201526001600160a01b03838116602483015284169063dd62ed3e90604401602060405180830381865afa158015614bff573d6000803e3d6000fd5b505050506040513d601f19601f82011682018060405250810190614c2391906159b6565b155b614c905760405162461bcd60e51b815260206004820152603660248201527f5361666545524332303a20617070726f76652066726f6d206e6f6e2d7a65726f60448201527520746f206e6f6e2d7a65726f20616c6c6f77616e636560501b6064820152608401610757565b6040516001600160a01b0383166024820152604481018290526130a690849063095ea7b360e01b9060640161306f565b6000818152600183016020526040812054614d0757508154600181810184556000848152602080822090930184905584548482528286019093526040902091909155610716565b506000610716565b6060614d1e8484600085614d26565b949350505050565b606082471015614d875760405162461bcd60e51b815260206004820152602660248201527f416464726573733a20696e73756666696369656e742062616c616e636520666f6044820152651c8818d85b1b60d21b6064820152608401610757565b6001600160a01b0385163b614dde5760405162461bcd60e51b815260206004820152601d60248201527f416464726573733a2063616c6c20746f206e6f6e2d636f6e74726163740000006044820152606401610757565b600080866001600160a01b03168587604051614dfa9190615f5a565b60006040518083038185875af1925050503d8060008114614e37576040519150601f19603f3d011682016040523d82523d6000602084013e614e3c565b606091505b5091509150614e4c828286614e57565b979650505050505050565b60608315614e665750816107d4565b825115614e765782518084602001fd5b8160405162461bcd60e51b81526004016107579190614f55565b828054614e9c9061544c565b90600052602060002090601f016020900481019282614ebe5760008555614f04565b82601f10614ed757805160ff1916838001178555614f04565b82800160010185558215614f04579182015b82811115614f04578251825591602001919060010190614ee9565b50614f10929150614f14565b5090565b5b80821115614f105760008155600101614f15565b60005b83811015614f44578181015183820152602001614f2c565b83811115611d0e5750506000910152565b6020815260008251806020840152614f74816040850160208701614f29565b601f01601f19169190910160400192915050565b6001600160a01b0381168114611e9957600080fd5b8035612e2481614f88565b60008060408385031215614fbb57600080fd5b8235614fc681614f88565b946020939093013593505050565b600060208284031215614fe657600080fd5b81356107d481614f88565b60008060006060848603121561500657600080fd5b833561501181614f88565b9250602084013561502181614f88565b929592945050506040919091013590565b62ffffff81168114611e9957600080fd5b60006020828403121561505557600080fd5b81356107d481615032565b8060020b8114611e9957600080fd5b60006020828403121561508157600080fd5b81356107d481615060565b6000806040838503121561509f57600080fd5b50508035926020909101359150565b60008083601f8401126150c057600080fd5b5081356001600160401b038111156150d757600080fd5b6020830191508360208260051b85010111156150f257600080fd5b9250929050565b6000806020838503121561510c57600080fd5b82356001600160401b0381111561512257600080fd5b61512e858286016150ae565b90969095509350505050565b60008083601f84011261514c57600080fd5b5081356001600160401b0381111561516357600080fd5b6020830191508360208285010111156150f257600080fd5b60008060008060006060868803121561519357600080fd5b85356001600160401b03808211156151aa57600080fd5b6151b689838a0161513a565b909750955060208801359150808211156151cf57600080fd5b6151db89838a0161513a565b909550935060408801359150808211156151f457600080fd5b508601610140818903121561520857600080fd5b809150509295509295909350565b60006020828403121561522857600080fd5b5035919050565b60008083601f84011261524157600080fd5b5081356001600160401b0381111561525857600080fd5b6020830191508360206060830285010111156150f257600080fd5b60008060008060006060868803121561528b57600080fd5b85356001600160401b03808211156152a257600080fd5b6152ae89838a0161522f565b909750955060208801359150808211156152c757600080fd5b908701906060828a0312156152db57600080fd5b909350604087013590808211156152f157600080fd5b506152fe8882890161522f565b969995985093965092949392505050565b6000806040838503121561532257600080fd5b82359150602083013561533481614f88565b809150509250929050565b6000806000806060858703121561535557600080fd5b843593506020850135925060408501356001600160401b0381111561537957600080fd5b6153858782880161513a565b95989497509550505050565b600080604083850312156153a457600080fd5b82356153af81614f88565b9150602083013561533481614f88565b600080600080606085870312156153d557600080fd5b84356001600160401b03808211156153ec57600080fd5b818701915087601f83011261540057600080fd5b81358181111561540f57600080fd5b8860208260071b850101111561542457600080fd5b602092830196509450508501359150604085013561544181614f88565b939692955090935050565b600181811c9082168061546057607f821691505b60208210810361548057634e487b7160e01b600052602260045260246000fd5b50919050565b6020808252818101527f4f776e61626c653a2063616c6c6572206973206e6f7420746865206f776e6572604082015260600190565b634e487b7160e01b600052601160045260246000fd5b600082198211156154e4576154e46154bb565b500190565b634e487b7160e01b600052603260045260246000fd5b600060018201615511576155116154bb565b5060010190565b60208082528181018390526000908460408401835b8681101561555b57823561554081614f88565b6001600160a01b03168252918301919083019060010161552d565b509695505050505050565b6000808335601e1984360301811261557d57600080fd5b8301803591506001600160401b0382111561559757600080fd5b6020019150600581901b36038213156150f257600080fd5b60208082528181018390526000908460408401835b8681101561555b5782356155d781615032565b62ffffff16825291830191908301906001016155c4565b80356155f981615060565b60020b8252602081013561560c81615060565b60020b6020830152604081013561562281615032565b62ffffff81166040840152505050565b6000608082016080835280855480835260a08501915086600052602092508260002060005b82811015615692578154600281810b8652601882901c900b8686015260301c62ffffff16604085015260609093019260019182019101615657565b505050809250506156a5818401856155ee565b509392505050565b8015158114611e9957600080fd5b600080604083850312156156ce57600080fd5b82516156d9816156ad565b6020939093015192949293505050565b6001600160a01b03938416815291909216602082015262ffffff909116604082015260600190565b60006020828403121561572357600080fd5b81516107d481614f88565b6001600160a01b0383168152608081016107d460208301846155ee565b60006020828403121561575d57600080fd5b81516107d4816156ad565b813561577381615060565b815462ffffff82811662ffffff198316178455602085013561579481615060565b8060181b9050818416935065ffffff00000091508082168465ffffffffffff1985161717855560408601356157c881615032565b911668ffffffffffffffffff19929092169092171760309190911b68ffffff0000000000001617905550565b6001600160a01b038681168252858116602083015284811660408301528316606082015260e0810161582960808301846155ee565b9695505050505050565b600082821015615845576158456154bb565b500390565b634e487b7160e01b600052603160045260246000fd5b6020808252601f908201527f5265656e7472616e637947756172643a207265656e7472616e742063616c6c00604082015260600190565b6020808252825160a083830152805160c0840181905260009291820190839060e08601905b808310156158fe5783518051600290810b845286820151900b8684015260409081015162ffffff169083015292840192600192909201916060909101906158bc565b50928601516001600160a01b03811660408701529260408701516001600160a01b0381166060880152935060608701516001600160a01b0381166080880152935060808701516001600160a01b03811660a08801529350615829565b6000806000806080858703121561597057600080fd5b505082516020840151604085015160609095015191969095509092509050565b6001600160a01b0394909416845260208401929092526040830152606082015260800190565b6000602082840312156159c857600080fd5b5051919050565b6000602082840312156159e157600080fd5b815161ffff811681146107d457600080fd5b60008060408385031215615a0657600080fd5b505080516020909101519092909150565b6001600160801b0381168114611e9957600080fd5b600060208284031215615a3e57600080fd5b81356107d481615a17565b6020808252602e908201527f496e697469616c697a61626c653a20636f6e747261637420697320616c72656160408201526d191e481a5b9a5d1a585b1a5e995960921b606082015260800190565b6020808252602b908201527f496e697469616c697a61626c653a20636f6e7472616374206973206e6f74206960408201526a6e697469616c697a696e6760a81b606082015260800190565b6000808335601e19843603018112615af957600080fd5b8301803591506001600160401b03821115615b1357600080fd5b6020019150600781901b36038213156150f257600080fd5b6000823560be19833603018112615b4157600080fd5b9190910192915050565b6000808335601e19843603018112615b6257600080fd5b8301803591506001600160401b03821115615b7c57600080fd5b6020019150368190038213156150f257600080fd5b8183823760009101908152919050565b8035612e24816156ad565b600060208284031215615bbe57600080fd5b81356107d4816156ad565b600060208284031215615bdb57600080fd5b815160ff811681146107d457600080fd5b600181815b80851115615c27578160001904821115615c0d57615c0d6154bb565b80851615615c1a57918102915b93841c9390800290615bf1565b509250929050565b600082615c3e57506001610716565b81615c4b57506000610716565b8160018114615c615760028114615c6b57615c87565b6001915050610716565b60ff841115615c7c57615c7c6154bb565b50506001821b610716565b5060208310610133831016604e8410600b8410161715615caa575081810a610716565b615cb48383615bec565b8060001904821115615cc857615cc86154bb565b029392505050565b60006107d460ff841683615c2f565b6000808335601e19843603018112615cf657600080fd5b83016020810192503590506001600160401b03811115615d1557600080fd5b8060071b36038313156150f257600080fd5b8183526000602080850194508260005b85811015615d76578135615d4a81615a17565b6001600160801b03168752615d638388018385016155ee565b6080968701969190910190600101615d37565b509495945050505050565b81835281816020850137506000828201602090810191909152601f909101601f19169091010190565b60006020808352615dbb8485615cdf565b606083860152615dcf608086018284615d27565b915050615dde82860186615cdf565b601f1980878503016040880152615df6848385615d27565b93506040880135925060be19883603018312615e1157600080fd5b868403016060870152508501803536829003601e19018112615e3257600080fd5b810180356001600160401b03811115615e4a57600080fd5b803603831315615e5957600080fd5b60c08452615e6d60c0850182878501615d81565b915050615e7b848301614f9d565b6001600160a01b031684840152615e9460408301614f9d565b6001600160a01b038116604085015293506060820135606084015260808201356080840152615ec560a08301615ba1565b80151560a08501529350615829565b634e487b7160e01b600052601260045260246000fd5b60008060408385031215615efd57600080fd5b8251615f0881615a17565b602084015190925061533481615a17565b6000816000190483118215151615615f3357615f336154bb565b500290565b600082615f5557634e487b7160e01b600052601260045260246000fd5b500490565b60008251615b41818460208701614f2956fea26469706673582212207a6405e9f468705ffb1d71c136ecf5c7855fe7699de5020ff27708c1fdf4877964736f6c634300080d0033",
  "deployedBytecode": "0x608060405234801561001057600080fd5b506004361061028a5760003560e01c806386ac1cb91161015c578063c7075041116100ce578063dc9ad4c111610087578063dc9ad4c1146105ff578063dd62ed3e14610607578063e7c7cb911461061a578063f2eb3e3414610641578063f2fde38b1461064a578063f4effe411461065d57600080fd5b8063c70750411461058f578063c7a4ae17146105aa578063d0ebdbe7146105bd578063d21220a7146105d0578063d3487997146105e3578063d8953ca7146105f657600080fd5b806395d89b411161012057806395d89b411461050a578063a457c2d714610512578063a9059cbb14610525578063b9f24cb214610538578063bbfe704e1461055f578063c45a01551461056857600080fd5b806386ac1cb9146104955780638c04166f146104a85780638da5cb5b146104be5780638daf0ce4146104cf57806394bf804d146104e257600080fd5b806339509351116102005780634e380ab4116101b95780634e380ab4146103fb57806356d9b0511461040e5780635fdecdfa1461042157806370a082311461045c578063715018a6146104855780637ecd67171461048d57600080fd5b806339509351146103935780633cbff3fe146103a65780633f7b6135146103b957806342fb9d44146103cc578063481c6a75146103d55780634b164140146103e857600080fd5b806314b806301161025257806314b806301461032357806318160ddd1461032c57806323b872dd1461033457806326d8954514610347578063313ce567146103715780633926ab5f1461038057600080fd5b8063065756db1461028f57806306fdde03146102ab578063095ea7b3146102c05780630d6e6631146102e35780630dfe1681146102f8575b600080fd5b61029860d05481565b6040519081526020015b60405180910390f35b6102b3610670565b6040516102a29190614f55565b6102d36102ce366004614fa8565b610702565b60405190151581526020016102a2565b6102f66102f1366004614fd4565b61071c565b005b60c95461030b906001600160a01b031681565b6040516001600160a01b0390911681526020016102a2565b61029860cb5481565b606754610298565b6102d3610342366004614ff1565b6107b5565b60d35461035d90600160b81b900462ffffff1681565b60405162ffffff90911681526020016102a2565b604051601281526020016102a2565b6102f661038e366004615043565b6107db565b6102d36103a1366004614fa8565b610857565b6102f66103b436600461506f565b610879565b6102f66103c736600461508c565b6108f3565b61029860d15481565b60d25461030b906001600160a01b031681565b6102f66103f63660046150f9565b61099a565b6102f6610409366004615043565b610b0c565b6102f661041c36600461517b565b610b88565b61043461042f366004615216565b6110e7565b60408051600294850b81529290930b602083015262ffffff16918101919091526060016102a2565b61029861046a366004614fd4565b6001600160a01b031660009081526065602052604090205490565b6102f6611123565b6102f6611159565b6102f66104a33660046150f9565b6111e7565b60d35461035d90600160d01b900462ffffff1681565b6033546001600160a01b031661030b565b6102f66104dd366004615273565b611262565b6104f56104f036600461530f565b6118ad565b604080519283526020830191909152016102a2565b6102b3611be9565b6102d3610520366004614fa8565b611bf8565b6102d3610533366004614fa8565b611c7e565b61030b7f000000000000000000000000000000000000000000000000000000000000000081565b61029860cf5481565b61030b7f000000000000000000000000000000000000000000000000000000000000000081565b61059760fa81565b60405161ffff90911681526020016102a2565b60d35461030b906001600160a01b031681565b6102f66105cb366004614fd4565b611c8c565b60ca5461030b906001600160a01b031681565b6102f66105f136600461533f565b611d04565b61029860ce5481565b6102f6611d14565b610298610615366004615391565b611dd6565b60d35461062e90600160a01b900460020b81565b60405160029190910b81526020016102a2565b61029860cc5481565b6102f6610658366004614fd4565b611e01565b6104f561066b3660046153bf565b611e9c565b60606068805461067f9061544c565b80601f01602080910402602001604051908101604052809291908181526020018280546106ab9061544c565b80156106f85780601f106106cd576101008083540402835291602001916106f8565b820191906000526020600020905b8154815290600101906020018083116106db57829003601f168201915b5050505050905090565b6000336107108185856129ff565b60019150505b92915050565b60d2546001600160a01b031633146107605760405162461bcd60e51b81526020600482015260026024820152614e4d60f01b60448201526064015b60405180910390fd5b60d380546001600160a01b0319166001600160a01b0383169081179091556040519081527f6b7f177e85ebe3aabaf1339b9a445ac908b2bef730372180fa280958e2414ee3906020015b60405180910390a150565b6000336107c3858285612b23565b6107ce858585612b97565b60019150505b9392505050565b6033546001600160a01b031633146108055760405162461bcd60e51b815260040161075790615486565b60d3805462ffffff60b81b1916600160b81b62ffffff8416908102919091179091556040519081527f66676a452ead560b155328baa45bcdea69b3dd4c0a071793daa16721ffde80b6906020016107aa565b60003361071081858561086a8383611dd6565b61087491906154d1565b6129ff565b6033546001600160a01b031633146108a35760405162461bcd60e51b815260040161075790615486565b60d3805462ffffff60a01b1916600160a01b62ffffff841602179055604051600282900b81527f1877ca7362b6ff9f22ec5bf924615fb25be0035a56f42d996798073cceb1edd4906020016107aa565b6033546001600160a01b0316331461091d5760405162461bcd60e51b815260040161075790615486565b606754156109525760405162461bcd60e51b8152602060048201526002602482015261545360f01b6044820152606401610757565b60cb82905560cc81905560408051838152602081018390527ff8966e026442bb0adb17149a6d44e394d2b6eb3c5cc1dc71b3c0698000548ae691015b60405180910390a15050565b6033546001600160a01b031633146109c45760405162461bcd60e51b815260040161075790615486565b60005b81811015610ada5760008383838181106109e3576109e36154e9565b90506020020160208101906109f89190614fd4565b6001600160a01b031603610a325760405162461bcd60e51b81526020600482015260016024820152602d60f91b6044820152606401610757565b610a64838383818110610a4757610a476154e9565b9050602002016020810190610a5c9190614fd4565b60d490612d65565b610a955760405162461bcd60e51b815260206004820152600260248201526104e560f41b6044820152606401610757565b610ac7838383818110610aaa57610aaa6154e9565b9050602002016020810190610abf9190614fd4565b60d490612d87565b5080610ad2816154ff565b9150506109c7565b507f024551cce253d1a442bfe99dae530a00a492fb8c67c4456cce3c9d23eecd3961828260405161098e929190615518565b6033546001600160a01b03163314610b365760405162461bcd60e51b815260040161075790615486565b60d3805462ffffff60d01b1916600160d01b62ffffff8416908102919091179091556040519081527fefbf89cdee00452a08dfede9038a71e03d558dfbb8a2025b6f0af969ee0fa1f7906020016107aa565b6000610b946001612d9c565b90508015610bac576000805461ff0019166101001790555b6000610bb88380615566565b905011610bed5760405162461bcd60e51b815260206004820152600360248201526213919560ea1b6044820152606401610757565b6000610bff6040840160208501614fd4565b6001600160a01b031603610c3a5760405162461bcd60e51b8152602060048201526002602482015261054360f41b6044820152606401610757565b610c4a6060830160408401614fd4565b6001600160a01b0316610c636040840160208501614fd4565b6001600160a01b031610610c9f5760405162461bcd60e51b815260206004820152600360248201526257544f60e81b6044820152606401610757565b600082608001351180610cb6575060008260a00135115b610ce65760405162461bcd60e51b81526020600482015260016024820152604960f81b6044820152606401610757565b6000610cf860e0840160c08501614fd4565b6001600160a01b031603610d375760405162461bcd60e51b8152600401610757906020808252600490820152634e415a4d60e01b604082015260600190565b610daa86868080601f01602080910402602001604051908101604052809392919081815260200183838082843760009201919091525050604080516020601f8a018190048102820181019092528881529250889150879081908401838280828437600092019190915250612e2992505050565b610db2612e5e565b610de4610dbf8380615566565b610dcf6040860160208701614fd4565b610ddf6060870160408801614fd4565b612e8d565b610df46040830160208401614fd4565b60c980546001600160a01b0319166001600160a01b0392909216919091179055610e246060830160408401614fd4565b60ca80546001600160a01b0319166001600160a01b0392909216919091179055610e5c610e576080840160608501614fd4565b612ff1565b610e6c60e0830160c08401614fd4565b60d280546001600160a01b0319166001600160a01b03929092169190911790557f1b402611d70c7735d942445aaa3ebbf878149bece6b797870b44a581c5f7f4c9610eb78380615566565b604051610ec59291906155af565b60405180910390a17ff8966e026442bb0adb17149a6d44e394d2b6eb3c5cc1dc71b3c0698000548ae6826080013560cb8190558360a0013560cc819055604051610f19929190918252602082015260400190565b60405180910390a17f9b6ffaf4cbfd923495440b7f17ced9394289f001b3ead53ab67e2c3f3e39b0f5610f5260e0840160c08501614fd4565b6040516001600160a01b03909116815260200160405180910390a17f1877ca7362b6ff9f22ec5bf924615fb25be0035a56f42d996798073cceb1edd4610f9f610100840160e0850161506f565b60d3805462ffffff60a01b1916600160a01b62ffffff84160217905560405160029190910b815260200160405180910390a17f66676a452ead560b155328baa45bcdea69b3dd4c0a071793daa16721ffde80b661100461012084016101008501615043565b60d3805462ffffff60b81b1916600160b81b62ffffff9390931692830217905560405190815260200160405180910390a17fefbf89cdee00452a08dfede9038a71e03d558dfbb8a2025b6f0af969ee0fa1f761106861014084016101208501615043565b60d3805462ffffff60d01b1916600160d01b62ffffff9390931692830217905560405190815260200160405180910390a180156110df576000805461ff0019169055604051600181527f7f26b83ff96e1f2b6a682f133852f6798a09c465da95921460cefb38474024989060200160405180910390a15b505050505050565b60cd81815481106110f757600080fd5b600091825260209091200154600281810b925063010000008204900b90600160301b900462ffffff1683565b6033546001600160a01b0316331461114d5760405162461bcd60e51b815260040161075790615486565b6111576000612ff1565b565b60d0805460d1805460009384905592905590811561118e5760d25460c95461118e916001600160a01b03918216911684613043565b80156111b15760d25460ca546111b1916001600160a01b03918216911683613043565b60408051838152602081018390527fa292e28c648da34e20b372054caab5f0359198b3b4d5f0ef9945d4616e15dc97910161098e565b6033546001600160a01b031633146112115760405162461bcd60e51b815260040161075790615486565b60c95460ca5461123191849184916001600160a01b039081169116612e8d565b7f1b402611d70c7735d942445aaa3ebbf878149bece6b797870b44a581c5f7f4c9828260405161098e9291906155af565b60d2546001600160a01b031633146112a15760405162461bcd60e51b81526020600482015260026024820152614e4d60f01b6044820152606401610757565b60005b848110156115d157600073__$b131e44167300e1b6d47510635310686a7$__6335f8054760cd8989868181106112dc576112dc6154e9565b9050606002016040518363ffffffff1660e01b81526004016112ff929190615632565b6040805180830381865af415801561131b573d6000803e3d6000fd5b505050506040513d601f19601f8201168201806040525081019061133f91906156bb565b50905080156113745760405162461bcd60e51b81526020600482015260016024820152602960f91b6044820152606401610757565b60c95460ca546000916001600160a01b037f0000000000000000000000000000000000000000000000000000000000000000811692631698ee8292821691168b8b888181106113c5576113c56154e9565b90506060020160400160208101906113dd9190615043565b6040518463ffffffff1660e01b81526004016113fb939291906156e9565b602060405180830381865afa158015611418573d6000803e3d6000fd5b505050506040513d601f19601f8201168201806040525081019061143c9190615711565b90506001600160a01b03811661147a5760405162461bcd60e51b815260206004820152600360248201526204e55560ec1b6044820152606401610757565b61148560d482612d65565b6114b55760405162461bcd60e51b81526020600482015260016024820152600560fc1b6044820152606401610757565b73__$57c880716d25c772e0b1e547659075b66d$__636b018820828a8a878181106114e2576114e26154e9565b9050606002016040518363ffffffff1660e01b815260040161150592919061572e565b602060405180830381865af4158015611522573d6000803e3d6000fd5b505050506040513d601f19601f82011682018060405250810190611546919061574b565b61157a5760405162461bcd60e51b815260206004820152600560248201526472616e676560d81b6044820152606401610757565b60cd88888581811061158e5761158e6154e9565b835460018101855560009485526020909420606090910292909201929190910190506115ba8282615768565b5050505080806115c9906154ff565b9150506112a4565b506115db836130ab565b60005b818110156110df5760008073__$b131e44167300e1b6d47510635310686a7$__6335f8054760cd878787818110611617576116176154e9565b9050606002016040518363ffffffff1660e01b815260040161163a929190615632565b6040805180830381865af4158015611656573d6000803e3d6000fd5b505050506040513d601f19601f8201168201806040525081019061167a91906156bb565b91509150816116b05760405162461bcd60e51b8152602060048201526002602482015261272960f11b6044820152606401610757565b60c95460ca5473__$b131e44167300e1b6d47510635310686a7$__91637806db78917f00000000000000000000000000000000000000000000000000000000000000009130916001600160a01b0391821691168a8a8a818110611715576117156154e9565b9050606002016040518663ffffffff1660e01b815260040161173b9594939291906157f4565b60006040518083038186803b15801561175357600080fd5b505af4158015611767573d6000803e3d6000fd5b5050505060cd818154811061177e5761177e6154e9565b6000918252602090912001805468ffffffffffffffffff19169055805b60cd546117aa90600190615833565b8110156118625760cd6117be8260016154d1565b815481106117ce576117ce6154e9565b9060005260206000200160cd82815481106117eb576117eb6154e9565b6000918252602090912082549101805462ffffff92831662ffffff19821681178355845463010000009081900485160265ffffffffffff1990921617178082559254600160301b9081900490921690910268ffffff000000000000199092169190911790558061185a816154ff565b91505061179b565b5060cd8054806118745761187461584a565b6000828152602090208101600019908101805468ffffffffffffffffff19169055019055508190506118a5816154ff565b9150506115de565b6000806002609754036118d25760405162461bcd60e51b815260040161075790615860565b6002609755836119095760405162461bcd60e51b81526020600482015260026024820152614d4160f01b6044820152606401610757565b60d3546001600160a01b0316158061192b575060d3546001600160a01b031633145b61195b5760405162461bcd60e51b81526020600482015260016024820152602960f91b6044820152606401610757565b30600061196760675490565b9050600080600080600085116119855760cb5460cc54600080611ada565b73__$3d23d8578387a47facd93bb77f6fe6e81b$__63e56f4d916040518060a0016040528060cd805480602002602001604051908101604052809291908181526020016000905b82821015611a1f5760008481526020908190206040805160608101825291850154600281810b845263010000008204900b83850152600160301b900462ffffff16908201528252600190920191016119cc565b505050908252506001600160a01b037f00000000000000000000000000000000000000000000000000000000000000008116602083015260c954811660408084019190915260ca5482166060840152908b16608090920191909152516001600160e01b031960e084901b168152611a999190600401615897565b608060405180830381865af4158015611ab6573d6000803e3d6000fd5b505050506040513d601f19601f82011682018060405250810190611ada919061595a565b93509350935093506000808611611af957670de0b6b3a7640000611afb565b855b9050611b088b8683613fd9565b9850611b158b8583613fd9565b9750611b218a8c614022565b8815611b3f5760c954611b3f906001600160a01b031633898c614101565b8715611b5d5760ca54611b5d906001600160a01b031633898b614101565b60408051848152602081018490527fa8a7bd84de20ad33f47cc88030f6f22b34f38f25b331ccbc8665eb32e36c11ee910160405180910390a17f5f11830295067c4bcc7d02d4e3b048cd7427be50a3aeb6afc9d3d559ee64bcfa8a8c8b8b604051611bcb9493929190615990565b60405180910390a15050505050505060016097819055509250929050565b60606069805461067f9061544c565b60003381611c068286611dd6565b905083811015611c665760405162461bcd60e51b815260206004820152602560248201527f45524332303a2064656372656173656420616c6c6f77616e63652062656c6f77604482015264207a65726f60d81b6064820152608401610757565b611c7382868684036129ff565b506001949350505050565b600033610710818585612b97565b6033546001600160a01b03163314611cb65760405162461bcd60e51b815260040161075790615486565b60d280546001600160a01b0319166001600160a01b0383169081179091556040519081527f9b6ffaf4cbfd923495440b7f17ced9394289f001b3ead53ab67e2c3f3e39b0f5906020016107aa565b611d0e8484614139565b50505050565b60ce805460cf8054600093849055929055908115611d635760c954611d63906001600160a01b03167f000000000000000000000000000000000000000000000000000000000000000084613043565b8015611da05760ca54611da0906001600160a01b03167f000000000000000000000000000000000000000000000000000000000000000083613043565b60408051838152602081018390527ff640f308bdf7deba15c1aba8a4cf108b0f79d1ca98748696470dc0007f7cf8d3910161098e565b6001600160a01b03918216600090815260666020908152604080832093909416825291909152205490565b6033546001600160a01b03163314611e2b5760405162461bcd60e51b815260040161075790615486565b6001600160a01b038116611e905760405162461bcd60e51b815260206004820152602660248201527f4f776e61626c653a206e6577206f776e657220697320746865207a65726f206160448201526564647265737360d01b6064820152608401610757565b611e9981612ff1565b50565b600080600260975403611ec15760405162461bcd60e51b815260040161075790615860565b60026097556000611ed160675490565b905060008111611f085760405162461bcd60e51b8152602060048201526002602482015261545360f01b6044820152606401610757565b611f416040518060c001604052806000815260200160008152602001600081526020016000815260200160008152602001600081525090565b73__$3d23d8578387a47facd93bb77f6fe6e81b$__63e56f4d916040518060a0016040528060cd805480602002602001604051908101604052809291908181526020016000905b82821015611fdb5760008481526020908190206040805160608101825291850154600281810b845263010000008204900b83850152600160301b900462ffffff1690820152825260019092019101611f88565b505050908252506001600160a01b037f00000000000000000000000000000000000000000000000000000000000000008116602083015260c954811660408084019190915260ca54909116606083015230608090920191909152516001600160e01b031960e084901b1681526120549190600401615897565b608060405180830381865af4158015612071573d6000803e3d6000fd5b505050506040513d601f19601f82011682018060405250810190612095919061595a565b606085015260408401526020830152815260ce5460d0546120b691906154d1565b60c9546040516370a0823160e01b81523060048201526001600160a01b03909116906370a0823190602401602060405180830381865afa1580156120fe573d6000803e3d6000fd5b505050506040513d601f19601f8201168201806040525081019061212291906159b6565b61212c9190615833565b608082015260cf5460d15461214191906154d1565b60ca546040516370a0823160e01b81523060048201526001600160a01b03909116906370a0823190602401602060405180830381865afa158015612189573d6000803e3d6000fd5b505050506040513d601f19601f820116820180604052508101906121ad91906159b6565b6121b79190615833565b8160a001818152505060008073__$30ef26875820c516a3c36c5c0a5fd73943$__636d50cdaf8460400151856060015160d260009054906101000a90046001600160a01b03166001600160a01b031663ccdf7a026040518163ffffffff1660e01b8152600401602060405180830381865afa15801561223a573d6000803e3d6000fd5b505050506040513d601f19601f8201168201806040525081019061225e91906159cf565b6040516001600160e01b031960e086901b1681526004810193909352602483019190915261ffff16604482015260fa60648201526084016040805180830381865af41580156122b1573d6000803e3d6000fd5b505050506040513d601f19601f820116820180604052508101906122d591906159f3565b915091508183604001516122e99190615833565b835184906122f8908390615833565b905250606083015161230b908290615833565b8360200181815161231c9190615833565b90525050815161232e915087846142d7565b935061233f816020015187846142d7565b9250838160800151101580156123595750828160a0015110155b156123e6576123683387614385565b83156123855760c954612385906001600160a01b03168686613043565b82156123a25760ca546123a2906001600160a01b03168685613043565b7f86dacd5ce62967ebd3d915a82b22ad7e159538e50c7ba451e073fec048d9f127858786866040516123d79493929190615990565b60405180910390a150506129ef565b866124175760405162461bcd60e51b81526020600482015260016024820152602160f91b6044820152606401610757565b6124213387614385565b61244c6040518060800160405280600081526020016000815260200160008152602001600081525090565b60005b8881101561268057898982818110612469576124696154e9565b61247f9260206080909202019081019150615a2c565b6001600160801b03166000036124bc5760405162461bcd60e51b8152602060048201526002602482015261262d60f11b6044820152606401610757565b60c95460ca5460009161260b916001600160a01b037f0000000000000000000000000000000000000000000000000000000000000000811692631698ee829290821691168f8f88818110612512576125126154e9565b612529926080918202019081019150606001615043565b6040518463ffffffff1660e01b8152600401612547939291906156e9565b602060405180830381865afa158015612564573d6000803e3d6000fd5b505050506040513d601f19601f820116820180604052508101906125889190615711565b8c8c8581811061259a5761259a6154e9565b6125b3926040608090920201908101915060200161506f565b8d8d868181106125c5576125c56154e9565b6125de926060608090920201908101915060400161506f565b8e8e878181106125f0576125f06154e9565b6126069260206080909202019081019150615a2c565b6144d3565b905080604001518360400181815161262391906154d1565b905250606080820151908401805161263c9083906154d1565b9052508051835184906126509083906154d1565b90525060208082015190840180516126699083906154d1565b905250819050612678816154ff565b91505061244f565b506126938160400151826060015161481f565b73__$30ef26875820c516a3c36c5c0a5fd73943$__636d50cdaf8260400151836060015160d260009054906101000a90046001600160a01b03166001600160a01b031663ccdf7a026040518163ffffffff1660e01b8152600401602060405180830381865afa15801561270a573d6000803e3d6000fd5b505050506040513d601f19601f8201168201806040525081019061272e91906159cf565b6040516001600160e01b031960e086901b1681526004810193909352602483019190915261ffff16604482015260fa60648201526084016040805180830381865af4158015612781573d6000803e3d6000fd5b505050506040513d601f19601f820116820180604052508101906127a591906159f3565b60608301526040820152841580159061284f575060008560ce5460d0546127cc91906154d1565b60c9546040516370a0823160e01b81523060048201526001600160a01b03909116906370a0823190602401602060405180830381865afa158015612814573d6000803e3d6000fd5b505050506040513d601f19601f8201168201806040525081019061283891906159b6565b6128429190615833565b61284c9190615833565b10155b1561286b5760c95461286b906001600160a01b03168787613043565b60008411801561290c575060008460cf5460d15461288991906154d1565b60ca546040516370a0823160e01b81523060048201526001600160a01b03909116906370a0823190602401602060405180830381865afa1580156128d1573d6000803e3d6000fd5b505050506040513d601f19601f820116820180604052508101906128f591906159b6565b6128ff9190615833565b6129099190615833565b10155b156129285760ca54612928906001600160a01b03168786613043565b805160208083015160408051338152928301939093528183015290517fbcc5876d59ecdf66ef7ccae24657b11650939218782f8d741e78fd3c35d285a39181900360600190a16040808201516060830151825191825260208201527fa8a7bd84de20ad33f47cc88030f6f22b34f38f25b331ccbc8665eb32e36c11ee910160405180910390a17f86dacd5ce62967ebd3d915a82b22ad7e159538e50c7ba451e073fec048d9f127868887876040516129e39493929190615990565b60405180910390a15050505b6001609755909590945092505050565b6001600160a01b038316612a615760405162461bcd60e51b8152602060048201526024808201527f45524332303a20617070726f76652066726f6d20746865207a65726f206164646044820152637265737360e01b6064820152608401610757565b6001600160a01b038216612ac25760405162461bcd60e51b815260206004820152602260248201527f45524332303a20617070726f766520746f20746865207a65726f206164647265604482015261737360f01b6064820152608401610757565b6001600160a01b0383811660008181526066602090815260408083209487168084529482529182902085905590518481527f8c5be1e5ebec7d5bd14f71427d1e84f3dd0314c0f7b2291e5b200ac8c7c3b925910160405180910390a3505050565b6000612b2f8484611dd6565b90506000198114611d0e5781811015612b8a5760405162461bcd60e51b815260206004820152601d60248201527f45524332303a20696e73756666696369656e7420616c6c6f77616e63650000006044820152606401610757565b611d0e84848484036129ff565b6001600160a01b038316612bfb5760405162461bcd60e51b815260206004820152602560248201527f45524332303a207472616e736665722066726f6d20746865207a65726f206164604482015264647265737360d81b6064820152608401610757565b6001600160a01b038216612c5d5760405162461bcd60e51b815260206004820152602360248201527f45524332303a207472616e7366657220746f20746865207a65726f206164647260448201526265737360e81b6064820152608401610757565b6001600160a01b03831660009081526065602052604090205481811015612cd55760405162461bcd60e51b815260206004820152602660248201527f45524332303a207472616e7366657220616d6f756e7420657863656564732062604482015265616c616e636560d01b6064820152608401610757565b6001600160a01b03808516600090815260656020526040808220858503905591851681529081208054849290612d0c9084906154d1565b92505081905550826001600160a01b0316846001600160a01b03167fddf252ad1be2c89b69c2b068fc378daa952ba7f163c4a11628f55a4df523b3ef84604051612d5891815260200190565b60405180910390a3611d0e565b6001600160a01b038116600090815260018301602052604081205415156107d4565b60006107d4836001600160a01b038416614955565b60008054610100900460ff1615612de3578160ff166001148015612dbf5750303b155b612ddb5760405162461bcd60e51b815260040161075790615a49565b506000919050565b60005460ff808416911610612e0a5760405162461bcd60e51b815260040161075790615a49565b506000805460ff191660ff92909216919091179055600190565b919050565b600054610100900460ff16612e505760405162461bcd60e51b815260040161075790615a97565b612e5a8282614a48565b5050565b600054610100900460ff16612e855760405162461bcd60e51b815260040161075790615a97565b611157614a96565b60005b83811015612fea5760007f00000000000000000000000000000000000000000000000000000000000000006001600160a01b0316631698ee828585898987818110612edd57612edd6154e9565b9050602002016020810190612ef29190615043565b6040518463ffffffff1660e01b8152600401612f10939291906156e9565b602060405180830381865afa158015612f2d573d6000803e3d6000fd5b505050506040513d601f19601f82011682018060405250810190612f519190615711565b90506001600160a01b038116612f8e5760405162461bcd60e51b81526020600482015260026024820152615a4160f01b6044820152606401610757565b612f9960d482612d65565b15612fca5760405162461bcd60e51b81526020600482015260016024820152600560fc1b6044820152606401610757565b612fd560d482614ac4565b50508080612fe2906154ff565b915050612e90565b5050505050565b603380546001600160a01b038381166001600160a01b0319831681179093556040519116919082907f8be0079c531659141344cd1fd0a4f28419497f9722a3daafe3b4186f6b6457e090600090a35050565b6040516001600160a01b0383166024820152604481018290526130a690849063a9059cbb60e01b906064015b60408051601f198184030181529190526020810180516001600160e01b03166001600160e01b031990931692909217909152614ad9565b505050565b6002609754036130cd5760405162461bcd60e51b815260040161075790615860565b6002609755600080805b6130e18480615ae2565b90508110156133125760c95460ca546000916001600160a01b037f0000000000000000000000000000000000000000000000000000000000000000811692631698ee8292821691166131338980615ae2565b87818110613143576131436154e9565b61315a926080918202019081019150606001615043565b6040518463ffffffff1660e01b8152600401613178939291906156e9565b602060405180830381865afa158015613195573d6000803e3d6000fd5b505050506040513d601f19601f820116820180604052508101906131b99190615711565b60d35460405163db46de5360e01b81526001600160a01b0383166004820152600160b81b820462ffffff166024820152600160a01b90910460020b6044820152909150819073__$fa5a18c13b4d815a743b91389b9a36db0f$__9063db46de539060640160006040518083038186803b15801561323557600080fd5b505af4158015613249573d6000803e3d6000fd5b50600092506132d691508390506132608980615ae2565b87818110613270576132706154e9565b613289926040608090920201908101915060200161506f565b6132938a80615ae2565b888181106132a3576132a36154e9565b6132bc926060608090920201908101915060400161506f565b6132c68b80615ae2565b898181106125f0576125f06154e9565b90508060400151866132e891906154d1565b95508060600151856132fa91906154d1565b9450505050808061330a906154ff565b9150506130d7565b5060008211806133225750600081115b1561347b57613331828261481f565b73__$30ef26875820c516a3c36c5c0a5fd73943$__636d50cdaf838360d260009054906101000a90046001600160a01b03166001600160a01b031663ccdf7a026040518163ffffffff1660e01b8152600401602060405180830381865afa1580156133a0573d6000803e3d6000fd5b505050506040513d601f19601f820116820180604052508101906133c491906159cf565b6040516001600160e01b031960e086901b1681526004810193909352602483019190915261ffff16604482015260fa60648201526084016040805180830381865af4158015613417573d6000803e3d6000fd5b505050506040513d601f19601f8201168201806040525081019061343b91906159f3565b60408051838152602081018390529294509092507f44f99f60fee0997e83c06676bc4d0755e32c13f1df0f28ae3086c4f0622ba743910160405180910390a15b600061348a6040850185615b2b565b606001351115613be8576134b56134a46040850185615b2b565b610a5c906040810190602001614fd4565b156134e75760405162461bcd60e51b815260206004820152600260248201526104e560f41b6044820152606401610757565b60c9546040516370a0823160e01b81523060048201526000916001600160a01b0316906370a0823190602401602060405180830381865afa158015613530573d6000803e3d6000fd5b505050506040513d601f19601f8201168201806040525081019061355491906159b6565b60ca546040516370a0823160e01b81523060048201529192506000916001600160a01b03909116906370a0823190602401602060405180830381865afa1580156135a2573d6000803e3d6000fd5b505050506040513d601f19601f820116820180604052508101906135c691906159b6565b90506135fd6135d86040870187615b2b565b6135e9906060810190604001614fd4565b60c9546001600160a01b0316906000614bab565b61363261360d6040870187615b2b565b61361e906060810190604001614fd4565b60ca546001600160a01b0316906000614bab565b6136666136426040870187615b2b565b613653906060810190604001614fd4565b60c9546001600160a01b03169084614bab565b61369a6136766040870187615b2b565b613687906060810190604001614fd4565b60ca546001600160a01b03169083614bab565b60006136a96040870187615b2b565b6136ba906060810190604001614fd4565b6001600160a01b03166136d06040880188615b2b565b6136da9080615b4b565b6040516136e8929190615b91565b6000604051808303816000865af19150503d8060008114613725576040519150601f19603f3d011682016040523d82523d6000602084013e61372a565b606091505b50509050806137645760405162461bcd60e51b8152600401610757906020808252600490820152630737761760e41b604082015260600190565b6137746135d86040880188615b2b565b61378461360d6040880188615b2b565b60c9546040516370a0823160e01b81523060048201526000916001600160a01b0316906370a0823190602401602060405180830381865afa1580156137cd573d6000803e3d6000fd5b505050506040513d601f19601f820116820180604052508101906137f191906159b6565b60ca546040516370a0823160e01b81523060048201529192506000916001600160a01b03909116906370a0823190602401602060405180830381865afa15801561383f573d6000803e3d6000fd5b505050506040513d601f19601f8201168201806040525081019061386391906159b6565b90506138726040890189615b2b565b6138839060c081019060a001615bac565b15613aac5761395673__$fa5a18c13b4d815a743b91389b9a36db0f$__639ff4c50d6138b260408c018c615b2b565b6138c3906040810190602001614fd4565b60d35460405160e084901b6001600160e01b03191681526001600160a01b039092166004830152600160b81b900462ffffff166024820152604401602060405180830381865af415801561391b573d6000803e3d6000fd5b505050506040513d601f19601f8201168201806040525081019061393f91906159b6565b60d354600160d01b900462ffffff166127106142d7565b613a0261396660408b018b615b2b565b6080013560c960009054906101000a90046001600160a01b03166001600160a01b031663313ce5676040518163ffffffff1660e01b8152600401602060405180830381865afa1580156139bd573d6000803e3d6000fd5b505050506040513d601f19601f820116820180604052508101906139e19190615bc9565b6139ec90600a615cd0565b6139f960408d018d615b2b565b606001356142d7565b11613a335760405162461bcd60e51b81526020600482015260016024820152605360f81b6044820152606401610757565b613a406040890189615b2b565b613a4e9060800135856154d1565b8110158015613a765750613a656040890189615b2b565b613a73906060013586615833565b82145b613aa75760405162461bcd60e51b815260206004820152600260248201526129a360f11b6044820152606401610757565b613be2565b613ad673__$fa5a18c13b4d815a743b91389b9a36db0f$__630578711c6138b260408c018c615b2b565b613b3d613ae660408b018b615b2b565b6080013560ca60009054906101000a90046001600160a01b03166001600160a01b031663313ce5676040518163ffffffff1660e01b8152600401602060405180830381865afa1580156139bd573d6000803e3d6000fd5b11613b6e5760405162461bcd60e51b81526020600482015260016024820152605360f81b6044820152606401610757565b613b7b6040890189615b2b565b613b899060800135866154d1565b8210158015613bb15750613ba06040890189615b2b565b613bae906060013585615833565b81145b613be25760405162461bcd60e51b815260206004820152600260248201526129a360f11b6044820152606401610757565b50505050505b60005b613bf86020850185615ae2565b9050811015613f975760c95460ca546000916001600160a01b037f0000000000000000000000000000000000000000000000000000000000000000811692631698ee829282169116613c4d60208a018a615ae2565b87818110613c5d57613c5d6154e9565b613c74926080918202019081019150606001615043565b6040518463ffffffff1660e01b8152600401613c92939291906156e9565b602060405180830381865afa158015613caf573d6000803e3d6000fd5b505050506040513d601f19601f82011682018060405250810190613cd39190615711565b9050600073__$b131e44167300e1b6d47510635310686a7$__6335f8054760cd613d0060208a018a615ae2565b87818110613d1057613d106154e9565b9050608002016020016040518363ffffffff1660e01b8152600401613d36929190615632565b6040805180830381865af4158015613d52573d6000803e3d6000fd5b505050506040513d601f19601f82011682018060405250810190613d7691906156bb565b50905080613dab5760405162461bcd60e51b8152602060048201526002602482015261272960f11b6044820152606401610757565b60d35460405163db46de5360e01b81526001600160a01b0384166004820152600160b81b820462ffffff166024820152600160a01b90910460020b604482015273__$fa5a18c13b4d815a743b91389b9a36db0f$__9063db46de539060640160006040518083038186803b158015613e2257600080fd5b505af4158015613e36573d6000803e3d6000fd5b5050506001600160a01b0383169050633c8a7d8d30613e5860208a018a615ae2565b87818110613e6857613e686154e9565b613e81926040608090920201908101915060200161506f565b613e8e60208b018b615ae2565b88818110613e9e57613e9e6154e9565b613eb7926060608090920201908101915060400161506f565b613ec460208c018c615ae2565b89818110613ed457613ed46154e9565b613eea9260206080909202019081019150615a2c565b6040516001600160e01b031960e087901b1681526001600160a01b039094166004850152600292830b6024850152910b60448301526001600160801b0316606482015260a06084820152600060a482015260c40160408051808303816000875af1158015613f5c573d6000803e3d6000fd5b505050506040513d601f19601f82011682018060405250810190613f8091906159f3565b505050508080613f8f906154ff565b915050613beb565b507f3c3b028223d7bced584c76cb50b83757dd71f50f766a1f35aa6abdd979ac63fa83604051613fc79190615daa565b60405180910390a15050600160975550565b6000613fe68484846142d7565b905060008280613ff857613ff8615ed4565b84860911156107d457600019811061400f57600080fd5b80614019816154ff565b95945050505050565b6001600160a01b0382166140785760405162461bcd60e51b815260206004820152601f60248201527f45524332303a206d696e7420746f20746865207a65726f2061646472657373006044820152606401610757565b806067600082825461408a91906154d1565b90915550506001600160a01b038216600090815260656020526040812080548392906140b79084906154d1565b90915550506040518181526001600160a01b038316906000907fddf252ad1be2c89b69c2b068fc378daa952ba7f163c4a11628f55a4df523b3ef9060200160405180910390a35050565b6040516001600160a01b0380851660248301528316604482015260648101829052611d0e9085906323b872dd60e01b9060840161306f565b61414460d433612d65565b6141755760405162461bcd60e51b8152602060048201526002602482015261434360f01b6044820152606401610757565b60008211801561420a575060ce5460d05461419091906154d1565b60c9546040516370a0823160e01b81523060048201526001600160a01b03909116906370a0823190602401602060405180830381865afa1580156141d8573d6000803e3d6000fd5b505050506040513d601f19601f820116820180604052508101906141fc91906159b6565b6142069190615833565b8211155b156142265760c954614226906001600160a01b03163384613043565b6000811180156142bb575060cf5460d15461424191906154d1565b60ca546040516370a0823160e01b81523060048201526001600160a01b03909116906370a0823190602401602060405180830381865afa158015614289573d6000803e3d6000fd5b505050506040513d601f19601f820116820180604052508101906142ad91906159b6565b6142b79190615833565b8111155b15612e5a5760ca54612e5a906001600160a01b03163383613043565b6000808060001985870985870292508281108382030391505080600003614310576000841161430557600080fd5b5082900490506107d4565b80841161431c57600080fd5b60008486880960026001871981018816978890046003810283188082028403028082028403028082028403028082028403028082028403029081029092039091026000889003889004909101858311909403939093029303949094049190911702949350505050565b6001600160a01b0382166143e55760405162461bcd60e51b815260206004820152602160248201527f45524332303a206275726e2066726f6d20746865207a65726f206164647265736044820152607360f81b6064820152608401610757565b6001600160a01b038216600090815260656020526040902054818110156144595760405162461bcd60e51b815260206004820152602260248201527f45524332303a206275726e20616d6f756e7420657863656564732062616c616e604482015261636560f01b6064820152608401610757565b6001600160a01b0383166000908152606560205260408120838303905560678054849290614488908490615833565b90915550506040518281526000906001600160a01b038516907fddf252ad1be2c89b69c2b068fc378daa952ba7f163c4a11628f55a4df523b3ef9060200160405180910390a3505050565b6144fe6040518060800160405280600081526020016000815260200160008152602001600081525090565b60c9546040516370a0823160e01b81523060048201526000916001600160a01b0316906370a0823190602401602060405180830381865afa158015614547573d6000803e3d6000fd5b505050506040513d601f19601f8201168201806040525081019061456b91906159b6565b60ca546040516370a0823160e01b81523060048201529192506000916001600160a01b03909116906370a0823190602401602060405180830381865afa1580156145b9573d6000803e3d6000fd5b505050506040513d601f19601f820116820180604052508101906145dd91906159b6565b60405163a34123a760e01b8152600288810b600483015287900b60248201526001600160801b03861660448201529091506001600160a01b0388169063a34123a79060640160408051808303816000875af1158015614640573d6000803e3d6000fd5b505050506040513d601f19601f8201168201806040525081019061466491906159f3565b602085015283526040516309e3d67b60e31b8152306004820152600287810b602483015286900b60448201526001600160801b036064820181905260848201526001600160a01b03881690634f1eb3d89060a40160408051808303816000875af11580156146d6573d6000803e3d6000fd5b505050506040513d601f19601f820116820180604052508101906146fa9190615eea565b5050825160c9546040516370a0823160e01b815230600482015284916001600160a01b0316906370a0823190602401602060405180830381865afa158015614746573d6000803e3d6000fd5b505050506040513d601f19601f8201168201806040525081019061476a91906159b6565b6147749190615833565b61477e9190615833565b604084810191909152602084015160ca5491516370a0823160e01b8152306004820152909183916001600160a01b03909116906370a0823190602401602060405180830381865afa1580156147d7573d6000803e3d6000fd5b505050506040513d601f19601f820116820180604052508101906147fb91906159b6565b6148059190615833565b61480f9190615833565b6060840152509095945050505050565b60d2546040805163666fbd0160e11b815290516000926001600160a01b03169163ccdf7a029160048083019260209291908290030181865afa158015614869573d6000803e3d6000fd5b505050506040513d601f19601f8201168201806040525081019061488d91906159cf565b90506127106148a061ffff831685615f19565b6148aa9190615f38565b60d060008282546148bb91906154d1565b9091555061271090506148d261ffff831684615f19565b6148dc9190615f38565b60d160008282546148ed91906154d1565b90915550612710905061490160fa85615f19565b61490b9190615f38565b60ce600082825461491c91906154d1565b90915550612710905061493060fa84615f19565b61493a9190615f38565b60cf600082825461494b91906154d1565b9091555050505050565b60008181526001830160205260408120548015614a3e576000614979600183615833565b855490915060009061498d90600190615833565b90508181146149f25760008660000182815481106149ad576149ad6154e9565b90600052602060002001549050808760000184815481106149d0576149d06154e9565b6000918252602080832090910192909255918252600188019052604090208390555b8554869080614a0357614a0361584a565b600190038181906000526020600020016000905590558560010160008681526020019081526020016000206000905560019350505050610716565b6000915050610716565b600054610100900460ff16614a6f5760405162461bcd60e51b815260040161075790615a97565b8151614a82906068906020850190614e90565b5080516130a6906069906020840190614e90565b600054610100900460ff16614abd5760405162461bcd60e51b815260040161075790615a97565b6001609755565b60006107d4836001600160a01b038416614cc0565b6000614b2e826040518060400160405280602081526020017f5361666545524332303a206c6f772d6c6576656c2063616c6c206661696c6564815250856001600160a01b0316614d0f9092919063ffffffff16565b8051909150156130a65780806020019051810190614b4c919061574b565b6130a65760405162461bcd60e51b815260206004820152602a60248201527f5361666545524332303a204552433230206f7065726174696f6e20646964206e6044820152691bdd081cdd58d8d9595960b21b6064820152608401610757565b801580614c255750604051636eb1769f60e11b81523060048201526001600160a01b03838116602483015284169063dd62ed3e90604401602060405180830381865afa158015614bff573d6000803e3d6000fd5b505050506040513d601f19601f82011682018060405250810190614c2391906159b6565b155b614c905760405162461bcd60e51b815260206004820152603660248201527f5361666545524332303a20617070726f76652066726f6d206e6f6e2d7a65726f60448201527520746f206e6f6e2d7a65726f20616c6c6f77616e636560501b6064820152608401610757565b6040516001600160a01b0383166024820152604481018290526130a690849063095ea7b360e01b9060640161306f565b6000818152600183016020526040812054614d0757508154600181810184556000848152602080822090930184905584548482528286019093526040902091909155610716565b506000610716565b6060614d1e8484600085614d26565b949350505050565b606082471015614d875760405162461bcd60e51b815260206004820152602660248201527f416464726573733a20696e73756666696369656e742062616c616e636520666f6044820152651c8818d85b1b60d21b6064820152608401610757565b6001600160a01b0385163b614dde5760405162461bcd60e51b815260206004820152601d60248201527f416464726573733a2063616c6c20746f206e6f6e2d636f6e74726163740000006044820152606401610757565b600080866001600160a01b03168587604051614dfa9190615f5a565b60006040518083038185875af1925050503d8060008114614e37576040519150601f19603f3d011682016040523d82523d6000602084013e614e3c565b606091505b5091509150614e4c828286614e57565b979650505050505050565b60608315614e665750816107d4565b825115614e765782518084602001fd5b8160405162461bcd60e51b81526004016107579190614f55565b828054614e9c9061544c565b90600052602060002090601f016020900481019282614ebe5760008555614f04565b82601f10614ed757805160ff1916838001178555614f04565b82800160010185558215614f04579182015b82811115614f04578251825591602001919060010190614ee9565b50614f10929150614f14565b5090565b5b80821115614f105760008155600101614f15565b60005b83811015614f44578181015183820152602001614f2c565b83811115611d0e5750506000910152565b6020815260008251806020840152614f74816040850160208701614f29565b601f01601f19169190910160400192915050565b6001600160a01b0381168114611e9957600080fd5b8035612e2481614f88565b60008060408385031215614fbb57600080fd5b8235614fc681614f88565b946020939093013593505050565b600060208284031215614fe657600080fd5b81356107d481614f88565b60008060006060848603121561500657600080fd5b833561501181614f88565b9250602084013561502181614f88565b929592945050506040919091013590565b62ffffff81168114611e9957600080fd5b60006020828403121561505557600080fd5b81356107d481615032565b8060020b8114611e9957600080fd5b60006020828403121561508157600080fd5b81356107d481615060565b6000806040838503121561509f57600080fd5b50508035926020909101359150565b60008083601f8401126150c057600080fd5b5081356001600160401b038111156150d757600080fd5b6020830191508360208260051b85010111156150f257600080fd5b9250929050565b6000806020838503121561510c57600080fd5b82356001600160401b0381111561512257600080fd5b61512e858286016150ae565b90969095509350505050565b60008083601f84011261514c57600080fd5b5081356001600160401b0381111561516357600080fd5b6020830191508360208285010111156150f257600080fd5b60008060008060006060868803121561519357600080fd5b85356001600160401b03808211156151aa57600080fd5b6151b689838a0161513a565b909750955060208801359150808211156151cf57600080fd5b6151db89838a0161513a565b909550935060408801359150808211156151f457600080fd5b508601610140818903121561520857600080fd5b809150509295509295909350565b60006020828403121561522857600080fd5b5035919050565b60008083601f84011261524157600080fd5b5081356001600160401b0381111561525857600080fd5b6020830191508360206060830285010111156150f257600080fd5b60008060008060006060868803121561528b57600080fd5b85356001600160401b03808211156152a257600080fd5b6152ae89838a0161522f565b909750955060208801359150808211156152c757600080fd5b908701906060828a0312156152db57600080fd5b909350604087013590808211156152f157600080fd5b506152fe8882890161522f565b969995985093965092949392505050565b6000806040838503121561532257600080fd5b82359150602083013561533481614f88565b809150509250929050565b6000806000806060858703121561535557600080fd5b843593506020850135925060408501356001600160401b0381111561537957600080fd5b6153858782880161513a565b95989497509550505050565b600080604083850312156153a457600080fd5b82356153af81614f88565b9150602083013561533481614f88565b600080600080606085870312156153d557600080fd5b84356001600160401b03808211156153ec57600080fd5b818701915087601f83011261540057600080fd5b81358181111561540f57600080fd5b8860208260071b850101111561542457600080fd5b602092830196509450508501359150604085013561544181614f88565b939692955090935050565b600181811c9082168061546057607f821691505b60208210810361548057634e487b7160e01b600052602260045260246000fd5b50919050565b6020808252818101527f4f776e61626c653a2063616c6c6572206973206e6f7420746865206f776e6572604082015260600190565b634e487b7160e01b600052601160045260246000fd5b600082198211156154e4576154e46154bb565b500190565b634e487b7160e01b600052603260045260246000fd5b600060018201615511576155116154bb565b5060010190565b60208082528181018390526000908460408401835b8681101561555b57823561554081614f88565b6001600160a01b03168252918301919083019060010161552d565b509695505050505050565b6000808335601e1984360301811261557d57600080fd5b8301803591506001600160401b0382111561559757600080fd5b6020019150600581901b36038213156150f257600080fd5b60208082528181018390526000908460408401835b8681101561555b5782356155d781615032565b62ffffff16825291830191908301906001016155c4565b80356155f981615060565b60020b8252602081013561560c81615060565b60020b6020830152604081013561562281615032565b62ffffff81166040840152505050565b6000608082016080835280855480835260a08501915086600052602092508260002060005b82811015615692578154600281810b8652601882901c900b8686015260301c62ffffff16604085015260609093019260019182019101615657565b505050809250506156a5818401856155ee565b509392505050565b8015158114611e9957600080fd5b600080604083850312156156ce57600080fd5b82516156d9816156ad565b6020939093015192949293505050565b6001600160a01b03938416815291909216602082015262ffffff909116604082015260600190565b60006020828403121561572357600080fd5b81516107d481614f88565b6001600160a01b0383168152608081016107d460208301846155ee565b60006020828403121561575d57600080fd5b81516107d4816156ad565b813561577381615060565b815462ffffff82811662ffffff198316178455602085013561579481615060565b8060181b9050818416935065ffffff00000091508082168465ffffffffffff1985161717855560408601356157c881615032565b911668ffffffffffffffffff19929092169092171760309190911b68ffffff0000000000001617905550565b6001600160a01b038681168252858116602083015284811660408301528316606082015260e0810161582960808301846155ee565b9695505050505050565b600082821015615845576158456154bb565b500390565b634e487b7160e01b600052603160045260246000fd5b6020808252601f908201527f5265656e7472616e637947756172643a207265656e7472616e742063616c6c00604082015260600190565b6020808252825160a083830152805160c0840181905260009291820190839060e08601905b808310156158fe5783518051600290810b845286820151900b8684015260409081015162ffffff169083015292840192600192909201916060909101906158bc565b50928601516001600160a01b03811660408701529260408701516001600160a01b0381166060880152935060608701516001600160a01b0381166080880152935060808701516001600160a01b03811660a08801529350615829565b6000806000806080858703121561597057600080fd5b505082516020840151604085015160609095015191969095509092509050565b6001600160a01b0394909416845260208401929092526040830152606082015260800190565b6000602082840312156159c857600080fd5b5051919050565b6000602082840312156159e157600080fd5b815161ffff811681146107d457600080fd5b60008060408385031215615a0657600080fd5b505080516020909101519092909150565b6001600160801b0381168114611e9957600080fd5b600060208284031215615a3e57600080fd5b81356107d481615a17565b6020808252602e908201527f496e697469616c697a61626c653a20636f6e747261637420697320616c72656160408201526d191e481a5b9a5d1a585b1a5e995960921b606082015260800190565b6020808252602b908201527f496e697469616c697a61626c653a20636f6e7472616374206973206e6f74206960408201526a6e697469616c697a696e6760a81b606082015260800190565b6000808335601e19843603018112615af957600080fd5b8301803591506001600160401b03821115615b1357600080fd5b6020019150600781901b36038213156150f257600080fd5b6000823560be19833603018112615b4157600080fd5b9190910192915050565b6000808335601e19843603018112615b6257600080fd5b8301803591506001600160401b03821115615b7c57600080fd5b6020019150368190038213156150f257600080fd5b8183823760009101908152919050565b8035612e24816156ad565b600060208284031215615bbe57600080fd5b81356107d4816156ad565b600060208284031215615bdb57600080fd5b815160ff811681146107d457600080fd5b600181815b80851115615c27578160001904821115615c0d57615c0d6154bb565b80851615615c1a57918102915b93841c9390800290615bf1565b509250929050565b600082615c3e57506001610716565b81615c4b57506000610716565b8160018114615c615760028114615c6b57615c87565b6001915050610716565b60ff841115615c7c57615c7c6154bb565b50506001821b610716565b5060208310610133831016604e8410600b8410161715615caa575081810a610716565b615cb48383615bec565b8060001904821115615cc857615cc86154bb565b029392505050565b60006107d460ff841683615c2f565b6000808335601e19843603018112615cf657600080fd5b83016020810192503590506001600160401b03811115615d1557600080fd5b8060071b36038313156150f257600080fd5b8183526000602080850194508260005b85811015615d76578135615d4a81615a17565b6001600160801b03168752615d638388018385016155ee565b6080968701969190910190600101615d37565b509495945050505050565b81835281816020850137506000828201602090810191909152601f909101601f19169091010190565b60006020808352615dbb8485615cdf565b606083860152615dcf608086018284615d27565b915050615dde82860186615cdf565b601f1980878503016040880152615df6848385615d27565b93506040880135925060be19883603018312615e1157600080fd5b868403016060870152508501803536829003601e19018112615e3257600080fd5b810180356001600160401b03811115615e4a57600080fd5b803603831315615e5957600080fd5b60c08452615e6d60c0850182878501615d81565b915050615e7b848301614f9d565b6001600160a01b031684840152615e9460408301614f9d565b6001600160a01b038116604085015293506060820135606084015260808201356080840152615ec560a08301615ba1565b80151560a08501529350615829565b634e487b7160e01b600052601260045260246000fd5b60008060408385031215615efd57600080fd5b8251615f0881615a17565b602084015190925061533481615a17565b6000816000190483118215151615615f3357615f336154bb565b500290565b600082615f5557634e487b7160e01b600052601260045260246000fd5b500490565b60008251615b41818460208701614f2956fea26469706673582212207a6405e9f468705ffb1d71c136ecf5c7855fe7699de5020ff27708c1fdf4877964736f6c634300080d0033",
  "libraries": {
    "Pool": "0xcf7b1a7516ffe2d9cdd1fEC6BE112f1533564C77",
    "Position": "0x1278B36cc6dD53aba16b756BA451a0808B0F662b",
    "Twap": "0x85F3827a01818FEf655E51C53d0B2c89474acbBC",
    "Underlying": "0xA286c23AC68E9E41dC210eF885e2B2d5fC94e989",
    "UniswapV3Amounts": "0x213dD4F29504EA227be5aDa8379bb8012ea3CBCE"
  },
  "devdoc": {
    "details": "DO NOT ADD STATE VARIABLES - APPEND THEM TO ArrakisV2Storage",
    "kind": "dev",
    "methods": {
      "allowance(address,address)": {
        "details": "See {IERC20-allowance}."
      },
      "approve(address,uint256)": {
        "details": "See {IERC20-approve}. NOTE: If `amount` is the maximum `uint256`, the allowance is not updated on `transferFrom`. This is semantically equivalent to an infinite approval. Requirements: - `spender` cannot be the zero address."
      },
      "balanceOf(address)": {
        "details": "See {IERC20-balanceOf}."
      },
      "decimals()": {
        "details": "Returns the number of decimals used to get its user representation. For example, if `decimals` equals `2`, a balance of `505` tokens should be displayed to a user as `5.05` (`505 / 10 ** 2`). Tokens usually opt for a value of 18, imitating the relationship between Ether and Wei. This is the value {ERC20} uses, unless this function is overridden; NOTE: This information is only used for _display_ purposes: it in no way affects any of the arithmetic of the contract, including {IERC20-balanceOf} and {IERC20-transfer}."
      },
      "decreaseAllowance(address,uint256)": {
        "details": "Atomically decreases the allowance granted to `spender` by the caller. This is an alternative to {approve} that can be used as a mitigation for problems described in {IERC20-approve}. Emits an {Approval} event indicating the updated allowance. Requirements: - `spender` cannot be the zero address. - `spender` must have allowance for the caller of at least `subtractedValue`."
      },
      "increaseAllowance(address,uint256)": {
        "details": "Atomically increases the allowance granted to `spender` by the caller. This is an alternative to {approve} that can be used as a mitigation for problems described in {IERC20-approve}. Emits an {Approval} event indicating the updated allowance. Requirements: - `spender` cannot be the zero address."
      },
      "name()": {
        "details": "Returns the name of the token."
      },
      "owner()": {
        "details": "Returns the address of the current owner."
      },
      "renounceOwnership()": {
        "details": "Leaves the contract without owner. It will not be possible to call `onlyOwner` functions anymore. Can only be called by the current owner. NOTE: Renouncing ownership will leave the contract without an owner, thereby removing any functionality that is only available to the owner."
      },
      "symbol()": {
        "details": "Returns the symbol of the token, usually a shorter version of the name."
      },
      "totalSupply()": {
        "details": "See {IERC20-totalSupply}."
      },
      "transfer(address,uint256)": {
        "details": "See {IERC20-transfer}. Requirements: - `to` cannot be the zero address. - the caller must have a balance of at least `amount`."
      },
      "transferFrom(address,address,uint256)": {
        "details": "See {IERC20-transferFrom}. Emits an {Approval} event indicating the updated allowance. This is not required by the EIP. See the note at the beginning of {ERC20}. NOTE: Does not update the allowance if the current allowance is the maximum `uint256`. Requirements: - `from` and `to` cannot be the zero address. - `from` must have a balance of at least `amount`. - the caller must have allowance for ``from``'s tokens of at least `amount`."
      },
      "transferOwnership(address)": {
        "details": "Transfers ownership of the contract to a new account (`newOwner`). Can only be called by the current owner."
      }
    },
    "version": 1
  },
  "userdoc": {
    "kind": "user",
    "methods": {
      "uniswapV3MintCallback(uint256,uint256,bytes)": {
        "notice": "Uniswap V3 callback fn, called back on pool.mint"
      }
    },
    "version": 1
  },
  "storageLayout": {
    "storage": [
      {
        "astId": 1285,
        "contract": "contracts/ArrakisV2.sol:ArrakisV2",
        "label": "_initialized",
        "offset": 0,
        "slot": "0",
        "type": "t_uint8"
      },
      {
        "astId": 1288,
        "contract": "contracts/ArrakisV2.sol:ArrakisV2",
        "label": "_initializing",
        "offset": 1,
        "slot": "0",
        "type": "t_bool"
      },
      {
        "astId": 2477,
        "contract": "contracts/ArrakisV2.sol:ArrakisV2",
        "label": "__gap",
        "offset": 0,
        "slot": "1",
        "type": "t_array(t_uint256)50_storage"
      },
      {
        "astId": 1165,
        "contract": "contracts/ArrakisV2.sol:ArrakisV2",
        "label": "_owner",
        "offset": 0,
        "slot": "51",
        "type": "t_address"
      },
      {
        "astId": 1277,
        "contract": "contracts/ArrakisV2.sol:ArrakisV2",
        "label": "__gap",
        "offset": 0,
        "slot": "52",
        "type": "t_array(t_uint256)49_storage"
      },
      {
        "astId": 1498,
        "contract": "contracts/ArrakisV2.sol:ArrakisV2",
        "label": "_balances",
        "offset": 0,
        "slot": "101",
        "type": "t_mapping(t_address,t_uint256)"
      },
      {
        "astId": 1504,
        "contract": "contracts/ArrakisV2.sol:ArrakisV2",
        "label": "_allowances",
        "offset": 0,
        "slot": "102",
        "type": "t_mapping(t_address,t_mapping(t_address,t_uint256))"
      },
      {
        "astId": 1506,
        "contract": "contracts/ArrakisV2.sol:ArrakisV2",
        "label": "_totalSupply",
        "offset": 0,
        "slot": "103",
        "type": "t_uint256"
      },
      {
        "astId": 1508,
        "contract": "contracts/ArrakisV2.sol:ArrakisV2",
        "label": "_name",
        "offset": 0,
        "slot": "104",
        "type": "t_string_storage"
      },
      {
        "astId": 1510,
        "contract": "contracts/ArrakisV2.sol:ArrakisV2",
        "label": "_symbol",
        "offset": 0,
        "slot": "105",
        "type": "t_string_storage"
      },
      {
        "astId": 2089,
        "contract": "contracts/ArrakisV2.sol:ArrakisV2",
        "label": "__gap",
        "offset": 0,
        "slot": "106",
        "type": "t_array(t_uint256)45_storage"
      },
      {
        "astId": 1434,
        "contract": "contracts/ArrakisV2.sol:ArrakisV2",
        "label": "_status",
        "offset": 0,
        "slot": "151",
        "type": "t_uint256"
      },
      {
        "astId": 1478,
        "contract": "contracts/ArrakisV2.sol:ArrakisV2",
        "label": "__gap",
        "offset": 0,
        "slot": "152",
        "type": "t_array(t_uint256)49_storage"
      },
      {
        "astId": 11109,
        "contract": "contracts/ArrakisV2.sol:ArrakisV2",
        "label": "token0",
        "offset": 0,
        "slot": "201",
        "type": "t_contract(IERC20)4147"
      },
      {
        "astId": 11112,
        "contract": "contracts/ArrakisV2.sol:ArrakisV2",
        "label": "token1",
        "offset": 0,
        "slot": "202",
        "type": "t_contract(IERC20)4147"
      },
      {
        "astId": 11114,
        "contract": "contracts/ArrakisV2.sol:ArrakisV2",
        "label": "init0",
        "offset": 0,
        "slot": "203",
        "type": "t_uint256"
      },
      {
        "astId": 11116,
        "contract": "contracts/ArrakisV2.sol:ArrakisV2",
        "label": "init1",
        "offset": 0,
        "slot": "204",
        "type": "t_uint256"
      },
      {
        "astId": 11120,
        "contract": "contracts/ArrakisV2.sol:ArrakisV2",
        "label": "ranges",
        "offset": 0,
        "slot": "205",
        "type": "t_array(t_struct(Range)13315_storage)dyn_storage"
      },
      {
        "astId": 11122,
        "contract": "contracts/ArrakisV2.sol:ArrakisV2",
        "label": "arrakisBalance0",
        "offset": 0,
        "slot": "206",
        "type": "t_uint256"
      },
      {
        "astId": 11124,
        "contract": "contracts/ArrakisV2.sol:ArrakisV2",
        "label": "arrakisBalance1",
        "offset": 0,
        "slot": "207",
        "type": "t_uint256"
      },
      {
        "astId": 11126,
        "contract": "contracts/ArrakisV2.sol:ArrakisV2",
        "label": "managerBalance0",
        "offset": 0,
        "slot": "208",
        "type": "t_uint256"
      },
      {
        "astId": 11128,
        "contract": "contracts/ArrakisV2.sol:ArrakisV2",
        "label": "managerBalance1",
        "offset": 0,
        "slot": "209",
        "type": "t_uint256"
      },
      {
        "astId": 11131,
        "contract": "contracts/ArrakisV2.sol:ArrakisV2",
        "label": "manager",
        "offset": 0,
        "slot": "210",
        "type": "t_contract(IManagerProxyV2)12172"
      },
      {
        "astId": 11133,
        "contract": "contracts/ArrakisV2.sol:ArrakisV2",
        "label": "restrictedMint",
        "offset": 0,
        "slot": "211",
        "type": "t_address"
      },
      {
        "astId": 11135,
        "contract": "contracts/ArrakisV2.sol:ArrakisV2",
        "label": "maxTwapDeviation",
        "offset": 20,
        "slot": "211",
        "type": "t_int24"
      },
      {
        "astId": 11137,
        "contract": "contracts/ArrakisV2.sol:ArrakisV2",
        "label": "twapDuration",
        "offset": 23,
        "slot": "211",
        "type": "t_uint24"
      },
      {
        "astId": 11139,
        "contract": "contracts/ArrakisV2.sol:ArrakisV2",
        "label": "maxSlippage",
        "offset": 26,
        "slot": "211",
        "type": "t_uint24"
      },
      {
        "astId": 11142,
        "contract": "contracts/ArrakisV2.sol:ArrakisV2",
        "label": "_pools",
        "offset": 0,
        "slot": "212",
        "type": "t_struct(AddressSet)5478_storage"
      }
    ],
    "types": {
      "t_address": {
        "encoding": "inplace",
        "label": "address",
        "numberOfBytes": "20"
      },
      "t_array(t_bytes32)dyn_storage": {
        "base": "t_bytes32",
        "encoding": "dynamic_array",
        "label": "bytes32[]",
        "numberOfBytes": "32"
      },
      "t_array(t_struct(Range)13315_storage)dyn_storage": {
        "base": "t_struct(Range)13315_storage",
        "encoding": "dynamic_array",
        "label": "struct Range[]",
        "numberOfBytes": "32"
      },
      "t_array(t_uint256)45_storage": {
        "base": "t_uint256",
        "encoding": "inplace",
        "label": "uint256[45]",
        "numberOfBytes": "1440"
      },
      "t_array(t_uint256)49_storage": {
        "base": "t_uint256",
        "encoding": "inplace",
        "label": "uint256[49]",
        "numberOfBytes": "1568"
      },
      "t_array(t_uint256)50_storage": {
        "base": "t_uint256",
        "encoding": "inplace",
        "label": "uint256[50]",
        "numberOfBytes": "1600"
      },
      "t_bool": {
        "encoding": "inplace",
        "label": "bool",
        "numberOfBytes": "1"
      },
      "t_bytes32": {
        "encoding": "inplace",
        "label": "bytes32",
        "numberOfBytes": "32"
      },
      "t_contract(IERC20)4147": {
        "encoding": "inplace",
        "label": "contract IERC20",
        "numberOfBytes": "20"
      },
      "t_contract(IManagerProxyV2)12172": {
        "encoding": "inplace",
        "label": "contract IManagerProxyV2",
        "numberOfBytes": "20"
      },
      "t_int24": {
        "encoding": "inplace",
        "label": "int24",
        "numberOfBytes": "3"
      },
      "t_mapping(t_address,t_mapping(t_address,t_uint256))": {
        "encoding": "mapping",
        "key": "t_address",
        "label": "mapping(address => mapping(address => uint256))",
        "numberOfBytes": "32",
        "value": "t_mapping(t_address,t_uint256)"
      },
      "t_mapping(t_address,t_uint256)": {
        "encoding": "mapping",
        "key": "t_address",
        "label": "mapping(address => uint256)",
        "numberOfBytes": "32",
        "value": "t_uint256"
      },
      "t_mapping(t_bytes32,t_uint256)": {
        "encoding": "mapping",
        "key": "t_bytes32",
        "label": "mapping(bytes32 => uint256)",
        "numberOfBytes": "32",
        "value": "t_uint256"
      },
      "t_string_storage": {
        "encoding": "bytes",
        "label": "string",
        "numberOfBytes": "32"
      },
      "t_struct(AddressSet)5478_storage": {
        "encoding": "inplace",
        "label": "struct EnumerableSet.AddressSet",
        "members": [
          {
            "astId": 5477,
            "contract": "contracts/ArrakisV2.sol:ArrakisV2",
            "label": "_inner",
            "offset": 0,
            "slot": "0",
            "type": "t_struct(Set)5177_storage"
          }
        ],
        "numberOfBytes": "64"
      },
      "t_struct(Range)13315_storage": {
        "encoding": "inplace",
        "label": "struct Range",
        "members": [
          {
            "astId": 13310,
            "contract": "contracts/ArrakisV2.sol:ArrakisV2",
            "label": "lowerTick",
            "offset": 0,
            "slot": "0",
            "type": "t_int24"
          },
          {
            "astId": 13312,
            "contract": "contracts/ArrakisV2.sol:ArrakisV2",
            "label": "upperTick",
            "offset": 3,
            "slot": "0",
            "type": "t_int24"
          },
          {
            "astId": 13314,
            "contract": "contracts/ArrakisV2.sol:ArrakisV2",
            "label": "feeTier",
            "offset": 6,
            "slot": "0",
            "type": "t_uint24"
          }
        ],
        "numberOfBytes": "32"
      },
      "t_struct(Set)5177_storage": {
        "encoding": "inplace",
        "label": "struct EnumerableSet.Set",
        "members": [
          {
            "astId": 5172,
            "contract": "contracts/ArrakisV2.sol:ArrakisV2",
            "label": "_values",
            "offset": 0,
            "slot": "0",
            "type": "t_array(t_bytes32)dyn_storage"
          },
          {
            "astId": 5176,
            "contract": "contracts/ArrakisV2.sol:ArrakisV2",
            "label": "_indexes",
            "offset": 0,
            "slot": "1",
            "type": "t_mapping(t_bytes32,t_uint256)"
          }
        ],
        "numberOfBytes": "64"
      },
      "t_uint24": {
        "encoding": "inplace",
        "label": "uint24",
        "numberOfBytes": "3"
      },
      "t_uint256": {
        "encoding": "inplace",
        "label": "uint256",
        "numberOfBytes": "32"
      },
      "t_uint8": {
        "encoding": "inplace",
        "label": "uint8",
        "numberOfBytes": "1"
      }
    }
  }
}