{
  "address": "0x4bc385b1dDf0121CC40A0715CfD3beFE52f905f5",
  "abi": [
    {
      "inputs": [
        {
          "internalType": "contract IUniswapV3Factory",
          "name": "factory_",
          "type": "address"
        },
        {
          "internalType": "contract IArrakisV2Helper",
          "name": "helper_",
          "type": "address"
        }
      ],
      "stateMutability": "nonpayable",
      "type": "constructor"
    },
    {
      "inputs": [],
      "name": "factory",
      "outputs": [
        {
          "internalType": "contract IUniswapV3Factory",
          "name": "",
          "type": "address"
        }
      ],
      "stateMutability": "view",
      "type": "function"
    },
    {
      "inputs": [
        {
          "internalType": "int24",
          "name": "currentTick_",
          "type": "int24"
        },
        {
          "internalType": "int24",
          "name": "lowerTick_",
          "type": "int24"
        },
        {
          "internalType": "int24",
          "name": "upperTick_",
          "type": "int24"
        },
        {
          "internalType": "uint128",
          "name": "liquidity_",
          "type": "uint128"
        }
      ],
      "name": "getAmountsForLiquidity",
      "outputs": [
        {
          "internalType": "uint256",
          "name": "amount0",
          "type": "uint256"
        },
        {
          "internalType": "uint256",
          "name": "amount1",
          "type": "uint256"
        }
      ],
      "stateMutability": "pure",
      "type": "function"
    },
    {
      "inputs": [
        {
          "internalType": "contract IArrakisV2",
          "name": "vaultV2_",
          "type": "address"
        },
        {
          "internalType": "uint256",
          "name": "amount0Max_",
          "type": "uint256"
        },
        {
          "internalType": "uint256",
          "name": "amount1Max_",
          "type": "uint256"
        }
      ],
      "name": "getMintAmounts",
      "outputs": [
        {
          "internalType": "uint256",
          "name": "amount0",
          "type": "uint256"
        },
        {
          "internalType": "uint256",
          "name": "amount1",
          "type": "uint256"
        },
        {
          "internalType": "uint256",
          "name": "mintAmount",
          "type": "uint256"
        }
      ],
      "stateMutability": "view",
      "type": "function"
    },
    {
      "inputs": [],
      "name": "helper",
      "outputs": [
        {
          "internalType": "contract IArrakisV2Helper",
          "name": "",
          "type": "address"
        }
      ],
      "stateMutability": "view",
      "type": "function"
    },
    {
      "inputs": [
        {
          "internalType": "uint256",
          "name": "amountToBurn_",
          "type": "uint256"
        },
        {
          "internalType": "contract IArrakisV2",
          "name": "vaultV2_",
          "type": "address"
        }
      ],
      "name": "standardBurnParams",
      "outputs": [
        {
          "components": [
            {
              "internalType": "uint128",
              "name": "liquidity",
              "type": "uint128"
            },
            {
              "components": [
                {
                  "internalType": "int24",
                  "name": "lowerTick",
                  "type": "int24"
                },
                {
                  "internalType": "int24",
                  "name": "upperTick",
                  "type": "int24"
                },
                {
                  "internalType": "uint24",
                  "name": "feeTier",
                  "type": "uint24"
                }
              ],
              "internalType": "struct Range",
              "name": "range",
              "type": "tuple"
            }
          ],
          "internalType": "struct BurnLiquidity[]",
          "name": "burns",
          "type": "tuple[]"
        }
      ],
      "stateMutability": "view",
      "type": "function"
    },
    {
      "inputs": [
        {
          "components": [
            {
              "components": [
                {
                  "internalType": "int24",
                  "name": "lowerTick",
                  "type": "int24"
                },
                {
                  "internalType": "int24",
                  "name": "upperTick",
                  "type": "int24"
                },
                {
                  "internalType": "uint24",
                  "name": "feeTier",
                  "type": "uint24"
                }
              ],
              "internalType": "struct Range",
              "name": "range",
              "type": "tuple"
            },
            {
              "internalType": "uint256",
              "name": "weight",
              "type": "uint256"
            }
          ],
          "internalType": "struct RangeWeight[]",
          "name": "rangeWeights_",
          "type": "tuple[]"
        },
        {
          "internalType": "contract IArrakisV2",
          "name": "vaultV2_",
          "type": "address"
        }
      ],
      "name": "standardRebalance",
      "outputs": [
        {
          "components": [
            {
              "components": [
                {
                  "internalType": "uint128",
                  "name": "liquidity",
                  "type": "uint128"
                },
                {
                  "components": [
                    {
                      "internalType": "int24",
                      "name": "lowerTick",
                      "type": "int24"
                    },
                    {
                      "internalType": "int24",
                      "name": "upperTick",
                      "type": "int24"
                    },
                    {
                      "internalType": "uint24",
                      "name": "feeTier",
                      "type": "uint24"
                    }
                  ],
                  "internalType": "struct Range",
                  "name": "range",
                  "type": "tuple"
                }
              ],
              "internalType": "struct PositionLiquidity[]",
              "name": "removes",
              "type": "tuple[]"
            },
            {
              "components": [
                {
                  "internalType": "uint128",
                  "name": "liquidity",
                  "type": "uint128"
                },
                {
                  "components": [
                    {
                      "internalType": "int24",
                      "name": "lowerTick",
                      "type": "int24"
                    },
                    {
                      "internalType": "int24",
                      "name": "upperTick",
                      "type": "int24"
                    },
                    {
                      "internalType": "uint24",
                      "name": "feeTier",
                      "type": "uint24"
                    }
                  ],
                  "internalType": "struct Range",
                  "name": "range",
                  "type": "tuple"
                }
              ],
              "internalType": "struct PositionLiquidity[]",
              "name": "deposits",
              "type": "tuple[]"
            },
            {
              "components": [
                {
                  "internalType": "bytes",
                  "name": "payload",
                  "type": "bytes"
                },
                {
                  "internalType": "address",
                  "name": "router",
                  "type": "address"
                },
                {
                  "internalType": "uint256",
                  "name": "amountIn",
                  "type": "uint256"
                },
                {
                  "internalType": "uint256",
                  "name": "expectedMinReturn",
                  "type": "uint256"
                },
                {
                  "internalType": "bool",
                  "name": "zeroForOne",
                  "type": "bool"
                }
              ],
              "internalType": "struct SwapPayload",
              "name": "swap",
              "type": "tuple"
            },
            {
              "internalType": "uint256",
              "name": "minBurn0",
              "type": "uint256"
            },
            {
              "internalType": "uint256",
              "name": "minBurn1",
              "type": "uint256"
            },
            {
              "internalType": "uint256",
              "name": "minDeposit0",
              "type": "uint256"
            },
            {
              "internalType": "uint256",
              "name": "minDeposit1",
              "type": "uint256"
            }
          ],
          "internalType": "struct Rebalance",
          "name": "rebalanceParams",
          "type": "tuple"
        }
      ],
      "stateMutability": "view",
      "type": "function"
    }
  ],
  "transactionHash": "0x1e9770bc9be9bd80a2691d29e1a444893871b7dabdae41cb8f0cac6d94acf142",
  "args": [
    "0x1F98431c8aD98523631AE4a59f267346ea31F984",
    "0xccEe73eA4c7a42491c68FEa78B1BDDD1A35C8d9C"
  ],
  "numDeployments": 1,
  "solcInputHash": "78ac59690951abf05b68bd0340f25f2c",
  "bytecode": "0x60c06040523480156200001157600080fd5b5060405162002b1038038062002b10833981016040819052620000349162000065565b6001600160a01b039182166080521660a052620000a4565b6001600160a01b03811681146200006257600080fd5b50565b600080604083850312156200007957600080fd5b825162000086816200004c565b602084015190925062000099816200004c565b809150509250929050565b60805160a051612a1d620000f360003960008181607c01528181610c6b01526113af015260008181610108015281816104010152818161073501528181610d71015261121f0152612a1d6000f3fe608060405234801561001057600080fd5b50600436106100725760003560e01c8063c45a015511610050578063c45a015514610103578063c49f25af1461012a578063fa111ce71461014a57600080fd5b806363b0e66a14610077578063a339df12146100bb578063c30fcfdc146100e3575b600080fd5b61009e7f000000000000000000000000000000000000000000000000000000000000000081565b6040516001600160a01b0390911681526020015b60405180910390f35b6100ce6100c9366004612092565b610178565b604080519283526020830191909152016100b2565b6100f66100f136600461210e565b6101ad565b6040516100b29190612184565b61009e7f000000000000000000000000000000000000000000000000000000000000000081565b61013d61013836600461229a565b610b0b565b6040516100b291906123f7565b61015d610158366004612502565b6113a5565b604080519384526020840192909252908201526060016100b2565b60008061019f610187876116c7565b610190876116c7565b610199876116c7565b86611af4565b915091505b94509492505050565b60606000826001600160a01b03166318160ddd6040518163ffffffff1660e01b8152600401602060405180830381865afa1580156101ef573d6000803e3d6000fd5b505050506040513d601f19601f820116820180604052508101906102139190612537565b90506000811161026a5760405162461bcd60e51b815260206004820152600c60248201527f746f74616c20737570706c79000000000000000000000000000000000000000060448201526064015b60405180910390fd5b60606000846001600160a01b031663617a34196040518163ffffffff1660e01b8152600401600060405180830381865afa1580156102ac573d6000803e3d6000fd5b505050506040513d6000823e601f3d908101601f191682016040526102d49190810190612550565b90506000856001600160a01b0316630dfe16816040518163ffffffff1660e01b8152600401602060405180830381865afa158015610316573d6000803e3d6000fd5b505050506040513d601f19601f8201168201806040525081019061033a9190612629565b90506000866001600160a01b031663d21220a76040518163ffffffff1660e01b8152600401602060405180830381865afa15801561037c573d6000803e3d6000fd5b505050506040513d601f19601f820116820180604052508101906103a09190612629565b90506000829050600082905060008990506103ea6040518060c001604052806000815260200160008152602001600081526020016000815260200160008152602001600081525090565b6040805160a0810182528881526001600160a01b037f00000000000000000000000000000000000000000000000000000000000000008116602083015286811682840152858116606083015284166080820152905163e56f4d9160e01b81527392CB4F7e4CB623E73D5Ec84A43669ADc757C2bd29163e56f4d91916104729190600401612646565b608060405180830381865af415801561048f573d6000803e3d6000fd5b505050506040513d601f19601f820116820180604052508101906104b39190612717565b6060850152604080850191909152602080850192909252918352815163065756db60e01b815291516001600160a01b038e169263065756db9260048083019391928290030181865afa15801561050d573d6000803e3d6000fd5b505050506040513d601f19601f820116820180604052508101906105319190612537565b6040516370a0823160e01b81526001600160a01b0384811660048301528816906370a0823190602401602060405180830381865afa158015610577573d6000803e3d6000fd5b505050506040513d601f19601f8201168201806040525081019061059b9190612537565b6105a59190612763565b8160800181815250508a6001600160a01b03166342fb9d446040518163ffffffff1660e01b8152600401602060405180830381865afa1580156105ec573d6000803e3d6000fd5b505050506040513d601f19601f820116820180604052508101906106109190612537565b6040516370a0823160e01b81526001600160a01b0384811660048301528716906370a0823190602401602060405180830381865afa158015610656573d6000803e3d6000fd5b505050506040513d601f19601f8201168201806040525081019061067a9190612537565b6106849190612763565b60a08201528051600090610699908e8c611b8f565b905060006106ac83602001518f8d611b8f565b9050826080015182111580156106c657508260a001518111155b156106db575050505050505050505050610b05565b505050855167ffffffffffffffff8111156106f8576106f86121d2565b604051908082528060200260200182016040528015610721578160200160208202803683370190505b5096506000805b87518110156109995760007f00000000000000000000000000000000000000000000000000000000000000006001600160a01b0316631698ee8287878c86815181106107765761077661277a565b602090810291909101015160409081015190516001600160e01b031960e086901b1681526001600160a01b03938416600482015292909116602483015262ffffff166044820152606401602060405180830381865afa1580156107dd573d6000803e3d6000fd5b505050506040513d601f19601f820116820180604052508101906108019190612629565b6001600160a01b031663514ea4bf73F7cB77C8dCB22A1bb4435932f3515319721Faf44631208efca878d878151811061083c5761083c61277a565b6020026020010151600001518e888151811061085a5761085a61277a565b60209081029190910181015101516040516001600160e01b031960e086901b1681526001600160a01b039093166004840152600291820b6024840152900b6044820152606401602060405180830381865af41580156108bd573d6000803e3d6000fd5b505050506040513d601f19601f820116820180604052508101906108e19190612537565b6040518263ffffffff1660e01b81526004016108ff91815260200190565b60a060405180830381865afa15801561091c573d6000803e3d6000fd5b505050506040513d601f19601f820116820180604052508101906109409190612790565b50508c5192935083928d9250859150811061095d5761095d61277a565b6001600160801b03928316602091820292909201015281161561098657610983836127f2565b92505b5080610991816127f2565b915050610728565b508067ffffffffffffffff8111156109b3576109b36121d2565b604051908082528060200260200182016040528015610a1757816020015b610a0460408051808201825260008082528251606081018452818152602081810183905293810191909152909182015290565b8152602001906001900390816109d15790505b5099505050505050506000805b8251811015610aff576000848281518110610a4157610a4161277a565b60200260200101516001600160801b03161115610aed576040518060400160405280610a98610a93878581518110610a7b57610a7b61277a565b60200260200101516001600160801b03168c8a611c43565b611c8c565b6001600160801b03168152602001848381518110610ab857610ab861277a565b6020026020010151815250868381518110610ad557610ad561277a565b602002602001018190525081610aea906127f2565b91505b80610af7816127f2565b915050610a24565b50505050505b92915050565b610b13611ff3565b6000806000806000866001600160a01b031663617a34196040518163ffffffff1660e01b8152600401600060405180830381865afa158015610b59573d6000803e3d6000fd5b505050506040513d6000823e601f3d908101601f19168201604052610b819190810190612550565b9050866001600160a01b0316630dfe16816040518163ffffffff1660e01b8152600401602060405180830381865afa158015610bc1573d6000803e3d6000fd5b505050506040513d601f19601f82011682018060405250810190610be59190612629565b9250866001600160a01b031663d21220a76040518163ffffffff1660e01b8152600401602060405180830381865afa158015610c25573d6000803e3d6000fd5b505050506040513d601f19601f82011682018060405250810190610c499190612629565b604051633750471560e11b81526001600160a01b0389811660048301529193507f000000000000000000000000000000000000000000000000000000000000000090911690636ea08e2a906024016040805180830381865afa158015610cb3573d6000803e3d6000fd5b505050506040513d601f19601f82011682018060405250810190610cd7919061280b565b8251919650945060009067ffffffffffffffff811115610cf957610cf96121d2565b604051908082528060200260200182016040528015610d5d57816020015b610d4a60408051808201825260008082528251606081018452818152602081810183905293810191909152909182015290565b815260200190600190039081610d175790505b5090506000805b83518110156110095760007f00000000000000000000000000000000000000000000000000000000000000006001600160a01b0316631698ee828888888681518110610db257610db261277a565b602090810291909101015160409081015190516001600160e01b031960e086901b1681526001600160a01b03938416600482015292909116602483015262ffffff166044820152606401602060405180830381865afa158015610e19573d6000803e3d6000fd5b505050506040513d601f19601f82011682018060405250810190610e3d9190612629565b6001600160a01b031663514ea4bf73F7cB77C8dCB22A1bb4435932f3515319721Faf44631208efca8e898781518110610e7857610e7861277a565b6020026020010151600001518a8881518110610e9657610e9661277a565b60209081029190910181015101516040516001600160e01b031960e086901b1681526001600160a01b039093166004840152600291820b6024840152900b6044820152606401602060405180830381865af4158015610ef9573d6000803e3d6000fd5b505050506040513d601f19601f82011682018060405250810190610f1d9190612537565b6040518263ffffffff1660e01b8152600401610f3b91815260200190565b60a060405180830381865afa158015610f58573d6000803e3d6000fd5b505050506040513d601f19601f82011682018060405250810190610f7c9190612790565b5092935050506001600160801b038216159050610fa15782610f9d816127f2565b9350505b6040518060400160405280826001600160801b03168152602001868481518110610fcd57610fcd61277a565b6020026020010151815250848381518110610fea57610fea61277a565b6020026020010181905250508080611001906127f2565b915050610d64565b508067ffffffffffffffff811115611023576110236121d2565b60405190808252806020026020018201604052801561108757816020015b61107460408051808201825260008082528251606081018452818152602081810183905293810191909152909182015290565b8152602001906001900390816110415790505b5088526000805b83518110156111225760008482815181106110ab576110ab61277a565b6020026020010151600001516001600160801b03161115611110578381815181106110d8576110d861277a565b60200260200101518a6000015183815181106110f6576110f661277a565b6020026020010181905250818061110c906127f2565b9250505b8061111a816127f2565b91505061108e565b505050505061113087611d0f565b865167ffffffffffffffff81111561114a5761114a6121d2565b6040519080825280602002602001820160405280156111ae57816020015b61119b60408051808201825260008082528251606081018452818152602081810183905293810191909152909182015290565b8152602001906001900390816111685790505b50602086015260005b8751811015610aff5760008882815181106111d4576111d461277a565b602090810291909101015180516040908101519051630b4c774160e11b81526001600160a01b038781166004830152868116602483015262ffffff90921660448201529192506000917f000000000000000000000000000000000000000000000000000000000000000090911690631698ee8290606401602060405180830381865afa158015611268573d6000803e3d6000fd5b505050506040513d601f19601f8201168201806040525081019061128c9190612629565b6001600160a01b0316633850c7bd6040518163ffffffff1660e01b815260040160e060405180830381865afa1580156112c9573d6000803e3d6000fd5b505050506040513d601f19601f820116820180604052508101906112ed9190612841565b5050505050509050600061134a8261130c8560000151600001516116c7565b85516020015161131b906116c7565b6113308c886020015161271061ffff16611b8f565b6113458c896020015161271061ffff16611b8f565b611db0565b90506040518060400160405280826001600160801b031681526020018460000151815250896020015185815181106113845761138461277a565b6020026020010181905250505050808061139d906127f2565b9150506111b7565b60008060008060007f00000000000000000000000000000000000000000000000000000000000000006001600160a01b0316636ea08e2a896040518263ffffffff1660e01b815260040161140891906001600160a01b0391909116815260200190565b6040805180830381865afa158015611424573d6000803e3d6000fd5b505050506040513d601f19601f82011682018060405250810190611448919061280b565b915091506000886001600160a01b03166318160ddd6040518163ffffffff1660e01b8152600401602060405180830381865afa15801561148c573d6000803e3d6000fd5b505050506040513d601f19601f820116820180604052508101906114b09190612537565b905080156115545760405163c30fc38d60e01b815260048101849052602481018390526044810182905260648101899052608481018890527392CB4F7e4CB623E73D5Ec84A43669ADc757C2bd29063c30fc38d9060a401606060405180830381865af4158015611524573d6000803e3d6000fd5b505050506040513d601f19601f8201168201806040525081019061154891906128de565b919750955093506116bb565b7392CB4F7e4CB623E73D5Ec84A43669ADc757C2bd263c30fc38d8a6001600160a01b03166314b806306040518163ffffffff1660e01b8152600401602060405180830381865afa1580156115ac573d6000803e3d6000fd5b505050506040513d601f19601f820116820180604052508101906115d09190612537565b8b6001600160a01b031663f2eb3e346040518163ffffffff1660e01b8152600401602060405180830381865afa15801561160e573d6000803e3d6000fd5b505050506040513d601f19601f820116820180604052508101906116329190612537565b6040516001600160e01b031960e085901b16815260048101929092526024820152670de0b6b3a76400006044820152606481018b9052608481018a905260a401606060405180830381865af415801561168f573d6000803e3d6000fd5b505050506040513d601f19601f820116820180604052508101906116b391906128de565b919750955093505b50505093509350939050565b60008060008360020b126116de578260020b6116eb565b8260020b6116eb9061290c565b90506116fa620d89e719612928565b60020b8111156117305760405162461bcd60e51b81526020600482015260016024820152601560fa1b6044820152606401610261565b60008160011660000361175457700100000000000000000000000000000000611766565b6ffffcb933bd6fad37aa2d162d1a5940015b70ffffffffffffffffffffffffffffffffff16905060028216156117a55760806117a0826ffff97272373d413259a46990580e213a61294a565b901c90505b60048216156117cf5760806117ca826ffff2e50f5f656932ef12357cf3c7fdcc61294a565b901c90505b60088216156117f95760806117f4826fffe5caca7e10e4e61c3624eaa0941cd061294a565b901c90505b601082161561182357608061181e826fffcb9843d60f6159c9db58835c92664461294a565b901c90505b602082161561184d576080611848826fff973b41fa98c081472e6896dfb254c061294a565b901c90505b6040821615611877576080611872826fff2ea16466c96a3843ec78b326b5286161294a565b901c90505b60808216156118a157608061189c826ffe5dee046a99a2a811c461f1969c305361294a565b901c90505b6101008216156118cc5760806118c7826ffcbe86c7900a88aedcffc83b479aa3a461294a565b901c90505b6102008216156118f75760806118f2826ff987a7253ac413176f2b074cf7815e5461294a565b901c90505b61040082161561192257608061191d826ff3392b0822b70005940c7a398e4b70f361294a565b901c90505b61080082161561194d576080611948826fe7159475a2c29b7443b29c7fa6e889d961294a565b901c90505b611000821615611978576080611973826fd097f3bdfd2022b8845ad8f792aa582561294a565b901c90505b6120008216156119a357608061199e826fa9f746462d870fdf8a65dc1f90e061e561294a565b901c90505b6140008216156119ce5760806119c9826f70d869a156d2a1b890bb3df62baf32f761294a565b901c90505b6180008216156119f95760806119f4826f31be135f97d08fd981231505542fcfa661294a565b901c90505b62010000821615611a25576080611a20826f09aa508b5b7a84e1c677de54f3e99bc961294a565b901c90505b62020000821615611a50576080611a4b826e5d6af8dedb81196699c329225ee60461294a565b901c90505b62040000821615611a7a576080611a75826d2216e584f5fa1ea926041bedfe9861294a565b901c90505b62080000821615611aa2576080611a9d826b048a170391f7dc42444e8fa261294a565b901c90505b60008460020b1315611abd57611aba8160001961297f565b90505b611acc64010000000082612993565b15611ad8576001611adb565b60005b611aec9060ff16602083901c6129a7565b949350505050565b600080836001600160a01b0316856001600160a01b03161115611b15579293925b846001600160a01b0316866001600160a01b031611611b4057611b39858585611e72565b91506101a4565b836001600160a01b0316866001600160a01b03161015611b7957611b65868585611e72565b9150611b72858785611eee565b90506101a4565b611b84858585611eee565b905094509492505050565b6000808060001985870985870292508281108382030391505080600003611bc85760008411611bbd57600080fd5b508290049050611c3c565b808411611bd457600080fd5b600084868809851960019081018716968790049682860381900495909211909303600082900391909104909201919091029190911760038402600290811880860282030280860282030280860282030280860282030280860282030280860290910302029150505b9392505050565b6000611c50848484611b8f565b905060008280611c6257611c62612969565b8486091115611c3c576000198110611c7957600080fd5b80611c83816127f2565b95945050505050565b60006001600160801b03821115611d0b5760405162461bcd60e51b815260206004820152602760248201527f53616665436173743a2076616c756520646f65736e27742066697420696e203160448201527f32382062697473000000000000000000000000000000000000000000000000006064820152608401610261565b5090565b6000805b8251811015611d5957828181518110611d2e57611d2e61277a565b60200260200101516020015182611d4591906129a7565b915080611d51816127f2565b915050611d13565b50612710811115611dac5760405162461bcd60e51b815260206004820152600c60248201527f746f74616c2077656967687400000000000000000000000000000000000000006044820152606401610261565b5050565b6000836001600160a01b0316856001600160a01b03161115611dd0579293925b846001600160a01b0316866001600160a01b031611611dfb57611df4858585611f38565b9050611c83565b836001600160a01b0316866001600160a01b03161015611e5d576000611e22878686611f38565b90506000611e31878986611fa2565b9050806001600160801b0316826001600160801b031610611e525780611e54565b815b92505050611c83565b611e68858584611fa2565b9695505050505050565b6000826001600160a01b0316846001600160a01b03161115611e92579192915b6001600160a01b038416611ee47bffffffffffffffffffffffffffffffff000000000000000000000000606085901b16611ecc87876129bf565b6001600160a01b0316866001600160a01b0316611b8f565b611aec919061297f565b6000826001600160a01b0316846001600160a01b03161115611f0e579192915b611aec6001600160801b038316611f2586866129bf565b6001600160a01b0316600160601b611b8f565b6000826001600160a01b0316846001600160a01b03161115611f58579192915b6000611f7b856001600160a01b0316856001600160a01b0316600160601b611b8f565b9050611c83611f9d8483611f8f89896129bf565b6001600160a01b0316611b8f565b611fd8565b6000826001600160a01b0316846001600160a01b03161115611fc2579192915b611aec611f9d83600160601b611f8f88886129bf565b806001600160801b0381168114611fee57600080fd5b919050565b6040518060e0016040528060608152602001606081526020016120496040518060a001604052806060815260200160006001600160a01b0316815260200160008152602001600081526020016000151581525090565b8152602001600081526020016000815260200160008152602001600081525090565b8060020b811461207a57600080fd5b50565b6001600160801b038116811461207a57600080fd5b600080600080608085870312156120a857600080fd5b84356120b38161206b565b935060208501356120c38161206b565b925060408501356120d38161206b565b915060608501356120e38161207d565b939692955090935050565b6001600160a01b038116811461207a57600080fd5b8035611fee816120ee565b6000806040838503121561212157600080fd5b823591506020830135612133816120ee565b809150509250929050565b6001600160801b038151168252602081015161217f6020840182805160020b8252602081015160020b602083015262ffffff60408201511660408301525050565b505050565b6020808252825182820181905260009190848201906040850190845b818110156121c6576121b383855161213e565b92840192608092909201916001016121a0565b50909695505050505050565b634e487b7160e01b600052604160045260246000fd5b6040805190810167ffffffffffffffff8111828210171561220b5761220b6121d2565b60405290565b6040516060810167ffffffffffffffff8111828210171561220b5761220b6121d2565b604051601f8201601f1916810167ffffffffffffffff8111828210171561225d5761225d6121d2565b604052919050565b600067ffffffffffffffff82111561227f5761227f6121d2565b5060051b60200190565b62ffffff8116811461207a57600080fd5b60008060408084860312156122ae57600080fd5b833567ffffffffffffffff8111156122c557600080fd5b8401601f810186136122d657600080fd5b803560206122eb6122e683612265565b612234565b82815260079290921b8301810191818101908984111561230a57600080fd5b938201935b8385101561239657848a0360808112156123295760008081fd5b6123316121e8565b6060808312156123415760008081fd5b612349612211565b925087356123568161206b565b8352878601356123658161206b565b838701528789013561237681612289565b838a0152918152908601358482015282526080909401939082019061230f565b96506123a59050878201612103565b9450505050509250929050565b600081518084526020808501945080840160005b838110156123ec576123d987835161213e565b60809690960195908201906001016123c6565b509495945050505050565b60006020808352835160e0828501526124146101008501826123b2565b905081850151601f198086840301604087015261243183836123b2565b92506040870151915080868403016060870152815160a0845280518060a086015260005b818110156124715782810187015186820160c001528601612455565b8181111561248357600060c083880101525b50838601516001600160a01b0381168688015291506040840151604086015260608401516060860152608084015195506124c1608086018715159052565b60608901516080890152608089015160a089015260a089015160c089015260c089015160e089015260c083601f830116860101965050505050505092915050565b60008060006060848603121561251757600080fd5b8335612522816120ee565b95602085013595506040909401359392505050565b60006020828403121561254957600080fd5b5051919050565b6000602080838503121561256357600080fd5b825167ffffffffffffffff81111561257a57600080fd5b8301601f8101851361258b57600080fd5b80516125996122e682612265565b818152606091820283018401918482019190888411156125b857600080fd5b938501935b8385101561261d5780858a0312156125d55760008081fd5b6125dd612211565b85516125e88161206b565b8152858701516125f78161206b565b8188015260408681015161260a81612289565b90820152835293840193918501916125bd565b50979650505050505050565b60006020828403121561263b57600080fd5b8151611c3c816120ee565b6020808252825160a083830152805160c0840181905260009291820190839060e08601905b808310156126b6576126a0828551805160020b8252602081015160020b602083015262ffffff60408201511660408301525050565b606082019150848401935060018301925061266b565b50928601516001600160a01b03811660408701529260408701516001600160a01b0381166060880152935060608701516001600160a01b0381166080880152935060808701516001600160a01b03811660a088015293509695505050505050565b6000806000806080858703121561272d57600080fd5b505082516020840151604085015160609095015191969095509092509050565b634e487b7160e01b600052601160045260246000fd5b6000828210156127755761277561274d565b500390565b634e487b7160e01b600052603260045260246000fd5b600080600080600060a086880312156127a857600080fd5b85516127b38161207d565b80955050602086015193506040860151925060608601516127d38161207d565b60808701519092506127e48161207d565b809150509295509295909350565b6000600182016128045761280461274d565b5060010190565b6000806040838503121561281e57600080fd5b505080516020909101519092909150565b805161ffff81168114611fee57600080fd5b600080600080600080600060e0888a03121561285c57600080fd5b8751612867816120ee565b60208901519097506128788161206b565b95506128866040890161282f565b94506128946060890161282f565b93506128a26080890161282f565b925060a088015160ff811681146128b857600080fd5b60c089015190925080151581146128ce57600080fd5b8091505092959891949750929550565b6000806000606084860312156128f357600080fd5b8351925060208401519150604084015190509250925092565b6000600160ff1b82016129215761292161274d565b5060000390565b60008160020b627fffff1981036129415761294161274d565b60000392915050565b60008160001904831182151516156129645761296461274d565b500290565b634e487b7160e01b600052601260045260246000fd5b60008261298e5761298e612969565b500490565b6000826129a2576129a2612969565b500690565b600082198211156129ba576129ba61274d565b500190565b60006001600160a01b03838116908316818110156129df576129df61274d565b03939250505056fea26469706673582212207474da31b8308098ce9a24ee77aef5730152aa759b0064a9f230c8ab73efc00364736f6c634300080d0033",
  "deployedBytecode": "0x608060405234801561001057600080fd5b50600436106100725760003560e01c8063c45a015511610050578063c45a015514610103578063c49f25af1461012a578063fa111ce71461014a57600080fd5b806363b0e66a14610077578063a339df12146100bb578063c30fcfdc146100e3575b600080fd5b61009e7f000000000000000000000000000000000000000000000000000000000000000081565b6040516001600160a01b0390911681526020015b60405180910390f35b6100ce6100c9366004612092565b610178565b604080519283526020830191909152016100b2565b6100f66100f136600461210e565b6101ad565b6040516100b29190612184565b61009e7f000000000000000000000000000000000000000000000000000000000000000081565b61013d61013836600461229a565b610b0b565b6040516100b291906123f7565b61015d610158366004612502565b6113a5565b604080519384526020840192909252908201526060016100b2565b60008061019f610187876116c7565b610190876116c7565b610199876116c7565b86611af4565b915091505b94509492505050565b60606000826001600160a01b03166318160ddd6040518163ffffffff1660e01b8152600401602060405180830381865afa1580156101ef573d6000803e3d6000fd5b505050506040513d601f19601f820116820180604052508101906102139190612537565b90506000811161026a5760405162461bcd60e51b815260206004820152600c60248201527f746f74616c20737570706c79000000000000000000000000000000000000000060448201526064015b60405180910390fd5b60606000846001600160a01b031663617a34196040518163ffffffff1660e01b8152600401600060405180830381865afa1580156102ac573d6000803e3d6000fd5b505050506040513d6000823e601f3d908101601f191682016040526102d49190810190612550565b90506000856001600160a01b0316630dfe16816040518163ffffffff1660e01b8152600401602060405180830381865afa158015610316573d6000803e3d6000fd5b505050506040513d601f19601f8201168201806040525081019061033a9190612629565b90506000866001600160a01b031663d21220a76040518163ffffffff1660e01b8152600401602060405180830381865afa15801561037c573d6000803e3d6000fd5b505050506040513d601f19601f820116820180604052508101906103a09190612629565b90506000829050600082905060008990506103ea6040518060c001604052806000815260200160008152602001600081526020016000815260200160008152602001600081525090565b6040805160a0810182528881526001600160a01b037f00000000000000000000000000000000000000000000000000000000000000008116602083015286811682840152858116606083015284166080820152905163e56f4d9160e01b815273__$3d23d8578387a47facd93bb77f6fe6e81b$__9163e56f4d91916104729190600401612646565b608060405180830381865af415801561048f573d6000803e3d6000fd5b505050506040513d601f19601f820116820180604052508101906104b39190612717565b6060850152604080850191909152602080850192909252918352815163065756db60e01b815291516001600160a01b038e169263065756db9260048083019391928290030181865afa15801561050d573d6000803e3d6000fd5b505050506040513d601f19601f820116820180604052508101906105319190612537565b6040516370a0823160e01b81526001600160a01b0384811660048301528816906370a0823190602401602060405180830381865afa158015610577573d6000803e3d6000fd5b505050506040513d601f19601f8201168201806040525081019061059b9190612537565b6105a59190612763565b8160800181815250508a6001600160a01b03166342fb9d446040518163ffffffff1660e01b8152600401602060405180830381865afa1580156105ec573d6000803e3d6000fd5b505050506040513d601f19601f820116820180604052508101906106109190612537565b6040516370a0823160e01b81526001600160a01b0384811660048301528716906370a0823190602401602060405180830381865afa158015610656573d6000803e3d6000fd5b505050506040513d601f19601f8201168201806040525081019061067a9190612537565b6106849190612763565b60a08201528051600090610699908e8c611b8f565b905060006106ac83602001518f8d611b8f565b9050826080015182111580156106c657508260a001518111155b156106db575050505050505050505050610b05565b505050855167ffffffffffffffff8111156106f8576106f86121d2565b604051908082528060200260200182016040528015610721578160200160208202803683370190505b5096506000805b87518110156109995760007f00000000000000000000000000000000000000000000000000000000000000006001600160a01b0316631698ee8287878c86815181106107765761077661277a565b602090810291909101015160409081015190516001600160e01b031960e086901b1681526001600160a01b03938416600482015292909116602483015262ffffff166044820152606401602060405180830381865afa1580156107dd573d6000803e3d6000fd5b505050506040513d601f19601f820116820180604052508101906108019190612629565b6001600160a01b031663514ea4bf73__$b131e44167300e1b6d47510635310686a7$__631208efca878d878151811061083c5761083c61277a565b6020026020010151600001518e888151811061085a5761085a61277a565b60209081029190910181015101516040516001600160e01b031960e086901b1681526001600160a01b039093166004840152600291820b6024840152900b6044820152606401602060405180830381865af41580156108bd573d6000803e3d6000fd5b505050506040513d601f19601f820116820180604052508101906108e19190612537565b6040518263ffffffff1660e01b81526004016108ff91815260200190565b60a060405180830381865afa15801561091c573d6000803e3d6000fd5b505050506040513d601f19601f820116820180604052508101906109409190612790565b50508c5192935083928d9250859150811061095d5761095d61277a565b6001600160801b03928316602091820292909201015281161561098657610983836127f2565b92505b5080610991816127f2565b915050610728565b508067ffffffffffffffff8111156109b3576109b36121d2565b604051908082528060200260200182016040528015610a1757816020015b610a0460408051808201825260008082528251606081018452818152602081810183905293810191909152909182015290565b8152602001906001900390816109d15790505b5099505050505050506000805b8251811015610aff576000848281518110610a4157610a4161277a565b60200260200101516001600160801b03161115610aed576040518060400160405280610a98610a93878581518110610a7b57610a7b61277a565b60200260200101516001600160801b03168c8a611c43565b611c8c565b6001600160801b03168152602001848381518110610ab857610ab861277a565b6020026020010151815250868381518110610ad557610ad561277a565b602002602001018190525081610aea906127f2565b91505b80610af7816127f2565b915050610a24565b50505050505b92915050565b610b13611ff3565b6000806000806000866001600160a01b031663617a34196040518163ffffffff1660e01b8152600401600060405180830381865afa158015610b59573d6000803e3d6000fd5b505050506040513d6000823e601f3d908101601f19168201604052610b819190810190612550565b9050866001600160a01b0316630dfe16816040518163ffffffff1660e01b8152600401602060405180830381865afa158015610bc1573d6000803e3d6000fd5b505050506040513d601f19601f82011682018060405250810190610be59190612629565b9250866001600160a01b031663d21220a76040518163ffffffff1660e01b8152600401602060405180830381865afa158015610c25573d6000803e3d6000fd5b505050506040513d601f19601f82011682018060405250810190610c499190612629565b604051633750471560e11b81526001600160a01b0389811660048301529193507f000000000000000000000000000000000000000000000000000000000000000090911690636ea08e2a906024016040805180830381865afa158015610cb3573d6000803e3d6000fd5b505050506040513d601f19601f82011682018060405250810190610cd7919061280b565b8251919650945060009067ffffffffffffffff811115610cf957610cf96121d2565b604051908082528060200260200182016040528015610d5d57816020015b610d4a60408051808201825260008082528251606081018452818152602081810183905293810191909152909182015290565b815260200190600190039081610d175790505b5090506000805b83518110156110095760007f00000000000000000000000000000000000000000000000000000000000000006001600160a01b0316631698ee828888888681518110610db257610db261277a565b602090810291909101015160409081015190516001600160e01b031960e086901b1681526001600160a01b03938416600482015292909116602483015262ffffff166044820152606401602060405180830381865afa158015610e19573d6000803e3d6000fd5b505050506040513d601f19601f82011682018060405250810190610e3d9190612629565b6001600160a01b031663514ea4bf73__$b131e44167300e1b6d47510635310686a7$__631208efca8e898781518110610e7857610e7861277a565b6020026020010151600001518a8881518110610e9657610e9661277a565b60209081029190910181015101516040516001600160e01b031960e086901b1681526001600160a01b039093166004840152600291820b6024840152900b6044820152606401602060405180830381865af4158015610ef9573d6000803e3d6000fd5b505050506040513d601f19601f82011682018060405250810190610f1d9190612537565b6040518263ffffffff1660e01b8152600401610f3b91815260200190565b60a060405180830381865afa158015610f58573d6000803e3d6000fd5b505050506040513d601f19601f82011682018060405250810190610f7c9190612790565b5092935050506001600160801b038216159050610fa15782610f9d816127f2565b9350505b6040518060400160405280826001600160801b03168152602001868481518110610fcd57610fcd61277a565b6020026020010151815250848381518110610fea57610fea61277a565b6020026020010181905250508080611001906127f2565b915050610d64565b508067ffffffffffffffff811115611023576110236121d2565b60405190808252806020026020018201604052801561108757816020015b61107460408051808201825260008082528251606081018452818152602081810183905293810191909152909182015290565b8152602001906001900390816110415790505b5088526000805b83518110156111225760008482815181106110ab576110ab61277a565b6020026020010151600001516001600160801b03161115611110578381815181106110d8576110d861277a565b60200260200101518a6000015183815181106110f6576110f661277a565b6020026020010181905250818061110c906127f2565b9250505b8061111a816127f2565b91505061108e565b505050505061113087611d0f565b865167ffffffffffffffff81111561114a5761114a6121d2565b6040519080825280602002602001820160405280156111ae57816020015b61119b60408051808201825260008082528251606081018452818152602081810183905293810191909152909182015290565b8152602001906001900390816111685790505b50602086015260005b8751811015610aff5760008882815181106111d4576111d461277a565b602090810291909101015180516040908101519051630b4c774160e11b81526001600160a01b038781166004830152868116602483015262ffffff90921660448201529192506000917f000000000000000000000000000000000000000000000000000000000000000090911690631698ee8290606401602060405180830381865afa158015611268573d6000803e3d6000fd5b505050506040513d601f19601f8201168201806040525081019061128c9190612629565b6001600160a01b0316633850c7bd6040518163ffffffff1660e01b815260040160e060405180830381865afa1580156112c9573d6000803e3d6000fd5b505050506040513d601f19601f820116820180604052508101906112ed9190612841565b5050505050509050600061134a8261130c8560000151600001516116c7565b85516020015161131b906116c7565b6113308c886020015161271061ffff16611b8f565b6113458c896020015161271061ffff16611b8f565b611db0565b90506040518060400160405280826001600160801b031681526020018460000151815250896020015185815181106113845761138461277a565b6020026020010181905250505050808061139d906127f2565b9150506111b7565b60008060008060007f00000000000000000000000000000000000000000000000000000000000000006001600160a01b0316636ea08e2a896040518263ffffffff1660e01b815260040161140891906001600160a01b0391909116815260200190565b6040805180830381865afa158015611424573d6000803e3d6000fd5b505050506040513d601f19601f82011682018060405250810190611448919061280b565b915091506000886001600160a01b03166318160ddd6040518163ffffffff1660e01b8152600401602060405180830381865afa15801561148c573d6000803e3d6000fd5b505050506040513d601f19601f820116820180604052508101906114b09190612537565b905080156115545760405163c30fc38d60e01b8152600481018490526024810183905260448101829052606481018990526084810188905273__$3d23d8578387a47facd93bb77f6fe6e81b$__9063c30fc38d9060a401606060405180830381865af4158015611524573d6000803e3d6000fd5b505050506040513d601f19601f8201168201806040525081019061154891906128de565b919750955093506116bb565b73__$3d23d8578387a47facd93bb77f6fe6e81b$__63c30fc38d8a6001600160a01b03166314b806306040518163ffffffff1660e01b8152600401602060405180830381865afa1580156115ac573d6000803e3d6000fd5b505050506040513d601f19601f820116820180604052508101906115d09190612537565b8b6001600160a01b031663f2eb3e346040518163ffffffff1660e01b8152600401602060405180830381865afa15801561160e573d6000803e3d6000fd5b505050506040513d601f19601f820116820180604052508101906116329190612537565b6040516001600160e01b031960e085901b16815260048101929092526024820152670de0b6b3a76400006044820152606481018b9052608481018a905260a401606060405180830381865af415801561168f573d6000803e3d6000fd5b505050506040513d601f19601f820116820180604052508101906116b391906128de565b919750955093505b50505093509350939050565b60008060008360020b126116de578260020b6116eb565b8260020b6116eb9061290c565b90506116fa620d89e719612928565b60020b8111156117305760405162461bcd60e51b81526020600482015260016024820152601560fa1b6044820152606401610261565b60008160011660000361175457700100000000000000000000000000000000611766565b6ffffcb933bd6fad37aa2d162d1a5940015b70ffffffffffffffffffffffffffffffffff16905060028216156117a55760806117a0826ffff97272373d413259a46990580e213a61294a565b901c90505b60048216156117cf5760806117ca826ffff2e50f5f656932ef12357cf3c7fdcc61294a565b901c90505b60088216156117f95760806117f4826fffe5caca7e10e4e61c3624eaa0941cd061294a565b901c90505b601082161561182357608061181e826fffcb9843d60f6159c9db58835c92664461294a565b901c90505b602082161561184d576080611848826fff973b41fa98c081472e6896dfb254c061294a565b901c90505b6040821615611877576080611872826fff2ea16466c96a3843ec78b326b5286161294a565b901c90505b60808216156118a157608061189c826ffe5dee046a99a2a811c461f1969c305361294a565b901c90505b6101008216156118cc5760806118c7826ffcbe86c7900a88aedcffc83b479aa3a461294a565b901c90505b6102008216156118f75760806118f2826ff987a7253ac413176f2b074cf7815e5461294a565b901c90505b61040082161561192257608061191d826ff3392b0822b70005940c7a398e4b70f361294a565b901c90505b61080082161561194d576080611948826fe7159475a2c29b7443b29c7fa6e889d961294a565b901c90505b611000821615611978576080611973826fd097f3bdfd2022b8845ad8f792aa582561294a565b901c90505b6120008216156119a357608061199e826fa9f746462d870fdf8a65dc1f90e061e561294a565b901c90505b6140008216156119ce5760806119c9826f70d869a156d2a1b890bb3df62baf32f761294a565b901c90505b6180008216156119f95760806119f4826f31be135f97d08fd981231505542fcfa661294a565b901c90505b62010000821615611a25576080611a20826f09aa508b5b7a84e1c677de54f3e99bc961294a565b901c90505b62020000821615611a50576080611a4b826e5d6af8dedb81196699c329225ee60461294a565b901c90505b62040000821615611a7a576080611a75826d2216e584f5fa1ea926041bedfe9861294a565b901c90505b62080000821615611aa2576080611a9d826b048a170391f7dc42444e8fa261294a565b901c90505b60008460020b1315611abd57611aba8160001961297f565b90505b611acc64010000000082612993565b15611ad8576001611adb565b60005b611aec9060ff16602083901c6129a7565b949350505050565b600080836001600160a01b0316856001600160a01b03161115611b15579293925b846001600160a01b0316866001600160a01b031611611b4057611b39858585611e72565b91506101a4565b836001600160a01b0316866001600160a01b03161015611b7957611b65868585611e72565b9150611b72858785611eee565b90506101a4565b611b84858585611eee565b905094509492505050565b6000808060001985870985870292508281108382030391505080600003611bc85760008411611bbd57600080fd5b508290049050611c3c565b808411611bd457600080fd5b600084868809851960019081018716968790049682860381900495909211909303600082900391909104909201919091029190911760038402600290811880860282030280860282030280860282030280860282030280860282030280860290910302029150505b9392505050565b6000611c50848484611b8f565b905060008280611c6257611c62612969565b8486091115611c3c576000198110611c7957600080fd5b80611c83816127f2565b95945050505050565b60006001600160801b03821115611d0b5760405162461bcd60e51b815260206004820152602760248201527f53616665436173743a2076616c756520646f65736e27742066697420696e203160448201527f32382062697473000000000000000000000000000000000000000000000000006064820152608401610261565b5090565b6000805b8251811015611d5957828181518110611d2e57611d2e61277a565b60200260200101516020015182611d4591906129a7565b915080611d51816127f2565b915050611d13565b50612710811115611dac5760405162461bcd60e51b815260206004820152600c60248201527f746f74616c2077656967687400000000000000000000000000000000000000006044820152606401610261565b5050565b6000836001600160a01b0316856001600160a01b03161115611dd0579293925b846001600160a01b0316866001600160a01b031611611dfb57611df4858585611f38565b9050611c83565b836001600160a01b0316866001600160a01b03161015611e5d576000611e22878686611f38565b90506000611e31878986611fa2565b9050806001600160801b0316826001600160801b031610611e525780611e54565b815b92505050611c83565b611e68858584611fa2565b9695505050505050565b6000826001600160a01b0316846001600160a01b03161115611e92579192915b6001600160a01b038416611ee47bffffffffffffffffffffffffffffffff000000000000000000000000606085901b16611ecc87876129bf565b6001600160a01b0316866001600160a01b0316611b8f565b611aec919061297f565b6000826001600160a01b0316846001600160a01b03161115611f0e579192915b611aec6001600160801b038316611f2586866129bf565b6001600160a01b0316600160601b611b8f565b6000826001600160a01b0316846001600160a01b03161115611f58579192915b6000611f7b856001600160a01b0316856001600160a01b0316600160601b611b8f565b9050611c83611f9d8483611f8f89896129bf565b6001600160a01b0316611b8f565b611fd8565b6000826001600160a01b0316846001600160a01b03161115611fc2579192915b611aec611f9d83600160601b611f8f88886129bf565b806001600160801b0381168114611fee57600080fd5b919050565b6040518060e0016040528060608152602001606081526020016120496040518060a001604052806060815260200160006001600160a01b0316815260200160008152602001600081526020016000151581525090565b8152602001600081526020016000815260200160008152602001600081525090565b8060020b811461207a57600080fd5b50565b6001600160801b038116811461207a57600080fd5b600080600080608085870312156120a857600080fd5b84356120b38161206b565b935060208501356120c38161206b565b925060408501356120d38161206b565b915060608501356120e38161207d565b939692955090935050565b6001600160a01b038116811461207a57600080fd5b8035611fee816120ee565b6000806040838503121561212157600080fd5b823591506020830135612133816120ee565b809150509250929050565b6001600160801b038151168252602081015161217f6020840182805160020b8252602081015160020b602083015262ffffff60408201511660408301525050565b505050565b6020808252825182820181905260009190848201906040850190845b818110156121c6576121b383855161213e565b92840192608092909201916001016121a0565b50909695505050505050565b634e487b7160e01b600052604160045260246000fd5b6040805190810167ffffffffffffffff8111828210171561220b5761220b6121d2565b60405290565b6040516060810167ffffffffffffffff8111828210171561220b5761220b6121d2565b604051601f8201601f1916810167ffffffffffffffff8111828210171561225d5761225d6121d2565b604052919050565b600067ffffffffffffffff82111561227f5761227f6121d2565b5060051b60200190565b62ffffff8116811461207a57600080fd5b60008060408084860312156122ae57600080fd5b833567ffffffffffffffff8111156122c557600080fd5b8401601f810186136122d657600080fd5b803560206122eb6122e683612265565b612234565b82815260079290921b8301810191818101908984111561230a57600080fd5b938201935b8385101561239657848a0360808112156123295760008081fd5b6123316121e8565b6060808312156123415760008081fd5b612349612211565b925087356123568161206b565b8352878601356123658161206b565b838701528789013561237681612289565b838a0152918152908601358482015282526080909401939082019061230f565b96506123a59050878201612103565b9450505050509250929050565b600081518084526020808501945080840160005b838110156123ec576123d987835161213e565b60809690960195908201906001016123c6565b509495945050505050565b60006020808352835160e0828501526124146101008501826123b2565b905081850151601f198086840301604087015261243183836123b2565b92506040870151915080868403016060870152815160a0845280518060a086015260005b818110156124715782810187015186820160c001528601612455565b8181111561248357600060c083880101525b50838601516001600160a01b0381168688015291506040840151604086015260608401516060860152608084015195506124c1608086018715159052565b60608901516080890152608089015160a089015260a089015160c089015260c089015160e089015260c083601f830116860101965050505050505092915050565b60008060006060848603121561251757600080fd5b8335612522816120ee565b95602085013595506040909401359392505050565b60006020828403121561254957600080fd5b5051919050565b6000602080838503121561256357600080fd5b825167ffffffffffffffff81111561257a57600080fd5b8301601f8101851361258b57600080fd5b80516125996122e682612265565b818152606091820283018401918482019190888411156125b857600080fd5b938501935b8385101561261d5780858a0312156125d55760008081fd5b6125dd612211565b85516125e88161206b565b8152858701516125f78161206b565b8188015260408681015161260a81612289565b90820152835293840193918501916125bd565b50979650505050505050565b60006020828403121561263b57600080fd5b8151611c3c816120ee565b6020808252825160a083830152805160c0840181905260009291820190839060e08601905b808310156126b6576126a0828551805160020b8252602081015160020b602083015262ffffff60408201511660408301525050565b606082019150848401935060018301925061266b565b50928601516001600160a01b03811660408701529260408701516001600160a01b0381166060880152935060608701516001600160a01b0381166080880152935060808701516001600160a01b03811660a088015293509695505050505050565b6000806000806080858703121561272d57600080fd5b505082516020840151604085015160609095015191969095509092509050565b634e487b7160e01b600052601160045260246000fd5b6000828210156127755761277561274d565b500390565b634e487b7160e01b600052603260045260246000fd5b600080600080600060a086880312156127a857600080fd5b85516127b38161207d565b80955050602086015193506040860151925060608601516127d38161207d565b60808701519092506127e48161207d565b809150509295509295909350565b6000600182016128045761280461274d565b5060010190565b6000806040838503121561281e57600080fd5b505080516020909101519092909150565b805161ffff81168114611fee57600080fd5b600080600080600080600060e0888a03121561285c57600080fd5b8751612867816120ee565b60208901519097506128788161206b565b95506128866040890161282f565b94506128946060890161282f565b93506128a26080890161282f565b925060a088015160ff811681146128b857600080fd5b60c089015190925080151581146128ce57600080fd5b8091505092959891949750929550565b6000806000606084860312156128f357600080fd5b8351925060208401519150604084015190509250925092565b6000600160ff1b82016129215761292161274d565b5060000390565b60008160020b627fffff1981036129415761294161274d565b60000392915050565b60008160001904831182151516156129645761296461274d565b500290565b634e487b7160e01b600052601260045260246000fd5b60008261298e5761298e612969565b500490565b6000826129a2576129a2612969565b500690565b600082198211156129ba576129ba61274d565b500190565b60006001600160a01b03838116908316818110156129df576129df61274d565b03939250505056fea26469706673582212207474da31b8308098ce9a24ee77aef5730152aa759b0064a9f230c8ab73efc00364736f6c634300080d0033",
  "libraries": {
    "Position": "0xF7cB77C8dCB22A1bb4435932f3515319721Faf44",
    "Underlying": "0x92CB4F7e4CB623E73D5Ec84A43669ADc757C2bd2"
  },
  "devdoc": {
    "kind": "dev",
    "methods": {
      "getMintAmounts(address,uint256,uint256)": {
        "params": {
          "amount0Max_": "max amount of token 0.",
          "amount1Max_": "max amount of token 1.",
          "vaultV2_": "Arrakis V2 vault."
        },
        "returns": {
          "amount0": "of token 0 expected to be deposited.",
          "amount1": "of token 1 expected to be deposited.",
          "mintAmount": "amount f shares expected to be minted."
        }
      },
      "standardBurnParams(uint256,address)": {
        "params": {
          "amountToBurn_": "amount of Arrakis V2 token to burn.",
          "vaultV2_": "Arrakis V2 vault."
        },
        "returns": {
          "burns": "list of ranges and liquidities to burn. function on Arrakis V2 contract."
        }
      },
      "standardRebalance(((int24,int24,uint24),uint256)[],address)": {
        "params": {
          "rangeWeights_": "list of ranges by weights.",
          "vaultV2_": "Arrakis V2 vault."
        },
        "returns": {
          "rebalanceParams": "payload to send to rebalance function on Arrakis V2 contract."
        }
      }
    },
    "title": "ArrakisV2Resolver helpers that resolve / compute payloads for ArrakisV2 calls",
    "version": 1
  },
  "userdoc": {
    "kind": "user",
    "methods": {
      "getAmountsForLiquidity(int24,int24,int24,uint128)": {
        "notice": "Exposes Uniswap's getAmountsForLiquidity helper function, returns amount0 and amount1 for a given amount of liquidity."
      },
      "getMintAmounts(address,uint256,uint256)": {
        "notice": "Mint Amount."
      },
      "standardBurnParams(uint256,address)": {
        "notice": "Standard Burn (proportional burn from all ranges)."
      },
      "standardRebalance(((int24,int24,uint24),uint256)[],address)": {
        "notice": "Standard rebalance (without swapping)"
      }
    },
    "version": 1
  },
  "storageLayout": {
    "storage": [],
    "types": null
  }
}