{
  "address": "0xf90aaFaBb1A4C0CE318Be12Da73F0f31FaBE865d",
  "abi": [
    {
      "inputs": [
        {
          "internalType": "contract IArrakisV2Beacon",
          "name": "arrakisV2Beacon_",
          "type": "address"
        }
      ],
      "stateMutability": "nonpayable",
      "type": "constructor"
    },
    {
      "anonymous": false,
      "inputs": [
        {
          "indexed": false,
          "internalType": "address",
          "name": "owner",
          "type": "address"
        }
      ],
      "name": "InitFactory",
      "type": "event"
    },
    {
      "anonymous": false,
      "inputs": [
        {
          "indexed": false,
          "internalType": "uint8",
          "name": "version",
          "type": "uint8"
        }
      ],
      "name": "Initialized",
      "type": "event"
    },
    {
      "anonymous": false,
      "inputs": [
        {
          "indexed": true,
          "internalType": "address",
          "name": "previousOwner",
          "type": "address"
        },
        {
          "indexed": true,
          "internalType": "address",
          "name": "newOwner",
          "type": "address"
        }
      ],
      "name": "OwnershipTransferred",
      "type": "event"
    },
    {
      "anonymous": false,
      "inputs": [
        {
          "indexed": true,
          "internalType": "address",
          "name": "manager",
          "type": "address"
        },
        {
          "indexed": true,
          "internalType": "address",
          "name": "vault",
          "type": "address"
        }
      ],
      "name": "VaultCreated",
      "type": "event"
    },
    {
      "inputs": [],
      "name": "arrakisV2Beacon",
      "outputs": [
        {
          "internalType": "contract IArrakisV2Beacon",
          "name": "",
          "type": "address"
        }
      ],
      "stateMutability": "view",
      "type": "function"
    },
    {
      "inputs": [
        {
          "components": [
            {
              "internalType": "uint24[]",
              "name": "feeTiers",
              "type": "uint24[]"
            },
            {
              "internalType": "address",
              "name": "token0",
              "type": "address"
            },
            {
              "internalType": "address",
              "name": "token1",
              "type": "address"
            },
            {
              "internalType": "address",
              "name": "owner",
              "type": "address"
            },
            {
              "internalType": "uint256",
              "name": "init0",
              "type": "uint256"
            },
            {
              "internalType": "uint256",
              "name": "init1",
              "type": "uint256"
            },
            {
              "internalType": "address",
              "name": "manager",
              "type": "address"
            },
            {
              "internalType": "address[]",
              "name": "routers",
              "type": "address[]"
            }
          ],
          "internalType": "struct InitializePayload",
          "name": "params_",
          "type": "tuple"
        },
        {
          "internalType": "bool",
          "name": "isBeacon_",
          "type": "bool"
        }
      ],
      "name": "deployVault",
      "outputs": [
        {
          "internalType": "address",
          "name": "vault",
          "type": "address"
        }
      ],
      "stateMutability": "nonpayable",
      "type": "function"
    },
    {
      "inputs": [
        {
          "internalType": "address",
          "name": "proxy",
          "type": "address"
        }
      ],
      "name": "getProxyAdmin",
      "outputs": [
        {
          "internalType": "address",
          "name": "",
          "type": "address"
        }
      ],
      "stateMutability": "view",
      "type": "function"
    },
    {
      "inputs": [
        {
          "internalType": "address",
          "name": "proxy",
          "type": "address"
        }
      ],
      "name": "getProxyImplementation",
      "outputs": [
        {
          "internalType": "address",
          "name": "",
          "type": "address"
        }
      ],
      "stateMutability": "view",
      "type": "function"
    },
    {
      "inputs": [
        {
          "internalType": "address",
          "name": "token0_",
          "type": "address"
        },
        {
          "internalType": "address",
          "name": "token1_",
          "type": "address"
        }
      ],
      "name": "getTokenName",
      "outputs": [
        {
          "internalType": "string",
          "name": "",
          "type": "string"
        }
      ],
      "stateMutability": "view",
      "type": "function"
    },
    {
      "inputs": [
        {
          "internalType": "address",
          "name": "_owner_",
          "type": "address"
        }
      ],
      "name": "initialize",
      "outputs": [],
      "stateMutability": "nonpayable",
      "type": "function"
    },
    {
      "inputs": [
        {
          "internalType": "address[]",
          "name": "vaults_",
          "type": "address[]"
        }
      ],
      "name": "makeVaultsImmutable",
      "outputs": [],
      "stateMutability": "nonpayable",
      "type": "function"
    },
    {
      "inputs": [],
      "name": "numVaults",
      "outputs": [
        {
          "internalType": "uint256",
          "name": "result",
          "type": "uint256"
        }
      ],
      "stateMutability": "view",
      "type": "function"
    },
    {
      "inputs": [],
      "name": "owner",
      "outputs": [
        {
          "internalType": "address",
          "name": "",
          "type": "address"
        }
      ],
      "stateMutability": "view",
      "type": "function"
    },
    {
      "inputs": [],
      "name": "renounceOwnership",
      "outputs": [],
      "stateMutability": "nonpayable",
      "type": "function"
    },
    {
      "inputs": [
        {
          "internalType": "address",
          "name": "newOwner",
          "type": "address"
        }
      ],
      "name": "transferOwnership",
      "outputs": [],
      "stateMutability": "nonpayable",
      "type": "function"
    },
    {
      "inputs": [
        {
          "internalType": "address[]",
          "name": "vaults_",
          "type": "address[]"
        }
      ],
      "name": "upgradeVaults",
      "outputs": [],
      "stateMutability": "nonpayable",
      "type": "function"
    },
    {
      "inputs": [
        {
          "internalType": "address[]",
          "name": "vaults_",
          "type": "address[]"
        },
        {
          "internalType": "bytes[]",
          "name": "datas_",
          "type": "bytes[]"
        }
      ],
      "name": "upgradeVaultsAndCall",
      "outputs": [],
      "stateMutability": "nonpayable",
      "type": "function"
    },
    {
      "inputs": [
        {
          "internalType": "uint256",
          "name": "startIndex_",
          "type": "uint256"
        },
        {
          "internalType": "uint256",
          "name": "endIndex_",
          "type": "uint256"
        }
      ],
      "name": "vaults",
      "outputs": [
        {
          "internalType": "address[]",
          "name": "",
          "type": "address[]"
        }
      ],
      "stateMutability": "view",
      "type": "function"
    }
  ],
  "transactionHash": "0xbf0d7fc2d3c0a7f2802a07d34a58db72185f31320640b2fd5c11e2de6fd6cac3",
  "args": [
    "0x1D91F6D917ec51dE53A5789c34fFF777a58759B6"
  ],
  "numDeployments": 2,
  "solcInputHash": "09ea83f08c7e9f02549d56d0e42f83c3",
  "bytecode": "0x60a060405234801561001057600080fd5b50604051620039bf380380620039bf83398101604081905261003191610042565b6001600160a01b0316608052610072565b60006020828403121561005457600080fd5b81516001600160a01b038116811461006b57600080fd5b9392505050565b608051613915620000aa600039600081816101c70152818161063c01528181610b7001528181611164015261123001526139156000f3fe60806040523480156200001157600080fd5b5060043610620000fd5760003560e01c8063b36306ef1162000097578063c4d66de8116200006e578063c4d66de81462000226578063cf009341146200023d578063f2fde38b1462000254578063f3b7dead146200026b57600080fd5b8063b36306ef14620001c1578063bb81eef614620001e9578063bd30dfb9146200020057600080fd5b8063715018a611620000d8578063715018a614620001755780637c0f7e7b14620001815780638da5cb5b14620001985780638e7f200314620001aa57600080fd5b8063204e1c7a1462000102578063264a6208146200013657806366a82a51146200014f575b600080fd5b620001196200011336600462001713565b62000282565b6040516001600160a01b0390911681526020015b60405180910390f35b6200014062000346565b6040519081526020016200012d565b620001666200016036600462001733565b62000359565b6040516200012d919062001756565b6200017f62000518565b005b6200011962000192366004620017a5565b62000582565b6033546001600160a01b031662000119565b6200017f620001bb366004620018e4565b620005dc565b620001197f000000000000000000000000000000000000000000000000000000000000000081565b6200017f620001fa366004620018e4565b620007bf565b62000217620002113660046200191d565b620008bf565b6040516200012d9190620019b1565b6200017f6200023736600462001713565b62000a00565b6200017f6200024e366004620019c6565b62000b10565b6200017f6200026536600462001713565b62000d72565b620001196200027c36600462001713565b62000e5a565b6000806000836001600160a01b0316604051620002a990635c60da1b60e01b815260040190565b600060405180830381855afa9150503d8060008114620002e6576040519150601f19603f3d011682016040523d82523d6000602084013e620002eb565b606091505b509150915081620003285760405162461bcd60e51b8152602060048201526002602482015261504960f01b60448201526064015b60405180910390fd5b808060200190518101906200033e919062001a68565b949350505050565b600062000354606562000efc565b905090565b6060818310620003d25760405162461bcd60e51b815260206004820152602f60248201527f737461727420696e64657820697320657175616c206f7220677265617465722060448201527f7468616e20656e6420696e6465782e000000000000000000000000000000000060648201526084016200031f565b620003dc62000346565b821115620004535760405162461bcd60e51b815260206004820152602d60248201527f656e6420696e6465782069732067726561746572207468616e207661756c747360448201527f206172726179206c656e6774680000000000000000000000000000000000000060648201526084016200031f565b600062000461848462001a9e565b67ffffffffffffffff8111156200047c576200047c62001806565b604051908082528060200260200182016040528015620004a6578160200160208202803683370190505b509050835b838110156200050e57620004c160658262000f07565b82620004ce878462001a9e565b81518110620004e157620004e162001ab8565b6001600160a01b039092166020928302919091019091015280620005058162001ace565b915050620004ab565b5090505b92915050565b6033546001600160a01b03163314620005745760405162461bcd60e51b815260206004820181905260248201527f4f776e61626c653a2063616c6c6572206973206e6f7420746865206f776e657260448201526064016200031f565b62000580600062000f1c565b565b600062000590838362000f86565b90506200059f6065826200129a565b506040516001600160a01b0382169033907f5d9c31ffa0fecffd7cf379989a3c7af252f0335e0d2a1320b55245912c781f5390600090a392915050565b6033546001600160a01b03163314620006385760405162461bcd60e51b815260206004820181905260248201527f4f776e61626c653a2063616c6c6572206973206e6f7420746865206f776e657260448201526064016200031f565b60007f00000000000000000000000000000000000000000000000000000000000000006001600160a01b0316635c60da1b6040518163ffffffff1660e01b8152600401602060405180830381865afa15801562000699573d6000803e3d6000fd5b505050506040513d601f19601f82011682018060405250810190620006bf919062001a68565b90506001600160a01b038116620007195760405162461bcd60e51b815260206004820152601e60248201527f696d706c656d656e746174696f6e2069732061646472657373207a65726f000060448201526064016200031f565b60005b8251811015620007ba578281815181106200073b576200073b62001ab8565b6020908102919091010151604051631b2ce7f360e11b81526001600160a01b03848116600483015290911690633659cfe690602401600060405180830381600087803b1580156200078b57600080fd5b505af1158015620007a0573d6000803e3d6000fd5b505050508080620007b19062001ace565b9150506200071c565b505050565b6033546001600160a01b031633146200081b5760405162461bcd60e51b815260206004820181905260248201527f4f776e61626c653a2063616c6c6572206973206e6f7420746865206f776e657260448201526064016200031f565b60005b8151811015620008bb578181815181106200083d576200083d62001ab8565b60209081029190910101516040516308f2839760e41b8152600160048201526001600160a01b0390911690638f28397090602401600060405180830381600087803b1580156200088c57600080fd5b505af1158015620008a1573d6000803e3d6000fd5b505050508080620008b29062001ace565b9150506200081e565b5050565b60606000836001600160a01b03166395d89b416040518163ffffffff1660e01b8152600401600060405180830381865afa15801562000902573d6000803e3d6000fd5b505050506040513d6000823e601f3d908101601f191682016040526200092c919081019062001aea565b90506000836001600160a01b03166395d89b416040518163ffffffff1660e01b8152600401600060405180830381865afa1580156200096f573d6000803e3d6000fd5b505050506040513d6000823e601f3d908101601f1916820160405262000999919081019062001aea565b9050620009f76040518060400160405280601181526020017f417272616b6973205661756c742056322000000000000000000000000000000081525083604051806040016040528060018152602001602f60f81b81525084620012b1565b95945050505050565b600062000a0e6001620012e5565b9050801562000a27576000805461ff0019166101001790555b6001600160a01b03821662000a7f5760405162461bcd60e51b815260206004820152601560248201527f6f776e65722069732061646472657373207a65726f000000000000000000000060448201526064016200031f565b62000a8a8262000f1c565b6040516001600160a01b03831681527f6d4391b481e741f75506c7b1504309dd70c7eff29c463eae4bff33d733b0a9e29060200160405180910390a18015620008bb576000805461ff0019169055604051600181527f7f26b83ff96e1f2b6a682f133852f6798a09c465da95921460cefb38474024989060200160405180910390a15050565b6033546001600160a01b0316331462000b6c5760405162461bcd60e51b815260206004820181905260248201527f4f776e61626c653a2063616c6c6572206973206e6f7420746865206f776e657260448201526064016200031f565b60007f00000000000000000000000000000000000000000000000000000000000000006001600160a01b0316635c60da1b6040518163ffffffff1660e01b8152600401602060405180830381865afa15801562000bcd573d6000803e3d6000fd5b505050506040513d601f19601f8201168201806040525081019062000bf3919062001a68565b90506001600160a01b03811662000c4d5760405162461bcd60e51b815260206004820152601e60248201527f696d706c656d656e746174696f6e2069732061646472657373207a65726f000060448201526064016200031f565b8351821462000c9f5760405162461bcd60e51b815260206004820152601860248201527f6d69736d61746368696e67206172726179206c656e677468000000000000000060448201526064016200031f565b60005b845181101562000d6b5784818151811062000cc15762000cc162001ab8565b60200260200101516001600160a01b0316634f1ef2868386868581811062000ced5762000ced62001ab8565b905060200281019062000d01919062001b80565b6040518463ffffffff1660e01b815260040162000d219392919062001bca565b600060405180830381600087803b15801562000d3c57600080fd5b505af115801562000d51573d6000803e3d6000fd5b50505050808062000d629062001ace565b91505062000ca2565b5050505050565b6033546001600160a01b0316331462000dce5760405162461bcd60e51b815260206004820181905260248201527f4f776e61626c653a2063616c6c6572206973206e6f7420746865206f776e657260448201526064016200031f565b6001600160a01b03811662000e4c5760405162461bcd60e51b815260206004820152602660248201527f4f776e61626c653a206e6577206f776e657220697320746865207a65726f206160448201527f646472657373000000000000000000000000000000000000000000000000000060648201526084016200031f565b62000e578162000f1c565b50565b6000806000836001600160a01b031660405162000e81906303e1469160e61b815260040190565b600060405180830381855afa9150503d806000811462000ebe576040519150601f19603f3d011682016040523d82523d6000602084013e62000ec3565b606091505b509150915081620003285760405162461bcd60e51b8152602060048201526002602482015261504160f01b60448201526064016200031f565b600062000512825490565b600062000f15838362001406565b9392505050565b603380546001600160a01b038381167fffffffffffffffffffffffff0000000000000000000000000000000000000000831681179093556040519116919082907f8be0079c531659141344cd1fd0a4f28419497f9722a3daafe3b4186f6b6457e090600090a35050565b6000808062000fb862000fa0604087016020880162001713565b62000fb2606088016040890162001713565b62001433565b604080518082018252601081527f417272616b6973205661756c74205632000000000000000000000000000000006020820152905163bd30dfb960e01b81526001600160a01b0380851660048301528316602482015292945090925090309063bd30dfb990604401600060405180830381865afa9250505080156200106157506040513d6000823e601f3d908101601f191682016040526200105e919081019062001aea565b60015b156200106a5790505b600063727d6de760e11b82620010966200108362000346565b6200109090600162001c09565b62001522565b604051602001620010a8919062001c24565b60408051601f1981840301815290829052620010ca92918b9060240162001d04565b60408051601f19818403018152918152602080830180517bffffffffffffffffffffffffffffffffffffffffffffffffffffffff167fffffffff00000000000000000000000000000000000000000000000000000000909516949094179093525190925060009162001143913291439186910162001e4f565b604051602081830303815290604052805190602001209050866200122d57807f00000000000000000000000000000000000000000000000000000000000000006001600160a01b0316635c60da1b6040518163ffffffff1660e01b8152600401602060405180830381865afa158015620011c1573d6000803e3d6000fd5b505050506040513d601f19601f82011682018060405250810190620011e7919062001a68565b3084604051620011f790620016d4565b620012059392919062001e90565b8190604051809103906000f590508015801562001226573d6000803e3d6000fd5b506200128e565b807f0000000000000000000000000000000000000000000000000000000000000000836040516200125e90620016e2565b6200126b92919062001ebe565b8190604051809103906000f59050801580156200128c573d6000803e3d6000fd5b505b98975050505050505050565b600062000f15836001600160a01b03841662001682565b606084848484604051602001620012cc949392919062001ee2565b6040516020818303038152906040529050949350505050565b60008054610100900460ff161562001377578160ff1660011480156200130a5750303b155b6200136f5760405162461bcd60e51b815260206004820152602e60248201527f496e697469616c697a61626c653a20636f6e747261637420697320616c72656160448201526d191e481a5b9a5d1a585b1a5e995960921b60648201526084016200031f565b506000919050565b60005460ff808416911610620013e75760405162461bcd60e51b815260206004820152602e60248201527f496e697469616c697a61626c653a20636f6e747261637420697320616c72656160448201526d191e481a5b9a5d1a585b1a5e995960921b60648201526084016200031f565b506000805460ff191660ff92909216919091179055600190565b919050565b600082600001828154811062001420576200142062001ab8565b9060005260206000200154905092915050565b600080826001600160a01b0316846001600160a01b031603620014995760405162461bcd60e51b815260206004820152600a60248201527f73616d6520746f6b656e0000000000000000000000000000000000000000000060448201526064016200031f565b826001600160a01b0316846001600160a01b031610620014bb578284620014be565b83835b90925090506001600160a01b0382166200151b5760405162461bcd60e51b815260206004820152600f60248201527f6e6f2061646472657373207a65726f000000000000000000000000000000000060448201526064016200031f565b9250929050565b6060816000036200154a5750506040805180820190915260018152600360fc1b602082015290565b8160005b81156200157a5780620015618162001ace565b9150620015729050600a8362001f41565b91506200154e565b60008167ffffffffffffffff81111562001598576200159862001806565b6040519080825280601f01601f191660200182016040528015620015c3576020820181803683370190505b509050815b85156200167957620015dc60018262001a9e565b90506000620015ed600a8862001f41565b620015fa90600a62001f64565b62001606908862001a9e565b6200161390603062001f86565b905060008160f81b90508084848151811062001633576200163362001ab8565b60200101907effffffffffffffffffffffffffffffffffffffffffffffffffffffffffffff1916908160001a9053506200166f600a8962001f41565b97505050620015c8565b50949350505050565b6000818152600183016020526040812054620016cb5750815460018181018455600084815260208082209093018490558454848252828601909352604090209190915562000512565b50600062000512565b610f908062001faf83390190565b6109a18062002f3f83390190565b6001600160a01b038116811462000e5757600080fd5b80356200140181620016f0565b6000602082840312156200172657600080fd5b813562000f1581620016f0565b600080604083850312156200174757600080fd5b50508035926020909101359150565b6020808252825182820181905260009190848201906040850190845b81811015620017995783516001600160a01b03168352928401929184019160010162001772565b50909695505050505050565b60008060408385031215620017b957600080fd5b823567ffffffffffffffff811115620017d157600080fd5b83016101008186031215620017e557600080fd5b915060208301358015158114620017fb57600080fd5b809150509250929050565b634e487b7160e01b600052604160045260246000fd5b604051601f8201601f1916810167ffffffffffffffff8111828210171562001848576200184862001806565b604052919050565b600082601f8301126200186257600080fd5b8135602067ffffffffffffffff82111562001881576200188162001806565b8160051b620018928282016200181c565b9283528481018201928281019087851115620018ad57600080fd5b83870192505b84831015620018d9578235620018c981620016f0565b82529183019190830190620018b3565b979650505050505050565b600060208284031215620018f757600080fd5b813567ffffffffffffffff8111156200190f57600080fd5b6200033e8482850162001850565b600080604083850312156200193157600080fd5b82356200193e81620016f0565b91506020830135620017fb81620016f0565b60005b838110156200196d57818101518382015260200162001953565b838111156200197d576000848401525b50505050565b600081518084526200199d81602086016020860162001950565b601f01601f19169290920160200192915050565b60208152600062000f15602083018462001983565b600080600060408486031215620019dc57600080fd5b833567ffffffffffffffff80821115620019f557600080fd5b62001a038783880162001850565b9450602086013591508082111562001a1a57600080fd5b818601915086601f83011262001a2f57600080fd5b81358181111562001a3f57600080fd5b8760208260051b850101111562001a5557600080fd5b6020830194508093505050509250925092565b60006020828403121562001a7b57600080fd5b815162000f1581620016f0565b634e487b7160e01b600052601160045260246000fd5b60008282101562001ab35762001ab362001a88565b500390565b634e487b7160e01b600052603260045260246000fd5b60006001820162001ae35762001ae362001a88565b5060010190565b60006020828403121562001afd57600080fd5b815167ffffffffffffffff8082111562001b1657600080fd5b818401915084601f83011262001b2b57600080fd5b81518181111562001b405762001b4062001806565b62001b55601f8201601f19166020016200181c565b915080825285602082850101111562001b6d57600080fd5b6200167981602084016020860162001950565b6000808335601e1984360301811262001b9857600080fd5b83018035915067ffffffffffffffff82111562001bb457600080fd5b6020019150368190038213156200151b57600080fd5b6001600160a01b038416815260406020820152816040820152818360608301376000818301606090810191909152601f909201601f1916010192915050565b6000821982111562001c1f5762001c1f62001a88565b500190565b7f52414b495376322d00000000000000000000000000000000000000000000000081526000825162001c5e81600885016020870162001950565b9190910160080192915050565b6000808335601e1984360301811262001c8357600080fd5b830160208101925035905067ffffffffffffffff81111562001ca457600080fd5b8060051b36038313156200151b57600080fd5b8183526000602080850194508260005b8581101562001cf957813562001cdd81620016f0565b6001600160a01b03168752958201959082019060010162001cc7565b509495945050505050565b60608152600062001d19606083018662001983565b60208382038185015262001d2e828762001983565b9150838203604085015261010080830162001d4a878862001c6b565b92855290829052610120840191600090815b8181101562001d8d57833562ffffff811680821462001d79578485fd5b865250938501939285019260010162001d5c565b5050505062001d9e82870162001706565b6001600160a01b03168284015262001db96040870162001706565b6001600160a01b0381166040850152915062001dd86060870162001706565b6001600160a01b038116606085015291506080860135608084015260a086013560a084015262001e0b60c0870162001706565b6001600160a01b03811660c0850152915062001e2b60e087018762001c6b565b925083820360e085015262001e4282848362001cb7565b9998505050505050505050565b6bffffffffffffffffffffffff198460601b1681528260148201526000825162001e8181603485016020870162001950565b91909101603401949350505050565b60006001600160a01b03808616835280851660208401525060606040830152620009f7606083018462001983565b6001600160a01b03831681526040602082015260006200033e604083018462001983565b6000855162001ef6818460208a0162001950565b85519083019062001f0c818360208a0162001950565b855191019062001f2181836020890162001950565b845191019062001f3681836020880162001950565b019695505050505050565b60008262001f5f57634e487b7160e01b600052601260045260246000fd5b500490565b600081600019048311821515161562001f815762001f8162001a88565b500290565b600060ff821660ff84168060ff0382111562001fa65762001fa662001a88565b01939250505056fe608060405260405162000f9038038062000f90833981016040819052620000269162000519565b82816200005560017f360894a13ba1a3210667c828492db98dca3e2076cc3735a920a3ca505d382bbd620005f9565b60008051602062000f49833981519152146200007557620000756200061f565b6200008382826000620000e7565b50620000b3905060017fb53127684a568b3173ae13b9f8a6016e243e63b6e8ee1178d6a717850b5d6104620005f9565b60008051602062000f2983398151915214620000d357620000d36200061f565b620000de8262000124565b50505062000688565b620000f2836200017f565b600082511180620001005750805b156200011f576200011d8383620001c160201b6200023e1760201c565b505b505050565b7f7e644d79422f17c01e4894b5f4f588d331ebfa28653d42ae832dc59e38c9798f6200014f620001f0565b604080516001600160a01b03928316815291841660208301520160405180910390a16200017c8162000229565b50565b6200018a81620002de565b6040516001600160a01b038216907fbc7cd75a20ee27fd9adebab32041f755214dbc6bffa90cc0225b39da2e5c2d3b90600090a250565b6060620001e9838360405180606001604052806027815260200162000f696027913962000381565b9392505050565b60006200021a60008051602062000f2983398151915260001b6200046760201b620001fa1760201c565b546001600160a01b0316919050565b6001600160a01b038116620002945760405162461bcd60e51b815260206004820152602660248201527f455243313936373a206e65772061646d696e20697320746865207a65726f206160448201526564647265737360d01b60648201526084015b60405180910390fd5b80620002bd60008051602062000f2983398151915260001b6200046760201b620001fa1760201c565b80546001600160a01b0319166001600160a01b039290921691909117905550565b620002f4816200046a60201b6200026a1760201c565b620003585760405162461bcd60e51b815260206004820152602d60248201527f455243313936373a206e657720696d706c656d656e746174696f6e206973206e60448201526c1bdd08184818dbdb9d1c9858dd609a1b60648201526084016200028b565b80620002bd60008051602062000f4983398151915260001b6200046760201b620001fa1760201c565b60606001600160a01b0384163b620003eb5760405162461bcd60e51b815260206004820152602660248201527f416464726573733a2064656c65676174652063616c6c20746f206e6f6e2d636f6044820152651b9d1c9858dd60d21b60648201526084016200028b565b600080856001600160a01b03168560405162000408919062000635565b600060405180830381855af49150503d806000811462000445576040519150601f19603f3d011682016040523d82523d6000602084013e6200044a565b606091505b5090925090506200045d82828662000479565b9695505050505050565b90565b6001600160a01b03163b151590565b606083156200048a575081620001e9565b8251156200049b5782518084602001fd5b8160405162461bcd60e51b81526004016200028b919062000653565b80516001600160a01b0381168114620004cf57600080fd5b919050565b634e487b7160e01b600052604160045260246000fd5b60005b8381101562000507578181015183820152602001620004ed565b838111156200011d5750506000910152565b6000806000606084860312156200052f57600080fd5b6200053a84620004b7565b92506200054a60208501620004b7565b60408501519092506001600160401b03808211156200056857600080fd5b818601915086601f8301126200057d57600080fd5b815181811115620005925762000592620004d4565b604051601f8201601f19908116603f01168101908382118183101715620005bd57620005bd620004d4565b81604052828152896020848701011115620005d757600080fd5b620005ea836020830160208801620004ea565b80955050505050509250925092565b6000828210156200061a57634e487b7160e01b600052601160045260246000fd5b500390565b634e487b7160e01b600052600160045260246000fd5b6000825162000649818460208701620004ea565b9190910192915050565b602081526000825180602084015262000674816040850160208701620004ea565b601f01601f19169190910160400192915050565b61089180620006986000396000f3fe60806040526004361061005e5760003560e01c80635c60da1b116100435780635c60da1b146100a85780638f283970146100d9578063f851a440146100f95761006d565b80633659cfe6146100755780634f1ef286146100955761006d565b3661006d5761006b61010e565b005b61006b61010e565b34801561008157600080fd5b5061006b61009036600461071b565b610128565b61006b6100a3366004610736565b610165565b3480156100b457600080fd5b506100bd6101cc565b6040516001600160a01b03909116815260200160405180910390f35b3480156100e557600080fd5b5061006b6100f436600461071b565b6101fd565b34801561010557600080fd5b506100bd61021d565b610116610279565b61012661012161030e565b610318565b565b61013061033c565b6001600160a01b0316330361015d5761015a8160405180602001604052806000815250600061036f565b50565b61015a61010e565b61016d61033c565b6001600160a01b031633036101c4576101bf8383838080601f0160208091040260200160405190810160405280939291908181526020018383808284376000920191909152506001925061036f915050565b505050565b6101bf61010e565b60006101d661033c565b6001600160a01b031633036101f2576101ed61030e565b905090565b6101fa61010e565b90565b61020561033c565b6001600160a01b0316330361015d5761015a8161039a565b600061022761033c565b6001600160a01b031633036101f2576101ed61033c565b60606102638383604051806060016040528060278152602001610835602791396103ee565b9392505050565b6001600160a01b03163b151590565b61028161033c565b6001600160a01b031633036101265760405162461bcd60e51b815260206004820152604260248201527f5472616e73706172656e745570677261646561626c6550726f78793a2061646d60448201527f696e2063616e6e6f742066616c6c6261636b20746f2070726f78792074617267606482015261195d60f21b608482015260a4015b60405180910390fd5b60006101ed6104e2565b3660008037600080366000845af43d6000803e808015610337573d6000f35b3d6000fd5b60007fb53127684a568b3173ae13b9f8a6016e243e63b6e8ee1178d6a717850b5d61035b546001600160a01b0316919050565b6103788361050a565b6000825111806103855750805b156101bf57610394838361023e565b50505050565b7f7e644d79422f17c01e4894b5f4f588d331ebfa28653d42ae832dc59e38c9798f6103c361033c565b604080516001600160a01b03928316815291841660208301520160405180910390a161015a8161054a565b60606001600160a01b0384163b61046d5760405162461bcd60e51b815260206004820152602660248201527f416464726573733a2064656c65676174652063616c6c20746f206e6f6e2d636f60448201527f6e747261637400000000000000000000000000000000000000000000000000006064820152608401610305565b600080856001600160a01b03168560405161048891906107e5565b600060405180830381855af49150503d80600081146104c3576040519150601f19603f3d011682016040523d82523d6000602084013e6104c8565b606091505b50915091506104d8828286610622565b9695505050505050565b60007f360894a13ba1a3210667c828492db98dca3e2076cc3735a920a3ca505d382bbc610360565b6105138161065b565b6040516001600160a01b038216907fbc7cd75a20ee27fd9adebab32041f755214dbc6bffa90cc0225b39da2e5c2d3b90600090a250565b6001600160a01b0381166105c65760405162461bcd60e51b815260206004820152602660248201527f455243313936373a206e65772061646d696e20697320746865207a65726f206160448201527f64647265737300000000000000000000000000000000000000000000000000006064820152608401610305565b807fb53127684a568b3173ae13b9f8a6016e243e63b6e8ee1178d6a717850b5d61035b80547fffffffffffffffffffffffff0000000000000000000000000000000000000000166001600160a01b039290921691909117905550565b60608315610631575081610263565b8251156106415782518084602001fd5b8160405162461bcd60e51b81526004016103059190610801565b6001600160a01b0381163b6106d85760405162461bcd60e51b815260206004820152602d60248201527f455243313936373a206e657720696d706c656d656e746174696f6e206973206e60448201527f6f74206120636f6e7472616374000000000000000000000000000000000000006064820152608401610305565b807f360894a13ba1a3210667c828492db98dca3e2076cc3735a920a3ca505d382bbc6105e9565b80356001600160a01b038116811461071657600080fd5b919050565b60006020828403121561072d57600080fd5b610263826106ff565b60008060006040848603121561074b57600080fd5b610754846106ff565b9250602084013567ffffffffffffffff8082111561077157600080fd5b818601915086601f83011261078557600080fd5b81358181111561079457600080fd5b8760208285010111156107a657600080fd5b6020830194508093505050509250925092565b60005b838110156107d45781810151838201526020016107bc565b838111156103945750506000910152565b600082516107f78184602087016107b9565b9190910192915050565b60208152600082518060208401526108208160408501602087016107b9565b601f01601f1916919091016040019291505056fe416464726573733a206c6f772d6c6576656c2064656c65676174652063616c6c206661696c6564a2646970667358221220b3e77caa6797a9e797242283576c0fd2d3047c5e8868c46fd1cd8d4d87acfec364736f6c634300080d0033b53127684a568b3173ae13b9f8a6016e243e63b6e8ee1178d6a717850b5d6103360894a13ba1a3210667c828492db98dca3e2076cc3735a920a3ca505d382bbc416464726573733a206c6f772d6c6576656c2064656c65676174652063616c6c206661696c656460806040526040516109a13803806109a18339810160408190526100229161048b565b61004d60017fa3f0ad74e5423aebfd80d3ef4346578335a9a72aeaee59ff6cb3582b35133d5161054b565b60008051602061095a8339815191521461006957610069610570565b6100758282600061007c565b50506105f0565b61008583610147565b6040516001600160a01b038416907f1cf3b03a6cf19fa2baba4df148e9dcabedea7f8a5c07840e207e5c089be95d3e90600090a26000825111806100c65750805b1561014257610140836001600160a01b0316635c60da1b6040518163ffffffff1660e01b8152600401602060405180830381865afa15801561010c573d6000803e3d6000fd5b505050506040513d601f19601f820116820180604052508101906101309190610586565b836102d860201b6100291760201c565b505b505050565b61015a8161030460201b6100551760201c565b6101b95760405162461bcd60e51b815260206004820152602560248201527f455243313936373a206e657720626561636f6e206973206e6f74206120636f6e6044820152641d1c9858dd60da1b60648201526084015b60405180910390fd5b61022d816001600160a01b0316635c60da1b6040518163ffffffff1660e01b8152600401602060405180830381865afa1580156101fa573d6000803e3d6000fd5b505050506040513d601f19601f8201168201806040525081019061021e9190610586565b61030460201b6100551760201c565b6102925760405162461bcd60e51b815260206004820152603060248201527f455243313936373a20626561636f6e20696d706c656d656e746174696f6e206960448201526f1cc81b9bdd08184818dbdb9d1c9858dd60821b60648201526084016101b0565b806102b760008051602061095a83398151915260001b61031360201b6100641760201c565b80546001600160a01b0319166001600160a01b039290921691909117905550565b60606102fd838360405180606001604052806027815260200161097a60279139610316565b9392505050565b6001600160a01b03163b151590565b90565b60606001600160a01b0384163b61037e5760405162461bcd60e51b815260206004820152602660248201527f416464726573733a2064656c65676174652063616c6c20746f206e6f6e2d636f6044820152651b9d1c9858dd60d21b60648201526084016101b0565b600080856001600160a01b03168560405161039991906105a1565b600060405180830381855af49150503d80600081146103d4576040519150601f19603f3d011682016040523d82523d6000602084013e6103d9565b606091505b5090925090506103ea8282866103f4565b9695505050505050565b606083156104035750816102fd565b8251156104135782518084602001fd5b8160405162461bcd60e51b81526004016101b091906105bd565b80516001600160a01b038116811461044457600080fd5b919050565b634e487b7160e01b600052604160045260246000fd5b60005b8381101561047a578181015183820152602001610462565b838111156101405750506000910152565b6000806040838503121561049e57600080fd5b6104a78361042d565b60208401519092506001600160401b03808211156104c457600080fd5b818501915085601f8301126104d857600080fd5b8151818111156104ea576104ea610449565b604051601f8201601f19908116603f0116810190838211818310171561051257610512610449565b8160405282815288602084870101111561052b57600080fd5b61053c83602083016020880161045f565b80955050505050509250929050565b60008282101561056b57634e487b7160e01b600052601160045260246000fd5b500390565b634e487b7160e01b600052600160045260246000fd5b60006020828403121561059857600080fd5b6102fd8261042d565b600082516105b381846020870161045f565b9190910192915050565b60208152600082518060208401526105dc81604085016020870161045f565b601f01601f19169190910160400192915050565b61035b806105ff6000396000f3fe60806040523661001357610011610017565b005b6100115b610027610022610067565b610100565b565b606061004e83836040518060600160405280602781526020016102ff60279139610124565b9392505050565b6001600160a01b03163b151590565b90565b600061009a7fa3f0ad74e5423aebfd80d3ef4346578335a9a72aeaee59ff6cb3582b35133d50546001600160a01b031690565b6001600160a01b0316635c60da1b6040518163ffffffff1660e01b8152600401602060405180830381865afa1580156100d7573d6000803e3d6000fd5b505050506040513d601f19601f820116820180604052508101906100fb9190610256565b905090565b3660008037600080366000845af43d6000803e80801561011f573d6000f35b3d6000fd5b60606001600160a01b0384163b6101a85760405162461bcd60e51b815260206004820152602660248201527f416464726573733a2064656c65676174652063616c6c20746f206e6f6e2d636f60448201527f6e7472616374000000000000000000000000000000000000000000000000000060648201526084015b60405180910390fd5b600080856001600160a01b0316856040516101c391906102af565b600060405180830381855af49150503d80600081146101fe576040519150601f19603f3d011682016040523d82523d6000602084013e610203565b606091505b509150915061021382828661021d565b9695505050505050565b6060831561022c57508161004e565b82511561023c5782518084602001fd5b8160405162461bcd60e51b815260040161019f91906102cb565b60006020828403121561026857600080fd5b81516001600160a01b038116811461004e57600080fd5b60005b8381101561029a578181015183820152602001610282565b838111156102a9576000848401525b50505050565b600082516102c181846020870161027f565b9190910192915050565b60208152600082518060208401526102ea81604085016020870161027f565b601f01601f1916919091016040019291505056fe416464726573733a206c6f772d6c6576656c2064656c65676174652063616c6c206661696c6564a26469706673582212206c9b77999f0a3ab33cf1b5afa7c56a5a02a8ad54f62d6013121615ea058b347164736f6c634300080d0033a3f0ad74e5423aebfd80d3ef4346578335a9a72aeaee59ff6cb3582b35133d50416464726573733a206c6f772d6c6576656c2064656c65676174652063616c6c206661696c6564a264697066735822122064848709993bf243b7ace62e691f67ed560f9ca3f827713c7c25de2ce059175864736f6c634300080d0033",
  "devdoc": {
    "kind": "dev",
    "methods": {
      "deployVault((uint24[],address,address,address,uint256,uint256,address,address[]),bool)": {
        "params": {
          "isBeacon_": "boolean, if true the instance will be BeaconProxy or TransparentProxy.",
          "params_": "contains all data needed to create an instance of ArrakisV2 vault."
        },
        "returns": {
          "vault": "the address of the Arrakis V2 vault instance created."
        }
      },
      "getProxyAdmin(address)": {
        "params": {
          "proxy": "instance of Arrakis V2."
        },
        "returns": {
          "_0": "admin address of Arrakis V2 instance admin."
        }
      },
      "getProxyImplementation(address)": {
        "params": {
          "proxy": "instance of Arrakis V2."
        },
        "returns": {
          "_0": "implementation address of Arrakis V2 implementation."
        }
      },
      "getTokenName(address,address)": {
        "params": {
          "token0_": "address of the first token.",
          "token1_": "address of the second token."
        },
        "returns": {
          "_0": "name name of the arrakis V2 vault."
        }
      },
      "makeVaultsImmutable(address[])": {
        "details": "only callable by owner",
        "params": {
          "vaults_": "the list of vault."
        }
      },
      "numVaults()": {
        "returns": {
          "result": "total number of vaults deployed"
        }
      },
      "owner()": {
        "details": "Returns the address of the current owner."
      },
      "renounceOwnership()": {
        "details": "Leaves the contract without owner. It will not be possible to call `onlyOwner` functions anymore. Can only be called by the current owner. NOTE: Renouncing ownership will leave the contract without an owner, thereby removing any functionality that is only available to the owner."
      },
      "transferOwnership(address)": {
        "details": "Transfers ownership of the contract to a new account (`newOwner`). Can only be called by the current owner."
      },
      "upgradeVaults(address[])": {
        "details": "only callable by owner",
        "params": {
          "vaults_": "the list of vault."
        }
      },
      "upgradeVaultsAndCall(address[],bytes[])": {
        "details": "only callable by owner",
        "params": {
          "datas_": "payloads of instances call.",
          "vaults_": "the list of vault."
        }
      },
      "vaults(uint256,uint256)": {
        "params": {
          "endIndex_": "end index",
          "startIndex_": "start index"
        },
        "returns": {
          "_0": "vaults list of all created vaults."
        }
      }
    },
    "title": "ArrakisV2Factory factory for creating vault instances.",
    "version": 1
  },
  "userdoc": {
    "kind": "user",
    "methods": {
      "deployVault((uint24[],address,address,address,uint256,uint256,address,address[]),bool)": {
        "notice": "Deploys an instance of Vault using BeaconProxy or TransparentProxy."
      },
      "getProxyAdmin(address)": {
        "notice": "get vault instance admin"
      },
      "getProxyImplementation(address)": {
        "notice": "get vault implementation"
      },
      "getTokenName(address,address)": {
        "notice": "get Arrakis V2 standard token name for two corresponding tokens."
      },
      "makeVaultsImmutable(address[])": {
        "notice": "make the vault immutable"
      },
      "numVaults()": {
        "notice": "numVaults counts the total number of vaults in existence"
      },
      "upgradeVaults(address[])": {
        "notice": "upgrade vaults instance using transparent proxy with the current implementation"
      },
      "upgradeVaultsAndCall(address[],bytes[])": {
        "notice": "upgrade vaults instance using transparent proxy with the current implementation and call the instance"
      },
      "vaults(uint256,uint256)": {
        "notice": "get a list of vaults created by this factory"
      }
    },
    "version": 1
  },
  "storageLayout": {
    "storage": [
      {
        "astId": 1594,
        "contract": "contracts/ArrakisV2Factory.sol:ArrakisV2Factory",
        "label": "_initialized",
        "offset": 0,
        "slot": "0",
        "type": "t_uint8"
      },
      {
        "astId": 1597,
        "contract": "contracts/ArrakisV2Factory.sol:ArrakisV2Factory",
        "label": "_initializing",
        "offset": 1,
        "slot": "0",
        "type": "t_bool"
      },
      {
        "astId": 2786,
        "contract": "contracts/ArrakisV2Factory.sol:ArrakisV2Factory",
        "label": "__gap",
        "offset": 0,
        "slot": "1",
        "type": "t_array(t_uint256)50_storage"
      },
      {
        "astId": 1474,
        "contract": "contracts/ArrakisV2Factory.sol:ArrakisV2Factory",
        "label": "_owner",
        "offset": 0,
        "slot": "51",
        "type": "t_address"
      },
      {
        "astId": 1586,
        "contract": "contracts/ArrakisV2Factory.sol:ArrakisV2Factory",
        "label": "__gap",
        "offset": 0,
        "slot": "52",
        "type": "t_array(t_uint256)49_storage"
      },
      {
        "astId": 9708,
        "contract": "contracts/ArrakisV2Factory.sol:ArrakisV2Factory",
        "label": "_vaults",
        "offset": 0,
        "slot": "101",
        "type": "t_struct(AddressSet)5201_storage"
      }
    ],
    "types": {
      "t_address": {
        "encoding": "inplace",
        "label": "address",
        "numberOfBytes": "20"
      },
      "t_array(t_bytes32)dyn_storage": {
        "base": "t_bytes32",
        "encoding": "dynamic_array",
        "label": "bytes32[]",
        "numberOfBytes": "32"
      },
      "t_array(t_uint256)49_storage": {
        "base": "t_uint256",
        "encoding": "inplace",
        "label": "uint256[49]",
        "numberOfBytes": "1568"
      },
      "t_array(t_uint256)50_storage": {
        "base": "t_uint256",
        "encoding": "inplace",
        "label": "uint256[50]",
        "numberOfBytes": "1600"
      },
      "t_bool": {
        "encoding": "inplace",
        "label": "bool",
        "numberOfBytes": "1"
      },
      "t_bytes32": {
        "encoding": "inplace",
        "label": "bytes32",
        "numberOfBytes": "32"
      },
      "t_mapping(t_bytes32,t_uint256)": {
        "encoding": "mapping",
        "key": "t_bytes32",
        "label": "mapping(bytes32 => uint256)",
        "numberOfBytes": "32",
        "value": "t_uint256"
      },
      "t_struct(AddressSet)5201_storage": {
        "encoding": "inplace",
        "label": "struct EnumerableSet.AddressSet",
        "members": [
          {
            "astId": 5200,
            "contract": "contracts/ArrakisV2Factory.sol:ArrakisV2Factory",
            "label": "_inner",
            "offset": 0,
            "slot": "0",
            "type": "t_struct(Set)4900_storage"
          }
        ],
        "numberOfBytes": "64"
      },
      "t_struct(Set)4900_storage": {
        "encoding": "inplace",
        "label": "struct EnumerableSet.Set",
        "members": [
          {
            "astId": 4895,
            "contract": "contracts/ArrakisV2Factory.sol:ArrakisV2Factory",
            "label": "_values",
            "offset": 0,
            "slot": "0",
            "type": "t_array(t_bytes32)dyn_storage"
          },
          {
            "astId": 4899,
            "contract": "contracts/ArrakisV2Factory.sol:ArrakisV2Factory",
            "label": "_indexes",
            "offset": 0,
            "slot": "1",
            "type": "t_mapping(t_bytes32,t_uint256)"
          }
        ],
        "numberOfBytes": "64"
      },
      "t_uint256": {
        "encoding": "inplace",
        "label": "uint256",
        "numberOfBytes": "32"
      },
      "t_uint8": {
        "encoding": "inplace",
        "label": "uint8",
        "numberOfBytes": "1"
      }
    }
  }
}