{
  "address": "0xC98be27249125c0327822fE1E57203134Fd882Cc",
  "abi": [
    {
      "inputs": [
        {
          "internalType": "contract IUniswapV3Factory",
          "name": "factory_",
          "type": "address"
        },
        {
          "internalType": "address",
          "name": "arrakisTreasury_",
          "type": "address"
        }
      ],
      "stateMutability": "nonpayable",
      "type": "constructor"
    },
    {
      "anonymous": false,
      "inputs": [
        {
          "indexed": true,
          "internalType": "address",
          "name": "owner",
          "type": "address"
        },
        {
          "indexed": true,
          "internalType": "address",
          "name": "spender",
          "type": "address"
        },
        {
          "indexed": false,
          "internalType": "uint256",
          "name": "value",
          "type": "uint256"
        }
      ],
      "name": "Approval",
      "type": "event"
    },
    {
      "anonymous": false,
      "inputs": [
        {
          "indexed": false,
          "internalType": "uint8",
          "name": "version",
          "type": "uint8"
        }
      ],
      "name": "Initialized",
      "type": "event"
    },
    {
      "anonymous": false,
      "inputs": [
        {
          "indexed": false,
          "internalType": "address",
          "name": "user",
          "type": "address"
        },
        {
          "indexed": false,
          "internalType": "uint256",
          "name": "burnAmount0",
          "type": "uint256"
        },
        {
          "indexed": false,
          "internalType": "uint256",
          "name": "burnAmount1",
          "type": "uint256"
        }
      ],
      "name": "LPBurned",
      "type": "event"
    },
    {
      "anonymous": false,
      "inputs": [
        {
          "indexed": false,
          "internalType": "uint24[]",
          "name": "feeTiers",
          "type": "uint24[]"
        }
      ],
      "name": "LogAddPools",
      "type": "event"
    },
    {
      "anonymous": false,
      "inputs": [
        {
          "indexed": false,
          "internalType": "address",
          "name": "receiver",
          "type": "address"
        },
        {
          "indexed": false,
          "internalType": "uint256",
          "name": "burnAmount",
          "type": "uint256"
        },
        {
          "indexed": false,
          "internalType": "uint256",
          "name": "amount0Out",
          "type": "uint256"
        },
        {
          "indexed": false,
          "internalType": "uint256",
          "name": "amount1Out",
          "type": "uint256"
        }
      ],
      "name": "LogBurn",
      "type": "event"
    },
    {
      "anonymous": false,
      "inputs": [
        {
          "indexed": false,
          "internalType": "uint256",
          "name": "fee0",
          "type": "uint256"
        },
        {
          "indexed": false,
          "internalType": "uint256",
          "name": "fee1",
          "type": "uint256"
        }
      ],
      "name": "LogCollectedFees",
      "type": "event"
    },
    {
      "anonymous": false,
      "inputs": [
        {
          "indexed": false,
          "internalType": "address",
          "name": "receiver",
          "type": "address"
        },
        {
          "indexed": false,
          "internalType": "uint256",
          "name": "mintAmount",
          "type": "uint256"
        },
        {
          "indexed": false,
          "internalType": "uint256",
          "name": "amount0In",
          "type": "uint256"
        },
        {
          "indexed": false,
          "internalType": "uint256",
          "name": "amount1In",
          "type": "uint256"
        }
      ],
      "name": "LogMint",
      "type": "event"
    },
    {
      "anonymous": false,
      "inputs": [
        {
          "components": [
            {
              "components": [
                {
                  "internalType": "uint128",
                  "name": "liquidity",
                  "type": "uint128"
                },
                {
                  "components": [
                    {
                      "internalType": "int24",
                      "name": "lowerTick",
                      "type": "int24"
                    },
                    {
                      "internalType": "int24",
                      "name": "upperTick",
                      "type": "int24"
                    },
                    {
                      "internalType": "uint24",
                      "name": "feeTier",
                      "type": "uint24"
                    }
                  ],
                  "internalType": "struct Range",
                  "name": "range",
                  "type": "tuple"
                }
              ],
              "internalType": "struct PositionLiquidity[]",
              "name": "removes",
              "type": "tuple[]"
            },
            {
              "components": [
                {
                  "internalType": "uint128",
                  "name": "liquidity",
                  "type": "uint128"
                },
                {
                  "components": [
                    {
                      "internalType": "int24",
                      "name": "lowerTick",
                      "type": "int24"
                    },
                    {
                      "internalType": "int24",
                      "name": "upperTick",
                      "type": "int24"
                    },
                    {
                      "internalType": "uint24",
                      "name": "feeTier",
                      "type": "uint24"
                    }
                  ],
                  "internalType": "struct Range",
                  "name": "range",
                  "type": "tuple"
                }
              ],
              "internalType": "struct PositionLiquidity[]",
              "name": "deposits",
              "type": "tuple[]"
            },
            {
              "components": [
                {
                  "internalType": "bytes",
                  "name": "payload",
                  "type": "bytes"
                },
                {
                  "internalType": "address",
                  "name": "pool",
                  "type": "address"
                },
                {
                  "internalType": "address",
                  "name": "router",
                  "type": "address"
                },
                {
                  "internalType": "uint256",
                  "name": "amountIn",
                  "type": "uint256"
                },
                {
                  "internalType": "uint256",
                  "name": "expectedMinReturn",
                  "type": "uint256"
                },
                {
                  "internalType": "bool",
                  "name": "zeroForOne",
                  "type": "bool"
                }
              ],
              "internalType": "struct SwapPayload",
              "name": "swap",
              "type": "tuple"
            },
            {
              "internalType": "uint256",
              "name": "minDeposit0",
              "type": "uint256"
            },
            {
              "internalType": "uint256",
              "name": "minDeposit1",
              "type": "uint256"
            }
          ],
          "indexed": false,
          "internalType": "struct Rebalance",
          "name": "rebalanceParams",
          "type": "tuple"
        }
      ],
      "name": "LogRebalance",
      "type": "event"
    },
    {
      "anonymous": false,
      "inputs": [
        {
          "indexed": false,
          "internalType": "address[]",
          "name": "pools",
          "type": "address[]"
        }
      ],
      "name": "LogRemovePools",
      "type": "event"
    },
    {
      "anonymous": false,
      "inputs": [
        {
          "indexed": false,
          "internalType": "address",
          "name": "minter",
          "type": "address"
        }
      ],
      "name": "LogRestrictedMint",
      "type": "event"
    },
    {
      "anonymous": false,
      "inputs": [
        {
          "indexed": false,
          "internalType": "uint256",
          "name": "init0",
          "type": "uint256"
        },
        {
          "indexed": false,
          "internalType": "uint256",
          "name": "init1",
          "type": "uint256"
        }
      ],
      "name": "LogSetInits",
      "type": "event"
    },
    {
      "anonymous": false,
      "inputs": [
        {
          "indexed": false,
          "internalType": "address",
          "name": "newManager",
          "type": "address"
        }
      ],
      "name": "LogSetManager",
      "type": "event"
    },
    {
      "anonymous": false,
      "inputs": [
        {
          "indexed": false,
          "internalType": "uint256",
          "name": "fee0",
          "type": "uint256"
        },
        {
          "indexed": false,
          "internalType": "uint256",
          "name": "fee1",
          "type": "uint256"
        }
      ],
      "name": "LogUncollectedFees",
      "type": "event"
    },
    {
      "anonymous": false,
      "inputs": [
        {
          "indexed": false,
          "internalType": "uint256",
          "name": "amount0",
          "type": "uint256"
        },
        {
          "indexed": false,
          "internalType": "uint256",
          "name": "amount1",
          "type": "uint256"
        }
      ],
      "name": "LogWithdrawArrakisBalance",
      "type": "event"
    },
    {
      "anonymous": false,
      "inputs": [
        {
          "indexed": false,
          "internalType": "uint256",
          "name": "amount0",
          "type": "uint256"
        },
        {
          "indexed": false,
          "internalType": "uint256",
          "name": "amount1",
          "type": "uint256"
        }
      ],
      "name": "LogWithdrawManagerBalance",
      "type": "event"
    },
    {
      "anonymous": false,
      "inputs": [
        {
          "indexed": true,
          "internalType": "address",
          "name": "previousOwner",
          "type": "address"
        },
        {
          "indexed": true,
          "internalType": "address",
          "name": "newOwner",
          "type": "address"
        }
      ],
      "name": "OwnershipTransferred",
      "type": "event"
    },
    {
      "anonymous": false,
      "inputs": [
        {
          "indexed": true,
          "internalType": "address",
          "name": "from",
          "type": "address"
        },
        {
          "indexed": true,
          "internalType": "address",
          "name": "to",
          "type": "address"
        },
        {
          "indexed": false,
          "internalType": "uint256",
          "name": "value",
          "type": "uint256"
        }
      ],
      "name": "Transfer",
      "type": "event"
    },
    {
      "inputs": [
        {
          "internalType": "uint24[]",
          "name": "feeTiers_",
          "type": "uint24[]"
        }
      ],
      "name": "addPools",
      "outputs": [],
      "stateMutability": "nonpayable",
      "type": "function"
    },
    {
      "inputs": [
        {
          "internalType": "address",
          "name": "owner",
          "type": "address"
        },
        {
          "internalType": "address",
          "name": "spender",
          "type": "address"
        }
      ],
      "name": "allowance",
      "outputs": [
        {
          "internalType": "uint256",
          "name": "",
          "type": "uint256"
        }
      ],
      "stateMutability": "view",
      "type": "function"
    },
    {
      "inputs": [
        {
          "internalType": "address",
          "name": "spender",
          "type": "address"
        },
        {
          "internalType": "uint256",
          "name": "amount",
          "type": "uint256"
        }
      ],
      "name": "approve",
      "outputs": [
        {
          "internalType": "bool",
          "name": "",
          "type": "bool"
        }
      ],
      "stateMutability": "nonpayable",
      "type": "function"
    },
    {
      "inputs": [],
      "name": "arrakisBalance0",
      "outputs": [
        {
          "internalType": "uint256",
          "name": "",
          "type": "uint256"
        }
      ],
      "stateMutability": "view",
      "type": "function"
    },
    {
      "inputs": [],
      "name": "arrakisBalance1",
      "outputs": [
        {
          "internalType": "uint256",
          "name": "",
          "type": "uint256"
        }
      ],
      "stateMutability": "view",
      "type": "function"
    },
    {
      "inputs": [],
      "name": "arrakisFeeBPS",
      "outputs": [
        {
          "internalType": "uint16",
          "name": "",
          "type": "uint16"
        }
      ],
      "stateMutability": "view",
      "type": "function"
    },
    {
      "inputs": [],
      "name": "arrakisTreasury",
      "outputs": [
        {
          "internalType": "address",
          "name": "",
          "type": "address"
        }
      ],
      "stateMutability": "view",
      "type": "function"
    },
    {
      "inputs": [
        {
          "internalType": "address",
          "name": "account",
          "type": "address"
        }
      ],
      "name": "balanceOf",
      "outputs": [
        {
          "internalType": "uint256",
          "name": "",
          "type": "uint256"
        }
      ],
      "stateMutability": "view",
      "type": "function"
    },
    {
      "inputs": [
        {
          "components": [
            {
              "internalType": "uint128",
              "name": "liquidity",
              "type": "uint128"
            },
            {
              "components": [
                {
                  "internalType": "int24",
                  "name": "lowerTick",
                  "type": "int24"
                },
                {
                  "internalType": "int24",
                  "name": "upperTick",
                  "type": "int24"
                },
                {
                  "internalType": "uint24",
                  "name": "feeTier",
                  "type": "uint24"
                }
              ],
              "internalType": "struct Range",
              "name": "range",
              "type": "tuple"
            }
          ],
          "internalType": "struct BurnLiquidity[]",
          "name": "burns_",
          "type": "tuple[]"
        },
        {
          "internalType": "uint256",
          "name": "burnAmount_",
          "type": "uint256"
        },
        {
          "internalType": "address",
          "name": "receiver_",
          "type": "address"
        }
      ],
      "name": "burn",
      "outputs": [
        {
          "internalType": "uint256",
          "name": "amount0",
          "type": "uint256"
        },
        {
          "internalType": "uint256",
          "name": "amount1",
          "type": "uint256"
        }
      ],
      "stateMutability": "nonpayable",
      "type": "function"
    },
    {
      "inputs": [],
      "name": "decimals",
      "outputs": [
        {
          "internalType": "uint8",
          "name": "",
          "type": "uint8"
        }
      ],
      "stateMutability": "view",
      "type": "function"
    },
    {
      "inputs": [
        {
          "internalType": "address",
          "name": "spender",
          "type": "address"
        },
        {
          "internalType": "uint256",
          "name": "subtractedValue",
          "type": "uint256"
        }
      ],
      "name": "decreaseAllowance",
      "outputs": [
        {
          "internalType": "bool",
          "name": "",
          "type": "bool"
        }
      ],
      "stateMutability": "nonpayable",
      "type": "function"
    },
    {
      "inputs": [],
      "name": "factory",
      "outputs": [
        {
          "internalType": "contract IUniswapV3Factory",
          "name": "",
          "type": "address"
        }
      ],
      "stateMutability": "view",
      "type": "function"
    },
    {
      "inputs": [
        {
          "internalType": "address",
          "name": "spender",
          "type": "address"
        },
        {
          "internalType": "uint256",
          "name": "addedValue",
          "type": "uint256"
        }
      ],
      "name": "increaseAllowance",
      "outputs": [
        {
          "internalType": "bool",
          "name": "",
          "type": "bool"
        }
      ],
      "stateMutability": "nonpayable",
      "type": "function"
    },
    {
      "inputs": [],
      "name": "init0",
      "outputs": [
        {
          "internalType": "uint256",
          "name": "",
          "type": "uint256"
        }
      ],
      "stateMutability": "view",
      "type": "function"
    },
    {
      "inputs": [],
      "name": "init1",
      "outputs": [
        {
          "internalType": "uint256",
          "name": "",
          "type": "uint256"
        }
      ],
      "stateMutability": "view",
      "type": "function"
    },
    {
      "inputs": [
        {
          "internalType": "string",
          "name": "name_",
          "type": "string"
        },
        {
          "internalType": "string",
          "name": "symbol_",
          "type": "string"
        },
        {
          "components": [
            {
              "internalType": "uint24[]",
              "name": "feeTiers",
              "type": "uint24[]"
            },
            {
              "internalType": "address",
              "name": "token0",
              "type": "address"
            },
            {
              "internalType": "address",
              "name": "token1",
              "type": "address"
            },
            {
              "internalType": "address",
              "name": "owner",
              "type": "address"
            },
            {
              "internalType": "uint256",
              "name": "init0",
              "type": "uint256"
            },
            {
              "internalType": "uint256",
              "name": "init1",
              "type": "uint256"
            },
            {
              "internalType": "address",
              "name": "manager",
              "type": "address"
            }
          ],
          "internalType": "struct InitializePayload",
          "name": "params_",
          "type": "tuple"
        }
      ],
      "name": "initialize",
      "outputs": [],
      "stateMutability": "nonpayable",
      "type": "function"
    },
    {
      "inputs": [],
      "name": "manager",
      "outputs": [
        {
          "internalType": "contract IManager",
          "name": "",
          "type": "address"
        }
      ],
      "stateMutability": "view",
      "type": "function"
    },
    {
      "inputs": [],
      "name": "managerBalance0",
      "outputs": [
        {
          "internalType": "uint256",
          "name": "",
          "type": "uint256"
        }
      ],
      "stateMutability": "view",
      "type": "function"
    },
    {
      "inputs": [],
      "name": "managerBalance1",
      "outputs": [
        {
          "internalType": "uint256",
          "name": "",
          "type": "uint256"
        }
      ],
      "stateMutability": "view",
      "type": "function"
    },
    {
      "inputs": [
        {
          "internalType": "uint256",
          "name": "mintAmount_",
          "type": "uint256"
        },
        {
          "internalType": "address",
          "name": "receiver_",
          "type": "address"
        }
      ],
      "name": "mint",
      "outputs": [
        {
          "internalType": "uint256",
          "name": "amount0",
          "type": "uint256"
        },
        {
          "internalType": "uint256",
          "name": "amount1",
          "type": "uint256"
        }
      ],
      "stateMutability": "nonpayable",
      "type": "function"
    },
    {
      "inputs": [],
      "name": "name",
      "outputs": [
        {
          "internalType": "string",
          "name": "",
          "type": "string"
        }
      ],
      "stateMutability": "view",
      "type": "function"
    },
    {
      "inputs": [],
      "name": "owner",
      "outputs": [
        {
          "internalType": "address",
          "name": "",
          "type": "address"
        }
      ],
      "stateMutability": "view",
      "type": "function"
    },
    {
      "inputs": [
        {
          "internalType": "uint256",
          "name": "",
          "type": "uint256"
        }
      ],
      "name": "ranges",
      "outputs": [
        {
          "internalType": "int24",
          "name": "lowerTick",
          "type": "int24"
        },
        {
          "internalType": "int24",
          "name": "upperTick",
          "type": "int24"
        },
        {
          "internalType": "uint24",
          "name": "feeTier",
          "type": "uint24"
        }
      ],
      "stateMutability": "view",
      "type": "function"
    },
    {
      "inputs": [
        {
          "components": [
            {
              "internalType": "int24",
              "name": "lowerTick",
              "type": "int24"
            },
            {
              "internalType": "int24",
              "name": "upperTick",
              "type": "int24"
            },
            {
              "internalType": "uint24",
              "name": "feeTier",
              "type": "uint24"
            }
          ],
          "internalType": "struct Range[]",
          "name": "ranges_",
          "type": "tuple[]"
        },
        {
          "components": [
            {
              "components": [
                {
                  "internalType": "uint128",
                  "name": "liquidity",
                  "type": "uint128"
                },
                {
                  "components": [
                    {
                      "internalType": "int24",
                      "name": "lowerTick",
                      "type": "int24"
                    },
                    {
                      "internalType": "int24",
                      "name": "upperTick",
                      "type": "int24"
                    },
                    {
                      "internalType": "uint24",
                      "name": "feeTier",
                      "type": "uint24"
                    }
                  ],
                  "internalType": "struct Range",
                  "name": "range",
                  "type": "tuple"
                }
              ],
              "internalType": "struct PositionLiquidity[]",
              "name": "removes",
              "type": "tuple[]"
            },
            {
              "components": [
                {
                  "internalType": "uint128",
                  "name": "liquidity",
                  "type": "uint128"
                },
                {
                  "components": [
                    {
                      "internalType": "int24",
                      "name": "lowerTick",
                      "type": "int24"
                    },
                    {
                      "internalType": "int24",
                      "name": "upperTick",
                      "type": "int24"
                    },
                    {
                      "internalType": "uint24",
                      "name": "feeTier",
                      "type": "uint24"
                    }
                  ],
                  "internalType": "struct Range",
                  "name": "range",
                  "type": "tuple"
                }
              ],
              "internalType": "struct PositionLiquidity[]",
              "name": "deposits",
              "type": "tuple[]"
            },
            {
              "components": [
                {
                  "internalType": "bytes",
                  "name": "payload",
                  "type": "bytes"
                },
                {
                  "internalType": "address",
                  "name": "pool",
                  "type": "address"
                },
                {
                  "internalType": "address",
                  "name": "router",
                  "type": "address"
                },
                {
                  "internalType": "uint256",
                  "name": "amountIn",
                  "type": "uint256"
                },
                {
                  "internalType": "uint256",
                  "name": "expectedMinReturn",
                  "type": "uint256"
                },
                {
                  "internalType": "bool",
                  "name": "zeroForOne",
                  "type": "bool"
                }
              ],
              "internalType": "struct SwapPayload",
              "name": "swap",
              "type": "tuple"
            },
            {
              "internalType": "uint256",
              "name": "minDeposit0",
              "type": "uint256"
            },
            {
              "internalType": "uint256",
              "name": "minDeposit1",
              "type": "uint256"
            }
          ],
          "internalType": "struct Rebalance",
          "name": "rebalanceParams_",
          "type": "tuple"
        },
        {
          "components": [
            {
              "internalType": "int24",
              "name": "lowerTick",
              "type": "int24"
            },
            {
              "internalType": "int24",
              "name": "upperTick",
              "type": "int24"
            },
            {
              "internalType": "uint24",
              "name": "feeTier",
              "type": "uint24"
            }
          ],
          "internalType": "struct Range[]",
          "name": "rangesToRemove_",
          "type": "tuple[]"
        }
      ],
      "name": "rebalance",
      "outputs": [],
      "stateMutability": "nonpayable",
      "type": "function"
    },
    {
      "inputs": [
        {
          "internalType": "address[]",
          "name": "pools_",
          "type": "address[]"
        }
      ],
      "name": "removePools",
      "outputs": [],
      "stateMutability": "nonpayable",
      "type": "function"
    },
    {
      "inputs": [],
      "name": "renounceOwnership",
      "outputs": [],
      "stateMutability": "nonpayable",
      "type": "function"
    },
    {
      "inputs": [],
      "name": "restrictedMint",
      "outputs": [
        {
          "internalType": "address",
          "name": "",
          "type": "address"
        }
      ],
      "stateMutability": "view",
      "type": "function"
    },
    {
      "inputs": [
        {
          "internalType": "uint256",
          "name": "init0_",
          "type": "uint256"
        },
        {
          "internalType": "uint256",
          "name": "init1_",
          "type": "uint256"
        }
      ],
      "name": "setInits",
      "outputs": [],
      "stateMutability": "nonpayable",
      "type": "function"
    },
    {
      "inputs": [
        {
          "internalType": "contract IManager",
          "name": "manager_",
          "type": "address"
        }
      ],
      "name": "setManager",
      "outputs": [],
      "stateMutability": "nonpayable",
      "type": "function"
    },
    {
      "inputs": [
        {
          "internalType": "address",
          "name": "minter_",
          "type": "address"
        }
      ],
      "name": "setRestrictedMint",
      "outputs": [],
      "stateMutability": "nonpayable",
      "type": "function"
    },
    {
      "inputs": [],
      "name": "symbol",
      "outputs": [
        {
          "internalType": "string",
          "name": "",
          "type": "string"
        }
      ],
      "stateMutability": "view",
      "type": "function"
    },
    {
      "inputs": [],
      "name": "token0",
      "outputs": [
        {
          "internalType": "contract IERC20",
          "name": "",
          "type": "address"
        }
      ],
      "stateMutability": "view",
      "type": "function"
    },
    {
      "inputs": [],
      "name": "token1",
      "outputs": [
        {
          "internalType": "contract IERC20",
          "name": "",
          "type": "address"
        }
      ],
      "stateMutability": "view",
      "type": "function"
    },
    {
      "inputs": [],
      "name": "totalSupply",
      "outputs": [
        {
          "internalType": "uint256",
          "name": "",
          "type": "uint256"
        }
      ],
      "stateMutability": "view",
      "type": "function"
    },
    {
      "inputs": [
        {
          "internalType": "address",
          "name": "to",
          "type": "address"
        },
        {
          "internalType": "uint256",
          "name": "amount",
          "type": "uint256"
        }
      ],
      "name": "transfer",
      "outputs": [
        {
          "internalType": "bool",
          "name": "",
          "type": "bool"
        }
      ],
      "stateMutability": "nonpayable",
      "type": "function"
    },
    {
      "inputs": [
        {
          "internalType": "address",
          "name": "from",
          "type": "address"
        },
        {
          "internalType": "address",
          "name": "to",
          "type": "address"
        },
        {
          "internalType": "uint256",
          "name": "amount",
          "type": "uint256"
        }
      ],
      "name": "transferFrom",
      "outputs": [
        {
          "internalType": "bool",
          "name": "",
          "type": "bool"
        }
      ],
      "stateMutability": "nonpayable",
      "type": "function"
    },
    {
      "inputs": [
        {
          "internalType": "address",
          "name": "newOwner",
          "type": "address"
        }
      ],
      "name": "transferOwnership",
      "outputs": [],
      "stateMutability": "nonpayable",
      "type": "function"
    },
    {
      "inputs": [
        {
          "internalType": "uint256",
          "name": "amount0Owed_",
          "type": "uint256"
        },
        {
          "internalType": "uint256",
          "name": "amount1Owed_",
          "type": "uint256"
        },
        {
          "internalType": "bytes",
          "name": "",
          "type": "bytes"
        }
      ],
      "name": "uniswapV3MintCallback",
      "outputs": [],
      "stateMutability": "nonpayable",
      "type": "function"
    },
    {
      "inputs": [],
      "name": "withdrawArrakisBalance",
      "outputs": [],
      "stateMutability": "nonpayable",
      "type": "function"
    },
    {
      "inputs": [],
      "name": "withdrawManagerBalance",
      "outputs": [],
      "stateMutability": "nonpayable",
      "type": "function"
    }
  ],
  "transactionHash": "0x3d103de5303be09abddcfa0476239fcc188963cffb49ba46995493632900f414",
  "args": [
    "0x1F98431c8aD98523631AE4a59f267346ea31F984",
    "0xDEb4C33D5C3E7e32F55a9D6336FE06010E40E3AB"
  ],
  "numDeployments": 9,
  "solcInputHash": "65508290748d36dec2ff95a6a8d6039b",
  "bytecode": "0x60c06040523480156200001157600080fd5b5060405162005e3938038062005e398339810160408190526200003491620000e9565b81816001600160a01b038216620000775760405162461bcd60e51b81526020600482015260026024820152612d2360f11b60448201526064015b60405180910390fd5b6001600160a01b038116620000b55760405162461bcd60e51b815260206004820152600360248201526216905560ea1b60448201526064016200006e565b6001600160a01b039182166080521660a05250620001289050565b6001600160a01b0381168114620000e657600080fd5b50565b60008060408385031215620000fd57600080fd5b82516200010a81620000d0565b60208401519092506200011d81620000d0565b809150509250929050565b60805160a051615ca5620001946000396000818161050201528181611d780152611db50152600081816105320152818161091e01528181610c9d015281816118cc015281816120750152818161254301528181612e480152818161356b0152613b640152615ca56000f3fe608060405234801561001057600080fd5b50600436106102c85760003560e01c806386ac1cb91161017b578063c7a4ae17116100d8578063dc9ad4c11161008c578063f2eb3e3411610071578063f2eb3e3414610605578063f2fde38b1461060e578063f4effe411461062157600080fd5b8063dc9ad4c1146105c4578063dd62ed3e146105cc57600080fd5b8063d21220a7116100bd578063d21220a714610595578063d3487997146105a8578063d8953ca7146105bb57600080fd5b8063c7a4ae171461056f578063d0ebdbe71461058257600080fd5b8063a9059cbb1161012f578063bbfe704e11610114578063bbfe704e14610524578063c45a01551461052d578063c70750411461055457600080fd5b8063a9059cbb146104ea578063b9f24cb2146104fd57600080fd5b806394bf804d1161016057806394bf804d146104a757806395d89b41146104cf578063a457c2d7146104d757600080fd5b806386ac1cb9146104835780638da5cb5b1461049657600080fd5b80633acb0b31116102295780634b164140116101dd57806370a08231116101c257806370a082311461044a578063715018a6146104735780637ecd67171461047b57600080fd5b80634b164140146103fc5780635fdecdfa1461040f57600080fd5b80633fba89dc1161020e5780633fba89dc146103cd57806342fb9d44146103e0578063481c6a75146103e957600080fd5b80633acb0b31146103a75780633f7b6135146103ba57600080fd5b806314b806301161028057806323b872dd1161026557806323b872dd14610372578063313ce56714610385578063395093511461039457600080fd5b806314b806301461036157806318160ddd1461036a57600080fd5b8063095ea7b3116102b1578063095ea7b3146102fe5780630d6e6631146103215780630dfe16811461033657600080fd5b8063065756db146102cd57806306fdde03146102e9575b600080fd5b6102d660d05481565b6040519081526020015b60405180910390f35b6102f1610634565b6040516102e09190614e99565b61031161030c366004614eec565b6106c6565b60405190151581526020016102e0565b61033461032f366004614f18565b6106e0565b005b60c954610349906001600160a01b031681565b6040516001600160a01b0390911681526020016102e0565b6102d660cb5481565b6067546102d6565b610311610380366004614f35565b610794565b604051601281526020016102e0565b6103116103a2366004614eec565b6107ba565b6103346103b5366004614fc2565b6107f9565b6103346103c836600461505f565b610e81565b6103346103db3660046150c3565b610f6e565b6102d660d15481565b60d254610349906001600160a01b031681565b61033461040a3660046151a3565b6113ed565b61042261041d3660046151e5565b611538565b60408051600294850b81529290930b602083015262ffffff16918101919091526060016102e0565b6102d6610458366004614f18565b6001600160a01b031660009081526065602052604090205490565b610334611577565b6103346115dd565b6103346104913660046151a3565b61166b565b6033546001600160a01b0316610349565b6104ba6104b53660046151fe565b611716565b604080519283526020830191909152016102e0565b6102f1611bc4565b6103116104e5366004614eec565b611bd3565b6103116104f8366004614eec565b611c88565b6103497f000000000000000000000000000000000000000000000000000000000000000081565b6102d660cf5481565b6103497f000000000000000000000000000000000000000000000000000000000000000081565b61055c60fa81565b60405161ffff90911681526020016102e0565b60d354610349906001600160a01b031681565b610334610590366004614f18565b611c96565b60ca54610349906001600160a01b031681565b6103346105b636600461522e565b611d3e565b6102d660ce5481565b610334611d4e565b6102d66105da366004615281565b6001600160a01b03918216600090815260666020908152604080832093909416825291909152205490565b6102d660cc5481565b61033461061c366004614f18565b611e10565b6104ba61062f3660046152af565b611ef2565b6060606880546106439061533d565b80601f016020809104026020016040519081016040528092919081815260200182805461066f9061533d565b80156106bc5780601f10610691576101008083540402835291602001916106bc565b820191906000526020600020905b81548152906001019060200180831161069f57829003601f168201915b5050505050905090565b6000336106d48185856129c4565b60019150505b92915050565b6033546001600160a01b0316331461073f5760405162461bcd60e51b815260206004820181905260248201527f4f776e61626c653a2063616c6c6572206973206e6f7420746865206f776e657260448201526064015b60405180910390fd5b60d380546001600160a01b0319166001600160a01b0383169081179091556040519081527f6b7f177e85ebe3aabaf1339b9a445ac908b2bef730372180fa280958e2414ee3906020015b60405180910390a150565b6000336107a2858285612b01565b6107ad858585612b8d565b60019150505b9392505050565b3360008181526066602090815260408083206001600160a01b03871684529091528120549091906106d490829086906107f490879061538d565b6129c4565b60d2546001600160a01b031633146108385760405162461bcd60e51b81526020600482015260026024820152614e4d60f01b6044820152606401610736565b60005b84811015610b9a576000738E7a62cB186cb15aD185652EEA608402DD8824F16335f8054760cd898986818110610873576108736153a5565b9050606002016040518363ffffffff1660e01b815260040161089692919061541f565b6040805180830381865af41580156108b2573d6000803e3d6000fd5b505050506040513d601f19601f820116820180604052508101906108d691906154a8565b509050801561090b5760405162461bcd60e51b81526020600482015260016024820152602960f91b6044820152606401610736565b60c95460ca546000916001600160a01b037f0000000000000000000000000000000000000000000000000000000000000000811692631698ee8292821691168b8b8881811061095c5761095c6153a5565b905060600201604001602081019061097491906154d6565b6040516001600160e01b031960e086901b1681526001600160a01b03938416600482015292909116602483015262ffffff166044820152606401602060405180830381865afa1580156109cb573d6000803e3d6000fd5b505050506040513d601f19601f820116820180604052508101906109ef91906154f3565b90506001600160a01b038116610a475760405162461bcd60e51b815260206004820152600360248201527f4e555000000000000000000000000000000000000000000000000000000000006044820152606401610736565b610a5260d482612da4565b610a825760405162461bcd60e51b81526020600482015260016024820152600560fc1b6044820152606401610736565b733d66a5a4Bf6883F20730F845A7f0E5d47E073b67636b018820828a8a87818110610aaf57610aaf6153a5565b9050606002016040518363ffffffff1660e01b8152600401610ad2929190615510565b602060405180830381865af4158015610aef573d6000803e3d6000fd5b505050506040513d601f19601f82011682018060405250810190610b13919061552d565b610b435760405162461bcd60e51b81526020600482015260016024820152602960f91b6044820152606401610736565b60cd888885818110610b5757610b576153a5565b83546001810185556000948552602090942060609091029290920192919091019050610b83828261554a565b505050508080610b92906155d6565b91505061083b565b50610ba483612dc6565b60005b81811015610e7957600080738E7a62cB186cb15aD185652EEA608402DD8824F16335f8054760cd878787818110610be057610be06153a5565b9050606002016040518363ffffffff1660e01b8152600401610c0392919061541f565b6040805180830381865af4158015610c1f573d6000803e3d6000fd5b505050506040513d601f19601f82011682018060405250810190610c4391906154a8565b9150915081610c795760405162461bcd60e51b8152602060048201526002602482015261272960f11b6044820152606401610736565b60c95460ca54738E7a62cB186cb15aD185652EEA608402DD8824F191637806db78917f00000000000000000000000000000000000000000000000000000000000000009130916001600160a01b0391821691168a8a8a818110610cde57610cde6153a5565b9050606002016040518663ffffffff1660e01b8152600401610d049594939291906155ef565b60006040518083038186803b158015610d1c57600080fd5b505af4158015610d30573d6000803e3d6000fd5b5050505060cd8181548110610d4757610d476153a5565b6000918252602090912001805468ffffffffffffffffff19169055805b60cd54610d739060019061562e565b811015610e2e5760cd610d8782600161538d565b81548110610d9757610d976153a5565b9060005260206000200160cd8281548110610db457610db46153a5565b6000918252602090912082549101805462ffffff92831662ffffff19821681178355845463010000009081900485160265ffffffffffff199092161717808255925466010000000000009081900490921690910268ffffff0000000000001990921691909117905580610e26816155d6565b915050610d64565b5060cd805480610e4057610e40615645565b6000828152602090208101600019908101805468ffffffffffffffffff1916905501905550819050610e71816155d6565b915050610ba7565b505050505050565b60675415610eb65760405162461bcd60e51b8152602060048201526002602482015261545360f01b6044820152606401610736565b60d3546000906001600160a01b031615610edb5760d3546001600160a01b0316610ee8565b6033546001600160a01b03165b9050336001600160a01b03821614610f265760405162461bcd60e51b81526020600482015260016024820152602960f91b6044820152606401610736565b60cb83905560cc82905560408051848152602081018490527ff8966e026442bb0adb17149a6d44e394d2b6eb3c5cc1dc71b3c0698000548ae6910160405180910390a1505050565b6000610f7a600161394e565b90508015610f92576000805461ff0019166101001790555b6000610f9e838061565b565b905011610fed5760405162461bcd60e51b815260206004820152600360248201527f4e465400000000000000000000000000000000000000000000000000000000006044820152606401610736565b6000610fff6040840160208501614f18565b6001600160a01b03160361103a5760405162461bcd60e51b8152602060048201526002602482015261054360f41b6044820152606401610736565b61104a6060830160408401614f18565b6001600160a01b03166110636040840160208501614f18565b6001600160a01b0316106110b95760405162461bcd60e51b815260206004820152600360248201527f57544f00000000000000000000000000000000000000000000000000000000006044820152606401610736565b6000826080013511806110d0575060008260a00135115b6111005760405162461bcd60e51b81526020600482015260016024820152604960f81b6044820152606401610736565b600061111260e0840160c08501614f18565b6001600160a01b03160361116a5760405162461bcd60e51b81526004016107369060208082526004908201527f4e415a4d00000000000000000000000000000000000000000000000000000000604082015260600190565b6111dd86868080601f01602080910402602001604051908101604052809392919081815260200183838082843760009201919091525050604080516020601f8a018190048102820181019092528881529250889150879081908401838280828437600092019190915250613a6992505050565b6111e5613ae2565b6112176111f2838061565b565b6112026040860160208701614f18565b6112126060870160408801614f18565b613b55565b6112276040830160208401614f18565b60c980546001600160a01b0319166001600160a01b03929092169190911790556112576060830160408401614f18565b60ca80546001600160a01b0319166001600160a01b039290921691909117905561128f61128a6080840160608501614f18565b613cd5565b61129f60e0830160c08401614f18565b60d280546001600160a01b0319166001600160a01b03929092169190911790557f1b402611d70c7735d942445aaa3ebbf878149bece6b797870b44a581c5f7f4c96112ea838061565b565b6040516112f89291906156a5565b60405180910390a17ff8966e026442bb0adb17149a6d44e394d2b6eb3c5cc1dc71b3c0698000548ae6826080013560cb8190558360a0013560cc81905560405161134c929190918252602082015260400190565b60405180910390a17f9b6ffaf4cbfd923495440b7f17ced9394289f001b3ead53ab67e2c3f3e39b0f561138560e0840160c08501614f18565b6040516001600160a01b03909116815260200160405180910390a18015610e79576000805461ff0019169055604051600181527f7f26b83ff96e1f2b6a682f133852f6798a09c465da95921460cefb38474024989060200160405180910390a1505050505050565b6033546001600160a01b031633146114475760405162461bcd60e51b815260206004820181905260248201527f4f776e61626c653a2063616c6c6572206973206e6f7420746865206f776e65726044820152606401610736565b60005b818110156114fa57611484838383818110611467576114676153a5565b905060200201602081019061147c9190614f18565b60d490612da4565b6114b55760405162461bcd60e51b815260206004820152600260248201526104e560f41b6044820152606401610736565b6114e78383838181106114ca576114ca6153a5565b90506020020160208101906114df9190614f18565b60d490613d27565b50806114f2816155d6565b91505061144a565b507f024551cce253d1a442bfe99dae530a00a492fb8c67c4456cce3c9d23eecd3961828260405161152c9291906156ef565b60405180910390a15050565b60cd818154811061154857600080fd5b600091825260209091200154600281810b925063010000008204900b906601000000000000900462ffffff1683565b6033546001600160a01b031633146115d15760405162461bcd60e51b815260206004820181905260248201527f4f776e61626c653a2063616c6c6572206973206e6f7420746865206f776e65726044820152606401610736565b6115db6000613cd5565b565b60d0805460d180546000938490559290559081156116125760d25460c954611612916001600160a01b03918216911684613d3c565b80156116355760d25460ca54611635916001600160a01b03918216911683613d3c565b60408051838152602081018390527fa292e28c648da34e20b372054caab5f0359198b3b4d5f0ef9945d4616e15dc97910161152c565b6033546001600160a01b031633146116c55760405162461bcd60e51b815260206004820181905260248201527f4f776e61626c653a2063616c6c6572206973206e6f7420746865206f776e65726044820152606401610736565b60c95460ca546116e591849184916001600160a01b039081169116613b55565b7f1b402611d70c7735d942445aaa3ebbf878149bece6b797870b44a581c5f7f4c9828260405161152c9291906156a5565b60008060026097540361176b5760405162461bcd60e51b815260206004820152601f60248201527f5265656e7472616e637947756172643a207265656e7472616e742063616c6c006044820152606401610736565b6002609755836117a25760405162461bcd60e51b81526020600482015260026024820152614d4160f01b6044820152606401610736565b60d3546001600160a01b031615806117c4575060d3546001600160a01b031633145b6117f45760405162461bcd60e51b81526020600482015260016024820152602960f91b6044820152606401610736565b30600061180060675490565b90506000806000806000851161181e5760cb5460cc54600080611976565b73C6789725Ecd43A56dAFF251E62Db553238326C4863e56f4d916040518060a0016040528060cd805480602002602001604051908101604052809291908181526020016000905b828210156118bb5760008481526020908190206040805160608101825291850154600281810b845263010000008204900b838501526601000000000000900462ffffff1690820152825260019092019101611865565b505050908252506001600160a01b037f00000000000000000000000000000000000000000000000000000000000000008116602083015260c954811660408084019190915260ca5482166060840152908b16608090920191909152516001600160e01b031960e084901b1681526119359190600401615732565b608060405180830381865af4158015611952573d6000803e3d6000fd5b505050506040513d601f19601f8201168201806040525081019061197691906157f5565b9350935093509350600080861161199557670de0b6b3a7640000611997565b855b60d254604051630be943c760e21b81526001600160a01b039091166004820152909150733ecca88F09626A1dF08e7BE4b9F12510BBEAE70c9063f465092890859085907340E6559de8E78D29cC104c103BB8C15478e1d0e990632fa50f1c90602401602060405180830381865af4158015611a16573d6000803e3d6000fd5b505050506040513d601f19601f82011682018060405250810190611a3a919061582b565b6040516001600160e01b031960e086901b1681526004810193909352602483019190915261ffff16604482015260fa60648201526084810188905260a4810187905260c4016040805180830381865af4158015611a9b573d6000803e3d6000fd5b505050506040513d601f19601f82011682018060405250810190611abf919061584f565b9095509350611acf8b8683613dd2565b9850611adc8b8583613dd2565b9750611ae88a8c613e1b565b8815611b065760c954611b06906001600160a01b031633898c613efa565b8715611b245760ca54611b24906001600160a01b031633898b613efa565b60408051848152602081018490527f3a2c380ba0250aca22c1b7f98782a7504335a0c9f8626ab66e84907722fce70d910160405180910390a1604080516001600160a01b038c168152602081018d90529081018a9052606081018990527f5f11830295067c4bcc7d02d4e3b048cd7427be50a3aeb6afc9d3d559ee64bcfa9060800160405180910390a15050505050505060016097819055509250929050565b6060606980546106439061533d565b3360008181526066602090815260408083206001600160a01b038716845290915281205490919083811015611c705760405162461bcd60e51b815260206004820152602560248201527f45524332303a2064656372656173656420616c6c6f77616e63652062656c6f7760448201527f207a65726f0000000000000000000000000000000000000000000000000000006064820152608401610736565b611c7d82868684036129c4565b506001949350505050565b6000336106d4818585612b8d565b6033546001600160a01b03163314611cf05760405162461bcd60e51b815260206004820181905260248201527f4f776e61626c653a2063616c6c6572206973206e6f7420746865206f776e65726044820152606401610736565b60d280546001600160a01b0319166001600160a01b0383169081179091556040519081527f9b6ffaf4cbfd923495440b7f17ced9394289f001b3ead53ab67e2c3f3e39b0f590602001610789565b611d488484613f4b565b50505050565b60ce805460cf8054600093849055929055908115611d9d5760c954611d9d906001600160a01b03167f000000000000000000000000000000000000000000000000000000000000000084613d3c565b8015611dda5760ca54611dda906001600160a01b03167f000000000000000000000000000000000000000000000000000000000000000083613d3c565b60408051838152602081018390527ff640f308bdf7deba15c1aba8a4cf108b0f79d1ca98748696470dc0007f7cf8d3910161152c565b6033546001600160a01b03163314611e6a5760405162461bcd60e51b815260206004820181905260248201527f4f776e61626c653a2063616c6c6572206973206e6f7420746865206f776e65726044820152606401610736565b6001600160a01b038116611ee65760405162461bcd60e51b815260206004820152602660248201527f4f776e61626c653a206e6577206f776e657220697320746865207a65726f206160448201527f64647265737300000000000000000000000000000000000000000000000000006064820152608401610736565b611eef81613cd5565b50565b600080600260975403611f475760405162461bcd60e51b815260206004820152601f60248201527f5265656e7472616e637947756172643a207265656e7472616e742063616c6c006044820152606401610736565b60026097556000611f5760675490565b905060008111611f8e5760405162461bcd60e51b8152602060048201526002602482015261545360f01b6044820152606401610736565b611fc76040518060c001604052806000815260200160008152602001600081526020016000815260200160008152602001600081525090565b73C6789725Ecd43A56dAFF251E62Db553238326C4863e56f4d916040518060a0016040528060cd805480602002602001604051908101604052809291908181526020016000905b828210156120645760008481526020908190206040805160608101825291850154600281810b845263010000008204900b838501526601000000000000900462ffffff169082015282526001909201910161200e565b505050908252506001600160a01b037f00000000000000000000000000000000000000000000000000000000000000008116602083015260c954811660408084019190915260ca54909116606083015230608090920191909152516001600160e01b031960e084901b1681526120dd9190600401615732565b608060405180830381865af41580156120fa573d6000803e3d6000fd5b505050506040513d601f19601f8201168201806040525081019061211e91906157f5565b606085015260408401526020830152815260ce5460d05461213f919061538d565b60c9546040516370a0823160e01b81523060048201526001600160a01b03909116906370a0823190602401602060405180830381865afa158015612187573d6000803e3d6000fd5b505050506040513d601f19601f820116820180604052508101906121ab9190615873565b6121b5919061562e565b608082015260cf5460d1546121ca919061538d565b60ca546040516370a0823160e01b81523060048201526001600160a01b03909116906370a0823190602401602060405180830381865afa158015612212573d6000803e3d6000fd5b505050506040513d601f19601f820116820180604052508101906122369190615873565b612240919061562e565b60a0820152604080820151606083015160d2549251630be943c760e21b81526001600160a01b039093166004840152733ecca88F09626A1dF08e7BE4b9F12510BBEAE70c9263f46509289291907340E6559de8E78D29cC104c103BB8C15478e1d0e990632fa50f1c90602401602060405180830381865af41580156122c9573d6000803e3d6000fd5b505050506040513d601f19601f820116820180604052508101906122ed919061582b565b8551602087015160405160e087901b6001600160e01b03191681526004810195909552602485019390935261ffff909116604484015260fa6064840152608483015260a482015260c4016040805180830381865af4158015612353573d6000803e3d6000fd5b505050506040513d601f19601f82011682018060405250810190612377919061584f565b602083015280825261238a9087846140e9565b935061239b816020015187846140e9565b9250838160800151101580156123b55750828160a0015110155b15612456576123c43387614197565b83156123e15760c9546123e1906001600160a01b03168686613d3c565b82156123fe5760ca546123fe906001600160a01b03168685613d3c565b604080516001600160a01b038716815260208101889052908101859052606081018490527f86dacd5ce62967ebd3d915a82b22ad7e159538e50c7ba451e073fec048d9f1279060800160405180910390a150506129b4565b866124875760405162461bcd60e51b81526020600482015260016024820152602160f91b6044820152606401610736565b6124913387614197565b6124bc6040518060800160405280600081526020016000815260200160008152602001600081525090565b60005b8881101561270c578989828181106124d9576124d96153a5565b6124ef92602060809092020190810191506158a1565b6001600160801b031660000361252c5760405162461bcd60e51b8152602060048201526002602482015261262d60f11b6044820152606401610736565b60c95460ca54600091612697916001600160a01b037f0000000000000000000000000000000000000000000000000000000000000000811692631698ee829290821691168f8f88818110612582576125826153a5565b6125999260809182020190810191506060016154d6565b6040516001600160e01b031960e086901b1681526001600160a01b03938416600482015292909116602483015262ffffff166044820152606401602060405180830381865afa1580156125f0573d6000803e3d6000fd5b505050506040513d601f19601f8201168201806040525081019061261491906154f3565b8c8c85818110612626576126266153a5565b61263f92604060809092020190810191506020016158be565b8d8d86818110612651576126516153a5565b61266a92606060809092020190810191506040016158be565b8e8e8781811061267c5761267c6153a5565b61269292602060809092020190810191506158a1565b6142e5565b90508060400151836040018181516126af919061538d565b90525060608082015190840180516126c890839061538d565b9052508051835184906126dc90839061538d565b90525060208082015190840180516126f590839061538d565b905250819050612704816155d6565b9150506124bf565b5061271f81604001518260600151614663565b6000851180156127c0575060008560ce5460d05461273d919061538d565b60c9546040516370a0823160e01b81523060048201526001600160a01b03909116906370a0823190602401602060405180830381865afa158015612785573d6000803e3d6000fd5b505050506040513d601f19601f820116820180604052508101906127a99190615873565b6127b3919061562e565b6127bd919061562e565b10155b156127dc5760c9546127dc906001600160a01b03168787613d3c565b60008411801561287d575060008460cf5460d1546127fa919061538d565b60ca546040516370a0823160e01b81523060048201526001600160a01b03909116906370a0823190602401602060405180830381865afa158015612842573d6000803e3d6000fd5b505050506040513d601f19601f820116820180604052508101906128669190615873565b612870919061562e565b61287a919061562e565b10155b156128995760ca54612899906001600160a01b03168786613d3c565b805160208083015160408051338152928301939093528183015290517fbcc5876d59ecdf66ef7ccae24657b11650939218782f8d741e78fd3c35d285a39181900360600190a16040808301516060840151825191825260208201527f3a2c380ba0250aca22c1b7f98782a7504335a0c9f8626ab66e84907722fce70d910160405180910390a16040808201516060830151825191825260208201527fdbbb3a796242c9562af701570b096cb2478cd507fcd2d4080025883b10a623a5910160405180910390a1604080516001600160a01b038816815260208101899052908101869052606081018590527f86dacd5ce62967ebd3d915a82b22ad7e159538e50c7ba451e073fec048d9f1279060800160405180910390a15050505b6001609755909590945092505050565b6001600160a01b038316612a3f5760405162461bcd60e51b8152602060048201526024808201527f45524332303a20617070726f76652066726f6d20746865207a65726f2061646460448201527f72657373000000000000000000000000000000000000000000000000000000006064820152608401610736565b6001600160a01b038216612aa05760405162461bcd60e51b815260206004820152602260248201527f45524332303a20617070726f766520746f20746865207a65726f206164647265604482015261737360f01b6064820152608401610736565b6001600160a01b0383811660008181526066602090815260408083209487168084529482529182902085905590518481527f8c5be1e5ebec7d5bd14f71427d1e84f3dd0314c0f7b2291e5b200ac8c7c3b925910160405180910390a3505050565b6001600160a01b038381166000908152606660209081526040808320938616835292905220546000198114611d485781811015612b805760405162461bcd60e51b815260206004820152601d60248201527f45524332303a20696e73756666696369656e7420616c6c6f77616e63650000006044820152606401610736565b611d4884848484036129c4565b6001600160a01b038316612c095760405162461bcd60e51b815260206004820152602560248201527f45524332303a207472616e736665722066726f6d20746865207a65726f20616460448201527f64726573730000000000000000000000000000000000000000000000000000006064820152608401610736565b6001600160a01b038216612c855760405162461bcd60e51b815260206004820152602360248201527f45524332303a207472616e7366657220746f20746865207a65726f206164647260448201527f65737300000000000000000000000000000000000000000000000000000000006064820152608401610736565b6001600160a01b03831660009081526065602052604090205481811015612d145760405162461bcd60e51b815260206004820152602660248201527f45524332303a207472616e7366657220616d6f756e742065786365656473206260448201527f616c616e636500000000000000000000000000000000000000000000000000006064820152608401610736565b6001600160a01b03808516600090815260656020526040808220858503905591851681529081208054849290612d4b90849061538d565b92505081905550826001600160a01b0316846001600160a01b03167fddf252ad1be2c89b69c2b068fc378daa952ba7f163c4a11628f55a4df523b3ef84604051612d9791815260200190565b60405180910390a3611d48565b6001600160a01b038116600090815260018301602052604081205415156107b3565b600260975403612e185760405162461bcd60e51b815260206004820152601f60248201527f5265656e7472616e637947756172643a207265656e7472616e742063616c6c006044820152606401610736565b6002609755600080805b612e2c84806158db565b9050811015612fe55760c95460ca546000916001600160a01b037f0000000000000000000000000000000000000000000000000000000000000000811692631698ee829282169116612e7e89806158db565b87818110612e8e57612e8e6153a5565b612ea59260809182020190810191506060016154d6565b6040516001600160e01b031960e086901b1681526001600160a01b03938416600482015292909116602483015262ffffff166044820152606401602060405180830381865afa158015612efc573d6000803e3d6000fd5b505050506040513d601f19601f82011682018060405250810190612f2091906154f3565b9050806000612fa982612f3389806158db565b87818110612f4357612f436153a5565b612f5c92604060809092020190810191506020016158be565b612f668a806158db565b88818110612f7657612f766153a5565b612f8f92606060809092020190810191506040016158be565b612f998b806158db565b8981811061267c5761267c6153a5565b9050806040015186612fbb919061538d565b9550806060015185612fcd919061538d565b94505050508080612fdd906155d6565b915050612e22565b506000821180612ff55750600081115b1561303e576130048282614663565b60408051838152602081018390527fdbbb3a796242c9562af701570b096cb2478cd507fcd2d4080025883b10a623a5910160405180910390a15b600061304d6040850185615925565b60600135111561353a576130786130676040850185615925565b61147c906040810190602001614f18565b156130aa5760405162461bcd60e51b815260206004820152600260248201526104e560f41b6044820152606401610736565b60c9546040516370a0823160e01b81523060048201526000916001600160a01b0316906370a0823190602401602060405180830381865afa1580156130f3573d6000803e3d6000fd5b505050506040513d601f19601f820116820180604052508101906131179190615873565b60ca546040516370a0823160e01b81523060048201529192506000916001600160a01b03909116906370a0823190602401602060405180830381865afa158015613165573d6000803e3d6000fd5b505050506040513d601f19601f820116820180604052508101906131899190615873565b90506131c061319b6040870187615925565b6131ac906060810190604001614f18565b60c9546001600160a01b03169060006147ae565b6131f56131d06040870187615925565b6131e1906060810190604001614f18565b60ca546001600160a01b03169060006147ae565b6132296132056040870187615925565b613216906060810190604001614f18565b60c9546001600160a01b031690846147ae565b61325d6132396040870187615925565b61324a906060810190604001614f18565b60ca546001600160a01b031690836147ae565b600061326c6040870187615925565b61327d906060810190604001614f18565b6001600160a01b03166132936040880188615925565b61329d9080615945565b6040516132ab92919061598c565b6000604051808303816000865af19150503d80600081146132e8576040519150601f19603f3d011682016040523d82523d6000602084013e6132ed565b606091505b50509050806133235760405162461bcd60e51b8152602060048201526002602482015261534360f01b6044820152606401610736565b61333361319b6040880188615925565b6133436131d06040880188615925565b60c9546040516370a0823160e01b81523060048201526000916001600160a01b0316906370a0823190602401602060405180830381865afa15801561338c573d6000803e3d6000fd5b505050506040513d601f19601f820116820180604052508101906133b09190615873565b60ca546040516370a0823160e01b81523060048201529192506000916001600160a01b03909116906370a0823190602401602060405180830381865afa1580156133fe573d6000803e3d6000fd5b505050506040513d601f19601f820116820180604052508101906134229190615873565b90506134316040890189615925565b6134429060c081019060a0016159a7565b156134c0576134546040890189615925565b61346290608001358561538d565b811015801561348a57506134796040890189615925565b61348790606001358661562e565b82145b6134bb5760405162461bcd60e51b815260206004820152600260248201526129a360f11b6044820152606401610736565b613534565b6134cd6040890189615925565b6134db90608001358661538d565b821015801561350357506134f26040890189615925565b61350090606001358561562e565b81145b6135345760405162461bcd60e51b815260206004820152600260248201526129a360f11b6044820152606401610736565b50505050505b506000905080805b61354f60208501856158db565b905081101561389a5760c95460ca546000916001600160a01b037f0000000000000000000000000000000000000000000000000000000000000000811692631698ee8292821691166135a460208a018a6158db565b878181106135b4576135b46153a5565b6135cb9260809182020190810191506060016154d6565b6040516001600160e01b031960e086901b1681526001600160a01b03938416600482015292909116602483015262ffffff166044820152606401602060405180830381865afa158015613622573d6000803e3d6000fd5b505050506040513d601f19601f8201168201806040525081019061364691906154f3565b90506000738E7a62cB186cb15aD185652EEA608402DD8824F16335f8054760cd61367360208a018a6158db565b87818110613683576136836153a5565b9050608002016020016040518363ffffffff1660e01b81526004016136a992919061541f565b6040805180830381865af41580156136c5573d6000803e3d6000fd5b505050506040513d601f19601f820116820180604052508101906136e991906154a8565b5090508061371e5760405162461bcd60e51b8152602060048201526002602482015261272960f11b6044820152606401610736565b6000806001600160a01b038416633c8a7d8d3061373e60208c018c6158db565b8981811061374e5761374e6153a5565b61376792604060809092020190810191506020016158be565b61377460208d018d6158db565b8a818110613784576137846153a5565b61379d92606060809092020190810191506040016158be565b6137aa60208e018e6158db565b8b8181106137ba576137ba6153a5565b6137d092602060809092020190810191506158a1565b6040516001600160e01b031960e087901b1681526001600160a01b039094166004850152600292830b6024850152910b60448301526001600160801b0316606482015260a06084820152600060a482015260c40160408051808303816000875af1158015613842573d6000803e3d6000fd5b505050506040513d601f19601f82011682018060405250810190613866919061584f565b9092509050613875828861538d565b9650613881818761538d565b9550505050508080613892906155d6565b915050613542565b5082606001358210156138d45760405162461bcd60e51b8152602060048201526002602482015261044360f41b6044820152606401610736565b826080013581101561390d5760405162461bcd60e51b8152602060048201526002602482015261443160f01b6044820152606401610736565b7ff986e997232f4ce3815568633ba8d001cb44438ca7bdba4bd3147148ac1e0fde8360405161393c9190615a90565b60405180910390a15050600160975550565b60008054610100900460ff16156139dc578160ff1660011480156139715750303b155b6139d45760405162461bcd60e51b815260206004820152602e60248201527f496e697469616c697a61626c653a20636f6e747261637420697320616c72656160448201526d191e481a5b9a5d1a585b1a5e995960921b6064820152608401610736565b506000919050565b60005460ff808416911610613a4a5760405162461bcd60e51b815260206004820152602e60248201527f496e697469616c697a61626c653a20636f6e747261637420697320616c72656160448201526d191e481a5b9a5d1a585b1a5e995960921b6064820152608401610736565b506000805460ff191660ff92909216919091179055600190565b919050565b600054610100900460ff16613ad45760405162461bcd60e51b815260206004820152602b60248201527f496e697469616c697a61626c653a20636f6e7472616374206973206e6f74206960448201526a6e697469616c697a696e6760a81b6064820152608401610736565b613ade82826148fc565b5050565b600054610100900460ff16613b4d5760405162461bcd60e51b815260206004820152602b60248201527f496e697469616c697a61626c653a20636f6e7472616374206973206e6f74206960448201526a6e697469616c697a696e6760a81b6064820152608401610736565b6115db61498e565b60005b83811015613cce5760007f00000000000000000000000000000000000000000000000000000000000000006001600160a01b0316631698ee828585898987818110613ba557613ba56153a5565b9050602002016020810190613bba91906154d6565b6040516001600160e01b031960e086901b1681526001600160a01b03938416600482015292909116602483015262ffffff166044820152606401602060405180830381865afa158015613c11573d6000803e3d6000fd5b505050506040513d601f19601f82011682018060405250810190613c3591906154f3565b90506001600160a01b038116613c725760405162461bcd60e51b81526020600482015260026024820152615a4160f01b6044820152606401610736565b613c7d60d482612da4565b15613cae5760405162461bcd60e51b81526020600482015260016024820152600560fc1b6044820152606401610736565b613cb960d482614a00565b50508080613cc6906155d6565b915050613b58565b5050505050565b603380546001600160a01b038381166001600160a01b0319831681179093556040519116919082907f8be0079c531659141344cd1fd0a4f28419497f9722a3daafe3b4186f6b6457e090600090a35050565b60006107b3836001600160a01b038416614a15565b6040516001600160a01b038316602482015260448101829052613dcd9084907fa9059cbb00000000000000000000000000000000000000000000000000000000906064015b60408051601f198184030181529190526020810180517bffffffffffffffffffffffffffffffffffffffffffffffffffffffff166001600160e01b031990931692909217909152614b08565b505050565b6000613ddf8484846140e9565b905060008280613df157613df1615bd7565b84860911156107b3576000198110613e0857600080fd5b80613e12816155d6565b95945050505050565b6001600160a01b038216613e715760405162461bcd60e51b815260206004820152601f60248201527f45524332303a206d696e7420746f20746865207a65726f2061646472657373006044820152606401610736565b8060676000828254613e83919061538d565b90915550506001600160a01b03821660009081526065602052604081208054839290613eb090849061538d565b90915550506040518181526001600160a01b038316906000907fddf252ad1be2c89b69c2b068fc378daa952ba7f163c4a11628f55a4df523b3ef9060200160405180910390a35050565b6040516001600160a01b0380851660248301528316604482015260648101829052611d489085907f23b872dd0000000000000000000000000000000000000000000000000000000090608401613d81565b613f5660d433612da4565b613f875760405162461bcd60e51b8152602060048201526002602482015261434360f01b6044820152606401610736565b60008211801561401c575060ce5460d054613fa2919061538d565b60c9546040516370a0823160e01b81523060048201526001600160a01b03909116906370a0823190602401602060405180830381865afa158015613fea573d6000803e3d6000fd5b505050506040513d601f19601f8201168201806040525081019061400e9190615873565b614018919061562e565b8211155b156140385760c954614038906001600160a01b03163384613d3c565b6000811180156140cd575060cf5460d154614053919061538d565b60ca546040516370a0823160e01b81523060048201526001600160a01b03909116906370a0823190602401602060405180830381865afa15801561409b573d6000803e3d6000fd5b505050506040513d601f19601f820116820180604052508101906140bf9190615873565b6140c9919061562e565b8111155b15613ade5760ca54613ade906001600160a01b03163383613d3c565b6000808060001985870985870292508281108382030391505080600003614122576000841161411757600080fd5b5082900490506107b3565b80841161412e57600080fd5b60008486880960026001871981018816978890046003810283188082028403028082028403028082028403028082028403028082028403029081029092039091026000889003889004909101858311909403939093029303949094049190911702949350505050565b6001600160a01b0382166141f75760405162461bcd60e51b815260206004820152602160248201527f45524332303a206275726e2066726f6d20746865207a65726f206164647265736044820152607360f81b6064820152608401610736565b6001600160a01b0382166000908152606560205260409020548181101561426b5760405162461bcd60e51b815260206004820152602260248201527f45524332303a206275726e20616d6f756e7420657863656564732062616c616e604482015261636560f01b6064820152608401610736565b6001600160a01b038316600090815260656020526040812083830390556067805484929061429a90849061562e565b90915550506040518281526000906001600160a01b038516907fddf252ad1be2c89b69c2b068fc378daa952ba7f163c4a11628f55a4df523b3ef9060200160405180910390a3505050565b6143106040518060800160405280600081526020016000815260200160008152602001600081525090565b60c9546040516370a0823160e01b81523060048201526000916001600160a01b0316906370a0823190602401602060405180830381865afa158015614359573d6000803e3d6000fd5b505050506040513d601f19601f8201168201806040525081019061437d9190615873565b60ca546040516370a0823160e01b81523060048201529192506000916001600160a01b03909116906370a0823190602401602060405180830381865afa1580156143cb573d6000803e3d6000fd5b505050506040513d601f19601f820116820180604052508101906143ef9190615873565b6040517fa34123a7000000000000000000000000000000000000000000000000000000008152600288810b600483015287900b60248201526001600160801b03861660448201529091506001600160a01b0388169063a34123a79060640160408051808303816000875af115801561446b573d6000803e3d6000fd5b505050506040513d601f19601f8201168201806040525081019061448f919061584f565b602085015283526040517f4f1eb3d8000000000000000000000000000000000000000000000000000000008152306004820152600287810b602483015286900b60448201526001600160801b036064820181905260848201526001600160a01b03881690634f1eb3d89060a40160408051808303816000875af115801561451a573d6000803e3d6000fd5b505050506040513d601f19601f8201168201806040525081019061453e9190615bed565b5050825160c9546040516370a0823160e01b815230600482015284916001600160a01b0316906370a0823190602401602060405180830381865afa15801561458a573d6000803e3d6000fd5b505050506040513d601f19601f820116820180604052508101906145ae9190615873565b6145b8919061562e565b6145c2919061562e565b604084810191909152602084015160ca5491516370a0823160e01b8152306004820152909183916001600160a01b03909116906370a0823190602401602060405180830381865afa15801561461b573d6000803e3d6000fd5b505050506040513d601f19601f8201168201806040525081019061463f9190615873565b614649919061562e565b614653919061562e565b6060840152509095945050505050565b60d254604051630be943c760e21b81526001600160a01b0390911660048201526000907340E6559de8E78D29cC104c103BB8C15478e1d0e990632fa50f1c90602401602060405180830381865af41580156146c2573d6000803e3d6000fd5b505050506040513d601f19601f820116820180604052508101906146e6919061582b565b90506127106146f961ffff831685615c1c565b6147039190615c3b565b60d06000828254614714919061538d565b90915550612710905061472b61ffff831684615c1c565b6147359190615c3b565b60d16000828254614746919061538d565b90915550612710905061475a60fa85615c1c565b6147649190615c3b565b60ce6000828254614775919061538d565b90915550612710905061478960fa84615c1c565b6147939190615c3b565b60cf60008282546147a4919061538d565b9091555050505050565b80158061484157506040517fdd62ed3e0000000000000000000000000000000000000000000000000000000081523060048201526001600160a01b03838116602483015284169063dd62ed3e90604401602060405180830381865afa15801561481b573d6000803e3d6000fd5b505050506040513d601f19601f8201168201806040525081019061483f9190615873565b155b6148b35760405162461bcd60e51b815260206004820152603660248201527f5361666545524332303a20617070726f76652066726f6d206e6f6e2d7a65726f60448201527f20746f206e6f6e2d7a65726f20616c6c6f77616e6365000000000000000000006064820152608401610736565b6040516001600160a01b038316602482015260448101829052613dcd9084907f095ea7b30000000000000000000000000000000000000000000000000000000090606401613d81565b600054610100900460ff166149675760405162461bcd60e51b815260206004820152602b60248201527f496e697469616c697a61626c653a20636f6e7472616374206973206e6f74206960448201526a6e697469616c697a696e6760a81b6064820152608401610736565b815161497a906068906020850190614dd4565b508051613dcd906069906020840190614dd4565b600054610100900460ff166149f95760405162461bcd60e51b815260206004820152602b60248201527f496e697469616c697a61626c653a20636f6e7472616374206973206e6f74206960448201526a6e697469616c697a696e6760a81b6064820152608401610736565b6001609755565b60006107b3836001600160a01b038416614bed565b60008181526001830160205260408120548015614afe576000614a3960018361562e565b8554909150600090614a4d9060019061562e565b9050818114614ab2576000866000018281548110614a6d57614a6d6153a5565b9060005260206000200154905080876000018481548110614a9057614a906153a5565b6000918252602080832090910192909255918252600188019052604090208390555b8554869080614ac357614ac3615645565b6001900381819060005260206000200160009055905585600101600086815260200190815260200160002060009055600193505050506106da565b60009150506106da565b6000614b5d826040518060400160405280602081526020017f5361666545524332303a206c6f772d6c6576656c2063616c6c206661696c6564815250856001600160a01b0316614c3c9092919063ffffffff16565b805190915015613dcd5780806020019051810190614b7b919061552d565b613dcd5760405162461bcd60e51b815260206004820152602a60248201527f5361666545524332303a204552433230206f7065726174696f6e20646964206e60448201527f6f742073756363656564000000000000000000000000000000000000000000006064820152608401610736565b6000818152600183016020526040812054614c34575081546001818101845560008481526020808220909301849055845484825282860190935260409020919091556106da565b5060006106da565b6060614c4b8484600085614c53565b949350505050565b606082471015614ccb5760405162461bcd60e51b815260206004820152602660248201527f416464726573733a20696e73756666696369656e742062616c616e636520666f60448201527f722063616c6c00000000000000000000000000000000000000000000000000006064820152608401610736565b6001600160a01b0385163b614d225760405162461bcd60e51b815260206004820152601d60248201527f416464726573733a2063616c6c20746f206e6f6e2d636f6e74726163740000006044820152606401610736565b600080866001600160a01b03168587604051614d3e9190615c5d565b60006040518083038185875af1925050503d8060008114614d7b576040519150601f19603f3d011682016040523d82523d6000602084013e614d80565b606091505b5091509150614d90828286614d9b565b979650505050505050565b60608315614daa5750816107b3565b825115614dba5782518084602001fd5b8160405162461bcd60e51b81526004016107369190614e99565b828054614de09061533d565b90600052602060002090601f016020900481019282614e025760008555614e48565b82601f10614e1b57805160ff1916838001178555614e48565b82800160010185558215614e48579182015b82811115614e48578251825591602001919060010190614e2d565b50614e54929150614e58565b5090565b5b80821115614e545760008155600101614e59565b60005b83811015614e88578181015183820152602001614e70565b83811115611d485750506000910152565b6020815260008251806020840152614eb8816040850160208701614e6d565b601f01601f19169190910160400192915050565b6001600160a01b0381168114611eef57600080fd5b8035613a6481614ecc565b60008060408385031215614eff57600080fd5b8235614f0a81614ecc565b946020939093013593505050565b600060208284031215614f2a57600080fd5b81356107b381614ecc565b600080600060608486031215614f4a57600080fd5b8335614f5581614ecc565b92506020840135614f6581614ecc565b929592945050506040919091013590565b60008083601f840112614f8857600080fd5b50813567ffffffffffffffff811115614fa057600080fd5b602083019150836020606083028501011115614fbb57600080fd5b9250929050565b600080600080600060608688031215614fda57600080fd5b853567ffffffffffffffff80821115614ff257600080fd5b614ffe89838a01614f76565b9097509550602088013591508082111561501757600080fd5b9087019060a0828a03121561502b57600080fd5b9093506040870135908082111561504157600080fd5b5061504e88828901614f76565b969995985093965092949392505050565b6000806040838503121561507257600080fd5b50508035926020909101359150565b60008083601f84011261509357600080fd5b50813567ffffffffffffffff8111156150ab57600080fd5b602083019150836020828501011115614fbb57600080fd5b6000806000806000606086880312156150db57600080fd5b853567ffffffffffffffff808211156150f357600080fd5b6150ff89838a01615081565b9097509550602088013591508082111561511857600080fd5b61512489838a01615081565b9095509350604088013591508082111561513d57600080fd5b50860160e0818903121561515057600080fd5b809150509295509295909350565b60008083601f84011261517057600080fd5b50813567ffffffffffffffff81111561518857600080fd5b6020830191508360208260051b8501011115614fbb57600080fd5b600080602083850312156151b657600080fd5b823567ffffffffffffffff8111156151cd57600080fd5b6151d98582860161515e565b90969095509350505050565b6000602082840312156151f757600080fd5b5035919050565b6000806040838503121561521157600080fd5b82359150602083013561522381614ecc565b809150509250929050565b6000806000806060858703121561524457600080fd5b8435935060208501359250604085013567ffffffffffffffff81111561526957600080fd5b61527587828801615081565b95989497509550505050565b6000806040838503121561529457600080fd5b823561529f81614ecc565b9150602083013561522381614ecc565b600080600080606085870312156152c557600080fd5b843567ffffffffffffffff808211156152dd57600080fd5b818701915087601f8301126152f157600080fd5b81358181111561530057600080fd5b8860208260071b850101111561531557600080fd5b602092830196509450508501359150604085013561533281614ecc565b939692955090935050565b600181811c9082168061535157607f821691505b60208210810361537157634e487b7160e01b600052602260045260246000fd5b50919050565b634e487b7160e01b600052601160045260246000fd5b600082198211156153a0576153a0615377565b500190565b634e487b7160e01b600052603260045260246000fd5b8060020b8114611eef57600080fd5b62ffffff81168114611eef57600080fd5b80356153e6816153bb565b60020b825260208101356153f9816153bb565b60020b6020830152604081013561540f816153ca565b62ffffff81166040840152505050565b6000608082016080835280855480835260a08501915086600052602092508260002060005b8281101561547f578154600281810b8652601882901c900b8686015260301c62ffffff16604085015260609093019260019182019101615444565b50505080925050615492818401856153db565b509392505050565b8015158114611eef57600080fd5b600080604083850312156154bb57600080fd5b82516154c68161549a565b6020939093015192949293505050565b6000602082840312156154e857600080fd5b81356107b3816153ca565b60006020828403121561550557600080fd5b81516107b381614ecc565b6001600160a01b0383168152608081016107b360208301846153db565b60006020828403121561553f57600080fd5b81516107b38161549a565b8135615555816153bb565b815462ffffff82811662ffffff1983161784556020850135615576816153bb565b8060181b9050818416935065ffffff00000091508082168465ffffffffffff1985161717855560408601356155aa816153ca565b911668ffffffffffffffffff19929092169092171760309190911b68ffffff0000000000001617905550565b6000600182016155e8576155e8615377565b5060010190565b6001600160a01b038681168252858116602083015284811660408301528316606082015260e0810161562460808301846153db565b9695505050505050565b60008282101561564057615640615377565b500390565b634e487b7160e01b600052603160045260246000fd5b6000808335601e1984360301811261567257600080fd5b83018035915067ffffffffffffffff82111561568d57600080fd5b6020019150600581901b3603821315614fbb57600080fd5b60208082528181018390526000908460408401835b868110156156e45782356156cd816153ca565b62ffffff16825291830191908301906001016156ba565b509695505050505050565b60208082528181018390526000908460408401835b868110156156e457823561571781614ecc565b6001600160a01b031682529183019190830190600101615704565b6020808252825160a083830152805160c0840181905260009291820190839060e08601905b808310156157995783518051600290810b845286820151900b8684015260409081015162ffffff16908301529284019260019290920191606090910190615757565b50928601516001600160a01b03811660408701529260408701516001600160a01b0381166060880152935060608701516001600160a01b0381166080880152935060808701516001600160a01b03811660a08801529350615624565b6000806000806080858703121561580b57600080fd5b505082516020840151604085015160609095015191969095509092509050565b60006020828403121561583d57600080fd5b815161ffff811681146107b357600080fd5b6000806040838503121561586257600080fd5b505080516020909101519092909150565b60006020828403121561588557600080fd5b5051919050565b6001600160801b0381168114611eef57600080fd5b6000602082840312156158b357600080fd5b81356107b38161588c565b6000602082840312156158d057600080fd5b81356107b3816153bb565b6000808335601e198436030181126158f257600080fd5b83018035915067ffffffffffffffff82111561590d57600080fd5b6020019150600781901b3603821315614fbb57600080fd5b6000823560be1983360301811261593b57600080fd5b9190910192915050565b6000808335601e1984360301811261595c57600080fd5b83018035915067ffffffffffffffff82111561597757600080fd5b602001915036819003821315614fbb57600080fd5b8183823760009101908152919050565b8035613a648161549a565b6000602082840312156159b957600080fd5b81356107b38161549a565b6000808335601e198436030181126159db57600080fd5b830160208101925035905067ffffffffffffffff8111156159fb57600080fd5b8060071b3603831315614fbb57600080fd5b8183526000602080850194508260005b85811015615a5c578135615a308161588c565b6001600160801b03168752615a498388018385016153db565b6080968701969190910190600101615a1d565b509495945050505050565b81835281816020850137506000828201602090810191909152601f909101601f19169091010190565b60006020808352615aa184856159c4565b60a083860152615ab560c086018284615a0d565b915050615ac4828601866159c4565b601f1980878503016040880152615adc848385615a0d565b93506040880135925060be19883603018312615af757600080fd5b868403016060870152508501803536829003601e19018112615b1857600080fd5b8101803567ffffffffffffffff811115615b3157600080fd5b803603831315615b4057600080fd5b60c08452615b5460c0850182878501615a67565b915050615b62848301614ee1565b6001600160a01b031684840152615b7b60408301614ee1565b6001600160a01b038116604085015293506060820135606084015260808201356080840152615bac60a0830161599c565b80151560a0850152935060608701356080870152608087013560a08701528094505050505092915050565b634e487b7160e01b600052601260045260246000fd5b60008060408385031215615c0057600080fd5b8251615c0b8161588c565b60208401519092506152238161588c565b6000816000190483118215151615615c3657615c36615377565b500290565b600082615c5857634e487b7160e01b600052601260045260246000fd5b500490565b6000825161593b818460208701614e6d56fea2646970667358221220fd078983f5b9baa7aecc41edc1cb19fabd708c3e09a238154a5d862c658d2e5464736f6c634300080d0033",
  "deployedBytecode": "0x608060405234801561001057600080fd5b50600436106102c85760003560e01c806386ac1cb91161017b578063c7a4ae17116100d8578063dc9ad4c11161008c578063f2eb3e3411610071578063f2eb3e3414610605578063f2fde38b1461060e578063f4effe411461062157600080fd5b8063dc9ad4c1146105c4578063dd62ed3e146105cc57600080fd5b8063d21220a7116100bd578063d21220a714610595578063d3487997146105a8578063d8953ca7146105bb57600080fd5b8063c7a4ae171461056f578063d0ebdbe71461058257600080fd5b8063a9059cbb1161012f578063bbfe704e11610114578063bbfe704e14610524578063c45a01551461052d578063c70750411461055457600080fd5b8063a9059cbb146104ea578063b9f24cb2146104fd57600080fd5b806394bf804d1161016057806394bf804d146104a757806395d89b41146104cf578063a457c2d7146104d757600080fd5b806386ac1cb9146104835780638da5cb5b1461049657600080fd5b80633acb0b31116102295780634b164140116101dd57806370a08231116101c257806370a082311461044a578063715018a6146104735780637ecd67171461047b57600080fd5b80634b164140146103fc5780635fdecdfa1461040f57600080fd5b80633fba89dc1161020e5780633fba89dc146103cd57806342fb9d44146103e0578063481c6a75146103e957600080fd5b80633acb0b31146103a75780633f7b6135146103ba57600080fd5b806314b806301161028057806323b872dd1161026557806323b872dd14610372578063313ce56714610385578063395093511461039457600080fd5b806314b806301461036157806318160ddd1461036a57600080fd5b8063095ea7b3116102b1578063095ea7b3146102fe5780630d6e6631146103215780630dfe16811461033657600080fd5b8063065756db146102cd57806306fdde03146102e9575b600080fd5b6102d660d05481565b6040519081526020015b60405180910390f35b6102f1610634565b6040516102e09190614e99565b61031161030c366004614eec565b6106c6565b60405190151581526020016102e0565b61033461032f366004614f18565b6106e0565b005b60c954610349906001600160a01b031681565b6040516001600160a01b0390911681526020016102e0565b6102d660cb5481565b6067546102d6565b610311610380366004614f35565b610794565b604051601281526020016102e0565b6103116103a2366004614eec565b6107ba565b6103346103b5366004614fc2565b6107f9565b6103346103c836600461505f565b610e81565b6103346103db3660046150c3565b610f6e565b6102d660d15481565b60d254610349906001600160a01b031681565b61033461040a3660046151a3565b6113ed565b61042261041d3660046151e5565b611538565b60408051600294850b81529290930b602083015262ffffff16918101919091526060016102e0565b6102d6610458366004614f18565b6001600160a01b031660009081526065602052604090205490565b610334611577565b6103346115dd565b6103346104913660046151a3565b61166b565b6033546001600160a01b0316610349565b6104ba6104b53660046151fe565b611716565b604080519283526020830191909152016102e0565b6102f1611bc4565b6103116104e5366004614eec565b611bd3565b6103116104f8366004614eec565b611c88565b6103497f000000000000000000000000000000000000000000000000000000000000000081565b6102d660cf5481565b6103497f000000000000000000000000000000000000000000000000000000000000000081565b61055c60fa81565b60405161ffff90911681526020016102e0565b60d354610349906001600160a01b031681565b610334610590366004614f18565b611c96565b60ca54610349906001600160a01b031681565b6103346105b636600461522e565b611d3e565b6102d660ce5481565b610334611d4e565b6102d66105da366004615281565b6001600160a01b03918216600090815260666020908152604080832093909416825291909152205490565b6102d660cc5481565b61033461061c366004614f18565b611e10565b6104ba61062f3660046152af565b611ef2565b6060606880546106439061533d565b80601f016020809104026020016040519081016040528092919081815260200182805461066f9061533d565b80156106bc5780601f10610691576101008083540402835291602001916106bc565b820191906000526020600020905b81548152906001019060200180831161069f57829003601f168201915b5050505050905090565b6000336106d48185856129c4565b60019150505b92915050565b6033546001600160a01b0316331461073f5760405162461bcd60e51b815260206004820181905260248201527f4f776e61626c653a2063616c6c6572206973206e6f7420746865206f776e657260448201526064015b60405180910390fd5b60d380546001600160a01b0319166001600160a01b0383169081179091556040519081527f6b7f177e85ebe3aabaf1339b9a445ac908b2bef730372180fa280958e2414ee3906020015b60405180910390a150565b6000336107a2858285612b01565b6107ad858585612b8d565b60019150505b9392505050565b3360008181526066602090815260408083206001600160a01b03871684529091528120549091906106d490829086906107f490879061538d565b6129c4565b60d2546001600160a01b031633146108385760405162461bcd60e51b81526020600482015260026024820152614e4d60f01b6044820152606401610736565b60005b84811015610b9a57600073__$b131e44167300e1b6d47510635310686a7$__6335f8054760cd898986818110610873576108736153a5565b9050606002016040518363ffffffff1660e01b815260040161089692919061541f565b6040805180830381865af41580156108b2573d6000803e3d6000fd5b505050506040513d601f19601f820116820180604052508101906108d691906154a8565b509050801561090b5760405162461bcd60e51b81526020600482015260016024820152602960f91b6044820152606401610736565b60c95460ca546000916001600160a01b037f0000000000000000000000000000000000000000000000000000000000000000811692631698ee8292821691168b8b8881811061095c5761095c6153a5565b905060600201604001602081019061097491906154d6565b6040516001600160e01b031960e086901b1681526001600160a01b03938416600482015292909116602483015262ffffff166044820152606401602060405180830381865afa1580156109cb573d6000803e3d6000fd5b505050506040513d601f19601f820116820180604052508101906109ef91906154f3565b90506001600160a01b038116610a475760405162461bcd60e51b815260206004820152600360248201527f4e555000000000000000000000000000000000000000000000000000000000006044820152606401610736565b610a5260d482612da4565b610a825760405162461bcd60e51b81526020600482015260016024820152600560fc1b6044820152606401610736565b73__$57c880716d25c772e0b1e547659075b66d$__636b018820828a8a87818110610aaf57610aaf6153a5565b9050606002016040518363ffffffff1660e01b8152600401610ad2929190615510565b602060405180830381865af4158015610aef573d6000803e3d6000fd5b505050506040513d601f19601f82011682018060405250810190610b13919061552d565b610b435760405162461bcd60e51b81526020600482015260016024820152602960f91b6044820152606401610736565b60cd888885818110610b5757610b576153a5565b83546001810185556000948552602090942060609091029290920192919091019050610b83828261554a565b505050508080610b92906155d6565b91505061083b565b50610ba483612dc6565b60005b81811015610e795760008073__$b131e44167300e1b6d47510635310686a7$__6335f8054760cd878787818110610be057610be06153a5565b9050606002016040518363ffffffff1660e01b8152600401610c0392919061541f565b6040805180830381865af4158015610c1f573d6000803e3d6000fd5b505050506040513d601f19601f82011682018060405250810190610c4391906154a8565b9150915081610c795760405162461bcd60e51b8152602060048201526002602482015261272960f11b6044820152606401610736565b60c95460ca5473__$b131e44167300e1b6d47510635310686a7$__91637806db78917f00000000000000000000000000000000000000000000000000000000000000009130916001600160a01b0391821691168a8a8a818110610cde57610cde6153a5565b9050606002016040518663ffffffff1660e01b8152600401610d049594939291906155ef565b60006040518083038186803b158015610d1c57600080fd5b505af4158015610d30573d6000803e3d6000fd5b5050505060cd8181548110610d4757610d476153a5565b6000918252602090912001805468ffffffffffffffffff19169055805b60cd54610d739060019061562e565b811015610e2e5760cd610d8782600161538d565b81548110610d9757610d976153a5565b9060005260206000200160cd8281548110610db457610db46153a5565b6000918252602090912082549101805462ffffff92831662ffffff19821681178355845463010000009081900485160265ffffffffffff199092161717808255925466010000000000009081900490921690910268ffffff0000000000001990921691909117905580610e26816155d6565b915050610d64565b5060cd805480610e4057610e40615645565b6000828152602090208101600019908101805468ffffffffffffffffff1916905501905550819050610e71816155d6565b915050610ba7565b505050505050565b60675415610eb65760405162461bcd60e51b8152602060048201526002602482015261545360f01b6044820152606401610736565b60d3546000906001600160a01b031615610edb5760d3546001600160a01b0316610ee8565b6033546001600160a01b03165b9050336001600160a01b03821614610f265760405162461bcd60e51b81526020600482015260016024820152602960f91b6044820152606401610736565b60cb83905560cc82905560408051848152602081018490527ff8966e026442bb0adb17149a6d44e394d2b6eb3c5cc1dc71b3c0698000548ae6910160405180910390a1505050565b6000610f7a600161394e565b90508015610f92576000805461ff0019166101001790555b6000610f9e838061565b565b905011610fed5760405162461bcd60e51b815260206004820152600360248201527f4e465400000000000000000000000000000000000000000000000000000000006044820152606401610736565b6000610fff6040840160208501614f18565b6001600160a01b03160361103a5760405162461bcd60e51b8152602060048201526002602482015261054360f41b6044820152606401610736565b61104a6060830160408401614f18565b6001600160a01b03166110636040840160208501614f18565b6001600160a01b0316106110b95760405162461bcd60e51b815260206004820152600360248201527f57544f00000000000000000000000000000000000000000000000000000000006044820152606401610736565b6000826080013511806110d0575060008260a00135115b6111005760405162461bcd60e51b81526020600482015260016024820152604960f81b6044820152606401610736565b600061111260e0840160c08501614f18565b6001600160a01b03160361116a5760405162461bcd60e51b81526004016107369060208082526004908201527f4e415a4d00000000000000000000000000000000000000000000000000000000604082015260600190565b6111dd86868080601f01602080910402602001604051908101604052809392919081815260200183838082843760009201919091525050604080516020601f8a018190048102820181019092528881529250889150879081908401838280828437600092019190915250613a6992505050565b6111e5613ae2565b6112176111f2838061565b565b6112026040860160208701614f18565b6112126060870160408801614f18565b613b55565b6112276040830160208401614f18565b60c980546001600160a01b0319166001600160a01b03929092169190911790556112576060830160408401614f18565b60ca80546001600160a01b0319166001600160a01b039290921691909117905561128f61128a6080840160608501614f18565b613cd5565b61129f60e0830160c08401614f18565b60d280546001600160a01b0319166001600160a01b03929092169190911790557f1b402611d70c7735d942445aaa3ebbf878149bece6b797870b44a581c5f7f4c96112ea838061565b565b6040516112f89291906156a5565b60405180910390a17ff8966e026442bb0adb17149a6d44e394d2b6eb3c5cc1dc71b3c0698000548ae6826080013560cb8190558360a0013560cc81905560405161134c929190918252602082015260400190565b60405180910390a17f9b6ffaf4cbfd923495440b7f17ced9394289f001b3ead53ab67e2c3f3e39b0f561138560e0840160c08501614f18565b6040516001600160a01b03909116815260200160405180910390a18015610e79576000805461ff0019169055604051600181527f7f26b83ff96e1f2b6a682f133852f6798a09c465da95921460cefb38474024989060200160405180910390a1505050505050565b6033546001600160a01b031633146114475760405162461bcd60e51b815260206004820181905260248201527f4f776e61626c653a2063616c6c6572206973206e6f7420746865206f776e65726044820152606401610736565b60005b818110156114fa57611484838383818110611467576114676153a5565b905060200201602081019061147c9190614f18565b60d490612da4565b6114b55760405162461bcd60e51b815260206004820152600260248201526104e560f41b6044820152606401610736565b6114e78383838181106114ca576114ca6153a5565b90506020020160208101906114df9190614f18565b60d490613d27565b50806114f2816155d6565b91505061144a565b507f024551cce253d1a442bfe99dae530a00a492fb8c67c4456cce3c9d23eecd3961828260405161152c9291906156ef565b60405180910390a15050565b60cd818154811061154857600080fd5b600091825260209091200154600281810b925063010000008204900b906601000000000000900462ffffff1683565b6033546001600160a01b031633146115d15760405162461bcd60e51b815260206004820181905260248201527f4f776e61626c653a2063616c6c6572206973206e6f7420746865206f776e65726044820152606401610736565b6115db6000613cd5565b565b60d0805460d180546000938490559290559081156116125760d25460c954611612916001600160a01b03918216911684613d3c565b80156116355760d25460ca54611635916001600160a01b03918216911683613d3c565b60408051838152602081018390527fa292e28c648da34e20b372054caab5f0359198b3b4d5f0ef9945d4616e15dc97910161152c565b6033546001600160a01b031633146116c55760405162461bcd60e51b815260206004820181905260248201527f4f776e61626c653a2063616c6c6572206973206e6f7420746865206f776e65726044820152606401610736565b60c95460ca546116e591849184916001600160a01b039081169116613b55565b7f1b402611d70c7735d942445aaa3ebbf878149bece6b797870b44a581c5f7f4c9828260405161152c9291906156a5565b60008060026097540361176b5760405162461bcd60e51b815260206004820152601f60248201527f5265656e7472616e637947756172643a207265656e7472616e742063616c6c006044820152606401610736565b6002609755836117a25760405162461bcd60e51b81526020600482015260026024820152614d4160f01b6044820152606401610736565b60d3546001600160a01b031615806117c4575060d3546001600160a01b031633145b6117f45760405162461bcd60e51b81526020600482015260016024820152602960f91b6044820152606401610736565b30600061180060675490565b90506000806000806000851161181e5760cb5460cc54600080611976565b73__$3d23d8578387a47facd93bb77f6fe6e81b$__63e56f4d916040518060a0016040528060cd805480602002602001604051908101604052809291908181526020016000905b828210156118bb5760008481526020908190206040805160608101825291850154600281810b845263010000008204900b838501526601000000000000900462ffffff1690820152825260019092019101611865565b505050908252506001600160a01b037f00000000000000000000000000000000000000000000000000000000000000008116602083015260c954811660408084019190915260ca5482166060840152908b16608090920191909152516001600160e01b031960e084901b1681526119359190600401615732565b608060405180830381865af4158015611952573d6000803e3d6000fd5b505050506040513d601f19601f8201168201806040525081019061197691906157f5565b9350935093509350600080861161199557670de0b6b3a7640000611997565b855b60d254604051630be943c760e21b81526001600160a01b03909116600482015290915073__$30ef26875820c516a3c36c5c0a5fd73943$__9063f4650928908590859073__$a9165f285a495db4c6e535608a8827875a$__90632fa50f1c90602401602060405180830381865af4158015611a16573d6000803e3d6000fd5b505050506040513d601f19601f82011682018060405250810190611a3a919061582b565b6040516001600160e01b031960e086901b1681526004810193909352602483019190915261ffff16604482015260fa60648201526084810188905260a4810187905260c4016040805180830381865af4158015611a9b573d6000803e3d6000fd5b505050506040513d601f19601f82011682018060405250810190611abf919061584f565b9095509350611acf8b8683613dd2565b9850611adc8b8583613dd2565b9750611ae88a8c613e1b565b8815611b065760c954611b06906001600160a01b031633898c613efa565b8715611b245760ca54611b24906001600160a01b031633898b613efa565b60408051848152602081018490527f3a2c380ba0250aca22c1b7f98782a7504335a0c9f8626ab66e84907722fce70d910160405180910390a1604080516001600160a01b038c168152602081018d90529081018a9052606081018990527f5f11830295067c4bcc7d02d4e3b048cd7427be50a3aeb6afc9d3d559ee64bcfa9060800160405180910390a15050505050505060016097819055509250929050565b6060606980546106439061533d565b3360008181526066602090815260408083206001600160a01b038716845290915281205490919083811015611c705760405162461bcd60e51b815260206004820152602560248201527f45524332303a2064656372656173656420616c6c6f77616e63652062656c6f7760448201527f207a65726f0000000000000000000000000000000000000000000000000000006064820152608401610736565b611c7d82868684036129c4565b506001949350505050565b6000336106d4818585612b8d565b6033546001600160a01b03163314611cf05760405162461bcd60e51b815260206004820181905260248201527f4f776e61626c653a2063616c6c6572206973206e6f7420746865206f776e65726044820152606401610736565b60d280546001600160a01b0319166001600160a01b0383169081179091556040519081527f9b6ffaf4cbfd923495440b7f17ced9394289f001b3ead53ab67e2c3f3e39b0f590602001610789565b611d488484613f4b565b50505050565b60ce805460cf8054600093849055929055908115611d9d5760c954611d9d906001600160a01b03167f000000000000000000000000000000000000000000000000000000000000000084613d3c565b8015611dda5760ca54611dda906001600160a01b03167f000000000000000000000000000000000000000000000000000000000000000083613d3c565b60408051838152602081018390527ff640f308bdf7deba15c1aba8a4cf108b0f79d1ca98748696470dc0007f7cf8d3910161152c565b6033546001600160a01b03163314611e6a5760405162461bcd60e51b815260206004820181905260248201527f4f776e61626c653a2063616c6c6572206973206e6f7420746865206f776e65726044820152606401610736565b6001600160a01b038116611ee65760405162461bcd60e51b815260206004820152602660248201527f4f776e61626c653a206e6577206f776e657220697320746865207a65726f206160448201527f64647265737300000000000000000000000000000000000000000000000000006064820152608401610736565b611eef81613cd5565b50565b600080600260975403611f475760405162461bcd60e51b815260206004820152601f60248201527f5265656e7472616e637947756172643a207265656e7472616e742063616c6c006044820152606401610736565b60026097556000611f5760675490565b905060008111611f8e5760405162461bcd60e51b8152602060048201526002602482015261545360f01b6044820152606401610736565b611fc76040518060c001604052806000815260200160008152602001600081526020016000815260200160008152602001600081525090565b73__$3d23d8578387a47facd93bb77f6fe6e81b$__63e56f4d916040518060a0016040528060cd805480602002602001604051908101604052809291908181526020016000905b828210156120645760008481526020908190206040805160608101825291850154600281810b845263010000008204900b838501526601000000000000900462ffffff169082015282526001909201910161200e565b505050908252506001600160a01b037f00000000000000000000000000000000000000000000000000000000000000008116602083015260c954811660408084019190915260ca54909116606083015230608090920191909152516001600160e01b031960e084901b1681526120dd9190600401615732565b608060405180830381865af41580156120fa573d6000803e3d6000fd5b505050506040513d601f19601f8201168201806040525081019061211e91906157f5565b606085015260408401526020830152815260ce5460d05461213f919061538d565b60c9546040516370a0823160e01b81523060048201526001600160a01b03909116906370a0823190602401602060405180830381865afa158015612187573d6000803e3d6000fd5b505050506040513d601f19601f820116820180604052508101906121ab9190615873565b6121b5919061562e565b608082015260cf5460d1546121ca919061538d565b60ca546040516370a0823160e01b81523060048201526001600160a01b03909116906370a0823190602401602060405180830381865afa158015612212573d6000803e3d6000fd5b505050506040513d601f19601f820116820180604052508101906122369190615873565b612240919061562e565b60a0820152604080820151606083015160d2549251630be943c760e21b81526001600160a01b03909316600484015273__$30ef26875820c516a3c36c5c0a5fd73943$__9263f465092892919073__$a9165f285a495db4c6e535608a8827875a$__90632fa50f1c90602401602060405180830381865af41580156122c9573d6000803e3d6000fd5b505050506040513d601f19601f820116820180604052508101906122ed919061582b565b8551602087015160405160e087901b6001600160e01b03191681526004810195909552602485019390935261ffff909116604484015260fa6064840152608483015260a482015260c4016040805180830381865af4158015612353573d6000803e3d6000fd5b505050506040513d601f19601f82011682018060405250810190612377919061584f565b602083015280825261238a9087846140e9565b935061239b816020015187846140e9565b9250838160800151101580156123b55750828160a0015110155b15612456576123c43387614197565b83156123e15760c9546123e1906001600160a01b03168686613d3c565b82156123fe5760ca546123fe906001600160a01b03168685613d3c565b604080516001600160a01b038716815260208101889052908101859052606081018490527f86dacd5ce62967ebd3d915a82b22ad7e159538e50c7ba451e073fec048d9f1279060800160405180910390a150506129b4565b866124875760405162461bcd60e51b81526020600482015260016024820152602160f91b6044820152606401610736565b6124913387614197565b6124bc6040518060800160405280600081526020016000815260200160008152602001600081525090565b60005b8881101561270c578989828181106124d9576124d96153a5565b6124ef92602060809092020190810191506158a1565b6001600160801b031660000361252c5760405162461bcd60e51b8152602060048201526002602482015261262d60f11b6044820152606401610736565b60c95460ca54600091612697916001600160a01b037f0000000000000000000000000000000000000000000000000000000000000000811692631698ee829290821691168f8f88818110612582576125826153a5565b6125999260809182020190810191506060016154d6565b6040516001600160e01b031960e086901b1681526001600160a01b03938416600482015292909116602483015262ffffff166044820152606401602060405180830381865afa1580156125f0573d6000803e3d6000fd5b505050506040513d601f19601f8201168201806040525081019061261491906154f3565b8c8c85818110612626576126266153a5565b61263f92604060809092020190810191506020016158be565b8d8d86818110612651576126516153a5565b61266a92606060809092020190810191506040016158be565b8e8e8781811061267c5761267c6153a5565b61269292602060809092020190810191506158a1565b6142e5565b90508060400151836040018181516126af919061538d565b90525060608082015190840180516126c890839061538d565b9052508051835184906126dc90839061538d565b90525060208082015190840180516126f590839061538d565b905250819050612704816155d6565b9150506124bf565b5061271f81604001518260600151614663565b6000851180156127c0575060008560ce5460d05461273d919061538d565b60c9546040516370a0823160e01b81523060048201526001600160a01b03909116906370a0823190602401602060405180830381865afa158015612785573d6000803e3d6000fd5b505050506040513d601f19601f820116820180604052508101906127a99190615873565b6127b3919061562e565b6127bd919061562e565b10155b156127dc5760c9546127dc906001600160a01b03168787613d3c565b60008411801561287d575060008460cf5460d1546127fa919061538d565b60ca546040516370a0823160e01b81523060048201526001600160a01b03909116906370a0823190602401602060405180830381865afa158015612842573d6000803e3d6000fd5b505050506040513d601f19601f820116820180604052508101906128669190615873565b612870919061562e565b61287a919061562e565b10155b156128995760ca54612899906001600160a01b03168786613d3c565b805160208083015160408051338152928301939093528183015290517fbcc5876d59ecdf66ef7ccae24657b11650939218782f8d741e78fd3c35d285a39181900360600190a16040808301516060840151825191825260208201527f3a2c380ba0250aca22c1b7f98782a7504335a0c9f8626ab66e84907722fce70d910160405180910390a16040808201516060830151825191825260208201527fdbbb3a796242c9562af701570b096cb2478cd507fcd2d4080025883b10a623a5910160405180910390a1604080516001600160a01b038816815260208101899052908101869052606081018590527f86dacd5ce62967ebd3d915a82b22ad7e159538e50c7ba451e073fec048d9f1279060800160405180910390a15050505b6001609755909590945092505050565b6001600160a01b038316612a3f5760405162461bcd60e51b8152602060048201526024808201527f45524332303a20617070726f76652066726f6d20746865207a65726f2061646460448201527f72657373000000000000000000000000000000000000000000000000000000006064820152608401610736565b6001600160a01b038216612aa05760405162461bcd60e51b815260206004820152602260248201527f45524332303a20617070726f766520746f20746865207a65726f206164647265604482015261737360f01b6064820152608401610736565b6001600160a01b0383811660008181526066602090815260408083209487168084529482529182902085905590518481527f8c5be1e5ebec7d5bd14f71427d1e84f3dd0314c0f7b2291e5b200ac8c7c3b925910160405180910390a3505050565b6001600160a01b038381166000908152606660209081526040808320938616835292905220546000198114611d485781811015612b805760405162461bcd60e51b815260206004820152601d60248201527f45524332303a20696e73756666696369656e7420616c6c6f77616e63650000006044820152606401610736565b611d4884848484036129c4565b6001600160a01b038316612c095760405162461bcd60e51b815260206004820152602560248201527f45524332303a207472616e736665722066726f6d20746865207a65726f20616460448201527f64726573730000000000000000000000000000000000000000000000000000006064820152608401610736565b6001600160a01b038216612c855760405162461bcd60e51b815260206004820152602360248201527f45524332303a207472616e7366657220746f20746865207a65726f206164647260448201527f65737300000000000000000000000000000000000000000000000000000000006064820152608401610736565b6001600160a01b03831660009081526065602052604090205481811015612d145760405162461bcd60e51b815260206004820152602660248201527f45524332303a207472616e7366657220616d6f756e742065786365656473206260448201527f616c616e636500000000000000000000000000000000000000000000000000006064820152608401610736565b6001600160a01b03808516600090815260656020526040808220858503905591851681529081208054849290612d4b90849061538d565b92505081905550826001600160a01b0316846001600160a01b03167fddf252ad1be2c89b69c2b068fc378daa952ba7f163c4a11628f55a4df523b3ef84604051612d9791815260200190565b60405180910390a3611d48565b6001600160a01b038116600090815260018301602052604081205415156107b3565b600260975403612e185760405162461bcd60e51b815260206004820152601f60248201527f5265656e7472616e637947756172643a207265656e7472616e742063616c6c006044820152606401610736565b6002609755600080805b612e2c84806158db565b9050811015612fe55760c95460ca546000916001600160a01b037f0000000000000000000000000000000000000000000000000000000000000000811692631698ee829282169116612e7e89806158db565b87818110612e8e57612e8e6153a5565b612ea59260809182020190810191506060016154d6565b6040516001600160e01b031960e086901b1681526001600160a01b03938416600482015292909116602483015262ffffff166044820152606401602060405180830381865afa158015612efc573d6000803e3d6000fd5b505050506040513d601f19601f82011682018060405250810190612f2091906154f3565b9050806000612fa982612f3389806158db565b87818110612f4357612f436153a5565b612f5c92604060809092020190810191506020016158be565b612f668a806158db565b88818110612f7657612f766153a5565b612f8f92606060809092020190810191506040016158be565b612f998b806158db565b8981811061267c5761267c6153a5565b9050806040015186612fbb919061538d565b9550806060015185612fcd919061538d565b94505050508080612fdd906155d6565b915050612e22565b506000821180612ff55750600081115b1561303e576130048282614663565b60408051838152602081018390527fdbbb3a796242c9562af701570b096cb2478cd507fcd2d4080025883b10a623a5910160405180910390a15b600061304d6040850185615925565b60600135111561353a576130786130676040850185615925565b61147c906040810190602001614f18565b156130aa5760405162461bcd60e51b815260206004820152600260248201526104e560f41b6044820152606401610736565b60c9546040516370a0823160e01b81523060048201526000916001600160a01b0316906370a0823190602401602060405180830381865afa1580156130f3573d6000803e3d6000fd5b505050506040513d601f19601f820116820180604052508101906131179190615873565b60ca546040516370a0823160e01b81523060048201529192506000916001600160a01b03909116906370a0823190602401602060405180830381865afa158015613165573d6000803e3d6000fd5b505050506040513d601f19601f820116820180604052508101906131899190615873565b90506131c061319b6040870187615925565b6131ac906060810190604001614f18565b60c9546001600160a01b03169060006147ae565b6131f56131d06040870187615925565b6131e1906060810190604001614f18565b60ca546001600160a01b03169060006147ae565b6132296132056040870187615925565b613216906060810190604001614f18565b60c9546001600160a01b031690846147ae565b61325d6132396040870187615925565b61324a906060810190604001614f18565b60ca546001600160a01b031690836147ae565b600061326c6040870187615925565b61327d906060810190604001614f18565b6001600160a01b03166132936040880188615925565b61329d9080615945565b6040516132ab92919061598c565b6000604051808303816000865af19150503d80600081146132e8576040519150601f19603f3d011682016040523d82523d6000602084013e6132ed565b606091505b50509050806133235760405162461bcd60e51b8152602060048201526002602482015261534360f01b6044820152606401610736565b61333361319b6040880188615925565b6133436131d06040880188615925565b60c9546040516370a0823160e01b81523060048201526000916001600160a01b0316906370a0823190602401602060405180830381865afa15801561338c573d6000803e3d6000fd5b505050506040513d601f19601f820116820180604052508101906133b09190615873565b60ca546040516370a0823160e01b81523060048201529192506000916001600160a01b03909116906370a0823190602401602060405180830381865afa1580156133fe573d6000803e3d6000fd5b505050506040513d601f19601f820116820180604052508101906134229190615873565b90506134316040890189615925565b6134429060c081019060a0016159a7565b156134c0576134546040890189615925565b61346290608001358561538d565b811015801561348a57506134796040890189615925565b61348790606001358661562e565b82145b6134bb5760405162461bcd60e51b815260206004820152600260248201526129a360f11b6044820152606401610736565b613534565b6134cd6040890189615925565b6134db90608001358661538d565b821015801561350357506134f26040890189615925565b61350090606001358561562e565b81145b6135345760405162461bcd60e51b815260206004820152600260248201526129a360f11b6044820152606401610736565b50505050505b506000905080805b61354f60208501856158db565b905081101561389a5760c95460ca546000916001600160a01b037f0000000000000000000000000000000000000000000000000000000000000000811692631698ee8292821691166135a460208a018a6158db565b878181106135b4576135b46153a5565b6135cb9260809182020190810191506060016154d6565b6040516001600160e01b031960e086901b1681526001600160a01b03938416600482015292909116602483015262ffffff166044820152606401602060405180830381865afa158015613622573d6000803e3d6000fd5b505050506040513d601f19601f8201168201806040525081019061364691906154f3565b9050600073__$b131e44167300e1b6d47510635310686a7$__6335f8054760cd61367360208a018a6158db565b87818110613683576136836153a5565b9050608002016020016040518363ffffffff1660e01b81526004016136a992919061541f565b6040805180830381865af41580156136c5573d6000803e3d6000fd5b505050506040513d601f19601f820116820180604052508101906136e991906154a8565b5090508061371e5760405162461bcd60e51b8152602060048201526002602482015261272960f11b6044820152606401610736565b6000806001600160a01b038416633c8a7d8d3061373e60208c018c6158db565b8981811061374e5761374e6153a5565b61376792604060809092020190810191506020016158be565b61377460208d018d6158db565b8a818110613784576137846153a5565b61379d92606060809092020190810191506040016158be565b6137aa60208e018e6158db565b8b8181106137ba576137ba6153a5565b6137d092602060809092020190810191506158a1565b6040516001600160e01b031960e087901b1681526001600160a01b039094166004850152600292830b6024850152910b60448301526001600160801b0316606482015260a06084820152600060a482015260c40160408051808303816000875af1158015613842573d6000803e3d6000fd5b505050506040513d601f19601f82011682018060405250810190613866919061584f565b9092509050613875828861538d565b9650613881818761538d565b9550505050508080613892906155d6565b915050613542565b5082606001358210156138d45760405162461bcd60e51b8152602060048201526002602482015261044360f41b6044820152606401610736565b826080013581101561390d5760405162461bcd60e51b8152602060048201526002602482015261443160f01b6044820152606401610736565b7ff986e997232f4ce3815568633ba8d001cb44438ca7bdba4bd3147148ac1e0fde8360405161393c9190615a90565b60405180910390a15050600160975550565b60008054610100900460ff16156139dc578160ff1660011480156139715750303b155b6139d45760405162461bcd60e51b815260206004820152602e60248201527f496e697469616c697a61626c653a20636f6e747261637420697320616c72656160448201526d191e481a5b9a5d1a585b1a5e995960921b6064820152608401610736565b506000919050565b60005460ff808416911610613a4a5760405162461bcd60e51b815260206004820152602e60248201527f496e697469616c697a61626c653a20636f6e747261637420697320616c72656160448201526d191e481a5b9a5d1a585b1a5e995960921b6064820152608401610736565b506000805460ff191660ff92909216919091179055600190565b919050565b600054610100900460ff16613ad45760405162461bcd60e51b815260206004820152602b60248201527f496e697469616c697a61626c653a20636f6e7472616374206973206e6f74206960448201526a6e697469616c697a696e6760a81b6064820152608401610736565b613ade82826148fc565b5050565b600054610100900460ff16613b4d5760405162461bcd60e51b815260206004820152602b60248201527f496e697469616c697a61626c653a20636f6e7472616374206973206e6f74206960448201526a6e697469616c697a696e6760a81b6064820152608401610736565b6115db61498e565b60005b83811015613cce5760007f00000000000000000000000000000000000000000000000000000000000000006001600160a01b0316631698ee828585898987818110613ba557613ba56153a5565b9050602002016020810190613bba91906154d6565b6040516001600160e01b031960e086901b1681526001600160a01b03938416600482015292909116602483015262ffffff166044820152606401602060405180830381865afa158015613c11573d6000803e3d6000fd5b505050506040513d601f19601f82011682018060405250810190613c3591906154f3565b90506001600160a01b038116613c725760405162461bcd60e51b81526020600482015260026024820152615a4160f01b6044820152606401610736565b613c7d60d482612da4565b15613cae5760405162461bcd60e51b81526020600482015260016024820152600560fc1b6044820152606401610736565b613cb960d482614a00565b50508080613cc6906155d6565b915050613b58565b5050505050565b603380546001600160a01b038381166001600160a01b0319831681179093556040519116919082907f8be0079c531659141344cd1fd0a4f28419497f9722a3daafe3b4186f6b6457e090600090a35050565b60006107b3836001600160a01b038416614a15565b6040516001600160a01b038316602482015260448101829052613dcd9084907fa9059cbb00000000000000000000000000000000000000000000000000000000906064015b60408051601f198184030181529190526020810180517bffffffffffffffffffffffffffffffffffffffffffffffffffffffff166001600160e01b031990931692909217909152614b08565b505050565b6000613ddf8484846140e9565b905060008280613df157613df1615bd7565b84860911156107b3576000198110613e0857600080fd5b80613e12816155d6565b95945050505050565b6001600160a01b038216613e715760405162461bcd60e51b815260206004820152601f60248201527f45524332303a206d696e7420746f20746865207a65726f2061646472657373006044820152606401610736565b8060676000828254613e83919061538d565b90915550506001600160a01b03821660009081526065602052604081208054839290613eb090849061538d565b90915550506040518181526001600160a01b038316906000907fddf252ad1be2c89b69c2b068fc378daa952ba7f163c4a11628f55a4df523b3ef9060200160405180910390a35050565b6040516001600160a01b0380851660248301528316604482015260648101829052611d489085907f23b872dd0000000000000000000000000000000000000000000000000000000090608401613d81565b613f5660d433612da4565b613f875760405162461bcd60e51b8152602060048201526002602482015261434360f01b6044820152606401610736565b60008211801561401c575060ce5460d054613fa2919061538d565b60c9546040516370a0823160e01b81523060048201526001600160a01b03909116906370a0823190602401602060405180830381865afa158015613fea573d6000803e3d6000fd5b505050506040513d601f19601f8201168201806040525081019061400e9190615873565b614018919061562e565b8211155b156140385760c954614038906001600160a01b03163384613d3c565b6000811180156140cd575060cf5460d154614053919061538d565b60ca546040516370a0823160e01b81523060048201526001600160a01b03909116906370a0823190602401602060405180830381865afa15801561409b573d6000803e3d6000fd5b505050506040513d601f19601f820116820180604052508101906140bf9190615873565b6140c9919061562e565b8111155b15613ade5760ca54613ade906001600160a01b03163383613d3c565b6000808060001985870985870292508281108382030391505080600003614122576000841161411757600080fd5b5082900490506107b3565b80841161412e57600080fd5b60008486880960026001871981018816978890046003810283188082028403028082028403028082028403028082028403028082028403029081029092039091026000889003889004909101858311909403939093029303949094049190911702949350505050565b6001600160a01b0382166141f75760405162461bcd60e51b815260206004820152602160248201527f45524332303a206275726e2066726f6d20746865207a65726f206164647265736044820152607360f81b6064820152608401610736565b6001600160a01b0382166000908152606560205260409020548181101561426b5760405162461bcd60e51b815260206004820152602260248201527f45524332303a206275726e20616d6f756e7420657863656564732062616c616e604482015261636560f01b6064820152608401610736565b6001600160a01b038316600090815260656020526040812083830390556067805484929061429a90849061562e565b90915550506040518281526000906001600160a01b038516907fddf252ad1be2c89b69c2b068fc378daa952ba7f163c4a11628f55a4df523b3ef9060200160405180910390a3505050565b6143106040518060800160405280600081526020016000815260200160008152602001600081525090565b60c9546040516370a0823160e01b81523060048201526000916001600160a01b0316906370a0823190602401602060405180830381865afa158015614359573d6000803e3d6000fd5b505050506040513d601f19601f8201168201806040525081019061437d9190615873565b60ca546040516370a0823160e01b81523060048201529192506000916001600160a01b03909116906370a0823190602401602060405180830381865afa1580156143cb573d6000803e3d6000fd5b505050506040513d601f19601f820116820180604052508101906143ef9190615873565b6040517fa34123a7000000000000000000000000000000000000000000000000000000008152600288810b600483015287900b60248201526001600160801b03861660448201529091506001600160a01b0388169063a34123a79060640160408051808303816000875af115801561446b573d6000803e3d6000fd5b505050506040513d601f19601f8201168201806040525081019061448f919061584f565b602085015283526040517f4f1eb3d8000000000000000000000000000000000000000000000000000000008152306004820152600287810b602483015286900b60448201526001600160801b036064820181905260848201526001600160a01b03881690634f1eb3d89060a40160408051808303816000875af115801561451a573d6000803e3d6000fd5b505050506040513d601f19601f8201168201806040525081019061453e9190615bed565b5050825160c9546040516370a0823160e01b815230600482015284916001600160a01b0316906370a0823190602401602060405180830381865afa15801561458a573d6000803e3d6000fd5b505050506040513d601f19601f820116820180604052508101906145ae9190615873565b6145b8919061562e565b6145c2919061562e565b604084810191909152602084015160ca5491516370a0823160e01b8152306004820152909183916001600160a01b03909116906370a0823190602401602060405180830381865afa15801561461b573d6000803e3d6000fd5b505050506040513d601f19601f8201168201806040525081019061463f9190615873565b614649919061562e565b614653919061562e565b6060840152509095945050505050565b60d254604051630be943c760e21b81526001600160a01b03909116600482015260009073__$a9165f285a495db4c6e535608a8827875a$__90632fa50f1c90602401602060405180830381865af41580156146c2573d6000803e3d6000fd5b505050506040513d601f19601f820116820180604052508101906146e6919061582b565b90506127106146f961ffff831685615c1c565b6147039190615c3b565b60d06000828254614714919061538d565b90915550612710905061472b61ffff831684615c1c565b6147359190615c3b565b60d16000828254614746919061538d565b90915550612710905061475a60fa85615c1c565b6147649190615c3b565b60ce6000828254614775919061538d565b90915550612710905061478960fa84615c1c565b6147939190615c3b565b60cf60008282546147a4919061538d565b9091555050505050565b80158061484157506040517fdd62ed3e0000000000000000000000000000000000000000000000000000000081523060048201526001600160a01b03838116602483015284169063dd62ed3e90604401602060405180830381865afa15801561481b573d6000803e3d6000fd5b505050506040513d601f19601f8201168201806040525081019061483f9190615873565b155b6148b35760405162461bcd60e51b815260206004820152603660248201527f5361666545524332303a20617070726f76652066726f6d206e6f6e2d7a65726f60448201527f20746f206e6f6e2d7a65726f20616c6c6f77616e6365000000000000000000006064820152608401610736565b6040516001600160a01b038316602482015260448101829052613dcd9084907f095ea7b30000000000000000000000000000000000000000000000000000000090606401613d81565b600054610100900460ff166149675760405162461bcd60e51b815260206004820152602b60248201527f496e697469616c697a61626c653a20636f6e7472616374206973206e6f74206960448201526a6e697469616c697a696e6760a81b6064820152608401610736565b815161497a906068906020850190614dd4565b508051613dcd906069906020840190614dd4565b600054610100900460ff166149f95760405162461bcd60e51b815260206004820152602b60248201527f496e697469616c697a61626c653a20636f6e7472616374206973206e6f74206960448201526a6e697469616c697a696e6760a81b6064820152608401610736565b6001609755565b60006107b3836001600160a01b038416614bed565b60008181526001830160205260408120548015614afe576000614a3960018361562e565b8554909150600090614a4d9060019061562e565b9050818114614ab2576000866000018281548110614a6d57614a6d6153a5565b9060005260206000200154905080876000018481548110614a9057614a906153a5565b6000918252602080832090910192909255918252600188019052604090208390555b8554869080614ac357614ac3615645565b6001900381819060005260206000200160009055905585600101600086815260200190815260200160002060009055600193505050506106da565b60009150506106da565b6000614b5d826040518060400160405280602081526020017f5361666545524332303a206c6f772d6c6576656c2063616c6c206661696c6564815250856001600160a01b0316614c3c9092919063ffffffff16565b805190915015613dcd5780806020019051810190614b7b919061552d565b613dcd5760405162461bcd60e51b815260206004820152602a60248201527f5361666545524332303a204552433230206f7065726174696f6e20646964206e60448201527f6f742073756363656564000000000000000000000000000000000000000000006064820152608401610736565b6000818152600183016020526040812054614c34575081546001818101845560008481526020808220909301849055845484825282860190935260409020919091556106da565b5060006106da565b6060614c4b8484600085614c53565b949350505050565b606082471015614ccb5760405162461bcd60e51b815260206004820152602660248201527f416464726573733a20696e73756666696369656e742062616c616e636520666f60448201527f722063616c6c00000000000000000000000000000000000000000000000000006064820152608401610736565b6001600160a01b0385163b614d225760405162461bcd60e51b815260206004820152601d60248201527f416464726573733a2063616c6c20746f206e6f6e2d636f6e74726163740000006044820152606401610736565b600080866001600160a01b03168587604051614d3e9190615c5d565b60006040518083038185875af1925050503d8060008114614d7b576040519150601f19603f3d011682016040523d82523d6000602084013e614d80565b606091505b5091509150614d90828286614d9b565b979650505050505050565b60608315614daa5750816107b3565b825115614dba5782518084602001fd5b8160405162461bcd60e51b81526004016107369190614e99565b828054614de09061533d565b90600052602060002090601f016020900481019282614e025760008555614e48565b82601f10614e1b57805160ff1916838001178555614e48565b82800160010185558215614e48579182015b82811115614e48578251825591602001919060010190614e2d565b50614e54929150614e58565b5090565b5b80821115614e545760008155600101614e59565b60005b83811015614e88578181015183820152602001614e70565b83811115611d485750506000910152565b6020815260008251806020840152614eb8816040850160208701614e6d565b601f01601f19169190910160400192915050565b6001600160a01b0381168114611eef57600080fd5b8035613a6481614ecc565b60008060408385031215614eff57600080fd5b8235614f0a81614ecc565b946020939093013593505050565b600060208284031215614f2a57600080fd5b81356107b381614ecc565b600080600060608486031215614f4a57600080fd5b8335614f5581614ecc565b92506020840135614f6581614ecc565b929592945050506040919091013590565b60008083601f840112614f8857600080fd5b50813567ffffffffffffffff811115614fa057600080fd5b602083019150836020606083028501011115614fbb57600080fd5b9250929050565b600080600080600060608688031215614fda57600080fd5b853567ffffffffffffffff80821115614ff257600080fd5b614ffe89838a01614f76565b9097509550602088013591508082111561501757600080fd5b9087019060a0828a03121561502b57600080fd5b9093506040870135908082111561504157600080fd5b5061504e88828901614f76565b969995985093965092949392505050565b6000806040838503121561507257600080fd5b50508035926020909101359150565b60008083601f84011261509357600080fd5b50813567ffffffffffffffff8111156150ab57600080fd5b602083019150836020828501011115614fbb57600080fd5b6000806000806000606086880312156150db57600080fd5b853567ffffffffffffffff808211156150f357600080fd5b6150ff89838a01615081565b9097509550602088013591508082111561511857600080fd5b61512489838a01615081565b9095509350604088013591508082111561513d57600080fd5b50860160e0818903121561515057600080fd5b809150509295509295909350565b60008083601f84011261517057600080fd5b50813567ffffffffffffffff81111561518857600080fd5b6020830191508360208260051b8501011115614fbb57600080fd5b600080602083850312156151b657600080fd5b823567ffffffffffffffff8111156151cd57600080fd5b6151d98582860161515e565b90969095509350505050565b6000602082840312156151f757600080fd5b5035919050565b6000806040838503121561521157600080fd5b82359150602083013561522381614ecc565b809150509250929050565b6000806000806060858703121561524457600080fd5b8435935060208501359250604085013567ffffffffffffffff81111561526957600080fd5b61527587828801615081565b95989497509550505050565b6000806040838503121561529457600080fd5b823561529f81614ecc565b9150602083013561522381614ecc565b600080600080606085870312156152c557600080fd5b843567ffffffffffffffff808211156152dd57600080fd5b818701915087601f8301126152f157600080fd5b81358181111561530057600080fd5b8860208260071b850101111561531557600080fd5b602092830196509450508501359150604085013561533281614ecc565b939692955090935050565b600181811c9082168061535157607f821691505b60208210810361537157634e487b7160e01b600052602260045260246000fd5b50919050565b634e487b7160e01b600052601160045260246000fd5b600082198211156153a0576153a0615377565b500190565b634e487b7160e01b600052603260045260246000fd5b8060020b8114611eef57600080fd5b62ffffff81168114611eef57600080fd5b80356153e6816153bb565b60020b825260208101356153f9816153bb565b60020b6020830152604081013561540f816153ca565b62ffffff81166040840152505050565b6000608082016080835280855480835260a08501915086600052602092508260002060005b8281101561547f578154600281810b8652601882901c900b8686015260301c62ffffff16604085015260609093019260019182019101615444565b50505080925050615492818401856153db565b509392505050565b8015158114611eef57600080fd5b600080604083850312156154bb57600080fd5b82516154c68161549a565b6020939093015192949293505050565b6000602082840312156154e857600080fd5b81356107b3816153ca565b60006020828403121561550557600080fd5b81516107b381614ecc565b6001600160a01b0383168152608081016107b360208301846153db565b60006020828403121561553f57600080fd5b81516107b38161549a565b8135615555816153bb565b815462ffffff82811662ffffff1983161784556020850135615576816153bb565b8060181b9050818416935065ffffff00000091508082168465ffffffffffff1985161717855560408601356155aa816153ca565b911668ffffffffffffffffff19929092169092171760309190911b68ffffff0000000000001617905550565b6000600182016155e8576155e8615377565b5060010190565b6001600160a01b038681168252858116602083015284811660408301528316606082015260e0810161562460808301846153db565b9695505050505050565b60008282101561564057615640615377565b500390565b634e487b7160e01b600052603160045260246000fd5b6000808335601e1984360301811261567257600080fd5b83018035915067ffffffffffffffff82111561568d57600080fd5b6020019150600581901b3603821315614fbb57600080fd5b60208082528181018390526000908460408401835b868110156156e45782356156cd816153ca565b62ffffff16825291830191908301906001016156ba565b509695505050505050565b60208082528181018390526000908460408401835b868110156156e457823561571781614ecc565b6001600160a01b031682529183019190830190600101615704565b6020808252825160a083830152805160c0840181905260009291820190839060e08601905b808310156157995783518051600290810b845286820151900b8684015260409081015162ffffff16908301529284019260019290920191606090910190615757565b50928601516001600160a01b03811660408701529260408701516001600160a01b0381166060880152935060608701516001600160a01b0381166080880152935060808701516001600160a01b03811660a08801529350615624565b6000806000806080858703121561580b57600080fd5b505082516020840151604085015160609095015191969095509092509050565b60006020828403121561583d57600080fd5b815161ffff811681146107b357600080fd5b6000806040838503121561586257600080fd5b505080516020909101519092909150565b60006020828403121561588557600080fd5b5051919050565b6001600160801b0381168114611eef57600080fd5b6000602082840312156158b357600080fd5b81356107b38161588c565b6000602082840312156158d057600080fd5b81356107b3816153bb565b6000808335601e198436030181126158f257600080fd5b83018035915067ffffffffffffffff82111561590d57600080fd5b6020019150600781901b3603821315614fbb57600080fd5b6000823560be1983360301811261593b57600080fd5b9190910192915050565b6000808335601e1984360301811261595c57600080fd5b83018035915067ffffffffffffffff82111561597757600080fd5b602001915036819003821315614fbb57600080fd5b8183823760009101908152919050565b8035613a648161549a565b6000602082840312156159b957600080fd5b81356107b38161549a565b6000808335601e198436030181126159db57600080fd5b830160208101925035905067ffffffffffffffff8111156159fb57600080fd5b8060071b3603831315614fbb57600080fd5b8183526000602080850194508260005b85811015615a5c578135615a308161588c565b6001600160801b03168752615a498388018385016153db565b6080968701969190910190600101615a1d565b509495945050505050565b81835281816020850137506000828201602090810191909152601f909101601f19169091010190565b60006020808352615aa184856159c4565b60a083860152615ab560c086018284615a0d565b915050615ac4828601866159c4565b601f1980878503016040880152615adc848385615a0d565b93506040880135925060be19883603018312615af757600080fd5b868403016060870152508501803536829003601e19018112615b1857600080fd5b8101803567ffffffffffffffff811115615b3157600080fd5b803603831315615b4057600080fd5b60c08452615b5460c0850182878501615a67565b915050615b62848301614ee1565b6001600160a01b031684840152615b7b60408301614ee1565b6001600160a01b038116604085015293506060820135606084015260808201356080840152615bac60a0830161599c565b80151560a0850152935060608701356080870152608087013560a08701528094505050505092915050565b634e487b7160e01b600052601260045260246000fd5b60008060408385031215615c0057600080fd5b8251615c0b8161588c565b60208401519092506152238161588c565b6000816000190483118215151615615c3657615c36615377565b500290565b600082615c5857634e487b7160e01b600052601260045260246000fd5b500490565b6000825161593b818460208701614e6d56fea2646970667358221220fd078983f5b9baa7aecc41edc1cb19fabd708c3e09a238154a5d862c658d2e5464736f6c634300080d0033",
  "libraries": {
    "Pool": "0x3d66a5a4Bf6883F20730F845A7f0E5d47E073b67",
    "Position": "0x8E7a62cB186cb15aD185652EEA608402DD8824F1",
    "Underlying": "0xC6789725Ecd43A56dAFF251E62Db553238326C48",
    "UniswapV3Amounts": "0x3ecca88F09626A1dF08e7BE4b9F12510BBEAE70c",
    "Manager": "0x40E6559de8E78D29cC104c103BB8C15478e1d0e9"
  },
  "devdoc": {
    "details": "DO NOT ADD STATE VARIABLES - APPEND THEM TO ArrakisV2Storage",
    "kind": "dev",
    "methods": {
      "allowance(address,address)": {
        "details": "See {IERC20-allowance}."
      },
      "approve(address,uint256)": {
        "details": "See {IERC20-approve}. NOTE: If `amount` is the maximum `uint256`, the allowance is not updated on `transferFrom`. This is semantically equivalent to an infinite approval. Requirements: - `spender` cannot be the zero address."
      },
      "balanceOf(address)": {
        "details": "See {IERC20-balanceOf}."
      },
      "decimals()": {
        "details": "Returns the number of decimals used to get its user representation. For example, if `decimals` equals `2`, a balance of `505` tokens should be displayed to a user as `5.05` (`505 / 10 ** 2`). Tokens usually opt for a value of 18, imitating the relationship between Ether and Wei. This is the value {ERC20} uses, unless this function is overridden; NOTE: This information is only used for _display_ purposes: it in no way affects any of the arithmetic of the contract, including {IERC20-balanceOf} and {IERC20-transfer}."
      },
      "decreaseAllowance(address,uint256)": {
        "details": "Atomically decreases the allowance granted to `spender` by the caller. This is an alternative to {approve} that can be used as a mitigation for problems described in {IERC20-approve}. Emits an {Approval} event indicating the updated allowance. Requirements: - `spender` cannot be the zero address. - `spender` must have allowance for the caller of at least `subtractedValue`."
      },
      "increaseAllowance(address,uint256)": {
        "details": "Atomically increases the allowance granted to `spender` by the caller. This is an alternative to {approve} that can be used as a mitigation for problems described in {IERC20-approve}. Emits an {Approval} event indicating the updated allowance. Requirements: - `spender` cannot be the zero address."
      },
      "name()": {
        "details": "Returns the name of the token."
      },
      "owner()": {
        "details": "Returns the address of the current owner."
      },
      "renounceOwnership()": {
        "details": "Leaves the contract without owner. It will not be possible to call `onlyOwner` functions anymore. Can only be called by the current owner. NOTE: Renouncing ownership will leave the contract without an owner, thereby removing any functionality that is only available to the owner."
      },
      "symbol()": {
        "details": "Returns the symbol of the token, usually a shorter version of the name."
      },
      "totalSupply()": {
        "details": "See {IERC20-totalSupply}."
      },
      "transfer(address,uint256)": {
        "details": "See {IERC20-transfer}. Requirements: - `to` cannot be the zero address. - the caller must have a balance of at least `amount`."
      },
      "transferFrom(address,address,uint256)": {
        "details": "See {IERC20-transferFrom}. Emits an {Approval} event indicating the updated allowance. This is not required by the EIP. See the note at the beginning of {ERC20}. NOTE: Does not update the allowance if the current allowance is the maximum `uint256`. Requirements: - `from` and `to` cannot be the zero address. - `from` must have a balance of at least `amount`. - the caller must have allowance for ``from``'s tokens of at least `amount`."
      },
      "transferOwnership(address)": {
        "details": "Transfers ownership of the contract to a new account (`newOwner`). Can only be called by the current owner."
      }
    },
    "version": 1
  },
  "userdoc": {
    "kind": "user",
    "methods": {
      "uniswapV3MintCallback(uint256,uint256,bytes)": {
        "notice": "Uniswap V3 callback fn, called back on pool.mint"
      }
    },
    "version": 1
  },
  "storageLayout": {
    "storage": [
      {
        "astId": 1285,
        "contract": "contracts/ArrakisV2.sol:ArrakisV2",
        "label": "_initialized",
        "offset": 0,
        "slot": "0",
        "type": "t_uint8"
      },
      {
        "astId": 1288,
        "contract": "contracts/ArrakisV2.sol:ArrakisV2",
        "label": "_initializing",
        "offset": 1,
        "slot": "0",
        "type": "t_bool"
      },
      {
        "astId": 2477,
        "contract": "contracts/ArrakisV2.sol:ArrakisV2",
        "label": "__gap",
        "offset": 0,
        "slot": "1",
        "type": "t_array(t_uint256)50_storage"
      },
      {
        "astId": 1165,
        "contract": "contracts/ArrakisV2.sol:ArrakisV2",
        "label": "_owner",
        "offset": 0,
        "slot": "51",
        "type": "t_address"
      },
      {
        "astId": 1277,
        "contract": "contracts/ArrakisV2.sol:ArrakisV2",
        "label": "__gap",
        "offset": 0,
        "slot": "52",
        "type": "t_array(t_uint256)49_storage"
      },
      {
        "astId": 1498,
        "contract": "contracts/ArrakisV2.sol:ArrakisV2",
        "label": "_balances",
        "offset": 0,
        "slot": "101",
        "type": "t_mapping(t_address,t_uint256)"
      },
      {
        "astId": 1504,
        "contract": "contracts/ArrakisV2.sol:ArrakisV2",
        "label": "_allowances",
        "offset": 0,
        "slot": "102",
        "type": "t_mapping(t_address,t_mapping(t_address,t_uint256))"
      },
      {
        "astId": 1506,
        "contract": "contracts/ArrakisV2.sol:ArrakisV2",
        "label": "_totalSupply",
        "offset": 0,
        "slot": "103",
        "type": "t_uint256"
      },
      {
        "astId": 1508,
        "contract": "contracts/ArrakisV2.sol:ArrakisV2",
        "label": "_name",
        "offset": 0,
        "slot": "104",
        "type": "t_string_storage"
      },
      {
        "astId": 1510,
        "contract": "contracts/ArrakisV2.sol:ArrakisV2",
        "label": "_symbol",
        "offset": 0,
        "slot": "105",
        "type": "t_string_storage"
      },
      {
        "astId": 2089,
        "contract": "contracts/ArrakisV2.sol:ArrakisV2",
        "label": "__gap",
        "offset": 0,
        "slot": "106",
        "type": "t_array(t_uint256)45_storage"
      },
      {
        "astId": 1434,
        "contract": "contracts/ArrakisV2.sol:ArrakisV2",
        "label": "_status",
        "offset": 0,
        "slot": "151",
        "type": "t_uint256"
      },
      {
        "astId": 1478,
        "contract": "contracts/ArrakisV2.sol:ArrakisV2",
        "label": "__gap",
        "offset": 0,
        "slot": "152",
        "type": "t_array(t_uint256)49_storage"
      },
      {
        "astId": 10410,
        "contract": "contracts/ArrakisV2.sol:ArrakisV2",
        "label": "token0",
        "offset": 0,
        "slot": "201",
        "type": "t_contract(IERC20)4147"
      },
      {
        "astId": 10413,
        "contract": "contracts/ArrakisV2.sol:ArrakisV2",
        "label": "token1",
        "offset": 0,
        "slot": "202",
        "type": "t_contract(IERC20)4147"
      },
      {
        "astId": 10415,
        "contract": "contracts/ArrakisV2.sol:ArrakisV2",
        "label": "init0",
        "offset": 0,
        "slot": "203",
        "type": "t_uint256"
      },
      {
        "astId": 10417,
        "contract": "contracts/ArrakisV2.sol:ArrakisV2",
        "label": "init1",
        "offset": 0,
        "slot": "204",
        "type": "t_uint256"
      },
      {
        "astId": 10421,
        "contract": "contracts/ArrakisV2.sol:ArrakisV2",
        "label": "ranges",
        "offset": 0,
        "slot": "205",
        "type": "t_array(t_struct(Range)12379_storage)dyn_storage"
      },
      {
        "astId": 10423,
        "contract": "contracts/ArrakisV2.sol:ArrakisV2",
        "label": "arrakisBalance0",
        "offset": 0,
        "slot": "206",
        "type": "t_uint256"
      },
      {
        "astId": 10425,
        "contract": "contracts/ArrakisV2.sol:ArrakisV2",
        "label": "arrakisBalance1",
        "offset": 0,
        "slot": "207",
        "type": "t_uint256"
      },
      {
        "astId": 10427,
        "contract": "contracts/ArrakisV2.sol:ArrakisV2",
        "label": "managerBalance0",
        "offset": 0,
        "slot": "208",
        "type": "t_uint256"
      },
      {
        "astId": 10429,
        "contract": "contracts/ArrakisV2.sol:ArrakisV2",
        "label": "managerBalance1",
        "offset": 0,
        "slot": "209",
        "type": "t_uint256"
      },
      {
        "astId": 10432,
        "contract": "contracts/ArrakisV2.sol:ArrakisV2",
        "label": "manager",
        "offset": 0,
        "slot": "210",
        "type": "t_contract(IManager)11415"
      },
      {
        "astId": 10434,
        "contract": "contracts/ArrakisV2.sol:ArrakisV2",
        "label": "restrictedMint",
        "offset": 0,
        "slot": "211",
        "type": "t_address"
      },
      {
        "astId": 10437,
        "contract": "contracts/ArrakisV2.sol:ArrakisV2",
        "label": "_pools",
        "offset": 0,
        "slot": "212",
        "type": "t_struct(AddressSet)5478_storage"
      }
    ],
    "types": {
      "t_address": {
        "encoding": "inplace",
        "label": "address",
        "numberOfBytes": "20"
      },
      "t_array(t_bytes32)dyn_storage": {
        "base": "t_bytes32",
        "encoding": "dynamic_array",
        "label": "bytes32[]",
        "numberOfBytes": "32"
      },
      "t_array(t_struct(Range)12379_storage)dyn_storage": {
        "base": "t_struct(Range)12379_storage",
        "encoding": "dynamic_array",
        "label": "struct Range[]",
        "numberOfBytes": "32"
      },
      "t_array(t_uint256)45_storage": {
        "base": "t_uint256",
        "encoding": "inplace",
        "label": "uint256[45]",
        "numberOfBytes": "1440"
      },
      "t_array(t_uint256)49_storage": {
        "base": "t_uint256",
        "encoding": "inplace",
        "label": "uint256[49]",
        "numberOfBytes": "1568"
      },
      "t_array(t_uint256)50_storage": {
        "base": "t_uint256",
        "encoding": "inplace",
        "label": "uint256[50]",
        "numberOfBytes": "1600"
      },
      "t_bool": {
        "encoding": "inplace",
        "label": "bool",
        "numberOfBytes": "1"
      },
      "t_bytes32": {
        "encoding": "inplace",
        "label": "bytes32",
        "numberOfBytes": "32"
      },
      "t_contract(IERC20)4147": {
        "encoding": "inplace",
        "label": "contract IERC20",
        "numberOfBytes": "20"
      },
      "t_contract(IManager)11415": {
        "encoding": "inplace",
        "label": "contract IManager",
        "numberOfBytes": "20"
      },
      "t_int24": {
        "encoding": "inplace",
        "label": "int24",
        "numberOfBytes": "3"
      },
      "t_mapping(t_address,t_mapping(t_address,t_uint256))": {
        "encoding": "mapping",
        "key": "t_address",
        "label": "mapping(address => mapping(address => uint256))",
        "numberOfBytes": "32",
        "value": "t_mapping(t_address,t_uint256)"
      },
      "t_mapping(t_address,t_uint256)": {
        "encoding": "mapping",
        "key": "t_address",
        "label": "mapping(address => uint256)",
        "numberOfBytes": "32",
        "value": "t_uint256"
      },
      "t_mapping(t_bytes32,t_uint256)": {
        "encoding": "mapping",
        "key": "t_bytes32",
        "label": "mapping(bytes32 => uint256)",
        "numberOfBytes": "32",
        "value": "t_uint256"
      },
      "t_string_storage": {
        "encoding": "bytes",
        "label": "string",
        "numberOfBytes": "32"
      },
      "t_struct(AddressSet)5478_storage": {
        "encoding": "inplace",
        "label": "struct EnumerableSet.AddressSet",
        "members": [
          {
            "astId": 5477,
            "contract": "contracts/ArrakisV2.sol:ArrakisV2",
            "label": "_inner",
            "offset": 0,
            "slot": "0",
            "type": "t_struct(Set)5177_storage"
          }
        ],
        "numberOfBytes": "64"
      },
      "t_struct(Range)12379_storage": {
        "encoding": "inplace",
        "label": "struct Range",
        "members": [
          {
            "astId": 12374,
            "contract": "contracts/ArrakisV2.sol:ArrakisV2",
            "label": "lowerTick",
            "offset": 0,
            "slot": "0",
            "type": "t_int24"
          },
          {
            "astId": 12376,
            "contract": "contracts/ArrakisV2.sol:ArrakisV2",
            "label": "upperTick",
            "offset": 3,
            "slot": "0",
            "type": "t_int24"
          },
          {
            "astId": 12378,
            "contract": "contracts/ArrakisV2.sol:ArrakisV2",
            "label": "feeTier",
            "offset": 6,
            "slot": "0",
            "type": "t_uint24"
          }
        ],
        "numberOfBytes": "32"
      },
      "t_struct(Set)5177_storage": {
        "encoding": "inplace",
        "label": "struct EnumerableSet.Set",
        "members": [
          {
            "astId": 5172,
            "contract": "contracts/ArrakisV2.sol:ArrakisV2",
            "label": "_values",
            "offset": 0,
            "slot": "0",
            "type": "t_array(t_bytes32)dyn_storage"
          },
          {
            "astId": 5176,
            "contract": "contracts/ArrakisV2.sol:ArrakisV2",
            "label": "_indexes",
            "offset": 0,
            "slot": "1",
            "type": "t_mapping(t_bytes32,t_uint256)"
          }
        ],
        "numberOfBytes": "64"
      },
      "t_uint24": {
        "encoding": "inplace",
        "label": "uint24",
        "numberOfBytes": "3"
      },
      "t_uint256": {
        "encoding": "inplace",
        "label": "uint256",
        "numberOfBytes": "32"
      },
      "t_uint8": {
        "encoding": "inplace",
        "label": "uint8",
        "numberOfBytes": "1"
      }
    }
  }
}