{
  "address": "0x1b94C38Bf04f5D22F265B88DD0752Aa1cd8E6baE",
  "abi": [
    {
      "inputs": [
        {
          "internalType": "contract IUniswapV3Factory",
          "name": "factory_",
          "type": "address"
        },
        {
          "internalType": "contract IArrakisV2Helper",
          "name": "helper_",
          "type": "address"
        },
        {
          "internalType": "contract ISwapRouter",
          "name": "swapRouter_",
          "type": "address"
        }
      ],
      "stateMutability": "nonpayable",
      "type": "constructor"
    },
    {
      "inputs": [],
      "name": "factory",
      "outputs": [
        {
          "internalType": "contract IUniswapV3Factory",
          "name": "",
          "type": "address"
        }
      ],
      "stateMutability": "view",
      "type": "function"
    },
    {
      "inputs": [
        {
          "internalType": "int24",
          "name": "currentTick_",
          "type": "int24"
        },
        {
          "internalType": "int24",
          "name": "lowerTick_",
          "type": "int24"
        },
        {
          "internalType": "int24",
          "name": "upperTick_",
          "type": "int24"
        },
        {
          "internalType": "uint128",
          "name": "liquidity_",
          "type": "uint128"
        }
      ],
      "name": "getAmountsForLiquidity",
      "outputs": [
        {
          "internalType": "uint256",
          "name": "amount0",
          "type": "uint256"
        },
        {
          "internalType": "uint256",
          "name": "amount1",
          "type": "uint256"
        }
      ],
      "stateMutability": "pure",
      "type": "function"
    },
    {
      "inputs": [
        {
          "internalType": "contract IArrakisV2",
          "name": "vaultV2_",
          "type": "address"
        },
        {
          "internalType": "uint256",
          "name": "amount0Max_",
          "type": "uint256"
        },
        {
          "internalType": "uint256",
          "name": "amount1Max_",
          "type": "uint256"
        }
      ],
      "name": "getMintAmounts",
      "outputs": [
        {
          "internalType": "uint256",
          "name": "amount0",
          "type": "uint256"
        },
        {
          "internalType": "uint256",
          "name": "amount1",
          "type": "uint256"
        },
        {
          "internalType": "uint256",
          "name": "mintAmount",
          "type": "uint256"
        }
      ],
      "stateMutability": "view",
      "type": "function"
    },
    {
      "inputs": [],
      "name": "helper",
      "outputs": [
        {
          "internalType": "contract IArrakisV2Helper",
          "name": "",
          "type": "address"
        }
      ],
      "stateMutability": "view",
      "type": "function"
    },
    {
      "inputs": [
        {
          "components": [
            {
              "components": [
                {
                  "components": [
                    {
                      "internalType": "int24",
                      "name": "lowerTick",
                      "type": "int24"
                    },
                    {
                      "internalType": "int24",
                      "name": "upperTick",
                      "type": "int24"
                    },
                    {
                      "internalType": "uint24",
                      "name": "feeTier",
                      "type": "uint24"
                    }
                  ],
                  "internalType": "struct Range",
                  "name": "range",
                  "type": "tuple"
                },
                {
                  "internalType": "uint256",
                  "name": "weight",
                  "type": "uint256"
                }
              ],
              "internalType": "struct RangeWeight[]",
              "name": "rangeWeights",
              "type": "tuple[]"
            },
            {
              "internalType": "contract IArrakisV2",
              "name": "vaultV2",
              "type": "address"
            },
            {
              "internalType": "contract IUniswapV3Pool",
              "name": "pool",
              "type": "address"
            },
            {
              "internalType": "uint256",
              "name": "swapRatio",
              "type": "uint256"
            },
            {
              "internalType": "bool",
              "name": "zeroForOne",
              "type": "bool"
            }
          ],
          "internalType": "struct RebalanceWithSwap",
          "name": "rebalanceWithSwap_",
          "type": "tuple"
        }
      ],
      "name": "rebalanceWithSwap",
      "outputs": [
        {
          "components": [
            {
              "components": [
                {
                  "internalType": "uint128",
                  "name": "liquidity",
                  "type": "uint128"
                },
                {
                  "components": [
                    {
                      "internalType": "int24",
                      "name": "lowerTick",
                      "type": "int24"
                    },
                    {
                      "internalType": "int24",
                      "name": "upperTick",
                      "type": "int24"
                    },
                    {
                      "internalType": "uint24",
                      "name": "feeTier",
                      "type": "uint24"
                    }
                  ],
                  "internalType": "struct Range",
                  "name": "range",
                  "type": "tuple"
                }
              ],
              "internalType": "struct PositionLiquidity[]",
              "name": "removes",
              "type": "tuple[]"
            },
            {
              "components": [
                {
                  "internalType": "uint128",
                  "name": "liquidity",
                  "type": "uint128"
                },
                {
                  "components": [
                    {
                      "internalType": "int24",
                      "name": "lowerTick",
                      "type": "int24"
                    },
                    {
                      "internalType": "int24",
                      "name": "upperTick",
                      "type": "int24"
                    },
                    {
                      "internalType": "uint24",
                      "name": "feeTier",
                      "type": "uint24"
                    }
                  ],
                  "internalType": "struct Range",
                  "name": "range",
                  "type": "tuple"
                }
              ],
              "internalType": "struct PositionLiquidity[]",
              "name": "deposits",
              "type": "tuple[]"
            },
            {
              "components": [
                {
                  "internalType": "bytes",
                  "name": "payload",
                  "type": "bytes"
                },
                {
                  "internalType": "address",
                  "name": "pool",
                  "type": "address"
                },
                {
                  "internalType": "address",
                  "name": "router",
                  "type": "address"
                },
                {
                  "internalType": "uint256",
                  "name": "amountIn",
                  "type": "uint256"
                },
                {
                  "internalType": "uint256",
                  "name": "expectedMinReturn",
                  "type": "uint256"
                },
                {
                  "internalType": "bool",
                  "name": "zeroForOne",
                  "type": "bool"
                }
              ],
              "internalType": "struct SwapPayload",
              "name": "swap",
              "type": "tuple"
            }
          ],
          "internalType": "struct Rebalance",
          "name": "rebalanceParams",
          "type": "tuple"
        }
      ],
      "stateMutability": "view",
      "type": "function"
    },
    {
      "inputs": [
        {
          "internalType": "uint256",
          "name": "amountToBurn_",
          "type": "uint256"
        },
        {
          "internalType": "contract IArrakisV2",
          "name": "vaultV2_",
          "type": "address"
        }
      ],
      "name": "standardBurnParams",
      "outputs": [
        {
          "components": [
            {
              "internalType": "uint128",
              "name": "liquidity",
              "type": "uint128"
            },
            {
              "components": [
                {
                  "internalType": "int24",
                  "name": "lowerTick",
                  "type": "int24"
                },
                {
                  "internalType": "int24",
                  "name": "upperTick",
                  "type": "int24"
                },
                {
                  "internalType": "uint24",
                  "name": "feeTier",
                  "type": "uint24"
                }
              ],
              "internalType": "struct Range",
              "name": "range",
              "type": "tuple"
            }
          ],
          "internalType": "struct BurnLiquidity[]",
          "name": "burns",
          "type": "tuple[]"
        }
      ],
      "stateMutability": "view",
      "type": "function"
    },
    {
      "inputs": [
        {
          "components": [
            {
              "components": [
                {
                  "internalType": "int24",
                  "name": "lowerTick",
                  "type": "int24"
                },
                {
                  "internalType": "int24",
                  "name": "upperTick",
                  "type": "int24"
                },
                {
                  "internalType": "uint24",
                  "name": "feeTier",
                  "type": "uint24"
                }
              ],
              "internalType": "struct Range",
              "name": "range",
              "type": "tuple"
            },
            {
              "internalType": "uint256",
              "name": "weight",
              "type": "uint256"
            }
          ],
          "internalType": "struct RangeWeight[]",
          "name": "rangeWeights_",
          "type": "tuple[]"
        },
        {
          "internalType": "contract IArrakisV2",
          "name": "vaultV2_",
          "type": "address"
        }
      ],
      "name": "standardRebalance",
      "outputs": [
        {
          "components": [
            {
              "components": [
                {
                  "internalType": "uint128",
                  "name": "liquidity",
                  "type": "uint128"
                },
                {
                  "components": [
                    {
                      "internalType": "int24",
                      "name": "lowerTick",
                      "type": "int24"
                    },
                    {
                      "internalType": "int24",
                      "name": "upperTick",
                      "type": "int24"
                    },
                    {
                      "internalType": "uint24",
                      "name": "feeTier",
                      "type": "uint24"
                    }
                  ],
                  "internalType": "struct Range",
                  "name": "range",
                  "type": "tuple"
                }
              ],
              "internalType": "struct PositionLiquidity[]",
              "name": "removes",
              "type": "tuple[]"
            },
            {
              "components": [
                {
                  "internalType": "uint128",
                  "name": "liquidity",
                  "type": "uint128"
                },
                {
                  "components": [
                    {
                      "internalType": "int24",
                      "name": "lowerTick",
                      "type": "int24"
                    },
                    {
                      "internalType": "int24",
                      "name": "upperTick",
                      "type": "int24"
                    },
                    {
                      "internalType": "uint24",
                      "name": "feeTier",
                      "type": "uint24"
                    }
                  ],
                  "internalType": "struct Range",
                  "name": "range",
                  "type": "tuple"
                }
              ],
              "internalType": "struct PositionLiquidity[]",
              "name": "deposits",
              "type": "tuple[]"
            },
            {
              "components": [
                {
                  "internalType": "bytes",
                  "name": "payload",
                  "type": "bytes"
                },
                {
                  "internalType": "address",
                  "name": "pool",
                  "type": "address"
                },
                {
                  "internalType": "address",
                  "name": "router",
                  "type": "address"
                },
                {
                  "internalType": "uint256",
                  "name": "amountIn",
                  "type": "uint256"
                },
                {
                  "internalType": "uint256",
                  "name": "expectedMinReturn",
                  "type": "uint256"
                },
                {
                  "internalType": "bool",
                  "name": "zeroForOne",
                  "type": "bool"
                }
              ],
              "internalType": "struct SwapPayload",
              "name": "swap",
              "type": "tuple"
            }
          ],
          "internalType": "struct Rebalance",
          "name": "rebalanceParams",
          "type": "tuple"
        }
      ],
      "stateMutability": "view",
      "type": "function"
    },
    {
      "inputs": [],
      "name": "swapRouter",
      "outputs": [
        {
          "internalType": "contract ISwapRouter",
          "name": "",
          "type": "address"
        }
      ],
      "stateMutability": "view",
      "type": "function"
    }
  ],
  "transactionHash": "0xd8067c720db7527a68b600d8108a00fbad3bd52e6eeb81ce1d258c12cefd8870",
  "args": [
    "0x1F98431c8aD98523631AE4a59f267346ea31F984",
    "0xafa65b5a8e174BaC7802989e4378708D6218e6fA",
    "0xE592427A0AEce92De3Edee1F18E0157C05861564"
  ],
  "numDeployments": 1,
  "solcInputHash": "7fbaa84d3ab610321cdf1a0ab7303b0a",
  "bytecode": "0x60e06040523480156200001157600080fd5b5060405162003e4e38038062003e4e83398101604081905262000034916200006b565b6001600160a01b0392831660805290821660a0521660c052620000bf565b6001600160a01b03811681146200006857600080fd5b50565b6000806000606084860312156200008157600080fd5b83516200008e8162000052565b6020850151909350620000a18162000052565b6040850151909250620000b48162000052565b809150509250925092565b60805160a05160c051613d3d6200011160003960008181610127015261081201526000818160820152818161032601528181611dfa01526124c301526000818161014e01526113350152613d3d6000f3fe608060405234801561001057600080fd5b50600436106100785760003560e01c806363b0e66a1461007d578063684e1172146100ba578063a339df12146100da578063c30fcfdc14610102578063c31c9c0714610122578063c45a015514610149578063c49f25af14610170578063fa111ce714610183575b600080fd5b6100a47f000000000000000000000000000000000000000000000000000000000000000081565b6040516100b191906130f6565b60405180910390f35b6100cd6100c836600461310a565b6101b1565b6040516100b191906131d5565b6100ed6100e83660046132ee565b611184565b604080519283526020830191909152016100b1565b61011561011036600461336a565b6111b9565b6040516100b1919061339a565b6100a47f000000000000000000000000000000000000000000000000000000000000000081565b6100a47f000000000000000000000000000000000000000000000000000000000000000081565b6100cd61017e366004613527565b611ca2565b6101966101913660046135d9565b6124b9565b604080519384526020840192909252908201526060016100b1565b6101b961303b565b6000808080806101cf604088016020890161360e565b6001600160a01b031663397a877e6040518163ffffffff1660e01b8152600401600060405180830381865afa15801561020c573d6000803e3d6000fd5b505050506040513d6000823e601f3d908101601f19168201604052610234919081019061362b565b9050610246604088016020890161360e565b6001600160a01b0316630dfe16816040518163ffffffff1660e01b8152600401602060405180830381865afa158015610283573d6000803e3d6000fd5b505050506040513d601f19601f820116820180604052508101906102a79190613703565b92506102b9604088016020890161360e565b6001600160a01b031663d21220a76040518163ffffffff1660e01b8152600401602060405180830381865afa1580156102f6573d6000803e3d6000fd5b505050506040513d601f19601f8201168201806040525081019061031a9190613703565b91506001600160a01b037f000000000000000000000000000000000000000000000000000000000000000016636ea08e2a61035b60408a0160208b0161360e565b6040518263ffffffff1660e01b815260040161037791906130f6565b6040805180830381865afa158015610393573d6000803e3d6000fd5b505050506040513d601f19601f820116820180604052508101906103b79190613720565b825191965094506000906001600160401b038111156103d8576103d86133e8565b60405190808252806020026020018201604052801561041157816020015b6103fe613061565b8152602001906001900390816103f65790505b5090506000805b83518110156106e357600061043360408c0160208d0161360e565b6001600160a01b031663c45a01556040518163ffffffff1660e01b8152600401602060405180830381865afa158015610470573d6000803e3d6000fd5b505050506040513d601f19601f820116820180604052508101906104949190613703565b6001600160a01b0316631698ee8288888886815181106104b6576104b6613744565b6020026020010151604001516040518463ffffffff1660e01b81526004016104e09392919061375a565b602060405180830381865afa1580156104fd573d6000803e3d6000fd5b505050506040513d601f19601f820116820180604052508101906105219190613703565b6001600160a01b031663514ea4bf73C64433E71f1f76Be5567B657026656Cce5999C34631208efca8e602001602081019061055c919061360e565b89878151811061056e5761056e613744565b6020026020010151600001518a888151811061058c5761058c613744565b6020026020010151602001516040518463ffffffff1660e01b81526004016105b693929190613782565b602060405180830381865af41580156105d3573d6000803e3d6000fd5b505050506040513d601f19601f820116820180604052508101906105f791906137a7565b6040518263ffffffff1660e01b815260040161061591815260200190565b60a060405180830381865afa158015610632573d6000803e3d6000fd5b505050506040513d601f19601f8201168201806040525081019061065691906137c0565b5092935050506001600160801b03821615905061067b578261067781613838565b9350505b6040518060400160405280826001600160801b031681526020018684815181106106a7576106a7613744565b60200260200101518152508483815181106106c4576106c4613744565b60200260200101819052505080806106db90613838565b915050610418565b50806001600160401b038111156106fc576106fc6133e8565b60405190808252806020026020018201604052801561073557816020015b610722613061565b81526020019060019003908161071a5790505b5088526000805b83518110156107d057600084828151811061075957610759613744565b6020026020010151600001516001600160801b031611156107be5783818151811061078657610786613744565b60200260200101518a6000015183815181106107a4576107a4613744565b602002602001018190525081806107ba90613838565b9250505b806107c881613838565b91505061073c565b506107d961309f565b6107e960a08c0160808d0161385f565b151560a082015261080060608c0160408d0161360e565b6001600160a01b0390811660208301527f000000000000000000000000000000000000000000000000000000000000000016604082015261084760a08c0160808d0161385f565b15610a5c5761085d898c606001356127106127a7565b816060018181525050610a52816060015173cE7b8731CA37cA1F5f9b6441B61f1E1Dd92a9Fa2639ff4c50d8e604001602081019061089b919061360e565b8f60200160208101906108ae919061360e565b6001600160a01b03166326d895456040518163ffffffff1660e01b8152600401602060405180830381865afa1580156108eb573d6000803e3d6000fd5b505050506040513d601f19601f8201168201806040525081019061090f919061387c565b6040518363ffffffff1660e01b815260040161092c929190613899565b602060405180830381865af4158015610949573d6000803e3d6000fd5b505050506040513d601f19601f8201168201806040525081019061096d91906137a7565b8d6020016020810190610980919061360e565b6001600160a01b0316630dfe16816040518163ffffffff1660e01b8152600401602060405180830381865afa1580156109bd573d6000803e3d6000fd5b505050506040513d601f19601f820116820180604052508101906109e19190613703565b6001600160a01b031663313ce5676040518163ffffffff1660e01b8152600401602060405180830381865afa158015610a1e573d6000803e3d6000fd5b505050506040513d601f19601f82011682018060405250810190610a4291906138c8565b610a4d90600a6139c7565b6127a7565b6080820152610bd3565b610a6d888c606001356127106127a7565b816060018181525050610bcd816060015173cE7b8731CA37cA1F5f9b6441B61f1E1Dd92a9Fa2630578711c8e6040016020810190610aab919061360e565b8f6020016020810190610abe919061360e565b6001600160a01b03166326d895456040518163ffffffff1660e01b8152600401602060405180830381865afa158015610afb573d6000803e3d6000fd5b505050506040513d601f19601f82011682018060405250810190610b1f919061387c565b6040518363ffffffff1660e01b8152600401610b3c929190613899565b602060405180830381865af4158015610b59573d6000803e3d6000fd5b505050506040513d601f19601f82011682018060405250810190610b7d91906137a7565b8d6020016020810190610b90919061360e565b6001600160a01b031663d21220a76040518163ffffffff1660e01b8152600401602060405180830381865afa1580156109bd573d6000803e3d6000fd5b60808201525b63414bf38960e01b6040518061010001604052808d6020016020810190610bfa919061360e565b6001600160a01b0316630dfe16816040518163ffffffff1660e01b8152600401602060405180830381865afa158015610c37573d6000803e3d6000fd5b505050506040513d601f19601f82011682018060405250810190610c5b9190613703565b6001600160a01b031681526020018d6020016020810190610c7c919061360e565b6001600160a01b031663d21220a76040518163ffffffff1660e01b8152600401602060405180830381865afa158015610cb9573d6000803e3d6000fd5b505050506040513d601f19601f82011682018060405250810190610cdd9190613703565b6001600160a01b031681526020018d6040016020810190610cfe919061360e565b6001600160a01b031663ddca3f436040518163ffffffff1660e01b8152600401602060405180830381865afa158015610d3b573d6000803e3d6000fd5b505050506040513d601f19601f82011682018060405250810190610d5f919061387c565b62ffffff1681526020018d6020016020810190610d7c919061360e565b6001600160a01b03168152602001610d96436102586139d6565b8152602001836060015181526020018360800151815260200160006001600160a01b0316815250604051602401610e31919081516001600160a01b03908116825260208084015182169083015260408084015162ffffff16908301526060808401518216908301526080808401519083015260a0838101519083015260c0808401519083015260e09283015116918101919091526101000190565b60408051601f198184030181529181526020820180516001600160e01b03166001600160e01b03199094169390931790925282528a015250610ed29250610e7c9150889050806139ee565b808060200260200160405190810160405280939291908181526020016000905b82821015610ec857610eb960808302860136819003810190613a3e565b81526020019060010190610e9c565b505050505061285b565b610edc86806139ee565b90506001600160401b03811115610ef557610ef56133e8565b604051908082528060200260200182016040528015610f2e57816020015b610f1b613061565b815260200190600190039081610f135790505b50602086015260005b610f4187806139ee565b905081101561117a576000610f5688806139ee565b83818110610f6657610f66613744565b905060800201803603810190610f7c9190613a3e565b90506000610f9060408a0160208b0161360e565b6001600160a01b031663c45a01556040518163ffffffff1660e01b8152600401602060405180830381865afa158015610fcd573d6000803e3d6000fd5b505050506040513d601f19601f82011682018060405250810190610ff19190613703565b6001600160a01b0316631698ee8286868560000151604001516040518463ffffffff1660e01b81526004016110289392919061375a565b602060405180830381865afa158015611045573d6000803e3d6000fd5b505050506040513d601f19601f820116820180604052508101906110699190613703565b6001600160a01b0316633850c7bd6040518163ffffffff1660e01b815260040160e060405180830381865afa1580156110a6573d6000803e3d6000fd5b505050506040513d601f19601f820116820180604052508101906110ca9190613a6c565b5050505050509050600061111f826110e98560000151600001516128eb565b8551602001516110f8906128eb565b6111098c88602001516127106127a7565b61111a8c89602001516127106127a7565b612d00565b90506040518060400160405280826001600160801b0316815260200184600001518152508960200151858151811061115957611159613744565b6020026020010181905250505050808061117290613838565b915050610f37565b5050505050919050565b6000806111ab611193876128eb565b61119c876128eb565b6111a5876128eb565b86612dc4565b915091505b94509492505050565b60606000826001600160a01b03166318160ddd6040518163ffffffff1660e01b8152600401602060405180830381865afa1580156111fb573d6000803e3d6000fd5b505050506040513d601f19601f8201168201806040525081019061121f91906137a7565b9050600081116112655760405162461bcd60e51b815260206004820152600c60248201526b746f74616c20737570706c7960a01b60448201526064015b60405180910390fd5b6000836001600160a01b031663397a877e6040518163ffffffff1660e01b8152600401600060405180830381865afa1580156112a5573d6000803e3d6000fd5b505050506040513d6000823e601f3d908101601f191682016040526112cd919081019061362b565b90506113086040518060c001604052806000815260200160008152602001600081526020016000815260200160008152602001600081525090565b73f36Bb98C9D84Bea58575a28f698470D6b770d29D63e56f4d916040518060a001604052808581526020017f00000000000000000000000000000000000000000000000000000000000000006001600160a01b03168152602001886001600160a01b0316630dfe16816040518163ffffffff1660e01b8152600401602060405180830381865afa1580156113a0573d6000803e3d6000fd5b505050506040513d601f19601f820116820180604052508101906113c49190613703565b6001600160a01b03168152602001886001600160a01b031663d21220a76040518163ffffffff1660e01b8152600401602060405180830381865afa158015611410573d6000803e3d6000fd5b505050506040513d601f19601f820116820180604052508101906114349190613703565b6001600160a01b03168152602001886001600160a01b03168152506040518263ffffffff1660e01b815260040161146b9190613afb565b608060405180830381865af4158015611488573d6000803e3d6000fd5b505050506040513d601f19601f820116820180604052508101906114ac9190613ba2565b60608501526040808501919091526020808501929092529183528151630dfe168160e01b815291516001600160a01b03881692630dfe16819260048083019391928290030181865afa158015611506573d6000803e3d6000fd5b505050506040513d601f19601f8201168201806040525081019061152a9190613703565b6001600160a01b03166370a08231866040518263ffffffff1660e01b815260040161155591906130f6565b602060405180830381865afa158015611572573d6000803e3d6000fd5b505050506040513d601f19601f8201168201806040525081019061159691906137a7565b816080018181525050846001600160a01b031663d21220a76040518163ffffffff1660e01b8152600401602060405180830381865afa1580156115dd573d6000803e3d6000fd5b505050506040513d601f19601f820116820180604052508101906116019190613703565b6001600160a01b03166370a08231866040518263ffffffff1660e01b815260040161162c91906130f6565b602060405180830381865afa158015611649573d6000803e3d6000fd5b505050506040513d601f19601f8201168201806040525081019061166d91906137a7565b8160a001818152505060008073cCd824d1Baaeb6d6E2B6De867409564F7B8859d2636d50cdaf846040015185606001518a6001600160a01b031663481c6a756040518163ffffffff1660e01b8152600401602060405180830381865afa1580156116db573d6000803e3d6000fd5b505050506040513d601f19601f820116820180604052508101906116ff9190613703565b6001600160a01b031663ccdf7a026040518163ffffffff1660e01b8152600401602060405180830381865afa15801561173c573d6000803e3d6000fd5b505050506040513d601f19601f820116820180604052508101906117609190613bd8565b8b6001600160a01b031663c70750416040518163ffffffff1660e01b8152600401602060405180830381865afa15801561179e573d6000803e3d6000fd5b505050506040513d601f19601f820116820180604052508101906117c29190613bd8565b6040516001600160e01b031960e087901b1681526004810194909452602484019290925261ffff90811660448401521660648201526084016040805180830381865af4158015611816573d6000803e3d6000fd5b505050506040513d601f19601f8201168201806040525081019061183a9190613720565b9150915081836080015161184e91906139d6565b8351849061185d9083906139d6565b90525060a08301516118709082906139d6565b8360200181815161188191906139d6565b905250508151600091506118969088866127a7565b905060006118a9836020015189876127a7565b9050826080015182111580156118c357508260a001518111155b156118d2575050505050611c9c565b50505080516001600160401b038111156118ee576118ee6133e8565b60405190808252806020026020018201604052801561192757816020015b611914613061565b81526020019060019003908161190c5790505b50925060005b8151811015611c98576000856001600160a01b031663c45a01556040518163ffffffff1660e01b8152600401602060405180830381865afa158015611976573d6000803e3d6000fd5b505050506040513d601f19601f8201168201806040525081019061199a9190613703565b6001600160a01b0316631698ee82876001600160a01b0316630dfe16816040518163ffffffff1660e01b8152600401602060405180830381865afa1580156119e6573d6000803e3d6000fd5b505050506040513d601f19601f82011682018060405250810190611a0a9190613703565b886001600160a01b031663d21220a76040518163ffffffff1660e01b8152600401602060405180830381865afa158015611a48573d6000803e3d6000fd5b505050506040513d601f19601f82011682018060405250810190611a6c9190613703565b868681518110611a7e57611a7e613744565b6020026020010151604001516040518463ffffffff1660e01b8152600401611aa89392919061375a565b602060405180830381865afa158015611ac5573d6000803e3d6000fd5b505050506040513d601f19601f82011682018060405250810190611ae99190613703565b6001600160a01b031663514ea4bf73C64433E71f1f76Be5567B657026656Cce5999C34631208efca89878781518110611b2457611b24613744565b602002602001015160000151888881518110611b4257611b42613744565b6020026020010151602001516040518463ffffffff1660e01b8152600401611b6c93929190613782565b602060405180830381865af4158015611b89573d6000803e3d6000fd5b505050506040513d601f19601f82011682018060405250810190611bad91906137a7565b6040518263ffffffff1660e01b8152600401611bcb91815260200190565b60a060405180830381865afa158015611be8573d6000803e3d6000fd5b505050506040513d601f19601f82011682018060405250810190611c0c91906137c0565b505060408051808201909152929350829150611c3c9050611c376001600160801b0385168b896127a7565b612e5f565b6001600160801b03168152602001848481518110611c5c57611c5c613744565b6020026020010151815250858381518110611c7957611c79613744565b6020026020010181905250508080611c9090613838565b91505061192d565b5050505b92915050565b611caa61303b565b6000806000806000866001600160a01b031663397a877e6040518163ffffffff1660e01b8152600401600060405180830381865afa158015611cf0573d6000803e3d6000fd5b505050506040513d6000823e601f3d908101601f19168201604052611d18919081019061362b565b9050866001600160a01b0316630dfe16816040518163ffffffff1660e01b8152600401602060405180830381865afa158015611d58573d6000803e3d6000fd5b505050506040513d601f19601f82011682018060405250810190611d7c9190613703565b9250866001600160a01b031663d21220a76040518163ffffffff1660e01b8152600401602060405180830381865afa158015611dbc573d6000803e3d6000fd5b505050506040513d601f19601f82011682018060405250810190611de09190613703565b604051633750471560e11b81529092506001600160a01b037f00000000000000000000000000000000000000000000000000000000000000001690636ea08e2a90611e2f908a906004016130f6565b6040805180830381865afa158015611e4b573d6000803e3d6000fd5b505050506040513d601f19601f82011682018060405250810190611e6f9190613720565b825191965094506000906001600160401b03811115611e9057611e906133e8565b604051908082528060200260200182016040528015611ec957816020015b611eb6613061565b815260200190600190039081611eae5790505b5090506000805b835181101561217a5760008a6001600160a01b031663c45a01556040518163ffffffff1660e01b8152600401602060405180830381865afa158015611f19573d6000803e3d6000fd5b505050506040513d601f19601f82011682018060405250810190611f3d9190613703565b6001600160a01b0316631698ee828888888681518110611f5f57611f5f613744565b6020026020010151604001516040518463ffffffff1660e01b8152600401611f899392919061375a565b602060405180830381865afa158015611fa6573d6000803e3d6000fd5b505050506040513d601f19601f82011682018060405250810190611fca9190613703565b6001600160a01b031663514ea4bf73C64433E71f1f76Be5567B657026656Cce5999C34631208efca8e89878151811061200557612005613744565b6020026020010151600001518a888151811061202357612023613744565b6020026020010151602001516040518463ffffffff1660e01b815260040161204d93929190613782565b602060405180830381865af415801561206a573d6000803e3d6000fd5b505050506040513d601f19601f8201168201806040525081019061208e91906137a7565b6040518263ffffffff1660e01b81526004016120ac91815260200190565b60a060405180830381865afa1580156120c9573d6000803e3d6000fd5b505050506040513d601f19601f820116820180604052508101906120ed91906137c0565b5092935050506001600160801b038216159050612112578261210e81613838565b9350505b6040518060400160405280826001600160801b0316815260200186848151811061213e5761213e613744565b602002602001015181525084838151811061215b5761215b613744565b602002602001018190525050808061217290613838565b915050611ed0565b50806001600160401b03811115612193576121936133e8565b6040519080825280602002602001820160405280156121cc57816020015b6121b9613061565b8152602001906001900390816121b15790505b5088526000805b83518110156122675760008482815181106121f0576121f0613744565b6020026020010151600001516001600160801b031611156122555783818151811061221d5761221d613744565b60200260200101518a60000151838151811061223b5761223b613744565b6020026020010181905250818061225190613838565b9250505b8061225f81613838565b9150506121d3565b50505050506122758761285b565b86516001600160401b0381111561228e5761228e6133e8565b6040519080825280602002602001820160405280156122c757816020015b6122b4613061565b8152602001906001900390816122ac5790505b50602086015260005b87518110156124ae5760008882815181106122ed576122ed613744565b602002602001015190506000886001600160a01b031663c45a01556040518163ffffffff1660e01b8152600401602060405180830381865afa158015612337573d6000803e3d6000fd5b505050506040513d601f19601f8201168201806040525081019061235b9190613703565b6001600160a01b0316631698ee8286868560000151604001516040518463ffffffff1660e01b81526004016123929392919061375a565b602060405180830381865afa1580156123af573d6000803e3d6000fd5b505050506040513d601f19601f820116820180604052508101906123d39190613703565b6001600160a01b0316633850c7bd6040518163ffffffff1660e01b815260040160e060405180830381865afa158015612410573d6000803e3d6000fd5b505050506040513d601f19601f820116820180604052508101906124349190613a6c565b50505050505090506000612453826110e98560000151600001516128eb565b90506040518060400160405280826001600160801b0316815260200184600001518152508960200151858151811061248d5761248d613744565b602002602001018190525050505080806124a690613838565b9150506122d0565b505050505092915050565b60008060008060007f00000000000000000000000000000000000000000000000000000000000000006001600160a01b0316636ea08e2a896040518263ffffffff1660e01b815260040161250d91906130f6565b6040805180830381865afa158015612529573d6000803e3d6000fd5b505050506040513d601f19601f8201168201806040525081019061254d9190613720565b915091506000886001600160a01b03166318160ddd6040518163ffffffff1660e01b8152600401602060405180830381865afa158015612591573d6000803e3d6000fd5b505050506040513d601f19601f820116820180604052508101906125b591906137a7565b905080156126495760405163c30fc38d60e01b815273cCd824d1Baaeb6d6E2B6De867409564F7B8859d29063c30fc38d906125fc908690869086908e908e90600401613bf3565b606060405180830381865af4158015612619573d6000803e3d6000fd5b505050506040513d601f19601f8201168201806040525081019061263d9190613c16565b9197509550935061279b565b73cCd824d1Baaeb6d6E2B6De867409564F7B8859d263c30fc38d8a6001600160a01b03166314b806306040518163ffffffff1660e01b8152600401602060405180830381865afa1580156126a1573d6000803e3d6000fd5b505050506040513d601f19601f820116820180604052508101906126c591906137a7565b8b6001600160a01b031663f2eb3e346040518163ffffffff1660e01b8152600401602060405180830381865afa158015612703573d6000803e3d6000fd5b505050506040513d601f19601f8201168201806040525081019061272791906137a7565b670de0b6b3a76400008c8c6040518663ffffffff1660e01b8152600401612752959493929190613bf3565b606060405180830381865af415801561276f573d6000803e3d6000fd5b505050506040513d601f19601f820116820180604052508101906127939190613c16565b919750955093505b50505093509350939050565b60008080600019858709858702925082811083820303915050806000036127e057600084116127d557600080fd5b508290049050612854565b8084116127ec57600080fd5b600084868809851960019081018716968790049682860381900495909211909303600082900391909104909201919091029190911760038402600290811880860282030280860282030280860282030280860282030280860282030280860290910302029150505b9392505050565b6000805b82518110156128a55782818151811061287a5761287a613744565b6020026020010151602001518261289191906139d6565b91508061289d81613838565b91505061285f565b506127108111156128e75760405162461bcd60e51b815260206004820152600c60248201526b1d1bdd185b081dd95a59da1d60a21b604482015260640161125c565b5050565b60008060008360020b12612902578260020b61290f565b8260020b61290f90613c44565b905061291e620d89e719613c60565b60020b8111156129545760405162461bcd60e51b81526020600482015260016024820152601560fa1b604482015260640161125c565b60008160011660000361296b57600160801b61297d565b6ffffcb933bd6fad37aa2d162d1a5940015b6001600160881b0316905060028216156129b25760806129ad826ffff97272373d413259a46990580e213a613c82565b901c90505b60048216156129dc5760806129d7826ffff2e50f5f656932ef12357cf3c7fdcc613c82565b901c90505b6008821615612a06576080612a01826fffe5caca7e10e4e61c3624eaa0941cd0613c82565b901c90505b6010821615612a30576080612a2b826fffcb9843d60f6159c9db58835c926644613c82565b901c90505b6020821615612a5a576080612a55826fff973b41fa98c081472e6896dfb254c0613c82565b901c90505b6040821615612a84576080612a7f826fff2ea16466c96a3843ec78b326b52861613c82565b901c90505b6080821615612aae576080612aa9826ffe5dee046a99a2a811c461f1969c3053613c82565b901c90505b610100821615612ad9576080612ad4826ffcbe86c7900a88aedcffc83b479aa3a4613c82565b901c90505b610200821615612b04576080612aff826ff987a7253ac413176f2b074cf7815e54613c82565b901c90505b610400821615612b2f576080612b2a826ff3392b0822b70005940c7a398e4b70f3613c82565b901c90505b610800821615612b5a576080612b55826fe7159475a2c29b7443b29c7fa6e889d9613c82565b901c90505b611000821615612b85576080612b80826fd097f3bdfd2022b8845ad8f792aa5825613c82565b901c90505b612000821615612bb0576080612bab826fa9f746462d870fdf8a65dc1f90e061e5613c82565b901c90505b614000821615612bdb576080612bd6826f70d869a156d2a1b890bb3df62baf32f7613c82565b901c90505b618000821615612c06576080612c01826f31be135f97d08fd981231505542fcfa6613c82565b901c90505b62010000821615612c32576080612c2d826f09aa508b5b7a84e1c677de54f3e99bc9613c82565b901c90505b62020000821615612c5d576080612c58826e5d6af8dedb81196699c329225ee604613c82565b901c90505b62040000821615612c87576080612c82826d2216e584f5fa1ea926041bedfe98613c82565b901c90505b62080000821615612caf576080612caa826b048a170391f7dc42444e8fa2613c82565b901c90505b60008460020b1315612cca57612cc781600019613cb7565b90505b612cd8600160201b82613ccb565b15612ce4576001612ce7565b60005b612cf89060ff16602083901c6139d6565b949350505050565b6000836001600160a01b0316856001600160a01b03161115612d20579293925b846001600160a01b0316866001600160a01b031611612d4b57612d44858585612ecc565b9050612dbb565b836001600160a01b0316866001600160a01b03161015612dad576000612d72878686612ecc565b90506000612d81878986612f36565b9050806001600160801b0316826001600160801b031610612da25780612da4565b815b92505050612dbb565b612db8858584612f36565b90505b95945050505050565b600080836001600160a01b0316856001600160a01b03161115612de5579293925b846001600160a01b0316866001600160a01b031611612e1057612e09858585612f6c565b91506111b0565b836001600160a01b0316866001600160a01b03161015612e4957612e35868585612f6c565b9150612e42858785612fd6565b90506111b0565b612e54858585612fd6565b905094509492505050565b60006001600160801b03821115612ec85760405162461bcd60e51b815260206004820152602760248201527f53616665436173743a2076616c756520646f65736e27742066697420696e20316044820152663238206269747360c81b606482015260840161125c565b5090565b6000826001600160a01b0316846001600160a01b03161115612eec579192915b6000612f0f856001600160a01b0316856001600160a01b0316600160601b6127a7565b9050612dbb612f318483612f238989613cdf565b6001600160a01b03166127a7565b613020565b6000826001600160a01b0316846001600160a01b03161115612f56579192915b612cf8612f3183600160601b612f238888613cdf565b6000826001600160a01b0316846001600160a01b03161115612f8c579192915b6001600160a01b038416612fcc600160601b600160e01b03606085901b16612fb48787613cdf565b6001600160a01b0316866001600160a01b03166127a7565b612cf89190613cb7565b6000826001600160a01b0316846001600160a01b03161115612ff6579192915b612cf86001600160801b03831661300d8686613cdf565b6001600160a01b0316600160601b6127a7565b806001600160801b038116811461303657600080fd5b919050565b6040518060600160405280606081526020016060815260200161305c61309f565b905290565b604051806040016040528060006001600160801b0316815260200161305c604080516060810182526000808252602082018190529181019190915290565b6040518060c001604052806060815260200160006001600160a01b0316815260200160006001600160a01b0316815260200160008152602001600081526020016000151581525090565b6001600160a01b03169052565b6001600160a01b0391909116815260200190565b60006020828403121561311c57600080fd5b81356001600160401b0381111561313257600080fd5b820160a0818503121561285457600080fd5b805160020b8252602081015160020b602083015262ffffff60408201511660408301525050565b80516001600160801b031682526020808201519061318b90840182613144565b505050565b600081518084526020808501945080840160005b838110156131ca576131b787835161316b565b60809690960195908201906001016131a4565b509495945050505050565b6000602080835283516060828501526131f16080850182613190565b905081850151601f198086840301604087015261320e8383613190565b92506040870151915080868403016060870152815160c0845280518060c086015260005b8181101561324e5782810187015186820160e001528601613232565b8181111561326057600060e083880101525b50858401519150613273868601836130e9565b6040840151955061328760408601876130e9565b606084015160608601526080840151608086015260a084015195506132b060a086018715159052565b601f019091169290920160e0019695505050505050565b8060020b81146132d657600080fd5b50565b6001600160801b03811681146132d657600080fd5b6000806000806080858703121561330457600080fd5b843561330f816132c7565b9350602085013561331f816132c7565b9250604085013561332f816132c7565b9150606085013561333f816132d9565b939692955090935050565b6001600160a01b03811681146132d657600080fd5b80356130368161334a565b6000806040838503121561337d57600080fd5b82359150602083013561338f8161334a565b809150509250929050565b6020808252825182820181905260009190848201906040850190845b818110156133dc576133c983855161316b565b92840192608092909201916001016133b6565b50909695505050505050565b634e487b7160e01b600052604160045260246000fd5b604051606081016001600160401b0381118282101715613420576134206133e8565b60405290565b604051601f8201601f191681016001600160401b038111828210171561344e5761344e6133e8565b604052919050565b60006001600160401b0382111561346f5761346f6133e8565b5060051b60200190565b62ffffff811681146132d657600080fd5b6000818303608081121561349d57600080fd5b604080519081016001600160401b03811182821017156134bf576134bf6133e8565b60405291508160608212156134d357600080fd5b6134db6133fe565b915083356134e8816132c7565b825260208401356134f8816132c7565b6020830152604084013561350b81613479565b8060408401525081815260608401356020820152505092915050565b6000806040838503121561353a57600080fd5b82356001600160401b0381111561355057600080fd5b8301601f8101851361356157600080fd5b8035602061357661357183613456565b613426565b82815260079290921b8301810191818101908884111561359557600080fd5b938201935b838510156135be576135ac898661348a565b8252828201915060808501945061359a565b95506135cd905086820161335f565b93505050509250929050565b6000806000606084860312156135ee57600080fd5b83356135f98161334a565b95602085013595506040909401359392505050565b60006020828403121561362057600080fd5b81356128548161334a565b6000602080838503121561363e57600080fd5b82516001600160401b0381111561365457600080fd5b8301601f8101851361366557600080fd5b805161367361357182613456565b8181526060918202830184019184820191908884111561369257600080fd5b938501935b838510156136f75780858a0312156136af5760008081fd5b6136b76133fe565b85516136c2816132c7565b8152858701516136d1816132c7565b818801526040868101516136e481613479565b9082015283529384019391850191613697565b50979650505050505050565b60006020828403121561371557600080fd5b81516128548161334a565b6000806040838503121561373357600080fd5b505080516020909101519092909150565b634e487b7160e01b600052603260045260246000fd5b6001600160a01b03938416815291909216602082015262ffffff909116604082015260600190565b6001600160a01b03939093168352600291820b6020840152900b604082015260600190565b6000602082840312156137b957600080fd5b5051919050565b600080600080600060a086880312156137d857600080fd5b85516137e3816132d9565b8095505060208601519350604086015192506060860151613803816132d9565b6080870151909250613814816132d9565b809150509295509295909350565b634e487b7160e01b600052601160045260246000fd5b60006001820161384a5761384a613822565b5060010190565b80151581146132d657600080fd5b60006020828403121561387157600080fd5b813561285481613851565b60006020828403121561388e57600080fd5b815161285481613479565b6001600160a01b0392909216825262ffffff16602082015260400190565b805160ff8116811461303657600080fd5b6000602082840312156138da57600080fd5b612854826138b7565b600181815b8085111561391e57816000190482111561390457613904613822565b8085161561391157918102915b93841c93908002906138e8565b509250929050565b60008261393557506001611c9c565b8161394257506000611c9c565b816001811461395857600281146139625761397e565b6001915050611c9c565b60ff84111561397357613973613822565b50506001821b611c9c565b5060208310610133831016604e8410600b84101617156139a1575081810a611c9c565b6139ab83836138e3565b80600019048211156139bf576139bf613822565b029392505050565b600061285460ff841683613926565b600082198211156139e9576139e9613822565b500190565b6000808335601e19843603018112613a0557600080fd5b8301803591506001600160401b03821115613a1f57600080fd5b6020019150600781901b3603821315613a3757600080fd5b9250929050565b600060808284031215613a5057600080fd5b612854838361348a565b805161ffff8116811461303657600080fd5b600080600080600080600060e0888a031215613a8757600080fd5b8751613a928161334a565b6020890151909750613aa3816132c7565b9550613ab160408901613a5a565b9450613abf60608901613a5a565b9350613acd60808901613a5a565b9250613adb60a089016138b7565b915060c0880151613aeb81613851565b8091505092959891949750929550565b6020808252825160a083830152805160c0840181905260009291820190839060e08601905b80831015613b4957613b33828551613144565b6060820191508484019350600183019250613b20565b509286015192613b5c60408701856130e9565b60408701519350613b7060608701856130e9565b60608701519350613b8460808701856130e9565b60808701519350613b9860a08701856130e9565b9695505050505050565b60008060008060808587031215613bb857600080fd5b505082516020840151604085015160609095015191969095509092509050565b600060208284031215613bea57600080fd5b61285482613a5a565b948552602085019390935260408401919091526060830152608082015260a00190565b600080600060608486031215613c2b57600080fd5b8351925060208401519150604084015190509250925092565b6000600160ff1b8201613c5957613c59613822565b5060000390565b60008160020b627fffff198103613c7957613c79613822565b60000392915050565b6000816000190483118215151615613c9c57613c9c613822565b500290565b634e487b7160e01b600052601260045260246000fd5b600082613cc657613cc6613ca1565b500490565b600082613cda57613cda613ca1565b500690565b60006001600160a01b0383811690831681811015613cff57613cff613822565b03939250505056fea26469706673582212204d376f247579369f4b957d530b9ef7ad07fc234d20c846222ba09cb66ecca23064736f6c634300080d0033",
  "deployedBytecode": "0x608060405234801561001057600080fd5b50600436106100785760003560e01c806363b0e66a1461007d578063684e1172146100ba578063a339df12146100da578063c30fcfdc14610102578063c31c9c0714610122578063c45a015514610149578063c49f25af14610170578063fa111ce714610183575b600080fd5b6100a47f000000000000000000000000000000000000000000000000000000000000000081565b6040516100b191906130f6565b60405180910390f35b6100cd6100c836600461310a565b6101b1565b6040516100b191906131d5565b6100ed6100e83660046132ee565b611184565b604080519283526020830191909152016100b1565b61011561011036600461336a565b6111b9565b6040516100b1919061339a565b6100a47f000000000000000000000000000000000000000000000000000000000000000081565b6100a47f000000000000000000000000000000000000000000000000000000000000000081565b6100cd61017e366004613527565b611ca2565b6101966101913660046135d9565b6124b9565b604080519384526020840192909252908201526060016100b1565b6101b961303b565b6000808080806101cf604088016020890161360e565b6001600160a01b031663397a877e6040518163ffffffff1660e01b8152600401600060405180830381865afa15801561020c573d6000803e3d6000fd5b505050506040513d6000823e601f3d908101601f19168201604052610234919081019061362b565b9050610246604088016020890161360e565b6001600160a01b0316630dfe16816040518163ffffffff1660e01b8152600401602060405180830381865afa158015610283573d6000803e3d6000fd5b505050506040513d601f19601f820116820180604052508101906102a79190613703565b92506102b9604088016020890161360e565b6001600160a01b031663d21220a76040518163ffffffff1660e01b8152600401602060405180830381865afa1580156102f6573d6000803e3d6000fd5b505050506040513d601f19601f8201168201806040525081019061031a9190613703565b91506001600160a01b037f000000000000000000000000000000000000000000000000000000000000000016636ea08e2a61035b60408a0160208b0161360e565b6040518263ffffffff1660e01b815260040161037791906130f6565b6040805180830381865afa158015610393573d6000803e3d6000fd5b505050506040513d601f19601f820116820180604052508101906103b79190613720565b825191965094506000906001600160401b038111156103d8576103d86133e8565b60405190808252806020026020018201604052801561041157816020015b6103fe613061565b8152602001906001900390816103f65790505b5090506000805b83518110156106e357600061043360408c0160208d0161360e565b6001600160a01b031663c45a01556040518163ffffffff1660e01b8152600401602060405180830381865afa158015610470573d6000803e3d6000fd5b505050506040513d601f19601f820116820180604052508101906104949190613703565b6001600160a01b0316631698ee8288888886815181106104b6576104b6613744565b6020026020010151604001516040518463ffffffff1660e01b81526004016104e09392919061375a565b602060405180830381865afa1580156104fd573d6000803e3d6000fd5b505050506040513d601f19601f820116820180604052508101906105219190613703565b6001600160a01b031663514ea4bf73__$b131e44167300e1b6d47510635310686a7$__631208efca8e602001602081019061055c919061360e565b89878151811061056e5761056e613744565b6020026020010151600001518a888151811061058c5761058c613744565b6020026020010151602001516040518463ffffffff1660e01b81526004016105b693929190613782565b602060405180830381865af41580156105d3573d6000803e3d6000fd5b505050506040513d601f19601f820116820180604052508101906105f791906137a7565b6040518263ffffffff1660e01b815260040161061591815260200190565b60a060405180830381865afa158015610632573d6000803e3d6000fd5b505050506040513d601f19601f8201168201806040525081019061065691906137c0565b5092935050506001600160801b03821615905061067b578261067781613838565b9350505b6040518060400160405280826001600160801b031681526020018684815181106106a7576106a7613744565b60200260200101518152508483815181106106c4576106c4613744565b60200260200101819052505080806106db90613838565b915050610418565b50806001600160401b038111156106fc576106fc6133e8565b60405190808252806020026020018201604052801561073557816020015b610722613061565b81526020019060019003908161071a5790505b5088526000805b83518110156107d057600084828151811061075957610759613744565b6020026020010151600001516001600160801b031611156107be5783818151811061078657610786613744565b60200260200101518a6000015183815181106107a4576107a4613744565b602002602001018190525081806107ba90613838565b9250505b806107c881613838565b91505061073c565b506107d961309f565b6107e960a08c0160808d0161385f565b151560a082015261080060608c0160408d0161360e565b6001600160a01b0390811660208301527f000000000000000000000000000000000000000000000000000000000000000016604082015261084760a08c0160808d0161385f565b15610a5c5761085d898c606001356127106127a7565b816060018181525050610a52816060015173__$fa5a18c13b4d815a743b91389b9a36db0f$__639ff4c50d8e604001602081019061089b919061360e565b8f60200160208101906108ae919061360e565b6001600160a01b03166326d895456040518163ffffffff1660e01b8152600401602060405180830381865afa1580156108eb573d6000803e3d6000fd5b505050506040513d601f19601f8201168201806040525081019061090f919061387c565b6040518363ffffffff1660e01b815260040161092c929190613899565b602060405180830381865af4158015610949573d6000803e3d6000fd5b505050506040513d601f19601f8201168201806040525081019061096d91906137a7565b8d6020016020810190610980919061360e565b6001600160a01b0316630dfe16816040518163ffffffff1660e01b8152600401602060405180830381865afa1580156109bd573d6000803e3d6000fd5b505050506040513d601f19601f820116820180604052508101906109e19190613703565b6001600160a01b031663313ce5676040518163ffffffff1660e01b8152600401602060405180830381865afa158015610a1e573d6000803e3d6000fd5b505050506040513d601f19601f82011682018060405250810190610a4291906138c8565b610a4d90600a6139c7565b6127a7565b6080820152610bd3565b610a6d888c606001356127106127a7565b816060018181525050610bcd816060015173__$fa5a18c13b4d815a743b91389b9a36db0f$__630578711c8e6040016020810190610aab919061360e565b8f6020016020810190610abe919061360e565b6001600160a01b03166326d895456040518163ffffffff1660e01b8152600401602060405180830381865afa158015610afb573d6000803e3d6000fd5b505050506040513d601f19601f82011682018060405250810190610b1f919061387c565b6040518363ffffffff1660e01b8152600401610b3c929190613899565b602060405180830381865af4158015610b59573d6000803e3d6000fd5b505050506040513d601f19601f82011682018060405250810190610b7d91906137a7565b8d6020016020810190610b90919061360e565b6001600160a01b031663d21220a76040518163ffffffff1660e01b8152600401602060405180830381865afa1580156109bd573d6000803e3d6000fd5b60808201525b63414bf38960e01b6040518061010001604052808d6020016020810190610bfa919061360e565b6001600160a01b0316630dfe16816040518163ffffffff1660e01b8152600401602060405180830381865afa158015610c37573d6000803e3d6000fd5b505050506040513d601f19601f82011682018060405250810190610c5b9190613703565b6001600160a01b031681526020018d6020016020810190610c7c919061360e565b6001600160a01b031663d21220a76040518163ffffffff1660e01b8152600401602060405180830381865afa158015610cb9573d6000803e3d6000fd5b505050506040513d601f19601f82011682018060405250810190610cdd9190613703565b6001600160a01b031681526020018d6040016020810190610cfe919061360e565b6001600160a01b031663ddca3f436040518163ffffffff1660e01b8152600401602060405180830381865afa158015610d3b573d6000803e3d6000fd5b505050506040513d601f19601f82011682018060405250810190610d5f919061387c565b62ffffff1681526020018d6020016020810190610d7c919061360e565b6001600160a01b03168152602001610d96436102586139d6565b8152602001836060015181526020018360800151815260200160006001600160a01b0316815250604051602401610e31919081516001600160a01b03908116825260208084015182169083015260408084015162ffffff16908301526060808401518216908301526080808401519083015260a0838101519083015260c0808401519083015260e09283015116918101919091526101000190565b60408051601f198184030181529181526020820180516001600160e01b03166001600160e01b03199094169390931790925282528a015250610ed29250610e7c9150889050806139ee565b808060200260200160405190810160405280939291908181526020016000905b82821015610ec857610eb960808302860136819003810190613a3e565b81526020019060010190610e9c565b505050505061285b565b610edc86806139ee565b90506001600160401b03811115610ef557610ef56133e8565b604051908082528060200260200182016040528015610f2e57816020015b610f1b613061565b815260200190600190039081610f135790505b50602086015260005b610f4187806139ee565b905081101561117a576000610f5688806139ee565b83818110610f6657610f66613744565b905060800201803603810190610f7c9190613a3e565b90506000610f9060408a0160208b0161360e565b6001600160a01b031663c45a01556040518163ffffffff1660e01b8152600401602060405180830381865afa158015610fcd573d6000803e3d6000fd5b505050506040513d601f19601f82011682018060405250810190610ff19190613703565b6001600160a01b0316631698ee8286868560000151604001516040518463ffffffff1660e01b81526004016110289392919061375a565b602060405180830381865afa158015611045573d6000803e3d6000fd5b505050506040513d601f19601f820116820180604052508101906110699190613703565b6001600160a01b0316633850c7bd6040518163ffffffff1660e01b815260040160e060405180830381865afa1580156110a6573d6000803e3d6000fd5b505050506040513d601f19601f820116820180604052508101906110ca9190613a6c565b5050505050509050600061111f826110e98560000151600001516128eb565b8551602001516110f8906128eb565b6111098c88602001516127106127a7565b61111a8c89602001516127106127a7565b612d00565b90506040518060400160405280826001600160801b0316815260200184600001518152508960200151858151811061115957611159613744565b6020026020010181905250505050808061117290613838565b915050610f37565b5050505050919050565b6000806111ab611193876128eb565b61119c876128eb565b6111a5876128eb565b86612dc4565b915091505b94509492505050565b60606000826001600160a01b03166318160ddd6040518163ffffffff1660e01b8152600401602060405180830381865afa1580156111fb573d6000803e3d6000fd5b505050506040513d601f19601f8201168201806040525081019061121f91906137a7565b9050600081116112655760405162461bcd60e51b815260206004820152600c60248201526b746f74616c20737570706c7960a01b60448201526064015b60405180910390fd5b6000836001600160a01b031663397a877e6040518163ffffffff1660e01b8152600401600060405180830381865afa1580156112a5573d6000803e3d6000fd5b505050506040513d6000823e601f3d908101601f191682016040526112cd919081019061362b565b90506113086040518060c001604052806000815260200160008152602001600081526020016000815260200160008152602001600081525090565b73__$3d23d8578387a47facd93bb77f6fe6e81b$__63e56f4d916040518060a001604052808581526020017f00000000000000000000000000000000000000000000000000000000000000006001600160a01b03168152602001886001600160a01b0316630dfe16816040518163ffffffff1660e01b8152600401602060405180830381865afa1580156113a0573d6000803e3d6000fd5b505050506040513d601f19601f820116820180604052508101906113c49190613703565b6001600160a01b03168152602001886001600160a01b031663d21220a76040518163ffffffff1660e01b8152600401602060405180830381865afa158015611410573d6000803e3d6000fd5b505050506040513d601f19601f820116820180604052508101906114349190613703565b6001600160a01b03168152602001886001600160a01b03168152506040518263ffffffff1660e01b815260040161146b9190613afb565b608060405180830381865af4158015611488573d6000803e3d6000fd5b505050506040513d601f19601f820116820180604052508101906114ac9190613ba2565b60608501526040808501919091526020808501929092529183528151630dfe168160e01b815291516001600160a01b03881692630dfe16819260048083019391928290030181865afa158015611506573d6000803e3d6000fd5b505050506040513d601f19601f8201168201806040525081019061152a9190613703565b6001600160a01b03166370a08231866040518263ffffffff1660e01b815260040161155591906130f6565b602060405180830381865afa158015611572573d6000803e3d6000fd5b505050506040513d601f19601f8201168201806040525081019061159691906137a7565b816080018181525050846001600160a01b031663d21220a76040518163ffffffff1660e01b8152600401602060405180830381865afa1580156115dd573d6000803e3d6000fd5b505050506040513d601f19601f820116820180604052508101906116019190613703565b6001600160a01b03166370a08231866040518263ffffffff1660e01b815260040161162c91906130f6565b602060405180830381865afa158015611649573d6000803e3d6000fd5b505050506040513d601f19601f8201168201806040525081019061166d91906137a7565b8160a001818152505060008073__$30ef26875820c516a3c36c5c0a5fd73943$__636d50cdaf846040015185606001518a6001600160a01b031663481c6a756040518163ffffffff1660e01b8152600401602060405180830381865afa1580156116db573d6000803e3d6000fd5b505050506040513d601f19601f820116820180604052508101906116ff9190613703565b6001600160a01b031663ccdf7a026040518163ffffffff1660e01b8152600401602060405180830381865afa15801561173c573d6000803e3d6000fd5b505050506040513d601f19601f820116820180604052508101906117609190613bd8565b8b6001600160a01b031663c70750416040518163ffffffff1660e01b8152600401602060405180830381865afa15801561179e573d6000803e3d6000fd5b505050506040513d601f19601f820116820180604052508101906117c29190613bd8565b6040516001600160e01b031960e087901b1681526004810194909452602484019290925261ffff90811660448401521660648201526084016040805180830381865af4158015611816573d6000803e3d6000fd5b505050506040513d601f19601f8201168201806040525081019061183a9190613720565b9150915081836080015161184e91906139d6565b8351849061185d9083906139d6565b90525060a08301516118709082906139d6565b8360200181815161188191906139d6565b905250508151600091506118969088866127a7565b905060006118a9836020015189876127a7565b9050826080015182111580156118c357508260a001518111155b156118d2575050505050611c9c565b50505080516001600160401b038111156118ee576118ee6133e8565b60405190808252806020026020018201604052801561192757816020015b611914613061565b81526020019060019003908161190c5790505b50925060005b8151811015611c98576000856001600160a01b031663c45a01556040518163ffffffff1660e01b8152600401602060405180830381865afa158015611976573d6000803e3d6000fd5b505050506040513d601f19601f8201168201806040525081019061199a9190613703565b6001600160a01b0316631698ee82876001600160a01b0316630dfe16816040518163ffffffff1660e01b8152600401602060405180830381865afa1580156119e6573d6000803e3d6000fd5b505050506040513d601f19601f82011682018060405250810190611a0a9190613703565b886001600160a01b031663d21220a76040518163ffffffff1660e01b8152600401602060405180830381865afa158015611a48573d6000803e3d6000fd5b505050506040513d601f19601f82011682018060405250810190611a6c9190613703565b868681518110611a7e57611a7e613744565b6020026020010151604001516040518463ffffffff1660e01b8152600401611aa89392919061375a565b602060405180830381865afa158015611ac5573d6000803e3d6000fd5b505050506040513d601f19601f82011682018060405250810190611ae99190613703565b6001600160a01b031663514ea4bf73__$b131e44167300e1b6d47510635310686a7$__631208efca89878781518110611b2457611b24613744565b602002602001015160000151888881518110611b4257611b42613744565b6020026020010151602001516040518463ffffffff1660e01b8152600401611b6c93929190613782565b602060405180830381865af4158015611b89573d6000803e3d6000fd5b505050506040513d601f19601f82011682018060405250810190611bad91906137a7565b6040518263ffffffff1660e01b8152600401611bcb91815260200190565b60a060405180830381865afa158015611be8573d6000803e3d6000fd5b505050506040513d601f19601f82011682018060405250810190611c0c91906137c0565b505060408051808201909152929350829150611c3c9050611c376001600160801b0385168b896127a7565b612e5f565b6001600160801b03168152602001848481518110611c5c57611c5c613744565b6020026020010151815250858381518110611c7957611c79613744565b6020026020010181905250508080611c9090613838565b91505061192d565b5050505b92915050565b611caa61303b565b6000806000806000866001600160a01b031663397a877e6040518163ffffffff1660e01b8152600401600060405180830381865afa158015611cf0573d6000803e3d6000fd5b505050506040513d6000823e601f3d908101601f19168201604052611d18919081019061362b565b9050866001600160a01b0316630dfe16816040518163ffffffff1660e01b8152600401602060405180830381865afa158015611d58573d6000803e3d6000fd5b505050506040513d601f19601f82011682018060405250810190611d7c9190613703565b9250866001600160a01b031663d21220a76040518163ffffffff1660e01b8152600401602060405180830381865afa158015611dbc573d6000803e3d6000fd5b505050506040513d601f19601f82011682018060405250810190611de09190613703565b604051633750471560e11b81529092506001600160a01b037f00000000000000000000000000000000000000000000000000000000000000001690636ea08e2a90611e2f908a906004016130f6565b6040805180830381865afa158015611e4b573d6000803e3d6000fd5b505050506040513d601f19601f82011682018060405250810190611e6f9190613720565b825191965094506000906001600160401b03811115611e9057611e906133e8565b604051908082528060200260200182016040528015611ec957816020015b611eb6613061565b815260200190600190039081611eae5790505b5090506000805b835181101561217a5760008a6001600160a01b031663c45a01556040518163ffffffff1660e01b8152600401602060405180830381865afa158015611f19573d6000803e3d6000fd5b505050506040513d601f19601f82011682018060405250810190611f3d9190613703565b6001600160a01b0316631698ee828888888681518110611f5f57611f5f613744565b6020026020010151604001516040518463ffffffff1660e01b8152600401611f899392919061375a565b602060405180830381865afa158015611fa6573d6000803e3d6000fd5b505050506040513d601f19601f82011682018060405250810190611fca9190613703565b6001600160a01b031663514ea4bf73__$b131e44167300e1b6d47510635310686a7$__631208efca8e89878151811061200557612005613744565b6020026020010151600001518a888151811061202357612023613744565b6020026020010151602001516040518463ffffffff1660e01b815260040161204d93929190613782565b602060405180830381865af415801561206a573d6000803e3d6000fd5b505050506040513d601f19601f8201168201806040525081019061208e91906137a7565b6040518263ffffffff1660e01b81526004016120ac91815260200190565b60a060405180830381865afa1580156120c9573d6000803e3d6000fd5b505050506040513d601f19601f820116820180604052508101906120ed91906137c0565b5092935050506001600160801b038216159050612112578261210e81613838565b9350505b6040518060400160405280826001600160801b0316815260200186848151811061213e5761213e613744565b602002602001015181525084838151811061215b5761215b613744565b602002602001018190525050808061217290613838565b915050611ed0565b50806001600160401b03811115612193576121936133e8565b6040519080825280602002602001820160405280156121cc57816020015b6121b9613061565b8152602001906001900390816121b15790505b5088526000805b83518110156122675760008482815181106121f0576121f0613744565b6020026020010151600001516001600160801b031611156122555783818151811061221d5761221d613744565b60200260200101518a60000151838151811061223b5761223b613744565b6020026020010181905250818061225190613838565b9250505b8061225f81613838565b9150506121d3565b50505050506122758761285b565b86516001600160401b0381111561228e5761228e6133e8565b6040519080825280602002602001820160405280156122c757816020015b6122b4613061565b8152602001906001900390816122ac5790505b50602086015260005b87518110156124ae5760008882815181106122ed576122ed613744565b602002602001015190506000886001600160a01b031663c45a01556040518163ffffffff1660e01b8152600401602060405180830381865afa158015612337573d6000803e3d6000fd5b505050506040513d601f19601f8201168201806040525081019061235b9190613703565b6001600160a01b0316631698ee8286868560000151604001516040518463ffffffff1660e01b81526004016123929392919061375a565b602060405180830381865afa1580156123af573d6000803e3d6000fd5b505050506040513d601f19601f820116820180604052508101906123d39190613703565b6001600160a01b0316633850c7bd6040518163ffffffff1660e01b815260040160e060405180830381865afa158015612410573d6000803e3d6000fd5b505050506040513d601f19601f820116820180604052508101906124349190613a6c565b50505050505090506000612453826110e98560000151600001516128eb565b90506040518060400160405280826001600160801b0316815260200184600001518152508960200151858151811061248d5761248d613744565b602002602001018190525050505080806124a690613838565b9150506122d0565b505050505092915050565b60008060008060007f00000000000000000000000000000000000000000000000000000000000000006001600160a01b0316636ea08e2a896040518263ffffffff1660e01b815260040161250d91906130f6565b6040805180830381865afa158015612529573d6000803e3d6000fd5b505050506040513d601f19601f8201168201806040525081019061254d9190613720565b915091506000886001600160a01b03166318160ddd6040518163ffffffff1660e01b8152600401602060405180830381865afa158015612591573d6000803e3d6000fd5b505050506040513d601f19601f820116820180604052508101906125b591906137a7565b905080156126495760405163c30fc38d60e01b815273__$30ef26875820c516a3c36c5c0a5fd73943$__9063c30fc38d906125fc908690869086908e908e90600401613bf3565b606060405180830381865af4158015612619573d6000803e3d6000fd5b505050506040513d601f19601f8201168201806040525081019061263d9190613c16565b9197509550935061279b565b73__$30ef26875820c516a3c36c5c0a5fd73943$__63c30fc38d8a6001600160a01b03166314b806306040518163ffffffff1660e01b8152600401602060405180830381865afa1580156126a1573d6000803e3d6000fd5b505050506040513d601f19601f820116820180604052508101906126c591906137a7565b8b6001600160a01b031663f2eb3e346040518163ffffffff1660e01b8152600401602060405180830381865afa158015612703573d6000803e3d6000fd5b505050506040513d601f19601f8201168201806040525081019061272791906137a7565b670de0b6b3a76400008c8c6040518663ffffffff1660e01b8152600401612752959493929190613bf3565b606060405180830381865af415801561276f573d6000803e3d6000fd5b505050506040513d601f19601f820116820180604052508101906127939190613c16565b919750955093505b50505093509350939050565b60008080600019858709858702925082811083820303915050806000036127e057600084116127d557600080fd5b508290049050612854565b8084116127ec57600080fd5b600084868809851960019081018716968790049682860381900495909211909303600082900391909104909201919091029190911760038402600290811880860282030280860282030280860282030280860282030280860282030280860290910302029150505b9392505050565b6000805b82518110156128a55782818151811061287a5761287a613744565b6020026020010151602001518261289191906139d6565b91508061289d81613838565b91505061285f565b506127108111156128e75760405162461bcd60e51b815260206004820152600c60248201526b1d1bdd185b081dd95a59da1d60a21b604482015260640161125c565b5050565b60008060008360020b12612902578260020b61290f565b8260020b61290f90613c44565b905061291e620d89e719613c60565b60020b8111156129545760405162461bcd60e51b81526020600482015260016024820152601560fa1b604482015260640161125c565b60008160011660000361296b57600160801b61297d565b6ffffcb933bd6fad37aa2d162d1a5940015b6001600160881b0316905060028216156129b25760806129ad826ffff97272373d413259a46990580e213a613c82565b901c90505b60048216156129dc5760806129d7826ffff2e50f5f656932ef12357cf3c7fdcc613c82565b901c90505b6008821615612a06576080612a01826fffe5caca7e10e4e61c3624eaa0941cd0613c82565b901c90505b6010821615612a30576080612a2b826fffcb9843d60f6159c9db58835c926644613c82565b901c90505b6020821615612a5a576080612a55826fff973b41fa98c081472e6896dfb254c0613c82565b901c90505b6040821615612a84576080612a7f826fff2ea16466c96a3843ec78b326b52861613c82565b901c90505b6080821615612aae576080612aa9826ffe5dee046a99a2a811c461f1969c3053613c82565b901c90505b610100821615612ad9576080612ad4826ffcbe86c7900a88aedcffc83b479aa3a4613c82565b901c90505b610200821615612b04576080612aff826ff987a7253ac413176f2b074cf7815e54613c82565b901c90505b610400821615612b2f576080612b2a826ff3392b0822b70005940c7a398e4b70f3613c82565b901c90505b610800821615612b5a576080612b55826fe7159475a2c29b7443b29c7fa6e889d9613c82565b901c90505b611000821615612b85576080612b80826fd097f3bdfd2022b8845ad8f792aa5825613c82565b901c90505b612000821615612bb0576080612bab826fa9f746462d870fdf8a65dc1f90e061e5613c82565b901c90505b614000821615612bdb576080612bd6826f70d869a156d2a1b890bb3df62baf32f7613c82565b901c90505b618000821615612c06576080612c01826f31be135f97d08fd981231505542fcfa6613c82565b901c90505b62010000821615612c32576080612c2d826f09aa508b5b7a84e1c677de54f3e99bc9613c82565b901c90505b62020000821615612c5d576080612c58826e5d6af8dedb81196699c329225ee604613c82565b901c90505b62040000821615612c87576080612c82826d2216e584f5fa1ea926041bedfe98613c82565b901c90505b62080000821615612caf576080612caa826b048a170391f7dc42444e8fa2613c82565b901c90505b60008460020b1315612cca57612cc781600019613cb7565b90505b612cd8600160201b82613ccb565b15612ce4576001612ce7565b60005b612cf89060ff16602083901c6139d6565b949350505050565b6000836001600160a01b0316856001600160a01b03161115612d20579293925b846001600160a01b0316866001600160a01b031611612d4b57612d44858585612ecc565b9050612dbb565b836001600160a01b0316866001600160a01b03161015612dad576000612d72878686612ecc565b90506000612d81878986612f36565b9050806001600160801b0316826001600160801b031610612da25780612da4565b815b92505050612dbb565b612db8858584612f36565b90505b95945050505050565b600080836001600160a01b0316856001600160a01b03161115612de5579293925b846001600160a01b0316866001600160a01b031611612e1057612e09858585612f6c565b91506111b0565b836001600160a01b0316866001600160a01b03161015612e4957612e35868585612f6c565b9150612e42858785612fd6565b90506111b0565b612e54858585612fd6565b905094509492505050565b60006001600160801b03821115612ec85760405162461bcd60e51b815260206004820152602760248201527f53616665436173743a2076616c756520646f65736e27742066697420696e20316044820152663238206269747360c81b606482015260840161125c565b5090565b6000826001600160a01b0316846001600160a01b03161115612eec579192915b6000612f0f856001600160a01b0316856001600160a01b0316600160601b6127a7565b9050612dbb612f318483612f238989613cdf565b6001600160a01b03166127a7565b613020565b6000826001600160a01b0316846001600160a01b03161115612f56579192915b612cf8612f3183600160601b612f238888613cdf565b6000826001600160a01b0316846001600160a01b03161115612f8c579192915b6001600160a01b038416612fcc600160601b600160e01b03606085901b16612fb48787613cdf565b6001600160a01b0316866001600160a01b03166127a7565b612cf89190613cb7565b6000826001600160a01b0316846001600160a01b03161115612ff6579192915b612cf86001600160801b03831661300d8686613cdf565b6001600160a01b0316600160601b6127a7565b806001600160801b038116811461303657600080fd5b919050565b6040518060600160405280606081526020016060815260200161305c61309f565b905290565b604051806040016040528060006001600160801b0316815260200161305c604080516060810182526000808252602082018190529181019190915290565b6040518060c001604052806060815260200160006001600160a01b0316815260200160006001600160a01b0316815260200160008152602001600081526020016000151581525090565b6001600160a01b03169052565b6001600160a01b0391909116815260200190565b60006020828403121561311c57600080fd5b81356001600160401b0381111561313257600080fd5b820160a0818503121561285457600080fd5b805160020b8252602081015160020b602083015262ffffff60408201511660408301525050565b80516001600160801b031682526020808201519061318b90840182613144565b505050565b600081518084526020808501945080840160005b838110156131ca576131b787835161316b565b60809690960195908201906001016131a4565b509495945050505050565b6000602080835283516060828501526131f16080850182613190565b905081850151601f198086840301604087015261320e8383613190565b92506040870151915080868403016060870152815160c0845280518060c086015260005b8181101561324e5782810187015186820160e001528601613232565b8181111561326057600060e083880101525b50858401519150613273868601836130e9565b6040840151955061328760408601876130e9565b606084015160608601526080840151608086015260a084015195506132b060a086018715159052565b601f019091169290920160e0019695505050505050565b8060020b81146132d657600080fd5b50565b6001600160801b03811681146132d657600080fd5b6000806000806080858703121561330457600080fd5b843561330f816132c7565b9350602085013561331f816132c7565b9250604085013561332f816132c7565b9150606085013561333f816132d9565b939692955090935050565b6001600160a01b03811681146132d657600080fd5b80356130368161334a565b6000806040838503121561337d57600080fd5b82359150602083013561338f8161334a565b809150509250929050565b6020808252825182820181905260009190848201906040850190845b818110156133dc576133c983855161316b565b92840192608092909201916001016133b6565b50909695505050505050565b634e487b7160e01b600052604160045260246000fd5b604051606081016001600160401b0381118282101715613420576134206133e8565b60405290565b604051601f8201601f191681016001600160401b038111828210171561344e5761344e6133e8565b604052919050565b60006001600160401b0382111561346f5761346f6133e8565b5060051b60200190565b62ffffff811681146132d657600080fd5b6000818303608081121561349d57600080fd5b604080519081016001600160401b03811182821017156134bf576134bf6133e8565b60405291508160608212156134d357600080fd5b6134db6133fe565b915083356134e8816132c7565b825260208401356134f8816132c7565b6020830152604084013561350b81613479565b8060408401525081815260608401356020820152505092915050565b6000806040838503121561353a57600080fd5b82356001600160401b0381111561355057600080fd5b8301601f8101851361356157600080fd5b8035602061357661357183613456565b613426565b82815260079290921b8301810191818101908884111561359557600080fd5b938201935b838510156135be576135ac898661348a565b8252828201915060808501945061359a565b95506135cd905086820161335f565b93505050509250929050565b6000806000606084860312156135ee57600080fd5b83356135f98161334a565b95602085013595506040909401359392505050565b60006020828403121561362057600080fd5b81356128548161334a565b6000602080838503121561363e57600080fd5b82516001600160401b0381111561365457600080fd5b8301601f8101851361366557600080fd5b805161367361357182613456565b8181526060918202830184019184820191908884111561369257600080fd5b938501935b838510156136f75780858a0312156136af5760008081fd5b6136b76133fe565b85516136c2816132c7565b8152858701516136d1816132c7565b818801526040868101516136e481613479565b9082015283529384019391850191613697565b50979650505050505050565b60006020828403121561371557600080fd5b81516128548161334a565b6000806040838503121561373357600080fd5b505080516020909101519092909150565b634e487b7160e01b600052603260045260246000fd5b6001600160a01b03938416815291909216602082015262ffffff909116604082015260600190565b6001600160a01b03939093168352600291820b6020840152900b604082015260600190565b6000602082840312156137b957600080fd5b5051919050565b600080600080600060a086880312156137d857600080fd5b85516137e3816132d9565b8095505060208601519350604086015192506060860151613803816132d9565b6080870151909250613814816132d9565b809150509295509295909350565b634e487b7160e01b600052601160045260246000fd5b60006001820161384a5761384a613822565b5060010190565b80151581146132d657600080fd5b60006020828403121561387157600080fd5b813561285481613851565b60006020828403121561388e57600080fd5b815161285481613479565b6001600160a01b0392909216825262ffffff16602082015260400190565b805160ff8116811461303657600080fd5b6000602082840312156138da57600080fd5b612854826138b7565b600181815b8085111561391e57816000190482111561390457613904613822565b8085161561391157918102915b93841c93908002906138e8565b509250929050565b60008261393557506001611c9c565b8161394257506000611c9c565b816001811461395857600281146139625761397e565b6001915050611c9c565b60ff84111561397357613973613822565b50506001821b611c9c565b5060208310610133831016604e8410600b84101617156139a1575081810a611c9c565b6139ab83836138e3565b80600019048211156139bf576139bf613822565b029392505050565b600061285460ff841683613926565b600082198211156139e9576139e9613822565b500190565b6000808335601e19843603018112613a0557600080fd5b8301803591506001600160401b03821115613a1f57600080fd5b6020019150600781901b3603821315613a3757600080fd5b9250929050565b600060808284031215613a5057600080fd5b612854838361348a565b805161ffff8116811461303657600080fd5b600080600080600080600060e0888a031215613a8757600080fd5b8751613a928161334a565b6020890151909750613aa3816132c7565b9550613ab160408901613a5a565b9450613abf60608901613a5a565b9350613acd60808901613a5a565b9250613adb60a089016138b7565b915060c0880151613aeb81613851565b8091505092959891949750929550565b6020808252825160a083830152805160c0840181905260009291820190839060e08601905b80831015613b4957613b33828551613144565b6060820191508484019350600183019250613b20565b509286015192613b5c60408701856130e9565b60408701519350613b7060608701856130e9565b60608701519350613b8460808701856130e9565b60808701519350613b9860a08701856130e9565b9695505050505050565b60008060008060808587031215613bb857600080fd5b505082516020840151604085015160609095015191969095509092509050565b600060208284031215613bea57600080fd5b61285482613a5a565b948552602085019390935260408401919091526060830152608082015260a00190565b600080600060608486031215613c2b57600080fd5b8351925060208401519150604084015190509250925092565b6000600160ff1b8201613c5957613c59613822565b5060000390565b60008160020b627fffff198103613c7957613c79613822565b60000392915050565b6000816000190483118215151615613c9c57613c9c613822565b500290565b634e487b7160e01b600052601260045260246000fd5b600082613cc657613cc6613ca1565b500490565b600082613cda57613cda613ca1565b500690565b60006001600160a01b0383811690831681811015613cff57613cff613822565b03939250505056fea26469706673582212204d376f247579369f4b957d530b9ef7ad07fc234d20c846222ba09cb66ecca23064736f6c634300080d0033",
  "libraries": {
    "Position": "0xC64433E71f1f76Be5567B657026656Cce5999C34",
    "Underlying": "0xf36Bb98C9D84Bea58575a28f698470D6b770d29D",
    "UniswapV3Amounts": "0xcCd824d1Baaeb6d6E2B6De867409564F7B8859d2",
    "Twap": "0xcE7b8731CA37cA1F5f9b6441B61f1E1Dd92a9Fa2"
  },
  "devdoc": {
    "kind": "dev",
    "methods": {},
    "version": 1
  },
  "userdoc": {
    "kind": "user",
    "methods": {},
    "version": 1
  },
  "storageLayout": {
    "storage": [],
    "types": null
  }
}