{
  "address": "0x17a431ac9976267EBb57EE1404db8B602CC90834",
  "abi": [
    {
      "inputs": [
        {
          "internalType": "contract IUniswapV3Factory",
          "name": "factory_",
          "type": "address"
        }
      ],
      "stateMutability": "nonpayable",
      "type": "constructor"
    },
    {
      "inputs": [],
      "name": "factory",
      "outputs": [
        {
          "internalType": "contract IUniswapV3Factory",
          "name": "",
          "type": "address"
        }
      ],
      "stateMutability": "view",
      "type": "function"
    },
    {
      "inputs": [
        {
          "components": [
            {
              "internalType": "int24",
              "name": "lowerTick",
              "type": "int24"
            },
            {
              "internalType": "int24",
              "name": "upperTick",
              "type": "int24"
            },
            {
              "internalType": "uint24",
              "name": "feeTier",
              "type": "uint24"
            }
          ],
          "internalType": "struct Range[]",
          "name": "ranges_",
          "type": "tuple[]"
        },
        {
          "internalType": "address",
          "name": "token0_",
          "type": "address"
        },
        {
          "internalType": "address",
          "name": "token1_",
          "type": "address"
        },
        {
          "internalType": "address",
          "name": "vaultV2_",
          "type": "address"
        }
      ],
      "name": "token0AndToken1ByRange",
      "outputs": [
        {
          "components": [
            {
              "components": [
                {
                  "internalType": "int24",
                  "name": "lowerTick",
                  "type": "int24"
                },
                {
                  "internalType": "int24",
                  "name": "upperTick",
                  "type": "int24"
                },
                {
                  "internalType": "uint24",
                  "name": "feeTier",
                  "type": "uint24"
                }
              ],
              "internalType": "struct Range",
              "name": "range",
              "type": "tuple"
            },
            {
              "internalType": "uint256",
              "name": "amount",
              "type": "uint256"
            }
          ],
          "internalType": "struct Amount[]",
          "name": "amount0s",
          "type": "tuple[]"
        },
        {
          "components": [
            {
              "components": [
                {
                  "internalType": "int24",
                  "name": "lowerTick",
                  "type": "int24"
                },
                {
                  "internalType": "int24",
                  "name": "upperTick",
                  "type": "int24"
                },
                {
                  "internalType": "uint24",
                  "name": "feeTier",
                  "type": "uint24"
                }
              ],
              "internalType": "struct Range",
              "name": "range",
              "type": "tuple"
            },
            {
              "internalType": "uint256",
              "name": "amount",
              "type": "uint256"
            }
          ],
          "internalType": "struct Amount[]",
          "name": "amount1s",
          "type": "tuple[]"
        }
      ],
      "stateMutability": "view",
      "type": "function"
    },
    {
      "inputs": [
        {
          "internalType": "contract IArrakisV2",
          "name": "vault_",
          "type": "address"
        }
      ],
      "name": "totalUnderlying",
      "outputs": [
        {
          "internalType": "uint256",
          "name": "amount0",
          "type": "uint256"
        },
        {
          "internalType": "uint256",
          "name": "amount1",
          "type": "uint256"
        }
      ],
      "stateMutability": "view",
      "type": "function"
    },
    {
      "inputs": [
        {
          "internalType": "contract IArrakisV2",
          "name": "vault_",
          "type": "address"
        }
      ],
      "name": "totalUnderlyingWithFees",
      "outputs": [
        {
          "internalType": "uint256",
          "name": "amount0",
          "type": "uint256"
        },
        {
          "internalType": "uint256",
          "name": "amount1",
          "type": "uint256"
        },
        {
          "internalType": "uint256",
          "name": "fee0",
          "type": "uint256"
        },
        {
          "internalType": "uint256",
          "name": "fee1",
          "type": "uint256"
        }
      ],
      "stateMutability": "view",
      "type": "function"
    },
    {
      "inputs": [
        {
          "internalType": "contract IArrakisV2",
          "name": "vault_",
          "type": "address"
        }
      ],
      "name": "totalUnderlyingWithFeesAndLeftOver",
      "outputs": [
        {
          "components": [
            {
              "internalType": "uint256",
              "name": "amount0",
              "type": "uint256"
            },
            {
              "internalType": "uint256",
              "name": "amount1",
              "type": "uint256"
            },
            {
              "internalType": "uint256",
              "name": "fee0",
              "type": "uint256"
            },
            {
              "internalType": "uint256",
              "name": "fee1",
              "type": "uint256"
            },
            {
              "internalType": "uint256",
              "name": "leftOver0",
              "type": "uint256"
            },
            {
              "internalType": "uint256",
              "name": "leftOver1",
              "type": "uint256"
            }
          ],
          "internalType": "struct UnderlyingOutput",
          "name": "underlying",
          "type": "tuple"
        }
      ],
      "stateMutability": "view",
      "type": "function"
    }
  ],
  "transactionHash": "0x3d2745ad0fd209af5237ac62c286ce2e0e4973bf23766b2cc386916485ee5cd5",
  "args": [
    "0x1F98431c8aD98523631AE4a59f267346ea31F984"
  ],
  "numDeployments": 1,
  "solcInputHash": "8eb44ece7b704e6fe44037bb578ad211",
  "bytecode": "0x60a060405234801561001057600080fd5b506040516114d53803806114d583398101604081905261002f91610040565b6001600160a01b0316608052610070565b60006020828403121561005257600080fd5b81516001600160a01b038116811461006957600080fd5b9392505050565b6080516114446100916000396000818160e20152610bbc01526114446000f3fe608060405234801561001057600080fd5b50600436106100575760003560e01c80630f8f2d1d1461005c5780636ea08e2a146100945780638fe5a01e146100bc578063c45a0155146100dd578063e9b7218a14610111575b600080fd5b61006f61006a366004610e09565b610170565b6040805194855260208501939093529183015260608201526080015b60405180910390f35b6100a76100a2366004610e09565b6103d5565b6040805192835260208301919091520161008b565b6100cf6100ca366004610e2d565b610634565b60405161008b929190610f4d565b6101047f000000000000000000000000000000000000000000000000000000000000000081565b60405161008b9190610f88565b61012461011f366004610e09565b6107e6565b60405161008b9190600060c082019050825182526020830151602083015260408301516040830152606083015160608301526080830151608083015260a083015160a083015292915050565b60008060008060006040518060a00160405280876001600160a01b031663397a877e6040518163ffffffff1660e01b8152600401600060405180830381865afa1580156101c1573d6000803e3d6000fd5b505050506040513d6000823e601f3d908101601f191682016040526101e9919081019061102a565b8152602001876001600160a01b031663c45a01556040518163ffffffff1660e01b8152600401602060405180830381865afa15801561022c573d6000803e3d6000fd5b505050506040513d601f19601f820116820180604052508101906102509190611118565b6001600160a01b03168152602001876001600160a01b0316630dfe16816040518163ffffffff1660e01b8152600401602060405180830381865afa15801561029c573d6000803e3d6000fd5b505050506040513d601f19601f820116820180604052508101906102c09190611118565b6001600160a01b03168152602001876001600160a01b031663d21220a76040518163ffffffff1660e01b8152600401602060405180830381865afa15801561030c573d6000803e3d6000fd5b505050506040513d601f19601f820116820180604052508101906103309190611118565b6001600160a01b03168152602001876001600160a01b0316815250905073f36Bb98C9D84Bea58575a28f698470D6b770d29D63e56f4d91826040518263ffffffff1660e01b81526004016103849190611135565b608060405180830381865af41580156103a1573d6000803e3d6000fd5b505050506040513d601f19601f820116820180604052508101906103c591906111dc565b9299919850965090945092505050565b60008060006040518060a00160405280856001600160a01b031663397a877e6040518163ffffffff1660e01b8152600401600060405180830381865afa158015610423573d6000803e3d6000fd5b505050506040513d6000823e601f3d908101601f1916820160405261044b919081019061102a565b8152602001856001600160a01b031663c45a01556040518163ffffffff1660e01b8152600401602060405180830381865afa15801561048e573d6000803e3d6000fd5b505050506040513d601f19601f820116820180604052508101906104b29190611118565b6001600160a01b03168152602001856001600160a01b0316630dfe16816040518163ffffffff1660e01b8152600401602060405180830381865afa1580156104fe573d6000803e3d6000fd5b505050506040513d601f19601f820116820180604052508101906105229190611118565b6001600160a01b03168152602001856001600160a01b031663d21220a76040518163ffffffff1660e01b8152600401602060405180830381865afa15801561056e573d6000803e3d6000fd5b505050506040513d601f19601f820116820180604052508101906105929190611118565b6001600160a01b03168152602001856001600160a01b0316815250905073f36Bb98C9D84Bea58575a28f698470D6b770d29D63e56f4d91826040518263ffffffff1660e01b81526004016105e69190611135565b608060405180830381865af4158015610603573d6000803e3d6000fd5b505050506040513d601f19601f8201168201806040525081019061062791906111dc565b5091969095509350505050565b606080856001600160401b0381111561064f5761064f610f9c565b60405190808252806020026020018201604052801561068857816020015b610675610dc4565b81526020019060019003908161066d5790505b509150856001600160401b038111156106a3576106a3610f9c565b6040519080825280602002602001820160405280156106dc57816020015b6106c9610dc4565b8152602001906001900390816106c15790505b50905060005b868110156107db5760008061071088888c8c8781811061070457610704611212565b90506060020189610b85565b9150915060405180604001604052808b8b8681811061073157610731611212565b9050606002018036038101906107479190611228565b81526020018381525085848151811061076257610762611212565b602002602001018190525060405180604001604052808b8b8681811061078a5761078a611212565b9050606002018036038101906107a09190611228565b8152602001828152508484815181106107bb576107bb611212565b6020026020010181905250505080806107d3906112af565b9150506106e2565b509550959350505050565b61081f6040518060c001604052806000815260200160008152602001600081526020016000815260200160008152602001600081525090565b60006040518060a00160405280846001600160a01b031663397a877e6040518163ffffffff1660e01b8152600401600060405180830381865afa15801561086a573d6000803e3d6000fd5b505050506040513d6000823e601f3d908101601f19168201604052610892919081019061102a565b8152602001846001600160a01b031663c45a01556040518163ffffffff1660e01b8152600401602060405180830381865afa1580156108d5573d6000803e3d6000fd5b505050506040513d601f19601f820116820180604052508101906108f99190611118565b6001600160a01b03168152602001846001600160a01b0316630dfe16816040518163ffffffff1660e01b8152600401602060405180830381865afa158015610945573d6000803e3d6000fd5b505050506040513d601f19601f820116820180604052508101906109699190611118565b6001600160a01b03168152602001846001600160a01b031663d21220a76040518163ffffffff1660e01b8152600401602060405180830381865afa1580156109b5573d6000803e3d6000fd5b505050506040513d601f19601f820116820180604052508101906109d99190611118565b6001600160a01b03168152602001846001600160a01b0316815250905073f36Bb98C9D84Bea58575a28f698470D6b770d29D63e56f4d91826040518263ffffffff1660e01b8152600401610a2d9190611135565b608060405180830381865af4158015610a4a573d6000803e3d6000fd5b505050506040513d601f19601f82011682018060405250810190610a6e91906111dc565b6060860152604080860191909152602085019190915290835281810151608083015191516370a0823160e01b81526001600160a01b03909116916370a0823191610abb9190600401610f88565b602060405180830381865afa158015610ad8573d6000803e3d6000fd5b505050506040513d601f19601f82011682018060405250810190610afc91906112c8565b6080808401919091526060820151908201516040516370a0823160e01b81526001600160a01b03909216916370a0823191610b3991600401610f88565b602060405180830381865afa158015610b56573d6000803e3d6000fd5b505050506040513d601f19601f82011682018060405250810190610b7a91906112c8565b60a083015250919050565b600080846001600160a01b0316866001600160a01b031610610ba8578486610bab565b85855b909650945060006001600160a01b037f000000000000000000000000000000000000000000000000000000000000000016631698ee828888610bf360608a0160408b016112e1565b6040516001600160e01b031960e086901b1681526001600160a01b03938416600482015292909116602483015262ffffff166044820152606401602060405180830381865afa158015610c4a573d6000803e3d6000fd5b505050506040513d601f19601f82011682018060405250810190610c6e9190611118565b90506000816001600160a01b0316633850c7bd6040518163ffffffff1660e01b815260040160e060405180830381865afa158015610cb0573d6000803e3d6000fd5b505050506040513d601f19601f82011682018060405250810190610cd49190611315565b505050505050905060008073f36Bb98C9D84Bea58575a28f698470D6b770d29D637c75bd7860405180606001604052808a6001600160a01b031681526020018b803603810190610d249190611228565b8152602001876001600160a01b0316815250856040518363ffffffff1660e01b8152600401610d549291906113b2565b608060405180830381865af4158015610d71573d6000803e3d6000fd5b505050506040513d601f19601f82011682018060405250810190610d9591906111dc565b92985090965092509050610da982876113f6565b9550610db581866113f6565b94505050505094509492505050565b6040805160a081018252600091810182815260608201839052608082018390528152602081019190915290565b6001600160a01b0381168114610e0657600080fd5b50565b600060208284031215610e1b57600080fd5b8135610e2681610df1565b9392505050565b600080600080600060808688031215610e4557600080fd5b85356001600160401b0380821115610e5c57600080fd5b818801915088601f830112610e7057600080fd5b813581811115610e7f57600080fd5b896020606083028501011115610e9457600080fd5b60209283019750955050860135610eaa81610df1565b92506040860135610eba81610df1565b91506060860135610eca81610df1565b809150509295509295909350565b805160020b8252602081015160020b602083015262ffffff60408201511660408301525050565b600081518084526020808501945080840160005b83811015610f42578151610f28888251610ed8565b830151606088015260809096019590820190600101610f13565b509495945050505050565b604081526000610f606040830185610eff565b8281036020840152610f728185610eff565b95945050505050565b6001600160a01b03169052565b6001600160a01b0391909116815260200190565b634e487b7160e01b600052604160045260246000fd5b604051606081016001600160401b0381118282101715610fd457610fd4610f9c565b60405290565b604051601f8201601f191681016001600160401b038111828210171561100257611002610f9c565b604052919050565b8060020b8114610e0657600080fd5b62ffffff81168114610e0657600080fd5b6000602080838503121561103d57600080fd5b82516001600160401b038082111561105457600080fd5b818501915085601f83011261106857600080fd5b81518181111561107a5761107a610f9c565b611088848260051b01610fda565b818152848101925060609182028401850191888311156110a757600080fd5b938501935b8285101561110c5780858a0312156110c45760008081fd5b6110cc610fb2565b85516110d78161100a565b8152858701516110e68161100a565b818801526040868101516110f981611019565b90820152845293840193928501926110ac565b50979650505050505050565b60006020828403121561112a57600080fd5b8151610e2681610df1565b6020808252825160a083830152805160c0840181905260009291820190839060e08601905b808310156111835761116d828551610ed8565b606082019150848401935060018301925061115a565b5092860151926111966040870185610f7b565b604087015193506111aa6060870185610f7b565b606087015193506111be6080870185610f7b565b608087015193506111d260a0870185610f7b565b9695505050505050565b600080600080608085870312156111f257600080fd5b505082516020840151604085015160609095015191969095509092509050565b634e487b7160e01b600052603260045260246000fd5b60006060828403121561123a57600080fd5b604051606081016001600160401b038111828210171561125c5761125c610f9c565b604052823561126a8161100a565b8152602083013561127a8161100a565b6020820152604083013561128d81611019565b60408201529392505050565b634e487b7160e01b600052601160045260246000fd5b6000600182016112c1576112c1611299565b5060010190565b6000602082840312156112da57600080fd5b5051919050565b6000602082840312156112f357600080fd5b8135610e2681611019565b805161ffff8116811461131057600080fd5b919050565b600080600080600080600060e0888a03121561133057600080fd5b875161133b81610df1565b602089015190975061134c8161100a565b955061135a604089016112fe565b9450611368606089016112fe565b9350611376608089016112fe565b925060a088015160ff8116811461138c57600080fd5b60c089015190925080151581146113a257600080fd5b8091505092959891949750929550565b82516001600160a01b03908116825260208085015160c0840192916113d990850182610ed8565b5080604086015116608084015280841660a0840152509392505050565b6000821982111561140957611409611299565b50019056fea26469706673582212206fbb7eed49713d1e17a30aa05387476571a6fa0b8f6f13d75e0a0754732c85e664736f6c634300080d0033",
  "deployedBytecode": "0x608060405234801561001057600080fd5b50600436106100575760003560e01c80630f8f2d1d1461005c5780636ea08e2a146100945780638fe5a01e146100bc578063c45a0155146100dd578063e9b7218a14610111575b600080fd5b61006f61006a366004610e09565b610170565b6040805194855260208501939093529183015260608201526080015b60405180910390f35b6100a76100a2366004610e09565b6103d5565b6040805192835260208301919091520161008b565b6100cf6100ca366004610e2d565b610634565b60405161008b929190610f4d565b6101047f000000000000000000000000000000000000000000000000000000000000000081565b60405161008b9190610f88565b61012461011f366004610e09565b6107e6565b60405161008b9190600060c082019050825182526020830151602083015260408301516040830152606083015160608301526080830151608083015260a083015160a083015292915050565b60008060008060006040518060a00160405280876001600160a01b031663397a877e6040518163ffffffff1660e01b8152600401600060405180830381865afa1580156101c1573d6000803e3d6000fd5b505050506040513d6000823e601f3d908101601f191682016040526101e9919081019061102a565b8152602001876001600160a01b031663c45a01556040518163ffffffff1660e01b8152600401602060405180830381865afa15801561022c573d6000803e3d6000fd5b505050506040513d601f19601f820116820180604052508101906102509190611118565b6001600160a01b03168152602001876001600160a01b0316630dfe16816040518163ffffffff1660e01b8152600401602060405180830381865afa15801561029c573d6000803e3d6000fd5b505050506040513d601f19601f820116820180604052508101906102c09190611118565b6001600160a01b03168152602001876001600160a01b031663d21220a76040518163ffffffff1660e01b8152600401602060405180830381865afa15801561030c573d6000803e3d6000fd5b505050506040513d601f19601f820116820180604052508101906103309190611118565b6001600160a01b03168152602001876001600160a01b0316815250905073__$3d23d8578387a47facd93bb77f6fe6e81b$__63e56f4d91826040518263ffffffff1660e01b81526004016103849190611135565b608060405180830381865af41580156103a1573d6000803e3d6000fd5b505050506040513d601f19601f820116820180604052508101906103c591906111dc565b9299919850965090945092505050565b60008060006040518060a00160405280856001600160a01b031663397a877e6040518163ffffffff1660e01b8152600401600060405180830381865afa158015610423573d6000803e3d6000fd5b505050506040513d6000823e601f3d908101601f1916820160405261044b919081019061102a565b8152602001856001600160a01b031663c45a01556040518163ffffffff1660e01b8152600401602060405180830381865afa15801561048e573d6000803e3d6000fd5b505050506040513d601f19601f820116820180604052508101906104b29190611118565b6001600160a01b03168152602001856001600160a01b0316630dfe16816040518163ffffffff1660e01b8152600401602060405180830381865afa1580156104fe573d6000803e3d6000fd5b505050506040513d601f19601f820116820180604052508101906105229190611118565b6001600160a01b03168152602001856001600160a01b031663d21220a76040518163ffffffff1660e01b8152600401602060405180830381865afa15801561056e573d6000803e3d6000fd5b505050506040513d601f19601f820116820180604052508101906105929190611118565b6001600160a01b03168152602001856001600160a01b0316815250905073__$3d23d8578387a47facd93bb77f6fe6e81b$__63e56f4d91826040518263ffffffff1660e01b81526004016105e69190611135565b608060405180830381865af4158015610603573d6000803e3d6000fd5b505050506040513d601f19601f8201168201806040525081019061062791906111dc565b5091969095509350505050565b606080856001600160401b0381111561064f5761064f610f9c565b60405190808252806020026020018201604052801561068857816020015b610675610dc4565b81526020019060019003908161066d5790505b509150856001600160401b038111156106a3576106a3610f9c565b6040519080825280602002602001820160405280156106dc57816020015b6106c9610dc4565b8152602001906001900390816106c15790505b50905060005b868110156107db5760008061071088888c8c8781811061070457610704611212565b90506060020189610b85565b9150915060405180604001604052808b8b8681811061073157610731611212565b9050606002018036038101906107479190611228565b81526020018381525085848151811061076257610762611212565b602002602001018190525060405180604001604052808b8b8681811061078a5761078a611212565b9050606002018036038101906107a09190611228565b8152602001828152508484815181106107bb576107bb611212565b6020026020010181905250505080806107d3906112af565b9150506106e2565b509550959350505050565b61081f6040518060c001604052806000815260200160008152602001600081526020016000815260200160008152602001600081525090565b60006040518060a00160405280846001600160a01b031663397a877e6040518163ffffffff1660e01b8152600401600060405180830381865afa15801561086a573d6000803e3d6000fd5b505050506040513d6000823e601f3d908101601f19168201604052610892919081019061102a565b8152602001846001600160a01b031663c45a01556040518163ffffffff1660e01b8152600401602060405180830381865afa1580156108d5573d6000803e3d6000fd5b505050506040513d601f19601f820116820180604052508101906108f99190611118565b6001600160a01b03168152602001846001600160a01b0316630dfe16816040518163ffffffff1660e01b8152600401602060405180830381865afa158015610945573d6000803e3d6000fd5b505050506040513d601f19601f820116820180604052508101906109699190611118565b6001600160a01b03168152602001846001600160a01b031663d21220a76040518163ffffffff1660e01b8152600401602060405180830381865afa1580156109b5573d6000803e3d6000fd5b505050506040513d601f19601f820116820180604052508101906109d99190611118565b6001600160a01b03168152602001846001600160a01b0316815250905073__$3d23d8578387a47facd93bb77f6fe6e81b$__63e56f4d91826040518263ffffffff1660e01b8152600401610a2d9190611135565b608060405180830381865af4158015610a4a573d6000803e3d6000fd5b505050506040513d601f19601f82011682018060405250810190610a6e91906111dc565b6060860152604080860191909152602085019190915290835281810151608083015191516370a0823160e01b81526001600160a01b03909116916370a0823191610abb9190600401610f88565b602060405180830381865afa158015610ad8573d6000803e3d6000fd5b505050506040513d601f19601f82011682018060405250810190610afc91906112c8565b6080808401919091526060820151908201516040516370a0823160e01b81526001600160a01b03909216916370a0823191610b3991600401610f88565b602060405180830381865afa158015610b56573d6000803e3d6000fd5b505050506040513d601f19601f82011682018060405250810190610b7a91906112c8565b60a083015250919050565b600080846001600160a01b0316866001600160a01b031610610ba8578486610bab565b85855b909650945060006001600160a01b037f000000000000000000000000000000000000000000000000000000000000000016631698ee828888610bf360608a0160408b016112e1565b6040516001600160e01b031960e086901b1681526001600160a01b03938416600482015292909116602483015262ffffff166044820152606401602060405180830381865afa158015610c4a573d6000803e3d6000fd5b505050506040513d601f19601f82011682018060405250810190610c6e9190611118565b90506000816001600160a01b0316633850c7bd6040518163ffffffff1660e01b815260040160e060405180830381865afa158015610cb0573d6000803e3d6000fd5b505050506040513d601f19601f82011682018060405250810190610cd49190611315565b505050505050905060008073__$3d23d8578387a47facd93bb77f6fe6e81b$__637c75bd7860405180606001604052808a6001600160a01b031681526020018b803603810190610d249190611228565b8152602001876001600160a01b0316815250856040518363ffffffff1660e01b8152600401610d549291906113b2565b608060405180830381865af4158015610d71573d6000803e3d6000fd5b505050506040513d601f19601f82011682018060405250810190610d9591906111dc565b92985090965092509050610da982876113f6565b9550610db581866113f6565b94505050505094509492505050565b6040805160a081018252600091810182815260608201839052608082018390528152602081019190915290565b6001600160a01b0381168114610e0657600080fd5b50565b600060208284031215610e1b57600080fd5b8135610e2681610df1565b9392505050565b600080600080600060808688031215610e4557600080fd5b85356001600160401b0380821115610e5c57600080fd5b818801915088601f830112610e7057600080fd5b813581811115610e7f57600080fd5b896020606083028501011115610e9457600080fd5b60209283019750955050860135610eaa81610df1565b92506040860135610eba81610df1565b91506060860135610eca81610df1565b809150509295509295909350565b805160020b8252602081015160020b602083015262ffffff60408201511660408301525050565b600081518084526020808501945080840160005b83811015610f42578151610f28888251610ed8565b830151606088015260809096019590820190600101610f13565b509495945050505050565b604081526000610f606040830185610eff565b8281036020840152610f728185610eff565b95945050505050565b6001600160a01b03169052565b6001600160a01b0391909116815260200190565b634e487b7160e01b600052604160045260246000fd5b604051606081016001600160401b0381118282101715610fd457610fd4610f9c565b60405290565b604051601f8201601f191681016001600160401b038111828210171561100257611002610f9c565b604052919050565b8060020b8114610e0657600080fd5b62ffffff81168114610e0657600080fd5b6000602080838503121561103d57600080fd5b82516001600160401b038082111561105457600080fd5b818501915085601f83011261106857600080fd5b81518181111561107a5761107a610f9c565b611088848260051b01610fda565b818152848101925060609182028401850191888311156110a757600080fd5b938501935b8285101561110c5780858a0312156110c45760008081fd5b6110cc610fb2565b85516110d78161100a565b8152858701516110e68161100a565b818801526040868101516110f981611019565b90820152845293840193928501926110ac565b50979650505050505050565b60006020828403121561112a57600080fd5b8151610e2681610df1565b6020808252825160a083830152805160c0840181905260009291820190839060e08601905b808310156111835761116d828551610ed8565b606082019150848401935060018301925061115a565b5092860151926111966040870185610f7b565b604087015193506111aa6060870185610f7b565b606087015193506111be6080870185610f7b565b608087015193506111d260a0870185610f7b565b9695505050505050565b600080600080608085870312156111f257600080fd5b505082516020840151604085015160609095015191969095509092509050565b634e487b7160e01b600052603260045260246000fd5b60006060828403121561123a57600080fd5b604051606081016001600160401b038111828210171561125c5761125c610f9c565b604052823561126a8161100a565b8152602083013561127a8161100a565b6020820152604083013561128d81611019565b60408201529392505050565b634e487b7160e01b600052601160045260246000fd5b6000600182016112c1576112c1611299565b5060010190565b6000602082840312156112da57600080fd5b5051919050565b6000602082840312156112f357600080fd5b8135610e2681611019565b805161ffff8116811461131057600080fd5b919050565b600080600080600080600060e0888a03121561133057600080fd5b875161133b81610df1565b602089015190975061134c8161100a565b955061135a604089016112fe565b9450611368606089016112fe565b9350611376608089016112fe565b925060a088015160ff8116811461138c57600080fd5b60c089015190925080151581146113a257600080fd5b8091505092959891949750929550565b82516001600160a01b03908116825260208085015160c0840192916113d990850182610ed8565b5080604086015116608084015280841660a0840152509392505050565b6000821982111561140957611409611299565b50019056fea26469706673582212206fbb7eed49713d1e17a30aa05387476571a6fa0b8f6f13d75e0a0754732c85e664736f6c634300080d0033",
  "libraries": {
    "Underlying": "0xf36Bb98C9D84Bea58575a28f698470D6b770d29D",
    "Position": "0xC64433E71f1f76Be5567B657026656Cce5999C34"
  },
  "devdoc": {
    "kind": "dev",
    "methods": {},
    "version": 1
  },
  "userdoc": {
    "kind": "user",
    "methods": {},
    "version": 1
  },
  "storageLayout": {
    "storage": [],
    "types": null
  }
}