{
  "address": "0xd48e0C127210Fba9b2Cf37558C70f8A2010EaB43",
  "abi": [
    {
      "inputs": [
        {
          "internalType": "contract IUniswapV3Factory",
          "name": "factory_",
          "type": "address"
        },
        {
          "internalType": "address",
          "name": "arrakisTreasury_",
          "type": "address"
        }
      ],
      "stateMutability": "nonpayable",
      "type": "constructor"
    },
    {
      "inputs": [
        {
          "internalType": "int24",
          "name": "lowerTick",
          "type": "int24"
        },
        {
          "internalType": "int24",
          "name": "upperTick",
          "type": "int24"
        },
        {
          "internalType": "uint24",
          "name": "feeTier",
          "type": "uint24"
        }
      ],
      "name": "LiquidityZeroError",
      "type": "error"
    },
    {
      "inputs": [
        {
          "internalType": "uint24",
          "name": "feeTier",
          "type": "uint24"
        }
      ],
      "name": "PoolError",
      "type": "error"
    },
    {
      "anonymous": false,
      "inputs": [
        {
          "indexed": true,
          "internalType": "address",
          "name": "owner",
          "type": "address"
        },
        {
          "indexed": true,
          "internalType": "address",
          "name": "spender",
          "type": "address"
        },
        {
          "indexed": false,
          "internalType": "uint256",
          "name": "value",
          "type": "uint256"
        }
      ],
      "name": "Approval",
      "type": "event"
    },
    {
      "anonymous": false,
      "inputs": [
        {
          "indexed": false,
          "internalType": "uint8",
          "name": "version",
          "type": "uint8"
        }
      ],
      "name": "Initialized",
      "type": "event"
    },
    {
      "anonymous": false,
      "inputs": [
        {
          "indexed": true,
          "internalType": "address",
          "name": "vault",
          "type": "address"
        },
        {
          "indexed": false,
          "internalType": "address",
          "name": "user",
          "type": "address"
        },
        {
          "indexed": false,
          "internalType": "uint256",
          "name": "burnAmount0",
          "type": "uint256"
        },
        {
          "indexed": false,
          "internalType": "uint256",
          "name": "burnAmount1",
          "type": "uint256"
        }
      ],
      "name": "LPBurned",
      "type": "event"
    },
    {
      "anonymous": false,
      "inputs": [
        {
          "indexed": true,
          "internalType": "address",
          "name": "vault",
          "type": "address"
        },
        {
          "indexed": false,
          "internalType": "uint24[]",
          "name": "feeTiers",
          "type": "uint24[]"
        }
      ],
      "name": "LogAddPools",
      "type": "event"
    },
    {
      "anonymous": false,
      "inputs": [
        {
          "indexed": true,
          "internalType": "address",
          "name": "vault",
          "type": "address"
        },
        {
          "indexed": false,
          "internalType": "address",
          "name": "receiver",
          "type": "address"
        },
        {
          "indexed": false,
          "internalType": "uint256",
          "name": "burnAmount",
          "type": "uint256"
        },
        {
          "indexed": false,
          "internalType": "uint256",
          "name": "amount0Out",
          "type": "uint256"
        },
        {
          "indexed": false,
          "internalType": "uint256",
          "name": "amount1Out",
          "type": "uint256"
        }
      ],
      "name": "LogBurn",
      "type": "event"
    },
    {
      "anonymous": false,
      "inputs": [
        {
          "indexed": true,
          "internalType": "address",
          "name": "vault",
          "type": "address"
        },
        {
          "indexed": false,
          "internalType": "uint256",
          "name": "fee0",
          "type": "uint256"
        },
        {
          "indexed": false,
          "internalType": "uint256",
          "name": "fee1",
          "type": "uint256"
        }
      ],
      "name": "LogFeesEarn",
      "type": "event"
    },
    {
      "anonymous": false,
      "inputs": [
        {
          "indexed": true,
          "internalType": "address",
          "name": "vault",
          "type": "address"
        },
        {
          "indexed": false,
          "internalType": "uint256",
          "name": "fee0",
          "type": "uint256"
        },
        {
          "indexed": false,
          "internalType": "uint256",
          "name": "fee1",
          "type": "uint256"
        }
      ],
      "name": "LogFeesEarnRebalance",
      "type": "event"
    },
    {
      "anonymous": false,
      "inputs": [
        {
          "indexed": true,
          "internalType": "address",
          "name": "vault",
          "type": "address"
        },
        {
          "indexed": false,
          "internalType": "address",
          "name": "receiver",
          "type": "address"
        },
        {
          "indexed": false,
          "internalType": "uint256",
          "name": "mintAmount",
          "type": "uint256"
        },
        {
          "indexed": false,
          "internalType": "uint256",
          "name": "amount0In",
          "type": "uint256"
        },
        {
          "indexed": false,
          "internalType": "uint256",
          "name": "amount1In",
          "type": "uint256"
        }
      ],
      "name": "LogMint",
      "type": "event"
    },
    {
      "anonymous": false,
      "inputs": [
        {
          "indexed": true,
          "internalType": "address",
          "name": "vault",
          "type": "address"
        },
        {
          "components": [
            {
              "components": [
                {
                  "internalType": "uint128",
                  "name": "liquidity",
                  "type": "uint128"
                },
                {
                  "components": [
                    {
                      "internalType": "int24",
                      "name": "lowerTick",
                      "type": "int24"
                    },
                    {
                      "internalType": "int24",
                      "name": "upperTick",
                      "type": "int24"
                    },
                    {
                      "internalType": "uint24",
                      "name": "feeTier",
                      "type": "uint24"
                    }
                  ],
                  "internalType": "struct Range",
                  "name": "range",
                  "type": "tuple"
                }
              ],
              "internalType": "struct PositionLiquidity[]",
              "name": "removes",
              "type": "tuple[]"
            },
            {
              "components": [
                {
                  "internalType": "uint128",
                  "name": "liquidity",
                  "type": "uint128"
                },
                {
                  "components": [
                    {
                      "internalType": "int24",
                      "name": "lowerTick",
                      "type": "int24"
                    },
                    {
                      "internalType": "int24",
                      "name": "upperTick",
                      "type": "int24"
                    },
                    {
                      "internalType": "uint24",
                      "name": "feeTier",
                      "type": "uint24"
                    }
                  ],
                  "internalType": "struct Range",
                  "name": "range",
                  "type": "tuple"
                }
              ],
              "internalType": "struct PositionLiquidity[]",
              "name": "deposits",
              "type": "tuple[]"
            },
            {
              "components": [
                {
                  "internalType": "bytes",
                  "name": "payload",
                  "type": "bytes"
                },
                {
                  "internalType": "address",
                  "name": "pool",
                  "type": "address"
                },
                {
                  "internalType": "address",
                  "name": "router",
                  "type": "address"
                },
                {
                  "internalType": "uint256",
                  "name": "amountIn",
                  "type": "uint256"
                },
                {
                  "internalType": "uint256",
                  "name": "expectedMinReturn",
                  "type": "uint256"
                },
                {
                  "internalType": "bool",
                  "name": "zeroForOne",
                  "type": "bool"
                }
              ],
              "internalType": "struct SwapPayload",
              "name": "swap",
              "type": "tuple"
            }
          ],
          "indexed": false,
          "internalType": "struct Rebalance",
          "name": "rebalanceParams",
          "type": "tuple"
        }
      ],
      "name": "LogRebalance",
      "type": "event"
    },
    {
      "anonymous": false,
      "inputs": [
        {
          "indexed": true,
          "internalType": "address",
          "name": "vault",
          "type": "address"
        },
        {
          "indexed": false,
          "internalType": "address[]",
          "name": "pools",
          "type": "address[]"
        }
      ],
      "name": "LogRemovePools",
      "type": "event"
    },
    {
      "anonymous": false,
      "inputs": [
        {
          "indexed": true,
          "internalType": "address",
          "name": "vault",
          "type": "address"
        },
        {
          "indexed": false,
          "internalType": "uint16",
          "name": "restrictedMintToggle",
          "type": "uint16"
        }
      ],
      "name": "LogRestrictedMintToggle",
      "type": "event"
    },
    {
      "anonymous": false,
      "inputs": [
        {
          "indexed": true,
          "internalType": "address",
          "name": "vault",
          "type": "address"
        },
        {
          "indexed": false,
          "internalType": "uint256",
          "name": "init0",
          "type": "uint256"
        },
        {
          "indexed": false,
          "internalType": "uint256",
          "name": "init1",
          "type": "uint256"
        }
      ],
      "name": "LogSetInits",
      "type": "event"
    },
    {
      "anonymous": false,
      "inputs": [
        {
          "indexed": true,
          "internalType": "address",
          "name": "vault",
          "type": "address"
        },
        {
          "indexed": false,
          "internalType": "address",
          "name": "oldManager",
          "type": "address"
        },
        {
          "indexed": false,
          "internalType": "address",
          "name": "newManager",
          "type": "address"
        }
      ],
      "name": "LogSetManager",
      "type": "event"
    },
    {
      "anonymous": false,
      "inputs": [
        {
          "indexed": true,
          "internalType": "address",
          "name": "vault",
          "type": "address"
        },
        {
          "indexed": false,
          "internalType": "uint24",
          "name": "oldMaxSlippage",
          "type": "uint24"
        },
        {
          "indexed": false,
          "internalType": "uint24",
          "name": "newMaxSlippage",
          "type": "uint24"
        }
      ],
      "name": "LogSetMaxSlippage",
      "type": "event"
    },
    {
      "anonymous": false,
      "inputs": [
        {
          "indexed": true,
          "internalType": "address",
          "name": "vault",
          "type": "address"
        },
        {
          "indexed": false,
          "internalType": "int24",
          "name": "oldTwapDeviation",
          "type": "int24"
        },
        {
          "indexed": false,
          "internalType": "int24",
          "name": "maxTwapDeviation",
          "type": "int24"
        }
      ],
      "name": "LogSetMaxTwapDeviation",
      "type": "event"
    },
    {
      "anonymous": false,
      "inputs": [
        {
          "indexed": true,
          "internalType": "address",
          "name": "vault",
          "type": "address"
        },
        {
          "indexed": false,
          "internalType": "uint24",
          "name": "oldTwapDuration",
          "type": "uint24"
        },
        {
          "indexed": false,
          "internalType": "uint24",
          "name": "newTwapDuration",
          "type": "uint24"
        }
      ],
      "name": "LogSetTwapDuration",
      "type": "event"
    },
    {
      "anonymous": false,
      "inputs": [
        {
          "indexed": true,
          "internalType": "address",
          "name": "vault",
          "type": "address"
        },
        {
          "indexed": false,
          "internalType": "uint256",
          "name": "amount0",
          "type": "uint256"
        },
        {
          "indexed": false,
          "internalType": "uint256",
          "name": "amount1",
          "type": "uint256"
        }
      ],
      "name": "LogWithdrawArrakisBalance",
      "type": "event"
    },
    {
      "anonymous": false,
      "inputs": [
        {
          "indexed": true,
          "internalType": "address",
          "name": "vault",
          "type": "address"
        },
        {
          "indexed": false,
          "internalType": "uint256",
          "name": "amount0",
          "type": "uint256"
        },
        {
          "indexed": false,
          "internalType": "uint256",
          "name": "amount1",
          "type": "uint256"
        }
      ],
      "name": "LogWithdrawManagerBalance",
      "type": "event"
    },
    {
      "anonymous": false,
      "inputs": [
        {
          "indexed": true,
          "internalType": "address",
          "name": "previousOwner",
          "type": "address"
        },
        {
          "indexed": true,
          "internalType": "address",
          "name": "newOwner",
          "type": "address"
        }
      ],
      "name": "OwnershipTransferred",
      "type": "event"
    },
    {
      "anonymous": false,
      "inputs": [
        {
          "indexed": true,
          "internalType": "address",
          "name": "from",
          "type": "address"
        },
        {
          "indexed": true,
          "internalType": "address",
          "name": "to",
          "type": "address"
        },
        {
          "indexed": false,
          "internalType": "uint256",
          "name": "value",
          "type": "uint256"
        }
      ],
      "name": "Transfer",
      "type": "event"
    },
    {
      "inputs": [],
      "name": "RESTRICTED_MINT_ENABLED",
      "outputs": [
        {
          "internalType": "uint16",
          "name": "",
          "type": "uint16"
        }
      ],
      "stateMutability": "view",
      "type": "function"
    },
    {
      "inputs": [
        {
          "internalType": "uint24[]",
          "name": "feeTiers_",
          "type": "uint24[]"
        }
      ],
      "name": "addPools",
      "outputs": [],
      "stateMutability": "nonpayable",
      "type": "function"
    },
    {
      "inputs": [
        {
          "internalType": "address",
          "name": "owner",
          "type": "address"
        },
        {
          "internalType": "address",
          "name": "spender",
          "type": "address"
        }
      ],
      "name": "allowance",
      "outputs": [
        {
          "internalType": "uint256",
          "name": "",
          "type": "uint256"
        }
      ],
      "stateMutability": "view",
      "type": "function"
    },
    {
      "inputs": [
        {
          "internalType": "address",
          "name": "spender",
          "type": "address"
        },
        {
          "internalType": "uint256",
          "name": "amount",
          "type": "uint256"
        }
      ],
      "name": "approve",
      "outputs": [
        {
          "internalType": "bool",
          "name": "",
          "type": "bool"
        }
      ],
      "stateMutability": "nonpayable",
      "type": "function"
    },
    {
      "inputs": [],
      "name": "arrakisBalance0",
      "outputs": [
        {
          "internalType": "uint256",
          "name": "",
          "type": "uint256"
        }
      ],
      "stateMutability": "view",
      "type": "function"
    },
    {
      "inputs": [],
      "name": "arrakisBalance1",
      "outputs": [
        {
          "internalType": "uint256",
          "name": "",
          "type": "uint256"
        }
      ],
      "stateMutability": "view",
      "type": "function"
    },
    {
      "inputs": [],
      "name": "arrakisFeeBPS",
      "outputs": [
        {
          "internalType": "uint16",
          "name": "",
          "type": "uint16"
        }
      ],
      "stateMutability": "view",
      "type": "function"
    },
    {
      "inputs": [],
      "name": "arrakisTreasury",
      "outputs": [
        {
          "internalType": "address",
          "name": "",
          "type": "address"
        }
      ],
      "stateMutability": "view",
      "type": "function"
    },
    {
      "inputs": [
        {
          "internalType": "address",
          "name": "account",
          "type": "address"
        }
      ],
      "name": "balanceOf",
      "outputs": [
        {
          "internalType": "uint256",
          "name": "",
          "type": "uint256"
        }
      ],
      "stateMutability": "view",
      "type": "function"
    },
    {
      "inputs": [
        {
          "components": [
            {
              "internalType": "uint128",
              "name": "liquidity",
              "type": "uint128"
            },
            {
              "components": [
                {
                  "internalType": "int24",
                  "name": "lowerTick",
                  "type": "int24"
                },
                {
                  "internalType": "int24",
                  "name": "upperTick",
                  "type": "int24"
                },
                {
                  "internalType": "uint24",
                  "name": "feeTier",
                  "type": "uint24"
                }
              ],
              "internalType": "struct Range",
              "name": "range",
              "type": "tuple"
            }
          ],
          "internalType": "struct BurnLiquidity[]",
          "name": "burns_",
          "type": "tuple[]"
        },
        {
          "internalType": "uint256",
          "name": "burnAmount_",
          "type": "uint256"
        },
        {
          "internalType": "address",
          "name": "receiver_",
          "type": "address"
        }
      ],
      "name": "burn",
      "outputs": [
        {
          "internalType": "uint256",
          "name": "amount0",
          "type": "uint256"
        },
        {
          "internalType": "uint256",
          "name": "amount1",
          "type": "uint256"
        }
      ],
      "stateMutability": "nonpayable",
      "type": "function"
    },
    {
      "inputs": [],
      "name": "decimals",
      "outputs": [
        {
          "internalType": "uint8",
          "name": "",
          "type": "uint8"
        }
      ],
      "stateMutability": "view",
      "type": "function"
    },
    {
      "inputs": [
        {
          "internalType": "address",
          "name": "spender",
          "type": "address"
        },
        {
          "internalType": "uint256",
          "name": "subtractedValue",
          "type": "uint256"
        }
      ],
      "name": "decreaseAllowance",
      "outputs": [
        {
          "internalType": "bool",
          "name": "",
          "type": "bool"
        }
      ],
      "stateMutability": "nonpayable",
      "type": "function"
    },
    {
      "inputs": [],
      "name": "factory",
      "outputs": [
        {
          "internalType": "contract IUniswapV3Factory",
          "name": "",
          "type": "address"
        }
      ],
      "stateMutability": "view",
      "type": "function"
    },
    {
      "inputs": [
        {
          "internalType": "address",
          "name": "spender",
          "type": "address"
        },
        {
          "internalType": "uint256",
          "name": "addedValue",
          "type": "uint256"
        }
      ],
      "name": "increaseAllowance",
      "outputs": [
        {
          "internalType": "bool",
          "name": "",
          "type": "bool"
        }
      ],
      "stateMutability": "nonpayable",
      "type": "function"
    },
    {
      "inputs": [],
      "name": "init0",
      "outputs": [
        {
          "internalType": "uint256",
          "name": "",
          "type": "uint256"
        }
      ],
      "stateMutability": "view",
      "type": "function"
    },
    {
      "inputs": [],
      "name": "init1",
      "outputs": [
        {
          "internalType": "uint256",
          "name": "",
          "type": "uint256"
        }
      ],
      "stateMutability": "view",
      "type": "function"
    },
    {
      "inputs": [
        {
          "internalType": "string",
          "name": "name_",
          "type": "string"
        },
        {
          "internalType": "string",
          "name": "symbol_",
          "type": "string"
        },
        {
          "components": [
            {
              "internalType": "uint24[]",
              "name": "feeTiers",
              "type": "uint24[]"
            },
            {
              "internalType": "address",
              "name": "token0",
              "type": "address"
            },
            {
              "internalType": "address",
              "name": "token1",
              "type": "address"
            },
            {
              "internalType": "address",
              "name": "owner",
              "type": "address"
            },
            {
              "internalType": "uint256",
              "name": "init0",
              "type": "uint256"
            },
            {
              "internalType": "uint256",
              "name": "init1",
              "type": "uint256"
            },
            {
              "internalType": "address",
              "name": "manager",
              "type": "address"
            },
            {
              "internalType": "int24",
              "name": "maxTwapDeviation",
              "type": "int24"
            },
            {
              "internalType": "uint24",
              "name": "twapDuration",
              "type": "uint24"
            },
            {
              "internalType": "uint24",
              "name": "maxSlippage",
              "type": "uint24"
            }
          ],
          "internalType": "struct InitializePayload",
          "name": "params_",
          "type": "tuple"
        }
      ],
      "name": "initialize",
      "outputs": [],
      "stateMutability": "nonpayable",
      "type": "function"
    },
    {
      "inputs": [],
      "name": "manager",
      "outputs": [
        {
          "internalType": "contract IManagerProxyV2",
          "name": "",
          "type": "address"
        }
      ],
      "stateMutability": "view",
      "type": "function"
    },
    {
      "inputs": [],
      "name": "managerBalance0",
      "outputs": [
        {
          "internalType": "uint256",
          "name": "",
          "type": "uint256"
        }
      ],
      "stateMutability": "view",
      "type": "function"
    },
    {
      "inputs": [],
      "name": "managerBalance1",
      "outputs": [
        {
          "internalType": "uint256",
          "name": "",
          "type": "uint256"
        }
      ],
      "stateMutability": "view",
      "type": "function"
    },
    {
      "inputs": [],
      "name": "maxSlippage",
      "outputs": [
        {
          "internalType": "uint24",
          "name": "",
          "type": "uint24"
        }
      ],
      "stateMutability": "view",
      "type": "function"
    },
    {
      "inputs": [],
      "name": "maxTwapDeviation",
      "outputs": [
        {
          "internalType": "int24",
          "name": "",
          "type": "int24"
        }
      ],
      "stateMutability": "view",
      "type": "function"
    },
    {
      "inputs": [
        {
          "internalType": "uint256",
          "name": "mintAmount_",
          "type": "uint256"
        },
        {
          "internalType": "address",
          "name": "receiver_",
          "type": "address"
        }
      ],
      "name": "mint",
      "outputs": [
        {
          "internalType": "uint256",
          "name": "amount0",
          "type": "uint256"
        },
        {
          "internalType": "uint256",
          "name": "amount1",
          "type": "uint256"
        }
      ],
      "stateMutability": "nonpayable",
      "type": "function"
    },
    {
      "inputs": [],
      "name": "name",
      "outputs": [
        {
          "internalType": "string",
          "name": "",
          "type": "string"
        }
      ],
      "stateMutability": "view",
      "type": "function"
    },
    {
      "inputs": [],
      "name": "owner",
      "outputs": [
        {
          "internalType": "address",
          "name": "",
          "type": "address"
        }
      ],
      "stateMutability": "view",
      "type": "function"
    },
    {
      "inputs": [
        {
          "components": [
            {
              "internalType": "int24",
              "name": "lowerTick",
              "type": "int24"
            },
            {
              "internalType": "int24",
              "name": "upperTick",
              "type": "int24"
            },
            {
              "internalType": "uint24",
              "name": "feeTier",
              "type": "uint24"
            }
          ],
          "internalType": "struct Range",
          "name": "range_",
          "type": "tuple"
        }
      ],
      "name": "rangeExist",
      "outputs": [
        {
          "internalType": "bool",
          "name": "ok",
          "type": "bool"
        },
        {
          "internalType": "uint256",
          "name": "index",
          "type": "uint256"
        }
      ],
      "stateMutability": "view",
      "type": "function"
    },
    {
      "inputs": [
        {
          "internalType": "uint256",
          "name": "",
          "type": "uint256"
        }
      ],
      "name": "ranges",
      "outputs": [
        {
          "internalType": "int24",
          "name": "lowerTick",
          "type": "int24"
        },
        {
          "internalType": "int24",
          "name": "upperTick",
          "type": "int24"
        },
        {
          "internalType": "uint24",
          "name": "feeTier",
          "type": "uint24"
        }
      ],
      "stateMutability": "view",
      "type": "function"
    },
    {
      "inputs": [],
      "name": "rangesArray",
      "outputs": [
        {
          "components": [
            {
              "internalType": "int24",
              "name": "lowerTick",
              "type": "int24"
            },
            {
              "internalType": "int24",
              "name": "upperTick",
              "type": "int24"
            },
            {
              "internalType": "uint24",
              "name": "feeTier",
              "type": "uint24"
            }
          ],
          "internalType": "struct Range[]",
          "name": "",
          "type": "tuple[]"
        }
      ],
      "stateMutability": "view",
      "type": "function"
    },
    {
      "inputs": [],
      "name": "rangesLength",
      "outputs": [
        {
          "internalType": "uint256",
          "name": "",
          "type": "uint256"
        }
      ],
      "stateMutability": "view",
      "type": "function"
    },
    {
      "inputs": [
        {
          "components": [
            {
              "internalType": "int24",
              "name": "lowerTick",
              "type": "int24"
            },
            {
              "internalType": "int24",
              "name": "upperTick",
              "type": "int24"
            },
            {
              "internalType": "uint24",
              "name": "feeTier",
              "type": "uint24"
            }
          ],
          "internalType": "struct Range[]",
          "name": "ranges_",
          "type": "tuple[]"
        },
        {
          "components": [
            {
              "components": [
                {
                  "internalType": "uint128",
                  "name": "liquidity",
                  "type": "uint128"
                },
                {
                  "components": [
                    {
                      "internalType": "int24",
                      "name": "lowerTick",
                      "type": "int24"
                    },
                    {
                      "internalType": "int24",
                      "name": "upperTick",
                      "type": "int24"
                    },
                    {
                      "internalType": "uint24",
                      "name": "feeTier",
                      "type": "uint24"
                    }
                  ],
                  "internalType": "struct Range",
                  "name": "range",
                  "type": "tuple"
                }
              ],
              "internalType": "struct PositionLiquidity[]",
              "name": "removes",
              "type": "tuple[]"
            },
            {
              "components": [
                {
                  "internalType": "uint128",
                  "name": "liquidity",
                  "type": "uint128"
                },
                {
                  "components": [
                    {
                      "internalType": "int24",
                      "name": "lowerTick",
                      "type": "int24"
                    },
                    {
                      "internalType": "int24",
                      "name": "upperTick",
                      "type": "int24"
                    },
                    {
                      "internalType": "uint24",
                      "name": "feeTier",
                      "type": "uint24"
                    }
                  ],
                  "internalType": "struct Range",
                  "name": "range",
                  "type": "tuple"
                }
              ],
              "internalType": "struct PositionLiquidity[]",
              "name": "deposits",
              "type": "tuple[]"
            },
            {
              "components": [
                {
                  "internalType": "bytes",
                  "name": "payload",
                  "type": "bytes"
                },
                {
                  "internalType": "address",
                  "name": "pool",
                  "type": "address"
                },
                {
                  "internalType": "address",
                  "name": "router",
                  "type": "address"
                },
                {
                  "internalType": "uint256",
                  "name": "amountIn",
                  "type": "uint256"
                },
                {
                  "internalType": "uint256",
                  "name": "expectedMinReturn",
                  "type": "uint256"
                },
                {
                  "internalType": "bool",
                  "name": "zeroForOne",
                  "type": "bool"
                }
              ],
              "internalType": "struct SwapPayload",
              "name": "swap",
              "type": "tuple"
            }
          ],
          "internalType": "struct Rebalance",
          "name": "rebalanceParams_",
          "type": "tuple"
        },
        {
          "components": [
            {
              "internalType": "int24",
              "name": "lowerTick",
              "type": "int24"
            },
            {
              "internalType": "int24",
              "name": "upperTick",
              "type": "int24"
            },
            {
              "internalType": "uint24",
              "name": "feeTier",
              "type": "uint24"
            }
          ],
          "internalType": "struct Range[]",
          "name": "rangesToRemove_",
          "type": "tuple[]"
        }
      ],
      "name": "rebalance",
      "outputs": [],
      "stateMutability": "nonpayable",
      "type": "function"
    },
    {
      "inputs": [
        {
          "internalType": "address[]",
          "name": "pools_",
          "type": "address[]"
        }
      ],
      "name": "removePools",
      "outputs": [],
      "stateMutability": "nonpayable",
      "type": "function"
    },
    {
      "inputs": [],
      "name": "renounceOwnership",
      "outputs": [],
      "stateMutability": "nonpayable",
      "type": "function"
    },
    {
      "inputs": [],
      "name": "restrictedMintToggle",
      "outputs": [
        {
          "internalType": "uint16",
          "name": "",
          "type": "uint16"
        }
      ],
      "stateMutability": "view",
      "type": "function"
    },
    {
      "inputs": [
        {
          "internalType": "uint256",
          "name": "init0_",
          "type": "uint256"
        },
        {
          "internalType": "uint256",
          "name": "init1_",
          "type": "uint256"
        }
      ],
      "name": "setInits",
      "outputs": [],
      "stateMutability": "nonpayable",
      "type": "function"
    },
    {
      "inputs": [
        {
          "internalType": "contract IManagerProxyV2",
          "name": "manager_",
          "type": "address"
        }
      ],
      "name": "setManager",
      "outputs": [],
      "stateMutability": "nonpayable",
      "type": "function"
    },
    {
      "inputs": [
        {
          "internalType": "uint24",
          "name": "maxSlippage_",
          "type": "uint24"
        }
      ],
      "name": "setMaxSlippage",
      "outputs": [],
      "stateMutability": "nonpayable",
      "type": "function"
    },
    {
      "inputs": [
        {
          "internalType": "int24",
          "name": "maxTwapDeviation_",
          "type": "int24"
        }
      ],
      "name": "setMaxTwapDeviation",
      "outputs": [],
      "stateMutability": "nonpayable",
      "type": "function"
    },
    {
      "inputs": [
        {
          "internalType": "uint24",
          "name": "twapDuration_",
          "type": "uint24"
        }
      ],
      "name": "setTwapDuration",
      "outputs": [],
      "stateMutability": "nonpayable",
      "type": "function"
    },
    {
      "inputs": [],
      "name": "symbol",
      "outputs": [
        {
          "internalType": "string",
          "name": "",
          "type": "string"
        }
      ],
      "stateMutability": "view",
      "type": "function"
    },
    {
      "inputs": [],
      "name": "toggleRestrictMint",
      "outputs": [],
      "stateMutability": "nonpayable",
      "type": "function"
    },
    {
      "inputs": [],
      "name": "token0",
      "outputs": [
        {
          "internalType": "contract IERC20",
          "name": "",
          "type": "address"
        }
      ],
      "stateMutability": "view",
      "type": "function"
    },
    {
      "inputs": [],
      "name": "token1",
      "outputs": [
        {
          "internalType": "contract IERC20",
          "name": "",
          "type": "address"
        }
      ],
      "stateMutability": "view",
      "type": "function"
    },
    {
      "inputs": [],
      "name": "totalSupply",
      "outputs": [
        {
          "internalType": "uint256",
          "name": "",
          "type": "uint256"
        }
      ],
      "stateMutability": "view",
      "type": "function"
    },
    {
      "inputs": [
        {
          "internalType": "address",
          "name": "to",
          "type": "address"
        },
        {
          "internalType": "uint256",
          "name": "amount",
          "type": "uint256"
        }
      ],
      "name": "transfer",
      "outputs": [
        {
          "internalType": "bool",
          "name": "",
          "type": "bool"
        }
      ],
      "stateMutability": "nonpayable",
      "type": "function"
    },
    {
      "inputs": [
        {
          "internalType": "address",
          "name": "from",
          "type": "address"
        },
        {
          "internalType": "address",
          "name": "to",
          "type": "address"
        },
        {
          "internalType": "uint256",
          "name": "amount",
          "type": "uint256"
        }
      ],
      "name": "transferFrom",
      "outputs": [
        {
          "internalType": "bool",
          "name": "",
          "type": "bool"
        }
      ],
      "stateMutability": "nonpayable",
      "type": "function"
    },
    {
      "inputs": [
        {
          "internalType": "address",
          "name": "newOwner",
          "type": "address"
        }
      ],
      "name": "transferOwnership",
      "outputs": [],
      "stateMutability": "nonpayable",
      "type": "function"
    },
    {
      "inputs": [],
      "name": "twapDuration",
      "outputs": [
        {
          "internalType": "uint24",
          "name": "",
          "type": "uint24"
        }
      ],
      "stateMutability": "view",
      "type": "function"
    },
    {
      "inputs": [
        {
          "internalType": "uint256",
          "name": "amount0Owed_",
          "type": "uint256"
        },
        {
          "internalType": "uint256",
          "name": "amount1Owed_",
          "type": "uint256"
        },
        {
          "internalType": "bytes",
          "name": "",
          "type": "bytes"
        }
      ],
      "name": "uniswapV3MintCallback",
      "outputs": [],
      "stateMutability": "nonpayable",
      "type": "function"
    },
    {
      "inputs": [
        {
          "internalType": "int256",
          "name": "amount0Delta_",
          "type": "int256"
        },
        {
          "internalType": "int256",
          "name": "amount1Delta_",
          "type": "int256"
        },
        {
          "internalType": "bytes",
          "name": "",
          "type": "bytes"
        }
      ],
      "name": "uniswapV3SwapCallback",
      "outputs": [],
      "stateMutability": "nonpayable",
      "type": "function"
    },
    {
      "inputs": [],
      "name": "version",
      "outputs": [
        {
          "internalType": "string",
          "name": "",
          "type": "string"
        }
      ],
      "stateMutability": "view",
      "type": "function"
    },
    {
      "inputs": [],
      "name": "withdrawArrakisBalance",
      "outputs": [],
      "stateMutability": "nonpayable",
      "type": "function"
    },
    {
      "inputs": [],
      "name": "withdrawManagerBalance",
      "outputs": [],
      "stateMutability": "nonpayable",
      "type": "function"
    }
  ],
  "transactionHash": "0x13f8c141b477341f40367fdd52b80637aeb9a16205240503166f4d06ab6b57b5",
  "args": [
    "0x1F98431c8aD98523631AE4a59f267346ea31F984",
    "0xF953c3d475dc0a9877329F71e2CE3d2519a519A2"
  ],
  "numDeployments": 1,
  "solcInputHash": "7fbaa84d3ab610321cdf1a0ab7303b0a",
  "bytecode": "0x60c06040523480156200001157600080fd5b506040516200617d3803806200617d8339810160408190526200003491620000fb565b81816001600160a01b0382166200007c5760405162461bcd60e51b8152602060048201526007602482015266666163746f727960c81b60448201526064015b60405180910390fd5b6001600160a01b038116620000c75760405162461bcd60e51b815260206004820152601060248201526f617272616b697320747265617375727960801b604482015260640162000073565b6001600160a01b039182166080521660a052506200013a9050565b6001600160a01b0381168114620000f857600080fd5b50565b600080604083850312156200010f57600080fd5b82516200011c81620000e2565b60208401519092506200012f81620000e2565b809150509250929050565b60805160a051615fd0620001ad6000396000818161053b01528181611bde0152611c1b01526000818161056b01528181610ec20152818161187f01528181611ebe0152818161234401528181612ccd01528181612e4401528181612f95015281816130f30152613bda0152615fd06000f3fe608060405234801561001057600080fd5b506004361061025c5760003560e01c8063065756db1461026157806306fdde031461027d578063095ea7b3146102925780630dfe1681146102b557806314b80630146102d557806318160ddd146102de57806323b872dd146102e657806326d89545146102f9578063313ce567146103235780633926ab5f146103325780633950935114610347578063397a877e1461035a5780633cbff3fe1461036f5780633f7b61351461038257806342fb9d4414610395578063481c6a751461039e5780634b164140146103b15780634e380ab4146103c457806354fd4d50146103d757806356d9b051146103fb5780635f59dce51461040e5780635fdecdfa14610416578063670f13a11461043857806370a0823114610462578063715018a61461048b5780637ecd67171461049357806386ac1cb91461049b5780638c04166f146104ae5780638da5cb5b146104c45780638daf0ce4146104cc57806394bf804d146104df57806395d89b4114610500578063a457c2d714610508578063a9059cbb1461051b578063ad1b78b41461052e578063b9f24cb214610536578063bbfe704e1461055d578063c45a015514610566578063c70750411461058d578063d0ebdbe7146105a8578063d21220a7146105bb578063d3487997146105ce578063d839fb3f146105e1578063d8953ca7146105ea578063dc9ad4c1146105f3578063dd40e322146105fb578063dd62ed3e14610609578063e7c7cb911461061c578063f2eb3e3414610642578063f2fde38b1461064b578063f4effe411461065e578063fa461e3314610671575b600080fd5b61026a609f5481565b6040519081526020015b60405180910390f35b610285610684565b6040516102749190614d75565b6102a56102a0366004614dc0565b610716565b6040519015158152602001610274565b6097546102c8906001600160a01b031681565b6040516102749190614df9565b61026a60995481565b60355461026a565b6102a56102f4366004614e0d565b610730565b60a15461030f90600160281b900462ffffff1681565b60405162ffffff9091168152602001610274565b60405160128152602001610274565b610345610340366004614e5f565b610756565b005b6102a5610355366004614dc0565b6107df565b610362610801565b6040516102749190614ea3565b61034561037d366004614f00565b610881565b610345610390366004614f1d565b6108fd565b61026a60a05481565b609e546102c8906001600160a01b031681565b6103456103bf366004614f8a565b61098b565b6103456103d2366004614e5f565b610afe565b610285604051806040016040528060058152602001640312e302e360dc1b81525081565b61034561040936600461500c565b610b73565b610345611339565b6104296104243660046150a7565b6113d2565b604051610274939291906150c0565b61044b6104463660046150fa565b61140e565b604080519215158352602083019190915201610274565b61026a610470366004615116565b6001600160a01b031660009081526033602052604090205490565b610345611504565b61034561156b565b6103456104a9366004614f8a565b6115fd565b60a15461030f90600160401b900462ffffff1681565b6102c8611675565b6103456104da366004615177565b611684565b6104f26104ed36600461520b565b6116e8565b60405161027492919061523b565b610285611a3a565b6102a5610516366004614dc0565b611a49565b6102a5610529366004614dc0565b611acf565b609b5461026a565b6102c87f000000000000000000000000000000000000000000000000000000000000000081565b61026a609d5481565b6102c87f000000000000000000000000000000000000000000000000000000000000000081565b61059560fa81565b60405161ffff9091168152602001610274565b6103456105b6366004615116565b611add565b6098546102c8906001600160a01b031681565b6103456105dc366004615249565b611b4d565b610595612b6781565b61026a609c5481565b610345611bb4565b60a1546105959061ffff1681565b61026a61061736600461529b565b611c7b565b60a15461062f9062010000900460020b81565b60405160029190910b8152602001610274565b61026a609a5481565b610345610659366004615116565b611ca6565b6104f261066c3660046152c9565b611d83565b61034561067f366004615249565b612758565b60606036805461069390615356565b80601f01602080910402602001604051908101604052809291908181526020018280546106bf90615356565b801561070c5780601f106106e15761010080835404028352916020019161070c565b820191906000526020600020905b8154815290600101906020018083116106ef57829003601f168201915b5050505050905090565b6000336107248185856127c4565b60019150505b92915050565b60003361073e8582856128e8565b61074985858561295c565b60019150505b9392505050565b3361075f611675565b6001600160a01b03161461078e5760405162461bcd60e51b81526004016107859061538a565b60405180910390fd5b60a1805462ffffff838116600160281b90810262ffffff60281b198416179093556040513093600080516020615f7b833981519152936107d493919004169085906153bf565b60405180910390a250565b6000336107248185856107f28383611c7b565b6107fc91906153eb565b6127c4565b6060609b805480602002602001604051908101604052809291908181526020016000905b828210156108785760008481526020908190206040805160608101825291850154600281810b845263010000008204900b83850152600160301b900462ffffff1690820152825260019092019101610825565b50505050905090565b3361088a611675565b6001600160a01b0316146108b05760405162461bcd60e51b81526004016107859061538a565b60a1805462ffffff83166201000090810264ffffff0000198316179092556040805192909104600290810b835283900b60208301523091600080516020615f5b83398151915291016107d4565b33610906611675565b6001600160a01b03161461092c5760405162461bcd60e51b81526004016107859061538a565b6035541561094c5760405162461bcd60e51b815260040161078590615403565b306001600160a01b0316600080516020615f3b83398151915283609981905583609a81905560405161097f92919061523b565b60405180910390a25050565b33610994611675565b6001600160a01b0316146109ba5760405162461bcd60e51b81526004016107859061538a565b60005b81811015610ac25760008383838181106109d9576109d9615429565b90506020020160208101906109ee9190615116565b6001600160a01b031603610a145760405162461bcd60e51b81526004016107859061543f565b610a46838383818110610a2957610a29615429565b9050602002016020810190610a3e9190615116565b60a290612b18565b610a7d5760405162461bcd60e51b81526020600482015260086024820152671b9bdd081c1bdbdb60c21b6044820152606401610785565b610aaf838383818110610a9257610a92615429565b9050602002016020810190610aa79190615116565b60a290612b2d565b5080610aba81615465565b9150506109bd565b50306001600160a01b03167f834653da59f4b6941a549cf8587f1cebaaec073ee6922117339ba04f2abe6e65838360405161097f92919061547e565b33610b07611675565b6001600160a01b031614610b2d5760405162461bcd60e51b81526004016107859061538a565b60a1805462ffffff838116600160401b90810262ffffff60401b198416179093556040513093600080516020615e7b833981519152936107d493919004169085906153bf565b6000610b7f6001612b42565b90508015610b9b576000805460ff60a81b1916600160a81b1790555b6000610ba783806154cc565b905011610be45760405162461bcd60e51b815260206004820152600b60248201526a3737903332b2903a34b2b960a91b6044820152606401610785565b6000610bf66040840160208501615116565b6001600160a01b031603610c355760405162461bcd60e51b81526020600482015260066024820152650746f6b656e360d41b6044820152606401610785565b6000610c476060840160408501615116565b6001600160a01b031603610c865760405162461bcd60e51b8152602060048201526006602482015265746f6b656e3160d01b6044820152606401610785565b6000826080013511610cc25760405162461bcd60e51b81526020600482015260056024820152640696e6974360dc1b6044820152606401610785565b60008260a0013511610cfe5760405162461bcd60e51b8152602060048201526005602482015264696e69743160d81b6044820152606401610785565b6000610d1261014084016101208501614e5f565b62ffffff1611610d555760405162461bcd60e51b815260206004820152600e60248201526d06d617820736c69707061676520360941b6044820152606401610785565b6000610d6760e0840160c08501615116565b6001600160a01b031603610db75760405162461bcd60e51b815260206004820152601760248201527637379020b2323932b9b9902d32b9379026b0b730b3b2b960491b6044820152606401610785565b6000610dca610100840160e08501614f00565b60020b13610dea5760405162461bcd60e51b815260040161078590615515565b6000610dfe61012084016101008501614e5f565b62ffffff1611610e205760405162461bcd60e51b815260040161078590615515565b6000309050610e9887878080601f01602080910402602001604051908101604052809392919081815260200183838082843760009201919091525050604080516020601f8b018190048102820181019092528981529250899150889081908401838280828437600092019190915250612be492505050565b610ea0612c1b565b60005b610ead84806154cc565b905081101561102b5760006001600160a01b037f000000000000000000000000000000000000000000000000000000000000000016631698ee82610ef76040880160208901615116565b610f076060890160408a01615116565b610f1189806154cc565b87818110610f2157610f21615429565b9050602002016020810190610f369190614e5f565b6040518463ffffffff1660e01b8152600401610f549392919061553f565b602060405180830381865afa158015610f71573d6000803e3d6000fd5b505050506040513d601f19601f82011682018060405250810190610f959190615567565b90506001600160a01b038116610fe35760405162461bcd60e51b81526020600482015260136024820152721c1bdbdb08191bd95cc81b9bdd08195e1a5cdd606a1b6044820152606401610785565b610fee60a282612b18565b1561100b5760405162461bcd60e51b815260040161078590615584565b61101660a282612c4e565b5050808061102390615465565b915050610ea3565b5061103c6040840160208501615116565b609780546001600160a01b0319166001600160a01b039290921691909117905561106c6060840160408501615116565b609880546001600160a01b0319166001600160a01b039290921691909117905561109c6080840160608501615116565b600080546001600160a01b0319166001600160a01b03929092169190911790556110cc60e0840160c08501615116565b609e80546001600160a01b0319166001600160a01b039283161790558116600080516020615e5b83398151915261110385806154cc565b6040516111119291906155a2565b60405180910390a2806001600160a01b0316600080516020615f3b833981519152846080013560998190558560a00135609a81905560405161115492919061523b565b60405180910390a26001600160a01b038116600080516020615f1b833981519152600061118760e0870160c08801615116565b6040516111959291906155e1565b60405180910390a260a1546001600160a01b03821690600080516020615f5b8339815191529062010000900460020b6111d5610100870160e08801614f00565b60a1805464ffffff000019166201000062ffffff84160217905560408051600293840b81529190920b60208201520160405180910390a260a1546001600160a01b03821690600080516020615f7b83398151915290600160281b900462ffffff1661124861012087016101008801614e5f565b60a1805462ffffff60281b1916600160281b62ffffff8416021790556040516112729291906153bf565b60405180910390a260a1546001600160a01b03821690600080516020615e7b83398151915290600160401b900462ffffff166112b661014087016101208801614e5f565b60a1805462ffffff60401b1916600160401b62ffffff8416021790556040516112e09291906153bf565b60405180910390a2508015611331576000805460ff60a81b19169055604051600181527f7f26b83ff96e1f2b6a682f133852f6798a09c465da95921460cefb38474024989060200160405180910390a15b505050505050565b609e546001600160a01b031633146113635760405162461bcd60e51b8152600401610785906155fb565b60a15461ffff16612b6619016113835760a1805461ffff19169055611393565b60a1805461ffff1916612b671790555b60a15460405161ffff909116815230907f997aead5e1b44b8a7bff5b31972e84adbfc3311a188f75619b2edb6fea7abc7f9060200160405180910390a2565b609b81815481106113e257600080fd5b600091825260209091200154600281810b925063010000008204900b90600160301b900462ffffff1683565b60008060005b609b548110156114fe57609b818154811061143157611431615429565b6000918252602091829020015460020b9061144e90860186614f00565b60020b1480156114995750609b818154811061146c5761146c615429565b600091825260209182902001546301000000900460020b906114949060408701908701614f00565b60020b145b80156114e25750609b81815481106114b3576114b3615429565b600091825260209091200154600160301b900462ffffff166114db6060860160408701614e5f565b62ffffff16145b9250809150826114fe57806114f681615465565b915050611414565b50915091565b3361150d611675565b6001600160a01b0316146115335760405162461bcd60e51b81526004016107859061538a565b600080546040516001600160a01b0390911690600080516020615edb833981519152908390a3600080546001600160a01b0319169055565b609f805460a080546000938490559290559081156115a057609e546097546115a0916001600160a01b03918216911684612c63565b80156115c357609e546098546115c3916001600160a01b03918216911683612c63565b306001600160a01b03167ece17cafd473b3e1e2e536ddc92e042d8e5422bafcb79580aedfe243ac68729838360405161097f92919061523b565b33611606611675565b6001600160a01b03161461162c5760405162461bcd60e51b81526004016107859061538a565b60975460985461164c91849184916001600160a01b039081169116612cbe565b306001600160a01b0316600080516020615e5b833981519152838360405161097f9291906155a2565b6000546001600160a01b031690565b609e546001600160a01b031633146116ae5760405162461bcd60e51b8152600401610785906155fb565b6097546098546116ce91879187916001600160a01b039081169116612df2565b6116d7836130a1565b6116e18282613ed4565b5050505050565b60008060026065540361170d5760405162461bcd60e51b81526004016107859061561f565b600260655560a15461ffff16612b671415806117335750609e546001600160a01b031633145b61176c5760405162461bcd60e51b815260206004820152600a6024820152691c995cdd1c9a58dd195960b21b6044820152606401610785565b600084116117aa5760405162461bcd60e51b815260206004820152600b60248201526a1b5a5b9d08185b5bdd5b9d60aa1b6044820152606401610785565b3060006117b660355490565b9050600080600080600085116117d457609954609a54600080611929565b73f36Bb98C9D84Bea58575a28f698470D6b770d29D63e56f4d916040518060a00160405280609b805480602002602001604051908101604052809291908181526020016000905b8282101561186e5760008481526020908190206040805160608101825291850154600281810b845263010000008204900b83850152600160301b900462ffffff169082015282526001909201910161181b565b505050908252506001600160a01b037f000000000000000000000000000000000000000000000000000000000000000081166020830152609754811660408084019190915260985482166060840152908b16608090920191909152516001600160e01b031960e084901b1681526118e89190600401615656565b608060405180830381865af4158015611905573d6000803e3d6000fd5b505050506040513d601f19601f8201168201806040525081019061192991906156fd565b9350935093509350600080861161194857670de0b6b3a764000061194a565b855b90506119578b8683613f59565b98506119648b8583613f59565b97506119708a8c613fa2565b881561198e5760975461198e906001600160a01b031633898c61406f565b87156119ac576098546119ac906001600160a01b031633898b61406f565b866001600160a01b0316600080516020615e9b83398151915284846040516119d592919061523b565b60405180910390a2866001600160a01b03167f3a726725a45f02ba253c4b8a98c646c5a795d697efcd821da95c673e9dd7de8e8b8d8c8c604051611a1c9493929190615733565b60405180910390a25050505050505060016065819055509250929050565b60606037805461069390615356565b60003381611a578286611c7b565b905083811015611ab75760405162461bcd60e51b815260206004820152602560248201527f45524332303a2064656372656173656420616c6c6f77616e63652062656c6f77604482015264207a65726f60d81b6064820152608401610785565b611ac482868684036127c4565b506001949350505050565b60003361072481858561295c565b33611ae6611675565b6001600160a01b031614611b0c5760405162461bcd60e51b81526004016107859061538a565b609e80546001600160a01b038381166001600160a01b03198316179092556040513092600080516020615f1b833981519152926107d49291169085906155e1565b611b5860a233612b18565b611b745760405162461bcd60e51b815260040161078590615759565b8315611b9157609754611b91906001600160a01b03163386612c63565b8215611bae57609854611bae906001600160a01b03163385612c63565b50505050565b609c8054609d8054600093849055929055908115611c0357609754611c03906001600160a01b03167f000000000000000000000000000000000000000000000000000000000000000084612c63565b8015611c4057609854611c40906001600160a01b03167f000000000000000000000000000000000000000000000000000000000000000083612c63565b306001600160a01b03167f30d3075d5b66b5f76224a4d20775f835cef3a025227dca6c54335cee15b5ed79838360405161097f92919061523b565b6001600160a01b03918216600090815260346020908152604080832093909416825291909152205490565b33611caf611675565b6001600160a01b031614611cd55760405162461bcd60e51b81526004016107859061538a565b6001600160a01b038116611d3a5760405162461bcd60e51b815260206004820152602660248201527f4f776e61626c653a206e6577206f776e657220697320746865207a65726f206160448201526564647265737360d01b6064820152608401610785565b600080546040516001600160a01b0380851693921691600080516020615edb83398151915291a3600080546001600160a01b0319166001600160a01b0392909216919091179055565b600080600260655403611da85760405162461bcd60e51b81526004016107859061561f565b60026065556000611db860355490565b905060008111611dda5760405162461bcd60e51b815260040161078590615403565b611e136040518060c001604052806000815260200160008152602001600081526020016000815260200160008152602001600081525090565b73f36Bb98C9D84Bea58575a28f698470D6b770d29D63e56f4d916040518060a00160405280609b805480602002602001604051908101604052809291908181526020016000905b82821015611ead5760008481526020908190206040805160608101825291850154600281810b845263010000008204900b83850152600160301b900462ffffff1690820152825260019092019101611e5a565b505050908252506001600160a01b037f0000000000000000000000000000000000000000000000000000000000000000811660208301526097548116604080840191909152609854909116606083015230608090920191909152516001600160e01b031960e084901b168152611f269190600401615656565b608060405180830381865af4158015611f43573d6000803e3d6000fd5b505050506040513d601f19601f82011682018060405250810190611f6791906156fd565b6060850152604080850191909152602084019190915290825260975490516370a0823160e01b81526001600160a01b03909116906370a0823190611faf903090600401614df9565b602060405180830381865afa158015611fcc573d6000803e3d6000fd5b505050506040513d601f19601f82011682018060405250810190611ff09190615782565b60808201526098546040516370a0823160e01b81526001600160a01b03909116906370a0823190612025903090600401614df9565b602060405180830381865afa158015612042573d6000803e3d6000fd5b505050506040513d601f19601f820116820180604052508101906120669190615782565b8160a001818152505060008073cCd824d1Baaeb6d6E2B6De867409564F7B8859d2636d50cdaf84604001518560600151609e60009054906101000a90046001600160a01b03166001600160a01b031663ccdf7a026040518163ffffffff1660e01b8152600401602060405180830381865afa1580156120e9573d6000803e3d6000fd5b505050506040513d601f19601f8201168201806040525081019061210d919061579b565b60fa6040518563ffffffff1660e01b815260040161212e94939291906157bf565b6040805180830381865af415801561214a573d6000803e3d6000fd5b505050506040513d601f19601f8201168201806040525081019061216e91906157e1565b915091508183604001516121829190615805565b83518490612191908390615805565b90525060608301516121a4908290615805565b836020018181516121b59190615805565b9052505081516121c7915087846140a7565b93506121d8816020015187846140a7565b9250838160800151101580156121f25750828160a0015110155b15612277576122013387614155565b831561221e5760975461221e906001600160a01b03168686612c63565b821561223b5760985461223b906001600160a01b03168685612c63565b306001600160a01b0316600080516020615ebb833981519152868887876040516122689493929190615733565b60405180910390a25050612748565b866122ac5760405162461bcd60e51b81526020600482015260056024820152646275726e7360d81b6044820152606401610785565b6122b63387614155565b6122be614c88565b60005b8881101561253a578989828181106122db576122db615429565b6122f19260206080909202019081019150615831565b6001600160801b0316600003612331576123318a8a8381811061231657612316615429565b90506080020180360381019061232c9190615884565b614291565b6097546098546000916001600160a01b037f0000000000000000000000000000000000000000000000000000000000000000811692631698ee8292821691168e8e8781811061238257612382615429565b612399926080918202019081019150606001614e5f565b6040518463ffffffff1660e01b81526004016123b79392919061553f565b602060405180830381865afa1580156123d4573d6000803e3d6000fd5b505050506040513d601f19601f820116820180604052508101906123f89190615567565b905061240560a282612b18565b61243a5761243a8b8b8481811061241e5761241e615429565b612435926080918202019081019150606001614e5f565b6142bd565b60006124c3828d8d8681811061245257612452615429565b61246b9260406080909202019081019150602001614f00565b8e8e8781811061247d5761247d615429565b6124969260606080909202019081019150604001614f00565b8f8f888181106124a8576124a8615429565b6124be9260206080909202019081019150615831565b6142dd565b90508060400151846040018181516124db91906153eb565b90525060608082015190850180516124f49083906153eb565b9052508051845185906125089083906153eb565b90525060208082015190850180516125219083906153eb565b905250829150612532905081615465565b9150506122c1565b5061254d8160400151826060015161461a565b73cCd824d1Baaeb6d6E2B6De867409564F7B8859d2636d50cdaf82604001518360600151609e60009054906101000a90046001600160a01b03166001600160a01b031663ccdf7a026040518163ffffffff1660e01b8152600401602060405180830381865afa1580156125c4573d6000803e3d6000fd5b505050506040513d601f19601f820116820180604052508101906125e8919061579b565b60fa6040518563ffffffff1660e01b815260040161260994939291906157bf565b6040805180830381865af4158015612625573d6000803e3d6000fd5b505050506040513d601f19601f8201168201806040525081019061264991906157e1565b60608301526040820152841561267057609754612670906001600160a01b03168787612c63565b831561268d5760985461268d906001600160a01b03168786612c63565b8051602080830151604080513381529283019390935281830152905130917f37d0344f9c2e3a1b262004ad8a4d25955dc9223dd2f39eb7c70d57fa8481df54919081900360600190a2306001600160a01b0316600080516020615e9b8339815191528260400151836060015160405161270792919061523b565b60405180910390a2306001600160a01b0316600080516020615ebb8339815191528789888860405161273c9493929190615733565b60405180910390a25050505b6001606555909590945092505050565b61276360a233612b18565b61277f5760405162461bcd60e51b815260040161078590615759565b60008413156127a45760975461279f906001600160a01b03163386612c63565b611bae565b6000831315611bae57609854611bae906001600160a01b03163385612c63565b6001600160a01b0383166128265760405162461bcd60e51b8152602060048201526024808201527f45524332303a20617070726f76652066726f6d20746865207a65726f206164646044820152637265737360e01b6064820152608401610785565b6001600160a01b0382166128875760405162461bcd60e51b815260206004820152602260248201527f45524332303a20617070726f766520746f20746865207a65726f206164647265604482015261737360f01b6064820152608401610785565b6001600160a01b0383811660008181526034602090815260408083209487168084529482529182902085905590518481527f8c5be1e5ebec7d5bd14f71427d1e84f3dd0314c0f7b2291e5b200ac8c7c3b925910160405180910390a3505050565b60006128f48484611c7b565b90506000198114611bae578181101561294f5760405162461bcd60e51b815260206004820152601d60248201527f45524332303a20696e73756666696369656e7420616c6c6f77616e63650000006044820152606401610785565b611bae84848484036127c4565b6001600160a01b0383166129c05760405162461bcd60e51b815260206004820152602560248201527f45524332303a207472616e736665722066726f6d20746865207a65726f206164604482015264647265737360d81b6064820152608401610785565b6001600160a01b038216612a225760405162461bcd60e51b815260206004820152602360248201527f45524332303a207472616e7366657220746f20746865207a65726f206164647260448201526265737360e81b6064820152608401610785565b6001600160a01b03831660009081526033602052604090205481811015612a9a5760405162461bcd60e51b815260206004820152602660248201527f45524332303a207472616e7366657220616d6f756e7420657863656564732062604482015265616c616e636560d01b6064820152608401610785565b6001600160a01b03808516600090815260336020526040808220858503905591851681529081208054849290612ad19084906153eb565b92505081905550826001600160a01b0316846001600160a01b0316600080516020615efb83398151915284604051612b0b91815260200190565b60405180910390a3611bae565b600061074f836001600160a01b038416614750565b600061074f836001600160a01b038416614768565b60008054600160a81b900460ff1615612b92578160ff166001148015612b6e5750612b6c3061485b565b155b612b8a5760405162461bcd60e51b815260040161078590615938565b506000919050565b60005460ff808416600160a01b9092041610612bc05760405162461bcd60e51b815260040161078590615938565b506000805460ff909216600160a01b0260ff60a01b19909216919091179055600190565b600054600160a81b900460ff16612c0d5760405162461bcd60e51b815260040161078590615986565b612c17828261486a565b5050565b600054600160a81b900460ff16612c445760405162461bcd60e51b815260040161078590615986565b612c4c6148ba565b565b600061074f836001600160a01b0384166148ea565b612cb98363a9059cbb60e01b8484604051602401612c829291906159d1565b60408051601f198184030181529190526020810180516001600160e01b03166001600160e01b031990931692909217909152614934565b505050565b60005b838110156116e15760007f00000000000000000000000000000000000000000000000000000000000000006001600160a01b0316631698ee828585898987818110612d0e57612d0e615429565b9050602002016020810190612d239190614e5f565b6040518463ffffffff1660e01b8152600401612d419392919061553f565b602060405180830381865afa158015612d5e573d6000803e3d6000fd5b505050506040513d601f19601f82011682018060405250810190612d829190615567565b90506001600160a01b038116612daa5760405162461bcd60e51b81526004016107859061543f565b612db560a282612b18565b15612dd25760405162461bcd60e51b815260040161078590615584565b612ddd60a282612c4e565b50508080612dea90615465565b915050612cc1565b60005b838110156116e1576000612e1f868684818110612e1457612e14615429565b90506060020161140e565b5090508015612e405760405162461bcd60e51b8152600401610785906159ea565b60007f00000000000000000000000000000000000000000000000000000000000000006001600160a01b0316631698ee8286868a8a88818110612e8557612e85615429565b9050606002016040016020810190612e9d9190614e5f565b6040518463ffffffff1660e01b8152600401612ebb9392919061553f565b602060405180830381865afa158015612ed8573d6000803e3d6000fd5b505050506040513d601f19601f82011682018060405250810190612efc9190615567565b90506001600160a01b038116612f525760405162461bcd60e51b815260206004820152601b60248201527a1d5b9a5cddd85c081c1bdbdb08191bd95cc81b9bdd08195e1a5cdd602a1b6044820152606401610785565b612f5d60a282612b18565b612f795760405162461bcd60e51b815260040161078590615584565b73CB877F44f58087345B3c6Ef479f4142E6798Fbba63143e56407f000000000000000000000000000000000000000000000000000000000000000087878b8b89818110612fc857612fc8615429565b9050606002016040518563ffffffff1660e01b8152600401612fed9493929190615a09565b602060405180830381865af415801561300a573d6000803e3d6000fd5b505050506040513d601f19601f8201168201806040525081019061302e9190615a83565b61304a5760405162461bcd60e51b8152600401610785906159ea565b609b87878581811061305e5761305e615429565b8354600181018555600094855260209094206060909102929092019291909101905061308a8282615aa0565b50505050808061309990615465565b915050612df5565b6002606554036130c35760405162461bcd60e51b81526004016107859061561f565b6002606555600080805b6130d78480615b27565b9050811015613324576097546098546000916001600160a01b037f0000000000000000000000000000000000000000000000000000000000000000811692631698ee8292821691166131298980615b27565b8781811061313957613139615429565b613150926080918202019081019150606001614e5f565b6040518463ffffffff1660e01b815260040161316e9392919061553f565b602060405180830381865afa15801561318b573d6000803e3d6000fd5b505050506040513d601f19601f820116820180604052508101906131af9190615567565b9050806131bd60a282612b18565b6131de576131de6131ce8780615b27565b8581811061241e5761241e615429565b60a15460405163db46de5360e01b815273cE7b8731CA37cA1F5f9b6441B61f1E1Dd92a9Fa29163db46de539161322f91859162ffffff600160281b8304169162010000900460020b90600401615b70565b60006040518083038186803b15801561324757600080fd5b505af415801561325b573d6000803e3d6000fd5b50600092506132e891508390506132728980615b27565b8781811061328257613282615429565b61329b9260406080909202019081019150602001614f00565b6132a58a80615b27565b888181106132b5576132b5615429565b6132ce9260606080909202019081019150604001614f00565b6132d88b80615b27565b898181106124a8576124a8615429565b90508060400151866132fa91906153eb565b955080606001518561330c91906153eb565b9450505050808061331c90615465565b9150506130cd565b5060008211806133345750600081115b1561347957613343828261461a565b73cCd824d1Baaeb6d6E2B6De867409564F7B8859d2636d50cdaf8383609e60009054906101000a90046001600160a01b03166001600160a01b031663ccdf7a026040518163ffffffff1660e01b8152600401602060405180830381865afa1580156133b2573d6000803e3d6000fd5b505050506040513d601f19601f820116820180604052508101906133d6919061579b565b60fa6040518563ffffffff1660e01b81526004016133f794939291906157bf565b6040805180830381865af4158015613413573d6000803e3d6000fd5b505050506040513d601f19601f8201168201806040525081019061343791906157e1565b604051919350915030907f980ed0c388019eb16a88cc6b84fd29d73f8425e4ba59b30c763f338d5697e36690613470908590859061523b565b60405180910390a25b60006134886040850185615b99565b606001351115613bae576134b36134a26040850185615b99565b610a3e906040810190602001615116565b156134ea5760405162461bcd60e51b81526020600482015260076024820152661b9bc81c1bdbdb60ca1b6044820152606401610785565b6097546040516370a0823160e01b81526000916001600160a01b0316906370a082319061351b903090600401614df9565b602060405180830381865afa158015613538573d6000803e3d6000fd5b505050506040513d601f19601f8201168201806040525081019061355c9190615782565b6098546040516370a0823160e01b81529192506000916001600160a01b03909116906370a0823190613592903090600401614df9565b602060405180830381865afa1580156135af573d6000803e3d6000fd5b505050506040513d601f19601f820116820180604052508101906135d39190615782565b905061360a6135e56040870187615b99565b6135f6906060810190604001615116565b6097546001600160a01b0316906000614a06565b61363f61361a6040870187615b99565b61362b906060810190604001615116565b6098546001600160a01b0316906000614a06565b61367361364f6040870187615b99565b613660906060810190604001615116565b6097546001600160a01b03169084614a06565b6136a76136836040870187615b99565b613694906060810190604001615116565b6098546001600160a01b03169083614a06565b60006136b66040870187615b99565b6136c7906060810190604001615116565b6001600160a01b03166136dd6040880188615b99565b6136e79080615bb9565b6040516136f5929190615bff565b6000604051808303816000865af19150503d8060008114613732576040519150601f19603f3d011682016040523d82523d6000602084013e613737565b606091505b50509050806137715760405162461bcd60e51b8152600401610785906020808252600490820152630737761760e41b604082015260600190565b6137816135e56040880188615b99565b61379161361a6040880188615b99565b6097546040516370a0823160e01b81526000916001600160a01b0316906370a08231906137c2903090600401614df9565b602060405180830381865afa1580156137df573d6000803e3d6000fd5b505050506040513d601f19601f820116820180604052508101906138039190615782565b6098546040516370a0823160e01b81529192506000916001600160a01b03909116906370a0823190613839903090600401614df9565b602060405180830381865afa158015613856573d6000803e3d6000fd5b505050506040513d601f19601f8201168201806040525081019061387a9190615782565b90506138896040890189615b99565b61389a9060c081019060a001615c0f565b15613a9b5761396e73cE7b8731CA37cA1F5f9b6441B61f1E1Dd92a9Fa2639ff4c50d6138c960408c018c615b99565b6138da906040810190602001615116565b60a1546040516001600160e01b031960e085901b1681526001600160a01b03909216600483015262ffffff600160281b909104166024820152604401602060405180830381865af4158015613933573d6000803e3d6000fd5b505050506040513d601f19601f820116820180604052508101906139579190615782565b60a154600160401b900462ffffff166127106140a7565b613a1a61397e60408b018b615b99565b60800135609760009054906101000a90046001600160a01b03166001600160a01b031663313ce5676040518163ffffffff1660e01b8152600401602060405180830381865afa1580156139d5573d6000803e3d6000fd5b505050506040513d601f19601f820116820180604052508101906139f99190615c2c565b613a0490600a615d33565b613a1160408d018d615b99565b606001356140a7565b11613a375760405162461bcd60e51b815260040161078590615d42565b613a446040890189615b99565b613a529060800135856153eb565b8110158015613a7a5750613a696040890189615b99565b613a77906060013586615805565b82145b613a965760405162461bcd60e51b815260040161078590615d64565b613ba8565b613ac573cE7b8731CA37cA1F5f9b6441B61f1E1Dd92a9Fa2630578711c6138c960408c018c615b99565b613b2c613ad560408b018b615b99565b60800135609860009054906101000a90046001600160a01b03166001600160a01b031663313ce5676040518163ffffffff1660e01b8152600401602060405180830381865afa1580156139d5573d6000803e3d6000fd5b11613b495760405162461bcd60e51b815260040161078590615d42565b613b566040890189615b99565b613b649060800135866153eb565b8210158015613b8c5750613b7b6040890189615b99565b613b89906060013585615805565b81145b613ba85760405162461bcd60e51b815260040161078590615d64565b50505050505b60005b613bbe6020850185615b27565b9050811015613ec9576097546098546000916001600160a01b037f0000000000000000000000000000000000000000000000000000000000000000811692631698ee829282169116613c1360208a018a615b27565b87818110613c2357613c23615429565b613c3a926080918202019081019150606001614e5f565b6040518463ffffffff1660e01b8152600401613c589392919061553f565b602060405180830381865afa158015613c75573d6000803e3d6000fd5b505050506040513d601f19601f82011682018060405250810190613c999190615567565b90506000613ccb613cad6020880188615b27565b85818110613cbd57613cbd615429565b90506080020160200161140e565b50905080613ceb5760405162461bcd60e51b815260040161078590615d89565b60a15460405163db46de5360e01b815273cE7b8731CA37cA1F5f9b6441B61f1E1Dd92a9Fa29163db46de5391613d3c91869162ffffff600160281b8304169162010000900460020b90600401615b70565b60006040518083038186803b158015613d5457600080fd5b505af4158015613d68573d6000803e3d6000fd5b5050506001600160a01b0383169050633c8a7d8d30613d8a60208a018a615b27565b87818110613d9a57613d9a615429565b613db39260406080909202019081019150602001614f00565b613dc060208b018b615b27565b88818110613dd057613dd0615429565b613de99260606080909202019081019150604001614f00565b613df660208c018c615b27565b89818110613e0657613e06615429565b613e1c9260206080909202019081019150615831565b6040516001600160e01b031960e087901b1681526001600160a01b039094166004850152600292830b6024850152910b60448301526001600160801b0316606482015260a06084820152600060a482015260c40160408051808303816000875af1158015613e8e573d6000803e3d6000fd5b505050506040513d601f19601f82011682018060405250810190613eb291906157e1565b505050508080613ec190615465565b915050613bb1565b505060016065555050565b60005b81811015612cb957600080613ef7858585818110612e1457612e14615429565b9150915081613f185760405162461bcd60e51b815260040161078590615d89565b609b8181548110613f2b57613f2b615429565b600091825260209091200180546001600160481b031916905550819050613f5181615465565b915050613ed7565b6000613f668484846140a7565b905060008280613f7857613f78615dac565b848609111561074f576000198110613f8f57600080fd5b80613f9981615465565b95945050505050565b6001600160a01b038216613ff85760405162461bcd60e51b815260206004820152601f60248201527f45524332303a206d696e7420746f20746865207a65726f2061646472657373006044820152606401610785565b806035600082825461400a91906153eb565b90915550506001600160a01b038216600090815260336020526040812080548392906140379084906153eb565b90915550506040518181526001600160a01b03831690600090600080516020615efb8339815191529060200160405180910390a35050565b6040516001600160a01b0380851660248301528316604482015260648101829052611bae9085906323b872dd60e01b90608401612c82565b60008080600019858709858702925082811083820303915050806000036140e057600084116140d557600080fd5b50829004905061074f565b8084116140ec57600080fd5b60008486880960026001871981018816978890046003810283188082028403028082028403028082028403028082028403028082028403029081029092039091026000889003889004909101858311909403939093029303949094049190911702949350505050565b6001600160a01b0382166141b55760405162461bcd60e51b815260206004820152602160248201527f45524332303a206275726e2066726f6d20746865207a65726f206164647265736044820152607360f81b6064820152608401610785565b6001600160a01b038216600090815260336020526040902054818110156142295760405162461bcd60e51b815260206004820152602260248201527f45524332303a206275726e20616d6f756e7420657863656564732062616c616e604482015261636560f01b6064820152608401610785565b6001600160a01b0383166000908152603360205260408120838303905560358054849290614258908490615805565b90915550506040518281526000906001600160a01b03851690600080516020615efb8339815191529060200160405180910390a3505050565b602080820151805191810151604091820151915163c79201a360e01b81526107859392906004016150c0565b604051634cb235d760e11b815262ffffff82166004820152602401610785565b6142e5614c88565b6097546040516370a0823160e01b81526000916001600160a01b0316906370a0823190614316903090600401614df9565b602060405180830381865afa158015614333573d6000803e3d6000fd5b505050506040513d601f19601f820116820180604052508101906143579190615782565b6098546040516370a0823160e01b81529192506000916001600160a01b03909116906370a082319061438d903090600401614df9565b602060405180830381865afa1580156143aa573d6000803e3d6000fd5b505050506040513d601f19601f820116820180604052508101906143ce9190615782565b60405163a34123a760e01b8152600288810b600483015287900b60248201526001600160801b03861660448201529091506001600160a01b0388169063a34123a79060640160408051808303816000875af1158015614431573d6000803e3d6000fd5b505050506040513d601f19601f8201168201806040525081019061445591906157e1565b602085015283526040516309e3d67b60e31b8152306004820152600287810b602483015286900b60448201526001600160801b036064820181905260848201526001600160a01b03881690634f1eb3d89060a40160408051808303816000875af11580156144c7573d6000803e3d6000fd5b505050506040513d601f19601f820116820180604052508101906144eb9190615dc2565b505082516097546040516370a0823160e01b815284916001600160a01b0316906370a082319061451f903090600401614df9565b602060405180830381865afa15801561453c573d6000803e3d6000fd5b505050506040513d601f19601f820116820180604052508101906145609190615782565b61456a9190615805565b6145749190615805565b604080850191909152602084015160985491516370a0823160e01b8152909183916001600160a01b03909116906370a08231906145b5903090600401614df9565b602060405180830381865afa1580156145d2573d6000803e3d6000fd5b505050506040513d601f19601f820116820180604052508101906145f69190615782565b6146009190615805565b61460a9190615805565b6060840152509095945050505050565b609e546040805163666fbd0160e11b815290516000926001600160a01b03169163ccdf7a029160048083019260209291908290030181865afa158015614664573d6000803e3d6000fd5b505050506040513d601f19601f82011682018060405250810190614688919061579b565b905061271061469b61ffff831685615df1565b6146a59190615e10565b609f60008282546146b691906153eb565b9091555061271090506146cd61ffff831684615df1565b6146d79190615e10565b60a060008282546146e891906153eb565b9091555061271090506146fc60fa85615df1565b6147069190615e10565b609c600082825461471791906153eb565b90915550612710905061472b60fa84615df1565b6147359190615e10565b609d600082825461474691906153eb565b9091555050505050565b60009081526001919091016020526040902054151590565b6000818152600183016020526040812054801561485157600061478c600183615805565b85549091506000906147a090600190615805565b90508181146148055760008660000182815481106147c0576147c0615429565b90600052602060002001549050808760000184815481106147e3576147e3615429565b6000918252602080832090910192909255918252600188019052604090208390555b855486908061481657614816615e32565b60019003818190600052602060002001600090559055856001016000868152602001908152602001600020600090556001935050505061072a565b600091505061072a565b6001600160a01b03163b151590565b600054600160a81b900460ff166148935760405162461bcd60e51b815260040161078590615986565b81516148a6906036906020850190614cb0565b508051612cb9906037906020840190614cb0565b600054600160a81b900460ff166148e35760405162461bcd60e51b815260040161078590615986565b6001606555565b60006148f68383614750565b61492c5750815460018181018455600084815260208082209093018490558454848252828601909352604090209190915561072a565b50600061072a565b6000614989826040518060400160405280602081526020017f5361666545524332303a206c6f772d6c6576656c2063616c6c206661696c6564815250856001600160a01b0316614b099092919063ffffffff16565b805190915015612cb957808060200190518101906149a79190615a83565b612cb95760405162461bcd60e51b815260206004820152602a60248201527f5361666545524332303a204552433230206f7065726174696f6e20646964206e6044820152691bdd081cdd58d8d9595960b21b6064820152608401610785565b801580614a7f5750604051636eb1769f60e11b81526001600160a01b0384169063dd62ed3e90614a3c90309086906004016155e1565b602060405180830381865afa158015614a59573d6000803e3d6000fd5b505050506040513d601f19601f82011682018060405250810190614a7d9190615782565b155b614aea5760405162461bcd60e51b815260206004820152603660248201527f5361666545524332303a20617070726f76652066726f6d206e6f6e2d7a65726f60448201527520746f206e6f6e2d7a65726f20616c6c6f77616e636560501b6064820152608401610785565b612cb98363095ea7b360e01b8484604051602401612c829291906159d1565b6060614b188484600085614b20565b949350505050565b606082471015614b815760405162461bcd60e51b815260206004820152602660248201527f416464726573733a20696e73756666696369656e742062616c616e636520666f6044820152651c8818d85b1b60d21b6064820152608401610785565b614b8a8561485b565b614bd65760405162461bcd60e51b815260206004820152601d60248201527f416464726573733a2063616c6c20746f206e6f6e2d636f6e74726163740000006044820152606401610785565b600080866001600160a01b03168587604051614bf29190615e48565b60006040518083038185875af1925050503d8060008114614c2f576040519150601f19603f3d011682016040523d82523d6000602084013e614c34565b606091505b5091509150614c44828286614c4f565b979650505050505050565b60608315614c5e57508161074f565b825115614c6e5782518084602001fd5b8160405162461bcd60e51b81526004016107859190614d75565b6040518060800160405280600081526020016000815260200160008152602001600081525090565b828054614cbc90615356565b90600052602060002090601f016020900481019282614cde5760008555614d24565b82601f10614cf757805160ff1916838001178555614d24565b82800160010185558215614d24579182015b82811115614d24578251825591602001919060010190614d09565b50614d30929150614d34565b5090565b5b80821115614d305760008155600101614d35565b60005b83811015614d64578181015183820152602001614d4c565b83811115611bae5750506000910152565b6020815260008251806020840152614d94816040850160208701614d49565b601f01601f19169190910160400192915050565b6001600160a01b0381168114614dbd57600080fd5b50565b60008060408385031215614dd357600080fd5b8235614dde81614da8565b946020939093013593505050565b6001600160a01b03169052565b6001600160a01b0391909116815260200190565b600080600060608486031215614e2257600080fd5b8335614e2d81614da8565b92506020840135614e3d81614da8565b929592945050506040919091013590565b62ffffff81168114614dbd57600080fd5b600060208284031215614e7157600080fd5b813561074f81614e4e565b805160020b8252602081015160020b602083015262ffffff60408201511660408301525050565b6020808252825182820181905260009190848201906040850190845b81811015614ee557614ed2838551614e7c565b9284019260609290920191600101614ebf565b50909695505050505050565b8060020b8114614dbd57600080fd5b600060208284031215614f1257600080fd5b813561074f81614ef1565b60008060408385031215614f3057600080fd5b50508035926020909101359150565b60008083601f840112614f5157600080fd5b5081356001600160401b03811115614f6857600080fd5b6020830191508360208260051b8501011115614f8357600080fd5b9250929050565b60008060208385031215614f9d57600080fd5b82356001600160401b03811115614fb357600080fd5b614fbf85828601614f3f565b90969095509350505050565b60008083601f840112614fdd57600080fd5b5081356001600160401b03811115614ff457600080fd5b602083019150836020828501011115614f8357600080fd5b60008060008060006060868803121561502457600080fd5b85356001600160401b038082111561503b57600080fd5b61504789838a01614fcb565b9097509550602088013591508082111561506057600080fd5b61506c89838a01614fcb565b9095509350604088013591508082111561508557600080fd5b508601610140818903121561509957600080fd5b809150509295509295909350565b6000602082840312156150b957600080fd5b5035919050565b600293840b81529190920b602082015262ffffff909116604082015260600190565b6000606082840312156150f457600080fd5b50919050565b60006060828403121561510c57600080fd5b61074f83836150e2565b60006020828403121561512857600080fd5b813561074f81614da8565b60008083601f84011261514557600080fd5b5081356001600160401b0381111561515c57600080fd5b602083019150836020606083028501011115614f8357600080fd5b60008060008060006060868803121561518f57600080fd5b85356001600160401b03808211156151a657600080fd5b6151b289838a01615133565b909750955060208801359150808211156151cb57600080fd5b6151d789838a016150e2565b945060408801359150808211156151ed57600080fd5b506151fa88828901615133565b969995985093965092949392505050565b6000806040838503121561521e57600080fd5b82359150602083013561523081614da8565b809150509250929050565b918252602082015260400190565b6000806000806060858703121561525f57600080fd5b843593506020850135925060408501356001600160401b0381111561528357600080fd5b61528f87828801614fcb565b95989497509550505050565b600080604083850312156152ae57600080fd5b82356152b981614da8565b9150602083013561523081614da8565b600080600080606085870312156152df57600080fd5b84356001600160401b03808211156152f657600080fd5b818701915087601f83011261530a57600080fd5b81358181111561531957600080fd5b8860208260071b850101111561532e57600080fd5b602092830196509450508501359150604085013561534b81614da8565b939692955090935050565b600181811c9082168061536a57607f821691505b6020821081036150f457634e487b7160e01b600052602260045260246000fd5b6020808252818101527f4f776e61626c653a2063616c6c6572206973206e6f7420746865206f776e6572604082015260600190565b62ffffff92831681529116602082015260400190565b634e487b7160e01b600052601160045260246000fd5b600082198211156153fe576153fe6153d5565b500190565b6020808252600c908201526b746f74616c20737570706c7960a01b604082015260600190565b634e487b7160e01b600052603260045260246000fd5b6020808252600c908201526b61646472657373205a65726f60a01b604082015260600190565b600060018201615477576154776153d5565b5060010190565b60208082528181018390526000908460408401835b868110156154c15782356154a681614da8565b6001600160a01b031682529183019190830190600101615493565b509695505050505050565b6000808335601e198436030181126154e357600080fd5b8301803591506001600160401b038211156154fd57600080fd5b6020019150600581901b3603821315614f8357600080fd5b60208082526010908201526f36b0bc2a3bb0b82232bb34b0ba34b7b760811b604082015260600190565b6001600160a01b03938416815291909216602082015262ffffff909116604082015260600190565b60006020828403121561557957600080fd5b815161074f81614da8565b6020808252600490820152631c1bdbdb60e21b604082015260600190565b60208082528181018390526000908460408401835b868110156154c15782356155ca81614e4e565b62ffffff16825291830191908301906001016155b7565b6001600160a01b0392831681529116602082015260400190565b6020808252600a908201526937379036b0b730b3b2b960b11b604082015260600190565b6020808252601f908201527f5265656e7472616e637947756172643a207265656e7472616e742063616c6c00604082015260600190565b6020808252825160a083830152805160c0840181905260009291820190839060e08601905b808310156156a45761568e828551614e7c565b606082019150848401935060018301925061567b565b5092860151926156b76040870185614dec565b604087015193506156cb6060870185614dec565b606087015193506156df6080870185614dec565b608087015193506156f360a0870185614dec565b9695505050505050565b6000806000806080858703121561571357600080fd5b505082516020840151604085015160609095015191969095509092509050565b6001600160a01b0394909416845260208401929092526040830152606082015260800190565b6020808252600f908201526e31b0b6363130b1b59031b0b63632b960891b604082015260600190565b60006020828403121561579457600080fd5b5051919050565b6000602082840312156157ad57600080fd5b815161ffff8116811461074f57600080fd5b938452602084019290925261ffff908116604084015216606082015260800190565b600080604083850312156157f457600080fd5b505080516020909101519092909150565b600082821015615817576158176153d5565b500390565b6001600160801b0381168114614dbd57600080fd5b60006020828403121561584357600080fd5b813561074f8161581c565b604051606081016001600160401b038111828210171561587e57634e487b7160e01b600052604160045260246000fd5b60405290565b6000818303608081121561589757600080fd5b604080519081016001600160401b03811182821017156158c757634e487b7160e01b600052604160045260246000fd5b60405283356158d58161581c565b81526060601f19830112156158e957600080fd5b6158f161584e565b9150602084013561590181614ef1565b8252604084013561591181614ef1565b6020830152606084013561592481614e4e565b604083015260208101919091529392505050565b6020808252602e908201527f496e697469616c697a61626c653a20636f6e747261637420697320616c72656160408201526d191e481a5b9a5d1a585b1a5e995960921b606082015260800190565b6020808252602b908201527f496e697469616c697a61626c653a20636f6e7472616374206973206e6f74206960408201526a6e697469616c697a696e6760a81b606082015260800190565b6001600160a01b03929092168252602082015260400190565b60208082526005908201526472616e676560d81b604082015260600190565b6001600160a01b03858116825284811660208301528316604082015260c081018235615a3481614ef1565b60020b60608301526020830135615a4a81614ef1565b60020b60808301526040830135615a6081614e4e565b62ffffff811660a08401525095945050505050565b8015158114614dbd57600080fd5b600060208284031215615a9557600080fd5b815161074f81615a75565b8135615aab81614ef1565b815462ffffff82811662ffffff1983161784556020850135615acc81614ef1565b8060181b9050818416935065ffffff00000091508082168465ffffffffffff198516171785556040860135615b0081614e4e565b91166001600160481b0319929092169092171760309190911b62ffffff60301b1617905550565b6000808335601e19843603018112615b3e57600080fd5b8301803591506001600160401b03821115615b5857600080fd5b6020019150600781901b3603821315614f8357600080fd5b6001600160a01b0393909316835262ffffff91909116602083015260020b604082015260600190565b6000823560be19833603018112615baf57600080fd5b9190910192915050565b6000808335601e19843603018112615bd057600080fd5b8301803591506001600160401b03821115615bea57600080fd5b602001915036819003821315614f8357600080fd5b8183823760009101908152919050565b600060208284031215615c2157600080fd5b813561074f81615a75565b600060208284031215615c3e57600080fd5b815160ff8116811461074f57600080fd5b600181815b80851115615c8a578160001904821115615c7057615c706153d5565b80851615615c7d57918102915b93841c9390800290615c54565b509250929050565b600082615ca15750600161072a565b81615cae5750600061072a565b8160018114615cc45760028114615cce57615cea565b600191505061072a565b60ff841115615cdf57615cdf6153d5565b50506001821b61072a565b5060208310610133831016604e8410600b8410161715615d0d575081810a61072a565b615d178383615c4f565b8060001904821115615d2b57615d2b6153d5565b029392505050565b600061074f60ff841683615c92565b602080825260089082015267736c69707061676560c01b604082015260600190565b6020808252600b908201526a1cddd85c0819985a5b195960aa1b604082015260600190565b6020808252600990820152686e6f742072616e676560b81b604082015260600190565b634e487b7160e01b600052601260045260246000fd5b60008060408385031215615dd557600080fd5b8251615de08161581c565b60208401519092506152308161581c565b6000816000190483118215151615615e0b57615e0b6153d5565b500290565b600082615e2d57634e487b7160e01b600052601260045260246000fd5b500490565b634e487b7160e01b600052603160045260246000fd5b60008251615baf818460208701614d4956fe17ec55bdd2fea2768d22be98ea82ce39f382d4a52ecae15d38c780f5589fa595c4e0a66e8ba7f38390072f2fdf05535dfb198760a5f3c4f29a65524e32de5c5332da8acdd01c0a59b03b09701136ec60caaffa0e94c766890f064762bd8fb1325c5a2fc161b9783402c6936b84c4ff152302bedf739d6d9167cd4789869dbe928be0079c531659141344cd1fd0a4f28419497f9722a3daafe3b4186f6b6457e0ddf252ad1be2c89b69c2b068fc378daa952ba7f163c4a11628f55a4df523b3efef8f805aa84457ce7607552537087c0f65f982bba416c42f7def196ac533d07e9db03e8799fad01acfcb097edbb56f2317078cbd4837d484116a7aeb6421d4ef3a012e06aea9a2588f812b4ead330d91697c79ed2edd8bb527465e66176f90257a1b755d6e05fd10f250732bf3c40b4d8cdcb1bf767d93696f320959ae7b5335a264697066735822122087dd80b015ac5da9a7bd3c9136c4f5875761ba4b6b107a939ffdf1f060784d7264736f6c634300080d0033",
  "deployedBytecode": "0x608060405234801561001057600080fd5b506004361061025c5760003560e01c8063065756db1461026157806306fdde031461027d578063095ea7b3146102925780630dfe1681146102b557806314b80630146102d557806318160ddd146102de57806323b872dd146102e657806326d89545146102f9578063313ce567146103235780633926ab5f146103325780633950935114610347578063397a877e1461035a5780633cbff3fe1461036f5780633f7b61351461038257806342fb9d4414610395578063481c6a751461039e5780634b164140146103b15780634e380ab4146103c457806354fd4d50146103d757806356d9b051146103fb5780635f59dce51461040e5780635fdecdfa14610416578063670f13a11461043857806370a0823114610462578063715018a61461048b5780637ecd67171461049357806386ac1cb91461049b5780638c04166f146104ae5780638da5cb5b146104c45780638daf0ce4146104cc57806394bf804d146104df57806395d89b4114610500578063a457c2d714610508578063a9059cbb1461051b578063ad1b78b41461052e578063b9f24cb214610536578063bbfe704e1461055d578063c45a015514610566578063c70750411461058d578063d0ebdbe7146105a8578063d21220a7146105bb578063d3487997146105ce578063d839fb3f146105e1578063d8953ca7146105ea578063dc9ad4c1146105f3578063dd40e322146105fb578063dd62ed3e14610609578063e7c7cb911461061c578063f2eb3e3414610642578063f2fde38b1461064b578063f4effe411461065e578063fa461e3314610671575b600080fd5b61026a609f5481565b6040519081526020015b60405180910390f35b610285610684565b6040516102749190614d75565b6102a56102a0366004614dc0565b610716565b6040519015158152602001610274565b6097546102c8906001600160a01b031681565b6040516102749190614df9565b61026a60995481565b60355461026a565b6102a56102f4366004614e0d565b610730565b60a15461030f90600160281b900462ffffff1681565b60405162ffffff9091168152602001610274565b60405160128152602001610274565b610345610340366004614e5f565b610756565b005b6102a5610355366004614dc0565b6107df565b610362610801565b6040516102749190614ea3565b61034561037d366004614f00565b610881565b610345610390366004614f1d565b6108fd565b61026a60a05481565b609e546102c8906001600160a01b031681565b6103456103bf366004614f8a565b61098b565b6103456103d2366004614e5f565b610afe565b610285604051806040016040528060058152602001640312e302e360dc1b81525081565b61034561040936600461500c565b610b73565b610345611339565b6104296104243660046150a7565b6113d2565b604051610274939291906150c0565b61044b6104463660046150fa565b61140e565b604080519215158352602083019190915201610274565b61026a610470366004615116565b6001600160a01b031660009081526033602052604090205490565b610345611504565b61034561156b565b6103456104a9366004614f8a565b6115fd565b60a15461030f90600160401b900462ffffff1681565b6102c8611675565b6103456104da366004615177565b611684565b6104f26104ed36600461520b565b6116e8565b60405161027492919061523b565b610285611a3a565b6102a5610516366004614dc0565b611a49565b6102a5610529366004614dc0565b611acf565b609b5461026a565b6102c87f000000000000000000000000000000000000000000000000000000000000000081565b61026a609d5481565b6102c87f000000000000000000000000000000000000000000000000000000000000000081565b61059560fa81565b60405161ffff9091168152602001610274565b6103456105b6366004615116565b611add565b6098546102c8906001600160a01b031681565b6103456105dc366004615249565b611b4d565b610595612b6781565b61026a609c5481565b610345611bb4565b60a1546105959061ffff1681565b61026a61061736600461529b565b611c7b565b60a15461062f9062010000900460020b81565b60405160029190910b8152602001610274565b61026a609a5481565b610345610659366004615116565b611ca6565b6104f261066c3660046152c9565b611d83565b61034561067f366004615249565b612758565b60606036805461069390615356565b80601f01602080910402602001604051908101604052809291908181526020018280546106bf90615356565b801561070c5780601f106106e15761010080835404028352916020019161070c565b820191906000526020600020905b8154815290600101906020018083116106ef57829003601f168201915b5050505050905090565b6000336107248185856127c4565b60019150505b92915050565b60003361073e8582856128e8565b61074985858561295c565b60019150505b9392505050565b3361075f611675565b6001600160a01b03161461078e5760405162461bcd60e51b81526004016107859061538a565b60405180910390fd5b60a1805462ffffff838116600160281b90810262ffffff60281b198416179093556040513093600080516020615f7b833981519152936107d493919004169085906153bf565b60405180910390a250565b6000336107248185856107f28383611c7b565b6107fc91906153eb565b6127c4565b6060609b805480602002602001604051908101604052809291908181526020016000905b828210156108785760008481526020908190206040805160608101825291850154600281810b845263010000008204900b83850152600160301b900462ffffff1690820152825260019092019101610825565b50505050905090565b3361088a611675565b6001600160a01b0316146108b05760405162461bcd60e51b81526004016107859061538a565b60a1805462ffffff83166201000090810264ffffff0000198316179092556040805192909104600290810b835283900b60208301523091600080516020615f5b83398151915291016107d4565b33610906611675565b6001600160a01b03161461092c5760405162461bcd60e51b81526004016107859061538a565b6035541561094c5760405162461bcd60e51b815260040161078590615403565b306001600160a01b0316600080516020615f3b83398151915283609981905583609a81905560405161097f92919061523b565b60405180910390a25050565b33610994611675565b6001600160a01b0316146109ba5760405162461bcd60e51b81526004016107859061538a565b60005b81811015610ac25760008383838181106109d9576109d9615429565b90506020020160208101906109ee9190615116565b6001600160a01b031603610a145760405162461bcd60e51b81526004016107859061543f565b610a46838383818110610a2957610a29615429565b9050602002016020810190610a3e9190615116565b60a290612b18565b610a7d5760405162461bcd60e51b81526020600482015260086024820152671b9bdd081c1bdbdb60c21b6044820152606401610785565b610aaf838383818110610a9257610a92615429565b9050602002016020810190610aa79190615116565b60a290612b2d565b5080610aba81615465565b9150506109bd565b50306001600160a01b03167f834653da59f4b6941a549cf8587f1cebaaec073ee6922117339ba04f2abe6e65838360405161097f92919061547e565b33610b07611675565b6001600160a01b031614610b2d5760405162461bcd60e51b81526004016107859061538a565b60a1805462ffffff838116600160401b90810262ffffff60401b198416179093556040513093600080516020615e7b833981519152936107d493919004169085906153bf565b6000610b7f6001612b42565b90508015610b9b576000805460ff60a81b1916600160a81b1790555b6000610ba783806154cc565b905011610be45760405162461bcd60e51b815260206004820152600b60248201526a3737903332b2903a34b2b960a91b6044820152606401610785565b6000610bf66040840160208501615116565b6001600160a01b031603610c355760405162461bcd60e51b81526020600482015260066024820152650746f6b656e360d41b6044820152606401610785565b6000610c476060840160408501615116565b6001600160a01b031603610c865760405162461bcd60e51b8152602060048201526006602482015265746f6b656e3160d01b6044820152606401610785565b6000826080013511610cc25760405162461bcd60e51b81526020600482015260056024820152640696e6974360dc1b6044820152606401610785565b60008260a0013511610cfe5760405162461bcd60e51b8152602060048201526005602482015264696e69743160d81b6044820152606401610785565b6000610d1261014084016101208501614e5f565b62ffffff1611610d555760405162461bcd60e51b815260206004820152600e60248201526d06d617820736c69707061676520360941b6044820152606401610785565b6000610d6760e0840160c08501615116565b6001600160a01b031603610db75760405162461bcd60e51b815260206004820152601760248201527637379020b2323932b9b9902d32b9379026b0b730b3b2b960491b6044820152606401610785565b6000610dca610100840160e08501614f00565b60020b13610dea5760405162461bcd60e51b815260040161078590615515565b6000610dfe61012084016101008501614e5f565b62ffffff1611610e205760405162461bcd60e51b815260040161078590615515565b6000309050610e9887878080601f01602080910402602001604051908101604052809392919081815260200183838082843760009201919091525050604080516020601f8b018190048102820181019092528981529250899150889081908401838280828437600092019190915250612be492505050565b610ea0612c1b565b60005b610ead84806154cc565b905081101561102b5760006001600160a01b037f000000000000000000000000000000000000000000000000000000000000000016631698ee82610ef76040880160208901615116565b610f076060890160408a01615116565b610f1189806154cc565b87818110610f2157610f21615429565b9050602002016020810190610f369190614e5f565b6040518463ffffffff1660e01b8152600401610f549392919061553f565b602060405180830381865afa158015610f71573d6000803e3d6000fd5b505050506040513d601f19601f82011682018060405250810190610f959190615567565b90506001600160a01b038116610fe35760405162461bcd60e51b81526020600482015260136024820152721c1bdbdb08191bd95cc81b9bdd08195e1a5cdd606a1b6044820152606401610785565b610fee60a282612b18565b1561100b5760405162461bcd60e51b815260040161078590615584565b61101660a282612c4e565b5050808061102390615465565b915050610ea3565b5061103c6040840160208501615116565b609780546001600160a01b0319166001600160a01b039290921691909117905561106c6060840160408501615116565b609880546001600160a01b0319166001600160a01b039290921691909117905561109c6080840160608501615116565b600080546001600160a01b0319166001600160a01b03929092169190911790556110cc60e0840160c08501615116565b609e80546001600160a01b0319166001600160a01b039283161790558116600080516020615e5b83398151915261110385806154cc565b6040516111119291906155a2565b60405180910390a2806001600160a01b0316600080516020615f3b833981519152846080013560998190558560a00135609a81905560405161115492919061523b565b60405180910390a26001600160a01b038116600080516020615f1b833981519152600061118760e0870160c08801615116565b6040516111959291906155e1565b60405180910390a260a1546001600160a01b03821690600080516020615f5b8339815191529062010000900460020b6111d5610100870160e08801614f00565b60a1805464ffffff000019166201000062ffffff84160217905560408051600293840b81529190920b60208201520160405180910390a260a1546001600160a01b03821690600080516020615f7b83398151915290600160281b900462ffffff1661124861012087016101008801614e5f565b60a1805462ffffff60281b1916600160281b62ffffff8416021790556040516112729291906153bf565b60405180910390a260a1546001600160a01b03821690600080516020615e7b83398151915290600160401b900462ffffff166112b661014087016101208801614e5f565b60a1805462ffffff60401b1916600160401b62ffffff8416021790556040516112e09291906153bf565b60405180910390a2508015611331576000805460ff60a81b19169055604051600181527f7f26b83ff96e1f2b6a682f133852f6798a09c465da95921460cefb38474024989060200160405180910390a15b505050505050565b609e546001600160a01b031633146113635760405162461bcd60e51b8152600401610785906155fb565b60a15461ffff16612b6619016113835760a1805461ffff19169055611393565b60a1805461ffff1916612b671790555b60a15460405161ffff909116815230907f997aead5e1b44b8a7bff5b31972e84adbfc3311a188f75619b2edb6fea7abc7f9060200160405180910390a2565b609b81815481106113e257600080fd5b600091825260209091200154600281810b925063010000008204900b90600160301b900462ffffff1683565b60008060005b609b548110156114fe57609b818154811061143157611431615429565b6000918252602091829020015460020b9061144e90860186614f00565b60020b1480156114995750609b818154811061146c5761146c615429565b600091825260209182902001546301000000900460020b906114949060408701908701614f00565b60020b145b80156114e25750609b81815481106114b3576114b3615429565b600091825260209091200154600160301b900462ffffff166114db6060860160408701614e5f565b62ffffff16145b9250809150826114fe57806114f681615465565b915050611414565b50915091565b3361150d611675565b6001600160a01b0316146115335760405162461bcd60e51b81526004016107859061538a565b600080546040516001600160a01b0390911690600080516020615edb833981519152908390a3600080546001600160a01b0319169055565b609f805460a080546000938490559290559081156115a057609e546097546115a0916001600160a01b03918216911684612c63565b80156115c357609e546098546115c3916001600160a01b03918216911683612c63565b306001600160a01b03167ece17cafd473b3e1e2e536ddc92e042d8e5422bafcb79580aedfe243ac68729838360405161097f92919061523b565b33611606611675565b6001600160a01b03161461162c5760405162461bcd60e51b81526004016107859061538a565b60975460985461164c91849184916001600160a01b039081169116612cbe565b306001600160a01b0316600080516020615e5b833981519152838360405161097f9291906155a2565b6000546001600160a01b031690565b609e546001600160a01b031633146116ae5760405162461bcd60e51b8152600401610785906155fb565b6097546098546116ce91879187916001600160a01b039081169116612df2565b6116d7836130a1565b6116e18282613ed4565b5050505050565b60008060026065540361170d5760405162461bcd60e51b81526004016107859061561f565b600260655560a15461ffff16612b671415806117335750609e546001600160a01b031633145b61176c5760405162461bcd60e51b815260206004820152600a6024820152691c995cdd1c9a58dd195960b21b6044820152606401610785565b600084116117aa5760405162461bcd60e51b815260206004820152600b60248201526a1b5a5b9d08185b5bdd5b9d60aa1b6044820152606401610785565b3060006117b660355490565b9050600080600080600085116117d457609954609a54600080611929565b73__$3d23d8578387a47facd93bb77f6fe6e81b$__63e56f4d916040518060a00160405280609b805480602002602001604051908101604052809291908181526020016000905b8282101561186e5760008481526020908190206040805160608101825291850154600281810b845263010000008204900b83850152600160301b900462ffffff169082015282526001909201910161181b565b505050908252506001600160a01b037f000000000000000000000000000000000000000000000000000000000000000081166020830152609754811660408084019190915260985482166060840152908b16608090920191909152516001600160e01b031960e084901b1681526118e89190600401615656565b608060405180830381865af4158015611905573d6000803e3d6000fd5b505050506040513d601f19601f8201168201806040525081019061192991906156fd565b9350935093509350600080861161194857670de0b6b3a764000061194a565b855b90506119578b8683613f59565b98506119648b8583613f59565b97506119708a8c613fa2565b881561198e5760975461198e906001600160a01b031633898c61406f565b87156119ac576098546119ac906001600160a01b031633898b61406f565b866001600160a01b0316600080516020615e9b83398151915284846040516119d592919061523b565b60405180910390a2866001600160a01b03167f3a726725a45f02ba253c4b8a98c646c5a795d697efcd821da95c673e9dd7de8e8b8d8c8c604051611a1c9493929190615733565b60405180910390a25050505050505060016065819055509250929050565b60606037805461069390615356565b60003381611a578286611c7b565b905083811015611ab75760405162461bcd60e51b815260206004820152602560248201527f45524332303a2064656372656173656420616c6c6f77616e63652062656c6f77604482015264207a65726f60d81b6064820152608401610785565b611ac482868684036127c4565b506001949350505050565b60003361072481858561295c565b33611ae6611675565b6001600160a01b031614611b0c5760405162461bcd60e51b81526004016107859061538a565b609e80546001600160a01b038381166001600160a01b03198316179092556040513092600080516020615f1b833981519152926107d49291169085906155e1565b611b5860a233612b18565b611b745760405162461bcd60e51b815260040161078590615759565b8315611b9157609754611b91906001600160a01b03163386612c63565b8215611bae57609854611bae906001600160a01b03163385612c63565b50505050565b609c8054609d8054600093849055929055908115611c0357609754611c03906001600160a01b03167f000000000000000000000000000000000000000000000000000000000000000084612c63565b8015611c4057609854611c40906001600160a01b03167f000000000000000000000000000000000000000000000000000000000000000083612c63565b306001600160a01b03167f30d3075d5b66b5f76224a4d20775f835cef3a025227dca6c54335cee15b5ed79838360405161097f92919061523b565b6001600160a01b03918216600090815260346020908152604080832093909416825291909152205490565b33611caf611675565b6001600160a01b031614611cd55760405162461bcd60e51b81526004016107859061538a565b6001600160a01b038116611d3a5760405162461bcd60e51b815260206004820152602660248201527f4f776e61626c653a206e6577206f776e657220697320746865207a65726f206160448201526564647265737360d01b6064820152608401610785565b600080546040516001600160a01b0380851693921691600080516020615edb83398151915291a3600080546001600160a01b0319166001600160a01b0392909216919091179055565b600080600260655403611da85760405162461bcd60e51b81526004016107859061561f565b60026065556000611db860355490565b905060008111611dda5760405162461bcd60e51b815260040161078590615403565b611e136040518060c001604052806000815260200160008152602001600081526020016000815260200160008152602001600081525090565b73__$3d23d8578387a47facd93bb77f6fe6e81b$__63e56f4d916040518060a00160405280609b805480602002602001604051908101604052809291908181526020016000905b82821015611ead5760008481526020908190206040805160608101825291850154600281810b845263010000008204900b83850152600160301b900462ffffff1690820152825260019092019101611e5a565b505050908252506001600160a01b037f0000000000000000000000000000000000000000000000000000000000000000811660208301526097548116604080840191909152609854909116606083015230608090920191909152516001600160e01b031960e084901b168152611f269190600401615656565b608060405180830381865af4158015611f43573d6000803e3d6000fd5b505050506040513d601f19601f82011682018060405250810190611f6791906156fd565b6060850152604080850191909152602084019190915290825260975490516370a0823160e01b81526001600160a01b03909116906370a0823190611faf903090600401614df9565b602060405180830381865afa158015611fcc573d6000803e3d6000fd5b505050506040513d601f19601f82011682018060405250810190611ff09190615782565b60808201526098546040516370a0823160e01b81526001600160a01b03909116906370a0823190612025903090600401614df9565b602060405180830381865afa158015612042573d6000803e3d6000fd5b505050506040513d601f19601f820116820180604052508101906120669190615782565b8160a001818152505060008073__$30ef26875820c516a3c36c5c0a5fd73943$__636d50cdaf84604001518560600151609e60009054906101000a90046001600160a01b03166001600160a01b031663ccdf7a026040518163ffffffff1660e01b8152600401602060405180830381865afa1580156120e9573d6000803e3d6000fd5b505050506040513d601f19601f8201168201806040525081019061210d919061579b565b60fa6040518563ffffffff1660e01b815260040161212e94939291906157bf565b6040805180830381865af415801561214a573d6000803e3d6000fd5b505050506040513d601f19601f8201168201806040525081019061216e91906157e1565b915091508183604001516121829190615805565b83518490612191908390615805565b90525060608301516121a4908290615805565b836020018181516121b59190615805565b9052505081516121c7915087846140a7565b93506121d8816020015187846140a7565b9250838160800151101580156121f25750828160a0015110155b15612277576122013387614155565b831561221e5760975461221e906001600160a01b03168686612c63565b821561223b5760985461223b906001600160a01b03168685612c63565b306001600160a01b0316600080516020615ebb833981519152868887876040516122689493929190615733565b60405180910390a25050612748565b866122ac5760405162461bcd60e51b81526020600482015260056024820152646275726e7360d81b6044820152606401610785565b6122b63387614155565b6122be614c88565b60005b8881101561253a578989828181106122db576122db615429565b6122f19260206080909202019081019150615831565b6001600160801b0316600003612331576123318a8a8381811061231657612316615429565b90506080020180360381019061232c9190615884565b614291565b6097546098546000916001600160a01b037f0000000000000000000000000000000000000000000000000000000000000000811692631698ee8292821691168e8e8781811061238257612382615429565b612399926080918202019081019150606001614e5f565b6040518463ffffffff1660e01b81526004016123b79392919061553f565b602060405180830381865afa1580156123d4573d6000803e3d6000fd5b505050506040513d601f19601f820116820180604052508101906123f89190615567565b905061240560a282612b18565b61243a5761243a8b8b8481811061241e5761241e615429565b612435926080918202019081019150606001614e5f565b6142bd565b60006124c3828d8d8681811061245257612452615429565b61246b9260406080909202019081019150602001614f00565b8e8e8781811061247d5761247d615429565b6124969260606080909202019081019150604001614f00565b8f8f888181106124a8576124a8615429565b6124be9260206080909202019081019150615831565b6142dd565b90508060400151846040018181516124db91906153eb565b90525060608082015190850180516124f49083906153eb565b9052508051845185906125089083906153eb565b90525060208082015190850180516125219083906153eb565b905250829150612532905081615465565b9150506122c1565b5061254d8160400151826060015161461a565b73__$30ef26875820c516a3c36c5c0a5fd73943$__636d50cdaf82604001518360600151609e60009054906101000a90046001600160a01b03166001600160a01b031663ccdf7a026040518163ffffffff1660e01b8152600401602060405180830381865afa1580156125c4573d6000803e3d6000fd5b505050506040513d601f19601f820116820180604052508101906125e8919061579b565b60fa6040518563ffffffff1660e01b815260040161260994939291906157bf565b6040805180830381865af4158015612625573d6000803e3d6000fd5b505050506040513d601f19601f8201168201806040525081019061264991906157e1565b60608301526040820152841561267057609754612670906001600160a01b03168787612c63565b831561268d5760985461268d906001600160a01b03168786612c63565b8051602080830151604080513381529283019390935281830152905130917f37d0344f9c2e3a1b262004ad8a4d25955dc9223dd2f39eb7c70d57fa8481df54919081900360600190a2306001600160a01b0316600080516020615e9b8339815191528260400151836060015160405161270792919061523b565b60405180910390a2306001600160a01b0316600080516020615ebb8339815191528789888860405161273c9493929190615733565b60405180910390a25050505b6001606555909590945092505050565b61276360a233612b18565b61277f5760405162461bcd60e51b815260040161078590615759565b60008413156127a45760975461279f906001600160a01b03163386612c63565b611bae565b6000831315611bae57609854611bae906001600160a01b03163385612c63565b6001600160a01b0383166128265760405162461bcd60e51b8152602060048201526024808201527f45524332303a20617070726f76652066726f6d20746865207a65726f206164646044820152637265737360e01b6064820152608401610785565b6001600160a01b0382166128875760405162461bcd60e51b815260206004820152602260248201527f45524332303a20617070726f766520746f20746865207a65726f206164647265604482015261737360f01b6064820152608401610785565b6001600160a01b0383811660008181526034602090815260408083209487168084529482529182902085905590518481527f8c5be1e5ebec7d5bd14f71427d1e84f3dd0314c0f7b2291e5b200ac8c7c3b925910160405180910390a3505050565b60006128f48484611c7b565b90506000198114611bae578181101561294f5760405162461bcd60e51b815260206004820152601d60248201527f45524332303a20696e73756666696369656e7420616c6c6f77616e63650000006044820152606401610785565b611bae84848484036127c4565b6001600160a01b0383166129c05760405162461bcd60e51b815260206004820152602560248201527f45524332303a207472616e736665722066726f6d20746865207a65726f206164604482015264647265737360d81b6064820152608401610785565b6001600160a01b038216612a225760405162461bcd60e51b815260206004820152602360248201527f45524332303a207472616e7366657220746f20746865207a65726f206164647260448201526265737360e81b6064820152608401610785565b6001600160a01b03831660009081526033602052604090205481811015612a9a5760405162461bcd60e51b815260206004820152602660248201527f45524332303a207472616e7366657220616d6f756e7420657863656564732062604482015265616c616e636560d01b6064820152608401610785565b6001600160a01b03808516600090815260336020526040808220858503905591851681529081208054849290612ad19084906153eb565b92505081905550826001600160a01b0316846001600160a01b0316600080516020615efb83398151915284604051612b0b91815260200190565b60405180910390a3611bae565b600061074f836001600160a01b038416614750565b600061074f836001600160a01b038416614768565b60008054600160a81b900460ff1615612b92578160ff166001148015612b6e5750612b6c3061485b565b155b612b8a5760405162461bcd60e51b815260040161078590615938565b506000919050565b60005460ff808416600160a01b9092041610612bc05760405162461bcd60e51b815260040161078590615938565b506000805460ff909216600160a01b0260ff60a01b19909216919091179055600190565b600054600160a81b900460ff16612c0d5760405162461bcd60e51b815260040161078590615986565b612c17828261486a565b5050565b600054600160a81b900460ff16612c445760405162461bcd60e51b815260040161078590615986565b612c4c6148ba565b565b600061074f836001600160a01b0384166148ea565b612cb98363a9059cbb60e01b8484604051602401612c829291906159d1565b60408051601f198184030181529190526020810180516001600160e01b03166001600160e01b031990931692909217909152614934565b505050565b60005b838110156116e15760007f00000000000000000000000000000000000000000000000000000000000000006001600160a01b0316631698ee828585898987818110612d0e57612d0e615429565b9050602002016020810190612d239190614e5f565b6040518463ffffffff1660e01b8152600401612d419392919061553f565b602060405180830381865afa158015612d5e573d6000803e3d6000fd5b505050506040513d601f19601f82011682018060405250810190612d829190615567565b90506001600160a01b038116612daa5760405162461bcd60e51b81526004016107859061543f565b612db560a282612b18565b15612dd25760405162461bcd60e51b815260040161078590615584565b612ddd60a282612c4e565b50508080612dea90615465565b915050612cc1565b60005b838110156116e1576000612e1f868684818110612e1457612e14615429565b90506060020161140e565b5090508015612e405760405162461bcd60e51b8152600401610785906159ea565b60007f00000000000000000000000000000000000000000000000000000000000000006001600160a01b0316631698ee8286868a8a88818110612e8557612e85615429565b9050606002016040016020810190612e9d9190614e5f565b6040518463ffffffff1660e01b8152600401612ebb9392919061553f565b602060405180830381865afa158015612ed8573d6000803e3d6000fd5b505050506040513d601f19601f82011682018060405250810190612efc9190615567565b90506001600160a01b038116612f525760405162461bcd60e51b815260206004820152601b60248201527a1d5b9a5cddd85c081c1bdbdb08191bd95cc81b9bdd08195e1a5cdd602a1b6044820152606401610785565b612f5d60a282612b18565b612f795760405162461bcd60e51b815260040161078590615584565b73__$57c880716d25c772e0b1e547659075b66d$__63143e56407f000000000000000000000000000000000000000000000000000000000000000087878b8b89818110612fc857612fc8615429565b9050606002016040518563ffffffff1660e01b8152600401612fed9493929190615a09565b602060405180830381865af415801561300a573d6000803e3d6000fd5b505050506040513d601f19601f8201168201806040525081019061302e9190615a83565b61304a5760405162461bcd60e51b8152600401610785906159ea565b609b87878581811061305e5761305e615429565b8354600181018555600094855260209094206060909102929092019291909101905061308a8282615aa0565b50505050808061309990615465565b915050612df5565b6002606554036130c35760405162461bcd60e51b81526004016107859061561f565b6002606555600080805b6130d78480615b27565b9050811015613324576097546098546000916001600160a01b037f0000000000000000000000000000000000000000000000000000000000000000811692631698ee8292821691166131298980615b27565b8781811061313957613139615429565b613150926080918202019081019150606001614e5f565b6040518463ffffffff1660e01b815260040161316e9392919061553f565b602060405180830381865afa15801561318b573d6000803e3d6000fd5b505050506040513d601f19601f820116820180604052508101906131af9190615567565b9050806131bd60a282612b18565b6131de576131de6131ce8780615b27565b8581811061241e5761241e615429565b60a15460405163db46de5360e01b815273__$fa5a18c13b4d815a743b91389b9a36db0f$__9163db46de539161322f91859162ffffff600160281b8304169162010000900460020b90600401615b70565b60006040518083038186803b15801561324757600080fd5b505af415801561325b573d6000803e3d6000fd5b50600092506132e891508390506132728980615b27565b8781811061328257613282615429565b61329b9260406080909202019081019150602001614f00565b6132a58a80615b27565b888181106132b5576132b5615429565b6132ce9260606080909202019081019150604001614f00565b6132d88b80615b27565b898181106124a8576124a8615429565b90508060400151866132fa91906153eb565b955080606001518561330c91906153eb565b9450505050808061331c90615465565b9150506130cd565b5060008211806133345750600081115b1561347957613343828261461a565b73__$30ef26875820c516a3c36c5c0a5fd73943$__636d50cdaf8383609e60009054906101000a90046001600160a01b03166001600160a01b031663ccdf7a026040518163ffffffff1660e01b8152600401602060405180830381865afa1580156133b2573d6000803e3d6000fd5b505050506040513d601f19601f820116820180604052508101906133d6919061579b565b60fa6040518563ffffffff1660e01b81526004016133f794939291906157bf565b6040805180830381865af4158015613413573d6000803e3d6000fd5b505050506040513d601f19601f8201168201806040525081019061343791906157e1565b604051919350915030907f980ed0c388019eb16a88cc6b84fd29d73f8425e4ba59b30c763f338d5697e36690613470908590859061523b565b60405180910390a25b60006134886040850185615b99565b606001351115613bae576134b36134a26040850185615b99565b610a3e906040810190602001615116565b156134ea5760405162461bcd60e51b81526020600482015260076024820152661b9bc81c1bdbdb60ca1b6044820152606401610785565b6097546040516370a0823160e01b81526000916001600160a01b0316906370a082319061351b903090600401614df9565b602060405180830381865afa158015613538573d6000803e3d6000fd5b505050506040513d601f19601f8201168201806040525081019061355c9190615782565b6098546040516370a0823160e01b81529192506000916001600160a01b03909116906370a0823190613592903090600401614df9565b602060405180830381865afa1580156135af573d6000803e3d6000fd5b505050506040513d601f19601f820116820180604052508101906135d39190615782565b905061360a6135e56040870187615b99565b6135f6906060810190604001615116565b6097546001600160a01b0316906000614a06565b61363f61361a6040870187615b99565b61362b906060810190604001615116565b6098546001600160a01b0316906000614a06565b61367361364f6040870187615b99565b613660906060810190604001615116565b6097546001600160a01b03169084614a06565b6136a76136836040870187615b99565b613694906060810190604001615116565b6098546001600160a01b03169083614a06565b60006136b66040870187615b99565b6136c7906060810190604001615116565b6001600160a01b03166136dd6040880188615b99565b6136e79080615bb9565b6040516136f5929190615bff565b6000604051808303816000865af19150503d8060008114613732576040519150601f19603f3d011682016040523d82523d6000602084013e613737565b606091505b50509050806137715760405162461bcd60e51b8152600401610785906020808252600490820152630737761760e41b604082015260600190565b6137816135e56040880188615b99565b61379161361a6040880188615b99565b6097546040516370a0823160e01b81526000916001600160a01b0316906370a08231906137c2903090600401614df9565b602060405180830381865afa1580156137df573d6000803e3d6000fd5b505050506040513d601f19601f820116820180604052508101906138039190615782565b6098546040516370a0823160e01b81529192506000916001600160a01b03909116906370a0823190613839903090600401614df9565b602060405180830381865afa158015613856573d6000803e3d6000fd5b505050506040513d601f19601f8201168201806040525081019061387a9190615782565b90506138896040890189615b99565b61389a9060c081019060a001615c0f565b15613a9b5761396e73__$fa5a18c13b4d815a743b91389b9a36db0f$__639ff4c50d6138c960408c018c615b99565b6138da906040810190602001615116565b60a1546040516001600160e01b031960e085901b1681526001600160a01b03909216600483015262ffffff600160281b909104166024820152604401602060405180830381865af4158015613933573d6000803e3d6000fd5b505050506040513d601f19601f820116820180604052508101906139579190615782565b60a154600160401b900462ffffff166127106140a7565b613a1a61397e60408b018b615b99565b60800135609760009054906101000a90046001600160a01b03166001600160a01b031663313ce5676040518163ffffffff1660e01b8152600401602060405180830381865afa1580156139d5573d6000803e3d6000fd5b505050506040513d601f19601f820116820180604052508101906139f99190615c2c565b613a0490600a615d33565b613a1160408d018d615b99565b606001356140a7565b11613a375760405162461bcd60e51b815260040161078590615d42565b613a446040890189615b99565b613a529060800135856153eb565b8110158015613a7a5750613a696040890189615b99565b613a77906060013586615805565b82145b613a965760405162461bcd60e51b815260040161078590615d64565b613ba8565b613ac573__$fa5a18c13b4d815a743b91389b9a36db0f$__630578711c6138c960408c018c615b99565b613b2c613ad560408b018b615b99565b60800135609860009054906101000a90046001600160a01b03166001600160a01b031663313ce5676040518163ffffffff1660e01b8152600401602060405180830381865afa1580156139d5573d6000803e3d6000fd5b11613b495760405162461bcd60e51b815260040161078590615d42565b613b566040890189615b99565b613b649060800135866153eb565b8210158015613b8c5750613b7b6040890189615b99565b613b89906060013585615805565b81145b613ba85760405162461bcd60e51b815260040161078590615d64565b50505050505b60005b613bbe6020850185615b27565b9050811015613ec9576097546098546000916001600160a01b037f0000000000000000000000000000000000000000000000000000000000000000811692631698ee829282169116613c1360208a018a615b27565b87818110613c2357613c23615429565b613c3a926080918202019081019150606001614e5f565b6040518463ffffffff1660e01b8152600401613c589392919061553f565b602060405180830381865afa158015613c75573d6000803e3d6000fd5b505050506040513d601f19601f82011682018060405250810190613c999190615567565b90506000613ccb613cad6020880188615b27565b85818110613cbd57613cbd615429565b90506080020160200161140e565b50905080613ceb5760405162461bcd60e51b815260040161078590615d89565b60a15460405163db46de5360e01b815273__$fa5a18c13b4d815a743b91389b9a36db0f$__9163db46de5391613d3c91869162ffffff600160281b8304169162010000900460020b90600401615b70565b60006040518083038186803b158015613d5457600080fd5b505af4158015613d68573d6000803e3d6000fd5b5050506001600160a01b0383169050633c8a7d8d30613d8a60208a018a615b27565b87818110613d9a57613d9a615429565b613db39260406080909202019081019150602001614f00565b613dc060208b018b615b27565b88818110613dd057613dd0615429565b613de99260606080909202019081019150604001614f00565b613df660208c018c615b27565b89818110613e0657613e06615429565b613e1c9260206080909202019081019150615831565b6040516001600160e01b031960e087901b1681526001600160a01b039094166004850152600292830b6024850152910b60448301526001600160801b0316606482015260a06084820152600060a482015260c40160408051808303816000875af1158015613e8e573d6000803e3d6000fd5b505050506040513d601f19601f82011682018060405250810190613eb291906157e1565b505050508080613ec190615465565b915050613bb1565b505060016065555050565b60005b81811015612cb957600080613ef7858585818110612e1457612e14615429565b9150915081613f185760405162461bcd60e51b815260040161078590615d89565b609b8181548110613f2b57613f2b615429565b600091825260209091200180546001600160481b031916905550819050613f5181615465565b915050613ed7565b6000613f668484846140a7565b905060008280613f7857613f78615dac565b848609111561074f576000198110613f8f57600080fd5b80613f9981615465565b95945050505050565b6001600160a01b038216613ff85760405162461bcd60e51b815260206004820152601f60248201527f45524332303a206d696e7420746f20746865207a65726f2061646472657373006044820152606401610785565b806035600082825461400a91906153eb565b90915550506001600160a01b038216600090815260336020526040812080548392906140379084906153eb565b90915550506040518181526001600160a01b03831690600090600080516020615efb8339815191529060200160405180910390a35050565b6040516001600160a01b0380851660248301528316604482015260648101829052611bae9085906323b872dd60e01b90608401612c82565b60008080600019858709858702925082811083820303915050806000036140e057600084116140d557600080fd5b50829004905061074f565b8084116140ec57600080fd5b60008486880960026001871981018816978890046003810283188082028403028082028403028082028403028082028403028082028403029081029092039091026000889003889004909101858311909403939093029303949094049190911702949350505050565b6001600160a01b0382166141b55760405162461bcd60e51b815260206004820152602160248201527f45524332303a206275726e2066726f6d20746865207a65726f206164647265736044820152607360f81b6064820152608401610785565b6001600160a01b038216600090815260336020526040902054818110156142295760405162461bcd60e51b815260206004820152602260248201527f45524332303a206275726e20616d6f756e7420657863656564732062616c616e604482015261636560f01b6064820152608401610785565b6001600160a01b0383166000908152603360205260408120838303905560358054849290614258908490615805565b90915550506040518281526000906001600160a01b03851690600080516020615efb8339815191529060200160405180910390a3505050565b602080820151805191810151604091820151915163c79201a360e01b81526107859392906004016150c0565b604051634cb235d760e11b815262ffffff82166004820152602401610785565b6142e5614c88565b6097546040516370a0823160e01b81526000916001600160a01b0316906370a0823190614316903090600401614df9565b602060405180830381865afa158015614333573d6000803e3d6000fd5b505050506040513d601f19601f820116820180604052508101906143579190615782565b6098546040516370a0823160e01b81529192506000916001600160a01b03909116906370a082319061438d903090600401614df9565b602060405180830381865afa1580156143aa573d6000803e3d6000fd5b505050506040513d601f19601f820116820180604052508101906143ce9190615782565b60405163a34123a760e01b8152600288810b600483015287900b60248201526001600160801b03861660448201529091506001600160a01b0388169063a34123a79060640160408051808303816000875af1158015614431573d6000803e3d6000fd5b505050506040513d601f19601f8201168201806040525081019061445591906157e1565b602085015283526040516309e3d67b60e31b8152306004820152600287810b602483015286900b60448201526001600160801b036064820181905260848201526001600160a01b03881690634f1eb3d89060a40160408051808303816000875af11580156144c7573d6000803e3d6000fd5b505050506040513d601f19601f820116820180604052508101906144eb9190615dc2565b505082516097546040516370a0823160e01b815284916001600160a01b0316906370a082319061451f903090600401614df9565b602060405180830381865afa15801561453c573d6000803e3d6000fd5b505050506040513d601f19601f820116820180604052508101906145609190615782565b61456a9190615805565b6145749190615805565b604080850191909152602084015160985491516370a0823160e01b8152909183916001600160a01b03909116906370a08231906145b5903090600401614df9565b602060405180830381865afa1580156145d2573d6000803e3d6000fd5b505050506040513d601f19601f820116820180604052508101906145f69190615782565b6146009190615805565b61460a9190615805565b6060840152509095945050505050565b609e546040805163666fbd0160e11b815290516000926001600160a01b03169163ccdf7a029160048083019260209291908290030181865afa158015614664573d6000803e3d6000fd5b505050506040513d601f19601f82011682018060405250810190614688919061579b565b905061271061469b61ffff831685615df1565b6146a59190615e10565b609f60008282546146b691906153eb565b9091555061271090506146cd61ffff831684615df1565b6146d79190615e10565b60a060008282546146e891906153eb565b9091555061271090506146fc60fa85615df1565b6147069190615e10565b609c600082825461471791906153eb565b90915550612710905061472b60fa84615df1565b6147359190615e10565b609d600082825461474691906153eb565b9091555050505050565b60009081526001919091016020526040902054151590565b6000818152600183016020526040812054801561485157600061478c600183615805565b85549091506000906147a090600190615805565b90508181146148055760008660000182815481106147c0576147c0615429565b90600052602060002001549050808760000184815481106147e3576147e3615429565b6000918252602080832090910192909255918252600188019052604090208390555b855486908061481657614816615e32565b60019003818190600052602060002001600090559055856001016000868152602001908152602001600020600090556001935050505061072a565b600091505061072a565b6001600160a01b03163b151590565b600054600160a81b900460ff166148935760405162461bcd60e51b815260040161078590615986565b81516148a6906036906020850190614cb0565b508051612cb9906037906020840190614cb0565b600054600160a81b900460ff166148e35760405162461bcd60e51b815260040161078590615986565b6001606555565b60006148f68383614750565b61492c5750815460018181018455600084815260208082209093018490558454848252828601909352604090209190915561072a565b50600061072a565b6000614989826040518060400160405280602081526020017f5361666545524332303a206c6f772d6c6576656c2063616c6c206661696c6564815250856001600160a01b0316614b099092919063ffffffff16565b805190915015612cb957808060200190518101906149a79190615a83565b612cb95760405162461bcd60e51b815260206004820152602a60248201527f5361666545524332303a204552433230206f7065726174696f6e20646964206e6044820152691bdd081cdd58d8d9595960b21b6064820152608401610785565b801580614a7f5750604051636eb1769f60e11b81526001600160a01b0384169063dd62ed3e90614a3c90309086906004016155e1565b602060405180830381865afa158015614a59573d6000803e3d6000fd5b505050506040513d601f19601f82011682018060405250810190614a7d9190615782565b155b614aea5760405162461bcd60e51b815260206004820152603660248201527f5361666545524332303a20617070726f76652066726f6d206e6f6e2d7a65726f60448201527520746f206e6f6e2d7a65726f20616c6c6f77616e636560501b6064820152608401610785565b612cb98363095ea7b360e01b8484604051602401612c829291906159d1565b6060614b188484600085614b20565b949350505050565b606082471015614b815760405162461bcd60e51b815260206004820152602660248201527f416464726573733a20696e73756666696369656e742062616c616e636520666f6044820152651c8818d85b1b60d21b6064820152608401610785565b614b8a8561485b565b614bd65760405162461bcd60e51b815260206004820152601d60248201527f416464726573733a2063616c6c20746f206e6f6e2d636f6e74726163740000006044820152606401610785565b600080866001600160a01b03168587604051614bf29190615e48565b60006040518083038185875af1925050503d8060008114614c2f576040519150601f19603f3d011682016040523d82523d6000602084013e614c34565b606091505b5091509150614c44828286614c4f565b979650505050505050565b60608315614c5e57508161074f565b825115614c6e5782518084602001fd5b8160405162461bcd60e51b81526004016107859190614d75565b6040518060800160405280600081526020016000815260200160008152602001600081525090565b828054614cbc90615356565b90600052602060002090601f016020900481019282614cde5760008555614d24565b82601f10614cf757805160ff1916838001178555614d24565b82800160010185558215614d24579182015b82811115614d24578251825591602001919060010190614d09565b50614d30929150614d34565b5090565b5b80821115614d305760008155600101614d35565b60005b83811015614d64578181015183820152602001614d4c565b83811115611bae5750506000910152565b6020815260008251806020840152614d94816040850160208701614d49565b601f01601f19169190910160400192915050565b6001600160a01b0381168114614dbd57600080fd5b50565b60008060408385031215614dd357600080fd5b8235614dde81614da8565b946020939093013593505050565b6001600160a01b03169052565b6001600160a01b0391909116815260200190565b600080600060608486031215614e2257600080fd5b8335614e2d81614da8565b92506020840135614e3d81614da8565b929592945050506040919091013590565b62ffffff81168114614dbd57600080fd5b600060208284031215614e7157600080fd5b813561074f81614e4e565b805160020b8252602081015160020b602083015262ffffff60408201511660408301525050565b6020808252825182820181905260009190848201906040850190845b81811015614ee557614ed2838551614e7c565b9284019260609290920191600101614ebf565b50909695505050505050565b8060020b8114614dbd57600080fd5b600060208284031215614f1257600080fd5b813561074f81614ef1565b60008060408385031215614f3057600080fd5b50508035926020909101359150565b60008083601f840112614f5157600080fd5b5081356001600160401b03811115614f6857600080fd5b6020830191508360208260051b8501011115614f8357600080fd5b9250929050565b60008060208385031215614f9d57600080fd5b82356001600160401b03811115614fb357600080fd5b614fbf85828601614f3f565b90969095509350505050565b60008083601f840112614fdd57600080fd5b5081356001600160401b03811115614ff457600080fd5b602083019150836020828501011115614f8357600080fd5b60008060008060006060868803121561502457600080fd5b85356001600160401b038082111561503b57600080fd5b61504789838a01614fcb565b9097509550602088013591508082111561506057600080fd5b61506c89838a01614fcb565b9095509350604088013591508082111561508557600080fd5b508601610140818903121561509957600080fd5b809150509295509295909350565b6000602082840312156150b957600080fd5b5035919050565b600293840b81529190920b602082015262ffffff909116604082015260600190565b6000606082840312156150f457600080fd5b50919050565b60006060828403121561510c57600080fd5b61074f83836150e2565b60006020828403121561512857600080fd5b813561074f81614da8565b60008083601f84011261514557600080fd5b5081356001600160401b0381111561515c57600080fd5b602083019150836020606083028501011115614f8357600080fd5b60008060008060006060868803121561518f57600080fd5b85356001600160401b03808211156151a657600080fd5b6151b289838a01615133565b909750955060208801359150808211156151cb57600080fd5b6151d789838a016150e2565b945060408801359150808211156151ed57600080fd5b506151fa88828901615133565b969995985093965092949392505050565b6000806040838503121561521e57600080fd5b82359150602083013561523081614da8565b809150509250929050565b918252602082015260400190565b6000806000806060858703121561525f57600080fd5b843593506020850135925060408501356001600160401b0381111561528357600080fd5b61528f87828801614fcb565b95989497509550505050565b600080604083850312156152ae57600080fd5b82356152b981614da8565b9150602083013561523081614da8565b600080600080606085870312156152df57600080fd5b84356001600160401b03808211156152f657600080fd5b818701915087601f83011261530a57600080fd5b81358181111561531957600080fd5b8860208260071b850101111561532e57600080fd5b602092830196509450508501359150604085013561534b81614da8565b939692955090935050565b600181811c9082168061536a57607f821691505b6020821081036150f457634e487b7160e01b600052602260045260246000fd5b6020808252818101527f4f776e61626c653a2063616c6c6572206973206e6f7420746865206f776e6572604082015260600190565b62ffffff92831681529116602082015260400190565b634e487b7160e01b600052601160045260246000fd5b600082198211156153fe576153fe6153d5565b500190565b6020808252600c908201526b746f74616c20737570706c7960a01b604082015260600190565b634e487b7160e01b600052603260045260246000fd5b6020808252600c908201526b61646472657373205a65726f60a01b604082015260600190565b600060018201615477576154776153d5565b5060010190565b60208082528181018390526000908460408401835b868110156154c15782356154a681614da8565b6001600160a01b031682529183019190830190600101615493565b509695505050505050565b6000808335601e198436030181126154e357600080fd5b8301803591506001600160401b038211156154fd57600080fd5b6020019150600581901b3603821315614f8357600080fd5b60208082526010908201526f36b0bc2a3bb0b82232bb34b0ba34b7b760811b604082015260600190565b6001600160a01b03938416815291909216602082015262ffffff909116604082015260600190565b60006020828403121561557957600080fd5b815161074f81614da8565b6020808252600490820152631c1bdbdb60e21b604082015260600190565b60208082528181018390526000908460408401835b868110156154c15782356155ca81614e4e565b62ffffff16825291830191908301906001016155b7565b6001600160a01b0392831681529116602082015260400190565b6020808252600a908201526937379036b0b730b3b2b960b11b604082015260600190565b6020808252601f908201527f5265656e7472616e637947756172643a207265656e7472616e742063616c6c00604082015260600190565b6020808252825160a083830152805160c0840181905260009291820190839060e08601905b808310156156a45761568e828551614e7c565b606082019150848401935060018301925061567b565b5092860151926156b76040870185614dec565b604087015193506156cb6060870185614dec565b606087015193506156df6080870185614dec565b608087015193506156f360a0870185614dec565b9695505050505050565b6000806000806080858703121561571357600080fd5b505082516020840151604085015160609095015191969095509092509050565b6001600160a01b0394909416845260208401929092526040830152606082015260800190565b6020808252600f908201526e31b0b6363130b1b59031b0b63632b960891b604082015260600190565b60006020828403121561579457600080fd5b5051919050565b6000602082840312156157ad57600080fd5b815161ffff8116811461074f57600080fd5b938452602084019290925261ffff908116604084015216606082015260800190565b600080604083850312156157f457600080fd5b505080516020909101519092909150565b600082821015615817576158176153d5565b500390565b6001600160801b0381168114614dbd57600080fd5b60006020828403121561584357600080fd5b813561074f8161581c565b604051606081016001600160401b038111828210171561587e57634e487b7160e01b600052604160045260246000fd5b60405290565b6000818303608081121561589757600080fd5b604080519081016001600160401b03811182821017156158c757634e487b7160e01b600052604160045260246000fd5b60405283356158d58161581c565b81526060601f19830112156158e957600080fd5b6158f161584e565b9150602084013561590181614ef1565b8252604084013561591181614ef1565b6020830152606084013561592481614e4e565b604083015260208101919091529392505050565b6020808252602e908201527f496e697469616c697a61626c653a20636f6e747261637420697320616c72656160408201526d191e481a5b9a5d1a585b1a5e995960921b606082015260800190565b6020808252602b908201527f496e697469616c697a61626c653a20636f6e7472616374206973206e6f74206960408201526a6e697469616c697a696e6760a81b606082015260800190565b6001600160a01b03929092168252602082015260400190565b60208082526005908201526472616e676560d81b604082015260600190565b6001600160a01b03858116825284811660208301528316604082015260c081018235615a3481614ef1565b60020b60608301526020830135615a4a81614ef1565b60020b60808301526040830135615a6081614e4e565b62ffffff811660a08401525095945050505050565b8015158114614dbd57600080fd5b600060208284031215615a9557600080fd5b815161074f81615a75565b8135615aab81614ef1565b815462ffffff82811662ffffff1983161784556020850135615acc81614ef1565b8060181b9050818416935065ffffff00000091508082168465ffffffffffff198516171785556040860135615b0081614e4e565b91166001600160481b0319929092169092171760309190911b62ffffff60301b1617905550565b6000808335601e19843603018112615b3e57600080fd5b8301803591506001600160401b03821115615b5857600080fd5b6020019150600781901b3603821315614f8357600080fd5b6001600160a01b0393909316835262ffffff91909116602083015260020b604082015260600190565b6000823560be19833603018112615baf57600080fd5b9190910192915050565b6000808335601e19843603018112615bd057600080fd5b8301803591506001600160401b03821115615bea57600080fd5b602001915036819003821315614f8357600080fd5b8183823760009101908152919050565b600060208284031215615c2157600080fd5b813561074f81615a75565b600060208284031215615c3e57600080fd5b815160ff8116811461074f57600080fd5b600181815b80851115615c8a578160001904821115615c7057615c706153d5565b80851615615c7d57918102915b93841c9390800290615c54565b509250929050565b600082615ca15750600161072a565b81615cae5750600061072a565b8160018114615cc45760028114615cce57615cea565b600191505061072a565b60ff841115615cdf57615cdf6153d5565b50506001821b61072a565b5060208310610133831016604e8410600b8410161715615d0d575081810a61072a565b615d178383615c4f565b8060001904821115615d2b57615d2b6153d5565b029392505050565b600061074f60ff841683615c92565b602080825260089082015267736c69707061676560c01b604082015260600190565b6020808252600b908201526a1cddd85c0819985a5b195960aa1b604082015260600190565b6020808252600990820152686e6f742072616e676560b81b604082015260600190565b634e487b7160e01b600052601260045260246000fd5b60008060408385031215615dd557600080fd5b8251615de08161581c565b60208401519092506152308161581c565b6000816000190483118215151615615e0b57615e0b6153d5565b500290565b600082615e2d57634e487b7160e01b600052601260045260246000fd5b500490565b634e487b7160e01b600052603160045260246000fd5b60008251615baf818460208701614d4956fe17ec55bdd2fea2768d22be98ea82ce39f382d4a52ecae15d38c780f5589fa595c4e0a66e8ba7f38390072f2fdf05535dfb198760a5f3c4f29a65524e32de5c5332da8acdd01c0a59b03b09701136ec60caaffa0e94c766890f064762bd8fb1325c5a2fc161b9783402c6936b84c4ff152302bedf739d6d9167cd4789869dbe928be0079c531659141344cd1fd0a4f28419497f9722a3daafe3b4186f6b6457e0ddf252ad1be2c89b69c2b068fc378daa952ba7f163c4a11628f55a4df523b3efef8f805aa84457ce7607552537087c0f65f982bba416c42f7def196ac533d07e9db03e8799fad01acfcb097edbb56f2317078cbd4837d484116a7aeb6421d4ef3a012e06aea9a2588f812b4ead330d91697c79ed2edd8bb527465e66176f90257a1b755d6e05fd10f250732bf3c40b4d8cdcb1bf767d93696f320959ae7b5335a264697066735822122087dd80b015ac5da9a7bd3c9136c4f5875761ba4b6b107a939ffdf1f060784d7264736f6c634300080d0033",
  "libraries": {
    "Pool": "0xCB877F44f58087345B3c6Ef479f4142E6798Fbba",
    "Position": "0xC64433E71f1f76Be5567B657026656Cce5999C34",
    "Twap": "0xcE7b8731CA37cA1F5f9b6441B61f1E1Dd92a9Fa2",
    "Underlying": "0xf36Bb98C9D84Bea58575a28f698470D6b770d29D",
    "UniswapV3Amounts": "0xcCd824d1Baaeb6d6E2B6De867409564F7B8859d2"
  },
  "devdoc": {
    "details": "DO NOT ADD STATE VARIABLES - APPEND THEM TO ArrakisV2Storage",
    "kind": "dev",
    "methods": {
      "allowance(address,address)": {
        "details": "See {IERC20-allowance}."
      },
      "approve(address,uint256)": {
        "details": "See {IERC20-approve}. NOTE: If `amount` is the maximum `uint256`, the allowance is not updated on `transferFrom`. This is semantically equivalent to an infinite approval. Requirements: - `spender` cannot be the zero address."
      },
      "balanceOf(address)": {
        "details": "See {IERC20-balanceOf}."
      },
      "decimals()": {
        "details": "Returns the number of decimals used to get its user representation. For example, if `decimals` equals `2`, a balance of `505` tokens should be displayed to a user as `5.05` (`505 / 10 ** 2`). Tokens usually opt for a value of 18, imitating the relationship between Ether and Wei. This is the value {ERC20} uses, unless this function is overridden; NOTE: This information is only used for _display_ purposes: it in no way affects any of the arithmetic of the contract, including {IERC20-balanceOf} and {IERC20-transfer}."
      },
      "decreaseAllowance(address,uint256)": {
        "details": "Atomically decreases the allowance granted to `spender` by the caller. This is an alternative to {approve} that can be used as a mitigation for problems described in {IERC20-approve}. Emits an {Approval} event indicating the updated allowance. Requirements: - `spender` cannot be the zero address. - `spender` must have allowance for the caller of at least `subtractedValue`."
      },
      "increaseAllowance(address,uint256)": {
        "details": "Atomically increases the allowance granted to `spender` by the caller. This is an alternative to {approve} that can be used as a mitigation for problems described in {IERC20-approve}. Emits an {Approval} event indicating the updated allowance. Requirements: - `spender` cannot be the zero address."
      },
      "name()": {
        "details": "Returns the name of the token."
      },
      "owner()": {
        "details": "Returns the address of the current owner."
      },
      "renounceOwnership()": {
        "details": "Leaves the contract without owner. It will not be possible to call `onlyOwner` functions anymore. Can only be called by the current owner. NOTE: Renouncing ownership will leave the contract without an owner, thereby removing any functionality that is only available to the owner."
      },
      "symbol()": {
        "details": "Returns the symbol of the token, usually a shorter version of the name."
      },
      "totalSupply()": {
        "details": "See {IERC20-totalSupply}."
      },
      "transfer(address,uint256)": {
        "details": "See {IERC20-transfer}. Requirements: - `to` cannot be the zero address. - the caller must have a balance of at least `amount`."
      },
      "transferFrom(address,address,uint256)": {
        "details": "See {IERC20-transferFrom}. Emits an {Approval} event indicating the updated allowance. This is not required by the EIP. See the note at the beginning of {ERC20}. NOTE: Does not update the allowance if the current allowance is the maximum `uint256`. Requirements: - `from` and `to` cannot be the zero address. - `from` must have a balance of at least `amount`. - the caller must have allowance for ``from``'s tokens of at least `amount`."
      },
      "transferOwnership(address)": {
        "details": "Transfers ownership of the contract to a new account (`newOwner`). Can only be called by the current owner."
      }
    },
    "version": 1
  },
  "userdoc": {
    "kind": "user",
    "methods": {
      "uniswapV3MintCallback(uint256,uint256,bytes)": {
        "notice": "Uniswap V3 callback fn, called back on pool.mint"
      },
      "uniswapV3SwapCallback(int256,int256,bytes)": {
        "notice": "Uniswap v3 callback fn, called back on pool.swap"
      }
    },
    "version": 1
  },
  "storageLayout": {
    "storage": [
      {
        "astId": 10046,
        "contract": "contracts/ArrakisV2.sol:ArrakisV2",
        "label": "_owner",
        "offset": 0,
        "slot": "0",
        "type": "t_address"
      },
      {
        "astId": 6,
        "contract": "contracts/ArrakisV2.sol:ArrakisV2",
        "label": "_initialized",
        "offset": 20,
        "slot": "0",
        "type": "t_uint8"
      },
      {
        "astId": 9,
        "contract": "contracts/ArrakisV2.sol:ArrakisV2",
        "label": "_initializing",
        "offset": 21,
        "slot": "0",
        "type": "t_bool"
      },
      {
        "astId": 1198,
        "contract": "contracts/ArrakisV2.sol:ArrakisV2",
        "label": "__gap",
        "offset": 0,
        "slot": "1",
        "type": "t_array(t_uint256)50_storage"
      },
      {
        "astId": 219,
        "contract": "contracts/ArrakisV2.sol:ArrakisV2",
        "label": "_balances",
        "offset": 0,
        "slot": "51",
        "type": "t_mapping(t_address,t_uint256)"
      },
      {
        "astId": 225,
        "contract": "contracts/ArrakisV2.sol:ArrakisV2",
        "label": "_allowances",
        "offset": 0,
        "slot": "52",
        "type": "t_mapping(t_address,t_mapping(t_address,t_uint256))"
      },
      {
        "astId": 227,
        "contract": "contracts/ArrakisV2.sol:ArrakisV2",
        "label": "_totalSupply",
        "offset": 0,
        "slot": "53",
        "type": "t_uint256"
      },
      {
        "astId": 229,
        "contract": "contracts/ArrakisV2.sol:ArrakisV2",
        "label": "_name",
        "offset": 0,
        "slot": "54",
        "type": "t_string_storage"
      },
      {
        "astId": 231,
        "contract": "contracts/ArrakisV2.sol:ArrakisV2",
        "label": "_symbol",
        "offset": 0,
        "slot": "55",
        "type": "t_string_storage"
      },
      {
        "astId": 810,
        "contract": "contracts/ArrakisV2.sol:ArrakisV2",
        "label": "__gap",
        "offset": 0,
        "slot": "56",
        "type": "t_array(t_uint256)45_storage"
      },
      {
        "astId": 155,
        "contract": "contracts/ArrakisV2.sol:ArrakisV2",
        "label": "_status",
        "offset": 0,
        "slot": "101",
        "type": "t_uint256"
      },
      {
        "astId": 199,
        "contract": "contracts/ArrakisV2.sol:ArrakisV2",
        "label": "__gap",
        "offset": 0,
        "slot": "102",
        "type": "t_array(t_uint256)49_storage"
      },
      {
        "astId": 9077,
        "contract": "contracts/ArrakisV2.sol:ArrakisV2",
        "label": "token0",
        "offset": 0,
        "slot": "151",
        "type": "t_contract(IERC20)1968"
      },
      {
        "astId": 9080,
        "contract": "contracts/ArrakisV2.sol:ArrakisV2",
        "label": "token1",
        "offset": 0,
        "slot": "152",
        "type": "t_contract(IERC20)1968"
      },
      {
        "astId": 9082,
        "contract": "contracts/ArrakisV2.sol:ArrakisV2",
        "label": "init0",
        "offset": 0,
        "slot": "153",
        "type": "t_uint256"
      },
      {
        "astId": 9084,
        "contract": "contracts/ArrakisV2.sol:ArrakisV2",
        "label": "init1",
        "offset": 0,
        "slot": "154",
        "type": "t_uint256"
      },
      {
        "astId": 9088,
        "contract": "contracts/ArrakisV2.sol:ArrakisV2",
        "label": "ranges",
        "offset": 0,
        "slot": "155",
        "type": "t_array(t_struct(Range)11592_storage)dyn_storage"
      },
      {
        "astId": 9090,
        "contract": "contracts/ArrakisV2.sol:ArrakisV2",
        "label": "arrakisBalance0",
        "offset": 0,
        "slot": "156",
        "type": "t_uint256"
      },
      {
        "astId": 9092,
        "contract": "contracts/ArrakisV2.sol:ArrakisV2",
        "label": "arrakisBalance1",
        "offset": 0,
        "slot": "157",
        "type": "t_uint256"
      },
      {
        "astId": 9095,
        "contract": "contracts/ArrakisV2.sol:ArrakisV2",
        "label": "manager",
        "offset": 0,
        "slot": "158",
        "type": "t_contract(IManagerProxyV2)10560"
      },
      {
        "astId": 9097,
        "contract": "contracts/ArrakisV2.sol:ArrakisV2",
        "label": "managerBalance0",
        "offset": 0,
        "slot": "159",
        "type": "t_uint256"
      },
      {
        "astId": 9099,
        "contract": "contracts/ArrakisV2.sol:ArrakisV2",
        "label": "managerBalance1",
        "offset": 0,
        "slot": "160",
        "type": "t_uint256"
      },
      {
        "astId": 9101,
        "contract": "contracts/ArrakisV2.sol:ArrakisV2",
        "label": "restrictedMintToggle",
        "offset": 0,
        "slot": "161",
        "type": "t_uint16"
      },
      {
        "astId": 9103,
        "contract": "contracts/ArrakisV2.sol:ArrakisV2",
        "label": "maxTwapDeviation",
        "offset": 2,
        "slot": "161",
        "type": "t_int24"
      },
      {
        "astId": 9105,
        "contract": "contracts/ArrakisV2.sol:ArrakisV2",
        "label": "twapDuration",
        "offset": 5,
        "slot": "161",
        "type": "t_uint24"
      },
      {
        "astId": 9107,
        "contract": "contracts/ArrakisV2.sol:ArrakisV2",
        "label": "maxSlippage",
        "offset": 8,
        "slot": "161",
        "type": "t_uint24"
      },
      {
        "astId": 9110,
        "contract": "contracts/ArrakisV2.sol:ArrakisV2",
        "label": "_pools",
        "offset": 0,
        "slot": "162",
        "type": "t_struct(AddressSet)3239_storage"
      }
    ],
    "types": {
      "t_address": {
        "encoding": "inplace",
        "label": "address",
        "numberOfBytes": "20"
      },
      "t_array(t_bytes32)dyn_storage": {
        "base": "t_bytes32",
        "encoding": "dynamic_array",
        "label": "bytes32[]",
        "numberOfBytes": "32"
      },
      "t_array(t_struct(Range)11592_storage)dyn_storage": {
        "base": "t_struct(Range)11592_storage",
        "encoding": "dynamic_array",
        "label": "struct Range[]",
        "numberOfBytes": "32"
      },
      "t_array(t_uint256)45_storage": {
        "base": "t_uint256",
        "encoding": "inplace",
        "label": "uint256[45]",
        "numberOfBytes": "1440"
      },
      "t_array(t_uint256)49_storage": {
        "base": "t_uint256",
        "encoding": "inplace",
        "label": "uint256[49]",
        "numberOfBytes": "1568"
      },
      "t_array(t_uint256)50_storage": {
        "base": "t_uint256",
        "encoding": "inplace",
        "label": "uint256[50]",
        "numberOfBytes": "1600"
      },
      "t_bool": {
        "encoding": "inplace",
        "label": "bool",
        "numberOfBytes": "1"
      },
      "t_bytes32": {
        "encoding": "inplace",
        "label": "bytes32",
        "numberOfBytes": "32"
      },
      "t_contract(IERC20)1968": {
        "encoding": "inplace",
        "label": "contract IERC20",
        "numberOfBytes": "20"
      },
      "t_contract(IManagerProxyV2)10560": {
        "encoding": "inplace",
        "label": "contract IManagerProxyV2",
        "numberOfBytes": "20"
      },
      "t_int24": {
        "encoding": "inplace",
        "label": "int24",
        "numberOfBytes": "3"
      },
      "t_mapping(t_address,t_mapping(t_address,t_uint256))": {
        "encoding": "mapping",
        "key": "t_address",
        "label": "mapping(address => mapping(address => uint256))",
        "numberOfBytes": "32",
        "value": "t_mapping(t_address,t_uint256)"
      },
      "t_mapping(t_address,t_uint256)": {
        "encoding": "mapping",
        "key": "t_address",
        "label": "mapping(address => uint256)",
        "numberOfBytes": "32",
        "value": "t_uint256"
      },
      "t_mapping(t_bytes32,t_uint256)": {
        "encoding": "mapping",
        "key": "t_bytes32",
        "label": "mapping(bytes32 => uint256)",
        "numberOfBytes": "32",
        "value": "t_uint256"
      },
      "t_string_storage": {
        "encoding": "bytes",
        "label": "string",
        "numberOfBytes": "32"
      },
      "t_struct(AddressSet)3239_storage": {
        "encoding": "inplace",
        "label": "struct EnumerableSet.AddressSet",
        "members": [
          {
            "astId": 3238,
            "contract": "contracts/ArrakisV2.sol:ArrakisV2",
            "label": "_inner",
            "offset": 0,
            "slot": "0",
            "type": "t_struct(Set)2938_storage"
          }
        ],
        "numberOfBytes": "64"
      },
      "t_struct(Range)11592_storage": {
        "encoding": "inplace",
        "label": "struct Range",
        "members": [
          {
            "astId": 11587,
            "contract": "contracts/ArrakisV2.sol:ArrakisV2",
            "label": "lowerTick",
            "offset": 0,
            "slot": "0",
            "type": "t_int24"
          },
          {
            "astId": 11589,
            "contract": "contracts/ArrakisV2.sol:ArrakisV2",
            "label": "upperTick",
            "offset": 3,
            "slot": "0",
            "type": "t_int24"
          },
          {
            "astId": 11591,
            "contract": "contracts/ArrakisV2.sol:ArrakisV2",
            "label": "feeTier",
            "offset": 6,
            "slot": "0",
            "type": "t_uint24"
          }
        ],
        "numberOfBytes": "32"
      },
      "t_struct(Set)2938_storage": {
        "encoding": "inplace",
        "label": "struct EnumerableSet.Set",
        "members": [
          {
            "astId": 2933,
            "contract": "contracts/ArrakisV2.sol:ArrakisV2",
            "label": "_values",
            "offset": 0,
            "slot": "0",
            "type": "t_array(t_bytes32)dyn_storage"
          },
          {
            "astId": 2937,
            "contract": "contracts/ArrakisV2.sol:ArrakisV2",
            "label": "_indexes",
            "offset": 0,
            "slot": "1",
            "type": "t_mapping(t_bytes32,t_uint256)"
          }
        ],
        "numberOfBytes": "64"
      },
      "t_uint16": {
        "encoding": "inplace",
        "label": "uint16",
        "numberOfBytes": "2"
      },
      "t_uint24": {
        "encoding": "inplace",
        "label": "uint24",
        "numberOfBytes": "3"
      },
      "t_uint256": {
        "encoding": "inplace",
        "label": "uint256",
        "numberOfBytes": "32"
      },
      "t_uint8": {
        "encoding": "inplace",
        "label": "uint8",
        "numberOfBytes": "1"
      }
    }
  }
}