{
  "address": "0xb36eA03F7A68C92cA5eE61C390928a8C1Ef36ea3",
  "abi": [
    {
      "inputs": [
        {
          "internalType": "contract IUniswapV3Factory",
          "name": "factory_",
          "type": "address"
        }
      ],
      "stateMutability": "nonpayable",
      "type": "constructor"
    },
    {
      "inputs": [],
      "name": "factory",
      "outputs": [
        {
          "internalType": "contract IUniswapV3Factory",
          "name": "",
          "type": "address"
        }
      ],
      "stateMutability": "view",
      "type": "function"
    },
    {
      "inputs": [
        {
          "components": [
            {
              "internalType": "int24",
              "name": "lowerTick",
              "type": "int24"
            },
            {
              "internalType": "int24",
              "name": "upperTick",
              "type": "int24"
            },
            {
              "internalType": "uint24",
              "name": "feeTier",
              "type": "uint24"
            }
          ],
          "internalType": "struct Range[]",
          "name": "ranges_",
          "type": "tuple[]"
        },
        {
          "internalType": "address",
          "name": "token0_",
          "type": "address"
        },
        {
          "internalType": "address",
          "name": "token1_",
          "type": "address"
        },
        {
          "internalType": "address",
          "name": "vaultV2_",
          "type": "address"
        }
      ],
      "name": "token0AndToken1ByRange",
      "outputs": [
        {
          "components": [
            {
              "components": [
                {
                  "internalType": "int24",
                  "name": "lowerTick",
                  "type": "int24"
                },
                {
                  "internalType": "int24",
                  "name": "upperTick",
                  "type": "int24"
                },
                {
                  "internalType": "uint24",
                  "name": "feeTier",
                  "type": "uint24"
                }
              ],
              "internalType": "struct Range",
              "name": "range",
              "type": "tuple"
            },
            {
              "internalType": "uint256",
              "name": "amount",
              "type": "uint256"
            }
          ],
          "internalType": "struct Amount[]",
          "name": "amount0s",
          "type": "tuple[]"
        },
        {
          "components": [
            {
              "components": [
                {
                  "internalType": "int24",
                  "name": "lowerTick",
                  "type": "int24"
                },
                {
                  "internalType": "int24",
                  "name": "upperTick",
                  "type": "int24"
                },
                {
                  "internalType": "uint24",
                  "name": "feeTier",
                  "type": "uint24"
                }
              ],
              "internalType": "struct Range",
              "name": "range",
              "type": "tuple"
            },
            {
              "internalType": "uint256",
              "name": "amount",
              "type": "uint256"
            }
          ],
          "internalType": "struct Amount[]",
          "name": "amount1s",
          "type": "tuple[]"
        }
      ],
      "stateMutability": "view",
      "type": "function"
    },
    {
      "inputs": [
        {
          "components": [
            {
              "internalType": "int24",
              "name": "lowerTick",
              "type": "int24"
            },
            {
              "internalType": "int24",
              "name": "upperTick",
              "type": "int24"
            },
            {
              "internalType": "uint24",
              "name": "feeTier",
              "type": "uint24"
            }
          ],
          "internalType": "struct Range[]",
          "name": "ranges_",
          "type": "tuple[]"
        },
        {
          "internalType": "address",
          "name": "token0_",
          "type": "address"
        },
        {
          "internalType": "address",
          "name": "token1_",
          "type": "address"
        },
        {
          "internalType": "address",
          "name": "vaultV2_",
          "type": "address"
        }
      ],
      "name": "token0AndToken1PlusFeesByRange",
      "outputs": [
        {
          "components": [
            {
              "components": [
                {
                  "internalType": "int24",
                  "name": "lowerTick",
                  "type": "int24"
                },
                {
                  "internalType": "int24",
                  "name": "upperTick",
                  "type": "int24"
                },
                {
                  "internalType": "uint24",
                  "name": "feeTier",
                  "type": "uint24"
                }
              ],
              "internalType": "struct Range",
              "name": "range",
              "type": "tuple"
            },
            {
              "internalType": "uint256",
              "name": "amount",
              "type": "uint256"
            }
          ],
          "internalType": "struct Amount[]",
          "name": "amount0s",
          "type": "tuple[]"
        },
        {
          "components": [
            {
              "components": [
                {
                  "internalType": "int24",
                  "name": "lowerTick",
                  "type": "int24"
                },
                {
                  "internalType": "int24",
                  "name": "upperTick",
                  "type": "int24"
                },
                {
                  "internalType": "uint24",
                  "name": "feeTier",
                  "type": "uint24"
                }
              ],
              "internalType": "struct Range",
              "name": "range",
              "type": "tuple"
            },
            {
              "internalType": "uint256",
              "name": "amount",
              "type": "uint256"
            }
          ],
          "internalType": "struct Amount[]",
          "name": "amount1s",
          "type": "tuple[]"
        },
        {
          "components": [
            {
              "components": [
                {
                  "internalType": "int24",
                  "name": "lowerTick",
                  "type": "int24"
                },
                {
                  "internalType": "int24",
                  "name": "upperTick",
                  "type": "int24"
                },
                {
                  "internalType": "uint24",
                  "name": "feeTier",
                  "type": "uint24"
                }
              ],
              "internalType": "struct Range",
              "name": "range",
              "type": "tuple"
            },
            {
              "internalType": "uint256",
              "name": "amount",
              "type": "uint256"
            }
          ],
          "internalType": "struct Amount[]",
          "name": "fee0s",
          "type": "tuple[]"
        },
        {
          "components": [
            {
              "components": [
                {
                  "internalType": "int24",
                  "name": "lowerTick",
                  "type": "int24"
                },
                {
                  "internalType": "int24",
                  "name": "upperTick",
                  "type": "int24"
                },
                {
                  "internalType": "uint24",
                  "name": "feeTier",
                  "type": "uint24"
                }
              ],
              "internalType": "struct Range",
              "name": "range",
              "type": "tuple"
            },
            {
              "internalType": "uint256",
              "name": "amount",
              "type": "uint256"
            }
          ],
          "internalType": "struct Amount[]",
          "name": "fee1s",
          "type": "tuple[]"
        }
      ],
      "stateMutability": "view",
      "type": "function"
    },
    {
      "inputs": [
        {
          "internalType": "contract IArrakisV2",
          "name": "vault_",
          "type": "address"
        }
      ],
      "name": "totalUnderlying",
      "outputs": [
        {
          "internalType": "uint256",
          "name": "amount0",
          "type": "uint256"
        },
        {
          "internalType": "uint256",
          "name": "amount1",
          "type": "uint256"
        }
      ],
      "stateMutability": "view",
      "type": "function"
    },
    {
      "inputs": [
        {
          "internalType": "contract IArrakisV2",
          "name": "vault_",
          "type": "address"
        }
      ],
      "name": "totalUnderlyingWithFees",
      "outputs": [
        {
          "internalType": "uint256",
          "name": "amount0",
          "type": "uint256"
        },
        {
          "internalType": "uint256",
          "name": "amount1",
          "type": "uint256"
        },
        {
          "internalType": "uint256",
          "name": "fee0",
          "type": "uint256"
        },
        {
          "internalType": "uint256",
          "name": "fee1",
          "type": "uint256"
        }
      ],
      "stateMutability": "view",
      "type": "function"
    },
    {
      "inputs": [
        {
          "internalType": "contract IArrakisV2",
          "name": "vault_",
          "type": "address"
        }
      ],
      "name": "totalUnderlyingWithFeesAndLeftOver",
      "outputs": [
        {
          "components": [
            {
              "internalType": "uint256",
              "name": "amount0",
              "type": "uint256"
            },
            {
              "internalType": "uint256",
              "name": "amount1",
              "type": "uint256"
            },
            {
              "internalType": "uint256",
              "name": "fee0",
              "type": "uint256"
            },
            {
              "internalType": "uint256",
              "name": "fee1",
              "type": "uint256"
            },
            {
              "internalType": "uint256",
              "name": "leftOver0",
              "type": "uint256"
            },
            {
              "internalType": "uint256",
              "name": "leftOver1",
              "type": "uint256"
            }
          ],
          "internalType": "struct UnderlyingOutput",
          "name": "underlying",
          "type": "tuple"
        }
      ],
      "stateMutability": "view",
      "type": "function"
    }
  ],
  "transactionHash": "0xf7d373bfa1cd9cae801e9f9ee01d1331a0cf6c33e4b5e4c7609326869d028ed2",
  "args": [
    "0x1F98431c8aD98523631AE4a59f267346ea31F984"
  ],
  "numDeployments": 1,
  "solcInputHash": "df261865445b69052dd5ce0a370c2775",
  "bytecode": "0x60a060405234801561001057600080fd5b506040516118cb3803806118cb83398101604081905261002f91610040565b6001600160a01b0316608052610070565b60006020828403121561005257600080fd5b81516001600160a01b038116811461006957600080fd5b9392505050565b6080516118246100a760003960008181610120015281816102390152818161045a01528181610c64015261104501526118246000f3fe608060405234801561001057600080fd5b50600436106100725760003560e01c8063943865551161005057806394386555146100f8578063c45a01551461011b578063e9b7218a1461015a57600080fd5b80630f8f2d1d146100775780636ea08e2a146100af5780638fe5a01e146100d7575b600080fd5b61008a61008536600461120b565b6101b9565b6040805194855260208501939093529183015260608201526080015b60405180910390f35b6100c26100bd36600461120b565b6103dd565b604080519283526020830191909152016100a6565b6100ea6100e536600461122f565b6105fb565b6040516100a692919061134b565b61010b61010636600461122f565b6107f5565b6040516100a69493929190611379565b6101427f000000000000000000000000000000000000000000000000000000000000000081565b6040516001600160a01b0390911681526020016100a6565b61016d61016836600461120b565b610bb1565b6040516100a69190600060c082019050825182526020830151602083015260408301516040830152606083015160608301526080830151608083015260a083015160a083015292915050565b60008060008060006040518060a00160405280876001600160a01b031663617a34196040518163ffffffff1660e01b8152600401600060405180830381865afa15801561020a573d6000803e3d6000fd5b505050506040513d6000823e601f3d908101601f191682016040526102329190810190611461565b81526020017f00000000000000000000000000000000000000000000000000000000000000006001600160a01b03168152602001876001600160a01b0316630dfe16816040518163ffffffff1660e01b8152600401602060405180830381865afa1580156102a4573d6000803e3d6000fd5b505050506040513d601f19601f820116820180604052508101906102c89190611550565b6001600160a01b03168152602001876001600160a01b031663d21220a76040518163ffffffff1660e01b8152600401602060405180830381865afa158015610314573d6000803e3d6000fd5b505050506040513d601f19601f820116820180604052508101906103389190611550565b6001600160a01b03168152602001876001600160a01b0316815250905073eEcFd6b318552b828397A850BDE973ea56663C9D63e56f4d91826040518263ffffffff1660e01b815260040161038c919061156d565b608060405180830381865af41580156103a9573d6000803e3d6000fd5b505050506040513d601f19601f820116820180604052508101906103cd919061163e565b9299919850965090945092505050565b60008060006040518060a00160405280856001600160a01b031663617a34196040518163ffffffff1660e01b8152600401600060405180830381865afa15801561042b573d6000803e3d6000fd5b505050506040513d6000823e601f3d908101601f191682016040526104539190810190611461565b81526020017f00000000000000000000000000000000000000000000000000000000000000006001600160a01b03168152602001856001600160a01b0316630dfe16816040518163ffffffff1660e01b8152600401602060405180830381865afa1580156104c5573d6000803e3d6000fd5b505050506040513d601f19601f820116820180604052508101906104e99190611550565b6001600160a01b03168152602001856001600160a01b031663d21220a76040518163ffffffff1660e01b8152600401602060405180830381865afa158015610535573d6000803e3d6000fd5b505050506040513d601f19601f820116820180604052508101906105599190611550565b6001600160a01b03168152602001856001600160a01b0316815250905073eEcFd6b318552b828397A850BDE973ea56663C9D63e56f4d91826040518263ffffffff1660e01b81526004016105ad919061156d565b608060405180830381865af41580156105ca573d6000803e3d6000fd5b505050506040513d601f19601f820116820180604052508101906105ee919061163e565b5091969095509350505050565b6060808567ffffffffffffffff811115610617576106176113d1565b60405190808252806020026020018201604052801561067257816020015b6040805160a08101825260009181018281526060820183905260808201839052815260208101919091528152602001906001900390816106355790505b5091508567ffffffffffffffff81111561068e5761068e6113d1565b6040519080825280602002602001820160405280156106e957816020015b6040805160a08101825260009181018281526060820183905260808201839052815260208101919091528152602001906001900390816106ac5790505b50905060005b868110156107ea5760008061071d88888c8c8781811061071157610711611674565b9050606002018961100b565b50509150915060405180604001604052808b8b8681811061074057610740611674565b905060600201803603810190610756919061168a565b81526020018381525085848151811061077157610771611674565b602002602001018190525060405180604001604052808b8b8681811061079957610799611674565b9050606002018036038101906107af919061168a565b8152602001828152508484815181106107ca576107ca611674565b6020026020010181905250505080806107e290611712565b9150506106ef565b509550959350505050565b60608080808767ffffffffffffffff811115610813576108136113d1565b60405190808252806020026020018201604052801561086e57816020015b6040805160a08101825260009181018281526060820183905260808201839052815260208101919091528152602001906001900390816108315790505b5093508767ffffffffffffffff81111561088a5761088a6113d1565b6040519080825280602002602001820160405280156108e557816020015b6040805160a08101825260009181018281526060820183905260808201839052815260208101919091528152602001906001900390816108a85790505b5092508767ffffffffffffffff811115610901576109016113d1565b60405190808252806020026020018201604052801561095c57816020015b6040805160a081018252600091810182815260608201839052608082018390528152602081019190915281526020019060019003908161091f5790505b5091508767ffffffffffffffff811115610978576109786113d1565b6040519080825280602002602001820160405280156109d357816020015b6040805160a08101825260009181018281526060820183905260808201839052815260208101919091528152602001906001900390816109965790505b50905060005b88811015610ba4578989828181106109f3576109f3611674565b905060600201803603810190610a09919061168a565b858281518110610a1b57610a1b611674565b602090810291909101015152898982818110610a3957610a39611674565b905060600201803603810190610a4f919061168a565b848281518110610a6157610a61611674565b602090810291909101015152898982818110610a7f57610a7f611674565b905060600201803603810190610a95919061168a565b838281518110610aa757610aa7611674565b602090810291909101015152898982818110610ac557610ac5611674565b905060600201803603810190610adb919061168a565b828281518110610aed57610aed611674565b602090810291909101015152610b1088888c8c8581811061071157610711611674565b888581518110610b2257610b22611674565b6020026020010151602001888681518110610b3f57610b3f611674565b6020026020010151602001888781518110610b5c57610b5c611674565b6020026020010151602001888881518110610b7957610b79611674565b6020908102919091018101510193909352929091529190525280610b9c81611712565b9150506109d9565b5095509550955095915050565b610bea6040518060c001604052806000815260200160008152602001600081526020016000815260200160008152602001600081525090565b60006040518060a00160405280846001600160a01b031663617a34196040518163ffffffff1660e01b8152600401600060405180830381865afa158015610c35573d6000803e3d6000fd5b505050506040513d6000823e601f3d908101601f19168201604052610c5d9190810190611461565b81526020017f00000000000000000000000000000000000000000000000000000000000000006001600160a01b03168152602001846001600160a01b0316630dfe16816040518163ffffffff1660e01b8152600401602060405180830381865afa158015610ccf573d6000803e3d6000fd5b505050506040513d601f19601f82011682018060405250810190610cf39190611550565b6001600160a01b03168152602001846001600160a01b031663d21220a76040518163ffffffff1660e01b8152600401602060405180830381865afa158015610d3f573d6000803e3d6000fd5b505050506040513d601f19601f82011682018060405250810190610d639190611550565b6001600160a01b03168152602001846001600160a01b0316815250905073eEcFd6b318552b828397A850BDE973ea56663C9D63e56f4d91826040518263ffffffff1660e01b8152600401610db7919061156d565b608060405180830381865af4158015610dd4573d6000803e3d6000fd5b505050506040513d601f19601f82011682018060405250810190610df8919061163e565b6060860152604080860191909152602080860192909252918452608083015182517f065756db00000000000000000000000000000000000000000000000000000000815292516001600160a01b039091169263065756db9260048083019391928290030181865afa158015610e71573d6000803e3d6000fd5b505050506040513d601f19601f82011682018060405250810190610e95919061172b565b604080830151608084015191516370a0823160e01b81526001600160a01b0392831660048201529116906370a0823190602401602060405180830381865afa158015610ee5573d6000803e3d6000fd5b505050506040513d601f19601f82011682018060405250810190610f09919061172b565b610f139190611744565b82608001818152505080608001516001600160a01b03166342fb9d446040518163ffffffff1660e01b8152600401602060405180830381865afa158015610f5e573d6000803e3d6000fd5b505050506040513d601f19601f82011682018060405250810190610f82919061172b565b606082015160808301516040516370a0823160e01b81526001600160a01b0391821660048201529116906370a0823190602401602060405180830381865afa158015610fd2573d6000803e3d6000fd5b505050506040513d601f19601f82011682018060405250810190610ff6919061172b565b6110009190611744565b60a083015250919050565b600080600080866001600160a01b0316886001600160a01b031610611031578688611034565b87875b909850965060006001600160a01b037f000000000000000000000000000000000000000000000000000000000000000016631698ee828a8a61107c60608c0160408d0161175b565b6040517fffffffff0000000000000000000000000000000000000000000000000000000060e086901b1681526001600160a01b03938416600482015292909116602483015262ffffff166044820152606401602060405180830381865afa1580156110eb573d6000803e3d6000fd5b505050506040513d601f19601f8201168201806040525081019061110f9190611550565b905073eEcFd6b318552b828397A850BDE973ea56663C9D63ccd5c4626040518060600160405280896001600160a01b031681526020018a803603810190611156919061168a565b8152602001846001600160a01b03168152506040518263ffffffff1660e01b81526004016111849190611778565b608060405180830381865af41580156111a1573d6000803e3d6000fd5b505050506040513d601f19601f820116820180604052508101906111c5919061163e565b929750909550935091506111d983866117d6565b94506111e582856117d6565b935050945094509450949050565b6001600160a01b038116811461120857600080fd5b50565b60006020828403121561121d57600080fd5b8135611228816111f3565b9392505050565b60008060008060006080868803121561124757600080fd5b853567ffffffffffffffff8082111561125f57600080fd5b818801915088601f83011261127357600080fd5b81358181111561128257600080fd5b89602060608302850101111561129757600080fd5b602092830197509550508601356112ad816111f3565b925060408601356112bd816111f3565b915060608601356112cd816111f3565b809150509295509295909350565b600081518084526020808501945080840160005b83811015611340578151611326888251805160020b8252602081015160020b602083015262ffffff60408201511660408301525050565b8301516060880152608090960195908201906001016112ef565b509495945050505050565b60408152600061135e60408301856112db565b828103602084015261137081856112db565b95945050505050565b60808152600061138c60808301876112db565b828103602084015261139e81876112db565b905082810360408401526113b281866112db565b905082810360608401526113c681856112db565b979650505050505050565b634e487b7160e01b600052604160045260246000fd5b6040516060810167ffffffffffffffff8111828210171561140a5761140a6113d1565b60405290565b604051601f8201601f1916810167ffffffffffffffff81118282101715611439576114396113d1565b604052919050565b8060020b811461120857600080fd5b62ffffff8116811461120857600080fd5b6000602080838503121561147457600080fd5b825167ffffffffffffffff8082111561148c57600080fd5b818501915085601f8301126114a057600080fd5b8151818111156114b2576114b26113d1565b6114c0848260051b01611410565b818152848101925060609182028401850191888311156114df57600080fd5b938501935b828510156115445780858a0312156114fc5760008081fd5b6115046113e7565b855161150f81611441565b81528587015161151e81611441565b8188015260408681015161153181611450565b90820152845293840193928501926114e4565b50979650505050505050565b60006020828403121561156257600080fd5b8151611228816111f3565b6020808252825160a083830152805160c0840181905260009291820190839060e08601905b808310156115dd576115c7828551805160020b8252602081015160020b602083015262ffffff60408201511660408301525050565b6060820191508484019350600183019250611592565b50928601516001600160a01b03811660408701529260408701516001600160a01b0381166060880152935060608701516001600160a01b0381166080880152935060808701516001600160a01b03811660a088015293509695505050505050565b6000806000806080858703121561165457600080fd5b505082516020840151604085015160609095015191969095509092509050565b634e487b7160e01b600052603260045260246000fd5b60006060828403121561169c57600080fd5b6040516060810181811067ffffffffffffffff821117156116bf576116bf6113d1565b60405282356116cd81611441565b815260208301356116dd81611441565b602082015260408301356116f081611450565b60408201529392505050565b634e487b7160e01b600052601160045260246000fd5b600060018201611724576117246116fc565b5060010190565b60006020828403121561173d57600080fd5b5051919050565b600082821015611756576117566116fc565b500390565b60006020828403121561176d57600080fd5b813561122881611450565b600060a0820190506001600160a01b0380845116835260208401516117c26020850182805160020b8252602081015160020b602083015262ffffff60408201511660408301525050565b508060408501511660808401525092915050565b600082198211156117e9576117e96116fc565b50019056fea26469706673582212203be0d70e99e6200260e916cc12fd8f2271132a945705ac16200bc1928599123d64736f6c634300080d0033",
  "deployedBytecode": "0x608060405234801561001057600080fd5b50600436106100725760003560e01c8063943865551161005057806394386555146100f8578063c45a01551461011b578063e9b7218a1461015a57600080fd5b80630f8f2d1d146100775780636ea08e2a146100af5780638fe5a01e146100d7575b600080fd5b61008a61008536600461120b565b6101b9565b6040805194855260208501939093529183015260608201526080015b60405180910390f35b6100c26100bd36600461120b565b6103dd565b604080519283526020830191909152016100a6565b6100ea6100e536600461122f565b6105fb565b6040516100a692919061134b565b61010b61010636600461122f565b6107f5565b6040516100a69493929190611379565b6101427f000000000000000000000000000000000000000000000000000000000000000081565b6040516001600160a01b0390911681526020016100a6565b61016d61016836600461120b565b610bb1565b6040516100a69190600060c082019050825182526020830151602083015260408301516040830152606083015160608301526080830151608083015260a083015160a083015292915050565b60008060008060006040518060a00160405280876001600160a01b031663617a34196040518163ffffffff1660e01b8152600401600060405180830381865afa15801561020a573d6000803e3d6000fd5b505050506040513d6000823e601f3d908101601f191682016040526102329190810190611461565b81526020017f00000000000000000000000000000000000000000000000000000000000000006001600160a01b03168152602001876001600160a01b0316630dfe16816040518163ffffffff1660e01b8152600401602060405180830381865afa1580156102a4573d6000803e3d6000fd5b505050506040513d601f19601f820116820180604052508101906102c89190611550565b6001600160a01b03168152602001876001600160a01b031663d21220a76040518163ffffffff1660e01b8152600401602060405180830381865afa158015610314573d6000803e3d6000fd5b505050506040513d601f19601f820116820180604052508101906103389190611550565b6001600160a01b03168152602001876001600160a01b0316815250905073__$3d23d8578387a47facd93bb77f6fe6e81b$__63e56f4d91826040518263ffffffff1660e01b815260040161038c919061156d565b608060405180830381865af41580156103a9573d6000803e3d6000fd5b505050506040513d601f19601f820116820180604052508101906103cd919061163e565b9299919850965090945092505050565b60008060006040518060a00160405280856001600160a01b031663617a34196040518163ffffffff1660e01b8152600401600060405180830381865afa15801561042b573d6000803e3d6000fd5b505050506040513d6000823e601f3d908101601f191682016040526104539190810190611461565b81526020017f00000000000000000000000000000000000000000000000000000000000000006001600160a01b03168152602001856001600160a01b0316630dfe16816040518163ffffffff1660e01b8152600401602060405180830381865afa1580156104c5573d6000803e3d6000fd5b505050506040513d601f19601f820116820180604052508101906104e99190611550565b6001600160a01b03168152602001856001600160a01b031663d21220a76040518163ffffffff1660e01b8152600401602060405180830381865afa158015610535573d6000803e3d6000fd5b505050506040513d601f19601f820116820180604052508101906105599190611550565b6001600160a01b03168152602001856001600160a01b0316815250905073__$3d23d8578387a47facd93bb77f6fe6e81b$__63e56f4d91826040518263ffffffff1660e01b81526004016105ad919061156d565b608060405180830381865af41580156105ca573d6000803e3d6000fd5b505050506040513d601f19601f820116820180604052508101906105ee919061163e565b5091969095509350505050565b6060808567ffffffffffffffff811115610617576106176113d1565b60405190808252806020026020018201604052801561067257816020015b6040805160a08101825260009181018281526060820183905260808201839052815260208101919091528152602001906001900390816106355790505b5091508567ffffffffffffffff81111561068e5761068e6113d1565b6040519080825280602002602001820160405280156106e957816020015b6040805160a08101825260009181018281526060820183905260808201839052815260208101919091528152602001906001900390816106ac5790505b50905060005b868110156107ea5760008061071d88888c8c8781811061071157610711611674565b9050606002018961100b565b50509150915060405180604001604052808b8b8681811061074057610740611674565b905060600201803603810190610756919061168a565b81526020018381525085848151811061077157610771611674565b602002602001018190525060405180604001604052808b8b8681811061079957610799611674565b9050606002018036038101906107af919061168a565b8152602001828152508484815181106107ca576107ca611674565b6020026020010181905250505080806107e290611712565b9150506106ef565b509550959350505050565b60608080808767ffffffffffffffff811115610813576108136113d1565b60405190808252806020026020018201604052801561086e57816020015b6040805160a08101825260009181018281526060820183905260808201839052815260208101919091528152602001906001900390816108315790505b5093508767ffffffffffffffff81111561088a5761088a6113d1565b6040519080825280602002602001820160405280156108e557816020015b6040805160a08101825260009181018281526060820183905260808201839052815260208101919091528152602001906001900390816108a85790505b5092508767ffffffffffffffff811115610901576109016113d1565b60405190808252806020026020018201604052801561095c57816020015b6040805160a081018252600091810182815260608201839052608082018390528152602081019190915281526020019060019003908161091f5790505b5091508767ffffffffffffffff811115610978576109786113d1565b6040519080825280602002602001820160405280156109d357816020015b6040805160a08101825260009181018281526060820183905260808201839052815260208101919091528152602001906001900390816109965790505b50905060005b88811015610ba4578989828181106109f3576109f3611674565b905060600201803603810190610a09919061168a565b858281518110610a1b57610a1b611674565b602090810291909101015152898982818110610a3957610a39611674565b905060600201803603810190610a4f919061168a565b848281518110610a6157610a61611674565b602090810291909101015152898982818110610a7f57610a7f611674565b905060600201803603810190610a95919061168a565b838281518110610aa757610aa7611674565b602090810291909101015152898982818110610ac557610ac5611674565b905060600201803603810190610adb919061168a565b828281518110610aed57610aed611674565b602090810291909101015152610b1088888c8c8581811061071157610711611674565b888581518110610b2257610b22611674565b6020026020010151602001888681518110610b3f57610b3f611674565b6020026020010151602001888781518110610b5c57610b5c611674565b6020026020010151602001888881518110610b7957610b79611674565b6020908102919091018101510193909352929091529190525280610b9c81611712565b9150506109d9565b5095509550955095915050565b610bea6040518060c001604052806000815260200160008152602001600081526020016000815260200160008152602001600081525090565b60006040518060a00160405280846001600160a01b031663617a34196040518163ffffffff1660e01b8152600401600060405180830381865afa158015610c35573d6000803e3d6000fd5b505050506040513d6000823e601f3d908101601f19168201604052610c5d9190810190611461565b81526020017f00000000000000000000000000000000000000000000000000000000000000006001600160a01b03168152602001846001600160a01b0316630dfe16816040518163ffffffff1660e01b8152600401602060405180830381865afa158015610ccf573d6000803e3d6000fd5b505050506040513d601f19601f82011682018060405250810190610cf39190611550565b6001600160a01b03168152602001846001600160a01b031663d21220a76040518163ffffffff1660e01b8152600401602060405180830381865afa158015610d3f573d6000803e3d6000fd5b505050506040513d601f19601f82011682018060405250810190610d639190611550565b6001600160a01b03168152602001846001600160a01b0316815250905073__$3d23d8578387a47facd93bb77f6fe6e81b$__63e56f4d91826040518263ffffffff1660e01b8152600401610db7919061156d565b608060405180830381865af4158015610dd4573d6000803e3d6000fd5b505050506040513d601f19601f82011682018060405250810190610df8919061163e565b6060860152604080860191909152602080860192909252918452608083015182517f065756db00000000000000000000000000000000000000000000000000000000815292516001600160a01b039091169263065756db9260048083019391928290030181865afa158015610e71573d6000803e3d6000fd5b505050506040513d601f19601f82011682018060405250810190610e95919061172b565b604080830151608084015191516370a0823160e01b81526001600160a01b0392831660048201529116906370a0823190602401602060405180830381865afa158015610ee5573d6000803e3d6000fd5b505050506040513d601f19601f82011682018060405250810190610f09919061172b565b610f139190611744565b82608001818152505080608001516001600160a01b03166342fb9d446040518163ffffffff1660e01b8152600401602060405180830381865afa158015610f5e573d6000803e3d6000fd5b505050506040513d601f19601f82011682018060405250810190610f82919061172b565b606082015160808301516040516370a0823160e01b81526001600160a01b0391821660048201529116906370a0823190602401602060405180830381865afa158015610fd2573d6000803e3d6000fd5b505050506040513d601f19601f82011682018060405250810190610ff6919061172b565b6110009190611744565b60a083015250919050565b600080600080866001600160a01b0316886001600160a01b031610611031578688611034565b87875b909850965060006001600160a01b037f000000000000000000000000000000000000000000000000000000000000000016631698ee828a8a61107c60608c0160408d0161175b565b6040517fffffffff0000000000000000000000000000000000000000000000000000000060e086901b1681526001600160a01b03938416600482015292909116602483015262ffffff166044820152606401602060405180830381865afa1580156110eb573d6000803e3d6000fd5b505050506040513d601f19601f8201168201806040525081019061110f9190611550565b905073__$3d23d8578387a47facd93bb77f6fe6e81b$__63ccd5c4626040518060600160405280896001600160a01b031681526020018a803603810190611156919061168a565b8152602001846001600160a01b03168152506040518263ffffffff1660e01b81526004016111849190611778565b608060405180830381865af41580156111a1573d6000803e3d6000fd5b505050506040513d601f19601f820116820180604052508101906111c5919061163e565b929750909550935091506111d983866117d6565b94506111e582856117d6565b935050945094509450949050565b6001600160a01b038116811461120857600080fd5b50565b60006020828403121561121d57600080fd5b8135611228816111f3565b9392505050565b60008060008060006080868803121561124757600080fd5b853567ffffffffffffffff8082111561125f57600080fd5b818801915088601f83011261127357600080fd5b81358181111561128257600080fd5b89602060608302850101111561129757600080fd5b602092830197509550508601356112ad816111f3565b925060408601356112bd816111f3565b915060608601356112cd816111f3565b809150509295509295909350565b600081518084526020808501945080840160005b83811015611340578151611326888251805160020b8252602081015160020b602083015262ffffff60408201511660408301525050565b8301516060880152608090960195908201906001016112ef565b509495945050505050565b60408152600061135e60408301856112db565b828103602084015261137081856112db565b95945050505050565b60808152600061138c60808301876112db565b828103602084015261139e81876112db565b905082810360408401526113b281866112db565b905082810360608401526113c681856112db565b979650505050505050565b634e487b7160e01b600052604160045260246000fd5b6040516060810167ffffffffffffffff8111828210171561140a5761140a6113d1565b60405290565b604051601f8201601f1916810167ffffffffffffffff81118282101715611439576114396113d1565b604052919050565b8060020b811461120857600080fd5b62ffffff8116811461120857600080fd5b6000602080838503121561147457600080fd5b825167ffffffffffffffff8082111561148c57600080fd5b818501915085601f8301126114a057600080fd5b8151818111156114b2576114b26113d1565b6114c0848260051b01611410565b818152848101925060609182028401850191888311156114df57600080fd5b938501935b828510156115445780858a0312156114fc5760008081fd5b6115046113e7565b855161150f81611441565b81528587015161151e81611441565b8188015260408681015161153181611450565b90820152845293840193928501926114e4565b50979650505050505050565b60006020828403121561156257600080fd5b8151611228816111f3565b6020808252825160a083830152805160c0840181905260009291820190839060e08601905b808310156115dd576115c7828551805160020b8252602081015160020b602083015262ffffff60408201511660408301525050565b6060820191508484019350600183019250611592565b50928601516001600160a01b03811660408701529260408701516001600160a01b0381166060880152935060608701516001600160a01b0381166080880152935060808701516001600160a01b03811660a088015293509695505050505050565b6000806000806080858703121561165457600080fd5b505082516020840151604085015160609095015191969095509092509050565b634e487b7160e01b600052603260045260246000fd5b60006060828403121561169c57600080fd5b6040516060810181811067ffffffffffffffff821117156116bf576116bf6113d1565b60405282356116cd81611441565b815260208301356116dd81611441565b602082015260408301356116f081611450565b60408201529392505050565b634e487b7160e01b600052601160045260246000fd5b600060018201611724576117246116fc565b5060010190565b60006020828403121561173d57600080fd5b5051919050565b600082821015611756576117566116fc565b500390565b60006020828403121561176d57600080fd5b813561122881611450565b600060a0820190506001600160a01b0380845116835260208401516117c26020850182805160020b8252602081015160020b602083015262ffffff60408201511660408301525050565b508060408501511660808401525092915050565b600082198211156117e9576117e96116fc565b50019056fea26469706673582212203be0d70e99e6200260e916cc12fd8f2271132a945705ac16200bc1928599123d64736f6c634300080d0033",
  "libraries": {
    "Underlying": "0xeEcFd6b318552b828397A850BDE973ea56663C9D",
    "Position": "0xaC3F146Eb3e4c13C0155424F177955ca06772f88"
  },
  "devdoc": {
    "kind": "dev",
    "methods": {
      "token0AndToken1ByRange((int24,int24,uint24)[],address,address,address)": {
        "params": {
          "ranges_": "list of range to get underlying info about.",
          "token0_": "address of first token.",
          "token1_": "address of second token.",
          "vaultV2_": "address of Arrakis V2 vault."
        },
        "returns": {
          "amount0s": "amounts of underlying of token 0.",
          "amount1s": "amounts of underlying of token 1."
        }
      },
      "token0AndToken1PlusFeesByRange((int24,int24,uint24)[],address,address,address)": {
        "params": {
          "ranges_": "list of range to get underlying info about.",
          "token0_": "address of first token.",
          "token1_": "address of second token.",
          "vaultV2_": "address of Arrakis V2 vault."
        },
        "returns": {
          "amount0s": "amounts of underlying of token 1.",
          "amount1s": "amounts of underlying of token 1.",
          "fee0s": "amounts of fees of token 0.",
          "fee1s": "amounts of fees of token 1."
        }
      },
      "totalUnderlying(address)": {
        "params": {
          "vault_": "Arrakis V2 vault to get underlying info about."
        },
        "returns": {
          "amount0": "amount of underlying of token 0.",
          "amount1": "amount of underlying of token 1."
        }
      },
      "totalUnderlyingWithFees(address)": {
        "params": {
          "vault_": "Arrakis V2 vault to get underlying info about."
        },
        "returns": {
          "amount0": "amount of underlying of token 0.",
          "amount1": "amount of underlying of token 1.",
          "fee0": "amount of fee of token 0.",
          "fee1": "amount of fee of token 0."
        }
      },
      "totalUnderlyingWithFeesAndLeftOver(address)": {
        "params": {
          "vault_": "Arrakis V2 vault to get underlying info about."
        },
        "returns": {
          "underlying": "struct containing underlying amounts of token0 and token1, fees of token0 and token1, finally leftover on vault of token0 and token1."
        }
      }
    },
    "title": "ArrakisV2Helper helpers for querying common info about ArrakisV2 vaults",
    "version": 1
  },
  "userdoc": {
    "kind": "user",
    "methods": {
      "token0AndToken1ByRange((int24,int24,uint24)[],address,address,address)": {
        "notice": "get underlyings of token0 and token1 in two lists."
      },
      "token0AndToken1PlusFeesByRange((int24,int24,uint24)[],address,address,address)": {
        "notice": "get underlyings and fees of token0 and token1 in two lists."
      },
      "totalUnderlying(address)": {
        "notice": "get underlying."
      },
      "totalUnderlyingWithFees(address)": {
        "notice": "get total underlying, also returns uncollected fees separately."
      },
      "totalUnderlyingWithFeesAndLeftOver(address)": {
        "notice": "get total underlying, also returns uncollected fees and leftover separatly."
      }
    },
    "version": 1
  },
  "storageLayout": {
    "storage": [],
    "types": null
  }
}