{
  "address": "0xDa6aF558a903FA9d4F92bbD1293d8b55F718c732",
  "abi": [
    {
      "inputs": [
        {
          "internalType": "address",
          "name": "deployer_",
          "type": "address"
        },
        {
          "internalType": "contract IArrakisV2Beacon",
          "name": "arrakisV2Beacon_",
          "type": "address"
        }
      ],
      "stateMutability": "nonpayable",
      "type": "constructor"
    },
    {
      "anonymous": false,
      "inputs": [
        {
          "indexed": false,
          "internalType": "address",
          "name": "owner",
          "type": "address"
        }
      ],
      "name": "InitFactory",
      "type": "event"
    },
    {
      "anonymous": false,
      "inputs": [
        {
          "indexed": false,
          "internalType": "uint8",
          "name": "version",
          "type": "uint8"
        }
      ],
      "name": "Initialized",
      "type": "event"
    },
    {
      "anonymous": false,
      "inputs": [
        {
          "indexed": true,
          "internalType": "address",
          "name": "previousOwner",
          "type": "address"
        },
        {
          "indexed": true,
          "internalType": "address",
          "name": "newOwner",
          "type": "address"
        }
      ],
      "name": "OwnershipTransferred",
      "type": "event"
    },
    {
      "anonymous": false,
      "inputs": [
        {
          "indexed": true,
          "internalType": "address",
          "name": "manager",
          "type": "address"
        },
        {
          "indexed": true,
          "internalType": "address",
          "name": "vault",
          "type": "address"
        }
      ],
      "name": "VaultCreated",
      "type": "event"
    },
    {
      "inputs": [],
      "name": "arrakisV2Beacon",
      "outputs": [
        {
          "internalType": "contract IArrakisV2Beacon",
          "name": "",
          "type": "address"
        }
      ],
      "stateMutability": "view",
      "type": "function"
    },
    {
      "inputs": [
        {
          "components": [
            {
              "internalType": "uint24[]",
              "name": "feeTiers",
              "type": "uint24[]"
            },
            {
              "internalType": "address",
              "name": "token0",
              "type": "address"
            },
            {
              "internalType": "address",
              "name": "token1",
              "type": "address"
            },
            {
              "internalType": "address",
              "name": "owner",
              "type": "address"
            },
            {
              "internalType": "uint256",
              "name": "init0",
              "type": "uint256"
            },
            {
              "internalType": "uint256",
              "name": "init1",
              "type": "uint256"
            },
            {
              "internalType": "address",
              "name": "manager",
              "type": "address"
            },
            {
              "internalType": "int24",
              "name": "maxTwapDeviation",
              "type": "int24"
            },
            {
              "internalType": "uint24",
              "name": "twapDuration",
              "type": "uint24"
            },
            {
              "internalType": "uint24",
              "name": "maxSlippage",
              "type": "uint24"
            }
          ],
          "internalType": "struct InitializePayload",
          "name": "params_",
          "type": "tuple"
        },
        {
          "internalType": "bool",
          "name": "isBeacon_",
          "type": "bool"
        }
      ],
      "name": "deployVault",
      "outputs": [
        {
          "internalType": "address",
          "name": "vault",
          "type": "address"
        }
      ],
      "stateMutability": "nonpayable",
      "type": "function"
    },
    {
      "inputs": [],
      "name": "deployer",
      "outputs": [
        {
          "internalType": "address",
          "name": "",
          "type": "address"
        }
      ],
      "stateMutability": "view",
      "type": "function"
    },
    {
      "inputs": [],
      "name": "getDeployerVaults",
      "outputs": [
        {
          "internalType": "address[]",
          "name": "",
          "type": "address[]"
        }
      ],
      "stateMutability": "view",
      "type": "function"
    },
    {
      "inputs": [],
      "name": "getDeployers",
      "outputs": [
        {
          "internalType": "address[]",
          "name": "",
          "type": "address[]"
        }
      ],
      "stateMutability": "view",
      "type": "function"
    },
    {
      "inputs": [
        {
          "internalType": "address",
          "name": "proxy",
          "type": "address"
        }
      ],
      "name": "getProxyAdmin",
      "outputs": [
        {
          "internalType": "address",
          "name": "",
          "type": "address"
        }
      ],
      "stateMutability": "view",
      "type": "function"
    },
    {
      "inputs": [
        {
          "internalType": "address",
          "name": "proxy",
          "type": "address"
        }
      ],
      "name": "getProxyImplementation",
      "outputs": [
        {
          "internalType": "address",
          "name": "",
          "type": "address"
        }
      ],
      "stateMutability": "view",
      "type": "function"
    },
    {
      "inputs": [
        {
          "internalType": "address",
          "name": "token0_",
          "type": "address"
        },
        {
          "internalType": "address",
          "name": "token1_",
          "type": "address"
        }
      ],
      "name": "getTokenName",
      "outputs": [
        {
          "internalType": "string",
          "name": "",
          "type": "string"
        }
      ],
      "stateMutability": "view",
      "type": "function"
    },
    {
      "inputs": [
        {
          "internalType": "address",
          "name": "deployer",
          "type": "address"
        }
      ],
      "name": "getVaultsByDeployer",
      "outputs": [
        {
          "internalType": "address[]",
          "name": "",
          "type": "address[]"
        }
      ],
      "stateMutability": "view",
      "type": "function"
    },
    {
      "inputs": [],
      "name": "index",
      "outputs": [
        {
          "internalType": "uint256",
          "name": "",
          "type": "uint256"
        }
      ],
      "stateMutability": "view",
      "type": "function"
    },
    {
      "inputs": [
        {
          "internalType": "address",
          "name": "_owner_",
          "type": "address"
        }
      ],
      "name": "initialize",
      "outputs": [],
      "stateMutability": "nonpayable",
      "type": "function"
    },
    {
      "inputs": [
        {
          "internalType": "address[]",
          "name": "vaults_",
          "type": "address[]"
        }
      ],
      "name": "makeVaultsImmutable",
      "outputs": [],
      "stateMutability": "nonpayable",
      "type": "function"
    },
    {
      "inputs": [],
      "name": "numDeployers",
      "outputs": [
        {
          "internalType": "uint256",
          "name": "",
          "type": "uint256"
        }
      ],
      "stateMutability": "view",
      "type": "function"
    },
    {
      "inputs": [],
      "name": "numVaults",
      "outputs": [
        {
          "internalType": "uint256",
          "name": "result",
          "type": "uint256"
        }
      ],
      "stateMutability": "view",
      "type": "function"
    },
    {
      "inputs": [
        {
          "internalType": "address",
          "name": "deployer",
          "type": "address"
        }
      ],
      "name": "numVaultsByDeployer",
      "outputs": [
        {
          "internalType": "uint256",
          "name": "",
          "type": "uint256"
        }
      ],
      "stateMutability": "view",
      "type": "function"
    },
    {
      "inputs": [],
      "name": "owner",
      "outputs": [
        {
          "internalType": "address",
          "name": "",
          "type": "address"
        }
      ],
      "stateMutability": "view",
      "type": "function"
    },
    {
      "inputs": [],
      "name": "renounceOwnership",
      "outputs": [],
      "stateMutability": "nonpayable",
      "type": "function"
    },
    {
      "inputs": [
        {
          "internalType": "address",
          "name": "newOwner",
          "type": "address"
        }
      ],
      "name": "transferOwnership",
      "outputs": [],
      "stateMutability": "nonpayable",
      "type": "function"
    },
    {
      "inputs": [
        {
          "internalType": "address[]",
          "name": "vaults_",
          "type": "address[]"
        }
      ],
      "name": "upgradeVaults",
      "outputs": [],
      "stateMutability": "nonpayable",
      "type": "function"
    },
    {
      "inputs": [
        {
          "internalType": "address[]",
          "name": "vaults_",
          "type": "address[]"
        },
        {
          "internalType": "bytes[]",
          "name": "datas_",
          "type": "bytes[]"
        }
      ],
      "name": "upgradeVaultsAndCall",
      "outputs": [],
      "stateMutability": "nonpayable",
      "type": "function"
    },
    {
      "inputs": [],
      "name": "version",
      "outputs": [
        {
          "internalType": "string",
          "name": "",
          "type": "string"
        }
      ],
      "stateMutability": "view",
      "type": "function"
    }
  ],
  "transactionHash": "0x881b7e3eb18cf2e3b9efa99b5c81ae628d8f4bcab920f11b5d2c64b926625cb6",
  "args": [
    "0xDEb4C33D5C3E7e32F55a9D6336FE06010E40E3AB",
    "0xC172fF541F684989A36D3Ff90C34165B1F42F6c2"
  ],
  "numDeployments": 1,
  "solcInputHash": "8713f9ed34564696414df2c71a10d18f",
  "bytecode": "0x60c06040523480156200001157600080fd5b506040516200379738038062003797833981016040819052620000349162000065565b6001600160a01b0391821660a05216608052620000a4565b6001600160a01b03811681146200006257600080fd5b50565b600080604083850312156200007957600080fd5b825162000086816200004c565b602084015190925062000099816200004c565b809150509250929050565b60805160a0516136a3620000f4600039600081816102cd015281816103dc01526104f10152600081816102320152818161070201528181610b6c01528181610f9c015261106301526136a36000f3fe60806040523480156200001157600080fd5b50600436106200011e5760003560e01c8063098eddb11462000123578063204e1c7a146200014057806325de07f61462000166578063264a6208146200017f5780632986c0e5146200018957806333d80838146200019357806354fd4d5014620001aa578063607c12b514620001de57806364f954de14620001e8578063715018a614620001ff5780638da5cb5b146200020b5780638e7f20031462000215578063b36306ef146200022c578063bb81eef61462000254578063bd30dfb9146200026b578063c4d66de81462000282578063cf0093411462000299578063d5e1548514620002b0578063d5f3948814620002c7578063f2fde38b14620002ef578063f3b7dead1462000306575b600080fd5b6200012d6200031d565b6040519081526020015b60405180910390f35b620001576200015136600462001501565b6200033d565b6040516200013791906200152e565b62000170620003d4565b60405162000137919062001542565b6200012d62000401565b6200012d60655481565b6200012d620001a436600462001501565b6200046c565b620001cf604051806040016040528060058152602001640312e302e360dc1b81525081565b604051620001379190620015ee565b6200017062000495565b62000157620001f936600462001603565b620005aa565b620002096200063a565b005b6200015762000685565b620002096200022636600462001734565b62000694565b620001577f000000000000000000000000000000000000000000000000000000000000000081565b620002096200026536600462001734565b620007f1565b620001cf6200027c3660046200176c565b620008c7565b620002096200029336600462001501565b620009fc565b62000209620002aa3660046200179f565b62000ab1565b62000170620002c136600462001501565b62000c88565b620001577f000000000000000000000000000000000000000000000000000000000000000081565b620002096200030036600462001501565b62000d45565b620001576200031736600462001501565b62000dee565b60006200032b606662000e15565b6200033890600162001856565b905090565b6000806000836001600160a01b03166040516200036490635c60da1b60e01b815260040190565b600060405180830381855afa9150503d8060008114620003a1576040519150601f19603f3d011682016040523d82523d6000602084013e620003a6565b606091505b509150915081620003b657600080fd5b80806020019051810190620003cc919062001871565b949350505050565b6060620003387f000000000000000000000000000000000000000000000000000000000000000062000c88565b6000806200040e62000495565b905060005b815181101562000467576200044482828151811062000436576200043662001891565b60200260200101516200046c565b62000450908462001856565b9250806200045e81620018a7565b91505062000413565b505090565b6001600160a01b03811660009081526068602052604081206200048f9062000e15565b92915050565b60606000620004a36200031d565b90506000816001600160401b03811115620004c257620004c262001663565b604051908082528060200260200182016040528015620004ec578160200160208202803683370190505b5090507f00000000000000000000000000000000000000000000000000000000000000008160008151811062000526576200052662001891565b6001600160a01b039092166020928302919091019091015260015b82811015620005a357620005616200055b600183620018c3565b62000e20565b82828151811062000576576200057662001891565b6001600160a01b0390921660209283029190910190910152806200059a81620018a7565b91505062000541565b5092915050565b6000620005b8838362000e2f565b9050620005c7606633620010c8565b50336000908152606860205260409020620005e39082620010c8565b50600160656000828254620005f9919062001856565b90915550506040516001600160a01b0382169033907f5d9c31ffa0fecffd7cf379989a3c7af252f0335e0d2a1320b55245912c781f5390600090a392915050565b336200064562000685565b6001600160a01b031614620006775760405162461bcd60e51b81526004016200066e90620018dd565b60405180910390fd5b620006836000620010e6565b565b6033546001600160a01b031690565b336200069f62000685565b6001600160a01b031614620006c85760405162461bcd60e51b81526004016200066e90620018dd565b60005b8151811015620007ed57818181518110620006ea57620006ea62001891565b60200260200101516001600160a01b0316633659cfe67f00000000000000000000000000000000000000000000000000000000000000006001600160a01b0316635c60da1b6040518163ffffffff1660e01b8152600401602060405180830381865afa1580156200075f573d6000803e3d6000fd5b505050506040513d601f19601f8201168201806040525081019062000785919062001871565b6040518263ffffffff1660e01b8152600401620007a391906200152e565b600060405180830381600087803b158015620007be57600080fd5b505af1158015620007d3573d6000803e3d6000fd5b505050508080620007e490620018a7565b915050620006cb565b5050565b33620007fc62000685565b6001600160a01b031614620008255760405162461bcd60e51b81526004016200066e90620018dd565b60005b8151811015620007ed5781818151811062000847576200084762001891565b60200260200101516001600160a01b0316638f28397060016040518263ffffffff1660e01b81526004016200087d91906200152e565b600060405180830381600087803b1580156200089857600080fd5b505af1158015620008ad573d6000803e3d6000fd5b505050508080620008be90620018a7565b91505062000828565b60606000836001600160a01b03166395d89b416040518163ffffffff1660e01b8152600401600060405180830381865afa1580156200090a573d6000803e3d6000fd5b505050506040513d6000823e601f3d908101601f1916820160405262000934919081019062001912565b90506000836001600160a01b03166395d89b416040518163ffffffff1660e01b8152600401600060405180830381865afa15801562000977573d6000803e3d6000fd5b505050506040513d6000823e601f3d908101601f19168201604052620009a1919081019062001912565b9050620009f360405180604001604052806011815260200170020b93930b5b4b9902b30bab63a102b191607d1b81525083604051806040016040528060018152602001602f60f81b8152508462001138565b95945050505050565b600062000a0a60016200116c565b9050801562000a23576000805461ff0019166101001790555b62000a2e82620010e6565b7f6d4391b481e741f75506c7b1504309dd70c7eff29c463eae4bff33d733b0a9e28260405162000a5f91906200152e565b60405180910390a18015620007ed576000805461ff0019169055604051600181527f7f26b83ff96e1f2b6a682f133852f6798a09c465da95921460cefb38474024989060200160405180910390a15050565b3362000abc62000685565b6001600160a01b03161462000ae55760405162461bcd60e51b81526004016200066e90620018dd565b8251811462000b325760405162461bcd60e51b81526020600482015260186024820152770dad2e6dac2e8c6d0d2dcce40c2e4e4c2f240d8cadccee8d60431b60448201526064016200066e565b60005b835181101562000c825783818151811062000b545762000b5462001891565b60200260200101516001600160a01b0316634f1ef2867f00000000000000000000000000000000000000000000000000000000000000006001600160a01b0316635c60da1b6040518163ffffffff1660e01b8152600401602060405180830381865afa15801562000bc9573d6000803e3d6000fd5b505050506040513d601f19601f8201168201806040525081019062000bef919062001871565b85858581811062000c045762000c0462001891565b905060200281019062000c189190620019a7565b6040518463ffffffff1660e01b815260040162000c3893929190620019f0565b600060405180830381600087803b15801562000c5357600080fd5b505af115801562000c68573d6000803e3d6000fd5b50505050808062000c7990620018a7565b91505062000b35565b50505050565b6060600062000c97836200046c565b90506000816001600160401b0381111562000cb65762000cb662001663565b60405190808252806020026020018201604052801562000ce0578160200160208202803683370190505b50905060005b8281101562000d3d5762000cfb858262001201565b82828151811062000d105762000d1062001891565b6001600160a01b03909216602092830291909101909101528062000d3481620018a7565b91505062000ce6565b509392505050565b3362000d5062000685565b6001600160a01b03161462000d795760405162461bcd60e51b81526004016200066e90620018dd565b6001600160a01b03811662000de05760405162461bcd60e51b815260206004820152602660248201527f4f776e61626c653a206e6577206f776e657220697320746865207a65726f206160448201526564647265737360d01b60648201526084016200066e565b62000deb81620010e6565b50565b6000806000836001600160a01b031660405162000364906303e1469160e61b815260040190565b60006200048f825490565b60006200048f60668362001220565b6000808062000e6162000e49604087016020880162001501565b62000e5b606088016040890162001501565b6200122e565b604080518082018252601081526f20b93930b5b4b9902b30bab63a102b1960811b6020820152905163bd30dfb960e01b81526001600160a01b0380851660048301528316602482015292945090925090309063bd30dfb990604401600060405180830381865afa92505050801562000efd57506040513d6000823e601f3d908101601f1916820160405262000efa919081019062001912565b60015b1562000f065790505b60006356d9b05160e01b8262000f2c606554600162000f26919062001856565b620012fc565b60405160200162000f3e919062001a30565b60408051601f198184030181529082905262000f6092918b9060240162001b1c565b60408051601f198184030181529190526020810180516001600160e01b03166001600160e01b03199093169290921790915290508562001061577f00000000000000000000000000000000000000000000000000000000000000006001600160a01b0316635c60da1b6040518163ffffffff1660e01b8152600401602060405180830381865afa15801562000ff9573d6000803e3d6000fd5b505050506040513d601f19601f820116820180604052508101906200101f919062001871565b30826040516200102f90620014c2565b6200103d9392919062001c5c565b604051809103906000f0801580156200105a573d6000803e3d6000fd5b50620010bd565b7f0000000000000000000000000000000000000000000000000000000000000000816040516200109190620014d0565b6200109e92919062001c8a565b604051809103906000f080158015620010bb573d6000803e3d6000fd5b505b979650505050505050565b6000620010df836001600160a01b03841662001443565b9392505050565b603380546001600160a01b038381166001600160a01b0319831681179093556040519116919082907f8be0079c531659141344cd1fd0a4f28419497f9722a3daafe3b4186f6b6457e090600090a35050565b60608484848460405160200162001153949392919062001cb0565b6040516020818303038152906040529050949350505050565b60008054610100900460ff1615620011b8578160ff166001148015620011915750303b155b620011b05760405162461bcd60e51b81526004016200066e9062001d0f565b506000919050565b60005460ff808416911610620011e25760405162461bcd60e51b81526004016200066e9062001d0f565b506000805460ff191660ff92909216919091179055600190565b919050565b6001600160a01b0382166000908152606860205260408120620010df90835b6000620010df838362001495565b600080826001600160a01b0316846001600160a01b031603620012815760405162461bcd60e51b815260206004820152600a60248201526939b0b6b2903a37b5b2b760b11b60448201526064016200066e565b826001600160a01b0316846001600160a01b031610620012a3578284620012a6565b83835b90925090506001600160a01b038216620012f55760405162461bcd60e51b815260206004820152600f60248201526e6e6f2061646472657373207a65726f60881b60448201526064016200066e565b9250929050565b606081600003620013245750506040805180820190915260018152600360fc1b602082015290565b8160005b81156200135457806200133b81620018a7565b91506200134c9050600a8362001d5d565b915062001328565b6000816001600160401b0381111562001371576200137162001663565b6040519080825280601f01601f1916602001820160405280156200139c576020820181803683370190505b509050815b85156200143a57620013b5600182620018c3565b90506000620013c6600a8862001d5d565b620013d390600a62001d80565b620013df9088620018c3565b620013ec90603062001da2565b905060008160f81b9050808484815181106200140c576200140c62001891565b60200101906001600160f81b031916908160001a90535062001430600a8962001d5d565b97505050620013a1565b50949350505050565b60008181526001830160205260408120546200148c575081546001818101845560008481526020808220909301849055845484825282860190935260409020919091556200048f565b5060006200048f565b6000826000018281548110620014af57620014af62001891565b9060005260206000200154905092915050565b610f1d8062001dcb83390190565b6109868062002ce883390190565b6001600160a01b038116811462000deb57600080fd5b8035620011fc81620014de565b6000602082840312156200151457600080fd5b8135620010df81620014de565b6001600160a01b03169052565b6001600160a01b0391909116815260200190565b6020808252825182820181905260009190848201906040850190845b81811015620015855783516001600160a01b0316835292840192918401916001016200155e565b50909695505050505050565b60005b83811015620015ae57818101518382015260200162001594565b8381111562000c825750506000910152565b60008151808452620015da81602086016020860162001591565b601f01601f19169290920160200192915050565b602081526000620010df6020830184620015c0565b600080604083850312156200161757600080fd5b82356001600160401b038111156200162e57600080fd5b830161014081860312156200164257600080fd5b9150602083013580151581146200165857600080fd5b809150509250929050565b634e487b7160e01b600052604160045260246000fd5b604051601f8201601f191681016001600160401b0381118282101715620016a457620016a462001663565b604052919050565b600082601f830112620016be57600080fd5b813560206001600160401b03821115620016dc57620016dc62001663565b8160051b620016ed82820162001679565b92835284810182019282810190878511156200170857600080fd5b83870192505b84831015620010bd5782356200172481620014de565b825291830191908301906200170e565b6000602082840312156200174757600080fd5b81356001600160401b038111156200175e57600080fd5b620003cc84828501620016ac565b600080604083850312156200178057600080fd5b82356200178d81620014de565b915060208301356200165881620014de565b600080600060408486031215620017b557600080fd5b83356001600160401b0380821115620017cd57600080fd5b620017db87838801620016ac565b94506020860135915080821115620017f257600080fd5b818601915086601f8301126200180757600080fd5b8135818111156200181757600080fd5b8760208260051b85010111156200182d57600080fd5b6020830194508093505050509250925092565b634e487b7160e01b600052601160045260246000fd5b600082198211156200186c576200186c62001840565b500190565b6000602082840312156200188457600080fd5b8151620010df81620014de565b634e487b7160e01b600052603260045260246000fd5b600060018201620018bc57620018bc62001840565b5060010190565b600082821015620018d857620018d862001840565b500390565b6020808252818101527f4f776e61626c653a2063616c6c6572206973206e6f7420746865206f776e6572604082015260600190565b6000602082840312156200192557600080fd5b81516001600160401b03808211156200193d57600080fd5b818401915084601f8301126200195257600080fd5b81518181111562001967576200196762001663565b6200197c601f8201601f191660200162001679565b91508082528560208285010111156200199457600080fd5b6200143a81602084016020860162001591565b6000808335601e19843603018112620019bf57600080fd5b8301803591506001600160401b03821115620019da57600080fd5b602001915036819003821315620012f557600080fd5b6001600160a01b03841681526040602082018190528101829052818360608301376000818301606090810191909152601f909201601f1916010192915050565b6852414b49532d56322d60b81b81526000825162001a5681600985016020870162001591565b9190910160090192915050565b6000808335601e1984360301811262001a7b57600080fd5b83016020810192503590506001600160401b0381111562001a9b57600080fd5b8060051b3603831315620012f557600080fd5b803562ffffff81168114620011fc57600080fd5b8183526000602080850194508260005b8581101562001afe5762ffffff62001aea8362001aae565b168752958201959082019060010162001ad2565b509495945050505050565b8035600281900b8114620011fc57600080fd5b60608152600062001b316060830186620015c0565b828103602084015262001b458186620015c0565b9050828103604084015261014062001b5e858662001a63565b82845262001b70838501828462001ac2565b9250505062001b8260208601620014f4565b62001b91602084018262001521565b5062001ba060408601620014f4565b62001baf604084018262001521565b5062001bbe60608601620014f4565b62001bcd606084018262001521565b506080850135608083015260a085013560a083015262001bf060c08601620014f4565b62001bff60c084018262001521565b5062001c0e60e0860162001b09565b62001c1e60e084018260020b9052565b5061010062001c2f81870162001aae565b62ffffff169083015261012062001c4886820162001aae565b62ffffff1692019190915295945050505050565b6001600160a01b03848116825283166020820152606060408201819052600090620009f390830184620015c0565b6001600160a01b0383168152604060208201819052600090620003cc90830184620015c0565b6000855162001cc4818460208a0162001591565b85519083019062001cda818360208a0162001591565b855191019062001cef81836020890162001591565b845191019062001d0481836020880162001591565b019695505050505050565b6020808252602e908201527f496e697469616c697a61626c653a20636f6e747261637420697320616c72656160408201526d191e481a5b9a5d1a585b1a5e995960921b606082015260800190565b60008262001d7b57634e487b7160e01b600052601260045260246000fd5b500490565b600081600019048311821515161562001d9d5762001d9d62001840565b500290565b600060ff821660ff84168060ff0382111562001dc25762001dc262001840565b01939250505056fe608060405260405162000f1d38038062000f1d833981016040819052620000269162000519565b82816200005560017f360894a13ba1a3210667c828492db98dca3e2076cc3735a920a3ca505d382bbd620005f9565b60008051602062000ed6833981519152146200007557620000756200061f565b6200008382826000620000e7565b50620000b3905060017fb53127684a568b3173ae13b9f8a6016e243e63b6e8ee1178d6a717850b5d6104620005f9565b60008051602062000eb683398151915214620000d357620000d36200061f565b620000de8262000124565b50505062000688565b620000f2836200017f565b600082511180620001005750805b156200011f576200011d8383620001c160201b6200022e1760201c565b505b505050565b7f7e644d79422f17c01e4894b5f4f588d331ebfa28653d42ae832dc59e38c9798f6200014f620001f0565b604080516001600160a01b03928316815291841660208301520160405180910390a16200017c8162000229565b50565b6200018a81620002de565b6040516001600160a01b038216907fbc7cd75a20ee27fd9adebab32041f755214dbc6bffa90cc0225b39da2e5c2d3b90600090a250565b6060620001e9838360405180606001604052806027815260200162000ef66027913962000381565b9392505050565b60006200021a60008051602062000eb683398151915260001b6200046760201b620001ea1760201c565b546001600160a01b0316919050565b6001600160a01b038116620002945760405162461bcd60e51b815260206004820152602660248201527f455243313936373a206e65772061646d696e20697320746865207a65726f206160448201526564647265737360d01b60648201526084015b60405180910390fd5b80620002bd60008051602062000eb683398151915260001b6200046760201b620001ea1760201c565b80546001600160a01b0319166001600160a01b039290921691909117905550565b620002f4816200046a60201b6200025a1760201c565b620003585760405162461bcd60e51b815260206004820152602d60248201527f455243313936373a206e657720696d706c656d656e746174696f6e206973206e60448201526c1bdd08184818dbdb9d1c9858dd609a1b60648201526084016200028b565b80620002bd60008051602062000ed683398151915260001b6200046760201b620001ea1760201c565b60606200038e846200046a565b620003eb5760405162461bcd60e51b815260206004820152602660248201527f416464726573733a2064656c65676174652063616c6c20746f206e6f6e2d636f6044820152651b9d1c9858dd60d21b60648201526084016200028b565b600080856001600160a01b03168560405162000408919062000635565b600060405180830381855af49150503d806000811462000445576040519150601f19603f3d011682016040523d82523d6000602084013e6200044a565b606091505b5090925090506200045d82828662000479565b9695505050505050565b90565b6001600160a01b03163b151590565b606083156200048a575081620001e9565b8251156200049b5782518084602001fd5b8160405162461bcd60e51b81526004016200028b919062000653565b80516001600160a01b0381168114620004cf57600080fd5b919050565b634e487b7160e01b600052604160045260246000fd5b60005b8381101562000507578181015183820152602001620004ed565b838111156200011d5750506000910152565b6000806000606084860312156200052f57600080fd5b6200053a84620004b7565b92506200054a60208501620004b7565b60408501519092506001600160401b03808211156200056857600080fd5b818601915086601f8301126200057d57600080fd5b815181811115620005925762000592620004d4565b604051601f8201601f19908116603f01168101908382118183101715620005bd57620005bd620004d4565b81604052828152896020848701011115620005d757600080fd5b620005ea836020830160208801620004ea565b80955050505050509250925092565b6000828210156200061a57634e487b7160e01b600052601160045260246000fd5b500390565b634e487b7160e01b600052600160045260246000fd5b6000825162000649818460208701620004ea565b9190910192915050565b602081526000825180602084015262000674816040850160208701620004ea565b601f01601f19169190910160400192915050565b61081e80620006986000396000f3fe60806040526004361061004e5760003560e01c80633659cfe6146100655780634f1ef286146100855780635c60da1b146100985780638f283970146100c9578063f851a440146100e95761005d565b3661005d5761005b6100fe565b005b61005b6100fe565b34801561007157600080fd5b5061005b610080366004610669565b610118565b61005b610093366004610684565b610155565b3480156100a457600080fd5b506100ad6101bc565b6040516001600160a01b03909116815260200160405180910390f35b3480156100d557600080fd5b5061005b6100e4366004610669565b6101ed565b3480156100f557600080fd5b506100ad61020d565b610106610269565b6101166101116102fe565b610308565b565b61012061032c565b6001600160a01b0316330361014d5761014a8160405180602001604052806000815250600061034d565b50565b61014a6100fe565b61015d61032c565b6001600160a01b031633036101b4576101af8383838080601f0160208091040260200160405190810160405280939291908181526020018383808284376000920191909152506001925061034d915050565b505050565b6101af6100fe565b60006101c661032c565b6001600160a01b031633036101e2576101dd6102fe565b905090565b6101ea6100fe565b90565b6101f561032c565b6001600160a01b0316330361014d5761014a81610378565b600061021761032c565b6001600160a01b031633036101e2576101dd61032c565b606061025383836040518060600160405280602781526020016107c2602791396103cc565b9392505050565b6001600160a01b03163b151590565b61027161032c565b6001600160a01b031633036101165760405162461bcd60e51b815260206004820152604260248201527f5472616e73706172656e745570677261646561626c6550726f78793a2061646d60448201527f696e2063616e6e6f742066616c6c6261636b20746f2070726f78792074617267606482015261195d60f21b608482015260a4015b60405180910390fd5b60006101dd6104a7565b3660008037600080366000845af43d6000803e808015610327573d6000f35b3d6000fd5b60006000805160206107828339815191525b546001600160a01b0316919050565b610356836104bd565b6000825111806103635750805b156101af57610372838361022e565b50505050565b7f7e644d79422f17c01e4894b5f4f588d331ebfa28653d42ae832dc59e38c9798f6103a161032c565b604080516001600160a01b03928316815291841660208301520160405180910390a161014a816104fd565b60606103d78461025a565b6104325760405162461bcd60e51b815260206004820152602660248201527f416464726573733a2064656c65676174652063616c6c20746f206e6f6e2d636f6044820152651b9d1c9858dd60d21b60648201526084016102f5565b600080856001600160a01b03168560405161044d9190610732565b600060405180830381855af49150503d8060008114610488576040519150601f19603f3d011682016040523d82523d6000602084013e61048d565b606091505b509150915061049d828286610594565b9695505050505050565b60006000805160206107a283398151915261033e565b6104c6816105cd565b6040516001600160a01b038216907fbc7cd75a20ee27fd9adebab32041f755214dbc6bffa90cc0225b39da2e5c2d3b90600090a250565b6001600160a01b0381166105625760405162461bcd60e51b815260206004820152602660248201527f455243313936373a206e65772061646d696e20697320746865207a65726f206160448201526564647265737360d01b60648201526084016102f5565b806000805160206107828339815191525b80546001600160a01b0319166001600160a01b039290921691909117905550565b606083156105a3575081610253565b8251156105b35782518084602001fd5b8160405162461bcd60e51b81526004016102f5919061074e565b6105d68161025a565b6106385760405162461bcd60e51b815260206004820152602d60248201527f455243313936373a206e657720696d706c656d656e746174696f6e206973206e60448201526c1bdd08184818dbdb9d1c9858dd609a1b60648201526084016102f5565b806000805160206107a2833981519152610573565b80356001600160a01b038116811461066457600080fd5b919050565b60006020828403121561067b57600080fd5b6102538261064d565b60008060006040848603121561069957600080fd5b6106a28461064d565b925060208401356001600160401b03808211156106be57600080fd5b818601915086601f8301126106d257600080fd5b8135818111156106e157600080fd5b8760208285010111156106f357600080fd5b6020830194508093505050509250925092565b60005b83811015610721578181015183820152602001610709565b838111156103725750506000910152565b60008251610744818460208701610706565b9190910192915050565b602081526000825180602084015261076d816040850160208701610706565b601f01601f1916919091016040019291505056feb53127684a568b3173ae13b9f8a6016e243e63b6e8ee1178d6a717850b5d6103360894a13ba1a3210667c828492db98dca3e2076cc3735a920a3ca505d382bbc416464726573733a206c6f772d6c6576656c2064656c65676174652063616c6c206661696c6564a264697066735822122032d0f69f8471fb2990c0e7830bbd5ab53fde3a9173cbc633bc1708fb2c83a3bc64736f6c634300080d0033b53127684a568b3173ae13b9f8a6016e243e63b6e8ee1178d6a717850b5d6103360894a13ba1a3210667c828492db98dca3e2076cc3735a920a3ca505d382bbc416464726573733a206c6f772d6c6576656c2064656c65676174652063616c6c206661696c6564608060405260405161098638038061098683398101604081905261002291610489565b61004d60017fa3f0ad74e5423aebfd80d3ef4346578335a9a72aeaee59ff6cb3582b35133d51610549565b60008051602061093f833981519152146100695761006961056e565b6100758282600061007c565b50506105ee565b61008583610147565b6040516001600160a01b038416907f1cf3b03a6cf19fa2baba4df148e9dcabedea7f8a5c07840e207e5c089be95d3e90600090a26000825111806100c65750805b1561014257610140836001600160a01b0316635c60da1b6040518163ffffffff1660e01b8152600401602060405180830381865afa15801561010c573d6000803e3d6000fd5b505050506040513d601f19601f820116820180604052508101906101309190610584565b836102d860201b6100291760201c565b505b505050565b61015a8161030460201b6100551760201c565b6101b95760405162461bcd60e51b815260206004820152602560248201527f455243313936373a206e657720626561636f6e206973206e6f74206120636f6e6044820152641d1c9858dd60da1b60648201526084015b60405180910390fd5b61022d816001600160a01b0316635c60da1b6040518163ffffffff1660e01b8152600401602060405180830381865afa1580156101fa573d6000803e3d6000fd5b505050506040513d601f19601f8201168201806040525081019061021e9190610584565b61030460201b6100551760201c565b6102925760405162461bcd60e51b815260206004820152603060248201527f455243313936373a20626561636f6e20696d706c656d656e746174696f6e206960448201526f1cc81b9bdd08184818dbdb9d1c9858dd60821b60648201526084016101b0565b806102b760008051602061093f83398151915260001b61031360201b6100641760201c565b80546001600160a01b0319166001600160a01b039290921691909117905550565b60606102fd838360405180606001604052806027815260200161095f60279139610316565b9392505050565b6001600160a01b03163b151590565b90565b606061032184610304565b61037c5760405162461bcd60e51b815260206004820152602660248201527f416464726573733a2064656c65676174652063616c6c20746f206e6f6e2d636f6044820152651b9d1c9858dd60d21b60648201526084016101b0565b600080856001600160a01b031685604051610397919061059f565b600060405180830381855af49150503d80600081146103d2576040519150601f19603f3d011682016040523d82523d6000602084013e6103d7565b606091505b5090925090506103e88282866103f2565b9695505050505050565b606083156104015750816102fd565b8251156104115782518084602001fd5b8160405162461bcd60e51b81526004016101b091906105bb565b80516001600160a01b038116811461044257600080fd5b919050565b634e487b7160e01b600052604160045260246000fd5b60005b83811015610478578181015183820152602001610460565b838111156101405750506000910152565b6000806040838503121561049c57600080fd5b6104a58361042b565b60208401519092506001600160401b03808211156104c257600080fd5b818501915085601f8301126104d657600080fd5b8151818111156104e8576104e8610447565b604051601f8201601f19908116603f0116810190838211818310171561051057610510610447565b8160405282815288602084870101111561052957600080fd5b61053a83602083016020880161045d565b80955050505050509250929050565b60008282101561056957634e487b7160e01b600052601160045260246000fd5b500390565b634e487b7160e01b600052600160045260246000fd5b60006020828403121561059657600080fd5b6102fd8261042b565b600082516105b181846020870161045d565b9190910192915050565b60208152600082518060208401526105da81604085016020870161045d565b601f01601f19169190910160400192915050565b610342806105fd6000396000f3fe60806040523661001357610011610017565b005b6100115b610027610022610067565b610100565b565b606061004e83836040518060600160405280602781526020016102e660279139610124565b9392505050565b6001600160a01b03163b151590565b90565b600061009a7fa3f0ad74e5423aebfd80d3ef4346578335a9a72aeaee59ff6cb3582b35133d50546001600160a01b031690565b6001600160a01b0316635c60da1b6040518163ffffffff1660e01b8152600401602060405180830381865afa1580156100d7573d6000803e3d6000fd5b505050506040513d601f19601f820116820180604052508101906100fb919061023d565b905090565b3660008037600080366000845af43d6000803e80801561011f573d6000f35b3d6000fd5b606061012f84610055565b61018f5760405162461bcd60e51b815260206004820152602660248201527f416464726573733a2064656c65676174652063616c6c20746f206e6f6e2d636f6044820152651b9d1c9858dd60d21b60648201526084015b60405180910390fd5b600080856001600160a01b0316856040516101aa9190610296565b600060405180830381855af49150503d80600081146101e5576040519150601f19603f3d011682016040523d82523d6000602084013e6101ea565b606091505b50915091506101fa828286610204565b9695505050505050565b6060831561021357508161004e565b8251156102235782518084602001fd5b8160405162461bcd60e51b815260040161018691906102b2565b60006020828403121561024f57600080fd5b81516001600160a01b038116811461004e57600080fd5b60005b83811015610281578181015183820152602001610269565b83811115610290576000848401525b50505050565b600082516102a8818460208701610266565b9190910192915050565b60208152600082518060208401526102d1816040850160208701610266565b601f01601f1916919091016040019291505056fe416464726573733a206c6f772d6c6576656c2064656c65676174652063616c6c206661696c6564a2646970667358221220e59659fe08cebccb28b607cf9b9cefd2305e79f951b48aa64fa130a1fbfde57064736f6c634300080d0033a3f0ad74e5423aebfd80d3ef4346578335a9a72aeaee59ff6cb3582b35133d50416464726573733a206c6f772d6c6576656c2064656c65676174652063616c6c206661696c6564a26469706673582212205ff1022c945146d64908ce6b99ddc2aaea379714ce3a29d0d3cd48233ce37d1064736f6c634300080d0033",
  "devdoc": {
    "kind": "dev",
    "methods": {
      "getDeployerVaults()": {
        "returns": {
          "_0": "list of deployer's managed Vault addresses"
        }
      },
      "getDeployers()": {
        "returns": {
          "_0": "deployers the list of deployer addresses"
        }
      },
      "getVaultsByDeployer(address)": {
        "params": {
          "deployer": "address that has potentially deployed Harvesters (can return empty array)"
        },
        "returns": {
          "_0": "vaults the list of Vault addresses deployed by `deployer`"
        }
      },
      "numDeployers()": {
        "returns": {
          "_0": "total number of Vault deployer addresses"
        }
      },
      "numVaults()": {
        "returns": {
          "result": "total number of Harvesters deployed"
        }
      },
      "numVaultsByDeployer(address)": {
        "params": {
          "deployer": "deployer address"
        },
        "returns": {
          "_0": "total number of Harvesters deployed by `deployer`"
        }
      },
      "owner()": {
        "details": "Returns the address of the current owner."
      },
      "renounceOwnership()": {
        "details": "Leaves the contract without owner. It will not be possible to call `onlyOwner` functions anymore. Can only be called by the current owner. NOTE: Renouncing ownership will leave the contract without an owner, thereby removing any functionality that is only available to the owner."
      },
      "transferOwnership(address)": {
        "details": "Transfers ownership of the contract to a new account (`newOwner`). Can only be called by the current owner."
      }
    },
    "version": 1
  },
  "userdoc": {
    "kind": "user",
    "methods": {
      "getDeployerVaults()": {
        "notice": "getDeployerVaults gets all the Harvesters deployed by Arrakis deployer default deployer address (since anyone can deploy and manage Harvesters)"
      },
      "getDeployers()": {
        "notice": "getDeployers fetches all addresses that have deployed a Vault"
      },
      "getVaultsByDeployer(address)": {
        "notice": "getVaults fetches all the Vault addresses deployed by `deployer`"
      },
      "numDeployers()": {
        "notice": "numDeployers counts the total number of Vault deployer addresses"
      },
      "numVaults()": {
        "notice": "numVaults counts the total number of Harvesters in existence"
      },
      "numVaultsByDeployer(address)": {
        "notice": "numVaults counts the total number of Harvesters deployed by `deployer`"
      }
    },
    "version": 1
  },
  "storageLayout": {
    "storage": [
      {
        "astId": 1285,
        "contract": "contracts/ArrakisV2Factory.sol:ArrakisV2Factory",
        "label": "_initialized",
        "offset": 0,
        "slot": "0",
        "type": "t_uint8"
      },
      {
        "astId": 1288,
        "contract": "contracts/ArrakisV2Factory.sol:ArrakisV2Factory",
        "label": "_initializing",
        "offset": 1,
        "slot": "0",
        "type": "t_bool"
      },
      {
        "astId": 2477,
        "contract": "contracts/ArrakisV2Factory.sol:ArrakisV2Factory",
        "label": "__gap",
        "offset": 0,
        "slot": "1",
        "type": "t_array(t_uint256)50_storage"
      },
      {
        "astId": 1165,
        "contract": "contracts/ArrakisV2Factory.sol:ArrakisV2Factory",
        "label": "_owner",
        "offset": 0,
        "slot": "51",
        "type": "t_address"
      },
      {
        "astId": 1277,
        "contract": "contracts/ArrakisV2Factory.sol:ArrakisV2Factory",
        "label": "__gap",
        "offset": 0,
        "slot": "52",
        "type": "t_array(t_uint256)49_storage"
      },
      {
        "astId": 11251,
        "contract": "contracts/ArrakisV2Factory.sol:ArrakisV2Factory",
        "label": "index",
        "offset": 0,
        "slot": "101",
        "type": "t_uint256"
      },
      {
        "astId": 11254,
        "contract": "contracts/ArrakisV2Factory.sol:ArrakisV2Factory",
        "label": "_deployers",
        "offset": 0,
        "slot": "102",
        "type": "t_struct(AddressSet)5478_storage"
      },
      {
        "astId": 11259,
        "contract": "contracts/ArrakisV2Factory.sol:ArrakisV2Factory",
        "label": "_vaults",
        "offset": 0,
        "slot": "104",
        "type": "t_mapping(t_address,t_struct(AddressSet)5478_storage)"
      }
    ],
    "types": {
      "t_address": {
        "encoding": "inplace",
        "label": "address",
        "numberOfBytes": "20"
      },
      "t_array(t_bytes32)dyn_storage": {
        "base": "t_bytes32",
        "encoding": "dynamic_array",
        "label": "bytes32[]",
        "numberOfBytes": "32"
      },
      "t_array(t_uint256)49_storage": {
        "base": "t_uint256",
        "encoding": "inplace",
        "label": "uint256[49]",
        "numberOfBytes": "1568"
      },
      "t_array(t_uint256)50_storage": {
        "base": "t_uint256",
        "encoding": "inplace",
        "label": "uint256[50]",
        "numberOfBytes": "1600"
      },
      "t_bool": {
        "encoding": "inplace",
        "label": "bool",
        "numberOfBytes": "1"
      },
      "t_bytes32": {
        "encoding": "inplace",
        "label": "bytes32",
        "numberOfBytes": "32"
      },
      "t_mapping(t_address,t_struct(AddressSet)5478_storage)": {
        "encoding": "mapping",
        "key": "t_address",
        "label": "mapping(address => struct EnumerableSet.AddressSet)",
        "numberOfBytes": "32",
        "value": "t_struct(AddressSet)5478_storage"
      },
      "t_mapping(t_bytes32,t_uint256)": {
        "encoding": "mapping",
        "key": "t_bytes32",
        "label": "mapping(bytes32 => uint256)",
        "numberOfBytes": "32",
        "value": "t_uint256"
      },
      "t_struct(AddressSet)5478_storage": {
        "encoding": "inplace",
        "label": "struct EnumerableSet.AddressSet",
        "members": [
          {
            "astId": 5477,
            "contract": "contracts/ArrakisV2Factory.sol:ArrakisV2Factory",
            "label": "_inner",
            "offset": 0,
            "slot": "0",
            "type": "t_struct(Set)5177_storage"
          }
        ],
        "numberOfBytes": "64"
      },
      "t_struct(Set)5177_storage": {
        "encoding": "inplace",
        "label": "struct EnumerableSet.Set",
        "members": [
          {
            "astId": 5172,
            "contract": "contracts/ArrakisV2Factory.sol:ArrakisV2Factory",
            "label": "_values",
            "offset": 0,
            "slot": "0",
            "type": "t_array(t_bytes32)dyn_storage"
          },
          {
            "astId": 5176,
            "contract": "contracts/ArrakisV2Factory.sol:ArrakisV2Factory",
            "label": "_indexes",
            "offset": 0,
            "slot": "1",
            "type": "t_mapping(t_bytes32,t_uint256)"
          }
        ],
        "numberOfBytes": "64"
      },
      "t_uint256": {
        "encoding": "inplace",
        "label": "uint256",
        "numberOfBytes": "32"
      },
      "t_uint8": {
        "encoding": "inplace",
        "label": "uint8",
        "numberOfBytes": "1"
      }
    }
  }
}