{
  "address": "0x453F7d013cA100Ade3ab77e007ffCfbDF753857c",
  "abi": [
    {
      "inputs": [
        {
          "internalType": "contract IArrakisV2Beacon",
          "name": "arrakisV2Beacon_",
          "type": "address"
        }
      ],
      "stateMutability": "nonpayable",
      "type": "constructor"
    },
    {
      "anonymous": false,
      "inputs": [
        {
          "indexed": false,
          "internalType": "address",
          "name": "owner",
          "type": "address"
        }
      ],
      "name": "InitFactory",
      "type": "event"
    },
    {
      "anonymous": false,
      "inputs": [
        {
          "indexed": false,
          "internalType": "uint8",
          "name": "version",
          "type": "uint8"
        }
      ],
      "name": "Initialized",
      "type": "event"
    },
    {
      "anonymous": false,
      "inputs": [
        {
          "indexed": true,
          "internalType": "address",
          "name": "previousOwner",
          "type": "address"
        },
        {
          "indexed": true,
          "internalType": "address",
          "name": "newOwner",
          "type": "address"
        }
      ],
      "name": "OwnershipTransferred",
      "type": "event"
    },
    {
      "anonymous": false,
      "inputs": [
        {
          "indexed": true,
          "internalType": "address",
          "name": "manager",
          "type": "address"
        },
        {
          "indexed": true,
          "internalType": "address",
          "name": "vault",
          "type": "address"
        }
      ],
      "name": "VaultCreated",
      "type": "event"
    },
    {
      "inputs": [],
      "name": "arrakisV2Beacon",
      "outputs": [
        {
          "internalType": "contract IArrakisV2Beacon",
          "name": "",
          "type": "address"
        }
      ],
      "stateMutability": "view",
      "type": "function"
    },
    {
      "inputs": [
        {
          "components": [
            {
              "internalType": "uint24[]",
              "name": "feeTiers",
              "type": "uint24[]"
            },
            {
              "internalType": "address",
              "name": "token0",
              "type": "address"
            },
            {
              "internalType": "address",
              "name": "token1",
              "type": "address"
            },
            {
              "internalType": "address",
              "name": "owner",
              "type": "address"
            },
            {
              "internalType": "uint256",
              "name": "init0",
              "type": "uint256"
            },
            {
              "internalType": "uint256",
              "name": "init1",
              "type": "uint256"
            },
            {
              "internalType": "address",
              "name": "manager",
              "type": "address"
            },
            {
              "internalType": "address[]",
              "name": "routers",
              "type": "address[]"
            },
            {
              "internalType": "uint16",
              "name": "burnBuffer",
              "type": "uint16"
            }
          ],
          "internalType": "struct InitializePayload",
          "name": "params_",
          "type": "tuple"
        },
        {
          "internalType": "bool",
          "name": "isBeacon_",
          "type": "bool"
        }
      ],
      "name": "deployVault",
      "outputs": [
        {
          "internalType": "address",
          "name": "vault",
          "type": "address"
        }
      ],
      "stateMutability": "nonpayable",
      "type": "function"
    },
    {
      "inputs": [
        {
          "internalType": "address",
          "name": "proxy",
          "type": "address"
        }
      ],
      "name": "getProxyAdmin",
      "outputs": [
        {
          "internalType": "address",
          "name": "",
          "type": "address"
        }
      ],
      "stateMutability": "view",
      "type": "function"
    },
    {
      "inputs": [
        {
          "internalType": "address",
          "name": "proxy",
          "type": "address"
        }
      ],
      "name": "getProxyImplementation",
      "outputs": [
        {
          "internalType": "address",
          "name": "",
          "type": "address"
        }
      ],
      "stateMutability": "view",
      "type": "function"
    },
    {
      "inputs": [
        {
          "internalType": "address",
          "name": "token0_",
          "type": "address"
        },
        {
          "internalType": "address",
          "name": "token1_",
          "type": "address"
        }
      ],
      "name": "getTokenName",
      "outputs": [
        {
          "internalType": "string",
          "name": "",
          "type": "string"
        }
      ],
      "stateMutability": "view",
      "type": "function"
    },
    {
      "inputs": [
        {
          "internalType": "address",
          "name": "_owner_",
          "type": "address"
        }
      ],
      "name": "initialize",
      "outputs": [],
      "stateMutability": "nonpayable",
      "type": "function"
    },
    {
      "inputs": [
        {
          "internalType": "address[]",
          "name": "vaults_",
          "type": "address[]"
        }
      ],
      "name": "makeVaultsImmutable",
      "outputs": [],
      "stateMutability": "nonpayable",
      "type": "function"
    },
    {
      "inputs": [],
      "name": "numVaults",
      "outputs": [
        {
          "internalType": "uint256",
          "name": "result",
          "type": "uint256"
        }
      ],
      "stateMutability": "view",
      "type": "function"
    },
    {
      "inputs": [],
      "name": "owner",
      "outputs": [
        {
          "internalType": "address",
          "name": "",
          "type": "address"
        }
      ],
      "stateMutability": "view",
      "type": "function"
    },
    {
      "inputs": [],
      "name": "renounceOwnership",
      "outputs": [],
      "stateMutability": "nonpayable",
      "type": "function"
    },
    {
      "inputs": [
        {
          "internalType": "address",
          "name": "newOwner",
          "type": "address"
        }
      ],
      "name": "transferOwnership",
      "outputs": [],
      "stateMutability": "nonpayable",
      "type": "function"
    },
    {
      "inputs": [
        {
          "internalType": "address[]",
          "name": "vaults_",
          "type": "address[]"
        }
      ],
      "name": "upgradeVaults",
      "outputs": [],
      "stateMutability": "nonpayable",
      "type": "function"
    },
    {
      "inputs": [
        {
          "internalType": "address[]",
          "name": "vaults_",
          "type": "address[]"
        },
        {
          "internalType": "bytes[]",
          "name": "datas_",
          "type": "bytes[]"
        }
      ],
      "name": "upgradeVaultsAndCall",
      "outputs": [],
      "stateMutability": "nonpayable",
      "type": "function"
    },
    {
      "inputs": [
        {
          "internalType": "uint256",
          "name": "startIndex_",
          "type": "uint256"
        },
        {
          "internalType": "uint256",
          "name": "endIndex_",
          "type": "uint256"
        }
      ],
      "name": "vaults",
      "outputs": [
        {
          "internalType": "address[]",
          "name": "",
          "type": "address[]"
        }
      ],
      "stateMutability": "view",
      "type": "function"
    }
  ],
  "transactionHash": "0x3fc934574f7a21563a604747249a679431297ac6dff899e91b0a4822cdeafa60",
  "args": [
    "0x891E7E4baFfeF0ef7bc4b1E85d122bDd7363b8B3"
  ],
  "numDeployments": 1,
  "solcInputHash": "78ac59690951abf05b68bd0340f25f2c",
  "bytecode": "0x60a060405234801561001057600080fd5b50604051620039103803806200391083398101604081905261003191610042565b6001600160a01b0316608052610072565b60006020828403121561005457600080fd5b81516001600160a01b038116811461006b57600080fd5b9392505050565b608051613866620000aa600039600081816101c70152818161063101528181610b6501528181611087015261114e01526138666000f3fe60806040523480156200001157600080fd5b5060043610620000fd5760003560e01c8063b36306ef1162000097578063c4d66de8116200006e578063c4d66de81462000226578063cf009341146200023d578063f2fde38b1462000254578063f3b7dead146200026b57600080fd5b8063b36306ef14620001c1578063bb81eef614620001e9578063bd30dfb9146200020057600080fd5b806366a82a5111620000d857806366a82a511462000166578063715018a6146200018c5780638da5cb5b14620001985780638e7f200314620001aa57600080fd5b80630d8bcc121462000102578063204e1c7a1462000136578063264a6208146200014d575b600080fd5b620001196200011336600462001693565b62000282565b6040516001600160a01b0390911681526020015b60405180910390f35b620001196200014736600462001717565b620002dc565b62000157620003a0565b6040519081526020016200012d565b6200017d6200017736600462001737565b620003b3565b6040516200012d91906200175a565b6200019662000567565b005b6033546001600160a01b031662000119565b62000196620001bb3660046200187c565b620005d1565b620001197f000000000000000000000000000000000000000000000000000000000000000081565b62000196620001fa3660046200187c565b620007b4565b6200021762000211366004620018b5565b620008b4565b6040516200012d919062001949565b620001966200023736600462001717565b620009f5565b620001966200024e3660046200195e565b62000b05565b620001966200026536600462001717565b62000d67565b620001196200027c36600462001717565b62000e38565b600062000290838362000eda565b90506200029f606582620011b3565b506040516001600160a01b0382169033907f5d9c31ffa0fecffd7cf379989a3c7af252f0335e0d2a1320b55245912c781f5390600090a392915050565b6000806000836001600160a01b03166040516200030390635c60da1b60e01b815260040190565b600060405180830381855afa9150503d806000811462000340576040519150601f19603f3d011682016040523d82523d6000602084013e62000345565b606091505b509150915081620003825760405162461bcd60e51b8152602060048201526002602482015261504960f01b60448201526064015b60405180910390fd5b8080602001905181019062000398919062001a00565b949350505050565b6000620003ae6065620011d1565b905090565b60608183106200042c5760405162461bcd60e51b815260206004820152602f60248201527f737461727420696e64657820697320657175616c206f7220677265617465722060448201527f7468616e20656e6420696e6465782e0000000000000000000000000000000000606482015260840162000379565b62000436620003a0565b821115620004ad5760405162461bcd60e51b815260206004820152602d60248201527f656e6420696e6465782069732067726561746572207468616e207661756c747360448201527f206172726179206c656e67746800000000000000000000000000000000000000606482015260840162000379565b6000620004bb848462001a36565b67ffffffffffffffff811115620004d657620004d6620017a9565b60405190808252806020026020018201604052801562000500578160200160208202803683370190505b509050835b838110156200055d576200051b606582620011dc565b82828151811062000530576200053062001a50565b6001600160a01b039092166020928302919091019091015280620005548162001a66565b91505062000505565b5090505b92915050565b6033546001600160a01b03163314620005c35760405162461bcd60e51b815260206004820181905260248201527f4f776e61626c653a2063616c6c6572206973206e6f7420746865206f776e6572604482015260640162000379565b620005cf6000620011ea565b565b6033546001600160a01b031633146200062d5760405162461bcd60e51b815260206004820181905260248201527f4f776e61626c653a2063616c6c6572206973206e6f7420746865206f776e6572604482015260640162000379565b60007f00000000000000000000000000000000000000000000000000000000000000006001600160a01b0316635c60da1b6040518163ffffffff1660e01b8152600401602060405180830381865afa1580156200068e573d6000803e3d6000fd5b505050506040513d601f19601f82011682018060405250810190620006b4919062001a00565b90506001600160a01b0381166200070e5760405162461bcd60e51b815260206004820152601e60248201527f696d706c656d656e746174696f6e2069732061646472657373207a65726f0000604482015260640162000379565b60005b8251811015620007af5782818151811062000730576200073062001a50565b6020908102919091010151604051631b2ce7f360e11b81526001600160a01b03848116600483015290911690633659cfe690602401600060405180830381600087803b1580156200078057600080fd5b505af115801562000795573d6000803e3d6000fd5b505050508080620007a69062001a66565b91505062000711565b505050565b6033546001600160a01b03163314620008105760405162461bcd60e51b815260206004820181905260248201527f4f776e61626c653a2063616c6c6572206973206e6f7420746865206f776e6572604482015260640162000379565b60005b8151811015620008b05781818151811062000832576200083262001a50565b60209081029190910101516040516308f2839760e41b8152600160048201526001600160a01b0390911690638f28397090602401600060405180830381600087803b1580156200088157600080fd5b505af115801562000896573d6000803e3d6000fd5b505050508080620008a79062001a66565b91505062000813565b5050565b60606000836001600160a01b03166395d89b416040518163ffffffff1660e01b8152600401600060405180830381865afa158015620008f7573d6000803e3d6000fd5b505050506040513d6000823e601f3d908101601f1916820160405262000921919081019062001a82565b90506000836001600160a01b03166395d89b416040518163ffffffff1660e01b8152600401600060405180830381865afa15801562000964573d6000803e3d6000fd5b505050506040513d6000823e601f3d908101601f191682016040526200098e919081019062001a82565b9050620009ec6040518060400160405280601181526020017f417272616b6973205661756c742056322000000000000000000000000000000081525083604051806040016040528060018152602001602f60f81b8152508462001254565b95945050505050565b600062000a03600162001288565b9050801562000a1c576000805461ff0019166101001790555b6001600160a01b03821662000a745760405162461bcd60e51b815260206004820152601560248201527f6f776e65722069732061646472657373207a65726f0000000000000000000000604482015260640162000379565b62000a7f82620011ea565b6040516001600160a01b03831681527f6d4391b481e741f75506c7b1504309dd70c7eff29c463eae4bff33d733b0a9e29060200160405180910390a18015620008b0576000805461ff0019169055604051600181527f7f26b83ff96e1f2b6a682f133852f6798a09c465da95921460cefb38474024989060200160405180910390a15050565b6033546001600160a01b0316331462000b615760405162461bcd60e51b815260206004820181905260248201527f4f776e61626c653a2063616c6c6572206973206e6f7420746865206f776e6572604482015260640162000379565b60007f00000000000000000000000000000000000000000000000000000000000000006001600160a01b0316635c60da1b6040518163ffffffff1660e01b8152600401602060405180830381865afa15801562000bc2573d6000803e3d6000fd5b505050506040513d601f19601f8201168201806040525081019062000be8919062001a00565b90506001600160a01b03811662000c425760405162461bcd60e51b815260206004820152601e60248201527f696d706c656d656e746174696f6e2069732061646472657373207a65726f0000604482015260640162000379565b8351821462000c945760405162461bcd60e51b815260206004820152601860248201527f6d69736d61746368696e67206172726179206c656e6774680000000000000000604482015260640162000379565b60005b845181101562000d605784818151811062000cb65762000cb662001a50565b60200260200101516001600160a01b0316634f1ef2868386868581811062000ce25762000ce262001a50565b905060200281019062000cf6919062001b18565b6040518463ffffffff1660e01b815260040162000d169392919062001b62565b600060405180830381600087803b15801562000d3157600080fd5b505af115801562000d46573d6000803e3d6000fd5b50505050808062000d579062001a66565b91505062000c97565b5050505050565b6033546001600160a01b0316331462000dc35760405162461bcd60e51b815260206004820181905260248201527f4f776e61626c653a2063616c6c6572206973206e6f7420746865206f776e6572604482015260640162000379565b6001600160a01b03811662000e2a5760405162461bcd60e51b815260206004820152602660248201527f4f776e61626c653a206e6577206f776e657220697320746865207a65726f206160448201526564647265737360d01b606482015260840162000379565b62000e3581620011ea565b50565b6000806000836001600160a01b031660405162000e5f906303e1469160e61b815260040190565b600060405180830381855afa9150503d806000811462000e9c576040519150601f19603f3d011682016040523d82523d6000602084013e62000ea1565b606091505b509150915081620003825760405162461bcd60e51b8152602060048201526002602482015261504160f01b604482015260640162000379565b6000808062000f0c62000ef4604087016020880162001717565b62000f06606088016040890162001717565b620013a9565b604080518082018252601081527f417272616b6973205661756c74205632000000000000000000000000000000006020820152905163bd30dfb960e01b81526001600160a01b0380851660048301528316602482015292945090925090309063bd30dfb990604401600060405180830381865afa92505050801562000fb557506040513d6000823e601f3d908101601f1916820160405262000fb2919081019062001a82565b60015b1562000fbe5790505b60006312630f8560e11b8262000fea62000fd7620003a0565b62000fe490600162001ba1565b62001498565b60405160200162000ffc919062001bbc565b60408051601f19818403018152908290526200101e92918b9060240162001cfd565b60408051601f198184030181529190526020810180517bffffffffffffffffffffffffffffffffffffffffffffffffffffffff167fffffffff00000000000000000000000000000000000000000000000000000000909316929092179091529050856200114c577f00000000000000000000000000000000000000000000000000000000000000006001600160a01b0316635c60da1b6040518163ffffffff1660e01b8152600401602060405180830381865afa158015620010e4573d6000803e3d6000fd5b505050506040513d601f19601f820116820180604052508101906200110a919062001a00565b30826040516200111a9062001677565b620011289392919062001e26565b604051809103906000f08015801562001145573d6000803e3d6000fd5b50620011a8565b7f0000000000000000000000000000000000000000000000000000000000000000816040516200117c9062001685565b6200118992919062001e54565b604051809103906000f080158015620011a6573d6000803e3d6000fd5b505b979650505050505050565b6000620011ca836001600160a01b038416620015f8565b9392505050565b600062000561825490565b6000620011ca83836200164a565b603380546001600160a01b038381167fffffffffffffffffffffffff0000000000000000000000000000000000000000831681179093556040519116919082907f8be0079c531659141344cd1fd0a4f28419497f9722a3daafe3b4186f6b6457e090600090a35050565b6060848484846040516020016200126f949392919062001e78565b6040516020818303038152906040529050949350505050565b60008054610100900460ff16156200131a578160ff166001148015620012ad5750303b155b620013125760405162461bcd60e51b815260206004820152602e60248201527f496e697469616c697a61626c653a20636f6e747261637420697320616c72656160448201526d191e481a5b9a5d1a585b1a5e995960921b606482015260840162000379565b506000919050565b60005460ff8084169116106200138a5760405162461bcd60e51b815260206004820152602e60248201527f496e697469616c697a61626c653a20636f6e747261637420697320616c72656160448201526d191e481a5b9a5d1a585b1a5e995960921b606482015260840162000379565b506000805460ff191660ff92909216919091179055600190565b919050565b600080826001600160a01b0316846001600160a01b0316036200140f5760405162461bcd60e51b815260206004820152600a60248201527f73616d6520746f6b656e00000000000000000000000000000000000000000000604482015260640162000379565b826001600160a01b0316846001600160a01b0316106200143157828462001434565b83835b90925090506001600160a01b038216620014915760405162461bcd60e51b815260206004820152600f60248201527f6e6f2061646472657373207a65726f0000000000000000000000000000000000604482015260640162000379565b9250929050565b606081600003620014c05750506040805180820190915260018152600360fc1b602082015290565b8160005b8115620014f05780620014d78162001a66565b9150620014e89050600a8362001ed7565b9150620014c4565b60008167ffffffffffffffff8111156200150e576200150e620017a9565b6040519080825280601f01601f19166020018201604052801562001539576020820181803683370190505b509050815b8515620015ef576200155260018262001a36565b9050600062001563600a8862001ed7565b6200157090600a62001efa565b6200157c908862001a36565b6200158990603062001f1c565b905060008160f81b905080848481518110620015a957620015a962001a50565b60200101907effffffffffffffffffffffffffffffffffffffffffffffffffffffffffffff1916908160001a905350620015e5600a8962001ed7565b975050506200153e565b50949350505050565b6000818152600183016020526040812054620016415750815460018181018455600084815260208082209093018490558454848252828601909352604090209190915562000561565b50600062000561565b600082600001828154811062001664576200166462001a50565b9060005260206000200154905092915050565b610f628062001f4583390190565b61098a8062002ea783390190565b60008060408385031215620016a757600080fd5b823567ffffffffffffffff811115620016bf57600080fd5b83016101208186031215620016d357600080fd5b915060208301358015158114620016e957600080fd5b809150509250929050565b6001600160a01b038116811462000e3557600080fd5b8035620013a481620016f4565b6000602082840312156200172a57600080fd5b8135620011ca81620016f4565b600080604083850312156200174b57600080fd5b50508035926020909101359150565b6020808252825182820181905260009190848201906040850190845b818110156200179d5783516001600160a01b03168352928401929184019160010162001776565b50909695505050505050565b634e487b7160e01b600052604160045260246000fd5b604051601f8201601f1916810167ffffffffffffffff81118282101715620017eb57620017eb620017a9565b604052919050565b600082601f8301126200180557600080fd5b8135602067ffffffffffffffff821115620018245762001824620017a9565b8160051b62001835828201620017bf565b92835284810182019282810190878511156200185057600080fd5b83870192505b84831015620011a85782356200186c81620016f4565b8252918301919083019062001856565b6000602082840312156200188f57600080fd5b813567ffffffffffffffff811115620018a757600080fd5b6200039884828501620017f3565b60008060408385031215620018c957600080fd5b8235620018d681620016f4565b91506020830135620016e981620016f4565b60005b8381101562001905578181015183820152602001620018eb565b8381111562001915576000848401525b50505050565b6000815180845262001935816020860160208601620018e8565b601f01601f19169290920160200192915050565b602081526000620011ca60208301846200191b565b6000806000604084860312156200197457600080fd5b833567ffffffffffffffff808211156200198d57600080fd5b6200199b87838801620017f3565b94506020860135915080821115620019b257600080fd5b818601915086601f830112620019c757600080fd5b813581811115620019d757600080fd5b8760208260051b8501011115620019ed57600080fd5b6020830194508093505050509250925092565b60006020828403121562001a1357600080fd5b8151620011ca81620016f4565b634e487b7160e01b600052601160045260246000fd5b60008282101562001a4b5762001a4b62001a20565b500390565b634e487b7160e01b600052603260045260246000fd5b60006001820162001a7b5762001a7b62001a20565b5060010190565b60006020828403121562001a9557600080fd5b815167ffffffffffffffff8082111562001aae57600080fd5b818401915084601f83011262001ac357600080fd5b81518181111562001ad85762001ad8620017a9565b62001aed601f8201601f1916602001620017bf565b915080825285602082850101111562001b0557600080fd5b620015ef816020840160208601620018e8565b6000808335601e1984360301811262001b3057600080fd5b83018035915067ffffffffffffffff82111562001b4c57600080fd5b6020019150368190038213156200149157600080fd5b6001600160a01b038416815260406020820152816040820152818360608301376000818301606090810191909152601f909201601f1916010192915050565b6000821982111562001bb75762001bb762001a20565b500190565b7f52414b495376322d00000000000000000000000000000000000000000000000081526000825162001bf6816008850160208701620018e8565b9190910160080192915050565b6000808335601e1984360301811262001c1b57600080fd5b830160208101925035905067ffffffffffffffff81111562001c3c57600080fd5b8060051b36038313156200149157600080fd5b818352600060208085019450826000805b8681101562001c9157823562ffffff811680821462001c7d578384fd5b895250968301969183019160010162001c60565b50959695505050505050565b8183526000602080850194508260005b8581101562001cdf57813562001cc381620016f4565b6001600160a01b03168752958201959082019060010162001cad565b509495945050505050565b803561ffff81168114620013a457600080fd5b60608152600062001d1260608301866200191b565b828103602084015262001d2681866200191b565b9050828103604084015261012062001d3f858662001c03565b82845262001d51838501828462001c4f565b9250505062001d63602086016200170a565b6001600160a01b0316602083015262001d7f604086016200170a565b6001600160a01b0316604083015262001d9b606086016200170a565b6001600160a01b0381166060840152506080850135608083015260a085013560a083015262001dcd60c086016200170a565b6001600160a01b031660c083015262001dea60e086018662001c03565b83830360e085015262001dff83828462001c9d565b9250505061010062001e1381870162001cea565b61ffff1692019190915295945050505050565b60006001600160a01b03808616835280851660208401525060606040830152620009ec60608301846200191b565b6001600160a01b03831681526040602082015260006200039860408301846200191b565b6000855162001e8c818460208a01620018e8565b85519083019062001ea2818360208a01620018e8565b855191019062001eb7818360208901620018e8565b845191019062001ecc818360208801620018e8565b019695505050505050565b60008262001ef557634e487b7160e01b600052601260045260246000fd5b500490565b600081600019048311821515161562001f175762001f1762001a20565b500290565b600060ff821660ff84168060ff0382111562001f3c5762001f3c62001a20565b01939250505056fe608060405260405162000f6238038062000f62833981016040819052620000269162000519565b82816200005560017f360894a13ba1a3210667c828492db98dca3e2076cc3735a920a3ca505d382bbd620005f9565b60008051602062000f1b833981519152146200007557620000756200061f565b6200008382826000620000e7565b50620000b3905060017fb53127684a568b3173ae13b9f8a6016e243e63b6e8ee1178d6a717850b5d6104620005f9565b60008051602062000efb83398151915214620000d357620000d36200061f565b620000de8262000124565b50505062000688565b620000f2836200017f565b600082511180620001005750805b156200011f576200011d8383620001c160201b6200023e1760201c565b505b505050565b7f7e644d79422f17c01e4894b5f4f588d331ebfa28653d42ae832dc59e38c9798f6200014f620001f0565b604080516001600160a01b03928316815291841660208301520160405180910390a16200017c8162000229565b50565b6200018a81620002de565b6040516001600160a01b038216907fbc7cd75a20ee27fd9adebab32041f755214dbc6bffa90cc0225b39da2e5c2d3b90600090a250565b6060620001e9838360405180606001604052806027815260200162000f3b6027913962000381565b9392505050565b60006200021a60008051602062000efb83398151915260001b6200046760201b620001fa1760201c565b546001600160a01b0316919050565b6001600160a01b038116620002945760405162461bcd60e51b815260206004820152602660248201527f455243313936373a206e65772061646d696e20697320746865207a65726f206160448201526564647265737360d01b60648201526084015b60405180910390fd5b80620002bd60008051602062000efb83398151915260001b6200046760201b620001fa1760201c565b80546001600160a01b0319166001600160a01b039290921691909117905550565b620002f4816200046a60201b6200026a1760201c565b620003585760405162461bcd60e51b815260206004820152602d60248201527f455243313936373a206e657720696d706c656d656e746174696f6e206973206e60448201526c1bdd08184818dbdb9d1c9858dd609a1b60648201526084016200028b565b80620002bd60008051602062000f1b83398151915260001b6200046760201b620001fa1760201c565b60606001600160a01b0384163b620003eb5760405162461bcd60e51b815260206004820152602660248201527f416464726573733a2064656c65676174652063616c6c20746f206e6f6e2d636f6044820152651b9d1c9858dd60d21b60648201526084016200028b565b600080856001600160a01b03168560405162000408919062000635565b600060405180830381855af49150503d806000811462000445576040519150601f19603f3d011682016040523d82523d6000602084013e6200044a565b606091505b5090925090506200045d82828662000479565b9695505050505050565b90565b6001600160a01b03163b151590565b606083156200048a575081620001e9565b8251156200049b5782518084602001fd5b8160405162461bcd60e51b81526004016200028b919062000653565b80516001600160a01b0381168114620004cf57600080fd5b919050565b634e487b7160e01b600052604160045260246000fd5b60005b8381101562000507578181015183820152602001620004ed565b838111156200011d5750506000910152565b6000806000606084860312156200052f57600080fd5b6200053a84620004b7565b92506200054a60208501620004b7565b60408501519092506001600160401b03808211156200056857600080fd5b818601915086601f8301126200057d57600080fd5b815181811115620005925762000592620004d4565b604051601f8201601f19908116603f01168101908382118183101715620005bd57620005bd620004d4565b81604052828152896020848701011115620005d757600080fd5b620005ea836020830160208801620004ea565b80955050505050509250925092565b6000828210156200061a57634e487b7160e01b600052601160045260246000fd5b500390565b634e487b7160e01b600052600160045260246000fd5b6000825162000649818460208701620004ea565b9190910192915050565b602081526000825180602084015262000674816040850160208701620004ea565b601f01601f19169190910160400192915050565b61086380620006986000396000f3fe60806040526004361061005e5760003560e01c80635c60da1b116100435780635c60da1b146100a85780638f283970146100d9578063f851a440146100f95761006d565b80633659cfe6146100755780634f1ef286146100955761006d565b3661006d5761006b61010e565b005b61006b61010e565b34801561008157600080fd5b5061006b6100903660046106ed565b610128565b61006b6100a3366004610708565b610165565b3480156100b457600080fd5b506100bd6101cc565b6040516001600160a01b03909116815260200160405180910390f35b3480156100e557600080fd5b5061006b6100f43660046106ed565b6101fd565b34801561010557600080fd5b506100bd61021d565b610116610279565b61012661012161030e565b610318565b565b61013061033c565b6001600160a01b0316330361015d5761015a8160405180602001604052806000815250600061036f565b50565b61015a61010e565b61016d61033c565b6001600160a01b031633036101c4576101bf8383838080601f0160208091040260200160405190810160405280939291908181526020018383808284376000920191909152506001925061036f915050565b505050565b6101bf61010e565b60006101d661033c565b6001600160a01b031633036101f2576101ed61030e565b905090565b6101fa61010e565b90565b61020561033c565b6001600160a01b0316330361015d5761015a8161039a565b600061022761033c565b6001600160a01b031633036101f2576101ed61033c565b60606102638383604051806060016040528060278152602001610807602791396103ee565b9392505050565b6001600160a01b03163b151590565b61028161033c565b6001600160a01b031633036101265760405162461bcd60e51b815260206004820152604260248201527f5472616e73706172656e745570677261646561626c6550726f78793a2061646d60448201527f696e2063616e6e6f742066616c6c6261636b20746f2070726f78792074617267606482015261195d60f21b608482015260a4015b60405180910390fd5b60006101ed6104cb565b3660008037600080366000845af43d6000803e808015610337573d6000f35b3d6000fd5b60007fb53127684a568b3173ae13b9f8a6016e243e63b6e8ee1178d6a717850b5d61035b546001600160a01b0316919050565b610378836104f3565b6000825111806103855750805b156101bf57610394838361023e565b50505050565b7f7e644d79422f17c01e4894b5f4f588d331ebfa28653d42ae832dc59e38c9798f6103c361033c565b604080516001600160a01b03928316815291841660208301520160405180910390a161015a81610533565b60606001600160a01b0384163b6104565760405162461bcd60e51b815260206004820152602660248201527f416464726573733a2064656c65676174652063616c6c20746f206e6f6e2d636f6044820152651b9d1c9858dd60d21b6064820152608401610305565b600080856001600160a01b03168560405161047191906107b7565b600060405180830381855af49150503d80600081146104ac576040519150601f19603f3d011682016040523d82523d6000602084013e6104b1565b606091505b50915091506104c18282866105f4565b9695505050505050565b60007f360894a13ba1a3210667c828492db98dca3e2076cc3735a920a3ca505d382bbc610360565b6104fc8161062d565b6040516001600160a01b038216907fbc7cd75a20ee27fd9adebab32041f755214dbc6bffa90cc0225b39da2e5c2d3b90600090a250565b6001600160a01b0381166105985760405162461bcd60e51b815260206004820152602660248201527f455243313936373a206e65772061646d696e20697320746865207a65726f206160448201526564647265737360d01b6064820152608401610305565b807fb53127684a568b3173ae13b9f8a6016e243e63b6e8ee1178d6a717850b5d61035b80547fffffffffffffffffffffffff0000000000000000000000000000000000000000166001600160a01b039290921691909117905550565b60608315610603575081610263565b8251156106135782518084602001fd5b8160405162461bcd60e51b815260040161030591906107d3565b6001600160a01b0381163b6106aa5760405162461bcd60e51b815260206004820152602d60248201527f455243313936373a206e657720696d706c656d656e746174696f6e206973206e60448201527f6f74206120636f6e7472616374000000000000000000000000000000000000006064820152608401610305565b807f360894a13ba1a3210667c828492db98dca3e2076cc3735a920a3ca505d382bbc6105bb565b80356001600160a01b03811681146106e857600080fd5b919050565b6000602082840312156106ff57600080fd5b610263826106d1565b60008060006040848603121561071d57600080fd5b610726846106d1565b9250602084013567ffffffffffffffff8082111561074357600080fd5b818601915086601f83011261075757600080fd5b81358181111561076657600080fd5b87602082850101111561077857600080fd5b6020830194508093505050509250925092565b60005b838110156107a657818101518382015260200161078e565b838111156103945750506000910152565b600082516107c981846020870161078b565b9190910192915050565b60208152600082518060208401526107f281604085016020870161078b565b601f01601f1916919091016040019291505056fe416464726573733a206c6f772d6c6576656c2064656c65676174652063616c6c206661696c6564a2646970667358221220cf52e8485cb7653f41db87a8d14d05e1f36dc3badb3b40731bcedb479973c4d464736f6c634300080d0033b53127684a568b3173ae13b9f8a6016e243e63b6e8ee1178d6a717850b5d6103360894a13ba1a3210667c828492db98dca3e2076cc3735a920a3ca505d382bbc416464726573733a206c6f772d6c6576656c2064656c65676174652063616c6c206661696c6564608060405260405161098a38038061098a8339810160408190526100229161048b565b61004d60017fa3f0ad74e5423aebfd80d3ef4346578335a9a72aeaee59ff6cb3582b35133d5161054b565b6000805160206109438339815191521461006957610069610570565b6100758282600061007c565b50506105f0565b61008583610147565b6040516001600160a01b038416907f1cf3b03a6cf19fa2baba4df148e9dcabedea7f8a5c07840e207e5c089be95d3e90600090a26000825111806100c65750805b1561014257610140836001600160a01b0316635c60da1b6040518163ffffffff1660e01b8152600401602060405180830381865afa15801561010c573d6000803e3d6000fd5b505050506040513d601f19601f820116820180604052508101906101309190610586565b836102d860201b6100291760201c565b505b505050565b61015a8161030460201b6100551760201c565b6101b95760405162461bcd60e51b815260206004820152602560248201527f455243313936373a206e657720626561636f6e206973206e6f74206120636f6e6044820152641d1c9858dd60da1b60648201526084015b60405180910390fd5b61022d816001600160a01b0316635c60da1b6040518163ffffffff1660e01b8152600401602060405180830381865afa1580156101fa573d6000803e3d6000fd5b505050506040513d601f19601f8201168201806040525081019061021e9190610586565b61030460201b6100551760201c565b6102925760405162461bcd60e51b815260206004820152603060248201527f455243313936373a20626561636f6e20696d706c656d656e746174696f6e206960448201526f1cc81b9bdd08184818dbdb9d1c9858dd60821b60648201526084016101b0565b806102b760008051602061094383398151915260001b61031360201b6100641760201c565b80546001600160a01b0319166001600160a01b039290921691909117905550565b60606102fd838360405180606001604052806027815260200161096360279139610316565b9392505050565b6001600160a01b03163b151590565b90565b60606001600160a01b0384163b61037e5760405162461bcd60e51b815260206004820152602660248201527f416464726573733a2064656c65676174652063616c6c20746f206e6f6e2d636f6044820152651b9d1c9858dd60d21b60648201526084016101b0565b600080856001600160a01b03168560405161039991906105a1565b600060405180830381855af49150503d80600081146103d4576040519150601f19603f3d011682016040523d82523d6000602084013e6103d9565b606091505b5090925090506103ea8282866103f4565b9695505050505050565b606083156104035750816102fd565b8251156104135782518084602001fd5b8160405162461bcd60e51b81526004016101b091906105bd565b80516001600160a01b038116811461044457600080fd5b919050565b634e487b7160e01b600052604160045260246000fd5b60005b8381101561047a578181015183820152602001610462565b838111156101405750506000910152565b6000806040838503121561049e57600080fd5b6104a78361042d565b60208401519092506001600160401b03808211156104c457600080fd5b818501915085601f8301126104d857600080fd5b8151818111156104ea576104ea610449565b604051601f8201601f19908116603f0116810190838211818310171561051257610512610449565b8160405282815288602084870101111561052b57600080fd5b61053c83602083016020880161045f565b80955050505050509250929050565b60008282101561056b57634e487b7160e01b600052601160045260246000fd5b500390565b634e487b7160e01b600052600160045260246000fd5b60006020828403121561059857600080fd5b6102fd8261042d565b600082516105b381846020870161045f565b9190910192915050565b60208152600082518060208401526105dc81604085016020870161045f565b601f01601f19169190910160400192915050565b610344806105ff6000396000f3fe60806040523661001357610011610017565b005b6100115b610027610022610067565b610100565b565b606061004e83836040518060600160405280602781526020016102e860279139610124565b9392505050565b6001600160a01b03163b151590565b90565b600061009a7fa3f0ad74e5423aebfd80d3ef4346578335a9a72aeaee59ff6cb3582b35133d50546001600160a01b031690565b6001600160a01b0316635c60da1b6040518163ffffffff1660e01b8152600401602060405180830381865afa1580156100d7573d6000803e3d6000fd5b505050506040513d601f19601f820116820180604052508101906100fb919061023f565b905090565b3660008037600080366000845af43d6000803e80801561011f573d6000f35b3d6000fd5b60606001600160a01b0384163b6101915760405162461bcd60e51b815260206004820152602660248201527f416464726573733a2064656c65676174652063616c6c20746f206e6f6e2d636f6044820152651b9d1c9858dd60d21b60648201526084015b60405180910390fd5b600080856001600160a01b0316856040516101ac9190610298565b600060405180830381855af49150503d80600081146101e7576040519150601f19603f3d011682016040523d82523d6000602084013e6101ec565b606091505b50915091506101fc828286610206565b9695505050505050565b6060831561021557508161004e565b8251156102255782518084602001fd5b8160405162461bcd60e51b815260040161018891906102b4565b60006020828403121561025157600080fd5b81516001600160a01b038116811461004e57600080fd5b60005b8381101561028357818101518382015260200161026b565b83811115610292576000848401525b50505050565b600082516102aa818460208701610268565b9190910192915050565b60208152600082518060208401526102d3816040850160208701610268565b601f01601f1916919091016040019291505056fe416464726573733a206c6f772d6c6576656c2064656c65676174652063616c6c206661696c6564a264697066735822122024b2ba9c9e70117cf414fcba06d2cb4ac0787474a005633a1af8b2eabbf050d064736f6c634300080d0033a3f0ad74e5423aebfd80d3ef4346578335a9a72aeaee59ff6cb3582b35133d50416464726573733a206c6f772d6c6576656c2064656c65676174652063616c6c206661696c6564a26469706673582212207988e9af2c99abb323fa47a72c58e3f9ee7475674009a2062e536f7f3090ec7064736f6c634300080d0033",
  "devdoc": {
    "kind": "dev",
    "methods": {
      "deployVault((uint24[],address,address,address,uint256,uint256,address,address[],uint16),bool)": {
        "params": {
          "isBeacon_": "boolean, if true the instance will be BeaconProxy or TransparentProxy.",
          "params_": "contains all data needed to create an instance of ArrakisV2 vault."
        },
        "returns": {
          "vault": "the address of the Arrakis V2 vault instance created."
        }
      },
      "getProxyAdmin(address)": {
        "params": {
          "proxy": "instance of Arrakis V2."
        },
        "returns": {
          "_0": "admin address of Arrakis V2 instance admin."
        }
      },
      "getProxyImplementation(address)": {
        "params": {
          "proxy": "instance of Arrakis V2."
        },
        "returns": {
          "_0": "implementation address of Arrakis V2 implementation."
        }
      },
      "getTokenName(address,address)": {
        "params": {
          "token0_": "address of the first token.",
          "token1_": "address of the second token."
        },
        "returns": {
          "_0": "name name of the arrakis V2 vault."
        }
      },
      "makeVaultsImmutable(address[])": {
        "details": "only callable by owner",
        "params": {
          "vaults_": "the list of vault."
        }
      },
      "numVaults()": {
        "returns": {
          "result": "total number of vaults deployed"
        }
      },
      "owner()": {
        "details": "Returns the address of the current owner."
      },
      "renounceOwnership()": {
        "details": "Leaves the contract without owner. It will not be possible to call `onlyOwner` functions anymore. Can only be called by the current owner. NOTE: Renouncing ownership will leave the contract without an owner, thereby removing any functionality that is only available to the owner."
      },
      "transferOwnership(address)": {
        "details": "Transfers ownership of the contract to a new account (`newOwner`). Can only be called by the current owner."
      },
      "upgradeVaults(address[])": {
        "details": "only callable by owner",
        "params": {
          "vaults_": "the list of vault."
        }
      },
      "upgradeVaultsAndCall(address[],bytes[])": {
        "details": "only callable by owner",
        "params": {
          "datas_": "payloads of instances call.",
          "vaults_": "the list of vault."
        }
      },
      "vaults(uint256,uint256)": {
        "params": {
          "endIndex_": "end index",
          "startIndex_": "start index"
        },
        "returns": {
          "_0": "vaults list of all created vaults."
        }
      }
    },
    "title": "ArrakisV2Factory factory for creating vault instances.",
    "version": 1
  },
  "userdoc": {
    "kind": "user",
    "methods": {
      "deployVault((uint24[],address,address,address,uint256,uint256,address,address[],uint16),bool)": {
        "notice": "Deploys an instance of Vault using BeaconProxy or TransparentProxy."
      },
      "getProxyAdmin(address)": {
        "notice": "get vault instance admin"
      },
      "getProxyImplementation(address)": {
        "notice": "get vault implementation"
      },
      "getTokenName(address,address)": {
        "notice": "get Arrakis V2 standard token name for two corresponding tokens."
      },
      "makeVaultsImmutable(address[])": {
        "notice": "make the vault immutable"
      },
      "numVaults()": {
        "notice": "numVaults counts the total number of vaults in existence"
      },
      "upgradeVaults(address[])": {
        "notice": "upgrade vaults instance using transparent proxy with the current implementation"
      },
      "upgradeVaultsAndCall(address[],bytes[])": {
        "notice": "upgrade vaults instance using transparent proxy with the current implementation and call the instance"
      },
      "vaults(uint256,uint256)": {
        "notice": "get a list of vaults created by this factory"
      }
    },
    "version": 1
  },
  "storageLayout": {
    "storage": [
      {
        "astId": 1285,
        "contract": "contracts/ArrakisV2Factory.sol:ArrakisV2Factory",
        "label": "_initialized",
        "offset": 0,
        "slot": "0",
        "type": "t_uint8"
      },
      {
        "astId": 1288,
        "contract": "contracts/ArrakisV2Factory.sol:ArrakisV2Factory",
        "label": "_initializing",
        "offset": 1,
        "slot": "0",
        "type": "t_bool"
      },
      {
        "astId": 2477,
        "contract": "contracts/ArrakisV2Factory.sol:ArrakisV2Factory",
        "label": "__gap",
        "offset": 0,
        "slot": "1",
        "type": "t_array(t_uint256)50_storage"
      },
      {
        "astId": 1165,
        "contract": "contracts/ArrakisV2Factory.sol:ArrakisV2Factory",
        "label": "_owner",
        "offset": 0,
        "slot": "51",
        "type": "t_address"
      },
      {
        "astId": 1277,
        "contract": "contracts/ArrakisV2Factory.sol:ArrakisV2Factory",
        "label": "__gap",
        "offset": 0,
        "slot": "52",
        "type": "t_array(t_uint256)49_storage"
      },
      {
        "astId": 9558,
        "contract": "contracts/ArrakisV2Factory.sol:ArrakisV2Factory",
        "label": "_vaults",
        "offset": 0,
        "slot": "101",
        "type": "t_struct(AddressSet)4892_storage"
      }
    ],
    "types": {
      "t_address": {
        "encoding": "inplace",
        "label": "address",
        "numberOfBytes": "20"
      },
      "t_array(t_bytes32)dyn_storage": {
        "base": "t_bytes32",
        "encoding": "dynamic_array",
        "label": "bytes32[]",
        "numberOfBytes": "32"
      },
      "t_array(t_uint256)49_storage": {
        "base": "t_uint256",
        "encoding": "inplace",
        "label": "uint256[49]",
        "numberOfBytes": "1568"
      },
      "t_array(t_uint256)50_storage": {
        "base": "t_uint256",
        "encoding": "inplace",
        "label": "uint256[50]",
        "numberOfBytes": "1600"
      },
      "t_bool": {
        "encoding": "inplace",
        "label": "bool",
        "numberOfBytes": "1"
      },
      "t_bytes32": {
        "encoding": "inplace",
        "label": "bytes32",
        "numberOfBytes": "32"
      },
      "t_mapping(t_bytes32,t_uint256)": {
        "encoding": "mapping",
        "key": "t_bytes32",
        "label": "mapping(bytes32 => uint256)",
        "numberOfBytes": "32",
        "value": "t_uint256"
      },
      "t_struct(AddressSet)4892_storage": {
        "encoding": "inplace",
        "label": "struct EnumerableSet.AddressSet",
        "members": [
          {
            "astId": 4891,
            "contract": "contracts/ArrakisV2Factory.sol:ArrakisV2Factory",
            "label": "_inner",
            "offset": 0,
            "slot": "0",
            "type": "t_struct(Set)4591_storage"
          }
        ],
        "numberOfBytes": "64"
      },
      "t_struct(Set)4591_storage": {
        "encoding": "inplace",
        "label": "struct EnumerableSet.Set",
        "members": [
          {
            "astId": 4586,
            "contract": "contracts/ArrakisV2Factory.sol:ArrakisV2Factory",
            "label": "_values",
            "offset": 0,
            "slot": "0",
            "type": "t_array(t_bytes32)dyn_storage"
          },
          {
            "astId": 4590,
            "contract": "contracts/ArrakisV2Factory.sol:ArrakisV2Factory",
            "label": "_indexes",
            "offset": 0,
            "slot": "1",
            "type": "t_mapping(t_bytes32,t_uint256)"
          }
        ],
        "numberOfBytes": "64"
      },
      "t_uint256": {
        "encoding": "inplace",
        "label": "uint256",
        "numberOfBytes": "32"
      },
      "t_uint8": {
        "encoding": "inplace",
        "label": "uint8",
        "numberOfBytes": "1"
      }
    }
  }
}