{
  "address": "0x5265Fe41d58d152a422063Cb6E93Cf33328AE3C7",
  "abi": [
    {
      "inputs": [
        {
          "internalType": "contract IUniswapV3Factory",
          "name": "factory_",
          "type": "address"
        },
        {
          "internalType": "contract IArrakisV2Helper",
          "name": "helper_",
          "type": "address"
        },
        {
          "internalType": "contract ISwapRouter",
          "name": "swapRouter_",
          "type": "address"
        }
      ],
      "stateMutability": "nonpayable",
      "type": "constructor"
    },
    {
      "inputs": [],
      "name": "factory",
      "outputs": [
        {
          "internalType": "contract IUniswapV3Factory",
          "name": "",
          "type": "address"
        }
      ],
      "stateMutability": "view",
      "type": "function"
    },
    {
      "inputs": [
        {
          "internalType": "int24",
          "name": "currentTick_",
          "type": "int24"
        },
        {
          "internalType": "int24",
          "name": "lowerTick_",
          "type": "int24"
        },
        {
          "internalType": "int24",
          "name": "upperTick_",
          "type": "int24"
        },
        {
          "internalType": "uint128",
          "name": "liquidity_",
          "type": "uint128"
        }
      ],
      "name": "getAmountsForLiquidity",
      "outputs": [
        {
          "internalType": "uint256",
          "name": "amount0",
          "type": "uint256"
        },
        {
          "internalType": "uint256",
          "name": "amount1",
          "type": "uint256"
        }
      ],
      "stateMutability": "pure",
      "type": "function"
    },
    {
      "inputs": [
        {
          "internalType": "contract IArrakisV2",
          "name": "vaultV2_",
          "type": "address"
        },
        {
          "internalType": "uint256",
          "name": "amount0Max_",
          "type": "uint256"
        },
        {
          "internalType": "uint256",
          "name": "amount1Max_",
          "type": "uint256"
        }
      ],
      "name": "getMintAmounts",
      "outputs": [
        {
          "internalType": "uint256",
          "name": "amount0",
          "type": "uint256"
        },
        {
          "internalType": "uint256",
          "name": "amount1",
          "type": "uint256"
        },
        {
          "internalType": "uint256",
          "name": "mintAmount",
          "type": "uint256"
        }
      ],
      "stateMutability": "view",
      "type": "function"
    },
    {
      "inputs": [],
      "name": "helper",
      "outputs": [
        {
          "internalType": "contract IArrakisV2Helper",
          "name": "",
          "type": "address"
        }
      ],
      "stateMutability": "view",
      "type": "function"
    },
    {
      "inputs": [
        {
          "components": [
            {
              "components": [
                {
                  "components": [
                    {
                      "internalType": "int24",
                      "name": "lowerTick",
                      "type": "int24"
                    },
                    {
                      "internalType": "int24",
                      "name": "upperTick",
                      "type": "int24"
                    },
                    {
                      "internalType": "uint24",
                      "name": "feeTier",
                      "type": "uint24"
                    }
                  ],
                  "internalType": "struct Range",
                  "name": "range",
                  "type": "tuple"
                },
                {
                  "internalType": "uint256",
                  "name": "weight",
                  "type": "uint256"
                }
              ],
              "internalType": "struct RangeWeight[]",
              "name": "rangeWeights",
              "type": "tuple[]"
            },
            {
              "internalType": "contract IArrakisV2",
              "name": "vaultV2",
              "type": "address"
            },
            {
              "internalType": "contract IUniswapV3Pool",
              "name": "pool",
              "type": "address"
            },
            {
              "internalType": "uint256",
              "name": "swapRatio",
              "type": "uint256"
            },
            {
              "internalType": "bool",
              "name": "zeroForOne",
              "type": "bool"
            }
          ],
          "internalType": "struct RebalanceWithSwap",
          "name": "rebalanceWithSwap_",
          "type": "tuple"
        }
      ],
      "name": "rebalanceWithSwap",
      "outputs": [
        {
          "components": [
            {
              "components": [
                {
                  "internalType": "uint128",
                  "name": "liquidity",
                  "type": "uint128"
                },
                {
                  "components": [
                    {
                      "internalType": "int24",
                      "name": "lowerTick",
                      "type": "int24"
                    },
                    {
                      "internalType": "int24",
                      "name": "upperTick",
                      "type": "int24"
                    },
                    {
                      "internalType": "uint24",
                      "name": "feeTier",
                      "type": "uint24"
                    }
                  ],
                  "internalType": "struct Range",
                  "name": "range",
                  "type": "tuple"
                }
              ],
              "internalType": "struct PositionLiquidity[]",
              "name": "removes",
              "type": "tuple[]"
            },
            {
              "components": [
                {
                  "internalType": "uint128",
                  "name": "liquidity",
                  "type": "uint128"
                },
                {
                  "components": [
                    {
                      "internalType": "int24",
                      "name": "lowerTick",
                      "type": "int24"
                    },
                    {
                      "internalType": "int24",
                      "name": "upperTick",
                      "type": "int24"
                    },
                    {
                      "internalType": "uint24",
                      "name": "feeTier",
                      "type": "uint24"
                    }
                  ],
                  "internalType": "struct Range",
                  "name": "range",
                  "type": "tuple"
                }
              ],
              "internalType": "struct PositionLiquidity[]",
              "name": "deposits",
              "type": "tuple[]"
            },
            {
              "components": [
                {
                  "internalType": "bytes",
                  "name": "payload",
                  "type": "bytes"
                },
                {
                  "internalType": "address",
                  "name": "pool",
                  "type": "address"
                },
                {
                  "internalType": "address",
                  "name": "router",
                  "type": "address"
                },
                {
                  "internalType": "uint256",
                  "name": "amountIn",
                  "type": "uint256"
                },
                {
                  "internalType": "uint256",
                  "name": "expectedMinReturn",
                  "type": "uint256"
                },
                {
                  "internalType": "bool",
                  "name": "zeroForOne",
                  "type": "bool"
                }
              ],
              "internalType": "struct SwapPayload",
              "name": "swap",
              "type": "tuple"
            }
          ],
          "internalType": "struct Rebalance",
          "name": "rebalanceParams",
          "type": "tuple"
        }
      ],
      "stateMutability": "view",
      "type": "function"
    },
    {
      "inputs": [
        {
          "internalType": "uint256",
          "name": "amountToBurn_",
          "type": "uint256"
        },
        {
          "internalType": "contract IArrakisV2",
          "name": "vaultV2_",
          "type": "address"
        }
      ],
      "name": "standardBurnParams",
      "outputs": [
        {
          "components": [
            {
              "internalType": "uint128",
              "name": "liquidity",
              "type": "uint128"
            },
            {
              "components": [
                {
                  "internalType": "int24",
                  "name": "lowerTick",
                  "type": "int24"
                },
                {
                  "internalType": "int24",
                  "name": "upperTick",
                  "type": "int24"
                },
                {
                  "internalType": "uint24",
                  "name": "feeTier",
                  "type": "uint24"
                }
              ],
              "internalType": "struct Range",
              "name": "range",
              "type": "tuple"
            }
          ],
          "internalType": "struct BurnLiquidity[]",
          "name": "burns",
          "type": "tuple[]"
        }
      ],
      "stateMutability": "view",
      "type": "function"
    },
    {
      "inputs": [
        {
          "components": [
            {
              "components": [
                {
                  "internalType": "int24",
                  "name": "lowerTick",
                  "type": "int24"
                },
                {
                  "internalType": "int24",
                  "name": "upperTick",
                  "type": "int24"
                },
                {
                  "internalType": "uint24",
                  "name": "feeTier",
                  "type": "uint24"
                }
              ],
              "internalType": "struct Range",
              "name": "range",
              "type": "tuple"
            },
            {
              "internalType": "uint256",
              "name": "weight",
              "type": "uint256"
            }
          ],
          "internalType": "struct RangeWeight[]",
          "name": "rangeWeights_",
          "type": "tuple[]"
        },
        {
          "internalType": "contract IArrakisV2",
          "name": "vaultV2_",
          "type": "address"
        }
      ],
      "name": "standardRebalance",
      "outputs": [
        {
          "components": [
            {
              "components": [
                {
                  "internalType": "uint128",
                  "name": "liquidity",
                  "type": "uint128"
                },
                {
                  "components": [
                    {
                      "internalType": "int24",
                      "name": "lowerTick",
                      "type": "int24"
                    },
                    {
                      "internalType": "int24",
                      "name": "upperTick",
                      "type": "int24"
                    },
                    {
                      "internalType": "uint24",
                      "name": "feeTier",
                      "type": "uint24"
                    }
                  ],
                  "internalType": "struct Range",
                  "name": "range",
                  "type": "tuple"
                }
              ],
              "internalType": "struct PositionLiquidity[]",
              "name": "removes",
              "type": "tuple[]"
            },
            {
              "components": [
                {
                  "internalType": "uint128",
                  "name": "liquidity",
                  "type": "uint128"
                },
                {
                  "components": [
                    {
                      "internalType": "int24",
                      "name": "lowerTick",
                      "type": "int24"
                    },
                    {
                      "internalType": "int24",
                      "name": "upperTick",
                      "type": "int24"
                    },
                    {
                      "internalType": "uint24",
                      "name": "feeTier",
                      "type": "uint24"
                    }
                  ],
                  "internalType": "struct Range",
                  "name": "range",
                  "type": "tuple"
                }
              ],
              "internalType": "struct PositionLiquidity[]",
              "name": "deposits",
              "type": "tuple[]"
            },
            {
              "components": [
                {
                  "internalType": "bytes",
                  "name": "payload",
                  "type": "bytes"
                },
                {
                  "internalType": "address",
                  "name": "pool",
                  "type": "address"
                },
                {
                  "internalType": "address",
                  "name": "router",
                  "type": "address"
                },
                {
                  "internalType": "uint256",
                  "name": "amountIn",
                  "type": "uint256"
                },
                {
                  "internalType": "uint256",
                  "name": "expectedMinReturn",
                  "type": "uint256"
                },
                {
                  "internalType": "bool",
                  "name": "zeroForOne",
                  "type": "bool"
                }
              ],
              "internalType": "struct SwapPayload",
              "name": "swap",
              "type": "tuple"
            }
          ],
          "internalType": "struct Rebalance",
          "name": "rebalanceParams",
          "type": "tuple"
        }
      ],
      "stateMutability": "view",
      "type": "function"
    },
    {
      "inputs": [],
      "name": "swapRouter",
      "outputs": [
        {
          "internalType": "contract ISwapRouter",
          "name": "",
          "type": "address"
        }
      ],
      "stateMutability": "view",
      "type": "function"
    }
  ],
  "transactionHash": "0x41f66a0d3b213d8240158bf4c5976d68152e221640280154ac0aa58e36fa8244",
  "args": [
    "0x1F98431c8aD98523631AE4a59f267346ea31F984",
    "0x31244496dd319038c7ECAbb8aBC74d425516cDB9",
    "0xE592427A0AEce92De3Edee1F18E0157C05861564"
  ],
  "numDeployments": 3,
  "solcInputHash": "93228341db3d86f31224385b5a1e9596",
  "bytecode": "0x60e06040523480156200001157600080fd5b5060405162003f7c38038062003f7c83398101604081905262000034916200006b565b6001600160a01b0392831660805290821660a0521660c052620000bf565b6001600160a01b03811681146200006857600080fd5b50565b6000806000606084860312156200008157600080fd5b83516200008e8162000052565b6020850151909350620000a18162000052565b6040850151909250620000b48162000052565b809150509250925092565b60805160a05160c051613e56620001266000396000818161013e01526108860152600081816092015281816101e0015281816103730152818161132301528181611d9701528181611f1f01526125fb01526000818161016501526113fc0152613e566000f3fe608060405234801561001057600080fd5b50600436106100885760003560e01c8063c31c9c071161005b578063c31c9c0714610139578063c45a015514610160578063c49f25af14610187578063fa111ce71461019a57600080fd5b806363b0e66a1461008d578063684e1172146100d1578063a339df12146100f1578063c30fcfdc14610119575b600080fd5b6100b47f000000000000000000000000000000000000000000000000000000000000000081565b6040516001600160a01b0390911681526020015b60405180910390f35b6100e46100df36600461325b565b6101c8565b6040516100c89190613320565b6101046100ff366004613443565b611220565b604080519283526020830191909152016100c8565b61012c6101273660046134bf565b611255565b6040516100c891906134ef565b6100b47f000000000000000000000000000000000000000000000000000000000000000081565b6100b47f000000000000000000000000000000000000000000000000000000000000000081565b6100e461019536600461367c565b611d85565b6101ad6101a836600461372e565b6125f1565b604080519384526020840192909252908201526060016100c8565b6101d06131bb565b6000808080806001600160a01b037f00000000000000000000000000000000000000000000000000000000000000001663284ae96f61021560408a0160208b01613763565b6040516001600160e01b031960e084901b1681526001600160a01b039091166004820152602401600060405180830381865afa158015610259573d6000803e3d6000fd5b505050506040513d6000823e601f3d908101601f191682016040526102819190810190613780565b90506102936040880160208901613763565b6001600160a01b0316630dfe16816040518163ffffffff1660e01b8152600401602060405180830381865afa1580156102d0573d6000803e3d6000fd5b505050506040513d601f19601f820116820180604052508101906102f49190613858565b92506103066040880160208901613763565b6001600160a01b031663d21220a76040518163ffffffff1660e01b8152600401602060405180830381865afa158015610343573d6000803e3d6000fd5b505050506040513d601f19601f820116820180604052508101906103679190613858565b91506001600160a01b037f000000000000000000000000000000000000000000000000000000000000000016636ea08e2a6103a860408a0160208b01613763565b6040516001600160e01b031960e084901b1681526001600160a01b0390911660048201526024016040805180830381865afa1580156103eb573d6000803e3d6000fd5b505050506040513d601f19601f8201168201806040525081019061040f9190613875565b825191965094506000906001600160401b038111156104305761043061353d565b60405190808252806020026020018201604052801561046957816020015b6104566131e1565b81526020019060019003908161044e5790505b5090506000805b835181101561075757600061048b60408c0160208d01613763565b6001600160a01b031663c45a01556040518163ffffffff1660e01b8152600401602060405180830381865afa1580156104c8573d6000803e3d6000fd5b505050506040513d601f19601f820116820180604052508101906104ec9190613858565b6001600160a01b0316631698ee82888888868151811061050e5761050e613899565b6020026020010151604001516040518463ffffffff1660e01b8152600401610538939291906138af565b602060405180830381865afa158015610555573d6000803e3d6000fd5b505050506040513d601f19601f820116820180604052508101906105799190613858565b6001600160a01b031663514ea4bf731278B36cc6dD53aba16b756BA451a0808B0F662b631208efca8e60200160208101906105b49190613763565b8987815181106105c6576105c6613899565b6020026020010151600001518a88815181106105e4576105e4613899565b60209081029190910181015101516040516001600160e01b031960e086901b1681526001600160a01b039093166004840152600291820b6024840152900b6044820152606401602060405180830381865af4158015610647573d6000803e3d6000fd5b505050506040513d601f19601f8201168201806040525081019061066b91906138d7565b6040518263ffffffff1660e01b815260040161068991815260200190565b60a060405180830381865afa1580156106a6573d6000803e3d6000fd5b505050506040513d601f19601f820116820180604052508101906106ca91906138f0565b5092935050506001600160801b0382161590506106ef57826106eb81613968565b9350505b6040518060400160405280826001600160801b0316815260200186848151811061071b5761071b613899565b602002602001015181525084838151811061073857610738613899565b602002602001018190525050808061074f90613968565b915050610470565b50806001600160401b038111156107705761077061353d565b6040519080825280602002602001820160405280156107a957816020015b6107966131e1565b81526020019060019003908161078e5790505b5088526000805b83518110156108445760008482815181106107cd576107cd613899565b6020026020010151600001516001600160801b03161115610832578381815181106107fa576107fa613899565b60200260200101518a60000151838151811061081857610818613899565b6020026020010181905250818061082e90613968565b9250505b8061083c81613968565b9150506107b0565b5061084d613211565b61085d60a08c0160808d0161398f565b151560a082015261087460608c0160408d01613763565b6001600160a01b0390811660208301527f00000000000000000000000000000000000000000000000000000000000000001660408201526108bb60a08c0160808d0161398f565b15610ae4576108d1898c60600135612710612913565b816060018181525050610ada81606001517385F3827a01818FEf655E51C53d0B2c89474acbBC639ff4c50d8e604001602081019061090f9190613763565b8f60200160208101906109229190613763565b6001600160a01b03166326d895456040518163ffffffff1660e01b8152600401602060405180830381865afa15801561095f573d6000803e3d6000fd5b505050506040513d601f19601f8201168201806040525081019061098391906139ac565b6040516001600160e01b031960e085901b1681526001600160a01b03909216600483015262ffffff166024820152604401602060405180830381865af41580156109d1573d6000803e3d6000fd5b505050506040513d601f19601f820116820180604052508101906109f591906138d7565b8d6020016020810190610a089190613763565b6001600160a01b0316630dfe16816040518163ffffffff1660e01b8152600401602060405180830381865afa158015610a45573d6000803e3d6000fd5b505050506040513d601f19601f82011682018060405250810190610a699190613858565b6001600160a01b031663313ce5676040518163ffffffff1660e01b8152600401602060405180830381865afa158015610aa6573d6000803e3d6000fd5b505050506040513d601f19601f82011682018060405250810190610aca91906139da565b610ad590600a613ad9565b612913565b6080820152610c6f565b610af5888c60600135612710612913565b816060018181525050610c6981606001517385F3827a01818FEf655E51C53d0B2c89474acbBC630578711c8e6040016020810190610b339190613763565b8f6020016020810190610b469190613763565b6001600160a01b03166326d895456040518163ffffffff1660e01b8152600401602060405180830381865afa158015610b83573d6000803e3d6000fd5b505050506040513d601f19601f82011682018060405250810190610ba791906139ac565b6040516001600160e01b031960e085901b1681526001600160a01b03909216600483015262ffffff166024820152604401602060405180830381865af4158015610bf5573d6000803e3d6000fd5b505050506040513d601f19601f82011682018060405250810190610c1991906138d7565b8d6020016020810190610c2c9190613763565b6001600160a01b031663d21220a76040518163ffffffff1660e01b8152600401602060405180830381865afa158015610a45573d6000803e3d6000fd5b60808201525b63414bf38960e01b6040518061010001604052808d6020016020810190610c969190613763565b6001600160a01b0316630dfe16816040518163ffffffff1660e01b8152600401602060405180830381865afa158015610cd3573d6000803e3d6000fd5b505050506040513d601f19601f82011682018060405250810190610cf79190613858565b6001600160a01b031681526020018d6020016020810190610d189190613763565b6001600160a01b031663d21220a76040518163ffffffff1660e01b8152600401602060405180830381865afa158015610d55573d6000803e3d6000fd5b505050506040513d601f19601f82011682018060405250810190610d799190613858565b6001600160a01b031681526020018d6040016020810190610d9a9190613763565b6001600160a01b031663ddca3f436040518163ffffffff1660e01b8152600401602060405180830381865afa158015610dd7573d6000803e3d6000fd5b505050506040513d601f19601f82011682018060405250810190610dfb91906139ac565b62ffffff1681526020018d6020016020810190610e189190613763565b6001600160a01b03168152602001610e3243610258613ae8565b8152602001836060015181526020018360800151815260200160006001600160a01b0316815250604051602401610ecd919081516001600160a01b03908116825260208084015182169083015260408084015162ffffff16908301526060808401518216908301526080808401519083015260a0838101519083015260c0808401519083015260e09283015116918101919091526101000190565b60408051601f198184030181529181526020820180516001600160e01b03166001600160e01b03199094169390931790925282528a015250610f6e9250610f18915088905080613b00565b808060200260200160405190810160405280939291908181526020016000905b82821015610f6457610f5560808302860136819003810190613b50565b81526020019060010190610f38565b50505050506129c7565b610f788680613b00565b90506001600160401b03811115610f9157610f9161353d565b604051908082528060200260200182016040528015610fca57816020015b610fb76131e1565b815260200190600190039081610faf5790505b50602086015260005b610fdd8780613b00565b9050811015611216576000610ff28880613b00565b8381811061100257611002613899565b9050608002018036038101906110189190613b50565b9050600061102c60408a0160208b01613763565b6001600160a01b031663c45a01556040518163ffffffff1660e01b8152600401602060405180830381865afa158015611069573d6000803e3d6000fd5b505050506040513d601f19601f8201168201806040525081019061108d9190613858565b6001600160a01b0316631698ee8286868560000151604001516040518463ffffffff1660e01b81526004016110c4939291906138af565b602060405180830381865afa1580156110e1573d6000803e3d6000fd5b505050506040513d601f19601f820116820180604052508101906111059190613858565b6001600160a01b0316633850c7bd6040518163ffffffff1660e01b815260040160e060405180830381865afa158015611142573d6000803e3d6000fd5b505050506040513d601f19601f820116820180604052508101906111669190613b7e565b505050505050905060006111bb82611185856000015160000151612a57565b85516020015161119490612a57565b6111a58c8860200151612710612913565b6111b68c8960200151612710612913565b612e77565b90506040518060400160405280826001600160801b031681526020018460000151815250896020015185815181106111f5576111f5613899565b6020026020010181905250505050808061120e90613968565b915050610fd3565b5050505050919050565b60008061124761122f87612a57565b61123887612a57565b61124187612a57565b86612f3b565b915091505b94509492505050565b60606000826001600160a01b03166318160ddd6040518163ffffffff1660e01b8152600401602060405180830381865afa158015611297573d6000803e3d6000fd5b505050506040513d601f19601f820116820180604052508101906112bb91906138d7565b9050600081116113015760405162461bcd60e51b815260206004820152600c60248201526b746f74616c20737570706c7960a01b60448201526064015b60405180910390fd5b60405163284ae96f60e01b81526001600160a01b0384811660048301526000917f00000000000000000000000000000000000000000000000000000000000000009091169063284ae96f90602401600060405180830381865afa15801561136c573d6000803e3d6000fd5b505050506040513d6000823e601f3d908101601f191682016040526113949190810190613780565b90506113cf6040518060c001604052806000815260200160008152602001600081526020016000815260200160008152602001600081525090565b73A286c23AC68E9E41dC210eF885e2B2d5fC94e98963e56f4d916040518060a001604052808581526020017f00000000000000000000000000000000000000000000000000000000000000006001600160a01b03168152602001886001600160a01b0316630dfe16816040518163ffffffff1660e01b8152600401602060405180830381865afa158015611467573d6000803e3d6000fd5b505050506040513d601f19601f8201168201806040525081019061148b9190613858565b6001600160a01b03168152602001886001600160a01b031663d21220a76040518163ffffffff1660e01b8152600401602060405180830381865afa1580156114d7573d6000803e3d6000fd5b505050506040513d601f19601f820116820180604052508101906114fb9190613858565b6001600160a01b03168152602001886001600160a01b03168152506040518263ffffffff1660e01b81526004016115329190613c0d565b608060405180830381865af415801561154f573d6000803e3d6000fd5b505050506040513d601f19601f820116820180604052508101906115739190613cde565b60608501526040808501919091526020808501929092529183528151630dfe168160e01b815291516001600160a01b03881692630dfe16819260048083019391928290030181865afa1580156115cd573d6000803e3d6000fd5b505050506040513d601f19601f820116820180604052508101906115f19190613858565b6040516370a0823160e01b81526001600160a01b03878116600483015291909116906370a0823190602401602060405180830381865afa158015611639573d6000803e3d6000fd5b505050506040513d601f19601f8201168201806040525081019061165d91906138d7565b816080018181525050846001600160a01b031663d21220a76040518163ffffffff1660e01b8152600401602060405180830381865afa1580156116a4573d6000803e3d6000fd5b505050506040513d601f19601f820116820180604052508101906116c89190613858565b6040516370a0823160e01b81526001600160a01b03878116600483015291909116906370a0823190602401602060405180830381865afa158015611710573d6000803e3d6000fd5b505050506040513d601f19601f8201168201806040525081019061173491906138d7565b8160a001818152505060008073213dD4F29504EA227be5aDa8379bb8012ea3CBCE636d50cdaf846040015185606001518a6001600160a01b031663481c6a756040518163ffffffff1660e01b8152600401602060405180830381865afa1580156117a2573d6000803e3d6000fd5b505050506040513d601f19601f820116820180604052508101906117c69190613858565b6001600160a01b031663ccdf7a026040518163ffffffff1660e01b8152600401602060405180830381865afa158015611803573d6000803e3d6000fd5b505050506040513d601f19601f820116820180604052508101906118279190613d14565b8b6001600160a01b031663c70750416040518163ffffffff1660e01b8152600401602060405180830381865afa158015611865573d6000803e3d6000fd5b505050506040513d601f19601f820116820180604052508101906118899190613d14565b6040516001600160e01b031960e087901b1681526004810194909452602484019290925261ffff90811660448401521660648201526084016040805180830381865af41580156118dd573d6000803e3d6000fd5b505050506040513d601f19601f820116820180604052508101906119019190613875565b915091508183608001516119159190613ae8565b83518490611924908390613ae8565b90525060a0830151611937908290613ae8565b836020018181516119489190613ae8565b9052505081516000915061195d908886612913565b9050600061197083602001518987612913565b90508260800151821115801561198a57508260a001518111155b15611999575050505050611d7f565b50505080516001600160401b038111156119b5576119b561353d565b6040519080825280602002602001820160405280156119ee57816020015b6119db6131e1565b8152602001906001900390816119d35790505b50925060005b8151811015611d7b576000856001600160a01b031663c45a01556040518163ffffffff1660e01b8152600401602060405180830381865afa158015611a3d573d6000803e3d6000fd5b505050506040513d601f19601f82011682018060405250810190611a619190613858565b6001600160a01b0316631698ee82876001600160a01b0316630dfe16816040518163ffffffff1660e01b8152600401602060405180830381865afa158015611aad573d6000803e3d6000fd5b505050506040513d601f19601f82011682018060405250810190611ad19190613858565b886001600160a01b031663d21220a76040518163ffffffff1660e01b8152600401602060405180830381865afa158015611b0f573d6000803e3d6000fd5b505050506040513d601f19601f82011682018060405250810190611b339190613858565b868681518110611b4557611b45613899565b6020026020010151604001516040518463ffffffff1660e01b8152600401611b6f939291906138af565b602060405180830381865afa158015611b8c573d6000803e3d6000fd5b505050506040513d601f19601f82011682018060405250810190611bb09190613858565b6001600160a01b031663514ea4bf731278B36cc6dD53aba16b756BA451a0808B0F662b631208efca89878781518110611beb57611beb613899565b602002602001015160000151888881518110611c0957611c09613899565b60209081029190910181015101516040516001600160e01b031960e086901b1681526001600160a01b039093166004840152600291820b6024840152900b6044820152606401602060405180830381865af4158015611c6c573d6000803e3d6000fd5b505050506040513d601f19601f82011682018060405250810190611c9091906138d7565b6040518263ffffffff1660e01b8152600401611cae91815260200190565b60a060405180830381865afa158015611ccb573d6000803e3d6000fd5b505050506040513d601f19601f82011682018060405250810190611cef91906138f0565b505060408051808201909152929350829150611d1f9050611d1a6001600160801b0385168b89612913565b612fd6565b6001600160801b03168152602001848481518110611d3f57611d3f613899565b6020026020010151815250858381518110611d5c57611d5c613899565b6020026020010181905250508080611d7390613968565b9150506119f4565b5050505b92915050565b611d8d6131bb565b60008060008060007f00000000000000000000000000000000000000000000000000000000000000006001600160a01b031663284ae96f886040518263ffffffff1660e01b8152600401611df091906001600160a01b0391909116815260200190565b600060405180830381865afa158015611e0d573d6000803e3d6000fd5b505050506040513d6000823e601f3d908101601f19168201604052611e359190810190613780565b9050866001600160a01b0316630dfe16816040518163ffffffff1660e01b8152600401602060405180830381865afa158015611e75573d6000803e3d6000fd5b505050506040513d601f19601f82011682018060405250810190611e999190613858565b9250866001600160a01b031663d21220a76040518163ffffffff1660e01b8152600401602060405180830381865afa158015611ed9573d6000803e3d6000fd5b505050506040513d601f19601f82011682018060405250810190611efd9190613858565b604051633750471560e11b81526001600160a01b0389811660048301529193507f000000000000000000000000000000000000000000000000000000000000000090911690636ea08e2a906024016040805180830381865afa158015611f67573d6000803e3d6000fd5b505050506040513d601f19601f82011682018060405250810190611f8b9190613875565b825191965094506000906001600160401b03811115611fac57611fac61353d565b604051908082528060200260200182016040528015611fe557816020015b611fd26131e1565b815260200190600190039081611fca5790505b5090506000805b83518110156122b25760008a6001600160a01b031663c45a01556040518163ffffffff1660e01b8152600401602060405180830381865afa158015612035573d6000803e3d6000fd5b505050506040513d601f19601f820116820180604052508101906120599190613858565b6001600160a01b0316631698ee82888888868151811061207b5761207b613899565b6020026020010151604001516040518463ffffffff1660e01b81526004016120a5939291906138af565b602060405180830381865afa1580156120c2573d6000803e3d6000fd5b505050506040513d601f19601f820116820180604052508101906120e69190613858565b6001600160a01b031663514ea4bf731278B36cc6dD53aba16b756BA451a0808B0F662b631208efca8e89878151811061212157612121613899565b6020026020010151600001518a888151811061213f5761213f613899565b60209081029190910181015101516040516001600160e01b031960e086901b1681526001600160a01b039093166004840152600291820b6024840152900b6044820152606401602060405180830381865af41580156121a2573d6000803e3d6000fd5b505050506040513d601f19601f820116820180604052508101906121c691906138d7565b6040518263ffffffff1660e01b81526004016121e491815260200190565b60a060405180830381865afa158015612201573d6000803e3d6000fd5b505050506040513d601f19601f8201168201806040525081019061222591906138f0565b5092935050506001600160801b03821615905061224a578261224681613968565b9350505b6040518060400160405280826001600160801b0316815260200186848151811061227657612276613899565b602002602001015181525084838151811061229357612293613899565b60200260200101819052505080806122aa90613968565b915050611fec565b50806001600160401b038111156122cb576122cb61353d565b60405190808252806020026020018201604052801561230457816020015b6122f16131e1565b8152602001906001900390816122e95790505b5088526000805b835181101561239f57600084828151811061232857612328613899565b6020026020010151600001516001600160801b0316111561238d5783818151811061235557612355613899565b60200260200101518a60000151838151811061237357612373613899565b6020026020010181905250818061238990613968565b9250505b8061239781613968565b91505061230b565b50505050506123ad876129c7565b86516001600160401b038111156123c6576123c661353d565b6040519080825280602002602001820160405280156123ff57816020015b6123ec6131e1565b8152602001906001900390816123e45790505b50602086015260005b87518110156125e657600088828151811061242557612425613899565b602002602001015190506000886001600160a01b031663c45a01556040518163ffffffff1660e01b8152600401602060405180830381865afa15801561246f573d6000803e3d6000fd5b505050506040513d601f19601f820116820180604052508101906124939190613858565b6001600160a01b0316631698ee8286868560000151604001516040518463ffffffff1660e01b81526004016124ca939291906138af565b602060405180830381865afa1580156124e7573d6000803e3d6000fd5b505050506040513d601f19601f8201168201806040525081019061250b9190613858565b6001600160a01b0316633850c7bd6040518163ffffffff1660e01b815260040160e060405180830381865afa158015612548573d6000803e3d6000fd5b505050506040513d601f19601f8201168201806040525081019061256c9190613b7e565b5050505050509050600061258b82611185856000015160000151612a57565b90506040518060400160405280826001600160801b031681526020018460000151815250896020015185815181106125c5576125c5613899565b602002602001018190525050505080806125de90613968565b915050612408565b505050505092915050565b60008060008060007f00000000000000000000000000000000000000000000000000000000000000006001600160a01b0316636ea08e2a896040518263ffffffff1660e01b815260040161265491906001600160a01b0391909116815260200190565b6040805180830381865afa158015612670573d6000803e3d6000fd5b505050506040513d601f19601f820116820180604052508101906126949190613875565b915091506000886001600160a01b03166318160ddd6040518163ffffffff1660e01b8152600401602060405180830381865afa1580156126d8573d6000803e3d6000fd5b505050506040513d601f19601f820116820180604052508101906126fc91906138d7565b905080156127a05760405163c30fc38d60e01b8152600481018490526024810183905260448101829052606481018990526084810188905273213dD4F29504EA227be5aDa8379bb8012ea3CBCE9063c30fc38d9060a401606060405180830381865af4158015612770573d6000803e3d6000fd5b505050506040513d601f19601f820116820180604052508101906127949190613d2f565b91975095509350612907565b73213dD4F29504EA227be5aDa8379bb8012ea3CBCE63c30fc38d8a6001600160a01b03166314b806306040518163ffffffff1660e01b8152600401602060405180830381865afa1580156127f8573d6000803e3d6000fd5b505050506040513d601f19601f8201168201806040525081019061281c91906138d7565b8b6001600160a01b031663f2eb3e346040518163ffffffff1660e01b8152600401602060405180830381865afa15801561285a573d6000803e3d6000fd5b505050506040513d601f19601f8201168201806040525081019061287e91906138d7565b6040516001600160e01b031960e085901b16815260048101929092526024820152670de0b6b3a76400006044820152606481018b9052608481018a905260a401606060405180830381865af41580156128db573d6000803e3d6000fd5b505050506040513d601f19601f820116820180604052508101906128ff9190613d2f565b919750955093505b50505093509350939050565b600080806000198587098587029250828110838203039150508060000361294c576000841161294157600080fd5b5082900490506129c0565b80841161295857600080fd5b600084868809851960019081018716968790049682860381900495909211909303600082900391909104909201919091029190911760038402600290811880860282030280860282030280860282030280860282030280860282030280860290910302029150505b9392505050565b6000805b8251811015612a11578281815181106129e6576129e6613899565b602002602001015160200151826129fd9190613ae8565b915080612a0981613968565b9150506129cb565b50612710811115612a535760405162461bcd60e51b815260206004820152600c60248201526b1d1bdd185b081dd95a59da1d60a21b60448201526064016112f8565b5050565b60008060008360020b12612a6e578260020b612a7b565b8260020b612a7b90613d5d565b9050612a8a620d89e719613d79565b60020b811115612ac05760405162461bcd60e51b81526020600482015260016024820152601560fa1b60448201526064016112f8565b600081600116600003612ad757600160801b612ae9565b6ffffcb933bd6fad37aa2d162d1a5940015b70ffffffffffffffffffffffffffffffffff1690506002821615612b28576080612b23826ffff97272373d413259a46990580e213a613d9b565b901c90505b6004821615612b52576080612b4d826ffff2e50f5f656932ef12357cf3c7fdcc613d9b565b901c90505b6008821615612b7c576080612b77826fffe5caca7e10e4e61c3624eaa0941cd0613d9b565b901c90505b6010821615612ba6576080612ba1826fffcb9843d60f6159c9db58835c926644613d9b565b901c90505b6020821615612bd0576080612bcb826fff973b41fa98c081472e6896dfb254c0613d9b565b901c90505b6040821615612bfa576080612bf5826fff2ea16466c96a3843ec78b326b52861613d9b565b901c90505b6080821615612c24576080612c1f826ffe5dee046a99a2a811c461f1969c3053613d9b565b901c90505b610100821615612c4f576080612c4a826ffcbe86c7900a88aedcffc83b479aa3a4613d9b565b901c90505b610200821615612c7a576080612c75826ff987a7253ac413176f2b074cf7815e54613d9b565b901c90505b610400821615612ca5576080612ca0826ff3392b0822b70005940c7a398e4b70f3613d9b565b901c90505b610800821615612cd0576080612ccb826fe7159475a2c29b7443b29c7fa6e889d9613d9b565b901c90505b611000821615612cfb576080612cf6826fd097f3bdfd2022b8845ad8f792aa5825613d9b565b901c90505b612000821615612d26576080612d21826fa9f746462d870fdf8a65dc1f90e061e5613d9b565b901c90505b614000821615612d51576080612d4c826f70d869a156d2a1b890bb3df62baf32f7613d9b565b901c90505b618000821615612d7c576080612d77826f31be135f97d08fd981231505542fcfa6613d9b565b901c90505b62010000821615612da8576080612da3826f09aa508b5b7a84e1c677de54f3e99bc9613d9b565b901c90505b62020000821615612dd3576080612dce826e5d6af8dedb81196699c329225ee604613d9b565b901c90505b62040000821615612dfd576080612df8826d2216e584f5fa1ea926041bedfe98613d9b565b901c90505b62080000821615612e25576080612e20826b048a170391f7dc42444e8fa2613d9b565b901c90505b60008460020b1315612e4057612e3d81600019613dd0565b90505b612e4f64010000000082613de4565b15612e5b576001612e5e565b60005b612e6f9060ff16602083901c613ae8565b949350505050565b6000836001600160a01b0316856001600160a01b03161115612e97579293925b846001600160a01b0316866001600160a01b031611612ec257612ebb858585613043565b9050612f32565b836001600160a01b0316866001600160a01b03161015612f24576000612ee9878686613043565b90506000612ef88789866130ad565b9050806001600160801b0316826001600160801b031610612f195780612f1b565b815b92505050612f32565b612f2f8585846130ad565b90505b95945050505050565b600080836001600160a01b0316856001600160a01b03161115612f5c579293925b846001600160a01b0316866001600160a01b031611612f8757612f808585856130e3565b915061124c565b836001600160a01b0316866001600160a01b03161015612fc057612fac8685856130e3565b9150612fb9858785613156565b905061124c565b612fcb858585613156565b905094509492505050565b60006001600160801b0382111561303f5760405162461bcd60e51b815260206004820152602760248201527f53616665436173743a2076616c756520646f65736e27742066697420696e20316044820152663238206269747360c81b60648201526084016112f8565b5090565b6000826001600160a01b0316846001600160a01b03161115613063579192915b6000613086856001600160a01b0316856001600160a01b0316600160601b612913565b9050612f326130a8848361309a8989613df8565b6001600160a01b0316612913565b6131a0565b6000826001600160a01b0316846001600160a01b031611156130cd579192915b612e6f6130a883600160601b61309a8888613df8565b6000826001600160a01b0316846001600160a01b03161115613103579192915b6001600160a01b03841661314c6fffffffffffffffffffffffffffffffff60601b606085901b166131348787613df8565b6001600160a01b0316866001600160a01b0316612913565b612e6f9190613dd0565b6000826001600160a01b0316846001600160a01b03161115613176579192915b612e6f6001600160801b03831661318d8686613df8565b6001600160a01b0316600160601b612913565b806001600160801b03811681146131b657600080fd5b919050565b604051806060016040528060608152602001606081526020016131dc613211565b905290565b60408051808201825260008082528251606081018452818152602081810183905293810191909152909182015290565b6040518060c001604052806060815260200160006001600160a01b0316815260200160006001600160a01b0316815260200160008152602001600081526020016000151581525090565b60006020828403121561326d57600080fd5b81356001600160401b0381111561328357600080fd5b820160a081850312156129c057600080fd5b6001600160801b03815116825260208101516132d66020840182805160020b8252602081015160020b602083015262ffffff60408201511660408301525050565b505050565b600081518084526020808501945080840160005b8381101561331557613302878351613295565b60809690960195908201906001016132ef565b509495945050505050565b60006020808352835160608285015261333c60808501826132db565b905081850151601f198086840301604087015261335983836132db565b92506040870151915080868403016060870152815160c0845280518060c086015260005b818110156133995782810187015186820160e00152860161337d565b818111156133ab57600060e083880101525b50838601516001600160a01b038116868801529150604084015195506133dc60408601876001600160a01b03169052565b606084015160608601526080840151608086015260a0840151955061340560a086018715159052565b601f019091169290920160e0019695505050505050565b8060020b811461342b57600080fd5b50565b6001600160801b038116811461342b57600080fd5b6000806000806080858703121561345957600080fd5b84356134648161341c565b935060208501356134748161341c565b925060408501356134848161341c565b915060608501356134948161342e565b939692955090935050565b6001600160a01b038116811461342b57600080fd5b80356131b68161349f565b600080604083850312156134d257600080fd5b8235915060208301356134e48161349f565b809150509250929050565b6020808252825182820181905260009190848201906040850190845b818110156135315761351e838551613295565b928401926080929092019160010161350b565b50909695505050505050565b634e487b7160e01b600052604160045260246000fd5b604051606081016001600160401b03811182821017156135755761357561353d565b60405290565b604051601f8201601f191681016001600160401b03811182821017156135a3576135a361353d565b604052919050565b60006001600160401b038211156135c4576135c461353d565b5060051b60200190565b62ffffff8116811461342b57600080fd5b600081830360808112156135f257600080fd5b604051604081018181106001600160401b03821117156136145761361461353d565b604052915081606082121561362857600080fd5b613630613553565b9150833561363d8161341c565b8252602084013561364d8161341c565b60208301526040840135613660816135ce565b8060408401525081815260608401356020820152505092915050565b6000806040838503121561368f57600080fd5b82356001600160401b038111156136a557600080fd5b8301601f810185136136b657600080fd5b803560206136cb6136c6836135ab565b61357b565b82815260079290921b830181019181810190888411156136ea57600080fd5b938201935b838510156137135761370189866135df565b825282820191506080850194506136ef565b955061372290508682016134b4565b93505050509250929050565b60008060006060848603121561374357600080fd5b833561374e8161349f565b95602085013595506040909401359392505050565b60006020828403121561377557600080fd5b81356129c08161349f565b6000602080838503121561379357600080fd5b82516001600160401b038111156137a957600080fd5b8301601f810185136137ba57600080fd5b80516137c86136c6826135ab565b818152606091820283018401918482019190888411156137e757600080fd5b938501935b8385101561384c5780858a0312156138045760008081fd5b61380c613553565b85516138178161341c565b8152858701516138268161341c565b81880152604086810151613839816135ce565b90820152835293840193918501916137ec565b50979650505050505050565b60006020828403121561386a57600080fd5b81516129c08161349f565b6000806040838503121561388857600080fd5b505080516020909101519092909150565b634e487b7160e01b600052603260045260246000fd5b6001600160a01b03938416815291909216602082015262ffffff909116604082015260600190565b6000602082840312156138e957600080fd5b5051919050565b600080600080600060a0868803121561390857600080fd5b85516139138161342e565b80955050602086015193506040860151925060608601516139338161342e565b60808701519092506139448161342e565b809150509295509295909350565b634e487b7160e01b600052601160045260246000fd5b60006001820161397a5761397a613952565b5060010190565b801515811461342b57600080fd5b6000602082840312156139a157600080fd5b81356129c081613981565b6000602082840312156139be57600080fd5b81516129c0816135ce565b805160ff811681146131b657600080fd5b6000602082840312156139ec57600080fd5b6129c0826139c9565b600181815b80851115613a30578160001904821115613a1657613a16613952565b80851615613a2357918102915b93841c93908002906139fa565b509250929050565b600082613a4757506001611d7f565b81613a5457506000611d7f565b8160018114613a6a5760028114613a7457613a90565b6001915050611d7f565b60ff841115613a8557613a85613952565b50506001821b611d7f565b5060208310610133831016604e8410600b8410161715613ab3575081810a611d7f565b613abd83836139f5565b8060001904821115613ad157613ad1613952565b029392505050565b60006129c060ff841683613a38565b60008219821115613afb57613afb613952565b500190565b6000808335601e19843603018112613b1757600080fd5b8301803591506001600160401b03821115613b3157600080fd5b6020019150600781901b3603821315613b4957600080fd5b9250929050565b600060808284031215613b6257600080fd5b6129c083836135df565b805161ffff811681146131b657600080fd5b600080600080600080600060e0888a031215613b9957600080fd5b8751613ba48161349f565b6020890151909750613bb58161341c565b9550613bc360408901613b6c565b9450613bd160608901613b6c565b9350613bdf60808901613b6c565b9250613bed60a089016139c9565b915060c0880151613bfd81613981565b8091505092959891949750929550565b6020808252825160a083830152805160c0840181905260009291820190839060e08601905b80831015613c7d57613c67828551805160020b8252602081015160020b602083015262ffffff60408201511660408301525050565b6060820191508484019350600183019250613c32565b50928601516001600160a01b03811660408701529260408701516001600160a01b0381166060880152935060608701516001600160a01b0381166080880152935060808701516001600160a01b03811660a088015293509695505050505050565b60008060008060808587031215613cf457600080fd5b505082516020840151604085015160609095015191969095509092509050565b600060208284031215613d2657600080fd5b6129c082613b6c565b600080600060608486031215613d4457600080fd5b8351925060208401519150604084015190509250925092565b6000600160ff1b8201613d7257613d72613952565b5060000390565b60008160020b627fffff198103613d9257613d92613952565b60000392915050565b6000816000190483118215151615613db557613db5613952565b500290565b634e487b7160e01b600052601260045260246000fd5b600082613ddf57613ddf613dba565b500490565b600082613df357613df3613dba565b500690565b60006001600160a01b0383811690831681811015613e1857613e18613952565b03939250505056fea2646970667358221220daaf317ad5214030e63384028275912d60529602803726df7160369685cefed864736f6c634300080d0033",
  "deployedBytecode": "0x608060405234801561001057600080fd5b50600436106100885760003560e01c8063c31c9c071161005b578063c31c9c0714610139578063c45a015514610160578063c49f25af14610187578063fa111ce71461019a57600080fd5b806363b0e66a1461008d578063684e1172146100d1578063a339df12146100f1578063c30fcfdc14610119575b600080fd5b6100b47f000000000000000000000000000000000000000000000000000000000000000081565b6040516001600160a01b0390911681526020015b60405180910390f35b6100e46100df36600461325b565b6101c8565b6040516100c89190613320565b6101046100ff366004613443565b611220565b604080519283526020830191909152016100c8565b61012c6101273660046134bf565b611255565b6040516100c891906134ef565b6100b47f000000000000000000000000000000000000000000000000000000000000000081565b6100b47f000000000000000000000000000000000000000000000000000000000000000081565b6100e461019536600461367c565b611d85565b6101ad6101a836600461372e565b6125f1565b604080519384526020840192909252908201526060016100c8565b6101d06131bb565b6000808080806001600160a01b037f00000000000000000000000000000000000000000000000000000000000000001663284ae96f61021560408a0160208b01613763565b6040516001600160e01b031960e084901b1681526001600160a01b039091166004820152602401600060405180830381865afa158015610259573d6000803e3d6000fd5b505050506040513d6000823e601f3d908101601f191682016040526102819190810190613780565b90506102936040880160208901613763565b6001600160a01b0316630dfe16816040518163ffffffff1660e01b8152600401602060405180830381865afa1580156102d0573d6000803e3d6000fd5b505050506040513d601f19601f820116820180604052508101906102f49190613858565b92506103066040880160208901613763565b6001600160a01b031663d21220a76040518163ffffffff1660e01b8152600401602060405180830381865afa158015610343573d6000803e3d6000fd5b505050506040513d601f19601f820116820180604052508101906103679190613858565b91506001600160a01b037f000000000000000000000000000000000000000000000000000000000000000016636ea08e2a6103a860408a0160208b01613763565b6040516001600160e01b031960e084901b1681526001600160a01b0390911660048201526024016040805180830381865afa1580156103eb573d6000803e3d6000fd5b505050506040513d601f19601f8201168201806040525081019061040f9190613875565b825191965094506000906001600160401b038111156104305761043061353d565b60405190808252806020026020018201604052801561046957816020015b6104566131e1565b81526020019060019003908161044e5790505b5090506000805b835181101561075757600061048b60408c0160208d01613763565b6001600160a01b031663c45a01556040518163ffffffff1660e01b8152600401602060405180830381865afa1580156104c8573d6000803e3d6000fd5b505050506040513d601f19601f820116820180604052508101906104ec9190613858565b6001600160a01b0316631698ee82888888868151811061050e5761050e613899565b6020026020010151604001516040518463ffffffff1660e01b8152600401610538939291906138af565b602060405180830381865afa158015610555573d6000803e3d6000fd5b505050506040513d601f19601f820116820180604052508101906105799190613858565b6001600160a01b031663514ea4bf73__$b131e44167300e1b6d47510635310686a7$__631208efca8e60200160208101906105b49190613763565b8987815181106105c6576105c6613899565b6020026020010151600001518a88815181106105e4576105e4613899565b60209081029190910181015101516040516001600160e01b031960e086901b1681526001600160a01b039093166004840152600291820b6024840152900b6044820152606401602060405180830381865af4158015610647573d6000803e3d6000fd5b505050506040513d601f19601f8201168201806040525081019061066b91906138d7565b6040518263ffffffff1660e01b815260040161068991815260200190565b60a060405180830381865afa1580156106a6573d6000803e3d6000fd5b505050506040513d601f19601f820116820180604052508101906106ca91906138f0565b5092935050506001600160801b0382161590506106ef57826106eb81613968565b9350505b6040518060400160405280826001600160801b0316815260200186848151811061071b5761071b613899565b602002602001015181525084838151811061073857610738613899565b602002602001018190525050808061074f90613968565b915050610470565b50806001600160401b038111156107705761077061353d565b6040519080825280602002602001820160405280156107a957816020015b6107966131e1565b81526020019060019003908161078e5790505b5088526000805b83518110156108445760008482815181106107cd576107cd613899565b6020026020010151600001516001600160801b03161115610832578381815181106107fa576107fa613899565b60200260200101518a60000151838151811061081857610818613899565b6020026020010181905250818061082e90613968565b9250505b8061083c81613968565b9150506107b0565b5061084d613211565b61085d60a08c0160808d0161398f565b151560a082015261087460608c0160408d01613763565b6001600160a01b0390811660208301527f00000000000000000000000000000000000000000000000000000000000000001660408201526108bb60a08c0160808d0161398f565b15610ae4576108d1898c60600135612710612913565b816060018181525050610ada816060015173__$fa5a18c13b4d815a743b91389b9a36db0f$__639ff4c50d8e604001602081019061090f9190613763565b8f60200160208101906109229190613763565b6001600160a01b03166326d895456040518163ffffffff1660e01b8152600401602060405180830381865afa15801561095f573d6000803e3d6000fd5b505050506040513d601f19601f8201168201806040525081019061098391906139ac565b6040516001600160e01b031960e085901b1681526001600160a01b03909216600483015262ffffff166024820152604401602060405180830381865af41580156109d1573d6000803e3d6000fd5b505050506040513d601f19601f820116820180604052508101906109f591906138d7565b8d6020016020810190610a089190613763565b6001600160a01b0316630dfe16816040518163ffffffff1660e01b8152600401602060405180830381865afa158015610a45573d6000803e3d6000fd5b505050506040513d601f19601f82011682018060405250810190610a699190613858565b6001600160a01b031663313ce5676040518163ffffffff1660e01b8152600401602060405180830381865afa158015610aa6573d6000803e3d6000fd5b505050506040513d601f19601f82011682018060405250810190610aca91906139da565b610ad590600a613ad9565b612913565b6080820152610c6f565b610af5888c60600135612710612913565b816060018181525050610c69816060015173__$fa5a18c13b4d815a743b91389b9a36db0f$__630578711c8e6040016020810190610b339190613763565b8f6020016020810190610b469190613763565b6001600160a01b03166326d895456040518163ffffffff1660e01b8152600401602060405180830381865afa158015610b83573d6000803e3d6000fd5b505050506040513d601f19601f82011682018060405250810190610ba791906139ac565b6040516001600160e01b031960e085901b1681526001600160a01b03909216600483015262ffffff166024820152604401602060405180830381865af4158015610bf5573d6000803e3d6000fd5b505050506040513d601f19601f82011682018060405250810190610c1991906138d7565b8d6020016020810190610c2c9190613763565b6001600160a01b031663d21220a76040518163ffffffff1660e01b8152600401602060405180830381865afa158015610a45573d6000803e3d6000fd5b60808201525b63414bf38960e01b6040518061010001604052808d6020016020810190610c969190613763565b6001600160a01b0316630dfe16816040518163ffffffff1660e01b8152600401602060405180830381865afa158015610cd3573d6000803e3d6000fd5b505050506040513d601f19601f82011682018060405250810190610cf79190613858565b6001600160a01b031681526020018d6020016020810190610d189190613763565b6001600160a01b031663d21220a76040518163ffffffff1660e01b8152600401602060405180830381865afa158015610d55573d6000803e3d6000fd5b505050506040513d601f19601f82011682018060405250810190610d799190613858565b6001600160a01b031681526020018d6040016020810190610d9a9190613763565b6001600160a01b031663ddca3f436040518163ffffffff1660e01b8152600401602060405180830381865afa158015610dd7573d6000803e3d6000fd5b505050506040513d601f19601f82011682018060405250810190610dfb91906139ac565b62ffffff1681526020018d6020016020810190610e189190613763565b6001600160a01b03168152602001610e3243610258613ae8565b8152602001836060015181526020018360800151815260200160006001600160a01b0316815250604051602401610ecd919081516001600160a01b03908116825260208084015182169083015260408084015162ffffff16908301526060808401518216908301526080808401519083015260a0838101519083015260c0808401519083015260e09283015116918101919091526101000190565b60408051601f198184030181529181526020820180516001600160e01b03166001600160e01b03199094169390931790925282528a015250610f6e9250610f18915088905080613b00565b808060200260200160405190810160405280939291908181526020016000905b82821015610f6457610f5560808302860136819003810190613b50565b81526020019060010190610f38565b50505050506129c7565b610f788680613b00565b90506001600160401b03811115610f9157610f9161353d565b604051908082528060200260200182016040528015610fca57816020015b610fb76131e1565b815260200190600190039081610faf5790505b50602086015260005b610fdd8780613b00565b9050811015611216576000610ff28880613b00565b8381811061100257611002613899565b9050608002018036038101906110189190613b50565b9050600061102c60408a0160208b01613763565b6001600160a01b031663c45a01556040518163ffffffff1660e01b8152600401602060405180830381865afa158015611069573d6000803e3d6000fd5b505050506040513d601f19601f8201168201806040525081019061108d9190613858565b6001600160a01b0316631698ee8286868560000151604001516040518463ffffffff1660e01b81526004016110c4939291906138af565b602060405180830381865afa1580156110e1573d6000803e3d6000fd5b505050506040513d601f19601f820116820180604052508101906111059190613858565b6001600160a01b0316633850c7bd6040518163ffffffff1660e01b815260040160e060405180830381865afa158015611142573d6000803e3d6000fd5b505050506040513d601f19601f820116820180604052508101906111669190613b7e565b505050505050905060006111bb82611185856000015160000151612a57565b85516020015161119490612a57565b6111a58c8860200151612710612913565b6111b68c8960200151612710612913565b612e77565b90506040518060400160405280826001600160801b031681526020018460000151815250896020015185815181106111f5576111f5613899565b6020026020010181905250505050808061120e90613968565b915050610fd3565b5050505050919050565b60008061124761122f87612a57565b61123887612a57565b61124187612a57565b86612f3b565b915091505b94509492505050565b60606000826001600160a01b03166318160ddd6040518163ffffffff1660e01b8152600401602060405180830381865afa158015611297573d6000803e3d6000fd5b505050506040513d601f19601f820116820180604052508101906112bb91906138d7565b9050600081116113015760405162461bcd60e51b815260206004820152600c60248201526b746f74616c20737570706c7960a01b60448201526064015b60405180910390fd5b60405163284ae96f60e01b81526001600160a01b0384811660048301526000917f00000000000000000000000000000000000000000000000000000000000000009091169063284ae96f90602401600060405180830381865afa15801561136c573d6000803e3d6000fd5b505050506040513d6000823e601f3d908101601f191682016040526113949190810190613780565b90506113cf6040518060c001604052806000815260200160008152602001600081526020016000815260200160008152602001600081525090565b73__$3d23d8578387a47facd93bb77f6fe6e81b$__63e56f4d916040518060a001604052808581526020017f00000000000000000000000000000000000000000000000000000000000000006001600160a01b03168152602001886001600160a01b0316630dfe16816040518163ffffffff1660e01b8152600401602060405180830381865afa158015611467573d6000803e3d6000fd5b505050506040513d601f19601f8201168201806040525081019061148b9190613858565b6001600160a01b03168152602001886001600160a01b031663d21220a76040518163ffffffff1660e01b8152600401602060405180830381865afa1580156114d7573d6000803e3d6000fd5b505050506040513d601f19601f820116820180604052508101906114fb9190613858565b6001600160a01b03168152602001886001600160a01b03168152506040518263ffffffff1660e01b81526004016115329190613c0d565b608060405180830381865af415801561154f573d6000803e3d6000fd5b505050506040513d601f19601f820116820180604052508101906115739190613cde565b60608501526040808501919091526020808501929092529183528151630dfe168160e01b815291516001600160a01b03881692630dfe16819260048083019391928290030181865afa1580156115cd573d6000803e3d6000fd5b505050506040513d601f19601f820116820180604052508101906115f19190613858565b6040516370a0823160e01b81526001600160a01b03878116600483015291909116906370a0823190602401602060405180830381865afa158015611639573d6000803e3d6000fd5b505050506040513d601f19601f8201168201806040525081019061165d91906138d7565b816080018181525050846001600160a01b031663d21220a76040518163ffffffff1660e01b8152600401602060405180830381865afa1580156116a4573d6000803e3d6000fd5b505050506040513d601f19601f820116820180604052508101906116c89190613858565b6040516370a0823160e01b81526001600160a01b03878116600483015291909116906370a0823190602401602060405180830381865afa158015611710573d6000803e3d6000fd5b505050506040513d601f19601f8201168201806040525081019061173491906138d7565b8160a001818152505060008073__$30ef26875820c516a3c36c5c0a5fd73943$__636d50cdaf846040015185606001518a6001600160a01b031663481c6a756040518163ffffffff1660e01b8152600401602060405180830381865afa1580156117a2573d6000803e3d6000fd5b505050506040513d601f19601f820116820180604052508101906117c69190613858565b6001600160a01b031663ccdf7a026040518163ffffffff1660e01b8152600401602060405180830381865afa158015611803573d6000803e3d6000fd5b505050506040513d601f19601f820116820180604052508101906118279190613d14565b8b6001600160a01b031663c70750416040518163ffffffff1660e01b8152600401602060405180830381865afa158015611865573d6000803e3d6000fd5b505050506040513d601f19601f820116820180604052508101906118899190613d14565b6040516001600160e01b031960e087901b1681526004810194909452602484019290925261ffff90811660448401521660648201526084016040805180830381865af41580156118dd573d6000803e3d6000fd5b505050506040513d601f19601f820116820180604052508101906119019190613875565b915091508183608001516119159190613ae8565b83518490611924908390613ae8565b90525060a0830151611937908290613ae8565b836020018181516119489190613ae8565b9052505081516000915061195d908886612913565b9050600061197083602001518987612913565b90508260800151821115801561198a57508260a001518111155b15611999575050505050611d7f565b50505080516001600160401b038111156119b5576119b561353d565b6040519080825280602002602001820160405280156119ee57816020015b6119db6131e1565b8152602001906001900390816119d35790505b50925060005b8151811015611d7b576000856001600160a01b031663c45a01556040518163ffffffff1660e01b8152600401602060405180830381865afa158015611a3d573d6000803e3d6000fd5b505050506040513d601f19601f82011682018060405250810190611a619190613858565b6001600160a01b0316631698ee82876001600160a01b0316630dfe16816040518163ffffffff1660e01b8152600401602060405180830381865afa158015611aad573d6000803e3d6000fd5b505050506040513d601f19601f82011682018060405250810190611ad19190613858565b886001600160a01b031663d21220a76040518163ffffffff1660e01b8152600401602060405180830381865afa158015611b0f573d6000803e3d6000fd5b505050506040513d601f19601f82011682018060405250810190611b339190613858565b868681518110611b4557611b45613899565b6020026020010151604001516040518463ffffffff1660e01b8152600401611b6f939291906138af565b602060405180830381865afa158015611b8c573d6000803e3d6000fd5b505050506040513d601f19601f82011682018060405250810190611bb09190613858565b6001600160a01b031663514ea4bf73__$b131e44167300e1b6d47510635310686a7$__631208efca89878781518110611beb57611beb613899565b602002602001015160000151888881518110611c0957611c09613899565b60209081029190910181015101516040516001600160e01b031960e086901b1681526001600160a01b039093166004840152600291820b6024840152900b6044820152606401602060405180830381865af4158015611c6c573d6000803e3d6000fd5b505050506040513d601f19601f82011682018060405250810190611c9091906138d7565b6040518263ffffffff1660e01b8152600401611cae91815260200190565b60a060405180830381865afa158015611ccb573d6000803e3d6000fd5b505050506040513d601f19601f82011682018060405250810190611cef91906138f0565b505060408051808201909152929350829150611d1f9050611d1a6001600160801b0385168b89612913565b612fd6565b6001600160801b03168152602001848481518110611d3f57611d3f613899565b6020026020010151815250858381518110611d5c57611d5c613899565b6020026020010181905250508080611d7390613968565b9150506119f4565b5050505b92915050565b611d8d6131bb565b60008060008060007f00000000000000000000000000000000000000000000000000000000000000006001600160a01b031663284ae96f886040518263ffffffff1660e01b8152600401611df091906001600160a01b0391909116815260200190565b600060405180830381865afa158015611e0d573d6000803e3d6000fd5b505050506040513d6000823e601f3d908101601f19168201604052611e359190810190613780565b9050866001600160a01b0316630dfe16816040518163ffffffff1660e01b8152600401602060405180830381865afa158015611e75573d6000803e3d6000fd5b505050506040513d601f19601f82011682018060405250810190611e999190613858565b9250866001600160a01b031663d21220a76040518163ffffffff1660e01b8152600401602060405180830381865afa158015611ed9573d6000803e3d6000fd5b505050506040513d601f19601f82011682018060405250810190611efd9190613858565b604051633750471560e11b81526001600160a01b0389811660048301529193507f000000000000000000000000000000000000000000000000000000000000000090911690636ea08e2a906024016040805180830381865afa158015611f67573d6000803e3d6000fd5b505050506040513d601f19601f82011682018060405250810190611f8b9190613875565b825191965094506000906001600160401b03811115611fac57611fac61353d565b604051908082528060200260200182016040528015611fe557816020015b611fd26131e1565b815260200190600190039081611fca5790505b5090506000805b83518110156122b25760008a6001600160a01b031663c45a01556040518163ffffffff1660e01b8152600401602060405180830381865afa158015612035573d6000803e3d6000fd5b505050506040513d601f19601f820116820180604052508101906120599190613858565b6001600160a01b0316631698ee82888888868151811061207b5761207b613899565b6020026020010151604001516040518463ffffffff1660e01b81526004016120a5939291906138af565b602060405180830381865afa1580156120c2573d6000803e3d6000fd5b505050506040513d601f19601f820116820180604052508101906120e69190613858565b6001600160a01b031663514ea4bf73__$b131e44167300e1b6d47510635310686a7$__631208efca8e89878151811061212157612121613899565b6020026020010151600001518a888151811061213f5761213f613899565b60209081029190910181015101516040516001600160e01b031960e086901b1681526001600160a01b039093166004840152600291820b6024840152900b6044820152606401602060405180830381865af41580156121a2573d6000803e3d6000fd5b505050506040513d601f19601f820116820180604052508101906121c691906138d7565b6040518263ffffffff1660e01b81526004016121e491815260200190565b60a060405180830381865afa158015612201573d6000803e3d6000fd5b505050506040513d601f19601f8201168201806040525081019061222591906138f0565b5092935050506001600160801b03821615905061224a578261224681613968565b9350505b6040518060400160405280826001600160801b0316815260200186848151811061227657612276613899565b602002602001015181525084838151811061229357612293613899565b60200260200101819052505080806122aa90613968565b915050611fec565b50806001600160401b038111156122cb576122cb61353d565b60405190808252806020026020018201604052801561230457816020015b6122f16131e1565b8152602001906001900390816122e95790505b5088526000805b835181101561239f57600084828151811061232857612328613899565b6020026020010151600001516001600160801b0316111561238d5783818151811061235557612355613899565b60200260200101518a60000151838151811061237357612373613899565b6020026020010181905250818061238990613968565b9250505b8061239781613968565b91505061230b565b50505050506123ad876129c7565b86516001600160401b038111156123c6576123c661353d565b6040519080825280602002602001820160405280156123ff57816020015b6123ec6131e1565b8152602001906001900390816123e45790505b50602086015260005b87518110156125e657600088828151811061242557612425613899565b602002602001015190506000886001600160a01b031663c45a01556040518163ffffffff1660e01b8152600401602060405180830381865afa15801561246f573d6000803e3d6000fd5b505050506040513d601f19601f820116820180604052508101906124939190613858565b6001600160a01b0316631698ee8286868560000151604001516040518463ffffffff1660e01b81526004016124ca939291906138af565b602060405180830381865afa1580156124e7573d6000803e3d6000fd5b505050506040513d601f19601f8201168201806040525081019061250b9190613858565b6001600160a01b0316633850c7bd6040518163ffffffff1660e01b815260040160e060405180830381865afa158015612548573d6000803e3d6000fd5b505050506040513d601f19601f8201168201806040525081019061256c9190613b7e565b5050505050509050600061258b82611185856000015160000151612a57565b90506040518060400160405280826001600160801b031681526020018460000151815250896020015185815181106125c5576125c5613899565b602002602001018190525050505080806125de90613968565b915050612408565b505050505092915050565b60008060008060007f00000000000000000000000000000000000000000000000000000000000000006001600160a01b0316636ea08e2a896040518263ffffffff1660e01b815260040161265491906001600160a01b0391909116815260200190565b6040805180830381865afa158015612670573d6000803e3d6000fd5b505050506040513d601f19601f820116820180604052508101906126949190613875565b915091506000886001600160a01b03166318160ddd6040518163ffffffff1660e01b8152600401602060405180830381865afa1580156126d8573d6000803e3d6000fd5b505050506040513d601f19601f820116820180604052508101906126fc91906138d7565b905080156127a05760405163c30fc38d60e01b8152600481018490526024810183905260448101829052606481018990526084810188905273__$30ef26875820c516a3c36c5c0a5fd73943$__9063c30fc38d9060a401606060405180830381865af4158015612770573d6000803e3d6000fd5b505050506040513d601f19601f820116820180604052508101906127949190613d2f565b91975095509350612907565b73__$30ef26875820c516a3c36c5c0a5fd73943$__63c30fc38d8a6001600160a01b03166314b806306040518163ffffffff1660e01b8152600401602060405180830381865afa1580156127f8573d6000803e3d6000fd5b505050506040513d601f19601f8201168201806040525081019061281c91906138d7565b8b6001600160a01b031663f2eb3e346040518163ffffffff1660e01b8152600401602060405180830381865afa15801561285a573d6000803e3d6000fd5b505050506040513d601f19601f8201168201806040525081019061287e91906138d7565b6040516001600160e01b031960e085901b16815260048101929092526024820152670de0b6b3a76400006044820152606481018b9052608481018a905260a401606060405180830381865af41580156128db573d6000803e3d6000fd5b505050506040513d601f19601f820116820180604052508101906128ff9190613d2f565b919750955093505b50505093509350939050565b600080806000198587098587029250828110838203039150508060000361294c576000841161294157600080fd5b5082900490506129c0565b80841161295857600080fd5b600084868809851960019081018716968790049682860381900495909211909303600082900391909104909201919091029190911760038402600290811880860282030280860282030280860282030280860282030280860282030280860290910302029150505b9392505050565b6000805b8251811015612a11578281815181106129e6576129e6613899565b602002602001015160200151826129fd9190613ae8565b915080612a0981613968565b9150506129cb565b50612710811115612a535760405162461bcd60e51b815260206004820152600c60248201526b1d1bdd185b081dd95a59da1d60a21b60448201526064016112f8565b5050565b60008060008360020b12612a6e578260020b612a7b565b8260020b612a7b90613d5d565b9050612a8a620d89e719613d79565b60020b811115612ac05760405162461bcd60e51b81526020600482015260016024820152601560fa1b60448201526064016112f8565b600081600116600003612ad757600160801b612ae9565b6ffffcb933bd6fad37aa2d162d1a5940015b70ffffffffffffffffffffffffffffffffff1690506002821615612b28576080612b23826ffff97272373d413259a46990580e213a613d9b565b901c90505b6004821615612b52576080612b4d826ffff2e50f5f656932ef12357cf3c7fdcc613d9b565b901c90505b6008821615612b7c576080612b77826fffe5caca7e10e4e61c3624eaa0941cd0613d9b565b901c90505b6010821615612ba6576080612ba1826fffcb9843d60f6159c9db58835c926644613d9b565b901c90505b6020821615612bd0576080612bcb826fff973b41fa98c081472e6896dfb254c0613d9b565b901c90505b6040821615612bfa576080612bf5826fff2ea16466c96a3843ec78b326b52861613d9b565b901c90505b6080821615612c24576080612c1f826ffe5dee046a99a2a811c461f1969c3053613d9b565b901c90505b610100821615612c4f576080612c4a826ffcbe86c7900a88aedcffc83b479aa3a4613d9b565b901c90505b610200821615612c7a576080612c75826ff987a7253ac413176f2b074cf7815e54613d9b565b901c90505b610400821615612ca5576080612ca0826ff3392b0822b70005940c7a398e4b70f3613d9b565b901c90505b610800821615612cd0576080612ccb826fe7159475a2c29b7443b29c7fa6e889d9613d9b565b901c90505b611000821615612cfb576080612cf6826fd097f3bdfd2022b8845ad8f792aa5825613d9b565b901c90505b612000821615612d26576080612d21826fa9f746462d870fdf8a65dc1f90e061e5613d9b565b901c90505b614000821615612d51576080612d4c826f70d869a156d2a1b890bb3df62baf32f7613d9b565b901c90505b618000821615612d7c576080612d77826f31be135f97d08fd981231505542fcfa6613d9b565b901c90505b62010000821615612da8576080612da3826f09aa508b5b7a84e1c677de54f3e99bc9613d9b565b901c90505b62020000821615612dd3576080612dce826e5d6af8dedb81196699c329225ee604613d9b565b901c90505b62040000821615612dfd576080612df8826d2216e584f5fa1ea926041bedfe98613d9b565b901c90505b62080000821615612e25576080612e20826b048a170391f7dc42444e8fa2613d9b565b901c90505b60008460020b1315612e4057612e3d81600019613dd0565b90505b612e4f64010000000082613de4565b15612e5b576001612e5e565b60005b612e6f9060ff16602083901c613ae8565b949350505050565b6000836001600160a01b0316856001600160a01b03161115612e97579293925b846001600160a01b0316866001600160a01b031611612ec257612ebb858585613043565b9050612f32565b836001600160a01b0316866001600160a01b03161015612f24576000612ee9878686613043565b90506000612ef88789866130ad565b9050806001600160801b0316826001600160801b031610612f195780612f1b565b815b92505050612f32565b612f2f8585846130ad565b90505b95945050505050565b600080836001600160a01b0316856001600160a01b03161115612f5c579293925b846001600160a01b0316866001600160a01b031611612f8757612f808585856130e3565b915061124c565b836001600160a01b0316866001600160a01b03161015612fc057612fac8685856130e3565b9150612fb9858785613156565b905061124c565b612fcb858585613156565b905094509492505050565b60006001600160801b0382111561303f5760405162461bcd60e51b815260206004820152602760248201527f53616665436173743a2076616c756520646f65736e27742066697420696e20316044820152663238206269747360c81b60648201526084016112f8565b5090565b6000826001600160a01b0316846001600160a01b03161115613063579192915b6000613086856001600160a01b0316856001600160a01b0316600160601b612913565b9050612f326130a8848361309a8989613df8565b6001600160a01b0316612913565b6131a0565b6000826001600160a01b0316846001600160a01b031611156130cd579192915b612e6f6130a883600160601b61309a8888613df8565b6000826001600160a01b0316846001600160a01b03161115613103579192915b6001600160a01b03841661314c6fffffffffffffffffffffffffffffffff60601b606085901b166131348787613df8565b6001600160a01b0316866001600160a01b0316612913565b612e6f9190613dd0565b6000826001600160a01b0316846001600160a01b03161115613176579192915b612e6f6001600160801b03831661318d8686613df8565b6001600160a01b0316600160601b612913565b806001600160801b03811681146131b657600080fd5b919050565b604051806060016040528060608152602001606081526020016131dc613211565b905290565b60408051808201825260008082528251606081018452818152602081810183905293810191909152909182015290565b6040518060c001604052806060815260200160006001600160a01b0316815260200160006001600160a01b0316815260200160008152602001600081526020016000151581525090565b60006020828403121561326d57600080fd5b81356001600160401b0381111561328357600080fd5b820160a081850312156129c057600080fd5b6001600160801b03815116825260208101516132d66020840182805160020b8252602081015160020b602083015262ffffff60408201511660408301525050565b505050565b600081518084526020808501945080840160005b8381101561331557613302878351613295565b60809690960195908201906001016132ef565b509495945050505050565b60006020808352835160608285015261333c60808501826132db565b905081850151601f198086840301604087015261335983836132db565b92506040870151915080868403016060870152815160c0845280518060c086015260005b818110156133995782810187015186820160e00152860161337d565b818111156133ab57600060e083880101525b50838601516001600160a01b038116868801529150604084015195506133dc60408601876001600160a01b03169052565b606084015160608601526080840151608086015260a0840151955061340560a086018715159052565b601f019091169290920160e0019695505050505050565b8060020b811461342b57600080fd5b50565b6001600160801b038116811461342b57600080fd5b6000806000806080858703121561345957600080fd5b84356134648161341c565b935060208501356134748161341c565b925060408501356134848161341c565b915060608501356134948161342e565b939692955090935050565b6001600160a01b038116811461342b57600080fd5b80356131b68161349f565b600080604083850312156134d257600080fd5b8235915060208301356134e48161349f565b809150509250929050565b6020808252825182820181905260009190848201906040850190845b818110156135315761351e838551613295565b928401926080929092019160010161350b565b50909695505050505050565b634e487b7160e01b600052604160045260246000fd5b604051606081016001600160401b03811182821017156135755761357561353d565b60405290565b604051601f8201601f191681016001600160401b03811182821017156135a3576135a361353d565b604052919050565b60006001600160401b038211156135c4576135c461353d565b5060051b60200190565b62ffffff8116811461342b57600080fd5b600081830360808112156135f257600080fd5b604051604081018181106001600160401b03821117156136145761361461353d565b604052915081606082121561362857600080fd5b613630613553565b9150833561363d8161341c565b8252602084013561364d8161341c565b60208301526040840135613660816135ce565b8060408401525081815260608401356020820152505092915050565b6000806040838503121561368f57600080fd5b82356001600160401b038111156136a557600080fd5b8301601f810185136136b657600080fd5b803560206136cb6136c6836135ab565b61357b565b82815260079290921b830181019181810190888411156136ea57600080fd5b938201935b838510156137135761370189866135df565b825282820191506080850194506136ef565b955061372290508682016134b4565b93505050509250929050565b60008060006060848603121561374357600080fd5b833561374e8161349f565b95602085013595506040909401359392505050565b60006020828403121561377557600080fd5b81356129c08161349f565b6000602080838503121561379357600080fd5b82516001600160401b038111156137a957600080fd5b8301601f810185136137ba57600080fd5b80516137c86136c6826135ab565b818152606091820283018401918482019190888411156137e757600080fd5b938501935b8385101561384c5780858a0312156138045760008081fd5b61380c613553565b85516138178161341c565b8152858701516138268161341c565b81880152604086810151613839816135ce565b90820152835293840193918501916137ec565b50979650505050505050565b60006020828403121561386a57600080fd5b81516129c08161349f565b6000806040838503121561388857600080fd5b505080516020909101519092909150565b634e487b7160e01b600052603260045260246000fd5b6001600160a01b03938416815291909216602082015262ffffff909116604082015260600190565b6000602082840312156138e957600080fd5b5051919050565b600080600080600060a0868803121561390857600080fd5b85516139138161342e565b80955050602086015193506040860151925060608601516139338161342e565b60808701519092506139448161342e565b809150509295509295909350565b634e487b7160e01b600052601160045260246000fd5b60006001820161397a5761397a613952565b5060010190565b801515811461342b57600080fd5b6000602082840312156139a157600080fd5b81356129c081613981565b6000602082840312156139be57600080fd5b81516129c0816135ce565b805160ff811681146131b657600080fd5b6000602082840312156139ec57600080fd5b6129c0826139c9565b600181815b80851115613a30578160001904821115613a1657613a16613952565b80851615613a2357918102915b93841c93908002906139fa565b509250929050565b600082613a4757506001611d7f565b81613a5457506000611d7f565b8160018114613a6a5760028114613a7457613a90565b6001915050611d7f565b60ff841115613a8557613a85613952565b50506001821b611d7f565b5060208310610133831016604e8410600b8410161715613ab3575081810a611d7f565b613abd83836139f5565b8060001904821115613ad157613ad1613952565b029392505050565b60006129c060ff841683613a38565b60008219821115613afb57613afb613952565b500190565b6000808335601e19843603018112613b1757600080fd5b8301803591506001600160401b03821115613b3157600080fd5b6020019150600781901b3603821315613b4957600080fd5b9250929050565b600060808284031215613b6257600080fd5b6129c083836135df565b805161ffff811681146131b657600080fd5b600080600080600080600060e0888a031215613b9957600080fd5b8751613ba48161349f565b6020890151909750613bb58161341c565b9550613bc360408901613b6c565b9450613bd160608901613b6c565b9350613bdf60808901613b6c565b9250613bed60a089016139c9565b915060c0880151613bfd81613981565b8091505092959891949750929550565b6020808252825160a083830152805160c0840181905260009291820190839060e08601905b80831015613c7d57613c67828551805160020b8252602081015160020b602083015262ffffff60408201511660408301525050565b6060820191508484019350600183019250613c32565b50928601516001600160a01b03811660408701529260408701516001600160a01b0381166060880152935060608701516001600160a01b0381166080880152935060808701516001600160a01b03811660a088015293509695505050505050565b60008060008060808587031215613cf457600080fd5b505082516020840151604085015160609095015191969095509092509050565b600060208284031215613d2657600080fd5b6129c082613b6c565b600080600060608486031215613d4457600080fd5b8351925060208401519150604084015190509250925092565b6000600160ff1b8201613d7257613d72613952565b5060000390565b60008160020b627fffff198103613d9257613d92613952565b60000392915050565b6000816000190483118215151615613db557613db5613952565b500290565b634e487b7160e01b600052601260045260246000fd5b600082613ddf57613ddf613dba565b500490565b600082613df357613df3613dba565b500690565b60006001600160a01b0383811690831681811015613e1857613e18613952565b03939250505056fea2646970667358221220daaf317ad5214030e63384028275912d60529602803726df7160369685cefed864736f6c634300080d0033",
  "libraries": {
    "Position": "0x1278B36cc6dD53aba16b756BA451a0808B0F662b",
    "Underlying": "0xA286c23AC68E9E41dC210eF885e2B2d5fC94e989",
    "UniswapV3Amounts": "0x213dD4F29504EA227be5aDa8379bb8012ea3CBCE",
    "Twap": "0x85F3827a01818FEf655E51C53d0B2c89474acbBC"
  },
  "devdoc": {
    "kind": "dev",
    "methods": {},
    "version": 1
  },
  "userdoc": {
    "kind": "user",
    "methods": {},
    "version": 1
  },
  "storageLayout": {
    "storage": [],
    "types": null
  }
}