{
  "address": "0xC64433E71f1f76Be5567B657026656Cce5999C34",
  "abi": [
    {
      "inputs": [
        {
          "internalType": "address",
          "name": "self_",
          "type": "address"
        },
        {
          "internalType": "int24",
          "name": "lowerTick_",
          "type": "int24"
        },
        {
          "internalType": "int24",
          "name": "upperTick_",
          "type": "int24"
        }
      ],
      "name": "getPositionId",
      "outputs": [
        {
          "internalType": "bytes32",
          "name": "positionId",
          "type": "bytes32"
        }
      ],
      "stateMutability": "pure",
      "type": "function"
    }
  ],
  "transactionHash": "0xfb0eece8315f3cb91dfddfd65063d2ce2e8ae87e607a89b90520d560535c313e",
  "args": [],
  "numDeployments": 2,
  "solcInputHash": "096721d5a3f253ae4561b65595ef5e71",
  "bytecode": "0x61014661003a600b82828239805160001a60731461002d57634e487b7160e01b600052600060045260246000fd5b30600052607381538281f3fe73000000000000000000000000000000000000000030146080604052600436106100355760003560e01c80631208efca1461003a575b600080fd5b6100966100483660046100bf565b6040516001600160601b0319606085901b16602082015260e883811b603483015282901b6037820152600090603a016040516020818303038152906040528051906020012090509392505050565b60405190815260200160405180910390f35b8035600281900b81146100ba57600080fd5b919050565b6000806000606084860312156100d457600080fd5b83356001600160a01b03811681146100eb57600080fd5b92506100f9602085016100a8565b9150610107604085016100a8565b9050925092509256fea2646970667358221220420bc2aae7727ba6843dc79ec9691695fccb7572302476bc9f02a8c50d9d54ae64736f6c634300080d0033",
  "devdoc": {
    "kind": "dev",
    "methods": {},
    "version": 1
  },
  "userdoc": {
    "kind": "user",
    "methods": {},
    "version": 1
  },
  "storageLayout": {
    "storage": [],
    "types": null
  }
}