{
  "address": "0xFfe4534012AA9Ed98CA21e8e30C8D0f48AA8dd26",
  "abi": [
    {
      "inputs": [
        {
          "internalType": "contract IVaultV2Factory",
          "name": "factory_",
          "type": "address"
        }
      ],
      "stateMutability": "nonpayable",
      "type": "constructor"
    },
    {
      "anonymous": false,
      "inputs": [
        {
          "indexed": true,
          "internalType": "string",
          "name": "stratType",
          "type": "string"
        }
      ],
      "name": "AddStratType",
      "type": "event"
    },
    {
      "anonymous": false,
      "inputs": [
        {
          "indexed": true,
          "internalType": "address",
          "name": "vaultV2",
          "type": "address"
        },
        {
          "indexed": false,
          "internalType": "string",
          "name": "oldStratType",
          "type": "string"
        },
        {
          "indexed": false,
          "internalType": "string",
          "name": "newStratType",
          "type": "string"
        }
      ],
      "name": "ChangeSubscription",
      "type": "event"
    },
    {
      "anonymous": false,
      "inputs": [
        {
          "indexed": true,
          "internalType": "address",
          "name": "previousOwner",
          "type": "address"
        },
        {
          "indexed": true,
          "internalType": "address",
          "name": "newOwner",
          "type": "address"
        }
      ],
      "name": "OwnershipTransferred",
      "type": "event"
    },
    {
      "anonymous": false,
      "inputs": [
        {
          "indexed": true,
          "internalType": "string",
          "name": "stratType",
          "type": "string"
        }
      ],
      "name": "RemoveStratType",
      "type": "event"
    },
    {
      "anonymous": false,
      "inputs": [
        {
          "indexed": true,
          "internalType": "address",
          "name": "vaultV2",
          "type": "address"
        },
        {
          "indexed": false,
          "internalType": "string",
          "name": "stratType",
          "type": "string"
        }
      ],
      "name": "SubscribeRebalance",
      "type": "event"
    },
    {
      "anonymous": false,
      "inputs": [
        {
          "indexed": true,
          "internalType": "address",
          "name": "vaultV2",
          "type": "address"
        }
      ],
      "name": "UnSubscribe",
      "type": "event"
    },
    {
      "inputs": [],
      "name": "STRING_EMPTY",
      "outputs": [
        {
          "internalType": "bytes32",
          "name": "",
          "type": "bytes32"
        }
      ],
      "stateMutability": "view",
      "type": "function"
    },
    {
      "inputs": [
        {
          "internalType": "string",
          "name": "stratType_",
          "type": "string"
        }
      ],
      "name": "addStratType",
      "outputs": [],
      "stateMutability": "nonpayable",
      "type": "function"
    },
    {
      "inputs": [
        {
          "internalType": "address",
          "name": "vaultV2_",
          "type": "address"
        },
        {
          "internalType": "string",
          "name": "stratType_",
          "type": "string"
        }
      ],
      "name": "changeSubscription",
      "outputs": [],
      "stateMutability": "nonpayable",
      "type": "function"
    },
    {
      "inputs": [],
      "name": "owner",
      "outputs": [
        {
          "internalType": "address",
          "name": "",
          "type": "address"
        }
      ],
      "stateMutability": "view",
      "type": "function"
    },
    {
      "inputs": [
        {
          "internalType": "string",
          "name": "stratType_",
          "type": "string"
        }
      ],
      "name": "removeStratType",
      "outputs": [],
      "stateMutability": "nonpayable",
      "type": "function"
    },
    {
      "inputs": [],
      "name": "renounceOwnership",
      "outputs": [],
      "stateMutability": "nonpayable",
      "type": "function"
    },
    {
      "inputs": [
        {
          "internalType": "string",
          "name": "",
          "type": "string"
        }
      ],
      "name": "stratExist",
      "outputs": [
        {
          "internalType": "bool",
          "name": "",
          "type": "bool"
        }
      ],
      "stateMutability": "view",
      "type": "function"
    },
    {
      "inputs": [
        {
          "internalType": "address",
          "name": "vaultV2_",
          "type": "address"
        },
        {
          "internalType": "string",
          "name": "stratType_",
          "type": "string"
        }
      ],
      "name": "subscribe",
      "outputs": [],
      "stateMutability": "nonpayable",
      "type": "function"
    },
    {
      "inputs": [
        {
          "internalType": "address",
          "name": "newOwner",
          "type": "address"
        }
      ],
      "name": "transferOwnership",
      "outputs": [],
      "stateMutability": "nonpayable",
      "type": "function"
    },
    {
      "inputs": [
        {
          "internalType": "address",
          "name": "vaultV2_",
          "type": "address"
        }
      ],
      "name": "unsubscribe",
      "outputs": [],
      "stateMutability": "nonpayable",
      "type": "function"
    },
    {
      "inputs": [
        {
          "internalType": "address",
          "name": "",
          "type": "address"
        }
      ],
      "name": "vaultByStrat",
      "outputs": [
        {
          "internalType": "string",
          "name": "",
          "type": "string"
        }
      ],
      "stateMutability": "view",
      "type": "function"
    }
  ],
  "transactionHash": "0x1180783a67cb6c16b68014a56ef56c6002b34cdf5e3550a4d148d0642458daa6",
  "args": [
    "0x4146c4c85aB3d1fAD888E7f07560fBC8dc01F597"
  ],
  "numDeployments": 2,
  "solcInputHash": "80f855e73563fd7085619a9d6ab1c642",
  "bytecode": "0x60a060405234801561001057600080fd5b5060405161169938038061169983398101604081905261002f91610099565b61003833610049565b6001600160a01b03166080526100c9565b600080546001600160a01b038381166001600160a01b0319831681178455604051919092169283917f8be0079c531659141344cd1fd0a4f28419497f9722a3daafe3b4186f6b6457e09190a35050565b6000602082840312156100ab57600080fd5b81516001600160a01b03811681146100c257600080fd5b9392505050565b6080516115a76100f2600039600081816102f80152818161074b0152610b4801526115a76000f3fe608060405234801561001057600080fd5b50600436106100995760003560e01c80630793cc541461009e5780633c659743146100c757806362c06f91146100dc5780636e07d3081461011a578063715018a61461012d5780637262561c1461013557806375efab60146101485780638da5cb5b1461016f5780639ba35b4014610184578063ba74933014610197578063f2fde38b146101aa575b600080fd5b6100b16100ac366004611017565b6101bd565b6040516100be9190611088565b60405180910390f35b6100da6100d53660046110e3565b610257565b005b61010a6100ea36600461117d565b805160208183018101805160018252928201919093012091525460ff1681565b60405190151581526020016100be565b6100da610128366004611211565b610592565b6100da610678565b6100da610143366004611017565b6106b3565b6101616040805160008152602081019182905251902081565b6040519081526020016100be565b6101776109a3565b6040516100be9190611252565b6100da610192366004611211565b6109b2565b6100da6101a53660046110e3565b610ab0565b6100da6101b8366004611017565b610e05565b600260205260009081526040902080546101d690611266565b80601f016020809104026020016040519081016040528092919081815260200182805461020290611266565b801561024f5780601f106102245761010080835404028352916020019161024f565b820191906000526020600020905b81548152906001019060200180831161023257829003601f168201915b505050505081565b82336001600160a01b0316816001600160a01b031663cc95353e6040518163ffffffff1660e01b8152600401602060405180830381865afa1580156102a0573d6000803e3d6000fd5b505050506040513d601f19601f820116820180604052508101906102c491906112a0565b6001600160a01b0316146102f35760405162461bcd60e51b81526004016102ea906112bd565b60405180910390fd5b8360007f00000000000000000000000000000000000000000000000000000000000000006001600160a01b031663d5e15485836001600160a01b031663cc95353e6040518163ffffffff1660e01b8152600401602060405180830381865afa158015610363573d6000803e3d6000fd5b505050506040513d601f19601f8201168201806040525081019061038791906112a0565b6040518263ffffffff1660e01b81526004016103a39190611252565b600060405180830381865afa1580156103c0573d6000803e3d6000fd5b505050506040513d6000823e601f3d908101601f191682016040526103e891908101906112e8565b90506000805b825181101561043e57836001600160a01b031683828151811061041357610413611399565b60200260200101516001600160a01b03161491508161043e5780610436816113af565b9150506103ee565b508061045c5760405162461bcd60e51b81526004016102ea906113d6565b6040805160008082526020808301808552835190206001600160a01b038c168352600290915290839020909261049292016113fa565b60405160208183030381529060405280519060200120146104e15760405162461bcd60e51b815260206004820152600960248201526873756273637269626560b81b60448201526064016102ea565b600186866040516104f3929190611495565b9081526040519081900360200190205460ff166105225760405162461bcd60e51b81526004016102ea906114a5565b6001600160a01b0387166000908152600260205260409020610545908787610ef5565b50866001600160a01b03167fa94e0252095b6610b71bd521c8d0c5c97eea53d4b717a51a1792a93e7cd174bb87876040516105819291906114f0565b60405180910390a250505050505050565b3361059b6109a3565b6001600160a01b0316146105c15760405162461bcd60e51b81526004016102ea9061150c565b600182826040516105d3929190611495565b9081526040519081900360200190205460ff166106025760405162461bcd60e51b81526004016102ea906114a5565b600060018383604051610616929190611495565b908152604051908190036020018120805492151560ff19909316929092179091556106449083908390611495565b604051908190038120907f25c3f1afd7f7da5444854d9368950241d221866186f7d3904bb442df5010713f90600090a25050565b336106816109a3565b6001600160a01b0316146106a75760405162461bcd60e51b81526004016102ea9061150c565b6106b16000610ea5565b565b80336001600160a01b0316816001600160a01b031663cc95353e6040518163ffffffff1660e01b8152600401602060405180830381865afa1580156106fc573d6000803e3d6000fd5b505050506040513d601f19601f8201168201806040525081019061072091906112a0565b6001600160a01b0316146107465760405162461bcd60e51b81526004016102ea906112bd565b8160007f00000000000000000000000000000000000000000000000000000000000000006001600160a01b031663d5e15485836001600160a01b031663cc95353e6040518163ffffffff1660e01b8152600401602060405180830381865afa1580156107b6573d6000803e3d6000fd5b505050506040513d601f19601f820116820180604052508101906107da91906112a0565b6040518263ffffffff1660e01b81526004016107f69190611252565b600060405180830381865afa158015610813573d6000803e3d6000fd5b505050506040513d6000823e601f3d908101601f1916820160405261083b91908101906112e8565b90506000805b825181101561089157836001600160a01b031683828151811061086657610866611399565b60200260200101516001600160a01b0316149150816108915780610889816113af565b915050610841565b50806108af5760405162461bcd60e51b81526004016102ea906113d6565b6040805160008082526020808301808552835190206001600160a01b038a16835260029091529083902090926108e592016113fa565b60405160208183030381529060405280519060200120036109375760405162461bcd60e51b815260206004820152600c60248201526b6e6f2073756273637269626560a01b60448201526064016102ea565b60408051602080820180845260008084526001600160a01b038a168152600290925292902090516109689290610f79565b506040516001600160a01b038616907e09d099ce253d17809e2193de1126a57354a713f7b3151331c556a9ea88b0c890600090a25050505050565b6000546001600160a01b031690565b336109bb6109a3565b6001600160a01b0316146109e15760405162461bcd60e51b81526004016102ea9061150c565b600182826040516109f3929190611495565b9081526040519081900360200190205460ff1615610a3b5760405162461bcd60e51b81526020600482015260056024820152641cdd1c985d60da1b60448201526064016102ea565b6001808383604051610a4e929190611495565b908152604051908190036020018120805492151560ff1990931692909217909155610a7c9083908390611495565b604051908190038120907fcc505459bf1b5af3f1d52eb63cfd9a96e5088331244a2dbab344e9b0aacb93b490600090a25050565b82336001600160a01b0316816001600160a01b031663cc95353e6040518163ffffffff1660e01b8152600401602060405180830381865afa158015610af9573d6000803e3d6000fd5b505050506040513d601f19601f82011682018060405250810190610b1d91906112a0565b6001600160a01b031614610b435760405162461bcd60e51b81526004016102ea906112bd565b8360007f00000000000000000000000000000000000000000000000000000000000000006001600160a01b031663d5e15485836001600160a01b031663cc95353e6040518163ffffffff1660e01b8152600401602060405180830381865afa158015610bb3573d6000803e3d6000fd5b505050506040513d601f19601f82011682018060405250810190610bd791906112a0565b6040518263ffffffff1660e01b8152600401610bf39190611252565b600060405180830381865afa158015610c10573d6000803e3d6000fd5b505050506040513d6000823e601f3d908101601f19168201604052610c3891908101906112e8565b90506000805b8251811015610c8e57836001600160a01b0316838281518110610c6357610c63611399565b60200260200101516001600160a01b031614915081610c8e5780610c86816113af565b915050610c3e565b5080610cac5760405162461bcd60e51b81526004016102ea906113d6565b60018686604051610cbe929190611495565b9081526040519081900360200190205460ff16610ced5760405162461bcd60e51b81526004016102ea906114a5565b6001600160a01b03871660009081526002602052604081208054610d1090611266565b80601f0160208091040260200160405190810160405280929190818152602001828054610d3c90611266565b8015610d895780601f10610d5e57610100808354040283529160200191610d89565b820191906000526020600020905b815481529060010190602001808311610d6c57829003601f168201915b505050506001600160a01b038a166000908152600260205260409020919250610db59190508888610ef5565b50876001600160a01b03167fff4428b060a697d43bdfdf21ce53364073e0e4d054beb152b5dba877fd5ddd9e828989604051610df393929190611541565b60405180910390a25050505050505050565b33610e0e6109a3565b6001600160a01b031614610e345760405162461bcd60e51b81526004016102ea9061150c565b6001600160a01b038116610e995760405162461bcd60e51b815260206004820152602660248201527f4f776e61626c653a206e6577206f776e657220697320746865207a65726f206160448201526564647265737360d01b60648201526084016102ea565b610ea281610ea5565b50565b600080546001600160a01b038381166001600160a01b0319831681178455604051919092169283917f8be0079c531659141344cd1fd0a4f28419497f9722a3daafe3b4186f6b6457e09190a35050565b828054610f0190611266565b90600052602060002090601f016020900481019282610f235760008555610f69565b82601f10610f3c5782800160ff19823516178555610f69565b82800160010185558215610f69579182015b82811115610f69578235825591602001919060010190610f4e565b50610f75929150610fed565b5090565b828054610f8590611266565b90600052602060002090601f016020900481019282610fa75760008555610f69565b82601f10610fc057805160ff1916838001178555610f69565b82800160010185558215610f69579182015b82811115610f69578251825591602001919060010190610fd2565b5b80821115610f755760008155600101610fee565b6001600160a01b0381168114610ea257600080fd5b60006020828403121561102957600080fd5b813561103481611002565b9392505050565b6000815180845260005b8181101561106157602081850181015186830182015201611045565b81811115611073576000602083870101525b50601f01601f19169290920160200192915050565b602081526000611034602083018461103b565b60008083601f8401126110ad57600080fd5b5081356001600160401b038111156110c457600080fd5b6020830191508360208285010111156110dc57600080fd5b9250929050565b6000806000604084860312156110f857600080fd5b833561110381611002565b925060208401356001600160401b0381111561111e57600080fd5b61112a8682870161109b565b9497909650939450505050565b634e487b7160e01b600052604160045260246000fd5b604051601f8201601f191681016001600160401b038111828210171561117557611175611137565b604052919050565b6000602080838503121561119057600080fd5b82356001600160401b03808211156111a757600080fd5b818501915085601f8301126111bb57600080fd5b8135818111156111cd576111cd611137565b6111df601f8201601f1916850161114d565b915080825286848285010111156111f557600080fd5b8084840185840137600090820190930192909252509392505050565b6000806020838503121561122457600080fd5b82356001600160401b0381111561123a57600080fd5b6112468582860161109b565b90969095509350505050565b6001600160a01b0391909116815260200190565b600181811c9082168061127a57607f821691505b60208210810361129a57634e487b7160e01b600052602260045260246000fd5b50919050565b6000602082840312156112b257600080fd5b815161103481611002565b6020808252601190820152703737ba103b30bab63a1036b0b730b3b2b960791b604082015260600190565b600060208083850312156112fb57600080fd5b82516001600160401b038082111561131257600080fd5b818501915085601f83011261132657600080fd5b81518181111561133857611338611137565b8060051b915061134984830161114d565b818152918301840191848101908884111561136357600080fd5b938501935b8385101561138d578451925061137d83611002565b8282529385019390850190611368565b98975050505050505050565b634e487b7160e01b600052603260045260246000fd5b6000600182016113cf57634e487b7160e01b600052601160045260246000fd5b5060010190565b6020808252600a90820152693737903b30bab63a2b1960b11b604082015260600190565b600080835481600182811c91508083168061141657607f831692505b6020808410820361143557634e487b7160e01b86526022600452602486fd5b818015611449576001811461145a57611487565b60ff19861689528489019650611487565b60008a81526020902060005b8681101561147f5781548b820152908501908301611466565b505084890196505b509498975050505050505050565b8183823760009101908152919050565b6020808252600890820152671b9bc81cdd1c985d60c21b604082015260600190565b81835281816020850137506000828201602090810191909152601f909101601f19169091010190565b6020815260006115046020830184866114c7565b949350505050565b6020808252818101527f4f776e61626c653a2063616c6c6572206973206e6f7420746865206f776e6572604082015260600190565b604081526000611554604083018661103b565b82810360208401526115678185876114c7565b969550505050505056fea2646970667358221220871069a4514285f205873ac5551e037b1f7c495ca39826c741f05c2bb120826f64736f6c634300080d0033",
  "devdoc": {
    "kind": "dev",
    "methods": {
      "owner()": {
        "details": "Returns the address of the current owner."
      },
      "renounceOwnership()": {
        "details": "Leaves the contract without owner. It will not be possible to call `onlyOwner` functions anymore. Can only be called by the current owner. NOTE: Renouncing ownership will leave the contract without an owner, thereby removing any functionality that is only available to the owner."
      },
      "transferOwnership(address)": {
        "details": "Transfers ownership of the contract to a new account (`newOwner`). Can only be called by the current owner."
      }
    },
    "version": 1
  },
  "userdoc": {
    "kind": "user",
    "methods": {},
    "version": 1
  },
  "storageLayout": {
    "storage": [
      {
        "astId": 1207,
        "contract": "contracts/StratRegistry.sol:StratRegistry",
        "label": "_owner",
        "offset": 0,
        "slot": "0",
        "type": "t_address"
      },
      {
        "astId": 4140,
        "contract": "contracts/StratRegistry.sol:StratRegistry",
        "label": "stratExist",
        "offset": 0,
        "slot": "1",
        "type": "t_mapping(t_string_memory_ptr,t_bool)"
      },
      {
        "astId": 4144,
        "contract": "contracts/StratRegistry.sol:StratRegistry",
        "label": "vaultByStrat",
        "offset": 0,
        "slot": "2",
        "type": "t_mapping(t_address,t_string_storage)"
      }
    ],
    "types": {
      "t_address": {
        "encoding": "inplace",
        "label": "address",
        "numberOfBytes": "20"
      },
      "t_bool": {
        "encoding": "inplace",
        "label": "bool",
        "numberOfBytes": "1"
      },
      "t_mapping(t_address,t_string_storage)": {
        "encoding": "mapping",
        "key": "t_address",
        "label": "mapping(address => string)",
        "numberOfBytes": "32",
        "value": "t_string_storage"
      },
      "t_mapping(t_string_memory_ptr,t_bool)": {
        "encoding": "mapping",
        "key": "t_string_memory_ptr",
        "label": "mapping(string => bool)",
        "numberOfBytes": "32",
        "value": "t_bool"
      },
      "t_string_memory_ptr": {
        "encoding": "bytes",
        "label": "string",
        "numberOfBytes": "32"
      },
      "t_string_storage": {
        "encoding": "bytes",
        "label": "string",
        "numberOfBytes": "32"
      }
    }
  }
}