{
  "address": "0xA4f92fb944B2856A45ca52cbcd325643A84DD8b7",
  "abi": [
    {
      "inputs": [
        {
          "internalType": "contract IVaultV2Factory",
          "name": "factory_",
          "type": "address"
        }
      ],
      "stateMutability": "nonpayable",
      "type": "constructor"
    },
    {
      "anonymous": false,
      "inputs": [
        {
          "indexed": true,
          "internalType": "string",
          "name": "stratType",
          "type": "string"
        }
      ],
      "name": "AddStratType",
      "type": "event"
    },
    {
      "anonymous": false,
      "inputs": [
        {
          "indexed": true,
          "internalType": "address",
          "name": "vaultV2",
          "type": "address"
        },
        {
          "indexed": false,
          "internalType": "string",
          "name": "oldStratType",
          "type": "string"
        },
        {
          "indexed": false,
          "internalType": "string",
          "name": "newStratType",
          "type": "string"
        }
      ],
      "name": "ChangeSubscription",
      "type": "event"
    },
    {
      "anonymous": false,
      "inputs": [
        {
          "indexed": true,
          "internalType": "address",
          "name": "previousOwner",
          "type": "address"
        },
        {
          "indexed": true,
          "internalType": "address",
          "name": "newOwner",
          "type": "address"
        }
      ],
      "name": "OwnershipTransferred",
      "type": "event"
    },
    {
      "anonymous": false,
      "inputs": [
        {
          "indexed": true,
          "internalType": "string",
          "name": "stratType",
          "type": "string"
        }
      ],
      "name": "RemoveStratType",
      "type": "event"
    },
    {
      "anonymous": false,
      "inputs": [
        {
          "indexed": true,
          "internalType": "address",
          "name": "vaultV2",
          "type": "address"
        },
        {
          "indexed": false,
          "internalType": "string",
          "name": "stratType",
          "type": "string"
        }
      ],
      "name": "SubscribeRebalance",
      "type": "event"
    },
    {
      "anonymous": false,
      "inputs": [
        {
          "indexed": true,
          "internalType": "address",
          "name": "vaultV2",
          "type": "address"
        }
      ],
      "name": "UnSubscribe",
      "type": "event"
    },
    {
      "inputs": [],
      "name": "_factory",
      "outputs": [
        {
          "internalType": "contract IVaultV2Factory",
          "name": "",
          "type": "address"
        }
      ],
      "stateMutability": "view",
      "type": "function"
    },
    {
      "inputs": [
        {
          "internalType": "string",
          "name": "stratType_",
          "type": "string"
        }
      ],
      "name": "addStratType",
      "outputs": [],
      "stateMutability": "nonpayable",
      "type": "function"
    },
    {
      "inputs": [
        {
          "internalType": "address",
          "name": "vaultV2_",
          "type": "address"
        },
        {
          "internalType": "string",
          "name": "stratType_",
          "type": "string"
        }
      ],
      "name": "changeSubscription",
      "outputs": [],
      "stateMutability": "nonpayable",
      "type": "function"
    },
    {
      "inputs": [],
      "name": "owner",
      "outputs": [
        {
          "internalType": "address",
          "name": "",
          "type": "address"
        }
      ],
      "stateMutability": "view",
      "type": "function"
    },
    {
      "inputs": [
        {
          "internalType": "string",
          "name": "stratType_",
          "type": "string"
        }
      ],
      "name": "removeStratType",
      "outputs": [],
      "stateMutability": "nonpayable",
      "type": "function"
    },
    {
      "inputs": [],
      "name": "renounceOwnership",
      "outputs": [],
      "stateMutability": "nonpayable",
      "type": "function"
    },
    {
      "inputs": [
        {
          "internalType": "address",
          "name": "vaultV2_",
          "type": "address"
        },
        {
          "internalType": "string",
          "name": "stratType_",
          "type": "string"
        }
      ],
      "name": "subscribe",
      "outputs": [],
      "stateMutability": "nonpayable",
      "type": "function"
    },
    {
      "inputs": [
        {
          "internalType": "address",
          "name": "newOwner",
          "type": "address"
        }
      ],
      "name": "transferOwnership",
      "outputs": [],
      "stateMutability": "nonpayable",
      "type": "function"
    },
    {
      "inputs": [
        {
          "internalType": "address",
          "name": "vaultV2_",
          "type": "address"
        }
      ],
      "name": "unsubscribe",
      "outputs": [],
      "stateMutability": "nonpayable",
      "type": "function"
    }
  ],
  "transactionHash": "0xa7aed3fb59633dce379c08aaf3cdbb4a107b9e39332584dc4ed07d74d9853ce6",
  "args": [
    "0x305d9557AF2cC72e59A75faDAe8Eeb2Fc8523786"
  ],
  "numDeployments": 1,
  "solcInputHash": "ac2b6e74ba5bb772bf343f076903ea2f",
  "bytecode": "0x60a060405234801561001057600080fd5b5060405161147738038061147783398101604081905261002f91610099565b61003833610049565b6001600160a01b03166080526100c9565b600080546001600160a01b038381166001600160a01b0319831681178455604051919092169283917f8be0079c531659141344cd1fd0a4f28419497f9722a3daafe3b4186f6b6457e09190a35050565b6000602082840312156100ab57600080fd5b81516001600160a01b03811681146100c257600080fd5b9392505050565b60805161137e6100f960003960008181610114015281816101ea015281816105b801526109d6015261137e6000f3fe608060405234801561001057600080fd5b50600436106100835760003560e01c80633c659743146100885780636e07d3081461009d578063715018a6146100b05780637262561c146100b85780638da5cb5b146100cb5780639ba35b40146100e9578063ba749330146100fc578063c5cc6b6a1461010f578063f2fde38b14610136575b600080fd5b61009b610096366004610eed565b610149565b005b61009b6100ab366004610f41565b6103ff565b61009b6104e5565b61009b6100c6366004610f82565b610520565b6100d3610831565b6040516100e09190610fa6565b60405180910390f35b61009b6100f7366004610f41565b610840565b61009b61010a366004610eed565b61093e565b6100d37f000000000000000000000000000000000000000000000000000000000000000081565b61009b610144366004610f82565b610c93565b82336001600160a01b0316816001600160a01b031663cc95353e6040518163ffffffff1660e01b8152600401602060405180830381865afa158015610192573d6000803e3d6000fd5b505050506040513d601f19601f820116820180604052508101906101b69190610fca565b6001600160a01b0316146101e55760405162461bcd60e51b81526004016101dc90610fe7565b60405180910390fd5b8360007f00000000000000000000000000000000000000000000000000000000000000006001600160a01b031663d5e15485836001600160a01b031663cc95353e6040518163ffffffff1660e01b8152600401602060405180830381865afa158015610255573d6000803e3d6000fd5b505050506040513d601f19601f820116820180604052508101906102799190610fca565b6040518263ffffffff1660e01b81526004016102959190610fa6565b600060405180830381865afa1580156102b2573d6000803e3d6000fd5b505050506040513d6000823e601f3d908101601f191682016040526102da9190810190611028565b90506000805b825181101561033057836001600160a01b0316838281518110610305576103056110ec565b60200260200101516001600160a01b031614915081610330578061032881611102565b9150506102e0565b508061034e5760405162461bcd60e51b81526004016101dc90611129565b6001868660405161036092919061114d565b9081526040519081900360200190205460ff1661038f5760405162461bcd60e51b81526004016101dc9061115d565b6001600160a01b03871660009081526002602052604090206103b2908787610d83565b50866001600160a01b03167fa94e0252095b6610b71bd521c8d0c5c97eea53d4b717a51a1792a93e7cd174bb87876040516103ee9291906111a8565b60405180910390a250505050505050565b33610408610831565b6001600160a01b03161461042e5760405162461bcd60e51b81526004016101dc906111c4565b6001828260405161044092919061114d565b9081526040519081900360200190205460ff1661046f5760405162461bcd60e51b81526004016101dc9061115d565b60006001838360405161048392919061114d565b908152604051908190036020018120805492151560ff19909316929092179091556104b1908390839061114d565b604051908190038120907f25c3f1afd7f7da5444854d9368950241d221866186f7d3904bb442df5010713f90600090a25050565b336104ee610831565b6001600160a01b0316146105145760405162461bcd60e51b81526004016101dc906111c4565b61051e6000610d33565b565b80336001600160a01b0316816001600160a01b031663cc95353e6040518163ffffffff1660e01b8152600401602060405180830381865afa158015610569573d6000803e3d6000fd5b505050506040513d601f19601f8201168201806040525081019061058d9190610fca565b6001600160a01b0316146105b35760405162461bcd60e51b81526004016101dc90610fe7565b8160007f00000000000000000000000000000000000000000000000000000000000000006001600160a01b031663d5e15485836001600160a01b031663cc95353e6040518163ffffffff1660e01b8152600401602060405180830381865afa158015610623573d6000803e3d6000fd5b505050506040513d601f19601f820116820180604052508101906106479190610fca565b6040518263ffffffff1660e01b81526004016106639190610fa6565b600060405180830381865afa158015610680573d6000803e3d6000fd5b505050506040513d6000823e601f3d908101601f191682016040526106a89190810190611028565b90506000805b82518110156106fe57836001600160a01b03168382815181106106d3576106d36110ec565b60200260200101516001600160a01b0316149150816106fe57806106f681611102565b9150506106ae565b508061071c5760405162461bcd60e51b81526004016101dc90611129565b60405160200161073790602080825260009082015260400190565b60408051601f1981840301815282825280516020918201206001600160a01b038916600090815260028352929092209192610773929101611233565b60405160208183030381529060405280519060200120036107c55760405162461bcd60e51b815260206004820152600c60248201526b6e6f2073756273637269626560a01b60448201526064016101dc565b60408051602080820180845260008084526001600160a01b038a168152600290925292902090516107f69290610e07565b506040516001600160a01b038616907e09d099ce253d17809e2193de1126a57354a713f7b3151331c556a9ea88b0c890600090a25050505050565b6000546001600160a01b031690565b33610849610831565b6001600160a01b03161461086f5760405162461bcd60e51b81526004016101dc906111c4565b6001828260405161088192919061114d565b9081526040519081900360200190205460ff16156108c95760405162461bcd60e51b81526020600482015260056024820152641cdd1c985d60da1b60448201526064016101dc565b60018083836040516108dc92919061114d565b908152604051908190036020018120805492151560ff199093169290921790915561090a908390839061114d565b604051908190038120907fcc505459bf1b5af3f1d52eb63cfd9a96e5088331244a2dbab344e9b0aacb93b490600090a25050565b82336001600160a01b0316816001600160a01b031663cc95353e6040518163ffffffff1660e01b8152600401602060405180830381865afa158015610987573d6000803e3d6000fd5b505050506040513d601f19601f820116820180604052508101906109ab9190610fca565b6001600160a01b0316146109d15760405162461bcd60e51b81526004016101dc90610fe7565b8360007f00000000000000000000000000000000000000000000000000000000000000006001600160a01b031663d5e15485836001600160a01b031663cc95353e6040518163ffffffff1660e01b8152600401602060405180830381865afa158015610a41573d6000803e3d6000fd5b505050506040513d601f19601f82011682018060405250810190610a659190610fca565b6040518263ffffffff1660e01b8152600401610a819190610fa6565b600060405180830381865afa158015610a9e573d6000803e3d6000fd5b505050506040513d6000823e601f3d908101601f19168201604052610ac69190810190611028565b90506000805b8251811015610b1c57836001600160a01b0316838281518110610af157610af16110ec565b60200260200101516001600160a01b031614915081610b1c5780610b1481611102565b915050610acc565b5080610b3a5760405162461bcd60e51b81526004016101dc90611129565b60018686604051610b4c92919061114d565b9081526040519081900360200190205460ff16610b7b5760405162461bcd60e51b81526004016101dc9061115d565b6001600160a01b03871660009081526002602052604081208054610b9e906111f9565b80601f0160208091040260200160405190810160405280929190818152602001828054610bca906111f9565b8015610c175780601f10610bec57610100808354040283529160200191610c17565b820191906000526020600020905b815481529060010190602001808311610bfa57829003601f168201915b505050506001600160a01b038a166000908152600260205260409020919250610c439190508888610d83565b50876001600160a01b03167fff4428b060a697d43bdfdf21ce53364073e0e4d054beb152b5dba877fd5ddd9e828989604051610c81939291906112da565b60405180910390a25050505050505050565b33610c9c610831565b6001600160a01b031614610cc25760405162461bcd60e51b81526004016101dc906111c4565b6001600160a01b038116610d275760405162461bcd60e51b815260206004820152602660248201527f4f776e61626c653a206e6577206f776e657220697320746865207a65726f206160448201526564647265737360d01b60648201526084016101dc565b610d3081610d33565b50565b600080546001600160a01b038381166001600160a01b0319831681178455604051919092169283917f8be0079c531659141344cd1fd0a4f28419497f9722a3daafe3b4186f6b6457e09190a35050565b828054610d8f906111f9565b90600052602060002090601f016020900481019282610db15760008555610df7565b82601f10610dca5782800160ff19823516178555610df7565b82800160010185558215610df7579182015b82811115610df7578235825591602001919060010190610ddc565b50610e03929150610e7b565b5090565b828054610e13906111f9565b90600052602060002090601f016020900481019282610e355760008555610df7565b82601f10610e4e57805160ff1916838001178555610df7565b82800160010185558215610df7579182015b82811115610df7578251825591602001919060010190610e60565b5b80821115610e035760008155600101610e7c565b6001600160a01b0381168114610d3057600080fd5b60008083601f840112610eb757600080fd5b5081356001600160401b03811115610ece57600080fd5b602083019150836020828501011115610ee657600080fd5b9250929050565b600080600060408486031215610f0257600080fd5b8335610f0d81610e90565b925060208401356001600160401b03811115610f2857600080fd5b610f3486828701610ea5565b9497909650939450505050565b60008060208385031215610f5457600080fd5b82356001600160401b03811115610f6a57600080fd5b610f7685828601610ea5565b90969095509350505050565b600060208284031215610f9457600080fd5b8135610f9f81610e90565b9392505050565b6001600160a01b0391909116815260200190565b8051610fc581610e90565b919050565b600060208284031215610fdc57600080fd5b8151610f9f81610e90565b6020808252601190820152703737ba103b30bab63a1036b0b730b3b2b960791b604082015260600190565b634e487b7160e01b600052604160045260246000fd5b6000602080838503121561103b57600080fd5b82516001600160401b038082111561105257600080fd5b818501915085601f83011261106657600080fd5b81518181111561107857611078611012565b8060051b604051601f19603f8301168101818110858211171561109d5761109d611012565b6040529182528482019250838101850191888311156110bb57600080fd5b938501935b828510156110e0576110d185610fba565b845293850193928501926110c0565b98975050505050505050565b634e487b7160e01b600052603260045260246000fd5b60006001820161112257634e487b7160e01b600052601160045260246000fd5b5060010190565b6020808252600a90820152693737903b30bab63a2b1960b11b604082015260600190565b8183823760009101908152919050565b6020808252600890820152671b9bc81cdd1c985d60c21b604082015260600190565b81835281816020850137506000828201602090810191909152601f909101601f19169091010190565b6020815260006111bc60208301848661117f565b949350505050565b6020808252818101527f4f776e61626c653a2063616c6c6572206973206e6f7420746865206f776e6572604082015260600190565b600181811c9082168061120d57607f821691505b60208210810361122d57634e487b7160e01b600052602260045260246000fd5b50919050565b600060208083526000845481600182811c91508083168061125557607f831692505b858310810361127257634e487b7160e01b85526022600452602485fd5b87860183815260200181801561128f57600181146112a0576112cb565b60ff198616825287820196506112cb565b60008b81526020902060005b868110156112c5578154848201529085019089016112ac565b83019750505b50949998505050505050505050565b604081526000845180604084015260005b8181101561130857602081880181015160608684010152016112eb565b8181111561131a576000606083860101525b50601f01601f191682018281036060908101602085015261133e908201858761117f565b969550505050505056fea2646970667358221220d673d1bbf69bce4518031b3ef187aa927c50c7b47abba853272f5f119be61aec64736f6c634300080d0033",
  "devdoc": {
    "kind": "dev",
    "methods": {
      "owner()": {
        "details": "Returns the address of the current owner."
      },
      "renounceOwnership()": {
        "details": "Leaves the contract without owner. It will not be possible to call `onlyOwner` functions anymore. Can only be called by the current owner. NOTE: Renouncing ownership will leave the contract without an owner, thereby removing any functionality that is only available to the owner."
      },
      "transferOwnership(address)": {
        "details": "Transfers ownership of the contract to a new account (`newOwner`). Can only be called by the current owner."
      }
    },
    "version": 1
  },
  "userdoc": {
    "kind": "user",
    "methods": {},
    "version": 1
  },
  "storageLayout": {
    "storage": [
      {
        "astId": 1207,
        "contract": "contracts/StratRegistry.sol:StratRegistry",
        "label": "_owner",
        "offset": 0,
        "slot": "0",
        "type": "t_address"
      },
      {
        "astId": 3546,
        "contract": "contracts/StratRegistry.sol:StratRegistry",
        "label": "stratExist",
        "offset": 0,
        "slot": "1",
        "type": "t_mapping(t_string_memory_ptr,t_bool)"
      },
      {
        "astId": 3550,
        "contract": "contracts/StratRegistry.sol:StratRegistry",
        "label": "vaultByStrat",
        "offset": 0,
        "slot": "2",
        "type": "t_mapping(t_address,t_string_storage)"
      }
    ],
    "types": {
      "t_address": {
        "encoding": "inplace",
        "label": "address",
        "numberOfBytes": "20"
      },
      "t_bool": {
        "encoding": "inplace",
        "label": "bool",
        "numberOfBytes": "1"
      },
      "t_mapping(t_address,t_string_storage)": {
        "encoding": "mapping",
        "key": "t_address",
        "label": "mapping(address => string)",
        "numberOfBytes": "32",
        "value": "t_string_storage"
      },
      "t_mapping(t_string_memory_ptr,t_bool)": {
        "encoding": "mapping",
        "key": "t_string_memory_ptr",
        "label": "mapping(string => bool)",
        "numberOfBytes": "32",
        "value": "t_bool"
      },
      "t_string_memory_ptr": {
        "encoding": "bytes",
        "label": "string",
        "numberOfBytes": "32"
      },
      "t_string_storage": {
        "encoding": "bytes",
        "label": "string",
        "numberOfBytes": "32"
      }
    }
  }
}