{
  "address": "0x85F3827a01818FEf655E51C53d0B2c89474acbBC",
  "abi": [
    {
      "inputs": [
        {
          "internalType": "contract IUniswapV3Pool",
          "name": "pool_",
          "type": "IUniswapV3Pool"
        },
        {
          "internalType": "uint24",
          "name": "twapDuration_",
          "type": "uint24"
        },
        {
          "internalType": "int24",
          "name": "maxTwapDeviation_",
          "type": "int24"
        }
      ],
      "name": "checkDeviation",
      "outputs": [],
      "stateMutability": "view",
      "type": "function"
    },
    {
      "inputs": [
        {
          "internalType": "contract IUniswapV3Pool",
          "name": "pool_",
          "type": "IUniswapV3Pool"
        },
        {
          "internalType": "uint24",
          "name": "twapDuration_",
          "type": "uint24"
        }
      ],
      "name": "getPrice0",
      "outputs": [
        {
          "internalType": "uint256",
          "name": "price0",
          "type": "uint256"
        }
      ],
      "stateMutability": "view",
      "type": "function"
    },
    {
      "inputs": [
        {
          "internalType": "contract IUniswapV3Pool",
          "name": "pool_",
          "type": "IUniswapV3Pool"
        },
        {
          "internalType": "uint24",
          "name": "twapDuration_",
          "type": "uint24"
        }
      ],
      "name": "getPrice1",
      "outputs": [
        {
          "internalType": "uint256",
          "name": "price1",
          "type": "uint256"
        }
      ],
      "stateMutability": "view",
      "type": "function"
    },
    {
      "inputs": [
        {
          "internalType": "uint160",
          "name": "sqrtPriceX96_",
          "type": "uint160"
        }
      ],
      "name": "getPriceX96FromSqrtPriceX96",
      "outputs": [
        {
          "internalType": "uint256",
          "name": "priceX96",
          "type": "uint256"
        }
      ],
      "stateMutability": "pure",
      "type": "function"
    },
    {
      "inputs": [
        {
          "internalType": "contract IUniswapV3Pool",
          "name": "pool_",
          "type": "IUniswapV3Pool"
        },
        {
          "internalType": "uint24",
          "name": "twapDuration_",
          "type": "uint24"
        }
      ],
      "name": "getSqrtTwapX96",
      "outputs": [
        {
          "internalType": "uint160",
          "name": "sqrtPriceX96",
          "type": "uint160"
        }
      ],
      "stateMutability": "view",
      "type": "function"
    },
    {
      "inputs": [
        {
          "internalType": "contract IUniswapV3Pool",
          "name": "pool_",
          "type": "IUniswapV3Pool"
        },
        {
          "internalType": "uint24",
          "name": "twapDuration_",
          "type": "uint24"
        }
      ],
      "name": "getTwap",
      "outputs": [
        {
          "internalType": "int24",
          "name": "",
          "type": "int24"
        }
      ],
      "stateMutability": "view",
      "type": "function"
    }
  ],
  "transactionHash": "0x43edf1dccef2e997d1bdc44f2e1ec03acf4625e8b0b8564a4da988d98377a982",
  "args": [],
  "numDeployments": 6,
  "solcInputHash": "93228341db3d86f31224385b5a1e9596",
  "bytecode": "0x61118b61003a600b82828239805160001a60731461002d57634e487b7160e01b600052600060045260246000fd5b30600052607381538281f3fe730000000000000000000000000000000000000000301460806040526004361061006c5760003560e01c80630578711c146100715780634e09a6101461009757806381ac2954146100aa578063906e1705146100d05780639ff4c50d146100fb578063db46de531461010e575b600080fd5b61008461007f366004610b29565b610123565b6040519081526020015b60405180910390f35b6100846100a5366004610b5e565b61022e565b6100bd6100b8366004610b29565b61024e565b60405160029190910b815260200161008e565b6100e36100de366004610b29565b610397565b6040516001600160a01b03909116815260200161008e565b610084610109366004610b29565b610430565b61012161011c366004610b8a565b610532565b005b600080836001600160a01b031663d21220a76040518163ffffffff1660e01b8152600401602060405180830381865afa158015610164573d6000803e3d6000fd5b505050506040513d601f19601f820116820180604052508101906101889190610bd3565b905060006101968585610397565b6001600160a01b03169050610225600160c01b836001600160a01b031663313ce5676040518163ffffffff1660e01b8152600401602060405180830381865afa1580156101e7573d6000803e3d6000fd5b505050506040513d601f19601f8201168201806040525081019061020b9190610c01565b61021690600a610d16565b6102208480610d25565b61062c565b95945050505050565b60006102486001600160a01b03831680600160601b61062c565b92915050565b604080516002808252606082018352600092839291906020830190803683370190505090508262ffffff168160008151811061028c5761028c610d5a565b602002602001019063ffffffff16908163ffffffff16815250506000816001815181106102bb576102bb610d5a565b63ffffffff9092166020928302919091019091015260405163883bdbfd60e01b81526000906001600160a01b0386169063883bdbfd906102ff908590600401610d70565b600060405180830381865afa15801561031c573d6000803e3d6000fd5b505050506040513d6000823e601f3d908101601f191682016040526103449190810190610e83565b5090508362ffffff168160008151811061036057610360610d5a565b60200260200101518260018151811061037b5761037b610d5a565b602002602001015161038d9190610f4f565b6102259190610fb5565b60008162ffffff1660000361041757826001600160a01b0316633850c7bd6040518163ffffffff1660e01b815260040160e060405180830381865afa1580156103e4573d6000803e3d6000fd5b505050506040513d601f19601f820116820180604052508101906104089190611005565b50949550610248945050505050565b610429610424848461024e565b6106d9565b9392505050565b600080836001600160a01b0316630dfe16816040518163ffffffff1660e01b8152600401602060405180830381865afa158015610471573d6000803e3d6000fd5b505050506040513d601f19601f820116820180604052508101906104959190610bd3565b905060006104a38585610397565b6001600160a01b031690506102256104bb8280610d25565b836001600160a01b031663313ce5676040518163ffffffff1660e01b8152600401602060405180830381865afa1580156104f9573d6000803e3d6000fd5b505050506040513d601f19601f8201168201806040525081019061051d9190610c01565b61052890600a610d16565b600160c01b61062c565b6000836001600160a01b0316633850c7bd6040518163ffffffff1660e01b815260040160e060405180830381865afa158015610572573d6000803e3d6000fd5b505050506040513d601f19601f820116820180604052508101906105969190611005565b505050505091505060006105aa858561024e565b905060008160020b8360020b136105ca576105c58383611099565b6105d4565b6105d48284611099565b90508360020b8160020b13156106245760405162461bcd60e51b815260206004820152601060248201526f36b0bc2a3bb0b82232bb34b0ba34b7b760811b60448201526064015b60405180910390fd5b505050505050565b6000808060001985870985870292508281108382030391505080600003610665576000841161065a57600080fd5b508290049050610429565b80841161067157600080fd5b600084868809600260036001881981018916988990049182028318808302840302808302840302808302840302808302840302808302840302918202909203026000889003889004909101858311909403939093029303949094049190911702949350505050565b60008060008360020b126106f0578260020b6106fd565b8260020b6106fd906110d7565b905061070c620d89e7196110f3565b60020b8111156107425760405162461bcd60e51b81526020600482015260016024820152601560fa1b604482015260640161061b565b60008160011660000361075957600160801b61076b565b6ffffcb933bd6fad37aa2d162d1a5940015b70ffffffffffffffffffffffffffffffffff16905060028216156107aa5760806107a5826ffff97272373d413259a46990580e213a610d25565b901c90505b60048216156107d45760806107cf826ffff2e50f5f656932ef12357cf3c7fdcc610d25565b901c90505b60088216156107fe5760806107f9826fffe5caca7e10e4e61c3624eaa0941cd0610d25565b901c90505b6010821615610828576080610823826fffcb9843d60f6159c9db58835c926644610d25565b901c90505b602082161561085257608061084d826fff973b41fa98c081472e6896dfb254c0610d25565b901c90505b604082161561087c576080610877826fff2ea16466c96a3843ec78b326b52861610d25565b901c90505b60808216156108a65760806108a1826ffe5dee046a99a2a811c461f1969c3053610d25565b901c90505b6101008216156108d15760806108cc826ffcbe86c7900a88aedcffc83b479aa3a4610d25565b901c90505b6102008216156108fc5760806108f7826ff987a7253ac413176f2b074cf7815e54610d25565b901c90505b610400821615610927576080610922826ff3392b0822b70005940c7a398e4b70f3610d25565b901c90505b61080082161561095257608061094d826fe7159475a2c29b7443b29c7fa6e889d9610d25565b901c90505b61100082161561097d576080610978826fd097f3bdfd2022b8845ad8f792aa5825610d25565b901c90505b6120008216156109a85760806109a3826fa9f746462d870fdf8a65dc1f90e061e5610d25565b901c90505b6140008216156109d35760806109ce826f70d869a156d2a1b890bb3df62baf32f7610d25565b901c90505b6180008216156109fe5760806109f9826f31be135f97d08fd981231505542fcfa6610d25565b901c90505b62010000821615610a2a576080610a25826f09aa508b5b7a84e1c677de54f3e99bc9610d25565b901c90505b62020000821615610a55576080610a50826e5d6af8dedb81196699c329225ee604610d25565b901c90505b62040000821615610a7f576080610a7a826d2216e584f5fa1ea926041bedfe98610d25565b901c90505b62080000821615610aa7576080610aa2826b048a170391f7dc42444e8fa2610d25565b901c90505b60008460020b1315610ac257610abf81600019611115565b90505b610ad164010000000082611129565b15610add576001610ae0565b60005b610af19060ff16602083901c61113d565b949350505050565b6001600160a01b0381168114610b0e57600080fd5b50565b803562ffffff81168114610b2457600080fd5b919050565b60008060408385031215610b3c57600080fd5b8235610b4781610af9565b9150610b5560208401610b11565b90509250929050565b600060208284031215610b7057600080fd5b813561042981610af9565b8060020b8114610b0e57600080fd5b600080600060608486031215610b9f57600080fd5b8335610baa81610af9565b9250610bb860208501610b11565b91506040840135610bc881610b7b565b809150509250925092565b600060208284031215610be557600080fd5b815161042981610af9565b805160ff81168114610b2457600080fd5b600060208284031215610c1357600080fd5b61042982610bf0565b634e487b7160e01b600052601160045260246000fd5b600181815b80851115610c6d578160001904821115610c5357610c53610c1c565b80851615610c6057918102915b93841c9390800290610c37565b509250929050565b600082610c8457506001610248565b81610c9157506000610248565b8160018114610ca75760028114610cb157610ccd565b6001915050610248565b60ff841115610cc257610cc2610c1c565b50506001821b610248565b5060208310610133831016604e8410600b8410161715610cf0575081810a610248565b610cfa8383610c32565b8060001904821115610d0e57610d0e610c1c565b029392505050565b600061042960ff841683610c75565b6000816000190483118215151615610d3f57610d3f610c1c565b500290565b634e487b7160e01b600052604160045260246000fd5b634e487b7160e01b600052603260045260246000fd5b6020808252825182820181905260009190848201906040850190845b81811015610dae57835163ffffffff1683529284019291840191600101610d8c565b50909695505050505050565b604051601f8201601f1916810167ffffffffffffffff81118282101715610de357610de3610d44565b604052919050565b600067ffffffffffffffff821115610e0557610e05610d44565b5060051b60200190565b600082601f830112610e2057600080fd5b81516020610e35610e3083610deb565b610dba565b82815260059290921b84018101918181019086841115610e5457600080fd5b8286015b84811015610e78578051610e6b81610af9565b8352918301918301610e58565b509695505050505050565b60008060408385031215610e9657600080fd5b825167ffffffffffffffff80821115610eae57600080fd5b818501915085601f830112610ec257600080fd5b81516020610ed2610e3083610deb565b82815260059290921b84018101918181019089841115610ef157600080fd5b948201945b83861015610f1f5785518060060b8114610f105760008081fd5b82529482019490820190610ef6565b91880151919650909350505080821115610f3857600080fd5b50610f4585828601610e0f565b9150509250929050565b60008160060b8360060b6000811281667fffffffffffff1901831281151615610f7a57610f7a610c1c565b81667fffffffffffff018313811615610f9557610f95610c1c565b5090039392505050565b634e487b7160e01b600052601260045260246000fd5b60008160060b8360060b80610fcc57610fcc610f9f565b667fffffffffffff19821460001982141615610fea57610fea610c1c565b90059392505050565b805161ffff81168114610b2457600080fd5b600080600080600080600060e0888a03121561102057600080fd5b875161102b81610af9565b602089015190975061103c81610b7b565b955061104a60408901610ff3565b945061105860608901610ff3565b935061106660808901610ff3565b925061107460a08901610bf0565b915060c0880151801515811461108957600080fd5b8091505092959891949750929550565b60008160020b8360020b6000811281627fffff19018312811516156110c0576110c0610c1c565b81627fffff018313811615610f9557610f95610c1c565b6000600160ff1b82016110ec576110ec610c1c565b5060000390565b60008160020b627fffff19810361110c5761110c610c1c565b60000392915050565b60008261112457611124610f9f565b500490565b60008261113857611138610f9f565b500690565b6000821982111561115057611150610c1c565b50019056fea2646970667358221220e66627587d2d9a912a3e0cfb13b72b61a5a2fc72e76ba5b043ccbf0bd3d5843e64736f6c634300080d0033",
  "devdoc": {
    "kind": "dev",
    "methods": {
      "getTwap(IUniswapV3Pool,uint24)": {
        "details": "Fetches time-weighted average price in ticks from Uniswap pool."
      }
    },
    "version": 1
  },
  "userdoc": {
    "kind": "user",
    "methods": {},
    "version": 1
  },
  "storageLayout": {
    "storage": [],
    "types": null
  }
}