{
  "address": "0x11a03e70C162451a2c5bbE8cd4D84F2Fc19Cb52C",
  "abi": [
    {
      "inputs": [
        {
          "internalType": "contract IUniswapV3Factory",
          "name": "factory_",
          "type": "address"
        },
        {
          "internalType": "address",
          "name": "arrakisTreasury_",
          "type": "address"
        }
      ],
      "stateMutability": "nonpayable",
      "type": "constructor"
    },
    {
      "inputs": [
        {
          "internalType": "int24",
          "name": "lowerTick",
          "type": "int24"
        },
        {
          "internalType": "int24",
          "name": "upperTick",
          "type": "int24"
        },
        {
          "internalType": "uint24",
          "name": "feeTier",
          "type": "uint24"
        }
      ],
      "name": "LiquidityZeroError",
      "type": "error"
    },
    {
      "inputs": [
        {
          "internalType": "uint24",
          "name": "feeTier",
          "type": "uint24"
        }
      ],
      "name": "PoolError",
      "type": "error"
    },
    {
      "anonymous": false,
      "inputs": [
        {
          "indexed": true,
          "internalType": "address",
          "name": "owner",
          "type": "address"
        },
        {
          "indexed": true,
          "internalType": "address",
          "name": "spender",
          "type": "address"
        },
        {
          "indexed": false,
          "internalType": "uint256",
          "name": "value",
          "type": "uint256"
        }
      ],
      "name": "Approval",
      "type": "event"
    },
    {
      "anonymous": false,
      "inputs": [
        {
          "indexed": false,
          "internalType": "address",
          "name": "receiver",
          "type": "address"
        },
        {
          "indexed": false,
          "internalType": "uint256",
          "name": "burnAmount",
          "type": "uint256"
        },
        {
          "indexed": false,
          "internalType": "uint256",
          "name": "amount0Out",
          "type": "uint256"
        },
        {
          "indexed": false,
          "internalType": "uint256",
          "name": "amount1Out",
          "type": "uint256"
        }
      ],
      "name": "Burned",
      "type": "event"
    },
    {
      "anonymous": false,
      "inputs": [
        {
          "indexed": false,
          "internalType": "uint256",
          "name": "fee0",
          "type": "uint256"
        },
        {
          "indexed": false,
          "internalType": "uint256",
          "name": "fee1",
          "type": "uint256"
        }
      ],
      "name": "FeesEarned",
      "type": "event"
    },
    {
      "anonymous": false,
      "inputs": [
        {
          "indexed": false,
          "internalType": "uint256",
          "name": "fee0",
          "type": "uint256"
        },
        {
          "indexed": false,
          "internalType": "uint256",
          "name": "fee1",
          "type": "uint256"
        }
      ],
      "name": "FeesEarnedRebalance",
      "type": "event"
    },
    {
      "anonymous": false,
      "inputs": [
        {
          "indexed": false,
          "internalType": "uint8",
          "name": "version",
          "type": "uint8"
        }
      ],
      "name": "Initialized",
      "type": "event"
    },
    {
      "anonymous": false,
      "inputs": [
        {
          "indexed": false,
          "internalType": "address",
          "name": "user",
          "type": "address"
        },
        {
          "indexed": false,
          "internalType": "uint256",
          "name": "burnAmount0",
          "type": "uint256"
        },
        {
          "indexed": false,
          "internalType": "uint256",
          "name": "burnAmount1",
          "type": "uint256"
        }
      ],
      "name": "LPBurned",
      "type": "event"
    },
    {
      "anonymous": false,
      "inputs": [
        {
          "indexed": false,
          "internalType": "address",
          "name": "receiver",
          "type": "address"
        },
        {
          "indexed": false,
          "internalType": "uint256",
          "name": "mintAmount",
          "type": "uint256"
        },
        {
          "indexed": false,
          "internalType": "uint256",
          "name": "amount0In",
          "type": "uint256"
        },
        {
          "indexed": false,
          "internalType": "uint256",
          "name": "amount1In",
          "type": "uint256"
        }
      ],
      "name": "Minted",
      "type": "event"
    },
    {
      "anonymous": false,
      "inputs": [
        {
          "indexed": true,
          "internalType": "address",
          "name": "previousOwner",
          "type": "address"
        },
        {
          "indexed": true,
          "internalType": "address",
          "name": "newOwner",
          "type": "address"
        }
      ],
      "name": "OwnershipTransferred",
      "type": "event"
    },
    {
      "anonymous": false,
      "inputs": [
        {
          "indexed": true,
          "internalType": "address",
          "name": "from",
          "type": "address"
        },
        {
          "indexed": true,
          "internalType": "address",
          "name": "to",
          "type": "address"
        },
        {
          "indexed": false,
          "internalType": "uint256",
          "name": "value",
          "type": "uint256"
        }
      ],
      "name": "Transfer",
      "type": "event"
    },
    {
      "anonymous": false,
      "inputs": [
        {
          "indexed": false,
          "internalType": "uint256",
          "name": "amount0",
          "type": "uint256"
        },
        {
          "indexed": false,
          "internalType": "uint256",
          "name": "amount1",
          "type": "uint256"
        }
      ],
      "name": "WithdrawArrakisBalance",
      "type": "event"
    },
    {
      "anonymous": false,
      "inputs": [
        {
          "indexed": false,
          "internalType": "uint256",
          "name": "amount0",
          "type": "uint256"
        },
        {
          "indexed": false,
          "internalType": "uint256",
          "name": "amount1",
          "type": "uint256"
        }
      ],
      "name": "WithdrawManagerBalance",
      "type": "event"
    },
    {
      "inputs": [
        {
          "internalType": "address[]",
          "name": "operators_",
          "type": "address[]"
        }
      ],
      "name": "addOperators",
      "outputs": [],
      "stateMutability": "nonpayable",
      "type": "function"
    },
    {
      "inputs": [
        {
          "internalType": "address[]",
          "name": "pools_",
          "type": "address[]"
        }
      ],
      "name": "addPools",
      "outputs": [],
      "stateMutability": "nonpayable",
      "type": "function"
    },
    {
      "inputs": [
        {
          "components": [
            {
              "internalType": "int24",
              "name": "lowerTick",
              "type": "int24"
            },
            {
              "internalType": "int24",
              "name": "upperTick",
              "type": "int24"
            },
            {
              "internalType": "uint24",
              "name": "feeTier",
              "type": "uint24"
            }
          ],
          "internalType": "struct Range[]",
          "name": "ranges_",
          "type": "tuple[]"
        }
      ],
      "name": "addRanges",
      "outputs": [],
      "stateMutability": "nonpayable",
      "type": "function"
    },
    {
      "inputs": [
        {
          "internalType": "address",
          "name": "owner",
          "type": "address"
        },
        {
          "internalType": "address",
          "name": "spender",
          "type": "address"
        }
      ],
      "name": "allowance",
      "outputs": [
        {
          "internalType": "uint256",
          "name": "",
          "type": "uint256"
        }
      ],
      "stateMutability": "view",
      "type": "function"
    },
    {
      "inputs": [
        {
          "internalType": "address",
          "name": "spender",
          "type": "address"
        },
        {
          "internalType": "uint256",
          "name": "amount",
          "type": "uint256"
        }
      ],
      "name": "approve",
      "outputs": [
        {
          "internalType": "bool",
          "name": "",
          "type": "bool"
        }
      ],
      "stateMutability": "nonpayable",
      "type": "function"
    },
    {
      "inputs": [],
      "name": "arrakisBalance0",
      "outputs": [
        {
          "internalType": "uint256",
          "name": "",
          "type": "uint256"
        }
      ],
      "stateMutability": "view",
      "type": "function"
    },
    {
      "inputs": [],
      "name": "arrakisBalance1",
      "outputs": [
        {
          "internalType": "uint256",
          "name": "",
          "type": "uint256"
        }
      ],
      "stateMutability": "view",
      "type": "function"
    },
    {
      "inputs": [],
      "name": "arrakisFeeBPS",
      "outputs": [
        {
          "internalType": "uint16",
          "name": "",
          "type": "uint16"
        }
      ],
      "stateMutability": "view",
      "type": "function"
    },
    {
      "inputs": [],
      "name": "arrakisTreasury",
      "outputs": [
        {
          "internalType": "address",
          "name": "",
          "type": "address"
        }
      ],
      "stateMutability": "view",
      "type": "function"
    },
    {
      "inputs": [
        {
          "internalType": "address",
          "name": "account",
          "type": "address"
        }
      ],
      "name": "balanceOf",
      "outputs": [
        {
          "internalType": "uint256",
          "name": "",
          "type": "uint256"
        }
      ],
      "stateMutability": "view",
      "type": "function"
    },
    {
      "inputs": [
        {
          "components": [
            {
              "internalType": "uint128",
              "name": "liquidity",
              "type": "uint128"
            },
            {
              "components": [
                {
                  "internalType": "int24",
                  "name": "lowerTick",
                  "type": "int24"
                },
                {
                  "internalType": "int24",
                  "name": "upperTick",
                  "type": "int24"
                },
                {
                  "internalType": "uint24",
                  "name": "feeTier",
                  "type": "uint24"
                }
              ],
              "internalType": "struct Range",
              "name": "range",
              "type": "tuple"
            }
          ],
          "internalType": "struct BurnLiquidity[]",
          "name": "burns",
          "type": "tuple[]"
        },
        {
          "internalType": "uint256",
          "name": "burnAmount_",
          "type": "uint256"
        },
        {
          "internalType": "address",
          "name": "receiver_",
          "type": "address"
        }
      ],
      "name": "burn",
      "outputs": [
        {
          "internalType": "uint256",
          "name": "amount0",
          "type": "uint256"
        },
        {
          "internalType": "uint256",
          "name": "amount1",
          "type": "uint256"
        }
      ],
      "stateMutability": "nonpayable",
      "type": "function"
    },
    {
      "inputs": [],
      "name": "decimals",
      "outputs": [
        {
          "internalType": "uint8",
          "name": "",
          "type": "uint8"
        }
      ],
      "stateMutability": "view",
      "type": "function"
    },
    {
      "inputs": [
        {
          "internalType": "address",
          "name": "spender",
          "type": "address"
        },
        {
          "internalType": "uint256",
          "name": "subtractedValue",
          "type": "uint256"
        }
      ],
      "name": "decreaseAllowance",
      "outputs": [
        {
          "internalType": "bool",
          "name": "",
          "type": "bool"
        }
      ],
      "stateMutability": "nonpayable",
      "type": "function"
    },
    {
      "inputs": [],
      "name": "factory",
      "outputs": [
        {
          "internalType": "contract IUniswapV3Factory",
          "name": "",
          "type": "address"
        }
      ],
      "stateMutability": "view",
      "type": "function"
    },
    {
      "inputs": [
        {
          "internalType": "address",
          "name": "spender",
          "type": "address"
        },
        {
          "internalType": "uint256",
          "name": "addedValue",
          "type": "uint256"
        }
      ],
      "name": "increaseAllowance",
      "outputs": [
        {
          "internalType": "bool",
          "name": "",
          "type": "bool"
        }
      ],
      "stateMutability": "nonpayable",
      "type": "function"
    },
    {
      "inputs": [],
      "name": "init0",
      "outputs": [
        {
          "internalType": "uint256",
          "name": "",
          "type": "uint256"
        }
      ],
      "stateMutability": "view",
      "type": "function"
    },
    {
      "inputs": [],
      "name": "init1",
      "outputs": [
        {
          "internalType": "uint256",
          "name": "",
          "type": "uint256"
        }
      ],
      "stateMutability": "view",
      "type": "function"
    },
    {
      "inputs": [
        {
          "internalType": "string",
          "name": "name_",
          "type": "string"
        },
        {
          "internalType": "string",
          "name": "symbol_",
          "type": "string"
        },
        {
          "components": [
            {
              "internalType": "uint24[]",
              "name": "feeTiers",
              "type": "uint24[]"
            },
            {
              "internalType": "address",
              "name": "token0",
              "type": "address"
            },
            {
              "internalType": "address",
              "name": "token1",
              "type": "address"
            },
            {
              "internalType": "address",
              "name": "owner",
              "type": "address"
            },
            {
              "internalType": "address[]",
              "name": "operators",
              "type": "address[]"
            },
            {
              "components": [
                {
                  "internalType": "int24",
                  "name": "lowerTick",
                  "type": "int24"
                },
                {
                  "internalType": "int24",
                  "name": "upperTick",
                  "type": "int24"
                },
                {
                  "internalType": "uint24",
                  "name": "feeTier",
                  "type": "uint24"
                }
              ],
              "internalType": "struct Range[]",
              "name": "ranges",
              "type": "tuple[]"
            },
            {
              "internalType": "uint256",
              "name": "init0",
              "type": "uint256"
            },
            {
              "internalType": "uint256",
              "name": "init1",
              "type": "uint256"
            },
            {
              "internalType": "address",
              "name": "managerTreasury",
              "type": "address"
            },
            {
              "internalType": "uint16",
              "name": "managerFeeBPS",
              "type": "uint16"
            },
            {
              "internalType": "int24",
              "name": "maxTwapDeviation",
              "type": "int24"
            },
            {
              "internalType": "uint24",
              "name": "twapDuration",
              "type": "uint24"
            }
          ],
          "internalType": "struct InitializePayload",
          "name": "params_",
          "type": "tuple"
        }
      ],
      "name": "initialize",
      "outputs": [],
      "stateMutability": "nonpayable",
      "type": "function"
    },
    {
      "inputs": [],
      "name": "managerBalance0",
      "outputs": [
        {
          "internalType": "uint256",
          "name": "",
          "type": "uint256"
        }
      ],
      "stateMutability": "view",
      "type": "function"
    },
    {
      "inputs": [],
      "name": "managerBalance1",
      "outputs": [
        {
          "internalType": "uint256",
          "name": "",
          "type": "uint256"
        }
      ],
      "stateMutability": "view",
      "type": "function"
    },
    {
      "inputs": [],
      "name": "managerFeeBPS",
      "outputs": [
        {
          "internalType": "uint16",
          "name": "",
          "type": "uint16"
        }
      ],
      "stateMutability": "view",
      "type": "function"
    },
    {
      "inputs": [],
      "name": "managerTreasury",
      "outputs": [
        {
          "internalType": "address",
          "name": "",
          "type": "address"
        }
      ],
      "stateMutability": "view",
      "type": "function"
    },
    {
      "inputs": [],
      "name": "maxTwapDeviation",
      "outputs": [
        {
          "internalType": "int24",
          "name": "",
          "type": "int24"
        }
      ],
      "stateMutability": "view",
      "type": "function"
    },
    {
      "inputs": [
        {
          "internalType": "uint256",
          "name": "mintAmount_",
          "type": "uint256"
        },
        {
          "internalType": "address",
          "name": "receiver_",
          "type": "address"
        }
      ],
      "name": "mint",
      "outputs": [
        {
          "internalType": "uint256",
          "name": "amount0",
          "type": "uint256"
        },
        {
          "internalType": "uint256",
          "name": "amount1",
          "type": "uint256"
        }
      ],
      "stateMutability": "nonpayable",
      "type": "function"
    },
    {
      "inputs": [],
      "name": "name",
      "outputs": [
        {
          "internalType": "string",
          "name": "",
          "type": "string"
        }
      ],
      "stateMutability": "view",
      "type": "function"
    },
    {
      "inputs": [],
      "name": "owner",
      "outputs": [
        {
          "internalType": "address",
          "name": "",
          "type": "address"
        }
      ],
      "stateMutability": "view",
      "type": "function"
    },
    {
      "inputs": [
        {
          "components": [
            {
              "internalType": "int24",
              "name": "lowerTick",
              "type": "int24"
            },
            {
              "internalType": "int24",
              "name": "upperTick",
              "type": "int24"
            },
            {
              "internalType": "uint24",
              "name": "feeTier",
              "type": "uint24"
            }
          ],
          "internalType": "struct Range",
          "name": "range_",
          "type": "tuple"
        }
      ],
      "name": "rangeExist",
      "outputs": [
        {
          "internalType": "bool",
          "name": "ok",
          "type": "bool"
        },
        {
          "internalType": "uint256",
          "name": "index",
          "type": "uint256"
        }
      ],
      "stateMutability": "view",
      "type": "function"
    },
    {
      "inputs": [
        {
          "internalType": "uint256",
          "name": "",
          "type": "uint256"
        }
      ],
      "name": "ranges",
      "outputs": [
        {
          "internalType": "int24",
          "name": "lowerTick",
          "type": "int24"
        },
        {
          "internalType": "int24",
          "name": "upperTick",
          "type": "int24"
        },
        {
          "internalType": "uint24",
          "name": "feeTier",
          "type": "uint24"
        }
      ],
      "stateMutability": "view",
      "type": "function"
    },
    {
      "inputs": [],
      "name": "rangesArray",
      "outputs": [
        {
          "components": [
            {
              "internalType": "int24",
              "name": "lowerTick",
              "type": "int24"
            },
            {
              "internalType": "int24",
              "name": "upperTick",
              "type": "int24"
            },
            {
              "internalType": "uint24",
              "name": "feeTier",
              "type": "uint24"
            }
          ],
          "internalType": "struct Range[]",
          "name": "",
          "type": "tuple[]"
        }
      ],
      "stateMutability": "view",
      "type": "function"
    },
    {
      "inputs": [],
      "name": "rangesLength",
      "outputs": [
        {
          "internalType": "uint256",
          "name": "",
          "type": "uint256"
        }
      ],
      "stateMutability": "view",
      "type": "function"
    },
    {
      "inputs": [
        {
          "components": [
            {
              "components": [
                {
                  "internalType": "uint128",
                  "name": "liquidity",
                  "type": "uint128"
                },
                {
                  "components": [
                    {
                      "internalType": "int24",
                      "name": "lowerTick",
                      "type": "int24"
                    },
                    {
                      "internalType": "int24",
                      "name": "upperTick",
                      "type": "int24"
                    },
                    {
                      "internalType": "uint24",
                      "name": "feeTier",
                      "type": "uint24"
                    }
                  ],
                  "internalType": "struct Range",
                  "name": "range",
                  "type": "tuple"
                }
              ],
              "internalType": "struct PositionLiquidity[]",
              "name": "removes",
              "type": "tuple[]"
            },
            {
              "components": [
                {
                  "internalType": "uint128",
                  "name": "liquidity",
                  "type": "uint128"
                },
                {
                  "components": [
                    {
                      "internalType": "int24",
                      "name": "lowerTick",
                      "type": "int24"
                    },
                    {
                      "internalType": "int24",
                      "name": "upperTick",
                      "type": "int24"
                    },
                    {
                      "internalType": "uint24",
                      "name": "feeTier",
                      "type": "uint24"
                    }
                  ],
                  "internalType": "struct Range",
                  "name": "range",
                  "type": "tuple"
                }
              ],
              "internalType": "struct PositionLiquidity[]",
              "name": "deposits",
              "type": "tuple[]"
            },
            {
              "components": [
                {
                  "internalType": "bytes",
                  "name": "payload",
                  "type": "bytes"
                },
                {
                  "internalType": "address",
                  "name": "router",
                  "type": "address"
                },
                {
                  "internalType": "uint256",
                  "name": "amountIn",
                  "type": "uint256"
                },
                {
                  "internalType": "uint256",
                  "name": "expectedMinReturn",
                  "type": "uint256"
                },
                {
                  "internalType": "bool",
                  "name": "zeroForOne",
                  "type": "bool"
                }
              ],
              "internalType": "struct SwapPayload",
              "name": "swap",
              "type": "tuple"
            }
          ],
          "internalType": "struct Rebalance",
          "name": "rebalanceParams_",
          "type": "tuple"
        }
      ],
      "name": "rebalance",
      "outputs": [],
      "stateMutability": "nonpayable",
      "type": "function"
    },
    {
      "inputs": [
        {
          "internalType": "address[]",
          "name": "operators_",
          "type": "address[]"
        }
      ],
      "name": "removeOperators",
      "outputs": [],
      "stateMutability": "nonpayable",
      "type": "function"
    },
    {
      "inputs": [
        {
          "internalType": "address[]",
          "name": "pools_",
          "type": "address[]"
        }
      ],
      "name": "removePools",
      "outputs": [],
      "stateMutability": "nonpayable",
      "type": "function"
    },
    {
      "inputs": [
        {
          "components": [
            {
              "internalType": "int24",
              "name": "lowerTick",
              "type": "int24"
            },
            {
              "internalType": "int24",
              "name": "upperTick",
              "type": "int24"
            },
            {
              "internalType": "uint24",
              "name": "feeTier",
              "type": "uint24"
            }
          ],
          "internalType": "struct Range[]",
          "name": "ranges_",
          "type": "tuple[]"
        }
      ],
      "name": "removeRanges",
      "outputs": [],
      "stateMutability": "nonpayable",
      "type": "function"
    },
    {
      "inputs": [],
      "name": "renounceOwnership",
      "outputs": [],
      "stateMutability": "nonpayable",
      "type": "function"
    },
    {
      "inputs": [
        {
          "internalType": "address",
          "name": "managerTreasury_",
          "type": "address"
        }
      ],
      "name": "setManagerTreasury",
      "outputs": [],
      "stateMutability": "nonpayable",
      "type": "function"
    },
    {
      "inputs": [
        {
          "internalType": "int24",
          "name": "maxTwapDeviation_",
          "type": "int24"
        }
      ],
      "name": "setMaxTwapDeviation",
      "outputs": [],
      "stateMutability": "nonpayable",
      "type": "function"
    },
    {
      "inputs": [
        {
          "internalType": "uint24",
          "name": "twapDuration_",
          "type": "uint24"
        }
      ],
      "name": "setTwapDuration",
      "outputs": [],
      "stateMutability": "nonpayable",
      "type": "function"
    },
    {
      "inputs": [],
      "name": "symbol",
      "outputs": [
        {
          "internalType": "string",
          "name": "",
          "type": "string"
        }
      ],
      "stateMutability": "view",
      "type": "function"
    },
    {
      "inputs": [],
      "name": "token0",
      "outputs": [
        {
          "internalType": "contract IERC20",
          "name": "",
          "type": "address"
        }
      ],
      "stateMutability": "view",
      "type": "function"
    },
    {
      "inputs": [],
      "name": "token1",
      "outputs": [
        {
          "internalType": "contract IERC20",
          "name": "",
          "type": "address"
        }
      ],
      "stateMutability": "view",
      "type": "function"
    },
    {
      "inputs": [],
      "name": "totalSupply",
      "outputs": [
        {
          "internalType": "uint256",
          "name": "",
          "type": "uint256"
        }
      ],
      "stateMutability": "view",
      "type": "function"
    },
    {
      "inputs": [
        {
          "internalType": "address",
          "name": "to",
          "type": "address"
        },
        {
          "internalType": "uint256",
          "name": "amount",
          "type": "uint256"
        }
      ],
      "name": "transfer",
      "outputs": [
        {
          "internalType": "bool",
          "name": "",
          "type": "bool"
        }
      ],
      "stateMutability": "nonpayable",
      "type": "function"
    },
    {
      "inputs": [
        {
          "internalType": "address",
          "name": "from",
          "type": "address"
        },
        {
          "internalType": "address",
          "name": "to",
          "type": "address"
        },
        {
          "internalType": "uint256",
          "name": "amount",
          "type": "uint256"
        }
      ],
      "name": "transferFrom",
      "outputs": [
        {
          "internalType": "bool",
          "name": "",
          "type": "bool"
        }
      ],
      "stateMutability": "nonpayable",
      "type": "function"
    },
    {
      "inputs": [
        {
          "internalType": "address",
          "name": "newOwner",
          "type": "address"
        }
      ],
      "name": "transferOwnership",
      "outputs": [],
      "stateMutability": "nonpayable",
      "type": "function"
    },
    {
      "inputs": [],
      "name": "twapDuration",
      "outputs": [
        {
          "internalType": "uint24",
          "name": "",
          "type": "uint24"
        }
      ],
      "stateMutability": "view",
      "type": "function"
    },
    {
      "inputs": [
        {
          "internalType": "uint256",
          "name": "amount0Owed_",
          "type": "uint256"
        },
        {
          "internalType": "uint256",
          "name": "amount1Owed_",
          "type": "uint256"
        },
        {
          "internalType": "bytes",
          "name": "",
          "type": "bytes"
        }
      ],
      "name": "uniswapV3MintCallback",
      "outputs": [],
      "stateMutability": "nonpayable",
      "type": "function"
    },
    {
      "inputs": [
        {
          "internalType": "int256",
          "name": "amount0Delta_",
          "type": "int256"
        },
        {
          "internalType": "int256",
          "name": "amount1Delta_",
          "type": "int256"
        },
        {
          "internalType": "bytes",
          "name": "",
          "type": "bytes"
        }
      ],
      "name": "uniswapV3SwapCallback",
      "outputs": [],
      "stateMutability": "nonpayable",
      "type": "function"
    },
    {
      "inputs": [],
      "name": "version",
      "outputs": [
        {
          "internalType": "string",
          "name": "",
          "type": "string"
        }
      ],
      "stateMutability": "view",
      "type": "function"
    },
    {
      "inputs": [],
      "name": "withdrawArrakisBalance",
      "outputs": [],
      "stateMutability": "nonpayable",
      "type": "function"
    },
    {
      "inputs": [],
      "name": "withdrawManagerBalance",
      "outputs": [],
      "stateMutability": "nonpayable",
      "type": "function"
    }
  ],
  "transactionHash": "0x83f2c18426a1861fea004d1744fed7a275a96637afc3a901e20aca01208767f9",
  "args": [
    "0x1F98431c8aD98523631AE4a59f267346ea31F984",
    "0xF953c3d475dc0a9877329F71e2CE3d2519a519A2"
  ],
  "numDeployments": 3,
  "solcInputHash": "096721d5a3f253ae4561b65595ef5e71",
  "bytecode": "0x60c06040523480156200001157600080fd5b5060405162005880380380620058808339810160408190526200003491620000fb565b81816001600160a01b0382166200007c5760405162461bcd60e51b8152602060048201526007602482015266666163746f727960c81b60448201526064015b60405180910390fd5b6001600160a01b038116620000c75760405162461bcd60e51b815260206004820152601060248201526f617272616b697320747265617375727960801b604482015260640162000073565b6001600160a01b039182166080521660a052506200013a9050565b6001600160a01b0381168114620000f857600080fd5b50565b600080604083850312156200010f57600080fd5b82516200011c81620000e2565b60208401519092506200012f81620000e2565b809150509250929050565b60805160a0516156da620001a660003960008181610512015281816125260152612563015260008181610542015281816107c601528181610fd501528181611a520152818161209d015281816128f601528181612d0501528181613c1e0152613d4601526156da6000f3fe608060405234801561001057600080fd5b50600436106102515760003560e01c8063065756db1461025657806306fdde0314610272578063095ea7b3146102875780630dfe1681146102aa57806314b80630146102ca57806318160ddd146102d35780631932bbc6146102db57806323b872dd146102f057806326d8954514610303578063313ce5671461032d5780633926ab5f1461033c578063395093511461034f578063397a877e146103625780633cbff3fe1461037757806342fb9d441461038a5780634b1641401461039357806354fd4d50146103a65780635fdecdfa146103ca578063670f13a1146103ec5780636b8f095e14610416578063701c2a8d1461042957806370a082311461043c578063715018a6146104655780637ecd67171461046d57806387e60235146104755780638da5cb5b1461048857806394bf804d1461049057806395d89b41146104b1578063a07aea1c146104b9578063a457c2d7146104cc578063a9059cbb146104df578063ad1b78b4146104f2578063b36a4ab1146104fa578063b9f24cb21461050d578063bbfe704e14610534578063c45a01551461053d578063c707504114610564578063cc95353e1461057f578063ccdf7a0214610592578063d21220a7146105a7578063d3487997146105ba578063d365a377146105cd578063d8953ca7146105e0578063dc9ad4c1146105e9578063dd62ed3e146105f1578063e41e0bb014610604578063e7c7cb9114610617578063f2eb3e3414610637578063f2fde38b14610640578063f4effe4114610653578063fa461e3314610666575b600080fd5b61025f609f5481565b6040519081526020015b60405180910390f35b61027a610679565b60405161026991906147ce565b61029a610295366004614819565b61070b565b6040519015158152602001610269565b6097546102bd906001600160a01b031681565b6040516102699190614852565b61025f60995481565b60355461025f565b6102ee6102e936600461487e565b610725565b005b61029a6102fe3660046148b2565b61127c565b60a154610319906301000000900462ffffff1681565b60405162ffffff9091168152602001610269565b60405160128152602001610269565b6102ee61034a366004614904565b6112a2565b61029a61035d366004614819565b6112f5565b61036a611317565b6040516102699190614948565b6102ee6103853660046149a5565b611397565b61025f60a05481565b6102ee6103a13660046149c2565b6113e0565b61027a604051806040016040528060058152602001640312e302e360dc1b81525081565b6103dd6103d8366004614a36565b61151c565b60405161026993929190614a4f565b6103ff6103fa366004614a71565b611558565b604080519215158352602083019190915201610269565b6102ee610424366004614ad5565b61164e565b6102ee610437366004614b70565b611db5565b61025f61044a366004614bd2565b6001600160a01b031660009081526033602052604090205490565b6102ee611e08565b6102ee611e6f565b6102ee610483366004614bd2565b611f04565b6102bd611f55565b6104a361049e366004614bef565b611f64565b604051610269929190614c1f565b61027a612242565b6102ee6104c73660046149c2565b612251565b61029a6104da366004614819565b61228a565b61029a6104ed366004614819565b612310565b609b5461025f565b6102ee6105083660046149c2565b61231e565b6102bd7f000000000000000000000000000000000000000000000000000000000000000081565b61025f609d5481565b6102bd7f000000000000000000000000000000000000000000000000000000000000000081565b61056c60fa81565b60405161ffff9091168152602001610269565b609e546102bd906001600160a01b031681565b609e5461056c90600160a01b900461ffff1681565b6098546102bd906001600160a01b031681565b6102ee6105c8366004614c2d565b612357565b6102ee6105db3660046149c2565b6123be565b61025f609c5481565b6102ee6124fc565b61025f6105ff366004614c7f565b6125b9565b6102ee610612366004614b70565b6125e4565b60a1546106249060020b81565b60405160029190910b8152602001610269565b61025f609a5481565b6102ee61064e366004614bd2565b6126bf565b6104a3610661366004614cad565b61279c565b6102ee610674366004614c2d565b613064565b60606036805461068890614d3a565b80601f01602080910402602001604051908101604052809291908181526020018280546106b490614d3a565b80156107015780601f106106d657610100808354040283529160200191610701565b820191906000526020600020905b8154815290600101906020018083116106e457829003601f168201915b5050505050905090565b6000336107198185856130de565b60019150505b92915050565b6002606554036107505760405162461bcd60e51b815260040161074790614d6e565b60405180910390fd5b600260655561076060a233613202565b61079a5760405162461bcd60e51b815260206004820152600b60248201526a37379037b832b930ba37b960a91b6044820152606401610747565b60008060005b6107aa8480614da5565b9050811015610a28576097546098546000916001600160a01b037f0000000000000000000000000000000000000000000000000000000000000000811692631698ee8292821691166107fc8980614da5565b8781811061080c5761080c614dee565b610823926080918202019081019150606001614904565b6040518463ffffffff1660e01b815260040161084193929190614e04565b602060405180830381865afa15801561085e573d6000803e3d6000fd5b505050506040513d601f19601f820116820180604052508101906108829190614e2c565b90508061089060a482613202565b6108cd576108cd6108a18780614da5565b858181106108b1576108b1614dee565b6108c8926080918202019081019150606001614904565b613217565b60a15460405163db46de5360e01b8152736CcEc15fef0e3F72DF5575F17836ac16A3DDb4Eb9163db46de539161091891859162ffffff63010000008304169160020b90600401614e49565b60006040518083038186803b15801561093057600080fd5b505af4158015610944573d6000803e3d6000fd5b50600092506109ec915083905061095b8980614da5565b8781811061096b5761096b614dee565b61098492604060809092020190810191506020016149a5565b61098e8a80614da5565b8881811061099e5761099e614dee565b6109b792606060809092020190810191506040016149a5565b6109c18b80614da5565b898181106109d1576109d1614dee565b6109e79260206080909202019081019150614e87565b613237565b90508060400151866109fe9190614eba565b9550806060015185610a109190614eba565b94505050508080610a2090614ed2565b9150506107a0565b506000821180610a385750600081115b15610b1257610a478282613574565b609e54604051636d50cdaf60e01b815273dd67F313E3303f8Fd7Ce1dB94B99B2C8e59b3D9791636d50cdaf91610a929186918691600160a01b900461ffff169060fa90600401614eeb565b6040805180830381865af4158015610aae573d6000803e3d6000fd5b505050506040513d601f19601f82011682018060405250810190610ad29190614f0d565b60405191935091507f079325979cf9aa65ff27d4b221f4120fff56c3699daca3fe0866499ebf9b1a1a90610b099084908490614c1f565b60405180910390a15b6000610b216040850185614f31565b604001351115610fa9576097546040516370a0823160e01b81526000916001600160a01b0316906370a0823190610b5c903090600401614852565b602060405180830381865afa158015610b79573d6000803e3d6000fd5b505050506040513d601f19601f82011682018060405250810190610b9d9190614f51565b6098546040516370a0823160e01b81529192506000916001600160a01b03909116906370a0823190610bd3903090600401614852565b602060405180830381865afa158015610bf0573d6000803e3d6000fd5b505050506040513d601f19601f82011682018060405250810190610c149190614f51565b9050610c4b610c266040870187614f31565b610c37906040810190602001614bd2565b6097546001600160a01b031690600061364e565b610c80610c5b6040870187614f31565b610c6c906040810190602001614bd2565b6098546001600160a01b031690600061364e565b610cb4610c906040870187614f31565b610ca1906040810190602001614bd2565b6097546001600160a01b0316908461364e565b610ce8610cc46040870187614f31565b610cd5906040810190602001614bd2565b6098546001600160a01b0316908361364e565b6000610cf76040870187614f31565b610d08906040810190602001614bd2565b6001600160a01b0316610d1e6040880188614f31565b610d289080614f6a565b604051610d36929190614fb0565b6000604051808303816000865af19150503d8060008114610d73576040519150601f19603f3d011682016040523d82523d6000602084013e610d78565b606091505b5050905080610db25760405162461bcd60e51b8152600401610747906020808252600490820152630737761760e41b604082015260600190565b610dc2610c266040880188614f31565b610dd2610c5b6040880188614f31565b6097546040516370a0823160e01b81526000916001600160a01b0316906370a0823190610e03903090600401614852565b602060405180830381865afa158015610e20573d6000803e3d6000fd5b505050506040513d601f19601f82011682018060405250810190610e449190614f51565b6098546040516370a0823160e01b81529192506000916001600160a01b03909116906370a0823190610e7a903090600401614852565b602060405180830381865afa158015610e97573d6000803e3d6000fd5b505050506040513d601f19601f82011682018060405250810190610ebb9190614f51565b9050610eca6040890189614f31565b610edb9060a0810190608001614fce565b15610f4457610eed6040890189614f31565b610efb906060013585614eba565b8110158015610f235750610f126040890189614f31565b610f20906040013586614feb565b82145b610f3f5760405162461bcd60e51b815260040161074790615002565b610fa3565b610f516040890189614f31565b610f5f906060013586614eba565b8210158015610f875750610f766040890189614f31565b610f84906040013585614feb565b81145b610fa35760405162461bcd60e51b815260040161074790615002565b50505050505b60005b610fb96020850185614da5565b9050811015611271576097546098546000916001600160a01b037f0000000000000000000000000000000000000000000000000000000000000000811692631698ee82928216911661100e60208a018a614da5565b8781811061101e5761101e614dee565b611035926080918202019081019150606001614904565b6040518463ffffffff1660e01b815260040161105393929190614e04565b602060405180830381865afa158015611070573d6000803e3d6000fd5b505050506040513d601f19601f820116820180604052508101906110949190614e2c565b60a15460405163db46de5360e01b8152919250736CcEc15fef0e3F72DF5575F17836ac16A3DDb4Eb9163db46de53916110e591859162ffffff63010000008204169160029190910b90600401614e49565b60006040518083038186803b1580156110fd57600080fd5b505af4158015611111573d6000803e3d6000fd5b5050506001600160a01b0382169050633c8a7d8d306111336020890189614da5565b8681811061114357611143614dee565b61115c92604060809092020190810191506020016149a5565b61116960208a018a614da5565b8781811061117957611179614dee565b61119292606060809092020190810191506040016149a5565b61119f60208b018b614da5565b888181106111af576111af614dee565b6111c59260206080909202019081019150614e87565b6040516001600160e01b031960e087901b1681526001600160a01b039094166004850152600292830b6024850152910b60448301526001600160801b0316606482015260a06084820152600060a482015260c40160408051808303816000875af1158015611237573d6000803e3d6000fd5b505050506040513d601f19601f8201168201806040525081019061125b9190614f0d565b505050808061126990614ed2565b915050610fac565b505060016065555050565b60003361128a858285613789565b6112958585856137fd565b60019150505b9392505050565b336112ab611f55565b6001600160a01b0316146112d15760405162461bcd60e51b815260040161074790615027565b60a1805462ffffff90921663010000000265ffffff00000019909216919091179055565b60003361071981858561130883836125b9565b6113129190614eba565b6130de565b6060609b805480602002602001604051908101604052809291908181526020016000905b8282101561138e5760008481526020908190206040805160608101825291850154600281810b845263010000008204900b83850152600160301b900462ffffff169082015282526001909201910161133b565b50505050905090565b336113a0611f55565b6001600160a01b0316146113c65760405162461bcd60e51b815260040161074790615027565b60a1805462ffffff191662ffffff92909216919091179055565b336113e9611f55565b6001600160a01b03161461140f5760405162461bcd60e51b815260040161074790615027565b60005b8181101561151757600083838381811061142e5761142e614dee565b90506020020160208101906114439190614bd2565b6001600160a01b0316036114695760405162461bcd60e51b81526004016107479061505c565b61149b83838381811061147e5761147e614dee565b90506020020160208101906114939190614bd2565b60a490613202565b6114d25760405162461bcd60e51b81526020600482015260086024820152671b9bdd081c1bdbdb60c21b6044820152606401610747565b6115048383838181106114e7576114e7614dee565b90506020020160208101906114fc9190614bd2565b60a4906139b9565b508061150f81614ed2565b915050611412565b505050565b609b818154811061152c57600080fd5b600091825260209091200154600281810b925063010000008204900b90600160301b900462ffffff1683565b60008060005b609b5481101561164857609b818154811061157b5761157b614dee565b6000918252602091829020015460020b90611598908601866149a5565b60020b1480156115e35750609b81815481106115b6576115b6614dee565b600091825260209182902001546301000000900460020b906115de90604087019087016149a5565b60020b145b801561162c5750609b81815481106115fd576115fd614dee565b600091825260209091200154600160301b900462ffffff166116256060860160408701614904565b62ffffff16145b925080915082611648578061164081614ed2565b91505061155e565b50915091565b600061165a60016139ce565b90508015611676576000805460ff60a81b1916600160a81b1790555b60006116828380615082565b9050116116bf5760405162461bcd60e51b815260206004820152600b60248201526a3737903332b2903a34b2b960a91b6044820152606401610747565b60006116d16040840160208501614bd2565b6001600160a01b0316036117105760405162461bcd60e51b81526020600482015260066024820152650746f6b656e360d41b6044820152606401610747565b60006117226060840160408501614bd2565b6001600160a01b0316036117615760405162461bcd60e51b8152602060048201526006602482015265746f6b656e3160d01b6044820152606401610747565b60006117706080840184615082565b9050116117ae5760405162461bcd60e51b815260206004820152600c60248201526b6e6f206f70657261746f727360a01b6044820152606401610747565b60006117bd60a08401846150cb565b9050116117f85760405162461bcd60e51b81526020600482015260096024820152686e6f2072616e67657360b81b6044820152606401610747565b60008260c00135116118345760405162461bcd60e51b81526020600482015260056024820152640696e6974360dc1b6044820152606401610747565b60008260e00135116118705760405162461bcd60e51b8152602060048201526005602482015264696e69743160d81b6044820152606401610747565b600061188461012084016101008501614bd2565b6001600160a01b0316036118f4576118a461014083016101208401615113565b61ffff16156118ef5760405162461bcd60e51b815260206004820152601760248201527637379020b2323932b9b9902d32b9379026b0b730b3b2b960491b6044820152606401610747565b61194b565b61271061190961014084016101208501615113565b61ffff16111561194b5760405162461bcd60e51b815260206004820152600d60248201526c6d616e6167657246656542505360981b6044820152606401610747565b600061195f610160840161014085016149a5565b60020b1361197f5760405162461bcd60e51b815260040161074790615137565b600061199361018084016101608501614904565b62ffffff16116119b55760405162461bcd60e51b815260040161074790615137565b611a2886868080601f01602080910402602001604051908101604052809392919081815260200183838082843760009201919091525050604080516020601f8a018190048102820181019092528881529250889150879081908401838280828437600092019190915250613a7092505050565b611a30613aa3565b60005b611a3d8380615082565b9050811015611bbb5760006001600160a01b037f000000000000000000000000000000000000000000000000000000000000000016631698ee82611a876040870160208801614bd2565b611a976060880160408901614bd2565b611aa18880615082565b87818110611ab157611ab1614dee565b9050602002016020810190611ac69190614904565b6040518463ffffffff1660e01b8152600401611ae493929190614e04565b602060405180830381865afa158015611b01573d6000803e3d6000fd5b505050506040513d601f19601f82011682018060405250810190611b259190614e2c565b90506001600160a01b038116611b735760405162461bcd60e51b81526020600482015260136024820152721c1bdbdb08191bd95cc81b9bdd08195e1a5cdd606a1b6044820152606401610747565b611b7e60a482613202565b15611b9b5760405162461bcd60e51b815260040161074790615161565b611ba660a482613ad6565b50508080611bb390614ed2565b915050611a33565b50611bcc6040830160208401614bd2565b609780546001600160a01b0319166001600160a01b0392909216919091179055611bfc6060830160408401614bd2565b609880546001600160a01b0319166001600160a01b0392909216919091179055611c2c6080830160608401614bd2565b600080546001600160a01b0319166001600160a01b0392909216919091179055611c61611c5c6080840184615082565b613aeb565b611c96611c7160a08401846150cb565b611c816040860160208701614bd2565b611c916060870160408801614bd2565b613bd7565b60c082013560995560e0820135609a55611cb861012083016101008401614bd2565b609e80546001600160a01b0319166001600160a01b0392909216919091179055611cea61014083016101208401615113565b609e805461ffff92909216600160a01b0261ffff60a01b19909216919091179055611d1d610160830161014084016149a5565b60a1805462ffffff191662ffffff92909216919091179055611d4761018083016101608401614904565b60a160036101000a81548162ffffff021916908362ffffff1602179055508015611dad576000805460ff60a81b19169055604051600181527f7f26b83ff96e1f2b6a682f133852f6798a09c465da95921460cefb38474024989060200160405180910390a15b505050505050565b33611dbe611f55565b6001600160a01b031614611de45760405162461bcd60e51b815260040161074790615027565b609754609854611e0491849184916001600160a01b039081169116613bd7565b5050565b33611e11611f55565b6001600160a01b031614611e375760405162461bcd60e51b815260040161074790615027565b600080546040516001600160a01b0390911690600080516020615625833981519152908390a3600080546001600160a01b0319169055565b609f805460a08054600093849055929055908115611ea457609e54609754611ea4916001600160a01b03918216911684613e58565b8015611ec757609e54609854611ec7916001600160a01b03918216911683613e58565b7f89efe8d94f73aa230d63a7da6b53e424cbf83e63d2940fb81a284e657303929a8282604051611ef8929190614c1f565b60405180910390a15050565b33611f0d611f55565b6001600160a01b031614611f335760405162461bcd60e51b815260040161074790615027565b609e80546001600160a01b0319166001600160a01b0392909216919091179055565b6000546001600160a01b031690565b600080600260655403611f895760405162461bcd60e51b815260040161074790614d6e565b600260655583611fc95760405162461bcd60e51b815260206004820152600b60248201526a1b5a5b9d08185b5bdd5b9d60aa1b6044820152606401610747565b6000611fd460355490565b905060008060008060008511611ff257609954609a54600080612146565b73887D1EeC3C026ED31Fc35f6CB3f32D940BdB8b2463e56f4d916040518060a00160405280609b805480602002602001604051908101604052809291908181526020016000905b8282101561208c5760008481526020908190206040805160608101825291850154600281810b845263010000008204900b83850152600160301b900462ffffff1690820152825260019092019101612039565b505050908252506001600160a01b037f0000000000000000000000000000000000000000000000000000000000000000811660208301526097548116604080840191909152609854909116606083015230608090920191909152516001600160e01b031960e084901b168152612105919060040161517f565b608060405180830381865af4158015612122573d6000803e3d6000fd5b505050506040513d601f19601f820116820180604052508101906121469190615226565b9350935093509350600080861161216557670de0b6b3a7640000612167565b855b90506121748a8683613e77565b97506121818a8583613e77565b965061218d898b613ec0565b87156121ab576097546121ab906001600160a01b031633308b613f8d565b86156121c9576098546121c9906001600160a01b031633308a613f8d565b60008051602061568583398151915283836040516121e8929190614c1f565b60405180910390a17f5a3358a3d27a5373c0df2604662088d37894d56b7cfd27f315770440f4e0d919898b8a8a604051612225949392919061525c565b60405180910390a150505050505060016065819055509250929050565b60606037805461068890614d3a565b3361225a611f55565b6001600160a01b0316146122805760405162461bcd60e51b815260040161074790615027565b611e048282613aeb565b6000338161229882866125b9565b9050838110156122f85760405162461bcd60e51b815260206004820152602560248201527f45524332303a2064656372656173656420616c6c6f77616e63652062656c6f77604482015264207a65726f60d81b6064820152608401610747565b61230582868684036130de565b506001949350505050565b6000336107198185856137fd565b33612327611f55565b6001600160a01b03161461234d5760405162461bcd60e51b815260040161074790615027565b611e048282613fc5565b61236260a433613202565b61237e5760405162461bcd60e51b815260040161074790615282565b831561239b5760975461239b906001600160a01b03163386613e58565b82156123b8576098546123b8906001600160a01b03163385613e58565b50505050565b336123c7611f55565b6001600160a01b0316146123ed5760405162461bcd60e51b815260040161074790615027565b60005b8181101561151757600083838381811061240c5761240c614dee565b90506020020160208101906124219190614bd2565b6001600160a01b0316036124475760405162461bcd60e51b81526004016107479061505c565b61247983838381811061245c5761245c614dee565b90506020020160208101906124719190614bd2565b60a290613202565b6124b75760405162461bcd60e51b815260206004820152600f60248201526e3737ba1030b71037b832b930ba37b960891b6044820152606401610747565b6124e98383838181106124cc576124cc614dee565b90506020020160208101906124e19190614bd2565b60a2906139b9565b50806124f481614ed2565b9150506123f0565b609c8054609d805460009384905592905590811561254b5760975461254b906001600160a01b03167f000000000000000000000000000000000000000000000000000000000000000084613e58565b801561258857609854612588906001600160a01b03167f000000000000000000000000000000000000000000000000000000000000000083613e58565b7f04a8160bc213279e35743081866b98b193dc70bb796faebc89776c0c306e135d8282604051611ef8929190614c1f565b6001600160a01b03918216600090815260346020908152604080832093909416825291909152205490565b336125ed611f55565b6001600160a01b0316146126135760405162461bcd60e51b815260040161074790615027565b60005b818110156115175760008061264185858581811061263657612636614dee565b905060600201611558565b915091508161267e5760405162461bcd60e51b81526020600482015260096024820152686e6f742072616e676560b81b6044820152606401610747565b609b818154811061269157612691614dee565b600091825260209091200180546001600160481b0319169055508190506126b781614ed2565b915050612616565b336126c8611f55565b6001600160a01b0316146126ee5760405162461bcd60e51b815260040161074790615027565b6001600160a01b0381166127535760405162461bcd60e51b815260206004820152602660248201527f4f776e61626c653a206e6577206f776e657220697320746865207a65726f206160448201526564647265737360d01b6064820152608401610747565b600080546040516001600160a01b038085169392169160008051602061562583398151915291a3600080546001600160a01b0319166001600160a01b0392909216919091179055565b6000806002606554036127c15760405162461bcd60e51b815260040161074790614d6e565b600260655560006127d160355490565b9050600081116128125760405162461bcd60e51b815260206004820152600c60248201526b746f74616c20737570706c7960a01b6044820152606401610747565b61284b6040518060c001604052806000815260200160008152602001600081526020016000815260200160008152602001600081525090565b73887D1EeC3C026ED31Fc35f6CB3f32D940BdB8b2463e56f4d916040518060a00160405280609b805480602002602001604051908101604052809291908181526020016000905b828210156128e55760008481526020908190206040805160608101825291850154600281810b845263010000008204900b83850152600160301b900462ffffff1690820152825260019092019101612892565b505050908252506001600160a01b037f0000000000000000000000000000000000000000000000000000000000000000811660208301526097548116604080840191909152609854909116606083015230608090920191909152516001600160e01b031960e084901b16815261295e919060040161517f565b608060405180830381865af415801561297b573d6000803e3d6000fd5b505050506040513d601f19601f8201168201806040525081019061299f9190615226565b6060850152604080850191909152602084019190915290825260975490516370a0823160e01b81526001600160a01b03909116906370a08231906129e7903090600401614852565b602060405180830381865afa158015612a04573d6000803e3d6000fd5b505050506040513d601f19601f82011682018060405250810190612a289190614f51565b60808201526098546040516370a0823160e01b81526001600160a01b03909116906370a0823190612a5d903090600401614852565b602060405180830381865afa158015612a7a573d6000803e3d6000fd5b505050506040513d601f19601f82011682018060405250810190612a9e9190614f51565b60a08201526040808201516060830151609e549251636d50cdaf60e01b8152600093849373dd67F313E3303f8Fd7Ce1dB94B99B2C8e59b3D9793636d50cdaf93612af993600160a01b900461ffff169060fa90600401614eeb565b6040805180830381865af4158015612b15573d6000803e3d6000fd5b505050506040513d601f19601f82011682018060405250810190612b399190614f0d565b91509150818360400151612b4d9190614feb565b83518490612b5c908390614feb565b9052506060830151612b6f908290614feb565b83602001818151612b809190614feb565b905250508151612b9291508784614096565b9350612ba381602001518784614096565b925083816080015110158015612bbd5750828160a0015110155b15612c3857612bcc3387614144565b8315612be957609754612be9906001600160a01b03168686613e58565b8215612c0657609854612c06906001600160a01b03168685613e58565b60008051602061566583398151915285878686604051612c29949392919061525c565b60405180910390a15050613054565b86612c6d5760405162461bcd60e51b81526020600482015260056024820152646275726e7360d81b6044820152606401610747565b612c773387614144565b612c7f6146e1565b60005b88811015612ec457898982818110612c9c57612c9c614dee565b612cb29260206080909202019081019150614e87565b6001600160801b0316600003612cf257612cf28a8a83818110612cd757612cd7614dee565b905060800201803603810190612ced91906152e1565b614280565b6097546098546000916001600160a01b037f0000000000000000000000000000000000000000000000000000000000000000811692631698ee8292821691168e8e87818110612d4357612d43614dee565b612d5a926080918202019081019150606001614904565b6040518463ffffffff1660e01b8152600401612d7893929190614e04565b602060405180830381865afa158015612d95573d6000803e3d6000fd5b505050506040513d601f19601f82011682018060405250810190612db99190614e2c565b9050612dc660a482613202565b612ddf57612ddf8b8b848181106108b1576108b1614dee565b6000612e4d828d8d86818110612df757612df7614dee565b612e1092604060809092020190810191506020016149a5565b8e8e87818110612e2257612e22614dee565b612e3b92606060809092020190810191506040016149a5565b8f8f888181106109d1576109d1614dee565b9050806040015184604001818151612e659190614eba565b9052506060808201519085018051612e7e908390614eba565b905250805184518590612e92908390614eba565b9052506020808201519085018051612eab908390614eba565b905250829150612ebc905081614ed2565b915050612c82565b50612ed781604001518260600151613574565b6040818101516060830151609e549251636d50cdaf60e01b815273dd67F313E3303f8Fd7Ce1dB94B99B2C8e59b3D9793636d50cdaf93612f2c9390929091600160a01b900461ffff169060fa90600401614eeb565b6040805180830381865af4158015612f48573d6000803e3d6000fd5b505050506040513d601f19601f82011682018060405250810190612f6c9190614f0d565b606083015260408201528415612f9357609754612f93906001600160a01b03168787613e58565b8315612fb057609854612fb0906001600160a01b03168786613e58565b805160208083015160408051338152928301939093528183015290517fbcc5876d59ecdf66ef7ccae24657b11650939218782f8d741e78fd3c35d285a39181900360600190a16000805160206156858339815191528160400151826060015160405161301d929190614c1f565b60405180910390a160008051602061566583398151915286888787604051613048949392919061525c565b60405180910390a15050505b6001606555909590945092505050565b61306f60a433613202565b61308b5760405162461bcd60e51b815260040161074790615282565b60008413156130b7576000546097546130b2916001600160a01b0391821691163387613f8d565b6123b8565b60008313156123b8576000546098546123b8916001600160a01b0391821691163386613f8d565b6001600160a01b0383166131405760405162461bcd60e51b8152602060048201526024808201527f45524332303a20617070726f76652066726f6d20746865207a65726f206164646044820152637265737360e01b6064820152608401610747565b6001600160a01b0382166131a15760405162461bcd60e51b815260206004820152602260248201527f45524332303a20617070726f766520746f20746865207a65726f206164647265604482015261737360f01b6064820152608401610747565b6001600160a01b0383811660008181526034602090815260408083209487168084529482529182902085905590518481527f8c5be1e5ebec7d5bd14f71427d1e84f3dd0314c0f7b2291e5b200ac8c7c3b925910160405180910390a3505050565b600061129b836001600160a01b0384166142ac565b604051634cb235d760e11b815262ffffff82166004820152602401610747565b61323f6146e1565b6097546040516370a0823160e01b81526000916001600160a01b0316906370a0823190613270903090600401614852565b602060405180830381865afa15801561328d573d6000803e3d6000fd5b505050506040513d601f19601f820116820180604052508101906132b19190614f51565b6098546040516370a0823160e01b81529192506000916001600160a01b03909116906370a08231906132e7903090600401614852565b602060405180830381865afa158015613304573d6000803e3d6000fd5b505050506040513d601f19601f820116820180604052508101906133289190614f51565b60405163a34123a760e01b8152600288810b600483015287900b60248201526001600160801b03861660448201529091506001600160a01b0388169063a34123a79060640160408051808303816000875af115801561338b573d6000803e3d6000fd5b505050506040513d601f19601f820116820180604052508101906133af9190614f0d565b602085015283526040516309e3d67b60e31b8152306004820152600287810b602483015286900b60448201526001600160801b036064820181905260848201526001600160a01b03881690634f1eb3d89060a40160408051808303816000875af1158015613421573d6000803e3d6000fd5b505050506040513d601f19601f820116820180604052508101906134459190615395565b505082516097546040516370a0823160e01b815284916001600160a01b0316906370a0823190613479903090600401614852565b602060405180830381865afa158015613496573d6000803e3d6000fd5b505050506040513d601f19601f820116820180604052508101906134ba9190614f51565b6134c49190614feb565b6134ce9190614feb565b604080850191909152602084015160985491516370a0823160e01b8152909183916001600160a01b03909116906370a082319061350f903090600401614852565b602060405180830381865afa15801561352c573d6000803e3d6000fd5b505050506040513d601f19601f820116820180604052508101906135509190614f51565b61355a9190614feb565b6135649190614feb565b6060840152509095945050505050565b609e546127109061359090600160a01b900461ffff16846153c4565b61359a91906153f9565b609f60008282546135ab9190614eba565b9091555050609e54612710906135cc90600160a01b900461ffff16836153c4565b6135d691906153f9565b60a060008282546135e79190614eba565b9091555061271090506135fb60fa846153c4565b61360591906153f9565b609c60008282546136169190614eba565b90915550612710905061362a60fa836153c4565b61363491906153f9565b609d60008282546136459190614eba565b90915550505050565b8015806136c85750604051636eb1769f60e11b81523060048201526001600160a01b03838116602483015284169063dd62ed3e90604401602060405180830381865afa1580156136a2573d6000803e3d6000fd5b505050506040513d601f19601f820116820180604052508101906136c69190614f51565b155b6137335760405162461bcd60e51b815260206004820152603660248201527f5361666545524332303a20617070726f76652066726f6d206e6f6e2d7a65726f60448201527520746f206e6f6e2d7a65726f20616c6c6f77616e636560501b6064820152608401610747565b6115178363095ea7b360e01b848460405160240161375292919061541b565b60408051601f198184030181529190526020810180516001600160e01b03166001600160e01b0319909316929092179091526142c4565b600061379584846125b9565b905060001981146123b857818110156137f05760405162461bcd60e51b815260206004820152601d60248201527f45524332303a20696e73756666696369656e7420616c6c6f77616e63650000006044820152606401610747565b6123b884848484036130de565b6001600160a01b0383166138615760405162461bcd60e51b815260206004820152602560248201527f45524332303a207472616e736665722066726f6d20746865207a65726f206164604482015264647265737360d81b6064820152608401610747565b6001600160a01b0382166138c35760405162461bcd60e51b815260206004820152602360248201527f45524332303a207472616e7366657220746f20746865207a65726f206164647260448201526265737360e81b6064820152608401610747565b6001600160a01b0383166000908152603360205260409020548181101561393b5760405162461bcd60e51b815260206004820152602660248201527f45524332303a207472616e7366657220616d6f756e7420657863656564732062604482015265616c616e636560d01b6064820152608401610747565b6001600160a01b03808516600090815260336020526040808220858503905591851681529081208054849290613972908490614eba565b92505081905550826001600160a01b0316846001600160a01b0316600080516020615645833981519152846040516139ac91815260200190565b60405180910390a36123b8565b600061129b836001600160a01b038416614396565b60008054600160a81b900460ff1615613a1e578160ff1660011480156139fa57506139f830614489565b155b613a165760405162461bcd60e51b815260040161074790615434565b506000919050565b60005460ff808416600160a01b9092041610613a4c5760405162461bcd60e51b815260040161074790615434565b506000805460ff909216600160a01b0260ff60a01b19909216919091179055600190565b600054600160a81b900460ff16613a995760405162461bcd60e51b815260040161074790615482565b611e048282614498565b600054600160a81b900460ff16613acc5760405162461bcd60e51b815260040161074790615482565b613ad46144e8565b565b600061129b836001600160a01b038416614518565b60005b81811015611517576000838383818110613b0a57613b0a614dee565b9050602002016020810190613b1f9190614bd2565b6001600160a01b031603613b455760405162461bcd60e51b81526004016107479061505c565b613b5a83838381811061245c5761245c614dee565b15613b925760405162461bcd60e51b815260206004820152600860248201526737b832b930ba37b960c11b6044820152606401610747565b613bc4838383818110613ba757613ba7614dee565b9050602002016020810190613bbc9190614bd2565b60a290613ad6565b5080613bcf81614ed2565b915050613aee565b60005b83811015613e51576000613bf986868481811061263657612636614dee565b5090508015613c1a5760405162461bcd60e51b8152600401610747906154cd565b60007f00000000000000000000000000000000000000000000000000000000000000006001600160a01b0316631698ee8286868a8a88818110613c5f57613c5f614dee565b9050606002016040016020810190613c779190614904565b6040518463ffffffff1660e01b8152600401613c9593929190614e04565b602060405180830381865afa158015613cb2573d6000803e3d6000fd5b505050506040513d601f19601f82011682018060405250810190613cd69190614e2c565b6001600160a01b031603613d2a5760405162461bcd60e51b815260206004820152601b60248201527a1d5b9a5cddd85c081c1bdbdb08191bd95cc81b9bdd08195e1a5cdd602a1b6044820152606401610747565b73E1b3Dc2F7656d3036e4Fe9A3cA8F337925Ef4a7d63143e56407f000000000000000000000000000000000000000000000000000000000000000086868a8a88818110613d7957613d79614dee565b9050606002016040518563ffffffff1660e01b8152600401613d9e94939291906154ec565b602060405180830381865af4158015613dbb573d6000803e3d6000fd5b505050506040513d601f19601f82011682018060405250810190613ddf9190615558565b613dfb5760405162461bcd60e51b8152600401610747906154cd565b609b868684818110613e0f57613e0f614dee565b83546001810185556000948552602090942060609091029290920192919091019050613e3b8282615575565b5050508080613e4990614ed2565b915050613bda565b5050505050565b6115178363a9059cbb60e01b848460405160240161375292919061541b565b6000613e84848484614096565b905060008280613e9657613e966153e3565b848609111561129b576000198110613ead57600080fd5b80613eb781614ed2565b95945050505050565b6001600160a01b038216613f165760405162461bcd60e51b815260206004820152601f60248201527f45524332303a206d696e7420746f20746865207a65726f2061646472657373006044820152606401610747565b8060356000828254613f289190614eba565b90915550506001600160a01b03821660009081526033602052604081208054839290613f55908490614eba565b90915550506040518181526001600160a01b038316906000906000805160206156458339815191529060200160405180910390a35050565b6040516001600160a01b03808516602483015283166044820152606481018290526123b89085906323b872dd60e01b90608401613752565b60005b81811015611517576000838383818110613fe457613fe4614dee565b9050602002016020810190613ff99190614bd2565b6001600160a01b03160361401f5760405162461bcd60e51b81526004016107479061505c565b61403483838381811061147e5761147e614dee565b156140515760405162461bcd60e51b815260040161074790615161565b61408383838381811061406657614066614dee565b905060200201602081019061407b9190614bd2565b60a490613ad6565b508061408e81614ed2565b915050613fc8565b60008080600019858709858702925082811083820303915050806000036140cf57600084116140c457600080fd5b50829004905061129b565b8084116140db57600080fd5b60008486880960026001871981018816978890046003810283188082028403028082028403028082028403028082028403028082028403029081029092039091026000889003889004909101858311909403939093029303949094049190911702949350505050565b6001600160a01b0382166141a45760405162461bcd60e51b815260206004820152602160248201527f45524332303a206275726e2066726f6d20746865207a65726f206164647265736044820152607360f81b6064820152608401610747565b6001600160a01b038216600090815260336020526040902054818110156142185760405162461bcd60e51b815260206004820152602260248201527f45524332303a206275726e20616d6f756e7420657863656564732062616c616e604482015261636560f01b6064820152608401610747565b6001600160a01b0383166000908152603360205260408120838303905560358054849290614247908490614feb565b90915550506040518281526000906001600160a01b038516906000805160206156458339815191529060200160405180910390a3505050565b602080820151805191810151604091820151915163c79201a360e01b8152610747939290600401614a4f565b60009081526001919091016020526040902054151590565b6000614319826040518060400160405280602081526020017f5361666545524332303a206c6f772d6c6576656c2063616c6c206661696c6564815250856001600160a01b03166145629092919063ffffffff16565b80519091501561151757808060200190518101906143379190615558565b6115175760405162461bcd60e51b815260206004820152602a60248201527f5361666545524332303a204552433230206f7065726174696f6e20646964206e6044820152691bdd081cdd58d8d9595960b21b6064820152608401610747565b6000818152600183016020526040812054801561447f5760006143ba600183614feb565b85549091506000906143ce90600190614feb565b90508181146144335760008660000182815481106143ee576143ee614dee565b906000526020600020015490508087600001848154811061441157614411614dee565b6000918252602080832090910192909255918252600188019052604090208390555b8554869080614444576144446155fc565b60019003818190600052602060002001600090559055856001016000868152602001908152602001600020600090556001935050505061071f565b600091505061071f565b6001600160a01b03163b151590565b600054600160a81b900460ff166144c15760405162461bcd60e51b815260040161074790615482565b81516144d4906036906020850190614709565b508051611517906037906020840190614709565b600054600160a81b900460ff166145115760405162461bcd60e51b815260040161074790615482565b6001606555565b600061452483836142ac565b61455a5750815460018181018455600084815260208082209093018490558454848252828601909352604090209190915561071f565b50600061071f565b60606145718484600085614579565b949350505050565b6060824710156145da5760405162461bcd60e51b815260206004820152602660248201527f416464726573733a20696e73756666696369656e742062616c616e636520666f6044820152651c8818d85b1b60d21b6064820152608401610747565b6145e385614489565b61462f5760405162461bcd60e51b815260206004820152601d60248201527f416464726573733a2063616c6c20746f206e6f6e2d636f6e74726163740000006044820152606401610747565b600080866001600160a01b0316858760405161464b9190615612565b60006040518083038185875af1925050503d8060008114614688576040519150601f19603f3d011682016040523d82523d6000602084013e61468d565b606091505b509150915061469d8282866146a8565b979650505050505050565b606083156146b757508161129b565b8251156146c75782518084602001fd5b8160405162461bcd60e51b815260040161074791906147ce565b6040518060800160405280600081526020016000815260200160008152602001600081525090565b82805461471590614d3a565b90600052602060002090601f016020900481019282614737576000855561477d565b82601f1061475057805160ff191683800117855561477d565b8280016001018555821561477d579182015b8281111561477d578251825591602001919060010190614762565b5061478992915061478d565b5090565b5b80821115614789576000815560010161478e565b60005b838110156147bd5781810151838201526020016147a5565b838111156123b85750506000910152565b60208152600082518060208401526147ed8160408501602087016147a2565b601f01601f19169190910160400192915050565b6001600160a01b038116811461481657600080fd5b50565b6000806040838503121561482c57600080fd5b823561483781614801565b946020939093013593505050565b6001600160a01b03169052565b6001600160a01b0391909116815260200190565b60006060828403121561487857600080fd5b50919050565b60006020828403121561489057600080fd5b81356001600160401b038111156148a657600080fd5b61457184828501614866565b6000806000606084860312156148c757600080fd5b83356148d281614801565b925060208401356148e281614801565b929592945050506040919091013590565b62ffffff8116811461481657600080fd5b60006020828403121561491657600080fd5b813561129b816148f3565b805160020b8252602081015160020b602083015262ffffff60408201511660408301525050565b6020808252825182820181905260009190848201906040850190845b8181101561498a57614977838551614921565b9284019260609290920191600101614964565b50909695505050505050565b8060020b811461481657600080fd5b6000602082840312156149b757600080fd5b813561129b81614996565b600080602083850312156149d557600080fd5b82356001600160401b03808211156149ec57600080fd5b818501915085601f830112614a0057600080fd5b813581811115614a0f57600080fd5b8660208260051b8501011115614a2457600080fd5b60209290920196919550909350505050565b600060208284031215614a4857600080fd5b5035919050565b600293840b81529190920b602082015262ffffff909116604082015260600190565b600060608284031215614a8357600080fd5b61129b8383614866565b60008083601f840112614a9f57600080fd5b5081356001600160401b03811115614ab657600080fd5b602083019150836020828501011115614ace57600080fd5b9250929050565b600080600080600060608688031215614aed57600080fd5b85356001600160401b0380821115614b0457600080fd5b614b1089838a01614a8d565b90975095506020880135915080821115614b2957600080fd5b614b3589838a01614a8d565b90955093506040880135915080821115614b4e57600080fd5b5086016101808189031215614b6257600080fd5b809150509295509295909350565b60008060208385031215614b8357600080fd5b82356001600160401b0380821115614b9a57600080fd5b818501915085601f830112614bae57600080fd5b813581811115614bbd57600080fd5b866020606083028501011115614a2457600080fd5b600060208284031215614be457600080fd5b813561129b81614801565b60008060408385031215614c0257600080fd5b823591506020830135614c1481614801565b809150509250929050565b918252602082015260400190565b60008060008060608587031215614c4357600080fd5b843593506020850135925060408501356001600160401b03811115614c6757600080fd5b614c7387828801614a8d565b95989497509550505050565b60008060408385031215614c9257600080fd5b8235614c9d81614801565b91506020830135614c1481614801565b60008060008060608587031215614cc357600080fd5b84356001600160401b0380821115614cda57600080fd5b818701915087601f830112614cee57600080fd5b813581811115614cfd57600080fd5b8860208260071b8501011115614d1257600080fd5b6020928301965094505085013591506040850135614d2f81614801565b939692955090935050565b600181811c90821680614d4e57607f821691505b60208210810361487857634e487b7160e01b600052602260045260246000fd5b6020808252601f908201527f5265656e7472616e637947756172643a207265656e7472616e742063616c6c00604082015260600190565b6000808335601e19843603018112614dbc57600080fd5b8301803591506001600160401b03821115614dd657600080fd5b6020019150600781901b3603821315614ace57600080fd5b634e487b7160e01b600052603260045260246000fd5b6001600160a01b03938416815291909216602082015262ffffff909116604082015260600190565b600060208284031215614e3e57600080fd5b815161129b81614801565b6001600160a01b0393909316835262ffffff91909116602083015260020b604082015260600190565b6001600160801b038116811461481657600080fd5b600060208284031215614e9957600080fd5b813561129b81614e72565b634e487b7160e01b600052601160045260246000fd5b60008219821115614ecd57614ecd614ea4565b500190565b600060018201614ee457614ee4614ea4565b5060010190565b938452602084019290925261ffff908116604084015216606082015260800190565b60008060408385031215614f2057600080fd5b505080516020909101519092909150565b60008235609e19833603018112614f4757600080fd5b9190910192915050565b600060208284031215614f6357600080fd5b5051919050565b6000808335601e19843603018112614f8157600080fd5b8301803591506001600160401b03821115614f9b57600080fd5b602001915036819003821315614ace57600080fd5b8183823760009101908152919050565b801515811461481657600080fd5b600060208284031215614fe057600080fd5b813561129b81614fc0565b600082821015614ffd57614ffd614ea4565b500390565b6020808252600b908201526a1cddd85c0819985a5b195960aa1b604082015260600190565b6020808252818101527f4f776e61626c653a2063616c6c6572206973206e6f7420746865206f776e6572604082015260600190565b6020808252600c908201526b61646472657373205a65726f60a01b604082015260600190565b6000808335601e1984360301811261509957600080fd5b8301803591506001600160401b038211156150b357600080fd5b6020019150600581901b3603821315614ace57600080fd5b6000808335601e198436030181126150e257600080fd5b8301803591506001600160401b038211156150fc57600080fd5b6020019150606081023603821315614ace57600080fd5b60006020828403121561512557600080fd5b813561ffff8116811461129b57600080fd5b60208082526010908201526f36b0bc2a3bb0b82232bb34b0ba34b7b760811b604082015260600190565b6020808252600490820152631c1bdbdb60e21b604082015260600190565b6020808252825160a083830152805160c0840181905260009291820190839060e08601905b808310156151cd576151b7828551614921565b60608201915084840193506001830192506151a4565b5092860151926151e06040870185614845565b604087015193506151f46060870185614845565b606087015193506152086080870185614845565b6080870151935061521c60a0870185614845565b9695505050505050565b6000806000806080858703121561523c57600080fd5b505082516020840151604085015160609095015191969095509092509050565b6001600160a01b0394909416845260208401929092526040830152606082015260800190565b6020808252600f908201526e31b0b6363130b1b59031b0b63632b960891b604082015260600190565b604051606081016001600160401b03811182821017156152db57634e487b7160e01b600052604160045260246000fd5b60405290565b600081830360808112156152f457600080fd5b604080519081016001600160401b038111828210171561532457634e487b7160e01b600052604160045260246000fd5b604052833561533281614e72565b81526060601f198301121561534657600080fd5b61534e6152ab565b9150602084013561535e81614996565b8252604084013561536e81614996565b60208301526060840135615381816148f3565b604083015260208101919091529392505050565b600080604083850312156153a857600080fd5b82516153b381614e72565b6020840151909250614c1481614e72565b60008160001904831182151516156153de576153de614ea4565b500290565b634e487b7160e01b600052601260045260246000fd5b60008261541657634e487b7160e01b600052601260045260246000fd5b500490565b6001600160a01b03929092168252602082015260400190565b6020808252602e908201527f496e697469616c697a61626c653a20636f6e747261637420697320616c72656160408201526d191e481a5b9a5d1a585b1a5e995960921b606082015260800190565b6020808252602b908201527f496e697469616c697a61626c653a20636f6e7472616374206973206e6f74206960408201526a6e697469616c697a696e6760a81b606082015260800190565b60208082526005908201526472616e676560d81b604082015260600190565b6001600160a01b03858116825284811660208301528316604082015260c08101823561551781614996565b60020b6060830152602083013561552d81614996565b60020b60808301526040830135615543816148f3565b62ffffff811660a08401525095945050505050565b60006020828403121561556a57600080fd5b815161129b81614fc0565b813561558081614996565b815462ffffff82811662ffffff19831617845560208501356155a181614996565b8060181b9050818416935065ffffff00000091508082168465ffffffffffff1985161717855560408601356155d5816148f3565b91166001600160481b0319929092169092171760309190911b62ffffff60301b1617905550565b634e487b7160e01b600052603160045260246000fd5b60008251614f478184602087016147a256fe8be0079c531659141344cd1fd0a4f28419497f9722a3daafe3b4186f6b6457e0ddf252ad1be2c89b69c2b068fc378daa952ba7f163c4a11628f55a4df523b3ef4c60206a5c1de41f3376d1d60f0949d96cb682033c90b1c2d9d9a62d4c4120c0c28ad1de9c0c32e5394ba60323e44d8d9536312236a47231772e448a3e49de42a264697066735822122073f16ce51b0f73babae12266dd4615cd00fb4fd09e073e53a576f5ec4d2b0a1964736f6c634300080d0033",
  "deployedBytecode": "0x608060405234801561001057600080fd5b50600436106102515760003560e01c8063065756db1461025657806306fdde0314610272578063095ea7b3146102875780630dfe1681146102aa57806314b80630146102ca57806318160ddd146102d35780631932bbc6146102db57806323b872dd146102f057806326d8954514610303578063313ce5671461032d5780633926ab5f1461033c578063395093511461034f578063397a877e146103625780633cbff3fe1461037757806342fb9d441461038a5780634b1641401461039357806354fd4d50146103a65780635fdecdfa146103ca578063670f13a1146103ec5780636b8f095e14610416578063701c2a8d1461042957806370a082311461043c578063715018a6146104655780637ecd67171461046d57806387e60235146104755780638da5cb5b1461048857806394bf804d1461049057806395d89b41146104b1578063a07aea1c146104b9578063a457c2d7146104cc578063a9059cbb146104df578063ad1b78b4146104f2578063b36a4ab1146104fa578063b9f24cb21461050d578063bbfe704e14610534578063c45a01551461053d578063c707504114610564578063cc95353e1461057f578063ccdf7a0214610592578063d21220a7146105a7578063d3487997146105ba578063d365a377146105cd578063d8953ca7146105e0578063dc9ad4c1146105e9578063dd62ed3e146105f1578063e41e0bb014610604578063e7c7cb9114610617578063f2eb3e3414610637578063f2fde38b14610640578063f4effe4114610653578063fa461e3314610666575b600080fd5b61025f609f5481565b6040519081526020015b60405180910390f35b61027a610679565b60405161026991906147ce565b61029a610295366004614819565b61070b565b6040519015158152602001610269565b6097546102bd906001600160a01b031681565b6040516102699190614852565b61025f60995481565b60355461025f565b6102ee6102e936600461487e565b610725565b005b61029a6102fe3660046148b2565b61127c565b60a154610319906301000000900462ffffff1681565b60405162ffffff9091168152602001610269565b60405160128152602001610269565b6102ee61034a366004614904565b6112a2565b61029a61035d366004614819565b6112f5565b61036a611317565b6040516102699190614948565b6102ee6103853660046149a5565b611397565b61025f60a05481565b6102ee6103a13660046149c2565b6113e0565b61027a604051806040016040528060058152602001640312e302e360dc1b81525081565b6103dd6103d8366004614a36565b61151c565b60405161026993929190614a4f565b6103ff6103fa366004614a71565b611558565b604080519215158352602083019190915201610269565b6102ee610424366004614ad5565b61164e565b6102ee610437366004614b70565b611db5565b61025f61044a366004614bd2565b6001600160a01b031660009081526033602052604090205490565b6102ee611e08565b6102ee611e6f565b6102ee610483366004614bd2565b611f04565b6102bd611f55565b6104a361049e366004614bef565b611f64565b604051610269929190614c1f565b61027a612242565b6102ee6104c73660046149c2565b612251565b61029a6104da366004614819565b61228a565b61029a6104ed366004614819565b612310565b609b5461025f565b6102ee6105083660046149c2565b61231e565b6102bd7f000000000000000000000000000000000000000000000000000000000000000081565b61025f609d5481565b6102bd7f000000000000000000000000000000000000000000000000000000000000000081565b61056c60fa81565b60405161ffff9091168152602001610269565b609e546102bd906001600160a01b031681565b609e5461056c90600160a01b900461ffff1681565b6098546102bd906001600160a01b031681565b6102ee6105c8366004614c2d565b612357565b6102ee6105db3660046149c2565b6123be565b61025f609c5481565b6102ee6124fc565b61025f6105ff366004614c7f565b6125b9565b6102ee610612366004614b70565b6125e4565b60a1546106249060020b81565b60405160029190910b8152602001610269565b61025f609a5481565b6102ee61064e366004614bd2565b6126bf565b6104a3610661366004614cad565b61279c565b6102ee610674366004614c2d565b613064565b60606036805461068890614d3a565b80601f01602080910402602001604051908101604052809291908181526020018280546106b490614d3a565b80156107015780601f106106d657610100808354040283529160200191610701565b820191906000526020600020905b8154815290600101906020018083116106e457829003601f168201915b5050505050905090565b6000336107198185856130de565b60019150505b92915050565b6002606554036107505760405162461bcd60e51b815260040161074790614d6e565b60405180910390fd5b600260655561076060a233613202565b61079a5760405162461bcd60e51b815260206004820152600b60248201526a37379037b832b930ba37b960a91b6044820152606401610747565b60008060005b6107aa8480614da5565b9050811015610a28576097546098546000916001600160a01b037f0000000000000000000000000000000000000000000000000000000000000000811692631698ee8292821691166107fc8980614da5565b8781811061080c5761080c614dee565b610823926080918202019081019150606001614904565b6040518463ffffffff1660e01b815260040161084193929190614e04565b602060405180830381865afa15801561085e573d6000803e3d6000fd5b505050506040513d601f19601f820116820180604052508101906108829190614e2c565b90508061089060a482613202565b6108cd576108cd6108a18780614da5565b858181106108b1576108b1614dee565b6108c8926080918202019081019150606001614904565b613217565b60a15460405163db46de5360e01b815273__$fa5a18c13b4d815a743b91389b9a36db0f$__9163db46de539161091891859162ffffff63010000008304169160020b90600401614e49565b60006040518083038186803b15801561093057600080fd5b505af4158015610944573d6000803e3d6000fd5b50600092506109ec915083905061095b8980614da5565b8781811061096b5761096b614dee565b61098492604060809092020190810191506020016149a5565b61098e8a80614da5565b8881811061099e5761099e614dee565b6109b792606060809092020190810191506040016149a5565b6109c18b80614da5565b898181106109d1576109d1614dee565b6109e79260206080909202019081019150614e87565b613237565b90508060400151866109fe9190614eba565b9550806060015185610a109190614eba565b94505050508080610a2090614ed2565b9150506107a0565b506000821180610a385750600081115b15610b1257610a478282613574565b609e54604051636d50cdaf60e01b815273__$30ef26875820c516a3c36c5c0a5fd73943$__91636d50cdaf91610a929186918691600160a01b900461ffff169060fa90600401614eeb565b6040805180830381865af4158015610aae573d6000803e3d6000fd5b505050506040513d601f19601f82011682018060405250810190610ad29190614f0d565b60405191935091507f079325979cf9aa65ff27d4b221f4120fff56c3699daca3fe0866499ebf9b1a1a90610b099084908490614c1f565b60405180910390a15b6000610b216040850185614f31565b604001351115610fa9576097546040516370a0823160e01b81526000916001600160a01b0316906370a0823190610b5c903090600401614852565b602060405180830381865afa158015610b79573d6000803e3d6000fd5b505050506040513d601f19601f82011682018060405250810190610b9d9190614f51565b6098546040516370a0823160e01b81529192506000916001600160a01b03909116906370a0823190610bd3903090600401614852565b602060405180830381865afa158015610bf0573d6000803e3d6000fd5b505050506040513d601f19601f82011682018060405250810190610c149190614f51565b9050610c4b610c266040870187614f31565b610c37906040810190602001614bd2565b6097546001600160a01b031690600061364e565b610c80610c5b6040870187614f31565b610c6c906040810190602001614bd2565b6098546001600160a01b031690600061364e565b610cb4610c906040870187614f31565b610ca1906040810190602001614bd2565b6097546001600160a01b0316908461364e565b610ce8610cc46040870187614f31565b610cd5906040810190602001614bd2565b6098546001600160a01b0316908361364e565b6000610cf76040870187614f31565b610d08906040810190602001614bd2565b6001600160a01b0316610d1e6040880188614f31565b610d289080614f6a565b604051610d36929190614fb0565b6000604051808303816000865af19150503d8060008114610d73576040519150601f19603f3d011682016040523d82523d6000602084013e610d78565b606091505b5050905080610db25760405162461bcd60e51b8152600401610747906020808252600490820152630737761760e41b604082015260600190565b610dc2610c266040880188614f31565b610dd2610c5b6040880188614f31565b6097546040516370a0823160e01b81526000916001600160a01b0316906370a0823190610e03903090600401614852565b602060405180830381865afa158015610e20573d6000803e3d6000fd5b505050506040513d601f19601f82011682018060405250810190610e449190614f51565b6098546040516370a0823160e01b81529192506000916001600160a01b03909116906370a0823190610e7a903090600401614852565b602060405180830381865afa158015610e97573d6000803e3d6000fd5b505050506040513d601f19601f82011682018060405250810190610ebb9190614f51565b9050610eca6040890189614f31565b610edb9060a0810190608001614fce565b15610f4457610eed6040890189614f31565b610efb906060013585614eba565b8110158015610f235750610f126040890189614f31565b610f20906040013586614feb565b82145b610f3f5760405162461bcd60e51b815260040161074790615002565b610fa3565b610f516040890189614f31565b610f5f906060013586614eba565b8210158015610f875750610f766040890189614f31565b610f84906040013585614feb565b81145b610fa35760405162461bcd60e51b815260040161074790615002565b50505050505b60005b610fb96020850185614da5565b9050811015611271576097546098546000916001600160a01b037f0000000000000000000000000000000000000000000000000000000000000000811692631698ee82928216911661100e60208a018a614da5565b8781811061101e5761101e614dee565b611035926080918202019081019150606001614904565b6040518463ffffffff1660e01b815260040161105393929190614e04565b602060405180830381865afa158015611070573d6000803e3d6000fd5b505050506040513d601f19601f820116820180604052508101906110949190614e2c565b60a15460405163db46de5360e01b815291925073__$fa5a18c13b4d815a743b91389b9a36db0f$__9163db46de53916110e591859162ffffff63010000008204169160029190910b90600401614e49565b60006040518083038186803b1580156110fd57600080fd5b505af4158015611111573d6000803e3d6000fd5b5050506001600160a01b0382169050633c8a7d8d306111336020890189614da5565b8681811061114357611143614dee565b61115c92604060809092020190810191506020016149a5565b61116960208a018a614da5565b8781811061117957611179614dee565b61119292606060809092020190810191506040016149a5565b61119f60208b018b614da5565b888181106111af576111af614dee565b6111c59260206080909202019081019150614e87565b6040516001600160e01b031960e087901b1681526001600160a01b039094166004850152600292830b6024850152910b60448301526001600160801b0316606482015260a06084820152600060a482015260c40160408051808303816000875af1158015611237573d6000803e3d6000fd5b505050506040513d601f19601f8201168201806040525081019061125b9190614f0d565b505050808061126990614ed2565b915050610fac565b505060016065555050565b60003361128a858285613789565b6112958585856137fd565b60019150505b9392505050565b336112ab611f55565b6001600160a01b0316146112d15760405162461bcd60e51b815260040161074790615027565b60a1805462ffffff90921663010000000265ffffff00000019909216919091179055565b60003361071981858561130883836125b9565b6113129190614eba565b6130de565b6060609b805480602002602001604051908101604052809291908181526020016000905b8282101561138e5760008481526020908190206040805160608101825291850154600281810b845263010000008204900b83850152600160301b900462ffffff169082015282526001909201910161133b565b50505050905090565b336113a0611f55565b6001600160a01b0316146113c65760405162461bcd60e51b815260040161074790615027565b60a1805462ffffff191662ffffff92909216919091179055565b336113e9611f55565b6001600160a01b03161461140f5760405162461bcd60e51b815260040161074790615027565b60005b8181101561151757600083838381811061142e5761142e614dee565b90506020020160208101906114439190614bd2565b6001600160a01b0316036114695760405162461bcd60e51b81526004016107479061505c565b61149b83838381811061147e5761147e614dee565b90506020020160208101906114939190614bd2565b60a490613202565b6114d25760405162461bcd60e51b81526020600482015260086024820152671b9bdd081c1bdbdb60c21b6044820152606401610747565b6115048383838181106114e7576114e7614dee565b90506020020160208101906114fc9190614bd2565b60a4906139b9565b508061150f81614ed2565b915050611412565b505050565b609b818154811061152c57600080fd5b600091825260209091200154600281810b925063010000008204900b90600160301b900462ffffff1683565b60008060005b609b5481101561164857609b818154811061157b5761157b614dee565b6000918252602091829020015460020b90611598908601866149a5565b60020b1480156115e35750609b81815481106115b6576115b6614dee565b600091825260209182902001546301000000900460020b906115de90604087019087016149a5565b60020b145b801561162c5750609b81815481106115fd576115fd614dee565b600091825260209091200154600160301b900462ffffff166116256060860160408701614904565b62ffffff16145b925080915082611648578061164081614ed2565b91505061155e565b50915091565b600061165a60016139ce565b90508015611676576000805460ff60a81b1916600160a81b1790555b60006116828380615082565b9050116116bf5760405162461bcd60e51b815260206004820152600b60248201526a3737903332b2903a34b2b960a91b6044820152606401610747565b60006116d16040840160208501614bd2565b6001600160a01b0316036117105760405162461bcd60e51b81526020600482015260066024820152650746f6b656e360d41b6044820152606401610747565b60006117226060840160408501614bd2565b6001600160a01b0316036117615760405162461bcd60e51b8152602060048201526006602482015265746f6b656e3160d01b6044820152606401610747565b60006117706080840184615082565b9050116117ae5760405162461bcd60e51b815260206004820152600c60248201526b6e6f206f70657261746f727360a01b6044820152606401610747565b60006117bd60a08401846150cb565b9050116117f85760405162461bcd60e51b81526020600482015260096024820152686e6f2072616e67657360b81b6044820152606401610747565b60008260c00135116118345760405162461bcd60e51b81526020600482015260056024820152640696e6974360dc1b6044820152606401610747565b60008260e00135116118705760405162461bcd60e51b8152602060048201526005602482015264696e69743160d81b6044820152606401610747565b600061188461012084016101008501614bd2565b6001600160a01b0316036118f4576118a461014083016101208401615113565b61ffff16156118ef5760405162461bcd60e51b815260206004820152601760248201527637379020b2323932b9b9902d32b9379026b0b730b3b2b960491b6044820152606401610747565b61194b565b61271061190961014084016101208501615113565b61ffff16111561194b5760405162461bcd60e51b815260206004820152600d60248201526c6d616e6167657246656542505360981b6044820152606401610747565b600061195f610160840161014085016149a5565b60020b1361197f5760405162461bcd60e51b815260040161074790615137565b600061199361018084016101608501614904565b62ffffff16116119b55760405162461bcd60e51b815260040161074790615137565b611a2886868080601f01602080910402602001604051908101604052809392919081815260200183838082843760009201919091525050604080516020601f8a018190048102820181019092528881529250889150879081908401838280828437600092019190915250613a7092505050565b611a30613aa3565b60005b611a3d8380615082565b9050811015611bbb5760006001600160a01b037f000000000000000000000000000000000000000000000000000000000000000016631698ee82611a876040870160208801614bd2565b611a976060880160408901614bd2565b611aa18880615082565b87818110611ab157611ab1614dee565b9050602002016020810190611ac69190614904565b6040518463ffffffff1660e01b8152600401611ae493929190614e04565b602060405180830381865afa158015611b01573d6000803e3d6000fd5b505050506040513d601f19601f82011682018060405250810190611b259190614e2c565b90506001600160a01b038116611b735760405162461bcd60e51b81526020600482015260136024820152721c1bdbdb08191bd95cc81b9bdd08195e1a5cdd606a1b6044820152606401610747565b611b7e60a482613202565b15611b9b5760405162461bcd60e51b815260040161074790615161565b611ba660a482613ad6565b50508080611bb390614ed2565b915050611a33565b50611bcc6040830160208401614bd2565b609780546001600160a01b0319166001600160a01b0392909216919091179055611bfc6060830160408401614bd2565b609880546001600160a01b0319166001600160a01b0392909216919091179055611c2c6080830160608401614bd2565b600080546001600160a01b0319166001600160a01b0392909216919091179055611c61611c5c6080840184615082565b613aeb565b611c96611c7160a08401846150cb565b611c816040860160208701614bd2565b611c916060870160408801614bd2565b613bd7565b60c082013560995560e0820135609a55611cb861012083016101008401614bd2565b609e80546001600160a01b0319166001600160a01b0392909216919091179055611cea61014083016101208401615113565b609e805461ffff92909216600160a01b0261ffff60a01b19909216919091179055611d1d610160830161014084016149a5565b60a1805462ffffff191662ffffff92909216919091179055611d4761018083016101608401614904565b60a160036101000a81548162ffffff021916908362ffffff1602179055508015611dad576000805460ff60a81b19169055604051600181527f7f26b83ff96e1f2b6a682f133852f6798a09c465da95921460cefb38474024989060200160405180910390a15b505050505050565b33611dbe611f55565b6001600160a01b031614611de45760405162461bcd60e51b815260040161074790615027565b609754609854611e0491849184916001600160a01b039081169116613bd7565b5050565b33611e11611f55565b6001600160a01b031614611e375760405162461bcd60e51b815260040161074790615027565b600080546040516001600160a01b0390911690600080516020615625833981519152908390a3600080546001600160a01b0319169055565b609f805460a08054600093849055929055908115611ea457609e54609754611ea4916001600160a01b03918216911684613e58565b8015611ec757609e54609854611ec7916001600160a01b03918216911683613e58565b7f89efe8d94f73aa230d63a7da6b53e424cbf83e63d2940fb81a284e657303929a8282604051611ef8929190614c1f565b60405180910390a15050565b33611f0d611f55565b6001600160a01b031614611f335760405162461bcd60e51b815260040161074790615027565b609e80546001600160a01b0319166001600160a01b0392909216919091179055565b6000546001600160a01b031690565b600080600260655403611f895760405162461bcd60e51b815260040161074790614d6e565b600260655583611fc95760405162461bcd60e51b815260206004820152600b60248201526a1b5a5b9d08185b5bdd5b9d60aa1b6044820152606401610747565b6000611fd460355490565b905060008060008060008511611ff257609954609a54600080612146565b73__$3d23d8578387a47facd93bb77f6fe6e81b$__63e56f4d916040518060a00160405280609b805480602002602001604051908101604052809291908181526020016000905b8282101561208c5760008481526020908190206040805160608101825291850154600281810b845263010000008204900b83850152600160301b900462ffffff1690820152825260019092019101612039565b505050908252506001600160a01b037f0000000000000000000000000000000000000000000000000000000000000000811660208301526097548116604080840191909152609854909116606083015230608090920191909152516001600160e01b031960e084901b168152612105919060040161517f565b608060405180830381865af4158015612122573d6000803e3d6000fd5b505050506040513d601f19601f820116820180604052508101906121469190615226565b9350935093509350600080861161216557670de0b6b3a7640000612167565b855b90506121748a8683613e77565b97506121818a8583613e77565b965061218d898b613ec0565b87156121ab576097546121ab906001600160a01b031633308b613f8d565b86156121c9576098546121c9906001600160a01b031633308a613f8d565b60008051602061568583398151915283836040516121e8929190614c1f565b60405180910390a17f5a3358a3d27a5373c0df2604662088d37894d56b7cfd27f315770440f4e0d919898b8a8a604051612225949392919061525c565b60405180910390a150505050505060016065819055509250929050565b60606037805461068890614d3a565b3361225a611f55565b6001600160a01b0316146122805760405162461bcd60e51b815260040161074790615027565b611e048282613aeb565b6000338161229882866125b9565b9050838110156122f85760405162461bcd60e51b815260206004820152602560248201527f45524332303a2064656372656173656420616c6c6f77616e63652062656c6f77604482015264207a65726f60d81b6064820152608401610747565b61230582868684036130de565b506001949350505050565b6000336107198185856137fd565b33612327611f55565b6001600160a01b03161461234d5760405162461bcd60e51b815260040161074790615027565b611e048282613fc5565b61236260a433613202565b61237e5760405162461bcd60e51b815260040161074790615282565b831561239b5760975461239b906001600160a01b03163386613e58565b82156123b8576098546123b8906001600160a01b03163385613e58565b50505050565b336123c7611f55565b6001600160a01b0316146123ed5760405162461bcd60e51b815260040161074790615027565b60005b8181101561151757600083838381811061240c5761240c614dee565b90506020020160208101906124219190614bd2565b6001600160a01b0316036124475760405162461bcd60e51b81526004016107479061505c565b61247983838381811061245c5761245c614dee565b90506020020160208101906124719190614bd2565b60a290613202565b6124b75760405162461bcd60e51b815260206004820152600f60248201526e3737ba1030b71037b832b930ba37b960891b6044820152606401610747565b6124e98383838181106124cc576124cc614dee565b90506020020160208101906124e19190614bd2565b60a2906139b9565b50806124f481614ed2565b9150506123f0565b609c8054609d805460009384905592905590811561254b5760975461254b906001600160a01b03167f000000000000000000000000000000000000000000000000000000000000000084613e58565b801561258857609854612588906001600160a01b03167f000000000000000000000000000000000000000000000000000000000000000083613e58565b7f04a8160bc213279e35743081866b98b193dc70bb796faebc89776c0c306e135d8282604051611ef8929190614c1f565b6001600160a01b03918216600090815260346020908152604080832093909416825291909152205490565b336125ed611f55565b6001600160a01b0316146126135760405162461bcd60e51b815260040161074790615027565b60005b818110156115175760008061264185858581811061263657612636614dee565b905060600201611558565b915091508161267e5760405162461bcd60e51b81526020600482015260096024820152686e6f742072616e676560b81b6044820152606401610747565b609b818154811061269157612691614dee565b600091825260209091200180546001600160481b0319169055508190506126b781614ed2565b915050612616565b336126c8611f55565b6001600160a01b0316146126ee5760405162461bcd60e51b815260040161074790615027565b6001600160a01b0381166127535760405162461bcd60e51b815260206004820152602660248201527f4f776e61626c653a206e6577206f776e657220697320746865207a65726f206160448201526564647265737360d01b6064820152608401610747565b600080546040516001600160a01b038085169392169160008051602061562583398151915291a3600080546001600160a01b0319166001600160a01b0392909216919091179055565b6000806002606554036127c15760405162461bcd60e51b815260040161074790614d6e565b600260655560006127d160355490565b9050600081116128125760405162461bcd60e51b815260206004820152600c60248201526b746f74616c20737570706c7960a01b6044820152606401610747565b61284b6040518060c001604052806000815260200160008152602001600081526020016000815260200160008152602001600081525090565b73__$3d23d8578387a47facd93bb77f6fe6e81b$__63e56f4d916040518060a00160405280609b805480602002602001604051908101604052809291908181526020016000905b828210156128e55760008481526020908190206040805160608101825291850154600281810b845263010000008204900b83850152600160301b900462ffffff1690820152825260019092019101612892565b505050908252506001600160a01b037f0000000000000000000000000000000000000000000000000000000000000000811660208301526097548116604080840191909152609854909116606083015230608090920191909152516001600160e01b031960e084901b16815261295e919060040161517f565b608060405180830381865af415801561297b573d6000803e3d6000fd5b505050506040513d601f19601f8201168201806040525081019061299f9190615226565b6060850152604080850191909152602084019190915290825260975490516370a0823160e01b81526001600160a01b03909116906370a08231906129e7903090600401614852565b602060405180830381865afa158015612a04573d6000803e3d6000fd5b505050506040513d601f19601f82011682018060405250810190612a289190614f51565b60808201526098546040516370a0823160e01b81526001600160a01b03909116906370a0823190612a5d903090600401614852565b602060405180830381865afa158015612a7a573d6000803e3d6000fd5b505050506040513d601f19601f82011682018060405250810190612a9e9190614f51565b60a08201526040808201516060830151609e549251636d50cdaf60e01b8152600093849373__$30ef26875820c516a3c36c5c0a5fd73943$__93636d50cdaf93612af993600160a01b900461ffff169060fa90600401614eeb565b6040805180830381865af4158015612b15573d6000803e3d6000fd5b505050506040513d601f19601f82011682018060405250810190612b399190614f0d565b91509150818360400151612b4d9190614feb565b83518490612b5c908390614feb565b9052506060830151612b6f908290614feb565b83602001818151612b809190614feb565b905250508151612b9291508784614096565b9350612ba381602001518784614096565b925083816080015110158015612bbd5750828160a0015110155b15612c3857612bcc3387614144565b8315612be957609754612be9906001600160a01b03168686613e58565b8215612c0657609854612c06906001600160a01b03168685613e58565b60008051602061566583398151915285878686604051612c29949392919061525c565b60405180910390a15050613054565b86612c6d5760405162461bcd60e51b81526020600482015260056024820152646275726e7360d81b6044820152606401610747565b612c773387614144565b612c7f6146e1565b60005b88811015612ec457898982818110612c9c57612c9c614dee565b612cb29260206080909202019081019150614e87565b6001600160801b0316600003612cf257612cf28a8a83818110612cd757612cd7614dee565b905060800201803603810190612ced91906152e1565b614280565b6097546098546000916001600160a01b037f0000000000000000000000000000000000000000000000000000000000000000811692631698ee8292821691168e8e87818110612d4357612d43614dee565b612d5a926080918202019081019150606001614904565b6040518463ffffffff1660e01b8152600401612d7893929190614e04565b602060405180830381865afa158015612d95573d6000803e3d6000fd5b505050506040513d601f19601f82011682018060405250810190612db99190614e2c565b9050612dc660a482613202565b612ddf57612ddf8b8b848181106108b1576108b1614dee565b6000612e4d828d8d86818110612df757612df7614dee565b612e1092604060809092020190810191506020016149a5565b8e8e87818110612e2257612e22614dee565b612e3b92606060809092020190810191506040016149a5565b8f8f888181106109d1576109d1614dee565b9050806040015184604001818151612e659190614eba565b9052506060808201519085018051612e7e908390614eba565b905250805184518590612e92908390614eba565b9052506020808201519085018051612eab908390614eba565b905250829150612ebc905081614ed2565b915050612c82565b50612ed781604001518260600151613574565b6040818101516060830151609e549251636d50cdaf60e01b815273__$30ef26875820c516a3c36c5c0a5fd73943$__93636d50cdaf93612f2c9390929091600160a01b900461ffff169060fa90600401614eeb565b6040805180830381865af4158015612f48573d6000803e3d6000fd5b505050506040513d601f19601f82011682018060405250810190612f6c9190614f0d565b606083015260408201528415612f9357609754612f93906001600160a01b03168787613e58565b8315612fb057609854612fb0906001600160a01b03168786613e58565b805160208083015160408051338152928301939093528183015290517fbcc5876d59ecdf66ef7ccae24657b11650939218782f8d741e78fd3c35d285a39181900360600190a16000805160206156858339815191528160400151826060015160405161301d929190614c1f565b60405180910390a160008051602061566583398151915286888787604051613048949392919061525c565b60405180910390a15050505b6001606555909590945092505050565b61306f60a433613202565b61308b5760405162461bcd60e51b815260040161074790615282565b60008413156130b7576000546097546130b2916001600160a01b0391821691163387613f8d565b6123b8565b60008313156123b8576000546098546123b8916001600160a01b0391821691163386613f8d565b6001600160a01b0383166131405760405162461bcd60e51b8152602060048201526024808201527f45524332303a20617070726f76652066726f6d20746865207a65726f206164646044820152637265737360e01b6064820152608401610747565b6001600160a01b0382166131a15760405162461bcd60e51b815260206004820152602260248201527f45524332303a20617070726f766520746f20746865207a65726f206164647265604482015261737360f01b6064820152608401610747565b6001600160a01b0383811660008181526034602090815260408083209487168084529482529182902085905590518481527f8c5be1e5ebec7d5bd14f71427d1e84f3dd0314c0f7b2291e5b200ac8c7c3b925910160405180910390a3505050565b600061129b836001600160a01b0384166142ac565b604051634cb235d760e11b815262ffffff82166004820152602401610747565b61323f6146e1565b6097546040516370a0823160e01b81526000916001600160a01b0316906370a0823190613270903090600401614852565b602060405180830381865afa15801561328d573d6000803e3d6000fd5b505050506040513d601f19601f820116820180604052508101906132b19190614f51565b6098546040516370a0823160e01b81529192506000916001600160a01b03909116906370a08231906132e7903090600401614852565b602060405180830381865afa158015613304573d6000803e3d6000fd5b505050506040513d601f19601f820116820180604052508101906133289190614f51565b60405163a34123a760e01b8152600288810b600483015287900b60248201526001600160801b03861660448201529091506001600160a01b0388169063a34123a79060640160408051808303816000875af115801561338b573d6000803e3d6000fd5b505050506040513d601f19601f820116820180604052508101906133af9190614f0d565b602085015283526040516309e3d67b60e31b8152306004820152600287810b602483015286900b60448201526001600160801b036064820181905260848201526001600160a01b03881690634f1eb3d89060a40160408051808303816000875af1158015613421573d6000803e3d6000fd5b505050506040513d601f19601f820116820180604052508101906134459190615395565b505082516097546040516370a0823160e01b815284916001600160a01b0316906370a0823190613479903090600401614852565b602060405180830381865afa158015613496573d6000803e3d6000fd5b505050506040513d601f19601f820116820180604052508101906134ba9190614f51565b6134c49190614feb565b6134ce9190614feb565b604080850191909152602084015160985491516370a0823160e01b8152909183916001600160a01b03909116906370a082319061350f903090600401614852565b602060405180830381865afa15801561352c573d6000803e3d6000fd5b505050506040513d601f19601f820116820180604052508101906135509190614f51565b61355a9190614feb565b6135649190614feb565b6060840152509095945050505050565b609e546127109061359090600160a01b900461ffff16846153c4565b61359a91906153f9565b609f60008282546135ab9190614eba565b9091555050609e54612710906135cc90600160a01b900461ffff16836153c4565b6135d691906153f9565b60a060008282546135e79190614eba565b9091555061271090506135fb60fa846153c4565b61360591906153f9565b609c60008282546136169190614eba565b90915550612710905061362a60fa836153c4565b61363491906153f9565b609d60008282546136459190614eba565b90915550505050565b8015806136c85750604051636eb1769f60e11b81523060048201526001600160a01b03838116602483015284169063dd62ed3e90604401602060405180830381865afa1580156136a2573d6000803e3d6000fd5b505050506040513d601f19601f820116820180604052508101906136c69190614f51565b155b6137335760405162461bcd60e51b815260206004820152603660248201527f5361666545524332303a20617070726f76652066726f6d206e6f6e2d7a65726f60448201527520746f206e6f6e2d7a65726f20616c6c6f77616e636560501b6064820152608401610747565b6115178363095ea7b360e01b848460405160240161375292919061541b565b60408051601f198184030181529190526020810180516001600160e01b03166001600160e01b0319909316929092179091526142c4565b600061379584846125b9565b905060001981146123b857818110156137f05760405162461bcd60e51b815260206004820152601d60248201527f45524332303a20696e73756666696369656e7420616c6c6f77616e63650000006044820152606401610747565b6123b884848484036130de565b6001600160a01b0383166138615760405162461bcd60e51b815260206004820152602560248201527f45524332303a207472616e736665722066726f6d20746865207a65726f206164604482015264647265737360d81b6064820152608401610747565b6001600160a01b0382166138c35760405162461bcd60e51b815260206004820152602360248201527f45524332303a207472616e7366657220746f20746865207a65726f206164647260448201526265737360e81b6064820152608401610747565b6001600160a01b0383166000908152603360205260409020548181101561393b5760405162461bcd60e51b815260206004820152602660248201527f45524332303a207472616e7366657220616d6f756e7420657863656564732062604482015265616c616e636560d01b6064820152608401610747565b6001600160a01b03808516600090815260336020526040808220858503905591851681529081208054849290613972908490614eba565b92505081905550826001600160a01b0316846001600160a01b0316600080516020615645833981519152846040516139ac91815260200190565b60405180910390a36123b8565b600061129b836001600160a01b038416614396565b60008054600160a81b900460ff1615613a1e578160ff1660011480156139fa57506139f830614489565b155b613a165760405162461bcd60e51b815260040161074790615434565b506000919050565b60005460ff808416600160a01b9092041610613a4c5760405162461bcd60e51b815260040161074790615434565b506000805460ff909216600160a01b0260ff60a01b19909216919091179055600190565b600054600160a81b900460ff16613a995760405162461bcd60e51b815260040161074790615482565b611e048282614498565b600054600160a81b900460ff16613acc5760405162461bcd60e51b815260040161074790615482565b613ad46144e8565b565b600061129b836001600160a01b038416614518565b60005b81811015611517576000838383818110613b0a57613b0a614dee565b9050602002016020810190613b1f9190614bd2565b6001600160a01b031603613b455760405162461bcd60e51b81526004016107479061505c565b613b5a83838381811061245c5761245c614dee565b15613b925760405162461bcd60e51b815260206004820152600860248201526737b832b930ba37b960c11b6044820152606401610747565b613bc4838383818110613ba757613ba7614dee565b9050602002016020810190613bbc9190614bd2565b60a290613ad6565b5080613bcf81614ed2565b915050613aee565b60005b83811015613e51576000613bf986868481811061263657612636614dee565b5090508015613c1a5760405162461bcd60e51b8152600401610747906154cd565b60007f00000000000000000000000000000000000000000000000000000000000000006001600160a01b0316631698ee8286868a8a88818110613c5f57613c5f614dee565b9050606002016040016020810190613c779190614904565b6040518463ffffffff1660e01b8152600401613c9593929190614e04565b602060405180830381865afa158015613cb2573d6000803e3d6000fd5b505050506040513d601f19601f82011682018060405250810190613cd69190614e2c565b6001600160a01b031603613d2a5760405162461bcd60e51b815260206004820152601b60248201527a1d5b9a5cddd85c081c1bdbdb08191bd95cc81b9bdd08195e1a5cdd602a1b6044820152606401610747565b73__$57c880716d25c772e0b1e547659075b66d$__63143e56407f000000000000000000000000000000000000000000000000000000000000000086868a8a88818110613d7957613d79614dee565b9050606002016040518563ffffffff1660e01b8152600401613d9e94939291906154ec565b602060405180830381865af4158015613dbb573d6000803e3d6000fd5b505050506040513d601f19601f82011682018060405250810190613ddf9190615558565b613dfb5760405162461bcd60e51b8152600401610747906154cd565b609b868684818110613e0f57613e0f614dee565b83546001810185556000948552602090942060609091029290920192919091019050613e3b8282615575565b5050508080613e4990614ed2565b915050613bda565b5050505050565b6115178363a9059cbb60e01b848460405160240161375292919061541b565b6000613e84848484614096565b905060008280613e9657613e966153e3565b848609111561129b576000198110613ead57600080fd5b80613eb781614ed2565b95945050505050565b6001600160a01b038216613f165760405162461bcd60e51b815260206004820152601f60248201527f45524332303a206d696e7420746f20746865207a65726f2061646472657373006044820152606401610747565b8060356000828254613f289190614eba565b90915550506001600160a01b03821660009081526033602052604081208054839290613f55908490614eba565b90915550506040518181526001600160a01b038316906000906000805160206156458339815191529060200160405180910390a35050565b6040516001600160a01b03808516602483015283166044820152606481018290526123b89085906323b872dd60e01b90608401613752565b60005b81811015611517576000838383818110613fe457613fe4614dee565b9050602002016020810190613ff99190614bd2565b6001600160a01b03160361401f5760405162461bcd60e51b81526004016107479061505c565b61403483838381811061147e5761147e614dee565b156140515760405162461bcd60e51b815260040161074790615161565b61408383838381811061406657614066614dee565b905060200201602081019061407b9190614bd2565b60a490613ad6565b508061408e81614ed2565b915050613fc8565b60008080600019858709858702925082811083820303915050806000036140cf57600084116140c457600080fd5b50829004905061129b565b8084116140db57600080fd5b60008486880960026001871981018816978890046003810283188082028403028082028403028082028403028082028403028082028403029081029092039091026000889003889004909101858311909403939093029303949094049190911702949350505050565b6001600160a01b0382166141a45760405162461bcd60e51b815260206004820152602160248201527f45524332303a206275726e2066726f6d20746865207a65726f206164647265736044820152607360f81b6064820152608401610747565b6001600160a01b038216600090815260336020526040902054818110156142185760405162461bcd60e51b815260206004820152602260248201527f45524332303a206275726e20616d6f756e7420657863656564732062616c616e604482015261636560f01b6064820152608401610747565b6001600160a01b0383166000908152603360205260408120838303905560358054849290614247908490614feb565b90915550506040518281526000906001600160a01b038516906000805160206156458339815191529060200160405180910390a3505050565b602080820151805191810151604091820151915163c79201a360e01b8152610747939290600401614a4f565b60009081526001919091016020526040902054151590565b6000614319826040518060400160405280602081526020017f5361666545524332303a206c6f772d6c6576656c2063616c6c206661696c6564815250856001600160a01b03166145629092919063ffffffff16565b80519091501561151757808060200190518101906143379190615558565b6115175760405162461bcd60e51b815260206004820152602a60248201527f5361666545524332303a204552433230206f7065726174696f6e20646964206e6044820152691bdd081cdd58d8d9595960b21b6064820152608401610747565b6000818152600183016020526040812054801561447f5760006143ba600183614feb565b85549091506000906143ce90600190614feb565b90508181146144335760008660000182815481106143ee576143ee614dee565b906000526020600020015490508087600001848154811061441157614411614dee565b6000918252602080832090910192909255918252600188019052604090208390555b8554869080614444576144446155fc565b60019003818190600052602060002001600090559055856001016000868152602001908152602001600020600090556001935050505061071f565b600091505061071f565b6001600160a01b03163b151590565b600054600160a81b900460ff166144c15760405162461bcd60e51b815260040161074790615482565b81516144d4906036906020850190614709565b508051611517906037906020840190614709565b600054600160a81b900460ff166145115760405162461bcd60e51b815260040161074790615482565b6001606555565b600061452483836142ac565b61455a5750815460018181018455600084815260208082209093018490558454848252828601909352604090209190915561071f565b50600061071f565b60606145718484600085614579565b949350505050565b6060824710156145da5760405162461bcd60e51b815260206004820152602660248201527f416464726573733a20696e73756666696369656e742062616c616e636520666f6044820152651c8818d85b1b60d21b6064820152608401610747565b6145e385614489565b61462f5760405162461bcd60e51b815260206004820152601d60248201527f416464726573733a2063616c6c20746f206e6f6e2d636f6e74726163740000006044820152606401610747565b600080866001600160a01b0316858760405161464b9190615612565b60006040518083038185875af1925050503d8060008114614688576040519150601f19603f3d011682016040523d82523d6000602084013e61468d565b606091505b509150915061469d8282866146a8565b979650505050505050565b606083156146b757508161129b565b8251156146c75782518084602001fd5b8160405162461bcd60e51b815260040161074791906147ce565b6040518060800160405280600081526020016000815260200160008152602001600081525090565b82805461471590614d3a565b90600052602060002090601f016020900481019282614737576000855561477d565b82601f1061475057805160ff191683800117855561477d565b8280016001018555821561477d579182015b8281111561477d578251825591602001919060010190614762565b5061478992915061478d565b5090565b5b80821115614789576000815560010161478e565b60005b838110156147bd5781810151838201526020016147a5565b838111156123b85750506000910152565b60208152600082518060208401526147ed8160408501602087016147a2565b601f01601f19169190910160400192915050565b6001600160a01b038116811461481657600080fd5b50565b6000806040838503121561482c57600080fd5b823561483781614801565b946020939093013593505050565b6001600160a01b03169052565b6001600160a01b0391909116815260200190565b60006060828403121561487857600080fd5b50919050565b60006020828403121561489057600080fd5b81356001600160401b038111156148a657600080fd5b61457184828501614866565b6000806000606084860312156148c757600080fd5b83356148d281614801565b925060208401356148e281614801565b929592945050506040919091013590565b62ffffff8116811461481657600080fd5b60006020828403121561491657600080fd5b813561129b816148f3565b805160020b8252602081015160020b602083015262ffffff60408201511660408301525050565b6020808252825182820181905260009190848201906040850190845b8181101561498a57614977838551614921565b9284019260609290920191600101614964565b50909695505050505050565b8060020b811461481657600080fd5b6000602082840312156149b757600080fd5b813561129b81614996565b600080602083850312156149d557600080fd5b82356001600160401b03808211156149ec57600080fd5b818501915085601f830112614a0057600080fd5b813581811115614a0f57600080fd5b8660208260051b8501011115614a2457600080fd5b60209290920196919550909350505050565b600060208284031215614a4857600080fd5b5035919050565b600293840b81529190920b602082015262ffffff909116604082015260600190565b600060608284031215614a8357600080fd5b61129b8383614866565b60008083601f840112614a9f57600080fd5b5081356001600160401b03811115614ab657600080fd5b602083019150836020828501011115614ace57600080fd5b9250929050565b600080600080600060608688031215614aed57600080fd5b85356001600160401b0380821115614b0457600080fd5b614b1089838a01614a8d565b90975095506020880135915080821115614b2957600080fd5b614b3589838a01614a8d565b90955093506040880135915080821115614b4e57600080fd5b5086016101808189031215614b6257600080fd5b809150509295509295909350565b60008060208385031215614b8357600080fd5b82356001600160401b0380821115614b9a57600080fd5b818501915085601f830112614bae57600080fd5b813581811115614bbd57600080fd5b866020606083028501011115614a2457600080fd5b600060208284031215614be457600080fd5b813561129b81614801565b60008060408385031215614c0257600080fd5b823591506020830135614c1481614801565b809150509250929050565b918252602082015260400190565b60008060008060608587031215614c4357600080fd5b843593506020850135925060408501356001600160401b03811115614c6757600080fd5b614c7387828801614a8d565b95989497509550505050565b60008060408385031215614c9257600080fd5b8235614c9d81614801565b91506020830135614c1481614801565b60008060008060608587031215614cc357600080fd5b84356001600160401b0380821115614cda57600080fd5b818701915087601f830112614cee57600080fd5b813581811115614cfd57600080fd5b8860208260071b8501011115614d1257600080fd5b6020928301965094505085013591506040850135614d2f81614801565b939692955090935050565b600181811c90821680614d4e57607f821691505b60208210810361487857634e487b7160e01b600052602260045260246000fd5b6020808252601f908201527f5265656e7472616e637947756172643a207265656e7472616e742063616c6c00604082015260600190565b6000808335601e19843603018112614dbc57600080fd5b8301803591506001600160401b03821115614dd657600080fd5b6020019150600781901b3603821315614ace57600080fd5b634e487b7160e01b600052603260045260246000fd5b6001600160a01b03938416815291909216602082015262ffffff909116604082015260600190565b600060208284031215614e3e57600080fd5b815161129b81614801565b6001600160a01b0393909316835262ffffff91909116602083015260020b604082015260600190565b6001600160801b038116811461481657600080fd5b600060208284031215614e9957600080fd5b813561129b81614e72565b634e487b7160e01b600052601160045260246000fd5b60008219821115614ecd57614ecd614ea4565b500190565b600060018201614ee457614ee4614ea4565b5060010190565b938452602084019290925261ffff908116604084015216606082015260800190565b60008060408385031215614f2057600080fd5b505080516020909101519092909150565b60008235609e19833603018112614f4757600080fd5b9190910192915050565b600060208284031215614f6357600080fd5b5051919050565b6000808335601e19843603018112614f8157600080fd5b8301803591506001600160401b03821115614f9b57600080fd5b602001915036819003821315614ace57600080fd5b8183823760009101908152919050565b801515811461481657600080fd5b600060208284031215614fe057600080fd5b813561129b81614fc0565b600082821015614ffd57614ffd614ea4565b500390565b6020808252600b908201526a1cddd85c0819985a5b195960aa1b604082015260600190565b6020808252818101527f4f776e61626c653a2063616c6c6572206973206e6f7420746865206f776e6572604082015260600190565b6020808252600c908201526b61646472657373205a65726f60a01b604082015260600190565b6000808335601e1984360301811261509957600080fd5b8301803591506001600160401b038211156150b357600080fd5b6020019150600581901b3603821315614ace57600080fd5b6000808335601e198436030181126150e257600080fd5b8301803591506001600160401b038211156150fc57600080fd5b6020019150606081023603821315614ace57600080fd5b60006020828403121561512557600080fd5b813561ffff8116811461129b57600080fd5b60208082526010908201526f36b0bc2a3bb0b82232bb34b0ba34b7b760811b604082015260600190565b6020808252600490820152631c1bdbdb60e21b604082015260600190565b6020808252825160a083830152805160c0840181905260009291820190839060e08601905b808310156151cd576151b7828551614921565b60608201915084840193506001830192506151a4565b5092860151926151e06040870185614845565b604087015193506151f46060870185614845565b606087015193506152086080870185614845565b6080870151935061521c60a0870185614845565b9695505050505050565b6000806000806080858703121561523c57600080fd5b505082516020840151604085015160609095015191969095509092509050565b6001600160a01b0394909416845260208401929092526040830152606082015260800190565b6020808252600f908201526e31b0b6363130b1b59031b0b63632b960891b604082015260600190565b604051606081016001600160401b03811182821017156152db57634e487b7160e01b600052604160045260246000fd5b60405290565b600081830360808112156152f457600080fd5b604080519081016001600160401b038111828210171561532457634e487b7160e01b600052604160045260246000fd5b604052833561533281614e72565b81526060601f198301121561534657600080fd5b61534e6152ab565b9150602084013561535e81614996565b8252604084013561536e81614996565b60208301526060840135615381816148f3565b604083015260208101919091529392505050565b600080604083850312156153a857600080fd5b82516153b381614e72565b6020840151909250614c1481614e72565b60008160001904831182151516156153de576153de614ea4565b500290565b634e487b7160e01b600052601260045260246000fd5b60008261541657634e487b7160e01b600052601260045260246000fd5b500490565b6001600160a01b03929092168252602082015260400190565b6020808252602e908201527f496e697469616c697a61626c653a20636f6e747261637420697320616c72656160408201526d191e481a5b9a5d1a585b1a5e995960921b606082015260800190565b6020808252602b908201527f496e697469616c697a61626c653a20636f6e7472616374206973206e6f74206960408201526a6e697469616c697a696e6760a81b606082015260800190565b60208082526005908201526472616e676560d81b604082015260600190565b6001600160a01b03858116825284811660208301528316604082015260c08101823561551781614996565b60020b6060830152602083013561552d81614996565b60020b60808301526040830135615543816148f3565b62ffffff811660a08401525095945050505050565b60006020828403121561556a57600080fd5b815161129b81614fc0565b813561558081614996565b815462ffffff82811662ffffff19831617845560208501356155a181614996565b8060181b9050818416935065ffffff00000091508082168465ffffffffffff1985161717855560408601356155d5816148f3565b91166001600160481b0319929092169092171760309190911b62ffffff60301b1617905550565b634e487b7160e01b600052603160045260246000fd5b60008251614f478184602087016147a256fe8be0079c531659141344cd1fd0a4f28419497f9722a3daafe3b4186f6b6457e0ddf252ad1be2c89b69c2b068fc378daa952ba7f163c4a11628f55a4df523b3ef4c60206a5c1de41f3376d1d60f0949d96cb682033c90b1c2d9d9a62d4c4120c0c28ad1de9c0c32e5394ba60323e44d8d9536312236a47231772e448a3e49de42a264697066735822122073f16ce51b0f73babae12266dd4615cd00fb4fd09e073e53a576f5ec4d2b0a1964736f6c634300080d0033",
  "libraries": {
    "Pool": "0xE1b3Dc2F7656d3036e4Fe9A3cA8F337925Ef4a7d",
    "Position": "0xC64433E71f1f76Be5567B657026656Cce5999C34",
    "Twap": "0x6CcEc15fef0e3F72DF5575F17836ac16A3DDb4Eb",
    "Underlying": "0x887D1EeC3C026ED31Fc35f6CB3f32D940BdB8b24",
    "UniswapV3Amounts": "0xdd67F313E3303f8Fd7Ce1dB94B99B2C8e59b3D97"
  },
  "devdoc": {
    "kind": "dev",
    "methods": {
      "allowance(address,address)": {
        "details": "See {IERC20-allowance}."
      },
      "approve(address,uint256)": {
        "details": "See {IERC20-approve}. NOTE: If `amount` is the maximum `uint256`, the allowance is not updated on `transferFrom`. This is semantically equivalent to an infinite approval. Requirements: - `spender` cannot be the zero address."
      },
      "balanceOf(address)": {
        "details": "See {IERC20-balanceOf}."
      },
      "decimals()": {
        "details": "Returns the number of decimals used to get its user representation. For example, if `decimals` equals `2`, a balance of `505` tokens should be displayed to a user as `5.05` (`505 / 10 ** 2`). Tokens usually opt for a value of 18, imitating the relationship between Ether and Wei. This is the value {ERC20} uses, unless this function is overridden; NOTE: This information is only used for _display_ purposes: it in no way affects any of the arithmetic of the contract, including {IERC20-balanceOf} and {IERC20-transfer}."
      },
      "decreaseAllowance(address,uint256)": {
        "details": "Atomically decreases the allowance granted to `spender` by the caller. This is an alternative to {approve} that can be used as a mitigation for problems described in {IERC20-approve}. Emits an {Approval} event indicating the updated allowance. Requirements: - `spender` cannot be the zero address. - `spender` must have allowance for the caller of at least `subtractedValue`."
      },
      "increaseAllowance(address,uint256)": {
        "details": "Atomically increases the allowance granted to `spender` by the caller. This is an alternative to {approve} that can be used as a mitigation for problems described in {IERC20-approve}. Emits an {Approval} event indicating the updated allowance. Requirements: - `spender` cannot be the zero address."
      },
      "name()": {
        "details": "Returns the name of the token."
      },
      "owner()": {
        "details": "Returns the address of the current owner."
      },
      "renounceOwnership()": {
        "details": "Leaves the contract without owner. It will not be possible to call `onlyOwner` functions anymore. Can only be called by the current owner. NOTE: Renouncing ownership will leave the contract without an owner, thereby removing any functionality that is only available to the owner."
      },
      "symbol()": {
        "details": "Returns the symbol of the token, usually a shorter version of the name."
      },
      "totalSupply()": {
        "details": "See {IERC20-totalSupply}."
      },
      "transfer(address,uint256)": {
        "details": "See {IERC20-transfer}. Requirements: - `to` cannot be the zero address. - the caller must have a balance of at least `amount`."
      },
      "transferFrom(address,address,uint256)": {
        "details": "See {IERC20-transferFrom}. Emits an {Approval} event indicating the updated allowance. This is not required by the EIP. See the note at the beginning of {ERC20}. NOTE: Does not update the allowance if the current allowance is the maximum `uint256`. Requirements: - `from` and `to` cannot be the zero address. - `from` must have a balance of at least `amount`. - the caller must have allowance for ``from``'s tokens of at least `amount`."
      },
      "transferOwnership(address)": {
        "details": "Transfers ownership of the contract to a new account (`newOwner`). Can only be called by the current owner."
      }
    },
    "version": 1
  },
  "userdoc": {
    "kind": "user",
    "methods": {
      "uniswapV3MintCallback(uint256,uint256,bytes)": {
        "notice": "Uniswap V3 callback fn, called back on pool.mint"
      },
      "uniswapV3SwapCallback(int256,int256,bytes)": {
        "notice": "Uniswap v3 callback fn, called back on pool.swap"
      }
    },
    "version": 1
  },
  "storageLayout": {
    "storage": [
      {
        "astId": 6935,
        "contract": "contracts/VaultV2.sol:VaultV2",
        "label": "_owner",
        "offset": 0,
        "slot": "0",
        "type": "t_address"
      },
      {
        "astId": 6,
        "contract": "contracts/VaultV2.sol:VaultV2",
        "label": "_initialized",
        "offset": 20,
        "slot": "0",
        "type": "t_uint8"
      },
      {
        "astId": 9,
        "contract": "contracts/VaultV2.sol:VaultV2",
        "label": "_initializing",
        "offset": 21,
        "slot": "0",
        "type": "t_bool"
      },
      {
        "astId": 1198,
        "contract": "contracts/VaultV2.sol:VaultV2",
        "label": "__gap",
        "offset": 0,
        "slot": "1",
        "type": "t_array(t_uint256)50_storage"
      },
      {
        "astId": 219,
        "contract": "contracts/VaultV2.sol:VaultV2",
        "label": "_balances",
        "offset": 0,
        "slot": "51",
        "type": "t_mapping(t_address,t_uint256)"
      },
      {
        "astId": 225,
        "contract": "contracts/VaultV2.sol:VaultV2",
        "label": "_allowances",
        "offset": 0,
        "slot": "52",
        "type": "t_mapping(t_address,t_mapping(t_address,t_uint256))"
      },
      {
        "astId": 227,
        "contract": "contracts/VaultV2.sol:VaultV2",
        "label": "_totalSupply",
        "offset": 0,
        "slot": "53",
        "type": "t_uint256"
      },
      {
        "astId": 229,
        "contract": "contracts/VaultV2.sol:VaultV2",
        "label": "_name",
        "offset": 0,
        "slot": "54",
        "type": "t_string_storage"
      },
      {
        "astId": 231,
        "contract": "contracts/VaultV2.sol:VaultV2",
        "label": "_symbol",
        "offset": 0,
        "slot": "55",
        "type": "t_string_storage"
      },
      {
        "astId": 810,
        "contract": "contracts/VaultV2.sol:VaultV2",
        "label": "__gap",
        "offset": 0,
        "slot": "56",
        "type": "t_array(t_uint256)45_storage"
      },
      {
        "astId": 155,
        "contract": "contracts/VaultV2.sol:VaultV2",
        "label": "_status",
        "offset": 0,
        "slot": "101",
        "type": "t_uint256"
      },
      {
        "astId": 199,
        "contract": "contracts/VaultV2.sol:VaultV2",
        "label": "__gap",
        "offset": 0,
        "slot": "102",
        "type": "t_array(t_uint256)49_storage"
      },
      {
        "astId": 7269,
        "contract": "contracts/VaultV2.sol:VaultV2",
        "label": "token0",
        "offset": 0,
        "slot": "151",
        "type": "t_contract(IERC20)1277"
      },
      {
        "astId": 7272,
        "contract": "contracts/VaultV2.sol:VaultV2",
        "label": "token1",
        "offset": 0,
        "slot": "152",
        "type": "t_contract(IERC20)1277"
      },
      {
        "astId": 7274,
        "contract": "contracts/VaultV2.sol:VaultV2",
        "label": "init0",
        "offset": 0,
        "slot": "153",
        "type": "t_uint256"
      },
      {
        "astId": 7276,
        "contract": "contracts/VaultV2.sol:VaultV2",
        "label": "init1",
        "offset": 0,
        "slot": "154",
        "type": "t_uint256"
      },
      {
        "astId": 7280,
        "contract": "contracts/VaultV2.sol:VaultV2",
        "label": "ranges",
        "offset": 0,
        "slot": "155",
        "type": "t_array(t_struct(Range)9343_storage)dyn_storage"
      },
      {
        "astId": 7282,
        "contract": "contracts/VaultV2.sol:VaultV2",
        "label": "arrakisBalance0",
        "offset": 0,
        "slot": "156",
        "type": "t_uint256"
      },
      {
        "astId": 7284,
        "contract": "contracts/VaultV2.sol:VaultV2",
        "label": "arrakisBalance1",
        "offset": 0,
        "slot": "157",
        "type": "t_uint256"
      },
      {
        "astId": 7286,
        "contract": "contracts/VaultV2.sol:VaultV2",
        "label": "managerTreasury",
        "offset": 0,
        "slot": "158",
        "type": "t_address"
      },
      {
        "astId": 7288,
        "contract": "contracts/VaultV2.sol:VaultV2",
        "label": "managerFeeBPS",
        "offset": 20,
        "slot": "158",
        "type": "t_uint16"
      },
      {
        "astId": 7290,
        "contract": "contracts/VaultV2.sol:VaultV2",
        "label": "managerBalance0",
        "offset": 0,
        "slot": "159",
        "type": "t_uint256"
      },
      {
        "astId": 7292,
        "contract": "contracts/VaultV2.sol:VaultV2",
        "label": "managerBalance1",
        "offset": 0,
        "slot": "160",
        "type": "t_uint256"
      },
      {
        "astId": 7294,
        "contract": "contracts/VaultV2.sol:VaultV2",
        "label": "maxTwapDeviation",
        "offset": 0,
        "slot": "161",
        "type": "t_int24"
      },
      {
        "astId": 7296,
        "contract": "contracts/VaultV2.sol:VaultV2",
        "label": "twapDuration",
        "offset": 3,
        "slot": "161",
        "type": "t_uint24"
      },
      {
        "astId": 7299,
        "contract": "contracts/VaultV2.sol:VaultV2",
        "label": "_operators",
        "offset": 0,
        "slot": "162",
        "type": "t_struct(AddressSet)2526_storage"
      },
      {
        "astId": 7302,
        "contract": "contracts/VaultV2.sol:VaultV2",
        "label": "_pools",
        "offset": 0,
        "slot": "164",
        "type": "t_struct(AddressSet)2526_storage"
      }
    ],
    "types": {
      "t_address": {
        "encoding": "inplace",
        "label": "address",
        "numberOfBytes": "20"
      },
      "t_array(t_bytes32)dyn_storage": {
        "base": "t_bytes32",
        "encoding": "dynamic_array",
        "label": "bytes32[]",
        "numberOfBytes": "32"
      },
      "t_array(t_struct(Range)9343_storage)dyn_storage": {
        "base": "t_struct(Range)9343_storage",
        "encoding": "dynamic_array",
        "label": "struct Range[]",
        "numberOfBytes": "32"
      },
      "t_array(t_uint256)45_storage": {
        "base": "t_uint256",
        "encoding": "inplace",
        "label": "uint256[45]",
        "numberOfBytes": "1440"
      },
      "t_array(t_uint256)49_storage": {
        "base": "t_uint256",
        "encoding": "inplace",
        "label": "uint256[49]",
        "numberOfBytes": "1568"
      },
      "t_array(t_uint256)50_storage": {
        "base": "t_uint256",
        "encoding": "inplace",
        "label": "uint256[50]",
        "numberOfBytes": "1600"
      },
      "t_bool": {
        "encoding": "inplace",
        "label": "bool",
        "numberOfBytes": "1"
      },
      "t_bytes32": {
        "encoding": "inplace",
        "label": "bytes32",
        "numberOfBytes": "32"
      },
      "t_contract(IERC20)1277": {
        "encoding": "inplace",
        "label": "contract IERC20",
        "numberOfBytes": "20"
      },
      "t_int24": {
        "encoding": "inplace",
        "label": "int24",
        "numberOfBytes": "3"
      },
      "t_mapping(t_address,t_mapping(t_address,t_uint256))": {
        "encoding": "mapping",
        "key": "t_address",
        "label": "mapping(address => mapping(address => uint256))",
        "numberOfBytes": "32",
        "value": "t_mapping(t_address,t_uint256)"
      },
      "t_mapping(t_address,t_uint256)": {
        "encoding": "mapping",
        "key": "t_address",
        "label": "mapping(address => uint256)",
        "numberOfBytes": "32",
        "value": "t_uint256"
      },
      "t_mapping(t_bytes32,t_uint256)": {
        "encoding": "mapping",
        "key": "t_bytes32",
        "label": "mapping(bytes32 => uint256)",
        "numberOfBytes": "32",
        "value": "t_uint256"
      },
      "t_string_storage": {
        "encoding": "bytes",
        "label": "string",
        "numberOfBytes": "32"
      },
      "t_struct(AddressSet)2526_storage": {
        "encoding": "inplace",
        "label": "struct EnumerableSet.AddressSet",
        "members": [
          {
            "astId": 2525,
            "contract": "contracts/VaultV2.sol:VaultV2",
            "label": "_inner",
            "offset": 0,
            "slot": "0",
            "type": "t_struct(Set)2225_storage"
          }
        ],
        "numberOfBytes": "64"
      },
      "t_struct(Range)9343_storage": {
        "encoding": "inplace",
        "label": "struct Range",
        "members": [
          {
            "astId": 9338,
            "contract": "contracts/VaultV2.sol:VaultV2",
            "label": "lowerTick",
            "offset": 0,
            "slot": "0",
            "type": "t_int24"
          },
          {
            "astId": 9340,
            "contract": "contracts/VaultV2.sol:VaultV2",
            "label": "upperTick",
            "offset": 3,
            "slot": "0",
            "type": "t_int24"
          },
          {
            "astId": 9342,
            "contract": "contracts/VaultV2.sol:VaultV2",
            "label": "feeTier",
            "offset": 6,
            "slot": "0",
            "type": "t_uint24"
          }
        ],
        "numberOfBytes": "32"
      },
      "t_struct(Set)2225_storage": {
        "encoding": "inplace",
        "label": "struct EnumerableSet.Set",
        "members": [
          {
            "astId": 2220,
            "contract": "contracts/VaultV2.sol:VaultV2",
            "label": "_values",
            "offset": 0,
            "slot": "0",
            "type": "t_array(t_bytes32)dyn_storage"
          },
          {
            "astId": 2224,
            "contract": "contracts/VaultV2.sol:VaultV2",
            "label": "_indexes",
            "offset": 0,
            "slot": "1",
            "type": "t_mapping(t_bytes32,t_uint256)"
          }
        ],
        "numberOfBytes": "64"
      },
      "t_uint16": {
        "encoding": "inplace",
        "label": "uint16",
        "numberOfBytes": "2"
      },
      "t_uint24": {
        "encoding": "inplace",
        "label": "uint24",
        "numberOfBytes": "3"
      },
      "t_uint256": {
        "encoding": "inplace",
        "label": "uint256",
        "numberOfBytes": "32"
      },
      "t_uint8": {
        "encoding": "inplace",
        "label": "uint8",
        "numberOfBytes": "1"
      }
    }
  }
}