{
    "address": "0x84Df825692690e06eEC53c9635469f6841eF60b7",
    "abi": [
        {
            "inputs": [
                {
                    "internalType": "contract IUniswapV3Factory",
                    "name": "factory_",
                    "type": "address"
                },
                {
                    "internalType": "contract IVaultV2Helper",
                    "name": "helper_",
                    "type": "address"
                }
            ],
            "stateMutability": "nonpayable",
            "type": "constructor"
        },
        {
            "inputs": [],
            "name": "factory",
            "outputs": [
                {
                    "internalType": "contract IUniswapV3Factory",
                    "name": "",
                    "type": "address"
                }
            ],
            "stateMutability": "view",
            "type": "function"
        },
        {
            "inputs": [
                {
                    "internalType": "int24",
                    "name": "currentTick_",
                    "type": "int24"
                },
                {
                    "internalType": "int24",
                    "name": "lowerTick_",
                    "type": "int24"
                },
                {
                    "internalType": "int24",
                    "name": "upperTick_",
                    "type": "int24"
                },
                {
                    "internalType": "uint128",
                    "name": "liquidity",
                    "type": "uint128"
                }
            ],
            "name": "getAmountsForLiquidity",
            "outputs": [
                {
                    "internalType": "uint256",
                    "name": "amount0",
                    "type": "uint256"
                },
                {
                    "internalType": "uint256",
                    "name": "amount1",
                    "type": "uint256"
                }
            ],
            "stateMutability": "pure",
            "type": "function"
        },
        {
            "inputs": [
                {
                    "internalType": "contract IVaultV2",
                    "name": "vaultV2_",
                    "type": "address"
                },
                {
                    "internalType": "uint256",
                    "name": "amount0Max_",
                    "type": "uint256"
                },
                {
                    "internalType": "uint256",
                    "name": "amount1Max_",
                    "type": "uint256"
                }
            ],
            "name": "getMintAmounts",
            "outputs": [
                {
                    "internalType": "uint256",
                    "name": "amount0",
                    "type": "uint256"
                },
                {
                    "internalType": "uint256",
                    "name": "amount1",
                    "type": "uint256"
                },
                {
                    "internalType": "uint256",
                    "name": "mintAmount",
                    "type": "uint256"
                }
            ],
            "stateMutability": "view",
            "type": "function"
        },
        {
            "inputs": [],
            "name": "helper",
            "outputs": [
                {
                    "internalType": "contract IVaultV2Helper",
                    "name": "",
                    "type": "address"
                }
            ],
            "stateMutability": "view",
            "type": "function"
        },
        {
            "inputs": [
                {
                    "internalType": "uint256",
                    "name": "amountToBurn_",
                    "type": "uint256"
                },
                {
                    "internalType": "contract IVaultV2",
                    "name": "vaultV2_",
                    "type": "address"
                }
            ],
            "name": "standardBurnParams",
            "outputs": [
                {
                    "components": [
                        {
                            "internalType": "uint128",
                            "name": "liquidity",
                            "type": "uint128"
                        },
                        {
                            "components": [
                                {
                                    "internalType": "int24",
                                    "name": "lowerTick",
                                    "type": "int24"
                                },
                                {
                                    "internalType": "int24",
                                    "name": "upperTick",
                                    "type": "int24"
                                },
                                {
                                    "internalType": "uint24",
                                    "name": "feeTier",
                                    "type": "uint24"
                                }
                            ],
                            "internalType": "struct Range",
                            "name": "range",
                            "type": "tuple"
                        }
                    ],
                    "internalType": "struct BurnData[]",
                    "name": "burns",
                    "type": "tuple[]"
                }
            ],
            "stateMutability": "view",
            "type": "function"
        },
        {
            "inputs": [
                {
                    "components": [
                        {
                            "components": [
                                {
                                    "internalType": "int24",
                                    "name": "lowerTick",
                                    "type": "int24"
                                },
                                {
                                    "internalType": "int24",
                                    "name": "upperTick",
                                    "type": "int24"
                                },
                                {
                                    "internalType": "uint24",
                                    "name": "feeTier",
                                    "type": "uint24"
                                }
                            ],
                            "internalType": "struct Range",
                            "name": "range",
                            "type": "tuple"
                        },
                        {
                            "internalType": "uint256",
                            "name": "weight",
                            "type": "uint256"
                        }
                    ],
                    "internalType": "struct RangeWeight[]",
                    "name": "rangeWeights_",
                    "type": "tuple[]"
                },
                {
                    "internalType": "contract IVaultV2",
                    "name": "vaultV2_",
                    "type": "address"
                }
            ],
            "name": "standardRebalanceParams",
            "outputs": [
                {
                    "components": [
                        {
                            "components": [
                                {
                                    "internalType": "uint128",
                                    "name": "liquidity",
                                    "type": "uint128"
                                },
                                {
                                    "components": [
                                        {
                                            "internalType": "int24",
                                            "name": "lowerTick",
                                            "type": "int24"
                                        },
                                        {
                                            "internalType": "int24",
                                            "name": "upperTick",
                                            "type": "int24"
                                        },
                                        {
                                            "internalType": "uint24",
                                            "name": "feeTier",
                                            "type": "uint24"
                                        }
                                    ],
                                    "internalType": "struct Range",
                                    "name": "range",
                                    "type": "tuple"
                                }
                            ],
                            "internalType": "struct PositionData[]",
                            "name": "removes",
                            "type": "tuple[]"
                        },
                        {
                            "components": [
                                {
                                    "internalType": "uint128",
                                    "name": "liquidity",
                                    "type": "uint128"
                                },
                                {
                                    "components": [
                                        {
                                            "internalType": "int24",
                                            "name": "lowerTick",
                                            "type": "int24"
                                        },
                                        {
                                            "internalType": "int24",
                                            "name": "upperTick",
                                            "type": "int24"
                                        },
                                        {
                                            "internalType": "uint24",
                                            "name": "feeTier",
                                            "type": "uint24"
                                        }
                                    ],
                                    "internalType": "struct Range",
                                    "name": "range",
                                    "type": "tuple"
                                }
                            ],
                            "internalType": "struct PositionData[]",
                            "name": "deposits",
                            "type": "tuple[]"
                        },
                        {
                            "components": [
                                {
                                    "internalType": "bytes",
                                    "name": "payload",
                                    "type": "bytes"
                                },
                                {
                                    "internalType": "address",
                                    "name": "router",
                                    "type": "address"
                                },
                                {
                                    "internalType": "uint256",
                                    "name": "amountIn",
                                    "type": "uint256"
                                },
                                {
                                    "internalType": "uint256",
                                    "name": "expectedMinReturn",
                                    "type": "uint256"
                                },
                                {
                                    "internalType": "bool",
                                    "name": "zeroForOne",
                                    "type": "bool"
                                }
                            ],
                            "internalType": "struct SwapData",
                            "name": "swap",
                            "type": "tuple"
                        }
                    ],
                    "internalType": "struct RebalanceParams",
                    "name": "rebalanceParams",
                    "type": "tuple"
                }
            ],
            "stateMutability": "view",
            "type": "function"
        }
    ],
    "transactionHash": "0x8afcdd25d98a253136259cb9e45192c5490f272f45ec42ea7ee6ee15e144bf4e",
    "args": [],
    "numDeployments": 2,
    "solcInputHash": "df501286bc7a13ffe2581c392b6f21b7",
    "bytecode": "60c06040523480156200001157600080fd5b5060405162002c8a38038062002c8a833981016040819052620000349162000065565b6001600160a01b039182166080521660a052620000a4565b6001600160a01b03811681146200006257600080fd5b50565b600080604083850312156200007957600080fd5b825162000086816200004c565b602084015190925062000099816200004c565b809150509250929050565b60805160a051612ba5620000e5600039600081816095015281816102a30152611384015260008181610111015281816102e30152610a310152612ba56000f3fe608060405234801561001057600080fd5b50600436106100625760003560e01c80634f1553031461006757806363b0e66a14610090578063a339df12146100c4578063c30fcfdc146100ec578063c45a01551461010c578063fa111ce714610133575b600080fd5b61007a61007536600461225d565b610161565b6040516100879190612412565b60405180910390f35b6100b77f000000000000000000000000000000000000000000000000000000000000000081565b60405161008791906124f0565b6100d76100d2366004612519565b6108c4565b60408051928352602083019190915201610087565b6100ff6100fa366004612575565b6108f9565b60405161008791906125a5565b6100b77f000000000000000000000000000000000000000000000000000000000000000081565b6101466101413660046125f3565b61137a565b60408051938452602084019290925290820152606001610087565b6101696120ce565b6000806000806000866001600160a01b031663397a877e6040518163ffffffff1660e01b8152600401600060405180830381865afa1580156101af573d6000803e3d6000fd5b505050506040513d6000823e601f3d908101601f191682016040526101d79190810190612628565b9050866001600160a01b0316630dfe16816040518163ffffffff1660e01b8152600401602060405180830381865afa158015610217573d6000803e3d6000fd5b505050506040513d601f19601f8201168201806040525081019061023b9190612700565b9250866001600160a01b031663d21220a76040518163ffffffff1660e01b8152600401602060405180830381865afa15801561027b573d6000803e3d6000fd5b505050506040513d601f19601f8201168201806040525081019061029f9190612700565b91507f00000000000000000000000000000000000000000000000000000000000000006001600160a01b031663dc0443a26040518060a001604052808481526020017f00000000000000000000000000000000000000000000000000000000000000006001600160a01b03168152602001866001600160a01b03168152602001856001600160a01b031681526020018a6001600160a01b03168152506040518263ffffffff1660e01b8152600401610357919061271d565b6040805180830381865afa158015610373573d6000803e3d6000fd5b505050506040513d601f19601f8201168201806040525081019061039791906127c4565b909550935060005b815181101561063f576000886001600160a01b031663c45a01556040518163ffffffff1660e01b8152600401602060405180830381865afa1580156103e8573d6000803e3d6000fd5b505050506040513d601f19601f8201168201806040525081019061040c9190612700565b6001600160a01b0316631698ee82868686868151811061042e5761042e6127e8565b6020026020010151604001516040518463ffffffff1660e01b8152600401610458939291906127fe565b602060405180830381865afa158015610475573d6000803e3d6000fd5b505050506040513d601f19601f820116820180604052508101906104999190612700565b6001600160a01b031663514ea4bf73b69728a998049f7d09940251efb8b747b1744ff2631208efca8c8787815181106104d4576104d46127e8565b6020026020010151600001518888815181106104f2576104f26127e8565b6020026020010151602001516040518463ffffffff1660e01b815260040161051c93929190612826565b602060405180830381865af4158015610539573d6000803e3d6000fd5b505050506040513d601f19601f8201168201806040525081019061055d919061284b565b6040518263ffffffff1660e01b815260040161057b91815260200190565b60a060405180830381865afa158015610598573d6000803e3d6000fd5b505050506040513d601f19601f820116820180604052508101906105bc9190612864565b5092935050506001600160801b03821615905061062c576040518060400160405280826001600160801b031681526020018484815181106105ff576105ff6127e8565b602002602001015181525088600001518381518110610620576106206127e8565b60200260200101819052505b5080610637816128dc565b91505061039f565b505061064a8761183a565b86516001600160401b0381111561066357610663612167565b60405190808252806020026020018201604052801561069c57816020015b610689612129565b8152602001906001900390816106815790505b50602086015260005b87518110156108b95760008882815181106106c2576106c26127e8565b602002602001015190506000886001600160a01b031663c45a01556040518163ffffffff1660e01b8152600401602060405180830381865afa15801561070c573d6000803e3d6000fd5b505050506040513d601f19601f820116820180604052508101906107309190612700565b6001600160a01b0316631698ee8286868560000151604001516040518463ffffffff1660e01b8152600401610767939291906127fe565b602060405180830381865afa158015610784573d6000803e3d6000fd5b505050506040513d601f19601f820116820180604052508101906107a89190612700565b6001600160a01b0316633850c7bd6040518163ffffffff1660e01b815260040160e060405180830381865afa1580156107e5573d6000803e3d6000fd5b505050506040513d601f19601f820116820180604052508101906108099190612907565b5050505050509050600061085e826108288560000151600001516118ca565b855160200151610837906118ca565b6108488c8860200151612710611cdf565b6108598c8960200151612710611cdf565b611d93565b90506040518060400160405280826001600160801b03168152602001846000015181525089602001518581518110610898576108986127e8565b602002602001018190525050505080806108b1906128dc565b9150506106a5565b505050505092915050565b6000806108eb6108d3876118ca565b6108dc876118ca565b6108e5876118ca565b86611e57565b915091505b94509492505050565b60606000826001600160a01b03166318160ddd6040518163ffffffff1660e01b8152600401602060405180830381865afa15801561093b573d6000803e3d6000fd5b505050506040513d601f19601f8201168201806040525081019061095f919061284b565b90506000836001600160a01b031663397a877e6040518163ffffffff1660e01b8152600401600060405180830381865afa1580156109a1573d6000803e3d6000fd5b505050506040513d6000823e601f3d908101601f191682016040526109c99190810190612628565b9050610a046040518060c001604052806000815260200160008152602001600081526020016000815260200160008152602001600081525090565b73acf478f5818bcb8b92625097762f9984b5b3b34663e56f4d916040518060a001604052808581526020017f00000000000000000000000000000000000000000000000000000000000000006001600160a01b03168152602001886001600160a01b0316630dfe16816040518163ffffffff1660e01b8152600401602060405180830381865afa158015610a9c573d6000803e3d6000fd5b505050506040513d601f19601f82011682018060405250810190610ac09190612700565b6001600160a01b03168152602001886001600160a01b031663d21220a76040518163ffffffff1660e01b8152600401602060405180830381865afa158015610b0c573d6000803e3d6000fd5b505050506040513d601f19601f82011682018060405250810190610b309190612700565b6001600160a01b03168152602001886001600160a01b03168152506040518263ffffffff1660e01b8152600401610b6791906129a4565b608060405180830381865af4158015610b84573d6000803e3d6000fd5b505050506040513d601f19601f82011682018060405250810190610ba891906129f2565b60608501526040808501919091526020808501929092529183528151630dfe168160e01b815291516001600160a01b03881692630dfe16819260048083019391928290030181865afa158015610c02573d6000803e3d6000fd5b505050506040513d601f19601f82011682018060405250810190610c269190612700565b6001600160a01b03166370a08231866040518263ffffffff1660e01b8152600401610c5191906124f0565b602060405180830381865afa158015610c6e573d6000803e3d6000fd5b505050506040513d601f19601f82011682018060405250810190610c92919061284b565b816080018181525050846001600160a01b031663d21220a76040518163ffffffff1660e01b8152600401602060405180830381865afa158015610cd9573d6000803e3d6000fd5b505050506040513d601f19601f82011682018060405250810190610cfd9190612700565b6001600160a01b03166370a08231866040518263ffffffff1660e01b8152600401610d2891906124f0565b602060405180830381865afa158015610d45573d6000803e3d6000fd5b505050506040513d601f19601f82011682018060405250810190610d69919061284b565b60a082015282610daf5760405162461bcd60e51b815260206004820152600c60248201526b746f74616c20737570706c7960a01b60448201526064015b60405180910390fd5b60008073ce143fdb09c379387c56186d9e7d843d7a735edc636d50cdaf846040015185606001518a6001600160a01b031663ccdf7a026040518163ffffffff1660e01b8152600401602060405180830381865afa158015610e14573d6000803e3d6000fd5b505050506040513d601f19601f82011682018060405250810190610e389190612a28565b8b6001600160a01b031663c70750416040518163ffffffff1660e01b8152600401602060405180830381865afa158015610e76573d6000803e3d6000fd5b505050506040513d601f19601f82011682018060405250810190610e9a9190612a28565b6040516001600160e01b031960e087901b1681526004810194909452602484019290925261ffff90811660448401521660648201526084016040805180830381865af4158015610eee573d6000803e3d6000fd5b505050506040513d601f19601f82011682018060405250810190610f1291906127c4565b91509150818360800151610f269190612a43565b83518490610f35908390612a43565b90525060a0830151610f48908290612a43565b83602001818151610f599190612a43565b90525050815160009150610f6e908886611cdf565b90506000610f8183602001518987611cdf565b905082608001518211158015610f9b57508260a001518111155b15610faa575050505050611374565b50505080516001600160401b03811115610fc657610fc6612167565b604051908082528060200260200182016040528015610fff57816020015b610fec612129565b815260200190600190039081610fe45790505b50925060005b8151811015611370576000856001600160a01b031663c45a01556040518163ffffffff1660e01b8152600401602060405180830381865afa15801561104e573d6000803e3d6000fd5b505050506040513d601f19601f820116820180604052508101906110729190612700565b6001600160a01b0316631698ee82876001600160a01b0316630dfe16816040518163ffffffff1660e01b8152600401602060405180830381865afa1580156110be573d6000803e3d6000fd5b505050506040513d601f19601f820116820180604052508101906110e29190612700565b886001600160a01b031663d21220a76040518163ffffffff1660e01b8152600401602060405180830381865afa158015611120573d6000803e3d6000fd5b505050506040513d601f19601f820116820180604052508101906111449190612700565b868681518110611156576111566127e8565b6020026020010151604001516040518463ffffffff1660e01b8152600401611180939291906127fe565b602060405180830381865afa15801561119d573d6000803e3d6000fd5b505050506040513d601f19601f820116820180604052508101906111c19190612700565b6001600160a01b031663514ea4bf73b69728a998049f7d09940251efb8b747b1744ff2631208efca898787815181106111fc576111fc6127e8565b60200260200101516000015188888151811061121a5761121a6127e8565b6020026020010151602001516040518463ffffffff1660e01b815260040161124493929190612826565b602060405180830381865af4158015611261573d6000803e3d6000fd5b505050506040513d601f19601f82011682018060405250810190611285919061284b565b6040518263ffffffff1660e01b81526004016112a391815260200190565b60a060405180830381865afa1580156112c0573d6000803e3d6000fd5b505050506040513d601f19601f820116820180604052508101906112e49190612864565b505060408051808201909152929350829150611314905061130f6001600160801b0385168b89611cdf565b611ef2565b6001600160801b03168152602001848481518110611334576113346127e8565b6020026020010151815250858381518110611351576113516127e8565b6020026020010181905250508080611368906128dc565b915050611005565b5050505b92915050565b60008060008060007f00000000000000000000000000000000000000000000000000000000000000006001600160a01b031663dc0443a26040518060a001604052808b6001600160a01b031663397a877e6040518163ffffffff1660e01b8152600401600060405180830381865afa1580156113fa573d6000803e3d6000fd5b505050506040513d6000823e601f3d908101601f191682016040526114229190810190612628565b81526020018b6001600160a01b031663c45a01556040518163ffffffff1660e01b8152600401602060405180830381865afa158015611465573d6000803e3d6000fd5b505050506040513d601f19601f820116820180604052508101906114899190612700565b6001600160a01b031681526020018b6001600160a01b0316630dfe16816040518163ffffffff1660e01b8152600401602060405180830381865afa1580156114d5573d6000803e3d6000fd5b505050506040513d601f19601f820116820180604052508101906114f99190612700565b6001600160a01b031681526020018b6001600160a01b031663d21220a76040518163ffffffff1660e01b8152600401602060405180830381865afa158015611545573d6000803e3d6000fd5b505050506040513d601f19601f820116820180604052508101906115699190612700565b6001600160a01b031681526020018b6001600160a01b03168152506040518263ffffffff1660e01b81526004016115a0919061271d565b6040805180830381865afa1580156115bc573d6000803e3d6000fd5b505050506040513d601f19601f820116820180604052508101906115e091906127c4565b915091506000886001600160a01b03166318160ddd6040518163ffffffff1660e01b8152600401602060405180830381865afa158015611624573d6000803e3d6000fd5b505050506040513d601f19601f82011682018060405250810190611648919061284b565b905080156116dc5760405163c30fc38d60e01b815273ce143fdb09c379387c56186d9e7d843d7a735edc9063c30fc38d9061168f908690869086908e908e90600401612a5b565b606060405180830381865af41580156116ac573d6000803e3d6000fd5b505050506040513d601f19601f820116820180604052508101906116d09190612a7e565b9197509550935061182e565b73ce143fdb09c379387c56186d9e7d843d7a735edc63c30fc38d8a6001600160a01b03166314b806306040518163ffffffff1660e01b8152600401602060405180830381865afa158015611734573d6000803e3d6000fd5b505050506040513d601f19601f82011682018060405250810190611758919061284b565b8b6001600160a01b031663f2eb3e346040518163ffffffff1660e01b8152600401602060405180830381865afa158015611796573d6000803e3d6000fd5b505050506040513d601f19601f820116820180604052508101906117ba919061284b565b670de0b6b3a76400008c8c6040518663ffffffff1660e01b81526004016117e5959493929190612a5b565b606060405180830381865af4158015611802573d6000803e3d6000fd5b505050506040513d601f19601f820116820180604052508101906118269190612a7e565b919750955093505b50505093509350939050565b6000805b825181101561188457828181518110611859576118596127e8565b602002602001015160200151826118709190612a43565b91508061187c816128dc565b91505061183e565b506127108111156118c65760405162461bcd60e51b815260206004820152600c60248201526b1d1bdd185b081dd95a59da1d60a21b6044820152606401610da6565b5050565b60008060008360020b126118e1578260020b6118ee565b8260020b6118ee90612aac565b90506118fd620d89e719612ac8565b60020b8111156119335760405162461bcd60e51b81526020600482015260016024820152601560fa1b6044820152606401610da6565b60008160011660000361194a57600160801b61195c565b6ffffcb933bd6fad37aa2d162d1a5940015b6001600160881b03169050600282161561199157608061198c826ffff97272373d413259a46990580e213a612aea565b901c90505b60048216156119bb5760806119b6826ffff2e50f5f656932ef12357cf3c7fdcc612aea565b901c90505b60088216156119e55760806119e0826fffe5caca7e10e4e61c3624eaa0941cd0612aea565b901c90505b6010821615611a0f576080611a0a826fffcb9843d60f6159c9db58835c926644612aea565b901c90505b6020821615611a39576080611a34826fff973b41fa98c081472e6896dfb254c0612aea565b901c90505b6040821615611a63576080611a5e826fff2ea16466c96a3843ec78b326b52861612aea565b901c90505b6080821615611a8d576080611a88826ffe5dee046a99a2a811c461f1969c3053612aea565b901c90505b610100821615611ab8576080611ab3826ffcbe86c7900a88aedcffc83b479aa3a4612aea565b901c90505b610200821615611ae3576080611ade826ff987a7253ac413176f2b074cf7815e54612aea565b901c90505b610400821615611b0e576080611b09826ff3392b0822b70005940c7a398e4b70f3612aea565b901c90505b610800821615611b39576080611b34826fe7159475a2c29b7443b29c7fa6e889d9612aea565b901c90505b611000821615611b64576080611b5f826fd097f3bdfd2022b8845ad8f792aa5825612aea565b901c90505b612000821615611b8f576080611b8a826fa9f746462d870fdf8a65dc1f90e061e5612aea565b901c90505b614000821615611bba576080611bb5826f70d869a156d2a1b890bb3df62baf32f7612aea565b901c90505b618000821615611be5576080611be0826f31be135f97d08fd981231505542fcfa6612aea565b901c90505b62010000821615611c11576080611c0c826f09aa508b5b7a84e1c677de54f3e99bc9612aea565b901c90505b62020000821615611c3c576080611c37826e5d6af8dedb81196699c329225ee604612aea565b901c90505b62040000821615611c66576080611c61826d2216e584f5fa1ea926041bedfe98612aea565b901c90505b62080000821615611c8e576080611c89826b048a170391f7dc42444e8fa2612aea565b901c90505b60008460020b1315611ca957611ca681600019612b1f565b90505b611cb7600160201b82612b33565b15611cc3576001611cc6565b60005b611cd79060ff16602083901c612a43565b949350505050565b6000808060001985870985870292508281108382030391505080600003611d185760008411611d0d57600080fd5b508290049050611d8c565b808411611d2457600080fd5b600084868809851960019081018716968790049682860381900495909211909303600082900391909104909201919091029190911760038402600290811880860282030280860282030280860282030280860282030280860282030280860290910302029150505b9392505050565b6000836001600160a01b0316856001600160a01b03161115611db3579293925b846001600160a01b0316866001600160a01b031611611dde57611dd7858585611f5f565b9050611e4e565b836001600160a01b0316866001600160a01b03161015611e40576000611e05878686611f5f565b90506000611e14878986611fc9565b9050806001600160801b0316826001600160801b031610611e355780611e37565b815b92505050611e4e565b611e4b858584611fc9565b90505b95945050505050565b600080836001600160a01b0316856001600160a01b03161115611e78579293925b846001600160a01b0316866001600160a01b031611611ea357611e9c858585611fff565b91506108f0565b836001600160a01b0316866001600160a01b03161015611edc57611ec8868585611fff565b9150611ed5858785612069565b90506108f0565b611ee7858585612069565b905094509492505050565b60006001600160801b03821115611f5b5760405162461bcd60e51b815260206004820152602760248201527f53616665436173743a2076616c756520646f65736e27742066697420696e20316044820152663238206269747360c81b6064820152608401610da6565b5090565b6000826001600160a01b0316846001600160a01b03161115611f7f579192915b6000611fa2856001600160a01b0316856001600160a01b0316600160601b611cdf565b9050611e4e611fc48483611fb68989612b47565b6001600160a01b0316611cdf565b6120b3565b6000826001600160a01b0316846001600160a01b03161115611fe9579192915b611cd7611fc483600160601b611fb68888612b47565b6000826001600160a01b0316846001600160a01b0316111561201f579192915b6001600160a01b03841661205f600160601b600160e01b03606085901b166120478787612b47565b6001600160a01b0316866001600160a01b0316611cdf565b611cd79190612b1f565b6000826001600160a01b0316846001600160a01b03161115612089579192915b611cd76001600160801b0383166120a08686612b47565b6001600160a01b0316600160601b611cdf565b806001600160801b03811681146120c957600080fd5b919050565b604051806060016040528060608152602001606081526020016121246040518060a001604052806060815260200160006001600160a01b0316815260200160008152602001600081526020016000151581525090565b905290565b604051806040016040528060006001600160801b03168152602001612124604080516060810182526000808252602082018190529181019190915290565b634e487b7160e01b600052604160045260246000fd5b604080519081016001600160401b038111828210171561219f5761219f612167565b60405290565b604051606081016001600160401b038111828210171561219f5761219f612167565b604051601f8201601f191681016001600160401b03811182821017156121ef576121ef612167565b604052919050565b60006001600160401b0382111561221057612210612167565b5060051b60200190565b8060020b811461222957600080fd5b50565b62ffffff8116811461222957600080fd5b6001600160a01b038116811461222957600080fd5b80356120c98161223d565b600080604080848603121561227157600080fd5b83356001600160401b0381111561228757600080fd5b8401601f8101861361229857600080fd5b803560206122ad6122a8836121f7565b6121c7565b82815260079290921b830181019181810190898411156122cc57600080fd5b938201935b8385101561235857848a0360808112156122eb5760008081fd5b6122f361217d565b6060808312156123035760008081fd5b61230b6121a5565b925087356123188161221a565b8352878601356123278161221a565b83870152878901356123388161222c565b838a015291815290860135848201528252608090940193908201906122d1565b96506123679050878201612252565b9450505050509250929050565b805160020b8252602081015160020b602083015262ffffff60408201511660408301525050565b80516001600160801b03168252602080820151906123bb90840182612374565b505050565b600081518084526020808501945080840160005b838110156123fa576123e787835161239b565b60809690960195908201906001016123d4565b509495945050505050565b6001600160a01b03169052565b60006020808352835160608285015261242e60808501826123c0565b905081850151601f198086840301604087015261244b83836123c0565b92506040870151915080868403016060870152815160a0845280518060a086015260005b8181101561248b5782810187015186820160c00152860161246f565b8181111561249d57600060c083880101525b508584015191506124b086860183612405565b6040840151604086015260608401516060860152608084015195506124d9608086018715159052565b601f019091169290920160c0019695505050505050565b6001600160a01b0391909116815260200190565b6001600160801b038116811461222957600080fd5b6000806000806080858703121561252f57600080fd5b843561253a8161221a565b9350602085013561254a8161221a565b9250604085013561255a8161221a565b9150606085013561256a81612504565b939692955090935050565b6000806040838503121561258857600080fd5b82359150602083013561259a8161223d565b809150509250929050565b6020808252825182820181905260009190848201906040850190845b818110156125e7576125d483855161239b565b92840192608092909201916001016125c1565b50909695505050505050565b60008060006060848603121561260857600080fd5b83356126138161223d565b95602085013595506040909401359392505050565b6000602080838503121561263b57600080fd5b82516001600160401b0381111561265157600080fd5b8301601f8101851361266257600080fd5b80516126706122a8826121f7565b8181526060918202830184019184820191908884111561268f57600080fd5b938501935b838510156126f45780858a0312156126ac5760008081fd5b6126b46121a5565b85516126bf8161221a565b8152858701516126ce8161221a565b818801526040868101516126e18161222c565b9082015283529384019391850191612694565b50979650505050505050565b60006020828403121561271257600080fd5b8151611d8c8161223d565b6020808252825160a083830152805160c0840181905260009291820190839060e08601905b8083101561276b57612755828551612374565b6060820191508484019350600183019250612742565b50928601519261277e6040870185612405565b604087015193506127926060870185612405565b606087015193506127a66080870185612405565b608087015193506127ba60a0870185612405565b9695505050505050565b600080604083850312156127d757600080fd5b505080516020909101519092909150565b634e487b7160e01b600052603260045260246000fd5b6001600160a01b03938416815291909216602082015262ffffff909116604082015260600190565b6001600160a01b03939093168352600291820b6020840152900b604082015260600190565b60006020828403121561285d57600080fd5b5051919050565b600080600080600060a0868803121561287c57600080fd5b855161288781612504565b80955050602086015193506040860151925060608601516128a781612504565b60808701519092506128b881612504565b809150509295509295909350565b634e487b7160e01b600052601160045260246000fd5b6000600182016128ee576128ee6128c6565b5060010190565b805161ffff811681146120c957600080fd5b600080600080600080600060e0888a03121561292257600080fd5b875161292d8161223d565b602089015190975061293e8161221a565b955061294c604089016128f5565b945061295a606089016128f5565b9350612968608089016128f5565b925060a088015160ff8116811461297e57600080fd5b60c0890151909250801515811461299457600080fd5b8091505092959891949750929550565b6020808252825160a083830152805160c0840181905260009291820190839060e08601905b8083101561276b576129dc828551612374565b60608201915084840193506001830192506129c9565b60008060008060808587031215612a0857600080fd5b505082516020840151604085015160609095015191969095509092509050565b600060208284031215612a3a57600080fd5b611d8c826128f5565b60008219821115612a5657612a566128c6565b500190565b948552602085019390935260408401919091526060830152608082015260a00190565b600080600060608486031215612a9357600080fd5b8351925060208401519150604084015190509250925092565b6000600160ff1b8201612ac157612ac16128c6565b5060000390565b60008160020b627fffff198103612ae157612ae16128c6565b60000392915050565b6000816000190483118215151615612b0457612b046128c6565b500290565b634e487b7160e01b600052601260045260246000fd5b600082612b2e57612b2e612b09565b500490565b600082612b4257612b42612b09565b500690565b60006001600160a01b0383811690831681811015612b6757612b676128c6565b03939250505056fea2646970667358221220a8b7461d0e0d7559e2e73949aed9be7c71af28a5c7da981f66b261f102f6b90964736f6c634300080d00330000000000000000000000001f98431c8ad98523631ae4a59f267346ea31f984000000000000000000000000007b12a0945864843ff3b9e9d11e58371f9a53f0",
    "devdoc": {
        "kind": "dev",
        "methods": {},
        "version": 1
    },
    "userdoc": {
        "kind": "user",
        "methods": {},
        "version": 1
    },
    "storageLayout": {
        "storage": [],
        "types": null
    }
}