{
  "address": "0x01943B7B346B8A121e126fBF2c5E32B74C6d1Ca2",
  "abi": [
    {
      "inputs": [
        {
          "internalType": "contract IUniswapV3Factory",
          "name": "factory_",
          "type": "address"
        },
        {
          "internalType": "address",
          "name": "arrakisTreasury_",
          "type": "address"
        }
      ],
      "stateMutability": "nonpayable",
      "type": "constructor"
    },
    {
      "inputs": [
        {
          "internalType": "int24",
          "name": "lowerTick",
          "type": "int24"
        },
        {
          "internalType": "int24",
          "name": "upperTick",
          "type": "int24"
        },
        {
          "internalType": "uint24",
          "name": "feeTier",
          "type": "uint24"
        }
      ],
      "name": "LiquidityZeroError",
      "type": "error"
    },
    {
      "inputs": [
        {
          "internalType": "uint24",
          "name": "feeTier",
          "type": "uint24"
        }
      ],
      "name": "PoolError",
      "type": "error"
    },
    {
      "anonymous": false,
      "inputs": [
        {
          "indexed": true,
          "internalType": "address",
          "name": "owner",
          "type": "address"
        },
        {
          "indexed": true,
          "internalType": "address",
          "name": "spender",
          "type": "address"
        },
        {
          "indexed": false,
          "internalType": "uint256",
          "name": "value",
          "type": "uint256"
        }
      ],
      "name": "Approval",
      "type": "event"
    },
    {
      "anonymous": false,
      "inputs": [
        {
          "indexed": false,
          "internalType": "address",
          "name": "receiver",
          "type": "address"
        },
        {
          "indexed": false,
          "internalType": "uint256",
          "name": "burnAmount",
          "type": "uint256"
        },
        {
          "indexed": false,
          "internalType": "uint256",
          "name": "amount0Out",
          "type": "uint256"
        },
        {
          "indexed": false,
          "internalType": "uint256",
          "name": "amount1Out",
          "type": "uint256"
        }
      ],
      "name": "Burned",
      "type": "event"
    },
    {
      "anonymous": false,
      "inputs": [
        {
          "indexed": false,
          "internalType": "uint256",
          "name": "fee0",
          "type": "uint256"
        },
        {
          "indexed": false,
          "internalType": "uint256",
          "name": "fee1",
          "type": "uint256"
        }
      ],
      "name": "FeesEarned",
      "type": "event"
    },
    {
      "anonymous": false,
      "inputs": [
        {
          "indexed": false,
          "internalType": "uint256",
          "name": "fee0",
          "type": "uint256"
        },
        {
          "indexed": false,
          "internalType": "uint256",
          "name": "fee1",
          "type": "uint256"
        }
      ],
      "name": "FeesEarnedRebalance",
      "type": "event"
    },
    {
      "anonymous": false,
      "inputs": [
        {
          "indexed": false,
          "internalType": "uint8",
          "name": "version",
          "type": "uint8"
        }
      ],
      "name": "Initialized",
      "type": "event"
    },
    {
      "anonymous": false,
      "inputs": [
        {
          "indexed": false,
          "internalType": "address",
          "name": "user",
          "type": "address"
        },
        {
          "indexed": false,
          "internalType": "uint256",
          "name": "burnAmount0",
          "type": "uint256"
        },
        {
          "indexed": false,
          "internalType": "uint256",
          "name": "burnAmount1",
          "type": "uint256"
        }
      ],
      "name": "LPBurned",
      "type": "event"
    },
    {
      "anonymous": false,
      "inputs": [
        {
          "indexed": false,
          "internalType": "address",
          "name": "receiver",
          "type": "address"
        },
        {
          "indexed": false,
          "internalType": "uint256",
          "name": "mintAmount",
          "type": "uint256"
        },
        {
          "indexed": false,
          "internalType": "uint256",
          "name": "amount0In",
          "type": "uint256"
        },
        {
          "indexed": false,
          "internalType": "uint256",
          "name": "amount1In",
          "type": "uint256"
        }
      ],
      "name": "Minted",
      "type": "event"
    },
    {
      "anonymous": false,
      "inputs": [
        {
          "indexed": true,
          "internalType": "address",
          "name": "previousOwner",
          "type": "address"
        },
        {
          "indexed": true,
          "internalType": "address",
          "name": "newOwner",
          "type": "address"
        }
      ],
      "name": "OwnershipTransferred",
      "type": "event"
    },
    {
      "anonymous": false,
      "inputs": [
        {
          "indexed": true,
          "internalType": "address",
          "name": "from",
          "type": "address"
        },
        {
          "indexed": true,
          "internalType": "address",
          "name": "to",
          "type": "address"
        },
        {
          "indexed": false,
          "internalType": "uint256",
          "name": "value",
          "type": "uint256"
        }
      ],
      "name": "Transfer",
      "type": "event"
    },
    {
      "anonymous": false,
      "inputs": [
        {
          "indexed": false,
          "internalType": "uint256",
          "name": "amount0",
          "type": "uint256"
        },
        {
          "indexed": false,
          "internalType": "uint256",
          "name": "amount1",
          "type": "uint256"
        }
      ],
      "name": "WithdrawArrakisBalance",
      "type": "event"
    },
    {
      "anonymous": false,
      "inputs": [
        {
          "indexed": false,
          "internalType": "uint256",
          "name": "amount0",
          "type": "uint256"
        },
        {
          "indexed": false,
          "internalType": "uint256",
          "name": "amount1",
          "type": "uint256"
        }
      ],
      "name": "WithdrawManagerBalance",
      "type": "event"
    },
    {
      "inputs": [
        {
          "internalType": "address[]",
          "name": "operators_",
          "type": "address[]"
        }
      ],
      "name": "addOperators",
      "outputs": [],
      "stateMutability": "nonpayable",
      "type": "function"
    },
    {
      "inputs": [
        {
          "internalType": "address[]",
          "name": "pools_",
          "type": "address[]"
        }
      ],
      "name": "addPools",
      "outputs": [],
      "stateMutability": "nonpayable",
      "type": "function"
    },
    {
      "inputs": [
        {
          "components": [
            {
              "internalType": "int24",
              "name": "lowerTick",
              "type": "int24"
            },
            {
              "internalType": "int24",
              "name": "upperTick",
              "type": "int24"
            },
            {
              "internalType": "uint24",
              "name": "feeTier",
              "type": "uint24"
            }
          ],
          "internalType": "struct Range[]",
          "name": "ranges_",
          "type": "tuple[]"
        },
        {
          "components": [
            {
              "components": [
                {
                  "internalType": "uint128",
                  "name": "liquidity",
                  "type": "uint128"
                },
                {
                  "components": [
                    {
                      "internalType": "int24",
                      "name": "lowerTick",
                      "type": "int24"
                    },
                    {
                      "internalType": "int24",
                      "name": "upperTick",
                      "type": "int24"
                    },
                    {
                      "internalType": "uint24",
                      "name": "feeTier",
                      "type": "uint24"
                    }
                  ],
                  "internalType": "struct Range",
                  "name": "range",
                  "type": "tuple"
                }
              ],
              "internalType": "struct PositionLiquidity[]",
              "name": "removes",
              "type": "tuple[]"
            },
            {
              "components": [
                {
                  "internalType": "uint128",
                  "name": "liquidity",
                  "type": "uint128"
                },
                {
                  "components": [
                    {
                      "internalType": "int24",
                      "name": "lowerTick",
                      "type": "int24"
                    },
                    {
                      "internalType": "int24",
                      "name": "upperTick",
                      "type": "int24"
                    },
                    {
                      "internalType": "uint24",
                      "name": "feeTier",
                      "type": "uint24"
                    }
                  ],
                  "internalType": "struct Range",
                  "name": "range",
                  "type": "tuple"
                }
              ],
              "internalType": "struct PositionLiquidity[]",
              "name": "deposits",
              "type": "tuple[]"
            },
            {
              "components": [
                {
                  "internalType": "bytes",
                  "name": "payload",
                  "type": "bytes"
                },
                {
                  "internalType": "address",
                  "name": "pool",
                  "type": "address"
                },
                {
                  "internalType": "address",
                  "name": "router",
                  "type": "address"
                },
                {
                  "internalType": "uint256",
                  "name": "amountIn",
                  "type": "uint256"
                },
                {
                  "internalType": "uint256",
                  "name": "expectedMinReturn",
                  "type": "uint256"
                },
                {
                  "internalType": "bool",
                  "name": "zeroForOne",
                  "type": "bool"
                }
              ],
              "internalType": "struct SwapPayload",
              "name": "swap",
              "type": "tuple"
            }
          ],
          "internalType": "struct Rebalance",
          "name": "rebalanceParams_",
          "type": "tuple"
        }
      ],
      "name": "addRangeAndRebalance",
      "outputs": [],
      "stateMutability": "nonpayable",
      "type": "function"
    },
    {
      "inputs": [
        {
          "components": [
            {
              "internalType": "int24",
              "name": "lowerTick",
              "type": "int24"
            },
            {
              "internalType": "int24",
              "name": "upperTick",
              "type": "int24"
            },
            {
              "internalType": "uint24",
              "name": "feeTier",
              "type": "uint24"
            }
          ],
          "internalType": "struct Range[]",
          "name": "ranges_",
          "type": "tuple[]"
        }
      ],
      "name": "addRanges",
      "outputs": [],
      "stateMutability": "nonpayable",
      "type": "function"
    },
    {
      "inputs": [
        {
          "internalType": "address",
          "name": "owner",
          "type": "address"
        },
        {
          "internalType": "address",
          "name": "spender",
          "type": "address"
        }
      ],
      "name": "allowance",
      "outputs": [
        {
          "internalType": "uint256",
          "name": "",
          "type": "uint256"
        }
      ],
      "stateMutability": "view",
      "type": "function"
    },
    {
      "inputs": [
        {
          "internalType": "address",
          "name": "spender",
          "type": "address"
        },
        {
          "internalType": "uint256",
          "name": "amount",
          "type": "uint256"
        }
      ],
      "name": "approve",
      "outputs": [
        {
          "internalType": "bool",
          "name": "",
          "type": "bool"
        }
      ],
      "stateMutability": "nonpayable",
      "type": "function"
    },
    {
      "inputs": [],
      "name": "arrakisBalance0",
      "outputs": [
        {
          "internalType": "uint256",
          "name": "",
          "type": "uint256"
        }
      ],
      "stateMutability": "view",
      "type": "function"
    },
    {
      "inputs": [],
      "name": "arrakisBalance1",
      "outputs": [
        {
          "internalType": "uint256",
          "name": "",
          "type": "uint256"
        }
      ],
      "stateMutability": "view",
      "type": "function"
    },
    {
      "inputs": [],
      "name": "arrakisFeeBPS",
      "outputs": [
        {
          "internalType": "uint16",
          "name": "",
          "type": "uint16"
        }
      ],
      "stateMutability": "view",
      "type": "function"
    },
    {
      "inputs": [],
      "name": "arrakisTreasury",
      "outputs": [
        {
          "internalType": "address",
          "name": "",
          "type": "address"
        }
      ],
      "stateMutability": "view",
      "type": "function"
    },
    {
      "inputs": [
        {
          "internalType": "address",
          "name": "account",
          "type": "address"
        }
      ],
      "name": "balanceOf",
      "outputs": [
        {
          "internalType": "uint256",
          "name": "",
          "type": "uint256"
        }
      ],
      "stateMutability": "view",
      "type": "function"
    },
    {
      "inputs": [
        {
          "components": [
            {
              "internalType": "uint128",
              "name": "liquidity",
              "type": "uint128"
            },
            {
              "components": [
                {
                  "internalType": "int24",
                  "name": "lowerTick",
                  "type": "int24"
                },
                {
                  "internalType": "int24",
                  "name": "upperTick",
                  "type": "int24"
                },
                {
                  "internalType": "uint24",
                  "name": "feeTier",
                  "type": "uint24"
                }
              ],
              "internalType": "struct Range",
              "name": "range",
              "type": "tuple"
            }
          ],
          "internalType": "struct BurnLiquidity[]",
          "name": "burns",
          "type": "tuple[]"
        },
        {
          "internalType": "uint256",
          "name": "burnAmount_",
          "type": "uint256"
        },
        {
          "internalType": "address",
          "name": "receiver_",
          "type": "address"
        }
      ],
      "name": "burn",
      "outputs": [
        {
          "internalType": "uint256",
          "name": "amount0",
          "type": "uint256"
        },
        {
          "internalType": "uint256",
          "name": "amount1",
          "type": "uint256"
        }
      ],
      "stateMutability": "nonpayable",
      "type": "function"
    },
    {
      "inputs": [],
      "name": "decimals",
      "outputs": [
        {
          "internalType": "uint8",
          "name": "",
          "type": "uint8"
        }
      ],
      "stateMutability": "view",
      "type": "function"
    },
    {
      "inputs": [
        {
          "internalType": "address",
          "name": "spender",
          "type": "address"
        },
        {
          "internalType": "uint256",
          "name": "subtractedValue",
          "type": "uint256"
        }
      ],
      "name": "decreaseAllowance",
      "outputs": [
        {
          "internalType": "bool",
          "name": "",
          "type": "bool"
        }
      ],
      "stateMutability": "nonpayable",
      "type": "function"
    },
    {
      "inputs": [],
      "name": "factory",
      "outputs": [
        {
          "internalType": "contract IUniswapV3Factory",
          "name": "",
          "type": "address"
        }
      ],
      "stateMutability": "view",
      "type": "function"
    },
    {
      "inputs": [
        {
          "internalType": "address",
          "name": "spender",
          "type": "address"
        },
        {
          "internalType": "uint256",
          "name": "addedValue",
          "type": "uint256"
        }
      ],
      "name": "increaseAllowance",
      "outputs": [
        {
          "internalType": "bool",
          "name": "",
          "type": "bool"
        }
      ],
      "stateMutability": "nonpayable",
      "type": "function"
    },
    {
      "inputs": [],
      "name": "init0",
      "outputs": [
        {
          "internalType": "uint256",
          "name": "",
          "type": "uint256"
        }
      ],
      "stateMutability": "view",
      "type": "function"
    },
    {
      "inputs": [],
      "name": "init1",
      "outputs": [
        {
          "internalType": "uint256",
          "name": "",
          "type": "uint256"
        }
      ],
      "stateMutability": "view",
      "type": "function"
    },
    {
      "inputs": [
        {
          "internalType": "string",
          "name": "name_",
          "type": "string"
        },
        {
          "internalType": "string",
          "name": "symbol_",
          "type": "string"
        },
        {
          "components": [
            {
              "internalType": "uint24[]",
              "name": "feeTiers",
              "type": "uint24[]"
            },
            {
              "internalType": "address",
              "name": "token0",
              "type": "address"
            },
            {
              "internalType": "address",
              "name": "token1",
              "type": "address"
            },
            {
              "internalType": "address",
              "name": "owner",
              "type": "address"
            },
            {
              "internalType": "address[]",
              "name": "operators",
              "type": "address[]"
            },
            {
              "components": [
                {
                  "internalType": "int24",
                  "name": "lowerTick",
                  "type": "int24"
                },
                {
                  "internalType": "int24",
                  "name": "upperTick",
                  "type": "int24"
                },
                {
                  "internalType": "uint24",
                  "name": "feeTier",
                  "type": "uint24"
                }
              ],
              "internalType": "struct Range[]",
              "name": "ranges",
              "type": "tuple[]"
            },
            {
              "internalType": "uint256",
              "name": "init0",
              "type": "uint256"
            },
            {
              "internalType": "uint256",
              "name": "init1",
              "type": "uint256"
            },
            {
              "internalType": "address",
              "name": "managerTreasury",
              "type": "address"
            },
            {
              "internalType": "uint16",
              "name": "managerFeeBPS",
              "type": "uint16"
            },
            {
              "internalType": "int24",
              "name": "maxTwapDeviation",
              "type": "int24"
            },
            {
              "internalType": "uint24",
              "name": "twapDuration",
              "type": "uint24"
            },
            {
              "internalType": "uint24",
              "name": "maxSlippage",
              "type": "uint24"
            }
          ],
          "internalType": "struct InitializePayload",
          "name": "params_",
          "type": "tuple"
        }
      ],
      "name": "initialize",
      "outputs": [],
      "stateMutability": "nonpayable",
      "type": "function"
    },
    {
      "inputs": [],
      "name": "managerBalance0",
      "outputs": [
        {
          "internalType": "uint256",
          "name": "",
          "type": "uint256"
        }
      ],
      "stateMutability": "view",
      "type": "function"
    },
    {
      "inputs": [],
      "name": "managerBalance1",
      "outputs": [
        {
          "internalType": "uint256",
          "name": "",
          "type": "uint256"
        }
      ],
      "stateMutability": "view",
      "type": "function"
    },
    {
      "inputs": [],
      "name": "managerFeeBPS",
      "outputs": [
        {
          "internalType": "uint16",
          "name": "",
          "type": "uint16"
        }
      ],
      "stateMutability": "view",
      "type": "function"
    },
    {
      "inputs": [],
      "name": "managerTreasury",
      "outputs": [
        {
          "internalType": "address",
          "name": "",
          "type": "address"
        }
      ],
      "stateMutability": "view",
      "type": "function"
    },
    {
      "inputs": [],
      "name": "maxSlippage",
      "outputs": [
        {
          "internalType": "uint24",
          "name": "",
          "type": "uint24"
        }
      ],
      "stateMutability": "view",
      "type": "function"
    },
    {
      "inputs": [],
      "name": "maxTwapDeviation",
      "outputs": [
        {
          "internalType": "int24",
          "name": "",
          "type": "int24"
        }
      ],
      "stateMutability": "view",
      "type": "function"
    },
    {
      "inputs": [
        {
          "internalType": "uint256",
          "name": "mintAmount_",
          "type": "uint256"
        },
        {
          "internalType": "address",
          "name": "receiver_",
          "type": "address"
        }
      ],
      "name": "mint",
      "outputs": [
        {
          "internalType": "uint256",
          "name": "amount0",
          "type": "uint256"
        },
        {
          "internalType": "uint256",
          "name": "amount1",
          "type": "uint256"
        }
      ],
      "stateMutability": "nonpayable",
      "type": "function"
    },
    {
      "inputs": [],
      "name": "name",
      "outputs": [
        {
          "internalType": "string",
          "name": "",
          "type": "string"
        }
      ],
      "stateMutability": "view",
      "type": "function"
    },
    {
      "inputs": [],
      "name": "owner",
      "outputs": [
        {
          "internalType": "address",
          "name": "",
          "type": "address"
        }
      ],
      "stateMutability": "view",
      "type": "function"
    },
    {
      "inputs": [
        {
          "components": [
            {
              "internalType": "int24",
              "name": "lowerTick",
              "type": "int24"
            },
            {
              "internalType": "int24",
              "name": "upperTick",
              "type": "int24"
            },
            {
              "internalType": "uint24",
              "name": "feeTier",
              "type": "uint24"
            }
          ],
          "internalType": "struct Range",
          "name": "range_",
          "type": "tuple"
        }
      ],
      "name": "rangeExist",
      "outputs": [
        {
          "internalType": "bool",
          "name": "ok",
          "type": "bool"
        },
        {
          "internalType": "uint256",
          "name": "index",
          "type": "uint256"
        }
      ],
      "stateMutability": "view",
      "type": "function"
    },
    {
      "inputs": [
        {
          "internalType": "uint256",
          "name": "",
          "type": "uint256"
        }
      ],
      "name": "ranges",
      "outputs": [
        {
          "internalType": "int24",
          "name": "lowerTick",
          "type": "int24"
        },
        {
          "internalType": "int24",
          "name": "upperTick",
          "type": "int24"
        },
        {
          "internalType": "uint24",
          "name": "feeTier",
          "type": "uint24"
        }
      ],
      "stateMutability": "view",
      "type": "function"
    },
    {
      "inputs": [],
      "name": "rangesArray",
      "outputs": [
        {
          "components": [
            {
              "internalType": "int24",
              "name": "lowerTick",
              "type": "int24"
            },
            {
              "internalType": "int24",
              "name": "upperTick",
              "type": "int24"
            },
            {
              "internalType": "uint24",
              "name": "feeTier",
              "type": "uint24"
            }
          ],
          "internalType": "struct Range[]",
          "name": "",
          "type": "tuple[]"
        }
      ],
      "stateMutability": "view",
      "type": "function"
    },
    {
      "inputs": [],
      "name": "rangesLength",
      "outputs": [
        {
          "internalType": "uint256",
          "name": "",
          "type": "uint256"
        }
      ],
      "stateMutability": "view",
      "type": "function"
    },
    {
      "inputs": [
        {
          "components": [
            {
              "components": [
                {
                  "internalType": "uint128",
                  "name": "liquidity",
                  "type": "uint128"
                },
                {
                  "components": [
                    {
                      "internalType": "int24",
                      "name": "lowerTick",
                      "type": "int24"
                    },
                    {
                      "internalType": "int24",
                      "name": "upperTick",
                      "type": "int24"
                    },
                    {
                      "internalType": "uint24",
                      "name": "feeTier",
                      "type": "uint24"
                    }
                  ],
                  "internalType": "struct Range",
                  "name": "range",
                  "type": "tuple"
                }
              ],
              "internalType": "struct PositionLiquidity[]",
              "name": "removes",
              "type": "tuple[]"
            },
            {
              "components": [
                {
                  "internalType": "uint128",
                  "name": "liquidity",
                  "type": "uint128"
                },
                {
                  "components": [
                    {
                      "internalType": "int24",
                      "name": "lowerTick",
                      "type": "int24"
                    },
                    {
                      "internalType": "int24",
                      "name": "upperTick",
                      "type": "int24"
                    },
                    {
                      "internalType": "uint24",
                      "name": "feeTier",
                      "type": "uint24"
                    }
                  ],
                  "internalType": "struct Range",
                  "name": "range",
                  "type": "tuple"
                }
              ],
              "internalType": "struct PositionLiquidity[]",
              "name": "deposits",
              "type": "tuple[]"
            },
            {
              "components": [
                {
                  "internalType": "bytes",
                  "name": "payload",
                  "type": "bytes"
                },
                {
                  "internalType": "address",
                  "name": "pool",
                  "type": "address"
                },
                {
                  "internalType": "address",
                  "name": "router",
                  "type": "address"
                },
                {
                  "internalType": "uint256",
                  "name": "amountIn",
                  "type": "uint256"
                },
                {
                  "internalType": "uint256",
                  "name": "expectedMinReturn",
                  "type": "uint256"
                },
                {
                  "internalType": "bool",
                  "name": "zeroForOne",
                  "type": "bool"
                }
              ],
              "internalType": "struct SwapPayload",
              "name": "swap",
              "type": "tuple"
            }
          ],
          "internalType": "struct Rebalance",
          "name": "rebalanceParams_",
          "type": "tuple"
        }
      ],
      "name": "rebalance",
      "outputs": [],
      "stateMutability": "nonpayable",
      "type": "function"
    },
    {
      "inputs": [
        {
          "internalType": "address[]",
          "name": "operators_",
          "type": "address[]"
        }
      ],
      "name": "removeOperators",
      "outputs": [],
      "stateMutability": "nonpayable",
      "type": "function"
    },
    {
      "inputs": [
        {
          "internalType": "address[]",
          "name": "pools_",
          "type": "address[]"
        }
      ],
      "name": "removePools",
      "outputs": [],
      "stateMutability": "nonpayable",
      "type": "function"
    },
    {
      "inputs": [
        {
          "components": [
            {
              "internalType": "int24",
              "name": "lowerTick",
              "type": "int24"
            },
            {
              "internalType": "int24",
              "name": "upperTick",
              "type": "int24"
            },
            {
              "internalType": "uint24",
              "name": "feeTier",
              "type": "uint24"
            }
          ],
          "internalType": "struct Range[]",
          "name": "ranges_",
          "type": "tuple[]"
        }
      ],
      "name": "removeRanges",
      "outputs": [],
      "stateMutability": "nonpayable",
      "type": "function"
    },
    {
      "inputs": [],
      "name": "renounceOwnership",
      "outputs": [],
      "stateMutability": "nonpayable",
      "type": "function"
    },
    {
      "inputs": [
        {
          "internalType": "address",
          "name": "managerTreasury_",
          "type": "address"
        }
      ],
      "name": "setManagerTreasury",
      "outputs": [],
      "stateMutability": "nonpayable",
      "type": "function"
    },
    {
      "inputs": [
        {
          "internalType": "int24",
          "name": "maxTwapDeviation_",
          "type": "int24"
        }
      ],
      "name": "setMaxTwapDeviation",
      "outputs": [],
      "stateMutability": "nonpayable",
      "type": "function"
    },
    {
      "inputs": [
        {
          "internalType": "uint24",
          "name": "twapDuration_",
          "type": "uint24"
        }
      ],
      "name": "setTwapDuration",
      "outputs": [],
      "stateMutability": "nonpayable",
      "type": "function"
    },
    {
      "inputs": [],
      "name": "symbol",
      "outputs": [
        {
          "internalType": "string",
          "name": "",
          "type": "string"
        }
      ],
      "stateMutability": "view",
      "type": "function"
    },
    {
      "inputs": [],
      "name": "token0",
      "outputs": [
        {
          "internalType": "contract IERC20",
          "name": "",
          "type": "address"
        }
      ],
      "stateMutability": "view",
      "type": "function"
    },
    {
      "inputs": [],
      "name": "token1",
      "outputs": [
        {
          "internalType": "contract IERC20",
          "name": "",
          "type": "address"
        }
      ],
      "stateMutability": "view",
      "type": "function"
    },
    {
      "inputs": [],
      "name": "totalSupply",
      "outputs": [
        {
          "internalType": "uint256",
          "name": "",
          "type": "uint256"
        }
      ],
      "stateMutability": "view",
      "type": "function"
    },
    {
      "inputs": [
        {
          "internalType": "address",
          "name": "to",
          "type": "address"
        },
        {
          "internalType": "uint256",
          "name": "amount",
          "type": "uint256"
        }
      ],
      "name": "transfer",
      "outputs": [
        {
          "internalType": "bool",
          "name": "",
          "type": "bool"
        }
      ],
      "stateMutability": "nonpayable",
      "type": "function"
    },
    {
      "inputs": [
        {
          "internalType": "address",
          "name": "from",
          "type": "address"
        },
        {
          "internalType": "address",
          "name": "to",
          "type": "address"
        },
        {
          "internalType": "uint256",
          "name": "amount",
          "type": "uint256"
        }
      ],
      "name": "transferFrom",
      "outputs": [
        {
          "internalType": "bool",
          "name": "",
          "type": "bool"
        }
      ],
      "stateMutability": "nonpayable",
      "type": "function"
    },
    {
      "inputs": [
        {
          "internalType": "address",
          "name": "newOwner",
          "type": "address"
        }
      ],
      "name": "transferOwnership",
      "outputs": [],
      "stateMutability": "nonpayable",
      "type": "function"
    },
    {
      "inputs": [],
      "name": "twapDuration",
      "outputs": [
        {
          "internalType": "uint24",
          "name": "",
          "type": "uint24"
        }
      ],
      "stateMutability": "view",
      "type": "function"
    },
    {
      "inputs": [
        {
          "internalType": "uint256",
          "name": "amount0Owed_",
          "type": "uint256"
        },
        {
          "internalType": "uint256",
          "name": "amount1Owed_",
          "type": "uint256"
        },
        {
          "internalType": "bytes",
          "name": "",
          "type": "bytes"
        }
      ],
      "name": "uniswapV3MintCallback",
      "outputs": [],
      "stateMutability": "nonpayable",
      "type": "function"
    },
    {
      "inputs": [
        {
          "internalType": "int256",
          "name": "amount0Delta_",
          "type": "int256"
        },
        {
          "internalType": "int256",
          "name": "amount1Delta_",
          "type": "int256"
        },
        {
          "internalType": "bytes",
          "name": "",
          "type": "bytes"
        }
      ],
      "name": "uniswapV3SwapCallback",
      "outputs": [],
      "stateMutability": "nonpayable",
      "type": "function"
    },
    {
      "inputs": [],
      "name": "version",
      "outputs": [
        {
          "internalType": "string",
          "name": "",
          "type": "string"
        }
      ],
      "stateMutability": "view",
      "type": "function"
    },
    {
      "inputs": [],
      "name": "withdrawArrakisBalance",
      "outputs": [],
      "stateMutability": "nonpayable",
      "type": "function"
    },
    {
      "inputs": [],
      "name": "withdrawManagerBalance",
      "outputs": [],
      "stateMutability": "nonpayable",
      "type": "function"
    }
  ],
  "transactionHash": "0xd5b724b87018419b8e92093f25fe865199c9d97e2161d7b1c150a22f6ce06671",
  "args": [
    "0x1F98431c8aD98523631AE4a59f267346ea31F984",
    "0xF953c3d475dc0a9877329F71e2CE3d2519a519A2"
  ],
  "numDeployments": 4,
  "solcInputHash": "80f855e73563fd7085619a9d6ab1c642",
  "bytecode": "0x60c06040523480156200001157600080fd5b5060405162005ec238038062005ec28339810160408190526200003491620000fb565b81816001600160a01b0382166200007c5760405162461bcd60e51b8152602060048201526007602482015266666163746f727960c81b60448201526064015b60405180910390fd5b6001600160a01b038116620000c75760405162461bcd60e51b815260206004820152601060248201526f617272616b697320747265617375727960801b604482015260640162000073565b6001600160a01b039182166080521660a052506200013a9050565b6001600160a01b0381168114620000f857600080fd5b50565b600080604083850312156200010f57600080fd5b82516200011c81620000e2565b60208401519092506200012f81620000e2565b809150509250929050565b60805160a051615d1c620001a66000396000818161053e01528181611b260152611b6301526000818161056e01528181610e27015281816115bf01528181611eda015281816122e901528181612abe01528181612c0f01528181612f1801526139c70152615d1c6000f3fe608060405234801561001057600080fd5b50600436106102675760003560e01c8063065756db1461026c57806306fdde0314610288578063095ea7b31461029d5780630dfe1681146102c057806314b80630146102e057806318160ddd146102e957806323b872dd146102f157806326d8954514610304578063313ce5671461032e5780633926ab5f1461033d5780633950935114610352578063397a877e146103655780633cbff3fe1461037a57806342fb9d441461038d5780634b1641401461039657806354fd4d50146103a95780635fdecdfa146103cd578063670f13a1146103ef578063701c2a8d1461041957806370a082311461042c578063715018a6146104555780637ecd67171461045d57806387e60235146104655780638c04166f146104785780638da5cb5b1461048e57806394bf804d1461049657806395d89b41146104b75780639ef0e31e146104bf578063a07aea1c146104d2578063a457c2d7146104e5578063a9059cbb146104f8578063ac3f07831461050b578063ad1b78b41461051e578063b36a4ab114610526578063b9f24cb214610539578063bbfe704e14610560578063c45a015514610569578063c6e4eec114610590578063c7075041146105a3578063cc95353e146105be578063ccdf7a02146105d1578063d21220a7146105e6578063d3487997146105f9578063d365a3771461060c578063d8953ca71461061f578063dc9ad4c114610628578063dd62ed3e14610630578063e41e0bb014610643578063e7c7cb9114610656578063f2eb3e3414610676578063f2fde38b1461067f578063f4effe4114610692578063fa461e33146106a5575b600080fd5b610275609f5481565b6040519081526020015b60405180910390f35b6102906106b8565b60405161027f9190614c08565b6102b06102ab366004614c50565b61074a565b604051901515815260200161027f565b6097546102d3906001600160a01b031681565b60405161027f9190614c89565b61027560995481565b603554610275565b6102b06102ff366004614c9d565b610764565b60a15461031a906301000000900462ffffff1681565b60405162ffffff909116815260200161027f565b6040516012815260200161027f565b61035061034b366004614cef565b61078a565b005b6102b0610360366004614c50565b6107e6565b61036d610808565b60405161027f9190614d33565b610350610388366004614d90565b610888565b61027560a05481565b6103506103a4366004614dad565b6108d1565b610290604051806040016040528060058152602001640312e302e360dc1b81525081565b6103e06103db366004614e21565b610a0d565b60405161027f93929190614e3a565b6104026103fd366004614e74565b610a49565b60408051921515835260208301919091520161027f565b610350610427366004614edb565b610b3f565b61027561043a366004614f1c565b6001600160a01b031660009081526033602052604090205490565b610350610b92565b610350610bf9565b610350610473366004614f1c565b610c8e565b60a15461031a90600160301b900462ffffff1681565b6102d3610cdf565b6104a96104a4366004614f39565b610cee565b60405161027f929190614f69565b610290610fcc565b6103506104cd366004614f77565b610fdb565b6103506104e0366004614dad565b61102b565b6102b06104f3366004614c50565b611064565b6102b0610506366004614c50565b6110ea565b610350610519366004614fdf565b6110f8565b609b54610275565b610350610534366004614dad565b61112b565b6102d37f000000000000000000000000000000000000000000000000000000000000000081565b610275609d5481565b6102d37f000000000000000000000000000000000000000000000000000000000000000081565b61035061059e366004615054565b611164565b6105ab60fa81565b60405161ffff909116815260200161027f565b609e546102d3906001600160a01b031681565b609e546105ab90600160a01b900461ffff1681565b6098546102d3906001600160a01b031681565b6103506106073660046150ef565b611957565b61035061061a366004614dad565b6119be565b610275609c5481565b610350611afc565b61027561063e366004615141565b611bb9565b610350610651366004614edb565b611be4565b60a1546106639060020b81565b60405160029190910b815260200161027f565b610275609a5481565b61035061068d366004614f1c565b611ca3565b6104a96106a036600461516f565b611d80565b6103506106b33660046150ef565b61267f565b6060603680546106c7906151fc565b80601f01602080910402602001604051908101604052809291908181526020018280546106f3906151fc565b80156107405780601f1061071557610100808354040283529160200191610740565b820191906000526020600020905b81548152906001019060200180831161072357829003601f168201915b5050505050905090565b6000336107588185856126f9565b60019150505b92915050565b60003361077285828561281d565b61077d858585612891565b60019150505b9392505050565b33610793610cdf565b6001600160a01b0316146107c25760405162461bcd60e51b81526004016107b990615230565b60405180910390fd5b60a1805462ffffff90921663010000000265ffffff00000019909216919091179055565b6000336107588185856107f98383611bb9565b610803919061527b565b6126f9565b6060609b805480602002602001604051908101604052809291908181526020016000905b8282101561087f5760008481526020908190206040805160608101825291850154600281810b845263010000008204900b83850152600160301b900462ffffff169082015282526001909201910161082c565b50505050905090565b33610891610cdf565b6001600160a01b0316146108b75760405162461bcd60e51b81526004016107b990615230565b60a1805462ffffff191662ffffff92909216919091179055565b336108da610cdf565b6001600160a01b0316146109005760405162461bcd60e51b81526004016107b990615230565b60005b81811015610a0857600083838381811061091f5761091f615293565b90506020020160208101906109349190614f1c565b6001600160a01b03160361095a5760405162461bcd60e51b81526004016107b9906152a9565b61098c83838381811061096f5761096f615293565b90506020020160208101906109849190614f1c565b60a490612a4d565b6109c35760405162461bcd60e51b81526020600482015260086024820152671b9bdd081c1bdbdb60c21b60448201526064016107b9565b6109f58383838181106109d8576109d8615293565b90506020020160208101906109ed9190614f1c565b60a490612a62565b5080610a00816152cf565b915050610903565b505050565b609b8181548110610a1d57600080fd5b600091825260209091200154600281810b925063010000008204900b90600160301b900462ffffff1683565b60008060005b609b54811015610b3957609b8181548110610a6c57610a6c615293565b6000918252602091829020015460020b90610a8990860186614d90565b60020b148015610ad45750609b8181548110610aa757610aa7615293565b600091825260209182902001546301000000900460020b90610acf9060408701908701614d90565b60020b145b8015610b1d5750609b8181548110610aee57610aee615293565b600091825260209091200154600160301b900462ffffff16610b166060860160408701614cef565b62ffffff16145b925080915082610b395780610b31816152cf565b915050610a4f565b50915091565b33610b48610cdf565b6001600160a01b031614610b6e5760405162461bcd60e51b81526004016107b990615230565b609754609854610b8e91849184916001600160a01b039081169116612a77565b5050565b33610b9b610cdf565b6001600160a01b031614610bc15760405162461bcd60e51b81526004016107b990615230565b600080546040516001600160a01b0390911690600080516020615c67833981519152908390a3600080546001600160a01b0319169055565b609f805460a08054600093849055929055908115610c2e57609e54609754610c2e916001600160a01b03918216911684612d22565b8015610c5157609e54609854610c51916001600160a01b03918216911683612d22565b7f89efe8d94f73aa230d63a7da6b53e424cbf83e63d2940fb81a284e657303929a8282604051610c82929190614f69565b60405180910390a15050565b33610c97610cdf565b6001600160a01b031614610cbd5760405162461bcd60e51b81526004016107b990615230565b609e80546001600160a01b0319166001600160a01b0392909216919091179055565b6000546001600160a01b031690565b600080600260655403610d135760405162461bcd60e51b81526004016107b9906152e8565b600260655583610d535760405162461bcd60e51b815260206004820152600b60248201526a1b5a5b9d08185b5bdd5b9d60aa1b60448201526064016107b9565b6000610d5e60355490565b905060008060008060008511610d7c57609954609a54600080610ed0565b73A2e879F3688748CF6E9B77774f270A418e96113563e56f4d916040518060a00160405280609b805480602002602001604051908101604052809291908181526020016000905b82821015610e165760008481526020908190206040805160608101825291850154600281810b845263010000008204900b83850152600160301b900462ffffff1690820152825260019092019101610dc3565b505050908252506001600160a01b037f0000000000000000000000000000000000000000000000000000000000000000811660208301526097548116604080840191909152609854909116606083015230608090920191909152516001600160e01b031960e084901b168152610e8f919060040161531f565b608060405180830381865af4158015610eac573d6000803e3d6000fd5b505050506040513d601f19601f82011682018060405250810190610ed091906153c6565b93509350935093506000808611610eef57670de0b6b3a7640000610ef1565b855b9050610efe8a8683612d78565b9750610f0b8a8583612d78565b9650610f17898b612dc1565b8715610f3557609754610f35906001600160a01b031633308b612e8e565b8615610f5357609854610f53906001600160a01b031633308a612e8e565b600080516020615cc78339815191528383604051610f72929190614f69565b60405180910390a17f5a3358a3d27a5373c0df2604662088d37894d56b7cfd27f315770440f4e0d919898b8a8a604051610faf94939291906153fc565b60405180910390a150505050505060016065819055509250929050565b6060603780546106c7906151fc565b610fe660a233612a4d565b6110025760405162461bcd60e51b81526004016107b990615422565b60975460985461102291859185916001600160a01b039081169116612a77565b610a0881612ec6565b33611034610cdf565b6001600160a01b03161461105a5760405162461bcd60e51b81526004016107b990615230565b610b8e8282613cbb565b600033816110728286611bb9565b9050838110156110d25760405162461bcd60e51b815260206004820152602560248201527f45524332303a2064656372656173656420616c6c6f77616e63652062656c6f77604482015264207a65726f60d81b60648201526084016107b9565b6110df82868684036126f9565b506001949350505050565b600033610758818585612891565b61110360a233612a4d565b61111f5760405162461bcd60e51b81526004016107b990615422565b61112881612ec6565b50565b33611134610cdf565b6001600160a01b03161461115a5760405162461bcd60e51b81526004016107b990615230565b610b8e8282613da7565b60006111706001613e78565b9050801561118c576000805460ff60a81b1916600160a81b1790555b60006111988380615447565b9050116111d55760405162461bcd60e51b815260206004820152600b60248201526a3737903332b2903a34b2b960a91b60448201526064016107b9565b60006111e76040840160208501614f1c565b6001600160a01b0316036112265760405162461bcd60e51b81526020600482015260066024820152650746f6b656e360d41b60448201526064016107b9565b60006112386060840160408501614f1c565b6001600160a01b0316036112775760405162461bcd60e51b8152602060048201526006602482015265746f6b656e3160d01b60448201526064016107b9565b60006112866080840184615447565b9050116112c45760405162461bcd60e51b815260206004820152600c60248201526b6e6f206f70657261746f727360a01b60448201526064016107b9565b60006112d360a0840184615490565b90501161130e5760405162461bcd60e51b81526020600482015260096024820152686e6f2072616e67657360b81b60448201526064016107b9565b60008260c001351161134a5760405162461bcd60e51b81526020600482015260056024820152640696e6974360dc1b60448201526064016107b9565b60008260e00135116113865760405162461bcd60e51b8152602060048201526005602482015264696e69743160d81b60448201526064016107b9565b600061139a6101a084016101808501614cef565b62ffffff16116113dd5760405162461bcd60e51b815260206004820152600e60248201526d06d617820736c69707061676520360941b60448201526064016107b9565b60006113f161012084016101008501614f1c565b6001600160a01b03160361146157611411610140830161012084016154d8565b61ffff161561145c5760405162461bcd60e51b815260206004820152601760248201527637379020b2323932b9b9902d32b9379026b0b730b3b2b960491b60448201526064016107b9565b6114b8565b612710611476610140840161012085016154d8565b61ffff1611156114b85760405162461bcd60e51b815260206004820152600d60248201526c6d616e6167657246656542505360981b60448201526064016107b9565b60006114cc61016084016101408501614d90565b60020b136114ec5760405162461bcd60e51b81526004016107b9906154fc565b600061150061018084016101608501614cef565b62ffffff16116115225760405162461bcd60e51b81526004016107b9906154fc565b61159586868080601f01602080910402602001604051908101604052809392919081815260200183838082843760009201919091525050604080516020601f8a018190048102820181019092528881529250889150879081908401838280828437600092019190915250613f1a92505050565b61159d613f4d565b60005b6115aa8380615447565b90508110156117285760006001600160a01b037f000000000000000000000000000000000000000000000000000000000000000016631698ee826115f46040870160208801614f1c565b6116046060880160408901614f1c565b61160e8880615447565b8781811061161e5761161e615293565b90506020020160208101906116339190614cef565b6040518463ffffffff1660e01b815260040161165193929190615526565b602060405180830381865afa15801561166e573d6000803e3d6000fd5b505050506040513d601f19601f82011682018060405250810190611692919061554e565b90506001600160a01b0381166116e05760405162461bcd60e51b81526020600482015260136024820152721c1bdbdb08191bd95cc81b9bdd08195e1a5cdd606a1b60448201526064016107b9565b6116eb60a482612a4d565b156117085760405162461bcd60e51b81526004016107b99061556b565b61171360a482613f80565b50508080611720906152cf565b9150506115a0565b506117396040830160208401614f1c565b609780546001600160a01b0319166001600160a01b03929092169190911790556117696060830160408401614f1c565b609880546001600160a01b0319166001600160a01b03929092169190911790556117996080830160608401614f1c565b600080546001600160a01b0319166001600160a01b03929092169190911790556117ce6117c96080840184615447565b613cbb565b6118036117de60a0840184615490565b6117ee6040860160208701614f1c565b6117fe6060870160408801614f1c565b612a77565b60c082013560995560e0820135609a5561182561012083016101008401614f1c565b609e80546001600160a01b0319166001600160a01b0392909216919091179055611857610140830161012084016154d8565b609e805461ffff92909216600160a01b0261ffff60a01b1990921691909117905561188a61016083016101408401614d90565b60a1805462ffffff191662ffffff929092169190911790556118b461018083016101608401614cef565b60a1805462ffffff9290921663010000000265ffffff000000199092169190911790556118e96101a083016101808401614cef565b60a160066101000a81548162ffffff021916908362ffffff160217905550801561194f576000805460ff60a81b19169055604051600181527f7f26b83ff96e1f2b6a682f133852f6798a09c465da95921460cefb38474024989060200160405180910390a15b505050505050565b61196260a433612a4d565b61197e5760405162461bcd60e51b81526004016107b990615589565b831561199b5760975461199b906001600160a01b03163386612d22565b82156119b8576098546119b8906001600160a01b03163385612d22565b50505050565b336119c7610cdf565b6001600160a01b0316146119ed5760405162461bcd60e51b81526004016107b990615230565b60005b81811015610a08576000838383818110611a0c57611a0c615293565b9050602002016020810190611a219190614f1c565b6001600160a01b031603611a475760405162461bcd60e51b81526004016107b9906152a9565b611a79838383818110611a5c57611a5c615293565b9050602002016020810190611a719190614f1c565b60a290612a4d565b611ab75760405162461bcd60e51b815260206004820152600f60248201526e3737ba1030b71037b832b930ba37b960891b60448201526064016107b9565b611ae9838383818110611acc57611acc615293565b9050602002016020810190611ae19190614f1c565b60a290612a62565b5080611af4816152cf565b9150506119f0565b609c8054609d8054600093849055929055908115611b4b57609754611b4b906001600160a01b03167f000000000000000000000000000000000000000000000000000000000000000084612d22565b8015611b8857609854611b88906001600160a01b03167f000000000000000000000000000000000000000000000000000000000000000083612d22565b7f04a8160bc213279e35743081866b98b193dc70bb796faebc89776c0c306e135d8282604051610c82929190614f69565b6001600160a01b03918216600090815260346020908152604080832093909416825291909152205490565b33611bed610cdf565b6001600160a01b031614611c135760405162461bcd60e51b81526004016107b990615230565b60005b81811015610a0857600080611c41858585818110611c3657611c36615293565b905060600201610a49565b9150915081611c625760405162461bcd60e51b81526004016107b9906155b2565b609b8181548110611c7557611c75615293565b600091825260209091200180546001600160481b031916905550819050611c9b816152cf565b915050611c16565b33611cac610cdf565b6001600160a01b031614611cd25760405162461bcd60e51b81526004016107b990615230565b6001600160a01b038116611d375760405162461bcd60e51b815260206004820152602660248201527f4f776e61626c653a206e6577206f776e657220697320746865207a65726f206160448201526564647265737360d01b60648201526084016107b9565b600080546040516001600160a01b0380851693921691600080516020615c6783398151915291a3600080546001600160a01b0319166001600160a01b0392909216919091179055565b600080600260655403611da55760405162461bcd60e51b81526004016107b9906152e8565b60026065556000611db560355490565b905060008111611df65760405162461bcd60e51b815260206004820152600c60248201526b746f74616c20737570706c7960a01b60448201526064016107b9565b611e2f6040518060c001604052806000815260200160008152602001600081526020016000815260200160008152602001600081525090565b73A2e879F3688748CF6E9B77774f270A418e96113563e56f4d916040518060a00160405280609b805480602002602001604051908101604052809291908181526020016000905b82821015611ec95760008481526020908190206040805160608101825291850154600281810b845263010000008204900b83850152600160301b900462ffffff1690820152825260019092019101611e76565b505050908252506001600160a01b037f0000000000000000000000000000000000000000000000000000000000000000811660208301526097548116604080840191909152609854909116606083015230608090920191909152516001600160e01b031960e084901b168152611f42919060040161531f565b608060405180830381865af4158015611f5f573d6000803e3d6000fd5b505050506040513d601f19601f82011682018060405250810190611f8391906153c6565b6060850152604080850191909152602084019190915290825260975490516370a0823160e01b81526001600160a01b03909116906370a0823190611fcb903090600401614c89565b602060405180830381865afa158015611fe8573d6000803e3d6000fd5b505050506040513d601f19601f8201168201806040525081019061200c91906155d5565b60808201526098546040516370a0823160e01b81526001600160a01b03909116906370a0823190612041903090600401614c89565b602060405180830381865afa15801561205e573d6000803e3d6000fd5b505050506040513d601f19601f8201168201806040525081019061208291906155d5565b60a08201526040808201516060830151609e549251636d50cdaf60e01b81526000938493736EB5298Edf9b9A111136c5ba7d7494392ba273d793636d50cdaf936120dd93600160a01b900461ffff169060fa906004016155ee565b6040805180830381865af41580156120f9573d6000803e3d6000fd5b505050506040513d601f19601f8201168201806040525081019061211d9190615610565b915091508183604001516121319190615634565b83518490612140908390615634565b9052506060830151612153908290615634565b836020018181516121649190615634565b90525050815161217691508784613f95565b935061218781602001518784613f95565b9250838160800151101580156121a15750828160a0015110155b1561221c576121b03387614043565b83156121cd576097546121cd906001600160a01b03168686612d22565b82156121ea576098546121ea906001600160a01b03168685612d22565b600080516020615ca78339815191528587868660405161220d94939291906153fc565b60405180910390a1505061266f565b866122515760405162461bcd60e51b81526020600482015260056024820152646275726e7360d81b60448201526064016107b9565b61225b3387614043565b612263614b1b565b60005b888110156124df5789898281811061228057612280615293565b6122969260206080909202019081019150615660565b6001600160801b03166000036122d6576122d68a8a838181106122bb576122bb615293565b9050608002018036038101906122d191906156b3565b61417f565b6097546098546000916001600160a01b037f0000000000000000000000000000000000000000000000000000000000000000811692631698ee8292821691168e8e8781811061232757612327615293565b61233e926080918202019081019150606001614cef565b6040518463ffffffff1660e01b815260040161235c93929190615526565b602060405180830381865afa158015612379573d6000803e3d6000fd5b505050506040513d601f19601f8201168201806040525081019061239d919061554e565b90506123aa60a482612a4d565b6123df576123df8b8b848181106123c3576123c3615293565b6123da926080918202019081019150606001614cef565b6141ab565b6000612468828d8d868181106123f7576123f7615293565b6124109260406080909202019081019150602001614d90565b8e8e8781811061242257612422615293565b61243b9260606080909202019081019150604001614d90565b8f8f8881811061244d5761244d615293565b6124639260206080909202019081019150615660565b6141cb565b9050806040015184604001818151612480919061527b565b905250606080820151908501805161249990839061527b565b9052508051845185906124ad90839061527b565b90525060208082015190850180516124c690839061527b565b9052508291506124d79050816152cf565b915050612266565b506124f281604001518260600151614508565b6040818101516060830151609e549251636d50cdaf60e01b8152736EB5298Edf9b9A111136c5ba7d7494392ba273d793636d50cdaf936125479390929091600160a01b900461ffff169060fa906004016155ee565b6040805180830381865af4158015612563573d6000803e3d6000fd5b505050506040513d601f19601f820116820180604052508101906125879190615610565b6060830152604082015284156125ae576097546125ae906001600160a01b03168787612d22565b83156125cb576098546125cb906001600160a01b03168786612d22565b805160208083015160408051338152928301939093528183015290517fbcc5876d59ecdf66ef7ccae24657b11650939218782f8d741e78fd3c35d285a39181900360600190a1600080516020615cc783398151915281604001518260600151604051612638929190614f69565b60405180910390a1600080516020615ca78339815191528688878760405161266394939291906153fc565b60405180910390a15050505b6001606555909590945092505050565b61268a60a433612a4d565b6126a65760405162461bcd60e51b81526004016107b990615589565b60008413156126d2576000546097546126cd916001600160a01b0391821691163387612e8e565b6119b8565b60008313156119b8576000546098546119b8916001600160a01b0391821691163386612e8e565b6001600160a01b03831661275b5760405162461bcd60e51b8152602060048201526024808201527f45524332303a20617070726f76652066726f6d20746865207a65726f206164646044820152637265737360e01b60648201526084016107b9565b6001600160a01b0382166127bc5760405162461bcd60e51b815260206004820152602260248201527f45524332303a20617070726f766520746f20746865207a65726f206164647265604482015261737360f01b60648201526084016107b9565b6001600160a01b0383811660008181526034602090815260408083209487168084529482529182902085905590518481527f8c5be1e5ebec7d5bd14f71427d1e84f3dd0314c0f7b2291e5b200ac8c7c3b925910160405180910390a3505050565b60006128298484611bb9565b905060001981146119b857818110156128845760405162461bcd60e51b815260206004820152601d60248201527f45524332303a20696e73756666696369656e7420616c6c6f77616e636500000060448201526064016107b9565b6119b884848484036126f9565b6001600160a01b0383166128f55760405162461bcd60e51b815260206004820152602560248201527f45524332303a207472616e736665722066726f6d20746865207a65726f206164604482015264647265737360d81b60648201526084016107b9565b6001600160a01b0382166129575760405162461bcd60e51b815260206004820152602360248201527f45524332303a207472616e7366657220746f20746865207a65726f206164647260448201526265737360e81b60648201526084016107b9565b6001600160a01b038316600090815260336020526040902054818110156129cf5760405162461bcd60e51b815260206004820152602660248201527f45524332303a207472616e7366657220616d6f756e7420657863656564732062604482015265616c616e636560d01b60648201526084016107b9565b6001600160a01b03808516600090815260336020526040808220858503905591851681529081208054849290612a0690849061527b565b92505081905550826001600160a01b0316846001600160a01b0316600080516020615c8783398151915284604051612a4091815260200190565b60405180910390a36119b8565b6000610783836001600160a01b0384166145e2565b6000610783836001600160a01b0384166145fa565b60005b83811015612d1b576000612a99868684818110611c3657611c36615293565b5090508015612aba5760405162461bcd60e51b81526004016107b990615767565b60007f00000000000000000000000000000000000000000000000000000000000000006001600160a01b0316631698ee8286868a8a88818110612aff57612aff615293565b9050606002016040016020810190612b179190614cef565b6040518463ffffffff1660e01b8152600401612b3593929190615526565b602060405180830381865afa158015612b52573d6000803e3d6000fd5b505050506040513d601f19601f82011682018060405250810190612b76919061554e565b90506001600160a01b038116612bcc5760405162461bcd60e51b815260206004820152601b60248201527a1d5b9a5cddd85c081c1bdbdb08191bd95cc81b9bdd08195e1a5cdd602a1b60448201526064016107b9565b612bd760a482612a4d565b612bf35760405162461bcd60e51b81526004016107b99061556b565b73D79AafAE8C79bFFB514594E69B6B9baf85cF42e363143e56407f000000000000000000000000000000000000000000000000000000000000000087878b8b89818110612c4257612c42615293565b9050606002016040518563ffffffff1660e01b8152600401612c679493929190615786565b602060405180830381865af4158015612c84573d6000803e3d6000fd5b505050506040513d601f19601f82011682018060405250810190612ca89190615800565b612cc45760405162461bcd60e51b81526004016107b990615767565b609b878785818110612cd857612cd8615293565b83546001810185556000948552602090942060609091029290920192919091019050612d04828261581d565b505050508080612d13906152cf565b915050612a7a565b5050505050565b610a088363a9059cbb60e01b8484604051602401612d419291906158a4565b60408051601f198184030181529190526020810180516001600160e01b03166001600160e01b0319909316929092179091526146ed565b6000612d85848484613f95565b905060008280612d9757612d976158bd565b8486091115610783576000198110612dae57600080fd5b80612db8816152cf565b95945050505050565b6001600160a01b038216612e175760405162461bcd60e51b815260206004820152601f60248201527f45524332303a206d696e7420746f20746865207a65726f20616464726573730060448201526064016107b9565b8060356000828254612e29919061527b565b90915550506001600160a01b03821660009081526033602052604081208054839290612e5690849061527b565b90915550506040518181526001600160a01b03831690600090600080516020615c878339815191529060200160405180910390a35050565b6040516001600160a01b03808516602483015283166044820152606481018290526119b89085906323b872dd60e01b90608401612d41565b600260655403612ee85760405162461bcd60e51b81526004016107b9906152e8565b6002606555600080805b612efc84806158d3565b9050811015613143576097546098546000916001600160a01b037f0000000000000000000000000000000000000000000000000000000000000000811692631698ee829282169116612f4e89806158d3565b87818110612f5e57612f5e615293565b612f75926080918202019081019150606001614cef565b6040518463ffffffff1660e01b8152600401612f9393929190615526565b602060405180830381865afa158015612fb0573d6000803e3d6000fd5b505050506040513d601f19601f82011682018060405250810190612fd4919061554e565b905080612fe260a482612a4d565b61300357613003612ff387806158d3565b858181106123c3576123c3615293565b60a15460405163db46de5360e01b815273F295543bAC443e89Bc11F41eAf64D0e28E5312269163db46de539161304e91859162ffffff63010000008304169160020b9060040161591c565b60006040518083038186803b15801561306657600080fd5b505af415801561307a573d6000803e3d6000fd5b5060009250613107915083905061309189806158d3565b878181106130a1576130a1615293565b6130ba9260406080909202019081019150602001614d90565b6130c48a806158d3565b888181106130d4576130d4615293565b6130ed9260606080909202019081019150604001614d90565b6130f78b806158d3565b8981811061244d5761244d615293565b9050806040015186613119919061527b565b955080606001518561312b919061527b565b9450505050808061313b906152cf565b915050612ef2565b5060008211806131535750600081115b1561322d576131628282614508565b609e54604051636d50cdaf60e01b8152736EB5298Edf9b9A111136c5ba7d7494392ba273d791636d50cdaf916131ad9186918691600160a01b900461ffff169060fa906004016155ee565b6040805180830381865af41580156131c9573d6000803e3d6000fd5b505050506040513d601f19601f820116820180604052508101906131ed9190615610565b60405191935091507f079325979cf9aa65ff27d4b221f4120fff56c3699daca3fe0866499ebf9b1a1a906132249084908490614f69565b60405180910390a15b600061323c6040850185615945565b60600135111561399b576132676132566040850185615945565b610984906040810190602001614f1c565b1561329e5760405162461bcd60e51b81526020600482015260076024820152661b9bc81c1bdbdb60ca1b60448201526064016107b9565b6097546040516370a0823160e01b81526000916001600160a01b0316906370a08231906132cf903090600401614c89565b602060405180830381865afa1580156132ec573d6000803e3d6000fd5b505050506040513d601f19601f8201168201806040525081019061331091906155d5565b6098546040516370a0823160e01b81529192506000916001600160a01b03909116906370a0823190613346903090600401614c89565b602060405180830381865afa158015613363573d6000803e3d6000fd5b505050506040513d601f19601f8201168201806040525081019061338791906155d5565b90506133be6133996040870187615945565b6133aa906060810190604001614f1c565b6097546001600160a01b03169060006147bf565b6133f36133ce6040870187615945565b6133df906060810190604001614f1c565b6098546001600160a01b03169060006147bf565b6134276134036040870187615945565b613414906060810190604001614f1c565b6097546001600160a01b031690846147bf565b61345b6134376040870187615945565b613448906060810190604001614f1c565b6098546001600160a01b031690836147bf565b600061346a6040870187615945565b61347b906060810190604001614f1c565b6001600160a01b03166134916040880188615945565b61349b9080615965565b6040516134a99291906159ab565b6000604051808303816000865af19150503d80600081146134e6576040519150601f19603f3d011682016040523d82523d6000602084013e6134eb565b606091505b50509050806135255760405162461bcd60e51b81526004016107b9906020808252600490820152630737761760e41b604082015260600190565b6135356133996040880188615945565b6135456133ce6040880188615945565b6097546040516370a0823160e01b81526000916001600160a01b0316906370a0823190613576903090600401614c89565b602060405180830381865afa158015613593573d6000803e3d6000fd5b505050506040513d601f19601f820116820180604052508101906135b791906155d5565b6098546040516370a0823160e01b81529192506000916001600160a01b03909116906370a08231906135ed903090600401614c89565b602060405180830381865afa15801561360a573d6000803e3d6000fd5b505050506040513d601f19601f8201168201806040525081019061362e91906155d5565b90506000609760009054906101000a90046001600160a01b03166001600160a01b031663313ce5676040518163ffffffff1660e01b8152600401602060405180830381865afa158015613685573d6000803e3d6000fd5b505050506040513d601f19601f820116820180604052508101906136a991906159bb565b90506000609860009054906101000a90046001600160a01b03166001600160a01b031663313ce5676040518163ffffffff1660e01b8152600401602060405180830381865afa158015613700573d6000803e3d6000fd5b505050506040513d601f19601f8201168201806040525081019061372491906159bb565b905061373360408b018b615945565b6137449060c081019060a0016159de565b156138ce5761381873F295543bAC443e89Bc11F41eAf64D0e28E531226639ff4c50d61377360408e018e615945565b613784906040810190602001614f1c565b60a1546040516001600160e01b031960e085901b1681526001600160a01b03909216600483015262ffffff6301000000909104166024820152604401602060405180830381865af41580156137dd573d6000803e3d6000fd5b505050506040513d601f19601f8201168201806040525081019061380191906155d5565b60a154600160301b900462ffffff16612710613f95565b61384d61382860408d018d615945565b6080013561383785600a615adf565b61384460408f018f615945565b60600135613f95565b1161386a5760405162461bcd60e51b81526004016107b990615aee565b61387760408b018b615945565b61388590608001358761527b565b83101580156138ad575061389c60408b018b615945565b6138aa906060013588615634565b84145b6138c95760405162461bcd60e51b81526004016107b990615b10565b613993565b6138f873F295543bAC443e89Bc11F41eAf64D0e28E531226630578711c61377360408e018e615945565b61391761390860408d018d615945565b6080013561383784600a615adf565b116139345760405162461bcd60e51b81526004016107b990615aee565b61394160408b018b615945565b61394f90608001358861527b565b8410158015613977575061396660408b018b615945565b613974906060013587615634565b83145b6139935760405162461bcd60e51b81526004016107b990615b10565b505050505050505b60005b6139ab60208501856158d3565b9050811015613cb0576097546098546000916001600160a01b037f0000000000000000000000000000000000000000000000000000000000000000811692631698ee829282169116613a0060208a018a6158d3565b87818110613a1057613a10615293565b613a27926080918202019081019150606001614cef565b6040518463ffffffff1660e01b8152600401613a4593929190615526565b602060405180830381865afa158015613a62573d6000803e3d6000fd5b505050506040513d601f19601f82011682018060405250810190613a86919061554e565b90506000613ab8613a9a60208801886158d3565b85818110613aaa57613aaa615293565b905060800201602001610a49565b50905080613ad85760405162461bcd60e51b81526004016107b9906155b2565b60a15460405163db46de5360e01b815273F295543bAC443e89Bc11F41eAf64D0e28E5312269163db46de5391613b2391869162ffffff63010000008304169160020b9060040161591c565b60006040518083038186803b158015613b3b57600080fd5b505af4158015613b4f573d6000803e3d6000fd5b5050506001600160a01b0383169050633c8a7d8d30613b7160208a018a6158d3565b87818110613b8157613b81615293565b613b9a9260406080909202019081019150602001614d90565b613ba760208b018b6158d3565b88818110613bb757613bb7615293565b613bd09260606080909202019081019150604001614d90565b613bdd60208c018c6158d3565b89818110613bed57613bed615293565b613c039260206080909202019081019150615660565b6040516001600160e01b031960e087901b1681526001600160a01b039094166004850152600292830b6024850152910b60448301526001600160801b0316606482015260a06084820152600060a482015260c40160408051808303816000875af1158015613c75573d6000803e3d6000fd5b505050506040513d601f19601f82011682018060405250810190613c999190615610565b505050508080613ca8906152cf565b91505061399e565b505060016065555050565b60005b81811015610a08576000838383818110613cda57613cda615293565b9050602002016020810190613cef9190614f1c565b6001600160a01b031603613d155760405162461bcd60e51b81526004016107b9906152a9565b613d2a838383818110611a5c57611a5c615293565b15613d625760405162461bcd60e51b815260206004820152600860248201526737b832b930ba37b960c11b60448201526064016107b9565b613d94838383818110613d7757613d77615293565b9050602002016020810190613d8c9190614f1c565b60a290613f80565b5080613d9f816152cf565b915050613cbe565b60005b81811015610a08576000838383818110613dc657613dc6615293565b9050602002016020810190613ddb9190614f1c565b6001600160a01b031603613e015760405162461bcd60e51b81526004016107b9906152a9565b613e1683838381811061096f5761096f615293565b15613e335760405162461bcd60e51b81526004016107b99061556b565b613e65838383818110613e4857613e48615293565b9050602002016020810190613e5d9190614f1c565b60a490613f80565b5080613e70816152cf565b915050613daa565b60008054600160a81b900460ff1615613ec8578160ff166001148015613ea45750613ea2306148c3565b155b613ec05760405162461bcd60e51b81526004016107b990615b35565b506000919050565b60005460ff808416600160a01b9092041610613ef65760405162461bcd60e51b81526004016107b990615b35565b506000805460ff909216600160a01b0260ff60a01b19909216919091179055600190565b600054600160a81b900460ff16613f435760405162461bcd60e51b81526004016107b990615b83565b610b8e82826148d2565b600054600160a81b900460ff16613f765760405162461bcd60e51b81526004016107b990615b83565b613f7e614922565b565b6000610783836001600160a01b038416614952565b6000808060001985870985870292508281108382030391505080600003613fce5760008411613fc357600080fd5b508290049050610783565b808411613fda57600080fd5b60008486880960026001871981018816978890046003810283188082028403028082028403028082028403028082028403028082028403029081029092039091026000889003889004909101858311909403939093029303949094049190911702949350505050565b6001600160a01b0382166140a35760405162461bcd60e51b815260206004820152602160248201527f45524332303a206275726e2066726f6d20746865207a65726f206164647265736044820152607360f81b60648201526084016107b9565b6001600160a01b038216600090815260336020526040902054818110156141175760405162461bcd60e51b815260206004820152602260248201527f45524332303a206275726e20616d6f756e7420657863656564732062616c616e604482015261636560f01b60648201526084016107b9565b6001600160a01b0383166000908152603360205260408120838303905560358054849290614146908490615634565b90915550506040518281526000906001600160a01b03851690600080516020615c878339815191529060200160405180910390a3505050565b602080820151805191810151604091820151915163c79201a360e01b81526107b9939290600401614e3a565b604051634cb235d760e11b815262ffffff821660048201526024016107b9565b6141d3614b1b565b6097546040516370a0823160e01b81526000916001600160a01b0316906370a0823190614204903090600401614c89565b602060405180830381865afa158015614221573d6000803e3d6000fd5b505050506040513d601f19601f8201168201806040525081019061424591906155d5565b6098546040516370a0823160e01b81529192506000916001600160a01b03909116906370a082319061427b903090600401614c89565b602060405180830381865afa158015614298573d6000803e3d6000fd5b505050506040513d601f19601f820116820180604052508101906142bc91906155d5565b60405163a34123a760e01b8152600288810b600483015287900b60248201526001600160801b03861660448201529091506001600160a01b0388169063a34123a79060640160408051808303816000875af115801561431f573d6000803e3d6000fd5b505050506040513d601f19601f820116820180604052508101906143439190615610565b602085015283526040516309e3d67b60e31b8152306004820152600287810b602483015286900b60448201526001600160801b036064820181905260848201526001600160a01b03881690634f1eb3d89060a40160408051808303816000875af11580156143b5573d6000803e3d6000fd5b505050506040513d601f19601f820116820180604052508101906143d99190615bce565b505082516097546040516370a0823160e01b815284916001600160a01b0316906370a082319061440d903090600401614c89565b602060405180830381865afa15801561442a573d6000803e3d6000fd5b505050506040513d601f19601f8201168201806040525081019061444e91906155d5565b6144589190615634565b6144629190615634565b604080850191909152602084015160985491516370a0823160e01b8152909183916001600160a01b03909116906370a08231906144a3903090600401614c89565b602060405180830381865afa1580156144c0573d6000803e3d6000fd5b505050506040513d601f19601f820116820180604052508101906144e491906155d5565b6144ee9190615634565b6144f89190615634565b6060840152509095945050505050565b609e546127109061452490600160a01b900461ffff1684615bfd565b61452e9190615c1c565b609f600082825461453f919061527b565b9091555050609e546127109061456090600160a01b900461ffff1683615bfd565b61456a9190615c1c565b60a0600082825461457b919061527b565b90915550612710905061458f60fa84615bfd565b6145999190615c1c565b609c60008282546145aa919061527b565b9091555061271090506145be60fa83615bfd565b6145c89190615c1c565b609d60008282546145d9919061527b565b90915550505050565b60009081526001919091016020526040902054151590565b600081815260018301602052604081205480156146e357600061461e600183615634565b855490915060009061463290600190615634565b905081811461469757600086600001828154811061465257614652615293565b906000526020600020015490508087600001848154811061467557614675615293565b6000918252602080832090910192909255918252600188019052604090208390555b85548690806146a8576146a8615c3e565b60019003818190600052602060002001600090559055856001016000868152602001908152602001600020600090556001935050505061075e565b600091505061075e565b6000614742826040518060400160405280602081526020017f5361666545524332303a206c6f772d6c6576656c2063616c6c206661696c6564815250856001600160a01b031661499c9092919063ffffffff16565b805190915015610a0857808060200190518101906147609190615800565b610a085760405162461bcd60e51b815260206004820152602a60248201527f5361666545524332303a204552433230206f7065726174696f6e20646964206e6044820152691bdd081cdd58d8d9595960b21b60648201526084016107b9565b8015806148395750604051636eb1769f60e11b81523060048201526001600160a01b03838116602483015284169063dd62ed3e90604401602060405180830381865afa158015614813573d6000803e3d6000fd5b505050506040513d601f19601f8201168201806040525081019061483791906155d5565b155b6148a45760405162461bcd60e51b815260206004820152603660248201527f5361666545524332303a20617070726f76652066726f6d206e6f6e2d7a65726f60448201527520746f206e6f6e2d7a65726f20616c6c6f77616e636560501b60648201526084016107b9565b610a088363095ea7b360e01b8484604051602401612d419291906158a4565b6001600160a01b03163b151590565b600054600160a81b900460ff166148fb5760405162461bcd60e51b81526004016107b990615b83565b815161490e906036906020850190614b43565b508051610a08906037906020840190614b43565b600054600160a81b900460ff1661494b5760405162461bcd60e51b81526004016107b990615b83565b6001606555565b600061495e83836145e2565b6149945750815460018181018455600084815260208082209093018490558454848252828601909352604090209190915561075e565b50600061075e565b60606149ab84846000856149b3565b949350505050565b606082471015614a145760405162461bcd60e51b815260206004820152602660248201527f416464726573733a20696e73756666696369656e742062616c616e636520666f6044820152651c8818d85b1b60d21b60648201526084016107b9565b614a1d856148c3565b614a695760405162461bcd60e51b815260206004820152601d60248201527f416464726573733a2063616c6c20746f206e6f6e2d636f6e747261637400000060448201526064016107b9565b600080866001600160a01b03168587604051614a859190615c54565b60006040518083038185875af1925050503d8060008114614ac2576040519150601f19603f3d011682016040523d82523d6000602084013e614ac7565b606091505b5091509150614ad7828286614ae2565b979650505050505050565b60608315614af1575081610783565b825115614b015782518084602001fd5b8160405162461bcd60e51b81526004016107b99190614c08565b6040518060800160405280600081526020016000815260200160008152602001600081525090565b828054614b4f906151fc565b90600052602060002090601f016020900481019282614b715760008555614bb7565b82601f10614b8a57805160ff1916838001178555614bb7565b82800160010185558215614bb7579182015b82811115614bb7578251825591602001919060010190614b9c565b50614bc3929150614bc7565b5090565b5b80821115614bc35760008155600101614bc8565b60005b83811015614bf7578181015183820152602001614bdf565b838111156119b85750506000910152565b6020815260008251806020840152614c27816040850160208701614bdc565b601f01601f19169190910160400192915050565b6001600160a01b038116811461112857600080fd5b60008060408385031215614c6357600080fd5b8235614c6e81614c3b565b946020939093013593505050565b6001600160a01b03169052565b6001600160a01b0391909116815260200190565b600080600060608486031215614cb257600080fd5b8335614cbd81614c3b565b92506020840135614ccd81614c3b565b929592945050506040919091013590565b62ffffff8116811461112857600080fd5b600060208284031215614d0157600080fd5b813561078381614cde565b805160020b8252602081015160020b602083015262ffffff60408201511660408301525050565b6020808252825182820181905260009190848201906040850190845b81811015614d7557614d62838551614d0c565b9284019260609290920191600101614d4f565b50909695505050505050565b8060020b811461112857600080fd5b600060208284031215614da257600080fd5b813561078381614d81565b60008060208385031215614dc057600080fd5b82356001600160401b0380821115614dd757600080fd5b818501915085601f830112614deb57600080fd5b813581811115614dfa57600080fd5b8660208260051b8501011115614e0f57600080fd5b60209290920196919550909350505050565b600060208284031215614e3357600080fd5b5035919050565b600293840b81529190920b602082015262ffffff909116604082015260600190565b600060608284031215614e6e57600080fd5b50919050565b600060608284031215614e8657600080fd5b6107838383614e5c565b60008083601f840112614ea257600080fd5b5081356001600160401b03811115614eb957600080fd5b602083019150836020606083028501011115614ed457600080fd5b9250929050565b60008060208385031215614eee57600080fd5b82356001600160401b03811115614f0457600080fd5b614f1085828601614e90565b90969095509350505050565b600060208284031215614f2e57600080fd5b813561078381614c3b565b60008060408385031215614f4c57600080fd5b823591506020830135614f5e81614c3b565b809150509250929050565b918252602082015260400190565b600080600060408486031215614f8c57600080fd5b83356001600160401b0380821115614fa357600080fd5b614faf87838801614e90565b90955093506020860135915080821115614fc857600080fd5b50614fd586828701614e5c565b9150509250925092565b600060208284031215614ff157600080fd5b81356001600160401b0381111561500757600080fd5b6149ab84828501614e5c565b60008083601f84011261502557600080fd5b5081356001600160401b0381111561503c57600080fd5b602083019150836020828501011115614ed457600080fd5b60008060008060006060868803121561506c57600080fd5b85356001600160401b038082111561508357600080fd5b61508f89838a01615013565b909750955060208801359150808211156150a857600080fd5b6150b489838a01615013565b909550935060408801359150808211156150cd57600080fd5b5086016101a081890312156150e157600080fd5b809150509295509295909350565b6000806000806060858703121561510557600080fd5b843593506020850135925060408501356001600160401b0381111561512957600080fd5b61513587828801615013565b95989497509550505050565b6000806040838503121561515457600080fd5b823561515f81614c3b565b91506020830135614f5e81614c3b565b6000806000806060858703121561518557600080fd5b84356001600160401b038082111561519c57600080fd5b818701915087601f8301126151b057600080fd5b8135818111156151bf57600080fd5b8860208260071b85010111156151d457600080fd5b60209283019650945050850135915060408501356151f181614c3b565b939692955090935050565b600181811c9082168061521057607f821691505b602082108103614e6e57634e487b7160e01b600052602260045260246000fd5b6020808252818101527f4f776e61626c653a2063616c6c6572206973206e6f7420746865206f776e6572604082015260600190565b634e487b7160e01b600052601160045260246000fd5b6000821982111561528e5761528e615265565b500190565b634e487b7160e01b600052603260045260246000fd5b6020808252600c908201526b61646472657373205a65726f60a01b604082015260600190565b6000600182016152e1576152e1615265565b5060010190565b6020808252601f908201527f5265656e7472616e637947756172643a207265656e7472616e742063616c6c00604082015260600190565b6020808252825160a083830152805160c0840181905260009291820190839060e08601905b8083101561536d57615357828551614d0c565b6060820191508484019350600183019250615344565b5092860151926153806040870185614c7c565b604087015193506153946060870185614c7c565b606087015193506153a86080870185614c7c565b608087015193506153bc60a0870185614c7c565b9695505050505050565b600080600080608085870312156153dc57600080fd5b505082516020840151604085015160609095015191969095509092509050565b6001600160a01b0394909416845260208401929092526040830152606082015260800190565b6020808252600b908201526a37379037b832b930ba37b960a91b604082015260600190565b6000808335601e1984360301811261545e57600080fd5b8301803591506001600160401b0382111561547857600080fd5b6020019150600581901b3603821315614ed457600080fd5b6000808335601e198436030181126154a757600080fd5b8301803591506001600160401b038211156154c157600080fd5b6020019150606081023603821315614ed457600080fd5b6000602082840312156154ea57600080fd5b813561ffff8116811461078357600080fd5b60208082526010908201526f36b0bc2a3bb0b82232bb34b0ba34b7b760811b604082015260600190565b6001600160a01b03938416815291909216602082015262ffffff909116604082015260600190565b60006020828403121561556057600080fd5b815161078381614c3b565b6020808252600490820152631c1bdbdb60e21b604082015260600190565b6020808252600f908201526e31b0b6363130b1b59031b0b63632b960891b604082015260600190565b6020808252600990820152686e6f742072616e676560b81b604082015260600190565b6000602082840312156155e757600080fd5b5051919050565b938452602084019290925261ffff908116604084015216606082015260800190565b6000806040838503121561562357600080fd5b505080516020909101519092909150565b60008282101561564657615646615265565b500390565b6001600160801b038116811461112857600080fd5b60006020828403121561567257600080fd5b81356107838161564b565b604051606081016001600160401b03811182821017156156ad57634e487b7160e01b600052604160045260246000fd5b60405290565b600081830360808112156156c657600080fd5b604080519081016001600160401b03811182821017156156f657634e487b7160e01b600052604160045260246000fd5b60405283356157048161564b565b81526060601f198301121561571857600080fd5b61572061567d565b9150602084013561573081614d81565b8252604084013561574081614d81565b6020830152606084013561575381614cde565b604083015260208101919091529392505050565b60208082526005908201526472616e676560d81b604082015260600190565b6001600160a01b03858116825284811660208301528316604082015260c0810182356157b181614d81565b60020b606083015260208301356157c781614d81565b60020b608083015260408301356157dd81614cde565b62ffffff811660a08401525095945050505050565b801515811461112857600080fd5b60006020828403121561581257600080fd5b8151610783816157f2565b813561582881614d81565b815462ffffff82811662ffffff198316178455602085013561584981614d81565b8060181b9050818416935065ffffff00000091508082168465ffffffffffff19851617178555604086013561587d81614cde565b91166001600160481b0319929092169092171760309190911b62ffffff60301b1617905550565b6001600160a01b03929092168252602082015260400190565b634e487b7160e01b600052601260045260246000fd5b6000808335601e198436030181126158ea57600080fd5b8301803591506001600160401b0382111561590457600080fd5b6020019150600781901b3603821315614ed457600080fd5b6001600160a01b0393909316835262ffffff91909116602083015260020b604082015260600190565b6000823560be1983360301811261595b57600080fd5b9190910192915050565b6000808335601e1984360301811261597c57600080fd5b8301803591506001600160401b0382111561599657600080fd5b602001915036819003821315614ed457600080fd5b8183823760009101908152919050565b6000602082840312156159cd57600080fd5b815160ff8116811461078357600080fd5b6000602082840312156159f057600080fd5b8135610783816157f2565b600181815b80851115615a36578160001904821115615a1c57615a1c615265565b80851615615a2957918102915b93841c9390800290615a00565b509250929050565b600082615a4d5750600161075e565b81615a5a5750600061075e565b8160018114615a705760028114615a7a57615a96565b600191505061075e565b60ff841115615a8b57615a8b615265565b50506001821b61075e565b5060208310610133831016604e8410600b8410161715615ab9575081810a61075e565b615ac383836159fb565b8060001904821115615ad757615ad7615265565b029392505050565b600061078360ff841683615a3e565b602080825260089082015267736c69707061676560c01b604082015260600190565b6020808252600b908201526a1cddd85c0819985a5b195960aa1b604082015260600190565b6020808252602e908201527f496e697469616c697a61626c653a20636f6e747261637420697320616c72656160408201526d191e481a5b9a5d1a585b1a5e995960921b606082015260800190565b6020808252602b908201527f496e697469616c697a61626c653a20636f6e7472616374206973206e6f74206960408201526a6e697469616c697a696e6760a81b606082015260800190565b60008060408385031215615be157600080fd5b8251615bec8161564b565b6020840151909250614f5e8161564b565b6000816000190483118215151615615c1757615c17615265565b500290565b600082615c3957634e487b7160e01b600052601260045260246000fd5b500490565b634e487b7160e01b600052603160045260246000fd5b6000825161595b818460208701614bdc56fe8be0079c531659141344cd1fd0a4f28419497f9722a3daafe3b4186f6b6457e0ddf252ad1be2c89b69c2b068fc378daa952ba7f163c4a11628f55a4df523b3ef4c60206a5c1de41f3376d1d60f0949d96cb682033c90b1c2d9d9a62d4c4120c0c28ad1de9c0c32e5394ba60323e44d8d9536312236a47231772e448a3e49de42a2646970667358221220f123a541734b8170dea8e39d93d4dfbf4d5788147995c134ae18f3b9c7d6d35b64736f6c634300080d0033",
  "deployedBytecode": "0x608060405234801561001057600080fd5b50600436106102675760003560e01c8063065756db1461026c57806306fdde0314610288578063095ea7b31461029d5780630dfe1681146102c057806314b80630146102e057806318160ddd146102e957806323b872dd146102f157806326d8954514610304578063313ce5671461032e5780633926ab5f1461033d5780633950935114610352578063397a877e146103655780633cbff3fe1461037a57806342fb9d441461038d5780634b1641401461039657806354fd4d50146103a95780635fdecdfa146103cd578063670f13a1146103ef578063701c2a8d1461041957806370a082311461042c578063715018a6146104555780637ecd67171461045d57806387e60235146104655780638c04166f146104785780638da5cb5b1461048e57806394bf804d1461049657806395d89b41146104b75780639ef0e31e146104bf578063a07aea1c146104d2578063a457c2d7146104e5578063a9059cbb146104f8578063ac3f07831461050b578063ad1b78b41461051e578063b36a4ab114610526578063b9f24cb214610539578063bbfe704e14610560578063c45a015514610569578063c6e4eec114610590578063c7075041146105a3578063cc95353e146105be578063ccdf7a02146105d1578063d21220a7146105e6578063d3487997146105f9578063d365a3771461060c578063d8953ca71461061f578063dc9ad4c114610628578063dd62ed3e14610630578063e41e0bb014610643578063e7c7cb9114610656578063f2eb3e3414610676578063f2fde38b1461067f578063f4effe4114610692578063fa461e33146106a5575b600080fd5b610275609f5481565b6040519081526020015b60405180910390f35b6102906106b8565b60405161027f9190614c08565b6102b06102ab366004614c50565b61074a565b604051901515815260200161027f565b6097546102d3906001600160a01b031681565b60405161027f9190614c89565b61027560995481565b603554610275565b6102b06102ff366004614c9d565b610764565b60a15461031a906301000000900462ffffff1681565b60405162ffffff909116815260200161027f565b6040516012815260200161027f565b61035061034b366004614cef565b61078a565b005b6102b0610360366004614c50565b6107e6565b61036d610808565b60405161027f9190614d33565b610350610388366004614d90565b610888565b61027560a05481565b6103506103a4366004614dad565b6108d1565b610290604051806040016040528060058152602001640312e302e360dc1b81525081565b6103e06103db366004614e21565b610a0d565b60405161027f93929190614e3a565b6104026103fd366004614e74565b610a49565b60408051921515835260208301919091520161027f565b610350610427366004614edb565b610b3f565b61027561043a366004614f1c565b6001600160a01b031660009081526033602052604090205490565b610350610b92565b610350610bf9565b610350610473366004614f1c565b610c8e565b60a15461031a90600160301b900462ffffff1681565b6102d3610cdf565b6104a96104a4366004614f39565b610cee565b60405161027f929190614f69565b610290610fcc565b6103506104cd366004614f77565b610fdb565b6103506104e0366004614dad565b61102b565b6102b06104f3366004614c50565b611064565b6102b0610506366004614c50565b6110ea565b610350610519366004614fdf565b6110f8565b609b54610275565b610350610534366004614dad565b61112b565b6102d37f000000000000000000000000000000000000000000000000000000000000000081565b610275609d5481565b6102d37f000000000000000000000000000000000000000000000000000000000000000081565b61035061059e366004615054565b611164565b6105ab60fa81565b60405161ffff909116815260200161027f565b609e546102d3906001600160a01b031681565b609e546105ab90600160a01b900461ffff1681565b6098546102d3906001600160a01b031681565b6103506106073660046150ef565b611957565b61035061061a366004614dad565b6119be565b610275609c5481565b610350611afc565b61027561063e366004615141565b611bb9565b610350610651366004614edb565b611be4565b60a1546106639060020b81565b60405160029190910b815260200161027f565b610275609a5481565b61035061068d366004614f1c565b611ca3565b6104a96106a036600461516f565b611d80565b6103506106b33660046150ef565b61267f565b6060603680546106c7906151fc565b80601f01602080910402602001604051908101604052809291908181526020018280546106f3906151fc565b80156107405780601f1061071557610100808354040283529160200191610740565b820191906000526020600020905b81548152906001019060200180831161072357829003601f168201915b5050505050905090565b6000336107588185856126f9565b60019150505b92915050565b60003361077285828561281d565b61077d858585612891565b60019150505b9392505050565b33610793610cdf565b6001600160a01b0316146107c25760405162461bcd60e51b81526004016107b990615230565b60405180910390fd5b60a1805462ffffff90921663010000000265ffffff00000019909216919091179055565b6000336107588185856107f98383611bb9565b610803919061527b565b6126f9565b6060609b805480602002602001604051908101604052809291908181526020016000905b8282101561087f5760008481526020908190206040805160608101825291850154600281810b845263010000008204900b83850152600160301b900462ffffff169082015282526001909201910161082c565b50505050905090565b33610891610cdf565b6001600160a01b0316146108b75760405162461bcd60e51b81526004016107b990615230565b60a1805462ffffff191662ffffff92909216919091179055565b336108da610cdf565b6001600160a01b0316146109005760405162461bcd60e51b81526004016107b990615230565b60005b81811015610a0857600083838381811061091f5761091f615293565b90506020020160208101906109349190614f1c565b6001600160a01b03160361095a5760405162461bcd60e51b81526004016107b9906152a9565b61098c83838381811061096f5761096f615293565b90506020020160208101906109849190614f1c565b60a490612a4d565b6109c35760405162461bcd60e51b81526020600482015260086024820152671b9bdd081c1bdbdb60c21b60448201526064016107b9565b6109f58383838181106109d8576109d8615293565b90506020020160208101906109ed9190614f1c565b60a490612a62565b5080610a00816152cf565b915050610903565b505050565b609b8181548110610a1d57600080fd5b600091825260209091200154600281810b925063010000008204900b90600160301b900462ffffff1683565b60008060005b609b54811015610b3957609b8181548110610a6c57610a6c615293565b6000918252602091829020015460020b90610a8990860186614d90565b60020b148015610ad45750609b8181548110610aa757610aa7615293565b600091825260209182902001546301000000900460020b90610acf9060408701908701614d90565b60020b145b8015610b1d5750609b8181548110610aee57610aee615293565b600091825260209091200154600160301b900462ffffff16610b166060860160408701614cef565b62ffffff16145b925080915082610b395780610b31816152cf565b915050610a4f565b50915091565b33610b48610cdf565b6001600160a01b031614610b6e5760405162461bcd60e51b81526004016107b990615230565b609754609854610b8e91849184916001600160a01b039081169116612a77565b5050565b33610b9b610cdf565b6001600160a01b031614610bc15760405162461bcd60e51b81526004016107b990615230565b600080546040516001600160a01b0390911690600080516020615c67833981519152908390a3600080546001600160a01b0319169055565b609f805460a08054600093849055929055908115610c2e57609e54609754610c2e916001600160a01b03918216911684612d22565b8015610c5157609e54609854610c51916001600160a01b03918216911683612d22565b7f89efe8d94f73aa230d63a7da6b53e424cbf83e63d2940fb81a284e657303929a8282604051610c82929190614f69565b60405180910390a15050565b33610c97610cdf565b6001600160a01b031614610cbd5760405162461bcd60e51b81526004016107b990615230565b609e80546001600160a01b0319166001600160a01b0392909216919091179055565b6000546001600160a01b031690565b600080600260655403610d135760405162461bcd60e51b81526004016107b9906152e8565b600260655583610d535760405162461bcd60e51b815260206004820152600b60248201526a1b5a5b9d08185b5bdd5b9d60aa1b60448201526064016107b9565b6000610d5e60355490565b905060008060008060008511610d7c57609954609a54600080610ed0565b73__$3d23d8578387a47facd93bb77f6fe6e81b$__63e56f4d916040518060a00160405280609b805480602002602001604051908101604052809291908181526020016000905b82821015610e165760008481526020908190206040805160608101825291850154600281810b845263010000008204900b83850152600160301b900462ffffff1690820152825260019092019101610dc3565b505050908252506001600160a01b037f0000000000000000000000000000000000000000000000000000000000000000811660208301526097548116604080840191909152609854909116606083015230608090920191909152516001600160e01b031960e084901b168152610e8f919060040161531f565b608060405180830381865af4158015610eac573d6000803e3d6000fd5b505050506040513d601f19601f82011682018060405250810190610ed091906153c6565b93509350935093506000808611610eef57670de0b6b3a7640000610ef1565b855b9050610efe8a8683612d78565b9750610f0b8a8583612d78565b9650610f17898b612dc1565b8715610f3557609754610f35906001600160a01b031633308b612e8e565b8615610f5357609854610f53906001600160a01b031633308a612e8e565b600080516020615cc78339815191528383604051610f72929190614f69565b60405180910390a17f5a3358a3d27a5373c0df2604662088d37894d56b7cfd27f315770440f4e0d919898b8a8a604051610faf94939291906153fc565b60405180910390a150505050505060016065819055509250929050565b6060603780546106c7906151fc565b610fe660a233612a4d565b6110025760405162461bcd60e51b81526004016107b990615422565b60975460985461102291859185916001600160a01b039081169116612a77565b610a0881612ec6565b33611034610cdf565b6001600160a01b03161461105a5760405162461bcd60e51b81526004016107b990615230565b610b8e8282613cbb565b600033816110728286611bb9565b9050838110156110d25760405162461bcd60e51b815260206004820152602560248201527f45524332303a2064656372656173656420616c6c6f77616e63652062656c6f77604482015264207a65726f60d81b60648201526084016107b9565b6110df82868684036126f9565b506001949350505050565b600033610758818585612891565b61110360a233612a4d565b61111f5760405162461bcd60e51b81526004016107b990615422565b61112881612ec6565b50565b33611134610cdf565b6001600160a01b03161461115a5760405162461bcd60e51b81526004016107b990615230565b610b8e8282613da7565b60006111706001613e78565b9050801561118c576000805460ff60a81b1916600160a81b1790555b60006111988380615447565b9050116111d55760405162461bcd60e51b815260206004820152600b60248201526a3737903332b2903a34b2b960a91b60448201526064016107b9565b60006111e76040840160208501614f1c565b6001600160a01b0316036112265760405162461bcd60e51b81526020600482015260066024820152650746f6b656e360d41b60448201526064016107b9565b60006112386060840160408501614f1c565b6001600160a01b0316036112775760405162461bcd60e51b8152602060048201526006602482015265746f6b656e3160d01b60448201526064016107b9565b60006112866080840184615447565b9050116112c45760405162461bcd60e51b815260206004820152600c60248201526b6e6f206f70657261746f727360a01b60448201526064016107b9565b60006112d360a0840184615490565b90501161130e5760405162461bcd60e51b81526020600482015260096024820152686e6f2072616e67657360b81b60448201526064016107b9565b60008260c001351161134a5760405162461bcd60e51b81526020600482015260056024820152640696e6974360dc1b60448201526064016107b9565b60008260e00135116113865760405162461bcd60e51b8152602060048201526005602482015264696e69743160d81b60448201526064016107b9565b600061139a6101a084016101808501614cef565b62ffffff16116113dd5760405162461bcd60e51b815260206004820152600e60248201526d06d617820736c69707061676520360941b60448201526064016107b9565b60006113f161012084016101008501614f1c565b6001600160a01b03160361146157611411610140830161012084016154d8565b61ffff161561145c5760405162461bcd60e51b815260206004820152601760248201527637379020b2323932b9b9902d32b9379026b0b730b3b2b960491b60448201526064016107b9565b6114b8565b612710611476610140840161012085016154d8565b61ffff1611156114b85760405162461bcd60e51b815260206004820152600d60248201526c6d616e6167657246656542505360981b60448201526064016107b9565b60006114cc61016084016101408501614d90565b60020b136114ec5760405162461bcd60e51b81526004016107b9906154fc565b600061150061018084016101608501614cef565b62ffffff16116115225760405162461bcd60e51b81526004016107b9906154fc565b61159586868080601f01602080910402602001604051908101604052809392919081815260200183838082843760009201919091525050604080516020601f8a018190048102820181019092528881529250889150879081908401838280828437600092019190915250613f1a92505050565b61159d613f4d565b60005b6115aa8380615447565b90508110156117285760006001600160a01b037f000000000000000000000000000000000000000000000000000000000000000016631698ee826115f46040870160208801614f1c565b6116046060880160408901614f1c565b61160e8880615447565b8781811061161e5761161e615293565b90506020020160208101906116339190614cef565b6040518463ffffffff1660e01b815260040161165193929190615526565b602060405180830381865afa15801561166e573d6000803e3d6000fd5b505050506040513d601f19601f82011682018060405250810190611692919061554e565b90506001600160a01b0381166116e05760405162461bcd60e51b81526020600482015260136024820152721c1bdbdb08191bd95cc81b9bdd08195e1a5cdd606a1b60448201526064016107b9565b6116eb60a482612a4d565b156117085760405162461bcd60e51b81526004016107b99061556b565b61171360a482613f80565b50508080611720906152cf565b9150506115a0565b506117396040830160208401614f1c565b609780546001600160a01b0319166001600160a01b03929092169190911790556117696060830160408401614f1c565b609880546001600160a01b0319166001600160a01b03929092169190911790556117996080830160608401614f1c565b600080546001600160a01b0319166001600160a01b03929092169190911790556117ce6117c96080840184615447565b613cbb565b6118036117de60a0840184615490565b6117ee6040860160208701614f1c565b6117fe6060870160408801614f1c565b612a77565b60c082013560995560e0820135609a5561182561012083016101008401614f1c565b609e80546001600160a01b0319166001600160a01b0392909216919091179055611857610140830161012084016154d8565b609e805461ffff92909216600160a01b0261ffff60a01b1990921691909117905561188a61016083016101408401614d90565b60a1805462ffffff191662ffffff929092169190911790556118b461018083016101608401614cef565b60a1805462ffffff9290921663010000000265ffffff000000199092169190911790556118e96101a083016101808401614cef565b60a160066101000a81548162ffffff021916908362ffffff160217905550801561194f576000805460ff60a81b19169055604051600181527f7f26b83ff96e1f2b6a682f133852f6798a09c465da95921460cefb38474024989060200160405180910390a15b505050505050565b61196260a433612a4d565b61197e5760405162461bcd60e51b81526004016107b990615589565b831561199b5760975461199b906001600160a01b03163386612d22565b82156119b8576098546119b8906001600160a01b03163385612d22565b50505050565b336119c7610cdf565b6001600160a01b0316146119ed5760405162461bcd60e51b81526004016107b990615230565b60005b81811015610a08576000838383818110611a0c57611a0c615293565b9050602002016020810190611a219190614f1c565b6001600160a01b031603611a475760405162461bcd60e51b81526004016107b9906152a9565b611a79838383818110611a5c57611a5c615293565b9050602002016020810190611a719190614f1c565b60a290612a4d565b611ab75760405162461bcd60e51b815260206004820152600f60248201526e3737ba1030b71037b832b930ba37b960891b60448201526064016107b9565b611ae9838383818110611acc57611acc615293565b9050602002016020810190611ae19190614f1c565b60a290612a62565b5080611af4816152cf565b9150506119f0565b609c8054609d8054600093849055929055908115611b4b57609754611b4b906001600160a01b03167f000000000000000000000000000000000000000000000000000000000000000084612d22565b8015611b8857609854611b88906001600160a01b03167f000000000000000000000000000000000000000000000000000000000000000083612d22565b7f04a8160bc213279e35743081866b98b193dc70bb796faebc89776c0c306e135d8282604051610c82929190614f69565b6001600160a01b03918216600090815260346020908152604080832093909416825291909152205490565b33611bed610cdf565b6001600160a01b031614611c135760405162461bcd60e51b81526004016107b990615230565b60005b81811015610a0857600080611c41858585818110611c3657611c36615293565b905060600201610a49565b9150915081611c625760405162461bcd60e51b81526004016107b9906155b2565b609b8181548110611c7557611c75615293565b600091825260209091200180546001600160481b031916905550819050611c9b816152cf565b915050611c16565b33611cac610cdf565b6001600160a01b031614611cd25760405162461bcd60e51b81526004016107b990615230565b6001600160a01b038116611d375760405162461bcd60e51b815260206004820152602660248201527f4f776e61626c653a206e6577206f776e657220697320746865207a65726f206160448201526564647265737360d01b60648201526084016107b9565b600080546040516001600160a01b0380851693921691600080516020615c6783398151915291a3600080546001600160a01b0319166001600160a01b0392909216919091179055565b600080600260655403611da55760405162461bcd60e51b81526004016107b9906152e8565b60026065556000611db560355490565b905060008111611df65760405162461bcd60e51b815260206004820152600c60248201526b746f74616c20737570706c7960a01b60448201526064016107b9565b611e2f6040518060c001604052806000815260200160008152602001600081526020016000815260200160008152602001600081525090565b73__$3d23d8578387a47facd93bb77f6fe6e81b$__63e56f4d916040518060a00160405280609b805480602002602001604051908101604052809291908181526020016000905b82821015611ec95760008481526020908190206040805160608101825291850154600281810b845263010000008204900b83850152600160301b900462ffffff1690820152825260019092019101611e76565b505050908252506001600160a01b037f0000000000000000000000000000000000000000000000000000000000000000811660208301526097548116604080840191909152609854909116606083015230608090920191909152516001600160e01b031960e084901b168152611f42919060040161531f565b608060405180830381865af4158015611f5f573d6000803e3d6000fd5b505050506040513d601f19601f82011682018060405250810190611f8391906153c6565b6060850152604080850191909152602084019190915290825260975490516370a0823160e01b81526001600160a01b03909116906370a0823190611fcb903090600401614c89565b602060405180830381865afa158015611fe8573d6000803e3d6000fd5b505050506040513d601f19601f8201168201806040525081019061200c91906155d5565b60808201526098546040516370a0823160e01b81526001600160a01b03909116906370a0823190612041903090600401614c89565b602060405180830381865afa15801561205e573d6000803e3d6000fd5b505050506040513d601f19601f8201168201806040525081019061208291906155d5565b60a08201526040808201516060830151609e549251636d50cdaf60e01b8152600093849373__$30ef26875820c516a3c36c5c0a5fd73943$__93636d50cdaf936120dd93600160a01b900461ffff169060fa906004016155ee565b6040805180830381865af41580156120f9573d6000803e3d6000fd5b505050506040513d601f19601f8201168201806040525081019061211d9190615610565b915091508183604001516121319190615634565b83518490612140908390615634565b9052506060830151612153908290615634565b836020018181516121649190615634565b90525050815161217691508784613f95565b935061218781602001518784613f95565b9250838160800151101580156121a15750828160a0015110155b1561221c576121b03387614043565b83156121cd576097546121cd906001600160a01b03168686612d22565b82156121ea576098546121ea906001600160a01b03168685612d22565b600080516020615ca78339815191528587868660405161220d94939291906153fc565b60405180910390a1505061266f565b866122515760405162461bcd60e51b81526020600482015260056024820152646275726e7360d81b60448201526064016107b9565b61225b3387614043565b612263614b1b565b60005b888110156124df5789898281811061228057612280615293565b6122969260206080909202019081019150615660565b6001600160801b03166000036122d6576122d68a8a838181106122bb576122bb615293565b9050608002018036038101906122d191906156b3565b61417f565b6097546098546000916001600160a01b037f0000000000000000000000000000000000000000000000000000000000000000811692631698ee8292821691168e8e8781811061232757612327615293565b61233e926080918202019081019150606001614cef565b6040518463ffffffff1660e01b815260040161235c93929190615526565b602060405180830381865afa158015612379573d6000803e3d6000fd5b505050506040513d601f19601f8201168201806040525081019061239d919061554e565b90506123aa60a482612a4d565b6123df576123df8b8b848181106123c3576123c3615293565b6123da926080918202019081019150606001614cef565b6141ab565b6000612468828d8d868181106123f7576123f7615293565b6124109260406080909202019081019150602001614d90565b8e8e8781811061242257612422615293565b61243b9260606080909202019081019150604001614d90565b8f8f8881811061244d5761244d615293565b6124639260206080909202019081019150615660565b6141cb565b9050806040015184604001818151612480919061527b565b905250606080820151908501805161249990839061527b565b9052508051845185906124ad90839061527b565b90525060208082015190850180516124c690839061527b565b9052508291506124d79050816152cf565b915050612266565b506124f281604001518260600151614508565b6040818101516060830151609e549251636d50cdaf60e01b815273__$30ef26875820c516a3c36c5c0a5fd73943$__93636d50cdaf936125479390929091600160a01b900461ffff169060fa906004016155ee565b6040805180830381865af4158015612563573d6000803e3d6000fd5b505050506040513d601f19601f820116820180604052508101906125879190615610565b6060830152604082015284156125ae576097546125ae906001600160a01b03168787612d22565b83156125cb576098546125cb906001600160a01b03168786612d22565b805160208083015160408051338152928301939093528183015290517fbcc5876d59ecdf66ef7ccae24657b11650939218782f8d741e78fd3c35d285a39181900360600190a1600080516020615cc783398151915281604001518260600151604051612638929190614f69565b60405180910390a1600080516020615ca78339815191528688878760405161266394939291906153fc565b60405180910390a15050505b6001606555909590945092505050565b61268a60a433612a4d565b6126a65760405162461bcd60e51b81526004016107b990615589565b60008413156126d2576000546097546126cd916001600160a01b0391821691163387612e8e565b6119b8565b60008313156119b8576000546098546119b8916001600160a01b0391821691163386612e8e565b6001600160a01b03831661275b5760405162461bcd60e51b8152602060048201526024808201527f45524332303a20617070726f76652066726f6d20746865207a65726f206164646044820152637265737360e01b60648201526084016107b9565b6001600160a01b0382166127bc5760405162461bcd60e51b815260206004820152602260248201527f45524332303a20617070726f766520746f20746865207a65726f206164647265604482015261737360f01b60648201526084016107b9565b6001600160a01b0383811660008181526034602090815260408083209487168084529482529182902085905590518481527f8c5be1e5ebec7d5bd14f71427d1e84f3dd0314c0f7b2291e5b200ac8c7c3b925910160405180910390a3505050565b60006128298484611bb9565b905060001981146119b857818110156128845760405162461bcd60e51b815260206004820152601d60248201527f45524332303a20696e73756666696369656e7420616c6c6f77616e636500000060448201526064016107b9565b6119b884848484036126f9565b6001600160a01b0383166128f55760405162461bcd60e51b815260206004820152602560248201527f45524332303a207472616e736665722066726f6d20746865207a65726f206164604482015264647265737360d81b60648201526084016107b9565b6001600160a01b0382166129575760405162461bcd60e51b815260206004820152602360248201527f45524332303a207472616e7366657220746f20746865207a65726f206164647260448201526265737360e81b60648201526084016107b9565b6001600160a01b038316600090815260336020526040902054818110156129cf5760405162461bcd60e51b815260206004820152602660248201527f45524332303a207472616e7366657220616d6f756e7420657863656564732062604482015265616c616e636560d01b60648201526084016107b9565b6001600160a01b03808516600090815260336020526040808220858503905591851681529081208054849290612a0690849061527b565b92505081905550826001600160a01b0316846001600160a01b0316600080516020615c8783398151915284604051612a4091815260200190565b60405180910390a36119b8565b6000610783836001600160a01b0384166145e2565b6000610783836001600160a01b0384166145fa565b60005b83811015612d1b576000612a99868684818110611c3657611c36615293565b5090508015612aba5760405162461bcd60e51b81526004016107b990615767565b60007f00000000000000000000000000000000000000000000000000000000000000006001600160a01b0316631698ee8286868a8a88818110612aff57612aff615293565b9050606002016040016020810190612b179190614cef565b6040518463ffffffff1660e01b8152600401612b3593929190615526565b602060405180830381865afa158015612b52573d6000803e3d6000fd5b505050506040513d601f19601f82011682018060405250810190612b76919061554e565b90506001600160a01b038116612bcc5760405162461bcd60e51b815260206004820152601b60248201527a1d5b9a5cddd85c081c1bdbdb08191bd95cc81b9bdd08195e1a5cdd602a1b60448201526064016107b9565b612bd760a482612a4d565b612bf35760405162461bcd60e51b81526004016107b99061556b565b73__$57c880716d25c772e0b1e547659075b66d$__63143e56407f000000000000000000000000000000000000000000000000000000000000000087878b8b89818110612c4257612c42615293565b9050606002016040518563ffffffff1660e01b8152600401612c679493929190615786565b602060405180830381865af4158015612c84573d6000803e3d6000fd5b505050506040513d601f19601f82011682018060405250810190612ca89190615800565b612cc45760405162461bcd60e51b81526004016107b990615767565b609b878785818110612cd857612cd8615293565b83546001810185556000948552602090942060609091029290920192919091019050612d04828261581d565b505050508080612d13906152cf565b915050612a7a565b5050505050565b610a088363a9059cbb60e01b8484604051602401612d419291906158a4565b60408051601f198184030181529190526020810180516001600160e01b03166001600160e01b0319909316929092179091526146ed565b6000612d85848484613f95565b905060008280612d9757612d976158bd565b8486091115610783576000198110612dae57600080fd5b80612db8816152cf565b95945050505050565b6001600160a01b038216612e175760405162461bcd60e51b815260206004820152601f60248201527f45524332303a206d696e7420746f20746865207a65726f20616464726573730060448201526064016107b9565b8060356000828254612e29919061527b565b90915550506001600160a01b03821660009081526033602052604081208054839290612e5690849061527b565b90915550506040518181526001600160a01b03831690600090600080516020615c878339815191529060200160405180910390a35050565b6040516001600160a01b03808516602483015283166044820152606481018290526119b89085906323b872dd60e01b90608401612d41565b600260655403612ee85760405162461bcd60e51b81526004016107b9906152e8565b6002606555600080805b612efc84806158d3565b9050811015613143576097546098546000916001600160a01b037f0000000000000000000000000000000000000000000000000000000000000000811692631698ee829282169116612f4e89806158d3565b87818110612f5e57612f5e615293565b612f75926080918202019081019150606001614cef565b6040518463ffffffff1660e01b8152600401612f9393929190615526565b602060405180830381865afa158015612fb0573d6000803e3d6000fd5b505050506040513d601f19601f82011682018060405250810190612fd4919061554e565b905080612fe260a482612a4d565b61300357613003612ff387806158d3565b858181106123c3576123c3615293565b60a15460405163db46de5360e01b815273__$fa5a18c13b4d815a743b91389b9a36db0f$__9163db46de539161304e91859162ffffff63010000008304169160020b9060040161591c565b60006040518083038186803b15801561306657600080fd5b505af415801561307a573d6000803e3d6000fd5b5060009250613107915083905061309189806158d3565b878181106130a1576130a1615293565b6130ba9260406080909202019081019150602001614d90565b6130c48a806158d3565b888181106130d4576130d4615293565b6130ed9260606080909202019081019150604001614d90565b6130f78b806158d3565b8981811061244d5761244d615293565b9050806040015186613119919061527b565b955080606001518561312b919061527b565b9450505050808061313b906152cf565b915050612ef2565b5060008211806131535750600081115b1561322d576131628282614508565b609e54604051636d50cdaf60e01b815273__$30ef26875820c516a3c36c5c0a5fd73943$__91636d50cdaf916131ad9186918691600160a01b900461ffff169060fa906004016155ee565b6040805180830381865af41580156131c9573d6000803e3d6000fd5b505050506040513d601f19601f820116820180604052508101906131ed9190615610565b60405191935091507f079325979cf9aa65ff27d4b221f4120fff56c3699daca3fe0866499ebf9b1a1a906132249084908490614f69565b60405180910390a15b600061323c6040850185615945565b60600135111561399b576132676132566040850185615945565b610984906040810190602001614f1c565b1561329e5760405162461bcd60e51b81526020600482015260076024820152661b9bc81c1bdbdb60ca1b60448201526064016107b9565b6097546040516370a0823160e01b81526000916001600160a01b0316906370a08231906132cf903090600401614c89565b602060405180830381865afa1580156132ec573d6000803e3d6000fd5b505050506040513d601f19601f8201168201806040525081019061331091906155d5565b6098546040516370a0823160e01b81529192506000916001600160a01b03909116906370a0823190613346903090600401614c89565b602060405180830381865afa158015613363573d6000803e3d6000fd5b505050506040513d601f19601f8201168201806040525081019061338791906155d5565b90506133be6133996040870187615945565b6133aa906060810190604001614f1c565b6097546001600160a01b03169060006147bf565b6133f36133ce6040870187615945565b6133df906060810190604001614f1c565b6098546001600160a01b03169060006147bf565b6134276134036040870187615945565b613414906060810190604001614f1c565b6097546001600160a01b031690846147bf565b61345b6134376040870187615945565b613448906060810190604001614f1c565b6098546001600160a01b031690836147bf565b600061346a6040870187615945565b61347b906060810190604001614f1c565b6001600160a01b03166134916040880188615945565b61349b9080615965565b6040516134a99291906159ab565b6000604051808303816000865af19150503d80600081146134e6576040519150601f19603f3d011682016040523d82523d6000602084013e6134eb565b606091505b50509050806135255760405162461bcd60e51b81526004016107b9906020808252600490820152630737761760e41b604082015260600190565b6135356133996040880188615945565b6135456133ce6040880188615945565b6097546040516370a0823160e01b81526000916001600160a01b0316906370a0823190613576903090600401614c89565b602060405180830381865afa158015613593573d6000803e3d6000fd5b505050506040513d601f19601f820116820180604052508101906135b791906155d5565b6098546040516370a0823160e01b81529192506000916001600160a01b03909116906370a08231906135ed903090600401614c89565b602060405180830381865afa15801561360a573d6000803e3d6000fd5b505050506040513d601f19601f8201168201806040525081019061362e91906155d5565b90506000609760009054906101000a90046001600160a01b03166001600160a01b031663313ce5676040518163ffffffff1660e01b8152600401602060405180830381865afa158015613685573d6000803e3d6000fd5b505050506040513d601f19601f820116820180604052508101906136a991906159bb565b90506000609860009054906101000a90046001600160a01b03166001600160a01b031663313ce5676040518163ffffffff1660e01b8152600401602060405180830381865afa158015613700573d6000803e3d6000fd5b505050506040513d601f19601f8201168201806040525081019061372491906159bb565b905061373360408b018b615945565b6137449060c081019060a0016159de565b156138ce5761381873__$fa5a18c13b4d815a743b91389b9a36db0f$__639ff4c50d61377360408e018e615945565b613784906040810190602001614f1c565b60a1546040516001600160e01b031960e085901b1681526001600160a01b03909216600483015262ffffff6301000000909104166024820152604401602060405180830381865af41580156137dd573d6000803e3d6000fd5b505050506040513d601f19601f8201168201806040525081019061380191906155d5565b60a154600160301b900462ffffff16612710613f95565b61384d61382860408d018d615945565b6080013561383785600a615adf565b61384460408f018f615945565b60600135613f95565b1161386a5760405162461bcd60e51b81526004016107b990615aee565b61387760408b018b615945565b61388590608001358761527b565b83101580156138ad575061389c60408b018b615945565b6138aa906060013588615634565b84145b6138c95760405162461bcd60e51b81526004016107b990615b10565b613993565b6138f873__$fa5a18c13b4d815a743b91389b9a36db0f$__630578711c61377360408e018e615945565b61391761390860408d018d615945565b6080013561383784600a615adf565b116139345760405162461bcd60e51b81526004016107b990615aee565b61394160408b018b615945565b61394f90608001358861527b565b8410158015613977575061396660408b018b615945565b613974906060013587615634565b83145b6139935760405162461bcd60e51b81526004016107b990615b10565b505050505050505b60005b6139ab60208501856158d3565b9050811015613cb0576097546098546000916001600160a01b037f0000000000000000000000000000000000000000000000000000000000000000811692631698ee829282169116613a0060208a018a6158d3565b87818110613a1057613a10615293565b613a27926080918202019081019150606001614cef565b6040518463ffffffff1660e01b8152600401613a4593929190615526565b602060405180830381865afa158015613a62573d6000803e3d6000fd5b505050506040513d601f19601f82011682018060405250810190613a86919061554e565b90506000613ab8613a9a60208801886158d3565b85818110613aaa57613aaa615293565b905060800201602001610a49565b50905080613ad85760405162461bcd60e51b81526004016107b9906155b2565b60a15460405163db46de5360e01b815273__$fa5a18c13b4d815a743b91389b9a36db0f$__9163db46de5391613b2391869162ffffff63010000008304169160020b9060040161591c565b60006040518083038186803b158015613b3b57600080fd5b505af4158015613b4f573d6000803e3d6000fd5b5050506001600160a01b0383169050633c8a7d8d30613b7160208a018a6158d3565b87818110613b8157613b81615293565b613b9a9260406080909202019081019150602001614d90565b613ba760208b018b6158d3565b88818110613bb757613bb7615293565b613bd09260606080909202019081019150604001614d90565b613bdd60208c018c6158d3565b89818110613bed57613bed615293565b613c039260206080909202019081019150615660565b6040516001600160e01b031960e087901b1681526001600160a01b039094166004850152600292830b6024850152910b60448301526001600160801b0316606482015260a06084820152600060a482015260c40160408051808303816000875af1158015613c75573d6000803e3d6000fd5b505050506040513d601f19601f82011682018060405250810190613c999190615610565b505050508080613ca8906152cf565b91505061399e565b505060016065555050565b60005b81811015610a08576000838383818110613cda57613cda615293565b9050602002016020810190613cef9190614f1c565b6001600160a01b031603613d155760405162461bcd60e51b81526004016107b9906152a9565b613d2a838383818110611a5c57611a5c615293565b15613d625760405162461bcd60e51b815260206004820152600860248201526737b832b930ba37b960c11b60448201526064016107b9565b613d94838383818110613d7757613d77615293565b9050602002016020810190613d8c9190614f1c565b60a290613f80565b5080613d9f816152cf565b915050613cbe565b60005b81811015610a08576000838383818110613dc657613dc6615293565b9050602002016020810190613ddb9190614f1c565b6001600160a01b031603613e015760405162461bcd60e51b81526004016107b9906152a9565b613e1683838381811061096f5761096f615293565b15613e335760405162461bcd60e51b81526004016107b99061556b565b613e65838383818110613e4857613e48615293565b9050602002016020810190613e5d9190614f1c565b60a490613f80565b5080613e70816152cf565b915050613daa565b60008054600160a81b900460ff1615613ec8578160ff166001148015613ea45750613ea2306148c3565b155b613ec05760405162461bcd60e51b81526004016107b990615b35565b506000919050565b60005460ff808416600160a01b9092041610613ef65760405162461bcd60e51b81526004016107b990615b35565b506000805460ff909216600160a01b0260ff60a01b19909216919091179055600190565b600054600160a81b900460ff16613f435760405162461bcd60e51b81526004016107b990615b83565b610b8e82826148d2565b600054600160a81b900460ff16613f765760405162461bcd60e51b81526004016107b990615b83565b613f7e614922565b565b6000610783836001600160a01b038416614952565b6000808060001985870985870292508281108382030391505080600003613fce5760008411613fc357600080fd5b508290049050610783565b808411613fda57600080fd5b60008486880960026001871981018816978890046003810283188082028403028082028403028082028403028082028403028082028403029081029092039091026000889003889004909101858311909403939093029303949094049190911702949350505050565b6001600160a01b0382166140a35760405162461bcd60e51b815260206004820152602160248201527f45524332303a206275726e2066726f6d20746865207a65726f206164647265736044820152607360f81b60648201526084016107b9565b6001600160a01b038216600090815260336020526040902054818110156141175760405162461bcd60e51b815260206004820152602260248201527f45524332303a206275726e20616d6f756e7420657863656564732062616c616e604482015261636560f01b60648201526084016107b9565b6001600160a01b0383166000908152603360205260408120838303905560358054849290614146908490615634565b90915550506040518281526000906001600160a01b03851690600080516020615c878339815191529060200160405180910390a3505050565b602080820151805191810151604091820151915163c79201a360e01b81526107b9939290600401614e3a565b604051634cb235d760e11b815262ffffff821660048201526024016107b9565b6141d3614b1b565b6097546040516370a0823160e01b81526000916001600160a01b0316906370a0823190614204903090600401614c89565b602060405180830381865afa158015614221573d6000803e3d6000fd5b505050506040513d601f19601f8201168201806040525081019061424591906155d5565b6098546040516370a0823160e01b81529192506000916001600160a01b03909116906370a082319061427b903090600401614c89565b602060405180830381865afa158015614298573d6000803e3d6000fd5b505050506040513d601f19601f820116820180604052508101906142bc91906155d5565b60405163a34123a760e01b8152600288810b600483015287900b60248201526001600160801b03861660448201529091506001600160a01b0388169063a34123a79060640160408051808303816000875af115801561431f573d6000803e3d6000fd5b505050506040513d601f19601f820116820180604052508101906143439190615610565b602085015283526040516309e3d67b60e31b8152306004820152600287810b602483015286900b60448201526001600160801b036064820181905260848201526001600160a01b03881690634f1eb3d89060a40160408051808303816000875af11580156143b5573d6000803e3d6000fd5b505050506040513d601f19601f820116820180604052508101906143d99190615bce565b505082516097546040516370a0823160e01b815284916001600160a01b0316906370a082319061440d903090600401614c89565b602060405180830381865afa15801561442a573d6000803e3d6000fd5b505050506040513d601f19601f8201168201806040525081019061444e91906155d5565b6144589190615634565b6144629190615634565b604080850191909152602084015160985491516370a0823160e01b8152909183916001600160a01b03909116906370a08231906144a3903090600401614c89565b602060405180830381865afa1580156144c0573d6000803e3d6000fd5b505050506040513d601f19601f820116820180604052508101906144e491906155d5565b6144ee9190615634565b6144f89190615634565b6060840152509095945050505050565b609e546127109061452490600160a01b900461ffff1684615bfd565b61452e9190615c1c565b609f600082825461453f919061527b565b9091555050609e546127109061456090600160a01b900461ffff1683615bfd565b61456a9190615c1c565b60a0600082825461457b919061527b565b90915550612710905061458f60fa84615bfd565b6145999190615c1c565b609c60008282546145aa919061527b565b9091555061271090506145be60fa83615bfd565b6145c89190615c1c565b609d60008282546145d9919061527b565b90915550505050565b60009081526001919091016020526040902054151590565b600081815260018301602052604081205480156146e357600061461e600183615634565b855490915060009061463290600190615634565b905081811461469757600086600001828154811061465257614652615293565b906000526020600020015490508087600001848154811061467557614675615293565b6000918252602080832090910192909255918252600188019052604090208390555b85548690806146a8576146a8615c3e565b60019003818190600052602060002001600090559055856001016000868152602001908152602001600020600090556001935050505061075e565b600091505061075e565b6000614742826040518060400160405280602081526020017f5361666545524332303a206c6f772d6c6576656c2063616c6c206661696c6564815250856001600160a01b031661499c9092919063ffffffff16565b805190915015610a0857808060200190518101906147609190615800565b610a085760405162461bcd60e51b815260206004820152602a60248201527f5361666545524332303a204552433230206f7065726174696f6e20646964206e6044820152691bdd081cdd58d8d9595960b21b60648201526084016107b9565b8015806148395750604051636eb1769f60e11b81523060048201526001600160a01b03838116602483015284169063dd62ed3e90604401602060405180830381865afa158015614813573d6000803e3d6000fd5b505050506040513d601f19601f8201168201806040525081019061483791906155d5565b155b6148a45760405162461bcd60e51b815260206004820152603660248201527f5361666545524332303a20617070726f76652066726f6d206e6f6e2d7a65726f60448201527520746f206e6f6e2d7a65726f20616c6c6f77616e636560501b60648201526084016107b9565b610a088363095ea7b360e01b8484604051602401612d419291906158a4565b6001600160a01b03163b151590565b600054600160a81b900460ff166148fb5760405162461bcd60e51b81526004016107b990615b83565b815161490e906036906020850190614b43565b508051610a08906037906020840190614b43565b600054600160a81b900460ff1661494b5760405162461bcd60e51b81526004016107b990615b83565b6001606555565b600061495e83836145e2565b6149945750815460018181018455600084815260208082209093018490558454848252828601909352604090209190915561075e565b50600061075e565b60606149ab84846000856149b3565b949350505050565b606082471015614a145760405162461bcd60e51b815260206004820152602660248201527f416464726573733a20696e73756666696369656e742062616c616e636520666f6044820152651c8818d85b1b60d21b60648201526084016107b9565b614a1d856148c3565b614a695760405162461bcd60e51b815260206004820152601d60248201527f416464726573733a2063616c6c20746f206e6f6e2d636f6e747261637400000060448201526064016107b9565b600080866001600160a01b03168587604051614a859190615c54565b60006040518083038185875af1925050503d8060008114614ac2576040519150601f19603f3d011682016040523d82523d6000602084013e614ac7565b606091505b5091509150614ad7828286614ae2565b979650505050505050565b60608315614af1575081610783565b825115614b015782518084602001fd5b8160405162461bcd60e51b81526004016107b99190614c08565b6040518060800160405280600081526020016000815260200160008152602001600081525090565b828054614b4f906151fc565b90600052602060002090601f016020900481019282614b715760008555614bb7565b82601f10614b8a57805160ff1916838001178555614bb7565b82800160010185558215614bb7579182015b82811115614bb7578251825591602001919060010190614b9c565b50614bc3929150614bc7565b5090565b5b80821115614bc35760008155600101614bc8565b60005b83811015614bf7578181015183820152602001614bdf565b838111156119b85750506000910152565b6020815260008251806020840152614c27816040850160208701614bdc565b601f01601f19169190910160400192915050565b6001600160a01b038116811461112857600080fd5b60008060408385031215614c6357600080fd5b8235614c6e81614c3b565b946020939093013593505050565b6001600160a01b03169052565b6001600160a01b0391909116815260200190565b600080600060608486031215614cb257600080fd5b8335614cbd81614c3b565b92506020840135614ccd81614c3b565b929592945050506040919091013590565b62ffffff8116811461112857600080fd5b600060208284031215614d0157600080fd5b813561078381614cde565b805160020b8252602081015160020b602083015262ffffff60408201511660408301525050565b6020808252825182820181905260009190848201906040850190845b81811015614d7557614d62838551614d0c565b9284019260609290920191600101614d4f565b50909695505050505050565b8060020b811461112857600080fd5b600060208284031215614da257600080fd5b813561078381614d81565b60008060208385031215614dc057600080fd5b82356001600160401b0380821115614dd757600080fd5b818501915085601f830112614deb57600080fd5b813581811115614dfa57600080fd5b8660208260051b8501011115614e0f57600080fd5b60209290920196919550909350505050565b600060208284031215614e3357600080fd5b5035919050565b600293840b81529190920b602082015262ffffff909116604082015260600190565b600060608284031215614e6e57600080fd5b50919050565b600060608284031215614e8657600080fd5b6107838383614e5c565b60008083601f840112614ea257600080fd5b5081356001600160401b03811115614eb957600080fd5b602083019150836020606083028501011115614ed457600080fd5b9250929050565b60008060208385031215614eee57600080fd5b82356001600160401b03811115614f0457600080fd5b614f1085828601614e90565b90969095509350505050565b600060208284031215614f2e57600080fd5b813561078381614c3b565b60008060408385031215614f4c57600080fd5b823591506020830135614f5e81614c3b565b809150509250929050565b918252602082015260400190565b600080600060408486031215614f8c57600080fd5b83356001600160401b0380821115614fa357600080fd5b614faf87838801614e90565b90955093506020860135915080821115614fc857600080fd5b50614fd586828701614e5c565b9150509250925092565b600060208284031215614ff157600080fd5b81356001600160401b0381111561500757600080fd5b6149ab84828501614e5c565b60008083601f84011261502557600080fd5b5081356001600160401b0381111561503c57600080fd5b602083019150836020828501011115614ed457600080fd5b60008060008060006060868803121561506c57600080fd5b85356001600160401b038082111561508357600080fd5b61508f89838a01615013565b909750955060208801359150808211156150a857600080fd5b6150b489838a01615013565b909550935060408801359150808211156150cd57600080fd5b5086016101a081890312156150e157600080fd5b809150509295509295909350565b6000806000806060858703121561510557600080fd5b843593506020850135925060408501356001600160401b0381111561512957600080fd5b61513587828801615013565b95989497509550505050565b6000806040838503121561515457600080fd5b823561515f81614c3b565b91506020830135614f5e81614c3b565b6000806000806060858703121561518557600080fd5b84356001600160401b038082111561519c57600080fd5b818701915087601f8301126151b057600080fd5b8135818111156151bf57600080fd5b8860208260071b85010111156151d457600080fd5b60209283019650945050850135915060408501356151f181614c3b565b939692955090935050565b600181811c9082168061521057607f821691505b602082108103614e6e57634e487b7160e01b600052602260045260246000fd5b6020808252818101527f4f776e61626c653a2063616c6c6572206973206e6f7420746865206f776e6572604082015260600190565b634e487b7160e01b600052601160045260246000fd5b6000821982111561528e5761528e615265565b500190565b634e487b7160e01b600052603260045260246000fd5b6020808252600c908201526b61646472657373205a65726f60a01b604082015260600190565b6000600182016152e1576152e1615265565b5060010190565b6020808252601f908201527f5265656e7472616e637947756172643a207265656e7472616e742063616c6c00604082015260600190565b6020808252825160a083830152805160c0840181905260009291820190839060e08601905b8083101561536d57615357828551614d0c565b6060820191508484019350600183019250615344565b5092860151926153806040870185614c7c565b604087015193506153946060870185614c7c565b606087015193506153a86080870185614c7c565b608087015193506153bc60a0870185614c7c565b9695505050505050565b600080600080608085870312156153dc57600080fd5b505082516020840151604085015160609095015191969095509092509050565b6001600160a01b0394909416845260208401929092526040830152606082015260800190565b6020808252600b908201526a37379037b832b930ba37b960a91b604082015260600190565b6000808335601e1984360301811261545e57600080fd5b8301803591506001600160401b0382111561547857600080fd5b6020019150600581901b3603821315614ed457600080fd5b6000808335601e198436030181126154a757600080fd5b8301803591506001600160401b038211156154c157600080fd5b6020019150606081023603821315614ed457600080fd5b6000602082840312156154ea57600080fd5b813561ffff8116811461078357600080fd5b60208082526010908201526f36b0bc2a3bb0b82232bb34b0ba34b7b760811b604082015260600190565b6001600160a01b03938416815291909216602082015262ffffff909116604082015260600190565b60006020828403121561556057600080fd5b815161078381614c3b565b6020808252600490820152631c1bdbdb60e21b604082015260600190565b6020808252600f908201526e31b0b6363130b1b59031b0b63632b960891b604082015260600190565b6020808252600990820152686e6f742072616e676560b81b604082015260600190565b6000602082840312156155e757600080fd5b5051919050565b938452602084019290925261ffff908116604084015216606082015260800190565b6000806040838503121561562357600080fd5b505080516020909101519092909150565b60008282101561564657615646615265565b500390565b6001600160801b038116811461112857600080fd5b60006020828403121561567257600080fd5b81356107838161564b565b604051606081016001600160401b03811182821017156156ad57634e487b7160e01b600052604160045260246000fd5b60405290565b600081830360808112156156c657600080fd5b604080519081016001600160401b03811182821017156156f657634e487b7160e01b600052604160045260246000fd5b60405283356157048161564b565b81526060601f198301121561571857600080fd5b61572061567d565b9150602084013561573081614d81565b8252604084013561574081614d81565b6020830152606084013561575381614cde565b604083015260208101919091529392505050565b60208082526005908201526472616e676560d81b604082015260600190565b6001600160a01b03858116825284811660208301528316604082015260c0810182356157b181614d81565b60020b606083015260208301356157c781614d81565b60020b608083015260408301356157dd81614cde565b62ffffff811660a08401525095945050505050565b801515811461112857600080fd5b60006020828403121561581257600080fd5b8151610783816157f2565b813561582881614d81565b815462ffffff82811662ffffff198316178455602085013561584981614d81565b8060181b9050818416935065ffffff00000091508082168465ffffffffffff19851617178555604086013561587d81614cde565b91166001600160481b0319929092169092171760309190911b62ffffff60301b1617905550565b6001600160a01b03929092168252602082015260400190565b634e487b7160e01b600052601260045260246000fd5b6000808335601e198436030181126158ea57600080fd5b8301803591506001600160401b0382111561590457600080fd5b6020019150600781901b3603821315614ed457600080fd5b6001600160a01b0393909316835262ffffff91909116602083015260020b604082015260600190565b6000823560be1983360301811261595b57600080fd5b9190910192915050565b6000808335601e1984360301811261597c57600080fd5b8301803591506001600160401b0382111561599657600080fd5b602001915036819003821315614ed457600080fd5b8183823760009101908152919050565b6000602082840312156159cd57600080fd5b815160ff8116811461078357600080fd5b6000602082840312156159f057600080fd5b8135610783816157f2565b600181815b80851115615a36578160001904821115615a1c57615a1c615265565b80851615615a2957918102915b93841c9390800290615a00565b509250929050565b600082615a4d5750600161075e565b81615a5a5750600061075e565b8160018114615a705760028114615a7a57615a96565b600191505061075e565b60ff841115615a8b57615a8b615265565b50506001821b61075e565b5060208310610133831016604e8410600b8410161715615ab9575081810a61075e565b615ac383836159fb565b8060001904821115615ad757615ad7615265565b029392505050565b600061078360ff841683615a3e565b602080825260089082015267736c69707061676560c01b604082015260600190565b6020808252600b908201526a1cddd85c0819985a5b195960aa1b604082015260600190565b6020808252602e908201527f496e697469616c697a61626c653a20636f6e747261637420697320616c72656160408201526d191e481a5b9a5d1a585b1a5e995960921b606082015260800190565b6020808252602b908201527f496e697469616c697a61626c653a20636f6e7472616374206973206e6f74206960408201526a6e697469616c697a696e6760a81b606082015260800190565b60008060408385031215615be157600080fd5b8251615bec8161564b565b6020840151909250614f5e8161564b565b6000816000190483118215151615615c1757615c17615265565b500290565b600082615c3957634e487b7160e01b600052601260045260246000fd5b500490565b634e487b7160e01b600052603160045260246000fd5b6000825161595b818460208701614bdc56fe8be0079c531659141344cd1fd0a4f28419497f9722a3daafe3b4186f6b6457e0ddf252ad1be2c89b69c2b068fc378daa952ba7f163c4a11628f55a4df523b3ef4c60206a5c1de41f3376d1d60f0949d96cb682033c90b1c2d9d9a62d4c4120c0c28ad1de9c0c32e5394ba60323e44d8d9536312236a47231772e448a3e49de42a2646970667358221220f123a541734b8170dea8e39d93d4dfbf4d5788147995c134ae18f3b9c7d6d35b64736f6c634300080d0033",
  "libraries": {
    "Pool": "0xD79AafAE8C79bFFB514594E69B6B9baf85cF42e3",
    "Position": "0xC64433E71f1f76Be5567B657026656Cce5999C34",
    "Twap": "0xF295543bAC443e89Bc11F41eAf64D0e28E531226",
    "Underlying": "0xA2e879F3688748CF6E9B77774f270A418e961135",
    "UniswapV3Amounts": "0x6EB5298Edf9b9A111136c5ba7d7494392ba273d7"
  },
  "devdoc": {
    "kind": "dev",
    "methods": {
      "allowance(address,address)": {
        "details": "See {IERC20-allowance}."
      },
      "approve(address,uint256)": {
        "details": "See {IERC20-approve}. NOTE: If `amount` is the maximum `uint256`, the allowance is not updated on `transferFrom`. This is semantically equivalent to an infinite approval. Requirements: - `spender` cannot be the zero address."
      },
      "balanceOf(address)": {
        "details": "See {IERC20-balanceOf}."
      },
      "decimals()": {
        "details": "Returns the number of decimals used to get its user representation. For example, if `decimals` equals `2`, a balance of `505` tokens should be displayed to a user as `5.05` (`505 / 10 ** 2`). Tokens usually opt for a value of 18, imitating the relationship between Ether and Wei. This is the value {ERC20} uses, unless this function is overridden; NOTE: This information is only used for _display_ purposes: it in no way affects any of the arithmetic of the contract, including {IERC20-balanceOf} and {IERC20-transfer}."
      },
      "decreaseAllowance(address,uint256)": {
        "details": "Atomically decreases the allowance granted to `spender` by the caller. This is an alternative to {approve} that can be used as a mitigation for problems described in {IERC20-approve}. Emits an {Approval} event indicating the updated allowance. Requirements: - `spender` cannot be the zero address. - `spender` must have allowance for the caller of at least `subtractedValue`."
      },
      "increaseAllowance(address,uint256)": {
        "details": "Atomically increases the allowance granted to `spender` by the caller. This is an alternative to {approve} that can be used as a mitigation for problems described in {IERC20-approve}. Emits an {Approval} event indicating the updated allowance. Requirements: - `spender` cannot be the zero address."
      },
      "name()": {
        "details": "Returns the name of the token."
      },
      "owner()": {
        "details": "Returns the address of the current owner."
      },
      "renounceOwnership()": {
        "details": "Leaves the contract without owner. It will not be possible to call `onlyOwner` functions anymore. Can only be called by the current owner. NOTE: Renouncing ownership will leave the contract without an owner, thereby removing any functionality that is only available to the owner."
      },
      "symbol()": {
        "details": "Returns the symbol of the token, usually a shorter version of the name."
      },
      "totalSupply()": {
        "details": "See {IERC20-totalSupply}."
      },
      "transfer(address,uint256)": {
        "details": "See {IERC20-transfer}. Requirements: - `to` cannot be the zero address. - the caller must have a balance of at least `amount`."
      },
      "transferFrom(address,address,uint256)": {
        "details": "See {IERC20-transferFrom}. Emits an {Approval} event indicating the updated allowance. This is not required by the EIP. See the note at the beginning of {ERC20}. NOTE: Does not update the allowance if the current allowance is the maximum `uint256`. Requirements: - `from` and `to` cannot be the zero address. - `from` must have a balance of at least `amount`. - the caller must have allowance for ``from``'s tokens of at least `amount`."
      },
      "transferOwnership(address)": {
        "details": "Transfers ownership of the contract to a new account (`newOwner`). Can only be called by the current owner."
      }
    },
    "version": 1
  },
  "userdoc": {
    "kind": "user",
    "methods": {
      "uniswapV3MintCallback(uint256,uint256,bytes)": {
        "notice": "Uniswap V3 callback fn, called back on pool.mint"
      },
      "uniswapV3SwapCallback(int256,int256,bytes)": {
        "notice": "Uniswap v3 callback fn, called back on pool.swap"
      }
    },
    "version": 1
  },
  "storageLayout": {
    "storage": [
      {
        "astId": 8789,
        "contract": "contracts/VaultV2.sol:VaultV2",
        "label": "_owner",
        "offset": 0,
        "slot": "0",
        "type": "t_address"
      },
      {
        "astId": 6,
        "contract": "contracts/VaultV2.sol:VaultV2",
        "label": "_initialized",
        "offset": 20,
        "slot": "0",
        "type": "t_uint8"
      },
      {
        "astId": 9,
        "contract": "contracts/VaultV2.sol:VaultV2",
        "label": "_initializing",
        "offset": 21,
        "slot": "0",
        "type": "t_bool"
      },
      {
        "astId": 1198,
        "contract": "contracts/VaultV2.sol:VaultV2",
        "label": "__gap",
        "offset": 0,
        "slot": "1",
        "type": "t_array(t_uint256)50_storage"
      },
      {
        "astId": 219,
        "contract": "contracts/VaultV2.sol:VaultV2",
        "label": "_balances",
        "offset": 0,
        "slot": "51",
        "type": "t_mapping(t_address,t_uint256)"
      },
      {
        "astId": 225,
        "contract": "contracts/VaultV2.sol:VaultV2",
        "label": "_allowances",
        "offset": 0,
        "slot": "52",
        "type": "t_mapping(t_address,t_mapping(t_address,t_uint256))"
      },
      {
        "astId": 227,
        "contract": "contracts/VaultV2.sol:VaultV2",
        "label": "_totalSupply",
        "offset": 0,
        "slot": "53",
        "type": "t_uint256"
      },
      {
        "astId": 229,
        "contract": "contracts/VaultV2.sol:VaultV2",
        "label": "_name",
        "offset": 0,
        "slot": "54",
        "type": "t_string_storage"
      },
      {
        "astId": 231,
        "contract": "contracts/VaultV2.sol:VaultV2",
        "label": "_symbol",
        "offset": 0,
        "slot": "55",
        "type": "t_string_storage"
      },
      {
        "astId": 810,
        "contract": "contracts/VaultV2.sol:VaultV2",
        "label": "__gap",
        "offset": 0,
        "slot": "56",
        "type": "t_array(t_uint256)45_storage"
      },
      {
        "astId": 155,
        "contract": "contracts/VaultV2.sol:VaultV2",
        "label": "_status",
        "offset": 0,
        "slot": "101",
        "type": "t_uint256"
      },
      {
        "astId": 199,
        "contract": "contracts/VaultV2.sol:VaultV2",
        "label": "__gap",
        "offset": 0,
        "slot": "102",
        "type": "t_array(t_uint256)49_storage"
      },
      {
        "astId": 9123,
        "contract": "contracts/VaultV2.sol:VaultV2",
        "label": "token0",
        "offset": 0,
        "slot": "151",
        "type": "t_contract(IERC20)1968"
      },
      {
        "astId": 9126,
        "contract": "contracts/VaultV2.sol:VaultV2",
        "label": "token1",
        "offset": 0,
        "slot": "152",
        "type": "t_contract(IERC20)1968"
      },
      {
        "astId": 9128,
        "contract": "contracts/VaultV2.sol:VaultV2",
        "label": "init0",
        "offset": 0,
        "slot": "153",
        "type": "t_uint256"
      },
      {
        "astId": 9130,
        "contract": "contracts/VaultV2.sol:VaultV2",
        "label": "init1",
        "offset": 0,
        "slot": "154",
        "type": "t_uint256"
      },
      {
        "astId": 9134,
        "contract": "contracts/VaultV2.sol:VaultV2",
        "label": "ranges",
        "offset": 0,
        "slot": "155",
        "type": "t_array(t_struct(Range)11381_storage)dyn_storage"
      },
      {
        "astId": 9136,
        "contract": "contracts/VaultV2.sol:VaultV2",
        "label": "arrakisBalance0",
        "offset": 0,
        "slot": "156",
        "type": "t_uint256"
      },
      {
        "astId": 9138,
        "contract": "contracts/VaultV2.sol:VaultV2",
        "label": "arrakisBalance1",
        "offset": 0,
        "slot": "157",
        "type": "t_uint256"
      },
      {
        "astId": 9140,
        "contract": "contracts/VaultV2.sol:VaultV2",
        "label": "managerTreasury",
        "offset": 0,
        "slot": "158",
        "type": "t_address"
      },
      {
        "astId": 9142,
        "contract": "contracts/VaultV2.sol:VaultV2",
        "label": "managerFeeBPS",
        "offset": 20,
        "slot": "158",
        "type": "t_uint16"
      },
      {
        "astId": 9144,
        "contract": "contracts/VaultV2.sol:VaultV2",
        "label": "managerBalance0",
        "offset": 0,
        "slot": "159",
        "type": "t_uint256"
      },
      {
        "astId": 9146,
        "contract": "contracts/VaultV2.sol:VaultV2",
        "label": "managerBalance1",
        "offset": 0,
        "slot": "160",
        "type": "t_uint256"
      },
      {
        "astId": 9148,
        "contract": "contracts/VaultV2.sol:VaultV2",
        "label": "maxTwapDeviation",
        "offset": 0,
        "slot": "161",
        "type": "t_int24"
      },
      {
        "astId": 9150,
        "contract": "contracts/VaultV2.sol:VaultV2",
        "label": "twapDuration",
        "offset": 3,
        "slot": "161",
        "type": "t_uint24"
      },
      {
        "astId": 9152,
        "contract": "contracts/VaultV2.sol:VaultV2",
        "label": "maxSlippage",
        "offset": 6,
        "slot": "161",
        "type": "t_uint24"
      },
      {
        "astId": 9155,
        "contract": "contracts/VaultV2.sol:VaultV2",
        "label": "_operators",
        "offset": 0,
        "slot": "162",
        "type": "t_struct(AddressSet)3239_storage"
      },
      {
        "astId": 9158,
        "contract": "contracts/VaultV2.sol:VaultV2",
        "label": "_pools",
        "offset": 0,
        "slot": "164",
        "type": "t_struct(AddressSet)3239_storage"
      }
    ],
    "types": {
      "t_address": {
        "encoding": "inplace",
        "label": "address",
        "numberOfBytes": "20"
      },
      "t_array(t_bytes32)dyn_storage": {
        "base": "t_bytes32",
        "encoding": "dynamic_array",
        "label": "bytes32[]",
        "numberOfBytes": "32"
      },
      "t_array(t_struct(Range)11381_storage)dyn_storage": {
        "base": "t_struct(Range)11381_storage",
        "encoding": "dynamic_array",
        "label": "struct Range[]",
        "numberOfBytes": "32"
      },
      "t_array(t_uint256)45_storage": {
        "base": "t_uint256",
        "encoding": "inplace",
        "label": "uint256[45]",
        "numberOfBytes": "1440"
      },
      "t_array(t_uint256)49_storage": {
        "base": "t_uint256",
        "encoding": "inplace",
        "label": "uint256[49]",
        "numberOfBytes": "1568"
      },
      "t_array(t_uint256)50_storage": {
        "base": "t_uint256",
        "encoding": "inplace",
        "label": "uint256[50]",
        "numberOfBytes": "1600"
      },
      "t_bool": {
        "encoding": "inplace",
        "label": "bool",
        "numberOfBytes": "1"
      },
      "t_bytes32": {
        "encoding": "inplace",
        "label": "bytes32",
        "numberOfBytes": "32"
      },
      "t_contract(IERC20)1968": {
        "encoding": "inplace",
        "label": "contract IERC20",
        "numberOfBytes": "20"
      },
      "t_int24": {
        "encoding": "inplace",
        "label": "int24",
        "numberOfBytes": "3"
      },
      "t_mapping(t_address,t_mapping(t_address,t_uint256))": {
        "encoding": "mapping",
        "key": "t_address",
        "label": "mapping(address => mapping(address => uint256))",
        "numberOfBytes": "32",
        "value": "t_mapping(t_address,t_uint256)"
      },
      "t_mapping(t_address,t_uint256)": {
        "encoding": "mapping",
        "key": "t_address",
        "label": "mapping(address => uint256)",
        "numberOfBytes": "32",
        "value": "t_uint256"
      },
      "t_mapping(t_bytes32,t_uint256)": {
        "encoding": "mapping",
        "key": "t_bytes32",
        "label": "mapping(bytes32 => uint256)",
        "numberOfBytes": "32",
        "value": "t_uint256"
      },
      "t_string_storage": {
        "encoding": "bytes",
        "label": "string",
        "numberOfBytes": "32"
      },
      "t_struct(AddressSet)3239_storage": {
        "encoding": "inplace",
        "label": "struct EnumerableSet.AddressSet",
        "members": [
          {
            "astId": 3238,
            "contract": "contracts/VaultV2.sol:VaultV2",
            "label": "_inner",
            "offset": 0,
            "slot": "0",
            "type": "t_struct(Set)2938_storage"
          }
        ],
        "numberOfBytes": "64"
      },
      "t_struct(Range)11381_storage": {
        "encoding": "inplace",
        "label": "struct Range",
        "members": [
          {
            "astId": 11376,
            "contract": "contracts/VaultV2.sol:VaultV2",
            "label": "lowerTick",
            "offset": 0,
            "slot": "0",
            "type": "t_int24"
          },
          {
            "astId": 11378,
            "contract": "contracts/VaultV2.sol:VaultV2",
            "label": "upperTick",
            "offset": 3,
            "slot": "0",
            "type": "t_int24"
          },
          {
            "astId": 11380,
            "contract": "contracts/VaultV2.sol:VaultV2",
            "label": "feeTier",
            "offset": 6,
            "slot": "0",
            "type": "t_uint24"
          }
        ],
        "numberOfBytes": "32"
      },
      "t_struct(Set)2938_storage": {
        "encoding": "inplace",
        "label": "struct EnumerableSet.Set",
        "members": [
          {
            "astId": 2933,
            "contract": "contracts/VaultV2.sol:VaultV2",
            "label": "_values",
            "offset": 0,
            "slot": "0",
            "type": "t_array(t_bytes32)dyn_storage"
          },
          {
            "astId": 2937,
            "contract": "contracts/VaultV2.sol:VaultV2",
            "label": "_indexes",
            "offset": 0,
            "slot": "1",
            "type": "t_mapping(t_bytes32,t_uint256)"
          }
        ],
        "numberOfBytes": "64"
      },
      "t_uint16": {
        "encoding": "inplace",
        "label": "uint16",
        "numberOfBytes": "2"
      },
      "t_uint24": {
        "encoding": "inplace",
        "label": "uint24",
        "numberOfBytes": "3"
      },
      "t_uint256": {
        "encoding": "inplace",
        "label": "uint256",
        "numberOfBytes": "32"
      },
      "t_uint8": {
        "encoding": "inplace",
        "label": "uint8",
        "numberOfBytes": "1"
      }
    }
  }
}