{
  "address": "0x007B12a0945864843FF3B9E9D11e58371f9A53f0",
  "abi": [
    {
      "inputs": [
        {
          "internalType": "contract IUniswapV3Factory",
          "name": "factory_",
          "type": "address"
        }
      ],
      "stateMutability": "nonpayable",
      "type": "constructor"
    },
    {
      "inputs": [],
      "name": "factory",
      "outputs": [
        {
          "internalType": "contract IUniswapV3Factory",
          "name": "",
          "type": "address"
        }
      ],
      "stateMutability": "view",
      "type": "function"
    },
    {
      "inputs": [
        {
          "components": [
            {
              "internalType": "int24",
              "name": "lowerTick",
              "type": "int24"
            },
            {
              "internalType": "int24",
              "name": "upperTick",
              "type": "int24"
            },
            {
              "internalType": "uint24",
              "name": "feeTier",
              "type": "uint24"
            }
          ],
          "internalType": "struct Range[]",
          "name": "ranges_",
          "type": "tuple[]"
        },
        {
          "internalType": "address",
          "name": "token0_",
          "type": "address"
        },
        {
          "internalType": "address",
          "name": "token1_",
          "type": "address"
        },
        {
          "internalType": "address",
          "name": "vaultV2_",
          "type": "address"
        }
      ],
      "name": "token0AndToken1ByRange",
      "outputs": [
        {
          "components": [
            {
              "components": [
                {
                  "internalType": "int24",
                  "name": "lowerTick",
                  "type": "int24"
                },
                {
                  "internalType": "int24",
                  "name": "upperTick",
                  "type": "int24"
                },
                {
                  "internalType": "uint24",
                  "name": "feeTier",
                  "type": "uint24"
                }
              ],
              "internalType": "struct Range",
              "name": "range",
              "type": "tuple"
            },
            {
              "internalType": "uint256",
              "name": "amount",
              "type": "uint256"
            }
          ],
          "internalType": "struct Amount[]",
          "name": "amount0s",
          "type": "tuple[]"
        },
        {
          "components": [
            {
              "components": [
                {
                  "internalType": "int24",
                  "name": "lowerTick",
                  "type": "int24"
                },
                {
                  "internalType": "int24",
                  "name": "upperTick",
                  "type": "int24"
                },
                {
                  "internalType": "uint24",
                  "name": "feeTier",
                  "type": "uint24"
                }
              ],
              "internalType": "struct Range",
              "name": "range",
              "type": "tuple"
            },
            {
              "internalType": "uint256",
              "name": "amount",
              "type": "uint256"
            }
          ],
          "internalType": "struct Amount[]",
          "name": "amount1s",
          "type": "tuple[]"
        }
      ],
      "stateMutability": "view",
      "type": "function"
    },
    {
      "inputs": [
        {
          "components": [
            {
              "components": [
                {
                  "internalType": "int24",
                  "name": "lowerTick",
                  "type": "int24"
                },
                {
                  "internalType": "int24",
                  "name": "upperTick",
                  "type": "int24"
                },
                {
                  "internalType": "uint24",
                  "name": "feeTier",
                  "type": "uint24"
                }
              ],
              "internalType": "struct Range[]",
              "name": "ranges",
              "type": "tuple[]"
            },
            {
              "internalType": "contract IUniswapV3Factory",
              "name": "factory",
              "type": "address"
            },
            {
              "internalType": "address",
              "name": "token0",
              "type": "address"
            },
            {
              "internalType": "address",
              "name": "token1",
              "type": "address"
            },
            {
              "internalType": "address",
              "name": "self",
              "type": "address"
            }
          ],
          "internalType": "struct UnderlyingPayload",
          "name": "underlyingPayload_",
          "type": "tuple"
        }
      ],
      "name": "totalUnderlying",
      "outputs": [
        {
          "internalType": "uint256",
          "name": "amount0",
          "type": "uint256"
        },
        {
          "internalType": "uint256",
          "name": "amount1",
          "type": "uint256"
        }
      ],
      "stateMutability": "view",
      "type": "function"
    },
    {
      "inputs": [
        {
          "components": [
            {
              "components": [
                {
                  "internalType": "int24",
                  "name": "lowerTick",
                  "type": "int24"
                },
                {
                  "internalType": "int24",
                  "name": "upperTick",
                  "type": "int24"
                },
                {
                  "internalType": "uint24",
                  "name": "feeTier",
                  "type": "uint24"
                }
              ],
              "internalType": "struct Range[]",
              "name": "ranges",
              "type": "tuple[]"
            },
            {
              "internalType": "contract IUniswapV3Factory",
              "name": "factory",
              "type": "address"
            },
            {
              "internalType": "address",
              "name": "token0",
              "type": "address"
            },
            {
              "internalType": "address",
              "name": "token1",
              "type": "address"
            },
            {
              "internalType": "address",
              "name": "self",
              "type": "address"
            }
          ],
          "internalType": "struct UnderlyingPayload",
          "name": "underlyingPayload_",
          "type": "tuple"
        }
      ],
      "name": "totalUnderlyingWithFees",
      "outputs": [
        {
          "internalType": "uint256",
          "name": "amount0",
          "type": "uint256"
        },
        {
          "internalType": "uint256",
          "name": "amount1",
          "type": "uint256"
        },
        {
          "internalType": "uint256",
          "name": "fee0",
          "type": "uint256"
        },
        {
          "internalType": "uint256",
          "name": "fee1",
          "type": "uint256"
        }
      ],
      "stateMutability": "view",
      "type": "function"
    },
    {
      "inputs": [
        {
          "components": [
            {
              "components": [
                {
                  "internalType": "int24",
                  "name": "lowerTick",
                  "type": "int24"
                },
                {
                  "internalType": "int24",
                  "name": "upperTick",
                  "type": "int24"
                },
                {
                  "internalType": "uint24",
                  "name": "feeTier",
                  "type": "uint24"
                }
              ],
              "internalType": "struct Range[]",
              "name": "ranges",
              "type": "tuple[]"
            },
            {
              "internalType": "contract IUniswapV3Factory",
              "name": "factory",
              "type": "address"
            },
            {
              "internalType": "address",
              "name": "token0",
              "type": "address"
            },
            {
              "internalType": "address",
              "name": "token1",
              "type": "address"
            },
            {
              "internalType": "address",
              "name": "self",
              "type": "address"
            }
          ],
          "internalType": "struct UnderlyingPayload",
          "name": "underlyingPayload_",
          "type": "tuple"
        }
      ],
      "name": "totalUnderlyingWithFeesAndLeftOver",
      "outputs": [
        {
          "components": [
            {
              "internalType": "uint256",
              "name": "amount0",
              "type": "uint256"
            },
            {
              "internalType": "uint256",
              "name": "amount1",
              "type": "uint256"
            },
            {
              "internalType": "uint256",
              "name": "fee0",
              "type": "uint256"
            },
            {
              "internalType": "uint256",
              "name": "fee1",
              "type": "uint256"
            },
            {
              "internalType": "uint256",
              "name": "leftOver0",
              "type": "uint256"
            },
            {
              "internalType": "uint256",
              "name": "leftOver1",
              "type": "uint256"
            }
          ],
          "internalType": "struct UnderlyingData",
          "name": "underlying",
          "type": "tuple"
        }
      ],
      "stateMutability": "view",
      "type": "function"
    }
  ],
  "transactionHash": "0x66fa27e304e1f28409d0c5062d2ededf7c03dcbca13220feab018d64a32626e6",
  "args": [],
  "numDeployments": 2,
  "solcInputHash": "df501286bc7a13ffe2581c392b6f21b7",
  "bytecode": "0x60a060405234801561001057600080fd5b50604051610e2d380380610e2d83398101604081905261002f91610040565b6001600160a01b0316608052610070565b60006020828403121561005257600080fd5b81516001600160a01b038116811461006957600080fd5b9392505050565b608051610d9b6100926000396000818161011d01526105be0152610d9b6000f3fe608060405234801561001057600080fd5b50600436106100575760003560e01c80630b93a99e1461005c5780630b9c571c146100c45780638fe5a01e146100f7578063c45a015514610118578063dc0443a21461014c575b600080fd5b61006f61006a3660046107c6565b610174565b6040516100bb9190600060c082019050825182526020830151602083015260408301516040830152606083015160608301526080830151608083015260a083015160a083015292915050565b60405180910390f35b6100d76100d23660046107c6565b610369565b6040805194855260208501939093529183015260608201526080016100bb565b61010a61010536600461082f565b6103f6565b6040516100bb92919061094f565b61013f7f000000000000000000000000000000000000000000000000000000000000000081565b6040516100bb919061098a565b61015f61015a3660046107c6565b610500565b604080519283526020830191909152016100bb565b6101ad6040518060c001604052806000815260200160008152602001600081526020016000815260200160008152602001600081525090565b60405163e56f4d9160e01b815273acf478f5818bcb8b92625097762f9984b5b3b3469063e56f4d91906101e4908590600401610a26565b608060405180830381865af4158015610201573d6000803e3d6000fd5b505050506040513d601f19601f820116820180604052508101906102259190610af4565b606080860191909152604080860192909252602085019290925291835261025191908401908401610b2a565b6001600160a01b03166370a0823161026f60a0850160808601610b2a565b6040518263ffffffff1660e01b815260040161028b919061098a565b602060405180830381865afa1580156102a8573d6000803e3d6000fd5b505050506040513d601f19601f820116820180604052508101906102cc9190610b47565b6080808301919091526102e490830160608401610b2a565b6001600160a01b03166370a0823161030260a0850160808601610b2a565b6040518263ffffffff1660e01b815260040161031e919061098a565b602060405180830381865afa15801561033b573d6000803e3d6000fd5b505050506040513d601f19601f8201168201806040525081019061035f9190610b47565b60a0820152919050565b60008060008073acf478f5818bcb8b92625097762f9984b5b3b34663e56f4d91866040518263ffffffff1660e01b81526004016103a69190610a26565b608060405180830381865af41580156103c3573d6000803e3d6000fd5b505050506040513d601f19601f820116820180604052508101906103e79190610af4565b92989197509550909350915050565b60608060005b868110156104f55760008061042a88888c8c8781811061041e5761041e610b60565b90506060020189610587565b9150915060405180604001604052808b8b8681811061044b5761044b610b60565b9050606002018036038101906104619190610b76565b81526020018381525085848151811061047c5761047c610b60565b602002602001018190525060405180604001604052808b8b868181106104a4576104a4610b60565b9050606002018036038101906104ba9190610b76565b8152602001828152508484815181106104d5576104d5610b60565b6020026020010181905250505080806104ed90610c09565b9150506103fc565b509550959350505050565b60008073acf478f5818bcb8b92625097762f9984b5b3b34663e56f4d91846040518263ffffffff1660e01b815260040161053a9190610a26565b608060405180830381865af4158015610557573d6000803e3d6000fd5b505050506040513d601f19601f8201168201806040525081019061057b9190610af4565b50919590945092505050565b600080846001600160a01b0316866001600160a01b0316106105aa5784866105ad565b85855b909650945060006001600160a01b037f000000000000000000000000000000000000000000000000000000000000000016631698ee8288886105f560608a0160408b01610c22565b6040516001600160e01b031960e086901b1681526001600160a01b03938416600482015292909116602483015262ffffff166044820152606401602060405180830381865afa15801561064c573d6000803e3d6000fd5b505050506040513d601f19601f820116820180604052508101906106709190610c3d565b90506000816001600160a01b0316633850c7bd6040518163ffffffff1660e01b815260040160e060405180830381865afa1580156106b2573d6000803e3d6000fd5b505050506040513d601f19601f820116820180604052508101906106d69190610c6c565b505050505050905060008073acf478f5818bcb8b92625097762f9984b5b3b346637c75bd7860405180606001604052808a6001600160a01b031681526020018b8036038101906107269190610b76565b8152602001876001600160a01b0316815250856040518363ffffffff1660e01b8152600401610756929190610d09565b608060405180830381865af4158015610773573d6000803e3d6000fd5b505050506040513d601f19601f820116820180604052508101906107979190610af4565b929850909650925090506107ab8287610d4d565b95506107b78186610d4d565b94505050505094509492505050565b6000602082840312156107d857600080fd5b81356001600160401b038111156107ee57600080fd5b820160a0818503121561080057600080fd5b9392505050565b6001600160a01b038116811461081c57600080fd5b50565b803561082a81610807565b919050565b60008060008060006080868803121561084757600080fd5b85356001600160401b038082111561085e57600080fd5b818801915088601f83011261087257600080fd5b81358181111561088157600080fd5b89602060608302850101111561089657600080fd5b602092830197509550508601356108ac81610807565b925060408601356108bc81610807565b915060608601356108cc81610807565b809150509295509295909350565b805160020b8252602081015160020b602083015262ffffff60408201511660408301525050565b600081518084526020808501945080840160005b8381101561094457815161092a8882516108da565b830151606088015260809096019590820190600101610915565b509495945050505050565b6040815260006109626040830185610901565b82810360208401526109748185610901565b95945050505050565b6001600160a01b03169052565b6001600160a01b0391909116815260200190565b8060020b811461081c57600080fd5b803562ffffff8116811461082a57600080fd5b8183526000602080850194508260005b858110156109445781356109e38161099e565b600290810b885282840135906109f88261099e565b0b87840152604062ffffff610a0e8483016109ad565b169088015260609687019691909101906001016109d0565b6020815260008235601e19843603018112610a4057600080fd5b830180356001600160401b03811115610a5857600080fd5b606081023603851315610a6a57600080fd5b60a06020850152610a8260c0850182602085016109c0565b915050610a916020850161081f565b610a9e604085018261097d565b50610aab6040850161081f565b610ab8606085018261097d565b50610ac56060850161081f565b610ad2608085018261097d565b50610adf6080850161081f565b610aec60a085018261097d565b509392505050565b60008060008060808587031215610b0a57600080fd5b505082516020840151604085015160609095015191969095509092509050565b600060208284031215610b3c57600080fd5b813561080081610807565b600060208284031215610b5957600080fd5b5051919050565b634e487b7160e01b600052603260045260246000fd5b600060608284031215610b8857600080fd5b604051606081016001600160401b0381118282101715610bb857634e487b7160e01b600052604160045260246000fd5b6040528235610bc68161099e565b81526020830135610bd68161099e565b6020820152610be7604084016109ad565b60408201529392505050565b634e487b7160e01b600052601160045260246000fd5b600060018201610c1b57610c1b610bf3565b5060010190565b600060208284031215610c3457600080fd5b610800826109ad565b600060208284031215610c4f57600080fd5b815161080081610807565b805161ffff8116811461082a57600080fd5b600080600080600080600060e0888a031215610c8757600080fd5b8751610c9281610807565b6020890151909750610ca38161099e565b9550610cb160408901610c5a565b9450610cbf60608901610c5a565b9350610ccd60808901610c5a565b925060a088015160ff81168114610ce357600080fd5b60c08901519092508015158114610cf957600080fd5b8091505092959891949750929550565b82516001600160a01b03908116825260208085015160c084019291610d30908501826108da565b5080604086015116608084015280841660a0840152509392505050565b60008219821115610d6057610d60610bf3565b50019056fea2646970667358221220336083484e3d5ad404be6695f908e0ff01113dc15fd922afab08ce5ea416278164736f6c634300080d00330000000000000000000000001f98431c8ad98523631ae4a59f267346ea31f984",
  "devdoc": {
    "kind": "dev",
    "methods": {},
    "version": 1
  },
  "userdoc": {
    "kind": "user",
    "methods": {},
    "version": 1
  },
  "storageLayout": {
    "storage": [],
    "types": null
  }
}