{
  "address": "0x305d9557AF2cC72e59A75faDAe8Eeb2Fc8523786",
  "abi": [
    {
      "anonymous": false,
      "inputs": [
        {
          "indexed": false,
          "internalType": "address",
          "name": "implementation",
          "type": "address"
        }
      ],
      "name": "InitFactory",
      "type": "event"
    },
    {
      "anonymous": false,
      "inputs": [
        {
          "indexed": false,
          "internalType": "uint8",
          "name": "version",
          "type": "uint8"
        }
      ],
      "name": "Initialized",
      "type": "event"
    },
    {
      "anonymous": false,
      "inputs": [
        {
          "indexed": true,
          "internalType": "address",
          "name": "previousOwner",
          "type": "address"
        },
        {
          "indexed": true,
          "internalType": "address",
          "name": "newOwner",
          "type": "address"
        }
      ],
      "name": "OwnershipTransferred",
      "type": "event"
    },
    {
      "anonymous": false,
      "inputs": [
        {
          "indexed": false,
          "internalType": "address",
          "name": "previousImplementation",
          "type": "address"
        },
        {
          "indexed": false,
          "internalType": "address",
          "name": "newImplementation",
          "type": "address"
        }
      ],
      "name": "UpdateVaultImplementation",
      "type": "event"
    },
    {
      "anonymous": false,
      "inputs": [
        {
          "indexed": true,
          "internalType": "address",
          "name": "manager",
          "type": "address"
        },
        {
          "indexed": true,
          "internalType": "address",
          "name": "vault",
          "type": "address"
        }
      ],
      "name": "VaultCreated",
      "type": "event"
    },
    {
      "inputs": [
        {
          "components": [
            {
              "internalType": "uint24[]",
              "name": "feeTiers",
              "type": "uint24[]"
            },
            {
              "internalType": "address",
              "name": "token0",
              "type": "address"
            },
            {
              "internalType": "address",
              "name": "token1",
              "type": "address"
            },
            {
              "internalType": "address",
              "name": "owner",
              "type": "address"
            },
            {
              "internalType": "address[]",
              "name": "operators",
              "type": "address[]"
            },
            {
              "components": [
                {
                  "internalType": "int24",
                  "name": "lowerTick",
                  "type": "int24"
                },
                {
                  "internalType": "int24",
                  "name": "upperTick",
                  "type": "int24"
                },
                {
                  "internalType": "uint24",
                  "name": "feeTier",
                  "type": "uint24"
                }
              ],
              "internalType": "struct Range[]",
              "name": "ranges",
              "type": "tuple[]"
            },
            {
              "internalType": "uint256",
              "name": "init0",
              "type": "uint256"
            },
            {
              "internalType": "uint256",
              "name": "init1",
              "type": "uint256"
            },
            {
              "internalType": "address",
              "name": "managerTreasury",
              "type": "address"
            },
            {
              "internalType": "uint16",
              "name": "managerFeeBPS",
              "type": "uint16"
            },
            {
              "internalType": "int24",
              "name": "maxTwapDeviation",
              "type": "int24"
            },
            {
              "internalType": "uint24",
              "name": "twapDuration",
              "type": "uint24"
            }
          ],
          "internalType": "struct InitializePayload",
          "name": "params_",
          "type": "tuple"
        }
      ],
      "name": "deployVault",
      "outputs": [
        {
          "internalType": "address",
          "name": "vault",
          "type": "address"
        }
      ],
      "stateMutability": "nonpayable",
      "type": "function"
    },
    {
      "inputs": [],
      "name": "deployer",
      "outputs": [
        {
          "internalType": "address",
          "name": "",
          "type": "address"
        }
      ],
      "stateMutability": "view",
      "type": "function"
    },
    {
      "inputs": [],
      "name": "getDeployerVaults",
      "outputs": [
        {
          "internalType": "address[]",
          "name": "",
          "type": "address[]"
        }
      ],
      "stateMutability": "view",
      "type": "function"
    },
    {
      "inputs": [],
      "name": "getDeployers",
      "outputs": [
        {
          "internalType": "address[]",
          "name": "",
          "type": "address[]"
        }
      ],
      "stateMutability": "view",
      "type": "function"
    },
    {
      "inputs": [
        {
          "internalType": "address",
          "name": "token0_",
          "type": "address"
        },
        {
          "internalType": "address",
          "name": "token1_",
          "type": "address"
        }
      ],
      "name": "getTokenName",
      "outputs": [
        {
          "internalType": "string",
          "name": "",
          "type": "string"
        }
      ],
      "stateMutability": "view",
      "type": "function"
    },
    {
      "inputs": [
        {
          "internalType": "address",
          "name": "deployer",
          "type": "address"
        }
      ],
      "name": "getVaultsByDeployer",
      "outputs": [
        {
          "internalType": "address[]",
          "name": "",
          "type": "address[]"
        }
      ],
      "stateMutability": "view",
      "type": "function"
    },
    {
      "inputs": [],
      "name": "index",
      "outputs": [
        {
          "internalType": "uint256",
          "name": "",
          "type": "uint256"
        }
      ],
      "stateMutability": "view",
      "type": "function"
    },
    {
      "inputs": [
        {
          "internalType": "address",
          "name": "implementation_",
          "type": "address"
        },
        {
          "internalType": "address",
          "name": "_owner_",
          "type": "address"
        }
      ],
      "name": "initialize",
      "outputs": [],
      "stateMutability": "nonpayable",
      "type": "function"
    },
    {
      "inputs": [
        {
          "internalType": "address[]",
          "name": "vaults_",
          "type": "address[]"
        }
      ],
      "name": "makeVaultsImmutable",
      "outputs": [],
      "stateMutability": "nonpayable",
      "type": "function"
    },
    {
      "inputs": [],
      "name": "numDeployers",
      "outputs": [
        {
          "internalType": "uint256",
          "name": "",
          "type": "uint256"
        }
      ],
      "stateMutability": "view",
      "type": "function"
    },
    {
      "inputs": [],
      "name": "numVaults",
      "outputs": [
        {
          "internalType": "uint256",
          "name": "result",
          "type": "uint256"
        }
      ],
      "stateMutability": "view",
      "type": "function"
    },
    {
      "inputs": [
        {
          "internalType": "address",
          "name": "deployer",
          "type": "address"
        }
      ],
      "name": "numVaultsByDeployer",
      "outputs": [
        {
          "internalType": "uint256",
          "name": "",
          "type": "uint256"
        }
      ],
      "stateMutability": "view",
      "type": "function"
    },
    {
      "inputs": [],
      "name": "owner",
      "outputs": [
        {
          "internalType": "address",
          "name": "",
          "type": "address"
        }
      ],
      "stateMutability": "view",
      "type": "function"
    },
    {
      "inputs": [],
      "name": "renounceOwnership",
      "outputs": [],
      "stateMutability": "nonpayable",
      "type": "function"
    },
    {
      "inputs": [
        {
          "internalType": "address",
          "name": "nextImplementation_",
          "type": "address"
        }
      ],
      "name": "setVaultImplementation",
      "outputs": [],
      "stateMutability": "nonpayable",
      "type": "function"
    },
    {
      "inputs": [
        {
          "internalType": "address",
          "name": "newOwner",
          "type": "address"
        }
      ],
      "name": "transferOwnership",
      "outputs": [],
      "stateMutability": "nonpayable",
      "type": "function"
    },
    {
      "inputs": [
        {
          "internalType": "address[]",
          "name": "vaults_",
          "type": "address[]"
        }
      ],
      "name": "upgradeVaults",
      "outputs": [],
      "stateMutability": "nonpayable",
      "type": "function"
    },
    {
      "inputs": [
        {
          "internalType": "address[]",
          "name": "vaults_",
          "type": "address[]"
        },
        {
          "internalType": "bytes[]",
          "name": "datas_",
          "type": "bytes[]"
        }
      ],
      "name": "upgradeVaultsAndCall",
      "outputs": [],
      "stateMutability": "nonpayable",
      "type": "function"
    },
    {
      "inputs": [],
      "name": "vaultImplementation",
      "outputs": [
        {
          "internalType": "address",
          "name": "",
          "type": "address"
        }
      ],
      "stateMutability": "view",
      "type": "function"
    },
    {
      "inputs": [],
      "name": "version",
      "outputs": [
        {
          "internalType": "string",
          "name": "",
          "type": "string"
        }
      ],
      "stateMutability": "view",
      "type": "function"
    }
  ],
  "transactionHash": "0x8b8b5e45702622e5ca69ee4ccab384a76ec69bcc56871dca9fa2da2d03cc14ab",
  "args": [],
  "numDeployments": 3,
  "solcInputHash": "096721d5a3f253ae4561b65595ef5e71",
  "bytecode": "0x60806040523480156200001157600080fd5b5060028054336001600160a01b03199091168117909155620000429060049062000049602090811b62000de717901c565b50620000bb565b600062000060836001600160a01b03841662000069565b90505b92915050565b6000818152600183016020526040812054620000b25750815460018181018455600084815260208082209093018490558454848252828601909352604090209190915562000063565b50600062000063565b6126be80620000cb6000396000f3fe60806040523480156200001157600080fd5b5060043610620001125760003560e01c8063098eddb1146200011757806325de07f61462000134578063264a6208146200014d5780632986c0e5146200015757806333d808381462000161578063485cc955146200017857806353e78b6b146200019157806354fd4d5014620001a8578063607c12b514620001dc578063715018a614620001e65780638da5cb5b14620001f05780638e7f20031462000209578063bb81eef61462000220578063bba48a901462000237578063bd30dfb9146200024b578063cf0093411462000262578063d5e154851462000279578063d5f394881462000290578063f034df9214620002a4578063f2fde38b14620002bb575b600080fd5b62000121620002d2565b6040519081526020015b60405180910390f35b6200013e620002e5565b6040516200012b9190620012fa565b62000121620002ff565b6200012160035481565b620001216200017236600462001361565b6200036a565b6200018f620001893660046200137f565b62000393565b005b6200018f620001a236600462001361565b62000472565b620001cd604051806040016040528060058152602001640312e302e360dc1b81525081565b6040516200012b919062001414565b6200013e6200050a565b6200018f620005c4565b620001fa62000631565b6040516200012b919062001429565b6200018f6200021a36600462001517565b62000640565b6200018f6200023136600462001517565b62000722565b600154620001fa906001600160a01b031681565b620001cd6200025c3660046200137f565b620007f8565b6200018f6200027336600462001557565b6200092d565b6200013e6200028a36600462001361565b62000a95565b600254620001fa906001600160a01b031681565b620001fa620002b5366004620015f8565b62000b52565b6200018f620002cc36600462001361565b62000d02565b6000620002e0600462000e05565b905090565b600254606090620002e0906001600160a01b031662000a95565b6000806200030c6200050a565b905060005b815181101562000365576200034282828151811062000334576200033462001636565b60200260200101516200036a565b6200034e908462001662565b9250806200035c816200167d565b91505062000311565b505090565b6001600160a01b03811660009081526006602052604081206200038d9062000e05565b92915050565b6000620003a1600162000e10565b90508015620003be576000805460ff60a81b1916600160a81b1790555b600180546001600160a01b038086166001600160a01b0319928316811790935560008054918616919092161790556040517f6d4391b481e741f75506c7b1504309dd70c7eff29c463eae4bff33d733b0a9e2916200041c9162001429565b60405180910390a180156200046d576000805460ff60a81b19169055604051600181527f7f26b83ff96e1f2b6a682f133852f6798a09c465da95921460cefb38474024989060200160405180910390a15b505050565b336200047d62000631565b6001600160a01b031614620004af5760405162461bcd60e51b8152600401620004a69062001699565b60405180910390fd5b600180546001600160a01b0319166001600160a01b0383169081179091556040517f506dafb05cbd4163ab2d9670c893292d83fddf30e7805364ddb1ded4a6390bb191620004ff918490620016ce565b60405180910390a150565b6060600062000518620002d2565b90506000816001600160401b038111156200053757620005376200143d565b60405190808252806020026020018201604052801562000561578160200160208202803683370190505b50905060005b82811015620005bd576200057b8162000eb8565b82828151811062000590576200059062001636565b6001600160a01b039092166020928302919091019091015280620005b4816200167d565b91505062000567565b5092915050565b33620005cf62000631565b6001600160a01b031614620005f85760405162461bcd60e51b8152600401620004a69062001699565b600080546040516001600160a01b039091169060008051602062002669833981519152908390a3600080546001600160a01b0319169055565b6000546001600160a01b031690565b336200064b62000631565b6001600160a01b031614620006745760405162461bcd60e51b8152600401620004a69062001699565b60005b81518110156200071e5781818151811062000696576200069662001636565b6020908102919091010151600154604051631b2ce7f360e11b81526001600160a01b0392831692633659cfe692620006d49291169060040162001429565b600060405180830381600087803b158015620006ef57600080fd5b505af115801562000704573d6000803e3d6000fd5b50505050808062000715906200167d565b91505062000677565b5050565b336200072d62000631565b6001600160a01b031614620007565760405162461bcd60e51b8152600401620004a69062001699565b60005b81518110156200071e5781818151811062000778576200077862001636565b60200260200101516001600160a01b0316638356ca4f60006040518263ffffffff1660e01b8152600401620007ae919062001429565b600060405180830381600087803b158015620007c957600080fd5b505af1158015620007de573d6000803e3d6000fd5b505050508080620007ef906200167d565b91505062000759565b60606000836001600160a01b03166395d89b416040518163ffffffff1660e01b8152600401600060405180830381865afa1580156200083b573d6000803e3d6000fd5b505050506040513d6000823e601f3d908101601f19168201604052620008659190810190620016e8565b90506000836001600160a01b03166395d89b416040518163ffffffff1660e01b8152600401600060405180830381865afa158015620008a8573d6000803e3d6000fd5b505050506040513d6000823e601f3d908101601f19168201604052620008d29190810190620016e8565b90506200092460405180604001604052806011815260200170020b93930b5b4b9902b30bab63a102b191607d1b81525083604051806040016040528060018152602001602f60f81b8152508462000ec7565b95945050505050565b336200093862000631565b6001600160a01b031614620009615760405162461bcd60e51b8152600401620004a69062001699565b82518114620009ae5760405162461bcd60e51b81526020600482015260186024820152770dad2e6dac2e8c6d0d2dcce40c2e4e4c2f240d8cadccee8d60431b6044820152606401620004a6565b60005b835181101562000a8f57838181518110620009d057620009d062001636565b60200260200101516001600160a01b0316634f1ef286600160009054906101000a90046001600160a01b031685858581811062000a115762000a1162001636565b905060200281019062000a2591906200177d565b6040518463ffffffff1660e01b815260040162000a4593929190620017c6565b600060405180830381600087803b15801562000a6057600080fd5b505af115801562000a75573d6000803e3d6000fd5b50505050808062000a86906200167d565b915050620009b1565b50505050565b6060600062000aa4836200036a565b90506000816001600160401b0381111562000ac35762000ac36200143d565b60405190808252806020026020018201604052801562000aed578160200160208202803683370190505b50905060005b8281101562000b4a5762000b08858262000efb565b82828151811062000b1d5762000b1d62001636565b6001600160a01b03909216602092830291909101909101528062000b41816200167d565b91505062000af3565b509392505050565b6000606062000b8462000b6c604085016020860162001361565b62000b7e606086016040870162001361565b62000f1f565b8092508193505050816001600160a01b0316636b8f095e8262000bb7600354600162000bb1919062001662565b6200103d565b60405160200162000bc9919062001806565b604051602081830303815290604052866040518463ffffffff1660e01b815260040162000bf993929190620019fb565b600060405180830381600087803b15801562000c1457600080fd5b505af115801562000c29573d6000803e3d6000fd5b5062000c50925062000c479150506101208501610100860162001361565b60049062000de7565b5062000c8e826006600062000c6e6101208801610100890162001361565b6001600160a01b0316815260208101919091526040016000209062000de7565b5060016003600082825462000ca4919062001662565b90915550506001600160a01b03821662000cc76101208501610100860162001361565b6001600160a01b03167f5d9c31ffa0fecffd7cf379989a3c7af252f0335e0d2a1320b55245912c781f5360405160405180910390a350919050565b3362000d0d62000631565b6001600160a01b03161462000d365760405162461bcd60e51b8152600401620004a69062001699565b6001600160a01b03811662000d9d5760405162461bcd60e51b815260206004820152602660248201527f4f776e61626c653a206e6577206f776e657220697320746865207a65726f206160448201526564647265737360d01b6064820152608401620004a6565b600080546040516001600160a01b03808516939216916000805160206200266983398151915291a3600080546001600160a01b0319166001600160a01b0392909216919091179055565b600062000dfe836001600160a01b03841662001184565b9392505050565b60006200038d825490565b60008054600160a81b900460ff161562000e5e578160ff16600114801562000e375750303b155b62000e565760405162461bcd60e51b8152600401620004a69062001b8e565b506000919050565b60005460ff808416600160a01b909204161062000e8f5760405162461bcd60e51b8152600401620004a69062001b8e565b506000805460ff909216600160a01b0260ff60a01b19909216919091179055600190565b919050565b60006200038d600483620011d6565b60608484848460405160200162000ee2949392919062001bdc565b6040516020818303038152906040529050949350505050565b6001600160a01b038216600090815260066020526040812062000dfe9083620011d6565b6000606060008062000f328686620011e4565b6001546040519294509092506001600160a01b031690309062000f5590620012df565b6001600160a01b03928316815291166020820152606060408201819052600090820152608001604051809103906000f08015801562000f98573d6000803e3d6000fd5b50604080518082018252601081526f20b93930b5b4b9902b30bab63a102b1960811b6020820152905163bd30dfb960e01b81529195509350309063bd30dfb99062000fea9085908590600401620016ce565b600060405180830381865afa9250505080156200102b57506040513d6000823e601f3d908101601f19168201604052620010289190810190620016e8565b60015b15620010345792505b50509250929050565b606081600003620010655750506040805180820190915260018152600360fc1b602082015290565b8160005b81156200109557806200107c816200167d565b91506200108d9050600a8362001c3b565b915062001069565b6000816001600160401b03811115620010b257620010b26200143d565b6040519080825280601f01601f191660200182016040528015620010dd576020820181803683370190505b509050815b85156200117b57620010f660018262001c5e565b9050600062001107600a8862001c3b565b6200111490600a62001c78565b62001120908862001c5e565b6200112d90603062001c9a565b905060008160f81b9050808484815181106200114d576200114d62001636565b60200101906001600160f81b031916908160001a90535062001171600a8962001c3b565b97505050620010e2565b50949350505050565b6000818152600183016020526040812054620011cd575081546001818101845560008481526020808220909301849055845484825282860190935260409020919091556200038d565b5060006200038d565b600062000dfe8383620012b2565b600080826001600160a01b0316846001600160a01b031603620012375760405162461bcd60e51b815260206004820152600a60248201526939b0b6b2903a37b5b2b760b11b6044820152606401620004a6565b826001600160a01b0316846001600160a01b031610620012595782846200125c565b83835b90925090506001600160a01b038216620012ab5760405162461bcd60e51b815260206004820152600f60248201526e6e6f2061646472657373207a65726f60881b6044820152606401620004a6565b9250929050565b6000826000018281548110620012cc57620012cc62001636565b9060005260206000200154905092915050565b6109a68062001cc383390190565b6001600160a01b03169052565b6020808252825182820181905260009190848201906040850190845b818110156200133d5783516001600160a01b03168352928401929184019160010162001316565b50909695505050505050565b80356001600160a01b038116811462000eb357600080fd5b6000602082840312156200137457600080fd5b62000dfe8262001349565b600080604083850312156200139357600080fd5b6200139e8362001349565b9150620013ae6020840162001349565b90509250929050565b60005b83811015620013d4578181015183820152602001620013ba565b8381111562000a8f5750506000910152565b6000815180845262001400816020860160208601620013b7565b601f01601f19169290920160200192915050565b60208152600062000dfe6020830184620013e6565b6001600160a01b0391909116815260200190565b634e487b7160e01b600052604160045260246000fd5b604051601f8201601f191681016001600160401b03811182821017156200147e576200147e6200143d565b604052919050565b600082601f8301126200149857600080fd5b813560206001600160401b03821115620014b657620014b66200143d565b8160051b620014c782820162001453565b9283528481018201928281019087851115620014e257600080fd5b83870192505b848310156200150c57620014fc8362001349565b82529183019190830190620014e8565b979650505050505050565b6000602082840312156200152a57600080fd5b81356001600160401b038111156200154157600080fd5b6200154f8482850162001486565b949350505050565b6000806000604084860312156200156d57600080fd5b83356001600160401b03808211156200158557600080fd5b620015938783880162001486565b94506020860135915080821115620015aa57600080fd5b818601915086601f830112620015bf57600080fd5b813581811115620015cf57600080fd5b8760208260051b8501011115620015e557600080fd5b6020830194508093505050509250925092565b6000602082840312156200160b57600080fd5b81356001600160401b038111156200162257600080fd5b8201610180818503121562000dfe57600080fd5b634e487b7160e01b600052603260045260246000fd5b634e487b7160e01b600052601160045260246000fd5b600082198211156200167857620016786200164c565b500190565b6000600182016200169257620016926200164c565b5060010190565b6020808252818101527f4f776e61626c653a2063616c6c6572206973206e6f7420746865206f776e6572604082015260600190565b6001600160a01b0392831681529116602082015260400190565b600060208284031215620016fb57600080fd5b81516001600160401b03808211156200171357600080fd5b818401915084601f8301126200172857600080fd5b8151818111156200173d576200173d6200143d565b62001752601f8201601f191660200162001453565b91508082528560208285010111156200176a57600080fd5b6200117b816020840160208601620013b7565b6000808335601e198436030181126200179557600080fd5b8301803591506001600160401b03821115620017b057600080fd5b602001915036819003821315620012ab57600080fd5b6001600160a01b03841681526040602082018190528101829052818360608301376000818301606090810191909152601f909201601f1916010192915050565b6852414b49532d56322d60b81b8152600082516200182c816009850160208701620013b7565b9190910160090192915050565b6000808335601e198436030181126200185157600080fd5b83016020810192503590506001600160401b038111156200187157600080fd5b8060051b3603831315620012ab57600080fd5b803562ffffff8116811462000eb357600080fd5b8183526000602080850194508260005b85811015620018d45762ffffff620018c08362001884565b1687529582019590820190600101620018a8565b509495945050505050565b8183526000602080850194508260005b85811015620018d4576001600160a01b036200190b8362001349565b1687529582019590820190600101620018ef565b6000808335601e198436030181126200193757600080fd5b83016020810192503590506001600160401b038111156200195757600080fd5b606081023603831315620012ab57600080fd5b8035600281900b811462000eb357600080fd5b8183526000602080850194508260005b85811015620018d457620019a1826200196a565b600281810b8952620019b58585016200196a565b900b8885015250604062ffffff620019cf84830162001884565b169088015260609687019691909101906001016200198d565b803561ffff8116811462000eb357600080fd5b60608152600062001a106060830186620013e6565b828103602084015262001a248186620013e6565b9050828103604084015261018062001a3d858662001839565b82845262001a4f838501828462001898565b9250505062001a616020860162001349565b62001a706020840182620012ed565b5062001a7f6040860162001349565b62001a8e6040840182620012ed565b5062001a9d6060860162001349565b62001aac6060840182620012ed565b5062001abc608086018662001839565b838303608085015262001ad1838284620018df565b9250505062001ae460a08601866200191f565b83830360a085015262001af98382846200197d565b9250505060c085013560c083015260e085013560e083015261010062001b2181870162001349565b62001b2f82850182620012ed565b505061012062001b41818701620019e8565b61ffff169083015261014062001b598682016200196a565b62001b688285018260020b9052565b505061016062001b7a81870162001884565b62ffffff1692019190915295945050505050565b6020808252602e908201527f496e697469616c697a61626c653a20636f6e747261637420697320616c72656160408201526d191e481a5b9a5d1a585b1a5e995960921b606082015260800190565b6000855162001bf0818460208a01620013b7565b85519083019062001c06818360208a01620013b7565b855191019062001c1b818360208901620013b7565b845191019062001c30818360208801620013b7565b019695505050505050565b60008262001c5957634e487b7160e01b600052601260045260246000fd5b500490565b60008282101562001c735762001c736200164c565b500390565b600081600019048311821515161562001c955762001c956200164c565b500290565b600060ff821660ff84168060ff0382111562001cba5762001cba6200164c565b01939250505056fe60806040526040516109a63803806109a6833981016040819052610022916101e6565b61002c838261003d565b61003582610119565b5050506102d2565b7f360894a13ba1a3210667c828492db98dca3e2076cc3735a920a3ca505d382bbc8054908390556040516001600160a01b0380851691908316907f5570d70a002632a7b0b3c9304cc89efb62d8da9eca0dbd7752c83b737906829690600090a3815115610114576000836001600160a01b0316836040516100be91906102b6565b600060405180830381855af49150503d80600081146100f9576040519150601f19603f3d011682016040523d82523d6000602084013e6100fe565b606091505b5050905080610112573d806000803e806000fd5b505b505050565b60006101316000805160206109868339815191525490565b90508160008051602061098683398151915255816001600160a01b0316816001600160a01b03167fdf435d422321da6b195902d70fc417c06a32f88379c20dd8f2a8da07088cec2960405160405180910390a35050565b80516001600160a01b038116811461019f57600080fd5b919050565b634e487b7160e01b600052604160045260246000fd5b60005b838110156101d55781810151838201526020016101bd565b838111156101125750506000910152565b6000806000606084860312156101fb57600080fd5b61020484610188565b925061021260208501610188565b60408501519092506001600160401b038082111561022f57600080fd5b818601915086601f83011261024357600080fd5b815181811115610255576102556101a4565b604051601f8201601f19908116603f0116810190838211818310171561027d5761027d6101a4565b8160405282815289602084870101111561029657600080fd5b6102a78360208301602088016101ba565b80955050505050509250925092565b600082516102c88184602087016101ba565b9190910192915050565b6106a5806102e16000396000f3fe60806040526004361061004e5760003560e01c806301ffc9a71461009b5780633659cfe6146100d05780633e47158c146100f05780634f1ef2861461011d5780638356ca4f1461013057610091565b366100915760405162461bcd60e51b815260206004820152600e60248201526d115512115497d491529150d5115160921b60448201526064015b60405180910390fd5b610099610150565b005b3480156100a757600080fd5b506100bb6100b63660046104c7565b610189565b60405190151581526020015b60405180910390f35b3480156100dc57600080fd5b506100996100eb36600461050d565b61026f565b3480156100fc57600080fd5b506101056102c3565b6040516001600160a01b0390911681526020016100c7565b61009961012b366004610528565b6102d2565b34801561013c57600080fd5b5061009961014b36600461050d565b61034f565b6000805160206106508339815191525460003681823780813683855af491503d8082833e82801561017f578183f35b8183fd5b50505050565b60006301ffc9a760e01b6001600160e01b0319831614806101ba57506307f5828d60e41b6001600160e01b03198316145b156101c757506001919050565b6001600160e01b031980831690036101e157506000919050565b600080516020610650833981519152546040516301ffc9a760e01b81526001600160e01b0319841660048201526001600160a01b038216906301ffc9a790602401602060405180830381865afa92505050801561025b575060408051601f3d908101601f19168201909252610258918101906105aa565b60015b6102685750600092915050565b9392505050565b610277610390565b6001600160a01b0316336001600160a01b0316146102a75760405162461bcd60e51b8152600401610088906105cc565b6102c081604051806020016040528060008152506103a3565b50565b60006102cd610390565b905090565b6102da610390565b6001600160a01b0316336001600160a01b03161461030a5760405162461bcd60e51b8152600401610088906105cc565b61034a8383838080601f0160208091040260200160405190810160405280939291908181526020018383808284376000920191909152506103a392505050565b505050565b610357610390565b6001600160a01b0316336001600160a01b0316146103875760405162461bcd60e51b8152600401610088906105cc565b6102c081610466565b6000805160206106308339815191525490565b6000805160206106508339815191528054908390556040516001600160a01b0380851691908316907f5570d70a002632a7b0b3c9304cc89efb62d8da9eca0dbd7752c83b737906829690600090a381511561034a576000836001600160a01b03168360405161041291906105f4565b600060405180830381855af49150503d806000811461044d576040519150601f19603f3d011682016040523d82523d6000602084013e610452565b606091505b5050905080610183573d806000803e806000fd5b6000610470610390565b90508160008051602061063083398151915255816001600160a01b0316816001600160a01b03167fdf435d422321da6b195902d70fc417c06a32f88379c20dd8f2a8da07088cec2960405160405180910390a35050565b6000602082840312156104d957600080fd5b81356001600160e01b03198116811461026857600080fd5b80356001600160a01b038116811461050857600080fd5b919050565b60006020828403121561051f57600080fd5b610268826104f1565b60008060006040848603121561053d57600080fd5b610546846104f1565b925060208401356001600160401b038082111561056257600080fd5b818601915086601f83011261057657600080fd5b81358181111561058557600080fd5b87602082850101111561059757600080fd5b6020830194508093505050509250925092565b6000602082840312156105bc57600080fd5b8151801515811461026857600080fd5b6020808252600e908201526d1393d517d055551213d49256915160921b604082015260600190565b6000825160005b8181101561061557602081860181015185830152016105fb565b81811115610624576000828501525b50919091019291505056feb53127684a568b3173ae13b9f8a6016e243e63b6e8ee1178d6a717850b5d6103360894a13ba1a3210667c828492db98dca3e2076cc3735a920a3ca505d382bbca2646970667358221220697076d8dc1a3f9f51c9fedf696bd5e30ceb3cbea44cedff4e0bb6441d2a3a5f64736f6c634300080d0033b53127684a568b3173ae13b9f8a6016e243e63b6e8ee1178d6a717850b5d61038be0079c531659141344cd1fd0a4f28419497f9722a3daafe3b4186f6b6457e0a264697066735822122078b8f194ae58557b81bcf7ecf49eb05aafa76ec291696986f2f2fb8c2653210464736f6c634300080d0033",
  "devdoc": {
    "kind": "dev",
    "methods": {
      "getDeployerVaults()": {
        "returns": {
          "_0": "list of deployer's managed Vault addresses"
        }
      },
      "getDeployers()": {
        "returns": {
          "_0": "deployers the list of deployer addresses"
        }
      },
      "getVaultsByDeployer(address)": {
        "params": {
          "deployer": "address that has potentially deployed Harvesters (can return empty array)"
        },
        "returns": {
          "_0": "vaults the list of Vault addresses deployed by `deployer`"
        }
      },
      "numDeployers()": {
        "returns": {
          "_0": "total number of Vault deployer addresses"
        }
      },
      "numVaults()": {
        "returns": {
          "result": "total number of Harvesters deployed"
        }
      },
      "numVaultsByDeployer(address)": {
        "params": {
          "deployer": "deployer address"
        },
        "returns": {
          "_0": "total number of Harvesters deployed by `deployer`"
        }
      },
      "owner()": {
        "details": "Returns the address of the current owner."
      },
      "renounceOwnership()": {
        "details": "Leaves the contract without owner. It will not be possible to call `onlyOwner` functions anymore. Can only be called by the current owner. NOTE: Renouncing ownership will leave the contract without an owner, thereby removing any functionality that is only available to the owner."
      },
      "transferOwnership(address)": {
        "details": "Transfers ownership of the contract to a new account (`newOwner`). Can only be called by the current owner."
      }
    },
    "version": 1
  },
  "userdoc": {
    "kind": "user",
    "methods": {
      "getDeployerVaults()": {
        "notice": "getDeployerVaults gets all the Harvesters deployed by Arrakis deployer default deployer address (since anyone can deploy and manage Harvesters)"
      },
      "getDeployers()": {
        "notice": "getDeployers fetches all addresses that have deployed a Vault"
      },
      "getVaultsByDeployer(address)": {
        "notice": "getVaults fetches all the Vault addresses deployed by `deployer`"
      },
      "numDeployers()": {
        "notice": "numDeployers counts the total number of Vault deployer addresses"
      },
      "numVaults()": {
        "notice": "numVaults counts the total number of Harvesters in existence"
      },
      "numVaultsByDeployer(address)": {
        "notice": "numVaults counts the total number of Harvesters deployed by `deployer`"
      }
    },
    "version": 1
  },
  "storageLayout": {
    "storage": [
      {
        "astId": 6935,
        "contract": "contracts/VaultV2Factory.sol:VaultV2Factory",
        "label": "_owner",
        "offset": 0,
        "slot": "0",
        "type": "t_address"
      },
      {
        "astId": 6,
        "contract": "contracts/VaultV2Factory.sol:VaultV2Factory",
        "label": "_initialized",
        "offset": 20,
        "slot": "0",
        "type": "t_uint8"
      },
      {
        "astId": 9,
        "contract": "contracts/VaultV2Factory.sol:VaultV2Factory",
        "label": "_initializing",
        "offset": 21,
        "slot": "0",
        "type": "t_bool"
      },
      {
        "astId": 7047,
        "contract": "contracts/VaultV2Factory.sol:VaultV2Factory",
        "label": "vaultImplementation",
        "offset": 0,
        "slot": "1",
        "type": "t_address"
      },
      {
        "astId": 7049,
        "contract": "contracts/VaultV2Factory.sol:VaultV2Factory",
        "label": "deployer",
        "offset": 0,
        "slot": "2",
        "type": "t_address"
      },
      {
        "astId": 7051,
        "contract": "contracts/VaultV2Factory.sol:VaultV2Factory",
        "label": "index",
        "offset": 0,
        "slot": "3",
        "type": "t_uint256"
      },
      {
        "astId": 7054,
        "contract": "contracts/VaultV2Factory.sol:VaultV2Factory",
        "label": "_deployers",
        "offset": 0,
        "slot": "4",
        "type": "t_struct(AddressSet)2526_storage"
      },
      {
        "astId": 7059,
        "contract": "contracts/VaultV2Factory.sol:VaultV2Factory",
        "label": "_vaults",
        "offset": 0,
        "slot": "6",
        "type": "t_mapping(t_address,t_struct(AddressSet)2526_storage)"
      }
    ],
    "types": {
      "t_address": {
        "encoding": "inplace",
        "label": "address",
        "numberOfBytes": "20"
      },
      "t_array(t_bytes32)dyn_storage": {
        "base": "t_bytes32",
        "encoding": "dynamic_array",
        "label": "bytes32[]",
        "numberOfBytes": "32"
      },
      "t_bool": {
        "encoding": "inplace",
        "label": "bool",
        "numberOfBytes": "1"
      },
      "t_bytes32": {
        "encoding": "inplace",
        "label": "bytes32",
        "numberOfBytes": "32"
      },
      "t_mapping(t_address,t_struct(AddressSet)2526_storage)": {
        "encoding": "mapping",
        "key": "t_address",
        "label": "mapping(address => struct EnumerableSet.AddressSet)",
        "numberOfBytes": "32",
        "value": "t_struct(AddressSet)2526_storage"
      },
      "t_mapping(t_bytes32,t_uint256)": {
        "encoding": "mapping",
        "key": "t_bytes32",
        "label": "mapping(bytes32 => uint256)",
        "numberOfBytes": "32",
        "value": "t_uint256"
      },
      "t_struct(AddressSet)2526_storage": {
        "encoding": "inplace",
        "label": "struct EnumerableSet.AddressSet",
        "members": [
          {
            "astId": 2525,
            "contract": "contracts/VaultV2Factory.sol:VaultV2Factory",
            "label": "_inner",
            "offset": 0,
            "slot": "0",
            "type": "t_struct(Set)2225_storage"
          }
        ],
        "numberOfBytes": "64"
      },
      "t_struct(Set)2225_storage": {
        "encoding": "inplace",
        "label": "struct EnumerableSet.Set",
        "members": [
          {
            "astId": 2220,
            "contract": "contracts/VaultV2Factory.sol:VaultV2Factory",
            "label": "_values",
            "offset": 0,
            "slot": "0",
            "type": "t_array(t_bytes32)dyn_storage"
          },
          {
            "astId": 2224,
            "contract": "contracts/VaultV2Factory.sol:VaultV2Factory",
            "label": "_indexes",
            "offset": 0,
            "slot": "1",
            "type": "t_mapping(t_bytes32,t_uint256)"
          }
        ],
        "numberOfBytes": "64"
      },
      "t_uint256": {
        "encoding": "inplace",
        "label": "uint256",
        "numberOfBytes": "32"
      },
      "t_uint8": {
        "encoding": "inplace",
        "label": "uint8",
        "numberOfBytes": "1"
      }
    }
  }
}