{
  "address": "0x91226a4257348def6Ba9885503EE8AC4637037cb",
  "abi": [
    {
      "anonymous": false,
      "inputs": [
        {
          "indexed": false,
          "internalType": "uint8",
          "name": "version",
          "type": "uint8"
        }
      ],
      "name": "Initialized",
      "type": "event"
    },
    {
      "anonymous": false,
      "inputs": [
        {
          "indexed": true,
          "internalType": "address",
          "name": "previousOwner",
          "type": "address"
        },
        {
          "indexed": true,
          "internalType": "address",
          "name": "newOwner",
          "type": "address"
        }
      ],
      "name": "OwnershipTransferred",
      "type": "event"
    },
    {
      "anonymous": false,
      "inputs": [
        {
          "indexed": false,
          "internalType": "address",
          "name": "previousImplementation",
          "type": "address"
        },
        {
          "indexed": false,
          "internalType": "address",
          "name": "newImplementation",
          "type": "address"
        }
      ],
      "name": "UpdateVaultImplementation",
      "type": "event"
    },
    {
      "anonymous": false,
      "inputs": [
        {
          "indexed": true,
          "internalType": "address",
          "name": "manager",
          "type": "address"
        },
        {
          "indexed": true,
          "internalType": "address",
          "name": "vault",
          "type": "address"
        }
      ],
      "name": "VaultCreated",
      "type": "event"
    },
    {
      "inputs": [
        {
          "components": [
            {
              "internalType": "uint24[]",
              "name": "feeTiers",
              "type": "uint24[]"
            },
            {
              "internalType": "address",
              "name": "token0",
              "type": "address"
            },
            {
              "internalType": "address",
              "name": "token1",
              "type": "address"
            },
            {
              "internalType": "address",
              "name": "owner",
              "type": "address"
            },
            {
              "internalType": "address[]",
              "name": "operators",
              "type": "address[]"
            },
            {
              "components": [
                {
                  "internalType": "int24",
                  "name": "lowerTick",
                  "type": "int24"
                },
                {
                  "internalType": "int24",
                  "name": "upperTick",
                  "type": "int24"
                },
                {
                  "internalType": "uint24",
                  "name": "feeTier",
                  "type": "uint24"
                }
              ],
              "internalType": "struct Range[]",
              "name": "ranges",
              "type": "tuple[]"
            },
            {
              "internalType": "uint256",
              "name": "init0",
              "type": "uint256"
            },
            {
              "internalType": "uint256",
              "name": "init1",
              "type": "uint256"
            },
            {
              "internalType": "address",
              "name": "managerTreasury",
              "type": "address"
            },
            {
              "internalType": "uint16",
              "name": "managerFeeBPS",
              "type": "uint16"
            },
            {
              "internalType": "int24",
              "name": "maxTwapDeviation",
              "type": "int24"
            },
            {
              "internalType": "uint24",
              "name": "twapDuration",
              "type": "uint24"
            }
          ],
          "internalType": "struct InitializeParams",
          "name": "params_",
          "type": "tuple"
        }
      ],
      "name": "deployVault",
      "outputs": [
        {
          "internalType": "address",
          "name": "vault",
          "type": "address"
        }
      ],
      "stateMutability": "nonpayable",
      "type": "function"
    },
    {
      "inputs": [],
      "name": "deployer",
      "outputs": [
        {
          "internalType": "address",
          "name": "",
          "type": "address"
        }
      ],
      "stateMutability": "view",
      "type": "function"
    },
    {
      "inputs": [],
      "name": "getDeployerVaults",
      "outputs": [
        {
          "internalType": "address[]",
          "name": "",
          "type": "address[]"
        }
      ],
      "stateMutability": "view",
      "type": "function"
    },
    {
      "inputs": [],
      "name": "getDeployers",
      "outputs": [
        {
          "internalType": "address[]",
          "name": "",
          "type": "address[]"
        }
      ],
      "stateMutability": "view",
      "type": "function"
    },
    {
      "inputs": [
        {
          "internalType": "address",
          "name": "token0_",
          "type": "address"
        },
        {
          "internalType": "address",
          "name": "token1_",
          "type": "address"
        }
      ],
      "name": "getTokenName",
      "outputs": [
        {
          "internalType": "string",
          "name": "",
          "type": "string"
        }
      ],
      "stateMutability": "view",
      "type": "function"
    },
    {
      "inputs": [
        {
          "internalType": "address",
          "name": "deployer",
          "type": "address"
        }
      ],
      "name": "getVaultsByDeployer",
      "outputs": [
        {
          "internalType": "address[]",
          "name": "",
          "type": "address[]"
        }
      ],
      "stateMutability": "view",
      "type": "function"
    },
    {
      "inputs": [],
      "name": "index",
      "outputs": [
        {
          "internalType": "uint256",
          "name": "",
          "type": "uint256"
        }
      ],
      "stateMutability": "view",
      "type": "function"
    },
    {
      "inputs": [
        {
          "internalType": "address",
          "name": "implementation_",
          "type": "address"
        },
        {
          "internalType": "address",
          "name": "_owner_",
          "type": "address"
        }
      ],
      "name": "initialize",
      "outputs": [],
      "stateMutability": "nonpayable",
      "type": "function"
    },
    {
      "inputs": [
        {
          "internalType": "address[]",
          "name": "vaults_",
          "type": "address[]"
        }
      ],
      "name": "makeVaultsImmutable",
      "outputs": [],
      "stateMutability": "nonpayable",
      "type": "function"
    },
    {
      "inputs": [],
      "name": "numDeployers",
      "outputs": [
        {
          "internalType": "uint256",
          "name": "",
          "type": "uint256"
        }
      ],
      "stateMutability": "view",
      "type": "function"
    },
    {
      "inputs": [],
      "name": "numVaults",
      "outputs": [
        {
          "internalType": "uint256",
          "name": "result",
          "type": "uint256"
        }
      ],
      "stateMutability": "view",
      "type": "function"
    },
    {
      "inputs": [
        {
          "internalType": "address",
          "name": "deployer",
          "type": "address"
        }
      ],
      "name": "numVaultsByDeployer",
      "outputs": [
        {
          "internalType": "uint256",
          "name": "",
          "type": "uint256"
        }
      ],
      "stateMutability": "view",
      "type": "function"
    },
    {
      "inputs": [],
      "name": "owner",
      "outputs": [
        {
          "internalType": "address",
          "name": "",
          "type": "address"
        }
      ],
      "stateMutability": "view",
      "type": "function"
    },
    {
      "inputs": [],
      "name": "renounceOwnership",
      "outputs": [],
      "stateMutability": "nonpayable",
      "type": "function"
    },
    {
      "inputs": [
        {
          "internalType": "address",
          "name": "nextImplementation_",
          "type": "address"
        }
      ],
      "name": "setVaultImplementation",
      "outputs": [],
      "stateMutability": "nonpayable",
      "type": "function"
    },
    {
      "inputs": [
        {
          "internalType": "address",
          "name": "newOwner",
          "type": "address"
        }
      ],
      "name": "transferOwnership",
      "outputs": [],
      "stateMutability": "nonpayable",
      "type": "function"
    },
    {
      "inputs": [
        {
          "internalType": "address[]",
          "name": "vaults_",
          "type": "address[]"
        }
      ],
      "name": "upgradeVaults",
      "outputs": [],
      "stateMutability": "nonpayable",
      "type": "function"
    },
    {
      "inputs": [
        {
          "internalType": "address[]",
          "name": "vaults_",
          "type": "address[]"
        },
        {
          "internalType": "bytes[]",
          "name": "datas_",
          "type": "bytes[]"
        }
      ],
      "name": "upgradeVaultsAndCall",
      "outputs": [],
      "stateMutability": "nonpayable",
      "type": "function"
    },
    {
      "inputs": [],
      "name": "vaultImplementation",
      "outputs": [
        {
          "internalType": "address",
          "name": "",
          "type": "address"
        }
      ],
      "stateMutability": "view",
      "type": "function"
    },
    {
      "inputs": [],
      "name": "version",
      "outputs": [
        {
          "internalType": "string",
          "name": "",
          "type": "string"
        }
      ],
      "stateMutability": "view",
      "type": "function"
    }
  ],
  "transactionHash": "0x8fcfe9d860622e7f7a3a4bd4ca6916dd94410e44d2a44eb3cb35a6ec4e9a9a5f",
  "args": [],
  "numDeployments": 2,
  "solcInputHash": "df501286bc7a13ffe2581c392b6f21b7",
  "bytecode": "60806040523480156200001157600080fd5b5060028054336001600160a01b03199091168117909155620000429060049062000049602090811b62000db117901c565b50620000bb565b600062000060836001600160a01b03841662000069565b90505b92915050565b6000818152600183016020526040812054620000b25750815460018181018455600084815260208082209093018490558454848252828601909352604090209190915562000063565b50600062000063565b61268880620000cb6000396000f3fe60806040523480156200001157600080fd5b5060043610620001125760003560e01c8063098eddb1146200011757806325de07f61462000134578063264a6208146200014d5780632986c0e5146200015757806333d808381462000161578063485cc955146200017857806353e78b6b146200019157806354fd4d5014620001a8578063607c12b514620001dc578063715018a614620001e65780638da5cb5b14620001f05780638e7f20031462000209578063bb81eef61462000220578063bba48a901462000237578063bd30dfb9146200024b578063cf0093411462000262578063d5e154851462000279578063d5f394881462000290578063f034df9214620002a4578063f2fde38b14620002bb575b600080fd5b62000121620002d2565b6040519081526020015b60405180910390f35b6200013e620002e5565b6040516200012b9190620012c4565b62000121620002ff565b6200012160035481565b62000121620001723660046200132b565b6200036a565b6200018f6200018936600462001349565b62000393565b005b6200018f620001a23660046200132b565b6200043c565b620001cd604051806040016040528060058152602001640312e302e360dc1b81525081565b6040516200012b9190620013de565b6200013e620004d4565b6200018f6200058e565b620001fa620005fb565b6040516200012b9190620013f3565b6200018f6200021a366004620014e1565b6200060a565b6200018f62000231366004620014e1565b620006ec565b600154620001fa906001600160a01b031681565b620001cd6200025c36600462001349565b620007c2565b6200018f6200027336600462001521565b620008f7565b6200013e6200028a3660046200132b565b62000a5f565b600254620001fa906001600160a01b031681565b620001fa620002b5366004620015c2565b62000b1c565b6200018f620002cc3660046200132b565b62000ccc565b6000620002e0600462000dcf565b905090565b600254606090620002e0906001600160a01b031662000a5f565b6000806200030c620004d4565b905060005b815181101562000365576200034282828151811062000334576200033462001600565b60200260200101516200036a565b6200034e90846200162c565b9250806200035c8162001647565b91505062000311565b505090565b6001600160a01b03811660009081526006602052604081206200038d9062000dcf565b92915050565b6000620003a1600162000dda565b90508015620003be576000805460ff60a81b1916600160a81b1790555b600180546001600160a01b038086166001600160a01b0319928316179092556000805492851692909116919091179055801562000437576000805460ff60a81b19169055604051600181527f7f26b83ff96e1f2b6a682f133852f6798a09c465da95921460cefb38474024989060200160405180910390a15b505050565b3362000447620005fb565b6001600160a01b031614620004795760405162461bcd60e51b8152600401620004709062001663565b60405180910390fd5b600180546001600160a01b0319166001600160a01b0383169081179091556040517f506dafb05cbd4163ab2d9670c893292d83fddf30e7805364ddb1ded4a6390bb191620004c991849062001698565b60405180910390a150565b60606000620004e2620002d2565b90506000816001600160401b0381111562000501576200050162001407565b6040519080825280602002602001820160405280156200052b578160200160208202803683370190505b50905060005b828110156200058757620005458162000e82565b8282815181106200055a576200055a62001600565b6001600160a01b0390921660209283029190910190910152806200057e8162001647565b91505062000531565b5092915050565b3362000599620005fb565b6001600160a01b031614620005c25760405162461bcd60e51b8152600401620004709062001663565b600080546040516001600160a01b039091169060008051602062002633833981519152908390a3600080546001600160a01b0319169055565b6000546001600160a01b031690565b3362000615620005fb565b6001600160a01b0316146200063e5760405162461bcd60e51b8152600401620004709062001663565b60005b8151811015620006e85781818151811062000660576200066062001600565b6020908102919091010151600154604051631b2ce7f360e11b81526001600160a01b0392831692633659cfe6926200069e92911690600401620013f3565b600060405180830381600087803b158015620006b957600080fd5b505af1158015620006ce573d6000803e3d6000fd5b505050508080620006df9062001647565b91505062000641565b5050565b33620006f7620005fb565b6001600160a01b031614620007205760405162461bcd60e51b8152600401620004709062001663565b60005b8151811015620006e85781818151811062000742576200074262001600565b60200260200101516001600160a01b0316638356ca4f60006040518263ffffffff1660e01b8152600401620007789190620013f3565b600060405180830381600087803b1580156200079357600080fd5b505af1158015620007a8573d6000803e3d6000fd5b505050508080620007b99062001647565b91505062000723565b60606000836001600160a01b03166395d89b416040518163ffffffff1660e01b8152600401600060405180830381865afa15801562000805573d6000803e3d6000fd5b505050506040513d6000823e601f3d908101601f191682016040526200082f9190810190620016b2565b90506000836001600160a01b03166395d89b416040518163ffffffff1660e01b8152600401600060405180830381865afa15801562000872573d6000803e3d6000fd5b505050506040513d6000823e601f3d908101601f191682016040526200089c9190810190620016b2565b9050620008ee60405180604001604052806011815260200170020b93930b5b4b9902b30bab63a102b191607d1b81525083604051806040016040528060018152602001602f60f81b8152508462000e91565b95945050505050565b3362000902620005fb565b6001600160a01b0316146200092b5760405162461bcd60e51b8152600401620004709062001663565b82518114620009785760405162461bcd60e51b81526020600482015260186024820152770dad2e6dac2e8c6d0d2dcce40c2e4e4c2f240d8cadccee8d60431b604482015260640162000470565b60005b835181101562000a59578381815181106200099a576200099a62001600565b60200260200101516001600160a01b0316634f1ef286600160009054906101000a90046001600160a01b0316858585818110620009db57620009db62001600565b9050602002810190620009ef919062001747565b6040518463ffffffff1660e01b815260040162000a0f9392919062001790565b600060405180830381600087803b15801562000a2a57600080fd5b505af115801562000a3f573d6000803e3d6000fd5b50505050808062000a509062001647565b9150506200097b565b50505050565b6060600062000a6e836200036a565b90506000816001600160401b0381111562000a8d5762000a8d62001407565b60405190808252806020026020018201604052801562000ab7578160200160208202803683370190505b50905060005b8281101562000b145762000ad2858262000ec5565b82828151811062000ae75762000ae762001600565b6001600160a01b03909216602092830291909101909101528062000b0b8162001647565b91505062000abd565b509392505050565b6000606062000b4e62000b3660408501602086016200132b565b62000b4860608601604087016200132b565b62000ee9565b8092508193505050816001600160a01b0316636b8f095e8262000b81600354600162000b7b91906200162c565b62001007565b60405160200162000b939190620017d0565b604051602081830303815290604052866040518463ffffffff1660e01b815260040162000bc393929190620019c5565b600060405180830381600087803b15801562000bde57600080fd5b505af115801562000bf3573d6000803e3d6000fd5b5062000c1a925062000c11915050610120850161010086016200132b565b60049062000db1565b5062000c58826006600062000c38610120880161010089016200132b565b6001600160a01b0316815260208101919091526040016000209062000db1565b5060016003600082825462000c6e91906200162c565b90915550506001600160a01b03821662000c91610120850161010086016200132b565b6001600160a01b03167f5d9c31ffa0fecffd7cf379989a3c7af252f0335e0d2a1320b55245912c781f5360405160405180910390a350919050565b3362000cd7620005fb565b6001600160a01b03161462000d005760405162461bcd60e51b8152600401620004709062001663565b6001600160a01b03811662000d675760405162461bcd60e51b815260206004820152602660248201527f4f776e61626c653a206e6577206f776e657220697320746865207a65726f206160448201526564647265737360d01b606482015260840162000470565b600080546040516001600160a01b03808516939216916000805160206200263383398151915291a3600080546001600160a01b0319166001600160a01b0392909216919091179055565b600062000dc8836001600160a01b0384166200114e565b9392505050565b60006200038d825490565b60008054600160a81b900460ff161562000e28578160ff16600114801562000e015750303b155b62000e205760405162461bcd60e51b8152600401620004709062001b58565b506000919050565b60005460ff808416600160a01b909204161062000e595760405162461bcd60e51b8152600401620004709062001b58565b506000805460ff909216600160a01b0260ff60a01b19909216919091179055600190565b919050565b60006200038d600483620011a0565b60608484848460405160200162000eac949392919062001ba6565b6040516020818303038152906040529050949350505050565b6001600160a01b038216600090815260066020526040812062000dc89083620011a0565b6000606060008062000efc8686620011ae565b6001546040519294509092506001600160a01b031690309062000f1f90620012a9565b6001600160a01b03928316815291166020820152606060408201819052600090820152608001604051809103906000f08015801562000f62573d6000803e3d6000fd5b50604080518082018252601081526f20b93930b5b4b9902b30bab63a102b1960811b6020820152905163bd30dfb960e01b81529195509350309063bd30dfb99062000fb4908590859060040162001698565b600060405180830381865afa92505050801562000ff557506040513d6000823e601f3d908101601f1916820160405262000ff29190810190620016b2565b60015b1562000ffe5792505b50509250929050565b6060816000036200102f5750506040805180820190915260018152600360fc1b602082015290565b8160005b81156200105f5780620010468162001647565b9150620010579050600a8362001c05565b915062001033565b6000816001600160401b038111156200107c576200107c62001407565b6040519080825280601f01601f191660200182016040528015620010a7576020820181803683370190505b509050815b85156200114557620010c060018262001c28565b90506000620010d1600a8862001c05565b620010de90600a62001c42565b620010ea908862001c28565b620010f790603062001c64565b905060008160f81b90508084848151811062001117576200111762001600565b60200101906001600160f81b031916908160001a9053506200113b600a8962001c05565b97505050620010ac565b50949350505050565b600081815260018301602052604081205462001197575081546001818101845560008481526020808220909301849055845484825282860190935260409020919091556200038d565b5060006200038d565b600062000dc883836200127c565b600080826001600160a01b0316846001600160a01b031603620012015760405162461bcd60e51b815260206004820152600a60248201526939b0b6b2903a37b5b2b760b11b604482015260640162000470565b826001600160a01b0316846001600160a01b0316106200122357828462001226565b83835b90925090506001600160a01b038216620012755760405162461bcd60e51b815260206004820152600f60248201526e6e6f2061646472657373207a65726f60881b604482015260640162000470565b9250929050565b600082600001828154811062001296576200129662001600565b9060005260206000200154905092915050565b6109a68062001c8d83390190565b6001600160a01b03169052565b6020808252825182820181905260009190848201906040850190845b81811015620013075783516001600160a01b031683529284019291840191600101620012e0565b50909695505050505050565b80356001600160a01b038116811462000e7d57600080fd5b6000602082840312156200133e57600080fd5b62000dc88262001313565b600080604083850312156200135d57600080fd5b620013688362001313565b9150620013786020840162001313565b90509250929050565b60005b838110156200139e57818101518382015260200162001384565b8381111562000a595750506000910152565b60008151808452620013ca81602086016020860162001381565b601f01601f19169290920160200192915050565b60208152600062000dc86020830184620013b0565b6001600160a01b0391909116815260200190565b634e487b7160e01b600052604160045260246000fd5b604051601f8201601f191681016001600160401b038111828210171562001448576200144862001407565b604052919050565b600082601f8301126200146257600080fd5b813560206001600160401b0382111562001480576200148062001407565b8160051b620014918282016200141d565b9283528481018201928281019087851115620014ac57600080fd5b83870192505b84831015620014d657620014c68362001313565b82529183019190830190620014b2565b979650505050505050565b600060208284031215620014f457600080fd5b81356001600160401b038111156200150b57600080fd5b620015198482850162001450565b949350505050565b6000806000604084860312156200153757600080fd5b83356001600160401b03808211156200154f57600080fd5b6200155d8783880162001450565b945060208601359150808211156200157457600080fd5b818601915086601f8301126200158957600080fd5b8135818111156200159957600080fd5b8760208260051b8501011115620015af57600080fd5b6020830194508093505050509250925092565b600060208284031215620015d557600080fd5b81356001600160401b03811115620015ec57600080fd5b8201610180818503121562000dc857600080fd5b634e487b7160e01b600052603260045260246000fd5b634e487b7160e01b600052601160045260246000fd5b6000821982111562001642576200164262001616565b500190565b6000600182016200165c576200165c62001616565b5060010190565b6020808252818101527f4f776e61626c653a2063616c6c6572206973206e6f7420746865206f776e6572604082015260600190565b6001600160a01b0392831681529116602082015260400190565b600060208284031215620016c557600080fd5b81516001600160401b0380821115620016dd57600080fd5b818401915084601f830112620016f257600080fd5b81518181111562001707576200170762001407565b6200171c601f8201601f19166020016200141d565b91508082528560208285010111156200173457600080fd5b6200114581602084016020860162001381565b6000808335601e198436030181126200175f57600080fd5b8301803591506001600160401b038211156200177a57600080fd5b6020019150368190038213156200127557600080fd5b6001600160a01b03841681526040602082018190528101829052818360608301376000818301606090810191909152601f909201601f1916010192915050565b6852414b49532d56322d60b81b815260008251620017f681600985016020870162001381565b9190910160090192915050565b6000808335601e198436030181126200181b57600080fd5b83016020810192503590506001600160401b038111156200183b57600080fd5b8060051b36038313156200127557600080fd5b803562ffffff8116811462000e7d57600080fd5b8183526000602080850194508260005b858110156200189e5762ffffff6200188a836200184e565b168752958201959082019060010162001872565b509495945050505050565b8183526000602080850194508260005b858110156200189e576001600160a01b03620018d58362001313565b1687529582019590820190600101620018b9565b6000808335601e198436030181126200190157600080fd5b83016020810192503590506001600160401b038111156200192157600080fd5b6060810236038313156200127557600080fd5b8035600281900b811462000e7d57600080fd5b8183526000602080850194508260005b858110156200189e576200196b8262001934565b600281810b89526200197f85850162001934565b900b8885015250604062ffffff620019998483016200184e565b1690880152606096870196919091019060010162001957565b803561ffff8116811462000e7d57600080fd5b606081526000620019da6060830186620013b0565b8281036020840152620019ee8186620013b0565b9050828103604084015261018062001a07858662001803565b82845262001a19838501828462001862565b9250505062001a2b6020860162001313565b62001a3a6020840182620012b7565b5062001a496040860162001313565b62001a586040840182620012b7565b5062001a676060860162001313565b62001a766060840182620012b7565b5062001a86608086018662001803565b838303608085015262001a9b838284620018a9565b9250505062001aae60a0860186620018e9565b83830360a085015262001ac383828462001947565b9250505060c085013560c083015260e085013560e083015261010062001aeb81870162001313565b62001af982850182620012b7565b505061012062001b0b818701620019b2565b61ffff169083015261014062001b2386820162001934565b62001b328285018260020b9052565b505061016062001b448187016200184e565b62ffffff1692019190915295945050505050565b6020808252602e908201527f496e697469616c697a61626c653a20636f6e747261637420697320616c72656160408201526d191e481a5b9a5d1a585b1a5e995960921b606082015260800190565b6000855162001bba818460208a0162001381565b85519083019062001bd0818360208a0162001381565b855191019062001be581836020890162001381565b845191019062001bfa81836020880162001381565b019695505050505050565b60008262001c2357634e487b7160e01b600052601260045260246000fd5b500490565b60008282101562001c3d5762001c3d62001616565b500390565b600081600019048311821515161562001c5f5762001c5f62001616565b500290565b600060ff821660ff84168060ff0382111562001c845762001c8462001616565b01939250505056fe60806040526040516109a63803806109a6833981016040819052610022916101e6565b61002c838261003d565b61003582610119565b5050506102d2565b7f360894a13ba1a3210667c828492db98dca3e2076cc3735a920a3ca505d382bbc8054908390556040516001600160a01b0380851691908316907f5570d70a002632a7b0b3c9304cc89efb62d8da9eca0dbd7752c83b737906829690600090a3815115610114576000836001600160a01b0316836040516100be91906102b6565b600060405180830381855af49150503d80600081146100f9576040519150601f19603f3d011682016040523d82523d6000602084013e6100fe565b606091505b5050905080610112573d806000803e806000fd5b505b505050565b60006101316000805160206109868339815191525490565b90508160008051602061098683398151915255816001600160a01b0316816001600160a01b03167fdf435d422321da6b195902d70fc417c06a32f88379c20dd8f2a8da07088cec2960405160405180910390a35050565b80516001600160a01b038116811461019f57600080fd5b919050565b634e487b7160e01b600052604160045260246000fd5b60005b838110156101d55781810151838201526020016101bd565b838111156101125750506000910152565b6000806000606084860312156101fb57600080fd5b61020484610188565b925061021260208501610188565b60408501519092506001600160401b038082111561022f57600080fd5b818601915086601f83011261024357600080fd5b815181811115610255576102556101a4565b604051601f8201601f19908116603f0116810190838211818310171561027d5761027d6101a4565b8160405282815289602084870101111561029657600080fd5b6102a78360208301602088016101ba565b80955050505050509250925092565b600082516102c88184602087016101ba565b9190910192915050565b6106a5806102e16000396000f3fe60806040526004361061004e5760003560e01c806301ffc9a71461009b5780633659cfe6146100d05780633e47158c146100f05780634f1ef2861461011d5780638356ca4f1461013057610091565b366100915760405162461bcd60e51b815260206004820152600e60248201526d115512115497d491529150d5115160921b60448201526064015b60405180910390fd5b610099610150565b005b3480156100a757600080fd5b506100bb6100b63660046104c7565b610189565b60405190151581526020015b60405180910390f35b3480156100dc57600080fd5b506100996100eb36600461050d565b61026f565b3480156100fc57600080fd5b506101056102c3565b6040516001600160a01b0390911681526020016100c7565b61009961012b366004610528565b6102d2565b34801561013c57600080fd5b5061009961014b36600461050d565b61034f565b6000805160206106508339815191525460003681823780813683855af491503d8082833e82801561017f578183f35b8183fd5b50505050565b60006301ffc9a760e01b6001600160e01b0319831614806101ba57506307f5828d60e41b6001600160e01b03198316145b156101c757506001919050565b6001600160e01b031980831690036101e157506000919050565b600080516020610650833981519152546040516301ffc9a760e01b81526001600160e01b0319841660048201526001600160a01b038216906301ffc9a790602401602060405180830381865afa92505050801561025b575060408051601f3d908101601f19168201909252610258918101906105aa565b60015b6102685750600092915050565b9392505050565b610277610390565b6001600160a01b0316336001600160a01b0316146102a75760405162461bcd60e51b8152600401610088906105cc565b6102c081604051806020016040528060008152506103a3565b50565b60006102cd610390565b905090565b6102da610390565b6001600160a01b0316336001600160a01b03161461030a5760405162461bcd60e51b8152600401610088906105cc565b61034a8383838080601f0160208091040260200160405190810160405280939291908181526020018383808284376000920191909152506103a392505050565b505050565b610357610390565b6001600160a01b0316336001600160a01b0316146103875760405162461bcd60e51b8152600401610088906105cc565b6102c081610466565b6000805160206106308339815191525490565b6000805160206106508339815191528054908390556040516001600160a01b0380851691908316907f5570d70a002632a7b0b3c9304cc89efb62d8da9eca0dbd7752c83b737906829690600090a381511561034a576000836001600160a01b03168360405161041291906105f4565b600060405180830381855af49150503d806000811461044d576040519150601f19603f3d011682016040523d82523d6000602084013e610452565b606091505b5050905080610183573d806000803e806000fd5b6000610470610390565b90508160008051602061063083398151915255816001600160a01b0316816001600160a01b03167fdf435d422321da6b195902d70fc417c06a32f88379c20dd8f2a8da07088cec2960405160405180910390a35050565b6000602082840312156104d957600080fd5b81356001600160e01b03198116811461026857600080fd5b80356001600160a01b038116811461050857600080fd5b919050565b60006020828403121561051f57600080fd5b610268826104f1565b60008060006040848603121561053d57600080fd5b610546846104f1565b925060208401356001600160401b038082111561056257600080fd5b818601915086601f83011261057657600080fd5b81358181111561058557600080fd5b87602082850101111561059757600080fd5b6020830194508093505050509250925092565b6000602082840312156105bc57600080fd5b8151801515811461026857600080fd5b6020808252600e908201526d1393d517d055551213d49256915160921b604082015260600190565b6000825160005b8181101561061557602081860181015185830152016105fb565b81811115610624576000828501525b50919091019291505056feb53127684a568b3173ae13b9f8a6016e243e63b6e8ee1178d6a717850b5d6103360894a13ba1a3210667c828492db98dca3e2076cc3735a920a3ca505d382bbca2646970667358221220697076d8dc1a3f9f51c9fedf696bd5e30ceb3cbea44cedff4e0bb6441d2a3a5f64736f6c634300080d0033b53127684a568b3173ae13b9f8a6016e243e63b6e8ee1178d6a717850b5d61038be0079c531659141344cd1fd0a4f28419497f9722a3daafe3b4186f6b6457e0a2646970667358221220670ba3f6d21ab825cc6331a07beb5767eddcadd942570a14734aeb96c9df869364736f6c634300080d0033",
  "devdoc": {
    "kind": "dev",
    "methods": {},
    "version": 1
  },
  "userdoc": {
    "kind": "user",
    "methods": {},
    "version": 1
  },
  "storageLayout": {
    "storage": [],
    "types": null
  }
}