{
  "address": "0x291669C38B553c97917c7582037C0EbCc932b252",
  "abi": [
    {
      "inputs": [
        {
          "internalType": "contract IVaultV2Factory",
          "name": "vaultV2Factory_",
          "type": "address"
        }
      ],
      "stateMutability": "nonpayable",
      "type": "constructor"
    },
    {
      "inputs": [],
      "name": "getGelatoVaults",
      "outputs": [
        {
          "internalType": "address[]",
          "name": "",
          "type": "address[]"
        }
      ],
      "stateMutability": "view",
      "type": "function"
    },
    {
      "inputs": [
        {
          "internalType": "address",
          "name": "vault_",
          "type": "address"
        }
      ],
      "name": "getProxyAdmin",
      "outputs": [
        {
          "internalType": "address",
          "name": "",
          "type": "address"
        }
      ],
      "stateMutability": "view",
      "type": "function"
    },
    {
      "inputs": [
        {
          "internalType": "address",
          "name": "deployer_",
          "type": "address"
        }
      ],
      "name": "getVaults",
      "outputs": [
        {
          "internalType": "address[]",
          "name": "vaults",
          "type": "address[]"
        }
      ],
      "stateMutability": "view",
      "type": "function"
    },
    {
      "inputs": [
        {
          "internalType": "address",
          "name": "vault_",
          "type": "address"
        }
      ],
      "name": "isVaultImmutable",
      "outputs": [
        {
          "internalType": "bool",
          "name": "",
          "type": "bool"
        }
      ],
      "stateMutability": "view",
      "type": "function"
    },
    {
      "inputs": [],
      "name": "vaultV2Factory",
      "outputs": [
        {
          "internalType": "contract IVaultV2Factory",
          "name": "",
          "type": "address"
        }
      ],
      "stateMutability": "view",
      "type": "function"
    }
  ],
  "transactionHash": "0xbb316eb81965075f1707a450f92eb5c599f7cbca34bae4dc4e007b29d0c1d39d",
  "args": [],
  "numDeployments": 2,
  "solcInputHash": "df501286bc7a13ffe2581c392b6f21b7",
  "bytecode": "60a060405234801561001057600080fd5b506040516106a63803806106a683398101604081905261002f91610040565b6001600160a01b0316608052610070565b60006020828403121561005257600080fd5b81516001600160a01b038116811461006957600080fd5b9392505050565b60805161060761009f600039600081816061015281816101190152818161020e015261030101526106076000f3fe608060405234801561001057600080fd5b50600436106100575760003560e01c80637953b5691461005c57806397a0dc1b14610099578063a806387c146100bc578063f3b7dead146100d1578063fe7c9c92146100e4575b600080fd5b6100837f000000000000000000000000000000000000000000000000000000000000000081565b60405161009091906103d7565b60405180910390f35b6100ac6100a7366004610403565b6100f7565b6040519015158152602001610090565b6100c4610112565b6040516100909190610427565b6100836100df366004610403565b61019e565b6100c46100f2366004610403565b610208565b60006101028261019e565b6001600160a01b03161592915050565b60606101997f00000000000000000000000000000000000000000000000000000000000000006001600160a01b031663d5f394886040518163ffffffff1660e01b8152600401602060405180830381865afa158015610175573d6000803e3d6000fd5b505050506040513d601f19601f820116820180604052508101906100f29190610484565b905090565b6000816001600160a01b0316633e47158c6040518163ffffffff1660e01b8152600401602060405180830381865afa1580156101de573d6000803e3d6000fd5b505050506040513d601f19601f820116820180604052508101906102029190610484565b92915050565b606060007f00000000000000000000000000000000000000000000000000000000000000006001600160a01b03166333d80838846040518263ffffffff1660e01b815260040161025891906103d7565b602060405180830381865afa158015610275573d6000803e3d6000fd5b505050506040513d601f19601f8201168201806040525081019061029991906104a1565b9050806001600160401b038111156102b3576102b36104ba565b6040519080825280602002602001820160405280156102dc578160200160208202803683370190505b50915060005b818110156103d05760405163d5e1548560e01b81526001600160a01b037f0000000000000000000000000000000000000000000000000000000000000000169063d5e15485906103369087906004016103d7565b600060405180830381865afa158015610353573d6000803e3d6000fd5b505050506040513d6000823e601f3d908101601f1916820160405261037b91908101906104d0565b818151811061038c5761038c610594565b60200260200101518382815181106103a6576103a6610594565b6001600160a01b0390921660209283029190910190910152806103c8816105aa565b9150506102e2565b5050919050565b6001600160a01b0391909116815260200190565b6001600160a01b038116811461040057600080fd5b50565b60006020828403121561041557600080fd5b8135610420816103eb565b9392505050565b6020808252825182820181905260009190848201906040850190845b818110156104685783516001600160a01b031683529284019291840191600101610443565b50909695505050505050565b805161047f816103eb565b919050565b60006020828403121561049657600080fd5b8151610420816103eb565b6000602082840312156104b357600080fd5b5051919050565b634e487b7160e01b600052604160045260246000fd5b600060208083850312156104e357600080fd5b82516001600160401b03808211156104fa57600080fd5b818501915085601f83011261050e57600080fd5b815181811115610520576105206104ba565b8060051b604051601f19603f83011681018181108582111715610545576105456104ba565b60405291825284820192508381018501918883111561056357600080fd5b938501935b828510156105885761057985610474565b84529385019392850192610568565b98975050505050505050565b634e487b7160e01b600052603260045260246000fd5b6000600182016105ca57634e487b7160e01b600052601160045260246000fd5b506001019056fea2646970667358221220ae108f8ab9a502965f9e0bf731d0398d063ebb8e85e720b8791984043420435d64736f6c634300080d003300000000000000000000000091226a4257348def6ba9885503ee8ac4637037cb",
  "devdoc": {
    "kind": "dev",
    "methods": {},
    "version": 1
  },
  "userdoc": {
    "kind": "user",
    "methods": {},
    "version": 1
  },
  "storageLayout": {
    "storage": [],
    "types": null
  }
}