{
  "address": "0x68a3641d747496b748361F61c1Bb6F021cC813E1",
  "abi": [
    {
      "inputs": [
        {
          "internalType": "contract IUniswapV3Factory",
          "name": "factory_",
          "type": "address"
        },
        {
          "internalType": "contract IVaultV2Helper",
          "name": "helper_",
          "type": "address"
        }
      ],
      "stateMutability": "nonpayable",
      "type": "constructor"
    },
    {
      "inputs": [],
      "name": "factory",
      "outputs": [
        {
          "internalType": "contract IUniswapV3Factory",
          "name": "",
          "type": "address"
        }
      ],
      "stateMutability": "view",
      "type": "function"
    },
    {
      "inputs": [
        {
          "internalType": "int24",
          "name": "currentTick_",
          "type": "int24"
        },
        {
          "internalType": "int24",
          "name": "lowerTick_",
          "type": "int24"
        },
        {
          "internalType": "int24",
          "name": "upperTick_",
          "type": "int24"
        },
        {
          "internalType": "uint128",
          "name": "liquidity_",
          "type": "uint128"
        }
      ],
      "name": "getAmountsForLiquidity",
      "outputs": [
        {
          "internalType": "uint256",
          "name": "amount0",
          "type": "uint256"
        },
        {
          "internalType": "uint256",
          "name": "amount1",
          "type": "uint256"
        }
      ],
      "stateMutability": "pure",
      "type": "function"
    },
    {
      "inputs": [
        {
          "internalType": "contract IVaultV2",
          "name": "vaultV2_",
          "type": "address"
        },
        {
          "internalType": "uint256",
          "name": "amount0Max_",
          "type": "uint256"
        },
        {
          "internalType": "uint256",
          "name": "amount1Max_",
          "type": "uint256"
        }
      ],
      "name": "getMintAmounts",
      "outputs": [
        {
          "internalType": "uint256",
          "name": "amount0",
          "type": "uint256"
        },
        {
          "internalType": "uint256",
          "name": "amount1",
          "type": "uint256"
        },
        {
          "internalType": "uint256",
          "name": "mintAmount",
          "type": "uint256"
        }
      ],
      "stateMutability": "view",
      "type": "function"
    },
    {
      "inputs": [],
      "name": "helper",
      "outputs": [
        {
          "internalType": "contract IVaultV2Helper",
          "name": "",
          "type": "address"
        }
      ],
      "stateMutability": "view",
      "type": "function"
    },
    {
      "inputs": [
        {
          "internalType": "uint256",
          "name": "amountToBurn_",
          "type": "uint256"
        },
        {
          "internalType": "contract IVaultV2",
          "name": "vaultV2_",
          "type": "address"
        }
      ],
      "name": "standardBurnParams",
      "outputs": [
        {
          "components": [
            {
              "internalType": "uint128",
              "name": "liquidity",
              "type": "uint128"
            },
            {
              "components": [
                {
                  "internalType": "int24",
                  "name": "lowerTick",
                  "type": "int24"
                },
                {
                  "internalType": "int24",
                  "name": "upperTick",
                  "type": "int24"
                },
                {
                  "internalType": "uint24",
                  "name": "feeTier",
                  "type": "uint24"
                }
              ],
              "internalType": "struct Range",
              "name": "range",
              "type": "tuple"
            }
          ],
          "internalType": "struct BurnLiquidity[]",
          "name": "burns",
          "type": "tuple[]"
        }
      ],
      "stateMutability": "view",
      "type": "function"
    },
    {
      "inputs": [
        {
          "components": [
            {
              "components": [
                {
                  "internalType": "int24",
                  "name": "lowerTick",
                  "type": "int24"
                },
                {
                  "internalType": "int24",
                  "name": "upperTick",
                  "type": "int24"
                },
                {
                  "internalType": "uint24",
                  "name": "feeTier",
                  "type": "uint24"
                }
              ],
              "internalType": "struct Range",
              "name": "range",
              "type": "tuple"
            },
            {
              "internalType": "uint256",
              "name": "weight",
              "type": "uint256"
            }
          ],
          "internalType": "struct RangeWeight[]",
          "name": "rangeWeights_",
          "type": "tuple[]"
        },
        {
          "internalType": "contract IVaultV2",
          "name": "vaultV2_",
          "type": "address"
        }
      ],
      "name": "standardRebalance",
      "outputs": [
        {
          "components": [
            {
              "components": [
                {
                  "internalType": "uint128",
                  "name": "liquidity",
                  "type": "uint128"
                },
                {
                  "components": [
                    {
                      "internalType": "int24",
                      "name": "lowerTick",
                      "type": "int24"
                    },
                    {
                      "internalType": "int24",
                      "name": "upperTick",
                      "type": "int24"
                    },
                    {
                      "internalType": "uint24",
                      "name": "feeTier",
                      "type": "uint24"
                    }
                  ],
                  "internalType": "struct Range",
                  "name": "range",
                  "type": "tuple"
                }
              ],
              "internalType": "struct PositionLiquidity[]",
              "name": "removes",
              "type": "tuple[]"
            },
            {
              "components": [
                {
                  "internalType": "uint128",
                  "name": "liquidity",
                  "type": "uint128"
                },
                {
                  "components": [
                    {
                      "internalType": "int24",
                      "name": "lowerTick",
                      "type": "int24"
                    },
                    {
                      "internalType": "int24",
                      "name": "upperTick",
                      "type": "int24"
                    },
                    {
                      "internalType": "uint24",
                      "name": "feeTier",
                      "type": "uint24"
                    }
                  ],
                  "internalType": "struct Range",
                  "name": "range",
                  "type": "tuple"
                }
              ],
              "internalType": "struct PositionLiquidity[]",
              "name": "deposits",
              "type": "tuple[]"
            },
            {
              "components": [
                {
                  "internalType": "bytes",
                  "name": "payload",
                  "type": "bytes"
                },
                {
                  "internalType": "address",
                  "name": "router",
                  "type": "address"
                },
                {
                  "internalType": "uint256",
                  "name": "amountIn",
                  "type": "uint256"
                },
                {
                  "internalType": "uint256",
                  "name": "expectedMinReturn",
                  "type": "uint256"
                },
                {
                  "internalType": "bool",
                  "name": "zeroForOne",
                  "type": "bool"
                }
              ],
              "internalType": "struct SwapPayload",
              "name": "swap",
              "type": "tuple"
            }
          ],
          "internalType": "struct Rebalance",
          "name": "rebalanceParams",
          "type": "tuple"
        }
      ],
      "stateMutability": "view",
      "type": "function"
    }
  ],
  "transactionHash": "0x554b6e4bc6ff88f67adb5d1c884402e024a3cb8338040d8a7cc4cf088c5a579e",
  "args": [
    "0x1F98431c8aD98523631AE4a59f267346ea31F984",
    "0x4576f708477b0AA4D8CEab4197a00522dB2C4FBc"
  ],
  "numDeployments": 3,
  "solcInputHash": "096721d5a3f253ae4561b65595ef5e71",
  "bytecode": "0x60c06040523480156200001157600080fd5b5060405162002a0038038062002a00833981016040819052620000349162000065565b6001600160a01b039182166080521660a052620000a4565b6001600160a01b03811681146200006257600080fd5b50565b600080604083850312156200007957600080fd5b825162000086816200004c565b602084015190925062000099816200004c565b809150509250929050565b60805160a051612923620000dd60003960008181606c01528181610d76015261132201526000818160f1015261031201526129236000f3fe608060405234801561001057600080fd5b50600436106100625760003560e01c806363b0e66a14610067578063a339df12146100a4578063c30fcfdc146100cc578063c45a0155146100ec578063c49f25af14610113578063fa111ce714610133575b600080fd5b61008e7f000000000000000000000000000000000000000000000000000000000000000081565b60405161009b9190611f40565b60405180910390f35b6100b76100b2366004611f7b565b610161565b6040805192835260208301919091520161009b565b6100df6100da366004611ff7565b610196565b60405161009b9190612073565b61008e7f000000000000000000000000000000000000000000000000000000000000000081565b610126610121366004612185565b610c1e565b60405161009b91906122e1565b6101466101413660046123bf565b611318565b6040805193845260208401929092529082015260600161009b565b60008061018861017087611606565b61017987611606565b61018287611606565b86611a1b565b915091505b94509492505050565b60606000826001600160a01b03166318160ddd6040518163ffffffff1660e01b8152600401602060405180830381865afa1580156101d8573d6000803e3d6000fd5b505050506040513d601f19601f820116820180604052508101906101fc91906123f4565b9050600081116102425760405162461bcd60e51b815260206004820152600c60248201526b746f74616c20737570706c7960a01b60448201526064015b60405180910390fd5b6000836001600160a01b031663397a877e6040518163ffffffff1660e01b8152600401600060405180830381865afa158015610282573d6000803e3d6000fd5b505050506040513d6000823e601f3d908101601f191682016040526102aa919081019061240d565b90506102e56040518060c001604052806000815260200160008152602001600081526020016000815260200160008152602001600081525090565b73887D1EeC3C026ED31Fc35f6CB3f32D940BdB8b2463e56f4d916040518060a001604052808581526020017f00000000000000000000000000000000000000000000000000000000000000006001600160a01b03168152602001886001600160a01b0316630dfe16816040518163ffffffff1660e01b8152600401602060405180830381865afa15801561037d573d6000803e3d6000fd5b505050506040513d601f19601f820116820180604052508101906103a191906124e5565b6001600160a01b03168152602001886001600160a01b031663d21220a76040518163ffffffff1660e01b8152600401602060405180830381865afa1580156103ed573d6000803e3d6000fd5b505050506040513d601f19601f8201168201806040525081019061041191906124e5565b6001600160a01b03168152602001886001600160a01b03168152506040518263ffffffff1660e01b81526004016104489190612502565b608060405180830381865af4158015610465573d6000803e3d6000fd5b505050506040513d601f19601f8201168201806040525081019061048991906125a9565b60608501526040808501919091526020808501929092529183528151630dfe168160e01b815291516001600160a01b03881692630dfe16819260048083019391928290030181865afa1580156104e3573d6000803e3d6000fd5b505050506040513d601f19601f8201168201806040525081019061050791906124e5565b6001600160a01b03166370a08231866040518263ffffffff1660e01b81526004016105329190611f40565b602060405180830381865afa15801561054f573d6000803e3d6000fd5b505050506040513d601f19601f8201168201806040525081019061057391906123f4565b816080018181525050846001600160a01b031663d21220a76040518163ffffffff1660e01b8152600401602060405180830381865afa1580156105ba573d6000803e3d6000fd5b505050506040513d601f19601f820116820180604052508101906105de91906124e5565b6001600160a01b03166370a08231866040518263ffffffff1660e01b81526004016106099190611f40565b602060405180830381865afa158015610626573d6000803e3d6000fd5b505050506040513d601f19601f8201168201806040525081019061064a91906123f4565b8160a001818152505060008073dd67F313E3303f8Fd7Ce1dB94B99B2C8e59b3D97636d50cdaf846040015185606001518a6001600160a01b031663ccdf7a026040518163ffffffff1660e01b8152600401602060405180830381865afa1580156106b8573d6000803e3d6000fd5b505050506040513d601f19601f820116820180604052508101906106dc91906125f1565b8b6001600160a01b031663c70750416040518163ffffffff1660e01b8152600401602060405180830381865afa15801561071a573d6000803e3d6000fd5b505050506040513d601f19601f8201168201806040525081019061073e91906125f1565b6040516001600160e01b031960e087901b1681526004810194909452602484019290925261ffff90811660448401521660648201526084016040805180830381865af4158015610792573d6000803e3d6000fd5b505050506040513d601f19601f820116820180604052508101906107b6919061260c565b915091508183608001516107ca9190612646565b835184906107d9908390612646565b90525060a08301516107ec908290612646565b836020018181516107fd9190612646565b90525050815160009150610812908886611ab6565b9050600061082583602001518987611ab6565b90508260800151821115801561083f57508260a001518111155b1561084e575050505050610c18565b50505080516001600160401b0381111561086a5761086a6120c1565b6040519080825280602002602001820160405280156108a357816020015b610890611e9a565b8152602001906001900390816108885790505b50925060005b8151811015610c14576000856001600160a01b031663c45a01556040518163ffffffff1660e01b8152600401602060405180830381865afa1580156108f2573d6000803e3d6000fd5b505050506040513d601f19601f8201168201806040525081019061091691906124e5565b6001600160a01b0316631698ee82876001600160a01b0316630dfe16816040518163ffffffff1660e01b8152600401602060405180830381865afa158015610962573d6000803e3d6000fd5b505050506040513d601f19601f8201168201806040525081019061098691906124e5565b886001600160a01b031663d21220a76040518163ffffffff1660e01b8152600401602060405180830381865afa1580156109c4573d6000803e3d6000fd5b505050506040513d601f19601f820116820180604052508101906109e891906124e5565b8686815181106109fa576109fa61265e565b6020026020010151604001516040518463ffffffff1660e01b8152600401610a2493929190612674565b602060405180830381865afa158015610a41573d6000803e3d6000fd5b505050506040513d601f19601f82011682018060405250810190610a6591906124e5565b6001600160a01b031663514ea4bf73C64433E71f1f76Be5567B657026656Cce5999C34631208efca89878781518110610aa057610aa061265e565b602002602001015160000151888881518110610abe57610abe61265e565b6020026020010151602001516040518463ffffffff1660e01b8152600401610ae89392919061269c565b602060405180830381865af4158015610b05573d6000803e3d6000fd5b505050506040513d601f19601f82011682018060405250810190610b2991906123f4565b6040518263ffffffff1660e01b8152600401610b4791815260200190565b60a060405180830381865afa158015610b64573d6000803e3d6000fd5b505050506040513d601f19601f82011682018060405250810190610b8891906126c1565b505060408051808201909152929350829150610bb89050610bb36001600160801b0385168b89611ab6565b611b6a565b6001600160801b03168152602001848481518110610bd857610bd861265e565b6020026020010151815250858381518110610bf557610bf561265e565b6020026020010181905250508080610c0c90612723565b9150506108a9565b5050505b92915050565b610c26611edd565b6000806000806000866001600160a01b031663397a877e6040518163ffffffff1660e01b8152600401600060405180830381865afa158015610c6c573d6000803e3d6000fd5b505050506040513d6000823e601f3d908101601f19168201604052610c94919081019061240d565b9050866001600160a01b0316630dfe16816040518163ffffffff1660e01b8152600401602060405180830381865afa158015610cd4573d6000803e3d6000fd5b505050506040513d601f19601f82011682018060405250810190610cf891906124e5565b9250866001600160a01b031663d21220a76040518163ffffffff1660e01b8152600401602060405180830381865afa158015610d38573d6000803e3d6000fd5b505050506040513d601f19601f82011682018060405250810190610d5c91906124e5565b604051633750471560e11b81529092506001600160a01b037f00000000000000000000000000000000000000000000000000000000000000001690636ea08e2a90610dab908a90600401611f40565b6040805180830381865afa158015610dc7573d6000803e3d6000fd5b505050506040513d601f19601f82011682018060405250810190610deb919061260c565b909550935060005b8151811015611093576000886001600160a01b031663c45a01556040518163ffffffff1660e01b8152600401602060405180830381865afa158015610e3c573d6000803e3d6000fd5b505050506040513d601f19601f82011682018060405250810190610e6091906124e5565b6001600160a01b0316631698ee828686868681518110610e8257610e8261265e565b6020026020010151604001516040518463ffffffff1660e01b8152600401610eac93929190612674565b602060405180830381865afa158015610ec9573d6000803e3d6000fd5b505050506040513d601f19601f82011682018060405250810190610eed91906124e5565b6001600160a01b031663514ea4bf73C64433E71f1f76Be5567B657026656Cce5999C34631208efca8c878781518110610f2857610f2861265e565b602002602001015160000151888881518110610f4657610f4661265e565b6020026020010151602001516040518463ffffffff1660e01b8152600401610f709392919061269c565b602060405180830381865af4158015610f8d573d6000803e3d6000fd5b505050506040513d601f19601f82011682018060405250810190610fb191906123f4565b6040518263ffffffff1660e01b8152600401610fcf91815260200190565b60a060405180830381865afa158015610fec573d6000803e3d6000fd5b505050506040513d601f19601f8201168201806040525081019061101091906126c1565b5092935050506001600160801b038216159050611080576040518060400160405280826001600160801b031681526020018484815181106110535761105361265e565b6020026020010151815250886000015183815181106110745761107461265e565b60200260200101819052505b508061108b81612723565b915050610df3565b505061109e87611bd7565b86516001600160401b038111156110b7576110b76120c1565b6040519080825280602002602001820160405280156110f057816020015b6110dd611e9a565b8152602001906001900390816110d55790505b50602086015260005b875181101561130d5760008882815181106111165761111661265e565b602002602001015190506000886001600160a01b031663c45a01556040518163ffffffff1660e01b8152600401602060405180830381865afa158015611160573d6000803e3d6000fd5b505050506040513d601f19601f8201168201806040525081019061118491906124e5565b6001600160a01b0316631698ee8286868560000151604001516040518463ffffffff1660e01b81526004016111bb93929190612674565b602060405180830381865afa1580156111d8573d6000803e3d6000fd5b505050506040513d601f19601f820116820180604052508101906111fc91906124e5565b6001600160a01b0316633850c7bd6040518163ffffffff1660e01b815260040160e060405180830381865afa158015611239573d6000803e3d6000fd5b505050506040513d601f19601f8201168201806040525081019061125d919061273c565b505050505050905060006112b28261127c856000015160000151611606565b85516020015161128b90611606565b61129c8c8860200151612710611ab6565b6112ad8c8960200151612710611ab6565b611c67565b90506040518060400160405280826001600160801b031681526020018460000151815250896020015185815181106112ec576112ec61265e565b6020026020010181905250505050808061130590612723565b9150506110f9565b505050505092915050565b60008060008060007f00000000000000000000000000000000000000000000000000000000000000006001600160a01b0316636ea08e2a896040518263ffffffff1660e01b815260040161136c9190611f40565b6040805180830381865afa158015611388573d6000803e3d6000fd5b505050506040513d601f19601f820116820180604052508101906113ac919061260c565b915091506000886001600160a01b03166318160ddd6040518163ffffffff1660e01b8152600401602060405180830381865afa1580156113f0573d6000803e3d6000fd5b505050506040513d601f19601f8201168201806040525081019061141491906123f4565b905080156114a85760405163c30fc38d60e01b815273dd67F313E3303f8Fd7Ce1dB94B99B2C8e59b3D979063c30fc38d9061145b908690869086908e908e906004016127d9565b606060405180830381865af4158015611478573d6000803e3d6000fd5b505050506040513d601f19601f8201168201806040525081019061149c91906127fc565b919750955093506115fa565b73dd67F313E3303f8Fd7Ce1dB94B99B2C8e59b3D9763c30fc38d8a6001600160a01b03166314b806306040518163ffffffff1660e01b8152600401602060405180830381865afa158015611500573d6000803e3d6000fd5b505050506040513d601f19601f8201168201806040525081019061152491906123f4565b8b6001600160a01b031663f2eb3e346040518163ffffffff1660e01b8152600401602060405180830381865afa158015611562573d6000803e3d6000fd5b505050506040513d601f19601f8201168201806040525081019061158691906123f4565b670de0b6b3a76400008c8c6040518663ffffffff1660e01b81526004016115b19594939291906127d9565b606060405180830381865af41580156115ce573d6000803e3d6000fd5b505050506040513d601f19601f820116820180604052508101906115f291906127fc565b919750955093505b50505093509350939050565b60008060008360020b1261161d578260020b61162a565b8260020b61162a9061282a565b9050611639620d89e719612846565b60020b81111561166f5760405162461bcd60e51b81526020600482015260016024820152601560fa1b6044820152606401610239565b60008160011660000361168657600160801b611698565b6ffffcb933bd6fad37aa2d162d1a5940015b6001600160881b0316905060028216156116cd5760806116c8826ffff97272373d413259a46990580e213a612868565b901c90505b60048216156116f75760806116f2826ffff2e50f5f656932ef12357cf3c7fdcc612868565b901c90505b600882161561172157608061171c826fffe5caca7e10e4e61c3624eaa0941cd0612868565b901c90505b601082161561174b576080611746826fffcb9843d60f6159c9db58835c926644612868565b901c90505b6020821615611775576080611770826fff973b41fa98c081472e6896dfb254c0612868565b901c90505b604082161561179f57608061179a826fff2ea16466c96a3843ec78b326b52861612868565b901c90505b60808216156117c95760806117c4826ffe5dee046a99a2a811c461f1969c3053612868565b901c90505b6101008216156117f45760806117ef826ffcbe86c7900a88aedcffc83b479aa3a4612868565b901c90505b61020082161561181f57608061181a826ff987a7253ac413176f2b074cf7815e54612868565b901c90505b61040082161561184a576080611845826ff3392b0822b70005940c7a398e4b70f3612868565b901c90505b610800821615611875576080611870826fe7159475a2c29b7443b29c7fa6e889d9612868565b901c90505b6110008216156118a057608061189b826fd097f3bdfd2022b8845ad8f792aa5825612868565b901c90505b6120008216156118cb5760806118c6826fa9f746462d870fdf8a65dc1f90e061e5612868565b901c90505b6140008216156118f65760806118f1826f70d869a156d2a1b890bb3df62baf32f7612868565b901c90505b61800082161561192157608061191c826f31be135f97d08fd981231505542fcfa6612868565b901c90505b6201000082161561194d576080611948826f09aa508b5b7a84e1c677de54f3e99bc9612868565b901c90505b62020000821615611978576080611973826e5d6af8dedb81196699c329225ee604612868565b901c90505b620400008216156119a257608061199d826d2216e584f5fa1ea926041bedfe98612868565b901c90505b620800008216156119ca5760806119c5826b048a170391f7dc42444e8fa2612868565b901c90505b60008460020b13156119e5576119e28160001961289d565b90505b6119f3600160201b826128b1565b156119ff576001611a02565b60005b611a139060ff16602083901c612646565b949350505050565b600080836001600160a01b0316856001600160a01b03161115611a3c579293925b846001600160a01b0316866001600160a01b031611611a6757611a60858585611d2b565b915061018d565b836001600160a01b0316866001600160a01b03161015611aa057611a8c868585611d2b565b9150611a99858785611d95565b905061018d565b611aab858585611d95565b905094509492505050565b6000808060001985870985870292508281108382030391505080600003611aef5760008411611ae457600080fd5b508290049050611b63565b808411611afb57600080fd5b600084868809851960019081018716968790049682860381900495909211909303600082900391909104909201919091029190911760038402600290811880860282030280860282030280860282030280860282030280860282030280860290910302029150505b9392505050565b60006001600160801b03821115611bd35760405162461bcd60e51b815260206004820152602760248201527f53616665436173743a2076616c756520646f65736e27742066697420696e20316044820152663238206269747360c81b6064820152608401610239565b5090565b6000805b8251811015611c2157828181518110611bf657611bf661265e565b60200260200101516020015182611c0d9190612646565b915080611c1981612723565b915050611bdb565b50612710811115611c635760405162461bcd60e51b815260206004820152600c60248201526b1d1bdd185b081dd95a59da1d60a21b6044820152606401610239565b5050565b6000836001600160a01b0316856001600160a01b03161115611c87579293925b846001600160a01b0316866001600160a01b031611611cb257611cab858585611ddf565b9050611d22565b836001600160a01b0316866001600160a01b03161015611d14576000611cd9878686611ddf565b90506000611ce8878986611e49565b9050806001600160801b0316826001600160801b031610611d095780611d0b565b815b92505050611d22565b611d1f858584611e49565b90505b95945050505050565b6000826001600160a01b0316846001600160a01b03161115611d4b579192915b6001600160a01b038416611d8b600160601b600160e01b03606085901b16611d7387876128c5565b6001600160a01b0316866001600160a01b0316611ab6565b611a13919061289d565b6000826001600160a01b0316846001600160a01b03161115611db5579192915b611a136001600160801b038316611dcc86866128c5565b6001600160a01b0316600160601b611ab6565b6000826001600160a01b0316846001600160a01b03161115611dff579192915b6000611e22856001600160a01b0316856001600160a01b0316600160601b611ab6565b9050611d22611e448483611e3689896128c5565b6001600160a01b0316611ab6565b611e7f565b6000826001600160a01b0316846001600160a01b03161115611e69579192915b611a13611e4483600160601b611e3688886128c5565b806001600160801b0381168114611e9557600080fd5b919050565b604051806040016040528060006001600160801b03168152602001611ed8604080516060810182526000808252602082018190529181019190915290565b905290565b60405180606001604052806060815260200160608152602001611ed86040518060a001604052806060815260200160006001600160a01b0316815260200160008152602001600081526020016000151581525090565b6001600160a01b03169052565b6001600160a01b0391909116815260200190565b8060020b8114611f6357600080fd5b50565b6001600160801b0381168114611f6357600080fd5b60008060008060808587031215611f9157600080fd5b8435611f9c81611f54565b93506020850135611fac81611f54565b92506040850135611fbc81611f54565b91506060850135611fcc81611f66565b939692955090935050565b6001600160a01b0381168114611f6357600080fd5b8035611e9581611fd7565b6000806040838503121561200a57600080fd5b82359150602083013561201c81611fd7565b809150509250929050565b805160020b8252602081015160020b602083015262ffffff60408201511660408301525050565b80516001600160801b031682526020808201519061206e90840182612027565b505050565b6020808252825182820181905260009190848201906040850190845b818110156120b5576120a283855161204e565b928401926080929092019160010161208f565b50909695505050505050565b634e487b7160e01b600052604160045260246000fd5b604080519081016001600160401b03811182821017156120f9576120f96120c1565b60405290565b604051606081016001600160401b03811182821017156120f9576120f96120c1565b604051601f8201601f191681016001600160401b0381118282101715612149576121496120c1565b604052919050565b60006001600160401b0382111561216a5761216a6120c1565b5060051b60200190565b62ffffff81168114611f6357600080fd5b600080604080848603121561219957600080fd5b83356001600160401b038111156121af57600080fd5b8401601f810186136121c057600080fd5b803560206121d56121d083612151565b612121565b82815260079290921b830181019181810190898411156121f457600080fd5b938201935b8385101561228057848a0360808112156122135760008081fd5b61221b6120d7565b60608083121561222b5760008081fd5b6122336120ff565b9250873561224081611f54565b83528786013561224f81611f54565b838701528789013561226081612174565b838a015291815290860135848201528252608090940193908201906121f9565b965061228f9050878201611fec565b9450505050509250929050565b600081518084526020808501945080840160005b838110156122d6576122c387835161204e565b60809690960195908201906001016122b0565b509495945050505050565b6000602080835283516060828501526122fd608085018261229c565b905081850151601f198086840301604087015261231a838361229c565b92506040870151915080868403016060870152815160a0845280518060a086015260005b8181101561235a5782810187015186820160c00152860161233e565b8181111561236c57600060c083880101525b5085840151915061237f86860183611f33565b6040840151604086015260608401516060860152608084015195506123a8608086018715159052565b601f019091169290920160c0019695505050505050565b6000806000606084860312156123d457600080fd5b83356123df81611fd7565b95602085013595506040909401359392505050565b60006020828403121561240657600080fd5b5051919050565b6000602080838503121561242057600080fd5b82516001600160401b0381111561243657600080fd5b8301601f8101851361244757600080fd5b80516124556121d082612151565b8181526060918202830184019184820191908884111561247457600080fd5b938501935b838510156124d95780858a0312156124915760008081fd5b6124996120ff565b85516124a481611f54565b8152858701516124b381611f54565b818801526040868101516124c681612174565b9082015283529384019391850191612479565b50979650505050505050565b6000602082840312156124f757600080fd5b8151611b6381611fd7565b6020808252825160a083830152805160c0840181905260009291820190839060e08601905b808310156125505761253a828551612027565b6060820191508484019350600183019250612527565b5092860151926125636040870185611f33565b604087015193506125776060870185611f33565b6060870151935061258b6080870185611f33565b6080870151935061259f60a0870185611f33565b9695505050505050565b600080600080608085870312156125bf57600080fd5b505082516020840151604085015160609095015191969095509092509050565b805161ffff81168114611e9557600080fd5b60006020828403121561260357600080fd5b611b63826125df565b6000806040838503121561261f57600080fd5b505080516020909101519092909150565b634e487b7160e01b600052601160045260246000fd5b6000821982111561265957612659612630565b500190565b634e487b7160e01b600052603260045260246000fd5b6001600160a01b03938416815291909216602082015262ffffff909116604082015260600190565b6001600160a01b03939093168352600291820b6020840152900b604082015260600190565b600080600080600060a086880312156126d957600080fd5b85516126e481611f66565b809550506020860151935060408601519250606086015161270481611f66565b608087015190925061271581611f66565b809150509295509295909350565b60006001820161273557612735612630565b5060010190565b600080600080600080600060e0888a03121561275757600080fd5b875161276281611fd7565b602089015190975061277381611f54565b9550612781604089016125df565b945061278f606089016125df565b935061279d608089016125df565b925060a088015160ff811681146127b357600080fd5b60c089015190925080151581146127c957600080fd5b8091505092959891949750929550565b948552602085019390935260408401919091526060830152608082015260a00190565b60008060006060848603121561281157600080fd5b8351925060208401519150604084015190509250925092565b6000600160ff1b820161283f5761283f612630565b5060000390565b60008160020b627fffff19810361285f5761285f612630565b60000392915050565b600081600019048311821515161561288257612882612630565b500290565b634e487b7160e01b600052601260045260246000fd5b6000826128ac576128ac612887565b500490565b6000826128c0576128c0612887565b500690565b60006001600160a01b03838116908316818110156128e5576128e5612630565b03939250505056fea2646970667358221220f7499db56877543ba3e4a10fbf0b31c49a79b08599fddf40314170f14afe08c564736f6c634300080d0033",
  "deployedBytecode": "0x608060405234801561001057600080fd5b50600436106100625760003560e01c806363b0e66a14610067578063a339df12146100a4578063c30fcfdc146100cc578063c45a0155146100ec578063c49f25af14610113578063fa111ce714610133575b600080fd5b61008e7f000000000000000000000000000000000000000000000000000000000000000081565b60405161009b9190611f40565b60405180910390f35b6100b76100b2366004611f7b565b610161565b6040805192835260208301919091520161009b565b6100df6100da366004611ff7565b610196565b60405161009b9190612073565b61008e7f000000000000000000000000000000000000000000000000000000000000000081565b610126610121366004612185565b610c1e565b60405161009b91906122e1565b6101466101413660046123bf565b611318565b6040805193845260208401929092529082015260600161009b565b60008061018861017087611606565b61017987611606565b61018287611606565b86611a1b565b915091505b94509492505050565b60606000826001600160a01b03166318160ddd6040518163ffffffff1660e01b8152600401602060405180830381865afa1580156101d8573d6000803e3d6000fd5b505050506040513d601f19601f820116820180604052508101906101fc91906123f4565b9050600081116102425760405162461bcd60e51b815260206004820152600c60248201526b746f74616c20737570706c7960a01b60448201526064015b60405180910390fd5b6000836001600160a01b031663397a877e6040518163ffffffff1660e01b8152600401600060405180830381865afa158015610282573d6000803e3d6000fd5b505050506040513d6000823e601f3d908101601f191682016040526102aa919081019061240d565b90506102e56040518060c001604052806000815260200160008152602001600081526020016000815260200160008152602001600081525090565b73__$3d23d8578387a47facd93bb77f6fe6e81b$__63e56f4d916040518060a001604052808581526020017f00000000000000000000000000000000000000000000000000000000000000006001600160a01b03168152602001886001600160a01b0316630dfe16816040518163ffffffff1660e01b8152600401602060405180830381865afa15801561037d573d6000803e3d6000fd5b505050506040513d601f19601f820116820180604052508101906103a191906124e5565b6001600160a01b03168152602001886001600160a01b031663d21220a76040518163ffffffff1660e01b8152600401602060405180830381865afa1580156103ed573d6000803e3d6000fd5b505050506040513d601f19601f8201168201806040525081019061041191906124e5565b6001600160a01b03168152602001886001600160a01b03168152506040518263ffffffff1660e01b81526004016104489190612502565b608060405180830381865af4158015610465573d6000803e3d6000fd5b505050506040513d601f19601f8201168201806040525081019061048991906125a9565b60608501526040808501919091526020808501929092529183528151630dfe168160e01b815291516001600160a01b03881692630dfe16819260048083019391928290030181865afa1580156104e3573d6000803e3d6000fd5b505050506040513d601f19601f8201168201806040525081019061050791906124e5565b6001600160a01b03166370a08231866040518263ffffffff1660e01b81526004016105329190611f40565b602060405180830381865afa15801561054f573d6000803e3d6000fd5b505050506040513d601f19601f8201168201806040525081019061057391906123f4565b816080018181525050846001600160a01b031663d21220a76040518163ffffffff1660e01b8152600401602060405180830381865afa1580156105ba573d6000803e3d6000fd5b505050506040513d601f19601f820116820180604052508101906105de91906124e5565b6001600160a01b03166370a08231866040518263ffffffff1660e01b81526004016106099190611f40565b602060405180830381865afa158015610626573d6000803e3d6000fd5b505050506040513d601f19601f8201168201806040525081019061064a91906123f4565b8160a001818152505060008073__$30ef26875820c516a3c36c5c0a5fd73943$__636d50cdaf846040015185606001518a6001600160a01b031663ccdf7a026040518163ffffffff1660e01b8152600401602060405180830381865afa1580156106b8573d6000803e3d6000fd5b505050506040513d601f19601f820116820180604052508101906106dc91906125f1565b8b6001600160a01b031663c70750416040518163ffffffff1660e01b8152600401602060405180830381865afa15801561071a573d6000803e3d6000fd5b505050506040513d601f19601f8201168201806040525081019061073e91906125f1565b6040516001600160e01b031960e087901b1681526004810194909452602484019290925261ffff90811660448401521660648201526084016040805180830381865af4158015610792573d6000803e3d6000fd5b505050506040513d601f19601f820116820180604052508101906107b6919061260c565b915091508183608001516107ca9190612646565b835184906107d9908390612646565b90525060a08301516107ec908290612646565b836020018181516107fd9190612646565b90525050815160009150610812908886611ab6565b9050600061082583602001518987611ab6565b90508260800151821115801561083f57508260a001518111155b1561084e575050505050610c18565b50505080516001600160401b0381111561086a5761086a6120c1565b6040519080825280602002602001820160405280156108a357816020015b610890611e9a565b8152602001906001900390816108885790505b50925060005b8151811015610c14576000856001600160a01b031663c45a01556040518163ffffffff1660e01b8152600401602060405180830381865afa1580156108f2573d6000803e3d6000fd5b505050506040513d601f19601f8201168201806040525081019061091691906124e5565b6001600160a01b0316631698ee82876001600160a01b0316630dfe16816040518163ffffffff1660e01b8152600401602060405180830381865afa158015610962573d6000803e3d6000fd5b505050506040513d601f19601f8201168201806040525081019061098691906124e5565b886001600160a01b031663d21220a76040518163ffffffff1660e01b8152600401602060405180830381865afa1580156109c4573d6000803e3d6000fd5b505050506040513d601f19601f820116820180604052508101906109e891906124e5565b8686815181106109fa576109fa61265e565b6020026020010151604001516040518463ffffffff1660e01b8152600401610a2493929190612674565b602060405180830381865afa158015610a41573d6000803e3d6000fd5b505050506040513d601f19601f82011682018060405250810190610a6591906124e5565b6001600160a01b031663514ea4bf73__$b131e44167300e1b6d47510635310686a7$__631208efca89878781518110610aa057610aa061265e565b602002602001015160000151888881518110610abe57610abe61265e565b6020026020010151602001516040518463ffffffff1660e01b8152600401610ae89392919061269c565b602060405180830381865af4158015610b05573d6000803e3d6000fd5b505050506040513d601f19601f82011682018060405250810190610b2991906123f4565b6040518263ffffffff1660e01b8152600401610b4791815260200190565b60a060405180830381865afa158015610b64573d6000803e3d6000fd5b505050506040513d601f19601f82011682018060405250810190610b8891906126c1565b505060408051808201909152929350829150610bb89050610bb36001600160801b0385168b89611ab6565b611b6a565b6001600160801b03168152602001848481518110610bd857610bd861265e565b6020026020010151815250858381518110610bf557610bf561265e565b6020026020010181905250508080610c0c90612723565b9150506108a9565b5050505b92915050565b610c26611edd565b6000806000806000866001600160a01b031663397a877e6040518163ffffffff1660e01b8152600401600060405180830381865afa158015610c6c573d6000803e3d6000fd5b505050506040513d6000823e601f3d908101601f19168201604052610c94919081019061240d565b9050866001600160a01b0316630dfe16816040518163ffffffff1660e01b8152600401602060405180830381865afa158015610cd4573d6000803e3d6000fd5b505050506040513d601f19601f82011682018060405250810190610cf891906124e5565b9250866001600160a01b031663d21220a76040518163ffffffff1660e01b8152600401602060405180830381865afa158015610d38573d6000803e3d6000fd5b505050506040513d601f19601f82011682018060405250810190610d5c91906124e5565b604051633750471560e11b81529092506001600160a01b037f00000000000000000000000000000000000000000000000000000000000000001690636ea08e2a90610dab908a90600401611f40565b6040805180830381865afa158015610dc7573d6000803e3d6000fd5b505050506040513d601f19601f82011682018060405250810190610deb919061260c565b909550935060005b8151811015611093576000886001600160a01b031663c45a01556040518163ffffffff1660e01b8152600401602060405180830381865afa158015610e3c573d6000803e3d6000fd5b505050506040513d601f19601f82011682018060405250810190610e6091906124e5565b6001600160a01b0316631698ee828686868681518110610e8257610e8261265e565b6020026020010151604001516040518463ffffffff1660e01b8152600401610eac93929190612674565b602060405180830381865afa158015610ec9573d6000803e3d6000fd5b505050506040513d601f19601f82011682018060405250810190610eed91906124e5565b6001600160a01b031663514ea4bf73__$b131e44167300e1b6d47510635310686a7$__631208efca8c878781518110610f2857610f2861265e565b602002602001015160000151888881518110610f4657610f4661265e565b6020026020010151602001516040518463ffffffff1660e01b8152600401610f709392919061269c565b602060405180830381865af4158015610f8d573d6000803e3d6000fd5b505050506040513d601f19601f82011682018060405250810190610fb191906123f4565b6040518263ffffffff1660e01b8152600401610fcf91815260200190565b60a060405180830381865afa158015610fec573d6000803e3d6000fd5b505050506040513d601f19601f8201168201806040525081019061101091906126c1565b5092935050506001600160801b038216159050611080576040518060400160405280826001600160801b031681526020018484815181106110535761105361265e565b6020026020010151815250886000015183815181106110745761107461265e565b60200260200101819052505b508061108b81612723565b915050610df3565b505061109e87611bd7565b86516001600160401b038111156110b7576110b76120c1565b6040519080825280602002602001820160405280156110f057816020015b6110dd611e9a565b8152602001906001900390816110d55790505b50602086015260005b875181101561130d5760008882815181106111165761111661265e565b602002602001015190506000886001600160a01b031663c45a01556040518163ffffffff1660e01b8152600401602060405180830381865afa158015611160573d6000803e3d6000fd5b505050506040513d601f19601f8201168201806040525081019061118491906124e5565b6001600160a01b0316631698ee8286868560000151604001516040518463ffffffff1660e01b81526004016111bb93929190612674565b602060405180830381865afa1580156111d8573d6000803e3d6000fd5b505050506040513d601f19601f820116820180604052508101906111fc91906124e5565b6001600160a01b0316633850c7bd6040518163ffffffff1660e01b815260040160e060405180830381865afa158015611239573d6000803e3d6000fd5b505050506040513d601f19601f8201168201806040525081019061125d919061273c565b505050505050905060006112b28261127c856000015160000151611606565b85516020015161128b90611606565b61129c8c8860200151612710611ab6565b6112ad8c8960200151612710611ab6565b611c67565b90506040518060400160405280826001600160801b031681526020018460000151815250896020015185815181106112ec576112ec61265e565b6020026020010181905250505050808061130590612723565b9150506110f9565b505050505092915050565b60008060008060007f00000000000000000000000000000000000000000000000000000000000000006001600160a01b0316636ea08e2a896040518263ffffffff1660e01b815260040161136c9190611f40565b6040805180830381865afa158015611388573d6000803e3d6000fd5b505050506040513d601f19601f820116820180604052508101906113ac919061260c565b915091506000886001600160a01b03166318160ddd6040518163ffffffff1660e01b8152600401602060405180830381865afa1580156113f0573d6000803e3d6000fd5b505050506040513d601f19601f8201168201806040525081019061141491906123f4565b905080156114a85760405163c30fc38d60e01b815273__$30ef26875820c516a3c36c5c0a5fd73943$__9063c30fc38d9061145b908690869086908e908e906004016127d9565b606060405180830381865af4158015611478573d6000803e3d6000fd5b505050506040513d601f19601f8201168201806040525081019061149c91906127fc565b919750955093506115fa565b73__$30ef26875820c516a3c36c5c0a5fd73943$__63c30fc38d8a6001600160a01b03166314b806306040518163ffffffff1660e01b8152600401602060405180830381865afa158015611500573d6000803e3d6000fd5b505050506040513d601f19601f8201168201806040525081019061152491906123f4565b8b6001600160a01b031663f2eb3e346040518163ffffffff1660e01b8152600401602060405180830381865afa158015611562573d6000803e3d6000fd5b505050506040513d601f19601f8201168201806040525081019061158691906123f4565b670de0b6b3a76400008c8c6040518663ffffffff1660e01b81526004016115b19594939291906127d9565b606060405180830381865af41580156115ce573d6000803e3d6000fd5b505050506040513d601f19601f820116820180604052508101906115f291906127fc565b919750955093505b50505093509350939050565b60008060008360020b1261161d578260020b61162a565b8260020b61162a9061282a565b9050611639620d89e719612846565b60020b81111561166f5760405162461bcd60e51b81526020600482015260016024820152601560fa1b6044820152606401610239565b60008160011660000361168657600160801b611698565b6ffffcb933bd6fad37aa2d162d1a5940015b6001600160881b0316905060028216156116cd5760806116c8826ffff97272373d413259a46990580e213a612868565b901c90505b60048216156116f75760806116f2826ffff2e50f5f656932ef12357cf3c7fdcc612868565b901c90505b600882161561172157608061171c826fffe5caca7e10e4e61c3624eaa0941cd0612868565b901c90505b601082161561174b576080611746826fffcb9843d60f6159c9db58835c926644612868565b901c90505b6020821615611775576080611770826fff973b41fa98c081472e6896dfb254c0612868565b901c90505b604082161561179f57608061179a826fff2ea16466c96a3843ec78b326b52861612868565b901c90505b60808216156117c95760806117c4826ffe5dee046a99a2a811c461f1969c3053612868565b901c90505b6101008216156117f45760806117ef826ffcbe86c7900a88aedcffc83b479aa3a4612868565b901c90505b61020082161561181f57608061181a826ff987a7253ac413176f2b074cf7815e54612868565b901c90505b61040082161561184a576080611845826ff3392b0822b70005940c7a398e4b70f3612868565b901c90505b610800821615611875576080611870826fe7159475a2c29b7443b29c7fa6e889d9612868565b901c90505b6110008216156118a057608061189b826fd097f3bdfd2022b8845ad8f792aa5825612868565b901c90505b6120008216156118cb5760806118c6826fa9f746462d870fdf8a65dc1f90e061e5612868565b901c90505b6140008216156118f65760806118f1826f70d869a156d2a1b890bb3df62baf32f7612868565b901c90505b61800082161561192157608061191c826f31be135f97d08fd981231505542fcfa6612868565b901c90505b6201000082161561194d576080611948826f09aa508b5b7a84e1c677de54f3e99bc9612868565b901c90505b62020000821615611978576080611973826e5d6af8dedb81196699c329225ee604612868565b901c90505b620400008216156119a257608061199d826d2216e584f5fa1ea926041bedfe98612868565b901c90505b620800008216156119ca5760806119c5826b048a170391f7dc42444e8fa2612868565b901c90505b60008460020b13156119e5576119e28160001961289d565b90505b6119f3600160201b826128b1565b156119ff576001611a02565b60005b611a139060ff16602083901c612646565b949350505050565b600080836001600160a01b0316856001600160a01b03161115611a3c579293925b846001600160a01b0316866001600160a01b031611611a6757611a60858585611d2b565b915061018d565b836001600160a01b0316866001600160a01b03161015611aa057611a8c868585611d2b565b9150611a99858785611d95565b905061018d565b611aab858585611d95565b905094509492505050565b6000808060001985870985870292508281108382030391505080600003611aef5760008411611ae457600080fd5b508290049050611b63565b808411611afb57600080fd5b600084868809851960019081018716968790049682860381900495909211909303600082900391909104909201919091029190911760038402600290811880860282030280860282030280860282030280860282030280860282030280860290910302029150505b9392505050565b60006001600160801b03821115611bd35760405162461bcd60e51b815260206004820152602760248201527f53616665436173743a2076616c756520646f65736e27742066697420696e20316044820152663238206269747360c81b6064820152608401610239565b5090565b6000805b8251811015611c2157828181518110611bf657611bf661265e565b60200260200101516020015182611c0d9190612646565b915080611c1981612723565b915050611bdb565b50612710811115611c635760405162461bcd60e51b815260206004820152600c60248201526b1d1bdd185b081dd95a59da1d60a21b6044820152606401610239565b5050565b6000836001600160a01b0316856001600160a01b03161115611c87579293925b846001600160a01b0316866001600160a01b031611611cb257611cab858585611ddf565b9050611d22565b836001600160a01b0316866001600160a01b03161015611d14576000611cd9878686611ddf565b90506000611ce8878986611e49565b9050806001600160801b0316826001600160801b031610611d095780611d0b565b815b92505050611d22565b611d1f858584611e49565b90505b95945050505050565b6000826001600160a01b0316846001600160a01b03161115611d4b579192915b6001600160a01b038416611d8b600160601b600160e01b03606085901b16611d7387876128c5565b6001600160a01b0316866001600160a01b0316611ab6565b611a13919061289d565b6000826001600160a01b0316846001600160a01b03161115611db5579192915b611a136001600160801b038316611dcc86866128c5565b6001600160a01b0316600160601b611ab6565b6000826001600160a01b0316846001600160a01b03161115611dff579192915b6000611e22856001600160a01b0316856001600160a01b0316600160601b611ab6565b9050611d22611e448483611e3689896128c5565b6001600160a01b0316611ab6565b611e7f565b6000826001600160a01b0316846001600160a01b03161115611e69579192915b611a13611e4483600160601b611e3688886128c5565b806001600160801b0381168114611e9557600080fd5b919050565b604051806040016040528060006001600160801b03168152602001611ed8604080516060810182526000808252602082018190529181019190915290565b905290565b60405180606001604052806060815260200160608152602001611ed86040518060a001604052806060815260200160006001600160a01b0316815260200160008152602001600081526020016000151581525090565b6001600160a01b03169052565b6001600160a01b0391909116815260200190565b8060020b8114611f6357600080fd5b50565b6001600160801b0381168114611f6357600080fd5b60008060008060808587031215611f9157600080fd5b8435611f9c81611f54565b93506020850135611fac81611f54565b92506040850135611fbc81611f54565b91506060850135611fcc81611f66565b939692955090935050565b6001600160a01b0381168114611f6357600080fd5b8035611e9581611fd7565b6000806040838503121561200a57600080fd5b82359150602083013561201c81611fd7565b809150509250929050565b805160020b8252602081015160020b602083015262ffffff60408201511660408301525050565b80516001600160801b031682526020808201519061206e90840182612027565b505050565b6020808252825182820181905260009190848201906040850190845b818110156120b5576120a283855161204e565b928401926080929092019160010161208f565b50909695505050505050565b634e487b7160e01b600052604160045260246000fd5b604080519081016001600160401b03811182821017156120f9576120f96120c1565b60405290565b604051606081016001600160401b03811182821017156120f9576120f96120c1565b604051601f8201601f191681016001600160401b0381118282101715612149576121496120c1565b604052919050565b60006001600160401b0382111561216a5761216a6120c1565b5060051b60200190565b62ffffff81168114611f6357600080fd5b600080604080848603121561219957600080fd5b83356001600160401b038111156121af57600080fd5b8401601f810186136121c057600080fd5b803560206121d56121d083612151565b612121565b82815260079290921b830181019181810190898411156121f457600080fd5b938201935b8385101561228057848a0360808112156122135760008081fd5b61221b6120d7565b60608083121561222b5760008081fd5b6122336120ff565b9250873561224081611f54565b83528786013561224f81611f54565b838701528789013561226081612174565b838a015291815290860135848201528252608090940193908201906121f9565b965061228f9050878201611fec565b9450505050509250929050565b600081518084526020808501945080840160005b838110156122d6576122c387835161204e565b60809690960195908201906001016122b0565b509495945050505050565b6000602080835283516060828501526122fd608085018261229c565b905081850151601f198086840301604087015261231a838361229c565b92506040870151915080868403016060870152815160a0845280518060a086015260005b8181101561235a5782810187015186820160c00152860161233e565b8181111561236c57600060c083880101525b5085840151915061237f86860183611f33565b6040840151604086015260608401516060860152608084015195506123a8608086018715159052565b601f019091169290920160c0019695505050505050565b6000806000606084860312156123d457600080fd5b83356123df81611fd7565b95602085013595506040909401359392505050565b60006020828403121561240657600080fd5b5051919050565b6000602080838503121561242057600080fd5b82516001600160401b0381111561243657600080fd5b8301601f8101851361244757600080fd5b80516124556121d082612151565b8181526060918202830184019184820191908884111561247457600080fd5b938501935b838510156124d95780858a0312156124915760008081fd5b6124996120ff565b85516124a481611f54565b8152858701516124b381611f54565b818801526040868101516124c681612174565b9082015283529384019391850191612479565b50979650505050505050565b6000602082840312156124f757600080fd5b8151611b6381611fd7565b6020808252825160a083830152805160c0840181905260009291820190839060e08601905b808310156125505761253a828551612027565b6060820191508484019350600183019250612527565b5092860151926125636040870185611f33565b604087015193506125776060870185611f33565b6060870151935061258b6080870185611f33565b6080870151935061259f60a0870185611f33565b9695505050505050565b600080600080608085870312156125bf57600080fd5b505082516020840151604085015160609095015191969095509092509050565b805161ffff81168114611e9557600080fd5b60006020828403121561260357600080fd5b611b63826125df565b6000806040838503121561261f57600080fd5b505080516020909101519092909150565b634e487b7160e01b600052601160045260246000fd5b6000821982111561265957612659612630565b500190565b634e487b7160e01b600052603260045260246000fd5b6001600160a01b03938416815291909216602082015262ffffff909116604082015260600190565b6001600160a01b03939093168352600291820b6020840152900b604082015260600190565b600080600080600060a086880312156126d957600080fd5b85516126e481611f66565b809550506020860151935060408601519250606086015161270481611f66565b608087015190925061271581611f66565b809150509295509295909350565b60006001820161273557612735612630565b5060010190565b600080600080600080600060e0888a03121561275757600080fd5b875161276281611fd7565b602089015190975061277381611f54565b9550612781604089016125df565b945061278f606089016125df565b935061279d608089016125df565b925060a088015160ff811681146127b357600080fd5b60c089015190925080151581146127c957600080fd5b8091505092959891949750929550565b948552602085019390935260408401919091526060830152608082015260a00190565b60008060006060848603121561281157600080fd5b8351925060208401519150604084015190509250925092565b6000600160ff1b820161283f5761283f612630565b5060000390565b60008160020b627fffff19810361285f5761285f612630565b60000392915050565b600081600019048311821515161561288257612882612630565b500290565b634e487b7160e01b600052601260045260246000fd5b6000826128ac576128ac612887565b500490565b6000826128c0576128c0612887565b500690565b60006001600160a01b03838116908316818110156128e5576128e5612630565b03939250505056fea2646970667358221220f7499db56877543ba3e4a10fbf0b31c49a79b08599fddf40314170f14afe08c564736f6c634300080d0033",
  "libraries": {
    "Position": "0xC64433E71f1f76Be5567B657026656Cce5999C34",
    "Underlying": "0x887D1EeC3C026ED31Fc35f6CB3f32D940BdB8b24",
    "UniswapV3Amounts": "0xdd67F313E3303f8Fd7Ce1dB94B99B2C8e59b3D97"
  },
  "devdoc": {
    "kind": "dev",
    "methods": {},
    "version": 1
  },
  "userdoc": {
    "kind": "user",
    "methods": {},
    "version": 1
  },
  "storageLayout": {
    "storage": [],
    "types": null
  }
}