{
  "address": "0x7F346F1eB7a65fF83f51B3FD76dCc70979e6DF38",
  "abi": [
    {
      "inputs": [
        {
          "internalType": "contract IUniswapV3Factory",
          "name": "factory_",
          "type": "address"
        }
      ],
      "stateMutability": "nonpayable",
      "type": "constructor"
    },
    {
      "anonymous": false,
      "inputs": [
        {
          "indexed": true,
          "internalType": "address",
          "name": "owner",
          "type": "address"
        },
        {
          "indexed": true,
          "internalType": "address",
          "name": "spender",
          "type": "address"
        },
        {
          "indexed": false,
          "internalType": "uint256",
          "name": "value",
          "type": "uint256"
        }
      ],
      "name": "Approval",
      "type": "event"
    },
    {
      "anonymous": false,
      "inputs": [
        {
          "indexed": false,
          "internalType": "uint8",
          "name": "version",
          "type": "uint8"
        }
      ],
      "name": "Initialized",
      "type": "event"
    },
    {
      "anonymous": false,
      "inputs": [
        {
          "indexed": true,
          "internalType": "address",
          "name": "user",
          "type": "address"
        },
        {
          "indexed": false,
          "internalType": "uint256",
          "name": "burnAmount0",
          "type": "uint256"
        },
        {
          "indexed": false,
          "internalType": "uint256",
          "name": "burnAmount1",
          "type": "uint256"
        }
      ],
      "name": "LPBurned",
      "type": "event"
    },
    {
      "anonymous": false,
      "inputs": [
        {
          "indexed": false,
          "internalType": "uint24[]",
          "name": "feeTiers",
          "type": "uint24[]"
        }
      ],
      "name": "LogAddPools",
      "type": "event"
    },
    {
      "anonymous": false,
      "inputs": [
        {
          "indexed": false,
          "internalType": "address[]",
          "name": "routers",
          "type": "address[]"
        }
      ],
      "name": "LogBlacklistRouters",
      "type": "event"
    },
    {
      "anonymous": false,
      "inputs": [
        {
          "indexed": true,
          "internalType": "address",
          "name": "receiver",
          "type": "address"
        },
        {
          "indexed": false,
          "internalType": "uint256",
          "name": "burnAmount",
          "type": "uint256"
        },
        {
          "indexed": false,
          "internalType": "uint256",
          "name": "amount0Out",
          "type": "uint256"
        },
        {
          "indexed": false,
          "internalType": "uint256",
          "name": "amount1Out",
          "type": "uint256"
        }
      ],
      "name": "LogBurn",
      "type": "event"
    },
    {
      "anonymous": false,
      "inputs": [
        {
          "indexed": false,
          "internalType": "uint256",
          "name": "fee0",
          "type": "uint256"
        },
        {
          "indexed": false,
          "internalType": "uint256",
          "name": "fee1",
          "type": "uint256"
        }
      ],
      "name": "LogCollectedFees",
      "type": "event"
    },
    {
      "anonymous": false,
      "inputs": [
        {
          "indexed": true,
          "internalType": "address",
          "name": "receiver",
          "type": "address"
        },
        {
          "indexed": false,
          "internalType": "uint256",
          "name": "mintAmount",
          "type": "uint256"
        },
        {
          "indexed": false,
          "internalType": "uint256",
          "name": "amount0In",
          "type": "uint256"
        },
        {
          "indexed": false,
          "internalType": "uint256",
          "name": "amount1In",
          "type": "uint256"
        }
      ],
      "name": "LogMint",
      "type": "event"
    },
    {
      "anonymous": false,
      "inputs": [
        {
          "components": [
            {
              "components": [
                {
                  "internalType": "uint128",
                  "name": "liquidity",
                  "type": "uint128"
                },
                {
                  "components": [
                    {
                      "internalType": "int24",
                      "name": "lowerTick",
                      "type": "int24"
                    },
                    {
                      "internalType": "int24",
                      "name": "upperTick",
                      "type": "int24"
                    },
                    {
                      "internalType": "uint24",
                      "name": "feeTier",
                      "type": "uint24"
                    }
                  ],
                  "internalType": "struct Range",
                  "name": "range",
                  "type": "tuple"
                }
              ],
              "internalType": "struct PositionLiquidity[]",
              "name": "burns",
              "type": "tuple[]"
            },
            {
              "components": [
                {
                  "internalType": "uint128",
                  "name": "liquidity",
                  "type": "uint128"
                },
                {
                  "components": [
                    {
                      "internalType": "int24",
                      "name": "lowerTick",
                      "type": "int24"
                    },
                    {
                      "internalType": "int24",
                      "name": "upperTick",
                      "type": "int24"
                    },
                    {
                      "internalType": "uint24",
                      "name": "feeTier",
                      "type": "uint24"
                    }
                  ],
                  "internalType": "struct Range",
                  "name": "range",
                  "type": "tuple"
                }
              ],
              "internalType": "struct PositionLiquidity[]",
              "name": "mints",
              "type": "tuple[]"
            },
            {
              "components": [
                {
                  "internalType": "bytes",
                  "name": "payload",
                  "type": "bytes"
                },
                {
                  "internalType": "address",
                  "name": "router",
                  "type": "address"
                },
                {
                  "internalType": "uint256",
                  "name": "amountIn",
                  "type": "uint256"
                },
                {
                  "internalType": "uint256",
                  "name": "expectedMinReturn",
                  "type": "uint256"
                },
                {
                  "internalType": "bool",
                  "name": "zeroForOne",
                  "type": "bool"
                }
              ],
              "internalType": "struct SwapPayload",
              "name": "swap",
              "type": "tuple"
            },
            {
              "internalType": "uint256",
              "name": "minBurn0",
              "type": "uint256"
            },
            {
              "internalType": "uint256",
              "name": "minBurn1",
              "type": "uint256"
            },
            {
              "internalType": "uint256",
              "name": "minDeposit0",
              "type": "uint256"
            },
            {
              "internalType": "uint256",
              "name": "minDeposit1",
              "type": "uint256"
            }
          ],
          "indexed": false,
          "internalType": "struct Rebalance",
          "name": "rebalanceParams",
          "type": "tuple"
        },
        {
          "indexed": false,
          "internalType": "uint256",
          "name": "swapDelta0",
          "type": "uint256"
        },
        {
          "indexed": false,
          "internalType": "uint256",
          "name": "swapDelta1",
          "type": "uint256"
        }
      ],
      "name": "LogRebalance",
      "type": "event"
    },
    {
      "anonymous": false,
      "inputs": [
        {
          "indexed": false,
          "internalType": "address[]",
          "name": "pools",
          "type": "address[]"
        }
      ],
      "name": "LogRemovePools",
      "type": "event"
    },
    {
      "anonymous": false,
      "inputs": [
        {
          "indexed": false,
          "internalType": "address",
          "name": "minter",
          "type": "address"
        }
      ],
      "name": "LogRestrictedMint",
      "type": "event"
    },
    {
      "anonymous": false,
      "inputs": [
        {
          "indexed": false,
          "internalType": "uint256",
          "name": "init0",
          "type": "uint256"
        },
        {
          "indexed": false,
          "internalType": "uint256",
          "name": "init1",
          "type": "uint256"
        }
      ],
      "name": "LogSetInits",
      "type": "event"
    },
    {
      "anonymous": false,
      "inputs": [
        {
          "indexed": false,
          "internalType": "address",
          "name": "newManager",
          "type": "address"
        }
      ],
      "name": "LogSetManager",
      "type": "event"
    },
    {
      "anonymous": false,
      "inputs": [
        {
          "indexed": false,
          "internalType": "uint16",
          "name": "managerFeeBPS",
          "type": "uint16"
        }
      ],
      "name": "LogSetManagerFeeBPS",
      "type": "event"
    },
    {
      "anonymous": false,
      "inputs": [
        {
          "indexed": false,
          "internalType": "address[]",
          "name": "routers",
          "type": "address[]"
        }
      ],
      "name": "LogWhitelistRouters",
      "type": "event"
    },
    {
      "anonymous": false,
      "inputs": [
        {
          "indexed": false,
          "internalType": "uint256",
          "name": "amount0",
          "type": "uint256"
        },
        {
          "indexed": false,
          "internalType": "uint256",
          "name": "amount1",
          "type": "uint256"
        }
      ],
      "name": "LogWithdrawManagerBalance",
      "type": "event"
    },
    {
      "anonymous": false,
      "inputs": [
        {
          "indexed": true,
          "internalType": "address",
          "name": "previousOwner",
          "type": "address"
        },
        {
          "indexed": true,
          "internalType": "address",
          "name": "newOwner",
          "type": "address"
        }
      ],
      "name": "OwnershipTransferred",
      "type": "event"
    },
    {
      "anonymous": false,
      "inputs": [
        {
          "indexed": true,
          "internalType": "address",
          "name": "from",
          "type": "address"
        },
        {
          "indexed": true,
          "internalType": "address",
          "name": "to",
          "type": "address"
        },
        {
          "indexed": false,
          "internalType": "uint256",
          "name": "value",
          "type": "uint256"
        }
      ],
      "name": "Transfer",
      "type": "event"
    },
    {
      "inputs": [
        {
          "internalType": "uint24[]",
          "name": "feeTiers_",
          "type": "uint24[]"
        }
      ],
      "name": "addPools",
      "outputs": [],
      "stateMutability": "nonpayable",
      "type": "function"
    },
    {
      "inputs": [
        {
          "internalType": "address",
          "name": "owner",
          "type": "address"
        },
        {
          "internalType": "address",
          "name": "spender",
          "type": "address"
        }
      ],
      "name": "allowance",
      "outputs": [
        {
          "internalType": "uint256",
          "name": "",
          "type": "uint256"
        }
      ],
      "stateMutability": "view",
      "type": "function"
    },
    {
      "inputs": [
        {
          "internalType": "address",
          "name": "spender",
          "type": "address"
        },
        {
          "internalType": "uint256",
          "name": "amount",
          "type": "uint256"
        }
      ],
      "name": "approve",
      "outputs": [
        {
          "internalType": "bool",
          "name": "",
          "type": "bool"
        }
      ],
      "stateMutability": "nonpayable",
      "type": "function"
    },
    {
      "inputs": [
        {
          "internalType": "address",
          "name": "account",
          "type": "address"
        }
      ],
      "name": "balanceOf",
      "outputs": [
        {
          "internalType": "uint256",
          "name": "",
          "type": "uint256"
        }
      ],
      "stateMutability": "view",
      "type": "function"
    },
    {
      "inputs": [
        {
          "internalType": "address[]",
          "name": "routers_",
          "type": "address[]"
        }
      ],
      "name": "blacklistRouters",
      "outputs": [],
      "stateMutability": "nonpayable",
      "type": "function"
    },
    {
      "inputs": [
        {
          "internalType": "uint256",
          "name": "burnAmount_",
          "type": "uint256"
        },
        {
          "internalType": "address",
          "name": "receiver_",
          "type": "address"
        }
      ],
      "name": "burn",
      "outputs": [
        {
          "internalType": "uint256",
          "name": "amount0",
          "type": "uint256"
        },
        {
          "internalType": "uint256",
          "name": "amount1",
          "type": "uint256"
        }
      ],
      "stateMutability": "nonpayable",
      "type": "function"
    },
    {
      "inputs": [],
      "name": "decimals",
      "outputs": [
        {
          "internalType": "uint8",
          "name": "",
          "type": "uint8"
        }
      ],
      "stateMutability": "view",
      "type": "function"
    },
    {
      "inputs": [
        {
          "internalType": "address",
          "name": "spender",
          "type": "address"
        },
        {
          "internalType": "uint256",
          "name": "subtractedValue",
          "type": "uint256"
        }
      ],
      "name": "decreaseAllowance",
      "outputs": [
        {
          "internalType": "bool",
          "name": "",
          "type": "bool"
        }
      ],
      "stateMutability": "nonpayable",
      "type": "function"
    },
    {
      "inputs": [],
      "name": "factory",
      "outputs": [
        {
          "internalType": "contract IUniswapV3Factory",
          "name": "",
          "type": "address"
        }
      ],
      "stateMutability": "view",
      "type": "function"
    },
    {
      "inputs": [],
      "name": "getPools",
      "outputs": [
        {
          "internalType": "address[]",
          "name": "",
          "type": "address[]"
        }
      ],
      "stateMutability": "view",
      "type": "function"
    },
    {
      "inputs": [],
      "name": "getRanges",
      "outputs": [
        {
          "components": [
            {
              "internalType": "int24",
              "name": "lowerTick",
              "type": "int24"
            },
            {
              "internalType": "int24",
              "name": "upperTick",
              "type": "int24"
            },
            {
              "internalType": "uint24",
              "name": "feeTier",
              "type": "uint24"
            }
          ],
          "internalType": "struct Range[]",
          "name": "",
          "type": "tuple[]"
        }
      ],
      "stateMutability": "view",
      "type": "function"
    },
    {
      "inputs": [],
      "name": "getRouters",
      "outputs": [
        {
          "internalType": "address[]",
          "name": "",
          "type": "address[]"
        }
      ],
      "stateMutability": "view",
      "type": "function"
    },
    {
      "inputs": [
        {
          "internalType": "address",
          "name": "spender",
          "type": "address"
        },
        {
          "internalType": "uint256",
          "name": "addedValue",
          "type": "uint256"
        }
      ],
      "name": "increaseAllowance",
      "outputs": [
        {
          "internalType": "bool",
          "name": "",
          "type": "bool"
        }
      ],
      "stateMutability": "nonpayable",
      "type": "function"
    },
    {
      "inputs": [],
      "name": "init0",
      "outputs": [
        {
          "internalType": "uint256",
          "name": "",
          "type": "uint256"
        }
      ],
      "stateMutability": "view",
      "type": "function"
    },
    {
      "inputs": [],
      "name": "init1",
      "outputs": [
        {
          "internalType": "uint256",
          "name": "",
          "type": "uint256"
        }
      ],
      "stateMutability": "view",
      "type": "function"
    },
    {
      "inputs": [
        {
          "internalType": "string",
          "name": "name_",
          "type": "string"
        },
        {
          "internalType": "string",
          "name": "symbol_",
          "type": "string"
        },
        {
          "components": [
            {
              "internalType": "uint24[]",
              "name": "feeTiers",
              "type": "uint24[]"
            },
            {
              "internalType": "address",
              "name": "token0",
              "type": "address"
            },
            {
              "internalType": "address",
              "name": "token1",
              "type": "address"
            },
            {
              "internalType": "address",
              "name": "owner",
              "type": "address"
            },
            {
              "internalType": "uint256",
              "name": "init0",
              "type": "uint256"
            },
            {
              "internalType": "uint256",
              "name": "init1",
              "type": "uint256"
            },
            {
              "internalType": "address",
              "name": "manager",
              "type": "address"
            },
            {
              "internalType": "address[]",
              "name": "routers",
              "type": "address[]"
            }
          ],
          "internalType": "struct InitializePayload",
          "name": "params_",
          "type": "tuple"
        }
      ],
      "name": "initialize",
      "outputs": [],
      "stateMutability": "nonpayable",
      "type": "function"
    },
    {
      "inputs": [],
      "name": "manager",
      "outputs": [
        {
          "internalType": "address",
          "name": "",
          "type": "address"
        }
      ],
      "stateMutability": "view",
      "type": "function"
    },
    {
      "inputs": [],
      "name": "managerBalance0",
      "outputs": [
        {
          "internalType": "uint256",
          "name": "",
          "type": "uint256"
        }
      ],
      "stateMutability": "view",
      "type": "function"
    },
    {
      "inputs": [],
      "name": "managerBalance1",
      "outputs": [
        {
          "internalType": "uint256",
          "name": "",
          "type": "uint256"
        }
      ],
      "stateMutability": "view",
      "type": "function"
    },
    {
      "inputs": [],
      "name": "managerFeeBPS",
      "outputs": [
        {
          "internalType": "uint16",
          "name": "",
          "type": "uint16"
        }
      ],
      "stateMutability": "view",
      "type": "function"
    },
    {
      "inputs": [
        {
          "internalType": "uint256",
          "name": "mintAmount_",
          "type": "uint256"
        },
        {
          "internalType": "address",
          "name": "receiver_",
          "type": "address"
        }
      ],
      "name": "mint",
      "outputs": [
        {
          "internalType": "uint256",
          "name": "amount0",
          "type": "uint256"
        },
        {
          "internalType": "uint256",
          "name": "amount1",
          "type": "uint256"
        }
      ],
      "stateMutability": "nonpayable",
      "type": "function"
    },
    {
      "inputs": [],
      "name": "name",
      "outputs": [
        {
          "internalType": "string",
          "name": "",
          "type": "string"
        }
      ],
      "stateMutability": "view",
      "type": "function"
    },
    {
      "inputs": [],
      "name": "owner",
      "outputs": [
        {
          "internalType": "address",
          "name": "",
          "type": "address"
        }
      ],
      "stateMutability": "view",
      "type": "function"
    },
    {
      "inputs": [
        {
          "components": [
            {
              "components": [
                {
                  "internalType": "uint128",
                  "name": "liquidity",
                  "type": "uint128"
                },
                {
                  "components": [
                    {
                      "internalType": "int24",
                      "name": "lowerTick",
                      "type": "int24"
                    },
                    {
                      "internalType": "int24",
                      "name": "upperTick",
                      "type": "int24"
                    },
                    {
                      "internalType": "uint24",
                      "name": "feeTier",
                      "type": "uint24"
                    }
                  ],
                  "internalType": "struct Range",
                  "name": "range",
                  "type": "tuple"
                }
              ],
              "internalType": "struct PositionLiquidity[]",
              "name": "burns",
              "type": "tuple[]"
            },
            {
              "components": [
                {
                  "internalType": "uint128",
                  "name": "liquidity",
                  "type": "uint128"
                },
                {
                  "components": [
                    {
                      "internalType": "int24",
                      "name": "lowerTick",
                      "type": "int24"
                    },
                    {
                      "internalType": "int24",
                      "name": "upperTick",
                      "type": "int24"
                    },
                    {
                      "internalType": "uint24",
                      "name": "feeTier",
                      "type": "uint24"
                    }
                  ],
                  "internalType": "struct Range",
                  "name": "range",
                  "type": "tuple"
                }
              ],
              "internalType": "struct PositionLiquidity[]",
              "name": "mints",
              "type": "tuple[]"
            },
            {
              "components": [
                {
                  "internalType": "bytes",
                  "name": "payload",
                  "type": "bytes"
                },
                {
                  "internalType": "address",
                  "name": "router",
                  "type": "address"
                },
                {
                  "internalType": "uint256",
                  "name": "amountIn",
                  "type": "uint256"
                },
                {
                  "internalType": "uint256",
                  "name": "expectedMinReturn",
                  "type": "uint256"
                },
                {
                  "internalType": "bool",
                  "name": "zeroForOne",
                  "type": "bool"
                }
              ],
              "internalType": "struct SwapPayload",
              "name": "swap",
              "type": "tuple"
            },
            {
              "internalType": "uint256",
              "name": "minBurn0",
              "type": "uint256"
            },
            {
              "internalType": "uint256",
              "name": "minBurn1",
              "type": "uint256"
            },
            {
              "internalType": "uint256",
              "name": "minDeposit0",
              "type": "uint256"
            },
            {
              "internalType": "uint256",
              "name": "minDeposit1",
              "type": "uint256"
            }
          ],
          "internalType": "struct Rebalance",
          "name": "rebalanceParams_",
          "type": "tuple"
        }
      ],
      "name": "rebalance",
      "outputs": [],
      "stateMutability": "nonpayable",
      "type": "function"
    },
    {
      "inputs": [
        {
          "internalType": "address[]",
          "name": "pools_",
          "type": "address[]"
        }
      ],
      "name": "removePools",
      "outputs": [],
      "stateMutability": "nonpayable",
      "type": "function"
    },
    {
      "inputs": [],
      "name": "renounceOwnership",
      "outputs": [],
      "stateMutability": "nonpayable",
      "type": "function"
    },
    {
      "inputs": [],
      "name": "restrictedMint",
      "outputs": [
        {
          "internalType": "address",
          "name": "",
          "type": "address"
        }
      ],
      "stateMutability": "view",
      "type": "function"
    },
    {
      "inputs": [
        {
          "internalType": "uint256",
          "name": "init0_",
          "type": "uint256"
        },
        {
          "internalType": "uint256",
          "name": "init1_",
          "type": "uint256"
        }
      ],
      "name": "setInits",
      "outputs": [],
      "stateMutability": "nonpayable",
      "type": "function"
    },
    {
      "inputs": [
        {
          "internalType": "address",
          "name": "manager_",
          "type": "address"
        }
      ],
      "name": "setManager",
      "outputs": [],
      "stateMutability": "nonpayable",
      "type": "function"
    },
    {
      "inputs": [
        {
          "internalType": "uint16",
          "name": "managerFeeBPS_",
          "type": "uint16"
        }
      ],
      "name": "setManagerFeeBPS",
      "outputs": [],
      "stateMutability": "nonpayable",
      "type": "function"
    },
    {
      "inputs": [
        {
          "internalType": "address",
          "name": "minter_",
          "type": "address"
        }
      ],
      "name": "setRestrictedMint",
      "outputs": [],
      "stateMutability": "nonpayable",
      "type": "function"
    },
    {
      "inputs": [],
      "name": "symbol",
      "outputs": [
        {
          "internalType": "string",
          "name": "",
          "type": "string"
        }
      ],
      "stateMutability": "view",
      "type": "function"
    },
    {
      "inputs": [],
      "name": "token0",
      "outputs": [
        {
          "internalType": "contract IERC20",
          "name": "",
          "type": "address"
        }
      ],
      "stateMutability": "view",
      "type": "function"
    },
    {
      "inputs": [],
      "name": "token1",
      "outputs": [
        {
          "internalType": "contract IERC20",
          "name": "",
          "type": "address"
        }
      ],
      "stateMutability": "view",
      "type": "function"
    },
    {
      "inputs": [],
      "name": "totalSupply",
      "outputs": [
        {
          "internalType": "uint256",
          "name": "",
          "type": "uint256"
        }
      ],
      "stateMutability": "view",
      "type": "function"
    },
    {
      "inputs": [
        {
          "internalType": "address",
          "name": "to",
          "type": "address"
        },
        {
          "internalType": "uint256",
          "name": "amount",
          "type": "uint256"
        }
      ],
      "name": "transfer",
      "outputs": [
        {
          "internalType": "bool",
          "name": "",
          "type": "bool"
        }
      ],
      "stateMutability": "nonpayable",
      "type": "function"
    },
    {
      "inputs": [
        {
          "internalType": "address",
          "name": "from",
          "type": "address"
        },
        {
          "internalType": "address",
          "name": "to",
          "type": "address"
        },
        {
          "internalType": "uint256",
          "name": "amount",
          "type": "uint256"
        }
      ],
      "name": "transferFrom",
      "outputs": [
        {
          "internalType": "bool",
          "name": "",
          "type": "bool"
        }
      ],
      "stateMutability": "nonpayable",
      "type": "function"
    },
    {
      "inputs": [
        {
          "internalType": "address",
          "name": "newOwner",
          "type": "address"
        }
      ],
      "name": "transferOwnership",
      "outputs": [],
      "stateMutability": "nonpayable",
      "type": "function"
    },
    {
      "inputs": [
        {
          "internalType": "uint256",
          "name": "amount0Owed_",
          "type": "uint256"
        },
        {
          "internalType": "uint256",
          "name": "amount1Owed_",
          "type": "uint256"
        },
        {
          "internalType": "bytes",
          "name": "",
          "type": "bytes"
        }
      ],
      "name": "uniswapV3MintCallback",
      "outputs": [],
      "stateMutability": "nonpayable",
      "type": "function"
    },
    {
      "inputs": [
        {
          "internalType": "address[]",
          "name": "routers_",
          "type": "address[]"
        }
      ],
      "name": "whitelistRouters",
      "outputs": [],
      "stateMutability": "nonpayable",
      "type": "function"
    },
    {
      "inputs": [],
      "name": "withdrawManagerBalance",
      "outputs": [],
      "stateMutability": "nonpayable",
      "type": "function"
    }
  ],
  "transactionHash": "0xb18aad748949470b87f2b4e26aa72afdf5a74cba9fafd8a28759f4c75bd5f06f",
  "args": [
    "0x1F98431c8aD98523631AE4a59f267346ea31F984"
  ],
  "numDeployments": 2,
  "solcInputHash": "09ea83f08c7e9f02549d56d0e42f83c3",
  "bytecode": "0x60a06040523480156200001157600080fd5b50604051620060b6380380620060b6833981016040819052620000349162000088565b806001600160a01b038116620000755760405162461bcd60e51b81526020600482015260026024820152612d2360f11b604482015260640160405180910390fd5b6001600160a01b031660805250620000ba565b6000602082840312156200009b57600080fd5b81516001600160a01b0381168114620000b357600080fd5b9392505050565b608051615faf620001076000396000818161052201528181610f0401528181611b9b0152818161243a015281816126d60152818161334c01528181613bfb0152613f7b0152615faf6000f3fe608060405234801561001057600080fd5b50600436106102d35760003560e01c806386ac1cb911610186578063c7a4ae17116100e3578063dd62ed3e11610097578063f2fde38b11610071578063f2fde38b14610606578063f88c31ce14610619578063fcd3533c1461062157600080fd5b8063dd62ed3e146105b1578063e4fadbce146105ea578063f2eb3e34146105fd57600080fd5b8063d0ebdbe7116100c8578063d0ebdbe714610578578063d21220a71461058b578063d34879971461059e57600080fd5b8063c7a4ae1714610544578063ccdf7a021461055757600080fd5b806395d89b411161013a578063a5ff1dc71161011f578063a5ff1dc7146104f7578063a9059cbb1461050a578063c45a01551461051d57600080fd5b806395d89b41146104dc578063a457c2d7146104e457600080fd5b80638da5cb5b1161016b5780638da5cb5b1461049057806392e49dfd146104a157806394bf804d146104b457600080fd5b806386ac1cb91461046a5780638712e4971461047d57600080fd5b80633f7b613511610234578063617a3419116101e857806370a08231116101cd57806370a0823114610431578063715018a61461045a5780637ecd67171461046257600080fd5b8063617a341914610407578063673a2a1f1461041c57600080fd5b80634794c84a116102195780634794c84a146103ce578063481c6a75146103e15780634b164140146103f457600080fd5b80633f7b6135146103b257806342fb9d44146103c557600080fd5b806314b806301161028b57806323b872dd1161027057806323b872dd1461037d578063313ce56714610390578063395093511461039f57600080fd5b806314b806301461036c57806318160ddd1461037557600080fd5b8063095ea7b3116102bc578063095ea7b3146103095780630d6e66311461032c5780630dfe16811461034157600080fd5b8063065756db146102d857806306fdde03146102f4575b600080fd5b6102e160ce5481565b6040519081526020015b60405180910390f35b6102fc610634565b6040516102eb9190615265565b61031c6103173660046152b8565b6106c6565b60405190151581526020016102eb565b61033f61033a3660046152e4565b6106e0565b005b60c954610354906001600160a01b031681565b6040516001600160a01b0390911681526020016102eb565b6102e160cb5481565b6067546102e1565b61031c61038b366004615301565b610793565b604051601281526020016102eb565b61031c6103ad3660046152b8565b6107b9565b61033f6103c0366004615342565b6107f8565b6102e160cf5481565b61033f6103dc366004615364565b610924565b60d054610354906001600160a01b031681565b61033f6104023660046153d4565b610a4e565b61040f610b99565b6040516102eb9190615416565b610424610c1c565b6040516102eb9190615486565b6102e161043f3660046152e4565b6001600160a01b031660009081526065602052604090205490565b61033f610ccc565b61033f610d32565b61033f6104783660046153d4565b610d98565b61033f61048b3660046154c7565b610e43565b6033546001600160a01b0316610354565b61033f6104af3660046153d4565b612160565b6104c76104c2366004615502565b612297565b604080519283526020830191909152016102eb565b6102fc612937565b61031c6104f23660046152b8565b612946565b61033f6105053660046153d4565b6129fb565b61031c6105183660046152b8565b612a63565b6103547f000000000000000000000000000000000000000000000000000000000000000081565b60d154610354906001600160a01b031681565b60cd546105659061ffff1681565b60405161ffff90911681526020016102eb565b61033f6105863660046152e4565b612a71565b60ca54610354906001600160a01b031681565b61033f6105ac366004615574565b612b80565b6102e16105bf3660046155c7565b6001600160a01b03918216600090815260666020908152604080832093909416825291909152205490565b61033f6105f83660046155f5565b612b90565b6102e160cc5481565b61033f6106143660046152e4565b61301f565b610424613101565b6104c761062f366004615502565b6131aa565b60606068805461064390615691565b80601f016020809104026020016040519081016040528092919081815260200182805461066f90615691565b80156106bc5780601f10610691576101008083540402835291602001916106bc565b820191906000526020600020905b81548152906001019060200180831161069f57829003601f168201915b5050505050905090565b6000336106d48185856137ac565b60019150505b92915050565b6033546001600160a01b0316331461073f5760405162461bcd60e51b815260206004820181905260248201527f4f776e61626c653a2063616c6c6572206973206e6f7420746865206f776e657260448201526064015b60405180910390fd5b60d180546001600160a01b0319166001600160a01b0383169081179091556040519081527f6b7f177e85ebe3aabaf1339b9a445ac908b2bef730372180fa280958e2414ee39060200160405180910390a150565b6000336107a18582856138d0565b6107ac85858561395c565b60019150505b9392505050565b3360008181526066602090815260408083206001600160a01b03871684529091528120549091906106d490829086906107f39087906156e1565b6137ac565b60008211806108075750600081115b6108375760405162461bcd60e51b81526020600482015260016024820152604960f81b6044820152606401610736565b6067541561086c5760405162461bcd60e51b8152602060048201526002602482015261545360f01b6044820152606401610736565b60d1546000906001600160a01b0316156108915760d1546001600160a01b031661089e565b6033546001600160a01b03165b9050336001600160a01b038216146108dc5760405162461bcd60e51b81526020600482015260016024820152602960f91b6044820152606401610736565b60cb83905560cc82905560408051848152602081018490527ff8966e026442bb0adb17149a6d44e394d2b6eb3c5cc1dc71b3c0698000548ae6910160405180910390a1505050565b60d0546001600160a01b031633146109635760405162461bcd60e51b81526020600482015260026024820152614e4d60f01b6044820152606401610736565b6002609754036109b55760405162461bcd60e51b815260206004820152601f60248201527f5265656e7472616e637947756172643a207265656e7472616e742063616c6c006044820152606401610736565b600260975561271061ffff821611156109f65760405162461bcd60e51b81526020600482015260036024820152624d464f60e81b6044820152606401610736565b6109fe613b59565b60cd805461ffff191661ffff83169081179091556040519081527fa73ff0774d4c8681f79fa6546f34bab7a3037f3b3aab405401a1fd8c6e5ca3d6906020015b60405180910390a1506001609755565b6033546001600160a01b03163314610aa85760405162461bcd60e51b815260206004820181905260248201527f4f776e61626c653a2063616c6c6572206973206e6f7420746865206f776e65726044820152606401610736565b60005b81811015610b5b57610ae5838383818110610ac857610ac86156f9565b9050602002016020810190610add91906152e4565b60d390613d7a565b610b165760405162461bcd60e51b815260206004820152600260248201526104e560f41b6044820152606401610736565b610b48838383818110610b2b57610b2b6156f9565b9050602002016020810190610b4091906152e4565b60d390613d9c565b5080610b538161570f565b915050610aab565b507f024551cce253d1a442bfe99dae530a00a492fb8c67c4456cce3c9d23eecd39618282604051610b8d929190615728565b60405180910390a15050565b606060d2805480602002602001604051908101604052809291908181526020016000905b82821015610c135760008481526020908190206040805160608101825291850154600281810b845263010000008204900b838501526601000000000000900462ffffff1690820152825260019092019101610bbd565b50505050905090565b60606000610c2a60d3613db1565b905060008167ffffffffffffffff811115610c4757610c47615776565b604051908082528060200260200182016040528015610c70578160200160208202803683370190505b50905060005b82811015610cc557610c8960d382613dbb565b828281518110610c9b57610c9b6156f9565b6001600160a01b039092166020928302919091019091015280610cbd8161570f565b915050610c76565b5092915050565b6033546001600160a01b03163314610d265760405162461bcd60e51b815260206004820181905260248201527f4f776e61626c653a2063616c6c6572206973206e6f7420746865206f776e65726044820152606401610736565b610d306000613dc7565b565b600260975403610d845760405162461bcd60e51b815260206004820152601f60248201527f5265656e7472616e637947756172643a207265656e7472616e742063616c6c006044820152606401610736565b6002609755610d91613e19565b6001609755565b6033546001600160a01b03163314610df25760405162461bcd60e51b815260206004820181905260248201527f4f776e61626c653a2063616c6c6572206973206e6f7420746865206f776e65726044820152606401610736565b60c95460ca54610e1291849184916001600160a01b039081169116613f6c565b7f1b402611d70c7735d942445aaa3ebbf878149bece6b797870b44a581c5f7f4c98282604051610b8d92919061579d565b60d0546001600160a01b03163314610e825760405162461bcd60e51b81526020600482015260026024820152614e4d60f01b6044820152606401610736565b600260975403610ed45760405162461bcd60e51b815260206004820152601f60248201527f5265656e7472616e637947756172643a207265656e7472616e742063616c6c006044820152606401610736565b600260975560c95460ca5460408051608081018252600080825260208201819052918101829052606081018290527f0000000000000000000000000000000000000000000000000000000000000000936001600160a01b039081169316915b610f3d86806157dc565b90508110156114615760006001600160a01b038616631698ee828686610f638b806157dc565b87818110610f7357610f736156f9565b610f8a926080918202019081019150606001615826565b6040516001600160e01b031960e086901b1681526001600160a01b03938416600482015292909116602483015262ffffff166044820152606401602060405180830381865afa158015610fe1573d6000803e3d6000fd5b505050506040513d601f19601f820116820180604052508101906110059190615843565b90506000738638FbD429b19249bb3BCF3Ec72d07a657E49642635f49415b833061102f8c806157dc565b8881811061103f5761103f6156f9565b611058926040608090920201908101915060200161586f565b6110628d806157dc565b89818110611072576110726156f9565b61108b926060608090920201908101915060400161586f565b6040516001600160e01b031960e087901b1681526001600160a01b039485166004820152939092166024840152600290810b60448401520b6064820152608401602060405180830381865af41580156110e8573d6000803e3d6000fd5b505050506040513d601f19601f8201168201806040525081019061110c91906158a1565b9050806001600160801b031660000361112657505061144f565b60006001600160801b0361113a8a806157dc565b8681811061114a5761114a6156f9565b61116092602060809092020190810191506158be565b6001600160801b0316036111755750806111a8565b61117f89806157dc565b8581811061118f5761118f6156f9565b6111a592602060809092020190810191506158be565b90505b600061121a846111b88c806157dc565b888181106111c8576111c86156f9565b6111e1926040608090920201908101915060200161586f565b6111eb8d806157dc565b898181106111fb576111fb6156f9565b611214926060608090920201908101915060400161586f565b856140ec565b9050826001600160801b0316826001600160801b0316036113eb57600080738638FbD429b19249bb3BCF3Ec72d07a657E49642630c3c0bfc60d261125e8f806157dc565b8b81811061126e5761126e6156f9565b9050608002016020016040518363ffffffff1660e01b815260040161129492919061591f565b6040805180830381865af41580156112b0573d6000803e3d6000fd5b505050506040513d601f19601f820116820180604052508101906112d491906159a8565b915091508161130e5760405162461bcd60e51b81526004016107369060208082526004908201526352524e4560e01b604082015260600190565b60d2805461131e906001906159d6565b8154811061132e5761132e6156f9565b9060005260206000200160d2828154811061134b5761134b6156f9565b6000918252602090912082549101805462ffffff92831662ffffff19821681178355845463010000009081900485160265ffffffffffff199092161717808255925466010000000000009081900490921690910268ffffff0000000000001990921691909117905560d28054806113c4576113c46159ed565b6000828152602090208101600019908101805468ffffffffffffffffff1916905501905550505b8051865187906113fc9083906156e1565b90525060208082015190870180516114159083906156e1565b905250604080820151908701805161142e9083906156e1565b90525060608082015190870180516114479083906156e1565b905250505050505b806114598161570f565b915050610f33565b5080516060860135111561149c5760405162461bcd60e51b8152602060048201526002602482015261042360f41b6044820152606401610736565b8460800135816020015110156114d95760405162461bcd60e51b8152602060048201526002602482015261423160f01b6044820152606401610736565b6000816040015111806114f0575060008160600151115b1561154857611507816040015182606001516141e5565b6040808201516060830151825191825260208201527fdbbb3a796242c9562af701570b096cb2478cd507fcd2d4080025883b10a623a5910160405180910390a15b5060006115586040860186615a03565b604001351115611a8a5761158b6115726040860186615a03565b6115839060408101906020016152e4565b60d590613d7a565b6115bc5760405162461bcd60e51b8152602060048201526002602482015261272960f11b6044820152606401610736565b6040516370a0823160e01b81523060048201526000906001600160a01b038416906370a0823190602401602060405180830381865afa158015611603573d6000803e3d6000fd5b505050506040513d601f19601f820116820180604052508101906116279190615a23565b6040516370a0823160e01b81523060048201529091506000906001600160a01b038416906370a0823190602401602060405180830381865afa158015611671573d6000803e3d6000fd5b505050506040513d601f19601f820116820180604052508101906116959190615a23565b90506116ca6116a76040880188615a03565b6116b89060408101906020016152e4565b6001600160a01b038616906000614250565b6116fd6116da6040880188615a03565b6116eb9060408101906020016152e4565b6001600160a01b038516906000614250565b61172f61170d6040880188615a03565b61171e9060408101906020016152e4565b6001600160a01b0386169084614250565b61176161173f6040880188615a03565b6117509060408101906020016152e4565b6001600160a01b0385169083614250565b60006117706040880188615a03565b6117819060408101906020016152e4565b6001600160a01b03166117976040890189615a03565b6117a19080615a3c565b6040516117af929190615a83565b6000604051808303816000865af19150503d80600081146117ec576040519150601f19603f3d011682016040523d82523d6000602084013e6117f1565b606091505b50509050806118275760405162461bcd60e51b8152602060048201526002602482015261534360f01b6044820152606401610736565b6040516370a0823160e01b81523060048201526000906001600160a01b038716906370a0823190602401602060405180830381865afa15801561186e573d6000803e3d6000fd5b505050506040513d601f19601f820116820180604052508101906118929190615a23565b6040516370a0823160e01b81523060048201529091506000906001600160a01b038716906370a0823190602401602060405180830381865afa1580156118dc573d6000803e3d6000fd5b505050506040513d601f19601f820116820180604052508101906119009190615a23565b905061190f60408a018a615a03565b6119209060a0810190608001615a9e565b156119b75761193260408a018a615a03565b6119409060600135856156e1565b8110158015611969575061195760408a018a615a03565b6119659060400135866159d6565b8210155b61199a5760405162461bcd60e51b815260206004820152600260248201526129a360f11b6044820152606401610736565b6119a482866159d6565b91506119b084826159d6565b9050611a45565b6119c460408a018a615a03565b6119d29060600135866156e1565b82101580156119fb57506119e960408a018a615a03565b6119f79060400135856159d6565b8110155b611a2c5760405162461bcd60e51b815260206004820152600260248201526129a360f11b6044820152606401610736565b611a3685836159d6565b9150611a4281856159d6565b90505b7fab3abe7e2ad787892344ed4ada44aad53c7d53e9d6b5ee91f20bd30ed39540b7898383604051611a7893929190615ccb565b60405180910390a15050505050611ac7565b7fab3abe7e2ad787892344ed4ada44aad53c7d53e9d6b5ee91f20bd30ed39540b784600080604051611abe93929190615ccb565b60405180910390a15b60008060005b611ada60208801886157dc565b9050811015611f9a576000738638FbD429b19249bb3BCF3Ec72d07a657E49642630c3c0bfc60d2611b0e60208c018c6157dc565b86818110611b1e57611b1e6156f9565b9050608002016020016040518363ffffffff1660e01b8152600401611b4492919061591f565b6040805180830381865af4158015611b60573d6000803e3d6000fd5b505050506040513d601f19601f82011682018060405250810190611b8491906159a8565b5060c95460ca549192506000916001600160a01b037f0000000000000000000000000000000000000000000000000000000000000000811692631698ee82929082169116611bd560208e018e6157dc565b88818110611be557611be56156f9565b611bfc926080918202019081019150606001615826565b6040516001600160e01b031960e086901b1681526001600160a01b03938416600482015292909116602483015262ffffff166044820152606401602060405180830381865afa158015611c53573d6000803e3d6000fd5b505050506040513d601f19601f82011682018060405250810190611c779190615843565b905081611e18576001600160a01b038116611cba5760405162461bcd60e51b815260206004820152600360248201526204e55560ec1b6044820152606401610736565b611cc560d382613d7a565b611cf55760405162461bcd60e51b81526020600482015260016024820152600560fc1b6044820152606401610736565b73Ca0e1b56007Df7d22214aa584678618B3BE96a25636b01882082611d1d60208d018d6157dc565b87818110611d2d57611d2d6156f9565b9050608002016020016040518363ffffffff1660e01b8152600401611d53929190615cf0565b602060405180830381865af4158015611d70573d6000803e3d6000fd5b505050506040513d601f19601f82011682018060405250810190611d949190615d0d565b611dc65760405162461bcd60e51b815260206004820152600360248201526252545360e81b6044820152606401610736565b60d2611dd560208b018b6157dc565b85818110611de557611de56156f9565b8354600181018555600094855260209485902060809092029390930193909301929091019050611e158282615d2a565b50505b6000806001600160a01b038316633c8a7d8d30611e3860208f018f6157dc565b89818110611e4857611e486156f9565b611e61926040608090920201908101915060200161586f565b8e8060200190611e7191906157dc565b8a818110611e8157611e816156f9565b611e9a926060608090920201908101915060400161586f565b8f8060200190611eaa91906157dc565b8b818110611eba57611eba6156f9565b611ed092602060809092020190810191506158be565b6040516001600160e01b031960e087901b1681526001600160a01b039094166004850152600292830b6024850152910b60448301526001600160801b0316606482015260a06084820152600060a482015260c40160408051808303816000875af1158015611f42573d6000803e3d6000fd5b505050506040513d601f19601f82011682018060405250810190611f669190615db6565b9092509050611f7582886156e1565b9650611f8181876156e1565b9550505050508080611f929061570f565b915050611acd565b508560a00135821015611fd45760405162461bcd60e51b8152602060048201526002602482015261044360f41b6044820152606401610736565b8560c0013581101561200d5760405162461bcd60e51b8152602060048201526002602482015261443160f01b6044820152606401610736565b60ce5460c9546040516370a0823160e01b81523060048201526001600160a01b03909116906370a0823190602401602060405180830381865afa158015612058573d6000803e3d6000fd5b505050506040513d601f19601f8201168201806040525081019061207c9190615a23565b10156120b05760405162461bcd60e51b815260206004820152600360248201526204d42360ec1b6044820152606401610736565b60cf5460ca546040516370a0823160e01b81523060048201526001600160a01b03909116906370a0823190602401602060405180830381865afa1580156120fb573d6000803e3d6000fd5b505050506040513d601f19601f8201168201806040525081019061211f9190615a23565b10156121535760405162461bcd60e51b81526020600482015260036024820152624d423160e81b6044820152606401610736565b5050600160975550505050565b6033546001600160a01b031633146121ba5760405162461bcd60e51b815260206004820181905260248201527f4f776e61626c653a2063616c6c6572206973206e6f7420746865206f776e65726044820152606401610736565b60005b81811015612265576121ef8383838181106121da576121da6156f9565b905060200201602081019061158391906152e4565b6122205760405162461bcd60e51b8152602060048201526002602482015261525760f01b6044820152606401610736565b612252838383818110612235576122356156f9565b905060200201602081019061224a91906152e4565b60d590613d9c565b508061225d8161570f565b9150506121bd565b507fbe6c83115c5bf7fd07e41c6002394841bd7dc0348f3b7c58645e8950f604f5c48282604051610b8d929190615728565b6000806002609754036122ec5760405162461bcd60e51b815260206004820152601f60248201527f5265656e7472616e637947756172643a207265656e7472616e742063616c6c006044820152606401610736565b6002609755836123235760405162461bcd60e51b81526020600482015260026024820152614d4160f01b6044820152606401610736565b60d1546001600160a01b03161580612345575060d1546001600160a01b031633145b6123755760405162461bcd60e51b81526020600482015260016024820152602960f91b6044820152606401610736565b30600061238160675490565b905080158015906124f1577339b9891bA3C5a8Fe69c19F54Db2fd90A483B780A6383d7ba9f6040518060a0016040528060d2805480602002602001604051908101604052809291908181526020016000905b828210156124295760008481526020908190206040805160608101825291850154600281810b845263010000008204900b838501526601000000000000900462ffffff16908201528252600190920191016123d3565b505050908252506001600160a01b037f00000000000000000000000000000000000000000000000000000000000000008116602083015260c954811660408084019190915260ca5482166060840152908816608090920191909152516001600160e01b031960e084901b1681526124a791908b908790600401615dda565b6040805180830381865af41580156124c3573d6000803e3d6000fd5b505050506040513d601f19601f820116820180604052508101906124e79190615db6565b90955093506125eb565b60cb5460cc54670de0b6b3a7640000919061250d8a83856143b9565b975061251a8a82856143b9565b96506125278a8385614402565b60000361253357600097505b61253e8a8285614402565b60000361254a57600096505b60008260000361255c57600019612567565b612567898585614402565b905060008260000361257b57600019612586565b612586898685614402565b90508b8183106125965781612598565b825b146125e55760405162461bcd60e51b815260206004820152600560248201527f41302641310000000000000000000000000000000000000000000000000000006044820152606401610736565b50505050505b6125f586886144b0565b84156126135760c954612613906001600160a01b031633858861458f565b83156126315760ca54612631906001600160a01b031633858761458f565b80156128da5760005b60d2548110156128d857600060d28281548110612659576126596156f9565b60009182526020808320604080516060810182529390910154600281810b855263010000008204900b92840192909252660100000000000090910462ffffff1682820181905260c95460ca549251630b4c774160e11b81526001600160a01b039182166004820152928116602484015260448301919091529193507f000000000000000000000000000000000000000000000000000000000000000090911690631698ee8290606401602060405180830381865afa15801561271f573d6000803e3d6000fd5b505050506040513d601f19601f820116820180604052508101906127439190615843565b82516020840151604051635f49415b60e01b81526001600160a01b0380851660048301528a166024820152600292830b6044820152910b6064820152909150600090738638FbD429b19249bb3BCF3Ec72d07a657E4964290635f49415b90608401602060405180830381865af41580156127c1573d6000803e3d6000fd5b505050506040513d601f19601f820116820180604052508101906127e591906158a1565b90506128036127fe826001600160801b03168d89614402565b6145c7565b9050806001600160801b031660000361281e575050506128c6565b82516020840151604051633c8a7d8d60e01b81526001600160a01b038a81166004830152600293840b60248301529190920b60448301526001600160801b038316606483015260a06084830152600060a4830152831690633c8a7d8d9060c40160408051808303816000875af115801561289c573d6000803e3d6000fd5b505050506040513d601f19601f820116820180604052508101906128c09190615db6565b50505050505b806128d08161570f565b91505061263a565b505b60408051888152602081018790529081018590526001600160a01b038716907f5f11830295067c4bcc7d02d4e3b048cd7427be50a3aeb6afc9d3d559ee64bcfa9060600160405180910390a2505060016097555090939092509050565b60606069805461064390615691565b3360008181526066602090815260408083206001600160a01b0387168452909152812054909190838110156129e35760405162461bcd60e51b815260206004820152602560248201527f45524332303a2064656372656173656420616c6c6f77616e63652062656c6f7760448201527f207a65726f0000000000000000000000000000000000000000000000000000006064820152608401610736565b6129f082868684036137ac565b506001949350505050565b6033546001600160a01b03163314612a555760405162461bcd60e51b815260206004820181905260248201527f4f776e61626c653a2063616c6c6572206973206e6f7420746865206f776e65726044820152606401610736565b612a5f828261464a565b5050565b6000336106d481858561395c565b6033546001600160a01b03163314612acb5760405162461bcd60e51b815260206004820181905260248201527f4f776e61626c653a2063616c6c6572206973206e6f7420746865206f776e65726044820152606401610736565b600260975403612b1d5760405162461bcd60e51b815260206004820152601f60248201527f5265656e7472616e637947756172643a207265656e7472616e742063616c6c006044820152606401610736565b6002609755612b2a613b59565b612b32613e19565b60d080546001600160a01b0319166001600160a01b0383169081179091556040519081527f9b6ffaf4cbfd923495440b7f17ced9394289f001b3ead53ab67e2c3f3e39b0f590602001610a3e565b612b8a84846147c8565b50505050565b6000612b9c600161483e565b90508015612bb4576000805461ff0019166101001790555b6000612bc08380615e97565b905011612bf55760405162461bcd60e51b815260206004820152600360248201526213919560ea1b6044820152606401610736565b6000612c0760408401602085016152e4565b6001600160a01b031603612c425760405162461bcd60e51b8152602060048201526002602482015261054360f41b6044820152606401610736565b612c5260608301604084016152e4565b6001600160a01b0316612c6b60408401602085016152e4565b6001600160a01b031610612ca75760405162461bcd60e51b815260206004820152600360248201526257544f60e81b6044820152606401610736565b6000612cb960808401606085016152e4565b6001600160a01b031603612cf55760405162461bcd60e51b815260206004820152600360248201526227a0ad60e91b6044820152606401610736565b6000612d0760e0840160c085016152e4565b6001600160a01b031603612d435760405162461bcd60e51b815260206004820152600360248201526226a0ad60e91b6044820152606401610736565b600082608001351180612d5a575060008260a00135115b612d8a5760405162461bcd60e51b81526020600482015260016024820152604960f81b6044820152606401610736565b612dfd86868080601f01602080910402602001604051908101604052809392919081815260200183838082843760009201919091525050604080516020601f8a01819004810282018101909252888152925088915087908190840183828082843760009201919091525061495992505050565b612e056149ce565b612e37612e128380615e97565b612e2260408601602087016152e4565b612e3260608701604088016152e4565b613f6c565b612e4760408301602084016152e4565b60c980546001600160a01b0319166001600160a01b0392909216919091179055612e7760608301604084016152e4565b60ca80546001600160a01b0319166001600160a01b0392909216919091179055612eac612ea760e0840184615e97565b61464a565b612ec4612ebf60808401606085016152e4565b613dc7565b612ed460e0830160c084016152e4565b60d080546001600160a01b0319166001600160a01b0392909216919091179055608082013560cb5560a082013560cc557f1b402611d70c7735d942445aaa3ebbf878149bece6b797870b44a581c5f7f4c9612f2f8380615e97565b604051612f3d92919061579d565b60405180910390a1604080516080840135815260a084013560208201527ff8966e026442bb0adb17149a6d44e394d2b6eb3c5cc1dc71b3c0698000548ae6910160405180910390a17f9b6ffaf4cbfd923495440b7f17ced9394289f001b3ead53ab67e2c3f3e39b0f5612fb660e0840160c085016152e4565b6040516001600160a01b03909116815260200160405180910390a18015613017576000805461ff0019169055604051600181527f7f26b83ff96e1f2b6a682f133852f6798a09c465da95921460cefb38474024989060200160405180910390a15b505050505050565b6033546001600160a01b031633146130795760405162461bcd60e51b815260206004820181905260248201527f4f776e61626c653a2063616c6c6572206973206e6f7420746865206f776e65726044820152606401610736565b6001600160a01b0381166130f55760405162461bcd60e51b815260206004820152602660248201527f4f776e61626c653a206e6577206f776e657220697320746865207a65726f206160448201527f64647265737300000000000000000000000000000000000000000000000000006064820152608401610736565b6130fe81613dc7565b50565b6060600061310f60d5613db1565b905060008167ffffffffffffffff81111561312c5761312c615776565b604051908082528060200260200182016040528015613155578160200160208202803683370190505b50905060005b82811015610cc55761316e60d582613dbb565b828281518110613180576131806156f9565b6001600160a01b0390921660209283029190910190910152806131a28161570f565b91505061315b565b6000806002609754036131ff5760405162461bcd60e51b815260206004820152601f60248201527f5265656e7472616e637947756172643a207265656e7472616e742063616c6c006044820152606401610736565b6002609755836132365760405162461bcd60e51b8152602060048201526002602482015261424160f01b6044820152606401610736565b600061324160675490565b9050600081116132785760405162461bcd60e51b8152602060048201526002602482015261545360f01b6044820152606401610736565b6132823386614a41565b6132ad6040518060800160405280600081526020016000815260200160008152602001600081525090565b60005b60d25481101561351b57600060d282815481106132cf576132cf6156f9565b60009182526020808320604080516060810182529390910154600281810b855263010000008204900b92840192909252660100000000000090910462ffffff1682820181905260c95460ca549251630b4c774160e11b81526001600160a01b039182166004820152928116602484015260448301919091529193507f000000000000000000000000000000000000000000000000000000000000000090911690631698ee8290606401602060405180830381865afa158015613395573d6000803e3d6000fd5b505050506040513d601f19601f820116820180604052508101906133b99190615843565b82516020840151604051635f49415b60e01b81526001600160a01b0384166004820152306024820152600292830b6044820152910b6064820152909150600090738638FbD429b19249bb3BCF3Ec72d07a657E4964290635f49415b90608401602060405180830381865af4158015613435573d6000803e3d6000fd5b505050506040513d601f19601f8201168201806040525081019061345991906158a1565b90506134726127fe826001600160801b03168c89614402565b9050806001600160801b031660000361348d57505050613509565b60006134a38385600001518660200151856140ec565b90508060400151866040018181516134bb91906156e1565b90525060608082015190870180516134d49083906156e1565b9052508051865187906134e89083906156e1565b90525060208082015190870180516135019083906156e1565b905250505050505b806135138161570f565b9150506132b0565b5081860361352f5761352f60d26000615165565b613541816040015182606001516141e5565b805160ce5460c9546040516370a0823160e01b815230600482015260009392916001600160a01b0316906370a0823190602401602060405180830381865afa158015613591573d6000803e3d6000fd5b505050506040513d601f19601f820116820180604052508101906135b59190615a23565b6135bf91906159d6565b6135c991906159d6565b602083015160cf5460ca546040516370a0823160e01b81523060048201529394506000936001600160a01b03909116906370a0823190602401602060405180830381865afa15801561361f573d6000803e3d6000fd5b505050506040513d601f19601f820116820180604052508101906136439190615a23565b61364d91906159d6565b61365791906159d6565b9050613664828986614402565b9550613671818986614402565b835190955061368090876156e1565b955082602001518561369291906156e1565b945085156136b15760c9546136b1906001600160a01b03168888614b8f565b84156136ce5760ca546136ce906001600160a01b03168887614b8f565b8251602080850151604080519384529183015233917fbcc5876d59ecdf66ef7ccae24657b11650939218782f8d741e78fd3c35d285a3910160405180910390a26040808401516060850151825191825260208201527fdbbb3a796242c9562af701570b096cb2478cd507fcd2d4080025883b10a623a5910160405180910390a160408051898152602081018890529081018690526001600160a01b038816907f86dacd5ce62967ebd3d915a82b22ad7e159538e50c7ba451e073fec048d9f1279060600160405180910390a250506001609755509194909350915050565b6001600160a01b03831661380e5760405162461bcd60e51b8152602060048201526024808201527f45524332303a20617070726f76652066726f6d20746865207a65726f206164646044820152637265737360e01b6064820152608401610736565b6001600160a01b03821661386f5760405162461bcd60e51b815260206004820152602260248201527f45524332303a20617070726f766520746f20746865207a65726f206164647265604482015261737360f01b6064820152608401610736565b6001600160a01b0383811660008181526066602090815260408083209487168084529482529182902085905590518481527f8c5be1e5ebec7d5bd14f71427d1e84f3dd0314c0f7b2291e5b200ac8c7c3b925910160405180910390a3505050565b6001600160a01b038381166000908152606660209081526040808320938616835292905220546000198114612b8a578181101561394f5760405162461bcd60e51b815260206004820152601d60248201527f45524332303a20696e73756666696369656e7420616c6c6f77616e63650000006044820152606401610736565b612b8a84848484036137ac565b6001600160a01b0383166139d85760405162461bcd60e51b815260206004820152602560248201527f45524332303a207472616e736665722066726f6d20746865207a65726f20616460448201527f64726573730000000000000000000000000000000000000000000000000000006064820152608401610736565b6001600160a01b038216613a3a5760405162461bcd60e51b815260206004820152602360248201527f45524332303a207472616e7366657220746f20746865207a65726f206164647260448201526265737360e81b6064820152608401610736565b6001600160a01b03831660009081526065602052604090205481811015613ac95760405162461bcd60e51b815260206004820152602660248201527f45524332303a207472616e7366657220616d6f756e742065786365656473206260448201527f616c616e636500000000000000000000000000000000000000000000000000006064820152608401610736565b6001600160a01b03808516600090815260656020526040808220858503905591851681529081208054849290613b009084906156e1565b92505081905550826001600160a01b0316846001600160a01b03167fddf252ad1be2c89b69c2b068fc378daa952ba7f163c4a11628f55a4df523b3ef84604051613b4c91815260200190565b60405180910390a3612b8a565b60008060005b60d254811015613d3957600060d28281548110613b7e57613b7e6156f9565b60009182526020808320604080516060810182529390910154600281810b855263010000008204900b92840192909252660100000000000090910462ffffff1682820181905260c95460ca549251630b4c774160e11b81526001600160a01b039182166004820152928116602484015260448301919091529193507f000000000000000000000000000000000000000000000000000000000000000090911690631698ee8290606401602060405180830381865afa158015613c44573d6000803e3d6000fd5b505050506040513d601f19601f82011682018060405250810190613c689190615843565b8251602084015160405163a34123a760e01b8152600292830b6004820152910b6024820152600060448201529091506001600160a01b0382169063a34123a79060640160408051808303816000875af1158015613cc9573d6000803e3d6000fd5b505050506040513d601f19601f82011682018060405250810190613ced9190615db6565b5050600080613d058385600001518660200151614bbf565b9092509050613d1482886156e1565b9650613d2081876156e1565b9550505050508080613d319061570f565b915050613b5f565b50613d4482826141e5565b60408051838152602081018390527fdbbb3a796242c9562af701570b096cb2478cd507fcd2d4080025883b10a623a59101610b8d565b6001600160a01b038116600090815260018301602052604081205415156107b2565b60006107b2836001600160a01b038416614c6a565b60006106da825490565b60006107b28383614d5d565b603380546001600160a01b038381166001600160a01b0319831681179093556040519116919082907f8be0079c531659141344cd1fd0a4f28419497f9722a3daafe3b4186f6b6457e090600090a35050565b60ce805460cf8054600093849055929055908115613eb15760c95460d05460405163a9059cbb60e01b81526001600160a01b0391821660048201526024810185905291169063a9059cbb906044016020604051808303816000875af1925050508015613ea2575060408051601f3d908101601f19168201909252613e9f91810190615d0d565b60015b613eaf5760009150613eb1565b505b8015613f365760ca5460d05460405163a9059cbb60e01b81526001600160a01b0391821660048201526024810184905291169063a9059cbb906044016020604051808303816000875af1925050508015613f28575060408051601f3d908101601f19168201909252613f2591810190615d0d565b60015b613f3457506000613f36565b505b60408051838152602081018390527fa292e28c648da34e20b372054caab5f0359198b3b4d5f0ef9945d4616e15dc979101610b8d565b60005b838110156140e55760007f00000000000000000000000000000000000000000000000000000000000000006001600160a01b0316631698ee828585898987818110613fbc57613fbc6156f9565b9050602002016020810190613fd19190615826565b6040516001600160e01b031960e086901b1681526001600160a01b03938416600482015292909116602483015262ffffff166044820152606401602060405180830381865afa158015614028573d6000803e3d6000fd5b505050506040513d601f19601f8201168201806040525081019061404c9190615843565b90506001600160a01b0381166140895760405162461bcd60e51b81526020600482015260026024820152615a4160f01b6044820152606401610736565b61409460d382613d7a565b156140c55760405162461bcd60e51b81526020600482015260016024820152600560fc1b6044820152606401610736565b6140d060d382614d87565b505080806140dd9061570f565b915050613f6f565b5050505050565b6141176040518060800160405280600081526020016000815260200160008152602001600081525090565b60405163a34123a760e01b8152600285810b600483015284900b60248201526001600160801b03831660448201526001600160a01b0386169063a34123a79060640160408051808303816000875af1158015614177573d6000803e3d6000fd5b505050506040513d601f19601f8201168201806040525081019061419b9190615db6565b602083015281526000806141b0878787614bbf565b845191935091506141c190836159d6565b604084015260208301516141d590826159d6565b6060840152509095945050505050565b60cd5461ffff166127106141f98285615ee1565b6142039190615f16565b60ce600082825461421491906156e1565b90915550612710905061422b61ffff831684615ee1565b6142359190615f16565b60cf600082825461424691906156e1565b9091555050505050565b8015806142ca5750604051636eb1769f60e11b81523060048201526001600160a01b03838116602483015284169063dd62ed3e90604401602060405180830381865afa1580156142a4573d6000803e3d6000fd5b505050506040513d601f19601f820116820180604052508101906142c89190615a23565b155b61433c5760405162461bcd60e51b815260206004820152603660248201527f5361666545524332303a20617070726f76652066726f6d206e6f6e2d7a65726f60448201527f20746f206e6f6e2d7a65726f20616c6c6f77616e6365000000000000000000006064820152608401610736565b6040516001600160a01b0383166024820152604481018290526143b490849063095ea7b360e01b906064015b60408051601f198184030181529190526020810180517bffffffffffffffffffffffffffffffffffffffffffffffffffffffff166001600160e01b031990931692909217909152614d9c565b505050565b60006143c6848484614402565b9050600082806143d8576143d8615f00565b84860911156107b25760001981106143ef57600080fd5b806143f98161570f565b95945050505050565b600080806000198587098587029250828110838203039150508060000361443b576000841161443057600080fd5b5082900490506107b2565b80841161444757600080fd5b60008486880960026001871981018816978890046003810283188082028403028082028403028082028403028082028403028082028403029081029092039091026000889003889004909101858311909403939093029303949094049190911702949350505050565b6001600160a01b0382166145065760405162461bcd60e51b815260206004820152601f60248201527f45524332303a206d696e7420746f20746865207a65726f2061646472657373006044820152606401610736565b806067600082825461451891906156e1565b90915550506001600160a01b038216600090815260656020526040812080548392906145459084906156e1565b90915550506040518181526001600160a01b038316906000907fddf252ad1be2c89b69c2b068fc378daa952ba7f163c4a11628f55a4df523b3ef9060200160405180910390a35050565b6040516001600160a01b0380851660248301528316604482015260648101829052612b8a9085906323b872dd60e01b90608401614368565b60006001600160801b038211156146465760405162461bcd60e51b815260206004820152602760248201527f53616665436173743a2076616c756520646f65736e27742066697420696e203160448201527f32382062697473000000000000000000000000000000000000000000000000006064820152608401610736565b5090565b60005b818110156147965760c9546001600160a01b0316838383818110614673576146736156f9565b905060200201602081019061468891906152e4565b6001600160a01b0316141580156146d9575060ca546001600160a01b03168383838181106146b8576146b86156f9565b90506020020160208101906146cd91906152e4565b6001600160a01b031614155b61470a5760405162461bcd60e51b8152602060048201526002602482015261149560f21b6044820152606401610736565b61471f8383838181106121da576121da6156f9565b156147515760405162461bcd60e51b815260206004820152600260248201526121a960f11b6044820152606401610736565b614783838383818110614766576147666156f9565b905060200201602081019061477b91906152e4565b60d590614d87565b508061478e8161570f565b91505061464d565b507f102656122b5bfb41d864259a385db02d34584f3a71b6c6c35c14cbdaf9038fe68282604051610b8d929190615728565b6147d360d333613d7a565b6148045760405162461bcd60e51b8152602060048201526002602482015261434360f01b6044820152606401610736565b81156148215760c954614821906001600160a01b03163384614b8f565b8015612a5f5760ca54612a5f906001600160a01b03163383614b8f565b60008054610100900460ff16156148cc578160ff1660011480156148615750303b155b6148c45760405162461bcd60e51b815260206004820152602e60248201527f496e697469616c697a61626c653a20636f6e747261637420697320616c72656160448201526d191e481a5b9a5d1a585b1a5e995960921b6064820152608401610736565b506000919050565b60005460ff80841691161061493a5760405162461bcd60e51b815260206004820152602e60248201527f496e697469616c697a61626c653a20636f6e747261637420697320616c72656160448201526d191e481a5b9a5d1a585b1a5e995960921b6064820152608401610736565b506000805460ff191660ff92909216919091179055600190565b919050565b600054610100900460ff166149c45760405162461bcd60e51b815260206004820152602b60248201527f496e697469616c697a61626c653a20636f6e7472616374206973206e6f74206960448201526a6e697469616c697a696e6760a81b6064820152608401610736565b612a5f8282614e81565b600054610100900460ff16614a395760405162461bcd60e51b815260206004820152602b60248201527f496e697469616c697a61626c653a20636f6e7472616374206973206e6f74206960448201526a6e697469616c697a696e6760a81b6064820152608401610736565b610d30614f13565b6001600160a01b038216614aa15760405162461bcd60e51b815260206004820152602160248201527f45524332303a206275726e2066726f6d20746865207a65726f206164647265736044820152607360f81b6064820152608401610736565b6001600160a01b03821660009081526065602052604090205481811015614b155760405162461bcd60e51b815260206004820152602260248201527f45524332303a206275726e20616d6f756e7420657863656564732062616c616e604482015261636560f01b6064820152608401610736565b6001600160a01b0383166000908152606560205260408120838303905560678054849290614b449084906159d6565b90915550506040518281526000906001600160a01b038516907fddf252ad1be2c89b69c2b068fc378daa952ba7f163c4a11628f55a4df523b3ef9060200160405180910390a3505050565b6040516001600160a01b0383166024820152604481018290526143b490849063a9059cbb60e01b90606401614368565b6040516309e3d67b60e31b8152306004820152600283810b602483015282900b60448201526001600160801b0360648201819052608482015260009081906001600160a01b03861690634f1eb3d89060a40160408051808303816000875af1158015614c2f573d6000803e3d6000fd5b505050506040513d601f19601f82011682018060405250810190614c539190615f38565b6001600160801b0391821697911695509350505050565b60008181526001830160205260408120548015614d53576000614c8e6001836159d6565b8554909150600090614ca2906001906159d6565b9050818114614d07576000866000018281548110614cc257614cc26156f9565b9060005260206000200154905080876000018481548110614ce557614ce56156f9565b6000918252602080832090910192909255918252600188019052604090208390555b8554869080614d1857614d186159ed565b6001900381819060005260206000200160009055905585600101600086815260200190815260200160002060009055600193505050506106da565b60009150506106da565b6000826000018281548110614d7457614d746156f9565b9060005260206000200154905092915050565b60006107b2836001600160a01b038416614f7e565b6000614df1826040518060400160405280602081526020017f5361666545524332303a206c6f772d6c6576656c2063616c6c206661696c6564815250856001600160a01b0316614fcd9092919063ffffffff16565b8051909150156143b45780806020019051810190614e0f9190615d0d565b6143b45760405162461bcd60e51b815260206004820152602a60248201527f5361666545524332303a204552433230206f7065726174696f6e20646964206e60448201527f6f742073756363656564000000000000000000000000000000000000000000006064820152608401610736565b600054610100900460ff16614eec5760405162461bcd60e51b815260206004820152602b60248201527f496e697469616c697a61626c653a20636f6e7472616374206973206e6f74206960448201526a6e697469616c697a696e6760a81b6064820152608401610736565b8151614eff906068906020850190615183565b5080516143b4906069906020840190615183565b600054610100900460ff16610d915760405162461bcd60e51b815260206004820152602b60248201527f496e697469616c697a61626c653a20636f6e7472616374206973206e6f74206960448201526a6e697469616c697a696e6760a81b6064820152608401610736565b6000818152600183016020526040812054614fc5575081546001818101845560008481526020808220909301849055845484825282860190935260409020919091556106da565b5060006106da565b6060614fdc8484600085614fe4565b949350505050565b60608247101561505c5760405162461bcd60e51b815260206004820152602660248201527f416464726573733a20696e73756666696369656e742062616c616e636520666f60448201527f722063616c6c00000000000000000000000000000000000000000000000000006064820152608401610736565b6001600160a01b0385163b6150b35760405162461bcd60e51b815260206004820152601d60248201527f416464726573733a2063616c6c20746f206e6f6e2d636f6e74726163740000006044820152606401610736565b600080866001600160a01b031685876040516150cf9190615f67565b60006040518083038185875af1925050503d806000811461510c576040519150601f19603f3d011682016040523d82523d6000602084013e615111565b606091505b509150915061512182828661512c565b979650505050505050565b6060831561513b5750816107b2565b82511561514b5782518084602001fd5b8160405162461bcd60e51b81526004016107369190615265565b50805460008255906000526020600020908101906130fe9190615203565b82805461518f90615691565b90600052602060002090601f0160209004810192826151b157600085556151f7565b82601f106151ca57805160ff19168380011785556151f7565b828001600101855582156151f7579182015b828111156151f75782518255916020019190600101906151dc565b50614646929150615224565b5b8082111561464657805468ffffffffffffffffff19168155600101615204565b5b808211156146465760008155600101615225565b60005b8381101561525457818101518382015260200161523c565b83811115612b8a5750506000910152565b6020815260008251806020840152615284816040850160208701615239565b601f01601f19169190910160400192915050565b6001600160a01b03811681146130fe57600080fd5b803561495481615298565b600080604083850312156152cb57600080fd5b82356152d681615298565b946020939093013593505050565b6000602082840312156152f657600080fd5b81356107b281615298565b60008060006060848603121561531657600080fd5b833561532181615298565b9250602084013561533181615298565b929592945050506040919091013590565b6000806040838503121561535557600080fd5b50508035926020909101359150565b60006020828403121561537657600080fd5b813561ffff811681146107b257600080fd5b60008083601f84011261539a57600080fd5b50813567ffffffffffffffff8111156153b257600080fd5b6020830191508360208260051b85010111156153cd57600080fd5b9250929050565b600080602083850312156153e757600080fd5b823567ffffffffffffffff8111156153fe57600080fd5b61540a85828601615388565b90969095509350505050565b6020808252825182820181905260009190848201906040850190845b8181101561547a57615467838551805160020b8252602081015160020b602083015262ffffff60408201511660408301525050565b9284019260609290920191600101615432565b50909695505050505050565b6020808252825182820181905260009190848201906040850190845b8181101561547a5783516001600160a01b0316835292840192918401916001016154a2565b6000602082840312156154d957600080fd5b813567ffffffffffffffff8111156154f057600080fd5b820160e081850312156107b257600080fd5b6000806040838503121561551557600080fd5b82359150602083013561552781615298565b809150509250929050565b60008083601f84011261554457600080fd5b50813567ffffffffffffffff81111561555c57600080fd5b6020830191508360208285010111156153cd57600080fd5b6000806000806060858703121561558a57600080fd5b8435935060208501359250604085013567ffffffffffffffff8111156155af57600080fd5b6155bb87828801615532565b95989497509550505050565b600080604083850312156155da57600080fd5b82356155e581615298565b9150602083013561552781615298565b60008060008060006060868803121561560d57600080fd5b853567ffffffffffffffff8082111561562557600080fd5b61563189838a01615532565b9097509550602088013591508082111561564a57600080fd5b61565689838a01615532565b9095509350604088013591508082111561566f57600080fd5b508601610100818903121561568357600080fd5b809150509295509295909350565b600181811c908216806156a557607f821691505b6020821081036156c557634e487b7160e01b600052602260045260246000fd5b50919050565b634e487b7160e01b600052601160045260246000fd5b600082198211156156f4576156f46156cb565b500190565b634e487b7160e01b600052603260045260246000fd5b600060018201615721576157216156cb565b5060010190565b60208082528181018390526000908460408401835b8681101561576b57823561575081615298565b6001600160a01b03168252918301919083019060010161573d565b509695505050505050565b634e487b7160e01b600052604160045260246000fd5b62ffffff811681146130fe57600080fd5b60208082528181018390526000908460408401835b8681101561576b5782356157c58161578c565b62ffffff16825291830191908301906001016157b2565b6000808335601e198436030181126157f357600080fd5b83018035915067ffffffffffffffff82111561580e57600080fd5b6020019150600781901b36038213156153cd57600080fd5b60006020828403121561583857600080fd5b81356107b28161578c565b60006020828403121561585557600080fd5b81516107b281615298565b8060020b81146130fe57600080fd5b60006020828403121561588157600080fd5b81356107b281615860565b6001600160801b03811681146130fe57600080fd5b6000602082840312156158b357600080fd5b81516107b28161588c565b6000602082840312156158d057600080fd5b81356107b28161588c565b80356158e681615860565b60020b825260208101356158f981615860565b60020b6020830152604081013561590f8161578c565b62ffffff81166040840152505050565b6000608082016080835280855480835260a08501915086600052602092508260002060005b8281101561597f578154600281810b8652601882901c900b8686015260301c62ffffff16604085015260609093019260019182019101615944565b50505080925050615992818401856158db565b509392505050565b80151581146130fe57600080fd5b600080604083850312156159bb57600080fd5b82516159c68161599a565b6020939093015192949293505050565b6000828210156159e8576159e86156cb565b500390565b634e487b7160e01b600052603160045260246000fd5b60008235609e19833603018112615a1957600080fd5b9190910192915050565b600060208284031215615a3557600080fd5b5051919050565b6000808335601e19843603018112615a5357600080fd5b83018035915067ffffffffffffffff821115615a6e57600080fd5b6020019150368190038213156153cd57600080fd5b8183823760009101908152919050565b80356149548161599a565b600060208284031215615ab057600080fd5b81356107b28161599a565b6000808335601e19843603018112615ad257600080fd5b830160208101925035905067ffffffffffffffff811115615af257600080fd5b8060071b36038313156153cd57600080fd5b8183526000602080850194508260005b85811015615b53578135615b278161588c565b6001600160801b03168752615b408388018385016158db565b6080968701969190910190600101615b14565b509495945050505050565b81835281816020850137506000828201602090810191909152601f909101601f19169091010190565b60008135601e19833603018112615b9d57600080fd5b8201803567ffffffffffffffff811115615bb657600080fd5b803603841315615bc557600080fd5b60a08552615bda60a086018260208501615b5e565b915050615be9602084016152ad565b6001600160a01b0381166020860152506040830135604085015260608301356060850152615c1960808401615a93565b8015156080860152615992565b6000615c328283615abb565b60e08552615c4460e086018284615b04565b915050615c546020840184615abb565b8583036020870152615c67838284615b04565b925050506040830135609e19843603018112615c8257600080fd5b8482036040860152615c9682858301615b87565b915050606083013560608501526080830135608085015260a083013560a085015260c083013560c08501528091505092915050565b606081526000615cde6060830186615c26565b60208301949094525060400152919050565b6001600160a01b0383168152608081016107b260208301846158db565b600060208284031215615d1f57600080fd5b81516107b28161599a565b8135615d3581615860565b815462ffffff82811662ffffff1983161784556020850135615d5681615860565b8060181b9050818416935065ffffff00000091508082168465ffffffffffff198516171785556040860135615d8a8161578c565b911668ffffffffffffffffff19929092169092171760309190911b68ffffff0000000000001617905550565b60008060408385031215615dc957600080fd5b505080516020909101519092909150565b6060808252845160a083830152805161010084018190526000929160209190820190610120860190855b81811015615e4957615e39838551805160020b8252602081015160020b602083015262ffffff60408201511660408301525050565b9284019291850191600101615e04565b5050828901516001600160a01b039081166080888101919091526040808c0151831660a08a0152958b0151821660c08901529099015190981660e08601525083019490945250919091015290565b6000808335601e19843603018112615eae57600080fd5b83018035915067ffffffffffffffff821115615ec957600080fd5b6020019150600581901b36038213156153cd57600080fd5b6000816000190483118215151615615efb57615efb6156cb565b500290565b634e487b7160e01b600052601260045260246000fd5b600082615f3357634e487b7160e01b600052601260045260246000fd5b500490565b60008060408385031215615f4b57600080fd5b8251615f568161588c565b60208401519092506155278161588c565b60008251615a1981846020870161523956fea2646970667358221220ade3a88f158043a4517c9e1b6a8862d17b220b43baa2c912b13907c5569fb20164736f6c634300080d0033",
  "deployedBytecode": "0x608060405234801561001057600080fd5b50600436106102d35760003560e01c806386ac1cb911610186578063c7a4ae17116100e3578063dd62ed3e11610097578063f2fde38b11610071578063f2fde38b14610606578063f88c31ce14610619578063fcd3533c1461062157600080fd5b8063dd62ed3e146105b1578063e4fadbce146105ea578063f2eb3e34146105fd57600080fd5b8063d0ebdbe7116100c8578063d0ebdbe714610578578063d21220a71461058b578063d34879971461059e57600080fd5b8063c7a4ae1714610544578063ccdf7a021461055757600080fd5b806395d89b411161013a578063a5ff1dc71161011f578063a5ff1dc7146104f7578063a9059cbb1461050a578063c45a01551461051d57600080fd5b806395d89b41146104dc578063a457c2d7146104e457600080fd5b80638da5cb5b1161016b5780638da5cb5b1461049057806392e49dfd146104a157806394bf804d146104b457600080fd5b806386ac1cb91461046a5780638712e4971461047d57600080fd5b80633f7b613511610234578063617a3419116101e857806370a08231116101cd57806370a0823114610431578063715018a61461045a5780637ecd67171461046257600080fd5b8063617a341914610407578063673a2a1f1461041c57600080fd5b80634794c84a116102195780634794c84a146103ce578063481c6a75146103e15780634b164140146103f457600080fd5b80633f7b6135146103b257806342fb9d44146103c557600080fd5b806314b806301161028b57806323b872dd1161027057806323b872dd1461037d578063313ce56714610390578063395093511461039f57600080fd5b806314b806301461036c57806318160ddd1461037557600080fd5b8063095ea7b3116102bc578063095ea7b3146103095780630d6e66311461032c5780630dfe16811461034157600080fd5b8063065756db146102d857806306fdde03146102f4575b600080fd5b6102e160ce5481565b6040519081526020015b60405180910390f35b6102fc610634565b6040516102eb9190615265565b61031c6103173660046152b8565b6106c6565b60405190151581526020016102eb565b61033f61033a3660046152e4565b6106e0565b005b60c954610354906001600160a01b031681565b6040516001600160a01b0390911681526020016102eb565b6102e160cb5481565b6067546102e1565b61031c61038b366004615301565b610793565b604051601281526020016102eb565b61031c6103ad3660046152b8565b6107b9565b61033f6103c0366004615342565b6107f8565b6102e160cf5481565b61033f6103dc366004615364565b610924565b60d054610354906001600160a01b031681565b61033f6104023660046153d4565b610a4e565b61040f610b99565b6040516102eb9190615416565b610424610c1c565b6040516102eb9190615486565b6102e161043f3660046152e4565b6001600160a01b031660009081526065602052604090205490565b61033f610ccc565b61033f610d32565b61033f6104783660046153d4565b610d98565b61033f61048b3660046154c7565b610e43565b6033546001600160a01b0316610354565b61033f6104af3660046153d4565b612160565b6104c76104c2366004615502565b612297565b604080519283526020830191909152016102eb565b6102fc612937565b61031c6104f23660046152b8565b612946565b61033f6105053660046153d4565b6129fb565b61031c6105183660046152b8565b612a63565b6103547f000000000000000000000000000000000000000000000000000000000000000081565b60d154610354906001600160a01b031681565b60cd546105659061ffff1681565b60405161ffff90911681526020016102eb565b61033f6105863660046152e4565b612a71565b60ca54610354906001600160a01b031681565b61033f6105ac366004615574565b612b80565b6102e16105bf3660046155c7565b6001600160a01b03918216600090815260666020908152604080832093909416825291909152205490565b61033f6105f83660046155f5565b612b90565b6102e160cc5481565b61033f6106143660046152e4565b61301f565b610424613101565b6104c761062f366004615502565b6131aa565b60606068805461064390615691565b80601f016020809104026020016040519081016040528092919081815260200182805461066f90615691565b80156106bc5780601f10610691576101008083540402835291602001916106bc565b820191906000526020600020905b81548152906001019060200180831161069f57829003601f168201915b5050505050905090565b6000336106d48185856137ac565b60019150505b92915050565b6033546001600160a01b0316331461073f5760405162461bcd60e51b815260206004820181905260248201527f4f776e61626c653a2063616c6c6572206973206e6f7420746865206f776e657260448201526064015b60405180910390fd5b60d180546001600160a01b0319166001600160a01b0383169081179091556040519081527f6b7f177e85ebe3aabaf1339b9a445ac908b2bef730372180fa280958e2414ee39060200160405180910390a150565b6000336107a18582856138d0565b6107ac85858561395c565b60019150505b9392505050565b3360008181526066602090815260408083206001600160a01b03871684529091528120549091906106d490829086906107f39087906156e1565b6137ac565b60008211806108075750600081115b6108375760405162461bcd60e51b81526020600482015260016024820152604960f81b6044820152606401610736565b6067541561086c5760405162461bcd60e51b8152602060048201526002602482015261545360f01b6044820152606401610736565b60d1546000906001600160a01b0316156108915760d1546001600160a01b031661089e565b6033546001600160a01b03165b9050336001600160a01b038216146108dc5760405162461bcd60e51b81526020600482015260016024820152602960f91b6044820152606401610736565b60cb83905560cc82905560408051848152602081018490527ff8966e026442bb0adb17149a6d44e394d2b6eb3c5cc1dc71b3c0698000548ae6910160405180910390a1505050565b60d0546001600160a01b031633146109635760405162461bcd60e51b81526020600482015260026024820152614e4d60f01b6044820152606401610736565b6002609754036109b55760405162461bcd60e51b815260206004820152601f60248201527f5265656e7472616e637947756172643a207265656e7472616e742063616c6c006044820152606401610736565b600260975561271061ffff821611156109f65760405162461bcd60e51b81526020600482015260036024820152624d464f60e81b6044820152606401610736565b6109fe613b59565b60cd805461ffff191661ffff83169081179091556040519081527fa73ff0774d4c8681f79fa6546f34bab7a3037f3b3aab405401a1fd8c6e5ca3d6906020015b60405180910390a1506001609755565b6033546001600160a01b03163314610aa85760405162461bcd60e51b815260206004820181905260248201527f4f776e61626c653a2063616c6c6572206973206e6f7420746865206f776e65726044820152606401610736565b60005b81811015610b5b57610ae5838383818110610ac857610ac86156f9565b9050602002016020810190610add91906152e4565b60d390613d7a565b610b165760405162461bcd60e51b815260206004820152600260248201526104e560f41b6044820152606401610736565b610b48838383818110610b2b57610b2b6156f9565b9050602002016020810190610b4091906152e4565b60d390613d9c565b5080610b538161570f565b915050610aab565b507f024551cce253d1a442bfe99dae530a00a492fb8c67c4456cce3c9d23eecd39618282604051610b8d929190615728565b60405180910390a15050565b606060d2805480602002602001604051908101604052809291908181526020016000905b82821015610c135760008481526020908190206040805160608101825291850154600281810b845263010000008204900b838501526601000000000000900462ffffff1690820152825260019092019101610bbd565b50505050905090565b60606000610c2a60d3613db1565b905060008167ffffffffffffffff811115610c4757610c47615776565b604051908082528060200260200182016040528015610c70578160200160208202803683370190505b50905060005b82811015610cc557610c8960d382613dbb565b828281518110610c9b57610c9b6156f9565b6001600160a01b039092166020928302919091019091015280610cbd8161570f565b915050610c76565b5092915050565b6033546001600160a01b03163314610d265760405162461bcd60e51b815260206004820181905260248201527f4f776e61626c653a2063616c6c6572206973206e6f7420746865206f776e65726044820152606401610736565b610d306000613dc7565b565b600260975403610d845760405162461bcd60e51b815260206004820152601f60248201527f5265656e7472616e637947756172643a207265656e7472616e742063616c6c006044820152606401610736565b6002609755610d91613e19565b6001609755565b6033546001600160a01b03163314610df25760405162461bcd60e51b815260206004820181905260248201527f4f776e61626c653a2063616c6c6572206973206e6f7420746865206f776e65726044820152606401610736565b60c95460ca54610e1291849184916001600160a01b039081169116613f6c565b7f1b402611d70c7735d942445aaa3ebbf878149bece6b797870b44a581c5f7f4c98282604051610b8d92919061579d565b60d0546001600160a01b03163314610e825760405162461bcd60e51b81526020600482015260026024820152614e4d60f01b6044820152606401610736565b600260975403610ed45760405162461bcd60e51b815260206004820152601f60248201527f5265656e7472616e637947756172643a207265656e7472616e742063616c6c006044820152606401610736565b600260975560c95460ca5460408051608081018252600080825260208201819052918101829052606081018290527f0000000000000000000000000000000000000000000000000000000000000000936001600160a01b039081169316915b610f3d86806157dc565b90508110156114615760006001600160a01b038616631698ee828686610f638b806157dc565b87818110610f7357610f736156f9565b610f8a926080918202019081019150606001615826565b6040516001600160e01b031960e086901b1681526001600160a01b03938416600482015292909116602483015262ffffff166044820152606401602060405180830381865afa158015610fe1573d6000803e3d6000fd5b505050506040513d601f19601f820116820180604052508101906110059190615843565b9050600073__$b131e44167300e1b6d47510635310686a7$__635f49415b833061102f8c806157dc565b8881811061103f5761103f6156f9565b611058926040608090920201908101915060200161586f565b6110628d806157dc565b89818110611072576110726156f9565b61108b926060608090920201908101915060400161586f565b6040516001600160e01b031960e087901b1681526001600160a01b039485166004820152939092166024840152600290810b60448401520b6064820152608401602060405180830381865af41580156110e8573d6000803e3d6000fd5b505050506040513d601f19601f8201168201806040525081019061110c91906158a1565b9050806001600160801b031660000361112657505061144f565b60006001600160801b0361113a8a806157dc565b8681811061114a5761114a6156f9565b61116092602060809092020190810191506158be565b6001600160801b0316036111755750806111a8565b61117f89806157dc565b8581811061118f5761118f6156f9565b6111a592602060809092020190810191506158be565b90505b600061121a846111b88c806157dc565b888181106111c8576111c86156f9565b6111e1926040608090920201908101915060200161586f565b6111eb8d806157dc565b898181106111fb576111fb6156f9565b611214926060608090920201908101915060400161586f565b856140ec565b9050826001600160801b0316826001600160801b0316036113eb5760008073__$b131e44167300e1b6d47510635310686a7$__630c3c0bfc60d261125e8f806157dc565b8b81811061126e5761126e6156f9565b9050608002016020016040518363ffffffff1660e01b815260040161129492919061591f565b6040805180830381865af41580156112b0573d6000803e3d6000fd5b505050506040513d601f19601f820116820180604052508101906112d491906159a8565b915091508161130e5760405162461bcd60e51b81526004016107369060208082526004908201526352524e4560e01b604082015260600190565b60d2805461131e906001906159d6565b8154811061132e5761132e6156f9565b9060005260206000200160d2828154811061134b5761134b6156f9565b6000918252602090912082549101805462ffffff92831662ffffff19821681178355845463010000009081900485160265ffffffffffff199092161717808255925466010000000000009081900490921690910268ffffff0000000000001990921691909117905560d28054806113c4576113c46159ed565b6000828152602090208101600019908101805468ffffffffffffffffff1916905501905550505b8051865187906113fc9083906156e1565b90525060208082015190870180516114159083906156e1565b905250604080820151908701805161142e9083906156e1565b90525060608082015190870180516114479083906156e1565b905250505050505b806114598161570f565b915050610f33565b5080516060860135111561149c5760405162461bcd60e51b8152602060048201526002602482015261042360f41b6044820152606401610736565b8460800135816020015110156114d95760405162461bcd60e51b8152602060048201526002602482015261423160f01b6044820152606401610736565b6000816040015111806114f0575060008160600151115b1561154857611507816040015182606001516141e5565b6040808201516060830151825191825260208201527fdbbb3a796242c9562af701570b096cb2478cd507fcd2d4080025883b10a623a5910160405180910390a15b5060006115586040860186615a03565b604001351115611a8a5761158b6115726040860186615a03565b6115839060408101906020016152e4565b60d590613d7a565b6115bc5760405162461bcd60e51b8152602060048201526002602482015261272960f11b6044820152606401610736565b6040516370a0823160e01b81523060048201526000906001600160a01b038416906370a0823190602401602060405180830381865afa158015611603573d6000803e3d6000fd5b505050506040513d601f19601f820116820180604052508101906116279190615a23565b6040516370a0823160e01b81523060048201529091506000906001600160a01b038416906370a0823190602401602060405180830381865afa158015611671573d6000803e3d6000fd5b505050506040513d601f19601f820116820180604052508101906116959190615a23565b90506116ca6116a76040880188615a03565b6116b89060408101906020016152e4565b6001600160a01b038616906000614250565b6116fd6116da6040880188615a03565b6116eb9060408101906020016152e4565b6001600160a01b038516906000614250565b61172f61170d6040880188615a03565b61171e9060408101906020016152e4565b6001600160a01b0386169084614250565b61176161173f6040880188615a03565b6117509060408101906020016152e4565b6001600160a01b0385169083614250565b60006117706040880188615a03565b6117819060408101906020016152e4565b6001600160a01b03166117976040890189615a03565b6117a19080615a3c565b6040516117af929190615a83565b6000604051808303816000865af19150503d80600081146117ec576040519150601f19603f3d011682016040523d82523d6000602084013e6117f1565b606091505b50509050806118275760405162461bcd60e51b8152602060048201526002602482015261534360f01b6044820152606401610736565b6040516370a0823160e01b81523060048201526000906001600160a01b038716906370a0823190602401602060405180830381865afa15801561186e573d6000803e3d6000fd5b505050506040513d601f19601f820116820180604052508101906118929190615a23565b6040516370a0823160e01b81523060048201529091506000906001600160a01b038716906370a0823190602401602060405180830381865afa1580156118dc573d6000803e3d6000fd5b505050506040513d601f19601f820116820180604052508101906119009190615a23565b905061190f60408a018a615a03565b6119209060a0810190608001615a9e565b156119b75761193260408a018a615a03565b6119409060600135856156e1565b8110158015611969575061195760408a018a615a03565b6119659060400135866159d6565b8210155b61199a5760405162461bcd60e51b815260206004820152600260248201526129a360f11b6044820152606401610736565b6119a482866159d6565b91506119b084826159d6565b9050611a45565b6119c460408a018a615a03565b6119d29060600135866156e1565b82101580156119fb57506119e960408a018a615a03565b6119f79060400135856159d6565b8110155b611a2c5760405162461bcd60e51b815260206004820152600260248201526129a360f11b6044820152606401610736565b611a3685836159d6565b9150611a4281856159d6565b90505b7fab3abe7e2ad787892344ed4ada44aad53c7d53e9d6b5ee91f20bd30ed39540b7898383604051611a7893929190615ccb565b60405180910390a15050505050611ac7565b7fab3abe7e2ad787892344ed4ada44aad53c7d53e9d6b5ee91f20bd30ed39540b784600080604051611abe93929190615ccb565b60405180910390a15b60008060005b611ada60208801886157dc565b9050811015611f9a57600073__$b131e44167300e1b6d47510635310686a7$__630c3c0bfc60d2611b0e60208c018c6157dc565b86818110611b1e57611b1e6156f9565b9050608002016020016040518363ffffffff1660e01b8152600401611b4492919061591f565b6040805180830381865af4158015611b60573d6000803e3d6000fd5b505050506040513d601f19601f82011682018060405250810190611b8491906159a8565b5060c95460ca549192506000916001600160a01b037f0000000000000000000000000000000000000000000000000000000000000000811692631698ee82929082169116611bd560208e018e6157dc565b88818110611be557611be56156f9565b611bfc926080918202019081019150606001615826565b6040516001600160e01b031960e086901b1681526001600160a01b03938416600482015292909116602483015262ffffff166044820152606401602060405180830381865afa158015611c53573d6000803e3d6000fd5b505050506040513d601f19601f82011682018060405250810190611c779190615843565b905081611e18576001600160a01b038116611cba5760405162461bcd60e51b815260206004820152600360248201526204e55560ec1b6044820152606401610736565b611cc560d382613d7a565b611cf55760405162461bcd60e51b81526020600482015260016024820152600560fc1b6044820152606401610736565b73__$57c880716d25c772e0b1e547659075b66d$__636b01882082611d1d60208d018d6157dc565b87818110611d2d57611d2d6156f9565b9050608002016020016040518363ffffffff1660e01b8152600401611d53929190615cf0565b602060405180830381865af4158015611d70573d6000803e3d6000fd5b505050506040513d601f19601f82011682018060405250810190611d949190615d0d565b611dc65760405162461bcd60e51b815260206004820152600360248201526252545360e81b6044820152606401610736565b60d2611dd560208b018b6157dc565b85818110611de557611de56156f9565b8354600181018555600094855260209485902060809092029390930193909301929091019050611e158282615d2a565b50505b6000806001600160a01b038316633c8a7d8d30611e3860208f018f6157dc565b89818110611e4857611e486156f9565b611e61926040608090920201908101915060200161586f565b8e8060200190611e7191906157dc565b8a818110611e8157611e816156f9565b611e9a926060608090920201908101915060400161586f565b8f8060200190611eaa91906157dc565b8b818110611eba57611eba6156f9565b611ed092602060809092020190810191506158be565b6040516001600160e01b031960e087901b1681526001600160a01b039094166004850152600292830b6024850152910b60448301526001600160801b0316606482015260a06084820152600060a482015260c40160408051808303816000875af1158015611f42573d6000803e3d6000fd5b505050506040513d601f19601f82011682018060405250810190611f669190615db6565b9092509050611f7582886156e1565b9650611f8181876156e1565b9550505050508080611f929061570f565b915050611acd565b508560a00135821015611fd45760405162461bcd60e51b8152602060048201526002602482015261044360f41b6044820152606401610736565b8560c0013581101561200d5760405162461bcd60e51b8152602060048201526002602482015261443160f01b6044820152606401610736565b60ce5460c9546040516370a0823160e01b81523060048201526001600160a01b03909116906370a0823190602401602060405180830381865afa158015612058573d6000803e3d6000fd5b505050506040513d601f19601f8201168201806040525081019061207c9190615a23565b10156120b05760405162461bcd60e51b815260206004820152600360248201526204d42360ec1b6044820152606401610736565b60cf5460ca546040516370a0823160e01b81523060048201526001600160a01b03909116906370a0823190602401602060405180830381865afa1580156120fb573d6000803e3d6000fd5b505050506040513d601f19601f8201168201806040525081019061211f9190615a23565b10156121535760405162461bcd60e51b81526020600482015260036024820152624d423160e81b6044820152606401610736565b5050600160975550505050565b6033546001600160a01b031633146121ba5760405162461bcd60e51b815260206004820181905260248201527f4f776e61626c653a2063616c6c6572206973206e6f7420746865206f776e65726044820152606401610736565b60005b81811015612265576121ef8383838181106121da576121da6156f9565b905060200201602081019061158391906152e4565b6122205760405162461bcd60e51b8152602060048201526002602482015261525760f01b6044820152606401610736565b612252838383818110612235576122356156f9565b905060200201602081019061224a91906152e4565b60d590613d9c565b508061225d8161570f565b9150506121bd565b507fbe6c83115c5bf7fd07e41c6002394841bd7dc0348f3b7c58645e8950f604f5c48282604051610b8d929190615728565b6000806002609754036122ec5760405162461bcd60e51b815260206004820152601f60248201527f5265656e7472616e637947756172643a207265656e7472616e742063616c6c006044820152606401610736565b6002609755836123235760405162461bcd60e51b81526020600482015260026024820152614d4160f01b6044820152606401610736565b60d1546001600160a01b03161580612345575060d1546001600160a01b031633145b6123755760405162461bcd60e51b81526020600482015260016024820152602960f91b6044820152606401610736565b30600061238160675490565b905080158015906124f15773__$3d23d8578387a47facd93bb77f6fe6e81b$__6383d7ba9f6040518060a0016040528060d2805480602002602001604051908101604052809291908181526020016000905b828210156124295760008481526020908190206040805160608101825291850154600281810b845263010000008204900b838501526601000000000000900462ffffff16908201528252600190920191016123d3565b505050908252506001600160a01b037f00000000000000000000000000000000000000000000000000000000000000008116602083015260c954811660408084019190915260ca5482166060840152908816608090920191909152516001600160e01b031960e084901b1681526124a791908b908790600401615dda565b6040805180830381865af41580156124c3573d6000803e3d6000fd5b505050506040513d601f19601f820116820180604052508101906124e79190615db6565b90955093506125eb565b60cb5460cc54670de0b6b3a7640000919061250d8a83856143b9565b975061251a8a82856143b9565b96506125278a8385614402565b60000361253357600097505b61253e8a8285614402565b60000361254a57600096505b60008260000361255c57600019612567565b612567898585614402565b905060008260000361257b57600019612586565b612586898685614402565b90508b8183106125965781612598565b825b146125e55760405162461bcd60e51b815260206004820152600560248201527f41302641310000000000000000000000000000000000000000000000000000006044820152606401610736565b50505050505b6125f586886144b0565b84156126135760c954612613906001600160a01b031633858861458f565b83156126315760ca54612631906001600160a01b031633858761458f565b80156128da5760005b60d2548110156128d857600060d28281548110612659576126596156f9565b60009182526020808320604080516060810182529390910154600281810b855263010000008204900b92840192909252660100000000000090910462ffffff1682820181905260c95460ca549251630b4c774160e11b81526001600160a01b039182166004820152928116602484015260448301919091529193507f000000000000000000000000000000000000000000000000000000000000000090911690631698ee8290606401602060405180830381865afa15801561271f573d6000803e3d6000fd5b505050506040513d601f19601f820116820180604052508101906127439190615843565b82516020840151604051635f49415b60e01b81526001600160a01b0380851660048301528a166024820152600292830b6044820152910b606482015290915060009073__$b131e44167300e1b6d47510635310686a7$__90635f49415b90608401602060405180830381865af41580156127c1573d6000803e3d6000fd5b505050506040513d601f19601f820116820180604052508101906127e591906158a1565b90506128036127fe826001600160801b03168d89614402565b6145c7565b9050806001600160801b031660000361281e575050506128c6565b82516020840151604051633c8a7d8d60e01b81526001600160a01b038a81166004830152600293840b60248301529190920b60448301526001600160801b038316606483015260a06084830152600060a4830152831690633c8a7d8d9060c40160408051808303816000875af115801561289c573d6000803e3d6000fd5b505050506040513d601f19601f820116820180604052508101906128c09190615db6565b50505050505b806128d08161570f565b91505061263a565b505b60408051888152602081018790529081018590526001600160a01b038716907f5f11830295067c4bcc7d02d4e3b048cd7427be50a3aeb6afc9d3d559ee64bcfa9060600160405180910390a2505060016097555090939092509050565b60606069805461064390615691565b3360008181526066602090815260408083206001600160a01b0387168452909152812054909190838110156129e35760405162461bcd60e51b815260206004820152602560248201527f45524332303a2064656372656173656420616c6c6f77616e63652062656c6f7760448201527f207a65726f0000000000000000000000000000000000000000000000000000006064820152608401610736565b6129f082868684036137ac565b506001949350505050565b6033546001600160a01b03163314612a555760405162461bcd60e51b815260206004820181905260248201527f4f776e61626c653a2063616c6c6572206973206e6f7420746865206f776e65726044820152606401610736565b612a5f828261464a565b5050565b6000336106d481858561395c565b6033546001600160a01b03163314612acb5760405162461bcd60e51b815260206004820181905260248201527f4f776e61626c653a2063616c6c6572206973206e6f7420746865206f776e65726044820152606401610736565b600260975403612b1d5760405162461bcd60e51b815260206004820152601f60248201527f5265656e7472616e637947756172643a207265656e7472616e742063616c6c006044820152606401610736565b6002609755612b2a613b59565b612b32613e19565b60d080546001600160a01b0319166001600160a01b0383169081179091556040519081527f9b6ffaf4cbfd923495440b7f17ced9394289f001b3ead53ab67e2c3f3e39b0f590602001610a3e565b612b8a84846147c8565b50505050565b6000612b9c600161483e565b90508015612bb4576000805461ff0019166101001790555b6000612bc08380615e97565b905011612bf55760405162461bcd60e51b815260206004820152600360248201526213919560ea1b6044820152606401610736565b6000612c0760408401602085016152e4565b6001600160a01b031603612c425760405162461bcd60e51b8152602060048201526002602482015261054360f41b6044820152606401610736565b612c5260608301604084016152e4565b6001600160a01b0316612c6b60408401602085016152e4565b6001600160a01b031610612ca75760405162461bcd60e51b815260206004820152600360248201526257544f60e81b6044820152606401610736565b6000612cb960808401606085016152e4565b6001600160a01b031603612cf55760405162461bcd60e51b815260206004820152600360248201526227a0ad60e91b6044820152606401610736565b6000612d0760e0840160c085016152e4565b6001600160a01b031603612d435760405162461bcd60e51b815260206004820152600360248201526226a0ad60e91b6044820152606401610736565b600082608001351180612d5a575060008260a00135115b612d8a5760405162461bcd60e51b81526020600482015260016024820152604960f81b6044820152606401610736565b612dfd86868080601f01602080910402602001604051908101604052809392919081815260200183838082843760009201919091525050604080516020601f8a01819004810282018101909252888152925088915087908190840183828082843760009201919091525061495992505050565b612e056149ce565b612e37612e128380615e97565b612e2260408601602087016152e4565b612e3260608701604088016152e4565b613f6c565b612e4760408301602084016152e4565b60c980546001600160a01b0319166001600160a01b0392909216919091179055612e7760608301604084016152e4565b60ca80546001600160a01b0319166001600160a01b0392909216919091179055612eac612ea760e0840184615e97565b61464a565b612ec4612ebf60808401606085016152e4565b613dc7565b612ed460e0830160c084016152e4565b60d080546001600160a01b0319166001600160a01b0392909216919091179055608082013560cb5560a082013560cc557f1b402611d70c7735d942445aaa3ebbf878149bece6b797870b44a581c5f7f4c9612f2f8380615e97565b604051612f3d92919061579d565b60405180910390a1604080516080840135815260a084013560208201527ff8966e026442bb0adb17149a6d44e394d2b6eb3c5cc1dc71b3c0698000548ae6910160405180910390a17f9b6ffaf4cbfd923495440b7f17ced9394289f001b3ead53ab67e2c3f3e39b0f5612fb660e0840160c085016152e4565b6040516001600160a01b03909116815260200160405180910390a18015613017576000805461ff0019169055604051600181527f7f26b83ff96e1f2b6a682f133852f6798a09c465da95921460cefb38474024989060200160405180910390a15b505050505050565b6033546001600160a01b031633146130795760405162461bcd60e51b815260206004820181905260248201527f4f776e61626c653a2063616c6c6572206973206e6f7420746865206f776e65726044820152606401610736565b6001600160a01b0381166130f55760405162461bcd60e51b815260206004820152602660248201527f4f776e61626c653a206e6577206f776e657220697320746865207a65726f206160448201527f64647265737300000000000000000000000000000000000000000000000000006064820152608401610736565b6130fe81613dc7565b50565b6060600061310f60d5613db1565b905060008167ffffffffffffffff81111561312c5761312c615776565b604051908082528060200260200182016040528015613155578160200160208202803683370190505b50905060005b82811015610cc55761316e60d582613dbb565b828281518110613180576131806156f9565b6001600160a01b0390921660209283029190910190910152806131a28161570f565b91505061315b565b6000806002609754036131ff5760405162461bcd60e51b815260206004820152601f60248201527f5265656e7472616e637947756172643a207265656e7472616e742063616c6c006044820152606401610736565b6002609755836132365760405162461bcd60e51b8152602060048201526002602482015261424160f01b6044820152606401610736565b600061324160675490565b9050600081116132785760405162461bcd60e51b8152602060048201526002602482015261545360f01b6044820152606401610736565b6132823386614a41565b6132ad6040518060800160405280600081526020016000815260200160008152602001600081525090565b60005b60d25481101561351b57600060d282815481106132cf576132cf6156f9565b60009182526020808320604080516060810182529390910154600281810b855263010000008204900b92840192909252660100000000000090910462ffffff1682820181905260c95460ca549251630b4c774160e11b81526001600160a01b039182166004820152928116602484015260448301919091529193507f000000000000000000000000000000000000000000000000000000000000000090911690631698ee8290606401602060405180830381865afa158015613395573d6000803e3d6000fd5b505050506040513d601f19601f820116820180604052508101906133b99190615843565b82516020840151604051635f49415b60e01b81526001600160a01b0384166004820152306024820152600292830b6044820152910b606482015290915060009073__$b131e44167300e1b6d47510635310686a7$__90635f49415b90608401602060405180830381865af4158015613435573d6000803e3d6000fd5b505050506040513d601f19601f8201168201806040525081019061345991906158a1565b90506134726127fe826001600160801b03168c89614402565b9050806001600160801b031660000361348d57505050613509565b60006134a38385600001518660200151856140ec565b90508060400151866040018181516134bb91906156e1565b90525060608082015190870180516134d49083906156e1565b9052508051865187906134e89083906156e1565b90525060208082015190870180516135019083906156e1565b905250505050505b806135138161570f565b9150506132b0565b5081860361352f5761352f60d26000615165565b613541816040015182606001516141e5565b805160ce5460c9546040516370a0823160e01b815230600482015260009392916001600160a01b0316906370a0823190602401602060405180830381865afa158015613591573d6000803e3d6000fd5b505050506040513d601f19601f820116820180604052508101906135b59190615a23565b6135bf91906159d6565b6135c991906159d6565b602083015160cf5460ca546040516370a0823160e01b81523060048201529394506000936001600160a01b03909116906370a0823190602401602060405180830381865afa15801561361f573d6000803e3d6000fd5b505050506040513d601f19601f820116820180604052508101906136439190615a23565b61364d91906159d6565b61365791906159d6565b9050613664828986614402565b9550613671818986614402565b835190955061368090876156e1565b955082602001518561369291906156e1565b945085156136b15760c9546136b1906001600160a01b03168888614b8f565b84156136ce5760ca546136ce906001600160a01b03168887614b8f565b8251602080850151604080519384529183015233917fbcc5876d59ecdf66ef7ccae24657b11650939218782f8d741e78fd3c35d285a3910160405180910390a26040808401516060850151825191825260208201527fdbbb3a796242c9562af701570b096cb2478cd507fcd2d4080025883b10a623a5910160405180910390a160408051898152602081018890529081018690526001600160a01b038816907f86dacd5ce62967ebd3d915a82b22ad7e159538e50c7ba451e073fec048d9f1279060600160405180910390a250506001609755509194909350915050565b6001600160a01b03831661380e5760405162461bcd60e51b8152602060048201526024808201527f45524332303a20617070726f76652066726f6d20746865207a65726f206164646044820152637265737360e01b6064820152608401610736565b6001600160a01b03821661386f5760405162461bcd60e51b815260206004820152602260248201527f45524332303a20617070726f766520746f20746865207a65726f206164647265604482015261737360f01b6064820152608401610736565b6001600160a01b0383811660008181526066602090815260408083209487168084529482529182902085905590518481527f8c5be1e5ebec7d5bd14f71427d1e84f3dd0314c0f7b2291e5b200ac8c7c3b925910160405180910390a3505050565b6001600160a01b038381166000908152606660209081526040808320938616835292905220546000198114612b8a578181101561394f5760405162461bcd60e51b815260206004820152601d60248201527f45524332303a20696e73756666696369656e7420616c6c6f77616e63650000006044820152606401610736565b612b8a84848484036137ac565b6001600160a01b0383166139d85760405162461bcd60e51b815260206004820152602560248201527f45524332303a207472616e736665722066726f6d20746865207a65726f20616460448201527f64726573730000000000000000000000000000000000000000000000000000006064820152608401610736565b6001600160a01b038216613a3a5760405162461bcd60e51b815260206004820152602360248201527f45524332303a207472616e7366657220746f20746865207a65726f206164647260448201526265737360e81b6064820152608401610736565b6001600160a01b03831660009081526065602052604090205481811015613ac95760405162461bcd60e51b815260206004820152602660248201527f45524332303a207472616e7366657220616d6f756e742065786365656473206260448201527f616c616e636500000000000000000000000000000000000000000000000000006064820152608401610736565b6001600160a01b03808516600090815260656020526040808220858503905591851681529081208054849290613b009084906156e1565b92505081905550826001600160a01b0316846001600160a01b03167fddf252ad1be2c89b69c2b068fc378daa952ba7f163c4a11628f55a4df523b3ef84604051613b4c91815260200190565b60405180910390a3612b8a565b60008060005b60d254811015613d3957600060d28281548110613b7e57613b7e6156f9565b60009182526020808320604080516060810182529390910154600281810b855263010000008204900b92840192909252660100000000000090910462ffffff1682820181905260c95460ca549251630b4c774160e11b81526001600160a01b039182166004820152928116602484015260448301919091529193507f000000000000000000000000000000000000000000000000000000000000000090911690631698ee8290606401602060405180830381865afa158015613c44573d6000803e3d6000fd5b505050506040513d601f19601f82011682018060405250810190613c689190615843565b8251602084015160405163a34123a760e01b8152600292830b6004820152910b6024820152600060448201529091506001600160a01b0382169063a34123a79060640160408051808303816000875af1158015613cc9573d6000803e3d6000fd5b505050506040513d601f19601f82011682018060405250810190613ced9190615db6565b5050600080613d058385600001518660200151614bbf565b9092509050613d1482886156e1565b9650613d2081876156e1565b9550505050508080613d319061570f565b915050613b5f565b50613d4482826141e5565b60408051838152602081018390527fdbbb3a796242c9562af701570b096cb2478cd507fcd2d4080025883b10a623a59101610b8d565b6001600160a01b038116600090815260018301602052604081205415156107b2565b60006107b2836001600160a01b038416614c6a565b60006106da825490565b60006107b28383614d5d565b603380546001600160a01b038381166001600160a01b0319831681179093556040519116919082907f8be0079c531659141344cd1fd0a4f28419497f9722a3daafe3b4186f6b6457e090600090a35050565b60ce805460cf8054600093849055929055908115613eb15760c95460d05460405163a9059cbb60e01b81526001600160a01b0391821660048201526024810185905291169063a9059cbb906044016020604051808303816000875af1925050508015613ea2575060408051601f3d908101601f19168201909252613e9f91810190615d0d565b60015b613eaf5760009150613eb1565b505b8015613f365760ca5460d05460405163a9059cbb60e01b81526001600160a01b0391821660048201526024810184905291169063a9059cbb906044016020604051808303816000875af1925050508015613f28575060408051601f3d908101601f19168201909252613f2591810190615d0d565b60015b613f3457506000613f36565b505b60408051838152602081018390527fa292e28c648da34e20b372054caab5f0359198b3b4d5f0ef9945d4616e15dc979101610b8d565b60005b838110156140e55760007f00000000000000000000000000000000000000000000000000000000000000006001600160a01b0316631698ee828585898987818110613fbc57613fbc6156f9565b9050602002016020810190613fd19190615826565b6040516001600160e01b031960e086901b1681526001600160a01b03938416600482015292909116602483015262ffffff166044820152606401602060405180830381865afa158015614028573d6000803e3d6000fd5b505050506040513d601f19601f8201168201806040525081019061404c9190615843565b90506001600160a01b0381166140895760405162461bcd60e51b81526020600482015260026024820152615a4160f01b6044820152606401610736565b61409460d382613d7a565b156140c55760405162461bcd60e51b81526020600482015260016024820152600560fc1b6044820152606401610736565b6140d060d382614d87565b505080806140dd9061570f565b915050613f6f565b5050505050565b6141176040518060800160405280600081526020016000815260200160008152602001600081525090565b60405163a34123a760e01b8152600285810b600483015284900b60248201526001600160801b03831660448201526001600160a01b0386169063a34123a79060640160408051808303816000875af1158015614177573d6000803e3d6000fd5b505050506040513d601f19601f8201168201806040525081019061419b9190615db6565b602083015281526000806141b0878787614bbf565b845191935091506141c190836159d6565b604084015260208301516141d590826159d6565b6060840152509095945050505050565b60cd5461ffff166127106141f98285615ee1565b6142039190615f16565b60ce600082825461421491906156e1565b90915550612710905061422b61ffff831684615ee1565b6142359190615f16565b60cf600082825461424691906156e1565b9091555050505050565b8015806142ca5750604051636eb1769f60e11b81523060048201526001600160a01b03838116602483015284169063dd62ed3e90604401602060405180830381865afa1580156142a4573d6000803e3d6000fd5b505050506040513d601f19601f820116820180604052508101906142c89190615a23565b155b61433c5760405162461bcd60e51b815260206004820152603660248201527f5361666545524332303a20617070726f76652066726f6d206e6f6e2d7a65726f60448201527f20746f206e6f6e2d7a65726f20616c6c6f77616e6365000000000000000000006064820152608401610736565b6040516001600160a01b0383166024820152604481018290526143b490849063095ea7b360e01b906064015b60408051601f198184030181529190526020810180517bffffffffffffffffffffffffffffffffffffffffffffffffffffffff166001600160e01b031990931692909217909152614d9c565b505050565b60006143c6848484614402565b9050600082806143d8576143d8615f00565b84860911156107b25760001981106143ef57600080fd5b806143f98161570f565b95945050505050565b600080806000198587098587029250828110838203039150508060000361443b576000841161443057600080fd5b5082900490506107b2565b80841161444757600080fd5b60008486880960026001871981018816978890046003810283188082028403028082028403028082028403028082028403028082028403029081029092039091026000889003889004909101858311909403939093029303949094049190911702949350505050565b6001600160a01b0382166145065760405162461bcd60e51b815260206004820152601f60248201527f45524332303a206d696e7420746f20746865207a65726f2061646472657373006044820152606401610736565b806067600082825461451891906156e1565b90915550506001600160a01b038216600090815260656020526040812080548392906145459084906156e1565b90915550506040518181526001600160a01b038316906000907fddf252ad1be2c89b69c2b068fc378daa952ba7f163c4a11628f55a4df523b3ef9060200160405180910390a35050565b6040516001600160a01b0380851660248301528316604482015260648101829052612b8a9085906323b872dd60e01b90608401614368565b60006001600160801b038211156146465760405162461bcd60e51b815260206004820152602760248201527f53616665436173743a2076616c756520646f65736e27742066697420696e203160448201527f32382062697473000000000000000000000000000000000000000000000000006064820152608401610736565b5090565b60005b818110156147965760c9546001600160a01b0316838383818110614673576146736156f9565b905060200201602081019061468891906152e4565b6001600160a01b0316141580156146d9575060ca546001600160a01b03168383838181106146b8576146b86156f9565b90506020020160208101906146cd91906152e4565b6001600160a01b031614155b61470a5760405162461bcd60e51b8152602060048201526002602482015261149560f21b6044820152606401610736565b61471f8383838181106121da576121da6156f9565b156147515760405162461bcd60e51b815260206004820152600260248201526121a960f11b6044820152606401610736565b614783838383818110614766576147666156f9565b905060200201602081019061477b91906152e4565b60d590614d87565b508061478e8161570f565b91505061464d565b507f102656122b5bfb41d864259a385db02d34584f3a71b6c6c35c14cbdaf9038fe68282604051610b8d929190615728565b6147d360d333613d7a565b6148045760405162461bcd60e51b8152602060048201526002602482015261434360f01b6044820152606401610736565b81156148215760c954614821906001600160a01b03163384614b8f565b8015612a5f5760ca54612a5f906001600160a01b03163383614b8f565b60008054610100900460ff16156148cc578160ff1660011480156148615750303b155b6148c45760405162461bcd60e51b815260206004820152602e60248201527f496e697469616c697a61626c653a20636f6e747261637420697320616c72656160448201526d191e481a5b9a5d1a585b1a5e995960921b6064820152608401610736565b506000919050565b60005460ff80841691161061493a5760405162461bcd60e51b815260206004820152602e60248201527f496e697469616c697a61626c653a20636f6e747261637420697320616c72656160448201526d191e481a5b9a5d1a585b1a5e995960921b6064820152608401610736565b506000805460ff191660ff92909216919091179055600190565b919050565b600054610100900460ff166149c45760405162461bcd60e51b815260206004820152602b60248201527f496e697469616c697a61626c653a20636f6e7472616374206973206e6f74206960448201526a6e697469616c697a696e6760a81b6064820152608401610736565b612a5f8282614e81565b600054610100900460ff16614a395760405162461bcd60e51b815260206004820152602b60248201527f496e697469616c697a61626c653a20636f6e7472616374206973206e6f74206960448201526a6e697469616c697a696e6760a81b6064820152608401610736565b610d30614f13565b6001600160a01b038216614aa15760405162461bcd60e51b815260206004820152602160248201527f45524332303a206275726e2066726f6d20746865207a65726f206164647265736044820152607360f81b6064820152608401610736565b6001600160a01b03821660009081526065602052604090205481811015614b155760405162461bcd60e51b815260206004820152602260248201527f45524332303a206275726e20616d6f756e7420657863656564732062616c616e604482015261636560f01b6064820152608401610736565b6001600160a01b0383166000908152606560205260408120838303905560678054849290614b449084906159d6565b90915550506040518281526000906001600160a01b038516907fddf252ad1be2c89b69c2b068fc378daa952ba7f163c4a11628f55a4df523b3ef9060200160405180910390a3505050565b6040516001600160a01b0383166024820152604481018290526143b490849063a9059cbb60e01b90606401614368565b6040516309e3d67b60e31b8152306004820152600283810b602483015282900b60448201526001600160801b0360648201819052608482015260009081906001600160a01b03861690634f1eb3d89060a40160408051808303816000875af1158015614c2f573d6000803e3d6000fd5b505050506040513d601f19601f82011682018060405250810190614c539190615f38565b6001600160801b0391821697911695509350505050565b60008181526001830160205260408120548015614d53576000614c8e6001836159d6565b8554909150600090614ca2906001906159d6565b9050818114614d07576000866000018281548110614cc257614cc26156f9565b9060005260206000200154905080876000018481548110614ce557614ce56156f9565b6000918252602080832090910192909255918252600188019052604090208390555b8554869080614d1857614d186159ed565b6001900381819060005260206000200160009055905585600101600086815260200190815260200160002060009055600193505050506106da565b60009150506106da565b6000826000018281548110614d7457614d746156f9565b9060005260206000200154905092915050565b60006107b2836001600160a01b038416614f7e565b6000614df1826040518060400160405280602081526020017f5361666545524332303a206c6f772d6c6576656c2063616c6c206661696c6564815250856001600160a01b0316614fcd9092919063ffffffff16565b8051909150156143b45780806020019051810190614e0f9190615d0d565b6143b45760405162461bcd60e51b815260206004820152602a60248201527f5361666545524332303a204552433230206f7065726174696f6e20646964206e60448201527f6f742073756363656564000000000000000000000000000000000000000000006064820152608401610736565b600054610100900460ff16614eec5760405162461bcd60e51b815260206004820152602b60248201527f496e697469616c697a61626c653a20636f6e7472616374206973206e6f74206960448201526a6e697469616c697a696e6760a81b6064820152608401610736565b8151614eff906068906020850190615183565b5080516143b4906069906020840190615183565b600054610100900460ff16610d915760405162461bcd60e51b815260206004820152602b60248201527f496e697469616c697a61626c653a20636f6e7472616374206973206e6f74206960448201526a6e697469616c697a696e6760a81b6064820152608401610736565b6000818152600183016020526040812054614fc5575081546001818101845560008481526020808220909301849055845484825282860190935260409020919091556106da565b5060006106da565b6060614fdc8484600085614fe4565b949350505050565b60608247101561505c5760405162461bcd60e51b815260206004820152602660248201527f416464726573733a20696e73756666696369656e742062616c616e636520666f60448201527f722063616c6c00000000000000000000000000000000000000000000000000006064820152608401610736565b6001600160a01b0385163b6150b35760405162461bcd60e51b815260206004820152601d60248201527f416464726573733a2063616c6c20746f206e6f6e2d636f6e74726163740000006044820152606401610736565b600080866001600160a01b031685876040516150cf9190615f67565b60006040518083038185875af1925050503d806000811461510c576040519150601f19603f3d011682016040523d82523d6000602084013e615111565b606091505b509150915061512182828661512c565b979650505050505050565b6060831561513b5750816107b2565b82511561514b5782518084602001fd5b8160405162461bcd60e51b81526004016107369190615265565b50805460008255906000526020600020908101906130fe9190615203565b82805461518f90615691565b90600052602060002090601f0160209004810192826151b157600085556151f7565b82601f106151ca57805160ff19168380011785556151f7565b828001600101855582156151f7579182015b828111156151f75782518255916020019190600101906151dc565b50614646929150615224565b5b8082111561464657805468ffffffffffffffffff19168155600101615204565b5b808211156146465760008155600101615225565b60005b8381101561525457818101518382015260200161523c565b83811115612b8a5750506000910152565b6020815260008251806020840152615284816040850160208701615239565b601f01601f19169190910160400192915050565b6001600160a01b03811681146130fe57600080fd5b803561495481615298565b600080604083850312156152cb57600080fd5b82356152d681615298565b946020939093013593505050565b6000602082840312156152f657600080fd5b81356107b281615298565b60008060006060848603121561531657600080fd5b833561532181615298565b9250602084013561533181615298565b929592945050506040919091013590565b6000806040838503121561535557600080fd5b50508035926020909101359150565b60006020828403121561537657600080fd5b813561ffff811681146107b257600080fd5b60008083601f84011261539a57600080fd5b50813567ffffffffffffffff8111156153b257600080fd5b6020830191508360208260051b85010111156153cd57600080fd5b9250929050565b600080602083850312156153e757600080fd5b823567ffffffffffffffff8111156153fe57600080fd5b61540a85828601615388565b90969095509350505050565b6020808252825182820181905260009190848201906040850190845b8181101561547a57615467838551805160020b8252602081015160020b602083015262ffffff60408201511660408301525050565b9284019260609290920191600101615432565b50909695505050505050565b6020808252825182820181905260009190848201906040850190845b8181101561547a5783516001600160a01b0316835292840192918401916001016154a2565b6000602082840312156154d957600080fd5b813567ffffffffffffffff8111156154f057600080fd5b820160e081850312156107b257600080fd5b6000806040838503121561551557600080fd5b82359150602083013561552781615298565b809150509250929050565b60008083601f84011261554457600080fd5b50813567ffffffffffffffff81111561555c57600080fd5b6020830191508360208285010111156153cd57600080fd5b6000806000806060858703121561558a57600080fd5b8435935060208501359250604085013567ffffffffffffffff8111156155af57600080fd5b6155bb87828801615532565b95989497509550505050565b600080604083850312156155da57600080fd5b82356155e581615298565b9150602083013561552781615298565b60008060008060006060868803121561560d57600080fd5b853567ffffffffffffffff8082111561562557600080fd5b61563189838a01615532565b9097509550602088013591508082111561564a57600080fd5b61565689838a01615532565b9095509350604088013591508082111561566f57600080fd5b508601610100818903121561568357600080fd5b809150509295509295909350565b600181811c908216806156a557607f821691505b6020821081036156c557634e487b7160e01b600052602260045260246000fd5b50919050565b634e487b7160e01b600052601160045260246000fd5b600082198211156156f4576156f46156cb565b500190565b634e487b7160e01b600052603260045260246000fd5b600060018201615721576157216156cb565b5060010190565b60208082528181018390526000908460408401835b8681101561576b57823561575081615298565b6001600160a01b03168252918301919083019060010161573d565b509695505050505050565b634e487b7160e01b600052604160045260246000fd5b62ffffff811681146130fe57600080fd5b60208082528181018390526000908460408401835b8681101561576b5782356157c58161578c565b62ffffff16825291830191908301906001016157b2565b6000808335601e198436030181126157f357600080fd5b83018035915067ffffffffffffffff82111561580e57600080fd5b6020019150600781901b36038213156153cd57600080fd5b60006020828403121561583857600080fd5b81356107b28161578c565b60006020828403121561585557600080fd5b81516107b281615298565b8060020b81146130fe57600080fd5b60006020828403121561588157600080fd5b81356107b281615860565b6001600160801b03811681146130fe57600080fd5b6000602082840312156158b357600080fd5b81516107b28161588c565b6000602082840312156158d057600080fd5b81356107b28161588c565b80356158e681615860565b60020b825260208101356158f981615860565b60020b6020830152604081013561590f8161578c565b62ffffff81166040840152505050565b6000608082016080835280855480835260a08501915086600052602092508260002060005b8281101561597f578154600281810b8652601882901c900b8686015260301c62ffffff16604085015260609093019260019182019101615944565b50505080925050615992818401856158db565b509392505050565b80151581146130fe57600080fd5b600080604083850312156159bb57600080fd5b82516159c68161599a565b6020939093015192949293505050565b6000828210156159e8576159e86156cb565b500390565b634e487b7160e01b600052603160045260246000fd5b60008235609e19833603018112615a1957600080fd5b9190910192915050565b600060208284031215615a3557600080fd5b5051919050565b6000808335601e19843603018112615a5357600080fd5b83018035915067ffffffffffffffff821115615a6e57600080fd5b6020019150368190038213156153cd57600080fd5b8183823760009101908152919050565b80356149548161599a565b600060208284031215615ab057600080fd5b81356107b28161599a565b6000808335601e19843603018112615ad257600080fd5b830160208101925035905067ffffffffffffffff811115615af257600080fd5b8060071b36038313156153cd57600080fd5b8183526000602080850194508260005b85811015615b53578135615b278161588c565b6001600160801b03168752615b408388018385016158db565b6080968701969190910190600101615b14565b509495945050505050565b81835281816020850137506000828201602090810191909152601f909101601f19169091010190565b60008135601e19833603018112615b9d57600080fd5b8201803567ffffffffffffffff811115615bb657600080fd5b803603841315615bc557600080fd5b60a08552615bda60a086018260208501615b5e565b915050615be9602084016152ad565b6001600160a01b0381166020860152506040830135604085015260608301356060850152615c1960808401615a93565b8015156080860152615992565b6000615c328283615abb565b60e08552615c4460e086018284615b04565b915050615c546020840184615abb565b8583036020870152615c67838284615b04565b925050506040830135609e19843603018112615c8257600080fd5b8482036040860152615c9682858301615b87565b915050606083013560608501526080830135608085015260a083013560a085015260c083013560c08501528091505092915050565b606081526000615cde6060830186615c26565b60208301949094525060400152919050565b6001600160a01b0383168152608081016107b260208301846158db565b600060208284031215615d1f57600080fd5b81516107b28161599a565b8135615d3581615860565b815462ffffff82811662ffffff1983161784556020850135615d5681615860565b8060181b9050818416935065ffffff00000091508082168465ffffffffffff198516171785556040860135615d8a8161578c565b911668ffffffffffffffffff19929092169092171760309190911b68ffffff0000000000001617905550565b60008060408385031215615dc957600080fd5b505080516020909101519092909150565b6060808252845160a083830152805161010084018190526000929160209190820190610120860190855b81811015615e4957615e39838551805160020b8252602081015160020b602083015262ffffff60408201511660408301525050565b9284019291850191600101615e04565b5050828901516001600160a01b039081166080888101919091526040808c0151831660a08a0152958b0151821660c08901529099015190981660e08601525083019490945250919091015290565b6000808335601e19843603018112615eae57600080fd5b83018035915067ffffffffffffffff821115615ec957600080fd5b6020019150600581901b36038213156153cd57600080fd5b6000816000190483118215151615615efb57615efb6156cb565b500290565b634e487b7160e01b600052601260045260246000fd5b600082615f3357634e487b7160e01b600052601260045260246000fd5b500490565b60008060408385031215615f4b57600080fd5b8251615f568161588c565b60208401519092506155278161588c565b60008251615a1981846020870161523956fea2646970667358221220ade3a88f158043a4517c9e1b6a8862d17b220b43baa2c912b13907c5569fb20164736f6c634300080d0033",
  "libraries": {
    "Pool": "0xCa0e1b56007Df7d22214aa584678618B3BE96a25",
    "Position": "0x8638FbD429b19249bb3BCF3Ec72d07a657E49642",
    "Underlying": "0x39b9891bA3C5a8Fe69c19F54Db2fd90A483B780A"
  },
  "devdoc": {
    "author": "Arrakis Finance",
    "details": "DO NOT ADD STATE VARIABLES - APPEND THEM TO ArrakisV2Storage",
    "kind": "dev",
    "methods": {
      "addPools(uint24[])": {
        "details": "only callable by owner.",
        "params": {
          "feeTiers_": "list of fee tiers associated to pools to whitelist."
        }
      },
      "allowance(address,address)": {
        "details": "See {IERC20-allowance}."
      },
      "approve(address,uint256)": {
        "details": "See {IERC20-approve}. NOTE: If `amount` is the maximum `uint256`, the allowance is not updated on `transferFrom`. This is semantically equivalent to an infinite approval. Requirements: - `spender` cannot be the zero address."
      },
      "balanceOf(address)": {
        "details": "See {IERC20-balanceOf}."
      },
      "blacklistRouters(address[])": {
        "details": "only callable by owner.",
        "params": {
          "routers_": "list of routers addresses to blacklist."
        }
      },
      "burn(uint256,address)": {
        "params": {
          "burnAmount_": "amount of vault shares to burn.",
          "receiver_": "address to receive underlying tokens withdrawn."
        },
        "returns": {
          "amount0": "amount of token0 sent to receiver",
          "amount1": "amount of token1 sent to receiver"
        }
      },
      "decimals()": {
        "details": "Returns the number of decimals used to get its user representation. For example, if `decimals` equals `2`, a balance of `505` tokens should be displayed to a user as `5.05` (`505 / 10 ** 2`). Tokens usually opt for a value of 18, imitating the relationship between Ether and Wei. This is the value {ERC20} uses, unless this function is overridden; NOTE: This information is only used for _display_ purposes: it in no way affects any of the arithmetic of the contract, including {IERC20-balanceOf} and {IERC20-transfer}."
      },
      "decreaseAllowance(address,uint256)": {
        "details": "Atomically decreases the allowance granted to `spender` by the caller. This is an alternative to {approve} that can be used as a mitigation for problems described in {IERC20-approve}. Emits an {Approval} event indicating the updated allowance. Requirements: - `spender` cannot be the zero address. - `spender` must have allowance for the caller of at least `subtractedValue`."
      },
      "getRanges()": {
        "returns": {
          "_0": "ranges list of ranges"
        }
      },
      "increaseAllowance(address,uint256)": {
        "details": "Atomically increases the allowance granted to `spender` by the caller. This is an alternative to {approve} that can be used as a mitigation for problems described in {IERC20-approve}. Emits an {Approval} event indicating the updated allowance. Requirements: - `spender` cannot be the zero address."
      },
      "mint(uint256,address)": {
        "params": {
          "mintAmount_": "represent the amount of Arrakis V2 shares to mint.",
          "receiver_": "address that will receive Arrakis V2 shares."
        },
        "returns": {
          "amount0": "amount of token0 needed to mint mintAmount_ of shares.",
          "amount1": "amount of token1 needed to mint mintAmount_ of shares."
        }
      },
      "name()": {
        "details": "Returns the name of the token."
      },
      "owner()": {
        "details": "Returns the address of the current owner."
      },
      "rebalance(((uint128,(int24,int24,uint24))[],(uint128,(int24,int24,uint24))[],(bytes,address,uint256,uint256,bool),uint256,uint256,uint256,uint256))": {
        "details": "only Manager contract can call this function.",
        "params": {
          "rebalanceParams_": "rebalance params, containing ranges where we need to collect tokens and ranges where we need to mint liquidity. Also contain swap payload to changes token0/token1 proportion."
        }
      },
      "removePools(address[])": {
        "details": "only callable by owner.",
        "params": {
          "pools_": "list of pools to remove from whitelist."
        }
      },
      "renounceOwnership()": {
        "details": "Leaves the contract without owner. It will not be possible to call `onlyOwner` functions anymore. Can only be called by the current owner. NOTE: Renouncing ownership will leave the contract without an owner, thereby removing any functionality that is only available to the owner."
      },
      "setInits(uint256,uint256)": {
        "details": "only callable by restrictedMint or by owner if restrictedMint is unset.",
        "params": {
          "init0_": "initial virtual allocation of token 0.",
          "init1_": "initial virtual allocation of token 1."
        }
      },
      "setManager(address)": {
        "details": "only callable by owner.",
        "params": {
          "manager_": "manager address."
        }
      },
      "setManagerFeeBPS(uint16)": {
        "details": "only callable by manager.",
        "params": {
          "managerFeeBPS_": "manager fee in basis points."
        }
      },
      "setRestrictedMint(address)": {
        "details": "only callable by owner.",
        "params": {
          "minter_": "address of restricted minter."
        }
      },
      "symbol()": {
        "details": "Returns the symbol of the token, usually a shorter version of the name."
      },
      "totalSupply()": {
        "details": "See {IERC20-totalSupply}."
      },
      "transfer(address,uint256)": {
        "details": "See {IERC20-transfer}. Requirements: - `to` cannot be the zero address. - the caller must have a balance of at least `amount`."
      },
      "transferFrom(address,address,uint256)": {
        "details": "See {IERC20-transferFrom}. Emits an {Approval} event indicating the updated allowance. This is not required by the EIP. See the note at the beginning of {ERC20}. NOTE: Does not update the allowance if the current allowance is the maximum `uint256`. Requirements: - `from` and `to` cannot be the zero address. - `from` must have a balance of at least `amount`. - the caller must have allowance for ``from``'s tokens of at least `amount`."
      },
      "transferOwnership(address)": {
        "details": "Transfers ownership of the contract to a new account (`newOwner`). Can only be called by the current owner."
      },
      "whitelistRouters(address[])": {
        "details": "only callable by owner.",
        "params": {
          "routers_": "list of router addresses to whitelist."
        }
      },
      "withdrawManagerBalance()": {
        "details": "anyone can call this function"
      }
    },
    "title": "ArrakisV2 LP vault version 2",
    "version": 1
  },
  "userdoc": {
    "kind": "user",
    "methods": {
      "addPools(uint24[])": {
        "notice": "whitelist pools"
      },
      "blacklistRouters(address[])": {
        "notice": "blacklist routers"
      },
      "burn(uint256,address)": {
        "notice": "burn Arrakis V2 shares and withdraw underlying."
      },
      "getRanges()": {
        "notice": "get full list of ranges, guaranteed to contain all active vault LP Positions."
      },
      "mint(uint256,address)": {
        "notice": "mint Arrakis V2 shares by depositing underlying"
      },
      "rebalance(((uint128,(int24,int24,uint24))[],(uint128,(int24,int24,uint24))[],(bytes,address,uint256,uint256,bool),uint256,uint256,uint256,uint256))": {
        "notice": "rebalance ArrakisV2 vault's UniswapV3 positions"
      },
      "removePools(address[])": {
        "notice": "unwhitelist pools"
      },
      "setInits(uint256,uint256)": {
        "notice": "set initial virtual allocation of token0 and token1"
      },
      "setManager(address)": {
        "notice": "set manager"
      },
      "setManagerFeeBPS(uint16)": {
        "notice": "set manager fee bps"
      },
      "setRestrictedMint(address)": {
        "notice": "set restricted minter"
      },
      "uniswapV3MintCallback(uint256,uint256,bytes)": {
        "notice": "Uniswap V3 callback fn, called back on pool.mint"
      },
      "whitelistRouters(address[])": {
        "notice": "whitelist routers"
      },
      "withdrawManagerBalance()": {
        "notice": "will send manager fees to manager"
      }
    },
    "notice": "Smart contract managing liquidity providing strategy for a given token pair using multiple Uniswap V3 LP positions on multiple fee tiers.",
    "version": 1
  },
  "storageLayout": {
    "storage": [
      {
        "astId": 1594,
        "contract": "contracts/ArrakisV2.sol:ArrakisV2",
        "label": "_initialized",
        "offset": 0,
        "slot": "0",
        "type": "t_uint8"
      },
      {
        "astId": 1597,
        "contract": "contracts/ArrakisV2.sol:ArrakisV2",
        "label": "_initializing",
        "offset": 1,
        "slot": "0",
        "type": "t_bool"
      },
      {
        "astId": 2786,
        "contract": "contracts/ArrakisV2.sol:ArrakisV2",
        "label": "__gap",
        "offset": 0,
        "slot": "1",
        "type": "t_array(t_uint256)50_storage"
      },
      {
        "astId": 1474,
        "contract": "contracts/ArrakisV2.sol:ArrakisV2",
        "label": "_owner",
        "offset": 0,
        "slot": "51",
        "type": "t_address"
      },
      {
        "astId": 1586,
        "contract": "contracts/ArrakisV2.sol:ArrakisV2",
        "label": "__gap",
        "offset": 0,
        "slot": "52",
        "type": "t_array(t_uint256)49_storage"
      },
      {
        "astId": 1807,
        "contract": "contracts/ArrakisV2.sol:ArrakisV2",
        "label": "_balances",
        "offset": 0,
        "slot": "101",
        "type": "t_mapping(t_address,t_uint256)"
      },
      {
        "astId": 1813,
        "contract": "contracts/ArrakisV2.sol:ArrakisV2",
        "label": "_allowances",
        "offset": 0,
        "slot": "102",
        "type": "t_mapping(t_address,t_mapping(t_address,t_uint256))"
      },
      {
        "astId": 1815,
        "contract": "contracts/ArrakisV2.sol:ArrakisV2",
        "label": "_totalSupply",
        "offset": 0,
        "slot": "103",
        "type": "t_uint256"
      },
      {
        "astId": 1817,
        "contract": "contracts/ArrakisV2.sol:ArrakisV2",
        "label": "_name",
        "offset": 0,
        "slot": "104",
        "type": "t_string_storage"
      },
      {
        "astId": 1819,
        "contract": "contracts/ArrakisV2.sol:ArrakisV2",
        "label": "_symbol",
        "offset": 0,
        "slot": "105",
        "type": "t_string_storage"
      },
      {
        "astId": 2398,
        "contract": "contracts/ArrakisV2.sol:ArrakisV2",
        "label": "__gap",
        "offset": 0,
        "slot": "106",
        "type": "t_array(t_uint256)45_storage"
      },
      {
        "astId": 1743,
        "contract": "contracts/ArrakisV2.sol:ArrakisV2",
        "label": "_status",
        "offset": 0,
        "slot": "151",
        "type": "t_uint256"
      },
      {
        "astId": 1787,
        "contract": "contracts/ArrakisV2.sol:ArrakisV2",
        "label": "__gap",
        "offset": 0,
        "slot": "152",
        "type": "t_array(t_uint256)49_storage"
      },
      {
        "astId": 9998,
        "contract": "contracts/ArrakisV2.sol:ArrakisV2",
        "label": "token0",
        "offset": 0,
        "slot": "201",
        "type": "t_contract(IERC20)3870"
      },
      {
        "astId": 10001,
        "contract": "contracts/ArrakisV2.sol:ArrakisV2",
        "label": "token1",
        "offset": 0,
        "slot": "202",
        "type": "t_contract(IERC20)3870"
      },
      {
        "astId": 10003,
        "contract": "contracts/ArrakisV2.sol:ArrakisV2",
        "label": "init0",
        "offset": 0,
        "slot": "203",
        "type": "t_uint256"
      },
      {
        "astId": 10005,
        "contract": "contracts/ArrakisV2.sol:ArrakisV2",
        "label": "init1",
        "offset": 0,
        "slot": "204",
        "type": "t_uint256"
      },
      {
        "astId": 10007,
        "contract": "contracts/ArrakisV2.sol:ArrakisV2",
        "label": "managerFeeBPS",
        "offset": 0,
        "slot": "205",
        "type": "t_uint16"
      },
      {
        "astId": 10009,
        "contract": "contracts/ArrakisV2.sol:ArrakisV2",
        "label": "managerBalance0",
        "offset": 0,
        "slot": "206",
        "type": "t_uint256"
      },
      {
        "astId": 10011,
        "contract": "contracts/ArrakisV2.sol:ArrakisV2",
        "label": "managerBalance1",
        "offset": 0,
        "slot": "207",
        "type": "t_uint256"
      },
      {
        "astId": 10013,
        "contract": "contracts/ArrakisV2.sol:ArrakisV2",
        "label": "manager",
        "offset": 0,
        "slot": "208",
        "type": "t_address"
      },
      {
        "astId": 10015,
        "contract": "contracts/ArrakisV2.sol:ArrakisV2",
        "label": "restrictedMint",
        "offset": 0,
        "slot": "209",
        "type": "t_address"
      },
      {
        "astId": 10019,
        "contract": "contracts/ArrakisV2.sol:ArrakisV2",
        "label": "_ranges",
        "offset": 0,
        "slot": "210",
        "type": "t_array(t_struct(Range)13034_storage)dyn_storage"
      },
      {
        "astId": 10022,
        "contract": "contracts/ArrakisV2.sol:ArrakisV2",
        "label": "_pools",
        "offset": 0,
        "slot": "211",
        "type": "t_struct(AddressSet)5201_storage"
      },
      {
        "astId": 10025,
        "contract": "contracts/ArrakisV2.sol:ArrakisV2",
        "label": "_routers",
        "offset": 0,
        "slot": "213",
        "type": "t_struct(AddressSet)5201_storage"
      }
    ],
    "types": {
      "t_address": {
        "encoding": "inplace",
        "label": "address",
        "numberOfBytes": "20"
      },
      "t_array(t_bytes32)dyn_storage": {
        "base": "t_bytes32",
        "encoding": "dynamic_array",
        "label": "bytes32[]",
        "numberOfBytes": "32"
      },
      "t_array(t_struct(Range)13034_storage)dyn_storage": {
        "base": "t_struct(Range)13034_storage",
        "encoding": "dynamic_array",
        "label": "struct Range[]",
        "numberOfBytes": "32"
      },
      "t_array(t_uint256)45_storage": {
        "base": "t_uint256",
        "encoding": "inplace",
        "label": "uint256[45]",
        "numberOfBytes": "1440"
      },
      "t_array(t_uint256)49_storage": {
        "base": "t_uint256",
        "encoding": "inplace",
        "label": "uint256[49]",
        "numberOfBytes": "1568"
      },
      "t_array(t_uint256)50_storage": {
        "base": "t_uint256",
        "encoding": "inplace",
        "label": "uint256[50]",
        "numberOfBytes": "1600"
      },
      "t_bool": {
        "encoding": "inplace",
        "label": "bool",
        "numberOfBytes": "1"
      },
      "t_bytes32": {
        "encoding": "inplace",
        "label": "bytes32",
        "numberOfBytes": "32"
      },
      "t_contract(IERC20)3870": {
        "encoding": "inplace",
        "label": "contract IERC20",
        "numberOfBytes": "20"
      },
      "t_int24": {
        "encoding": "inplace",
        "label": "int24",
        "numberOfBytes": "3"
      },
      "t_mapping(t_address,t_mapping(t_address,t_uint256))": {
        "encoding": "mapping",
        "key": "t_address",
        "label": "mapping(address => mapping(address => uint256))",
        "numberOfBytes": "32",
        "value": "t_mapping(t_address,t_uint256)"
      },
      "t_mapping(t_address,t_uint256)": {
        "encoding": "mapping",
        "key": "t_address",
        "label": "mapping(address => uint256)",
        "numberOfBytes": "32",
        "value": "t_uint256"
      },
      "t_mapping(t_bytes32,t_uint256)": {
        "encoding": "mapping",
        "key": "t_bytes32",
        "label": "mapping(bytes32 => uint256)",
        "numberOfBytes": "32",
        "value": "t_uint256"
      },
      "t_string_storage": {
        "encoding": "bytes",
        "label": "string",
        "numberOfBytes": "32"
      },
      "t_struct(AddressSet)5201_storage": {
        "encoding": "inplace",
        "label": "struct EnumerableSet.AddressSet",
        "members": [
          {
            "astId": 5200,
            "contract": "contracts/ArrakisV2.sol:ArrakisV2",
            "label": "_inner",
            "offset": 0,
            "slot": "0",
            "type": "t_struct(Set)4900_storage"
          }
        ],
        "numberOfBytes": "64"
      },
      "t_struct(Range)13034_storage": {
        "encoding": "inplace",
        "label": "struct Range",
        "members": [
          {
            "astId": 13029,
            "contract": "contracts/ArrakisV2.sol:ArrakisV2",
            "label": "lowerTick",
            "offset": 0,
            "slot": "0",
            "type": "t_int24"
          },
          {
            "astId": 13031,
            "contract": "contracts/ArrakisV2.sol:ArrakisV2",
            "label": "upperTick",
            "offset": 3,
            "slot": "0",
            "type": "t_int24"
          },
          {
            "astId": 13033,
            "contract": "contracts/ArrakisV2.sol:ArrakisV2",
            "label": "feeTier",
            "offset": 6,
            "slot": "0",
            "type": "t_uint24"
          }
        ],
        "numberOfBytes": "32"
      },
      "t_struct(Set)4900_storage": {
        "encoding": "inplace",
        "label": "struct EnumerableSet.Set",
        "members": [
          {
            "astId": 4895,
            "contract": "contracts/ArrakisV2.sol:ArrakisV2",
            "label": "_values",
            "offset": 0,
            "slot": "0",
            "type": "t_array(t_bytes32)dyn_storage"
          },
          {
            "astId": 4899,
            "contract": "contracts/ArrakisV2.sol:ArrakisV2",
            "label": "_indexes",
            "offset": 0,
            "slot": "1",
            "type": "t_mapping(t_bytes32,t_uint256)"
          }
        ],
        "numberOfBytes": "64"
      },
      "t_uint16": {
        "encoding": "inplace",
        "label": "uint16",
        "numberOfBytes": "2"
      },
      "t_uint24": {
        "encoding": "inplace",
        "label": "uint24",
        "numberOfBytes": "3"
      },
      "t_uint256": {
        "encoding": "inplace",
        "label": "uint256",
        "numberOfBytes": "32"
      },
      "t_uint8": {
        "encoding": "inplace",
        "label": "uint8",
        "numberOfBytes": "1"
      }
    }
  }
}