{
  "address": "0x2f389e583F064f94a63B3ccA502719F27cD5Cf00",
  "abi": [
    {
      "inputs": [
        {
          "internalType": "contract IUniswapV3Factory",
          "name": "factory_",
          "type": "address"
        },
        {
          "internalType": "address",
          "name": "arrakisTreasury_",
          "type": "address"
        }
      ],
      "stateMutability": "nonpayable",
      "type": "constructor"
    },
    {
      "anonymous": false,
      "inputs": [
        {
          "indexed": true,
          "internalType": "address",
          "name": "owner",
          "type": "address"
        },
        {
          "indexed": true,
          "internalType": "address",
          "name": "spender",
          "type": "address"
        },
        {
          "indexed": false,
          "internalType": "uint256",
          "name": "value",
          "type": "uint256"
        }
      ],
      "name": "Approval",
      "type": "event"
    },
    {
      "anonymous": false,
      "inputs": [
        {
          "indexed": false,
          "internalType": "uint8",
          "name": "version",
          "type": "uint8"
        }
      ],
      "name": "Initialized",
      "type": "event"
    },
    {
      "anonymous": false,
      "inputs": [
        {
          "indexed": false,
          "internalType": "address",
          "name": "user",
          "type": "address"
        },
        {
          "indexed": false,
          "internalType": "uint256",
          "name": "burnAmount0",
          "type": "uint256"
        },
        {
          "indexed": false,
          "internalType": "uint256",
          "name": "burnAmount1",
          "type": "uint256"
        }
      ],
      "name": "LPBurned",
      "type": "event"
    },
    {
      "anonymous": false,
      "inputs": [
        {
          "indexed": false,
          "internalType": "uint24[]",
          "name": "feeTiers",
          "type": "uint24[]"
        }
      ],
      "name": "LogAddPools",
      "type": "event"
    },
    {
      "anonymous": false,
      "inputs": [
        {
          "indexed": false,
          "internalType": "address[]",
          "name": "routers",
          "type": "address[]"
        }
      ],
      "name": "LogBlacklistRouters",
      "type": "event"
    },
    {
      "anonymous": false,
      "inputs": [
        {
          "indexed": false,
          "internalType": "address",
          "name": "receiver",
          "type": "address"
        },
        {
          "indexed": false,
          "internalType": "uint256",
          "name": "burnAmount",
          "type": "uint256"
        },
        {
          "indexed": false,
          "internalType": "uint256",
          "name": "amount0Out",
          "type": "uint256"
        },
        {
          "indexed": false,
          "internalType": "uint256",
          "name": "amount1Out",
          "type": "uint256"
        }
      ],
      "name": "LogBurn",
      "type": "event"
    },
    {
      "anonymous": false,
      "inputs": [
        {
          "indexed": false,
          "internalType": "uint256",
          "name": "fee0",
          "type": "uint256"
        },
        {
          "indexed": false,
          "internalType": "uint256",
          "name": "fee1",
          "type": "uint256"
        }
      ],
      "name": "LogCollectedFees",
      "type": "event"
    },
    {
      "anonymous": false,
      "inputs": [
        {
          "indexed": false,
          "internalType": "address",
          "name": "receiver",
          "type": "address"
        },
        {
          "indexed": false,
          "internalType": "uint256",
          "name": "mintAmount",
          "type": "uint256"
        },
        {
          "indexed": false,
          "internalType": "uint256",
          "name": "amount0In",
          "type": "uint256"
        },
        {
          "indexed": false,
          "internalType": "uint256",
          "name": "amount1In",
          "type": "uint256"
        }
      ],
      "name": "LogMint",
      "type": "event"
    },
    {
      "anonymous": false,
      "inputs": [
        {
          "components": [
            {
              "components": [
                {
                  "internalType": "uint128",
                  "name": "liquidity",
                  "type": "uint128"
                },
                {
                  "components": [
                    {
                      "internalType": "int24",
                      "name": "lowerTick",
                      "type": "int24"
                    },
                    {
                      "internalType": "int24",
                      "name": "upperTick",
                      "type": "int24"
                    },
                    {
                      "internalType": "uint24",
                      "name": "feeTier",
                      "type": "uint24"
                    }
                  ],
                  "internalType": "struct Range",
                  "name": "range",
                  "type": "tuple"
                }
              ],
              "internalType": "struct PositionLiquidity[]",
              "name": "removes",
              "type": "tuple[]"
            },
            {
              "components": [
                {
                  "internalType": "uint128",
                  "name": "liquidity",
                  "type": "uint128"
                },
                {
                  "components": [
                    {
                      "internalType": "int24",
                      "name": "lowerTick",
                      "type": "int24"
                    },
                    {
                      "internalType": "int24",
                      "name": "upperTick",
                      "type": "int24"
                    },
                    {
                      "internalType": "uint24",
                      "name": "feeTier",
                      "type": "uint24"
                    }
                  ],
                  "internalType": "struct Range",
                  "name": "range",
                  "type": "tuple"
                }
              ],
              "internalType": "struct PositionLiquidity[]",
              "name": "deposits",
              "type": "tuple[]"
            },
            {
              "components": [
                {
                  "internalType": "bytes",
                  "name": "payload",
                  "type": "bytes"
                },
                {
                  "internalType": "address",
                  "name": "router",
                  "type": "address"
                },
                {
                  "internalType": "uint256",
                  "name": "amountIn",
                  "type": "uint256"
                },
                {
                  "internalType": "uint256",
                  "name": "expectedMinReturn",
                  "type": "uint256"
                },
                {
                  "internalType": "bool",
                  "name": "zeroForOne",
                  "type": "bool"
                }
              ],
              "internalType": "struct SwapPayload",
              "name": "swap",
              "type": "tuple"
            },
            {
              "internalType": "uint256",
              "name": "minDeposit0",
              "type": "uint256"
            },
            {
              "internalType": "uint256",
              "name": "minDeposit1",
              "type": "uint256"
            }
          ],
          "indexed": false,
          "internalType": "struct Rebalance",
          "name": "rebalanceParams",
          "type": "tuple"
        }
      ],
      "name": "LogRebalance",
      "type": "event"
    },
    {
      "anonymous": false,
      "inputs": [
        {
          "indexed": false,
          "internalType": "address[]",
          "name": "pools",
          "type": "address[]"
        }
      ],
      "name": "LogRemovePools",
      "type": "event"
    },
    {
      "anonymous": false,
      "inputs": [
        {
          "indexed": false,
          "internalType": "address",
          "name": "minter",
          "type": "address"
        }
      ],
      "name": "LogRestrictedMint",
      "type": "event"
    },
    {
      "anonymous": false,
      "inputs": [
        {
          "indexed": false,
          "internalType": "uint256",
          "name": "init0",
          "type": "uint256"
        },
        {
          "indexed": false,
          "internalType": "uint256",
          "name": "init1",
          "type": "uint256"
        }
      ],
      "name": "LogSetInits",
      "type": "event"
    },
    {
      "anonymous": false,
      "inputs": [
        {
          "indexed": false,
          "internalType": "address",
          "name": "newManager",
          "type": "address"
        }
      ],
      "name": "LogSetManager",
      "type": "event"
    },
    {
      "anonymous": false,
      "inputs": [
        {
          "indexed": false,
          "internalType": "uint256",
          "name": "fee0",
          "type": "uint256"
        },
        {
          "indexed": false,
          "internalType": "uint256",
          "name": "fee1",
          "type": "uint256"
        }
      ],
      "name": "LogUncollectedFees",
      "type": "event"
    },
    {
      "anonymous": false,
      "inputs": [
        {
          "indexed": false,
          "internalType": "address[]",
          "name": "routers",
          "type": "address[]"
        }
      ],
      "name": "LogWhitelistRouters",
      "type": "event"
    },
    {
      "anonymous": false,
      "inputs": [
        {
          "indexed": false,
          "internalType": "uint256",
          "name": "amount0",
          "type": "uint256"
        },
        {
          "indexed": false,
          "internalType": "uint256",
          "name": "amount1",
          "type": "uint256"
        }
      ],
      "name": "LogWithdrawArrakisBalance",
      "type": "event"
    },
    {
      "anonymous": false,
      "inputs": [
        {
          "indexed": false,
          "internalType": "uint256",
          "name": "amount0",
          "type": "uint256"
        },
        {
          "indexed": false,
          "internalType": "uint256",
          "name": "amount1",
          "type": "uint256"
        }
      ],
      "name": "LogWithdrawManagerBalance",
      "type": "event"
    },
    {
      "anonymous": false,
      "inputs": [
        {
          "indexed": true,
          "internalType": "address",
          "name": "previousOwner",
          "type": "address"
        },
        {
          "indexed": true,
          "internalType": "address",
          "name": "newOwner",
          "type": "address"
        }
      ],
      "name": "OwnershipTransferred",
      "type": "event"
    },
    {
      "anonymous": false,
      "inputs": [
        {
          "indexed": true,
          "internalType": "address",
          "name": "from",
          "type": "address"
        },
        {
          "indexed": true,
          "internalType": "address",
          "name": "to",
          "type": "address"
        },
        {
          "indexed": false,
          "internalType": "uint256",
          "name": "value",
          "type": "uint256"
        }
      ],
      "name": "Transfer",
      "type": "event"
    },
    {
      "inputs": [
        {
          "internalType": "uint24[]",
          "name": "feeTiers_",
          "type": "uint24[]"
        }
      ],
      "name": "addPools",
      "outputs": [],
      "stateMutability": "nonpayable",
      "type": "function"
    },
    {
      "inputs": [
        {
          "internalType": "address",
          "name": "owner",
          "type": "address"
        },
        {
          "internalType": "address",
          "name": "spender",
          "type": "address"
        }
      ],
      "name": "allowance",
      "outputs": [
        {
          "internalType": "uint256",
          "name": "",
          "type": "uint256"
        }
      ],
      "stateMutability": "view",
      "type": "function"
    },
    {
      "inputs": [
        {
          "internalType": "address",
          "name": "spender",
          "type": "address"
        },
        {
          "internalType": "uint256",
          "name": "amount",
          "type": "uint256"
        }
      ],
      "name": "approve",
      "outputs": [
        {
          "internalType": "bool",
          "name": "",
          "type": "bool"
        }
      ],
      "stateMutability": "nonpayable",
      "type": "function"
    },
    {
      "inputs": [],
      "name": "arrakisBalance0",
      "outputs": [
        {
          "internalType": "uint256",
          "name": "",
          "type": "uint256"
        }
      ],
      "stateMutability": "view",
      "type": "function"
    },
    {
      "inputs": [],
      "name": "arrakisBalance1",
      "outputs": [
        {
          "internalType": "uint256",
          "name": "",
          "type": "uint256"
        }
      ],
      "stateMutability": "view",
      "type": "function"
    },
    {
      "inputs": [],
      "name": "arrakisFeeBPS",
      "outputs": [
        {
          "internalType": "uint16",
          "name": "",
          "type": "uint16"
        }
      ],
      "stateMutability": "view",
      "type": "function"
    },
    {
      "inputs": [],
      "name": "arrakisTreasury",
      "outputs": [
        {
          "internalType": "address",
          "name": "",
          "type": "address"
        }
      ],
      "stateMutability": "view",
      "type": "function"
    },
    {
      "inputs": [
        {
          "internalType": "address",
          "name": "account",
          "type": "address"
        }
      ],
      "name": "balanceOf",
      "outputs": [
        {
          "internalType": "uint256",
          "name": "",
          "type": "uint256"
        }
      ],
      "stateMutability": "view",
      "type": "function"
    },
    {
      "inputs": [
        {
          "internalType": "address[]",
          "name": "routers_",
          "type": "address[]"
        }
      ],
      "name": "blacklistRouters",
      "outputs": [],
      "stateMutability": "nonpayable",
      "type": "function"
    },
    {
      "inputs": [
        {
          "components": [
            {
              "internalType": "uint128",
              "name": "liquidity",
              "type": "uint128"
            },
            {
              "components": [
                {
                  "internalType": "int24",
                  "name": "lowerTick",
                  "type": "int24"
                },
                {
                  "internalType": "int24",
                  "name": "upperTick",
                  "type": "int24"
                },
                {
                  "internalType": "uint24",
                  "name": "feeTier",
                  "type": "uint24"
                }
              ],
              "internalType": "struct Range",
              "name": "range",
              "type": "tuple"
            }
          ],
          "internalType": "struct BurnLiquidity[]",
          "name": "burns_",
          "type": "tuple[]"
        },
        {
          "internalType": "uint256",
          "name": "burnAmount_",
          "type": "uint256"
        },
        {
          "internalType": "address",
          "name": "receiver_",
          "type": "address"
        }
      ],
      "name": "burn",
      "outputs": [
        {
          "internalType": "uint256",
          "name": "amount0",
          "type": "uint256"
        },
        {
          "internalType": "uint256",
          "name": "amount1",
          "type": "uint256"
        }
      ],
      "stateMutability": "nonpayable",
      "type": "function"
    },
    {
      "inputs": [],
      "name": "decimals",
      "outputs": [
        {
          "internalType": "uint8",
          "name": "",
          "type": "uint8"
        }
      ],
      "stateMutability": "view",
      "type": "function"
    },
    {
      "inputs": [
        {
          "internalType": "address",
          "name": "spender",
          "type": "address"
        },
        {
          "internalType": "uint256",
          "name": "subtractedValue",
          "type": "uint256"
        }
      ],
      "name": "decreaseAllowance",
      "outputs": [
        {
          "internalType": "bool",
          "name": "",
          "type": "bool"
        }
      ],
      "stateMutability": "nonpayable",
      "type": "function"
    },
    {
      "inputs": [],
      "name": "factory",
      "outputs": [
        {
          "internalType": "contract IUniswapV3Factory",
          "name": "",
          "type": "address"
        }
      ],
      "stateMutability": "view",
      "type": "function"
    },
    {
      "inputs": [
        {
          "internalType": "address",
          "name": "spender",
          "type": "address"
        },
        {
          "internalType": "uint256",
          "name": "addedValue",
          "type": "uint256"
        }
      ],
      "name": "increaseAllowance",
      "outputs": [
        {
          "internalType": "bool",
          "name": "",
          "type": "bool"
        }
      ],
      "stateMutability": "nonpayable",
      "type": "function"
    },
    {
      "inputs": [],
      "name": "init0",
      "outputs": [
        {
          "internalType": "uint256",
          "name": "",
          "type": "uint256"
        }
      ],
      "stateMutability": "view",
      "type": "function"
    },
    {
      "inputs": [],
      "name": "init1",
      "outputs": [
        {
          "internalType": "uint256",
          "name": "",
          "type": "uint256"
        }
      ],
      "stateMutability": "view",
      "type": "function"
    },
    {
      "inputs": [
        {
          "internalType": "string",
          "name": "name_",
          "type": "string"
        },
        {
          "internalType": "string",
          "name": "symbol_",
          "type": "string"
        },
        {
          "components": [
            {
              "internalType": "uint24[]",
              "name": "feeTiers",
              "type": "uint24[]"
            },
            {
              "internalType": "address",
              "name": "token0",
              "type": "address"
            },
            {
              "internalType": "address",
              "name": "token1",
              "type": "address"
            },
            {
              "internalType": "address",
              "name": "owner",
              "type": "address"
            },
            {
              "internalType": "uint256",
              "name": "init0",
              "type": "uint256"
            },
            {
              "internalType": "uint256",
              "name": "init1",
              "type": "uint256"
            },
            {
              "internalType": "address",
              "name": "manager",
              "type": "address"
            },
            {
              "internalType": "address[]",
              "name": "routers",
              "type": "address[]"
            }
          ],
          "internalType": "struct InitializePayload",
          "name": "params_",
          "type": "tuple"
        }
      ],
      "name": "initialize",
      "outputs": [],
      "stateMutability": "nonpayable",
      "type": "function"
    },
    {
      "inputs": [],
      "name": "manager",
      "outputs": [
        {
          "internalType": "contract IManager",
          "name": "",
          "type": "address"
        }
      ],
      "stateMutability": "view",
      "type": "function"
    },
    {
      "inputs": [],
      "name": "managerBalance0",
      "outputs": [
        {
          "internalType": "uint256",
          "name": "",
          "type": "uint256"
        }
      ],
      "stateMutability": "view",
      "type": "function"
    },
    {
      "inputs": [],
      "name": "managerBalance1",
      "outputs": [
        {
          "internalType": "uint256",
          "name": "",
          "type": "uint256"
        }
      ],
      "stateMutability": "view",
      "type": "function"
    },
    {
      "inputs": [
        {
          "internalType": "uint256",
          "name": "mintAmount_",
          "type": "uint256"
        },
        {
          "internalType": "address",
          "name": "receiver_",
          "type": "address"
        }
      ],
      "name": "mint",
      "outputs": [
        {
          "internalType": "uint256",
          "name": "amount0",
          "type": "uint256"
        },
        {
          "internalType": "uint256",
          "name": "amount1",
          "type": "uint256"
        }
      ],
      "stateMutability": "nonpayable",
      "type": "function"
    },
    {
      "inputs": [],
      "name": "name",
      "outputs": [
        {
          "internalType": "string",
          "name": "",
          "type": "string"
        }
      ],
      "stateMutability": "view",
      "type": "function"
    },
    {
      "inputs": [],
      "name": "owner",
      "outputs": [
        {
          "internalType": "address",
          "name": "",
          "type": "address"
        }
      ],
      "stateMutability": "view",
      "type": "function"
    },
    {
      "inputs": [
        {
          "internalType": "uint256",
          "name": "",
          "type": "uint256"
        }
      ],
      "name": "ranges",
      "outputs": [
        {
          "internalType": "int24",
          "name": "lowerTick",
          "type": "int24"
        },
        {
          "internalType": "int24",
          "name": "upperTick",
          "type": "int24"
        },
        {
          "internalType": "uint24",
          "name": "feeTier",
          "type": "uint24"
        }
      ],
      "stateMutability": "view",
      "type": "function"
    },
    {
      "inputs": [
        {
          "components": [
            {
              "internalType": "int24",
              "name": "lowerTick",
              "type": "int24"
            },
            {
              "internalType": "int24",
              "name": "upperTick",
              "type": "int24"
            },
            {
              "internalType": "uint24",
              "name": "feeTier",
              "type": "uint24"
            }
          ],
          "internalType": "struct Range[]",
          "name": "ranges_",
          "type": "tuple[]"
        },
        {
          "components": [
            {
              "components": [
                {
                  "internalType": "uint128",
                  "name": "liquidity",
                  "type": "uint128"
                },
                {
                  "components": [
                    {
                      "internalType": "int24",
                      "name": "lowerTick",
                      "type": "int24"
                    },
                    {
                      "internalType": "int24",
                      "name": "upperTick",
                      "type": "int24"
                    },
                    {
                      "internalType": "uint24",
                      "name": "feeTier",
                      "type": "uint24"
                    }
                  ],
                  "internalType": "struct Range",
                  "name": "range",
                  "type": "tuple"
                }
              ],
              "internalType": "struct PositionLiquidity[]",
              "name": "removes",
              "type": "tuple[]"
            },
            {
              "components": [
                {
                  "internalType": "uint128",
                  "name": "liquidity",
                  "type": "uint128"
                },
                {
                  "components": [
                    {
                      "internalType": "int24",
                      "name": "lowerTick",
                      "type": "int24"
                    },
                    {
                      "internalType": "int24",
                      "name": "upperTick",
                      "type": "int24"
                    },
                    {
                      "internalType": "uint24",
                      "name": "feeTier",
                      "type": "uint24"
                    }
                  ],
                  "internalType": "struct Range",
                  "name": "range",
                  "type": "tuple"
                }
              ],
              "internalType": "struct PositionLiquidity[]",
              "name": "deposits",
              "type": "tuple[]"
            },
            {
              "components": [
                {
                  "internalType": "bytes",
                  "name": "payload",
                  "type": "bytes"
                },
                {
                  "internalType": "address",
                  "name": "router",
                  "type": "address"
                },
                {
                  "internalType": "uint256",
                  "name": "amountIn",
                  "type": "uint256"
                },
                {
                  "internalType": "uint256",
                  "name": "expectedMinReturn",
                  "type": "uint256"
                },
                {
                  "internalType": "bool",
                  "name": "zeroForOne",
                  "type": "bool"
                }
              ],
              "internalType": "struct SwapPayload",
              "name": "swap",
              "type": "tuple"
            },
            {
              "internalType": "uint256",
              "name": "minDeposit0",
              "type": "uint256"
            },
            {
              "internalType": "uint256",
              "name": "minDeposit1",
              "type": "uint256"
            }
          ],
          "internalType": "struct Rebalance",
          "name": "rebalanceParams_",
          "type": "tuple"
        },
        {
          "components": [
            {
              "internalType": "int24",
              "name": "lowerTick",
              "type": "int24"
            },
            {
              "internalType": "int24",
              "name": "upperTick",
              "type": "int24"
            },
            {
              "internalType": "uint24",
              "name": "feeTier",
              "type": "uint24"
            }
          ],
          "internalType": "struct Range[]",
          "name": "rangesToRemove_",
          "type": "tuple[]"
        }
      ],
      "name": "rebalance",
      "outputs": [],
      "stateMutability": "nonpayable",
      "type": "function"
    },
    {
      "inputs": [
        {
          "internalType": "address[]",
          "name": "pools_",
          "type": "address[]"
        }
      ],
      "name": "removePools",
      "outputs": [],
      "stateMutability": "nonpayable",
      "type": "function"
    },
    {
      "inputs": [],
      "name": "renounceOwnership",
      "outputs": [],
      "stateMutability": "nonpayable",
      "type": "function"
    },
    {
      "inputs": [],
      "name": "restrictedMint",
      "outputs": [
        {
          "internalType": "address",
          "name": "",
          "type": "address"
        }
      ],
      "stateMutability": "view",
      "type": "function"
    },
    {
      "inputs": [
        {
          "internalType": "uint256",
          "name": "init0_",
          "type": "uint256"
        },
        {
          "internalType": "uint256",
          "name": "init1_",
          "type": "uint256"
        }
      ],
      "name": "setInits",
      "outputs": [],
      "stateMutability": "nonpayable",
      "type": "function"
    },
    {
      "inputs": [
        {
          "internalType": "contract IManager",
          "name": "manager_",
          "type": "address"
        }
      ],
      "name": "setManager",
      "outputs": [],
      "stateMutability": "nonpayable",
      "type": "function"
    },
    {
      "inputs": [
        {
          "internalType": "address",
          "name": "minter_",
          "type": "address"
        }
      ],
      "name": "setRestrictedMint",
      "outputs": [],
      "stateMutability": "nonpayable",
      "type": "function"
    },
    {
      "inputs": [],
      "name": "symbol",
      "outputs": [
        {
          "internalType": "string",
          "name": "",
          "type": "string"
        }
      ],
      "stateMutability": "view",
      "type": "function"
    },
    {
      "inputs": [],
      "name": "token0",
      "outputs": [
        {
          "internalType": "contract IERC20",
          "name": "",
          "type": "address"
        }
      ],
      "stateMutability": "view",
      "type": "function"
    },
    {
      "inputs": [],
      "name": "token1",
      "outputs": [
        {
          "internalType": "contract IERC20",
          "name": "",
          "type": "address"
        }
      ],
      "stateMutability": "view",
      "type": "function"
    },
    {
      "inputs": [],
      "name": "totalSupply",
      "outputs": [
        {
          "internalType": "uint256",
          "name": "",
          "type": "uint256"
        }
      ],
      "stateMutability": "view",
      "type": "function"
    },
    {
      "inputs": [
        {
          "internalType": "address",
          "name": "to",
          "type": "address"
        },
        {
          "internalType": "uint256",
          "name": "amount",
          "type": "uint256"
        }
      ],
      "name": "transfer",
      "outputs": [
        {
          "internalType": "bool",
          "name": "",
          "type": "bool"
        }
      ],
      "stateMutability": "nonpayable",
      "type": "function"
    },
    {
      "inputs": [
        {
          "internalType": "address",
          "name": "from",
          "type": "address"
        },
        {
          "internalType": "address",
          "name": "to",
          "type": "address"
        },
        {
          "internalType": "uint256",
          "name": "amount",
          "type": "uint256"
        }
      ],
      "name": "transferFrom",
      "outputs": [
        {
          "internalType": "bool",
          "name": "",
          "type": "bool"
        }
      ],
      "stateMutability": "nonpayable",
      "type": "function"
    },
    {
      "inputs": [
        {
          "internalType": "address",
          "name": "newOwner",
          "type": "address"
        }
      ],
      "name": "transferOwnership",
      "outputs": [],
      "stateMutability": "nonpayable",
      "type": "function"
    },
    {
      "inputs": [
        {
          "internalType": "uint256",
          "name": "amount0Owed_",
          "type": "uint256"
        },
        {
          "internalType": "uint256",
          "name": "amount1Owed_",
          "type": "uint256"
        },
        {
          "internalType": "bytes",
          "name": "",
          "type": "bytes"
        }
      ],
      "name": "uniswapV3MintCallback",
      "outputs": [],
      "stateMutability": "nonpayable",
      "type": "function"
    },
    {
      "inputs": [
        {
          "internalType": "address[]",
          "name": "routers_",
          "type": "address[]"
        }
      ],
      "name": "whitelistRouters",
      "outputs": [],
      "stateMutability": "nonpayable",
      "type": "function"
    },
    {
      "inputs": [],
      "name": "withdrawArrakisBalance",
      "outputs": [],
      "stateMutability": "nonpayable",
      "type": "function"
    },
    {
      "inputs": [],
      "name": "withdrawManagerBalance",
      "outputs": [],
      "stateMutability": "nonpayable",
      "type": "function"
    }
  ],
  "transactionHash": "0x2e1da55a072eff90678393084a260dec92325d1339ad37f4f1fb1c856fd2b593",
  "args": [
    "0x1F98431c8aD98523631AE4a59f267346ea31F984",
    "0x2FF5D1da4985113F467BBBFF015e76ce8aB05F29"
  ],
  "numDeployments": 1,
  "solcInputHash": "13cfa716d9a76641341dcb45562c1580",
  "bytecode": "0x60c06040523480156200001157600080fd5b50604051620060a5380380620060a58339810160408190526200003491620000e9565b81816001600160a01b038216620000775760405162461bcd60e51b81526020600482015260026024820152612d2360f11b60448201526064015b60405180910390fd5b6001600160a01b038116620000b55760405162461bcd60e51b815260206004820152600360248201526216905560ea1b60448201526064016200006e565b6001600160a01b039182166080521660a05250620001289050565b6001600160a01b0381168114620000e657600080fd5b50565b60008060408385031215620000fd57600080fd5b82516200010a81620000d0565b60208401519092506200011d81620000d0565b809150509250929050565b60805160a051615f11620001946000396000818161052b01528181611bb10152611bee01526000818161055b01528181610f7f0152818161128001528181611793015281816122d80152818161266e01528181612ffd0152818161336a0152613a8e0152615f116000f3fe608060405234801561001057600080fd5b50600436106102de5760003560e01c806394bf804d11610186578063c7a4ae17116100e3578063dc9ad4c111610097578063f2eb3e3411610071578063f2eb3e3414610641578063f2fde38b1461064a578063f4effe411461065d57600080fd5b8063dc9ad4c1146105ed578063dd62ed3e146105f5578063e4fadbce1461062e57600080fd5b8063d21220a7116100c8578063d21220a7146105be578063d3487997146105d1578063d8953ca7146105e457600080fd5b8063c7a4ae1714610598578063d0ebdbe7146105ab57600080fd5b8063a9059cbb1161013a578063bbfe704e1161011f578063bbfe704e1461054d578063c45a015514610556578063c70750411461057d57600080fd5b8063a9059cbb14610513578063b9f24cb21461052657600080fd5b80639b605a241161016b5780639b605a24146104da578063a457c2d7146104ed578063a5ff1dc71461050057600080fd5b806394bf804d146104aa57806395d89b41146104d257600080fd5b80633f7b61351161023f57806370a08231116101f357806386ac1cb9116101cd57806386ac1cb9146104735780638da5cb5b1461048657806392e49dfd1461049757600080fd5b806370a082311461043a578063715018a6146104635780637ecd67171461046b57600080fd5b8063481c6a7511610224578063481c6a75146103d95780634b164140146103ec5780635fdecdfa146103ff57600080fd5b80633f7b6135146103bd57806342fb9d44146103d057600080fd5b806314b806301161029657806323b872dd1161027b57806323b872dd14610388578063313ce5671461039b57806339509351146103aa57600080fd5b806314b806301461037757806318160ddd1461038057600080fd5b8063095ea7b3116102c7578063095ea7b3146103145780630d6e6631146103375780630dfe16811461034c57600080fd5b8063065756db146102e357806306fdde03146102ff575b600080fd5b6102ec60d05481565b6040519081526020015b60405180910390f35b610307610670565b6040516102f69190615127565b61032761032236600461517a565b610702565b60405190151581526020016102f6565b61034a6103453660046151a6565b61071c565b005b60c95461035f906001600160a01b031681565b6040516001600160a01b0390911681526020016102f6565b6102ec60cb5481565b6067546102ec565b6103276103963660046151c3565b6107d0565b604051601281526020016102f6565b6103276103b836600461517a565b6107f6565b61034a6103cb366004615204565b610835565b6102ec60d15481565b60d25461035f906001600160a01b031681565b61034a6103fa366004615272565b610961565b61041261040d3660046152b4565b610aac565b60408051600294850b81529290930b602083015262ffffff16918101919091526060016102f6565b6102ec6104483660046151a6565b6001600160a01b031660009081526065602052604090205490565b61034a610aeb565b61034a610b51565b61034a610481366004615272565b610bdf565b6033546001600160a01b031661035f565b61034a6104a5366004615272565b610c8a565b6104bd6104b83660046152cd565b610dc9565b604080519283526020830191909152016102f6565b61030761114c565b61034a6104e8366004615342565b61115b565b6103276104fb36600461517a565b611977565b61034a61050e366004615272565b611a2c565b61032761052136600461517a565b611ac1565b61035f7f000000000000000000000000000000000000000000000000000000000000000081565b6102ec60cf5481565b61035f7f000000000000000000000000000000000000000000000000000000000000000081565b61058560fa81565b60405161ffff90911681526020016102f6565b60d35461035f906001600160a01b031681565b61034a6105b93660046151a6565b611acf565b60ca5461035f906001600160a01b031681565b61034a6105df366004615421565b611b77565b6102ec60ce5481565b61034a611b87565b6102ec610603366004615474565b6001600160a01b03918216600090815260666020908152604080832093909416825291909152205490565b61034a61063c3660046154a2565b611c49565b6102ec60cc5481565b61034a6106583660046151a6565b612073565b6104bd61066b36600461553e565b612155565b60606068805461067f906155cc565b80601f01602080910402602001604051908101604052809291908181526020018280546106ab906155cc565b80156106f85780601f106106cd576101008083540402835291602001916106f8565b820191906000526020600020905b8154815290600101906020018083116106db57829003601f168201915b5050505050905090565b600033610710818585612aef565b60019150505b92915050565b6033546001600160a01b0316331461077b5760405162461bcd60e51b815260206004820181905260248201527f4f776e61626c653a2063616c6c6572206973206e6f7420746865206f776e657260448201526064015b60405180910390fd5b60d380546001600160a01b0319166001600160a01b0383169081179091556040519081527f6b7f177e85ebe3aabaf1339b9a445ac908b2bef730372180fa280958e2414ee3906020015b60405180910390a150565b6000336107de858285612c2c565b6107e9858585612cb8565b60019150505b9392505050565b3360008181526066602090815260408083206001600160a01b0387168452909152812054909190610710908290869061083090879061561c565b612aef565b60008211806108445750600081115b6108745760405162461bcd60e51b81526020600482015260016024820152604960f81b6044820152606401610772565b606754156108a95760405162461bcd60e51b8152602060048201526002602482015261545360f01b6044820152606401610772565b60d3546000906001600160a01b0316156108ce5760d3546001600160a01b03166108db565b6033546001600160a01b03165b9050336001600160a01b038216146109195760405162461bcd60e51b81526020600482015260016024820152602960f91b6044820152606401610772565b60cb83905560cc82905560408051848152602081018490527ff8966e026442bb0adb17149a6d44e394d2b6eb3c5cc1dc71b3c0698000548ae6910160405180910390a1505050565b6033546001600160a01b031633146109bb5760405162461bcd60e51b815260206004820181905260248201527f4f776e61626c653a2063616c6c6572206973206e6f7420746865206f776e65726044820152606401610772565b60005b81811015610a6e576109f88383838181106109db576109db615634565b90506020020160208101906109f091906151a6565b60d490612ecf565b610a295760405162461bcd60e51b815260206004820152600260248201526104e560f41b6044820152606401610772565b610a5b838383818110610a3e57610a3e615634565b9050602002016020810190610a5391906151a6565b60d490612ef1565b5080610a668161564a565b9150506109be565b507f024551cce253d1a442bfe99dae530a00a492fb8c67c4456cce3c9d23eecd39618282604051610aa0929190615663565b60405180910390a15050565b60cd8181548110610abc57600080fd5b600091825260209091200154600281810b925063010000008204900b906601000000000000900462ffffff1683565b6033546001600160a01b03163314610b455760405162461bcd60e51b815260206004820181905260248201527f4f776e61626c653a2063616c6c6572206973206e6f7420746865206f776e65726044820152606401610772565b610b4f6000612f06565b565b60d0805460d18054600093849055929055908115610b865760d25460c954610b86916001600160a01b03918216911684612f58565b8015610ba95760d25460ca54610ba9916001600160a01b03918216911683612f58565b60408051838152602081018390527fa292e28c648da34e20b372054caab5f0359198b3b4d5f0ef9945d4616e15dc979101610aa0565b6033546001600160a01b03163314610c395760405162461bcd60e51b815260206004820181905260248201527f4f776e61626c653a2063616c6c6572206973206e6f7420746865206f776e65726044820152606401610772565b60c95460ca54610c5991849184916001600160a01b039081169116612fee565b7f1b402611d70c7735d942445aaa3ebbf878149bece6b797870b44a581c5f7f4c98282604051610aa09291906156c2565b6033546001600160a01b03163314610ce45760405162461bcd60e51b815260206004820181905260248201527f4f776e61626c653a2063616c6c6572206973206e6f7420746865206f776e65726044820152606401610772565b60005b81811015610d9757610d21838383818110610d0457610d04615634565b9050602002016020810190610d1991906151a6565b60d690612ecf565b610d525760405162461bcd60e51b8152602060048201526002602482015261272960f11b6044820152606401610772565b610d84838383818110610d6757610d67615634565b9050602002016020810190610d7c91906151a6565b60d690612ef1565b5080610d8f8161564a565b915050610ce7565b507fbe6c83115c5bf7fd07e41c6002394841bd7dc0348f3b7c58645e8950f604f5c48282604051610aa0929190615663565b600080600260975403610e1e5760405162461bcd60e51b815260206004820152601f60248201527f5265656e7472616e637947756172643a207265656e7472616e742063616c6c006044820152606401610772565b600260975583610e555760405162461bcd60e51b81526020600482015260026024820152614d4160f01b6044820152606401610772565b60d3546001600160a01b03161580610e77575060d3546001600160a01b031633145b610ea75760405162461bcd60e51b81526020600482015260016024820152602960f91b6044820152606401610772565b306000610eb360675490565b905060008060008060008511610ed15760cb5460cc54600080611029565b734F3f69aB92D414b73a136b31d54bA207a056302163e56f4d916040518060a0016040528060cd805480602002602001604051908101604052809291908181526020016000905b82821015610f6e5760008481526020908190206040805160608101825291850154600281810b845263010000008204900b838501526601000000000000900462ffffff1690820152825260019092019101610f18565b505050908252506001600160a01b037f00000000000000000000000000000000000000000000000000000000000000008116602083015260c954811660408084019190915260ca5482166060840152908b16608090920191909152516001600160e01b031960e084901b168152610fe89190600401615701565b608060405180830381865af4158015611005573d6000803e3d6000fd5b505050506040513d601f19601f8201168201806040525081019061102991906157ca565b9350935093509350600080861161104857670de0b6b3a764000061104a565b855b90506110578b868361316e565b98506110648b858361316e565b97506110708a8c6131b7565b881561108e5760c95461108e906001600160a01b031633898c613297565b87156110ac5760ca546110ac906001600160a01b031633898b613297565b60408051848152602081018490527f3a2c380ba0250aca22c1b7f98782a7504335a0c9f8626ab66e84907722fce70d910160405180910390a1604080516001600160a01b038c168152602081018d90529081018a9052606081018990527f5f11830295067c4bcc7d02d4e3b048cd7427be50a3aeb6afc9d3d559ee64bcfa9060800160405180910390a15050505050505060016097819055509250929050565b60606069805461067f906155cc565b60d2546001600160a01b0316331461119a5760405162461bcd60e51b81526020600482015260026024820152614e4d60f01b6044820152606401610772565b60005b848110156114fc57600073C64433E71f1f76Be5567B657026656Cce5999C346335f8054760cd8989868181106111d5576111d5615634565b9050606002016040518363ffffffff1660e01b81526004016111f8929190615853565b6040805180830381865af4158015611214573d6000803e3d6000fd5b505050506040513d601f19601f8201168201806040525081019061123891906158dc565b509050801561126d5760405162461bcd60e51b81526020600482015260016024820152602960f91b6044820152606401610772565b60c95460ca546000916001600160a01b037f0000000000000000000000000000000000000000000000000000000000000000811692631698ee8292821691168b8b888181106112be576112be615634565b90506060020160400160208101906112d6919061590a565b6040516001600160e01b031960e086901b1681526001600160a01b03938416600482015292909116602483015262ffffff166044820152606401602060405180830381865afa15801561132d573d6000803e3d6000fd5b505050506040513d601f19601f820116820180604052508101906113519190615927565b90506001600160a01b0381166113a95760405162461bcd60e51b815260206004820152600360248201527f4e555000000000000000000000000000000000000000000000000000000000006044820152606401610772565b6113b460d482612ecf565b6113e45760405162461bcd60e51b81526020600482015260016024820152600560fc1b6044820152606401610772565b73E1b3Dc2F7656d3036e4Fe9A3cA8F337925Ef4a7d636b018820828a8a8781811061141157611411615634565b9050606002016040518363ffffffff1660e01b8152600401611434929190615944565b602060405180830381865af4158015611451573d6000803e3d6000fd5b505050506040513d601f19601f820116820180604052508101906114759190615961565b6114a55760405162461bcd60e51b81526020600482015260016024820152602960f91b6044820152606401610772565b60cd8888858181106114b9576114b9615634565b835460018101855560009485526020909420606090910292909201929190910190506114e5828261597e565b5050505080806114f49061564a565b91505061119d565b50611506836132e8565b60ce5460d054611516919061561c565b60c9546040516370a0823160e01b81523060048201526001600160a01b03909116906370a0823190602401602060405180830381865afa15801561155e573d6000803e3d6000fd5b505050506040513d601f19601f820116820180604052508101906115829190615a0a565b10156115d05760405162461bcd60e51b815260206004820152600360248201527f4d423000000000000000000000000000000000000000000000000000000000006044820152606401610772565b60cf5460d1546115e0919061561c565b60ca546040516370a0823160e01b81523060048201526001600160a01b03909116906370a0823190602401602060405180830381865afa158015611628573d6000803e3d6000fd5b505050506040513d601f19601f8201168201806040525081019061164c9190615a0a565b101561169a5760405162461bcd60e51b815260206004820152600360248201527f4d423100000000000000000000000000000000000000000000000000000000006044820152606401610772565b60005b8181101561196f5760008073C64433E71f1f76Be5567B657026656Cce5999C346335f8054760cd8787878181106116d6576116d6615634565b9050606002016040518363ffffffff1660e01b81526004016116f9929190615853565b6040805180830381865af4158015611715573d6000803e3d6000fd5b505050506040513d601f19601f8201168201806040525081019061173991906158dc565b915091508161176f5760405162461bcd60e51b8152602060048201526002602482015261272960f11b6044820152606401610772565b60c95460ca5473C64433E71f1f76Be5567B657026656Cce5999C3491637806db78917f00000000000000000000000000000000000000000000000000000000000000009130916001600160a01b0391821691168a8a8a8181106117d4576117d4615634565b9050606002016040518663ffffffff1660e01b81526004016117fa959493929190615a23565b60006040518083038186803b15801561181257600080fd5b505af4158015611826573d6000803e3d6000fd5b5050505060cd818154811061183d5761183d615634565b6000918252602090912001805468ffffffffffffffffff19169055805b60cd5461186990600190615a58565b8110156119245760cd61187d82600161561c565b8154811061188d5761188d615634565b9060005260206000200160cd82815481106118aa576118aa615634565b6000918252602090912082549101805462ffffff92831662ffffff19821681178355845463010000009081900485160265ffffffffffff199092161717808255925466010000000000009081900490921690910268ffffff000000000000199092169190911790558061191c8161564a565b91505061185a565b5060cd80548061193657611936615a6f565b6000828152602090208101600019908101805468ffffffffffffffffff19169055019055508190506119678161564a565b91505061169d565b505050505050565b3360008181526066602090815260408083206001600160a01b038716845290915281205490919083811015611a145760405162461bcd60e51b815260206004820152602560248201527f45524332303a2064656372656173656420616c6c6f77616e63652062656c6f7760448201527f207a65726f0000000000000000000000000000000000000000000000000000006064820152608401610772565b611a218286868403612aef565b506001949350505050565b6033546001600160a01b03163314611a865760405162461bcd60e51b815260206004820181905260248201527f4f776e61626c653a2063616c6c6572206973206e6f7420746865206f776e65726044820152606401610772565b611a908282613e71565b7f102656122b5bfb41d864259a385db02d34584f3a71b6c6c35c14cbdaf9038fe68282604051610aa0929190615663565b600033610710818585612cb8565b6033546001600160a01b03163314611b295760405162461bcd60e51b815260206004820181905260248201527f4f776e61626c653a2063616c6c6572206973206e6f7420746865206f776e65726044820152606401610772565b60d280546001600160a01b0319166001600160a01b0383169081179091556040519081527f9b6ffaf4cbfd923495440b7f17ced9394289f001b3ead53ab67e2c3f3e39b0f5906020016107c5565b611b818484613fbd565b50505050565b60ce805460cf8054600093849055929055908115611bd65760c954611bd6906001600160a01b03167f000000000000000000000000000000000000000000000000000000000000000084612f58565b8015611c135760ca54611c13906001600160a01b03167f000000000000000000000000000000000000000000000000000000000000000083612f58565b60408051838152602081018390527ff640f308bdf7deba15c1aba8a4cf108b0f79d1ca98748696470dc0007f7cf8d39101610aa0565b6000611c55600161415b565b90508015611c6d576000805461ff0019166101001790555b6000611c798380615a85565b905011611cc85760405162461bcd60e51b815260206004820152600360248201527f4e465400000000000000000000000000000000000000000000000000000000006044820152606401610772565b6000611cda60408401602085016151a6565b6001600160a01b031603611d155760405162461bcd60e51b8152602060048201526002602482015261054360f41b6044820152606401610772565b611d2560608301604084016151a6565b6001600160a01b0316611d3e60408401602085016151a6565b6001600160a01b031610611d945760405162461bcd60e51b815260206004820152600360248201527f57544f00000000000000000000000000000000000000000000000000000000006044820152606401610772565b600082608001351180611dab575060008260a00135115b611ddb5760405162461bcd60e51b81526020600482015260016024820152604960f81b6044820152606401610772565b611e4e86868080601f01602080910402602001604051908101604052809392919081815260200183838082843760009201919091525050604080516020601f8a01819004810282018101909252888152925088915087908190840183828082843760009201919091525061427692505050565b611e566142eb565b611e88611e638380615a85565b611e7360408601602087016151a6565b611e8360608701604088016151a6565b612fee565b611e9d611e9860e0840184615a85565b613e71565b611ead60408301602084016151a6565b60c980546001600160a01b0319166001600160a01b0392909216919091179055611edd60608301604084016151a6565b60ca80546001600160a01b0319166001600160a01b0392909216919091179055611f15611f1060808401606085016151a6565b612f06565b611f2560e0830160c084016151a6565b60d280546001600160a01b0319166001600160a01b03929092169190911790557f1b402611d70c7735d942445aaa3ebbf878149bece6b797870b44a581c5f7f4c9611f708380615a85565b604051611f7e9291906156c2565b60405180910390a17ff8966e026442bb0adb17149a6d44e394d2b6eb3c5cc1dc71b3c0698000548ae6826080013560cb8190558360a0013560cc819055604051611fd2929190918252602082015260400190565b60405180910390a17f9b6ffaf4cbfd923495440b7f17ced9394289f001b3ead53ab67e2c3f3e39b0f561200b60e0840160c085016151a6565b6040516001600160a01b03909116815260200160405180910390a1801561196f576000805461ff0019169055604051600181527f7f26b83ff96e1f2b6a682f133852f6798a09c465da95921460cefb38474024989060200160405180910390a1505050505050565b6033546001600160a01b031633146120cd5760405162461bcd60e51b815260206004820181905260248201527f4f776e61626c653a2063616c6c6572206973206e6f7420746865206f776e65726044820152606401610772565b6001600160a01b0381166121495760405162461bcd60e51b815260206004820152602660248201527f4f776e61626c653a206e6577206f776e657220697320746865207a65726f206160448201527f64647265737300000000000000000000000000000000000000000000000000006064820152608401610772565b61215281612f06565b50565b6000806002609754036121aa5760405162461bcd60e51b815260206004820152601f60248201527f5265656e7472616e637947756172643a207265656e7472616e742063616c6c006044820152606401610772565b600260975560006121ba60675490565b9050600081116121f15760405162461bcd60e51b8152602060048201526002602482015261545360f01b6044820152606401610772565b61222a6040518060c001604052806000815260200160008152602001600081526020016000815260200160008152602001600081525090565b734F3f69aB92D414b73a136b31d54bA207a056302163e56f4d916040518060a0016040528060cd805480602002602001604051908101604052809291908181526020016000905b828210156122c75760008481526020908190206040805160608101825291850154600281810b845263010000008204900b838501526601000000000000900462ffffff1690820152825260019092019101612271565b505050908252506001600160a01b037f00000000000000000000000000000000000000000000000000000000000000008116602083015260c954811660408084019190915260ca54909116606083015230608090920191909152516001600160e01b031960e084901b1681526123409190600401615701565b608060405180830381865af415801561235d573d6000803e3d6000fd5b505050506040513d601f19601f8201168201806040525081019061238191906157ca565b606085015260408401526020830152815260ce5460d0546123a2919061561c565b60c9546040516370a0823160e01b81523060048201526001600160a01b03909116906370a0823190602401602060405180830381865afa1580156123ea573d6000803e3d6000fd5b505050506040513d601f19601f8201168201806040525081019061240e9190615a0a565b6124189190615a58565b608082015260cf5460d15461242d919061561c565b60ca546040516370a0823160e01b81523060048201526001600160a01b03909116906370a0823190602401602060405180830381865afa158015612475573d6000803e3d6000fd5b505050506040513d601f19601f820116820180604052508101906124999190615a0a565b6124a39190615a58565b60a082015280516124b590878461435e565b93506124c68160200151878461435e565b9250838160800151101580156124e05750828160a0015110155b15612581576124ef338761440c565b831561250c5760c95461250c906001600160a01b03168686612f58565b82156125295760ca54612529906001600160a01b03168685612f58565b604080516001600160a01b038716815260208101889052908101859052606081018490527f86dacd5ce62967ebd3d915a82b22ad7e159538e50c7ba451e073fec048d9f1279060800160405180910390a15050612adf565b866125b25760405162461bcd60e51b81526020600482015260016024820152602160f91b6044820152606401610772565b6125bc338761440c565b6125e76040518060800160405280600081526020016000815260200160008152602001600081525090565b60005b888110156128375789898281811061260457612604615634565b61261a9260206080909202019081019150615ae4565b6001600160801b03166000036126575760405162461bcd60e51b8152602060048201526002602482015261262d60f11b6044820152606401610772565b60c95460ca546000916127c2916001600160a01b037f0000000000000000000000000000000000000000000000000000000000000000811692631698ee829290821691168f8f888181106126ad576126ad615634565b6126c492608091820201908101915060600161590a565b6040516001600160e01b031960e086901b1681526001600160a01b03938416600482015292909116602483015262ffffff166044820152606401602060405180830381865afa15801561271b573d6000803e3d6000fd5b505050506040513d601f19601f8201168201806040525081019061273f9190615927565b8c8c8581811061275157612751615634565b61276a9260406080909202019081019150602001615b01565b8d8d8681811061277c5761277c615634565b6127959260606080909202019081019150604001615b01565b8e8e878181106127a7576127a7615634565b6127bd9260206080909202019081019150615ae4565b61455a565b90508060400151836040018181516127da919061561c565b90525060608082015190840180516127f390839061561c565b90525080518351849061280790839061561c565b905250602080820151908401805161282090839061561c565b90525081905061282f8161564a565b9150506125ea565b5061284a816040015182606001516148d8565b6000851180156128eb575060008560ce5460d054612868919061561c565b60c9546040516370a0823160e01b81523060048201526001600160a01b03909116906370a0823190602401602060405180830381865afa1580156128b0573d6000803e3d6000fd5b505050506040513d601f19601f820116820180604052508101906128d49190615a0a565b6128de9190615a58565b6128e89190615a58565b10155b156129075760c954612907906001600160a01b03168787612f58565b6000841180156129a8575060008460cf5460d154612925919061561c565b60ca546040516370a0823160e01b81523060048201526001600160a01b03909116906370a0823190602401602060405180830381865afa15801561296d573d6000803e3d6000fd5b505050506040513d601f19601f820116820180604052508101906129919190615a0a565b61299b9190615a58565b6129a59190615a58565b10155b156129c45760ca546129c4906001600160a01b03168786612f58565b805160208083015160408051338152928301939093528183015290517fbcc5876d59ecdf66ef7ccae24657b11650939218782f8d741e78fd3c35d285a39181900360600190a16040808301516060840151825191825260208201527f3a2c380ba0250aca22c1b7f98782a7504335a0c9f8626ab66e84907722fce70d910160405180910390a16040808201516060830151825191825260208201527fdbbb3a796242c9562af701570b096cb2478cd507fcd2d4080025883b10a623a5910160405180910390a1604080516001600160a01b038816815260208101899052908101869052606081018590527f86dacd5ce62967ebd3d915a82b22ad7e159538e50c7ba451e073fec048d9f1279060800160405180910390a15050505b6001609755909590945092505050565b6001600160a01b038316612b6a5760405162461bcd60e51b8152602060048201526024808201527f45524332303a20617070726f76652066726f6d20746865207a65726f2061646460448201527f72657373000000000000000000000000000000000000000000000000000000006064820152608401610772565b6001600160a01b038216612bcb5760405162461bcd60e51b815260206004820152602260248201527f45524332303a20617070726f766520746f20746865207a65726f206164647265604482015261737360f01b6064820152608401610772565b6001600160a01b0383811660008181526066602090815260408083209487168084529482529182902085905590518481527f8c5be1e5ebec7d5bd14f71427d1e84f3dd0314c0f7b2291e5b200ac8c7c3b925910160405180910390a3505050565b6001600160a01b038381166000908152606660209081526040808320938616835292905220546000198114611b815781811015612cab5760405162461bcd60e51b815260206004820152601d60248201527f45524332303a20696e73756666696369656e7420616c6c6f77616e63650000006044820152606401610772565b611b818484848403612aef565b6001600160a01b038316612d345760405162461bcd60e51b815260206004820152602560248201527f45524332303a207472616e736665722066726f6d20746865207a65726f20616460448201527f64726573730000000000000000000000000000000000000000000000000000006064820152608401610772565b6001600160a01b038216612db05760405162461bcd60e51b815260206004820152602360248201527f45524332303a207472616e7366657220746f20746865207a65726f206164647260448201527f65737300000000000000000000000000000000000000000000000000000000006064820152608401610772565b6001600160a01b03831660009081526065602052604090205481811015612e3f5760405162461bcd60e51b815260206004820152602660248201527f45524332303a207472616e7366657220616d6f756e742065786365656473206260448201527f616c616e636500000000000000000000000000000000000000000000000000006064820152608401610772565b6001600160a01b03808516600090815260656020526040808220858503905591851681529081208054849290612e7690849061561c565b92505081905550826001600160a01b0316846001600160a01b03167fddf252ad1be2c89b69c2b068fc378daa952ba7f163c4a11628f55a4df523b3ef84604051612ec291815260200190565b60405180910390a3611b81565b6001600160a01b038116600090815260018301602052604081205415156107ef565b60006107ef836001600160a01b038416614a3c565b603380546001600160a01b038381166001600160a01b0319831681179093556040519116919082907f8be0079c531659141344cd1fd0a4f28419497f9722a3daafe3b4186f6b6457e090600090a35050565b6040516001600160a01b038316602482015260448101829052612fe99084907fa9059cbb00000000000000000000000000000000000000000000000000000000906064015b60408051601f198184030181529190526020810180517bffffffffffffffffffffffffffffffffffffffffffffffffffffffff166001600160e01b031990931692909217909152614b2f565b505050565b60005b838110156131675760007f00000000000000000000000000000000000000000000000000000000000000006001600160a01b0316631698ee82858589898781811061303e5761303e615634565b9050602002016020810190613053919061590a565b6040516001600160e01b031960e086901b1681526001600160a01b03938416600482015292909116602483015262ffffff166044820152606401602060405180830381865afa1580156130aa573d6000803e3d6000fd5b505050506040513d601f19601f820116820180604052508101906130ce9190615927565b90506001600160a01b03811661310b5760405162461bcd60e51b81526020600482015260026024820152615a4160f01b6044820152606401610772565b61311660d482612ecf565b156131475760405162461bcd60e51b81526020600482015260016024820152600560fc1b6044820152606401610772565b61315260d482614c14565b5050808061315f9061564a565b915050612ff1565b5050505050565b600061317b84848461435e565b90506000828061318d5761318d615b1e565b84860911156107ef5760001981106131a457600080fd5b806131ae8161564a565b95945050505050565b6001600160a01b03821661320d5760405162461bcd60e51b815260206004820152601f60248201527f45524332303a206d696e7420746f20746865207a65726f2061646472657373006044820152606401610772565b806067600082825461321f919061561c565b90915550506001600160a01b0382166000908152606560205260408120805483929061324c90849061561c565b90915550506040518181526001600160a01b038316906000907fddf252ad1be2c89b69c2b068fc378daa952ba7f163c4a11628f55a4df523b3ef9060200160405180910390a35b5050565b6040516001600160a01b0380851660248301528316604482015260648101829052611b819085907f23b872dd0000000000000000000000000000000000000000000000000000000090608401612f9d565b60026097540361333a5760405162461bcd60e51b815260206004820152601f60248201527f5265656e7472616e637947756172643a207265656e7472616e742063616c6c006044820152606401610772565b6002609755600080805b61334e8480615b34565b90508110156135075760c95460ca546000916001600160a01b037f0000000000000000000000000000000000000000000000000000000000000000811692631698ee8292821691166133a08980615b34565b878181106133b0576133b0615634565b6133c792608091820201908101915060600161590a565b6040516001600160e01b031960e086901b1681526001600160a01b03938416600482015292909116602483015262ffffff166044820152606401602060405180830381865afa15801561341e573d6000803e3d6000fd5b505050506040513d601f19601f820116820180604052508101906134429190615927565b90508060006134cb826134558980615b34565b8781811061346557613465615634565b61347e9260406080909202019081019150602001615b01565b6134888a80615b34565b8881811061349857613498615634565b6134b19260606080909202019081019150604001615b01565b6134bb8b80615b34565b898181106127a7576127a7615634565b90508060400151866134dd919061561c565b95508060600151856134ef919061561c565b945050505080806134ff9061564a565b915050613344565b5060008211806135175750600081115b156135605761352682826148d8565b60408051838152602081018390527fdbbb3a796242c9562af701570b096cb2478cd507fcd2d4080025883b10a623a5910160405180910390a15b600061356f6040850185615b7e565b604001351115613a5d5761359a6135896040850185615b7e565b610d199060408101906020016151a6565b6135cb5760405162461bcd60e51b8152602060048201526002602482015261272960f11b6044820152606401610772565b60c9546040516370a0823160e01b81523060048201526000916001600160a01b0316906370a0823190602401602060405180830381865afa158015613614573d6000803e3d6000fd5b505050506040513d601f19601f820116820180604052508101906136389190615a0a565b60ca546040516370a0823160e01b81523060048201529192506000916001600160a01b03909116906370a0823190602401602060405180830381865afa158015613686573d6000803e3d6000fd5b505050506040513d601f19601f820116820180604052508101906136aa9190615a0a565b90506136e16136bc6040870187615b7e565b6136cd9060408101906020016151a6565b60c9546001600160a01b0316906000614c29565b6137166136f16040870187615b7e565b6137029060408101906020016151a6565b60ca546001600160a01b0316906000614c29565b61374a6137266040870187615b7e565b6137379060408101906020016151a6565b60c9546001600160a01b03169084614c29565b61377e61375a6040870187615b7e565b61376b9060408101906020016151a6565b60ca546001600160a01b03169083614c29565b600061378d6040870187615b7e565b61379e9060408101906020016151a6565b6001600160a01b03166137b46040880188615b7e565b6137be9080615b9e565b6040516137cc929190615be5565b6000604051808303816000865af19150503d8060008114613809576040519150601f19603f3d011682016040523d82523d6000602084013e61380e565b606091505b50509050806138445760405162461bcd60e51b8152602060048201526002602482015261534360f01b6044820152606401610772565b6138546136bc6040880188615b7e565b6138646136f16040880188615b7e565b60c9546040516370a0823160e01b81523060048201526000916001600160a01b0316906370a0823190602401602060405180830381865afa1580156138ad573d6000803e3d6000fd5b505050506040513d601f19601f820116820180604052508101906138d19190615a0a565b60ca546040516370a0823160e01b81523060048201529192506000916001600160a01b03909116906370a0823190602401602060405180830381865afa15801561391f573d6000803e3d6000fd5b505050506040513d601f19601f820116820180604052508101906139439190615a0a565b90506139526040890189615b7e565b6139639060a0810190608001615c00565b156139e2576139756040890189615b7e565b61398390606001358561561c565b81101580156139ac575061399a6040890189615b7e565b6139a8906040013586615a58565b8210155b6139dd5760405162461bcd60e51b815260206004820152600260248201526129a360f11b6044820152606401610772565b613a57565b6139ef6040890189615b7e565b6139fd90606001358661561c565b8210158015613a265750613a146040890189615b7e565b613a22906040013585615a58565b8110155b613a575760405162461bcd60e51b815260206004820152600260248201526129a360f11b6044820152606401610772565b50505050505b506000905080805b613a726020850185615b34565b9050811015613dbd5760c95460ca546000916001600160a01b037f0000000000000000000000000000000000000000000000000000000000000000811692631698ee829282169116613ac760208a018a615b34565b87818110613ad757613ad7615634565b613aee92608091820201908101915060600161590a565b6040516001600160e01b031960e086901b1681526001600160a01b03938416600482015292909116602483015262ffffff166044820152606401602060405180830381865afa158015613b45573d6000803e3d6000fd5b505050506040513d601f19601f82011682018060405250810190613b699190615927565b9050600073C64433E71f1f76Be5567B657026656Cce5999C346335f8054760cd613b9660208a018a615b34565b87818110613ba657613ba6615634565b9050608002016020016040518363ffffffff1660e01b8152600401613bcc929190615853565b6040805180830381865af4158015613be8573d6000803e3d6000fd5b505050506040513d601f19601f82011682018060405250810190613c0c91906158dc565b50905080613c415760405162461bcd60e51b8152602060048201526002602482015261272960f11b6044820152606401610772565b6000806001600160a01b038416633c8a7d8d30613c6160208c018c615b34565b89818110613c7157613c71615634565b613c8a9260406080909202019081019150602001615b01565b613c9760208d018d615b34565b8a818110613ca757613ca7615634565b613cc09260606080909202019081019150604001615b01565b613ccd60208e018e615b34565b8b818110613cdd57613cdd615634565b613cf39260206080909202019081019150615ae4565b6040516001600160e01b031960e087901b1681526001600160a01b039094166004850152600292830b6024850152910b60448301526001600160801b0316606482015260a06084820152600060a482015260c40160408051808303816000875af1158015613d65573d6000803e3d6000fd5b505050506040513d601f19601f82011682018060405250810190613d899190615c1d565b9092509050613d98828861561c565b9650613da4818761561c565b9550505050508080613db59061564a565b915050613a65565b508260600135821015613df75760405162461bcd60e51b8152602060048201526002602482015261044360f41b6044820152606401610772565b8260800135811015613e305760405162461bcd60e51b8152602060048201526002602482015261443160f01b6044820152606401610772565b7f9a3ef9bc3d0ffb39d257c5f80cca7c56e9c4ba71f33db0dc463e7e232e4d11a383604051613e5f9190615d0d565b60405180910390a15050600160975550565b60005b81811015612fe95760c9546001600160a01b0316838383818110613e9a57613e9a615634565b9050602002016020810190613eaf91906151a6565b6001600160a01b031614158015613f00575060ca546001600160a01b0316838383818110613edf57613edf615634565b9050602002016020810190613ef491906151a6565b6001600160a01b031614155b613f315760405162461bcd60e51b8152602060048201526002602482015261149560f21b6044820152606401610772565b613f46838383818110610d0457610d04615634565b15613f785760405162461bcd60e51b815260206004820152600260248201526121a960f11b6044820152606401610772565b613faa838383818110613f8d57613f8d615634565b9050602002016020810190613fa291906151a6565b60d690614c14565b5080613fb58161564a565b915050613e74565b613fc860d433612ecf565b613ff95760405162461bcd60e51b8152602060048201526002602482015261434360f01b6044820152606401610772565b60008211801561408e575060ce5460d054614014919061561c565b60c9546040516370a0823160e01b81523060048201526001600160a01b03909116906370a0823190602401602060405180830381865afa15801561405c573d6000803e3d6000fd5b505050506040513d601f19601f820116820180604052508101906140809190615a0a565b61408a9190615a58565b8211155b156140aa5760c9546140aa906001600160a01b03163384612f58565b60008111801561413f575060cf5460d1546140c5919061561c565b60ca546040516370a0823160e01b81523060048201526001600160a01b03909116906370a0823190602401602060405180830381865afa15801561410d573d6000803e3d6000fd5b505050506040513d601f19601f820116820180604052508101906141319190615a0a565b61413b9190615a58565b8111155b156132935760ca54613293906001600160a01b03163383612f58565b60008054610100900460ff16156141e9578160ff16600114801561417e5750303b155b6141e15760405162461bcd60e51b815260206004820152602e60248201527f496e697469616c697a61626c653a20636f6e747261637420697320616c72656160448201526d191e481a5b9a5d1a585b1a5e995960921b6064820152608401610772565b506000919050565b60005460ff8084169116106142575760405162461bcd60e51b815260206004820152602e60248201527f496e697469616c697a61626c653a20636f6e747261637420697320616c72656160448201526d191e481a5b9a5d1a585b1a5e995960921b6064820152608401610772565b506000805460ff191660ff92909216919091179055600190565b919050565b600054610100900460ff166142e15760405162461bcd60e51b815260206004820152602b60248201527f496e697469616c697a61626c653a20636f6e7472616374206973206e6f74206960448201526a6e697469616c697a696e6760a81b6064820152608401610772565b6132938282614d77565b600054610100900460ff166143565760405162461bcd60e51b815260206004820152602b60248201527f496e697469616c697a61626c653a20636f6e7472616374206973206e6f74206960448201526a6e697469616c697a696e6760a81b6064820152608401610772565b610b4f614e09565b6000808060001985870985870292508281108382030391505080600003614397576000841161438c57600080fd5b5082900490506107ef565b8084116143a357600080fd5b60008486880960026001871981018816978890046003810283188082028403028082028403028082028403028082028403028082028403029081029092039091026000889003889004909101858311909403939093029303949094049190911702949350505050565b6001600160a01b03821661446c5760405162461bcd60e51b815260206004820152602160248201527f45524332303a206275726e2066726f6d20746865207a65726f206164647265736044820152607360f81b6064820152608401610772565b6001600160a01b038216600090815260656020526040902054818110156144e05760405162461bcd60e51b815260206004820152602260248201527f45524332303a206275726e20616d6f756e7420657863656564732062616c616e604482015261636560f01b6064820152608401610772565b6001600160a01b038316600090815260656020526040812083830390556067805484929061450f908490615a58565b90915550506040518281526000906001600160a01b038516907fddf252ad1be2c89b69c2b068fc378daa952ba7f163c4a11628f55a4df523b3ef9060200160405180910390a3505050565b6145856040518060800160405280600081526020016000815260200160008152602001600081525090565b60c9546040516370a0823160e01b81523060048201526000916001600160a01b0316906370a0823190602401602060405180830381865afa1580156145ce573d6000803e3d6000fd5b505050506040513d601f19601f820116820180604052508101906145f29190615a0a565b60ca546040516370a0823160e01b81523060048201529192506000916001600160a01b03909116906370a0823190602401602060405180830381865afa158015614640573d6000803e3d6000fd5b505050506040513d601f19601f820116820180604052508101906146649190615a0a565b6040517fa34123a7000000000000000000000000000000000000000000000000000000008152600288810b600483015287900b60248201526001600160801b03861660448201529091506001600160a01b0388169063a34123a79060640160408051808303816000875af11580156146e0573d6000803e3d6000fd5b505050506040513d601f19601f820116820180604052508101906147049190615c1d565b602085015283526040517f4f1eb3d8000000000000000000000000000000000000000000000000000000008152306004820152600287810b602483015286900b60448201526001600160801b036064820181905260848201526001600160a01b03881690634f1eb3d89060a40160408051808303816000875af115801561478f573d6000803e3d6000fd5b505050506040513d601f19601f820116820180604052508101906147b39190615e35565b5050825160c9546040516370a0823160e01b815230600482015284916001600160a01b0316906370a0823190602401602060405180830381865afa1580156147ff573d6000803e3d6000fd5b505050506040513d601f19601f820116820180604052508101906148239190615a0a565b61482d9190615a58565b6148379190615a58565b604084810191909152602084015160ca5491516370a0823160e01b8152306004820152909183916001600160a01b03909116906370a0823190602401602060405180830381865afa158015614890573d6000803e3d6000fd5b505050506040513d601f19601f820116820180604052508101906148b49190615a0a565b6148be9190615a58565b6148c89190615a58565b6060840152509095945050505050565b60d2546040517f2fa50f1c0000000000000000000000000000000000000000000000000000000081526001600160a01b03909116600482015260009073887D1EeC3C026ED31Fc35f6CB3f32D940BdB8b2490632fa50f1c90602401602060405180830381865af4158015614950573d6000803e3d6000fd5b505050506040513d601f19601f820116820180604052508101906149749190615e64565b905061271061498761ffff831685615e88565b6149919190615ea7565b60d060008282546149a2919061561c565b9091555061271090506149b961ffff831684615e88565b6149c39190615ea7565b60d160008282546149d4919061561c565b9091555061271090506149e860fa85615e88565b6149f29190615ea7565b60ce6000828254614a03919061561c565b909155506127109050614a1760fa84615e88565b614a219190615ea7565b60cf6000828254614a32919061561c565b9091555050505050565b60008181526001830160205260408120548015614b25576000614a60600183615a58565b8554909150600090614a7490600190615a58565b9050818114614ad9576000866000018281548110614a9457614a94615634565b9060005260206000200154905080876000018481548110614ab757614ab7615634565b6000918252602080832090910192909255918252600188019052604090208390555b8554869080614aea57614aea615a6f565b600190038181906000526020600020016000905590558560010160008681526020019081526020016000206000905560019350505050610716565b6000915050610716565b6000614b84826040518060400160405280602081526020017f5361666545524332303a206c6f772d6c6576656c2063616c6c206661696c6564815250856001600160a01b0316614e7b9092919063ffffffff16565b805190915015612fe95780806020019051810190614ba29190615961565b612fe95760405162461bcd60e51b815260206004820152602a60248201527f5361666545524332303a204552433230206f7065726174696f6e20646964206e60448201527f6f742073756363656564000000000000000000000000000000000000000000006064820152608401610772565b60006107ef836001600160a01b038416614e92565b801580614cbc57506040517fdd62ed3e0000000000000000000000000000000000000000000000000000000081523060048201526001600160a01b03838116602483015284169063dd62ed3e90604401602060405180830381865afa158015614c96573d6000803e3d6000fd5b505050506040513d601f19601f82011682018060405250810190614cba9190615a0a565b155b614d2e5760405162461bcd60e51b815260206004820152603660248201527f5361666545524332303a20617070726f76652066726f6d206e6f6e2d7a65726f60448201527f20746f206e6f6e2d7a65726f20616c6c6f77616e6365000000000000000000006064820152608401610772565b6040516001600160a01b038316602482015260448101829052612fe99084907f095ea7b30000000000000000000000000000000000000000000000000000000090606401612f9d565b600054610100900460ff16614de25760405162461bcd60e51b815260206004820152602b60248201527f496e697469616c697a61626c653a20636f6e7472616374206973206e6f74206960448201526a6e697469616c697a696e6760a81b6064820152608401610772565b8151614df5906068906020850190615062565b508051612fe9906069906020840190615062565b600054610100900460ff16614e745760405162461bcd60e51b815260206004820152602b60248201527f496e697469616c697a61626c653a20636f6e7472616374206973206e6f74206960448201526a6e697469616c697a696e6760a81b6064820152608401610772565b6001609755565b6060614e8a8484600085614ee1565b949350505050565b6000818152600183016020526040812054614ed957508154600181810184556000848152602080822090930184905584548482528286019093526040902091909155610716565b506000610716565b606082471015614f595760405162461bcd60e51b815260206004820152602660248201527f416464726573733a20696e73756666696369656e742062616c616e636520666f60448201527f722063616c6c00000000000000000000000000000000000000000000000000006064820152608401610772565b6001600160a01b0385163b614fb05760405162461bcd60e51b815260206004820152601d60248201527f416464726573733a2063616c6c20746f206e6f6e2d636f6e74726163740000006044820152606401610772565b600080866001600160a01b03168587604051614fcc9190615ec9565b60006040518083038185875af1925050503d8060008114615009576040519150601f19603f3d011682016040523d82523d6000602084013e61500e565b606091505b509150915061501e828286615029565b979650505050505050565b606083156150385750816107ef565b8251156150485782518084602001fd5b8160405162461bcd60e51b81526004016107729190615127565b82805461506e906155cc565b90600052602060002090601f01602090048101928261509057600085556150d6565b82601f106150a957805160ff19168380011785556150d6565b828001600101855582156150d6579182015b828111156150d65782518255916020019190600101906150bb565b506150e29291506150e6565b5090565b5b808211156150e257600081556001016150e7565b60005b838110156151165781810151838201526020016150fe565b83811115611b815750506000910152565b60208152600082518060208401526151468160408501602087016150fb565b601f01601f19169190910160400192915050565b6001600160a01b038116811461215257600080fd5b80356142718161515a565b6000806040838503121561518d57600080fd5b82356151988161515a565b946020939093013593505050565b6000602082840312156151b857600080fd5b81356107ef8161515a565b6000806000606084860312156151d857600080fd5b83356151e38161515a565b925060208401356151f38161515a565b929592945050506040919091013590565b6000806040838503121561521757600080fd5b50508035926020909101359150565b60008083601f84011261523857600080fd5b50813567ffffffffffffffff81111561525057600080fd5b6020830191508360208260051b850101111561526b57600080fd5b9250929050565b6000806020838503121561528557600080fd5b823567ffffffffffffffff81111561529c57600080fd5b6152a885828601615226565b90969095509350505050565b6000602082840312156152c657600080fd5b5035919050565b600080604083850312156152e057600080fd5b8235915060208301356152f28161515a565b809150509250929050565b60008083601f84011261530f57600080fd5b50813567ffffffffffffffff81111561532757600080fd5b60208301915083602060608302850101111561526b57600080fd5b60008060008060006060868803121561535a57600080fd5b853567ffffffffffffffff8082111561537257600080fd5b61537e89838a016152fd565b9097509550602088013591508082111561539757600080fd5b9087019060a0828a0312156153ab57600080fd5b909350604087013590808211156153c157600080fd5b506153ce888289016152fd565b969995985093965092949392505050565b60008083601f8401126153f157600080fd5b50813567ffffffffffffffff81111561540957600080fd5b60208301915083602082850101111561526b57600080fd5b6000806000806060858703121561543757600080fd5b8435935060208501359250604085013567ffffffffffffffff81111561545c57600080fd5b615468878288016153df565b95989497509550505050565b6000806040838503121561548757600080fd5b82356154928161515a565b915060208301356152f28161515a565b6000806000806000606086880312156154ba57600080fd5b853567ffffffffffffffff808211156154d257600080fd5b6154de89838a016153df565b909750955060208801359150808211156154f757600080fd5b61550389838a016153df565b9095509350604088013591508082111561551c57600080fd5b508601610100818903121561553057600080fd5b809150509295509295909350565b6000806000806060858703121561555457600080fd5b843567ffffffffffffffff8082111561556c57600080fd5b818701915087601f83011261558057600080fd5b81358181111561558f57600080fd5b8860208260071b85010111156155a457600080fd5b60209283019650945050850135915060408501356155c18161515a565b939692955090935050565b600181811c908216806155e057607f821691505b60208210810361560057634e487b7160e01b600052602260045260246000fd5b50919050565b634e487b7160e01b600052601160045260246000fd5b6000821982111561562f5761562f615606565b500190565b634e487b7160e01b600052603260045260246000fd5b60006001820161565c5761565c615606565b5060010190565b60208082528181018390526000908460408401835b868110156156a657823561568b8161515a565b6001600160a01b031682529183019190830190600101615678565b509695505050505050565b62ffffff8116811461215257600080fd5b60208082528181018390526000908460408401835b868110156156a65782356156ea816156b1565b62ffffff16825291830191908301906001016156d7565b6020808252825160a083830152805160c0840181905260009291820190839060e08601905b808310156157685783518051600290810b845286820151900b8684015260409081015162ffffff16908301529284019260019290920191606090910190615726565b50928601516001600160a01b03811660408701529260408701516001600160a01b0381166060880152935060608701516001600160a01b0381166080880152935060808701516001600160a01b03811660a088015293505b9695505050505050565b600080600080608085870312156157e057600080fd5b505082516020840151604085015160609095015191969095509092509050565b8060020b811461215257600080fd5b803561581a81615800565b60020b8252602081013561582d81615800565b60020b60208301526040810135615843816156b1565b62ffffff81166040840152505050565b6000608082016080835280855480835260a08501915086600052602092508260002060005b828110156158b3578154600281810b8652601882901c900b8686015260301c62ffffff16604085015260609093019260019182019101615878565b505050809250506158c68184018561580f565b509392505050565b801515811461215257600080fd5b600080604083850312156158ef57600080fd5b82516158fa816158ce565b6020939093015192949293505050565b60006020828403121561591c57600080fd5b81356107ef816156b1565b60006020828403121561593957600080fd5b81516107ef8161515a565b6001600160a01b0383168152608081016107ef602083018461580f565b60006020828403121561597357600080fd5b81516107ef816158ce565b813561598981615800565b815462ffffff82811662ffffff19831617845560208501356159aa81615800565b8060181b9050818416935065ffffff00000091508082168465ffffffffffff1985161717855560408601356159de816156b1565b911668ffffffffffffffffff19929092169092171760309190911b68ffffff0000000000001617905550565b600060208284031215615a1c57600080fd5b5051919050565b6001600160a01b038681168252858116602083015284811660408301528316606082015260e081016157c0608083018461580f565b600082821015615a6a57615a6a615606565b500390565b634e487b7160e01b600052603160045260246000fd5b6000808335601e19843603018112615a9c57600080fd5b83018035915067ffffffffffffffff821115615ab757600080fd5b6020019150600581901b360382131561526b57600080fd5b6001600160801b038116811461215257600080fd5b600060208284031215615af657600080fd5b81356107ef81615acf565b600060208284031215615b1357600080fd5b81356107ef81615800565b634e487b7160e01b600052601260045260246000fd5b6000808335601e19843603018112615b4b57600080fd5b83018035915067ffffffffffffffff821115615b6657600080fd5b6020019150600781901b360382131561526b57600080fd5b60008235609e19833603018112615b9457600080fd5b9190910192915050565b6000808335601e19843603018112615bb557600080fd5b83018035915067ffffffffffffffff821115615bd057600080fd5b60200191503681900382131561526b57600080fd5b8183823760009101908152919050565b8035614271816158ce565b600060208284031215615c1257600080fd5b81356107ef816158ce565b60008060408385031215615c3057600080fd5b505080516020909101519092909150565b6000808335601e19843603018112615c5857600080fd5b830160208101925035905067ffffffffffffffff811115615c7857600080fd5b8060071b360383131561526b57600080fd5b8183526000602080850194508260005b85811015615cd9578135615cad81615acf565b6001600160801b03168752615cc683880183850161580f565b6080968701969190910190600101615c9a565b509495945050505050565b81835281816020850137506000828201602090810191909152601f909101601f19169091010190565b60006020808352615d1e8485615c41565b60a083860152615d3260c086018284615c8a565b915050615d4182860186615c41565b601f1980878503016040880152615d59848385615c8a565b935060408801359250609e19883603018312615d7457600080fd5b868403016060870152508501803536829003601e19018112615d9557600080fd5b8101803567ffffffffffffffff811115615dae57600080fd5b803603831315615dbd57600080fd5b60a08452615dd160a0850182878501615ce4565b915050615ddf84830161516f565b6001600160a01b03811684860152506040820135604084015260608201356060840152615e0e60808301615bf5565b1515608093840152606087013586840152959091013560a090940193909352509192915050565b60008060408385031215615e4857600080fd5b8251615e5381615acf565b60208401519092506152f281615acf565b600060208284031215615e7657600080fd5b815161ffff811681146107ef57600080fd5b6000816000190483118215151615615ea257615ea2615606565b500290565b600082615ec457634e487b7160e01b600052601260045260246000fd5b500490565b60008251615b948184602087016150fb56fea26469706673582212206945b5a07b0ea78ed34c8c66261de9c96bcd000e8786e8ce570ab293aef944f564736f6c634300080d0033",
  "deployedBytecode": "0x608060405234801561001057600080fd5b50600436106102de5760003560e01c806394bf804d11610186578063c7a4ae17116100e3578063dc9ad4c111610097578063f2eb3e3411610071578063f2eb3e3414610641578063f2fde38b1461064a578063f4effe411461065d57600080fd5b8063dc9ad4c1146105ed578063dd62ed3e146105f5578063e4fadbce1461062e57600080fd5b8063d21220a7116100c8578063d21220a7146105be578063d3487997146105d1578063d8953ca7146105e457600080fd5b8063c7a4ae1714610598578063d0ebdbe7146105ab57600080fd5b8063a9059cbb1161013a578063bbfe704e1161011f578063bbfe704e1461054d578063c45a015514610556578063c70750411461057d57600080fd5b8063a9059cbb14610513578063b9f24cb21461052657600080fd5b80639b605a241161016b5780639b605a24146104da578063a457c2d7146104ed578063a5ff1dc71461050057600080fd5b806394bf804d146104aa57806395d89b41146104d257600080fd5b80633f7b61351161023f57806370a08231116101f357806386ac1cb9116101cd57806386ac1cb9146104735780638da5cb5b1461048657806392e49dfd1461049757600080fd5b806370a082311461043a578063715018a6146104635780637ecd67171461046b57600080fd5b8063481c6a7511610224578063481c6a75146103d95780634b164140146103ec5780635fdecdfa146103ff57600080fd5b80633f7b6135146103bd57806342fb9d44146103d057600080fd5b806314b806301161029657806323b872dd1161027b57806323b872dd14610388578063313ce5671461039b57806339509351146103aa57600080fd5b806314b806301461037757806318160ddd1461038057600080fd5b8063095ea7b3116102c7578063095ea7b3146103145780630d6e6631146103375780630dfe16811461034c57600080fd5b8063065756db146102e357806306fdde03146102ff575b600080fd5b6102ec60d05481565b6040519081526020015b60405180910390f35b610307610670565b6040516102f69190615127565b61032761032236600461517a565b610702565b60405190151581526020016102f6565b61034a6103453660046151a6565b61071c565b005b60c95461035f906001600160a01b031681565b6040516001600160a01b0390911681526020016102f6565b6102ec60cb5481565b6067546102ec565b6103276103963660046151c3565b6107d0565b604051601281526020016102f6565b6103276103b836600461517a565b6107f6565b61034a6103cb366004615204565b610835565b6102ec60d15481565b60d25461035f906001600160a01b031681565b61034a6103fa366004615272565b610961565b61041261040d3660046152b4565b610aac565b60408051600294850b81529290930b602083015262ffffff16918101919091526060016102f6565b6102ec6104483660046151a6565b6001600160a01b031660009081526065602052604090205490565b61034a610aeb565b61034a610b51565b61034a610481366004615272565b610bdf565b6033546001600160a01b031661035f565b61034a6104a5366004615272565b610c8a565b6104bd6104b83660046152cd565b610dc9565b604080519283526020830191909152016102f6565b61030761114c565b61034a6104e8366004615342565b61115b565b6103276104fb36600461517a565b611977565b61034a61050e366004615272565b611a2c565b61032761052136600461517a565b611ac1565b61035f7f000000000000000000000000000000000000000000000000000000000000000081565b6102ec60cf5481565b61035f7f000000000000000000000000000000000000000000000000000000000000000081565b61058560fa81565b60405161ffff90911681526020016102f6565b60d35461035f906001600160a01b031681565b61034a6105b93660046151a6565b611acf565b60ca5461035f906001600160a01b031681565b61034a6105df366004615421565b611b77565b6102ec60ce5481565b61034a611b87565b6102ec610603366004615474565b6001600160a01b03918216600090815260666020908152604080832093909416825291909152205490565b61034a61063c3660046154a2565b611c49565b6102ec60cc5481565b61034a6106583660046151a6565b612073565b6104bd61066b36600461553e565b612155565b60606068805461067f906155cc565b80601f01602080910402602001604051908101604052809291908181526020018280546106ab906155cc565b80156106f85780601f106106cd576101008083540402835291602001916106f8565b820191906000526020600020905b8154815290600101906020018083116106db57829003601f168201915b5050505050905090565b600033610710818585612aef565b60019150505b92915050565b6033546001600160a01b0316331461077b5760405162461bcd60e51b815260206004820181905260248201527f4f776e61626c653a2063616c6c6572206973206e6f7420746865206f776e657260448201526064015b60405180910390fd5b60d380546001600160a01b0319166001600160a01b0383169081179091556040519081527f6b7f177e85ebe3aabaf1339b9a445ac908b2bef730372180fa280958e2414ee3906020015b60405180910390a150565b6000336107de858285612c2c565b6107e9858585612cb8565b60019150505b9392505050565b3360008181526066602090815260408083206001600160a01b0387168452909152812054909190610710908290869061083090879061561c565b612aef565b60008211806108445750600081115b6108745760405162461bcd60e51b81526020600482015260016024820152604960f81b6044820152606401610772565b606754156108a95760405162461bcd60e51b8152602060048201526002602482015261545360f01b6044820152606401610772565b60d3546000906001600160a01b0316156108ce5760d3546001600160a01b03166108db565b6033546001600160a01b03165b9050336001600160a01b038216146109195760405162461bcd60e51b81526020600482015260016024820152602960f91b6044820152606401610772565b60cb83905560cc82905560408051848152602081018490527ff8966e026442bb0adb17149a6d44e394d2b6eb3c5cc1dc71b3c0698000548ae6910160405180910390a1505050565b6033546001600160a01b031633146109bb5760405162461bcd60e51b815260206004820181905260248201527f4f776e61626c653a2063616c6c6572206973206e6f7420746865206f776e65726044820152606401610772565b60005b81811015610a6e576109f88383838181106109db576109db615634565b90506020020160208101906109f091906151a6565b60d490612ecf565b610a295760405162461bcd60e51b815260206004820152600260248201526104e560f41b6044820152606401610772565b610a5b838383818110610a3e57610a3e615634565b9050602002016020810190610a5391906151a6565b60d490612ef1565b5080610a668161564a565b9150506109be565b507f024551cce253d1a442bfe99dae530a00a492fb8c67c4456cce3c9d23eecd39618282604051610aa0929190615663565b60405180910390a15050565b60cd8181548110610abc57600080fd5b600091825260209091200154600281810b925063010000008204900b906601000000000000900462ffffff1683565b6033546001600160a01b03163314610b455760405162461bcd60e51b815260206004820181905260248201527f4f776e61626c653a2063616c6c6572206973206e6f7420746865206f776e65726044820152606401610772565b610b4f6000612f06565b565b60d0805460d18054600093849055929055908115610b865760d25460c954610b86916001600160a01b03918216911684612f58565b8015610ba95760d25460ca54610ba9916001600160a01b03918216911683612f58565b60408051838152602081018390527fa292e28c648da34e20b372054caab5f0359198b3b4d5f0ef9945d4616e15dc979101610aa0565b6033546001600160a01b03163314610c395760405162461bcd60e51b815260206004820181905260248201527f4f776e61626c653a2063616c6c6572206973206e6f7420746865206f776e65726044820152606401610772565b60c95460ca54610c5991849184916001600160a01b039081169116612fee565b7f1b402611d70c7735d942445aaa3ebbf878149bece6b797870b44a581c5f7f4c98282604051610aa09291906156c2565b6033546001600160a01b03163314610ce45760405162461bcd60e51b815260206004820181905260248201527f4f776e61626c653a2063616c6c6572206973206e6f7420746865206f776e65726044820152606401610772565b60005b81811015610d9757610d21838383818110610d0457610d04615634565b9050602002016020810190610d1991906151a6565b60d690612ecf565b610d525760405162461bcd60e51b8152602060048201526002602482015261272960f11b6044820152606401610772565b610d84838383818110610d6757610d67615634565b9050602002016020810190610d7c91906151a6565b60d690612ef1565b5080610d8f8161564a565b915050610ce7565b507fbe6c83115c5bf7fd07e41c6002394841bd7dc0348f3b7c58645e8950f604f5c48282604051610aa0929190615663565b600080600260975403610e1e5760405162461bcd60e51b815260206004820152601f60248201527f5265656e7472616e637947756172643a207265656e7472616e742063616c6c006044820152606401610772565b600260975583610e555760405162461bcd60e51b81526020600482015260026024820152614d4160f01b6044820152606401610772565b60d3546001600160a01b03161580610e77575060d3546001600160a01b031633145b610ea75760405162461bcd60e51b81526020600482015260016024820152602960f91b6044820152606401610772565b306000610eb360675490565b905060008060008060008511610ed15760cb5460cc54600080611029565b73__$3d23d8578387a47facd93bb77f6fe6e81b$__63e56f4d916040518060a0016040528060cd805480602002602001604051908101604052809291908181526020016000905b82821015610f6e5760008481526020908190206040805160608101825291850154600281810b845263010000008204900b838501526601000000000000900462ffffff1690820152825260019092019101610f18565b505050908252506001600160a01b037f00000000000000000000000000000000000000000000000000000000000000008116602083015260c954811660408084019190915260ca5482166060840152908b16608090920191909152516001600160e01b031960e084901b168152610fe89190600401615701565b608060405180830381865af4158015611005573d6000803e3d6000fd5b505050506040513d601f19601f8201168201806040525081019061102991906157ca565b9350935093509350600080861161104857670de0b6b3a764000061104a565b855b90506110578b868361316e565b98506110648b858361316e565b97506110708a8c6131b7565b881561108e5760c95461108e906001600160a01b031633898c613297565b87156110ac5760ca546110ac906001600160a01b031633898b613297565b60408051848152602081018490527f3a2c380ba0250aca22c1b7f98782a7504335a0c9f8626ab66e84907722fce70d910160405180910390a1604080516001600160a01b038c168152602081018d90529081018a9052606081018990527f5f11830295067c4bcc7d02d4e3b048cd7427be50a3aeb6afc9d3d559ee64bcfa9060800160405180910390a15050505050505060016097819055509250929050565b60606069805461067f906155cc565b60d2546001600160a01b0316331461119a5760405162461bcd60e51b81526020600482015260026024820152614e4d60f01b6044820152606401610772565b60005b848110156114fc57600073__$b131e44167300e1b6d47510635310686a7$__6335f8054760cd8989868181106111d5576111d5615634565b9050606002016040518363ffffffff1660e01b81526004016111f8929190615853565b6040805180830381865af4158015611214573d6000803e3d6000fd5b505050506040513d601f19601f8201168201806040525081019061123891906158dc565b509050801561126d5760405162461bcd60e51b81526020600482015260016024820152602960f91b6044820152606401610772565b60c95460ca546000916001600160a01b037f0000000000000000000000000000000000000000000000000000000000000000811692631698ee8292821691168b8b888181106112be576112be615634565b90506060020160400160208101906112d6919061590a565b6040516001600160e01b031960e086901b1681526001600160a01b03938416600482015292909116602483015262ffffff166044820152606401602060405180830381865afa15801561132d573d6000803e3d6000fd5b505050506040513d601f19601f820116820180604052508101906113519190615927565b90506001600160a01b0381166113a95760405162461bcd60e51b815260206004820152600360248201527f4e555000000000000000000000000000000000000000000000000000000000006044820152606401610772565b6113b460d482612ecf565b6113e45760405162461bcd60e51b81526020600482015260016024820152600560fc1b6044820152606401610772565b73__$57c880716d25c772e0b1e547659075b66d$__636b018820828a8a8781811061141157611411615634565b9050606002016040518363ffffffff1660e01b8152600401611434929190615944565b602060405180830381865af4158015611451573d6000803e3d6000fd5b505050506040513d601f19601f820116820180604052508101906114759190615961565b6114a55760405162461bcd60e51b81526020600482015260016024820152602960f91b6044820152606401610772565b60cd8888858181106114b9576114b9615634565b835460018101855560009485526020909420606090910292909201929190910190506114e5828261597e565b5050505080806114f49061564a565b91505061119d565b50611506836132e8565b60ce5460d054611516919061561c565b60c9546040516370a0823160e01b81523060048201526001600160a01b03909116906370a0823190602401602060405180830381865afa15801561155e573d6000803e3d6000fd5b505050506040513d601f19601f820116820180604052508101906115829190615a0a565b10156115d05760405162461bcd60e51b815260206004820152600360248201527f4d423000000000000000000000000000000000000000000000000000000000006044820152606401610772565b60cf5460d1546115e0919061561c565b60ca546040516370a0823160e01b81523060048201526001600160a01b03909116906370a0823190602401602060405180830381865afa158015611628573d6000803e3d6000fd5b505050506040513d601f19601f8201168201806040525081019061164c9190615a0a565b101561169a5760405162461bcd60e51b815260206004820152600360248201527f4d423100000000000000000000000000000000000000000000000000000000006044820152606401610772565b60005b8181101561196f5760008073__$b131e44167300e1b6d47510635310686a7$__6335f8054760cd8787878181106116d6576116d6615634565b9050606002016040518363ffffffff1660e01b81526004016116f9929190615853565b6040805180830381865af4158015611715573d6000803e3d6000fd5b505050506040513d601f19601f8201168201806040525081019061173991906158dc565b915091508161176f5760405162461bcd60e51b8152602060048201526002602482015261272960f11b6044820152606401610772565b60c95460ca5473__$b131e44167300e1b6d47510635310686a7$__91637806db78917f00000000000000000000000000000000000000000000000000000000000000009130916001600160a01b0391821691168a8a8a8181106117d4576117d4615634565b9050606002016040518663ffffffff1660e01b81526004016117fa959493929190615a23565b60006040518083038186803b15801561181257600080fd5b505af4158015611826573d6000803e3d6000fd5b5050505060cd818154811061183d5761183d615634565b6000918252602090912001805468ffffffffffffffffff19169055805b60cd5461186990600190615a58565b8110156119245760cd61187d82600161561c565b8154811061188d5761188d615634565b9060005260206000200160cd82815481106118aa576118aa615634565b6000918252602090912082549101805462ffffff92831662ffffff19821681178355845463010000009081900485160265ffffffffffff199092161717808255925466010000000000009081900490921690910268ffffff000000000000199092169190911790558061191c8161564a565b91505061185a565b5060cd80548061193657611936615a6f565b6000828152602090208101600019908101805468ffffffffffffffffff19169055019055508190506119678161564a565b91505061169d565b505050505050565b3360008181526066602090815260408083206001600160a01b038716845290915281205490919083811015611a145760405162461bcd60e51b815260206004820152602560248201527f45524332303a2064656372656173656420616c6c6f77616e63652062656c6f7760448201527f207a65726f0000000000000000000000000000000000000000000000000000006064820152608401610772565b611a218286868403612aef565b506001949350505050565b6033546001600160a01b03163314611a865760405162461bcd60e51b815260206004820181905260248201527f4f776e61626c653a2063616c6c6572206973206e6f7420746865206f776e65726044820152606401610772565b611a908282613e71565b7f102656122b5bfb41d864259a385db02d34584f3a71b6c6c35c14cbdaf9038fe68282604051610aa0929190615663565b600033610710818585612cb8565b6033546001600160a01b03163314611b295760405162461bcd60e51b815260206004820181905260248201527f4f776e61626c653a2063616c6c6572206973206e6f7420746865206f776e65726044820152606401610772565b60d280546001600160a01b0319166001600160a01b0383169081179091556040519081527f9b6ffaf4cbfd923495440b7f17ced9394289f001b3ead53ab67e2c3f3e39b0f5906020016107c5565b611b818484613fbd565b50505050565b60ce805460cf8054600093849055929055908115611bd65760c954611bd6906001600160a01b03167f000000000000000000000000000000000000000000000000000000000000000084612f58565b8015611c135760ca54611c13906001600160a01b03167f000000000000000000000000000000000000000000000000000000000000000083612f58565b60408051838152602081018390527ff640f308bdf7deba15c1aba8a4cf108b0f79d1ca98748696470dc0007f7cf8d39101610aa0565b6000611c55600161415b565b90508015611c6d576000805461ff0019166101001790555b6000611c798380615a85565b905011611cc85760405162461bcd60e51b815260206004820152600360248201527f4e465400000000000000000000000000000000000000000000000000000000006044820152606401610772565b6000611cda60408401602085016151a6565b6001600160a01b031603611d155760405162461bcd60e51b8152602060048201526002602482015261054360f41b6044820152606401610772565b611d2560608301604084016151a6565b6001600160a01b0316611d3e60408401602085016151a6565b6001600160a01b031610611d945760405162461bcd60e51b815260206004820152600360248201527f57544f00000000000000000000000000000000000000000000000000000000006044820152606401610772565b600082608001351180611dab575060008260a00135115b611ddb5760405162461bcd60e51b81526020600482015260016024820152604960f81b6044820152606401610772565b611e4e86868080601f01602080910402602001604051908101604052809392919081815260200183838082843760009201919091525050604080516020601f8a01819004810282018101909252888152925088915087908190840183828082843760009201919091525061427692505050565b611e566142eb565b611e88611e638380615a85565b611e7360408601602087016151a6565b611e8360608701604088016151a6565b612fee565b611e9d611e9860e0840184615a85565b613e71565b611ead60408301602084016151a6565b60c980546001600160a01b0319166001600160a01b0392909216919091179055611edd60608301604084016151a6565b60ca80546001600160a01b0319166001600160a01b0392909216919091179055611f15611f1060808401606085016151a6565b612f06565b611f2560e0830160c084016151a6565b60d280546001600160a01b0319166001600160a01b03929092169190911790557f1b402611d70c7735d942445aaa3ebbf878149bece6b797870b44a581c5f7f4c9611f708380615a85565b604051611f7e9291906156c2565b60405180910390a17ff8966e026442bb0adb17149a6d44e394d2b6eb3c5cc1dc71b3c0698000548ae6826080013560cb8190558360a0013560cc819055604051611fd2929190918252602082015260400190565b60405180910390a17f9b6ffaf4cbfd923495440b7f17ced9394289f001b3ead53ab67e2c3f3e39b0f561200b60e0840160c085016151a6565b6040516001600160a01b03909116815260200160405180910390a1801561196f576000805461ff0019169055604051600181527f7f26b83ff96e1f2b6a682f133852f6798a09c465da95921460cefb38474024989060200160405180910390a1505050505050565b6033546001600160a01b031633146120cd5760405162461bcd60e51b815260206004820181905260248201527f4f776e61626c653a2063616c6c6572206973206e6f7420746865206f776e65726044820152606401610772565b6001600160a01b0381166121495760405162461bcd60e51b815260206004820152602660248201527f4f776e61626c653a206e6577206f776e657220697320746865207a65726f206160448201527f64647265737300000000000000000000000000000000000000000000000000006064820152608401610772565b61215281612f06565b50565b6000806002609754036121aa5760405162461bcd60e51b815260206004820152601f60248201527f5265656e7472616e637947756172643a207265656e7472616e742063616c6c006044820152606401610772565b600260975560006121ba60675490565b9050600081116121f15760405162461bcd60e51b8152602060048201526002602482015261545360f01b6044820152606401610772565b61222a6040518060c001604052806000815260200160008152602001600081526020016000815260200160008152602001600081525090565b73__$3d23d8578387a47facd93bb77f6fe6e81b$__63e56f4d916040518060a0016040528060cd805480602002602001604051908101604052809291908181526020016000905b828210156122c75760008481526020908190206040805160608101825291850154600281810b845263010000008204900b838501526601000000000000900462ffffff1690820152825260019092019101612271565b505050908252506001600160a01b037f00000000000000000000000000000000000000000000000000000000000000008116602083015260c954811660408084019190915260ca54909116606083015230608090920191909152516001600160e01b031960e084901b1681526123409190600401615701565b608060405180830381865af415801561235d573d6000803e3d6000fd5b505050506040513d601f19601f8201168201806040525081019061238191906157ca565b606085015260408401526020830152815260ce5460d0546123a2919061561c565b60c9546040516370a0823160e01b81523060048201526001600160a01b03909116906370a0823190602401602060405180830381865afa1580156123ea573d6000803e3d6000fd5b505050506040513d601f19601f8201168201806040525081019061240e9190615a0a565b6124189190615a58565b608082015260cf5460d15461242d919061561c565b60ca546040516370a0823160e01b81523060048201526001600160a01b03909116906370a0823190602401602060405180830381865afa158015612475573d6000803e3d6000fd5b505050506040513d601f19601f820116820180604052508101906124999190615a0a565b6124a39190615a58565b60a082015280516124b590878461435e565b93506124c68160200151878461435e565b9250838160800151101580156124e05750828160a0015110155b15612581576124ef338761440c565b831561250c5760c95461250c906001600160a01b03168686612f58565b82156125295760ca54612529906001600160a01b03168685612f58565b604080516001600160a01b038716815260208101889052908101859052606081018490527f86dacd5ce62967ebd3d915a82b22ad7e159538e50c7ba451e073fec048d9f1279060800160405180910390a15050612adf565b866125b25760405162461bcd60e51b81526020600482015260016024820152602160f91b6044820152606401610772565b6125bc338761440c565b6125e76040518060800160405280600081526020016000815260200160008152602001600081525090565b60005b888110156128375789898281811061260457612604615634565b61261a9260206080909202019081019150615ae4565b6001600160801b03166000036126575760405162461bcd60e51b8152602060048201526002602482015261262d60f11b6044820152606401610772565b60c95460ca546000916127c2916001600160a01b037f0000000000000000000000000000000000000000000000000000000000000000811692631698ee829290821691168f8f888181106126ad576126ad615634565b6126c492608091820201908101915060600161590a565b6040516001600160e01b031960e086901b1681526001600160a01b03938416600482015292909116602483015262ffffff166044820152606401602060405180830381865afa15801561271b573d6000803e3d6000fd5b505050506040513d601f19601f8201168201806040525081019061273f9190615927565b8c8c8581811061275157612751615634565b61276a9260406080909202019081019150602001615b01565b8d8d8681811061277c5761277c615634565b6127959260606080909202019081019150604001615b01565b8e8e878181106127a7576127a7615634565b6127bd9260206080909202019081019150615ae4565b61455a565b90508060400151836040018181516127da919061561c565b90525060608082015190840180516127f390839061561c565b90525080518351849061280790839061561c565b905250602080820151908401805161282090839061561c565b90525081905061282f8161564a565b9150506125ea565b5061284a816040015182606001516148d8565b6000851180156128eb575060008560ce5460d054612868919061561c565b60c9546040516370a0823160e01b81523060048201526001600160a01b03909116906370a0823190602401602060405180830381865afa1580156128b0573d6000803e3d6000fd5b505050506040513d601f19601f820116820180604052508101906128d49190615a0a565b6128de9190615a58565b6128e89190615a58565b10155b156129075760c954612907906001600160a01b03168787612f58565b6000841180156129a8575060008460cf5460d154612925919061561c565b60ca546040516370a0823160e01b81523060048201526001600160a01b03909116906370a0823190602401602060405180830381865afa15801561296d573d6000803e3d6000fd5b505050506040513d601f19601f820116820180604052508101906129919190615a0a565b61299b9190615a58565b6129a59190615a58565b10155b156129c45760ca546129c4906001600160a01b03168786612f58565b805160208083015160408051338152928301939093528183015290517fbcc5876d59ecdf66ef7ccae24657b11650939218782f8d741e78fd3c35d285a39181900360600190a16040808301516060840151825191825260208201527f3a2c380ba0250aca22c1b7f98782a7504335a0c9f8626ab66e84907722fce70d910160405180910390a16040808201516060830151825191825260208201527fdbbb3a796242c9562af701570b096cb2478cd507fcd2d4080025883b10a623a5910160405180910390a1604080516001600160a01b038816815260208101899052908101869052606081018590527f86dacd5ce62967ebd3d915a82b22ad7e159538e50c7ba451e073fec048d9f1279060800160405180910390a15050505b6001609755909590945092505050565b6001600160a01b038316612b6a5760405162461bcd60e51b8152602060048201526024808201527f45524332303a20617070726f76652066726f6d20746865207a65726f2061646460448201527f72657373000000000000000000000000000000000000000000000000000000006064820152608401610772565b6001600160a01b038216612bcb5760405162461bcd60e51b815260206004820152602260248201527f45524332303a20617070726f766520746f20746865207a65726f206164647265604482015261737360f01b6064820152608401610772565b6001600160a01b0383811660008181526066602090815260408083209487168084529482529182902085905590518481527f8c5be1e5ebec7d5bd14f71427d1e84f3dd0314c0f7b2291e5b200ac8c7c3b925910160405180910390a3505050565b6001600160a01b038381166000908152606660209081526040808320938616835292905220546000198114611b815781811015612cab5760405162461bcd60e51b815260206004820152601d60248201527f45524332303a20696e73756666696369656e7420616c6c6f77616e63650000006044820152606401610772565b611b818484848403612aef565b6001600160a01b038316612d345760405162461bcd60e51b815260206004820152602560248201527f45524332303a207472616e736665722066726f6d20746865207a65726f20616460448201527f64726573730000000000000000000000000000000000000000000000000000006064820152608401610772565b6001600160a01b038216612db05760405162461bcd60e51b815260206004820152602360248201527f45524332303a207472616e7366657220746f20746865207a65726f206164647260448201527f65737300000000000000000000000000000000000000000000000000000000006064820152608401610772565b6001600160a01b03831660009081526065602052604090205481811015612e3f5760405162461bcd60e51b815260206004820152602660248201527f45524332303a207472616e7366657220616d6f756e742065786365656473206260448201527f616c616e636500000000000000000000000000000000000000000000000000006064820152608401610772565b6001600160a01b03808516600090815260656020526040808220858503905591851681529081208054849290612e7690849061561c565b92505081905550826001600160a01b0316846001600160a01b03167fddf252ad1be2c89b69c2b068fc378daa952ba7f163c4a11628f55a4df523b3ef84604051612ec291815260200190565b60405180910390a3611b81565b6001600160a01b038116600090815260018301602052604081205415156107ef565b60006107ef836001600160a01b038416614a3c565b603380546001600160a01b038381166001600160a01b0319831681179093556040519116919082907f8be0079c531659141344cd1fd0a4f28419497f9722a3daafe3b4186f6b6457e090600090a35050565b6040516001600160a01b038316602482015260448101829052612fe99084907fa9059cbb00000000000000000000000000000000000000000000000000000000906064015b60408051601f198184030181529190526020810180517bffffffffffffffffffffffffffffffffffffffffffffffffffffffff166001600160e01b031990931692909217909152614b2f565b505050565b60005b838110156131675760007f00000000000000000000000000000000000000000000000000000000000000006001600160a01b0316631698ee82858589898781811061303e5761303e615634565b9050602002016020810190613053919061590a565b6040516001600160e01b031960e086901b1681526001600160a01b03938416600482015292909116602483015262ffffff166044820152606401602060405180830381865afa1580156130aa573d6000803e3d6000fd5b505050506040513d601f19601f820116820180604052508101906130ce9190615927565b90506001600160a01b03811661310b5760405162461bcd60e51b81526020600482015260026024820152615a4160f01b6044820152606401610772565b61311660d482612ecf565b156131475760405162461bcd60e51b81526020600482015260016024820152600560fc1b6044820152606401610772565b61315260d482614c14565b5050808061315f9061564a565b915050612ff1565b5050505050565b600061317b84848461435e565b90506000828061318d5761318d615b1e565b84860911156107ef5760001981106131a457600080fd5b806131ae8161564a565b95945050505050565b6001600160a01b03821661320d5760405162461bcd60e51b815260206004820152601f60248201527f45524332303a206d696e7420746f20746865207a65726f2061646472657373006044820152606401610772565b806067600082825461321f919061561c565b90915550506001600160a01b0382166000908152606560205260408120805483929061324c90849061561c565b90915550506040518181526001600160a01b038316906000907fddf252ad1be2c89b69c2b068fc378daa952ba7f163c4a11628f55a4df523b3ef9060200160405180910390a35b5050565b6040516001600160a01b0380851660248301528316604482015260648101829052611b819085907f23b872dd0000000000000000000000000000000000000000000000000000000090608401612f9d565b60026097540361333a5760405162461bcd60e51b815260206004820152601f60248201527f5265656e7472616e637947756172643a207265656e7472616e742063616c6c006044820152606401610772565b6002609755600080805b61334e8480615b34565b90508110156135075760c95460ca546000916001600160a01b037f0000000000000000000000000000000000000000000000000000000000000000811692631698ee8292821691166133a08980615b34565b878181106133b0576133b0615634565b6133c792608091820201908101915060600161590a565b6040516001600160e01b031960e086901b1681526001600160a01b03938416600482015292909116602483015262ffffff166044820152606401602060405180830381865afa15801561341e573d6000803e3d6000fd5b505050506040513d601f19601f820116820180604052508101906134429190615927565b90508060006134cb826134558980615b34565b8781811061346557613465615634565b61347e9260406080909202019081019150602001615b01565b6134888a80615b34565b8881811061349857613498615634565b6134b19260606080909202019081019150604001615b01565b6134bb8b80615b34565b898181106127a7576127a7615634565b90508060400151866134dd919061561c565b95508060600151856134ef919061561c565b945050505080806134ff9061564a565b915050613344565b5060008211806135175750600081115b156135605761352682826148d8565b60408051838152602081018390527fdbbb3a796242c9562af701570b096cb2478cd507fcd2d4080025883b10a623a5910160405180910390a15b600061356f6040850185615b7e565b604001351115613a5d5761359a6135896040850185615b7e565b610d199060408101906020016151a6565b6135cb5760405162461bcd60e51b8152602060048201526002602482015261272960f11b6044820152606401610772565b60c9546040516370a0823160e01b81523060048201526000916001600160a01b0316906370a0823190602401602060405180830381865afa158015613614573d6000803e3d6000fd5b505050506040513d601f19601f820116820180604052508101906136389190615a0a565b60ca546040516370a0823160e01b81523060048201529192506000916001600160a01b03909116906370a0823190602401602060405180830381865afa158015613686573d6000803e3d6000fd5b505050506040513d601f19601f820116820180604052508101906136aa9190615a0a565b90506136e16136bc6040870187615b7e565b6136cd9060408101906020016151a6565b60c9546001600160a01b0316906000614c29565b6137166136f16040870187615b7e565b6137029060408101906020016151a6565b60ca546001600160a01b0316906000614c29565b61374a6137266040870187615b7e565b6137379060408101906020016151a6565b60c9546001600160a01b03169084614c29565b61377e61375a6040870187615b7e565b61376b9060408101906020016151a6565b60ca546001600160a01b03169083614c29565b600061378d6040870187615b7e565b61379e9060408101906020016151a6565b6001600160a01b03166137b46040880188615b7e565b6137be9080615b9e565b6040516137cc929190615be5565b6000604051808303816000865af19150503d8060008114613809576040519150601f19603f3d011682016040523d82523d6000602084013e61380e565b606091505b50509050806138445760405162461bcd60e51b8152602060048201526002602482015261534360f01b6044820152606401610772565b6138546136bc6040880188615b7e565b6138646136f16040880188615b7e565b60c9546040516370a0823160e01b81523060048201526000916001600160a01b0316906370a0823190602401602060405180830381865afa1580156138ad573d6000803e3d6000fd5b505050506040513d601f19601f820116820180604052508101906138d19190615a0a565b60ca546040516370a0823160e01b81523060048201529192506000916001600160a01b03909116906370a0823190602401602060405180830381865afa15801561391f573d6000803e3d6000fd5b505050506040513d601f19601f820116820180604052508101906139439190615a0a565b90506139526040890189615b7e565b6139639060a0810190608001615c00565b156139e2576139756040890189615b7e565b61398390606001358561561c565b81101580156139ac575061399a6040890189615b7e565b6139a8906040013586615a58565b8210155b6139dd5760405162461bcd60e51b815260206004820152600260248201526129a360f11b6044820152606401610772565b613a57565b6139ef6040890189615b7e565b6139fd90606001358661561c565b8210158015613a265750613a146040890189615b7e565b613a22906040013585615a58565b8110155b613a575760405162461bcd60e51b815260206004820152600260248201526129a360f11b6044820152606401610772565b50505050505b506000905080805b613a726020850185615b34565b9050811015613dbd5760c95460ca546000916001600160a01b037f0000000000000000000000000000000000000000000000000000000000000000811692631698ee829282169116613ac760208a018a615b34565b87818110613ad757613ad7615634565b613aee92608091820201908101915060600161590a565b6040516001600160e01b031960e086901b1681526001600160a01b03938416600482015292909116602483015262ffffff166044820152606401602060405180830381865afa158015613b45573d6000803e3d6000fd5b505050506040513d601f19601f82011682018060405250810190613b699190615927565b9050600073__$b131e44167300e1b6d47510635310686a7$__6335f8054760cd613b9660208a018a615b34565b87818110613ba657613ba6615634565b9050608002016020016040518363ffffffff1660e01b8152600401613bcc929190615853565b6040805180830381865af4158015613be8573d6000803e3d6000fd5b505050506040513d601f19601f82011682018060405250810190613c0c91906158dc565b50905080613c415760405162461bcd60e51b8152602060048201526002602482015261272960f11b6044820152606401610772565b6000806001600160a01b038416633c8a7d8d30613c6160208c018c615b34565b89818110613c7157613c71615634565b613c8a9260406080909202019081019150602001615b01565b613c9760208d018d615b34565b8a818110613ca757613ca7615634565b613cc09260606080909202019081019150604001615b01565b613ccd60208e018e615b34565b8b818110613cdd57613cdd615634565b613cf39260206080909202019081019150615ae4565b6040516001600160e01b031960e087901b1681526001600160a01b039094166004850152600292830b6024850152910b60448301526001600160801b0316606482015260a06084820152600060a482015260c40160408051808303816000875af1158015613d65573d6000803e3d6000fd5b505050506040513d601f19601f82011682018060405250810190613d899190615c1d565b9092509050613d98828861561c565b9650613da4818761561c565b9550505050508080613db59061564a565b915050613a65565b508260600135821015613df75760405162461bcd60e51b8152602060048201526002602482015261044360f41b6044820152606401610772565b8260800135811015613e305760405162461bcd60e51b8152602060048201526002602482015261443160f01b6044820152606401610772565b7f9a3ef9bc3d0ffb39d257c5f80cca7c56e9c4ba71f33db0dc463e7e232e4d11a383604051613e5f9190615d0d565b60405180910390a15050600160975550565b60005b81811015612fe95760c9546001600160a01b0316838383818110613e9a57613e9a615634565b9050602002016020810190613eaf91906151a6565b6001600160a01b031614158015613f00575060ca546001600160a01b0316838383818110613edf57613edf615634565b9050602002016020810190613ef491906151a6565b6001600160a01b031614155b613f315760405162461bcd60e51b8152602060048201526002602482015261149560f21b6044820152606401610772565b613f46838383818110610d0457610d04615634565b15613f785760405162461bcd60e51b815260206004820152600260248201526121a960f11b6044820152606401610772565b613faa838383818110613f8d57613f8d615634565b9050602002016020810190613fa291906151a6565b60d690614c14565b5080613fb58161564a565b915050613e74565b613fc860d433612ecf565b613ff95760405162461bcd60e51b8152602060048201526002602482015261434360f01b6044820152606401610772565b60008211801561408e575060ce5460d054614014919061561c565b60c9546040516370a0823160e01b81523060048201526001600160a01b03909116906370a0823190602401602060405180830381865afa15801561405c573d6000803e3d6000fd5b505050506040513d601f19601f820116820180604052508101906140809190615a0a565b61408a9190615a58565b8211155b156140aa5760c9546140aa906001600160a01b03163384612f58565b60008111801561413f575060cf5460d1546140c5919061561c565b60ca546040516370a0823160e01b81523060048201526001600160a01b03909116906370a0823190602401602060405180830381865afa15801561410d573d6000803e3d6000fd5b505050506040513d601f19601f820116820180604052508101906141319190615a0a565b61413b9190615a58565b8111155b156132935760ca54613293906001600160a01b03163383612f58565b60008054610100900460ff16156141e9578160ff16600114801561417e5750303b155b6141e15760405162461bcd60e51b815260206004820152602e60248201527f496e697469616c697a61626c653a20636f6e747261637420697320616c72656160448201526d191e481a5b9a5d1a585b1a5e995960921b6064820152608401610772565b506000919050565b60005460ff8084169116106142575760405162461bcd60e51b815260206004820152602e60248201527f496e697469616c697a61626c653a20636f6e747261637420697320616c72656160448201526d191e481a5b9a5d1a585b1a5e995960921b6064820152608401610772565b506000805460ff191660ff92909216919091179055600190565b919050565b600054610100900460ff166142e15760405162461bcd60e51b815260206004820152602b60248201527f496e697469616c697a61626c653a20636f6e7472616374206973206e6f74206960448201526a6e697469616c697a696e6760a81b6064820152608401610772565b6132938282614d77565b600054610100900460ff166143565760405162461bcd60e51b815260206004820152602b60248201527f496e697469616c697a61626c653a20636f6e7472616374206973206e6f74206960448201526a6e697469616c697a696e6760a81b6064820152608401610772565b610b4f614e09565b6000808060001985870985870292508281108382030391505080600003614397576000841161438c57600080fd5b5082900490506107ef565b8084116143a357600080fd5b60008486880960026001871981018816978890046003810283188082028403028082028403028082028403028082028403028082028403029081029092039091026000889003889004909101858311909403939093029303949094049190911702949350505050565b6001600160a01b03821661446c5760405162461bcd60e51b815260206004820152602160248201527f45524332303a206275726e2066726f6d20746865207a65726f206164647265736044820152607360f81b6064820152608401610772565b6001600160a01b038216600090815260656020526040902054818110156144e05760405162461bcd60e51b815260206004820152602260248201527f45524332303a206275726e20616d6f756e7420657863656564732062616c616e604482015261636560f01b6064820152608401610772565b6001600160a01b038316600090815260656020526040812083830390556067805484929061450f908490615a58565b90915550506040518281526000906001600160a01b038516907fddf252ad1be2c89b69c2b068fc378daa952ba7f163c4a11628f55a4df523b3ef9060200160405180910390a3505050565b6145856040518060800160405280600081526020016000815260200160008152602001600081525090565b60c9546040516370a0823160e01b81523060048201526000916001600160a01b0316906370a0823190602401602060405180830381865afa1580156145ce573d6000803e3d6000fd5b505050506040513d601f19601f820116820180604052508101906145f29190615a0a565b60ca546040516370a0823160e01b81523060048201529192506000916001600160a01b03909116906370a0823190602401602060405180830381865afa158015614640573d6000803e3d6000fd5b505050506040513d601f19601f820116820180604052508101906146649190615a0a565b6040517fa34123a7000000000000000000000000000000000000000000000000000000008152600288810b600483015287900b60248201526001600160801b03861660448201529091506001600160a01b0388169063a34123a79060640160408051808303816000875af11580156146e0573d6000803e3d6000fd5b505050506040513d601f19601f820116820180604052508101906147049190615c1d565b602085015283526040517f4f1eb3d8000000000000000000000000000000000000000000000000000000008152306004820152600287810b602483015286900b60448201526001600160801b036064820181905260848201526001600160a01b03881690634f1eb3d89060a40160408051808303816000875af115801561478f573d6000803e3d6000fd5b505050506040513d601f19601f820116820180604052508101906147b39190615e35565b5050825160c9546040516370a0823160e01b815230600482015284916001600160a01b0316906370a0823190602401602060405180830381865afa1580156147ff573d6000803e3d6000fd5b505050506040513d601f19601f820116820180604052508101906148239190615a0a565b61482d9190615a58565b6148379190615a58565b604084810191909152602084015160ca5491516370a0823160e01b8152306004820152909183916001600160a01b03909116906370a0823190602401602060405180830381865afa158015614890573d6000803e3d6000fd5b505050506040513d601f19601f820116820180604052508101906148b49190615a0a565b6148be9190615a58565b6148c89190615a58565b6060840152509095945050505050565b60d2546040517f2fa50f1c0000000000000000000000000000000000000000000000000000000081526001600160a01b03909116600482015260009073__$a9165f285a495db4c6e535608a8827875a$__90632fa50f1c90602401602060405180830381865af4158015614950573d6000803e3d6000fd5b505050506040513d601f19601f820116820180604052508101906149749190615e64565b905061271061498761ffff831685615e88565b6149919190615ea7565b60d060008282546149a2919061561c565b9091555061271090506149b961ffff831684615e88565b6149c39190615ea7565b60d160008282546149d4919061561c565b9091555061271090506149e860fa85615e88565b6149f29190615ea7565b60ce6000828254614a03919061561c565b909155506127109050614a1760fa84615e88565b614a219190615ea7565b60cf6000828254614a32919061561c565b9091555050505050565b60008181526001830160205260408120548015614b25576000614a60600183615a58565b8554909150600090614a7490600190615a58565b9050818114614ad9576000866000018281548110614a9457614a94615634565b9060005260206000200154905080876000018481548110614ab757614ab7615634565b6000918252602080832090910192909255918252600188019052604090208390555b8554869080614aea57614aea615a6f565b600190038181906000526020600020016000905590558560010160008681526020019081526020016000206000905560019350505050610716565b6000915050610716565b6000614b84826040518060400160405280602081526020017f5361666545524332303a206c6f772d6c6576656c2063616c6c206661696c6564815250856001600160a01b0316614e7b9092919063ffffffff16565b805190915015612fe95780806020019051810190614ba29190615961565b612fe95760405162461bcd60e51b815260206004820152602a60248201527f5361666545524332303a204552433230206f7065726174696f6e20646964206e60448201527f6f742073756363656564000000000000000000000000000000000000000000006064820152608401610772565b60006107ef836001600160a01b038416614e92565b801580614cbc57506040517fdd62ed3e0000000000000000000000000000000000000000000000000000000081523060048201526001600160a01b03838116602483015284169063dd62ed3e90604401602060405180830381865afa158015614c96573d6000803e3d6000fd5b505050506040513d601f19601f82011682018060405250810190614cba9190615a0a565b155b614d2e5760405162461bcd60e51b815260206004820152603660248201527f5361666545524332303a20617070726f76652066726f6d206e6f6e2d7a65726f60448201527f20746f206e6f6e2d7a65726f20616c6c6f77616e6365000000000000000000006064820152608401610772565b6040516001600160a01b038316602482015260448101829052612fe99084907f095ea7b30000000000000000000000000000000000000000000000000000000090606401612f9d565b600054610100900460ff16614de25760405162461bcd60e51b815260206004820152602b60248201527f496e697469616c697a61626c653a20636f6e7472616374206973206e6f74206960448201526a6e697469616c697a696e6760a81b6064820152608401610772565b8151614df5906068906020850190615062565b508051612fe9906069906020840190615062565b600054610100900460ff16614e745760405162461bcd60e51b815260206004820152602b60248201527f496e697469616c697a61626c653a20636f6e7472616374206973206e6f74206960448201526a6e697469616c697a696e6760a81b6064820152608401610772565b6001609755565b6060614e8a8484600085614ee1565b949350505050565b6000818152600183016020526040812054614ed957508154600181810184556000848152602080822090930184905584548482528286019093526040902091909155610716565b506000610716565b606082471015614f595760405162461bcd60e51b815260206004820152602660248201527f416464726573733a20696e73756666696369656e742062616c616e636520666f60448201527f722063616c6c00000000000000000000000000000000000000000000000000006064820152608401610772565b6001600160a01b0385163b614fb05760405162461bcd60e51b815260206004820152601d60248201527f416464726573733a2063616c6c20746f206e6f6e2d636f6e74726163740000006044820152606401610772565b600080866001600160a01b03168587604051614fcc9190615ec9565b60006040518083038185875af1925050503d8060008114615009576040519150601f19603f3d011682016040523d82523d6000602084013e61500e565b606091505b509150915061501e828286615029565b979650505050505050565b606083156150385750816107ef565b8251156150485782518084602001fd5b8160405162461bcd60e51b81526004016107729190615127565b82805461506e906155cc565b90600052602060002090601f01602090048101928261509057600085556150d6565b82601f106150a957805160ff19168380011785556150d6565b828001600101855582156150d6579182015b828111156150d65782518255916020019190600101906150bb565b506150e29291506150e6565b5090565b5b808211156150e257600081556001016150e7565b60005b838110156151165781810151838201526020016150fe565b83811115611b815750506000910152565b60208152600082518060208401526151468160408501602087016150fb565b601f01601f19169190910160400192915050565b6001600160a01b038116811461215257600080fd5b80356142718161515a565b6000806040838503121561518d57600080fd5b82356151988161515a565b946020939093013593505050565b6000602082840312156151b857600080fd5b81356107ef8161515a565b6000806000606084860312156151d857600080fd5b83356151e38161515a565b925060208401356151f38161515a565b929592945050506040919091013590565b6000806040838503121561521757600080fd5b50508035926020909101359150565b60008083601f84011261523857600080fd5b50813567ffffffffffffffff81111561525057600080fd5b6020830191508360208260051b850101111561526b57600080fd5b9250929050565b6000806020838503121561528557600080fd5b823567ffffffffffffffff81111561529c57600080fd5b6152a885828601615226565b90969095509350505050565b6000602082840312156152c657600080fd5b5035919050565b600080604083850312156152e057600080fd5b8235915060208301356152f28161515a565b809150509250929050565b60008083601f84011261530f57600080fd5b50813567ffffffffffffffff81111561532757600080fd5b60208301915083602060608302850101111561526b57600080fd5b60008060008060006060868803121561535a57600080fd5b853567ffffffffffffffff8082111561537257600080fd5b61537e89838a016152fd565b9097509550602088013591508082111561539757600080fd5b9087019060a0828a0312156153ab57600080fd5b909350604087013590808211156153c157600080fd5b506153ce888289016152fd565b969995985093965092949392505050565b60008083601f8401126153f157600080fd5b50813567ffffffffffffffff81111561540957600080fd5b60208301915083602082850101111561526b57600080fd5b6000806000806060858703121561543757600080fd5b8435935060208501359250604085013567ffffffffffffffff81111561545c57600080fd5b615468878288016153df565b95989497509550505050565b6000806040838503121561548757600080fd5b82356154928161515a565b915060208301356152f28161515a565b6000806000806000606086880312156154ba57600080fd5b853567ffffffffffffffff808211156154d257600080fd5b6154de89838a016153df565b909750955060208801359150808211156154f757600080fd5b61550389838a016153df565b9095509350604088013591508082111561551c57600080fd5b508601610100818903121561553057600080fd5b809150509295509295909350565b6000806000806060858703121561555457600080fd5b843567ffffffffffffffff8082111561556c57600080fd5b818701915087601f83011261558057600080fd5b81358181111561558f57600080fd5b8860208260071b85010111156155a457600080fd5b60209283019650945050850135915060408501356155c18161515a565b939692955090935050565b600181811c908216806155e057607f821691505b60208210810361560057634e487b7160e01b600052602260045260246000fd5b50919050565b634e487b7160e01b600052601160045260246000fd5b6000821982111561562f5761562f615606565b500190565b634e487b7160e01b600052603260045260246000fd5b60006001820161565c5761565c615606565b5060010190565b60208082528181018390526000908460408401835b868110156156a657823561568b8161515a565b6001600160a01b031682529183019190830190600101615678565b509695505050505050565b62ffffff8116811461215257600080fd5b60208082528181018390526000908460408401835b868110156156a65782356156ea816156b1565b62ffffff16825291830191908301906001016156d7565b6020808252825160a083830152805160c0840181905260009291820190839060e08601905b808310156157685783518051600290810b845286820151900b8684015260409081015162ffffff16908301529284019260019290920191606090910190615726565b50928601516001600160a01b03811660408701529260408701516001600160a01b0381166060880152935060608701516001600160a01b0381166080880152935060808701516001600160a01b03811660a088015293505b9695505050505050565b600080600080608085870312156157e057600080fd5b505082516020840151604085015160609095015191969095509092509050565b8060020b811461215257600080fd5b803561581a81615800565b60020b8252602081013561582d81615800565b60020b60208301526040810135615843816156b1565b62ffffff81166040840152505050565b6000608082016080835280855480835260a08501915086600052602092508260002060005b828110156158b3578154600281810b8652601882901c900b8686015260301c62ffffff16604085015260609093019260019182019101615878565b505050809250506158c68184018561580f565b509392505050565b801515811461215257600080fd5b600080604083850312156158ef57600080fd5b82516158fa816158ce565b6020939093015192949293505050565b60006020828403121561591c57600080fd5b81356107ef816156b1565b60006020828403121561593957600080fd5b81516107ef8161515a565b6001600160a01b0383168152608081016107ef602083018461580f565b60006020828403121561597357600080fd5b81516107ef816158ce565b813561598981615800565b815462ffffff82811662ffffff19831617845560208501356159aa81615800565b8060181b9050818416935065ffffff00000091508082168465ffffffffffff1985161717855560408601356159de816156b1565b911668ffffffffffffffffff19929092169092171760309190911b68ffffff0000000000001617905550565b600060208284031215615a1c57600080fd5b5051919050565b6001600160a01b038681168252858116602083015284811660408301528316606082015260e081016157c0608083018461580f565b600082821015615a6a57615a6a615606565b500390565b634e487b7160e01b600052603160045260246000fd5b6000808335601e19843603018112615a9c57600080fd5b83018035915067ffffffffffffffff821115615ab757600080fd5b6020019150600581901b360382131561526b57600080fd5b6001600160801b038116811461215257600080fd5b600060208284031215615af657600080fd5b81356107ef81615acf565b600060208284031215615b1357600080fd5b81356107ef81615800565b634e487b7160e01b600052601260045260246000fd5b6000808335601e19843603018112615b4b57600080fd5b83018035915067ffffffffffffffff821115615b6657600080fd5b6020019150600781901b360382131561526b57600080fd5b60008235609e19833603018112615b9457600080fd5b9190910192915050565b6000808335601e19843603018112615bb557600080fd5b83018035915067ffffffffffffffff821115615bd057600080fd5b60200191503681900382131561526b57600080fd5b8183823760009101908152919050565b8035614271816158ce565b600060208284031215615c1257600080fd5b81356107ef816158ce565b60008060408385031215615c3057600080fd5b505080516020909101519092909150565b6000808335601e19843603018112615c5857600080fd5b830160208101925035905067ffffffffffffffff811115615c7857600080fd5b8060071b360383131561526b57600080fd5b8183526000602080850194508260005b85811015615cd9578135615cad81615acf565b6001600160801b03168752615cc683880183850161580f565b6080968701969190910190600101615c9a565b509495945050505050565b81835281816020850137506000828201602090810191909152601f909101601f19169091010190565b60006020808352615d1e8485615c41565b60a083860152615d3260c086018284615c8a565b915050615d4182860186615c41565b601f1980878503016040880152615d59848385615c8a565b935060408801359250609e19883603018312615d7457600080fd5b868403016060870152508501803536829003601e19018112615d9557600080fd5b8101803567ffffffffffffffff811115615dae57600080fd5b803603831315615dbd57600080fd5b60a08452615dd160a0850182878501615ce4565b915050615ddf84830161516f565b6001600160a01b03811684860152506040820135604084015260608201356060840152615e0e60808301615bf5565b1515608093840152606087013586840152959091013560a090940193909352509192915050565b60008060408385031215615e4857600080fd5b8251615e5381615acf565b60208401519092506152f281615acf565b600060208284031215615e7657600080fd5b815161ffff811681146107ef57600080fd5b6000816000190483118215151615615ea257615ea2615606565b500290565b600082615ec457634e487b7160e01b600052601260045260246000fd5b500490565b60008251615b948184602087016150fb56fea26469706673582212206945b5a07b0ea78ed34c8c66261de9c96bcd000e8786e8ce570ab293aef944f564736f6c634300080d0033",
  "libraries": {
    "Pool": "0xE1b3Dc2F7656d3036e4Fe9A3cA8F337925Ef4a7d",
    "Position": "0xC64433E71f1f76Be5567B657026656Cce5999C34",
    "Underlying": "0x4F3f69aB92D414b73a136b31d54bA207a0563021",
    "Manager": "0x887D1EeC3C026ED31Fc35f6CB3f32D940BdB8b24"
  },
  "devdoc": {
    "details": "DO NOT ADD STATE VARIABLES - APPEND THEM TO ArrakisV2Storage",
    "kind": "dev",
    "methods": {
      "allowance(address,address)": {
        "details": "See {IERC20-allowance}."
      },
      "approve(address,uint256)": {
        "details": "See {IERC20-approve}. NOTE: If `amount` is the maximum `uint256`, the allowance is not updated on `transferFrom`. This is semantically equivalent to an infinite approval. Requirements: - `spender` cannot be the zero address."
      },
      "balanceOf(address)": {
        "details": "See {IERC20-balanceOf}."
      },
      "decimals()": {
        "details": "Returns the number of decimals used to get its user representation. For example, if `decimals` equals `2`, a balance of `505` tokens should be displayed to a user as `5.05` (`505 / 10 ** 2`). Tokens usually opt for a value of 18, imitating the relationship between Ether and Wei. This is the value {ERC20} uses, unless this function is overridden; NOTE: This information is only used for _display_ purposes: it in no way affects any of the arithmetic of the contract, including {IERC20-balanceOf} and {IERC20-transfer}."
      },
      "decreaseAllowance(address,uint256)": {
        "details": "Atomically decreases the allowance granted to `spender` by the caller. This is an alternative to {approve} that can be used as a mitigation for problems described in {IERC20-approve}. Emits an {Approval} event indicating the updated allowance. Requirements: - `spender` cannot be the zero address. - `spender` must have allowance for the caller of at least `subtractedValue`."
      },
      "increaseAllowance(address,uint256)": {
        "details": "Atomically increases the allowance granted to `spender` by the caller. This is an alternative to {approve} that can be used as a mitigation for problems described in {IERC20-approve}. Emits an {Approval} event indicating the updated allowance. Requirements: - `spender` cannot be the zero address."
      },
      "name()": {
        "details": "Returns the name of the token."
      },
      "owner()": {
        "details": "Returns the address of the current owner."
      },
      "renounceOwnership()": {
        "details": "Leaves the contract without owner. It will not be possible to call `onlyOwner` functions anymore. Can only be called by the current owner. NOTE: Renouncing ownership will leave the contract without an owner, thereby removing any functionality that is only available to the owner."
      },
      "symbol()": {
        "details": "Returns the symbol of the token, usually a shorter version of the name."
      },
      "totalSupply()": {
        "details": "See {IERC20-totalSupply}."
      },
      "transfer(address,uint256)": {
        "details": "See {IERC20-transfer}. Requirements: - `to` cannot be the zero address. - the caller must have a balance of at least `amount`."
      },
      "transferFrom(address,address,uint256)": {
        "details": "See {IERC20-transferFrom}. Emits an {Approval} event indicating the updated allowance. This is not required by the EIP. See the note at the beginning of {ERC20}. NOTE: Does not update the allowance if the current allowance is the maximum `uint256`. Requirements: - `from` and `to` cannot be the zero address. - `from` must have a balance of at least `amount`. - the caller must have allowance for ``from``'s tokens of at least `amount`."
      },
      "transferOwnership(address)": {
        "details": "Transfers ownership of the contract to a new account (`newOwner`). Can only be called by the current owner."
      }
    },
    "version": 1
  },
  "userdoc": {
    "kind": "user",
    "methods": {
      "uniswapV3MintCallback(uint256,uint256,bytes)": {
        "notice": "Uniswap V3 callback fn, called back on pool.mint"
      }
    },
    "version": 1
  },
  "storageLayout": {
    "storage": [
      {
        "astId": 1285,
        "contract": "contracts/ArrakisV2.sol:ArrakisV2",
        "label": "_initialized",
        "offset": 0,
        "slot": "0",
        "type": "t_uint8"
      },
      {
        "astId": 1288,
        "contract": "contracts/ArrakisV2.sol:ArrakisV2",
        "label": "_initializing",
        "offset": 1,
        "slot": "0",
        "type": "t_bool"
      },
      {
        "astId": 2477,
        "contract": "contracts/ArrakisV2.sol:ArrakisV2",
        "label": "__gap",
        "offset": 0,
        "slot": "1",
        "type": "t_array(t_uint256)50_storage"
      },
      {
        "astId": 1165,
        "contract": "contracts/ArrakisV2.sol:ArrakisV2",
        "label": "_owner",
        "offset": 0,
        "slot": "51",
        "type": "t_address"
      },
      {
        "astId": 1277,
        "contract": "contracts/ArrakisV2.sol:ArrakisV2",
        "label": "__gap",
        "offset": 0,
        "slot": "52",
        "type": "t_array(t_uint256)49_storage"
      },
      {
        "astId": 1498,
        "contract": "contracts/ArrakisV2.sol:ArrakisV2",
        "label": "_balances",
        "offset": 0,
        "slot": "101",
        "type": "t_mapping(t_address,t_uint256)"
      },
      {
        "astId": 1504,
        "contract": "contracts/ArrakisV2.sol:ArrakisV2",
        "label": "_allowances",
        "offset": 0,
        "slot": "102",
        "type": "t_mapping(t_address,t_mapping(t_address,t_uint256))"
      },
      {
        "astId": 1506,
        "contract": "contracts/ArrakisV2.sol:ArrakisV2",
        "label": "_totalSupply",
        "offset": 0,
        "slot": "103",
        "type": "t_uint256"
      },
      {
        "astId": 1508,
        "contract": "contracts/ArrakisV2.sol:ArrakisV2",
        "label": "_name",
        "offset": 0,
        "slot": "104",
        "type": "t_string_storage"
      },
      {
        "astId": 1510,
        "contract": "contracts/ArrakisV2.sol:ArrakisV2",
        "label": "_symbol",
        "offset": 0,
        "slot": "105",
        "type": "t_string_storage"
      },
      {
        "astId": 2089,
        "contract": "contracts/ArrakisV2.sol:ArrakisV2",
        "label": "__gap",
        "offset": 0,
        "slot": "106",
        "type": "t_array(t_uint256)45_storage"
      },
      {
        "astId": 1434,
        "contract": "contracts/ArrakisV2.sol:ArrakisV2",
        "label": "_status",
        "offset": 0,
        "slot": "151",
        "type": "t_uint256"
      },
      {
        "astId": 1478,
        "contract": "contracts/ArrakisV2.sol:ArrakisV2",
        "label": "__gap",
        "offset": 0,
        "slot": "152",
        "type": "t_array(t_uint256)49_storage"
      },
      {
        "astId": 10370,
        "contract": "contracts/ArrakisV2.sol:ArrakisV2",
        "label": "token0",
        "offset": 0,
        "slot": "201",
        "type": "t_contract(IERC20)4147"
      },
      {
        "astId": 10373,
        "contract": "contracts/ArrakisV2.sol:ArrakisV2",
        "label": "token1",
        "offset": 0,
        "slot": "202",
        "type": "t_contract(IERC20)4147"
      },
      {
        "astId": 10375,
        "contract": "contracts/ArrakisV2.sol:ArrakisV2",
        "label": "init0",
        "offset": 0,
        "slot": "203",
        "type": "t_uint256"
      },
      {
        "astId": 10377,
        "contract": "contracts/ArrakisV2.sol:ArrakisV2",
        "label": "init1",
        "offset": 0,
        "slot": "204",
        "type": "t_uint256"
      },
      {
        "astId": 10381,
        "contract": "contracts/ArrakisV2.sol:ArrakisV2",
        "label": "ranges",
        "offset": 0,
        "slot": "205",
        "type": "t_array(t_struct(Range)12499_storage)dyn_storage"
      },
      {
        "astId": 10383,
        "contract": "contracts/ArrakisV2.sol:ArrakisV2",
        "label": "arrakisBalance0",
        "offset": 0,
        "slot": "206",
        "type": "t_uint256"
      },
      {
        "astId": 10385,
        "contract": "contracts/ArrakisV2.sol:ArrakisV2",
        "label": "arrakisBalance1",
        "offset": 0,
        "slot": "207",
        "type": "t_uint256"
      },
      {
        "astId": 10387,
        "contract": "contracts/ArrakisV2.sol:ArrakisV2",
        "label": "managerBalance0",
        "offset": 0,
        "slot": "208",
        "type": "t_uint256"
      },
      {
        "astId": 10389,
        "contract": "contracts/ArrakisV2.sol:ArrakisV2",
        "label": "managerBalance1",
        "offset": 0,
        "slot": "209",
        "type": "t_uint256"
      },
      {
        "astId": 10392,
        "contract": "contracts/ArrakisV2.sol:ArrakisV2",
        "label": "manager",
        "offset": 0,
        "slot": "210",
        "type": "t_contract(IManager)11514"
      },
      {
        "astId": 10394,
        "contract": "contracts/ArrakisV2.sol:ArrakisV2",
        "label": "restrictedMint",
        "offset": 0,
        "slot": "211",
        "type": "t_address"
      },
      {
        "astId": 10397,
        "contract": "contracts/ArrakisV2.sol:ArrakisV2",
        "label": "_pools",
        "offset": 0,
        "slot": "212",
        "type": "t_struct(AddressSet)5478_storage"
      },
      {
        "astId": 10400,
        "contract": "contracts/ArrakisV2.sol:ArrakisV2",
        "label": "_routers",
        "offset": 0,
        "slot": "214",
        "type": "t_struct(AddressSet)5478_storage"
      }
    ],
    "types": {
      "t_address": {
        "encoding": "inplace",
        "label": "address",
        "numberOfBytes": "20"
      },
      "t_array(t_bytes32)dyn_storage": {
        "base": "t_bytes32",
        "encoding": "dynamic_array",
        "label": "bytes32[]",
        "numberOfBytes": "32"
      },
      "t_array(t_struct(Range)12499_storage)dyn_storage": {
        "base": "t_struct(Range)12499_storage",
        "encoding": "dynamic_array",
        "label": "struct Range[]",
        "numberOfBytes": "32"
      },
      "t_array(t_uint256)45_storage": {
        "base": "t_uint256",
        "encoding": "inplace",
        "label": "uint256[45]",
        "numberOfBytes": "1440"
      },
      "t_array(t_uint256)49_storage": {
        "base": "t_uint256",
        "encoding": "inplace",
        "label": "uint256[49]",
        "numberOfBytes": "1568"
      },
      "t_array(t_uint256)50_storage": {
        "base": "t_uint256",
        "encoding": "inplace",
        "label": "uint256[50]",
        "numberOfBytes": "1600"
      },
      "t_bool": {
        "encoding": "inplace",
        "label": "bool",
        "numberOfBytes": "1"
      },
      "t_bytes32": {
        "encoding": "inplace",
        "label": "bytes32",
        "numberOfBytes": "32"
      },
      "t_contract(IERC20)4147": {
        "encoding": "inplace",
        "label": "contract IERC20",
        "numberOfBytes": "20"
      },
      "t_contract(IManager)11514": {
        "encoding": "inplace",
        "label": "contract IManager",
        "numberOfBytes": "20"
      },
      "t_int24": {
        "encoding": "inplace",
        "label": "int24",
        "numberOfBytes": "3"
      },
      "t_mapping(t_address,t_mapping(t_address,t_uint256))": {
        "encoding": "mapping",
        "key": "t_address",
        "label": "mapping(address => mapping(address => uint256))",
        "numberOfBytes": "32",
        "value": "t_mapping(t_address,t_uint256)"
      },
      "t_mapping(t_address,t_uint256)": {
        "encoding": "mapping",
        "key": "t_address",
        "label": "mapping(address => uint256)",
        "numberOfBytes": "32",
        "value": "t_uint256"
      },
      "t_mapping(t_bytes32,t_uint256)": {
        "encoding": "mapping",
        "key": "t_bytes32",
        "label": "mapping(bytes32 => uint256)",
        "numberOfBytes": "32",
        "value": "t_uint256"
      },
      "t_string_storage": {
        "encoding": "bytes",
        "label": "string",
        "numberOfBytes": "32"
      },
      "t_struct(AddressSet)5478_storage": {
        "encoding": "inplace",
        "label": "struct EnumerableSet.AddressSet",
        "members": [
          {
            "astId": 5477,
            "contract": "contracts/ArrakisV2.sol:ArrakisV2",
            "label": "_inner",
            "offset": 0,
            "slot": "0",
            "type": "t_struct(Set)5177_storage"
          }
        ],
        "numberOfBytes": "64"
      },
      "t_struct(Range)12499_storage": {
        "encoding": "inplace",
        "label": "struct Range",
        "members": [
          {
            "astId": 12494,
            "contract": "contracts/ArrakisV2.sol:ArrakisV2",
            "label": "lowerTick",
            "offset": 0,
            "slot": "0",
            "type": "t_int24"
          },
          {
            "astId": 12496,
            "contract": "contracts/ArrakisV2.sol:ArrakisV2",
            "label": "upperTick",
            "offset": 3,
            "slot": "0",
            "type": "t_int24"
          },
          {
            "astId": 12498,
            "contract": "contracts/ArrakisV2.sol:ArrakisV2",
            "label": "feeTier",
            "offset": 6,
            "slot": "0",
            "type": "t_uint24"
          }
        ],
        "numberOfBytes": "32"
      },
      "t_struct(Set)5177_storage": {
        "encoding": "inplace",
        "label": "struct EnumerableSet.Set",
        "members": [
          {
            "astId": 5172,
            "contract": "contracts/ArrakisV2.sol:ArrakisV2",
            "label": "_values",
            "offset": 0,
            "slot": "0",
            "type": "t_array(t_bytes32)dyn_storage"
          },
          {
            "astId": 5176,
            "contract": "contracts/ArrakisV2.sol:ArrakisV2",
            "label": "_indexes",
            "offset": 0,
            "slot": "1",
            "type": "t_mapping(t_bytes32,t_uint256)"
          }
        ],
        "numberOfBytes": "64"
      },
      "t_uint24": {
        "encoding": "inplace",
        "label": "uint24",
        "numberOfBytes": "3"
      },
      "t_uint256": {
        "encoding": "inplace",
        "label": "uint256",
        "numberOfBytes": "32"
      },
      "t_uint8": {
        "encoding": "inplace",
        "label": "uint8",
        "numberOfBytes": "1"
      }
    }
  }
}