{
  "address": "0x7679028D2135c2cD622D71c891941359aC8339c7",
  "abi": [
    {
      "inputs": [
        {
          "internalType": "contract IUniswapV3Factory",
          "name": "factory_",
          "type": "address"
        },
        {
          "internalType": "contract IArrakisV2Helper",
          "name": "helper_",
          "type": "address"
        },
        {
          "internalType": "contract ISwapRouter",
          "name": "swapRouter_",
          "type": "address"
        }
      ],
      "stateMutability": "nonpayable",
      "type": "constructor"
    },
    {
      "inputs": [],
      "name": "factory",
      "outputs": [
        {
          "internalType": "contract IUniswapV3Factory",
          "name": "",
          "type": "address"
        }
      ],
      "stateMutability": "view",
      "type": "function"
    },
    {
      "inputs": [
        {
          "internalType": "int24",
          "name": "currentTick_",
          "type": "int24"
        },
        {
          "internalType": "int24",
          "name": "lowerTick_",
          "type": "int24"
        },
        {
          "internalType": "int24",
          "name": "upperTick_",
          "type": "int24"
        },
        {
          "internalType": "uint128",
          "name": "liquidity_",
          "type": "uint128"
        }
      ],
      "name": "getAmountsForLiquidity",
      "outputs": [
        {
          "internalType": "uint256",
          "name": "amount0",
          "type": "uint256"
        },
        {
          "internalType": "uint256",
          "name": "amount1",
          "type": "uint256"
        }
      ],
      "stateMutability": "pure",
      "type": "function"
    },
    {
      "inputs": [
        {
          "internalType": "contract IArrakisV2",
          "name": "vaultV2_",
          "type": "address"
        },
        {
          "internalType": "uint256",
          "name": "amount0Max_",
          "type": "uint256"
        },
        {
          "internalType": "uint256",
          "name": "amount1Max_",
          "type": "uint256"
        }
      ],
      "name": "getMintAmounts",
      "outputs": [
        {
          "internalType": "uint256",
          "name": "amount0",
          "type": "uint256"
        },
        {
          "internalType": "uint256",
          "name": "amount1",
          "type": "uint256"
        },
        {
          "internalType": "uint256",
          "name": "mintAmount",
          "type": "uint256"
        }
      ],
      "stateMutability": "view",
      "type": "function"
    },
    {
      "inputs": [],
      "name": "helper",
      "outputs": [
        {
          "internalType": "contract IArrakisV2Helper",
          "name": "",
          "type": "address"
        }
      ],
      "stateMutability": "view",
      "type": "function"
    },
    {
      "inputs": [
        {
          "internalType": "uint256",
          "name": "amountToBurn_",
          "type": "uint256"
        },
        {
          "internalType": "contract IArrakisV2",
          "name": "vaultV2_",
          "type": "address"
        }
      ],
      "name": "standardBurnParams",
      "outputs": [
        {
          "components": [
            {
              "internalType": "uint128",
              "name": "liquidity",
              "type": "uint128"
            },
            {
              "components": [
                {
                  "internalType": "int24",
                  "name": "lowerTick",
                  "type": "int24"
                },
                {
                  "internalType": "int24",
                  "name": "upperTick",
                  "type": "int24"
                },
                {
                  "internalType": "uint24",
                  "name": "feeTier",
                  "type": "uint24"
                }
              ],
              "internalType": "struct Range",
              "name": "range",
              "type": "tuple"
            }
          ],
          "internalType": "struct BurnLiquidity[]",
          "name": "burns",
          "type": "tuple[]"
        }
      ],
      "stateMutability": "view",
      "type": "function"
    },
    {
      "inputs": [
        {
          "components": [
            {
              "components": [
                {
                  "internalType": "int24",
                  "name": "lowerTick",
                  "type": "int24"
                },
                {
                  "internalType": "int24",
                  "name": "upperTick",
                  "type": "int24"
                },
                {
                  "internalType": "uint24",
                  "name": "feeTier",
                  "type": "uint24"
                }
              ],
              "internalType": "struct Range",
              "name": "range",
              "type": "tuple"
            },
            {
              "internalType": "uint256",
              "name": "weight",
              "type": "uint256"
            }
          ],
          "internalType": "struct RangeWeight[]",
          "name": "rangeWeights_",
          "type": "tuple[]"
        },
        {
          "internalType": "contract IArrakisV2",
          "name": "vaultV2_",
          "type": "address"
        }
      ],
      "name": "standardRebalance",
      "outputs": [
        {
          "components": [
            {
              "components": [
                {
                  "internalType": "uint128",
                  "name": "liquidity",
                  "type": "uint128"
                },
                {
                  "components": [
                    {
                      "internalType": "int24",
                      "name": "lowerTick",
                      "type": "int24"
                    },
                    {
                      "internalType": "int24",
                      "name": "upperTick",
                      "type": "int24"
                    },
                    {
                      "internalType": "uint24",
                      "name": "feeTier",
                      "type": "uint24"
                    }
                  ],
                  "internalType": "struct Range",
                  "name": "range",
                  "type": "tuple"
                }
              ],
              "internalType": "struct PositionLiquidity[]",
              "name": "removes",
              "type": "tuple[]"
            },
            {
              "components": [
                {
                  "internalType": "uint128",
                  "name": "liquidity",
                  "type": "uint128"
                },
                {
                  "components": [
                    {
                      "internalType": "int24",
                      "name": "lowerTick",
                      "type": "int24"
                    },
                    {
                      "internalType": "int24",
                      "name": "upperTick",
                      "type": "int24"
                    },
                    {
                      "internalType": "uint24",
                      "name": "feeTier",
                      "type": "uint24"
                    }
                  ],
                  "internalType": "struct Range",
                  "name": "range",
                  "type": "tuple"
                }
              ],
              "internalType": "struct PositionLiquidity[]",
              "name": "deposits",
              "type": "tuple[]"
            },
            {
              "components": [
                {
                  "internalType": "bytes",
                  "name": "payload",
                  "type": "bytes"
                },
                {
                  "internalType": "address",
                  "name": "router",
                  "type": "address"
                },
                {
                  "internalType": "uint256",
                  "name": "amountIn",
                  "type": "uint256"
                },
                {
                  "internalType": "uint256",
                  "name": "expectedMinReturn",
                  "type": "uint256"
                },
                {
                  "internalType": "bool",
                  "name": "zeroForOne",
                  "type": "bool"
                }
              ],
              "internalType": "struct SwapPayload",
              "name": "swap",
              "type": "tuple"
            },
            {
              "internalType": "uint256",
              "name": "minDeposit0",
              "type": "uint256"
            },
            {
              "internalType": "uint256",
              "name": "minDeposit1",
              "type": "uint256"
            }
          ],
          "internalType": "struct Rebalance",
          "name": "rebalanceParams",
          "type": "tuple"
        }
      ],
      "stateMutability": "view",
      "type": "function"
    },
    {
      "inputs": [],
      "name": "swapRouter",
      "outputs": [
        {
          "internalType": "contract ISwapRouter",
          "name": "",
          "type": "address"
        }
      ],
      "stateMutability": "view",
      "type": "function"
    }
  ],
  "transactionHash": "0xc78f98e71d938abd8ac7c2a3a7b8d2b789178786de7946612ff7550059830c5a",
  "args": [
    "0x1F98431c8aD98523631AE4a59f267346ea31F984",
    "0xbaffBF289d5Cc9C7AA89254a30BFF837F4BbA929",
    "0xE592427A0AEce92De3Edee1F18E0157C05861564"
  ],
  "numDeployments": 1,
  "solcInputHash": "13cfa716d9a76641341dcb45562c1580",
  "bytecode": "0x60e06040523480156200001157600080fd5b5060405162002df638038062002df683398101604081905262000034916200006b565b6001600160a01b0392831660805290821660a0521660c052620000bf565b6001600160a01b03811681146200006857600080fd5b50565b6000806000606084860312156200008157600080fd5b83516200008e8162000052565b6020850151909350620000a18162000052565b6040850151909250620000b48162000052565b809150509250925092565b60805160a05160c051612ce56200011160003960006101130152600081816087015281816102d701528181610d4c01528181610eed01526116c901526000818161013a01526103b00152612ce56000f3fe608060405234801561001057600080fd5b506004361061007d5760003560e01c8063c31c9c071161005b578063c31c9c071461010e578063c45a015514610135578063c49f25af1461015c578063fa111ce71461017c57600080fd5b806363b0e66a14610082578063a339df12146100c6578063c30fcfdc146100ee575b600080fd5b6100a97f000000000000000000000000000000000000000000000000000000000000000081565b6040516001600160a01b0390911681526020015b60405180910390f35b6100d96100d4366004612370565b6101aa565b604080519283526020830191909152016100bd565b6101016100fc3660046123ec565b6101df565b6040516100bd9190612462565b6100a97f000000000000000000000000000000000000000000000000000000000000000081565b6100a97f000000000000000000000000000000000000000000000000000000000000000081565b61016f61016a366004612578565b610d3a565b6040516100bd91906126d5565b61018f61018a3660046127ca565b6116bf565b604080519384526020840192909252908201526060016100bd565b6000806101d16101b9876119fa565b6101c2876119fa565b6101cb876119fa565b86611e27565b915091505b94509492505050565b60606000826001600160a01b03166318160ddd6040518163ffffffff1660e01b8152600401602060405180830381865afa158015610221573d6000803e3d6000fd5b505050506040513d601f19601f8201168201806040525081019061024591906127ff565b90506000811161029c5760405162461bcd60e51b815260206004820152600c60248201527f746f74616c20737570706c79000000000000000000000000000000000000000060448201526064015b60405180910390fd5b6040517f284ae96f0000000000000000000000000000000000000000000000000000000081526001600160a01b0384811660048301526000917f00000000000000000000000000000000000000000000000000000000000000009091169063284ae96f90602401600060405180830381865afa158015610320573d6000803e3d6000fd5b505050506040513d6000823e601f3d908101601f191682016040526103489190810190612818565b90506103836040518060c001604052806000815260200160008152602001600081526020016000815260200160008152602001600081525090565b734F3f69aB92D414b73a136b31d54bA207a056302163e56f4d916040518060a001604052808581526020017f00000000000000000000000000000000000000000000000000000000000000006001600160a01b03168152602001886001600160a01b0316630dfe16816040518163ffffffff1660e01b8152600401602060405180830381865afa15801561041b573d6000803e3d6000fd5b505050506040513d601f19601f8201168201806040525081019061043f91906128f1565b6001600160a01b03168152602001886001600160a01b031663d21220a76040518163ffffffff1660e01b8152600401602060405180830381865afa15801561048b573d6000803e3d6000fd5b505050506040513d601f19601f820116820180604052508101906104af91906128f1565b6001600160a01b03168152602001886001600160a01b03168152506040518263ffffffff1660e01b81526004016104e6919061290e565b608060405180830381865af4158015610503573d6000803e3d6000fd5b505050506040513d601f19601f8201168201806040525081019061052791906129df565b606085015260408085019190915260208085019290925291835281517fd8953ca700000000000000000000000000000000000000000000000000000000815291516001600160a01b0388169263d8953ca79260048083019391928290030181865afa15801561059a573d6000803e3d6000fd5b505050506040513d601f19601f820116820180604052508101906105be91906127ff565b856001600160a01b031663065756db6040518163ffffffff1660e01b8152600401602060405180830381865afa1580156105fc573d6000803e3d6000fd5b505050506040513d601f19601f8201168201806040525081019061062091906127ff565b866001600160a01b0316630dfe16816040518163ffffffff1660e01b8152600401602060405180830381865afa15801561065e573d6000803e3d6000fd5b505050506040513d601f19601f8201168201806040525081019061068291906128f1565b6040516370a0823160e01b81526001600160a01b03898116600483015291909116906370a0823190602401602060405180830381865afa1580156106ca573d6000803e3d6000fd5b505050506040513d601f19601f820116820180604052508101906106ee91906127ff565b6106f89190612a2b565b6107029190612a2b565b816080018181525050846001600160a01b031663bbfe704e6040518163ffffffff1660e01b8152600401602060405180830381865afa158015610749573d6000803e3d6000fd5b505050506040513d601f19601f8201168201806040525081019061076d91906127ff565b856001600160a01b03166342fb9d446040518163ffffffff1660e01b8152600401602060405180830381865afa1580156107ab573d6000803e3d6000fd5b505050506040513d601f19601f820116820180604052508101906107cf91906127ff565b866001600160a01b031663d21220a76040518163ffffffff1660e01b8152600401602060405180830381865afa15801561080d573d6000803e3d6000fd5b505050506040513d601f19601f8201168201806040525081019061083191906128f1565b6040516370a0823160e01b81526001600160a01b03898116600483015291909116906370a0823190602401602060405180830381865afa158015610879573d6000803e3d6000fd5b505050506040513d601f19601f8201168201806040525081019061089d91906127ff565b6108a79190612a2b565b6108b19190612a2b565b60a082015280516000906108c6908886611ec2565b905060006108d983602001518987611ec2565b9050826080015182111580156108f357508260a001518111155b15610902575050505050610d34565b505050805167ffffffffffffffff81111561091f5761091f6124b0565b60405190808252806020026020018201604052801561098357816020015b61097060408051808201825260008082528251606081018452818152602081810183905293810191909152909182015290565b81526020019060019003908161093d5790505b50925060005b8151811015610d30576000856001600160a01b031663c45a01556040518163ffffffff1660e01b8152600401602060405180830381865afa1580156109d2573d6000803e3d6000fd5b505050506040513d601f19601f820116820180604052508101906109f691906128f1565b6001600160a01b0316631698ee82876001600160a01b0316630dfe16816040518163ffffffff1660e01b8152600401602060405180830381865afa158015610a42573d6000803e3d6000fd5b505050506040513d601f19601f82011682018060405250810190610a6691906128f1565b886001600160a01b031663d21220a76040518163ffffffff1660e01b8152600401602060405180830381865afa158015610aa4573d6000803e3d6000fd5b505050506040513d601f19601f82011682018060405250810190610ac891906128f1565b868681518110610ada57610ada612a42565b602090810291909101015160409081015190516001600160e01b031960e086901b1681526001600160a01b03938416600482015292909116602483015262ffffff166044820152606401602060405180830381865afa158015610b41573d6000803e3d6000fd5b505050506040513d601f19601f82011682018060405250810190610b6591906128f1565b6001600160a01b031663514ea4bf73C64433E71f1f76Be5567B657026656Cce5999C34631208efca89878781518110610ba057610ba0612a42565b602002602001015160000151888881518110610bbe57610bbe612a42565b60209081029190910181015101516040516001600160e01b031960e086901b1681526001600160a01b039093166004840152600291820b6024840152900b6044820152606401602060405180830381865af4158015610c21573d6000803e3d6000fd5b505050506040513d601f19601f82011682018060405250810190610c4591906127ff565b6040518263ffffffff1660e01b8152600401610c6391815260200190565b60a060405180830381865afa158015610c80573d6000803e3d6000fd5b505050506040513d601f19601f82011682018060405250810190610ca49190612a58565b505060408051808201909152929350829150610cd49050610ccf6001600160801b0385168b89611ec2565b611f76565b6001600160801b03168152602001848481518110610cf457610cf4612a42565b6020026020010151815250858381518110610d1157610d11612a42565b6020026020010181905250508080610d2890612aba565b915050610989565b5050505b92915050565b610d426122df565b60008060008060007f00000000000000000000000000000000000000000000000000000000000000006001600160a01b031663284ae96f886040518263ffffffff1660e01b8152600401610da591906001600160a01b0391909116815260200190565b600060405180830381865afa158015610dc2573d6000803e3d6000fd5b505050506040513d6000823e601f3d908101601f19168201604052610dea9190810190612818565b9050866001600160a01b0316630dfe16816040518163ffffffff1660e01b8152600401602060405180830381865afa158015610e2a573d6000803e3d6000fd5b505050506040513d601f19601f82011682018060405250810190610e4e91906128f1565b9250866001600160a01b031663d21220a76040518163ffffffff1660e01b8152600401602060405180830381865afa158015610e8e573d6000803e3d6000fd5b505050506040513d601f19601f82011682018060405250810190610eb291906128f1565b6040517f6ea08e2a0000000000000000000000000000000000000000000000000000000081526001600160a01b0389811660048301529193507f000000000000000000000000000000000000000000000000000000000000000090911690636ea08e2a906024016040805180830381865afa158015610f35573d6000803e3d6000fd5b505050506040513d601f19601f82011682018060405250810190610f599190612ad3565b8251919650945060009067ffffffffffffffff811115610f7b57610f7b6124b0565b604051908082528060200260200182016040528015610fdf57816020015b610fcc60408051808201825260008082528251606081018452818152602081810183905293810191909152909182015290565b815260200190600190039081610f995790505b5090506000805b83518110156112cc5760008a6001600160a01b031663c45a01556040518163ffffffff1660e01b8152600401602060405180830381865afa15801561102f573d6000803e3d6000fd5b505050506040513d601f19601f8201168201806040525081019061105391906128f1565b6001600160a01b0316631698ee82888888868151811061107557611075612a42565b602090810291909101015160409081015190516001600160e01b031960e086901b1681526001600160a01b03938416600482015292909116602483015262ffffff166044820152606401602060405180830381865afa1580156110dc573d6000803e3d6000fd5b505050506040513d601f19601f8201168201806040525081019061110091906128f1565b6001600160a01b031663514ea4bf73C64433E71f1f76Be5567B657026656Cce5999C34631208efca8e89878151811061113b5761113b612a42565b6020026020010151600001518a888151811061115957611159612a42565b60209081029190910181015101516040516001600160e01b031960e086901b1681526001600160a01b039093166004840152600291820b6024840152900b6044820152606401602060405180830381865af41580156111bc573d6000803e3d6000fd5b505050506040513d601f19601f820116820180604052508101906111e091906127ff565b6040518263ffffffff1660e01b81526004016111fe91815260200190565b60a060405180830381865afa15801561121b573d6000803e3d6000fd5b505050506040513d601f19601f8201168201806040525081019061123f9190612a58565b5092935050506001600160801b038216159050611264578261126081612aba565b9350505b6040518060400160405280826001600160801b0316815260200186848151811061129057611290612a42565b60200260200101518152508483815181106112ad576112ad612a42565b60200260200101819052505080806112c490612aba565b915050610fe6565b508067ffffffffffffffff8111156112e6576112e66124b0565b60405190808252806020026020018201604052801561134a57816020015b61133760408051808201825260008082528251606081018452818152602081810183905293810191909152909182015290565b8152602001906001900390816113045790505b5088526000805b83518110156113e557600084828151811061136e5761136e612a42565b6020026020010151600001516001600160801b031611156113d35783818151811061139b5761139b612a42565b60200260200101518a6000015183815181106113b9576113b9612a42565b602002602001018190525081806113cf90612aba565b9250505b806113dd81612aba565b915050611351565b50505050506113f387611ff9565b865167ffffffffffffffff81111561140d5761140d6124b0565b60405190808252806020026020018201604052801561147157816020015b61145e60408051808201825260008082528251606081018452818152602081810183905293810191909152909182015290565b81526020019060019003908161142b5790505b50602086015260005b87518110156116b457600088828151811061149757611497612a42565b602002602001015190506000886001600160a01b031663c45a01556040518163ffffffff1660e01b8152600401602060405180830381865afa1580156114e1573d6000803e3d6000fd5b505050506040513d601f19601f8201168201806040525081019061150591906128f1565b825160409081015190517f1698ee820000000000000000000000000000000000000000000000000000000081526001600160a01b038881166004830152878116602483015262ffffff9092166044820152911690631698ee8290606401602060405180830381865afa15801561157f573d6000803e3d6000fd5b505050506040513d601f19601f820116820180604052508101906115a391906128f1565b6001600160a01b0316633850c7bd6040518163ffffffff1660e01b815260040160e060405180830381865afa1580156115e0573d6000803e3d6000fd5b505050506040513d601f19601f820116820180604052508101906116049190612b09565b50505050505090506000611659826116238560000151600001516119fa565b855160200151611632906119fa565b6116438c8860200151612710611ec2565b6116548c8960200151612710611ec2565b61209a565b90506040518060400160405280826001600160801b0316815260200184600001518152508960200151858151811061169357611693612a42565b602002602001018190525050505080806116ac90612aba565b91505061147a565b505050505092915050565b60008060008060007f00000000000000000000000000000000000000000000000000000000000000006001600160a01b0316636ea08e2a896040518263ffffffff1660e01b815260040161172291906001600160a01b0391909116815260200190565b6040805180830381865afa15801561173e573d6000803e3d6000fd5b505050506040513d601f19601f820116820180604052508101906117629190612ad3565b915091506000886001600160a01b03166318160ddd6040518163ffffffff1660e01b8152600401602060405180830381865afa1580156117a6573d6000803e3d6000fd5b505050506040513d601f19601f820116820180604052508101906117ca91906127ff565b90508015611887576040517fc30fc38d0000000000000000000000000000000000000000000000000000000081526004810184905260248101839052604481018290526064810189905260848101889052736CcEc15fef0e3F72DF5575F17836ac16A3DDb4Eb9063c30fc38d9060a401606060405180830381865af4158015611857573d6000803e3d6000fd5b505050506040513d601f19601f8201168201806040525081019061187b9190612ba6565b919750955093506119ee565b736CcEc15fef0e3F72DF5575F17836ac16A3DDb4Eb63c30fc38d8a6001600160a01b03166314b806306040518163ffffffff1660e01b8152600401602060405180830381865afa1580156118df573d6000803e3d6000fd5b505050506040513d601f19601f8201168201806040525081019061190391906127ff565b8b6001600160a01b031663f2eb3e346040518163ffffffff1660e01b8152600401602060405180830381865afa158015611941573d6000803e3d6000fd5b505050506040513d601f19601f8201168201806040525081019061196591906127ff565b6040516001600160e01b031960e085901b16815260048101929092526024820152670de0b6b3a76400006044820152606481018b9052608481018a905260a401606060405180830381865af41580156119c2573d6000803e3d6000fd5b505050506040513d601f19601f820116820180604052508101906119e69190612ba6565b919750955093505b50505093509350939050565b60008060008360020b12611a11578260020b611a1e565b8260020b611a1e90612bd4565b9050611a2d620d89e719612bf0565b60020b811115611a635760405162461bcd60e51b81526020600482015260016024820152601560fa1b6044820152606401610293565b600081600116600003611a8757700100000000000000000000000000000000611a99565b6ffffcb933bd6fad37aa2d162d1a5940015b70ffffffffffffffffffffffffffffffffff1690506002821615611ad8576080611ad3826ffff97272373d413259a46990580e213a612c12565b901c90505b6004821615611b02576080611afd826ffff2e50f5f656932ef12357cf3c7fdcc612c12565b901c90505b6008821615611b2c576080611b27826fffe5caca7e10e4e61c3624eaa0941cd0612c12565b901c90505b6010821615611b56576080611b51826fffcb9843d60f6159c9db58835c926644612c12565b901c90505b6020821615611b80576080611b7b826fff973b41fa98c081472e6896dfb254c0612c12565b901c90505b6040821615611baa576080611ba5826fff2ea16466c96a3843ec78b326b52861612c12565b901c90505b6080821615611bd4576080611bcf826ffe5dee046a99a2a811c461f1969c3053612c12565b901c90505b610100821615611bff576080611bfa826ffcbe86c7900a88aedcffc83b479aa3a4612c12565b901c90505b610200821615611c2a576080611c25826ff987a7253ac413176f2b074cf7815e54612c12565b901c90505b610400821615611c55576080611c50826ff3392b0822b70005940c7a398e4b70f3612c12565b901c90505b610800821615611c80576080611c7b826fe7159475a2c29b7443b29c7fa6e889d9612c12565b901c90505b611000821615611cab576080611ca6826fd097f3bdfd2022b8845ad8f792aa5825612c12565b901c90505b612000821615611cd6576080611cd1826fa9f746462d870fdf8a65dc1f90e061e5612c12565b901c90505b614000821615611d01576080611cfc826f70d869a156d2a1b890bb3df62baf32f7612c12565b901c90505b618000821615611d2c576080611d27826f31be135f97d08fd981231505542fcfa6612c12565b901c90505b62010000821615611d58576080611d53826f09aa508b5b7a84e1c677de54f3e99bc9612c12565b901c90505b62020000821615611d83576080611d7e826e5d6af8dedb81196699c329225ee604612c12565b901c90505b62040000821615611dad576080611da8826d2216e584f5fa1ea926041bedfe98612c12565b901c90505b62080000821615611dd5576080611dd0826b048a170391f7dc42444e8fa2612c12565b901c90505b60008460020b1315611df057611ded81600019612c47565b90505b611dff64010000000082612c5b565b15611e0b576001611e0e565b60005b611e1f9060ff16602083901c612c6f565b949350505050565b600080836001600160a01b0316856001600160a01b03161115611e48579293925b846001600160a01b0316866001600160a01b031611611e7357611e6c85858561215e565b91506101d6565b836001600160a01b0316866001600160a01b03161015611eac57611e9886858561215e565b9150611ea58587856121da565b90506101d6565b611eb78585856121da565b905094509492505050565b6000808060001985870985870292508281108382030391505080600003611efb5760008411611ef057600080fd5b508290049050611f6f565b808411611f0757600080fd5b600084868809851960019081018716968790049682860381900495909211909303600082900391909104909201919091029190911760038402600290811880860282030280860282030280860282030280860282030280860282030280860290910302029150505b9392505050565b60006001600160801b03821115611ff55760405162461bcd60e51b815260206004820152602760248201527f53616665436173743a2076616c756520646f65736e27742066697420696e203160448201527f32382062697473000000000000000000000000000000000000000000000000006064820152608401610293565b5090565b6000805b82518110156120435782818151811061201857612018612a42565b6020026020010151602001518261202f9190612c6f565b91508061203b81612aba565b915050611ffd565b506127108111156120965760405162461bcd60e51b815260206004820152600c60248201527f746f74616c2077656967687400000000000000000000000000000000000000006044820152606401610293565b5050565b6000836001600160a01b0316856001600160a01b031611156120ba579293925b846001600160a01b0316866001600160a01b0316116120e5576120de858585612224565b9050612155565b836001600160a01b0316866001600160a01b0316101561214757600061210c878686612224565b9050600061211b87898661228e565b9050806001600160801b0316826001600160801b03161061213c578061213e565b815b92505050612155565b61215285858461228e565b90505b95945050505050565b6000826001600160a01b0316846001600160a01b0316111561217e579192915b6001600160a01b0384166121d07bffffffffffffffffffffffffffffffff000000000000000000000000606085901b166121b88787612c87565b6001600160a01b0316866001600160a01b0316611ec2565b611e1f9190612c47565b6000826001600160a01b0316846001600160a01b031611156121fa579192915b611e1f6001600160801b0383166122118686612c87565b6001600160a01b0316600160601b611ec2565b6000826001600160a01b0316846001600160a01b03161115612244579192915b6000612267856001600160a01b0316856001600160a01b0316600160601b611ec2565b9050612155612289848361227b8989612c87565b6001600160a01b0316611ec2565b6122c4565b6000826001600160a01b0316846001600160a01b031611156122ae579192915b611e1f61228983600160601b61227b8888612c87565b806001600160801b03811681146122da57600080fd5b919050565b6040518060a0016040528060608152602001606081526020016123356040518060a001604052806060815260200160006001600160a01b0316815260200160008152602001600081526020016000151581525090565b815260200160008152602001600081525090565b8060020b811461235857600080fd5b50565b6001600160801b038116811461235857600080fd5b6000806000806080858703121561238657600080fd5b843561239181612349565b935060208501356123a181612349565b925060408501356123b181612349565b915060608501356123c18161235b565b939692955090935050565b6001600160a01b038116811461235857600080fd5b80356122da816123cc565b600080604083850312156123ff57600080fd5b823591506020830135612411816123cc565b809150509250929050565b6001600160801b038151168252602081015161245d6020840182805160020b8252602081015160020b602083015262ffffff60408201511660408301525050565b505050565b6020808252825182820181905260009190848201906040850190845b818110156124a45761249183855161241c565b928401926080929092019160010161247e565b50909695505050505050565b634e487b7160e01b600052604160045260246000fd5b6040805190810167ffffffffffffffff811182821017156124e9576124e96124b0565b60405290565b6040516060810167ffffffffffffffff811182821017156124e9576124e96124b0565b604051601f8201601f1916810167ffffffffffffffff8111828210171561253b5761253b6124b0565b604052919050565b600067ffffffffffffffff82111561255d5761255d6124b0565b5060051b60200190565b62ffffff8116811461235857600080fd5b600080604080848603121561258c57600080fd5b833567ffffffffffffffff8111156125a357600080fd5b8401601f810186136125b457600080fd5b803560206125c96125c483612543565b612512565b82815260079290921b830181019181810190898411156125e857600080fd5b938201935b8385101561267457848a0360808112156126075760008081fd5b61260f6124c6565b60608083121561261f5760008081fd5b6126276124ef565b9250873561263481612349565b83528786013561264381612349565b838701528789013561265481612567565b838a015291815290860135848201528252608090940193908201906125ed565b965061268390508782016123e1565b9450505050509250929050565b600081518084526020808501945080840160005b838110156126ca576126b787835161241c565b60809690960195908201906001016126a4565b509495945050505050565b6000602080835260c0845160a0838601526126f282860182612690565b905082860151601f198087840301604088015261270f8383612690565b92506040880151915080878403016060880152815160a0845280518060a086015260005b8181101561274e578281018801518682018801528701612733565b8181111561275f5760008783880101525b50838701516001600160a01b03811686890152915060408401516040860152606084015160608601526080840151965061279d608086018815159052565b60608a015160808a015260808a015160a08a01528583601f83011686010197505050505050505092915050565b6000806000606084860312156127df57600080fd5b83356127ea816123cc565b95602085013595506040909401359392505050565b60006020828403121561281157600080fd5b5051919050565b6000602080838503121561282b57600080fd5b825167ffffffffffffffff81111561284257600080fd5b8301601f8101851361285357600080fd5b80516128616125c482612543565b8181526060918202830184019184820191908884111561288057600080fd5b938501935b838510156128e55780858a03121561289d5760008081fd5b6128a56124ef565b85516128b081612349565b8152858701516128bf81612349565b818801526040868101516128d281612567565b9082015283529384019391850191612885565b50979650505050505050565b60006020828403121561290357600080fd5b8151611f6f816123cc565b6020808252825160a083830152805160c0840181905260009291820190839060e08601905b8083101561297e57612968828551805160020b8252602081015160020b602083015262ffffff60408201511660408301525050565b6060820191508484019350600183019250612933565b50928601516001600160a01b03811660408701529260408701516001600160a01b0381166060880152935060608701516001600160a01b0381166080880152935060808701516001600160a01b03811660a088015293509695505050505050565b600080600080608085870312156129f557600080fd5b505082516020840151604085015160609095015191969095509092509050565b634e487b7160e01b600052601160045260246000fd5b600082821015612a3d57612a3d612a15565b500390565b634e487b7160e01b600052603260045260246000fd5b600080600080600060a08688031215612a7057600080fd5b8551612a7b8161235b565b8095505060208601519350604086015192506060860151612a9b8161235b565b6080870151909250612aac8161235b565b809150509295509295909350565b600060018201612acc57612acc612a15565b5060010190565b60008060408385031215612ae657600080fd5b505080516020909101519092909150565b805161ffff811681146122da57600080fd5b600080600080600080600060e0888a031215612b2457600080fd5b8751612b2f816123cc565b6020890151909750612b4081612349565b9550612b4e60408901612af7565b9450612b5c60608901612af7565b9350612b6a60808901612af7565b925060a088015160ff81168114612b8057600080fd5b60c08901519092508015158114612b9657600080fd5b8091505092959891949750929550565b600080600060608486031215612bbb57600080fd5b8351925060208401519150604084015190509250925092565b6000600160ff1b8201612be957612be9612a15565b5060000390565b60008160020b627fffff198103612c0957612c09612a15565b60000392915050565b6000816000190483118215151615612c2c57612c2c612a15565b500290565b634e487b7160e01b600052601260045260246000fd5b600082612c5657612c56612c31565b500490565b600082612c6a57612c6a612c31565b500690565b60008219821115612c8257612c82612a15565b500190565b60006001600160a01b0383811690831681811015612ca757612ca7612a15565b03939250505056fea2646970667358221220e9164ea39ce8071912a94c74d1c8ff5268e375d922a9e284249e2e1566f73b4d64736f6c634300080d0033",
  "deployedBytecode": "0x608060405234801561001057600080fd5b506004361061007d5760003560e01c8063c31c9c071161005b578063c31c9c071461010e578063c45a015514610135578063c49f25af1461015c578063fa111ce71461017c57600080fd5b806363b0e66a14610082578063a339df12146100c6578063c30fcfdc146100ee575b600080fd5b6100a97f000000000000000000000000000000000000000000000000000000000000000081565b6040516001600160a01b0390911681526020015b60405180910390f35b6100d96100d4366004612370565b6101aa565b604080519283526020830191909152016100bd565b6101016100fc3660046123ec565b6101df565b6040516100bd9190612462565b6100a97f000000000000000000000000000000000000000000000000000000000000000081565b6100a97f000000000000000000000000000000000000000000000000000000000000000081565b61016f61016a366004612578565b610d3a565b6040516100bd91906126d5565b61018f61018a3660046127ca565b6116bf565b604080519384526020840192909252908201526060016100bd565b6000806101d16101b9876119fa565b6101c2876119fa565b6101cb876119fa565b86611e27565b915091505b94509492505050565b60606000826001600160a01b03166318160ddd6040518163ffffffff1660e01b8152600401602060405180830381865afa158015610221573d6000803e3d6000fd5b505050506040513d601f19601f8201168201806040525081019061024591906127ff565b90506000811161029c5760405162461bcd60e51b815260206004820152600c60248201527f746f74616c20737570706c79000000000000000000000000000000000000000060448201526064015b60405180910390fd5b6040517f284ae96f0000000000000000000000000000000000000000000000000000000081526001600160a01b0384811660048301526000917f00000000000000000000000000000000000000000000000000000000000000009091169063284ae96f90602401600060405180830381865afa158015610320573d6000803e3d6000fd5b505050506040513d6000823e601f3d908101601f191682016040526103489190810190612818565b90506103836040518060c001604052806000815260200160008152602001600081526020016000815260200160008152602001600081525090565b73__$3d23d8578387a47facd93bb77f6fe6e81b$__63e56f4d916040518060a001604052808581526020017f00000000000000000000000000000000000000000000000000000000000000006001600160a01b03168152602001886001600160a01b0316630dfe16816040518163ffffffff1660e01b8152600401602060405180830381865afa15801561041b573d6000803e3d6000fd5b505050506040513d601f19601f8201168201806040525081019061043f91906128f1565b6001600160a01b03168152602001886001600160a01b031663d21220a76040518163ffffffff1660e01b8152600401602060405180830381865afa15801561048b573d6000803e3d6000fd5b505050506040513d601f19601f820116820180604052508101906104af91906128f1565b6001600160a01b03168152602001886001600160a01b03168152506040518263ffffffff1660e01b81526004016104e6919061290e565b608060405180830381865af4158015610503573d6000803e3d6000fd5b505050506040513d601f19601f8201168201806040525081019061052791906129df565b606085015260408085019190915260208085019290925291835281517fd8953ca700000000000000000000000000000000000000000000000000000000815291516001600160a01b0388169263d8953ca79260048083019391928290030181865afa15801561059a573d6000803e3d6000fd5b505050506040513d601f19601f820116820180604052508101906105be91906127ff565b856001600160a01b031663065756db6040518163ffffffff1660e01b8152600401602060405180830381865afa1580156105fc573d6000803e3d6000fd5b505050506040513d601f19601f8201168201806040525081019061062091906127ff565b866001600160a01b0316630dfe16816040518163ffffffff1660e01b8152600401602060405180830381865afa15801561065e573d6000803e3d6000fd5b505050506040513d601f19601f8201168201806040525081019061068291906128f1565b6040516370a0823160e01b81526001600160a01b03898116600483015291909116906370a0823190602401602060405180830381865afa1580156106ca573d6000803e3d6000fd5b505050506040513d601f19601f820116820180604052508101906106ee91906127ff565b6106f89190612a2b565b6107029190612a2b565b816080018181525050846001600160a01b031663bbfe704e6040518163ffffffff1660e01b8152600401602060405180830381865afa158015610749573d6000803e3d6000fd5b505050506040513d601f19601f8201168201806040525081019061076d91906127ff565b856001600160a01b03166342fb9d446040518163ffffffff1660e01b8152600401602060405180830381865afa1580156107ab573d6000803e3d6000fd5b505050506040513d601f19601f820116820180604052508101906107cf91906127ff565b866001600160a01b031663d21220a76040518163ffffffff1660e01b8152600401602060405180830381865afa15801561080d573d6000803e3d6000fd5b505050506040513d601f19601f8201168201806040525081019061083191906128f1565b6040516370a0823160e01b81526001600160a01b03898116600483015291909116906370a0823190602401602060405180830381865afa158015610879573d6000803e3d6000fd5b505050506040513d601f19601f8201168201806040525081019061089d91906127ff565b6108a79190612a2b565b6108b19190612a2b565b60a082015280516000906108c6908886611ec2565b905060006108d983602001518987611ec2565b9050826080015182111580156108f357508260a001518111155b15610902575050505050610d34565b505050805167ffffffffffffffff81111561091f5761091f6124b0565b60405190808252806020026020018201604052801561098357816020015b61097060408051808201825260008082528251606081018452818152602081810183905293810191909152909182015290565b81526020019060019003908161093d5790505b50925060005b8151811015610d30576000856001600160a01b031663c45a01556040518163ffffffff1660e01b8152600401602060405180830381865afa1580156109d2573d6000803e3d6000fd5b505050506040513d601f19601f820116820180604052508101906109f691906128f1565b6001600160a01b0316631698ee82876001600160a01b0316630dfe16816040518163ffffffff1660e01b8152600401602060405180830381865afa158015610a42573d6000803e3d6000fd5b505050506040513d601f19601f82011682018060405250810190610a6691906128f1565b886001600160a01b031663d21220a76040518163ffffffff1660e01b8152600401602060405180830381865afa158015610aa4573d6000803e3d6000fd5b505050506040513d601f19601f82011682018060405250810190610ac891906128f1565b868681518110610ada57610ada612a42565b602090810291909101015160409081015190516001600160e01b031960e086901b1681526001600160a01b03938416600482015292909116602483015262ffffff166044820152606401602060405180830381865afa158015610b41573d6000803e3d6000fd5b505050506040513d601f19601f82011682018060405250810190610b6591906128f1565b6001600160a01b031663514ea4bf73__$b131e44167300e1b6d47510635310686a7$__631208efca89878781518110610ba057610ba0612a42565b602002602001015160000151888881518110610bbe57610bbe612a42565b60209081029190910181015101516040516001600160e01b031960e086901b1681526001600160a01b039093166004840152600291820b6024840152900b6044820152606401602060405180830381865af4158015610c21573d6000803e3d6000fd5b505050506040513d601f19601f82011682018060405250810190610c4591906127ff565b6040518263ffffffff1660e01b8152600401610c6391815260200190565b60a060405180830381865afa158015610c80573d6000803e3d6000fd5b505050506040513d601f19601f82011682018060405250810190610ca49190612a58565b505060408051808201909152929350829150610cd49050610ccf6001600160801b0385168b89611ec2565b611f76565b6001600160801b03168152602001848481518110610cf457610cf4612a42565b6020026020010151815250858381518110610d1157610d11612a42565b6020026020010181905250508080610d2890612aba565b915050610989565b5050505b92915050565b610d426122df565b60008060008060007f00000000000000000000000000000000000000000000000000000000000000006001600160a01b031663284ae96f886040518263ffffffff1660e01b8152600401610da591906001600160a01b0391909116815260200190565b600060405180830381865afa158015610dc2573d6000803e3d6000fd5b505050506040513d6000823e601f3d908101601f19168201604052610dea9190810190612818565b9050866001600160a01b0316630dfe16816040518163ffffffff1660e01b8152600401602060405180830381865afa158015610e2a573d6000803e3d6000fd5b505050506040513d601f19601f82011682018060405250810190610e4e91906128f1565b9250866001600160a01b031663d21220a76040518163ffffffff1660e01b8152600401602060405180830381865afa158015610e8e573d6000803e3d6000fd5b505050506040513d601f19601f82011682018060405250810190610eb291906128f1565b6040517f6ea08e2a0000000000000000000000000000000000000000000000000000000081526001600160a01b0389811660048301529193507f000000000000000000000000000000000000000000000000000000000000000090911690636ea08e2a906024016040805180830381865afa158015610f35573d6000803e3d6000fd5b505050506040513d601f19601f82011682018060405250810190610f599190612ad3565b8251919650945060009067ffffffffffffffff811115610f7b57610f7b6124b0565b604051908082528060200260200182016040528015610fdf57816020015b610fcc60408051808201825260008082528251606081018452818152602081810183905293810191909152909182015290565b815260200190600190039081610f995790505b5090506000805b83518110156112cc5760008a6001600160a01b031663c45a01556040518163ffffffff1660e01b8152600401602060405180830381865afa15801561102f573d6000803e3d6000fd5b505050506040513d601f19601f8201168201806040525081019061105391906128f1565b6001600160a01b0316631698ee82888888868151811061107557611075612a42565b602090810291909101015160409081015190516001600160e01b031960e086901b1681526001600160a01b03938416600482015292909116602483015262ffffff166044820152606401602060405180830381865afa1580156110dc573d6000803e3d6000fd5b505050506040513d601f19601f8201168201806040525081019061110091906128f1565b6001600160a01b031663514ea4bf73__$b131e44167300e1b6d47510635310686a7$__631208efca8e89878151811061113b5761113b612a42565b6020026020010151600001518a888151811061115957611159612a42565b60209081029190910181015101516040516001600160e01b031960e086901b1681526001600160a01b039093166004840152600291820b6024840152900b6044820152606401602060405180830381865af41580156111bc573d6000803e3d6000fd5b505050506040513d601f19601f820116820180604052508101906111e091906127ff565b6040518263ffffffff1660e01b81526004016111fe91815260200190565b60a060405180830381865afa15801561121b573d6000803e3d6000fd5b505050506040513d601f19601f8201168201806040525081019061123f9190612a58565b5092935050506001600160801b038216159050611264578261126081612aba565b9350505b6040518060400160405280826001600160801b0316815260200186848151811061129057611290612a42565b60200260200101518152508483815181106112ad576112ad612a42565b60200260200101819052505080806112c490612aba565b915050610fe6565b508067ffffffffffffffff8111156112e6576112e66124b0565b60405190808252806020026020018201604052801561134a57816020015b61133760408051808201825260008082528251606081018452818152602081810183905293810191909152909182015290565b8152602001906001900390816113045790505b5088526000805b83518110156113e557600084828151811061136e5761136e612a42565b6020026020010151600001516001600160801b031611156113d35783818151811061139b5761139b612a42565b60200260200101518a6000015183815181106113b9576113b9612a42565b602002602001018190525081806113cf90612aba565b9250505b806113dd81612aba565b915050611351565b50505050506113f387611ff9565b865167ffffffffffffffff81111561140d5761140d6124b0565b60405190808252806020026020018201604052801561147157816020015b61145e60408051808201825260008082528251606081018452818152602081810183905293810191909152909182015290565b81526020019060019003908161142b5790505b50602086015260005b87518110156116b457600088828151811061149757611497612a42565b602002602001015190506000886001600160a01b031663c45a01556040518163ffffffff1660e01b8152600401602060405180830381865afa1580156114e1573d6000803e3d6000fd5b505050506040513d601f19601f8201168201806040525081019061150591906128f1565b825160409081015190517f1698ee820000000000000000000000000000000000000000000000000000000081526001600160a01b038881166004830152878116602483015262ffffff9092166044820152911690631698ee8290606401602060405180830381865afa15801561157f573d6000803e3d6000fd5b505050506040513d601f19601f820116820180604052508101906115a391906128f1565b6001600160a01b0316633850c7bd6040518163ffffffff1660e01b815260040160e060405180830381865afa1580156115e0573d6000803e3d6000fd5b505050506040513d601f19601f820116820180604052508101906116049190612b09565b50505050505090506000611659826116238560000151600001516119fa565b855160200151611632906119fa565b6116438c8860200151612710611ec2565b6116548c8960200151612710611ec2565b61209a565b90506040518060400160405280826001600160801b0316815260200184600001518152508960200151858151811061169357611693612a42565b602002602001018190525050505080806116ac90612aba565b91505061147a565b505050505092915050565b60008060008060007f00000000000000000000000000000000000000000000000000000000000000006001600160a01b0316636ea08e2a896040518263ffffffff1660e01b815260040161172291906001600160a01b0391909116815260200190565b6040805180830381865afa15801561173e573d6000803e3d6000fd5b505050506040513d601f19601f820116820180604052508101906117629190612ad3565b915091506000886001600160a01b03166318160ddd6040518163ffffffff1660e01b8152600401602060405180830381865afa1580156117a6573d6000803e3d6000fd5b505050506040513d601f19601f820116820180604052508101906117ca91906127ff565b90508015611887576040517fc30fc38d000000000000000000000000000000000000000000000000000000008152600481018490526024810183905260448101829052606481018990526084810188905273__$30ef26875820c516a3c36c5c0a5fd73943$__9063c30fc38d9060a401606060405180830381865af4158015611857573d6000803e3d6000fd5b505050506040513d601f19601f8201168201806040525081019061187b9190612ba6565b919750955093506119ee565b73__$30ef26875820c516a3c36c5c0a5fd73943$__63c30fc38d8a6001600160a01b03166314b806306040518163ffffffff1660e01b8152600401602060405180830381865afa1580156118df573d6000803e3d6000fd5b505050506040513d601f19601f8201168201806040525081019061190391906127ff565b8b6001600160a01b031663f2eb3e346040518163ffffffff1660e01b8152600401602060405180830381865afa158015611941573d6000803e3d6000fd5b505050506040513d601f19601f8201168201806040525081019061196591906127ff565b6040516001600160e01b031960e085901b16815260048101929092526024820152670de0b6b3a76400006044820152606481018b9052608481018a905260a401606060405180830381865af41580156119c2573d6000803e3d6000fd5b505050506040513d601f19601f820116820180604052508101906119e69190612ba6565b919750955093505b50505093509350939050565b60008060008360020b12611a11578260020b611a1e565b8260020b611a1e90612bd4565b9050611a2d620d89e719612bf0565b60020b811115611a635760405162461bcd60e51b81526020600482015260016024820152601560fa1b6044820152606401610293565b600081600116600003611a8757700100000000000000000000000000000000611a99565b6ffffcb933bd6fad37aa2d162d1a5940015b70ffffffffffffffffffffffffffffffffff1690506002821615611ad8576080611ad3826ffff97272373d413259a46990580e213a612c12565b901c90505b6004821615611b02576080611afd826ffff2e50f5f656932ef12357cf3c7fdcc612c12565b901c90505b6008821615611b2c576080611b27826fffe5caca7e10e4e61c3624eaa0941cd0612c12565b901c90505b6010821615611b56576080611b51826fffcb9843d60f6159c9db58835c926644612c12565b901c90505b6020821615611b80576080611b7b826fff973b41fa98c081472e6896dfb254c0612c12565b901c90505b6040821615611baa576080611ba5826fff2ea16466c96a3843ec78b326b52861612c12565b901c90505b6080821615611bd4576080611bcf826ffe5dee046a99a2a811c461f1969c3053612c12565b901c90505b610100821615611bff576080611bfa826ffcbe86c7900a88aedcffc83b479aa3a4612c12565b901c90505b610200821615611c2a576080611c25826ff987a7253ac413176f2b074cf7815e54612c12565b901c90505b610400821615611c55576080611c50826ff3392b0822b70005940c7a398e4b70f3612c12565b901c90505b610800821615611c80576080611c7b826fe7159475a2c29b7443b29c7fa6e889d9612c12565b901c90505b611000821615611cab576080611ca6826fd097f3bdfd2022b8845ad8f792aa5825612c12565b901c90505b612000821615611cd6576080611cd1826fa9f746462d870fdf8a65dc1f90e061e5612c12565b901c90505b614000821615611d01576080611cfc826f70d869a156d2a1b890bb3df62baf32f7612c12565b901c90505b618000821615611d2c576080611d27826f31be135f97d08fd981231505542fcfa6612c12565b901c90505b62010000821615611d58576080611d53826f09aa508b5b7a84e1c677de54f3e99bc9612c12565b901c90505b62020000821615611d83576080611d7e826e5d6af8dedb81196699c329225ee604612c12565b901c90505b62040000821615611dad576080611da8826d2216e584f5fa1ea926041bedfe98612c12565b901c90505b62080000821615611dd5576080611dd0826b048a170391f7dc42444e8fa2612c12565b901c90505b60008460020b1315611df057611ded81600019612c47565b90505b611dff64010000000082612c5b565b15611e0b576001611e0e565b60005b611e1f9060ff16602083901c612c6f565b949350505050565b600080836001600160a01b0316856001600160a01b03161115611e48579293925b846001600160a01b0316866001600160a01b031611611e7357611e6c85858561215e565b91506101d6565b836001600160a01b0316866001600160a01b03161015611eac57611e9886858561215e565b9150611ea58587856121da565b90506101d6565b611eb78585856121da565b905094509492505050565b6000808060001985870985870292508281108382030391505080600003611efb5760008411611ef057600080fd5b508290049050611f6f565b808411611f0757600080fd5b600084868809851960019081018716968790049682860381900495909211909303600082900391909104909201919091029190911760038402600290811880860282030280860282030280860282030280860282030280860282030280860290910302029150505b9392505050565b60006001600160801b03821115611ff55760405162461bcd60e51b815260206004820152602760248201527f53616665436173743a2076616c756520646f65736e27742066697420696e203160448201527f32382062697473000000000000000000000000000000000000000000000000006064820152608401610293565b5090565b6000805b82518110156120435782818151811061201857612018612a42565b6020026020010151602001518261202f9190612c6f565b91508061203b81612aba565b915050611ffd565b506127108111156120965760405162461bcd60e51b815260206004820152600c60248201527f746f74616c2077656967687400000000000000000000000000000000000000006044820152606401610293565b5050565b6000836001600160a01b0316856001600160a01b031611156120ba579293925b846001600160a01b0316866001600160a01b0316116120e5576120de858585612224565b9050612155565b836001600160a01b0316866001600160a01b0316101561214757600061210c878686612224565b9050600061211b87898661228e565b9050806001600160801b0316826001600160801b03161061213c578061213e565b815b92505050612155565b61215285858461228e565b90505b95945050505050565b6000826001600160a01b0316846001600160a01b0316111561217e579192915b6001600160a01b0384166121d07bffffffffffffffffffffffffffffffff000000000000000000000000606085901b166121b88787612c87565b6001600160a01b0316866001600160a01b0316611ec2565b611e1f9190612c47565b6000826001600160a01b0316846001600160a01b031611156121fa579192915b611e1f6001600160801b0383166122118686612c87565b6001600160a01b0316600160601b611ec2565b6000826001600160a01b0316846001600160a01b03161115612244579192915b6000612267856001600160a01b0316856001600160a01b0316600160601b611ec2565b9050612155612289848361227b8989612c87565b6001600160a01b0316611ec2565b6122c4565b6000826001600160a01b0316846001600160a01b031611156122ae579192915b611e1f61228983600160601b61227b8888612c87565b806001600160801b03811681146122da57600080fd5b919050565b6040518060a0016040528060608152602001606081526020016123356040518060a001604052806060815260200160006001600160a01b0316815260200160008152602001600081526020016000151581525090565b815260200160008152602001600081525090565b8060020b811461235857600080fd5b50565b6001600160801b038116811461235857600080fd5b6000806000806080858703121561238657600080fd5b843561239181612349565b935060208501356123a181612349565b925060408501356123b181612349565b915060608501356123c18161235b565b939692955090935050565b6001600160a01b038116811461235857600080fd5b80356122da816123cc565b600080604083850312156123ff57600080fd5b823591506020830135612411816123cc565b809150509250929050565b6001600160801b038151168252602081015161245d6020840182805160020b8252602081015160020b602083015262ffffff60408201511660408301525050565b505050565b6020808252825182820181905260009190848201906040850190845b818110156124a45761249183855161241c565b928401926080929092019160010161247e565b50909695505050505050565b634e487b7160e01b600052604160045260246000fd5b6040805190810167ffffffffffffffff811182821017156124e9576124e96124b0565b60405290565b6040516060810167ffffffffffffffff811182821017156124e9576124e96124b0565b604051601f8201601f1916810167ffffffffffffffff8111828210171561253b5761253b6124b0565b604052919050565b600067ffffffffffffffff82111561255d5761255d6124b0565b5060051b60200190565b62ffffff8116811461235857600080fd5b600080604080848603121561258c57600080fd5b833567ffffffffffffffff8111156125a357600080fd5b8401601f810186136125b457600080fd5b803560206125c96125c483612543565b612512565b82815260079290921b830181019181810190898411156125e857600080fd5b938201935b8385101561267457848a0360808112156126075760008081fd5b61260f6124c6565b60608083121561261f5760008081fd5b6126276124ef565b9250873561263481612349565b83528786013561264381612349565b838701528789013561265481612567565b838a015291815290860135848201528252608090940193908201906125ed565b965061268390508782016123e1565b9450505050509250929050565b600081518084526020808501945080840160005b838110156126ca576126b787835161241c565b60809690960195908201906001016126a4565b509495945050505050565b6000602080835260c0845160a0838601526126f282860182612690565b905082860151601f198087840301604088015261270f8383612690565b92506040880151915080878403016060880152815160a0845280518060a086015260005b8181101561274e578281018801518682018801528701612733565b8181111561275f5760008783880101525b50838701516001600160a01b03811686890152915060408401516040860152606084015160608601526080840151965061279d608086018815159052565b60608a015160808a015260808a015160a08a01528583601f83011686010197505050505050505092915050565b6000806000606084860312156127df57600080fd5b83356127ea816123cc565b95602085013595506040909401359392505050565b60006020828403121561281157600080fd5b5051919050565b6000602080838503121561282b57600080fd5b825167ffffffffffffffff81111561284257600080fd5b8301601f8101851361285357600080fd5b80516128616125c482612543565b8181526060918202830184019184820191908884111561288057600080fd5b938501935b838510156128e55780858a03121561289d5760008081fd5b6128a56124ef565b85516128b081612349565b8152858701516128bf81612349565b818801526040868101516128d281612567565b9082015283529384019391850191612885565b50979650505050505050565b60006020828403121561290357600080fd5b8151611f6f816123cc565b6020808252825160a083830152805160c0840181905260009291820190839060e08601905b8083101561297e57612968828551805160020b8252602081015160020b602083015262ffffff60408201511660408301525050565b6060820191508484019350600183019250612933565b50928601516001600160a01b03811660408701529260408701516001600160a01b0381166060880152935060608701516001600160a01b0381166080880152935060808701516001600160a01b03811660a088015293509695505050505050565b600080600080608085870312156129f557600080fd5b505082516020840151604085015160609095015191969095509092509050565b634e487b7160e01b600052601160045260246000fd5b600082821015612a3d57612a3d612a15565b500390565b634e487b7160e01b600052603260045260246000fd5b600080600080600060a08688031215612a7057600080fd5b8551612a7b8161235b565b8095505060208601519350604086015192506060860151612a9b8161235b565b6080870151909250612aac8161235b565b809150509295509295909350565b600060018201612acc57612acc612a15565b5060010190565b60008060408385031215612ae657600080fd5b505080516020909101519092909150565b805161ffff811681146122da57600080fd5b600080600080600080600060e0888a031215612b2457600080fd5b8751612b2f816123cc565b6020890151909750612b4081612349565b9550612b4e60408901612af7565b9450612b5c60608901612af7565b9350612b6a60808901612af7565b925060a088015160ff81168114612b8057600080fd5b60c08901519092508015158114612b9657600080fd5b8091505092959891949750929550565b600080600060608486031215612bbb57600080fd5b8351925060208401519150604084015190509250925092565b6000600160ff1b8201612be957612be9612a15565b5060000390565b60008160020b627fffff198103612c0957612c09612a15565b60000392915050565b6000816000190483118215151615612c2c57612c2c612a15565b500290565b634e487b7160e01b600052601260045260246000fd5b600082612c5657612c56612c31565b500490565b600082612c6a57612c6a612c31565b500690565b60008219821115612c8257612c82612a15565b500190565b60006001600160a01b0383811690831681811015612ca757612ca7612a15565b03939250505056fea2646970667358221220e9164ea39ce8071912a94c74d1c8ff5268e375d922a9e284249e2e1566f73b4d64736f6c634300080d0033",
  "libraries": {
    "Position": "0xC64433E71f1f76Be5567B657026656Cce5999C34",
    "Underlying": "0x4F3f69aB92D414b73a136b31d54bA207a0563021",
    "UniswapV3Amounts": "0x6CcEc15fef0e3F72DF5575F17836ac16A3DDb4Eb",
    "Manager": "0x887D1EeC3C026ED31Fc35f6CB3f32D940BdB8b24"
  },
  "devdoc": {
    "kind": "dev",
    "methods": {},
    "version": 1
  },
  "userdoc": {
    "kind": "user",
    "methods": {},
    "version": 1
  },
  "storageLayout": {
    "storage": [],
    "types": null
  }
}