{
  "address": "0xb5C3B286dD591282Fe87Dfab0613488e1b6B09Ba",
  "abi": [
    {
      "inputs": [
        {
          "internalType": "contract IUniswapV3Factory",
          "name": "factory_",
          "type": "address"
        }
      ],
      "stateMutability": "nonpayable",
      "type": "constructor"
    },
    {
      "anonymous": false,
      "inputs": [
        {
          "indexed": true,
          "internalType": "address",
          "name": "owner",
          "type": "address"
        },
        {
          "indexed": true,
          "internalType": "address",
          "name": "spender",
          "type": "address"
        },
        {
          "indexed": false,
          "internalType": "uint256",
          "name": "value",
          "type": "uint256"
        }
      ],
      "name": "Approval",
      "type": "event"
    },
    {
      "anonymous": false,
      "inputs": [
        {
          "indexed": false,
          "internalType": "uint8",
          "name": "version",
          "type": "uint8"
        }
      ],
      "name": "Initialized",
      "type": "event"
    },
    {
      "anonymous": false,
      "inputs": [
        {
          "indexed": true,
          "internalType": "address",
          "name": "user",
          "type": "address"
        },
        {
          "indexed": false,
          "internalType": "uint256",
          "name": "burnAmount0",
          "type": "uint256"
        },
        {
          "indexed": false,
          "internalType": "uint256",
          "name": "burnAmount1",
          "type": "uint256"
        }
      ],
      "name": "LPBurned",
      "type": "event"
    },
    {
      "anonymous": false,
      "inputs": [
        {
          "indexed": false,
          "internalType": "uint24[]",
          "name": "feeTiers",
          "type": "uint24[]"
        }
      ],
      "name": "LogAddPools",
      "type": "event"
    },
    {
      "anonymous": false,
      "inputs": [
        {
          "indexed": false,
          "internalType": "address[]",
          "name": "routers",
          "type": "address[]"
        }
      ],
      "name": "LogBlacklistRouters",
      "type": "event"
    },
    {
      "anonymous": false,
      "inputs": [
        {
          "indexed": true,
          "internalType": "address",
          "name": "receiver",
          "type": "address"
        },
        {
          "indexed": false,
          "internalType": "uint256",
          "name": "burnAmount",
          "type": "uint256"
        },
        {
          "indexed": false,
          "internalType": "uint256",
          "name": "amount0Out",
          "type": "uint256"
        },
        {
          "indexed": false,
          "internalType": "uint256",
          "name": "amount1Out",
          "type": "uint256"
        }
      ],
      "name": "LogBurn",
      "type": "event"
    },
    {
      "anonymous": false,
      "inputs": [
        {
          "indexed": false,
          "internalType": "uint256",
          "name": "fee0",
          "type": "uint256"
        },
        {
          "indexed": false,
          "internalType": "uint256",
          "name": "fee1",
          "type": "uint256"
        }
      ],
      "name": "LogCollectedFees",
      "type": "event"
    },
    {
      "anonymous": false,
      "inputs": [
        {
          "indexed": true,
          "internalType": "address",
          "name": "receiver",
          "type": "address"
        },
        {
          "indexed": false,
          "internalType": "uint256",
          "name": "mintAmount",
          "type": "uint256"
        },
        {
          "indexed": false,
          "internalType": "uint256",
          "name": "amount0In",
          "type": "uint256"
        },
        {
          "indexed": false,
          "internalType": "uint256",
          "name": "amount1In",
          "type": "uint256"
        }
      ],
      "name": "LogMint",
      "type": "event"
    },
    {
      "anonymous": false,
      "inputs": [
        {
          "components": [
            {
              "components": [
                {
                  "internalType": "uint128",
                  "name": "liquidity",
                  "type": "uint128"
                },
                {
                  "components": [
                    {
                      "internalType": "int24",
                      "name": "lowerTick",
                      "type": "int24"
                    },
                    {
                      "internalType": "int24",
                      "name": "upperTick",
                      "type": "int24"
                    },
                    {
                      "internalType": "uint24",
                      "name": "feeTier",
                      "type": "uint24"
                    }
                  ],
                  "internalType": "struct Range",
                  "name": "range",
                  "type": "tuple"
                }
              ],
              "internalType": "struct PositionLiquidity[]",
              "name": "removes",
              "type": "tuple[]"
            },
            {
              "components": [
                {
                  "internalType": "uint128",
                  "name": "liquidity",
                  "type": "uint128"
                },
                {
                  "components": [
                    {
                      "internalType": "int24",
                      "name": "lowerTick",
                      "type": "int24"
                    },
                    {
                      "internalType": "int24",
                      "name": "upperTick",
                      "type": "int24"
                    },
                    {
                      "internalType": "uint24",
                      "name": "feeTier",
                      "type": "uint24"
                    }
                  ],
                  "internalType": "struct Range",
                  "name": "range",
                  "type": "tuple"
                }
              ],
              "internalType": "struct PositionLiquidity[]",
              "name": "deposits",
              "type": "tuple[]"
            },
            {
              "components": [
                {
                  "internalType": "bytes",
                  "name": "payload",
                  "type": "bytes"
                },
                {
                  "internalType": "address",
                  "name": "router",
                  "type": "address"
                },
                {
                  "internalType": "uint256",
                  "name": "amountIn",
                  "type": "uint256"
                },
                {
                  "internalType": "uint256",
                  "name": "expectedMinReturn",
                  "type": "uint256"
                },
                {
                  "internalType": "bool",
                  "name": "zeroForOne",
                  "type": "bool"
                }
              ],
              "internalType": "struct SwapPayload",
              "name": "swap",
              "type": "tuple"
            },
            {
              "internalType": "uint256",
              "name": "minBurn0",
              "type": "uint256"
            },
            {
              "internalType": "uint256",
              "name": "minBurn1",
              "type": "uint256"
            },
            {
              "internalType": "uint256",
              "name": "minDeposit0",
              "type": "uint256"
            },
            {
              "internalType": "uint256",
              "name": "minDeposit1",
              "type": "uint256"
            }
          ],
          "indexed": false,
          "internalType": "struct Rebalance",
          "name": "rebalanceParams",
          "type": "tuple"
        }
      ],
      "name": "LogRebalance",
      "type": "event"
    },
    {
      "anonymous": false,
      "inputs": [
        {
          "indexed": false,
          "internalType": "address[]",
          "name": "pools",
          "type": "address[]"
        }
      ],
      "name": "LogRemovePools",
      "type": "event"
    },
    {
      "anonymous": false,
      "inputs": [
        {
          "indexed": false,
          "internalType": "address",
          "name": "minter",
          "type": "address"
        }
      ],
      "name": "LogRestrictedMint",
      "type": "event"
    },
    {
      "anonymous": false,
      "inputs": [
        {
          "indexed": false,
          "internalType": "uint16",
          "name": "newBurnBuffer",
          "type": "uint16"
        }
      ],
      "name": "LogSetBurnBuffer",
      "type": "event"
    },
    {
      "anonymous": false,
      "inputs": [
        {
          "indexed": false,
          "internalType": "uint256",
          "name": "init0",
          "type": "uint256"
        },
        {
          "indexed": false,
          "internalType": "uint256",
          "name": "init1",
          "type": "uint256"
        }
      ],
      "name": "LogSetInits",
      "type": "event"
    },
    {
      "anonymous": false,
      "inputs": [
        {
          "indexed": false,
          "internalType": "address",
          "name": "newManager",
          "type": "address"
        }
      ],
      "name": "LogSetManager",
      "type": "event"
    },
    {
      "anonymous": false,
      "inputs": [
        {
          "indexed": false,
          "internalType": "uint16",
          "name": "managerFeeBPS",
          "type": "uint16"
        }
      ],
      "name": "LogSetManagerFeeBPS",
      "type": "event"
    },
    {
      "anonymous": false,
      "inputs": [
        {
          "indexed": false,
          "internalType": "uint256",
          "name": "fee0",
          "type": "uint256"
        },
        {
          "indexed": false,
          "internalType": "uint256",
          "name": "fee1",
          "type": "uint256"
        }
      ],
      "name": "LogUncollectedFees",
      "type": "event"
    },
    {
      "anonymous": false,
      "inputs": [
        {
          "indexed": false,
          "internalType": "address[]",
          "name": "routers",
          "type": "address[]"
        }
      ],
      "name": "LogWhitelistRouters",
      "type": "event"
    },
    {
      "anonymous": false,
      "inputs": [
        {
          "indexed": false,
          "internalType": "uint256",
          "name": "amount0",
          "type": "uint256"
        },
        {
          "indexed": false,
          "internalType": "uint256",
          "name": "amount1",
          "type": "uint256"
        }
      ],
      "name": "LogWithdrawManagerBalance",
      "type": "event"
    },
    {
      "anonymous": false,
      "inputs": [
        {
          "indexed": true,
          "internalType": "address",
          "name": "previousOwner",
          "type": "address"
        },
        {
          "indexed": true,
          "internalType": "address",
          "name": "newOwner",
          "type": "address"
        }
      ],
      "name": "OwnershipTransferred",
      "type": "event"
    },
    {
      "anonymous": false,
      "inputs": [
        {
          "indexed": true,
          "internalType": "address",
          "name": "from",
          "type": "address"
        },
        {
          "indexed": true,
          "internalType": "address",
          "name": "to",
          "type": "address"
        },
        {
          "indexed": false,
          "internalType": "uint256",
          "name": "value",
          "type": "uint256"
        }
      ],
      "name": "Transfer",
      "type": "event"
    },
    {
      "inputs": [
        {
          "internalType": "uint24[]",
          "name": "feeTiers_",
          "type": "uint24[]"
        }
      ],
      "name": "addPools",
      "outputs": [],
      "stateMutability": "nonpayable",
      "type": "function"
    },
    {
      "inputs": [
        {
          "internalType": "address",
          "name": "owner",
          "type": "address"
        },
        {
          "internalType": "address",
          "name": "spender",
          "type": "address"
        }
      ],
      "name": "allowance",
      "outputs": [
        {
          "internalType": "uint256",
          "name": "",
          "type": "uint256"
        }
      ],
      "stateMutability": "view",
      "type": "function"
    },
    {
      "inputs": [
        {
          "internalType": "address",
          "name": "spender",
          "type": "address"
        },
        {
          "internalType": "uint256",
          "name": "amount",
          "type": "uint256"
        }
      ],
      "name": "approve",
      "outputs": [
        {
          "internalType": "bool",
          "name": "",
          "type": "bool"
        }
      ],
      "stateMutability": "nonpayable",
      "type": "function"
    },
    {
      "inputs": [
        {
          "internalType": "address",
          "name": "account",
          "type": "address"
        }
      ],
      "name": "balanceOf",
      "outputs": [
        {
          "internalType": "uint256",
          "name": "",
          "type": "uint256"
        }
      ],
      "stateMutability": "view",
      "type": "function"
    },
    {
      "inputs": [
        {
          "internalType": "address[]",
          "name": "routers_",
          "type": "address[]"
        }
      ],
      "name": "blacklistRouters",
      "outputs": [],
      "stateMutability": "nonpayable",
      "type": "function"
    },
    {
      "inputs": [
        {
          "components": [
            {
              "internalType": "uint128",
              "name": "liquidity",
              "type": "uint128"
            },
            {
              "components": [
                {
                  "internalType": "int24",
                  "name": "lowerTick",
                  "type": "int24"
                },
                {
                  "internalType": "int24",
                  "name": "upperTick",
                  "type": "int24"
                },
                {
                  "internalType": "uint24",
                  "name": "feeTier",
                  "type": "uint24"
                }
              ],
              "internalType": "struct Range",
              "name": "range",
              "type": "tuple"
            }
          ],
          "internalType": "struct BurnLiquidity[]",
          "name": "burns_",
          "type": "tuple[]"
        },
        {
          "internalType": "uint256",
          "name": "burnAmount_",
          "type": "uint256"
        },
        {
          "internalType": "address",
          "name": "receiver_",
          "type": "address"
        }
      ],
      "name": "burn",
      "outputs": [
        {
          "internalType": "uint256",
          "name": "amount0",
          "type": "uint256"
        },
        {
          "internalType": "uint256",
          "name": "amount1",
          "type": "uint256"
        }
      ],
      "stateMutability": "nonpayable",
      "type": "function"
    },
    {
      "inputs": [],
      "name": "decimals",
      "outputs": [
        {
          "internalType": "uint8",
          "name": "",
          "type": "uint8"
        }
      ],
      "stateMutability": "view",
      "type": "function"
    },
    {
      "inputs": [
        {
          "internalType": "address",
          "name": "spender",
          "type": "address"
        },
        {
          "internalType": "uint256",
          "name": "subtractedValue",
          "type": "uint256"
        }
      ],
      "name": "decreaseAllowance",
      "outputs": [
        {
          "internalType": "bool",
          "name": "",
          "type": "bool"
        }
      ],
      "stateMutability": "nonpayable",
      "type": "function"
    },
    {
      "inputs": [],
      "name": "factory",
      "outputs": [
        {
          "internalType": "contract IUniswapV3Factory",
          "name": "",
          "type": "address"
        }
      ],
      "stateMutability": "view",
      "type": "function"
    },
    {
      "inputs": [],
      "name": "getRanges",
      "outputs": [
        {
          "components": [
            {
              "internalType": "int24",
              "name": "lowerTick",
              "type": "int24"
            },
            {
              "internalType": "int24",
              "name": "upperTick",
              "type": "int24"
            },
            {
              "internalType": "uint24",
              "name": "feeTier",
              "type": "uint24"
            }
          ],
          "internalType": "struct Range[]",
          "name": "",
          "type": "tuple[]"
        }
      ],
      "stateMutability": "view",
      "type": "function"
    },
    {
      "inputs": [
        {
          "internalType": "address",
          "name": "spender",
          "type": "address"
        },
        {
          "internalType": "uint256",
          "name": "addedValue",
          "type": "uint256"
        }
      ],
      "name": "increaseAllowance",
      "outputs": [
        {
          "internalType": "bool",
          "name": "",
          "type": "bool"
        }
      ],
      "stateMutability": "nonpayable",
      "type": "function"
    },
    {
      "inputs": [],
      "name": "init0",
      "outputs": [
        {
          "internalType": "uint256",
          "name": "",
          "type": "uint256"
        }
      ],
      "stateMutability": "view",
      "type": "function"
    },
    {
      "inputs": [],
      "name": "init1",
      "outputs": [
        {
          "internalType": "uint256",
          "name": "",
          "type": "uint256"
        }
      ],
      "stateMutability": "view",
      "type": "function"
    },
    {
      "inputs": [
        {
          "internalType": "string",
          "name": "name_",
          "type": "string"
        },
        {
          "internalType": "string",
          "name": "symbol_",
          "type": "string"
        },
        {
          "components": [
            {
              "internalType": "uint24[]",
              "name": "feeTiers",
              "type": "uint24[]"
            },
            {
              "internalType": "address",
              "name": "token0",
              "type": "address"
            },
            {
              "internalType": "address",
              "name": "token1",
              "type": "address"
            },
            {
              "internalType": "address",
              "name": "owner",
              "type": "address"
            },
            {
              "internalType": "uint256",
              "name": "init0",
              "type": "uint256"
            },
            {
              "internalType": "uint256",
              "name": "init1",
              "type": "uint256"
            },
            {
              "internalType": "address",
              "name": "manager",
              "type": "address"
            },
            {
              "internalType": "address[]",
              "name": "routers",
              "type": "address[]"
            },
            {
              "internalType": "uint16",
              "name": "burnBuffer",
              "type": "uint16"
            }
          ],
          "internalType": "struct InitializePayload",
          "name": "params_",
          "type": "tuple"
        }
      ],
      "name": "initialize",
      "outputs": [],
      "stateMutability": "nonpayable",
      "type": "function"
    },
    {
      "inputs": [],
      "name": "manager",
      "outputs": [
        {
          "internalType": "address",
          "name": "",
          "type": "address"
        }
      ],
      "stateMutability": "view",
      "type": "function"
    },
    {
      "inputs": [],
      "name": "managerBalance0",
      "outputs": [
        {
          "internalType": "uint256",
          "name": "",
          "type": "uint256"
        }
      ],
      "stateMutability": "view",
      "type": "function"
    },
    {
      "inputs": [],
      "name": "managerBalance1",
      "outputs": [
        {
          "internalType": "uint256",
          "name": "",
          "type": "uint256"
        }
      ],
      "stateMutability": "view",
      "type": "function"
    },
    {
      "inputs": [],
      "name": "managerFeeBPS",
      "outputs": [
        {
          "internalType": "uint16",
          "name": "",
          "type": "uint16"
        }
      ],
      "stateMutability": "view",
      "type": "function"
    },
    {
      "inputs": [
        {
          "internalType": "uint256",
          "name": "mintAmount_",
          "type": "uint256"
        },
        {
          "internalType": "address",
          "name": "receiver_",
          "type": "address"
        }
      ],
      "name": "mint",
      "outputs": [
        {
          "internalType": "uint256",
          "name": "amount0",
          "type": "uint256"
        },
        {
          "internalType": "uint256",
          "name": "amount1",
          "type": "uint256"
        }
      ],
      "stateMutability": "nonpayable",
      "type": "function"
    },
    {
      "inputs": [],
      "name": "name",
      "outputs": [
        {
          "internalType": "string",
          "name": "",
          "type": "string"
        }
      ],
      "stateMutability": "view",
      "type": "function"
    },
    {
      "inputs": [],
      "name": "owner",
      "outputs": [
        {
          "internalType": "address",
          "name": "",
          "type": "address"
        }
      ],
      "stateMutability": "view",
      "type": "function"
    },
    {
      "inputs": [
        {
          "internalType": "uint256",
          "name": "",
          "type": "uint256"
        }
      ],
      "name": "ranges",
      "outputs": [
        {
          "internalType": "int24",
          "name": "lowerTick",
          "type": "int24"
        },
        {
          "internalType": "int24",
          "name": "upperTick",
          "type": "int24"
        },
        {
          "internalType": "uint24",
          "name": "feeTier",
          "type": "uint24"
        }
      ],
      "stateMutability": "view",
      "type": "function"
    },
    {
      "inputs": [
        {
          "components": [
            {
              "internalType": "int24",
              "name": "lowerTick",
              "type": "int24"
            },
            {
              "internalType": "int24",
              "name": "upperTick",
              "type": "int24"
            },
            {
              "internalType": "uint24",
              "name": "feeTier",
              "type": "uint24"
            }
          ],
          "internalType": "struct Range[]",
          "name": "rangesToAdd_",
          "type": "tuple[]"
        },
        {
          "components": [
            {
              "components": [
                {
                  "internalType": "uint128",
                  "name": "liquidity",
                  "type": "uint128"
                },
                {
                  "components": [
                    {
                      "internalType": "int24",
                      "name": "lowerTick",
                      "type": "int24"
                    },
                    {
                      "internalType": "int24",
                      "name": "upperTick",
                      "type": "int24"
                    },
                    {
                      "internalType": "uint24",
                      "name": "feeTier",
                      "type": "uint24"
                    }
                  ],
                  "internalType": "struct Range",
                  "name": "range",
                  "type": "tuple"
                }
              ],
              "internalType": "struct PositionLiquidity[]",
              "name": "removes",
              "type": "tuple[]"
            },
            {
              "components": [
                {
                  "internalType": "uint128",
                  "name": "liquidity",
                  "type": "uint128"
                },
                {
                  "components": [
                    {
                      "internalType": "int24",
                      "name": "lowerTick",
                      "type": "int24"
                    },
                    {
                      "internalType": "int24",
                      "name": "upperTick",
                      "type": "int24"
                    },
                    {
                      "internalType": "uint24",
                      "name": "feeTier",
                      "type": "uint24"
                    }
                  ],
                  "internalType": "struct Range",
                  "name": "range",
                  "type": "tuple"
                }
              ],
              "internalType": "struct PositionLiquidity[]",
              "name": "deposits",
              "type": "tuple[]"
            },
            {
              "components": [
                {
                  "internalType": "bytes",
                  "name": "payload",
                  "type": "bytes"
                },
                {
                  "internalType": "address",
                  "name": "router",
                  "type": "address"
                },
                {
                  "internalType": "uint256",
                  "name": "amountIn",
                  "type": "uint256"
                },
                {
                  "internalType": "uint256",
                  "name": "expectedMinReturn",
                  "type": "uint256"
                },
                {
                  "internalType": "bool",
                  "name": "zeroForOne",
                  "type": "bool"
                }
              ],
              "internalType": "struct SwapPayload",
              "name": "swap",
              "type": "tuple"
            },
            {
              "internalType": "uint256",
              "name": "minBurn0",
              "type": "uint256"
            },
            {
              "internalType": "uint256",
              "name": "minBurn1",
              "type": "uint256"
            },
            {
              "internalType": "uint256",
              "name": "minDeposit0",
              "type": "uint256"
            },
            {
              "internalType": "uint256",
              "name": "minDeposit1",
              "type": "uint256"
            }
          ],
          "internalType": "struct Rebalance",
          "name": "rebalanceParams_",
          "type": "tuple"
        },
        {
          "components": [
            {
              "internalType": "int24",
              "name": "lowerTick",
              "type": "int24"
            },
            {
              "internalType": "int24",
              "name": "upperTick",
              "type": "int24"
            },
            {
              "internalType": "uint24",
              "name": "feeTier",
              "type": "uint24"
            }
          ],
          "internalType": "struct Range[]",
          "name": "rangesToRemove_",
          "type": "tuple[]"
        }
      ],
      "name": "rebalance",
      "outputs": [],
      "stateMutability": "nonpayable",
      "type": "function"
    },
    {
      "inputs": [
        {
          "internalType": "address[]",
          "name": "pools_",
          "type": "address[]"
        }
      ],
      "name": "removePools",
      "outputs": [],
      "stateMutability": "nonpayable",
      "type": "function"
    },
    {
      "inputs": [],
      "name": "renounceOwnership",
      "outputs": [],
      "stateMutability": "nonpayable",
      "type": "function"
    },
    {
      "inputs": [],
      "name": "restrictedMint",
      "outputs": [
        {
          "internalType": "address",
          "name": "",
          "type": "address"
        }
      ],
      "stateMutability": "view",
      "type": "function"
    },
    {
      "inputs": [
        {
          "internalType": "uint16",
          "name": "newBurnBuffer_",
          "type": "uint16"
        }
      ],
      "name": "setBurnBuffer",
      "outputs": [],
      "stateMutability": "nonpayable",
      "type": "function"
    },
    {
      "inputs": [
        {
          "internalType": "uint256",
          "name": "init0_",
          "type": "uint256"
        },
        {
          "internalType": "uint256",
          "name": "init1_",
          "type": "uint256"
        }
      ],
      "name": "setInits",
      "outputs": [],
      "stateMutability": "nonpayable",
      "type": "function"
    },
    {
      "inputs": [
        {
          "internalType": "address",
          "name": "manager_",
          "type": "address"
        }
      ],
      "name": "setManager",
      "outputs": [],
      "stateMutability": "nonpayable",
      "type": "function"
    },
    {
      "inputs": [
        {
          "internalType": "uint16",
          "name": "managerFeeBPS_",
          "type": "uint16"
        }
      ],
      "name": "setManagerFeeBPS",
      "outputs": [],
      "stateMutability": "nonpayable",
      "type": "function"
    },
    {
      "inputs": [
        {
          "internalType": "address",
          "name": "minter_",
          "type": "address"
        }
      ],
      "name": "setRestrictedMint",
      "outputs": [],
      "stateMutability": "nonpayable",
      "type": "function"
    },
    {
      "inputs": [],
      "name": "symbol",
      "outputs": [
        {
          "internalType": "string",
          "name": "",
          "type": "string"
        }
      ],
      "stateMutability": "view",
      "type": "function"
    },
    {
      "inputs": [],
      "name": "token0",
      "outputs": [
        {
          "internalType": "contract IERC20",
          "name": "",
          "type": "address"
        }
      ],
      "stateMutability": "view",
      "type": "function"
    },
    {
      "inputs": [],
      "name": "token1",
      "outputs": [
        {
          "internalType": "contract IERC20",
          "name": "",
          "type": "address"
        }
      ],
      "stateMutability": "view",
      "type": "function"
    },
    {
      "inputs": [],
      "name": "totalSupply",
      "outputs": [
        {
          "internalType": "uint256",
          "name": "",
          "type": "uint256"
        }
      ],
      "stateMutability": "view",
      "type": "function"
    },
    {
      "inputs": [
        {
          "internalType": "address",
          "name": "to",
          "type": "address"
        },
        {
          "internalType": "uint256",
          "name": "amount",
          "type": "uint256"
        }
      ],
      "name": "transfer",
      "outputs": [
        {
          "internalType": "bool",
          "name": "",
          "type": "bool"
        }
      ],
      "stateMutability": "nonpayable",
      "type": "function"
    },
    {
      "inputs": [
        {
          "internalType": "address",
          "name": "from",
          "type": "address"
        },
        {
          "internalType": "address",
          "name": "to",
          "type": "address"
        },
        {
          "internalType": "uint256",
          "name": "amount",
          "type": "uint256"
        }
      ],
      "name": "transferFrom",
      "outputs": [
        {
          "internalType": "bool",
          "name": "",
          "type": "bool"
        }
      ],
      "stateMutability": "nonpayable",
      "type": "function"
    },
    {
      "inputs": [
        {
          "internalType": "address",
          "name": "newOwner",
          "type": "address"
        }
      ],
      "name": "transferOwnership",
      "outputs": [],
      "stateMutability": "nonpayable",
      "type": "function"
    },
    {
      "inputs": [
        {
          "internalType": "uint256",
          "name": "amount0Owed_",
          "type": "uint256"
        },
        {
          "internalType": "uint256",
          "name": "amount1Owed_",
          "type": "uint256"
        },
        {
          "internalType": "bytes",
          "name": "",
          "type": "bytes"
        }
      ],
      "name": "uniswapV3MintCallback",
      "outputs": [],
      "stateMutability": "nonpayable",
      "type": "function"
    },
    {
      "inputs": [
        {
          "internalType": "address[]",
          "name": "routers_",
          "type": "address[]"
        }
      ],
      "name": "whitelistRouters",
      "outputs": [],
      "stateMutability": "nonpayable",
      "type": "function"
    },
    {
      "inputs": [],
      "name": "withdrawManagerBalance",
      "outputs": [],
      "stateMutability": "nonpayable",
      "type": "function"
    }
  ],
  "transactionHash": "0x35f3421d24990b6cf134a9ab5ae4ec45d1778e49a34c955f192de0c9b9678261",
  "args": [
    "0x1F98431c8aD98523631AE4a59f267346ea31F984"
  ],
  "numDeployments": 1,
  "solcInputHash": "78ac59690951abf05b68bd0340f25f2c",
  "bytecode": "0x60a06040523480156200001157600080fd5b50604051620060c9380380620060c9833981016040819052620000349162000088565b806001600160a01b038116620000755760405162461bcd60e51b81526020600482015260026024820152612d2360f11b604482015260640160405180910390fd5b6001600160a01b031660805250620000ba565b6000602082840312156200009b57600080fd5b81516001600160a01b0381168114620000b357600080fd5b9392505050565b608051615fc2620001076000396000818161055b015281816108dd01528181610d8e01528181611d78015281816124b901528181612907015281816130ad01526140d30152615fc26000f3fe608060405234801561001057600080fd5b50600436106102d35760003560e01c8063715018a611610186578063c45a0155116100e3578063d21220a711610097578063f2eb3e3411610071578063f2eb3e3414610636578063f2fde38b1461063f578063f4effe411461065257600080fd5b8063d21220a7146105d7578063d3487997146105ea578063dd62ed3e146105fd57600080fd5b8063cc8fc8f6116100c8578063cc8fc8f614610590578063ccdf7a02146105a3578063d0ebdbe7146105c457600080fd5b8063c45a015514610556578063c7a4ae171461057d57600080fd5b806394bf804d1161013a578063a457c2d71161011f578063a457c2d71461051d578063a5ff1dc714610530578063a9059cbb1461054357600080fd5b806394bf804d146104ed57806395d89b411461051557600080fd5b806386ac1cb91161016b57806386ac1cb9146104b65780638da5cb5b146104c957806392e49dfd146104da57600080fd5b8063715018a6146104a65780637ecd6717146104ae57600080fd5b8063313ce56711610234578063481c6a75116101e85780635fdecdfa116101cd5780635fdecdfa1461042d578063617a34191461046857806370a082311461047d57600080fd5b8063481c6a75146104075780634b1641401461041a57600080fd5b80633f7b6135116102195780633f7b6135146103d857806342fb9d44146103eb5780634794c84a146103f457600080fd5b8063313ce567146103b657806339509351146103c557600080fd5b806314b806301161028b57806318160ddd1161027057806318160ddd1461038857806323b872dd1461039057806324c61f0a146103a357600080fd5b806314b806301461036c5780631711eafe1461037557600080fd5b8063095ea7b3116102bc578063095ea7b3146103095780630d6e66311461032c5780630dfe16811461034157600080fd5b8063065756db146102d857806306fdde03146102f4575b600080fd5b6102e160cf5481565b6040519081526020015b60405180910390f35b6102fc610665565b6040516102eb9190615110565b61031c610317366004615163565b6106f7565b60405190151581526020016102eb565b61033f61033a36600461518f565b610711565b005b60c954610354906001600160a01b031681565b6040516001600160a01b0390911681526020016102eb565b6102e160cb5481565b61033f6103833660046151f8565b6107b3565b6067546102e1565b61031c61039e366004615295565b610f1e565b61033f6103b1366004615318565b610f44565b604051601281526020016102eb565b61031c6103d3366004615163565b611493565b61033f6103e63660046153b4565b6114d2565b6102e160d05481565b61033f6104023660046153d6565b6115fe565b60d154610354906001600160a01b031681565b61033f61042836600461543f565b6116bd565b61044061043b366004615481565b6117f6565b60408051600294850b81529290930b602083015262ffffff16918101919091526060016102eb565b610470611835565b6040516102eb919061549a565b6102e161048b36600461518f565b6001600160a01b031660009081526065602052604090205490565b61033f6118b8565b61033f61190c565b61033f6104c436600461543f565b6119fd565b6033546001600160a01b0316610354565b61033f6104e836600461543f565b611a96565b6105006104fb36600461550a565b611bc3565b604080519283526020830191909152016102eb565b6102fc611fca565b61031c61052b366004615163565b611fd9565b61033f61053e36600461543f565b612076565b61031c610551366004615163565b6120cc565b6103547f000000000000000000000000000000000000000000000000000000000000000081565b60d254610354906001600160a01b031681565b61033f61059e3660046153d6565b6120da565b60ce546105b19061ffff1681565b60405161ffff90911681526020016102eb565b61033f6105d236600461518f565b6121a5565b60ca54610354906001600160a01b031681565b61033f6105f836600461553a565b61223b565b6102e161060b36600461558d565b6001600160a01b03918216600090815260666020908152604080832093909416825291909152205490565b6102e160cc5481565b61033f61064d36600461518f565b61224b565b6105006106603660046155bb565b612304565b60606068805461067490615649565b80601f01602080910402602001604051908101604052809291908181526020018280546106a090615649565b80156106ed5780601f106106c2576101008083540402835291602001916106ed565b820191906000526020600020905b8154815290600101906020018083116106d057829003601f168201915b5050505050905090565b600033610705818585612ee5565b60019150505b92915050565b6033546001600160a01b0316331461075e5760405162461bcd60e51b81526020600482018190526024820152600080516020615f6d83398151915260448201526064015b60405180910390fd5b60d280546001600160a01b0319166001600160a01b0383169081179091556040519081527f6b7f177e85ebe3aabaf1339b9a445ac908b2bef730372180fa280958e2414ee3906020015b60405180910390a150565b60d1546001600160a01b031633146107f25760405162461bcd60e51b81526020600482015260026024820152614e4d60f01b6044820152606401610755565b60005b84811015610b4157600073F7cB77C8dCB22A1bb4435932f3515319721Faf446335f8054760cd89898681811061082d5761082d615683565b9050606002016040518363ffffffff1660e01b81526004016108509291906156fd565b6040805180830381865af415801561086c573d6000803e3d6000fd5b505050506040513d601f19601f820116820180604052508101906108909190615786565b50905080156108ca5760405162461bcd60e51b8152600401610755906020808252600490820152634e52524560e01b604082015260600190565b60c95460ca546000916001600160a01b037f0000000000000000000000000000000000000000000000000000000000000000811692631698ee8292821691168b8b8881811061091b5761091b615683565b905060600201604001602081019061093391906157b4565b6040516001600160e01b031960e086901b1681526001600160a01b03938416600482015292909116602483015262ffffff166044820152606401602060405180830381865afa15801561098a573d6000803e3d6000fd5b505050506040513d601f19601f820116820180604052508101906109ae91906157d1565b90506001600160a01b0381166109ec5760405162461bcd60e51b815260206004820152600360248201526204e55560ec1b6044820152606401610755565b6109f760d382613009565b610a275760405162461bcd60e51b81526020600482015260016024820152600560fc1b6044820152606401610755565b734cD41204AA4C7438374256bD7bE850eF9fcFaB84636b018820828a8a87818110610a5457610a54615683565b9050606002016040518363ffffffff1660e01b8152600401610a779291906157ee565b602060405180830381865af4158015610a94573d6000803e3d6000fd5b505050506040513d601f19601f82011682018060405250810190610ab8919061580b565b610aea5760405162461bcd60e51b815260206004820152600360248201526252545360e81b6044820152606401610755565b60cd888885818110610afe57610afe615683565b83546001810185556000948552602090942060609091029290920192919091019050610b2a8282615828565b505050508080610b39906158ca565b9150506107f5565b50610b4b8361302b565b60cf5460c9546040516370a0823160e01b81523060048201526001600160a01b03909116906370a0823190602401602060405180830381865afa158015610b96573d6000803e3d6000fd5b505050506040513d601f19601f82011682018060405250810190610bba91906158e3565b1015610bee5760405162461bcd60e51b815260206004820152600360248201526204d42360ec1b6044820152606401610755565b60d05460ca546040516370a0823160e01b81523060048201526001600160a01b03909116906370a0823190602401602060405180830381865afa158015610c39573d6000803e3d6000fd5b505050506040513d601f19601f82011682018060405250810190610c5d91906158e3565b1015610c915760405162461bcd60e51b81526020600482015260036024820152624d423160e81b6044820152606401610755565b60005b81811015610f165760008073F7cB77C8dCB22A1bb4435932f3515319721Faf446335f8054760cd878787818110610ccd57610ccd615683565b9050606002016040518363ffffffff1660e01b8152600401610cf09291906156fd565b6040805180830381865af4158015610d0c573d6000803e3d6000fd5b505050506040513d601f19601f82011682018060405250810190610d309190615786565b9150915081610d6a5760405162461bcd60e51b81526004016107559060208082526004908201526352524e4560e01b604082015260600190565b60c95460ca5473F7cB77C8dCB22A1bb4435932f3515319721Faf4491637806db78917f00000000000000000000000000000000000000000000000000000000000000009130916001600160a01b0391821691168a8a8a818110610dcf57610dcf615683565b9050606002016040518663ffffffff1660e01b8152600401610df59594939291906158fc565b60006040518083038186803b158015610e0d57600080fd5b505af4158015610e21573d6000803e3d6000fd5b505060cd8054909250610e37915060019061593b565b81548110610e4757610e47615683565b9060005260206000200160cd8281548110610e6457610e64615683565b6000918252602090912082549101805462ffffff92831662ffffff19821681178355845463010000009081900485160265ffffffffffff199092161717808255925466010000000000009081900490921690910268ffffff0000000000001990921691909117905560cd805480610edd57610edd615952565b6000828152602090208101600019908101805468ffffffffffffffffff1916905501905550819050610f0e816158ca565b915050610c94565b505050505050565b600033610f2c858285613c67565b610f37858585613cf3565b60019150505b9392505050565b6000610f506001613ec1565b90508015610f68576000805461ff0019166101001790555b6000610f748380615968565b905011610fa95760405162461bcd60e51b815260206004820152600360248201526213919560ea1b6044820152606401610755565b6000610fbb604084016020850161518f565b6001600160a01b031603610ff65760405162461bcd60e51b8152602060048201526002602482015261054360f41b6044820152606401610755565b611006606083016040840161518f565b6001600160a01b031661101f604084016020850161518f565b6001600160a01b03161061105b5760405162461bcd60e51b815260206004820152600360248201526257544f60e81b6044820152606401610755565b600061106d608084016060850161518f565b6001600160a01b0316036110a95760405162461bcd60e51b815260206004820152600360248201526227a0ad60e91b6044820152606401610755565b60006110bb60e0840160c0850161518f565b6001600160a01b0316036110f75760405162461bcd60e51b815260206004820152600360248201526226a0ad60e91b6044820152606401610755565b61138861110c610120840161010085016153d6565b61ffff1611156111475760405162461bcd60e51b81526004016107559060208082526004908201526326aa26a160e11b604082015260600190565b60008260800135118061115e575060008260a00135115b61118e5760405162461bcd60e51b81526020600482015260016024820152604960f81b6044820152606401610755565b61120186868080601f01602080910402602001604051908101604052809392919081815260200183838082843760009201919091525050604080516020601f8a018190048102820181019092528881529250889150879081908401838280828437600092019190915250613fdc92505050565b611209614051565b61123b6112168380615968565b611226604086016020870161518f565b611236606087016040880161518f565b6140c4565b61125061124b60e0840184615968565b614244565b611260604083016020840161518f565b60c980546001600160a01b0319166001600160a01b0392909216919091179055611290606083016040840161518f565b60ca80546001600160a01b0319166001600160a01b03929092169190911790556112c86112c3608084016060850161518f565b6143c2565b6112d860e0830160c0840161518f565b60d180546001600160a01b0319166001600160a01b039290921691909117905561130a610120830161010084016153d6565b60d7805461ffff191661ffff92909216919091179055608082013560cb5560a082013560cc557f1b402611d70c7735d942445aaa3ebbf878149bece6b797870b44a581c5f7f4c961135b8380615968565b6040516113699291906159b2565b60405180910390a1604080516080840135815260a084013560208201527ff8966e026442bb0adb17149a6d44e394d2b6eb3c5cc1dc71b3c0698000548ae6910160405180910390a17f9b6ffaf4cbfd923495440b7f17ced9394289f001b3ead53ab67e2c3f3e39b0f56113e260e0840160c0850161518f565b6040516001600160a01b03909116815260200160405180910390a17f79e76005a798594dd5fb1a03d053fd360c5ad330b345f58fdf89519fa57f01f0611430610120840161010085016153d6565b60405161ffff909116815260200160405180910390a18015610f16576000805461ff0019169055604051600181527f7f26b83ff96e1f2b6a682f133852f6798a09c465da95921460cefb38474024989060200160405180910390a1505050505050565b3360008181526066602090815260408083206001600160a01b038716845290915281205490919061070590829086906114cd9087906159fc565b612ee5565b60008211806114e15750600081115b6115115760405162461bcd60e51b81526020600482015260016024820152604960f81b6044820152606401610755565b606754156115465760405162461bcd60e51b8152602060048201526002602482015261545360f01b6044820152606401610755565b60d2546000906001600160a01b03161561156b5760d2546001600160a01b0316611578565b6033546001600160a01b03165b9050336001600160a01b038216146115b65760405162461bcd60e51b81526020600482015260016024820152602960f91b6044820152606401610755565b60cb83905560cc82905560408051848152602081018490527ff8966e026442bb0adb17149a6d44e394d2b6eb3c5cc1dc71b3c0698000548ae6910160405180910390a1505050565b60d1546001600160a01b0316331461163d5760405162461bcd60e51b81526020600482015260026024820152614e4d60f01b6044820152606401610755565b6127108161ffff1611156116795760405162461bcd60e51b81526020600482015260036024820152624d464f60e81b6044820152606401610755565b60ce805461ffff191661ffff83169081179091556040519081527fa73ff0774d4c8681f79fa6546f34bab7a3037f3b3aab405401a1fd8c6e5ca3d6906020016107a8565b6033546001600160a01b031633146117055760405162461bcd60e51b81526020600482018190526024820152600080516020615f6d8339815191526044820152606401610755565b60005b818110156117b85761174283838381811061172557611725615683565b905060200201602081019061173a919061518f565b60d390613009565b6117735760405162461bcd60e51b815260206004820152600260248201526104e560f41b6044820152606401610755565b6117a583838381811061178857611788615683565b905060200201602081019061179d919061518f565b60d390614414565b50806117b0816158ca565b915050611708565b507f024551cce253d1a442bfe99dae530a00a492fb8c67c4456cce3c9d23eecd396182826040516117ea929190615a14565b60405180910390a15050565b60cd818154811061180657600080fd5b600091825260209091200154600281810b925063010000008204900b906601000000000000900462ffffff1683565b606060cd805480602002602001604051908101604052809291908181526020016000905b828210156118af5760008481526020908190206040805160608101825291850154600281810b845263010000008204900b838501526601000000000000900462ffffff1690820152825260019092019101611859565b50505050905090565b6033546001600160a01b031633146119005760405162461bcd60e51b81526020600482018190526024820152600080516020615f6d8339815191526044820152606401610755565b61190a60006143c2565b565b60026097540361195e5760405162461bcd60e51b815260206004820152601f60248201527f5265656e7472616e637947756172643a207265656e7472616e742063616c6c006044820152606401610755565b600260975560cf805460d080546000938490559290559081156119985760d15460c954611998916001600160a01b03918216911684614429565b80156119bb5760d15460ca546119bb916001600160a01b03918216911683614429565b60408051838152602081018390527fa292e28c648da34e20b372054caab5f0359198b3b4d5f0ef9945d4616e15dc97910160405180910390a150506001609755565b6033546001600160a01b03163314611a455760405162461bcd60e51b81526020600482018190526024820152600080516020615f6d8339815191526044820152606401610755565b60c95460ca54611a6591849184916001600160a01b0390811691166140c4565b7f1b402611d70c7735d942445aaa3ebbf878149bece6b797870b44a581c5f7f4c982826040516117ea9291906159b2565b6033546001600160a01b03163314611ade5760405162461bcd60e51b81526020600482018190526024820152600080516020615f6d8339815191526044820152606401610755565b60005b81811015611b9157611b1b838383818110611afe57611afe615683565b9050602002016020810190611b13919061518f565b60d590613009565b611b4c5760405162461bcd60e51b8152602060048201526002602482015261525760f01b6044820152606401610755565b611b7e838383818110611b6157611b61615683565b9050602002016020810190611b76919061518f565b60d590614414565b5080611b89816158ca565b915050611ae1565b507fbe6c83115c5bf7fd07e41c6002394841bd7dc0348f3b7c58645e8950f604f5c482826040516117ea929190615a14565b600080600260975403611c185760405162461bcd60e51b815260206004820152601f60248201527f5265656e7472616e637947756172643a207265656e7472616e742063616c6c006044820152606401610755565b600260975583611c4f5760405162461bcd60e51b81526020600482015260026024820152614d4160f01b6044820152606401610755565b60d2546001600160a01b03161580611c71575060d2546001600160a01b031633145b611ca15760405162461bcd60e51b81526020600482015260016024820152602960f91b6044820152606401610755565b306000611cad60675490565b9050801515600080808084611cca5760cb5460cc54600080611e22565b7392CB4F7e4CB623E73D5Ec84A43669ADc757C2bd263e56f4d916040518060a0016040528060cd805480602002602001604051908101604052809291908181526020016000905b82821015611d675760008481526020908190206040805160608101825291850154600281810b845263010000008204900b838501526601000000000000900462ffffff1690820152825260019092019101611d11565b505050908252506001600160a01b037f00000000000000000000000000000000000000000000000000000000000000008116602083015260c954811660408084019190915260ca5482166060840152908c16608090920191909152516001600160e01b031960e084901b168152611de19190600401615a57565b608060405180830381865af4158015611dfe573d6000803e3d6000fd5b505050506040513d601f19601f82011682018060405250810190611e229190615b23565b9350935093509350600085611e3f57670de0b6b3a7640000611e41565b865b9050611e4e8c86836144a6565b9950611e5b8c85836144a6565b985085611ee857600085600003611e7457600019611e7f565b611e7f8b83886144ef565b9050600085600003611e9357600019611e9e565b611e9e8b84886144ef565b90508d818310611eae5781611eb0565b825b14611ee55760405162461bcd60e51b8152602060048201526005602482015264413026413160d81b6044820152606401610755565b50505b611ef28b8d61459d565b8915611f105760c954611f10906001600160a01b0316338a8d61467c565b8815611f2e5760ca54611f2e906001600160a01b0316338a8c61467c565b60408051848152602081018490527f3a2c380ba0250aca22c1b7f98782a7504335a0c9f8626ab66e84907722fce70d910160405180910390a1604080518d8152602081018c90529081018a90526001600160a01b038c16907f5f11830295067c4bcc7d02d4e3b048cd7427be50a3aeb6afc9d3d559ee64bcfa9060600160405180910390a2505050505050505060016097819055509250929050565b60606069805461067490615649565b3360008181526066602090815260408083206001600160a01b03871684529091528120549091908381101561205e5760405162461bcd60e51b815260206004820152602560248201527f45524332303a2064656372656173656420616c6c6f77616e63652062656c6f77604482015264207a65726f60d81b6064820152608401610755565b61206b8286868403612ee5565b506001949350505050565b6033546001600160a01b031633146120be5760405162461bcd60e51b81526020600482018190526024820152600080516020615f6d8339815191526044820152606401610755565b6120c88282614244565b5050565b600033610705818585613cf3565b6033546001600160a01b031633146121225760405162461bcd60e51b81526020600482018190526024820152600080516020615f6d8339815191526044820152606401610755565b61138861ffff821611156121615760405162461bcd60e51b81526004016107559060208082526004908201526326aa26a160e11b604082015260600190565b60d7805461ffff191661ffff83169081179091556040519081527f79e76005a798594dd5fb1a03d053fd360c5ad330b345f58fdf89519fa57f01f0906020016107a8565b6033546001600160a01b031633146121ed5760405162461bcd60e51b81526020600482018190526024820152600080516020615f6d8339815191526044820152606401610755565b60d180546001600160a01b0319166001600160a01b0383169081179091556040519081527f9b6ffaf4cbfd923495440b7f17ced9394289f001b3ead53ab67e2c3f3e39b0f5906020016107a8565b61224584846146b4565b50505050565b6033546001600160a01b031633146122935760405162461bcd60e51b81526020600482018190526024820152600080516020615f6d8339815191526044820152606401610755565b6001600160a01b0381166122f85760405162461bcd60e51b815260206004820152602660248201527f4f776e61626c653a206e6577206f776e657220697320746865207a65726f206160448201526564647265737360d01b6064820152608401610755565b612301816143c2565b50565b6000806002609754036123595760405162461bcd60e51b815260206004820152601f60248201527f5265656e7472616e637947756172643a207265656e7472616e742063616c6c006044820152606401610755565b6002609755836123905760405162461bcd60e51b8152602060048201526002602482015261424160f01b6044820152606401610755565b600061239b60675490565b9050600081116123d25760405162461bcd60e51b8152602060048201526002602482015261545360f01b6044820152606401610755565b61240b6040518060c001604052806000815260200160008152602001600081526020016000815260200160008152602001600081525090565b7392CB4F7e4CB623E73D5Ec84A43669ADc757C2bd263e56f4d916040518060a0016040528060cd805480602002602001604051908101604052809291908181526020016000905b828210156124a85760008481526020908190206040805160608101825291850154600281810b845263010000008204900b838501526601000000000000900462ffffff1690820152825260019092019101612452565b505050908252506001600160a01b037f00000000000000000000000000000000000000000000000000000000000000008116602083015260c954811660408084019190915260ca54909116606083015230608090920191909152516001600160e01b031960e084901b1681526125219190600401615a57565b608060405180830381865af415801561253e573d6000803e3d6000fd5b505050506040513d601f19601f820116820180604052508101906125629190615b23565b6060850152604080850191909152602084019190915290825260cf5460c95491516370a0823160e01b815230600482015290916001600160a01b0316906370a0823190602401602060405180830381865afa1580156125c5573d6000803e3d6000fd5b505050506040513d601f19601f820116820180604052508101906125e991906158e3565b6125f3919061593b565b608082015260d05460ca546040516370a0823160e01b81523060048201526001600160a01b03909116906370a0823190602401602060405180830381865afa158015612643573d6000803e3d6000fd5b505050506040513d601f19601f8201168201806040525081019061266791906158e3565b612671919061593b565b60a082015280516126839087846144ef565b9350612694816020015187846144ef565b9250838160800151101580156126ae5750828160a0015110155b1561274a576126bd338761472a565b83156126da5760c9546126da906001600160a01b03168686614429565b82156126f75760ca546126f7906001600160a01b03168685614429565b60408051878152602081018690529081018490526001600160a01b038616907f86dacd5ce62967ebd3d915a82b22ad7e159538e50c7ba451e073fec048d9f1279060600160405180910390a25050612ed5565b8661277b5760405162461bcd60e51b81526020600482015260016024820152602160f91b6044820152606401610755565b612785338761472a565b6127b06040518060800160405280600081526020016000815260200160008152602001600081525090565b60005b88811015612ad0578989828181106127cd576127cd615683565b6127e39260206080909202019081019150615b6e565b6001600160801b03166000036128205760405162461bcd60e51b8152602060048201526002602482015261262d60f11b6044820152606401610755565b600073F7cB77C8dCB22A1bb4435932f3515319721Faf446335f8054760cd8d8d8681811061285057612850615683565b9050608002016020016040518363ffffffff1660e01b81526004016128769291906156fd565b6040805180830381865af4158015612892573d6000803e3d6000fd5b505050506040513d601f19601f820116820180604052508101906128b69190615786565b509050806128ef5760405162461bcd60e51b81526004016107559060208082526004908201526352524e4560e01b604082015260600190565b5060c95460ca54600091612a5b916001600160a01b037f0000000000000000000000000000000000000000000000000000000000000000811692631698ee829290821691168f8f8881811061294657612946615683565b61295d9260809182020190810191506060016157b4565b6040516001600160e01b031960e086901b1681526001600160a01b03938416600482015292909116602483015262ffffff166044820152606401602060405180830381865afa1580156129b4573d6000803e3d6000fd5b505050506040513d601f19601f820116820180604052508101906129d891906157d1565b8c8c858181106129ea576129ea615683565b612a039260406080909202019081019150602001615b8b565b8d8d86818110612a1557612a15615683565b612a2e9260606080909202019081019150604001615b8b565b8e8e87818110612a4057612a40615683565b612a569260206080909202019081019150615b6e565b614878565b9050806040015183604001818151612a7391906159fc565b9052506060808201519084018051612a8c9083906159fc565b905250805183518490612aa09083906159fc565b9052506020808201519084018051612ab99083906159fc565b905250819050612ac8816158ca565b9150506127b3565b50612ae381604001518260600151614a03565b8415612b005760c954612b00906001600160a01b03168787614429565b8315612b1d5760ca54612b1d906001600160a01b03168786614429565b60cf5460c9546040516370a0823160e01b8152306004820152600092916001600160a01b0316906370a0823190602401602060405180830381865afa158015612b6a573d6000803e3d6000fd5b505050506040513d601f19601f82011682018060405250810190612b8e91906158e3565b612b98919061593b565b60d05460ca546040516370a0823160e01b81523060048201529293506000926001600160a01b03909116906370a0823190602401602060405180830381865afa158015612be9573d6000803e3d6000fd5b505050506040513d601f19601f82011682018060405250810190612c0d91906158e3565b612c17919061593b565b604084810151606086015160ce5492516348c619c760e01b81526004810192909252602482015261ffff909116604482015290915060009081907392CB4F7e4CB623E73D5Ec84A43669ADc757C2bd2906348c619c7906064016040805180830381865af4158015612c8c573d6000803e3d6000fd5b505050506040513d601f19601f82011682018060405250810190612cb09190615ba8565b915091508382101580612cd057506080860151612ccd838661593b565b11155b80612d085750845160d754612cec919061ffff166127106144ef565b6080870151612cfb848761593b565b612d05919061593b565b11155b612d395760405162461bcd60e51b815260206004820152600260248201526104c360f41b6044820152606401610755565b8281101580612d55575060a0860151612d52828561593b565b11155b80612d905750602085015160d754612d74919061ffff166127106144ef565b60a0870151612d83838661593b565b612d8d919061593b565b11155b612dc15760405162461bcd60e51b81526020600482015260026024820152614c3160f01b6044820152606401610755565b5050825160208085015160408051938452918301523393507fbcc5876d59ecdf66ef7ccae24657b11650939218782f8d741e78fd3c35d285a392500160405180910390a26040808301516060840151825191825260208201527f3a2c380ba0250aca22c1b7f98782a7504335a0c9f8626ab66e84907722fce70d910160405180910390a16040808201516060830151825191825260208201527fdbbb3a796242c9562af701570b096cb2478cd507fcd2d4080025883b10a623a5910160405180910390a160408051888152602081018790529081018590526001600160a01b038716907f86dacd5ce62967ebd3d915a82b22ad7e159538e50c7ba451e073fec048d9f1279060600160405180910390a25050505b6001609755909590945092505050565b6001600160a01b038316612f475760405162461bcd60e51b8152602060048201526024808201527f45524332303a20617070726f76652066726f6d20746865207a65726f206164646044820152637265737360e01b6064820152608401610755565b6001600160a01b038216612fa85760405162461bcd60e51b815260206004820152602260248201527f45524332303a20617070726f766520746f20746865207a65726f206164647265604482015261737360f01b6064820152608401610755565b6001600160a01b0383811660008181526066602090815260408083209487168084529482529182902085905590518481527f8c5be1e5ebec7d5bd14f71427d1e84f3dd0314c0f7b2291e5b200ac8c7c3b925910160405180910390a3505050565b6001600160a01b03811660009081526001830160205260408120541515610f3d565b60026097540361307d5760405162461bcd60e51b815260206004820152601f60248201527f5265656e7472616e637947756172643a207265656e7472616e742063616c6c006044820152606401610755565b600260975560c95460ca5460408051608081018252600080825260208201819052918101829052606081018290527f0000000000000000000000000000000000000000000000000000000000000000936001600160a01b039081169316915b6130e68680615bcc565b90508110156132b25760006001600160a01b038616631698ee82868661310c8b80615bcc565b8781811061311c5761311c615683565b6131339260809182020190810191506060016157b4565b6040516001600160e01b031960e086901b1681526001600160a01b03938416600482015292909116602483015262ffffff166044820152606401602060405180830381865afa15801561318a573d6000803e3d6000fd5b505050506040513d601f19601f820116820180604052508101906131ae91906157d1565b9050806000613237826131c18b80615bcc565b878181106131d1576131d1615683565b6131ea9260406080909202019081019150602001615b8b565b6131f48c80615bcc565b8881811061320457613204615683565b61321d9260606080909202019081019150604001615b8b565b6132278d80615bcc565b89818110612a4057612a40615683565b8051865191925090869061324c9083906159fc565b90525060208082015190860180516132659083906159fc565b905250604080820151908601805161327e9083906159fc565b90525060608082015190860180516132979083906159fc565b9052508392506132aa91508290506158ca565b9150506130dc565b508051606086013511156132ed5760405162461bcd60e51b8152602060048201526002602482015261042360f41b6044820152606401610755565b84608001358160200151101561332a5760405162461bcd60e51b8152602060048201526002602482015261423160f01b6044820152606401610755565b600081604001511180613341575060008160600151115b156133995761335881604001518260600151614a03565b6040808201516060830151825191825260208201527fdbbb3a796242c9562af701570b096cb2478cd507fcd2d4080025883b10a623a5910160405180910390a15b5060006133a96040860186615c16565b604001351115613877576133d46133c36040860186615c16565b611b1390604081019060200161518f565b6134055760405162461bcd60e51b8152602060048201526002602482015261272960f11b6044820152606401610755565b60c9546040516370a0823160e01b81523060048201526000916001600160a01b0316906370a0823190602401602060405180830381865afa15801561344e573d6000803e3d6000fd5b505050506040513d601f19601f8201168201806040525081019061347291906158e3565b60ca546040516370a0823160e01b81523060048201529192506000916001600160a01b03909116906370a0823190602401602060405180830381865afa1580156134c0573d6000803e3d6000fd5b505050506040513d601f19601f820116820180604052508101906134e491906158e3565b905061351b6134f66040880188615c16565b61350790604081019060200161518f565b60c9546001600160a01b0316906000614a6e565b61355061352b6040880188615c16565b61353c90604081019060200161518f565b60ca546001600160a01b0316906000614a6e565b6135846135606040880188615c16565b61357190604081019060200161518f565b60c9546001600160a01b03169084614a6e565b6135b86135946040880188615c16565b6135a590604081019060200161518f565b60ca546001600160a01b03169083614a6e565b60006135c76040880188615c16565b6135d890604081019060200161518f565b6001600160a01b03166135ee6040890189615c16565b6135f89080615c36565b604051613606929190615c7d565b6000604051808303816000865af19150503d8060008114613643576040519150601f19603f3d011682016040523d82523d6000602084013e613648565b606091505b505090508061367e5760405162461bcd60e51b8152602060048201526002602482015261534360f01b6044820152606401610755565b60c9546040516370a0823160e01b81523060048201526000916001600160a01b0316906370a0823190602401602060405180830381865afa1580156136c7573d6000803e3d6000fd5b505050506040513d601f19601f820116820180604052508101906136eb91906158e3565b60ca546040516370a0823160e01b81523060048201529192506000916001600160a01b03909116906370a0823190602401602060405180830381865afa158015613739573d6000803e3d6000fd5b505050506040513d601f19601f8201168201806040525081019061375d91906158e3565b905061376c60408a018a615c16565b61377d9060a0810190608001615c98565b156137fc5761378f60408a018a615c16565b61379d9060600135856159fc565b81101580156137c657506137b460408a018a615c16565b6137c290604001358661593b565b8210155b6137f75760405162461bcd60e51b815260206004820152600260248201526129a360f11b6044820152606401610755565b613871565b61380960408a018a615c16565b6138179060600135866159fc565b8210158015613840575061382e60408a018a615c16565b61383c90604001358561593b565b8110155b6138715760405162461bcd60e51b815260206004820152600260248201526129a360f11b6044820152606401610755565b50505050505b60008060005b61388a6020880188615bcc565b9050811015613bb05760006001600160a01b038716631698ee8287876138b360208d018d615bcc565b878181106138c3576138c3615683565b6138da9260809182020190810191506060016157b4565b6040516001600160e01b031960e086901b1681526001600160a01b03938416600482015292909116602483015262ffffff166044820152606401602060405180830381865afa158015613931573d6000803e3d6000fd5b505050506040513d601f19601f8201168201806040525081019061395591906157d1565b9050600073F7cB77C8dCB22A1bb4435932f3515319721Faf446335f8054760cd61398260208d018d615bcc565b8781811061399257613992615683565b9050608002016020016040518363ffffffff1660e01b81526004016139b89291906156fd565b6040805180830381865af41580156139d4573d6000803e3d6000fd5b505050506040513d601f19601f820116820180604052508101906139f89190615786565b50905080613a2e5760405162461bcd60e51b815260206004820152600360248201526244524560e81b6044820152606401610755565b6000806001600160a01b038416633c8a7d8d30613a4e60208f018f615bcc565b89818110613a5e57613a5e615683565b613a779260406080909202019081019150602001615b8b565b8e8060200190613a879190615bcc565b8a818110613a9757613a97615683565b613ab09260606080909202019081019150604001615b8b565b8f8060200190613ac09190615bcc565b8b818110613ad057613ad0615683565b613ae69260206080909202019081019150615b6e565b6040516001600160e01b031960e087901b1681526001600160a01b039094166004850152600292830b6024850152910b60448301526001600160801b0316606482015260a06084820152600060a482015260c40160408051808303816000875af1158015613b58573d6000803e3d6000fd5b505050506040513d601f19601f82011682018060405250810190613b7c9190615ba8565b9092509050613b8b82886159fc565b9650613b9781876159fc565b9550505050508080613ba8906158ca565b91505061387d565b508560a00135821015613bea5760405162461bcd60e51b8152602060048201526002602482015261044360f41b6044820152606401610755565b8560c00135811015613c235760405162461bcd60e51b8152602060048201526002602482015261443160f01b6044820152606401610755565b7f4fd7f8c9096d7539cbf99112fb12e4c66707a1ced3478c52716923015e92b47786604051613c529190615e20565b60405180910390a15050600160975550505050565b6001600160a01b0383811660009081526066602090815260408083209386168352929052205460001981146122455781811015613ce65760405162461bcd60e51b815260206004820152601d60248201527f45524332303a20696e73756666696369656e7420616c6c6f77616e63650000006044820152606401610755565b6122458484848403612ee5565b6001600160a01b038316613d575760405162461bcd60e51b815260206004820152602560248201527f45524332303a207472616e736665722066726f6d20746865207a65726f206164604482015264647265737360d81b6064820152608401610755565b6001600160a01b038216613db95760405162461bcd60e51b815260206004820152602360248201527f45524332303a207472616e7366657220746f20746865207a65726f206164647260448201526265737360e81b6064820152608401610755565b6001600160a01b03831660009081526065602052604090205481811015613e315760405162461bcd60e51b815260206004820152602660248201527f45524332303a207472616e7366657220616d6f756e7420657863656564732062604482015265616c616e636560d01b6064820152608401610755565b6001600160a01b03808516600090815260656020526040808220858503905591851681529081208054849290613e689084906159fc565b92505081905550826001600160a01b0316846001600160a01b03167fddf252ad1be2c89b69c2b068fc378daa952ba7f163c4a11628f55a4df523b3ef84604051613eb491815260200190565b60405180910390a3612245565b60008054610100900460ff1615613f4f578160ff166001148015613ee45750303b155b613f475760405162461bcd60e51b815260206004820152602e60248201527f496e697469616c697a61626c653a20636f6e747261637420697320616c72656160448201526d191e481a5b9a5d1a585b1a5e995960921b6064820152608401610755565b506000919050565b60005460ff808416911610613fbd5760405162461bcd60e51b815260206004820152602e60248201527f496e697469616c697a61626c653a20636f6e747261637420697320616c72656160448201526d191e481a5b9a5d1a585b1a5e995960921b6064820152608401610755565b506000805460ff191660ff92909216919091179055600190565b919050565b600054610100900460ff166140475760405162461bcd60e51b815260206004820152602b60248201527f496e697469616c697a61626c653a20636f6e7472616374206973206e6f74206960448201526a6e697469616c697a696e6760a81b6064820152608401610755565b6120c88282614b8a565b600054610100900460ff166140bc5760405162461bcd60e51b815260206004820152602b60248201527f496e697469616c697a61626c653a20636f6e7472616374206973206e6f74206960448201526a6e697469616c697a696e6760a81b6064820152608401610755565b61190a614c1c565b60005b8381101561423d5760007f00000000000000000000000000000000000000000000000000000000000000006001600160a01b0316631698ee82858589898781811061411457614114615683565b905060200201602081019061412991906157b4565b6040516001600160e01b031960e086901b1681526001600160a01b03938416600482015292909116602483015262ffffff166044820152606401602060405180830381865afa158015614180573d6000803e3d6000fd5b505050506040513d601f19601f820116820180604052508101906141a491906157d1565b90506001600160a01b0381166141e15760405162461bcd60e51b81526020600482015260026024820152615a4160f01b6044820152606401610755565b6141ec60d382613009565b1561421d5760405162461bcd60e51b81526020600482015260016024820152600560fc1b6044820152606401610755565b61422860d382614c8e565b50508080614235906158ca565b9150506140c7565b5050505050565b60005b818110156143905760c9546001600160a01b031683838381811061426d5761426d615683565b9050602002016020810190614282919061518f565b6001600160a01b0316141580156142d3575060ca546001600160a01b03168383838181106142b2576142b2615683565b90506020020160208101906142c7919061518f565b6001600160a01b031614155b6143045760405162461bcd60e51b8152602060048201526002602482015261149560f21b6044820152606401610755565b614319838383818110611afe57611afe615683565b1561434b5760405162461bcd60e51b815260206004820152600260248201526121a960f11b6044820152606401610755565b61437d83838381811061436057614360615683565b9050602002016020810190614375919061518f565b60d590614c8e565b5080614388816158ca565b915050614247565b507f102656122b5bfb41d864259a385db02d34584f3a71b6c6c35c14cbdaf9038fe682826040516117ea929190615a14565b603380546001600160a01b038381166001600160a01b0319831681179093556040519116919082907f8be0079c531659141344cd1fd0a4f28419497f9722a3daafe3b4186f6b6457e090600090a35050565b6000610f3d836001600160a01b038416614ca3565b6040516001600160a01b0383166024820152604481018290526144a190849063a9059cbb60e01b906064015b60408051601f198184030181529190526020810180517bffffffffffffffffffffffffffffffffffffffffffffffffffffffff166001600160e01b031990931692909217909152614d96565b505050565b60006144b38484846144ef565b9050600082806144c5576144c5615ed4565b8486091115610f3d5760001981106144dc57600080fd5b806144e6816158ca565b95945050505050565b6000808060001985870985870292508281108382030391505080600003614528576000841161451d57600080fd5b508290049050610f3d565b80841161453457600080fd5b60008486880960026001871981018816978890046003810283188082028403028082028403028082028403028082028403028082028403029081029092039091026000889003889004909101858311909403939093029303949094049190911702949350505050565b6001600160a01b0382166145f35760405162461bcd60e51b815260206004820152601f60248201527f45524332303a206d696e7420746f20746865207a65726f2061646472657373006044820152606401610755565b806067600082825461460591906159fc565b90915550506001600160a01b038216600090815260656020526040812080548392906146329084906159fc565b90915550506040518181526001600160a01b038316906000907fddf252ad1be2c89b69c2b068fc378daa952ba7f163c4a11628f55a4df523b3ef9060200160405180910390a35050565b6040516001600160a01b03808516602483015283166044820152606481018290526122459085906323b872dd60e01b90608401614455565b6146bf60d333613009565b6146f05760405162461bcd60e51b8152602060048201526002602482015261434360f01b6044820152606401610755565b811561470d5760c95461470d906001600160a01b03163384614429565b80156120c85760ca546120c8906001600160a01b03163383614429565b6001600160a01b03821661478a5760405162461bcd60e51b815260206004820152602160248201527f45524332303a206275726e2066726f6d20746865207a65726f206164647265736044820152607360f81b6064820152608401610755565b6001600160a01b038216600090815260656020526040902054818110156147fe5760405162461bcd60e51b815260206004820152602260248201527f45524332303a206275726e20616d6f756e7420657863656564732062616c616e604482015261636560f01b6064820152608401610755565b6001600160a01b038316600090815260656020526040812083830390556067805484929061482d90849061593b565b90915550506040518281526000906001600160a01b038516907fddf252ad1be2c89b69c2b068fc378daa952ba7f163c4a11628f55a4df523b3ef9060200160405180910390a3505050565b6148a36040518060800160405280600081526020016000815260200160008152602001600081525090565b60405163a34123a760e01b8152600285810b600483015284900b60248201526001600160801b03831660448201526001600160a01b0386169063a34123a79060640160408051808303816000875af1158015614903573d6000803e3d6000fd5b505050506040513d601f19601f820116820180604052508101906149279190615ba8565b602083015281526040516309e3d67b60e31b8152306004820152600285810b602483015284900b60448201526001600160801b0360648201819052608482015260009081906001600160a01b03881690634f1eb3d89060a40160408051808303816000875af115801561499e573d6000803e3d6000fd5b505050506040513d601f19601f820116820180604052508101906149c29190615eea565b84516001600160801b039283169450911691506149df908361593b565b604084015260208301516149f3908261593b565b6060840152509095945050505050565b60ce5461ffff16612710614a178285615f19565b614a219190615f38565b60cf6000828254614a3291906159fc565b909155506127109050614a4961ffff831684615f19565b614a539190615f38565b60d06000828254614a6491906159fc565b9091555050505050565b801580614ae85750604051636eb1769f60e11b81523060048201526001600160a01b03838116602483015284169063dd62ed3e90604401602060405180830381865afa158015614ac2573d6000803e3d6000fd5b505050506040513d601f19601f82011682018060405250810190614ae691906158e3565b155b614b5a5760405162461bcd60e51b815260206004820152603660248201527f5361666545524332303a20617070726f76652066726f6d206e6f6e2d7a65726f60448201527f20746f206e6f6e2d7a65726f20616c6c6f77616e6365000000000000000000006064820152608401610755565b6040516001600160a01b0383166024820152604481018290526144a190849063095ea7b360e01b90606401614455565b600054610100900460ff16614bf55760405162461bcd60e51b815260206004820152602b60248201527f496e697469616c697a61626c653a20636f6e7472616374206973206e6f74206960448201526a6e697469616c697a696e6760a81b6064820152608401610755565b8151614c0890606890602085019061504b565b5080516144a190606990602084019061504b565b600054610100900460ff16614c875760405162461bcd60e51b815260206004820152602b60248201527f496e697469616c697a61626c653a20636f6e7472616374206973206e6f74206960448201526a6e697469616c697a696e6760a81b6064820152608401610755565b6001609755565b6000610f3d836001600160a01b038416614e7b565b60008181526001830160205260408120548015614d8c576000614cc760018361593b565b8554909150600090614cdb9060019061593b565b9050818114614d40576000866000018281548110614cfb57614cfb615683565b9060005260206000200154905080876000018481548110614d1e57614d1e615683565b6000918252602080832090910192909255918252600188019052604090208390555b8554869080614d5157614d51615952565b60019003818190600052602060002001600090559055856001016000868152602001908152602001600020600090556001935050505061070b565b600091505061070b565b6000614deb826040518060400160405280602081526020017f5361666545524332303a206c6f772d6c6576656c2063616c6c206661696c6564815250856001600160a01b0316614eca9092919063ffffffff16565b8051909150156144a15780806020019051810190614e09919061580b565b6144a15760405162461bcd60e51b815260206004820152602a60248201527f5361666545524332303a204552433230206f7065726174696f6e20646964206e60448201527f6f742073756363656564000000000000000000000000000000000000000000006064820152608401610755565b6000818152600183016020526040812054614ec25750815460018181018455600084815260208082209093018490558454848252828601909352604090209190915561070b565b50600061070b565b6060614ed98484600085614ee1565b949350505050565b606082471015614f425760405162461bcd60e51b815260206004820152602660248201527f416464726573733a20696e73756666696369656e742062616c616e636520666f6044820152651c8818d85b1b60d21b6064820152608401610755565b6001600160a01b0385163b614f995760405162461bcd60e51b815260206004820152601d60248201527f416464726573733a2063616c6c20746f206e6f6e2d636f6e74726163740000006044820152606401610755565b600080866001600160a01b03168587604051614fb59190615f5a565b60006040518083038185875af1925050503d8060008114614ff2576040519150601f19603f3d011682016040523d82523d6000602084013e614ff7565b606091505b5091509150615007828286615012565b979650505050505050565b60608315615021575081610f3d565b8251156150315782518084602001fd5b8160405162461bcd60e51b81526004016107559190615110565b82805461505790615649565b90600052602060002090601f01602090048101928261507957600085556150bf565b82601f1061509257805160ff19168380011785556150bf565b828001600101855582156150bf579182015b828111156150bf5782518255916020019190600101906150a4565b506150cb9291506150cf565b5090565b5b808211156150cb57600081556001016150d0565b60005b838110156150ff5781810151838201526020016150e7565b838111156122455750506000910152565b602081526000825180602084015261512f8160408501602087016150e4565b601f01601f19169190910160400192915050565b6001600160a01b038116811461230157600080fd5b8035613fd781615143565b6000806040838503121561517657600080fd5b823561518181615143565b946020939093013593505050565b6000602082840312156151a157600080fd5b8135610f3d81615143565b60008083601f8401126151be57600080fd5b50813567ffffffffffffffff8111156151d657600080fd5b6020830191508360206060830285010111156151f157600080fd5b9250929050565b60008060008060006060868803121561521057600080fd5b853567ffffffffffffffff8082111561522857600080fd5b61523489838a016151ac565b9097509550602088013591508082111561524d57600080fd5b9087019060e0828a03121561526157600080fd5b9093506040870135908082111561527757600080fd5b50615284888289016151ac565b969995985093965092949392505050565b6000806000606084860312156152aa57600080fd5b83356152b581615143565b925060208401356152c581615143565b929592945050506040919091013590565b60008083601f8401126152e857600080fd5b50813567ffffffffffffffff81111561530057600080fd5b6020830191508360208285010111156151f157600080fd5b60008060008060006060868803121561533057600080fd5b853567ffffffffffffffff8082111561534857600080fd5b61535489838a016152d6565b9097509550602088013591508082111561536d57600080fd5b61537989838a016152d6565b9095509350604088013591508082111561539257600080fd5b50860161012081890312156153a657600080fd5b809150509295509295909350565b600080604083850312156153c757600080fd5b50508035926020909101359150565b6000602082840312156153e857600080fd5b813561ffff81168114610f3d57600080fd5b60008083601f84011261540c57600080fd5b50813567ffffffffffffffff81111561542457600080fd5b6020830191508360208260051b85010111156151f157600080fd5b6000806020838503121561545257600080fd5b823567ffffffffffffffff81111561546957600080fd5b615475858286016153fa565b90969095509350505050565b60006020828403121561549357600080fd5b5035919050565b6020808252825182820181905260009190848201906040850190845b818110156154fe576154eb838551805160020b8252602081015160020b602083015262ffffff60408201511660408301525050565b92840192606092909201916001016154b6565b50909695505050505050565b6000806040838503121561551d57600080fd5b82359150602083013561552f81615143565b809150509250929050565b6000806000806060858703121561555057600080fd5b8435935060208501359250604085013567ffffffffffffffff81111561557557600080fd5b615581878288016152d6565b95989497509550505050565b600080604083850312156155a057600080fd5b82356155ab81615143565b9150602083013561552f81615143565b600080600080606085870312156155d157600080fd5b843567ffffffffffffffff808211156155e957600080fd5b818701915087601f8301126155fd57600080fd5b81358181111561560c57600080fd5b8860208260071b850101111561562157600080fd5b602092830196509450508501359150604085013561563e81615143565b939692955090935050565b600181811c9082168061565d57607f821691505b60208210810361567d57634e487b7160e01b600052602260045260246000fd5b50919050565b634e487b7160e01b600052603260045260246000fd5b8060020b811461230157600080fd5b62ffffff8116811461230157600080fd5b80356156c481615699565b60020b825260208101356156d781615699565b60020b602083015260408101356156ed816156a8565b62ffffff81166040840152505050565b6000608082016080835280855480835260a08501915086600052602092508260002060005b8281101561575d578154600281810b8652601882901c900b8686015260301c62ffffff16604085015260609093019260019182019101615722565b50505080925050615770818401856156b9565b509392505050565b801515811461230157600080fd5b6000806040838503121561579957600080fd5b82516157a481615778565b6020939093015192949293505050565b6000602082840312156157c657600080fd5b8135610f3d816156a8565b6000602082840312156157e357600080fd5b8151610f3d81615143565b6001600160a01b038316815260808101610f3d60208301846156b9565b60006020828403121561581d57600080fd5b8151610f3d81615778565b813561583381615699565b815462ffffff82811662ffffff198316178455602085013561585481615699565b8060181b9050818416935065ffffff00000091508082168465ffffffffffff198516171785556040860135615888816156a8565b911668ffffffffffffffffff19929092169092171760309190911b68ffffff0000000000001617905550565b634e487b7160e01b600052601160045260246000fd5b6000600182016158dc576158dc6158b4565b5060010190565b6000602082840312156158f557600080fd5b5051919050565b6001600160a01b038681168252858116602083015284811660408301528316606082015260e0810161593160808301846156b9565b9695505050505050565b60008282101561594d5761594d6158b4565b500390565b634e487b7160e01b600052603160045260246000fd5b6000808335601e1984360301811261597f57600080fd5b83018035915067ffffffffffffffff82111561599a57600080fd5b6020019150600581901b36038213156151f157600080fd5b60208082528181018390526000908460408401835b868110156159f15782356159da816156a8565b62ffffff16825291830191908301906001016159c7565b509695505050505050565b60008219821115615a0f57615a0f6158b4565b500190565b60208082528181018390526000908460408401835b868110156159f1578235615a3c81615143565b6001600160a01b031682529183019190830190600101615a29565b6020808252825160a083830152805160c0840181905260009291820190839060e08601905b80831015615ac757615ab1828551805160020b8252602081015160020b602083015262ffffff60408201511660408301525050565b6060820191508484019350600183019250615a7c565b50928601516001600160a01b03811660408701529260408701516001600160a01b0381166060880152935060608701516001600160a01b0381166080880152935060808701516001600160a01b03811660a08801529350615931565b60008060008060808587031215615b3957600080fd5b505082516020840151604085015160609095015191969095509092509050565b6001600160801b038116811461230157600080fd5b600060208284031215615b8057600080fd5b8135610f3d81615b59565b600060208284031215615b9d57600080fd5b8135610f3d81615699565b60008060408385031215615bbb57600080fd5b505080516020909101519092909150565b6000808335601e19843603018112615be357600080fd5b83018035915067ffffffffffffffff821115615bfe57600080fd5b6020019150600781901b36038213156151f157600080fd5b60008235609e19833603018112615c2c57600080fd5b9190910192915050565b6000808335601e19843603018112615c4d57600080fd5b83018035915067ffffffffffffffff821115615c6857600080fd5b6020019150368190038213156151f157600080fd5b8183823760009101908152919050565b8035613fd781615778565b600060208284031215615caa57600080fd5b8135610f3d81615778565b6000808335601e19843603018112615ccc57600080fd5b830160208101925035905067ffffffffffffffff811115615cec57600080fd5b8060071b36038313156151f157600080fd5b8183526000602080850194508260005b85811015615d4d578135615d2181615b59565b6001600160801b03168752615d3a8388018385016156b9565b6080968701969190910190600101615d0e565b509495945050505050565b81835281816020850137506000828201602090810191909152601f909101601f19169091010190565b60008135601e19833603018112615d9757600080fd5b8201803567ffffffffffffffff811115615db057600080fd5b803603841315615dbf57600080fd5b60a08552615dd460a086018260208501615d58565b915050615de360208401615158565b6001600160a01b0381166020860152506040830135604085015260608301356060850152615e1360808401615c8d565b8015156080860152615770565b602081526000615e308384615cb5565b60e06020850152615e4661010085018284615cfe565b915050615e566020850185615cb5565b601f1980868503016040870152615e6e848385615cfe565b935060408701359250609e19873603018312615e8957600080fd5b85840301606086015250615e9f82828701615d81565b91505060608401356080840152608084013560a084015260a084013560c084015260c084013560e08401528091505092915050565b634e487b7160e01b600052601260045260246000fd5b60008060408385031215615efd57600080fd5b8251615f0881615b59565b602084015190925061552f81615b59565b6000816000190483118215151615615f3357615f336158b4565b500290565b600082615f5557634e487b7160e01b600052601260045260246000fd5b500490565b60008251615c2c8184602087016150e456fe4f776e61626c653a2063616c6c6572206973206e6f7420746865206f776e6572a26469706673582212207d549dd896871dd46fa445376615c508ce6451fc1d5fd58f702e07baabe7fe6264736f6c634300080d0033",
  "deployedBytecode": "0x608060405234801561001057600080fd5b50600436106102d35760003560e01c8063715018a611610186578063c45a0155116100e3578063d21220a711610097578063f2eb3e3411610071578063f2eb3e3414610636578063f2fde38b1461063f578063f4effe411461065257600080fd5b8063d21220a7146105d7578063d3487997146105ea578063dd62ed3e146105fd57600080fd5b8063cc8fc8f6116100c8578063cc8fc8f614610590578063ccdf7a02146105a3578063d0ebdbe7146105c457600080fd5b8063c45a015514610556578063c7a4ae171461057d57600080fd5b806394bf804d1161013a578063a457c2d71161011f578063a457c2d71461051d578063a5ff1dc714610530578063a9059cbb1461054357600080fd5b806394bf804d146104ed57806395d89b411461051557600080fd5b806386ac1cb91161016b57806386ac1cb9146104b65780638da5cb5b146104c957806392e49dfd146104da57600080fd5b8063715018a6146104a65780637ecd6717146104ae57600080fd5b8063313ce56711610234578063481c6a75116101e85780635fdecdfa116101cd5780635fdecdfa1461042d578063617a34191461046857806370a082311461047d57600080fd5b8063481c6a75146104075780634b1641401461041a57600080fd5b80633f7b6135116102195780633f7b6135146103d857806342fb9d44146103eb5780634794c84a146103f457600080fd5b8063313ce567146103b657806339509351146103c557600080fd5b806314b806301161028b57806318160ddd1161027057806318160ddd1461038857806323b872dd1461039057806324c61f0a146103a357600080fd5b806314b806301461036c5780631711eafe1461037557600080fd5b8063095ea7b3116102bc578063095ea7b3146103095780630d6e66311461032c5780630dfe16811461034157600080fd5b8063065756db146102d857806306fdde03146102f4575b600080fd5b6102e160cf5481565b6040519081526020015b60405180910390f35b6102fc610665565b6040516102eb9190615110565b61031c610317366004615163565b6106f7565b60405190151581526020016102eb565b61033f61033a36600461518f565b610711565b005b60c954610354906001600160a01b031681565b6040516001600160a01b0390911681526020016102eb565b6102e160cb5481565b61033f6103833660046151f8565b6107b3565b6067546102e1565b61031c61039e366004615295565b610f1e565b61033f6103b1366004615318565b610f44565b604051601281526020016102eb565b61031c6103d3366004615163565b611493565b61033f6103e63660046153b4565b6114d2565b6102e160d05481565b61033f6104023660046153d6565b6115fe565b60d154610354906001600160a01b031681565b61033f61042836600461543f565b6116bd565b61044061043b366004615481565b6117f6565b60408051600294850b81529290930b602083015262ffffff16918101919091526060016102eb565b610470611835565b6040516102eb919061549a565b6102e161048b36600461518f565b6001600160a01b031660009081526065602052604090205490565b61033f6118b8565b61033f61190c565b61033f6104c436600461543f565b6119fd565b6033546001600160a01b0316610354565b61033f6104e836600461543f565b611a96565b6105006104fb36600461550a565b611bc3565b604080519283526020830191909152016102eb565b6102fc611fca565b61031c61052b366004615163565b611fd9565b61033f61053e36600461543f565b612076565b61031c610551366004615163565b6120cc565b6103547f000000000000000000000000000000000000000000000000000000000000000081565b60d254610354906001600160a01b031681565b61033f61059e3660046153d6565b6120da565b60ce546105b19061ffff1681565b60405161ffff90911681526020016102eb565b61033f6105d236600461518f565b6121a5565b60ca54610354906001600160a01b031681565b61033f6105f836600461553a565b61223b565b6102e161060b36600461558d565b6001600160a01b03918216600090815260666020908152604080832093909416825291909152205490565b6102e160cc5481565b61033f61064d36600461518f565b61224b565b6105006106603660046155bb565b612304565b60606068805461067490615649565b80601f01602080910402602001604051908101604052809291908181526020018280546106a090615649565b80156106ed5780601f106106c2576101008083540402835291602001916106ed565b820191906000526020600020905b8154815290600101906020018083116106d057829003601f168201915b5050505050905090565b600033610705818585612ee5565b60019150505b92915050565b6033546001600160a01b0316331461075e5760405162461bcd60e51b81526020600482018190526024820152600080516020615f6d83398151915260448201526064015b60405180910390fd5b60d280546001600160a01b0319166001600160a01b0383169081179091556040519081527f6b7f177e85ebe3aabaf1339b9a445ac908b2bef730372180fa280958e2414ee3906020015b60405180910390a150565b60d1546001600160a01b031633146107f25760405162461bcd60e51b81526020600482015260026024820152614e4d60f01b6044820152606401610755565b60005b84811015610b4157600073__$b131e44167300e1b6d47510635310686a7$__6335f8054760cd89898681811061082d5761082d615683565b9050606002016040518363ffffffff1660e01b81526004016108509291906156fd565b6040805180830381865af415801561086c573d6000803e3d6000fd5b505050506040513d601f19601f820116820180604052508101906108909190615786565b50905080156108ca5760405162461bcd60e51b8152600401610755906020808252600490820152634e52524560e01b604082015260600190565b60c95460ca546000916001600160a01b037f0000000000000000000000000000000000000000000000000000000000000000811692631698ee8292821691168b8b8881811061091b5761091b615683565b905060600201604001602081019061093391906157b4565b6040516001600160e01b031960e086901b1681526001600160a01b03938416600482015292909116602483015262ffffff166044820152606401602060405180830381865afa15801561098a573d6000803e3d6000fd5b505050506040513d601f19601f820116820180604052508101906109ae91906157d1565b90506001600160a01b0381166109ec5760405162461bcd60e51b815260206004820152600360248201526204e55560ec1b6044820152606401610755565b6109f760d382613009565b610a275760405162461bcd60e51b81526020600482015260016024820152600560fc1b6044820152606401610755565b73__$57c880716d25c772e0b1e547659075b66d$__636b018820828a8a87818110610a5457610a54615683565b9050606002016040518363ffffffff1660e01b8152600401610a779291906157ee565b602060405180830381865af4158015610a94573d6000803e3d6000fd5b505050506040513d601f19601f82011682018060405250810190610ab8919061580b565b610aea5760405162461bcd60e51b815260206004820152600360248201526252545360e81b6044820152606401610755565b60cd888885818110610afe57610afe615683565b83546001810185556000948552602090942060609091029290920192919091019050610b2a8282615828565b505050508080610b39906158ca565b9150506107f5565b50610b4b8361302b565b60cf5460c9546040516370a0823160e01b81523060048201526001600160a01b03909116906370a0823190602401602060405180830381865afa158015610b96573d6000803e3d6000fd5b505050506040513d601f19601f82011682018060405250810190610bba91906158e3565b1015610bee5760405162461bcd60e51b815260206004820152600360248201526204d42360ec1b6044820152606401610755565b60d05460ca546040516370a0823160e01b81523060048201526001600160a01b03909116906370a0823190602401602060405180830381865afa158015610c39573d6000803e3d6000fd5b505050506040513d601f19601f82011682018060405250810190610c5d91906158e3565b1015610c915760405162461bcd60e51b81526020600482015260036024820152624d423160e81b6044820152606401610755565b60005b81811015610f165760008073__$b131e44167300e1b6d47510635310686a7$__6335f8054760cd878787818110610ccd57610ccd615683565b9050606002016040518363ffffffff1660e01b8152600401610cf09291906156fd565b6040805180830381865af4158015610d0c573d6000803e3d6000fd5b505050506040513d601f19601f82011682018060405250810190610d309190615786565b9150915081610d6a5760405162461bcd60e51b81526004016107559060208082526004908201526352524e4560e01b604082015260600190565b60c95460ca5473__$b131e44167300e1b6d47510635310686a7$__91637806db78917f00000000000000000000000000000000000000000000000000000000000000009130916001600160a01b0391821691168a8a8a818110610dcf57610dcf615683565b9050606002016040518663ffffffff1660e01b8152600401610df59594939291906158fc565b60006040518083038186803b158015610e0d57600080fd5b505af4158015610e21573d6000803e3d6000fd5b505060cd8054909250610e37915060019061593b565b81548110610e4757610e47615683565b9060005260206000200160cd8281548110610e6457610e64615683565b6000918252602090912082549101805462ffffff92831662ffffff19821681178355845463010000009081900485160265ffffffffffff199092161717808255925466010000000000009081900490921690910268ffffff0000000000001990921691909117905560cd805480610edd57610edd615952565b6000828152602090208101600019908101805468ffffffffffffffffff1916905501905550819050610f0e816158ca565b915050610c94565b505050505050565b600033610f2c858285613c67565b610f37858585613cf3565b60019150505b9392505050565b6000610f506001613ec1565b90508015610f68576000805461ff0019166101001790555b6000610f748380615968565b905011610fa95760405162461bcd60e51b815260206004820152600360248201526213919560ea1b6044820152606401610755565b6000610fbb604084016020850161518f565b6001600160a01b031603610ff65760405162461bcd60e51b8152602060048201526002602482015261054360f41b6044820152606401610755565b611006606083016040840161518f565b6001600160a01b031661101f604084016020850161518f565b6001600160a01b03161061105b5760405162461bcd60e51b815260206004820152600360248201526257544f60e81b6044820152606401610755565b600061106d608084016060850161518f565b6001600160a01b0316036110a95760405162461bcd60e51b815260206004820152600360248201526227a0ad60e91b6044820152606401610755565b60006110bb60e0840160c0850161518f565b6001600160a01b0316036110f75760405162461bcd60e51b815260206004820152600360248201526226a0ad60e91b6044820152606401610755565b61138861110c610120840161010085016153d6565b61ffff1611156111475760405162461bcd60e51b81526004016107559060208082526004908201526326aa26a160e11b604082015260600190565b60008260800135118061115e575060008260a00135115b61118e5760405162461bcd60e51b81526020600482015260016024820152604960f81b6044820152606401610755565b61120186868080601f01602080910402602001604051908101604052809392919081815260200183838082843760009201919091525050604080516020601f8a018190048102820181019092528881529250889150879081908401838280828437600092019190915250613fdc92505050565b611209614051565b61123b6112168380615968565b611226604086016020870161518f565b611236606087016040880161518f565b6140c4565b61125061124b60e0840184615968565b614244565b611260604083016020840161518f565b60c980546001600160a01b0319166001600160a01b0392909216919091179055611290606083016040840161518f565b60ca80546001600160a01b0319166001600160a01b03929092169190911790556112c86112c3608084016060850161518f565b6143c2565b6112d860e0830160c0840161518f565b60d180546001600160a01b0319166001600160a01b039290921691909117905561130a610120830161010084016153d6565b60d7805461ffff191661ffff92909216919091179055608082013560cb5560a082013560cc557f1b402611d70c7735d942445aaa3ebbf878149bece6b797870b44a581c5f7f4c961135b8380615968565b6040516113699291906159b2565b60405180910390a1604080516080840135815260a084013560208201527ff8966e026442bb0adb17149a6d44e394d2b6eb3c5cc1dc71b3c0698000548ae6910160405180910390a17f9b6ffaf4cbfd923495440b7f17ced9394289f001b3ead53ab67e2c3f3e39b0f56113e260e0840160c0850161518f565b6040516001600160a01b03909116815260200160405180910390a17f79e76005a798594dd5fb1a03d053fd360c5ad330b345f58fdf89519fa57f01f0611430610120840161010085016153d6565b60405161ffff909116815260200160405180910390a18015610f16576000805461ff0019169055604051600181527f7f26b83ff96e1f2b6a682f133852f6798a09c465da95921460cefb38474024989060200160405180910390a1505050505050565b3360008181526066602090815260408083206001600160a01b038716845290915281205490919061070590829086906114cd9087906159fc565b612ee5565b60008211806114e15750600081115b6115115760405162461bcd60e51b81526020600482015260016024820152604960f81b6044820152606401610755565b606754156115465760405162461bcd60e51b8152602060048201526002602482015261545360f01b6044820152606401610755565b60d2546000906001600160a01b03161561156b5760d2546001600160a01b0316611578565b6033546001600160a01b03165b9050336001600160a01b038216146115b65760405162461bcd60e51b81526020600482015260016024820152602960f91b6044820152606401610755565b60cb83905560cc82905560408051848152602081018490527ff8966e026442bb0adb17149a6d44e394d2b6eb3c5cc1dc71b3c0698000548ae6910160405180910390a1505050565b60d1546001600160a01b0316331461163d5760405162461bcd60e51b81526020600482015260026024820152614e4d60f01b6044820152606401610755565b6127108161ffff1611156116795760405162461bcd60e51b81526020600482015260036024820152624d464f60e81b6044820152606401610755565b60ce805461ffff191661ffff83169081179091556040519081527fa73ff0774d4c8681f79fa6546f34bab7a3037f3b3aab405401a1fd8c6e5ca3d6906020016107a8565b6033546001600160a01b031633146117055760405162461bcd60e51b81526020600482018190526024820152600080516020615f6d8339815191526044820152606401610755565b60005b818110156117b85761174283838381811061172557611725615683565b905060200201602081019061173a919061518f565b60d390613009565b6117735760405162461bcd60e51b815260206004820152600260248201526104e560f41b6044820152606401610755565b6117a583838381811061178857611788615683565b905060200201602081019061179d919061518f565b60d390614414565b50806117b0816158ca565b915050611708565b507f024551cce253d1a442bfe99dae530a00a492fb8c67c4456cce3c9d23eecd396182826040516117ea929190615a14565b60405180910390a15050565b60cd818154811061180657600080fd5b600091825260209091200154600281810b925063010000008204900b906601000000000000900462ffffff1683565b606060cd805480602002602001604051908101604052809291908181526020016000905b828210156118af5760008481526020908190206040805160608101825291850154600281810b845263010000008204900b838501526601000000000000900462ffffff1690820152825260019092019101611859565b50505050905090565b6033546001600160a01b031633146119005760405162461bcd60e51b81526020600482018190526024820152600080516020615f6d8339815191526044820152606401610755565b61190a60006143c2565b565b60026097540361195e5760405162461bcd60e51b815260206004820152601f60248201527f5265656e7472616e637947756172643a207265656e7472616e742063616c6c006044820152606401610755565b600260975560cf805460d080546000938490559290559081156119985760d15460c954611998916001600160a01b03918216911684614429565b80156119bb5760d15460ca546119bb916001600160a01b03918216911683614429565b60408051838152602081018390527fa292e28c648da34e20b372054caab5f0359198b3b4d5f0ef9945d4616e15dc97910160405180910390a150506001609755565b6033546001600160a01b03163314611a455760405162461bcd60e51b81526020600482018190526024820152600080516020615f6d8339815191526044820152606401610755565b60c95460ca54611a6591849184916001600160a01b0390811691166140c4565b7f1b402611d70c7735d942445aaa3ebbf878149bece6b797870b44a581c5f7f4c982826040516117ea9291906159b2565b6033546001600160a01b03163314611ade5760405162461bcd60e51b81526020600482018190526024820152600080516020615f6d8339815191526044820152606401610755565b60005b81811015611b9157611b1b838383818110611afe57611afe615683565b9050602002016020810190611b13919061518f565b60d590613009565b611b4c5760405162461bcd60e51b8152602060048201526002602482015261525760f01b6044820152606401610755565b611b7e838383818110611b6157611b61615683565b9050602002016020810190611b76919061518f565b60d590614414565b5080611b89816158ca565b915050611ae1565b507fbe6c83115c5bf7fd07e41c6002394841bd7dc0348f3b7c58645e8950f604f5c482826040516117ea929190615a14565b600080600260975403611c185760405162461bcd60e51b815260206004820152601f60248201527f5265656e7472616e637947756172643a207265656e7472616e742063616c6c006044820152606401610755565b600260975583611c4f5760405162461bcd60e51b81526020600482015260026024820152614d4160f01b6044820152606401610755565b60d2546001600160a01b03161580611c71575060d2546001600160a01b031633145b611ca15760405162461bcd60e51b81526020600482015260016024820152602960f91b6044820152606401610755565b306000611cad60675490565b9050801515600080808084611cca5760cb5460cc54600080611e22565b73__$3d23d8578387a47facd93bb77f6fe6e81b$__63e56f4d916040518060a0016040528060cd805480602002602001604051908101604052809291908181526020016000905b82821015611d675760008481526020908190206040805160608101825291850154600281810b845263010000008204900b838501526601000000000000900462ffffff1690820152825260019092019101611d11565b505050908252506001600160a01b037f00000000000000000000000000000000000000000000000000000000000000008116602083015260c954811660408084019190915260ca5482166060840152908c16608090920191909152516001600160e01b031960e084901b168152611de19190600401615a57565b608060405180830381865af4158015611dfe573d6000803e3d6000fd5b505050506040513d601f19601f82011682018060405250810190611e229190615b23565b9350935093509350600085611e3f57670de0b6b3a7640000611e41565b865b9050611e4e8c86836144a6565b9950611e5b8c85836144a6565b985085611ee857600085600003611e7457600019611e7f565b611e7f8b83886144ef565b9050600085600003611e9357600019611e9e565b611e9e8b84886144ef565b90508d818310611eae5781611eb0565b825b14611ee55760405162461bcd60e51b8152602060048201526005602482015264413026413160d81b6044820152606401610755565b50505b611ef28b8d61459d565b8915611f105760c954611f10906001600160a01b0316338a8d61467c565b8815611f2e5760ca54611f2e906001600160a01b0316338a8c61467c565b60408051848152602081018490527f3a2c380ba0250aca22c1b7f98782a7504335a0c9f8626ab66e84907722fce70d910160405180910390a1604080518d8152602081018c90529081018a90526001600160a01b038c16907f5f11830295067c4bcc7d02d4e3b048cd7427be50a3aeb6afc9d3d559ee64bcfa9060600160405180910390a2505050505050505060016097819055509250929050565b60606069805461067490615649565b3360008181526066602090815260408083206001600160a01b03871684529091528120549091908381101561205e5760405162461bcd60e51b815260206004820152602560248201527f45524332303a2064656372656173656420616c6c6f77616e63652062656c6f77604482015264207a65726f60d81b6064820152608401610755565b61206b8286868403612ee5565b506001949350505050565b6033546001600160a01b031633146120be5760405162461bcd60e51b81526020600482018190526024820152600080516020615f6d8339815191526044820152606401610755565b6120c88282614244565b5050565b600033610705818585613cf3565b6033546001600160a01b031633146121225760405162461bcd60e51b81526020600482018190526024820152600080516020615f6d8339815191526044820152606401610755565b61138861ffff821611156121615760405162461bcd60e51b81526004016107559060208082526004908201526326aa26a160e11b604082015260600190565b60d7805461ffff191661ffff83169081179091556040519081527f79e76005a798594dd5fb1a03d053fd360c5ad330b345f58fdf89519fa57f01f0906020016107a8565b6033546001600160a01b031633146121ed5760405162461bcd60e51b81526020600482018190526024820152600080516020615f6d8339815191526044820152606401610755565b60d180546001600160a01b0319166001600160a01b0383169081179091556040519081527f9b6ffaf4cbfd923495440b7f17ced9394289f001b3ead53ab67e2c3f3e39b0f5906020016107a8565b61224584846146b4565b50505050565b6033546001600160a01b031633146122935760405162461bcd60e51b81526020600482018190526024820152600080516020615f6d8339815191526044820152606401610755565b6001600160a01b0381166122f85760405162461bcd60e51b815260206004820152602660248201527f4f776e61626c653a206e6577206f776e657220697320746865207a65726f206160448201526564647265737360d01b6064820152608401610755565b612301816143c2565b50565b6000806002609754036123595760405162461bcd60e51b815260206004820152601f60248201527f5265656e7472616e637947756172643a207265656e7472616e742063616c6c006044820152606401610755565b6002609755836123905760405162461bcd60e51b8152602060048201526002602482015261424160f01b6044820152606401610755565b600061239b60675490565b9050600081116123d25760405162461bcd60e51b8152602060048201526002602482015261545360f01b6044820152606401610755565b61240b6040518060c001604052806000815260200160008152602001600081526020016000815260200160008152602001600081525090565b73__$3d23d8578387a47facd93bb77f6fe6e81b$__63e56f4d916040518060a0016040528060cd805480602002602001604051908101604052809291908181526020016000905b828210156124a85760008481526020908190206040805160608101825291850154600281810b845263010000008204900b838501526601000000000000900462ffffff1690820152825260019092019101612452565b505050908252506001600160a01b037f00000000000000000000000000000000000000000000000000000000000000008116602083015260c954811660408084019190915260ca54909116606083015230608090920191909152516001600160e01b031960e084901b1681526125219190600401615a57565b608060405180830381865af415801561253e573d6000803e3d6000fd5b505050506040513d601f19601f820116820180604052508101906125629190615b23565b6060850152604080850191909152602084019190915290825260cf5460c95491516370a0823160e01b815230600482015290916001600160a01b0316906370a0823190602401602060405180830381865afa1580156125c5573d6000803e3d6000fd5b505050506040513d601f19601f820116820180604052508101906125e991906158e3565b6125f3919061593b565b608082015260d05460ca546040516370a0823160e01b81523060048201526001600160a01b03909116906370a0823190602401602060405180830381865afa158015612643573d6000803e3d6000fd5b505050506040513d601f19601f8201168201806040525081019061266791906158e3565b612671919061593b565b60a082015280516126839087846144ef565b9350612694816020015187846144ef565b9250838160800151101580156126ae5750828160a0015110155b1561274a576126bd338761472a565b83156126da5760c9546126da906001600160a01b03168686614429565b82156126f75760ca546126f7906001600160a01b03168685614429565b60408051878152602081018690529081018490526001600160a01b038616907f86dacd5ce62967ebd3d915a82b22ad7e159538e50c7ba451e073fec048d9f1279060600160405180910390a25050612ed5565b8661277b5760405162461bcd60e51b81526020600482015260016024820152602160f91b6044820152606401610755565b612785338761472a565b6127b06040518060800160405280600081526020016000815260200160008152602001600081525090565b60005b88811015612ad0578989828181106127cd576127cd615683565b6127e39260206080909202019081019150615b6e565b6001600160801b03166000036128205760405162461bcd60e51b8152602060048201526002602482015261262d60f11b6044820152606401610755565b600073__$b131e44167300e1b6d47510635310686a7$__6335f8054760cd8d8d8681811061285057612850615683565b9050608002016020016040518363ffffffff1660e01b81526004016128769291906156fd565b6040805180830381865af4158015612892573d6000803e3d6000fd5b505050506040513d601f19601f820116820180604052508101906128b69190615786565b509050806128ef5760405162461bcd60e51b81526004016107559060208082526004908201526352524e4560e01b604082015260600190565b5060c95460ca54600091612a5b916001600160a01b037f0000000000000000000000000000000000000000000000000000000000000000811692631698ee829290821691168f8f8881811061294657612946615683565b61295d9260809182020190810191506060016157b4565b6040516001600160e01b031960e086901b1681526001600160a01b03938416600482015292909116602483015262ffffff166044820152606401602060405180830381865afa1580156129b4573d6000803e3d6000fd5b505050506040513d601f19601f820116820180604052508101906129d891906157d1565b8c8c858181106129ea576129ea615683565b612a039260406080909202019081019150602001615b8b565b8d8d86818110612a1557612a15615683565b612a2e9260606080909202019081019150604001615b8b565b8e8e87818110612a4057612a40615683565b612a569260206080909202019081019150615b6e565b614878565b9050806040015183604001818151612a7391906159fc565b9052506060808201519084018051612a8c9083906159fc565b905250805183518490612aa09083906159fc565b9052506020808201519084018051612ab99083906159fc565b905250819050612ac8816158ca565b9150506127b3565b50612ae381604001518260600151614a03565b8415612b005760c954612b00906001600160a01b03168787614429565b8315612b1d5760ca54612b1d906001600160a01b03168786614429565b60cf5460c9546040516370a0823160e01b8152306004820152600092916001600160a01b0316906370a0823190602401602060405180830381865afa158015612b6a573d6000803e3d6000fd5b505050506040513d601f19601f82011682018060405250810190612b8e91906158e3565b612b98919061593b565b60d05460ca546040516370a0823160e01b81523060048201529293506000926001600160a01b03909116906370a0823190602401602060405180830381865afa158015612be9573d6000803e3d6000fd5b505050506040513d601f19601f82011682018060405250810190612c0d91906158e3565b612c17919061593b565b604084810151606086015160ce5492516348c619c760e01b81526004810192909252602482015261ffff9091166044820152909150600090819073__$3d23d8578387a47facd93bb77f6fe6e81b$__906348c619c7906064016040805180830381865af4158015612c8c573d6000803e3d6000fd5b505050506040513d601f19601f82011682018060405250810190612cb09190615ba8565b915091508382101580612cd057506080860151612ccd838661593b565b11155b80612d085750845160d754612cec919061ffff166127106144ef565b6080870151612cfb848761593b565b612d05919061593b565b11155b612d395760405162461bcd60e51b815260206004820152600260248201526104c360f41b6044820152606401610755565b8281101580612d55575060a0860151612d52828561593b565b11155b80612d905750602085015160d754612d74919061ffff166127106144ef565b60a0870151612d83838661593b565b612d8d919061593b565b11155b612dc15760405162461bcd60e51b81526020600482015260026024820152614c3160f01b6044820152606401610755565b5050825160208085015160408051938452918301523393507fbcc5876d59ecdf66ef7ccae24657b11650939218782f8d741e78fd3c35d285a392500160405180910390a26040808301516060840151825191825260208201527f3a2c380ba0250aca22c1b7f98782a7504335a0c9f8626ab66e84907722fce70d910160405180910390a16040808201516060830151825191825260208201527fdbbb3a796242c9562af701570b096cb2478cd507fcd2d4080025883b10a623a5910160405180910390a160408051888152602081018790529081018590526001600160a01b038716907f86dacd5ce62967ebd3d915a82b22ad7e159538e50c7ba451e073fec048d9f1279060600160405180910390a25050505b6001609755909590945092505050565b6001600160a01b038316612f475760405162461bcd60e51b8152602060048201526024808201527f45524332303a20617070726f76652066726f6d20746865207a65726f206164646044820152637265737360e01b6064820152608401610755565b6001600160a01b038216612fa85760405162461bcd60e51b815260206004820152602260248201527f45524332303a20617070726f766520746f20746865207a65726f206164647265604482015261737360f01b6064820152608401610755565b6001600160a01b0383811660008181526066602090815260408083209487168084529482529182902085905590518481527f8c5be1e5ebec7d5bd14f71427d1e84f3dd0314c0f7b2291e5b200ac8c7c3b925910160405180910390a3505050565b6001600160a01b03811660009081526001830160205260408120541515610f3d565b60026097540361307d5760405162461bcd60e51b815260206004820152601f60248201527f5265656e7472616e637947756172643a207265656e7472616e742063616c6c006044820152606401610755565b600260975560c95460ca5460408051608081018252600080825260208201819052918101829052606081018290527f0000000000000000000000000000000000000000000000000000000000000000936001600160a01b039081169316915b6130e68680615bcc565b90508110156132b25760006001600160a01b038616631698ee82868661310c8b80615bcc565b8781811061311c5761311c615683565b6131339260809182020190810191506060016157b4565b6040516001600160e01b031960e086901b1681526001600160a01b03938416600482015292909116602483015262ffffff166044820152606401602060405180830381865afa15801561318a573d6000803e3d6000fd5b505050506040513d601f19601f820116820180604052508101906131ae91906157d1565b9050806000613237826131c18b80615bcc565b878181106131d1576131d1615683565b6131ea9260406080909202019081019150602001615b8b565b6131f48c80615bcc565b8881811061320457613204615683565b61321d9260606080909202019081019150604001615b8b565b6132278d80615bcc565b89818110612a4057612a40615683565b8051865191925090869061324c9083906159fc565b90525060208082015190860180516132659083906159fc565b905250604080820151908601805161327e9083906159fc565b90525060608082015190860180516132979083906159fc565b9052508392506132aa91508290506158ca565b9150506130dc565b508051606086013511156132ed5760405162461bcd60e51b8152602060048201526002602482015261042360f41b6044820152606401610755565b84608001358160200151101561332a5760405162461bcd60e51b8152602060048201526002602482015261423160f01b6044820152606401610755565b600081604001511180613341575060008160600151115b156133995761335881604001518260600151614a03565b6040808201516060830151825191825260208201527fdbbb3a796242c9562af701570b096cb2478cd507fcd2d4080025883b10a623a5910160405180910390a15b5060006133a96040860186615c16565b604001351115613877576133d46133c36040860186615c16565b611b1390604081019060200161518f565b6134055760405162461bcd60e51b8152602060048201526002602482015261272960f11b6044820152606401610755565b60c9546040516370a0823160e01b81523060048201526000916001600160a01b0316906370a0823190602401602060405180830381865afa15801561344e573d6000803e3d6000fd5b505050506040513d601f19601f8201168201806040525081019061347291906158e3565b60ca546040516370a0823160e01b81523060048201529192506000916001600160a01b03909116906370a0823190602401602060405180830381865afa1580156134c0573d6000803e3d6000fd5b505050506040513d601f19601f820116820180604052508101906134e491906158e3565b905061351b6134f66040880188615c16565b61350790604081019060200161518f565b60c9546001600160a01b0316906000614a6e565b61355061352b6040880188615c16565b61353c90604081019060200161518f565b60ca546001600160a01b0316906000614a6e565b6135846135606040880188615c16565b61357190604081019060200161518f565b60c9546001600160a01b03169084614a6e565b6135b86135946040880188615c16565b6135a590604081019060200161518f565b60ca546001600160a01b03169083614a6e565b60006135c76040880188615c16565b6135d890604081019060200161518f565b6001600160a01b03166135ee6040890189615c16565b6135f89080615c36565b604051613606929190615c7d565b6000604051808303816000865af19150503d8060008114613643576040519150601f19603f3d011682016040523d82523d6000602084013e613648565b606091505b505090508061367e5760405162461bcd60e51b8152602060048201526002602482015261534360f01b6044820152606401610755565b60c9546040516370a0823160e01b81523060048201526000916001600160a01b0316906370a0823190602401602060405180830381865afa1580156136c7573d6000803e3d6000fd5b505050506040513d601f19601f820116820180604052508101906136eb91906158e3565b60ca546040516370a0823160e01b81523060048201529192506000916001600160a01b03909116906370a0823190602401602060405180830381865afa158015613739573d6000803e3d6000fd5b505050506040513d601f19601f8201168201806040525081019061375d91906158e3565b905061376c60408a018a615c16565b61377d9060a0810190608001615c98565b156137fc5761378f60408a018a615c16565b61379d9060600135856159fc565b81101580156137c657506137b460408a018a615c16565b6137c290604001358661593b565b8210155b6137f75760405162461bcd60e51b815260206004820152600260248201526129a360f11b6044820152606401610755565b613871565b61380960408a018a615c16565b6138179060600135866159fc565b8210158015613840575061382e60408a018a615c16565b61383c90604001358561593b565b8110155b6138715760405162461bcd60e51b815260206004820152600260248201526129a360f11b6044820152606401610755565b50505050505b60008060005b61388a6020880188615bcc565b9050811015613bb05760006001600160a01b038716631698ee8287876138b360208d018d615bcc565b878181106138c3576138c3615683565b6138da9260809182020190810191506060016157b4565b6040516001600160e01b031960e086901b1681526001600160a01b03938416600482015292909116602483015262ffffff166044820152606401602060405180830381865afa158015613931573d6000803e3d6000fd5b505050506040513d601f19601f8201168201806040525081019061395591906157d1565b9050600073__$b131e44167300e1b6d47510635310686a7$__6335f8054760cd61398260208d018d615bcc565b8781811061399257613992615683565b9050608002016020016040518363ffffffff1660e01b81526004016139b89291906156fd565b6040805180830381865af41580156139d4573d6000803e3d6000fd5b505050506040513d601f19601f820116820180604052508101906139f89190615786565b50905080613a2e5760405162461bcd60e51b815260206004820152600360248201526244524560e81b6044820152606401610755565b6000806001600160a01b038416633c8a7d8d30613a4e60208f018f615bcc565b89818110613a5e57613a5e615683565b613a779260406080909202019081019150602001615b8b565b8e8060200190613a879190615bcc565b8a818110613a9757613a97615683565b613ab09260606080909202019081019150604001615b8b565b8f8060200190613ac09190615bcc565b8b818110613ad057613ad0615683565b613ae69260206080909202019081019150615b6e565b6040516001600160e01b031960e087901b1681526001600160a01b039094166004850152600292830b6024850152910b60448301526001600160801b0316606482015260a06084820152600060a482015260c40160408051808303816000875af1158015613b58573d6000803e3d6000fd5b505050506040513d601f19601f82011682018060405250810190613b7c9190615ba8565b9092509050613b8b82886159fc565b9650613b9781876159fc565b9550505050508080613ba8906158ca565b91505061387d565b508560a00135821015613bea5760405162461bcd60e51b8152602060048201526002602482015261044360f41b6044820152606401610755565b8560c00135811015613c235760405162461bcd60e51b8152602060048201526002602482015261443160f01b6044820152606401610755565b7f4fd7f8c9096d7539cbf99112fb12e4c66707a1ced3478c52716923015e92b47786604051613c529190615e20565b60405180910390a15050600160975550505050565b6001600160a01b0383811660009081526066602090815260408083209386168352929052205460001981146122455781811015613ce65760405162461bcd60e51b815260206004820152601d60248201527f45524332303a20696e73756666696369656e7420616c6c6f77616e63650000006044820152606401610755565b6122458484848403612ee5565b6001600160a01b038316613d575760405162461bcd60e51b815260206004820152602560248201527f45524332303a207472616e736665722066726f6d20746865207a65726f206164604482015264647265737360d81b6064820152608401610755565b6001600160a01b038216613db95760405162461bcd60e51b815260206004820152602360248201527f45524332303a207472616e7366657220746f20746865207a65726f206164647260448201526265737360e81b6064820152608401610755565b6001600160a01b03831660009081526065602052604090205481811015613e315760405162461bcd60e51b815260206004820152602660248201527f45524332303a207472616e7366657220616d6f756e7420657863656564732062604482015265616c616e636560d01b6064820152608401610755565b6001600160a01b03808516600090815260656020526040808220858503905591851681529081208054849290613e689084906159fc565b92505081905550826001600160a01b0316846001600160a01b03167fddf252ad1be2c89b69c2b068fc378daa952ba7f163c4a11628f55a4df523b3ef84604051613eb491815260200190565b60405180910390a3612245565b60008054610100900460ff1615613f4f578160ff166001148015613ee45750303b155b613f475760405162461bcd60e51b815260206004820152602e60248201527f496e697469616c697a61626c653a20636f6e747261637420697320616c72656160448201526d191e481a5b9a5d1a585b1a5e995960921b6064820152608401610755565b506000919050565b60005460ff808416911610613fbd5760405162461bcd60e51b815260206004820152602e60248201527f496e697469616c697a61626c653a20636f6e747261637420697320616c72656160448201526d191e481a5b9a5d1a585b1a5e995960921b6064820152608401610755565b506000805460ff191660ff92909216919091179055600190565b919050565b600054610100900460ff166140475760405162461bcd60e51b815260206004820152602b60248201527f496e697469616c697a61626c653a20636f6e7472616374206973206e6f74206960448201526a6e697469616c697a696e6760a81b6064820152608401610755565b6120c88282614b8a565b600054610100900460ff166140bc5760405162461bcd60e51b815260206004820152602b60248201527f496e697469616c697a61626c653a20636f6e7472616374206973206e6f74206960448201526a6e697469616c697a696e6760a81b6064820152608401610755565b61190a614c1c565b60005b8381101561423d5760007f00000000000000000000000000000000000000000000000000000000000000006001600160a01b0316631698ee82858589898781811061411457614114615683565b905060200201602081019061412991906157b4565b6040516001600160e01b031960e086901b1681526001600160a01b03938416600482015292909116602483015262ffffff166044820152606401602060405180830381865afa158015614180573d6000803e3d6000fd5b505050506040513d601f19601f820116820180604052508101906141a491906157d1565b90506001600160a01b0381166141e15760405162461bcd60e51b81526020600482015260026024820152615a4160f01b6044820152606401610755565b6141ec60d382613009565b1561421d5760405162461bcd60e51b81526020600482015260016024820152600560fc1b6044820152606401610755565b61422860d382614c8e565b50508080614235906158ca565b9150506140c7565b5050505050565b60005b818110156143905760c9546001600160a01b031683838381811061426d5761426d615683565b9050602002016020810190614282919061518f565b6001600160a01b0316141580156142d3575060ca546001600160a01b03168383838181106142b2576142b2615683565b90506020020160208101906142c7919061518f565b6001600160a01b031614155b6143045760405162461bcd60e51b8152602060048201526002602482015261149560f21b6044820152606401610755565b614319838383818110611afe57611afe615683565b1561434b5760405162461bcd60e51b815260206004820152600260248201526121a960f11b6044820152606401610755565b61437d83838381811061436057614360615683565b9050602002016020810190614375919061518f565b60d590614c8e565b5080614388816158ca565b915050614247565b507f102656122b5bfb41d864259a385db02d34584f3a71b6c6c35c14cbdaf9038fe682826040516117ea929190615a14565b603380546001600160a01b038381166001600160a01b0319831681179093556040519116919082907f8be0079c531659141344cd1fd0a4f28419497f9722a3daafe3b4186f6b6457e090600090a35050565b6000610f3d836001600160a01b038416614ca3565b6040516001600160a01b0383166024820152604481018290526144a190849063a9059cbb60e01b906064015b60408051601f198184030181529190526020810180517bffffffffffffffffffffffffffffffffffffffffffffffffffffffff166001600160e01b031990931692909217909152614d96565b505050565b60006144b38484846144ef565b9050600082806144c5576144c5615ed4565b8486091115610f3d5760001981106144dc57600080fd5b806144e6816158ca565b95945050505050565b6000808060001985870985870292508281108382030391505080600003614528576000841161451d57600080fd5b508290049050610f3d565b80841161453457600080fd5b60008486880960026001871981018816978890046003810283188082028403028082028403028082028403028082028403028082028403029081029092039091026000889003889004909101858311909403939093029303949094049190911702949350505050565b6001600160a01b0382166145f35760405162461bcd60e51b815260206004820152601f60248201527f45524332303a206d696e7420746f20746865207a65726f2061646472657373006044820152606401610755565b806067600082825461460591906159fc565b90915550506001600160a01b038216600090815260656020526040812080548392906146329084906159fc565b90915550506040518181526001600160a01b038316906000907fddf252ad1be2c89b69c2b068fc378daa952ba7f163c4a11628f55a4df523b3ef9060200160405180910390a35050565b6040516001600160a01b03808516602483015283166044820152606481018290526122459085906323b872dd60e01b90608401614455565b6146bf60d333613009565b6146f05760405162461bcd60e51b8152602060048201526002602482015261434360f01b6044820152606401610755565b811561470d5760c95461470d906001600160a01b03163384614429565b80156120c85760ca546120c8906001600160a01b03163383614429565b6001600160a01b03821661478a5760405162461bcd60e51b815260206004820152602160248201527f45524332303a206275726e2066726f6d20746865207a65726f206164647265736044820152607360f81b6064820152608401610755565b6001600160a01b038216600090815260656020526040902054818110156147fe5760405162461bcd60e51b815260206004820152602260248201527f45524332303a206275726e20616d6f756e7420657863656564732062616c616e604482015261636560f01b6064820152608401610755565b6001600160a01b038316600090815260656020526040812083830390556067805484929061482d90849061593b565b90915550506040518281526000906001600160a01b038516907fddf252ad1be2c89b69c2b068fc378daa952ba7f163c4a11628f55a4df523b3ef9060200160405180910390a3505050565b6148a36040518060800160405280600081526020016000815260200160008152602001600081525090565b60405163a34123a760e01b8152600285810b600483015284900b60248201526001600160801b03831660448201526001600160a01b0386169063a34123a79060640160408051808303816000875af1158015614903573d6000803e3d6000fd5b505050506040513d601f19601f820116820180604052508101906149279190615ba8565b602083015281526040516309e3d67b60e31b8152306004820152600285810b602483015284900b60448201526001600160801b0360648201819052608482015260009081906001600160a01b03881690634f1eb3d89060a40160408051808303816000875af115801561499e573d6000803e3d6000fd5b505050506040513d601f19601f820116820180604052508101906149c29190615eea565b84516001600160801b039283169450911691506149df908361593b565b604084015260208301516149f3908261593b565b6060840152509095945050505050565b60ce5461ffff16612710614a178285615f19565b614a219190615f38565b60cf6000828254614a3291906159fc565b909155506127109050614a4961ffff831684615f19565b614a539190615f38565b60d06000828254614a6491906159fc565b9091555050505050565b801580614ae85750604051636eb1769f60e11b81523060048201526001600160a01b03838116602483015284169063dd62ed3e90604401602060405180830381865afa158015614ac2573d6000803e3d6000fd5b505050506040513d601f19601f82011682018060405250810190614ae691906158e3565b155b614b5a5760405162461bcd60e51b815260206004820152603660248201527f5361666545524332303a20617070726f76652066726f6d206e6f6e2d7a65726f60448201527f20746f206e6f6e2d7a65726f20616c6c6f77616e6365000000000000000000006064820152608401610755565b6040516001600160a01b0383166024820152604481018290526144a190849063095ea7b360e01b90606401614455565b600054610100900460ff16614bf55760405162461bcd60e51b815260206004820152602b60248201527f496e697469616c697a61626c653a20636f6e7472616374206973206e6f74206960448201526a6e697469616c697a696e6760a81b6064820152608401610755565b8151614c0890606890602085019061504b565b5080516144a190606990602084019061504b565b600054610100900460ff16614c875760405162461bcd60e51b815260206004820152602b60248201527f496e697469616c697a61626c653a20636f6e7472616374206973206e6f74206960448201526a6e697469616c697a696e6760a81b6064820152608401610755565b6001609755565b6000610f3d836001600160a01b038416614e7b565b60008181526001830160205260408120548015614d8c576000614cc760018361593b565b8554909150600090614cdb9060019061593b565b9050818114614d40576000866000018281548110614cfb57614cfb615683565b9060005260206000200154905080876000018481548110614d1e57614d1e615683565b6000918252602080832090910192909255918252600188019052604090208390555b8554869080614d5157614d51615952565b60019003818190600052602060002001600090559055856001016000868152602001908152602001600020600090556001935050505061070b565b600091505061070b565b6000614deb826040518060400160405280602081526020017f5361666545524332303a206c6f772d6c6576656c2063616c6c206661696c6564815250856001600160a01b0316614eca9092919063ffffffff16565b8051909150156144a15780806020019051810190614e09919061580b565b6144a15760405162461bcd60e51b815260206004820152602a60248201527f5361666545524332303a204552433230206f7065726174696f6e20646964206e60448201527f6f742073756363656564000000000000000000000000000000000000000000006064820152608401610755565b6000818152600183016020526040812054614ec25750815460018181018455600084815260208082209093018490558454848252828601909352604090209190915561070b565b50600061070b565b6060614ed98484600085614ee1565b949350505050565b606082471015614f425760405162461bcd60e51b815260206004820152602660248201527f416464726573733a20696e73756666696369656e742062616c616e636520666f6044820152651c8818d85b1b60d21b6064820152608401610755565b6001600160a01b0385163b614f995760405162461bcd60e51b815260206004820152601d60248201527f416464726573733a2063616c6c20746f206e6f6e2d636f6e74726163740000006044820152606401610755565b600080866001600160a01b03168587604051614fb59190615f5a565b60006040518083038185875af1925050503d8060008114614ff2576040519150601f19603f3d011682016040523d82523d6000602084013e614ff7565b606091505b5091509150615007828286615012565b979650505050505050565b60608315615021575081610f3d565b8251156150315782518084602001fd5b8160405162461bcd60e51b81526004016107559190615110565b82805461505790615649565b90600052602060002090601f01602090048101928261507957600085556150bf565b82601f1061509257805160ff19168380011785556150bf565b828001600101855582156150bf579182015b828111156150bf5782518255916020019190600101906150a4565b506150cb9291506150cf565b5090565b5b808211156150cb57600081556001016150d0565b60005b838110156150ff5781810151838201526020016150e7565b838111156122455750506000910152565b602081526000825180602084015261512f8160408501602087016150e4565b601f01601f19169190910160400192915050565b6001600160a01b038116811461230157600080fd5b8035613fd781615143565b6000806040838503121561517657600080fd5b823561518181615143565b946020939093013593505050565b6000602082840312156151a157600080fd5b8135610f3d81615143565b60008083601f8401126151be57600080fd5b50813567ffffffffffffffff8111156151d657600080fd5b6020830191508360206060830285010111156151f157600080fd5b9250929050565b60008060008060006060868803121561521057600080fd5b853567ffffffffffffffff8082111561522857600080fd5b61523489838a016151ac565b9097509550602088013591508082111561524d57600080fd5b9087019060e0828a03121561526157600080fd5b9093506040870135908082111561527757600080fd5b50615284888289016151ac565b969995985093965092949392505050565b6000806000606084860312156152aa57600080fd5b83356152b581615143565b925060208401356152c581615143565b929592945050506040919091013590565b60008083601f8401126152e857600080fd5b50813567ffffffffffffffff81111561530057600080fd5b6020830191508360208285010111156151f157600080fd5b60008060008060006060868803121561533057600080fd5b853567ffffffffffffffff8082111561534857600080fd5b61535489838a016152d6565b9097509550602088013591508082111561536d57600080fd5b61537989838a016152d6565b9095509350604088013591508082111561539257600080fd5b50860161012081890312156153a657600080fd5b809150509295509295909350565b600080604083850312156153c757600080fd5b50508035926020909101359150565b6000602082840312156153e857600080fd5b813561ffff81168114610f3d57600080fd5b60008083601f84011261540c57600080fd5b50813567ffffffffffffffff81111561542457600080fd5b6020830191508360208260051b85010111156151f157600080fd5b6000806020838503121561545257600080fd5b823567ffffffffffffffff81111561546957600080fd5b615475858286016153fa565b90969095509350505050565b60006020828403121561549357600080fd5b5035919050565b6020808252825182820181905260009190848201906040850190845b818110156154fe576154eb838551805160020b8252602081015160020b602083015262ffffff60408201511660408301525050565b92840192606092909201916001016154b6565b50909695505050505050565b6000806040838503121561551d57600080fd5b82359150602083013561552f81615143565b809150509250929050565b6000806000806060858703121561555057600080fd5b8435935060208501359250604085013567ffffffffffffffff81111561557557600080fd5b615581878288016152d6565b95989497509550505050565b600080604083850312156155a057600080fd5b82356155ab81615143565b9150602083013561552f81615143565b600080600080606085870312156155d157600080fd5b843567ffffffffffffffff808211156155e957600080fd5b818701915087601f8301126155fd57600080fd5b81358181111561560c57600080fd5b8860208260071b850101111561562157600080fd5b602092830196509450508501359150604085013561563e81615143565b939692955090935050565b600181811c9082168061565d57607f821691505b60208210810361567d57634e487b7160e01b600052602260045260246000fd5b50919050565b634e487b7160e01b600052603260045260246000fd5b8060020b811461230157600080fd5b62ffffff8116811461230157600080fd5b80356156c481615699565b60020b825260208101356156d781615699565b60020b602083015260408101356156ed816156a8565b62ffffff81166040840152505050565b6000608082016080835280855480835260a08501915086600052602092508260002060005b8281101561575d578154600281810b8652601882901c900b8686015260301c62ffffff16604085015260609093019260019182019101615722565b50505080925050615770818401856156b9565b509392505050565b801515811461230157600080fd5b6000806040838503121561579957600080fd5b82516157a481615778565b6020939093015192949293505050565b6000602082840312156157c657600080fd5b8135610f3d816156a8565b6000602082840312156157e357600080fd5b8151610f3d81615143565b6001600160a01b038316815260808101610f3d60208301846156b9565b60006020828403121561581d57600080fd5b8151610f3d81615778565b813561583381615699565b815462ffffff82811662ffffff198316178455602085013561585481615699565b8060181b9050818416935065ffffff00000091508082168465ffffffffffff198516171785556040860135615888816156a8565b911668ffffffffffffffffff19929092169092171760309190911b68ffffff0000000000001617905550565b634e487b7160e01b600052601160045260246000fd5b6000600182016158dc576158dc6158b4565b5060010190565b6000602082840312156158f557600080fd5b5051919050565b6001600160a01b038681168252858116602083015284811660408301528316606082015260e0810161593160808301846156b9565b9695505050505050565b60008282101561594d5761594d6158b4565b500390565b634e487b7160e01b600052603160045260246000fd5b6000808335601e1984360301811261597f57600080fd5b83018035915067ffffffffffffffff82111561599a57600080fd5b6020019150600581901b36038213156151f157600080fd5b60208082528181018390526000908460408401835b868110156159f15782356159da816156a8565b62ffffff16825291830191908301906001016159c7565b509695505050505050565b60008219821115615a0f57615a0f6158b4565b500190565b60208082528181018390526000908460408401835b868110156159f1578235615a3c81615143565b6001600160a01b031682529183019190830190600101615a29565b6020808252825160a083830152805160c0840181905260009291820190839060e08601905b80831015615ac757615ab1828551805160020b8252602081015160020b602083015262ffffff60408201511660408301525050565b6060820191508484019350600183019250615a7c565b50928601516001600160a01b03811660408701529260408701516001600160a01b0381166060880152935060608701516001600160a01b0381166080880152935060808701516001600160a01b03811660a08801529350615931565b60008060008060808587031215615b3957600080fd5b505082516020840151604085015160609095015191969095509092509050565b6001600160801b038116811461230157600080fd5b600060208284031215615b8057600080fd5b8135610f3d81615b59565b600060208284031215615b9d57600080fd5b8135610f3d81615699565b60008060408385031215615bbb57600080fd5b505080516020909101519092909150565b6000808335601e19843603018112615be357600080fd5b83018035915067ffffffffffffffff821115615bfe57600080fd5b6020019150600781901b36038213156151f157600080fd5b60008235609e19833603018112615c2c57600080fd5b9190910192915050565b6000808335601e19843603018112615c4d57600080fd5b83018035915067ffffffffffffffff821115615c6857600080fd5b6020019150368190038213156151f157600080fd5b8183823760009101908152919050565b8035613fd781615778565b600060208284031215615caa57600080fd5b8135610f3d81615778565b6000808335601e19843603018112615ccc57600080fd5b830160208101925035905067ffffffffffffffff811115615cec57600080fd5b8060071b36038313156151f157600080fd5b8183526000602080850194508260005b85811015615d4d578135615d2181615b59565b6001600160801b03168752615d3a8388018385016156b9565b6080968701969190910190600101615d0e565b509495945050505050565b81835281816020850137506000828201602090810191909152601f909101601f19169091010190565b60008135601e19833603018112615d9757600080fd5b8201803567ffffffffffffffff811115615db057600080fd5b803603841315615dbf57600080fd5b60a08552615dd460a086018260208501615d58565b915050615de360208401615158565b6001600160a01b0381166020860152506040830135604085015260608301356060850152615e1360808401615c8d565b8015156080860152615770565b602081526000615e308384615cb5565b60e06020850152615e4661010085018284615cfe565b915050615e566020850185615cb5565b601f1980868503016040870152615e6e848385615cfe565b935060408701359250609e19873603018312615e8957600080fd5b85840301606086015250615e9f82828701615d81565b91505060608401356080840152608084013560a084015260a084013560c084015260c084013560e08401528091505092915050565b634e487b7160e01b600052601260045260246000fd5b60008060408385031215615efd57600080fd5b8251615f0881615b59565b602084015190925061552f81615b59565b6000816000190483118215151615615f3357615f336158b4565b500290565b600082615f5557634e487b7160e01b600052601260045260246000fd5b500490565b60008251615c2c8184602087016150e456fe4f776e61626c653a2063616c6c6572206973206e6f7420746865206f776e6572a26469706673582212207d549dd896871dd46fa445376615c508ce6451fc1d5fd58f702e07baabe7fe6264736f6c634300080d0033",
  "libraries": {
    "Pool": "0x4cD41204AA4C7438374256bD7bE850eF9fcFaB84",
    "Position": "0xF7cB77C8dCB22A1bb4435932f3515319721Faf44",
    "Underlying": "0x92CB4F7e4CB623E73D5Ec84A43669ADc757C2bd2"
  },
  "devdoc": {
    "author": "Arrakis Finance",
    "details": "DO NOT ADD STATE VARIABLES - APPEND THEM TO ArrakisV2Storage",
    "kind": "dev",
    "methods": {
      "addPools(uint24[])": {
        "details": "only callable by owner.",
        "params": {
          "feeTiers_": "list of fee tiers associated to pools to whitelist."
        }
      },
      "allowance(address,address)": {
        "details": "See {IERC20-allowance}."
      },
      "approve(address,uint256)": {
        "details": "See {IERC20-approve}. NOTE: If `amount` is the maximum `uint256`, the allowance is not updated on `transferFrom`. This is semantically equivalent to an infinite approval. Requirements: - `spender` cannot be the zero address."
      },
      "balanceOf(address)": {
        "details": "See {IERC20-balanceOf}."
      },
      "blacklistRouters(address[])": {
        "details": "only callable by owner.",
        "params": {
          "routers_": "list of routers addresses to blacklist."
        }
      },
      "burn((uint128,(int24,int24,uint24))[],uint256,address)": {
        "params": {
          "burnAmount_": "amount of vault shares to burn.",
          "burns_": "ranges to burn liquidity from and collect underlying.",
          "receiver_": "address to receive underlying tokens withdrawn."
        },
        "returns": {
          "amount0": "amount of token0 sent to receiver",
          "amount1": "amount of token1 sent to receiver"
        }
      },
      "decimals()": {
        "details": "Returns the number of decimals used to get its user representation. For example, if `decimals` equals `2`, a balance of `505` tokens should be displayed to a user as `5.05` (`505 / 10 ** 2`). Tokens usually opt for a value of 18, imitating the relationship between Ether and Wei. This is the value {ERC20} uses, unless this function is overridden; NOTE: This information is only used for _display_ purposes: it in no way affects any of the arithmetic of the contract, including {IERC20-balanceOf} and {IERC20-transfer}."
      },
      "decreaseAllowance(address,uint256)": {
        "details": "Atomically decreases the allowance granted to `spender` by the caller. This is an alternative to {approve} that can be used as a mitigation for problems described in {IERC20-approve}. Emits an {Approval} event indicating the updated allowance. Requirements: - `spender` cannot be the zero address. - `spender` must have allowance for the caller of at least `subtractedValue`."
      },
      "getRanges()": {
        "returns": {
          "_0": "ranges list of ranges"
        }
      },
      "increaseAllowance(address,uint256)": {
        "details": "Atomically increases the allowance granted to `spender` by the caller. This is an alternative to {approve} that can be used as a mitigation for problems described in {IERC20-approve}. Emits an {Approval} event indicating the updated allowance. Requirements: - `spender` cannot be the zero address."
      },
      "mint(uint256,address)": {
        "params": {
          "mintAmount_": "represent the amount of Arrakis V2 shares to mint.",
          "receiver_": "address that will receive Arrakis V2 shares."
        },
        "returns": {
          "amount0": "amount of token0 needed to mint mintAmount_ of shares.",
          "amount1": "amount of token1 needed to mint mintAmount_ of shares."
        }
      },
      "name()": {
        "details": "Returns the name of the token."
      },
      "owner()": {
        "details": "Returns the address of the current owner."
      },
      "rebalance((int24,int24,uint24)[],((uint128,(int24,int24,uint24))[],(uint128,(int24,int24,uint24))[],(bytes,address,uint256,uint256,bool),uint256,uint256,uint256,uint256),(int24,int24,uint24)[])": {
        "details": "only Manager contract can call this contract.",
        "params": {
          "rangesToAdd_": "list of new ranges to initialize (add to ranges array).",
          "rangesToRemove_": "list of ranges to remove from ranges array (only when liquidity==0)",
          "rebalanceParams_": "rebalance params, containing ranges where we need to collect tokens and ranges where we need to mint tokens. Also contain swap payload to changes token0/token1 proportion."
        }
      },
      "removePools(address[])": {
        "details": "only callable by owner.",
        "params": {
          "pools_": "list of pools to remove from whitelist."
        }
      },
      "renounceOwnership()": {
        "details": "Leaves the contract without owner. It will not be possible to call `onlyOwner` functions anymore. Can only be called by the current owner. NOTE: Renouncing ownership will leave the contract without an owner, thereby removing any functionality that is only available to the owner."
      },
      "setBurnBuffer(uint16)": {
        "details": "only callable by owner.",
        "params": {
          "newBurnBuffer_": "buffer value."
        }
      },
      "setInits(uint256,uint256)": {
        "details": "only callable by restrictedMint or by owner if restrictedMint is unset.",
        "params": {
          "init0_": "initial virtual allocation of token 0.",
          "init1_": "initial virtual allocation of token 1."
        }
      },
      "setManager(address)": {
        "details": "only callable by owner.",
        "params": {
          "manager_": "manager address."
        }
      },
      "setManagerFeeBPS(uint16)": {
        "details": "only callable by manager.",
        "params": {
          "managerFeeBPS_": "manager fee in basis points."
        }
      },
      "setRestrictedMint(address)": {
        "details": "only callable by owner.",
        "params": {
          "minter_": "address of restricted minter."
        }
      },
      "symbol()": {
        "details": "Returns the symbol of the token, usually a shorter version of the name."
      },
      "totalSupply()": {
        "details": "See {IERC20-totalSupply}."
      },
      "transfer(address,uint256)": {
        "details": "See {IERC20-transfer}. Requirements: - `to` cannot be the zero address. - the caller must have a balance of at least `amount`."
      },
      "transferFrom(address,address,uint256)": {
        "details": "See {IERC20-transferFrom}. Emits an {Approval} event indicating the updated allowance. This is not required by the EIP. See the note at the beginning of {ERC20}. NOTE: Does not update the allowance if the current allowance is the maximum `uint256`. Requirements: - `from` and `to` cannot be the zero address. - `from` must have a balance of at least `amount`. - the caller must have allowance for ``from``'s tokens of at least `amount`."
      },
      "transferOwnership(address)": {
        "details": "Transfers ownership of the contract to a new account (`newOwner`). Can only be called by the current owner."
      },
      "whitelistRouters(address[])": {
        "details": "only callable by owner.",
        "params": {
          "routers_": "list of router addresses to whitelist."
        }
      },
      "withdrawManagerBalance()": {
        "details": "anyone can call this function"
      }
    },
    "title": "ArrakisV2 LP vault version 2",
    "version": 1
  },
  "userdoc": {
    "kind": "user",
    "methods": {
      "addPools(uint24[])": {
        "notice": "whitelist pools"
      },
      "blacklistRouters(address[])": {
        "notice": "blacklist routers"
      },
      "burn((uint128,(int24,int24,uint24))[],uint256,address)": {
        "notice": "burn Arrakis V2 shares and withdraw underlying."
      },
      "getRanges()": {
        "notice": "get full list of ranges, guaranteed to contain all active vault LP Positions."
      },
      "mint(uint256,address)": {
        "notice": "mint Arrakis V2 shares by depositing underlying"
      },
      "rebalance((int24,int24,uint24)[],((uint128,(int24,int24,uint24))[],(uint128,(int24,int24,uint24))[],(bytes,address,uint256,uint256,bool),uint256,uint256,uint256,uint256),(int24,int24,uint24)[])": {
        "notice": "rebalance ArrakisV2 vault's UniswapV3 positions"
      },
      "removePools(address[])": {
        "notice": "unwhitelist pools"
      },
      "setBurnBuffer(uint16)": {
        "notice": "set burn buffer"
      },
      "setInits(uint256,uint256)": {
        "notice": "set initial virtual allocation of token0 and token1"
      },
      "setManager(address)": {
        "notice": "set manager"
      },
      "setManagerFeeBPS(uint16)": {
        "notice": "set manager fee bps"
      },
      "setRestrictedMint(address)": {
        "notice": "set restricted minter"
      },
      "uniswapV3MintCallback(uint256,uint256,bytes)": {
        "notice": "Uniswap V3 callback fn, called back on pool.mint"
      },
      "whitelistRouters(address[])": {
        "notice": "whitelist routers"
      },
      "withdrawManagerBalance()": {
        "notice": "will send manager fees to manager"
      }
    },
    "notice": "Smart contract managing liquidity providing strategy for a given token pair using multiple Uniswap V3 LP positions on multiple fee tiers.",
    "version": 1
  },
  "storageLayout": {
    "storage": [
      {
        "astId": 1285,
        "contract": "contracts/ArrakisV2.sol:ArrakisV2",
        "label": "_initialized",
        "offset": 0,
        "slot": "0",
        "type": "t_uint8"
      },
      {
        "astId": 1288,
        "contract": "contracts/ArrakisV2.sol:ArrakisV2",
        "label": "_initializing",
        "offset": 1,
        "slot": "0",
        "type": "t_bool"
      },
      {
        "astId": 2477,
        "contract": "contracts/ArrakisV2.sol:ArrakisV2",
        "label": "__gap",
        "offset": 0,
        "slot": "1",
        "type": "t_array(t_uint256)50_storage"
      },
      {
        "astId": 1165,
        "contract": "contracts/ArrakisV2.sol:ArrakisV2",
        "label": "_owner",
        "offset": 0,
        "slot": "51",
        "type": "t_address"
      },
      {
        "astId": 1277,
        "contract": "contracts/ArrakisV2.sol:ArrakisV2",
        "label": "__gap",
        "offset": 0,
        "slot": "52",
        "type": "t_array(t_uint256)49_storage"
      },
      {
        "astId": 1498,
        "contract": "contracts/ArrakisV2.sol:ArrakisV2",
        "label": "_balances",
        "offset": 0,
        "slot": "101",
        "type": "t_mapping(t_address,t_uint256)"
      },
      {
        "astId": 1504,
        "contract": "contracts/ArrakisV2.sol:ArrakisV2",
        "label": "_allowances",
        "offset": 0,
        "slot": "102",
        "type": "t_mapping(t_address,t_mapping(t_address,t_uint256))"
      },
      {
        "astId": 1506,
        "contract": "contracts/ArrakisV2.sol:ArrakisV2",
        "label": "_totalSupply",
        "offset": 0,
        "slot": "103",
        "type": "t_uint256"
      },
      {
        "astId": 1508,
        "contract": "contracts/ArrakisV2.sol:ArrakisV2",
        "label": "_name",
        "offset": 0,
        "slot": "104",
        "type": "t_string_storage"
      },
      {
        "astId": 1510,
        "contract": "contracts/ArrakisV2.sol:ArrakisV2",
        "label": "_symbol",
        "offset": 0,
        "slot": "105",
        "type": "t_string_storage"
      },
      {
        "astId": 2089,
        "contract": "contracts/ArrakisV2.sol:ArrakisV2",
        "label": "__gap",
        "offset": 0,
        "slot": "106",
        "type": "t_array(t_uint256)45_storage"
      },
      {
        "astId": 1434,
        "contract": "contracts/ArrakisV2.sol:ArrakisV2",
        "label": "_status",
        "offset": 0,
        "slot": "151",
        "type": "t_uint256"
      },
      {
        "astId": 1478,
        "contract": "contracts/ArrakisV2.sol:ArrakisV2",
        "label": "__gap",
        "offset": 0,
        "slot": "152",
        "type": "t_array(t_uint256)49_storage"
      },
      {
        "astId": 9846,
        "contract": "contracts/ArrakisV2.sol:ArrakisV2",
        "label": "token0",
        "offset": 0,
        "slot": "201",
        "type": "t_contract(IERC20)3561"
      },
      {
        "astId": 9849,
        "contract": "contracts/ArrakisV2.sol:ArrakisV2",
        "label": "token1",
        "offset": 0,
        "slot": "202",
        "type": "t_contract(IERC20)3561"
      },
      {
        "astId": 9851,
        "contract": "contracts/ArrakisV2.sol:ArrakisV2",
        "label": "init0",
        "offset": 0,
        "slot": "203",
        "type": "t_uint256"
      },
      {
        "astId": 9853,
        "contract": "contracts/ArrakisV2.sol:ArrakisV2",
        "label": "init1",
        "offset": 0,
        "slot": "204",
        "type": "t_uint256"
      },
      {
        "astId": 9857,
        "contract": "contracts/ArrakisV2.sol:ArrakisV2",
        "label": "ranges",
        "offset": 0,
        "slot": "205",
        "type": "t_array(t_struct(Range)11981_storage)dyn_storage"
      },
      {
        "astId": 9859,
        "contract": "contracts/ArrakisV2.sol:ArrakisV2",
        "label": "managerFeeBPS",
        "offset": 0,
        "slot": "206",
        "type": "t_uint16"
      },
      {
        "astId": 9861,
        "contract": "contracts/ArrakisV2.sol:ArrakisV2",
        "label": "managerBalance0",
        "offset": 0,
        "slot": "207",
        "type": "t_uint256"
      },
      {
        "astId": 9863,
        "contract": "contracts/ArrakisV2.sol:ArrakisV2",
        "label": "managerBalance1",
        "offset": 0,
        "slot": "208",
        "type": "t_uint256"
      },
      {
        "astId": 9865,
        "contract": "contracts/ArrakisV2.sol:ArrakisV2",
        "label": "manager",
        "offset": 0,
        "slot": "209",
        "type": "t_address"
      },
      {
        "astId": 9867,
        "contract": "contracts/ArrakisV2.sol:ArrakisV2",
        "label": "restrictedMint",
        "offset": 0,
        "slot": "210",
        "type": "t_address"
      },
      {
        "astId": 9870,
        "contract": "contracts/ArrakisV2.sol:ArrakisV2",
        "label": "_pools",
        "offset": 0,
        "slot": "211",
        "type": "t_struct(AddressSet)4892_storage"
      },
      {
        "astId": 9873,
        "contract": "contracts/ArrakisV2.sol:ArrakisV2",
        "label": "_routers",
        "offset": 0,
        "slot": "213",
        "type": "t_struct(AddressSet)4892_storage"
      },
      {
        "astId": 9875,
        "contract": "contracts/ArrakisV2.sol:ArrakisV2",
        "label": "_burnBuffer",
        "offset": 0,
        "slot": "215",
        "type": "t_uint16"
      }
    ],
    "types": {
      "t_address": {
        "encoding": "inplace",
        "label": "address",
        "numberOfBytes": "20"
      },
      "t_array(t_bytes32)dyn_storage": {
        "base": "t_bytes32",
        "encoding": "dynamic_array",
        "label": "bytes32[]",
        "numberOfBytes": "32"
      },
      "t_array(t_struct(Range)11981_storage)dyn_storage": {
        "base": "t_struct(Range)11981_storage",
        "encoding": "dynamic_array",
        "label": "struct Range[]",
        "numberOfBytes": "32"
      },
      "t_array(t_uint256)45_storage": {
        "base": "t_uint256",
        "encoding": "inplace",
        "label": "uint256[45]",
        "numberOfBytes": "1440"
      },
      "t_array(t_uint256)49_storage": {
        "base": "t_uint256",
        "encoding": "inplace",
        "label": "uint256[49]",
        "numberOfBytes": "1568"
      },
      "t_array(t_uint256)50_storage": {
        "base": "t_uint256",
        "encoding": "inplace",
        "label": "uint256[50]",
        "numberOfBytes": "1600"
      },
      "t_bool": {
        "encoding": "inplace",
        "label": "bool",
        "numberOfBytes": "1"
      },
      "t_bytes32": {
        "encoding": "inplace",
        "label": "bytes32",
        "numberOfBytes": "32"
      },
      "t_contract(IERC20)3561": {
        "encoding": "inplace",
        "label": "contract IERC20",
        "numberOfBytes": "20"
      },
      "t_int24": {
        "encoding": "inplace",
        "label": "int24",
        "numberOfBytes": "3"
      },
      "t_mapping(t_address,t_mapping(t_address,t_uint256))": {
        "encoding": "mapping",
        "key": "t_address",
        "label": "mapping(address => mapping(address => uint256))",
        "numberOfBytes": "32",
        "value": "t_mapping(t_address,t_uint256)"
      },
      "t_mapping(t_address,t_uint256)": {
        "encoding": "mapping",
        "key": "t_address",
        "label": "mapping(address => uint256)",
        "numberOfBytes": "32",
        "value": "t_uint256"
      },
      "t_mapping(t_bytes32,t_uint256)": {
        "encoding": "mapping",
        "key": "t_bytes32",
        "label": "mapping(bytes32 => uint256)",
        "numberOfBytes": "32",
        "value": "t_uint256"
      },
      "t_string_storage": {
        "encoding": "bytes",
        "label": "string",
        "numberOfBytes": "32"
      },
      "t_struct(AddressSet)4892_storage": {
        "encoding": "inplace",
        "label": "struct EnumerableSet.AddressSet",
        "members": [
          {
            "astId": 4891,
            "contract": "contracts/ArrakisV2.sol:ArrakisV2",
            "label": "_inner",
            "offset": 0,
            "slot": "0",
            "type": "t_struct(Set)4591_storage"
          }
        ],
        "numberOfBytes": "64"
      },
      "t_struct(Range)11981_storage": {
        "encoding": "inplace",
        "label": "struct Range",
        "members": [
          {
            "astId": 11976,
            "contract": "contracts/ArrakisV2.sol:ArrakisV2",
            "label": "lowerTick",
            "offset": 0,
            "slot": "0",
            "type": "t_int24"
          },
          {
            "astId": 11978,
            "contract": "contracts/ArrakisV2.sol:ArrakisV2",
            "label": "upperTick",
            "offset": 3,
            "slot": "0",
            "type": "t_int24"
          },
          {
            "astId": 11980,
            "contract": "contracts/ArrakisV2.sol:ArrakisV2",
            "label": "feeTier",
            "offset": 6,
            "slot": "0",
            "type": "t_uint24"
          }
        ],
        "numberOfBytes": "32"
      },
      "t_struct(Set)4591_storage": {
        "encoding": "inplace",
        "label": "struct EnumerableSet.Set",
        "members": [
          {
            "astId": 4586,
            "contract": "contracts/ArrakisV2.sol:ArrakisV2",
            "label": "_values",
            "offset": 0,
            "slot": "0",
            "type": "t_array(t_bytes32)dyn_storage"
          },
          {
            "astId": 4590,
            "contract": "contracts/ArrakisV2.sol:ArrakisV2",
            "label": "_indexes",
            "offset": 0,
            "slot": "1",
            "type": "t_mapping(t_bytes32,t_uint256)"
          }
        ],
        "numberOfBytes": "64"
      },
      "t_uint16": {
        "encoding": "inplace",
        "label": "uint16",
        "numberOfBytes": "2"
      },
      "t_uint24": {
        "encoding": "inplace",
        "label": "uint24",
        "numberOfBytes": "3"
      },
      "t_uint256": {
        "encoding": "inplace",
        "label": "uint256",
        "numberOfBytes": "32"
      },
      "t_uint8": {
        "encoding": "inplace",
        "label": "uint8",
        "numberOfBytes": "1"
      }
    }
  }
}