{
  "address": "0x07d2CeB4869DFE17e8D48c92A71eDC3AE564449f",
  "abi": [
    {
      "inputs": [
        {
          "internalType": "contract IUniswapV3Factory",
          "name": "factory_",
          "type": "address"
        }
      ],
      "stateMutability": "nonpayable",
      "type": "constructor"
    },
    {
      "inputs": [],
      "name": "factory",
      "outputs": [
        {
          "internalType": "contract IUniswapV3Factory",
          "name": "",
          "type": "address"
        }
      ],
      "stateMutability": "view",
      "type": "function"
    },
    {
      "inputs": [
        {
          "components": [
            {
              "internalType": "int24",
              "name": "lowerTick",
              "type": "int24"
            },
            {
              "internalType": "int24",
              "name": "upperTick",
              "type": "int24"
            },
            {
              "internalType": "uint24",
              "name": "feeTier",
              "type": "uint24"
            }
          ],
          "internalType": "struct Range[]",
          "name": "ranges_",
          "type": "tuple[]"
        },
        {
          "internalType": "address",
          "name": "token0_",
          "type": "address"
        },
        {
          "internalType": "address",
          "name": "token1_",
          "type": "address"
        },
        {
          "internalType": "address",
          "name": "vaultV2_",
          "type": "address"
        }
      ],
      "name": "token0AndToken1ByRange",
      "outputs": [
        {
          "components": [
            {
              "components": [
                {
                  "internalType": "int24",
                  "name": "lowerTick",
                  "type": "int24"
                },
                {
                  "internalType": "int24",
                  "name": "upperTick",
                  "type": "int24"
                },
                {
                  "internalType": "uint24",
                  "name": "feeTier",
                  "type": "uint24"
                }
              ],
              "internalType": "struct Range",
              "name": "range",
              "type": "tuple"
            },
            {
              "internalType": "uint256",
              "name": "amount",
              "type": "uint256"
            }
          ],
          "internalType": "struct Amount[]",
          "name": "amount0s",
          "type": "tuple[]"
        },
        {
          "components": [
            {
              "components": [
                {
                  "internalType": "int24",
                  "name": "lowerTick",
                  "type": "int24"
                },
                {
                  "internalType": "int24",
                  "name": "upperTick",
                  "type": "int24"
                },
                {
                  "internalType": "uint24",
                  "name": "feeTier",
                  "type": "uint24"
                }
              ],
              "internalType": "struct Range",
              "name": "range",
              "type": "tuple"
            },
            {
              "internalType": "uint256",
              "name": "amount",
              "type": "uint256"
            }
          ],
          "internalType": "struct Amount[]",
          "name": "amount1s",
          "type": "tuple[]"
        }
      ],
      "stateMutability": "view",
      "type": "function"
    },
    {
      "inputs": [
        {
          "components": [
            {
              "internalType": "int24",
              "name": "lowerTick",
              "type": "int24"
            },
            {
              "internalType": "int24",
              "name": "upperTick",
              "type": "int24"
            },
            {
              "internalType": "uint24",
              "name": "feeTier",
              "type": "uint24"
            }
          ],
          "internalType": "struct Range[]",
          "name": "ranges_",
          "type": "tuple[]"
        },
        {
          "internalType": "address",
          "name": "token0_",
          "type": "address"
        },
        {
          "internalType": "address",
          "name": "token1_",
          "type": "address"
        },
        {
          "internalType": "address",
          "name": "vaultV2_",
          "type": "address"
        }
      ],
      "name": "token0AndToken1PlusFeesByRange",
      "outputs": [
        {
          "components": [
            {
              "components": [
                {
                  "internalType": "int24",
                  "name": "lowerTick",
                  "type": "int24"
                },
                {
                  "internalType": "int24",
                  "name": "upperTick",
                  "type": "int24"
                },
                {
                  "internalType": "uint24",
                  "name": "feeTier",
                  "type": "uint24"
                }
              ],
              "internalType": "struct Range",
              "name": "range",
              "type": "tuple"
            },
            {
              "internalType": "uint256",
              "name": "amount",
              "type": "uint256"
            }
          ],
          "internalType": "struct Amount[]",
          "name": "amount0s",
          "type": "tuple[]"
        },
        {
          "components": [
            {
              "components": [
                {
                  "internalType": "int24",
                  "name": "lowerTick",
                  "type": "int24"
                },
                {
                  "internalType": "int24",
                  "name": "upperTick",
                  "type": "int24"
                },
                {
                  "internalType": "uint24",
                  "name": "feeTier",
                  "type": "uint24"
                }
              ],
              "internalType": "struct Range",
              "name": "range",
              "type": "tuple"
            },
            {
              "internalType": "uint256",
              "name": "amount",
              "type": "uint256"
            }
          ],
          "internalType": "struct Amount[]",
          "name": "amount1s",
          "type": "tuple[]"
        },
        {
          "components": [
            {
              "components": [
                {
                  "internalType": "int24",
                  "name": "lowerTick",
                  "type": "int24"
                },
                {
                  "internalType": "int24",
                  "name": "upperTick",
                  "type": "int24"
                },
                {
                  "internalType": "uint24",
                  "name": "feeTier",
                  "type": "uint24"
                }
              ],
              "internalType": "struct Range",
              "name": "range",
              "type": "tuple"
            },
            {
              "internalType": "uint256",
              "name": "amount",
              "type": "uint256"
            }
          ],
          "internalType": "struct Amount[]",
          "name": "fee0s",
          "type": "tuple[]"
        },
        {
          "components": [
            {
              "components": [
                {
                  "internalType": "int24",
                  "name": "lowerTick",
                  "type": "int24"
                },
                {
                  "internalType": "int24",
                  "name": "upperTick",
                  "type": "int24"
                },
                {
                  "internalType": "uint24",
                  "name": "feeTier",
                  "type": "uint24"
                }
              ],
              "internalType": "struct Range",
              "name": "range",
              "type": "tuple"
            },
            {
              "internalType": "uint256",
              "name": "amount",
              "type": "uint256"
            }
          ],
          "internalType": "struct Amount[]",
          "name": "fee1s",
          "type": "tuple[]"
        }
      ],
      "stateMutability": "view",
      "type": "function"
    },
    {
      "inputs": [
        {
          "internalType": "contract IArrakisV2",
          "name": "vault_",
          "type": "address"
        }
      ],
      "name": "totalLiquidity",
      "outputs": [
        {
          "components": [
            {
              "internalType": "uint128",
              "name": "liquidity",
              "type": "uint128"
            },
            {
              "components": [
                {
                  "internalType": "int24",
                  "name": "lowerTick",
                  "type": "int24"
                },
                {
                  "internalType": "int24",
                  "name": "upperTick",
                  "type": "int24"
                },
                {
                  "internalType": "uint24",
                  "name": "feeTier",
                  "type": "uint24"
                }
              ],
              "internalType": "struct Range",
              "name": "range",
              "type": "tuple"
            }
          ],
          "internalType": "struct PositionLiquidity[]",
          "name": "liquidities",
          "type": "tuple[]"
        }
      ],
      "stateMutability": "view",
      "type": "function"
    },
    {
      "inputs": [
        {
          "internalType": "contract IArrakisV2",
          "name": "vault_",
          "type": "address"
        }
      ],
      "name": "totalUnderlying",
      "outputs": [
        {
          "internalType": "uint256",
          "name": "amount0",
          "type": "uint256"
        },
        {
          "internalType": "uint256",
          "name": "amount1",
          "type": "uint256"
        }
      ],
      "stateMutability": "view",
      "type": "function"
    },
    {
      "inputs": [
        {
          "internalType": "contract IArrakisV2",
          "name": "vault_",
          "type": "address"
        }
      ],
      "name": "totalUnderlyingWithFees",
      "outputs": [
        {
          "internalType": "uint256",
          "name": "amount0",
          "type": "uint256"
        },
        {
          "internalType": "uint256",
          "name": "amount1",
          "type": "uint256"
        },
        {
          "internalType": "uint256",
          "name": "fee0",
          "type": "uint256"
        },
        {
          "internalType": "uint256",
          "name": "fee1",
          "type": "uint256"
        }
      ],
      "stateMutability": "view",
      "type": "function"
    },
    {
      "inputs": [
        {
          "internalType": "contract IArrakisV2",
          "name": "vault_",
          "type": "address"
        }
      ],
      "name": "totalUnderlyingWithFeesAndLeftOver",
      "outputs": [
        {
          "components": [
            {
              "internalType": "uint256",
              "name": "amount0",
              "type": "uint256"
            },
            {
              "internalType": "uint256",
              "name": "amount1",
              "type": "uint256"
            },
            {
              "internalType": "uint256",
              "name": "fee0",
              "type": "uint256"
            },
            {
              "internalType": "uint256",
              "name": "fee1",
              "type": "uint256"
            },
            {
              "internalType": "uint256",
              "name": "leftOver0",
              "type": "uint256"
            },
            {
              "internalType": "uint256",
              "name": "leftOver1",
              "type": "uint256"
            }
          ],
          "internalType": "struct UnderlyingOutput",
          "name": "underlying",
          "type": "tuple"
        }
      ],
      "stateMutability": "view",
      "type": "function"
    }
  ],
  "transactionHash": "0xbbf4d97a79cf12179a86781b260b4eb7cbc2ea59ea71fc62f7bfa609d4b2e2be",
  "args": [
    "0x1F98431c8aD98523631AE4a59f267346ea31F984"
  ],
  "numDeployments": 1,
  "solcInputHash": "e8d630df65443fa8afbc5f806e282892",
  "bytecode": "0x60a060405234801561001057600080fd5b50604051611dd1380380611dd183398101604081905261002f91610040565b6001600160a01b0316608052610070565b60006020828403121561005257600080fd5b81516001600160a01b038116811461006957600080fd5b9392505050565b608051611d236100ae6000396000818161012b015281816102640152818161048501528181610cd9015281816110a401526114850152611d236000f3fe608060405234801561001057600080fd5b506004361061007d5760003560e01c8063943865551161005b5780639438655514610103578063c45a015514610126578063c56326de14610165578063e9b7218a1461018557600080fd5b80630f8f2d1d146100825780636ea08e2a146100ba5780638fe5a01e146100e2575b600080fd5b61009561009036600461164b565b6101e4565b6040805194855260208501939093529183015260608201526080015b60405180910390f35b6100cd6100c836600461164b565b610408565b604080519283526020830191909152016100b1565b6100f56100f036600461166f565b610626565b6040516100b192919061178b565b61011661011136600461166f565b610820565b6040516100b194939291906117b9565b61014d7f000000000000000000000000000000000000000000000000000000000000000081565b6040516001600160a01b0390911681526020016100b1565b61017861017336600461164b565b610bdc565b6040516100b19190611811565b61019861019336600461164b565b610ff1565b6040516100b19190600060c082019050825182526020830151602083015260408301516040830152606083015160608301526080830151608083015260a083015160a083015292915050565b60008060008060006040518060a00160405280876001600160a01b031663617a34196040518163ffffffff1660e01b8152600401600060405180830381865afa158015610235573d6000803e3d6000fd5b505050506040513d6000823e601f3d908101601f1916820160405261025d919081019061192e565b81526020017f00000000000000000000000000000000000000000000000000000000000000006001600160a01b03168152602001876001600160a01b0316630dfe16816040518163ffffffff1660e01b8152600401602060405180830381865afa1580156102cf573d6000803e3d6000fd5b505050506040513d601f19601f820116820180604052508101906102f39190611a1d565b6001600160a01b03168152602001876001600160a01b031663d21220a76040518163ffffffff1660e01b8152600401602060405180830381865afa15801561033f573d6000803e3d6000fd5b505050506040513d601f19601f820116820180604052508101906103639190611a1d565b6001600160a01b03168152602001876001600160a01b03168152509050733B8D59e7048C8efe3492D23e4Dae1967FBbc098863e56f4d91826040518263ffffffff1660e01b81526004016103b79190611a3a565b608060405180830381865af41580156103d4573d6000803e3d6000fd5b505050506040513d601f19601f820116820180604052508101906103f89190611b0b565b9299919850965090945092505050565b60008060006040518060a00160405280856001600160a01b031663617a34196040518163ffffffff1660e01b8152600401600060405180830381865afa158015610456573d6000803e3d6000fd5b505050506040513d6000823e601f3d908101601f1916820160405261047e919081019061192e565b81526020017f00000000000000000000000000000000000000000000000000000000000000006001600160a01b03168152602001856001600160a01b0316630dfe16816040518163ffffffff1660e01b8152600401602060405180830381865afa1580156104f0573d6000803e3d6000fd5b505050506040513d601f19601f820116820180604052508101906105149190611a1d565b6001600160a01b03168152602001856001600160a01b031663d21220a76040518163ffffffff1660e01b8152600401602060405180830381865afa158015610560573d6000803e3d6000fd5b505050506040513d601f19601f820116820180604052508101906105849190611a1d565b6001600160a01b03168152602001856001600160a01b03168152509050733B8D59e7048C8efe3492D23e4Dae1967FBbc098863e56f4d91826040518263ffffffff1660e01b81526004016105d89190611a3a565b608060405180830381865af41580156105f5573d6000803e3d6000fd5b505050506040513d601f19601f820116820180604052508101906106199190611b0b565b5091969095509350505050565b6060808567ffffffffffffffff8111156106425761064261189e565b60405190808252806020026020018201604052801561069d57816020015b6040805160a08101825260009181018281526060820183905260808201839052815260208101919091528152602001906001900390816106605790505b5091508567ffffffffffffffff8111156106b9576106b961189e565b60405190808252806020026020018201604052801561071457816020015b6040805160a08101825260009181018281526060820183905260808201839052815260208101919091528152602001906001900390816106d75790505b50905060005b868110156108155760008061074888888c8c8781811061073c5761073c611b41565b9050606002018961144b565b50509150915060405180604001604052808b8b8681811061076b5761076b611b41565b9050606002018036038101906107819190611b57565b81526020018381525085848151811061079c5761079c611b41565b602002602001018190525060405180604001604052808b8b868181106107c4576107c4611b41565b9050606002018036038101906107da9190611b57565b8152602001828152508484815181106107f5576107f5611b41565b60200260200101819052505050808061080d90611bdf565b91505061071a565b509550959350505050565b60608080808767ffffffffffffffff81111561083e5761083e61189e565b60405190808252806020026020018201604052801561089957816020015b6040805160a081018252600091810182815260608201839052608082018390528152602081019190915281526020019060019003908161085c5790505b5093508767ffffffffffffffff8111156108b5576108b561189e565b60405190808252806020026020018201604052801561091057816020015b6040805160a08101825260009181018281526060820183905260808201839052815260208101919091528152602001906001900390816108d35790505b5092508767ffffffffffffffff81111561092c5761092c61189e565b60405190808252806020026020018201604052801561098757816020015b6040805160a081018252600091810182815260608201839052608082018390528152602081019190915281526020019060019003908161094a5790505b5091508767ffffffffffffffff8111156109a3576109a361189e565b6040519080825280602002602001820160405280156109fe57816020015b6040805160a08101825260009181018281526060820183905260808201839052815260208101919091528152602001906001900390816109c15790505b50905060005b88811015610bcf57898982818110610a1e57610a1e611b41565b905060600201803603810190610a349190611b57565b858281518110610a4657610a46611b41565b602090810291909101015152898982818110610a6457610a64611b41565b905060600201803603810190610a7a9190611b57565b848281518110610a8c57610a8c611b41565b602090810291909101015152898982818110610aaa57610aaa611b41565b905060600201803603810190610ac09190611b57565b838281518110610ad257610ad2611b41565b602090810291909101015152898982818110610af057610af0611b41565b905060600201803603810190610b069190611b57565b828281518110610b1857610b18611b41565b602090810291909101015152610b3b88888c8c8581811061073c5761073c611b41565b888581518110610b4d57610b4d611b41565b6020026020010151602001888681518110610b6a57610b6a611b41565b6020026020010151602001888781518110610b8757610b87611b41565b6020026020010151602001888881518110610ba457610ba4611b41565b6020908102919091018101510193909352929091529190525280610bc781611bdf565b915050610a04565b5095509550955095915050565b60606000826001600160a01b031663617a34196040518163ffffffff1660e01b8152600401600060405180830381865afa158015610c1e573d6000803e3d6000fd5b505050506040513d6000823e601f3d908101601f19168201604052610c46919081019061192e565b9050805167ffffffffffffffff811115610c6257610c6261189e565b604051908082528060200260200182016040528015610cc657816020015b610cb360408051808201825260008082528251606081018452818152602081810183905293810191909152909182015290565b815260200190600190039081610c805790505b50915060005b8151811015610fea5760007f00000000000000000000000000000000000000000000000000000000000000006001600160a01b0316631698ee82866001600160a01b0316630dfe16816040518163ffffffff1660e01b8152600401602060405180830381865afa158015610d44573d6000803e3d6000fd5b505050506040513d601f19601f82011682018060405250810190610d689190611a1d565b876001600160a01b031663d21220a76040518163ffffffff1660e01b8152600401602060405180830381865afa158015610da6573d6000803e3d6000fd5b505050506040513d601f19601f82011682018060405250810190610dca9190611a1d565b868681518110610ddc57610ddc611b41565b602090810291909101015160409081015190517fffffffff0000000000000000000000000000000000000000000000000000000060e086901b1681526001600160a01b03938416600482015292909116602483015262ffffff166044820152606401602060405180830381865afa158015610e5b573d6000803e3d6000fd5b505050506040513d601f19601f82011682018060405250810190610e7f9190611a1d565b90506000738638FbD429b19249bb3BCF3Ec72d07a657E49642635f49415b8388878781518110610eb157610eb1611b41565b602002602001015160000151888881518110610ecf57610ecf611b41565b60209081029190910181015101516040517fffffffff0000000000000000000000000000000000000000000000000000000060e087901b1681526001600160a01b039485166004820152939092166024840152600290810b60448401520b6064820152608401602060405180830381865af4158015610f52573d6000803e3d6000fd5b505050506040513d601f19601f82011682018060405250810190610f769190611bf8565b90506040518060400160405280826fffffffffffffffffffffffffffffffff168152602001858581518110610fad57610fad611b41565b6020026020010151815250858481518110610fca57610fca611b41565b602002602001018190525050508080610fe290611bdf565b915050610ccc565b5050919050565b61102a6040518060c001604052806000815260200160008152602001600081526020016000815260200160008152602001600081525090565b60006040518060a00160405280846001600160a01b031663617a34196040518163ffffffff1660e01b8152600401600060405180830381865afa158015611075573d6000803e3d6000fd5b505050506040513d6000823e601f3d908101601f1916820160405261109d919081019061192e565b81526020017f00000000000000000000000000000000000000000000000000000000000000006001600160a01b03168152602001846001600160a01b0316630dfe16816040518163ffffffff1660e01b8152600401602060405180830381865afa15801561110f573d6000803e3d6000fd5b505050506040513d601f19601f820116820180604052508101906111339190611a1d565b6001600160a01b03168152602001846001600160a01b031663d21220a76040518163ffffffff1660e01b8152600401602060405180830381865afa15801561117f573d6000803e3d6000fd5b505050506040513d601f19601f820116820180604052508101906111a39190611a1d565b6001600160a01b03168152602001846001600160a01b03168152509050733B8D59e7048C8efe3492D23e4Dae1967FBbc098863e56f4d91826040518263ffffffff1660e01b81526004016111f79190611a3a565b608060405180830381865af4158015611214573d6000803e3d6000fd5b505050506040513d601f19601f820116820180604052508101906112389190611b0b565b6060860152604080860191909152602080860192909252918452608083015182517f065756db00000000000000000000000000000000000000000000000000000000815292516001600160a01b039091169263065756db9260048083019391928290030181865afa1580156112b1573d6000803e3d6000fd5b505050506040513d601f19601f820116820180604052508101906112d59190611c2a565b604080830151608084015191516370a0823160e01b81526001600160a01b0392831660048201529116906370a0823190602401602060405180830381865afa158015611325573d6000803e3d6000fd5b505050506040513d601f19601f820116820180604052508101906113499190611c2a565b6113539190611c43565b82608001818152505080608001516001600160a01b03166342fb9d446040518163ffffffff1660e01b8152600401602060405180830381865afa15801561139e573d6000803e3d6000fd5b505050506040513d601f19601f820116820180604052508101906113c29190611c2a565b606082015160808301516040516370a0823160e01b81526001600160a01b0391821660048201529116906370a0823190602401602060405180830381865afa158015611412573d6000803e3d6000fd5b505050506040513d601f19601f820116820180604052508101906114369190611c2a565b6114409190611c43565b60a083015250919050565b600080600080866001600160a01b0316886001600160a01b031610611471578688611474565b87875b909850965060006001600160a01b037f000000000000000000000000000000000000000000000000000000000000000016631698ee828a8a6114bc60608c0160408d01611c5a565b6040517fffffffff0000000000000000000000000000000000000000000000000000000060e086901b1681526001600160a01b03938416600482015292909116602483015262ffffff166044820152606401602060405180830381865afa15801561152b573d6000803e3d6000fd5b505050506040513d601f19601f8201168201806040525081019061154f9190611a1d565b9050733B8D59e7048C8efe3492D23e4Dae1967FBbc098863ccd5c4626040518060600160405280896001600160a01b031681526020018a8036038101906115969190611b57565b8152602001846001600160a01b03168152506040518263ffffffff1660e01b81526004016115c49190611c77565b608060405180830381865af41580156115e1573d6000803e3d6000fd5b505050506040513d601f19601f820116820180604052508101906116059190611b0b565b929750909550935091506116198386611cd5565b94506116258285611cd5565b935050945094509450949050565b6001600160a01b038116811461164857600080fd5b50565b60006020828403121561165d57600080fd5b813561166881611633565b9392505050565b60008060008060006080868803121561168757600080fd5b853567ffffffffffffffff8082111561169f57600080fd5b818801915088601f8301126116b357600080fd5b8135818111156116c257600080fd5b8960206060830285010111156116d757600080fd5b602092830197509550508601356116ed81611633565b925060408601356116fd81611633565b9150606086013561170d81611633565b809150509295509295909350565b600081518084526020808501945080840160005b83811015611780578151611766888251805160020b8252602081015160020b602083015262ffffff60408201511660408301525050565b83015160608801526080909601959082019060010161172f565b509495945050505050565b60408152600061179e604083018561171b565b82810360208401526117b0818561171b565b95945050505050565b6080815260006117cc608083018761171b565b82810360208401526117de818761171b565b905082810360408401526117f2818661171b565b90508281036060840152611806818561171b565b979650505050505050565b6020808252825182820181905260009190848201906040850190845b8181101561189257835180516fffffffffffffffffffffffffffffffff16845285015161187e86850182805160020b8252602081015160020b602083015262ffffff60408201511660408301525050565b50928401926080929092019160010161182d565b50909695505050505050565b634e487b7160e01b600052604160045260246000fd5b6040516060810167ffffffffffffffff811182821017156118d7576118d761189e565b60405290565b604051601f8201601f1916810167ffffffffffffffff811182821017156119065761190661189e565b604052919050565b8060020b811461164857600080fd5b62ffffff8116811461164857600080fd5b6000602080838503121561194157600080fd5b825167ffffffffffffffff8082111561195957600080fd5b818501915085601f83011261196d57600080fd5b81518181111561197f5761197f61189e565b61198d848260051b016118dd565b818152848101925060609182028401850191888311156119ac57600080fd5b938501935b82851015611a115780858a0312156119c95760008081fd5b6119d16118b4565b85516119dc8161190e565b8152858701516119eb8161190e565b818801526040868101516119fe8161191d565b90820152845293840193928501926119b1565b50979650505050505050565b600060208284031215611a2f57600080fd5b815161166881611633565b6020808252825160a083830152805160c0840181905260009291820190839060e08601905b80831015611aaa57611a94828551805160020b8252602081015160020b602083015262ffffff60408201511660408301525050565b6060820191508484019350600183019250611a5f565b50928601516001600160a01b03811660408701529260408701516001600160a01b0381166060880152935060608701516001600160a01b0381166080880152935060808701516001600160a01b03811660a088015293509695505050505050565b60008060008060808587031215611b2157600080fd5b505082516020840151604085015160609095015191969095509092509050565b634e487b7160e01b600052603260045260246000fd5b600060608284031215611b6957600080fd5b6040516060810181811067ffffffffffffffff82111715611b8c57611b8c61189e565b6040528235611b9a8161190e565b81526020830135611baa8161190e565b60208201526040830135611bbd8161191d565b60408201529392505050565b634e487b7160e01b600052601160045260246000fd5b600060018201611bf157611bf1611bc9565b5060010190565b600060208284031215611c0a57600080fd5b81516fffffffffffffffffffffffffffffffff8116811461166857600080fd5b600060208284031215611c3c57600080fd5b5051919050565b600082821015611c5557611c55611bc9565b500390565b600060208284031215611c6c57600080fd5b81356116688161191d565b600060a0820190506001600160a01b038084511683526020840151611cc16020850182805160020b8252602081015160020b602083015262ffffff60408201511660408301525050565b508060408501511660808401525092915050565b60008219821115611ce857611ce8611bc9565b50019056fea2646970667358221220341ac4d044e4a690496273a1e57ffb06a55daf9c81e46fc29ecb29fdf0792f2d64736f6c634300080d0033",
  "deployedBytecode": "0x608060405234801561001057600080fd5b506004361061007d5760003560e01c8063943865551161005b5780639438655514610103578063c45a015514610126578063c56326de14610165578063e9b7218a1461018557600080fd5b80630f8f2d1d146100825780636ea08e2a146100ba5780638fe5a01e146100e2575b600080fd5b61009561009036600461164b565b6101e4565b6040805194855260208501939093529183015260608201526080015b60405180910390f35b6100cd6100c836600461164b565b610408565b604080519283526020830191909152016100b1565b6100f56100f036600461166f565b610626565b6040516100b192919061178b565b61011661011136600461166f565b610820565b6040516100b194939291906117b9565b61014d7f000000000000000000000000000000000000000000000000000000000000000081565b6040516001600160a01b0390911681526020016100b1565b61017861017336600461164b565b610bdc565b6040516100b19190611811565b61019861019336600461164b565b610ff1565b6040516100b19190600060c082019050825182526020830151602083015260408301516040830152606083015160608301526080830151608083015260a083015160a083015292915050565b60008060008060006040518060a00160405280876001600160a01b031663617a34196040518163ffffffff1660e01b8152600401600060405180830381865afa158015610235573d6000803e3d6000fd5b505050506040513d6000823e601f3d908101601f1916820160405261025d919081019061192e565b81526020017f00000000000000000000000000000000000000000000000000000000000000006001600160a01b03168152602001876001600160a01b0316630dfe16816040518163ffffffff1660e01b8152600401602060405180830381865afa1580156102cf573d6000803e3d6000fd5b505050506040513d601f19601f820116820180604052508101906102f39190611a1d565b6001600160a01b03168152602001876001600160a01b031663d21220a76040518163ffffffff1660e01b8152600401602060405180830381865afa15801561033f573d6000803e3d6000fd5b505050506040513d601f19601f820116820180604052508101906103639190611a1d565b6001600160a01b03168152602001876001600160a01b0316815250905073__$3d23d8578387a47facd93bb77f6fe6e81b$__63e56f4d91826040518263ffffffff1660e01b81526004016103b79190611a3a565b608060405180830381865af41580156103d4573d6000803e3d6000fd5b505050506040513d601f19601f820116820180604052508101906103f89190611b0b565b9299919850965090945092505050565b60008060006040518060a00160405280856001600160a01b031663617a34196040518163ffffffff1660e01b8152600401600060405180830381865afa158015610456573d6000803e3d6000fd5b505050506040513d6000823e601f3d908101601f1916820160405261047e919081019061192e565b81526020017f00000000000000000000000000000000000000000000000000000000000000006001600160a01b03168152602001856001600160a01b0316630dfe16816040518163ffffffff1660e01b8152600401602060405180830381865afa1580156104f0573d6000803e3d6000fd5b505050506040513d601f19601f820116820180604052508101906105149190611a1d565b6001600160a01b03168152602001856001600160a01b031663d21220a76040518163ffffffff1660e01b8152600401602060405180830381865afa158015610560573d6000803e3d6000fd5b505050506040513d601f19601f820116820180604052508101906105849190611a1d565b6001600160a01b03168152602001856001600160a01b0316815250905073__$3d23d8578387a47facd93bb77f6fe6e81b$__63e56f4d91826040518263ffffffff1660e01b81526004016105d89190611a3a565b608060405180830381865af41580156105f5573d6000803e3d6000fd5b505050506040513d601f19601f820116820180604052508101906106199190611b0b565b5091969095509350505050565b6060808567ffffffffffffffff8111156106425761064261189e565b60405190808252806020026020018201604052801561069d57816020015b6040805160a08101825260009181018281526060820183905260808201839052815260208101919091528152602001906001900390816106605790505b5091508567ffffffffffffffff8111156106b9576106b961189e565b60405190808252806020026020018201604052801561071457816020015b6040805160a08101825260009181018281526060820183905260808201839052815260208101919091528152602001906001900390816106d75790505b50905060005b868110156108155760008061074888888c8c8781811061073c5761073c611b41565b9050606002018961144b565b50509150915060405180604001604052808b8b8681811061076b5761076b611b41565b9050606002018036038101906107819190611b57565b81526020018381525085848151811061079c5761079c611b41565b602002602001018190525060405180604001604052808b8b868181106107c4576107c4611b41565b9050606002018036038101906107da9190611b57565b8152602001828152508484815181106107f5576107f5611b41565b60200260200101819052505050808061080d90611bdf565b91505061071a565b509550959350505050565b60608080808767ffffffffffffffff81111561083e5761083e61189e565b60405190808252806020026020018201604052801561089957816020015b6040805160a081018252600091810182815260608201839052608082018390528152602081019190915281526020019060019003908161085c5790505b5093508767ffffffffffffffff8111156108b5576108b561189e565b60405190808252806020026020018201604052801561091057816020015b6040805160a08101825260009181018281526060820183905260808201839052815260208101919091528152602001906001900390816108d35790505b5092508767ffffffffffffffff81111561092c5761092c61189e565b60405190808252806020026020018201604052801561098757816020015b6040805160a081018252600091810182815260608201839052608082018390528152602081019190915281526020019060019003908161094a5790505b5091508767ffffffffffffffff8111156109a3576109a361189e565b6040519080825280602002602001820160405280156109fe57816020015b6040805160a08101825260009181018281526060820183905260808201839052815260208101919091528152602001906001900390816109c15790505b50905060005b88811015610bcf57898982818110610a1e57610a1e611b41565b905060600201803603810190610a349190611b57565b858281518110610a4657610a46611b41565b602090810291909101015152898982818110610a6457610a64611b41565b905060600201803603810190610a7a9190611b57565b848281518110610a8c57610a8c611b41565b602090810291909101015152898982818110610aaa57610aaa611b41565b905060600201803603810190610ac09190611b57565b838281518110610ad257610ad2611b41565b602090810291909101015152898982818110610af057610af0611b41565b905060600201803603810190610b069190611b57565b828281518110610b1857610b18611b41565b602090810291909101015152610b3b88888c8c8581811061073c5761073c611b41565b888581518110610b4d57610b4d611b41565b6020026020010151602001888681518110610b6a57610b6a611b41565b6020026020010151602001888781518110610b8757610b87611b41565b6020026020010151602001888881518110610ba457610ba4611b41565b6020908102919091018101510193909352929091529190525280610bc781611bdf565b915050610a04565b5095509550955095915050565b60606000826001600160a01b031663617a34196040518163ffffffff1660e01b8152600401600060405180830381865afa158015610c1e573d6000803e3d6000fd5b505050506040513d6000823e601f3d908101601f19168201604052610c46919081019061192e565b9050805167ffffffffffffffff811115610c6257610c6261189e565b604051908082528060200260200182016040528015610cc657816020015b610cb360408051808201825260008082528251606081018452818152602081810183905293810191909152909182015290565b815260200190600190039081610c805790505b50915060005b8151811015610fea5760007f00000000000000000000000000000000000000000000000000000000000000006001600160a01b0316631698ee82866001600160a01b0316630dfe16816040518163ffffffff1660e01b8152600401602060405180830381865afa158015610d44573d6000803e3d6000fd5b505050506040513d601f19601f82011682018060405250810190610d689190611a1d565b876001600160a01b031663d21220a76040518163ffffffff1660e01b8152600401602060405180830381865afa158015610da6573d6000803e3d6000fd5b505050506040513d601f19601f82011682018060405250810190610dca9190611a1d565b868681518110610ddc57610ddc611b41565b602090810291909101015160409081015190517fffffffff0000000000000000000000000000000000000000000000000000000060e086901b1681526001600160a01b03938416600482015292909116602483015262ffffff166044820152606401602060405180830381865afa158015610e5b573d6000803e3d6000fd5b505050506040513d601f19601f82011682018060405250810190610e7f9190611a1d565b9050600073__$b131e44167300e1b6d47510635310686a7$__635f49415b8388878781518110610eb157610eb1611b41565b602002602001015160000151888881518110610ecf57610ecf611b41565b60209081029190910181015101516040517fffffffff0000000000000000000000000000000000000000000000000000000060e087901b1681526001600160a01b039485166004820152939092166024840152600290810b60448401520b6064820152608401602060405180830381865af4158015610f52573d6000803e3d6000fd5b505050506040513d601f19601f82011682018060405250810190610f769190611bf8565b90506040518060400160405280826fffffffffffffffffffffffffffffffff168152602001858581518110610fad57610fad611b41565b6020026020010151815250858481518110610fca57610fca611b41565b602002602001018190525050508080610fe290611bdf565b915050610ccc565b5050919050565b61102a6040518060c001604052806000815260200160008152602001600081526020016000815260200160008152602001600081525090565b60006040518060a00160405280846001600160a01b031663617a34196040518163ffffffff1660e01b8152600401600060405180830381865afa158015611075573d6000803e3d6000fd5b505050506040513d6000823e601f3d908101601f1916820160405261109d919081019061192e565b81526020017f00000000000000000000000000000000000000000000000000000000000000006001600160a01b03168152602001846001600160a01b0316630dfe16816040518163ffffffff1660e01b8152600401602060405180830381865afa15801561110f573d6000803e3d6000fd5b505050506040513d601f19601f820116820180604052508101906111339190611a1d565b6001600160a01b03168152602001846001600160a01b031663d21220a76040518163ffffffff1660e01b8152600401602060405180830381865afa15801561117f573d6000803e3d6000fd5b505050506040513d601f19601f820116820180604052508101906111a39190611a1d565b6001600160a01b03168152602001846001600160a01b0316815250905073__$3d23d8578387a47facd93bb77f6fe6e81b$__63e56f4d91826040518263ffffffff1660e01b81526004016111f79190611a3a565b608060405180830381865af4158015611214573d6000803e3d6000fd5b505050506040513d601f19601f820116820180604052508101906112389190611b0b565b6060860152604080860191909152602080860192909252918452608083015182517f065756db00000000000000000000000000000000000000000000000000000000815292516001600160a01b039091169263065756db9260048083019391928290030181865afa1580156112b1573d6000803e3d6000fd5b505050506040513d601f19601f820116820180604052508101906112d59190611c2a565b604080830151608084015191516370a0823160e01b81526001600160a01b0392831660048201529116906370a0823190602401602060405180830381865afa158015611325573d6000803e3d6000fd5b505050506040513d601f19601f820116820180604052508101906113499190611c2a565b6113539190611c43565b82608001818152505080608001516001600160a01b03166342fb9d446040518163ffffffff1660e01b8152600401602060405180830381865afa15801561139e573d6000803e3d6000fd5b505050506040513d601f19601f820116820180604052508101906113c29190611c2a565b606082015160808301516040516370a0823160e01b81526001600160a01b0391821660048201529116906370a0823190602401602060405180830381865afa158015611412573d6000803e3d6000fd5b505050506040513d601f19601f820116820180604052508101906114369190611c2a565b6114409190611c43565b60a083015250919050565b600080600080866001600160a01b0316886001600160a01b031610611471578688611474565b87875b909850965060006001600160a01b037f000000000000000000000000000000000000000000000000000000000000000016631698ee828a8a6114bc60608c0160408d01611c5a565b6040517fffffffff0000000000000000000000000000000000000000000000000000000060e086901b1681526001600160a01b03938416600482015292909116602483015262ffffff166044820152606401602060405180830381865afa15801561152b573d6000803e3d6000fd5b505050506040513d601f19601f8201168201806040525081019061154f9190611a1d565b905073__$3d23d8578387a47facd93bb77f6fe6e81b$__63ccd5c4626040518060600160405280896001600160a01b031681526020018a8036038101906115969190611b57565b8152602001846001600160a01b03168152506040518263ffffffff1660e01b81526004016115c49190611c77565b608060405180830381865af41580156115e1573d6000803e3d6000fd5b505050506040513d601f19601f820116820180604052508101906116059190611b0b565b929750909550935091506116198386611cd5565b94506116258285611cd5565b935050945094509450949050565b6001600160a01b038116811461164857600080fd5b50565b60006020828403121561165d57600080fd5b813561166881611633565b9392505050565b60008060008060006080868803121561168757600080fd5b853567ffffffffffffffff8082111561169f57600080fd5b818801915088601f8301126116b357600080fd5b8135818111156116c257600080fd5b8960206060830285010111156116d757600080fd5b602092830197509550508601356116ed81611633565b925060408601356116fd81611633565b9150606086013561170d81611633565b809150509295509295909350565b600081518084526020808501945080840160005b83811015611780578151611766888251805160020b8252602081015160020b602083015262ffffff60408201511660408301525050565b83015160608801526080909601959082019060010161172f565b509495945050505050565b60408152600061179e604083018561171b565b82810360208401526117b0818561171b565b95945050505050565b6080815260006117cc608083018761171b565b82810360208401526117de818761171b565b905082810360408401526117f2818661171b565b90508281036060840152611806818561171b565b979650505050505050565b6020808252825182820181905260009190848201906040850190845b8181101561189257835180516fffffffffffffffffffffffffffffffff16845285015161187e86850182805160020b8252602081015160020b602083015262ffffff60408201511660408301525050565b50928401926080929092019160010161182d565b50909695505050505050565b634e487b7160e01b600052604160045260246000fd5b6040516060810167ffffffffffffffff811182821017156118d7576118d761189e565b60405290565b604051601f8201601f1916810167ffffffffffffffff811182821017156119065761190661189e565b604052919050565b8060020b811461164857600080fd5b62ffffff8116811461164857600080fd5b6000602080838503121561194157600080fd5b825167ffffffffffffffff8082111561195957600080fd5b818501915085601f83011261196d57600080fd5b81518181111561197f5761197f61189e565b61198d848260051b016118dd565b818152848101925060609182028401850191888311156119ac57600080fd5b938501935b82851015611a115780858a0312156119c95760008081fd5b6119d16118b4565b85516119dc8161190e565b8152858701516119eb8161190e565b818801526040868101516119fe8161191d565b90820152845293840193928501926119b1565b50979650505050505050565b600060208284031215611a2f57600080fd5b815161166881611633565b6020808252825160a083830152805160c0840181905260009291820190839060e08601905b80831015611aaa57611a94828551805160020b8252602081015160020b602083015262ffffff60408201511660408301525050565b6060820191508484019350600183019250611a5f565b50928601516001600160a01b03811660408701529260408701516001600160a01b0381166060880152935060608701516001600160a01b0381166080880152935060808701516001600160a01b03811660a088015293509695505050505050565b60008060008060808587031215611b2157600080fd5b505082516020840151604085015160609095015191969095509092509050565b634e487b7160e01b600052603260045260246000fd5b600060608284031215611b6957600080fd5b6040516060810181811067ffffffffffffffff82111715611b8c57611b8c61189e565b6040528235611b9a8161190e565b81526020830135611baa8161190e565b60208201526040830135611bbd8161191d565b60408201529392505050565b634e487b7160e01b600052601160045260246000fd5b600060018201611bf157611bf1611bc9565b5060010190565b600060208284031215611c0a57600080fd5b81516fffffffffffffffffffffffffffffffff8116811461166857600080fd5b600060208284031215611c3c57600080fd5b5051919050565b600082821015611c5557611c55611bc9565b500390565b600060208284031215611c6c57600080fd5b81356116688161191d565b600060a0820190506001600160a01b038084511683526020840151611cc16020850182805160020b8252602081015160020b602083015262ffffff60408201511660408301525050565b508060408501511660808401525092915050565b60008219821115611ce857611ce8611bc9565b50019056fea2646970667358221220341ac4d044e4a690496273a1e57ffb06a55daf9c81e46fc29ecb29fdf0792f2d64736f6c634300080d0033",
  "libraries": {
    "Underlying": "0x3B8D59e7048C8efe3492D23e4Dae1967FBbc0988",
    "Position": "0x8638FbD429b19249bb3BCF3Ec72d07a657E49642"
  },
  "devdoc": {
    "kind": "dev",
    "methods": {
      "token0AndToken1ByRange((int24,int24,uint24)[],address,address,address)": {
        "params": {
          "ranges_": "list of range to get underlying info about.",
          "token0_": "address of first token.",
          "token1_": "address of second token.",
          "vaultV2_": "address of Arrakis V2 vault."
        },
        "returns": {
          "amount0s": "amounts of underlying of token 0 of LPs.",
          "amount1s": "amounts of underlying of token 1 of LPs."
        }
      },
      "token0AndToken1PlusFeesByRange((int24,int24,uint24)[],address,address,address)": {
        "params": {
          "ranges_": "list of range to get underlying info about.",
          "token0_": "address of first token.",
          "token1_": "address of second token.",
          "vaultV2_": "address of Arrakis V2 vault."
        },
        "returns": {
          "amount0s": "amounts of underlying of token 1 of LPs.",
          "amount1s": "amounts of underlying of token 1 of LPs.",
          "fee0s": "amounts of fees of token 0 of LPs.",
          "fee1s": "amounts of fees of token 1 of LPs."
        }
      },
      "totalLiquidity(address)": {
        "params": {
          "vault_": "Arrakis V2 vault to get liquidity in ranges for"
        },
        "returns": {
          "liquidities": "list of ranges and amount of liquidity in each"
        }
      },
      "totalUnderlying(address)": {
        "params": {
          "vault_": "Arrakis V2 vault to get underlying info about."
        },
        "returns": {
          "amount0": "amount of underlying of token 0 of LPs.",
          "amount1": "amount of underlying of token 1 of LPs."
        }
      },
      "totalUnderlyingWithFees(address)": {
        "params": {
          "vault_": "Arrakis V2 vault to get underlying info about."
        },
        "returns": {
          "amount0": "amount of underlying of token 0 of LPs.",
          "amount1": "amount of underlying of token 1 of LPs.",
          "fee0": "amount of fee of token 0 of LPs.",
          "fee1": "amount of fee of token 0 of LPs."
        }
      },
      "totalUnderlyingWithFeesAndLeftOver(address)": {
        "params": {
          "vault_": "Arrakis V2 vault to get underlying info about."
        },
        "returns": {
          "underlying": "struct containing underlying amounts of token0 and token1, fees of token0 and token1, finally leftover on vault of token0 and token1."
        }
      }
    },
    "title": "ArrakisV2Helper helpers for querying common info about ArrakisV2 vaults",
    "version": 1
  },
  "userdoc": {
    "kind": "user",
    "methods": {
      "token0AndToken1ByRange((int24,int24,uint24)[],address,address,address)": {
        "notice": "get underlyings of token0 and token1 in two lists."
      },
      "token0AndToken1PlusFeesByRange((int24,int24,uint24)[],address,address,address)": {
        "notice": "get underlyings and fees of token0 and token1 in two lists."
      },
      "totalLiquidity(address)": {
        "notice": "get liquidity in all uniswap v3 ranges"
      },
      "totalUnderlying(address)": {
        "notice": "get underlying."
      },
      "totalUnderlyingWithFees(address)": {
        "notice": "get total underlying, also returns uncollected fees separately."
      },
      "totalUnderlyingWithFeesAndLeftOver(address)": {
        "notice": "get total underlying, also returns uncollected fees and leftover separatly."
      }
    },
    "version": 1
  },
  "storageLayout": {
    "storage": [],
    "types": null
  }
}