{
  "address": "0xb11bb8ad710579Cc5ED16b1C8587808109c1f193",
  "abi": [
    {
      "inputs": [
        {
          "internalType": "contract IUniswapV3Factory",
          "name": "factory_",
          "type": "address"
        },
        {
          "internalType": "contract IArrakisV2Helper",
          "name": "helper_",
          "type": "address"
        }
      ],
      "stateMutability": "nonpayable",
      "type": "constructor"
    },
    {
      "inputs": [],
      "name": "factory",
      "outputs": [
        {
          "internalType": "contract IUniswapV3Factory",
          "name": "",
          "type": "address"
        }
      ],
      "stateMutability": "view",
      "type": "function"
    },
    {
      "inputs": [
        {
          "internalType": "int24",
          "name": "currentTick_",
          "type": "int24"
        },
        {
          "internalType": "int24",
          "name": "lowerTick_",
          "type": "int24"
        },
        {
          "internalType": "int24",
          "name": "upperTick_",
          "type": "int24"
        },
        {
          "internalType": "uint128",
          "name": "liquidity_",
          "type": "uint128"
        }
      ],
      "name": "getAmountsForLiquidity",
      "outputs": [
        {
          "internalType": "uint256",
          "name": "amount0",
          "type": "uint256"
        },
        {
          "internalType": "uint256",
          "name": "amount1",
          "type": "uint256"
        }
      ],
      "stateMutability": "pure",
      "type": "function"
    },
    {
      "inputs": [
        {
          "internalType": "contract IArrakisV2",
          "name": "vaultV2_",
          "type": "address"
        },
        {
          "internalType": "uint256",
          "name": "amount0Max_",
          "type": "uint256"
        },
        {
          "internalType": "uint256",
          "name": "amount1Max_",
          "type": "uint256"
        }
      ],
      "name": "getMintAmounts",
      "outputs": [
        {
          "internalType": "uint256",
          "name": "amount0",
          "type": "uint256"
        },
        {
          "internalType": "uint256",
          "name": "amount1",
          "type": "uint256"
        },
        {
          "internalType": "uint256",
          "name": "mintAmount",
          "type": "uint256"
        }
      ],
      "stateMutability": "view",
      "type": "function"
    },
    {
      "inputs": [
        {
          "internalType": "address",
          "name": "addr_",
          "type": "address"
        },
        {
          "internalType": "int24",
          "name": "lowerTick_",
          "type": "int24"
        },
        {
          "internalType": "int24",
          "name": "upperTick_",
          "type": "int24"
        }
      ],
      "name": "getPositionId",
      "outputs": [
        {
          "internalType": "bytes32",
          "name": "positionId",
          "type": "bytes32"
        }
      ],
      "stateMutability": "pure",
      "type": "function"
    },
    {
      "inputs": [],
      "name": "helper",
      "outputs": [
        {
          "internalType": "contract IArrakisV2Helper",
          "name": "",
          "type": "address"
        }
      ],
      "stateMutability": "view",
      "type": "function"
    },
    {
      "inputs": [
        {
          "components": [
            {
              "components": [
                {
                  "internalType": "int24",
                  "name": "lowerTick",
                  "type": "int24"
                },
                {
                  "internalType": "int24",
                  "name": "upperTick",
                  "type": "int24"
                },
                {
                  "internalType": "uint24",
                  "name": "feeTier",
                  "type": "uint24"
                }
              ],
              "internalType": "struct Range",
              "name": "range",
              "type": "tuple"
            },
            {
              "internalType": "uint256",
              "name": "weight",
              "type": "uint256"
            }
          ],
          "internalType": "struct RangeWeight[]",
          "name": "rangeWeights_",
          "type": "tuple[]"
        },
        {
          "internalType": "contract IArrakisV2",
          "name": "vaultV2_",
          "type": "address"
        }
      ],
      "name": "standardRebalance",
      "outputs": [
        {
          "components": [
            {
              "components": [
                {
                  "internalType": "uint128",
                  "name": "liquidity",
                  "type": "uint128"
                },
                {
                  "components": [
                    {
                      "internalType": "int24",
                      "name": "lowerTick",
                      "type": "int24"
                    },
                    {
                      "internalType": "int24",
                      "name": "upperTick",
                      "type": "int24"
                    },
                    {
                      "internalType": "uint24",
                      "name": "feeTier",
                      "type": "uint24"
                    }
                  ],
                  "internalType": "struct Range",
                  "name": "range",
                  "type": "tuple"
                }
              ],
              "internalType": "struct PositionLiquidity[]",
              "name": "burns",
              "type": "tuple[]"
            },
            {
              "components": [
                {
                  "internalType": "uint128",
                  "name": "liquidity",
                  "type": "uint128"
                },
                {
                  "components": [
                    {
                      "internalType": "int24",
                      "name": "lowerTick",
                      "type": "int24"
                    },
                    {
                      "internalType": "int24",
                      "name": "upperTick",
                      "type": "int24"
                    },
                    {
                      "internalType": "uint24",
                      "name": "feeTier",
                      "type": "uint24"
                    }
                  ],
                  "internalType": "struct Range",
                  "name": "range",
                  "type": "tuple"
                }
              ],
              "internalType": "struct PositionLiquidity[]",
              "name": "mints",
              "type": "tuple[]"
            },
            {
              "components": [
                {
                  "internalType": "bytes",
                  "name": "payload",
                  "type": "bytes"
                },
                {
                  "internalType": "address",
                  "name": "router",
                  "type": "address"
                },
                {
                  "internalType": "uint256",
                  "name": "amountIn",
                  "type": "uint256"
                },
                {
                  "internalType": "uint256",
                  "name": "expectedMinReturn",
                  "type": "uint256"
                },
                {
                  "internalType": "bool",
                  "name": "zeroForOne",
                  "type": "bool"
                }
              ],
              "internalType": "struct SwapPayload",
              "name": "swap",
              "type": "tuple"
            },
            {
              "internalType": "uint256",
              "name": "minBurn0",
              "type": "uint256"
            },
            {
              "internalType": "uint256",
              "name": "minBurn1",
              "type": "uint256"
            },
            {
              "internalType": "uint256",
              "name": "minDeposit0",
              "type": "uint256"
            },
            {
              "internalType": "uint256",
              "name": "minDeposit1",
              "type": "uint256"
            }
          ],
          "internalType": "struct Rebalance",
          "name": "rebalanceParams",
          "type": "tuple"
        }
      ],
      "stateMutability": "view",
      "type": "function"
    }
  ],
  "transactionHash": "0x7e4c1e0d01992a21b9becbd2eb7163534a7f85504e2b7fac662e6aa8c105bf3a",
  "args": [
    "0x1F98431c8aD98523631AE4a59f267346ea31F984",
    "0x07d2CeB4869DFE17e8D48c92A71eDC3AE564449f"
  ],
  "numDeployments": 1,
  "solcInputHash": "e8d630df65443fa8afbc5f806e282892",
  "bytecode": "0x60c06040523480156200001157600080fd5b506040516200211438038062002114833981016040819052620000349162000065565b6001600160a01b039182166080521660a052620000a4565b6001600160a01b03811681146200006257600080fd5b50565b600080604083850312156200007957600080fd5b825162000086816200004c565b602084015190925062000099816200004c565b809150509250929050565b60805160a05161202f620000e56000396000818160a2015281816103db0152610b73015260008181610109015281816104e101526109d8015261202f6000f3fe608060405234801561001057600080fd5b50600436106100725760003560e01c8063c45a015511610050578063c45a015514610104578063c49f25af1461012b578063fa111ce71461014b57600080fd5b80631208efca1461007757806363b0e66a1461009d578063a339df12146100dc575b600080fd5b61008a6100853660046117f3565b610179565b6040519081526020015b60405180910390f35b6100c47f000000000000000000000000000000000000000000000000000000000000000081565b6040516001600160a01b039091168152602001610094565b6100ef6100ea366004611853565b61022d565b60408051928352602083019190915201610094565b6100c47f000000000000000000000000000000000000000000000000000000000000000081565b61013e610139366004611982565b610262565b6040516100949190611b0b565b61015e610159366004611c16565b610b69565b60408051938452602084019290925290820152606001610094565b6040517f1208efca0000000000000000000000000000000000000000000000000000000081526001600160a01b0384166004820152600283810b602483015282900b6044820152600090738638FbD429b19249bb3BCF3Ec72d07a657E4964290631208efca90606401602060405180830381865af41580156101ff573d6000803e3d6000fd5b505050506040513d601f19601f820116820180604052508101906102239190611c4b565b90505b9392505050565b60008061025461023c87610ebc565b61024587610ebc565b61024e87610ebc565b8661130a565b915091505b94509492505050565b61026a611754565b6000806000806000866001600160a01b031663617a34196040518163ffffffff1660e01b8152600401600060405180830381865afa1580156102b0573d6000803e3d6000fd5b505050506040513d6000823e601f3d908101601f191682016040526102d89190810190611c64565b9050866001600160a01b0316630dfe16816040518163ffffffff1660e01b8152600401602060405180830381865afa158015610318573d6000803e3d6000fd5b505050506040513d601f19601f8201168201806040525081019061033c9190611d3d565b9250866001600160a01b031663d21220a76040518163ffffffff1660e01b8152600401602060405180830381865afa15801561037c573d6000803e3d6000fd5b505050506040513d601f19601f820116820180604052508101906103a09190611d3d565b6040517f6ea08e2a0000000000000000000000000000000000000000000000000000000081526001600160a01b0389811660048301529193507f000000000000000000000000000000000000000000000000000000000000000090911690636ea08e2a906024016040805180830381865afa158015610423573d6000803e3d6000fd5b505050506040513d601f19601f820116820180604052508101906104479190611d5a565b8251919650945060009067ffffffffffffffff811115610469576104696118af565b6040519080825280602002602001820160405280156104cd57816020015b6104ba60408051808201825260008082528251606081018452818152602081810183905293810191909152909182015290565b8152602001906001900390816104875790505b5090506000805b83518110156107a95760007f00000000000000000000000000000000000000000000000000000000000000006001600160a01b0316631698ee82888888868151811061052257610522611d7e565b602090810291909101015160409081015190517fffffffff0000000000000000000000000000000000000000000000000000000060e086901b1681526001600160a01b03938416600482015292909116602483015262ffffff166044820152606401602060405180830381865afa1580156105a1573d6000803e3d6000fd5b505050506040513d601f19601f820116820180604052508101906105c59190611d3d565b6001600160a01b031663514ea4bf738638FbD429b19249bb3BCF3Ec72d07a657E49642631208efca8e89878151811061060057610600611d7e565b6020026020010151600001518a888151811061061e5761061e611d7e565b60209081029190910181015101516040517fffffffff0000000000000000000000000000000000000000000000000000000060e086901b1681526001600160a01b039093166004840152600291820b6024840152900b6044820152606401602060405180830381865af4158015610699573d6000803e3d6000fd5b505050506040513d601f19601f820116820180604052508101906106bd9190611c4b565b6040518263ffffffff1660e01b81526004016106db91815260200190565b60a060405180830381865afa1580156106f8573d6000803e3d6000fd5b505050506040513d601f19601f8201168201806040525081019061071c9190611d94565b5092935050506001600160801b038216159050610741578261073d81611e0c565b9350505b6040518060400160405280826001600160801b0316815260200186848151811061076d5761076d611d7e565b602002602001015181525084838151811061078a5761078a611d7e565b60200260200101819052505080806107a190611e0c565b9150506104d4565b508067ffffffffffffffff8111156107c3576107c36118af565b60405190808252806020026020018201604052801561082757816020015b61081460408051808201825260008082528251606081018452818152602081810183905293810191909152909182015290565b8152602001906001900390816107e15790505b5088526000805b83518110156108c257600084828151811061084b5761084b611d7e565b6020026020010151600001516001600160801b031611156108b05783818151811061087857610878611d7e565b60200260200101518a60000151838151811061089657610896611d7e565b602002602001018190525081806108ac90611e0c565b9250505b806108ba81611e0c565b91505061082e565b50505050506108d0876113a5565b865167ffffffffffffffff8111156108ea576108ea6118af565b60405190808252806020026020018201604052801561094e57816020015b61093b60408051808201825260008082528251606081018452818152602081810183905293810191909152909182015290565b8152602001906001900390816109085790505b50602086015260005b8751811015610b5e57600088828151811061097457610974611d7e565b6020908102919091010151805160409081015190517f1698ee820000000000000000000000000000000000000000000000000000000081526001600160a01b038781166004830152868116602483015262ffffff90921660448201529192506000917f000000000000000000000000000000000000000000000000000000000000000090911690631698ee8290606401602060405180830381865afa158015610a21573d6000803e3d6000fd5b505050506040513d601f19601f82011682018060405250810190610a459190611d3d565b6001600160a01b0316633850c7bd6040518163ffffffff1660e01b815260040160e060405180830381865afa158015610a82573d6000803e3d6000fd5b505050506040513d601f19601f82011682018060405250810190610aa69190611e37565b50505050505090506000610b0382610ac5856000015160000151610ebc565b855160200151610ad490610ebc565b610ae98c886020015161271061ffff16611446565b610afe8c896020015161271061ffff16611446565b6114f4565b90506040518060400160405280826001600160801b03168152602001846000015181525089602001518581518110610b3d57610b3d611d7e565b60200260200101819052505050508080610b5690611e0c565b915050610957565b505050505092915050565b60008060008060007f00000000000000000000000000000000000000000000000000000000000000006001600160a01b0316636ea08e2a896040518263ffffffff1660e01b8152600401610bcc91906001600160a01b0391909116815260200190565b6040805180830381865afa158015610be8573d6000803e3d6000fd5b505050506040513d601f19601f82011682018060405250810190610c0c9190611d5a565b915091506000886001600160a01b03166318160ddd6040518163ffffffff1660e01b8152600401602060405180830381865afa158015610c50573d6000803e3d6000fd5b505050506040513d601f19601f82011682018060405250810190610c749190611c4b565b90508015610d31576040517fc30fc38d0000000000000000000000000000000000000000000000000000000081526004810184905260248101839052604481018290526064810189905260848101889052733B8D59e7048C8efe3492D23e4Dae1967FBbc09889063c30fc38d9060a401606060405180830381865af4158015610d01573d6000803e3d6000fd5b505050506040513d601f19601f82011682018060405250810190610d259190611ed4565b91975095509350610eb0565b733B8D59e7048C8efe3492D23e4Dae1967FBbc098863c30fc38d8a6001600160a01b03166314b806306040518163ffffffff1660e01b8152600401602060405180830381865afa158015610d89573d6000803e3d6000fd5b505050506040513d601f19601f82011682018060405250810190610dad9190611c4b565b8b6001600160a01b031663f2eb3e346040518163ffffffff1660e01b8152600401602060405180830381865afa158015610deb573d6000803e3d6000fd5b505050506040513d601f19601f82011682018060405250810190610e0f9190611c4b565b6040517fffffffff0000000000000000000000000000000000000000000000000000000060e085901b16815260048101929092526024820152670de0b6b3a76400006044820152606481018b9052608481018a905260a401606060405180830381865af4158015610e84573d6000803e3d6000fd5b505050506040513d601f19601f82011682018060405250810190610ea89190611ed4565b919750955093505b50505093509350939050565b60008060008360020b12610ed3578260020b610ee0565b8260020b610ee090611f02565b9050610eef620d89e719611f3a565b60020b811115610f465760405162461bcd60e51b815260206004820152600160248201527f540000000000000000000000000000000000000000000000000000000000000060448201526064015b60405180910390fd5b600081600116600003610f6a57700100000000000000000000000000000000610f7c565b6ffffcb933bd6fad37aa2d162d1a5940015b70ffffffffffffffffffffffffffffffffff1690506002821615610fbb576080610fb6826ffff97272373d413259a46990580e213a611f5c565b901c90505b6004821615610fe5576080610fe0826ffff2e50f5f656932ef12357cf3c7fdcc611f5c565b901c90505b600882161561100f57608061100a826fffe5caca7e10e4e61c3624eaa0941cd0611f5c565b901c90505b6010821615611039576080611034826fffcb9843d60f6159c9db58835c926644611f5c565b901c90505b602082161561106357608061105e826fff973b41fa98c081472e6896dfb254c0611f5c565b901c90505b604082161561108d576080611088826fff2ea16466c96a3843ec78b326b52861611f5c565b901c90505b60808216156110b75760806110b2826ffe5dee046a99a2a811c461f1969c3053611f5c565b901c90505b6101008216156110e25760806110dd826ffcbe86c7900a88aedcffc83b479aa3a4611f5c565b901c90505b61020082161561110d576080611108826ff987a7253ac413176f2b074cf7815e54611f5c565b901c90505b610400821615611138576080611133826ff3392b0822b70005940c7a398e4b70f3611f5c565b901c90505b61080082161561116357608061115e826fe7159475a2c29b7443b29c7fa6e889d9611f5c565b901c90505b61100082161561118e576080611189826fd097f3bdfd2022b8845ad8f792aa5825611f5c565b901c90505b6120008216156111b95760806111b4826fa9f746462d870fdf8a65dc1f90e061e5611f5c565b901c90505b6140008216156111e45760806111df826f70d869a156d2a1b890bb3df62baf32f7611f5c565b901c90505b61800082161561120f57608061120a826f31be135f97d08fd981231505542fcfa6611f5c565b901c90505b6201000082161561123b576080611236826f09aa508b5b7a84e1c677de54f3e99bc9611f5c565b901c90505b62020000821615611266576080611261826e5d6af8dedb81196699c329225ee604611f5c565b901c90505b6204000082161561129057608061128b826d2216e584f5fa1ea926041bedfe98611f5c565b901c90505b620800008216156112b85760806112b3826b048a170391f7dc42444e8fa2611f5c565b901c90505b60008460020b13156112d3576112d081600019611f91565b90505b6112e264010000000082611fa5565b156112ee5760016112f1565b60005b6113029060ff16602083901c611fb9565b949350505050565b600080836001600160a01b0316856001600160a01b0316111561132b579293925b846001600160a01b0316866001600160a01b0316116113565761134f8585856115b8565b9150610259565b836001600160a01b0316866001600160a01b0316101561138f5761137b8685856115b8565b9150611388858785611634565b9050610259565b61139a858585611634565b905094509492505050565b6000805b82518110156113ef578281815181106113c4576113c4611d7e565b602002602001015160200151826113db9190611fb9565b9150806113e781611e0c565b9150506113a9565b506127108111156114425760405162461bcd60e51b815260206004820152600c60248201527f746f74616c2077656967687400000000000000000000000000000000000000006044820152606401610f3d565b5050565b600080806000198587098587029250828110838203039150508060000361147f576000841161147457600080fd5b508290049050610226565b80841161148b57600080fd5b60008486880960026001871981018816978890046003810283188082028403028082028403028082028403028082028403028082028403029081029092039091026000889003889004909101858311909403939093029303949094049190911702949350505050565b6000836001600160a01b0316856001600160a01b03161115611514579293925b846001600160a01b0316866001600160a01b03161161153f57611538858585611687565b90506115af565b836001600160a01b0316866001600160a01b031610156115a1576000611566878686611687565b905060006115758789866116fa565b9050806001600160801b0316826001600160801b0316106115965780611598565b815b925050506115af565b6115ac8585846116fa565b90505b95945050505050565b6000826001600160a01b0316846001600160a01b031611156115d8579192915b6001600160a01b03841661162a7bffffffffffffffffffffffffffffffff000000000000000000000000606085901b166116128787611fd1565b6001600160a01b0316866001600160a01b0316611446565b6102239190611f91565b6000826001600160a01b0316846001600160a01b03161115611654579192915b6102236001600160801b03831661166b8686611fd1565b6001600160a01b03166c01000000000000000000000000611446565b6000826001600160a01b0316846001600160a01b031611156116a7579192915b60006116d3856001600160a01b0316856001600160a01b03166c01000000000000000000000000611446565b90506115af6116f584836116e78989611fd1565b6001600160a01b0316611446565b611739565b6000826001600160a01b0316846001600160a01b0316111561171a579192915b6102236116f5836c010000000000000000000000006116e78888611fd1565b806001600160801b038116811461174f57600080fd5b919050565b6040518060e0016040528060608152602001606081526020016117aa6040518060a001604052806060815260200160006001600160a01b0316815260200160008152602001600081526020016000151581525090565b8152602001600081526020016000815260200160008152602001600081525090565b6001600160a01b03811681146117e157600080fd5b50565b8060020b81146117e157600080fd5b60008060006060848603121561180857600080fd5b8335611813816117cc565b92506020840135611823816117e4565b91506040840135611833816117e4565b809150509250925092565b6001600160801b03811681146117e157600080fd5b6000806000806080858703121561186957600080fd5b8435611874816117e4565b93506020850135611884816117e4565b92506040850135611894816117e4565b915060608501356118a48161183e565b939692955090935050565b634e487b7160e01b600052604160045260246000fd5b6040805190810167ffffffffffffffff811182821017156118e8576118e86118af565b60405290565b6040516060810167ffffffffffffffff811182821017156118e8576118e86118af565b604051601f8201601f1916810167ffffffffffffffff8111828210171561193a5761193a6118af565b604052919050565b600067ffffffffffffffff82111561195c5761195c6118af565b5060051b60200190565b62ffffff811681146117e157600080fd5b803561174f816117cc565b600080604080848603121561199657600080fd5b833567ffffffffffffffff8111156119ad57600080fd5b8401601f810186136119be57600080fd5b803560206119d36119ce83611942565b611911565b82815260079290921b830181019181810190898411156119f257600080fd5b938201935b83851015611a7e57848a036080811215611a115760008081fd5b611a196118c5565b606080831215611a295760008081fd5b611a316118ee565b92508735611a3e816117e4565b835287860135611a4d816117e4565b8387015287890135611a5e81611966565b838a015291815290860135848201528252608090940193908201906119f7565b9650611a8d9050878201611977565b9450505050509250929050565b600081518084526020808501945080840160005b83811015611b0057815180516001600160801b031688528301518051600290810b858a015281850151900b6040808a0191909152015162ffffff16606088015260809096019590820190600101611aae565b509495945050505050565b60006020808352835160e082850152611b28610100850182611a9a565b905081850151601f1980868403016040870152611b458383611a9a565b92506040870151915080868403016060870152815160a0845280518060a086015260005b81811015611b855782810187015186820160c001528601611b69565b81811115611b9757600060c083880101525b50838601516001600160a01b038116868801529150604084015160408601526060840151606086015260808401519550611bd5608086018715159052565b60608901516080890152608089015160a089015260a089015160c089015260c089015160e089015260c083601f830116860101965050505050505092915050565b600080600060608486031215611c2b57600080fd5b8335611c36816117cc565b95602085013595506040909401359392505050565b600060208284031215611c5d57600080fd5b5051919050565b60006020808385031215611c7757600080fd5b825167ffffffffffffffff811115611c8e57600080fd5b8301601f81018513611c9f57600080fd5b8051611cad6119ce82611942565b81815260609182028301840191848201919088841115611ccc57600080fd5b938501935b83851015611d315780858a031215611ce95760008081fd5b611cf16118ee565b8551611cfc816117e4565b815285870151611d0b816117e4565b81880152604086810151611d1e81611966565b9082015283529384019391850191611cd1565b50979650505050505050565b600060208284031215611d4f57600080fd5b8151610226816117cc565b60008060408385031215611d6d57600080fd5b505080516020909101519092909150565b634e487b7160e01b600052603260045260246000fd5b600080600080600060a08688031215611dac57600080fd5b8551611db78161183e565b8095505060208601519350604086015192506060860151611dd78161183e565b6080870151909250611de88161183e565b809150509295509295909350565b634e487b7160e01b600052601160045260246000fd5b600060018201611e1e57611e1e611df6565b5060010190565b805161ffff8116811461174f57600080fd5b600080600080600080600060e0888a031215611e5257600080fd5b8751611e5d816117cc565b6020890151909750611e6e816117e4565b9550611e7c60408901611e25565b9450611e8a60608901611e25565b9350611e9860808901611e25565b925060a088015160ff81168114611eae57600080fd5b60c08901519092508015158114611ec457600080fd5b8091505092959891949750929550565b600080600060608486031215611ee957600080fd5b8351925060208401519150604084015190509250925092565b60007f80000000000000000000000000000000000000000000000000000000000000008203611f3357611f33611df6565b5060000390565b60008160020b627fffff198103611f5357611f53611df6565b60000392915050565b6000816000190483118215151615611f7657611f76611df6565b500290565b634e487b7160e01b600052601260045260246000fd5b600082611fa057611fa0611f7b565b500490565b600082611fb457611fb4611f7b565b500690565b60008219821115611fcc57611fcc611df6565b500190565b60006001600160a01b0383811690831681811015611ff157611ff1611df6565b03939250505056fea2646970667358221220a759cd74e87fcf544779f794eb4c66b9c8410453574f26c308caad715e21ef1a64736f6c634300080d0033",
  "deployedBytecode": "0x608060405234801561001057600080fd5b50600436106100725760003560e01c8063c45a015511610050578063c45a015514610104578063c49f25af1461012b578063fa111ce71461014b57600080fd5b80631208efca1461007757806363b0e66a1461009d578063a339df12146100dc575b600080fd5b61008a6100853660046117f3565b610179565b6040519081526020015b60405180910390f35b6100c47f000000000000000000000000000000000000000000000000000000000000000081565b6040516001600160a01b039091168152602001610094565b6100ef6100ea366004611853565b61022d565b60408051928352602083019190915201610094565b6100c47f000000000000000000000000000000000000000000000000000000000000000081565b61013e610139366004611982565b610262565b6040516100949190611b0b565b61015e610159366004611c16565b610b69565b60408051938452602084019290925290820152606001610094565b6040517f1208efca0000000000000000000000000000000000000000000000000000000081526001600160a01b0384166004820152600283810b602483015282900b604482015260009073__$b131e44167300e1b6d47510635310686a7$__90631208efca90606401602060405180830381865af41580156101ff573d6000803e3d6000fd5b505050506040513d601f19601f820116820180604052508101906102239190611c4b565b90505b9392505050565b60008061025461023c87610ebc565b61024587610ebc565b61024e87610ebc565b8661130a565b915091505b94509492505050565b61026a611754565b6000806000806000866001600160a01b031663617a34196040518163ffffffff1660e01b8152600401600060405180830381865afa1580156102b0573d6000803e3d6000fd5b505050506040513d6000823e601f3d908101601f191682016040526102d89190810190611c64565b9050866001600160a01b0316630dfe16816040518163ffffffff1660e01b8152600401602060405180830381865afa158015610318573d6000803e3d6000fd5b505050506040513d601f19601f8201168201806040525081019061033c9190611d3d565b9250866001600160a01b031663d21220a76040518163ffffffff1660e01b8152600401602060405180830381865afa15801561037c573d6000803e3d6000fd5b505050506040513d601f19601f820116820180604052508101906103a09190611d3d565b6040517f6ea08e2a0000000000000000000000000000000000000000000000000000000081526001600160a01b0389811660048301529193507f000000000000000000000000000000000000000000000000000000000000000090911690636ea08e2a906024016040805180830381865afa158015610423573d6000803e3d6000fd5b505050506040513d601f19601f820116820180604052508101906104479190611d5a565b8251919650945060009067ffffffffffffffff811115610469576104696118af565b6040519080825280602002602001820160405280156104cd57816020015b6104ba60408051808201825260008082528251606081018452818152602081810183905293810191909152909182015290565b8152602001906001900390816104875790505b5090506000805b83518110156107a95760007f00000000000000000000000000000000000000000000000000000000000000006001600160a01b0316631698ee82888888868151811061052257610522611d7e565b602090810291909101015160409081015190517fffffffff0000000000000000000000000000000000000000000000000000000060e086901b1681526001600160a01b03938416600482015292909116602483015262ffffff166044820152606401602060405180830381865afa1580156105a1573d6000803e3d6000fd5b505050506040513d601f19601f820116820180604052508101906105c59190611d3d565b6001600160a01b031663514ea4bf73__$b131e44167300e1b6d47510635310686a7$__631208efca8e89878151811061060057610600611d7e565b6020026020010151600001518a888151811061061e5761061e611d7e565b60209081029190910181015101516040517fffffffff0000000000000000000000000000000000000000000000000000000060e086901b1681526001600160a01b039093166004840152600291820b6024840152900b6044820152606401602060405180830381865af4158015610699573d6000803e3d6000fd5b505050506040513d601f19601f820116820180604052508101906106bd9190611c4b565b6040518263ffffffff1660e01b81526004016106db91815260200190565b60a060405180830381865afa1580156106f8573d6000803e3d6000fd5b505050506040513d601f19601f8201168201806040525081019061071c9190611d94565b5092935050506001600160801b038216159050610741578261073d81611e0c565b9350505b6040518060400160405280826001600160801b0316815260200186848151811061076d5761076d611d7e565b602002602001015181525084838151811061078a5761078a611d7e565b60200260200101819052505080806107a190611e0c565b9150506104d4565b508067ffffffffffffffff8111156107c3576107c36118af565b60405190808252806020026020018201604052801561082757816020015b61081460408051808201825260008082528251606081018452818152602081810183905293810191909152909182015290565b8152602001906001900390816107e15790505b5088526000805b83518110156108c257600084828151811061084b5761084b611d7e565b6020026020010151600001516001600160801b031611156108b05783818151811061087857610878611d7e565b60200260200101518a60000151838151811061089657610896611d7e565b602002602001018190525081806108ac90611e0c565b9250505b806108ba81611e0c565b91505061082e565b50505050506108d0876113a5565b865167ffffffffffffffff8111156108ea576108ea6118af565b60405190808252806020026020018201604052801561094e57816020015b61093b60408051808201825260008082528251606081018452818152602081810183905293810191909152909182015290565b8152602001906001900390816109085790505b50602086015260005b8751811015610b5e57600088828151811061097457610974611d7e565b6020908102919091010151805160409081015190517f1698ee820000000000000000000000000000000000000000000000000000000081526001600160a01b038781166004830152868116602483015262ffffff90921660448201529192506000917f000000000000000000000000000000000000000000000000000000000000000090911690631698ee8290606401602060405180830381865afa158015610a21573d6000803e3d6000fd5b505050506040513d601f19601f82011682018060405250810190610a459190611d3d565b6001600160a01b0316633850c7bd6040518163ffffffff1660e01b815260040160e060405180830381865afa158015610a82573d6000803e3d6000fd5b505050506040513d601f19601f82011682018060405250810190610aa69190611e37565b50505050505090506000610b0382610ac5856000015160000151610ebc565b855160200151610ad490610ebc565b610ae98c886020015161271061ffff16611446565b610afe8c896020015161271061ffff16611446565b6114f4565b90506040518060400160405280826001600160801b03168152602001846000015181525089602001518581518110610b3d57610b3d611d7e565b60200260200101819052505050508080610b5690611e0c565b915050610957565b505050505092915050565b60008060008060007f00000000000000000000000000000000000000000000000000000000000000006001600160a01b0316636ea08e2a896040518263ffffffff1660e01b8152600401610bcc91906001600160a01b0391909116815260200190565b6040805180830381865afa158015610be8573d6000803e3d6000fd5b505050506040513d601f19601f82011682018060405250810190610c0c9190611d5a565b915091506000886001600160a01b03166318160ddd6040518163ffffffff1660e01b8152600401602060405180830381865afa158015610c50573d6000803e3d6000fd5b505050506040513d601f19601f82011682018060405250810190610c749190611c4b565b90508015610d31576040517fc30fc38d000000000000000000000000000000000000000000000000000000008152600481018490526024810183905260448101829052606481018990526084810188905273__$3d23d8578387a47facd93bb77f6fe6e81b$__9063c30fc38d9060a401606060405180830381865af4158015610d01573d6000803e3d6000fd5b505050506040513d601f19601f82011682018060405250810190610d259190611ed4565b91975095509350610eb0565b73__$3d23d8578387a47facd93bb77f6fe6e81b$__63c30fc38d8a6001600160a01b03166314b806306040518163ffffffff1660e01b8152600401602060405180830381865afa158015610d89573d6000803e3d6000fd5b505050506040513d601f19601f82011682018060405250810190610dad9190611c4b565b8b6001600160a01b031663f2eb3e346040518163ffffffff1660e01b8152600401602060405180830381865afa158015610deb573d6000803e3d6000fd5b505050506040513d601f19601f82011682018060405250810190610e0f9190611c4b565b6040517fffffffff0000000000000000000000000000000000000000000000000000000060e085901b16815260048101929092526024820152670de0b6b3a76400006044820152606481018b9052608481018a905260a401606060405180830381865af4158015610e84573d6000803e3d6000fd5b505050506040513d601f19601f82011682018060405250810190610ea89190611ed4565b919750955093505b50505093509350939050565b60008060008360020b12610ed3578260020b610ee0565b8260020b610ee090611f02565b9050610eef620d89e719611f3a565b60020b811115610f465760405162461bcd60e51b815260206004820152600160248201527f540000000000000000000000000000000000000000000000000000000000000060448201526064015b60405180910390fd5b600081600116600003610f6a57700100000000000000000000000000000000610f7c565b6ffffcb933bd6fad37aa2d162d1a5940015b70ffffffffffffffffffffffffffffffffff1690506002821615610fbb576080610fb6826ffff97272373d413259a46990580e213a611f5c565b901c90505b6004821615610fe5576080610fe0826ffff2e50f5f656932ef12357cf3c7fdcc611f5c565b901c90505b600882161561100f57608061100a826fffe5caca7e10e4e61c3624eaa0941cd0611f5c565b901c90505b6010821615611039576080611034826fffcb9843d60f6159c9db58835c926644611f5c565b901c90505b602082161561106357608061105e826fff973b41fa98c081472e6896dfb254c0611f5c565b901c90505b604082161561108d576080611088826fff2ea16466c96a3843ec78b326b52861611f5c565b901c90505b60808216156110b75760806110b2826ffe5dee046a99a2a811c461f1969c3053611f5c565b901c90505b6101008216156110e25760806110dd826ffcbe86c7900a88aedcffc83b479aa3a4611f5c565b901c90505b61020082161561110d576080611108826ff987a7253ac413176f2b074cf7815e54611f5c565b901c90505b610400821615611138576080611133826ff3392b0822b70005940c7a398e4b70f3611f5c565b901c90505b61080082161561116357608061115e826fe7159475a2c29b7443b29c7fa6e889d9611f5c565b901c90505b61100082161561118e576080611189826fd097f3bdfd2022b8845ad8f792aa5825611f5c565b901c90505b6120008216156111b95760806111b4826fa9f746462d870fdf8a65dc1f90e061e5611f5c565b901c90505b6140008216156111e45760806111df826f70d869a156d2a1b890bb3df62baf32f7611f5c565b901c90505b61800082161561120f57608061120a826f31be135f97d08fd981231505542fcfa6611f5c565b901c90505b6201000082161561123b576080611236826f09aa508b5b7a84e1c677de54f3e99bc9611f5c565b901c90505b62020000821615611266576080611261826e5d6af8dedb81196699c329225ee604611f5c565b901c90505b6204000082161561129057608061128b826d2216e584f5fa1ea926041bedfe98611f5c565b901c90505b620800008216156112b85760806112b3826b048a170391f7dc42444e8fa2611f5c565b901c90505b60008460020b13156112d3576112d081600019611f91565b90505b6112e264010000000082611fa5565b156112ee5760016112f1565b60005b6113029060ff16602083901c611fb9565b949350505050565b600080836001600160a01b0316856001600160a01b0316111561132b579293925b846001600160a01b0316866001600160a01b0316116113565761134f8585856115b8565b9150610259565b836001600160a01b0316866001600160a01b0316101561138f5761137b8685856115b8565b9150611388858785611634565b9050610259565b61139a858585611634565b905094509492505050565b6000805b82518110156113ef578281815181106113c4576113c4611d7e565b602002602001015160200151826113db9190611fb9565b9150806113e781611e0c565b9150506113a9565b506127108111156114425760405162461bcd60e51b815260206004820152600c60248201527f746f74616c2077656967687400000000000000000000000000000000000000006044820152606401610f3d565b5050565b600080806000198587098587029250828110838203039150508060000361147f576000841161147457600080fd5b508290049050610226565b80841161148b57600080fd5b60008486880960026001871981018816978890046003810283188082028403028082028403028082028403028082028403028082028403029081029092039091026000889003889004909101858311909403939093029303949094049190911702949350505050565b6000836001600160a01b0316856001600160a01b03161115611514579293925b846001600160a01b0316866001600160a01b03161161153f57611538858585611687565b90506115af565b836001600160a01b0316866001600160a01b031610156115a1576000611566878686611687565b905060006115758789866116fa565b9050806001600160801b0316826001600160801b0316106115965780611598565b815b925050506115af565b6115ac8585846116fa565b90505b95945050505050565b6000826001600160a01b0316846001600160a01b031611156115d8579192915b6001600160a01b03841661162a7bffffffffffffffffffffffffffffffff000000000000000000000000606085901b166116128787611fd1565b6001600160a01b0316866001600160a01b0316611446565b6102239190611f91565b6000826001600160a01b0316846001600160a01b03161115611654579192915b6102236001600160801b03831661166b8686611fd1565b6001600160a01b03166c01000000000000000000000000611446565b6000826001600160a01b0316846001600160a01b031611156116a7579192915b60006116d3856001600160a01b0316856001600160a01b03166c01000000000000000000000000611446565b90506115af6116f584836116e78989611fd1565b6001600160a01b0316611446565b611739565b6000826001600160a01b0316846001600160a01b0316111561171a579192915b6102236116f5836c010000000000000000000000006116e78888611fd1565b806001600160801b038116811461174f57600080fd5b919050565b6040518060e0016040528060608152602001606081526020016117aa6040518060a001604052806060815260200160006001600160a01b0316815260200160008152602001600081526020016000151581525090565b8152602001600081526020016000815260200160008152602001600081525090565b6001600160a01b03811681146117e157600080fd5b50565b8060020b81146117e157600080fd5b60008060006060848603121561180857600080fd5b8335611813816117cc565b92506020840135611823816117e4565b91506040840135611833816117e4565b809150509250925092565b6001600160801b03811681146117e157600080fd5b6000806000806080858703121561186957600080fd5b8435611874816117e4565b93506020850135611884816117e4565b92506040850135611894816117e4565b915060608501356118a48161183e565b939692955090935050565b634e487b7160e01b600052604160045260246000fd5b6040805190810167ffffffffffffffff811182821017156118e8576118e86118af565b60405290565b6040516060810167ffffffffffffffff811182821017156118e8576118e86118af565b604051601f8201601f1916810167ffffffffffffffff8111828210171561193a5761193a6118af565b604052919050565b600067ffffffffffffffff82111561195c5761195c6118af565b5060051b60200190565b62ffffff811681146117e157600080fd5b803561174f816117cc565b600080604080848603121561199657600080fd5b833567ffffffffffffffff8111156119ad57600080fd5b8401601f810186136119be57600080fd5b803560206119d36119ce83611942565b611911565b82815260079290921b830181019181810190898411156119f257600080fd5b938201935b83851015611a7e57848a036080811215611a115760008081fd5b611a196118c5565b606080831215611a295760008081fd5b611a316118ee565b92508735611a3e816117e4565b835287860135611a4d816117e4565b8387015287890135611a5e81611966565b838a015291815290860135848201528252608090940193908201906119f7565b9650611a8d9050878201611977565b9450505050509250929050565b600081518084526020808501945080840160005b83811015611b0057815180516001600160801b031688528301518051600290810b858a015281850151900b6040808a0191909152015162ffffff16606088015260809096019590820190600101611aae565b509495945050505050565b60006020808352835160e082850152611b28610100850182611a9a565b905081850151601f1980868403016040870152611b458383611a9a565b92506040870151915080868403016060870152815160a0845280518060a086015260005b81811015611b855782810187015186820160c001528601611b69565b81811115611b9757600060c083880101525b50838601516001600160a01b038116868801529150604084015160408601526060840151606086015260808401519550611bd5608086018715159052565b60608901516080890152608089015160a089015260a089015160c089015260c089015160e089015260c083601f830116860101965050505050505092915050565b600080600060608486031215611c2b57600080fd5b8335611c36816117cc565b95602085013595506040909401359392505050565b600060208284031215611c5d57600080fd5b5051919050565b60006020808385031215611c7757600080fd5b825167ffffffffffffffff811115611c8e57600080fd5b8301601f81018513611c9f57600080fd5b8051611cad6119ce82611942565b81815260609182028301840191848201919088841115611ccc57600080fd5b938501935b83851015611d315780858a031215611ce95760008081fd5b611cf16118ee565b8551611cfc816117e4565b815285870151611d0b816117e4565b81880152604086810151611d1e81611966565b9082015283529384019391850191611cd1565b50979650505050505050565b600060208284031215611d4f57600080fd5b8151610226816117cc565b60008060408385031215611d6d57600080fd5b505080516020909101519092909150565b634e487b7160e01b600052603260045260246000fd5b600080600080600060a08688031215611dac57600080fd5b8551611db78161183e565b8095505060208601519350604086015192506060860151611dd78161183e565b6080870151909250611de88161183e565b809150509295509295909350565b634e487b7160e01b600052601160045260246000fd5b600060018201611e1e57611e1e611df6565b5060010190565b805161ffff8116811461174f57600080fd5b600080600080600080600060e0888a031215611e5257600080fd5b8751611e5d816117cc565b6020890151909750611e6e816117e4565b9550611e7c60408901611e25565b9450611e8a60608901611e25565b9350611e9860808901611e25565b925060a088015160ff81168114611eae57600080fd5b60c08901519092508015158114611ec457600080fd5b8091505092959891949750929550565b600080600060608486031215611ee957600080fd5b8351925060208401519150604084015190509250925092565b60007f80000000000000000000000000000000000000000000000000000000000000008203611f3357611f33611df6565b5060000390565b60008160020b627fffff198103611f5357611f53611df6565b60000392915050565b6000816000190483118215151615611f7657611f76611df6565b500290565b634e487b7160e01b600052601260045260246000fd5b600082611fa057611fa0611f7b565b500490565b600082611fb457611fb4611f7b565b500690565b60008219821115611fcc57611fcc611df6565b500190565b60006001600160a01b0383811690831681811015611ff157611ff1611df6565b03939250505056fea2646970667358221220a759cd74e87fcf544779f794eb4c66b9c8410453574f26c308caad715e21ef1a64736f6c634300080d0033",
  "libraries": {
    "Position": "0x8638FbD429b19249bb3BCF3Ec72d07a657E49642",
    "Underlying": "0x3B8D59e7048C8efe3492D23e4Dae1967FBbc0988"
  },
  "devdoc": {
    "kind": "dev",
    "methods": {
      "getMintAmounts(address,uint256,uint256)": {
        "params": {
          "amount0Max_": "max amount of token 0.",
          "amount1Max_": "max amount of token 1.",
          "vaultV2_": "Arrakis V2 vault."
        },
        "returns": {
          "amount0": "of token 0 expected to be deposited.",
          "amount1": "of token 1 expected to be deposited.",
          "mintAmount": "amount f shares expected to be minted."
        }
      },
      "standardRebalance(((int24,int24,uint24),uint256)[],address)": {
        "params": {
          "rangeWeights_": "list of ranges by weights.",
          "vaultV2_": "Arrakis V2 vault."
        },
        "returns": {
          "rebalanceParams": "payload to send to rebalance function on Arrakis V2 contract."
        }
      }
    },
    "title": "ArrakisV2Resolver helpers that resolve / compute payloads for ArrakisV2 calls",
    "version": 1
  },
  "userdoc": {
    "kind": "user",
    "methods": {
      "getAmountsForLiquidity(int24,int24,int24,uint128)": {
        "notice": "Exposes Uniswap's getAmountsForLiquidity helper function, returns amount0 and amount1 for a given amount of liquidity."
      },
      "getMintAmounts(address,uint256,uint256)": {
        "notice": "Mint Amount."
      },
      "getPositionId(address,int24,int24)": {
        "notice": "Expose getPositionId helper function for uniswap positionIds returns bytes32 positionId"
      },
      "standardRebalance(((int24,int24,uint24),uint256)[],address)": {
        "notice": "Standard rebalance (without swapping)"
      }
    },
    "version": 1
  },
  "storageLayout": {
    "storage": [],
    "types": null
  }
}